{
  "_format": "hh-sol-artifact-1",
  "contractName": "FairlaunchFactory",
  "sourceName": "contracts/fairlaunch/FairlaunchFactory.sol",
  "abi": [
    {
      "inputs": [
        {
          "internalType": "uint256",
          "name": "_deploymentFee",
          "type": "uint256"
        },
        {
          "internalType": "address",
          "name": "_feeSplitter",
          "type": "address"
        },
        {
          "internalType": "address",
          "name": "_treasuryWallet",
          "type": "address"
        },
        {
          "internalType": "address",
          "name": "_adminExecutor",
          "type": "address"
        }
      ],
      "stateMutability": "nonpayable",
      "type": "constructor"
    },
    {
      "inputs": [],
      "name": "AccessControlBadConfirmation",
      "type": "error"
    },
    {
      "inputs": [
        {
          "internalType": "address",
          "name": "account",
          "type": "address"
        },
        {
          "internalType": "bytes32",
          "name": "neededRole",
          "type": "bytes32"
        }
      ],
      "name": "AccessControlUnauthorizedAccount",
      "type": "error"
    },
    {
      "inputs": [],
      "name": "FeeTransferFailed",
      "type": "error"
    },
    {
      "inputs": [],
      "name": "InsufficientDeploymentFee",
      "type": "error"
    },
    {
      "inputs": [],
      "name": "InsufficientLPLockDuration",
      "type": "error"
    },
    {
      "inputs": [],
      "name": "InsufficientLiquidityPercent",
      "type": "error"
    },
    {
      "inputs": [],
      "name": "InsufficientTokenBalance",
      "type": "error"
    },
    {
      "inputs": [],
      "name": "InvalidContributionRange",
      "type": "error"
    },
    {
      "inputs": [],
      "name": "InvalidSoftcap",
      "type": "error"
    },
    {
      "inputs": [],
      "name": "InvalidTimeRange",
      "type": "error"
    },
    {
      "inputs": [
        {
          "internalType": "address",
          "name": "token",
          "type": "address"
        }
      ],
      "name": "SafeERC20FailedOperation",
      "type": "error"
    },
    {
      "inputs": [],
      "name": "TokenTransferFailed",
      "type": "error"
    },
    {
      "inputs": [],
      "name": "ZeroAddress",
      "type": "error"
    },
    {
      "anonymous": false,
      "inputs": [
        {
          "indexed": true,
          "internalType": "uint256",
          "name": "fairlaunchId",
          "type": "uint256"
        },
        {
          "indexed": true,
          "internalType": "address",
          "name": "fairlaunch",
          "type": "address"
        },
        {
          "indexed": true,
          "internalType": "address",
          "name": "vesting",
          "type": "address"
        },
        {
          "indexed": false,
          "internalType": "address",
          "name": "projectToken",
          "type": "address"
        }
      ],
      "name": "FairlaunchCreated",
      "type": "event"
    },
    {
      "anonymous": false,
      "inputs": [
        {
          "indexed": true,
          "internalType": "address",
          "name": "fairlaunch",
          "type": "address"
        },
        {
          "indexed": false,
          "internalType": "uint256",
          "name": "lockMonths",
          "type": "uint256"
        },
        {
          "indexed": false,
          "internalType": "bytes32",
          "name": "dexId",
          "type": "bytes32"
        },
        {
          "indexed": false,
          "internalType": "uint256",
          "name": "liquidityPercent",
          "type": "uint256"
        }
      ],
      "name": "LPPlanRecorded",
      "type": "event"
    },
    {
      "anonymous": false,
      "inputs": [
        {
          "indexed": true,
          "internalType": "bytes32",
          "name": "role",
          "type": "bytes32"
        },
        {
          "indexed": true,
          "internalType": "bytes32",
          "name": "previousAdminRole",
          "type": "bytes32"
        },
        {
          "indexed": true,
          "internalType": "bytes32",
          "name": "newAdminRole",
          "type": "bytes32"
        }
      ],
      "name": "RoleAdminChanged",
      "type": "event"
    },
    {
      "anonymous": false,
      "inputs": [
        {
          "indexed": true,
          "internalType": "bytes32",
          "name": "role",
          "type": "bytes32"
        },
        {
          "indexed": true,
          "internalType": "address",
          "name": "account",
          "type": "address"
        },
        {
          "indexed": true,
          "internalType": "address",
          "name": "sender",
          "type": "address"
        }
      ],
      "name": "RoleGranted",
      "type": "event"
    },
    {
      "anonymous": false,
      "inputs": [
        {
          "indexed": true,
          "internalType": "bytes32",
          "name": "role",
          "type": "bytes32"
        },
        {
          "indexed": true,
          "internalType": "address",
          "name": "account",
          "type": "address"
        },
        {
          "indexed": true,
          "internalType": "address",
          "name": "sender",
          "type": "address"
        }
      ],
      "name": "RoleRevoked",
      "type": "event"
    },
    {
      "inputs": [],
      "name": "DEFAULT_ADMIN_ROLE",
      "outputs": [
        {
          "internalType": "bytes32",
          "name": "",
          "type": "bytes32"
        }
      ],
      "stateMutability": "view",
      "type": "function"
    },
    {
      "inputs": [],
      "name": "DEPLOYMENT_FEE",
      "outputs": [
        {
          "internalType": "uint256",
          "name": "",
          "type": "uint256"
        }
      ],
      "stateMutability": "view",
      "type": "function"
    },
    {
      "inputs": [],
      "name": "FACTORY_ADMIN_ROLE",
      "outputs": [
        {
          "internalType": "bytes32",
          "name": "",
          "type": "bytes32"
        }
      ],
      "stateMutability": "view",
      "type": "function"
    },
    {
      "inputs": [],
      "name": "adminExecutor",
      "outputs": [
        {
          "internalType": "address",
          "name": "",
          "type": "address"
        }
      ],
      "stateMutability": "view",
      "type": "function"
    },
    {
      "inputs": [
        {
          "components": [
            {
              "internalType": "address",
              "name": "projectToken",
              "type": "address"
            },
            {
              "internalType": "address",
              "name": "paymentToken",
              "type": "address"
            },
            {
              "internalType": "uint256",
              "name": "softcap",
              "type": "uint256"
            },
            {
              "internalType": "uint256",
              "name": "tokensForSale",
              "type": "uint256"
            },
            {
              "internalType": "uint256",
              "name": "minContribution",
              "type": "uint256"
            },
            {
              "internalType": "uint256",
              "name": "maxContribution",
              "type": "uint256"
            },
            {
              "internalType": "uint256",
              "name": "startTime",
              "type": "uint256"
            },
            {
              "internalType": "uint256",
              "name": "endTime",
              "type": "uint256"
            },
            {
              "internalType": "address",
              "name": "projectOwner",
              "type": "address"
            },
            {
              "internalType": "uint16",
              "name": "listingPremiumBps",
              "type": "uint16"
            }
          ],
          "internalType": "struct FairlaunchFactory.CreateFairlaunchParams",
          "name": "params",
          "type": "tuple"
        },
        {
          "components": [
            {
              "internalType": "address",
              "name": "beneficiary",
              "type": "address"
            },
            {
              "internalType": "uint256",
              "name": "startTime",
              "type": "uint256"
            },
            {
              "internalType": "uint256[]",
              "name": "durations",
              "type": "uint256[]"
            },
            {
              "internalType": "uint256[]",
              "name": "amounts",
              "type": "uint256[]"
            }
          ],
          "internalType": "struct FairlaunchFactory.TeamVestingParams",
          "name": "vestingParams",
          "type": "tuple"
        },
        {
          "components": [
            {
              "internalType": "uint256",
              "name": "lockMonths",
              "type": "uint256"
            },
            {
              "internalType": "uint256",
              "name": "liquidityPercent",
              "type": "uint256"
            },
            {
              "internalType": "bytes32",
              "name": "dexId",
              "type": "bytes32"
            }
          ],
          "internalType": "struct FairlaunchFactory.LPLockPlan",
          "name": "lpPlan",
          "type": "tuple"
        }
      ],
      "name": "createFairlaunch",
      "outputs": [
        {
          "internalType": "address",
          "name": "fairlaunch",
          "type": "address"
        },
        {
          "internalType": "address",
          "name": "vesting",
          "type": "address"
        }
      ],
      "stateMutability": "payable",
      "type": "function"
    },
    {
      "inputs": [],
      "name": "fairlaunchCount",
      "outputs": [
        {
          "internalType": "uint256",
          "name": "",
          "type": "uint256"
        }
      ],
      "stateMutability": "view",
      "type": "function"
    },
    {
      "inputs": [
        {
          "internalType": "address",
          "name": "",
          "type": "address"
        }
      ],
      "name": "fairlaunchToLPPlan",
      "outputs": [
        {
          "internalType": "uint256",
          "name": "lockMonths",
          "type": "uint256"
        },
        {
          "internalType": "uint256",
          "name": "liquidityPercent",
          "type": "uint256"
        },
        {
          "internalType": "bytes32",
          "name": "dexId",
          "type": "bytes32"
        }
      ],
      "stateMutability": "view",
      "type": "function"
    },
    {
      "inputs": [
        {
          "internalType": "address",
          "name": "",
          "type": "address"
        }
      ],
      "name": "fairlaunchToVesting",
      "outputs": [
        {
          "internalType": "address",
          "name": "",
          "type": "address"
        }
      ],
      "stateMutability": "view",
      "type": "function"
    },
    {
      "inputs": [
        {
          "internalType": "uint256",
          "name": "",
          "type": "uint256"
        }
      ],
      "name": "fairlaunches",
      "outputs": [
        {
          "internalType": "address",
          "name": "",
          "type": "address"
        }
      ],
      "stateMutability": "view",
      "type": "function"
    },
    {
      "inputs": [],
      "name": "feeSplitter",
      "outputs": [
        {
          "internalType": "address",
          "name": "",
          "type": "address"
        }
      ],
      "stateMutability": "view",
      "type": "function"
    },
    {
      "inputs": [
        {
          "internalType": "uint256",
          "name": "fairlaunchId",
          "type": "uint256"
        }
      ],
      "name": "getFairlaunchDetails",
      "outputs": [
        {
          "internalType": "address",
          "name": "fairlaunch",
          "type": "address"
        },
        {
          "internalType": "address",
          "name": "vesting",
          "type": "address"
        },
        {
          "components": [
            {
              "internalType": "uint256",
              "name": "lockMonths",
              "type": "uint256"
            },
            {
              "internalType": "uint256",
              "name": "liquidityPercent",
              "type": "uint256"
            },
            {
              "internalType": "bytes32",
              "name": "dexId",
              "type": "bytes32"
            }
          ],
          "internalType": "struct FairlaunchFactory.LPLockPlan",
          "name": "lpPlan",
          "type": "tuple"
        }
      ],
      "stateMutability": "view",
      "type": "function"
    },
    {
      "inputs": [
        {
          "internalType": "bytes32",
          "name": "role",
          "type": "bytes32"
        }
      ],
      "name": "getRoleAdmin",
      "outputs": [
        {
          "internalType": "bytes32",
          "name": "",
          "type": "bytes32"
        }
      ],
      "stateMutability": "view",
      "type": "function"
    },
    {
      "inputs": [
        {
          "internalType": "bytes32",
          "name": "role",
          "type": "bytes32"
        },
        {
          "internalType": "address",
          "name": "account",
          "type": "address"
        }
      ],
      "name": "grantRole",
      "outputs": [],
      "stateMutability": "nonpayable",
      "type": "function"
    },
    {
      "inputs": [
        {
          "internalType": "bytes32",
          "name": "role",
          "type": "bytes32"
        },
        {
          "internalType": "address",
          "name": "account",
          "type": "address"
        }
      ],
      "name": "hasRole",
      "outputs": [
        {
          "internalType": "bool",
          "name": "",
          "type": "bool"
        }
      ],
      "stateMutability": "view",
      "type": "function"
    },
    {
      "inputs": [
        {
          "internalType": "bytes32",
          "name": "role",
          "type": "bytes32"
        },
        {
          "internalType": "address",
          "name": "callerConfirmation",
          "type": "address"
        }
      ],
      "name": "renounceRole",
      "outputs": [],
      "stateMutability": "nonpayable",
      "type": "function"
    },
    {
      "inputs": [
        {
          "internalType": "bytes32",
          "name": "role",
          "type": "bytes32"
        },
        {
          "internalType": "address",
          "name": "account",
          "type": "address"
        }
      ],
      "name": "revokeRole",
      "outputs": [],
      "stateMutability": "nonpayable",
      "type": "function"
    },
    {
      "inputs": [
        {
          "internalType": "bytes4",
          "name": "interfaceId",
          "type": "bytes4"
        }
      ],
      "name": "supportsInterface",
      "outputs": [
        {
          "internalType": "bool",
          "name": "",
          "type": "bool"
        }
      ],
      "stateMutability": "view",
      "type": "function"
    },
    {
      "inputs": [],
      "name": "treasuryWallet",
      "outputs": [
        {
          "internalType": "address",
          "name": "",
          "type": "address"
        }
      ],
      "stateMutability": "view",
      "type": "function"
    }
  ],
  "bytecode": "0x610100346200013157601f6200513538819003918201601f191683019291906001600160401b0384118385101762000136578160809284926040968752833981010312620001315780519062000058602082016200014c565b6200007360606200006b8685016200014c565b93016200014c565b926001600160a01b038281161562000120578084161562000120578416156200010f5760e05260805260a05260c052620000ad3362000161565b50620000b933620001e1565b5051614e9190816200028482396080518181816102f40152610630015260a0518181816104cd0152610aec015260c05181818161066b015281816109f20152610c36015260e0518181816101d5015261041e0152f35b845163d92e233d60e01b8152600490fd5b855163d92e233d60e01b8152600490fd5b600080fd5b634e487b7160e01b600052604160045260246000fd5b51906001600160a01b03821682036200013157565b6001600160a01b031660008181527fad3228b676f7d3cd4284a5443f17f1962b36e491b30a40b2405849e597ba5fb5602052604081205490919060ff16620001dd57818052816020526040822081835260205260408220600160ff198254161790553391600080516020620051158339815191528180a4600190565b5090565b6001600160a01b031660008181527f40d6054e7c1e32abf36e71c717b2201c6fb50ee4639813ce060d4f8ffbb78bdd60205260408120549091907fbd5d72ac35ae1e83aa0625c57eddda63fbb064a87fca99dfdd7ce027384ae2829060ff166200027e57808352826020526040832082845260205260408320600160ff1982541617905560008051602062005115833981519152339380a4600190565b50509056fe60808060405260043610156200001457600080fd5b60003560e01c90816301ffc9a71462000c65575080631d1b49d31462000c1e578063248a9ca31462000bed5780632f2ff15d1462000ba65780633360cf5e1462000b6957806336568abe1462000b1b5780634626402b1462000ad457806347fce11914620003d05780635148695f14620003235780636052970c14620002dc57806391d14854146200028b5780639e1f288e146200026b578063a186d14f1462000216578063a217fddf14620001f8578063a8f3225114620001bb578063d547741f1462000172578063e0fe61fe14620001335763e249cbec14620000f857600080fd5b346200012e5760203660031901126200012e576004356000526002602052602060018060a01b0360406000205416604051908152f35b600080fd5b346200012e5760203660031901126200012e5760206001600160a01b03806200015b62000cd4565b166000526003825260406000205416604051908152f35b346200012e5760403660031901126200012e57620001b96004356200019662000cbd565b90806000526000602052620001b360016040600020015462000ceb565b62000daf565b005b346200012e5760003660031901126200012e5760206040517f00000000000000000000000000000000000000000000000000000000000000008152f35b346200012e5760003660031901126200012e57602060405160008152f35b346200012e5760203660031901126200012e576001600160a01b036200023b62000cd4565b16600052600460205260606040600020805490600260018201549101549060405192835260208301526040820152f35b346200012e5760003660031901126200012e576020600154604051908152f35b346200012e5760403660031901126200012e57620002a862000cbd565b600435600052600060205260406000209060018060a01b0316600052602052602060ff604060002054166040519015158152f35b346200012e5760003660031901126200012e576040517f00000000000000000000000000000000000000000000000000000000000000006001600160a01b03168152602090f35b346200012e576020806003193601126200012e5760a0906000604080516200034b8162000e25565b8281528284820152015260043560005260028152600180831b03908160406000205416918260005260038252604060002054166004825260406000209060405190620003978262000e25565b82548252600260018401549385840194855201549360408301948552604051958652850152516040840152516060830152516080820152f35b6003193681016101c081126200012e57610140136200012e5767ffffffffffffffff61014435116200012e5760809061014435360301126200012e576060366101631901126200012e5760007f0000000000000000000000000000000000000000000000000000000000000000341062000ac2576044351562000ab05760e43560c435101562000a9e574260c435111562000a9e5760a4356084351162000a8c576084351562000a8c57600c610164351062000a7a57611b58610184351062000a68576001600160a01b03620004a562000e7b565b161562000a56576001600160a01b03620004be62000e92565b161562000a56576000808080347f00000000000000000000000000000000000000000000000000000000000000005af13d1562000a50573d67ffffffffffffffff8111620008fd5760405190601f1967ffffffffffffffff601f83018216603f018216840190811190841117620008fd57603f81601f840116011682016040528152600060203d92013e5b1562000a3e5762000567606461014435016101443560040162000e42565b905062000913575b6200057962000e7b565b906024356001600160a01b03811690036200012e57610124359161ffff831683036200012e57620005a962000e92565b906040519384612ec681011067ffffffffffffffff612ec687011117620008fd5761ffff91612ec662000f9287396001600160a01b03908116612ec687019081526024358216602082015260443560408201526064356060820152608435608082015260a43560a082015260c43560c082015260e43560e0820152929091166101008301527f000000000000000000000000000000000000000000000000000000000000000081166101208301528381166101408301529182166101608201527f0000000000000000000000000000000000000000000000000000000000000000909116610180820152610184356101a0820152610164356101c08201526101a4356101e08201819052929081900361020001906000f08015620008f1576001600160a01b039081169190620006de62000e7b565b16610184356064350260643581046101843514606435151715620008db57620007126127106200071b920460643562000ecf565b84338462000eed565b6001600160a01b0382161515908162000853575b506040936200081591600154600052600260205285600020906bffffffffffffffffffffffff60a01b9186838254161790556200082d575b50836000526004602052806002866000206101643581556101843560018201550155837fda79e99dc31a6b02a1a6d9e3758c6d0ef34606738cc48a1ff703d6566b040626606060015493620007bb62000e7b565b89516001600160a01b03918216815290881690859087907f83690fc050263340e4f4dd8cb0061beabb83623cc56df48714b6ad16a68b1ab390602090a488519061016435825260208201526101843589820152a262000edd565b60015582519182526001600160a01b03166020820152f35b6000858152600360205286902080549091166001600160a01b0385161790558562000767565b6200086b606461014435016101443560040162000e42565b906000916000915b818310620008b2575050509160409591838562000815956200089c575b5050509150936200072f565b620008a992339062000eed565b86808562000890565b909192620008cc620008d3918560051b8401359062000ecf565b9362000edd565b919062000873565b634e487b7160e01b600052601160045260246000fd5b6040513d6000823e3d90fd5b634e487b7160e01b600052604160045260246000fd5b506200091e62000e7b565b60046101443501356001600160a01b03811681036200012e576200094f604461014435016101443560040162000e42565b9190926200096a606461014435016101443560040162000e42565b9091604051958661100481011067ffffffffffffffff61100489011117620008fd578695620009f095620009d99361100462003e588a396001600160a01b039081166110048a01908152911660208201526101443560240135604082015260c060608201819052019162000eaa565b916110048501830360806110048701015262000eaa565b7f00000000000000000000000000000000000000000000000000000000000000006001600160a01b0316611004830160a0015203906000f08015620008f1576001600160a01b03166200056f565b604051634033e4e360e01b8152600490fd5b62000549565b60405163d92e233d60e01b8152600490fd5b604051634c87d75360e11b8152600490fd5b6040516376a12a0f60e11b8152600490fd5b60405163102df2a160e11b8152600490fd5b60405163536a71af60e01b8152600490fd5b604051636858a31f60e11b8152600490fd5b6040516354605d0160e11b8152600490fd5b346200012e5760003660031901126200012e576040517f00000000000000000000000000000000000000000000000000000000000000006001600160a01b03168152602090f35b346200012e5760403660031901126200012e5762000b3862000cbd565b336001600160a01b0382160362000b5757620001b99060043562000daf565b60405163334bd91960e11b8152600490fd5b346200012e5760003660031901126200012e5760206040517fbd5d72ac35ae1e83aa0625c57eddda63fbb064a87fca99dfdd7ce027384ae2828152f35b346200012e5760403660031901126200012e57620001b960043562000bca62000cbd565b9080600052600060205262000be760016040600020015462000ceb565b62000d30565b346200012e5760203660031901126200012e5760043560005260006020526020600160406000200154604051908152f35b346200012e5760003660031901126200012e576040517f00000000000000000000000000000000000000000000000000000000000000006001600160a01b03168152602090f35b346200012e5760203660031901126200012e576004359063ffffffff60e01b82168092036200012e57602091637965db0b60e01b811490811562000cab575b5015158152f35b6301ffc9a760e01b1490508362000ca4565b602435906001600160a01b03821682036200012e57565b600435906001600160a01b03821682036200012e57565b80600052600060205260406000203360005260205260ff604060002054161562000d125750565b6044906040519063e2517d3f60e01b82523360048301526024820152fd5b9060009180835282602052604083209160018060a01b03169182845260205260ff6040842054161560001462000daa57808352826020526040832082845260205260408320600160ff198254161790557f2f8788117e7eff1d82e926ec794901d17c78024a50270940304540a733656f0d339380a4600190565b505090565b9060009180835282602052604083209160018060a01b03169182845260205260ff60408420541660001462000daa5780835282602052604083208284526020526040832060ff1981541690557ff6391f5c32d9c69d2a47ea670b442974b53935d1edc7fd64eb21e047a839171b339380a4600190565b6060810190811067ffffffffffffffff821117620008fd57604052565b903590601e19813603018212156200012e570180359067ffffffffffffffff82116200012e57602001918160051b360383136200012e57565b6004356001600160a01b03811681036200012e5790565b610104356001600160a01b03811681036200012e5790565b81835290916001600160fb1b0383116200012e5760209260051b809284830137010190565b91908201809211620008db57565b6000198114620008db5760010190565b6040516323b872dd60e01b602082019081526001600160a01b039384166024830152938316604482015260648082019590955293845292909160a082019067ffffffffffffffff821183831017620008fd57602092600092604052519082865af115620008f1576000513d62000f8757508082163b155b62000f6d575050565b604051635274afe760e01b81529116600482015260249150fd5b6001141562000f6456fe34620003b65762002ec638819003610280601f8201601f19168101906001600160401b03821190821017620003bb576102009282916040526102803912620003b6576200004e610280620003d1565b6200005b6102a0620003d1565b6102c0516102e051610300516103205161034051610360516103805195979590949392919061ffff81168103620003b65762000167956200009e6103a0620003d1565b92620000ac6103c0620003d1565b94620000ba6103e0620003d1565b96620000c8610400620003d1565b6104205161044051610460516001805560809e909e5260a09e909e5260c09e909e5260e09990995261010052610120526101405261016052610180526101a0526101c0526101e0526102209485526102409384526102609283526002805460ff60a01b19169055600046603803620002ec57507310ed43c718714eb63d5aa57b78b54704e256024e5b610200526200016081620003e6565b5062000466565b506040519161299d9384620005098539608051848181610c6f01528181610d5a0152818161102401526126bc015260a051848181610387015281816108d501528181610b5d01528181610ef40152818161109401528181611eb60152612571015260c05184818161028a01528181611c0c0152611d1f015260e051848181610d0a0152818161165401528181611ff1015281816126fd015261290d0152610100518481816106900152611a9b0152610120518481816107df0152611ae50152610140518481816109910152818161281501526128a5015261016051848181610ebc015281816127eb015261287b01526101805184818161169201526120e601526101a051848181610a8601528181611edf0152611fa401526101c051848181610a42015261254701526101e0518481816106c80152818161232d015281816125a0015261267d015261020051848181610ff001526116cb0152518381816105fd015281816120b7015261251001525182818161081a015261226d015251816115ef0152f35b4660610362000311575073d99d1c33f9fc3444f8101754abc46c52416550d162000151565b46600103620003365750737a250d5630b4cf539739df2c5dacb4c659f2488d62000151565b4662aa36a7036200035d575073ee567fe1712faf6149d80da1e6934e354124cfe362000151565b6121054614908115620003a8575b50156200038d57734752ba5dbc23f44d87826276bf6fd6b1c372ad2462000151565b737a250d5630b4cf539739df2c5dacb4c659f2488d62000151565b4662014a341491506200036b565b600080fd5b634e487b7160e01b600052604160045260246000fd5b51906001600160a01b0382168203620003b657565b6001600160a01b031660008181527fad3228b676f7d3cd4284a5443f17f1962b36e491b30a40b2405849e597ba5fb5602052604081205490919060ff166200046257818052816020526040822081835260205260408220600160ff19825416179055339160008051602062002ea68339815191528180a4600190565b5090565b6001600160a01b031660008181527f7d7ffb7a348e1c6a02869081a26547b49160dd3df72d1d75a570eb9b698292ec60205260408120549091907fa49807205ce4d355092ef5a8a18f56e8913cf4a201fbe287825b095693c217759060ff166200050357808352826020526040832082845260205260408320600160ff1982541617905560008051602062002ea6833981519152339380a4600190565b50509056fe6040608081526004908136101561001557600080fd5b600091823560e01c908162c3702d1461175057816301ffc9a7146116fa57816303fc20131461083d5781630758d924146116b65781630b7c1ae11461167757816312aef8c31461163c5781631cc645441461073e578163200d2ed214611612578163220c0956146115d7578163224e93fe14610fb9578163248a9ca314610f8f5781632c51c7e014610f4d5781632f2ff15d14610f235781633013ce2914610edf5781633197cbb614610ea4578163362f04c014610e8657816336568abe14610e405781633f4ba83a14610df557816342e94c901461042357816348c54b9d14610c9e5781634b60ce7714610c5a5781634bb278f314610c395781634e69d56014610c0c578163590e1ae314610afa5781635d49dff414610ab55781636052970c14610a71578163619f3d6c14610a2d57816373b2e80e146109ef57816375b238fc146109b457816378e97925146109795781638160059a146108b55781638456cb591461086657816389dda6a01461083d5781638bcd8515146108025781638d3d6576146107c75781638d4e4083146107a357816391d148541461075d5781639ce05df71461073e5781639e014fd514610712578163a217fddf146106f7578163a4475ce4146106b3578163aaffadf314610678578163af1a9cab14610620578163b0683755146105e5578163b187bd26146105be578163b524f87b14610488578163b920ade21461045b578163bb8b2b4714610423578163c5c4744c14610404578163d547741f146103c5578163d7bb99ba1461036f578163ea8a1af0146102dd57508063f5ae497a146102b15763f89be5931461027457600080fd5b346102ad57816003193601126102ad57602090517f00000000000000000000000000000000000000000000000000000000000000008152f35b5080fd5b50346102ad57816003193601126102ad57600654905160189190911c6001600160a01b03168152602090f35b90503461036b578260031936011261036b576102f76117ef565b6002549160ff8360a01c1660068110156103585760031461034b57505060ff60a01b1916600560a01b176002557f63b958841f79ab97cb5456da181454b9932c0e15a3b17f1cbd27e2a8bc6104378180a180f35b516307a92f1960e51b8152fd5b634e487b7160e01b855260218352602485fd5b8280fd5b9190508260031936011261036b57610385611982565b7f00000000000000000000000000000000000000000000000000000000000000006001600160a01b031661034b57826103be3433611a68565b6001805580f35b9190503461036b578060031936011261036b5761040091356103fb60016103ea6117be565b938387528660205286200154611869565b61190d565b5080f35b5050346102ad57816003193601126102ad576020906003549051908152f35b5050346102ad5760203660031901126102ad5760209181906001600160a01b0361044b6117d9565b1681526007845220549051908152f35b5050346102ad5760203660031901126102ad5760209061048161047c6117d9565b6128cc565b9051908152f35b839150346102ad5760203660031901126102ad576104a46117d9565b6104ac6117ef565b600254906001600160a01b03908183166105835760ff6006541661054c571691821561050957506001600160a01b03191681176002557ff3e056d0219310a4e47c749671cfbc8607538f3327bb8c6bf872a1119b622d2f8280a280f35b606490602086519162461bcd60e51b8352820152601960248201527f496e76616c6964204c50204c6f636b65722061646472657373000000000000006044820152fd5b855162461bcd60e51b81526020818601526011602482015270105b1c9958591e48199a5b985b1a5e9959607a1b6044820152606490fd5b855162461bcd60e51b81526020818601526015602482015274131408131bd8dad95c88185b1c9958591e481cd95d605a1b6044820152606490fd5b5050346102ad57816003193601126102ad5760209060ff60065460081c1690519015158152f35b5050346102ad57816003193601126102ad57602090517f00000000000000000000000000000000000000000000000000000000000000008152f35b9190503461036b578260031936011261036b5761063b611982565b6106436117ef565b60ff60065460101c1660058110156106655760010361034b57826103be61208b565b634e487b7160e01b845260218352602484fd5b5050346102ad57816003193601126102ad57602090517f00000000000000000000000000000000000000000000000000000000000000008152f35b5050346102ad57816003193601126102ad57517f00000000000000000000000000000000000000000000000000000000000000006001600160a01b03168152602090f35b5050346102ad57816003193601126102ad5751908152602090f35b833461073b578060031936011261073b5761072b611982565b6107336117ef565b6103be611d00565b80fd5b5050346102ad57816003193601126102ad576020906005549051908152f35b90503461036b578160031936011261036b578160209360ff9261077e6117be565b903582528186528282206001600160a01b039091168252855220549151911615158152f35b5050346102ad57816003193601126102ad5760209060ff6006541690519015158152f35b5050346102ad57816003193601126102ad57602090517f00000000000000000000000000000000000000000000000000000000000000008152f35b5050346102ad57816003193601126102ad57602090517f00000000000000000000000000000000000000000000000000000000000000008152f35b5050346102ad57816003193601126102ad5760025490516001600160a01b039091168152602090f35b833461073b578060031936011261073b5761087f6117ef565b61010061ff001960065416176006557f9e87fac88ff661f02d44f95383c817fece4bce600a3dab7a54406878b965e7528180a180f35b8383346102ad5760203660031901126102ad578235906108d3611982565b7f00000000000000000000000000000000000000000000000000000000000000006001600160a01b031680156109695781516323b872dd60e01b6020820152336024820152306044820152606480820185905281529160a083019067ffffffffffffffff82118483101761095657526103be9291610950916119dd565b33611a68565b634e487b7160e01b865260418752602486fd5b81516307a92f1960e51b81528590fd5b5050346102ad57816003193601126102ad57602090517f00000000000000000000000000000000000000000000000000000000000000008152f35b5050346102ad57816003193601126102ad57602090517fa49807205ce4d355092ef5a8a18f56e8913cf4a201fbe287825b095693c217758152f35b5050346102ad5760203660031901126102ad5760209160ff9082906001600160a01b03610a1a6117d9565b1681526008855220541690519015158152f35b5050346102ad57816003193601126102ad57517f00000000000000000000000000000000000000000000000000000000000000006001600160a01b03168152602090f35b5050346102ad57816003193601126102ad57517f00000000000000000000000000000000000000000000000000000000000000006001600160a01b03168152602090f35b9190503461036b578260031936011261036b57610ad0611982565b610ad86117ef565b60ff60065460101c1660058110156106655760020361034b57826103be612214565b9190503461036b578260031936011261036b57610b15611982565b60ff60025460a01c16600681101561066557828114159081610c00575b5061034b5733835260076020528083205415610bf357338352600760205280832080549084905591827f00000000000000000000000000000000000000000000000000000000000000006001600160a01b031680610be257508480808093335af1610b9b611dfe565b5015610bd457505b519081527fd7dee2702d63ad89917b6a4da9981c90c4d24f8c2bdfd64c604ecae57d8d065160203392a26001805580f35b90516312171d8360e31b8152fd5b610bee9250339061201e565b610ba3565b5163f76aef6560e01b8152fd5b60059150141538610b32565b5050346102ad57816003193601126102ad57610c3590610c2a61283c565b905191829182611795565b0390f35b833461073b578060031936011261073b57610c52611982565b6103be611bda565b5050346102ad57816003193601126102ad57517f00000000000000000000000000000000000000000000000000000000000000006001600160a01b03168152602090f35b90503461036b578260031936011261036b57610cb8611982565b60ff60025460a01c166006811015610de257600303610dd45733835260076020528183205415610dc657338352600860205260ff8284205416610db857503382526007602052610d38610d2f828420547f000000000000000000000000000000000000000000000000000000000000000090611dcb565b60035490611dde565b338084526008602052828420805460ff19166001179055909190610d879083907f00000000000000000000000000000000000000000000000000000000000000006001600160a01b031661201e565b519081527f896e034966eaaf1adc54acc0f257056febbd300c9e47182cf761982cf1f5e43060203392a26001805580f35b9051630c8d9eab60e31b8152fd5b9051631971fbf360e21b8152fd5b90516307a92f1960e51b8152fd5b634e487b7160e01b845260218252602484fd5b833461073b578060031936011261073b57610e0e6117ef565b61ff0019600654166006557fa45f47fdea8a1efdd9029a5691c7f759c32b7c698632b563573e155625d169338180a180f35b8383346102ad57806003193601126102ad57610e5a6117be565b90336001600160a01b03831603610e77575061040091923561190d565b5163334bd91960e11b81528390fd5b90503461036b578260031936011261036b5760209250549051908152f35b5050346102ad57816003193601126102ad57602090517f00000000000000000000000000000000000000000000000000000000000000008152f35b5050346102ad57816003193601126102ad57517f00000000000000000000000000000000000000000000000000000000000000006001600160a01b03168152602090f35b9190503461036b578060031936011261036b576104009135610f4860016103ea6117be565b61188f565b8383346102ad57816003193601126102ad5760ff60065460101c169051916005821015610f7c57602083838152f35b634e487b7160e01b815260218452602490fd5b90503461036b57602036600319011261036b57816020936001923581528085522001549051908152f35b82843461073b578160031936011261073b57823590602435933033036115c957835163095ea7b360e01b8082526001600160a01b037f0000000000000000000000000000000000000000000000000000000000000000811684840181815260208082018990529992977f0000000000000000000000000000000000000000000000000000000000000000808a16979096909493928c908290819060400103818c8c5af1801561131e576115ac575b50895163c45a015560e01b81528b818681865afa90811561131e57908a918a9161158f575b5016948a8c8a7f0000000000000000000000000000000000000000000000000000000000000000938d85169384156000146113285794505050505051966315ab88c960e31b88528b888681865afa97881561131e5789986112ff575b508a5163e6a4390560e01b8082526001600160a01b03808a16888401908152908b166020820152909591908e908290819060400103818b5afa9081156112d8578a8f918f938f8f92908e928d9285916112e2575b50161561126b575b50505050505061012c420193844211611258579160c491606094938e51968795869463f305d71960e01b86528b86015260248501528d60448501528d606485015230608485015260a48401525af1801561124e57908a9594939291611220575b5088519081526001600160a01b0393841691810191825294909216602083015283918290819060400103915afa91821561121557916111e8575b50915b5191168152f35b6112089150843d861161120e575b61120081836119a5565b81019061206c565b846111de565b503d6111f6565b8451903d90823e3d90fd5b6112409060603d8111611247575b61123881836119a5565b810190612774565b50506111a4565b503d61122e565b89513d89823e3d90fd5b634e487b7160e01b8b526011875260248bfd5b94516364e329cb60e11b81526001600160a01b039182169581019586529216602085015290928391908290819060400103918c5af180156112d857908e916112ba575b508c908a8c8b8a611144565b816112d092903d1061120e5761120081836119a5565b508c8e6112ae565b8d513d8d823e3d90fd5b6112f99150873d891161120e5761120081836119a5565b3861113c565b6113179198508c8d3d1061120e5761120081836119a5565b968c6110e8565b8b513d8b823e3d90fd5b519081526001600160a01b038716818a0190815260208101899052949b95979396949092918391829081906040010391895af180156112d8578e8b8f8c9998979695946113a894611562575b505163e6a4390560e01b8082526001600160a01b039a8b168c830190815292909a1660208301529283918291604090910190565b03818c5afa90811561153b578f908f928f8f918f93918f92918e928591611545575b5016156114ce575b50505050505061012c4201908142116114bb576101049260609594928f928e9351988997889662e8e33760e81b88528d8801526024870152604486015260648501528260848501528260a48501523060c485015260e48401525af1801561124e57908a959493929161149d575b5088519081526001600160a01b0393841691810191825294909216602083015283918290819060400103915afa9182156112155791611480575b50916111e1565b6114979150843d861161120e5761120081836119a5565b84611479565b6114b49060603d81116112475761123881836119a5565b505061143f565b634e487b7160e01b8c526011885260248cfd5b94516364e329cb60e11b81526001600160a01b039182169581019586529216602085015290928391908290819060400103918d5af1801561153b57908f9161151d575b508d908b8d8c8b6113d2565b8161153392903d1061120e5761120081836119a5565b508d8f611511565b8e513d8e823e3d90fd5b61155c9150873d891161120e5761120081836119a5565b386113ca565b61158190843d8611611588575b61157981836119a5565b8101906121fc565b5038611374565b503d61156f565b6115a691508d803d1061120e5761120081836119a5565b8d61108c565b6115c2908c8d3d106115885761157981836119a5565b508b611067565b835163ea8e4eb560e01b8152fd5b5050346102ad57816003193601126102ad57602090517f00000000000000000000000000000000000000000000000000000000000000008152f35b5050346102ad57816003193601126102ad57610c359060ff60025460a01c16905191829182611795565b5050346102ad57816003193601126102ad57602090517f00000000000000000000000000000000000000000000000000000000000000008152f35b5050346102ad57816003193601126102ad576020905161ffff7f0000000000000000000000000000000000000000000000000000000000000000168152f35b5050346102ad57816003193601126102ad57517f00000000000000000000000000000000000000000000000000000000000000006001600160a01b03168152602090f35b90503461036b57602036600319011261036b57359063ffffffff60e01b821680920361036b5760209250637965db0b60e01b821491821561173f575b50519015158152f35b6301ffc9a760e01b14915038611736565b9190503461036b578260031936011261036b5761176b611982565b6117736117ef565b60ff60065460101c1660058110156106655760030361034b57826103be6124e1565b9190602083019260068210156117a85752565b634e487b7160e01b600052602160045260246000fd5b602435906001600160a01b03821682036117d457565b600080fd5b600435906001600160a01b03821682036117d457565b3360009081527f7d7ffb7a348e1c6a02869081a26547b49160dd3df72d1d75a570eb9b698292ec60205260409020547fa49807205ce4d355092ef5a8a18f56e8913cf4a201fbe287825b095693c217759060ff161561184b5750565b6044906040519063e2517d3f60e01b82523360048301526024820152fd5b80600052600060205260406000203360005260205260ff604060002054161561184b5750565b9060009180835282602052604083209160018060a01b03169182845260205260ff6040842054161560001461190857808352826020526040832082845260205260408320600160ff198254161790557f2f8788117e7eff1d82e926ec794901d17c78024a50270940304540a733656f0d339380a4600190565b505090565b9060009180835282602052604083209160018060a01b03169182845260205260ff6040842054166000146119085780835282602052604083208284526020526040832060ff1981541690557ff6391f5c32d9c69d2a47ea670b442974b53935d1edc7fd64eb21e047a839171b339380a4600190565b600260015414611993576002600155565b604051633ee5aeb560e01b8152600490fd5b90601f8019910116810190811067ffffffffffffffff8211176119c757604052565b634e487b7160e01b600052604160045260246000fd5b906000602091828151910182855af115611a39576000513d611a3057506001600160a01b0381163b155b611a0e5750565b604051635274afe760e01b81526001600160a01b039091166004820152602490fd5b60011415611a07565b6040513d6000823e3d90fd5b91908201809211611a5257565b634e487b7160e01b600052601160045260246000fd5b919091611a7361278f565b60ff60025460a01c1660068110156117a857600103611bc85760ff60065460081c16611bb6577f00000000000000000000000000000000000000000000000000000000000000008310611ba45760018060a01b03166000928184526007602052604090611ae38183872054611a45565b7f00000000000000000000000000000000000000000000000000000000000000008111611b935783865260076020528286205415611b68575b8286857ffa35a310d7113dddce1c275da946348e9aaebf9050b00b372033c4d84b0bd6eb9697985260076020522055611b5781600354611a45565b8060035582519182526020820152a2565b6004546000198114611b7f57600101600455611b1c565b634e487b7160e01b87526011600452602487fd5b8251635e508cd360e11b8152600490fd5b604051636c7591b560e11b8152600490fd5b60405163ab35696f60e01b8152600490fd5b6040516307a92f1960e51b8152600490fd5b611be261278f565b60025460ff808260a01c1660068110156117a857600203611bc857600654818116611cfb576003547f000000000000000000000000000000000000000000000000000000000000000011611cc25781925060101c1660058110156117a85715611cb5575b8060065460101c1660058110156117a857600114611ca8575b8060065460101c1660058110156117a857600214611c9b575b60065460101c1660058110156117a857600314611c9157565b611c996124e1565b565b611ca3612214565b611c78565b611cb061208b565b611c5f565b611cbd611e87565b611c46565b505060ff60a01b1916600160a21b176002557fe48846a3dca191c762ab6aaa1e929ccaf55e31a875fb78ad1b93e15ef4830aca600080a1565b505050565b600260ff815460a01c1660068110156117a8578103611d9a575b6003547f000000000000000000000000000000000000000000000000000000000000000011611d62575060ff60065460101c1660058110156117a857611bc857611c99611e87565b805460ff60a01b1916600160a21b1790557fe48846a3dca191c762ab6aaa1e929ccaf55e31a875fb78ad1b93e15ef4830aca600080a1565b611da261278f565b60ff815460a01c1660068110156117a8578114611d1a576040516307a92f1960e51b8152600490fd5b81810292918115918404141715611a5257565b8115611de8570490565b634e487b7160e01b600052601260045260246000fd5b3d15611e39573d9067ffffffffffffffff82116119c75760405191611e2d601f8201601f1916602001846119a5565b82523d6000602084013e565b606090565b6020808252825181830181905290939260005b828110611e7357505060409293506000838284010152601f8019910116010190565b818101860151848201604001528501611e51565b60055415611fce575b6003546101f490818102918183041490151715611a525761271090046001600160a01b037f0000000000000000000000000000000000000000000000000000000000000000811680611f9c57507f000000000000000000000000000000000000000000000000000000000000000016803b156117d4576000906024604051809481936339650d1f60e01b83523060048401525af19081611f84575b50611f5857611f54611f3b611dfe565b604051630fb6a2b560e21b815291829160048301611e3e565b0390fd5b6201000062ff0000196006541617600655600080516020612948833981519152602060405160018152a1565b67ffffffffffffffff81116119c75760405238611f2b565b611fc99291507f00000000000000000000000000000000000000000000000000000000000000009061201e565b611f58565b600354670de0b6b3a764000090818102918183041490151715611a5257612016907f000000000000000000000000000000000000000000000000000000000000000090611dde565b600555611e90565b60405163a9059cbb60e01b60208201526001600160a01b03929092166024830152604480830193909352918152611c999161205a6064836119a5565b6119dd565b91908203918211611a5257565b908160209103126117d457516001600160a01b03811681036117d45790565b6003546101f4808202908282041482151715611a52576120dc6120b561271093848094049061205f565b7f000000000000000000000000000000000000000000000000000000000000000090611dcb565b049060055461ffff7f0000000000000000000000000000000000000000000000000000000000000000168201808311611a525761211891611dcb565b04670de0b6b3a764000090818302918383041483151715611a525761213c91611dde565b906040519163112749ff60e11b8352600483015260248201526020816044816000305af1600091816121dc575b5061219257611f54612179611dfe565b604051630abc035f60e41b815291829160048301611e3e565b6006805462010000600160b81b03191660189290921b6301000000600160b81b031691909117620200001790556040516002815260008051602061294883398151915290602090a1565b6121f591925060203d811161120e5761120081836119a5565b9038612169565b908160209103126117d4575180151581036117d45790565b6006546001600160a01b039060181c811680156124a9578160025416801561246457604080516370a0823160e01b815230600482015290936020938483602481845afa92831561242a57600093612435575b5062278d007f000000000000000000000000000000000000000000000000000000000000000081810292918115918404141715611a52578386916122ad6122e59442611a45565b895163095ea7b360e01b81526001600160a01b0390981660048901526024880192909252909592839190829060009082906044820190565b03925af1801561242a5761240d575b5060008480836002541660848560065460181c168a519586938492630aa393f360e01b845260048401528960248401528a6044840152887f00000000000000000000000000000000000000000000000000000000000000001660648401525af191826123e4575b505061238557611f548561236d611dfe565b90516301953ea360e11b815291829160048301611e3e565b9162030000917fe3afae9ec63e6f2e914c17bab8493b603680a72d9e6dfacf25ac6a4806555d41866000805160206129488339815191529795600654948251948552888501528460181c1692a262ff00001916176006555160038152a1565b813d8311612406575b6123f781836119a5565b810103126117d457843861235b565b503d6123ed565b61242390853d87116115885761157981836119a5565b50386122f4565b86513d6000823e3d90fd5b90928582813d831161245d575b61244c81836119a5565b8101031261073b5750519138612266565b503d612442565b60405162461bcd60e51b815260206004820152601860248201527f4c50204c6f636b6572206e6f7420636f6e6669677572656400000000000000006044820152606490fd5b60405162461bcd60e51b815260206004820152601060248201526f131408151bdad95b881b9bdd081cd95d60821b6044820152606490fd5b6003546101f4808202908282041482151715611a525761250a61253c926127108093049061205f565b906125357f000000000000000000000000000000000000000000000000000000000000000083611dcb565b049061205f565b6001600160a01b03907f00000000000000000000000000000000000000000000000000000000000000008281166126a7575b507f000000000000000000000000000000000000000000000000000000000000000082168061267157506000808080937f00000000000000000000000000000000000000000000000000000000000000005af16125c9611dfe565b501561265f5762040001905b600360a01b60ff60a01b1960025416176002557f6e4389167d2afbd1ccb4797ea87e29958adbf74cd16ba077a2ee5ab8460784e5608060065492600554906003546040519283526020830152600160ff1986161760181c16604082015260006060820152a162ff00ff191617600655600080516020612948833981519152602060405160048152a1565b6040516312171d8360e31b8152600490fd5b6204000192916126a2917f00000000000000000000000000000000000000000000000000000000000000009061201e565b6125d5565b6040516370a0823160e01b81523060048201527f000000000000000000000000000000000000000000000000000000000000000084169190602081602481865afa8015611a3957600090612741575b61272291507f00000000000000000000000000000000000000000000000000000000000000009061205f565b9081612730575b505061256e565b6127399261201e565b388080612729565b6020823d821161276c575b81612759602093836119a5565b8101031261073b575061272290516126f6565b3d915061274c565b908160609103126117d4578051916040602083015192015190565b60025460ff8160a01c1660068110156117a857801580612812575b156127c65750506002805460ff60a01b1916600160a01b179055565b600114806127e8575b6127d65750565b60ff60a01b1916600160a11b17600255565b507f00000000000000000000000000000000000000000000000000000000000000004210156127cf565b507f00000000000000000000000000000000000000000000000000000000000000004210156127aa565b60ff60025460a01c1660068110156117a8578015806128a2575b156128615750600190565b6001811480612878575b6128725790565b50600290565b507f000000000000000000000000000000000000000000000000000000000000000042101561286b565b507f0000000000000000000000000000000000000000000000000000000000000000421015612856565b60ff60025460a01c1660068110156117a85760030361294157600354801561293a576129379160018060a01b031660005260076020526129326040600020547f000000000000000000000000000000000000000000000000000000000000000090611dcb565b611dde565b90565b5050600090565b5060009056fe359f75319d3abf464a20742906c9b06c2e0cf50adc178c5f23eb44e3e83220b8a26469706673582212208ba7b660d91e0b8aa56b61a6cc0d0db6012bfca960c80c88b34014e71b6e3d7264736f6c634300081400332f8788117e7eff1d82e926ec794901d17c78024a50270940304540a733656f0d604060c0815234620003775762001004803803806200001e816200037c565b928339810160c08282031262000377576200003982620003a2565b906020916200004a838501620003a2565b8585015160608087015190966001600160401b03939092909184811162000377578662000079918501620003b7565b9560808401519085821162000377576200009c60a091620000a4938701620003b7565b9401620003a2565b6001808055959091906001600160a01b03808216156200034357841615620002ff578751855103620002c957875115620002945792620000f78795989693620000fe938d9b999660805260a05262000434565b50620004b4565b5060009586925b62000175575b505050507f721ddaabe5cc50a5a5fdc5ce1e5636612da513f19115ed78a77b4e60665f07b494508260035551908351928352820152a151610a8d908162000557823960805181818160e801526103e9015260a05181818161017a0152818161031a015261062a0152f35b9193959092949686518510156200028857506200019384876200041f565b51620001a085846200041f565b518a51918a83018381108782111762000272578c5282528882019081528a8201916000835260029182546801000000000000000081101562000272578981018085558110156200025c578360005260038c600020910201915182555188820155019051151560ff801983541691161790556200021d84836200041f565b518101809111620002465796600019841462000246578480940191899795939198969462000105565b634e487b7160e01b600052601160045260246000fd5b634e487b7160e01b600052603260045260246000fd5b634e487b7160e01b600052604160045260246000fd5b9694819694506200010b565b8a5162461bcd60e51b8152600481018a9052600e60248201526d456d707479207363686564756c6560901b6044820152606490fd5b8a5162461bcd60e51b8152600481018a9052600f60248201526e098cadccee8d040dad2e6dac2e8c6d608b1b6044820152606490fd5b8a5162461bcd60e51b8152600481018a9052601360248201527f496e76616c69642062656e6566696369617279000000000000000000000000006044820152606490fd5b8b5162461bcd60e51b8152600481018b9052600d60248201526c24b73b30b634b2103a37b5b2b760991b6044820152606490fd5b600080fd5b6040519190601f01601f191682016001600160401b038111838210176200027257604052565b51906001600160a01b03821682036200037757565b81601f8201121562000377578051916001600160401b03831162000272578260051b6020928380620003eb8185016200037c565b80978152019282010192831162000377578301905b8282106200040f575050505090565b8151815290830190830162000400565b80518210156200025c5760209160051b010190565b6001600160a01b031660008181527fad3228b676f7d3cd4284a5443f17f1962b36e491b30a40b2405849e597ba5fb5602052604081205490919060ff16620004b057818052816020526040822081835260205260408220600160ff19825416179055339160008051602062000fe48339815191528180a4600190565b5090565b6001600160a01b031660008181527fb9b0ac02325ee7cf4551d296a88408527c705a37fefd0e298966a9ada940b4c460205260408120549091907fc8a41221bcd7fcf2c225f5a9265e1d4d39949d89197159d59e5f4b87b62c419e9060ff166200055157808352826020526040832082845260205260408320600160ff1982541617905560008051602062000fe4833981519152339380a4600190565b50509056fe608060408181526004918236101561001657600080fd5b600092833560e01c91826301ffc9a71461075557508163248a9ca31461072b57816326fadbe2146105cc5781632db94d19146105ad5781632f2ff15d1461058f57816336568abe146105545781634e71d92d1461033d57816378e979251461030257816391d14854146102c8578163a217fddf146102ad578163bdc6d9ab1461025a578163ced3a4031461021f578163d547741f146101ea578163d54ad2a1146101c857508063ee28b7441461011b5763fc0c546a146100d557600080fd5b34610117578160031936011261011757517f00000000000000000000000000000000000000000000000000000000000000006001600160a01b03168152602090f35b5080fd5b503461011757816003193601126101175781906002928354905b818110610146576020848451908152f35b60ff8561015283610807565b500154161561016a575b6101659061098f565b610135565b61019e61017682610807565b50547f00000000000000000000000000000000000000000000000000000000000000006109b4565b421061015c57926101c06101659160016101b787610807565b500154906109b4565b93905061015c565b9050346101e657826003193601126101e65760209250549051908152f35b8280fd5b50503461011757600161021b91610216610203366107dc565b9390928387528660205286200154610858565b61091a565b5080f35b505034610117578160031936011261011757602090517fc8a41221bcd7fcf2c225f5a9265e1d4d39949d89197159d59e5f4b87b62c419e8152f35b9050346101e65760203660031901126101e65735916002548310156102aa5750610285606092610807565b509081549160ff60026001830154920154169082519384526020840152151590820152f35b80fd5b50503461011757816003193601126101175751908152602090f35b5050346101175760ff816020936102de366107dc565b9082528186528282206001600160a01b039091168252855220549151911615158152f35b505034610117578160031936011261011757602090517f00000000000000000000000000000000000000000000000000000000000000008152f35b919050346101e657826003193601126101e65760029060019282845414610546578284557fc8a41221bcd7fcf2c225f5a9265e1d4d39949d89197159d59e5f4b87b62c419e8086528560205282862033875260205260ff908184882054161561052957508593805491875b8381106104c4575050505082156104b7576103c48382546109b4565b8155815163a9059cbb60e01b60208201908152336024830152604480830186905282527f00000000000000000000000000000000000000000000000000000000000000006001600160a01b0316916080810167ffffffffffffffff8111828210176104a45785525160209188919082855af11561049a57855185903d610493575050803b155b61047f575050519081527f896e034966eaaf1adc54acc0f257056febbd300c9e47182cf761982cf1f5e43060203392a2805580f35b6024925191635274afe760e01b8352820152fd5b141561044a565b82513d87823e3d90fd5b634e487b7160e01b895260418552602489fd5b905162f3f86160e41b8152fd5b81836104cf83610807565b50015416156104e7575b6104e29061098f565b6103a8565b6104f361017682610807565b42106104d957956105216104e2918461050b8a610807565b5001805460ff19168b179055896101b78a610807565b9690506104d9565b9050604492519163e2517d3f60e01b835233908301526024820152fd5b9051633ee5aeb560e01b8152fd5b83833461011757610564366107dc565b91336001600160a01b0384160361058057509061021b9161091a565b5163334bd91960e11b81528490fd5b50503461011757600161021b916105a8610203366107dc565b61089c565b5050346101175781600319360112610117576020906003549051908152f35b5050346101175781600319360112610117576002918254906105ed82610a11565b926105f783610a11565b610600846109f9565b9061060d835192836109c1565b848252610619856109f9565b6020978389019691601f19013688377f0000000000000000000000000000000000000000000000000000000000000000865b8381106106b95750505050958091610680610673988551998a9960608b5260608b01906107a8565b90898203858b01526107a8565b938785039088015251928381520193925b8281106106a057505050500390f35b8351151585528695509381019392810192600101610691565b808a6106e2826106dc9d9e9b9a9c9d6106d461072096610807565b5054876109b4565b92610a43565b5260016106ee82610807565b5001546106fb8288610a43565b5260ff8461070883610807565b500154166107168289610a43565b901515905261098f565b99989795969961064b565b9050346101e65760203660031901126101e657816020936001923581528085522001549051908152f35b8491346101e65760203660031901126101e6573563ffffffff60e01b81168091036101e65760209250637965db0b60e01b8114908115610797575b5015158152f35b6301ffc9a760e01b14905083610790565b90815180825260208080930193019160005b8281106107c8575050505090565b8351855293810193928101926001016107ba565b604090600319011261080257600435906024356001600160a01b03811681036108025790565b600080fd5b600254811015610842576003906002600052027f405787fa12a823e0f2b7631cc41b3ba8828b3321ca811111fa75cd3aa3bb5ace0190600090565b634e487b7160e01b600052603260045260246000fd5b80600052600060205260406000203360005260205260ff604060002054161561087e5750565b6044906040519063e2517d3f60e01b82523360048301526024820152fd5b9060009180835282602052604083209160018060a01b03169182845260205260ff6040842054161560001461091557808352826020526040832082845260205260408320600160ff198254161790557f2f8788117e7eff1d82e926ec794901d17c78024a50270940304540a733656f0d339380a4600190565b505090565b9060009180835282602052604083209160018060a01b03169182845260205260ff6040842054166000146109155780835282602052604083208284526020526040832060ff1981541690557ff6391f5c32d9c69d2a47ea670b442974b53935d1edc7fd64eb21e047a839171b339380a4600190565b600019811461099e5760010190565b634e487b7160e01b600052601160045260246000fd5b9190820180921161099e57565b90601f8019910116810190811067ffffffffffffffff8211176109e357604052565b634e487b7160e01b600052604160045260246000fd5b67ffffffffffffffff81116109e35760051b60200190565b90610a1b826109f9565b610a2860405191826109c1565b8281528092610a39601f19916109f9565b0190602036910137565b80518210156108425760209160051b01019056fea2646970667358221220ab0dbad7314e73d77bf03df8edac5c8d9b05024f87d1f2e40e2234aa9960610464736f6c634300081400332f8788117e7eff1d82e926ec794901d17c78024a50270940304540a733656f0da26469706673582212208eec52cf2fa5e5225700d0fc7abb69775a9c9afd27994fbab39488e64b2c03f264736f6c634300081400332f8788117e7eff1d82e926ec794901d17c78024a50270940304540a733656f0d",
  "linkReferences": {},
  "deployedLinkReferences": {}
}