{
  "_format": "hh-sol-artifact-1",
  "contractName": "FeeSplitter",
  "sourceName": "contracts/std-presale/FeeSplitter.sol",
  "abi": [
    {
      "inputs": [
        {
          "internalType": "address",
          "name": "_treasury",
          "type": "address"
        },
        {
          "internalType": "address",
          "name": "_referralPool",
          "type": "address"
        },
        {
          "internalType": "address",
          "name": "_sbtStaking",
          "type": "address"
        },
        {
          "internalType": "address",
          "name": "_admin",
          "type": "address"
        }
      ],
      "stateMutability": "nonpayable",
      "type": "constructor"
    },
    {
      "inputs": [],
      "name": "AccessControlBadConfirmation",
      "type": "error"
    },
    {
      "inputs": [
        {
          "internalType": "address",
          "name": "account",
          "type": "address"
        },
        {
          "internalType": "bytes32",
          "name": "neededRole",
          "type": "bytes32"
        }
      ],
      "name": "AccessControlUnauthorizedAccount",
      "type": "error"
    },
    {
      "inputs": [],
      "name": "InvalidFeeConfig",
      "type": "error"
    },
    {
      "inputs": [],
      "name": "InvalidVault",
      "type": "error"
    },
    {
      "inputs": [],
      "name": "ReentrancyGuardReentrantCall",
      "type": "error"
    },
    {
      "inputs": [
        {
          "internalType": "address",
          "name": "token",
          "type": "address"
        }
      ],
      "name": "SafeERC20FailedOperation",
      "type": "error"
    },
    {
      "inputs": [],
      "name": "TransferFailed",
      "type": "error"
    },
    {
      "inputs": [],
      "name": "ZeroAmount",
      "type": "error"
    },
    {
      "anonymous": false,
      "inputs": [
        {
          "indexed": true,
          "internalType": "address",
          "name": "token",
          "type": "address"
        },
        {
          "indexed": false,
          "internalType": "uint256",
          "name": "totalAmount",
          "type": "uint256"
        }
      ],
      "name": "FeeCollected",
      "type": "event"
    },
    {
      "anonymous": false,
      "inputs": [
        {
          "components": [
            {
              "internalType": "uint256",
              "name": "totalBps",
              "type": "uint256"
            },
            {
              "internalType": "uint256",
              "name": "treasuryBps",
              "type": "uint256"
            },
            {
              "internalType": "uint256",
              "name": "referralPoolBps",
              "type": "uint256"
            },
            {
              "internalType": "uint256",
              "name": "sbtStakingBps",
              "type": "uint256"
            }
          ],
          "indexed": false,
          "internalType": "struct FeeSplitter.FeeConfig",
          "name": "newConfig",
          "type": "tuple"
        }
      ],
      "name": "FeeConfigUpdated",
      "type": "event"
    },
    {
      "anonymous": false,
      "inputs": [
        {
          "indexed": true,
          "internalType": "address",
          "name": "vault",
          "type": "address"
        },
        {
          "indexed": true,
          "internalType": "address",
          "name": "token",
          "type": "address"
        },
        {
          "indexed": false,
          "internalType": "uint256",
          "name": "amount",
          "type": "uint256"
        },
        {
          "indexed": false,
          "internalType": "uint256",
          "name": "bps",
          "type": "uint256"
        }
      ],
      "name": "FeeSplit",
      "type": "event"
    },
    {
      "anonymous": false,
      "inputs": [
        {
          "indexed": true,
          "internalType": "bytes32",
          "name": "role",
          "type": "bytes32"
        },
        {
          "indexed": true,
          "internalType": "bytes32",
          "name": "previousAdminRole",
          "type": "bytes32"
        },
        {
          "indexed": true,
          "internalType": "bytes32",
          "name": "newAdminRole",
          "type": "bytes32"
        }
      ],
      "name": "RoleAdminChanged",
      "type": "event"
    },
    {
      "anonymous": false,
      "inputs": [
        {
          "indexed": true,
          "internalType": "bytes32",
          "name": "role",
          "type": "bytes32"
        },
        {
          "indexed": true,
          "internalType": "address",
          "name": "account",
          "type": "address"
        },
        {
          "indexed": true,
          "internalType": "address",
          "name": "sender",
          "type": "address"
        }
      ],
      "name": "RoleGranted",
      "type": "event"
    },
    {
      "anonymous": false,
      "inputs": [
        {
          "indexed": true,
          "internalType": "bytes32",
          "name": "role",
          "type": "bytes32"
        },
        {
          "indexed": true,
          "internalType": "address",
          "name": "account",
          "type": "address"
        },
        {
          "indexed": true,
          "internalType": "address",
          "name": "sender",
          "type": "address"
        }
      ],
      "name": "RoleRevoked",
      "type": "event"
    },
    {
      "anonymous": false,
      "inputs": [
        {
          "indexed": false,
          "internalType": "string",
          "name": "vaultType",
          "type": "string"
        },
        {
          "indexed": false,
          "internalType": "address",
          "name": "newVault",
          "type": "address"
        }
      ],
      "name": "VaultUpdated",
      "type": "event"
    },
    {
      "inputs": [],
      "name": "DEFAULT_ADMIN_ROLE",
      "outputs": [
        {
          "internalType": "bytes32",
          "name": "",
          "type": "bytes32"
        }
      ],
      "stateMutability": "view",
      "type": "function"
    },
    {
      "inputs": [],
      "name": "PRESALE_ROLE",
      "outputs": [
        {
          "internalType": "bytes32",
          "name": "",
          "type": "bytes32"
        }
      ],
      "stateMutability": "view",
      "type": "function"
    },
    {
      "inputs": [
        {
          "internalType": "address",
          "name": "fairlaunch",
          "type": "address"
        }
      ],
      "name": "distributeFairlaunchFee",
      "outputs": [],
      "stateMutability": "payable",
      "type": "function"
    },
    {
      "inputs": [
        {
          "internalType": "address",
          "name": "token",
          "type": "address"
        },
        {
          "internalType": "uint256",
          "name": "totalAmount",
          "type": "uint256"
        }
      ],
      "name": "distributeFeeERC20",
      "outputs": [],
      "stateMutability": "nonpayable",
      "type": "function"
    },
    {
      "inputs": [],
      "name": "distributeFeeNative",
      "outputs": [],
      "stateMutability": "payable",
      "type": "function"
    },
    {
      "inputs": [],
      "name": "feeConfig",
      "outputs": [
        {
          "internalType": "uint256",
          "name": "totalBps",
          "type": "uint256"
        },
        {
          "internalType": "uint256",
          "name": "treasuryBps",
          "type": "uint256"
        },
        {
          "internalType": "uint256",
          "name": "referralPoolBps",
          "type": "uint256"
        },
        {
          "internalType": "uint256",
          "name": "sbtStakingBps",
          "type": "uint256"
        }
      ],
      "stateMutability": "view",
      "type": "function"
    },
    {
      "inputs": [
        {
          "internalType": "bytes32",
          "name": "role",
          "type": "bytes32"
        }
      ],
      "name": "getRoleAdmin",
      "outputs": [
        {
          "internalType": "bytes32",
          "name": "",
          "type": "bytes32"
        }
      ],
      "stateMutability": "view",
      "type": "function"
    },
    {
      "inputs": [
        {
          "internalType": "address",
          "name": "presale",
          "type": "address"
        }
      ],
      "name": "grantPresaleRole",
      "outputs": [],
      "stateMutability": "nonpayable",
      "type": "function"
    },
    {
      "inputs": [
        {
          "internalType": "bytes32",
          "name": "role",
          "type": "bytes32"
        },
        {
          "internalType": "address",
          "name": "account",
          "type": "address"
        }
      ],
      "name": "grantRole",
      "outputs": [],
      "stateMutability": "nonpayable",
      "type": "function"
    },
    {
      "inputs": [
        {
          "internalType": "bytes32",
          "name": "role",
          "type": "bytes32"
        },
        {
          "internalType": "address",
          "name": "account",
          "type": "address"
        }
      ],
      "name": "hasRole",
      "outputs": [
        {
          "internalType": "bool",
          "name": "",
          "type": "bool"
        }
      ],
      "stateMutability": "view",
      "type": "function"
    },
    {
      "inputs": [],
      "name": "referralPoolVault",
      "outputs": [
        {
          "internalType": "address",
          "name": "",
          "type": "address"
        }
      ],
      "stateMutability": "view",
      "type": "function"
    },
    {
      "inputs": [
        {
          "internalType": "bytes32",
          "name": "role",
          "type": "bytes32"
        },
        {
          "internalType": "address",
          "name": "callerConfirmation",
          "type": "address"
        }
      ],
      "name": "renounceRole",
      "outputs": [],
      "stateMutability": "nonpayable",
      "type": "function"
    },
    {
      "inputs": [
        {
          "internalType": "bytes32",
          "name": "role",
          "type": "bytes32"
        },
        {
          "internalType": "address",
          "name": "account",
          "type": "address"
        }
      ],
      "name": "revokeRole",
      "outputs": [],
      "stateMutability": "nonpayable",
      "type": "function"
    },
    {
      "inputs": [],
      "name": "sbtStakingVault",
      "outputs": [
        {
          "internalType": "address",
          "name": "",
          "type": "address"
        }
      ],
      "stateMutability": "view",
      "type": "function"
    },
    {
      "inputs": [
        {
          "components": [
            {
              "internalType": "uint256",
              "name": "totalBps",
              "type": "uint256"
            },
            {
              "internalType": "uint256",
              "name": "treasuryBps",
              "type": "uint256"
            },
            {
              "internalType": "uint256",
              "name": "referralPoolBps",
              "type": "uint256"
            },
            {
              "internalType": "uint256",
              "name": "sbtStakingBps",
              "type": "uint256"
            }
          ],
          "internalType": "struct FeeSplitter.FeeConfig",
          "name": "newConfig",
          "type": "tuple"
        }
      ],
      "name": "setFeeConfig",
      "outputs": [],
      "stateMutability": "nonpayable",
      "type": "function"
    },
    {
      "inputs": [
        {
          "internalType": "address",
          "name": "newVault",
          "type": "address"
        }
      ],
      "name": "setReferralPoolVault",
      "outputs": [],
      "stateMutability": "nonpayable",
      "type": "function"
    },
    {
      "inputs": [
        {
          "internalType": "address",
          "name": "newVault",
          "type": "address"
        }
      ],
      "name": "setSbtStakingVault",
      "outputs": [],
      "stateMutability": "nonpayable",
      "type": "function"
    },
    {
      "inputs": [
        {
          "internalType": "address",
          "name": "newVault",
          "type": "address"
        }
      ],
      "name": "setTreasuryVault",
      "outputs": [],
      "stateMutability": "nonpayable",
      "type": "function"
    },
    {
      "inputs": [
        {
          "internalType": "bytes4",
          "name": "interfaceId",
          "type": "bytes4"
        }
      ],
      "name": "supportsInterface",
      "outputs": [
        {
          "internalType": "bool",
          "name": "",
          "type": "bool"
        }
      ],
      "stateMutability": "view",
      "type": "function"
    },
    {
      "inputs": [],
      "name": "treasuryVault",
      "outputs": [
        {
          "internalType": "address",
          "name": "",
          "type": "address"
        }
      ],
      "stateMutability": "view",
      "type": "function"
    },
    {
      "stateMutability": "payable",
      "type": "receive"
    }
  ],
  "bytecode": "0x6080346200016b57601f620011b738819003918201601f19168301926001600160401b0392909183851183861017620001335781608092849260409788528339810103126200016b57620000538162000170565b90620000626020820162000170565b6200007d60606200007587850162000170565b930162000170565b6001600055926001600160a01b039081169182156200015a5781169283156200015a5716918215620001495760018060a01b03199182600254161760025581600354161760035560045416176004558251608081019281841090841117620001335762000124928452603260606101f49283815260fa602082015260c887820152015260055560fa60065560c860075560326008556200011d8162000185565b5062000206565b5051610eed9081620002aa8239f35b634e487b7160e01b600052604160045260246000fd5b8551630681d31960e51b8152600490fd5b8651630681d31960e51b8152600490fd5b600080fd5b51906001600160a01b03821682036200016b57565b6001600160a01b031660008181527fa6eef7e35abe7026729641147f7915573c7e97b47efa546f5f6e3230263bcb49602052604081205490919060ff16620002025781805260016020526040822081835260205260408220600160ff198254161790553391600080516020620011978339815191528180a4600190565b5090565b6001600160a01b031660008181527f8c1d1c4b0c8cac968d2d79c3e12add88af86ad783fbe5dff2bd63adbfcb82d9f60205260408120549091907f6a4b509b5f306a69ec99e97ff6b166daad9c0a3dfce739a6d67ad1c57143a6b29060ff16620002a45780835260016020526040832082845260205260408320600160ff1982541617905560008051602062001197833981519152339380a4600190565b50509056fe60806040818152600480361015610021575b505050361561001f57600080fd5b005b600092833560e01c90816301ffc9a7146108ab575080631e5eb1d014610872578063248a9ca3146108495780632f2ff15d1461082057806336568abe146107d957806339650d1f1461076c578063398da9111461054e578063417eb66c1461052157806342d8e8fd14610490578063460adaf0146103fb57806366afa8b7146103d257806391d148541461038c5780639326197a14610351578063990087b714610310578063a217fddf146102f5578063a9eddf991461023a578063af8b1c6f1461020d578063d547741f146101cf578063d5f80c34146101305763ef025e3a03610011573461012c578260031936011261012c575490516001600160a01b03909116815260209150f35b8280fd5b503461012c57602036600319011261012c5761014a61091a565b6101526109aa565b6001600160a01b03169081156101c157507fea5ed109ce93951f1fe8dc561074110044205c00c5d8a784007f98a8a474a54491816080926001600160601b0360a01b6002541617600255600882519280845283015267747265617375727960c01b60608301526020820152a180f35b8251630681d31960e51b8152fd5b50903461012c578060031936011261012c57610209913561020460016101f36108ff565b9383875281602052862001546109e4565b610b38565b5080f35b50503461023657816003193601126102365760025490516001600160a01b039091168152602090f35b5080fd5b503461012c57608036600319011261012c576102546109aa565b80359182156102e8576044359060243561026e8382610c83565b9361027c6064358096610c83565b86036102da576103e886116102da5750916080939185937f0ad166d8be1925ee44c5a77600b8a5f7e58cbe711c0dbd99624014a81b8350ba96600555806006558260075583600855815194855260208501528301526060820152a180f35b8251632b00a33d60e11b8152fd5b51632b00a33d60e11b8152fd5b50503461023657816003193601126102365751908152602090f35b50908260031936011261012c57610325610baf565b61032d610930565b3415610344578261033d34610c90565b6001815580f35b51631f2a200560e01b8152fd5b505034610236578160031936011261023657602090517f6a4b509b5f306a69ec99e97ff6b166daad9c0a3dfce739a6d67ad1c57143a6b28152f35b503461012c578160031936011261012c578160209360ff926103ac6108ff565b90358252600186528282206001600160a01b039091168252855220549151911615158152f35b50503461023657816003193601126102365760035490516001600160a01b039091168152602090f35b503461012c57602036600319011261012c5761041561091a565b61041d6109aa565b6001600160a01b03169081156101c157507fea5ed109ce93951f1fe8dc561074110044205c00c5d8a784007f98a8a474a54491816080926001600160601b0360a01b6003541617600355600c8251928084528301526b1c9959995c9c985b141bdbdb60a21b60608301526020820152a180f35b503461012c57602036600319011261012c576104aa61091a565b6104b26109aa565b6001600160a01b03169081156101c15791817fea5ed109ce93951f1fe8dc561074110044205c00c5d8a784007f98a8a474a544936080936001600160601b0360a01b825416179055600a825192808452830152697362745374616b696e6760b01b60608301526020820152a180f35b833461054b57602036600319011261054b5761020961053e61091a565b6105466109aa565b610a0a565b80fd5b50903461012c578060031936011261012c5761056861091a565b9060243591610575610baf565b61057d610930565b821561075c5781516323b872dd60e01b6020820152336024820152306044820152606480820185905281526001600160a01b03918216949060a0810167ffffffffffffffff8111828210176107495784526105d89086610bd2565b6105e460065485610c3a565b6105f16005548092610c63565b9461061761060a8361060560075485610c3a565b610c63565b9261060560085484610c3a565b9561062b876106268584610c83565b610c83565b820390828211610736578892837f06c5efeff5c320943d265dc4e5f1af95ad523555ce0c1957e367dda5514572df602061066a8b9a9998968496610c83565b93836107055761067e858b60025416610e22565b61068c878b60035416610e22565b6106998d8b8b5416610e22565b8a51908152a2856002541690600654885191825260208201527f2d248f4da84eac8067451c76799309f631de3ab3f02708cb6d20d034371d0a54988991a3858585600354169260075482519182526020820152a354169260085482519182526020820152a36001815580f35b610714858b6002541686610dba565b610723878b6003541686610dba565b6107318d8b8b541686610dba565b610699565b634e487b7160e01b8a526011855260248afd5b634e487b7160e01b885260418352602488fd5b8151631f2a200560e01b81528490fd5b50602036600319011261012c5761078161091a565b5061078a610baf565b34156107cb57507f06c5efeff5c320943d265dc4e5f1af95ad523555ce0c1957e367dda5514572df602083926107bf34610c90565b51348152a26001815580f35b9051631f2a200560e01b8152fd5b509190346102365780600319360112610236576107f46108ff565b90336001600160a01b038316036108115750610209919235610b38565b5163334bd91960e11b81528390fd5b50903461012c578060031936011261012c57610209913561084460016101f36108ff565b610abd565b503461012c57602036600319011261012c57816020936001923581528285522001549051908152f35b50503461023657816003193601126102365760809060055490600654906007549060085492815194855260208501528301526060820152f35b9250503461012c57602036600319011261012c573563ffffffff60e01b811680910361012c5760209250637965db0b60e01b81149081156108ee575b5015158152f35b6301ffc9a760e01b149050386108e7565b602435906001600160a01b038216820361091557565b600080fd5b600435906001600160a01b038216820361091557565b3360009081527f8c1d1c4b0c8cac968d2d79c3e12add88af86ad783fbe5dff2bd63adbfcb82d9f60205260409020547f6a4b509b5f306a69ec99e97ff6b166daad9c0a3dfce739a6d67ad1c57143a6b29060ff161561098c5750565b6044906040519063e2517d3f60e01b82523360048301526024820152fd5b3360009081527fa6eef7e35abe7026729641147f7915573c7e97b47efa546f5f6e3230263bcb49602052604081205460ff161561098c5750565b80600052600160205260406000203360005260205260ff604060002054161561098c5750565b6001600160a01b031660008181527f8c1d1c4b0c8cac968d2d79c3e12add88af86ad783fbe5dff2bd63adbfcb82d9f60205260408120549091907f6a4b509b5f306a69ec99e97ff6b166daad9c0a3dfce739a6d67ad1c57143a6b29060ff16610ab85780835260016020526040832082845260205260408320600160ff198254161790557f2f8788117e7eff1d82e926ec794901d17c78024a50270940304540a733656f0d339380a4600190565b505090565b906000918083526001602052604083209160018060a01b03169182845260205260ff60408420541615600014610ab85780835260016020526040832082845260205260408320600160ff198254161790557f2f8788117e7eff1d82e926ec794901d17c78024a50270940304540a733656f0d339380a4600190565b906000918083526001602052604083209160018060a01b03169182845260205260ff604084205416600014610ab8578083526001602052604083208284526020526040832060ff1981541690557ff6391f5c32d9c69d2a47ea670b442974b53935d1edc7fd64eb21e047a839171b339380a4600190565b600260005414610bc0576002600055565b604051633ee5aeb560e01b8152600490fd5b906000602091828151910182855af115610c2e576000513d610c2557506001600160a01b0381163b155b610c035750565b604051635274afe760e01b81526001600160a01b039091166004820152602490fd5b60011415610bfc565b6040513d6000823e3d90fd5b81810292918115918404141715610c4d57565b634e487b7160e01b600052601160045260246000fd5b8115610c6d570490565b634e487b7160e01b600052601260045260246000fd5b91908201809211610c4d57565b610c9c60065482610c3a565b90610caa6005548093610c63565b610cca610cbd8461060560075486610c3a565b9361060560085485610c3a565b91610cd9836106268685610c83565b810393818511610c4d576000610cf28196602095610c83565b6002546001600160a01b0393918391610d0e9082908716610e22565b610d1c838660035416610e22565b610d2a888660045416610e22565b817f06c5efeff5c320943d265dc4e5f1af95ad523555ce0c1957e367dda5514572df60409889988951908152a2846002541690600654875191825260208201527f2d248f4da84eac8067451c76799309f631de3ab3f02708cb6d20d034371d0a54978891a3848484600354169260075482519182526020820152a3600454169260085482519182526020820152a3565b60405163a9059cbb60e01b60208201526001600160a01b039092166024830152604480830193909352918152608081019167ffffffffffffffff831182841017610e0c57610e0a92604052610bd2565b565b634e487b7160e01b600052604160045260246000fd5b60008080809481945af1903d15610eb15767ffffffffffffffff903d828111610e9d5760405192601f8201601f19908116603f0116840190811184821017610e8957604052825260203d92013e5b15610e7757565b6040516312171d8360e31b8152600490fd5b634e487b7160e01b83526041600452602483fd5b634e487b7160e01b82526041600452602482fd5b50610e7056fea2646970667358221220a618f5391ab5e8d0766445434b8fcabf0bdb2013bf3af9c3cd0ebfc32e7a3db864736f6c634300081400332f8788117e7eff1d82e926ec794901d17c78024a50270940304540a733656f0d",
  "linkReferences": {},
  "deployedLinkReferences": {}
}