{"contracts/fairlaunch/FairlaunchFactory.sol":{"FairlaunchFactory":{"abi":[{"inputs":[{"internalType":"uint256","name":"_deploymentFee","type":"uint256"},{"internalType":"address","name":"_feeSplitter","type":"address"},{"internalType":"address","name":"_treasuryWallet","type":"address"},{"internalType":"address","name":"_adminExecutor","type":"address"}],"stateMutability":"nonpayable","type":"constructor"},{"inputs":[],"name":"AccessControlBadConfirmation","type":"error"},{"inputs":[{"internalType":"address","name":"account","type":"address"},{"internalType":"bytes32","name":"neededRole","type":"bytes32"}],"name":"AccessControlUnauthorizedAccount","type":"error"},{"inputs":[],"name":"FeeTransferFailed","type":"error"},{"inputs":[],"name":"InsufficientDeploymentFee","type":"error"},{"inputs":[],"name":"InsufficientLPLockDuration","type":"error"},{"inputs":[],"name":"InsufficientLiquidityPercent","type":"error"},{"inputs":[],"name":"InsufficientTokenBalance","type":"error"},{"inputs":[],"name":"InvalidContributionRange","type":"error"},{"inputs":[],"name":"InvalidSoftcap","type":"error"},{"inputs":[],"name":"InvalidTimeRange","type":"error"},{"inputs":[{"internalType":"address","name":"token","type":"address"}],"name":"SafeERC20FailedOperation","type":"error"},{"inputs":[],"name":"TokenTransferFailed","type":"error"},{"inputs":[],"name":"ZeroAddress","type":"error"},{"anonymous":false,"inputs":[{"indexed":true,"internalType":"uint256","name":"fairlaunchId","type":"uint256"},{"indexed":true,"internalType":"address","name":"fairlaunch","type":"address"},{"indexed":true,"internalType":"address","name":"vesting","type":"address"},{"indexed":false,"internalType":"address","name":"projectToken","type":"address"}],"name":"FairlaunchCreated","type":"event"},{"anonymous":false,"inputs":[{"indexed":true,"internalType":"address","name":"fairlaunch","type":"address"},{"indexed":false,"internalType":"uint256","name":"lockMonths","type":"uint256"},{"indexed":false,"internalType":"bytes32","name":"dexId","type":"bytes32"},{"indexed":false,"internalType":"uint256","name":"liquidityPercent","type":"uint256"}],"name":"LPPlanRecorded","type":"event"},{"anonymous":false,"inputs":[{"indexed":true,"internalType":"bytes32","name":"role","type":"bytes32"},{"indexed":true,"internalType":"bytes32","name":"previousAdminRole","type":"bytes32"},{"indexed":true,"internalType":"bytes32","name":"newAdminRole","type":"bytes32"}],"name":"RoleAdminChanged","type":"event"},{"anonymous":false,"inputs":[{"indexed":true,"internalType":"bytes32","name":"role","type":"bytes32"},{"indexed":true,"internalType":"address","name":"account","type":"address"},{"indexed":true,"internalType":"address","name":"sender","type":"address"}],"name":"RoleGranted","type":"event"},{"anonymous":false,"inputs":[{"indexed":true,"internalType":"bytes32","name":"role","type":"bytes32"},{"indexed":true,"internalType":"address","name":"account","type":"address"},{"indexed":true,"internalType":"address","name":"sender","type":"address"}],"name":"RoleRevoked","type":"event"},{"inputs":[],"name":"DEFAULT_ADMIN_ROLE","outputs":[{"internalType":"bytes32","name":"","type":"bytes32"}],"stateMutability":"view","type":"function"},{"inputs":[],"name":"DEPLOYMENT_FEE","outputs":[{"internalType":"uint256","name":"","type":"uint256"}],"stateMutability":"view","type":"function"},{"inputs":[],"name":"FACTORY_ADMIN_ROLE","outputs":[{"internalType":"bytes32","name":"","type":"bytes32"}],"stateMutability":"view","type":"function"},{"inputs":[],"name":"adminExecutor","outputs":[{"internalType":"address","name":"","type":"address"}],"stateMutability":"view","type":"function"},{"inputs":[{"components":[{"internalType":"address","name":"projectToken","type":"address"},{"internalType":"address","name":"paymentToken","type":"address"},{"internalType":"uint256","name":"softcap","type":"uint256"},{"internalType":"uint256","name":"tokensForSale","type":"uint256"},{"internalType":"uint256","name":"minContribution","type":"uint256"},{"internalType":"uint256","name":"maxContribution","type":"uint256"},{"internalType":"uint256","name":"startTime","type":"uint256"},{"internalType":"uint256","name":"endTime","type":"uint256"},{"internalType":"address","name":"projectOwner","type":"address"},{"internalType":"uint16","name":"listingPremiumBps","type":"uint16"}],"internalType":"struct FairlaunchFactory.CreateFairlaunchParams","name":"params","type":"tuple"},{"components":[{"internalType":"address","name":"beneficiary","type":"address"},{"internalType":"uint256","name":"startTime","type":"uint256"},{"internalType":"uint256[]","name":"durations","type":"uint256[]"},{"internalType":"uint256[]","name":"amounts","type":"uint256[]"}],"internalType":"struct FairlaunchFactory.TeamVestingParams","name":"vestingParams","type":"tuple"},{"components":[{"internalType":"uint256","name":"lockMonths","type":"uint256"},{"internalType":"uint256","name":"liquidityPercent","type":"uint256"},{"internalType":"bytes32","name":"dexId","type":"bytes32"}],"internalType":"struct FairlaunchFactory.LPLockPlan","name":"lpPlan","type":"tuple"}],"name":"createFairlaunch","outputs":[{"internalType":"address","name":"fairlaunch","type":"address"},{"internalType":"address","name":"vesting","type":"address"}],"stateMutability":"payable","type":"function"},{"inputs":[],"name":"fairlaunchCount","outputs":[{"internalType":"uint256","name":"","type":"uint256"}],"stateMutability":"view","type":"function"},{"inputs":[{"internalType":"address","name":"","type":"address"}],"name":"fairlaunchToLPPlan","outputs":[{"internalType":"uint256","name":"lockMonths","type":"uint256"},{"internalType":"uint256","name":"liquidityPercent","type":"uint256"},{"internalType":"bytes32","name":"dexId","type":"bytes32"}],"stateMutability":"view","type":"function"},{"inputs":[{"internalType":"address","name":"","type":"address"}],"name":"fairlaunchToVesting","outputs":[{"internalType":"address","name":"","type":"address"}],"stateMutability":"view","type":"function"},{"inputs":[{"internalType":"uint256","name":"","type":"uint256"}],"name":"fairlaunches","outputs":[{"internalType":"address","name":"","type":"address"}],"stateMutability":"view","type":"function"},{"inputs":[],"name":"feeSplitter","outputs":[{"internalType":"address","name":"","type":"address"}],"stateMutability":"view","type":"function"},{"inputs":[{"internalType":"uint256","name":"fairlaunchId","type":"uint256"}],"name":"getFairlaunchDetails","outputs":[{"internalType":"address","name":"fairlaunch","type":"address"},{"internalType":"address","name":"vesting","type":"address"},{"components":[{"internalType":"uint256","name":"lockMonths","type":"uint256"},{"internalType":"uint256","name":"liquidityPercent","type":"uint256"},{"internalType":"bytes32","name":"dexId","type":"bytes32"}],"internalType":"struct FairlaunchFactory.LPLockPlan","name":"lpPlan","type":"tuple"}],"stateMutability":"view","type":"function"},{"inputs":[{"internalType":"bytes32","name":"role","type":"bytes32"}],"name":"getRoleAdmin","outputs":[{"internalType":"bytes32","name":"","type":"bytes32"}],"stateMutability":"view","type":"function"},{"inputs":[{"internalType":"bytes32","name":"role","type":"bytes32"},{"internalType":"address","name":"account","type":"address"}],"name":"grantRole","outputs":[],"stateMutability":"nonpayable","type":"function"},{"inputs":[{"internalType":"bytes32","name":"role","type":"bytes32"},{"internalType":"address","name":"account","type":"address"}],"name":"hasRole","outputs":[{"internalType":"bool","name":"","type":"bool"}],"stateMutability":"view","type":"function"},{"inputs":[{"internalType":"bytes32","name":"role","type":"bytes32"},{"internalType":"address","name":"callerConfirmation","type":"address"}],"name":"renounceRole","outputs":[],"stateMutability":"nonpayable","type":"function"},{"inputs":[{"internalType":"bytes32","name":"role","type":"bytes32"},{"internalType":"address","name":"account","type":"address"}],"name":"revokeRole","outputs":[],"stateMutability":"nonpayable","type":"function"},{"inputs":[{"internalType":"bytes4","name":"interfaceId","type":"bytes4"}],"name":"supportsInterface","outputs":[{"internalType":"bool","name":"","type":"bool"}],"stateMutability":"view","type":"function"},{"inputs":[],"name":"treasuryWallet","outputs":[{"internalType":"address","name":"","type":"address"}],"stateMutability":"view","type":"function"}],"evm":{"bytecode":{"linkReferences":{},"object":"610100346200013157601f6200513538819003918201601f191683019291906001600160401b0384118385101762000136578160809284926040968752833981010312620001315780519062000058602082016200014c565b6200007360606200006b8685016200014c565b93016200014c565b926001600160a01b038281161562000120578084161562000120578416156200010f5760e05260805260a05260c052620000ad3362000161565b50620000b933620001e1565b5051614e9190816200028482396080518181816102f40152610630015260a0518181816104cd0152610aec015260c05181818161066b015281816109f20152610c36015260e0518181816101d5015261041e0152f35b845163d92e233d60e01b8152600490fd5b855163d92e233d60e01b8152600490fd5b600080fd5b634e487b7160e01b600052604160045260246000fd5b51906001600160a01b03821682036200013157565b6001600160a01b031660008181527fad3228b676f7d3cd4284a5443f17f1962b36e491b30a40b2405849e597ba5fb5602052604081205490919060ff16620001dd57818052816020526040822081835260205260408220600160ff198254161790553391600080516020620051158339815191528180a4600190565b5090565b6001600160a01b031660008181527f40d6054e7c1e32abf36e71c717b2201c6fb50ee4639813ce060d4f8ffbb78bdd60205260408120549091907fbd5d72ac35ae1e83aa0625c57eddda63fbb064a87fca99dfdd7ce027384ae2829060ff166200027e57808352826020526040832082845260205260408320600160ff1982541617905560008051602062005115833981519152339380a4600190565b50509056fe60808060405260043610156200001457600080fd5b60003560e01c90816301ffc9a71462000c65575080631d1b49d31462000c1e578063248a9ca31462000bed5780632f2ff15d1462000ba65780633360cf5e1462000b6957806336568abe1462000b1b5780634626402b1462000ad457806347fce11914620003d05780635148695f14620003235780636052970c14620002dc57806391d14854146200028b5780639e1f288e146200026b578063a186d14f1462000216578063a217fddf14620001f8578063a8f3225114620001bb578063d547741f1462000172578063e0fe61fe14620001335763e249cbec14620000f857600080fd5b346200012e5760203660031901126200012e576004356000526002602052602060018060a01b0360406000205416604051908152f35b600080fd5b346200012e5760203660031901126200012e5760206001600160a01b03806200015b62000cd4565b166000526003825260406000205416604051908152f35b346200012e5760403660031901126200012e57620001b96004356200019662000cbd565b90806000526000602052620001b360016040600020015462000ceb565b62000daf565b005b346200012e5760003660031901126200012e5760206040517f00000000000000000000000000000000000000000000000000000000000000008152f35b346200012e5760003660031901126200012e57602060405160008152f35b346200012e5760203660031901126200012e576001600160a01b036200023b62000cd4565b16600052600460205260606040600020805490600260018201549101549060405192835260208301526040820152f35b346200012e5760003660031901126200012e576020600154604051908152f35b346200012e5760403660031901126200012e57620002a862000cbd565b600435600052600060205260406000209060018060a01b0316600052602052602060ff604060002054166040519015158152f35b346200012e5760003660031901126200012e576040517f00000000000000000000000000000000000000000000000000000000000000006001600160a01b03168152602090f35b346200012e576020806003193601126200012e5760a0906000604080516200034b8162000e25565b8281528284820152015260043560005260028152600180831b03908160406000205416918260005260038252604060002054166004825260406000209060405190620003978262000e25565b82548252600260018401549385840194855201549360408301948552604051958652850152516040840152516060830152516080820152f35b6003193681016101c081126200012e57610140136200012e5767ffffffffffffffff61014435116200012e5760809061014435360301126200012e576060366101631901126200012e5760007f0000000000000000000000000000000000000000000000000000000000000000341062000ac2576044351562000ab05760e43560c435101562000a9e574260c435111562000a9e5760a4356084351162000a8c576084351562000a8c57600c610164351062000a7a57611b58610184351062000a68576001600160a01b03620004a562000e7b565b161562000a56576001600160a01b03620004be62000e92565b161562000a56576000808080347f00000000000000000000000000000000000000000000000000000000000000005af13d1562000a50573d67ffffffffffffffff8111620008fd5760405190601f1967ffffffffffffffff601f83018216603f018216840190811190841117620008fd57603f81601f840116011682016040528152600060203d92013e5b1562000a3e5762000567606461014435016101443560040162000e42565b905062000913575b6200057962000e7b565b906024356001600160a01b03811690036200012e57610124359161ffff831683036200012e57620005a962000e92565b906040519384612ec681011067ffffffffffffffff612ec687011117620008fd5761ffff91612ec662000f9287396001600160a01b03908116612ec687019081526024358216602082015260443560408201526064356060820152608435608082015260a43560a082015260c43560c082015260e43560e0820152929091166101008301527f000000000000000000000000000000000000000000000000000000000000000081166101208301528381166101408301529182166101608201527f0000000000000000000000000000000000000000000000000000000000000000909116610180820152610184356101a0820152610164356101c08201526101a4356101e08201819052929081900361020001906000f08015620008f1576001600160a01b039081169190620006de62000e7b565b16610184356064350260643581046101843514606435151715620008db57620007126127106200071b920460643562000ecf565b84338462000eed565b6001600160a01b0382161515908162000853575b506040936200081591600154600052600260205285600020906bffffffffffffffffffffffff60a01b9186838254161790556200082d575b50836000526004602052806002866000206101643581556101843560018201550155837fda79e99dc31a6b02a1a6d9e3758c6d0ef34606738cc48a1ff703d6566b040626606060015493620007bb62000e7b565b89516001600160a01b03918216815290881690859087907f83690fc050263340e4f4dd8cb0061beabb83623cc56df48714b6ad16a68b1ab390602090a488519061016435825260208201526101843589820152a262000edd565b60015582519182526001600160a01b03166020820152f35b6000858152600360205286902080549091166001600160a01b0385161790558562000767565b6200086b606461014435016101443560040162000e42565b906000916000915b818310620008b2575050509160409591838562000815956200089c575b5050509150936200072f565b620008a992339062000eed565b86808562000890565b909192620008cc620008d3918560051b8401359062000ecf565b9362000edd565b919062000873565b634e487b7160e01b600052601160045260246000fd5b6040513d6000823e3d90fd5b634e487b7160e01b600052604160045260246000fd5b506200091e62000e7b565b60046101443501356001600160a01b03811681036200012e576200094f604461014435016101443560040162000e42565b9190926200096a606461014435016101443560040162000e42565b9091604051958661100481011067ffffffffffffffff61100489011117620008fd578695620009f095620009d99361100462003e588a396001600160a01b039081166110048a01908152911660208201526101443560240135604082015260c060608201819052019162000eaa565b916110048501830360806110048701015262000eaa565b7f00000000000000000000000000000000000000000000000000000000000000006001600160a01b0316611004830160a0015203906000f08015620008f1576001600160a01b03166200056f565b604051634033e4e360e01b8152600490fd5b62000549565b60405163d92e233d60e01b8152600490fd5b604051634c87d75360e11b8152600490fd5b6040516376a12a0f60e11b8152600490fd5b60405163102df2a160e11b8152600490fd5b60405163536a71af60e01b8152600490fd5b604051636858a31f60e11b8152600490fd5b6040516354605d0160e11b8152600490fd5b346200012e5760003660031901126200012e576040517f00000000000000000000000000000000000000000000000000000000000000006001600160a01b03168152602090f35b346200012e5760403660031901126200012e5762000b3862000cbd565b336001600160a01b0382160362000b5757620001b99060043562000daf565b60405163334bd91960e11b8152600490fd5b346200012e5760003660031901126200012e5760206040517fbd5d72ac35ae1e83aa0625c57eddda63fbb064a87fca99dfdd7ce027384ae2828152f35b346200012e5760403660031901126200012e57620001b960043562000bca62000cbd565b9080600052600060205262000be760016040600020015462000ceb565b62000d30565b346200012e5760203660031901126200012e5760043560005260006020526020600160406000200154604051908152f35b346200012e5760003660031901126200012e576040517f00000000000000000000000000000000000000000000000000000000000000006001600160a01b03168152602090f35b346200012e5760203660031901126200012e576004359063ffffffff60e01b82168092036200012e57602091637965db0b60e01b811490811562000cab575b5015158152f35b6301ffc9a760e01b1490508362000ca4565b602435906001600160a01b03821682036200012e57565b600435906001600160a01b03821682036200012e57565b80600052600060205260406000203360005260205260ff604060002054161562000d125750565b6044906040519063e2517d3f60e01b82523360048301526024820152fd5b9060009180835282602052604083209160018060a01b03169182845260205260ff6040842054161560001462000daa57808352826020526040832082845260205260408320600160ff198254161790557f2f8788117e7eff1d82e926ec794901d17c78024a50270940304540a733656f0d339380a4600190565b505090565b9060009180835282602052604083209160018060a01b03169182845260205260ff60408420541660001462000daa5780835282602052604083208284526020526040832060ff1981541690557ff6391f5c32d9c69d2a47ea670b442974b53935d1edc7fd64eb21e047a839171b339380a4600190565b6060810190811067ffffffffffffffff821117620008fd57604052565b903590601e19813603018212156200012e570180359067ffffffffffffffff82116200012e57602001918160051b360383136200012e57565b6004356001600160a01b03811681036200012e5790565b610104356001600160a01b03811681036200012e5790565b81835290916001600160fb1b0383116200012e5760209260051b809284830137010190565b91908201809211620008db57565b6000198114620008db5760010190565b6040516323b872dd60e01b602082019081526001600160a01b039384166024830152938316604482015260648082019590955293845292909160a082019067ffffffffffffffff821183831017620008fd57602092600092604052519082865af115620008f1576000513d62000f8757508082163b155b62000f6d575050565b604051635274afe760e01b81529116600482015260249150fd5b6001141562000f6456fe34620003b65762002ec638819003610280601f8201601f19168101906001600160401b03821190821017620003bb576102009282916040526102803912620003b6576200004e610280620003d1565b6200005b6102a0620003d1565b6102c0516102e051610300516103205161034051610360516103805195979590949392919061ffff81168103620003b65762000167956200009e6103a0620003d1565b92620000ac6103c0620003d1565b94620000ba6103e0620003d1565b96620000c8610400620003d1565b6104205161044051610460516001805560809e909e5260a09e909e5260c09e909e5260e09990995261010052610120526101405261016052610180526101a0526101c0526101e0526102209485526102409384526102609283526002805460ff60a01b19169055600046603803620002ec57507310ed43c718714eb63d5aa57b78b54704e256024e5b610200526200016081620003e6565b5062000466565b506040519161299d9384620005098539608051848181610c6f01528181610d5a0152818161102401526126bc015260a051848181610387015281816108d501528181610b5d01528181610ef40152818161109401528181611eb60152612571015260c05184818161028a01528181611c0c0152611d1f015260e051848181610d0a0152818161165401528181611ff1015281816126fd015261290d0152610100518481816106900152611a9b0152610120518481816107df0152611ae50152610140518481816109910152818161281501526128a5015261016051848181610ebc015281816127eb015261287b01526101805184818161169201526120e601526101a051848181610a8601528181611edf0152611fa401526101c051848181610a42015261254701526101e0518481816106c80152818161232d015281816125a0015261267d015261020051848181610ff001526116cb0152518381816105fd015281816120b7015261251001525182818161081a015261226d015251816115ef0152f35b4660610362000311575073d99d1c33f9fc3444f8101754abc46c52416550d162000151565b46600103620003365750737a250d5630b4cf539739df2c5dacb4c659f2488d62000151565b4662aa36a7036200035d575073ee567fe1712faf6149d80da1e6934e354124cfe362000151565b6121054614908115620003a8575b50156200038d57734752ba5dbc23f44d87826276bf6fd6b1c372ad2462000151565b737a250d5630b4cf539739df2c5dacb4c659f2488d62000151565b4662014a341491506200036b565b600080fd5b634e487b7160e01b600052604160045260246000fd5b51906001600160a01b0382168203620003b657565b6001600160a01b031660008181527fad3228b676f7d3cd4284a5443f17f1962b36e491b30a40b2405849e597ba5fb5602052604081205490919060ff166200046257818052816020526040822081835260205260408220600160ff19825416179055339160008051602062002ea68339815191528180a4600190565b5090565b6001600160a01b031660008181527f7d7ffb7a348e1c6a02869081a26547b49160dd3df72d1d75a570eb9b698292ec60205260408120549091907fa49807205ce4d355092ef5a8a18f56e8913cf4a201fbe287825b095693c217759060ff166200050357808352826020526040832082845260205260408320600160ff1982541617905560008051602062002ea6833981519152339380a4600190565b50509056fe6040608081526004908136101561001557600080fd5b600091823560e01c908162c3702d1461175057816301ffc9a7146116fa57816303fc20131461083d5781630758d924146116b65781630b7c1ae11461167757816312aef8c31461163c5781631cc645441461073e578163200d2ed214611612578163220c0956146115d7578163224e93fe14610fb9578163248a9ca314610f8f5781632c51c7e014610f4d5781632f2ff15d14610f235781633013ce2914610edf5781633197cbb614610ea4578163362f04c014610e8657816336568abe14610e405781633f4ba83a14610df557816342e94c901461042357816348c54b9d14610c9e5781634b60ce7714610c5a5781634bb278f314610c395781634e69d56014610c0c578163590e1ae314610afa5781635d49dff414610ab55781636052970c14610a71578163619f3d6c14610a2d57816373b2e80e146109ef57816375b238fc146109b457816378e97925146109795781638160059a146108b55781638456cb591461086657816389dda6a01461083d5781638bcd8515146108025781638d3d6576146107c75781638d4e4083146107a357816391d148541461075d5781639ce05df71461073e5781639e014fd514610712578163a217fddf146106f7578163a4475ce4146106b3578163aaffadf314610678578163af1a9cab14610620578163b0683755146105e5578163b187bd26146105be578163b524f87b14610488578163b920ade21461045b578163bb8b2b4714610423578163c5c4744c14610404578163d547741f146103c5578163d7bb99ba1461036f578163ea8a1af0146102dd57508063f5ae497a146102b15763f89be5931461027457600080fd5b346102ad57816003193601126102ad57602090517f00000000000000000000000000000000000000000000000000000000000000008152f35b5080fd5b50346102ad57816003193601126102ad57600654905160189190911c6001600160a01b03168152602090f35b90503461036b578260031936011261036b576102f76117ef565b6002549160ff8360a01c1660068110156103585760031461034b57505060ff60a01b1916600560a01b176002557f63b958841f79ab97cb5456da181454b9932c0e15a3b17f1cbd27e2a8bc6104378180a180f35b516307a92f1960e51b8152fd5b634e487b7160e01b855260218352602485fd5b8280fd5b9190508260031936011261036b57610385611982565b7f00000000000000000000000000000000000000000000000000000000000000006001600160a01b031661034b57826103be3433611a68565b6001805580f35b9190503461036b578060031936011261036b5761040091356103fb60016103ea6117be565b938387528660205286200154611869565b61190d565b5080f35b5050346102ad57816003193601126102ad576020906003549051908152f35b5050346102ad5760203660031901126102ad5760209181906001600160a01b0361044b6117d9565b1681526007845220549051908152f35b5050346102ad5760203660031901126102ad5760209061048161047c6117d9565b6128cc565b9051908152f35b839150346102ad5760203660031901126102ad576104a46117d9565b6104ac6117ef565b600254906001600160a01b03908183166105835760ff6006541661054c571691821561050957506001600160a01b03191681176002557ff3e056d0219310a4e47c749671cfbc8607538f3327bb8c6bf872a1119b622d2f8280a280f35b606490602086519162461bcd60e51b8352820152601960248201527f496e76616c6964204c50204c6f636b65722061646472657373000000000000006044820152fd5b855162461bcd60e51b81526020818601526011602482015270105b1c9958591e48199a5b985b1a5e9959607a1b6044820152606490fd5b855162461bcd60e51b81526020818601526015602482015274131408131bd8dad95c88185b1c9958591e481cd95d605a1b6044820152606490fd5b5050346102ad57816003193601126102ad5760209060ff60065460081c1690519015158152f35b5050346102ad57816003193601126102ad57602090517f00000000000000000000000000000000000000000000000000000000000000008152f35b9190503461036b578260031936011261036b5761063b611982565b6106436117ef565b60ff60065460101c1660058110156106655760010361034b57826103be61208b565b634e487b7160e01b845260218352602484fd5b5050346102ad57816003193601126102ad57602090517f00000000000000000000000000000000000000000000000000000000000000008152f35b5050346102ad57816003193601126102ad57517f00000000000000000000000000000000000000000000000000000000000000006001600160a01b03168152602090f35b5050346102ad57816003193601126102ad5751908152602090f35b833461073b578060031936011261073b5761072b611982565b6107336117ef565b6103be611d00565b80fd5b5050346102ad57816003193601126102ad576020906005549051908152f35b90503461036b578160031936011261036b578160209360ff9261077e6117be565b903582528186528282206001600160a01b039091168252855220549151911615158152f35b5050346102ad57816003193601126102ad5760209060ff6006541690519015158152f35b5050346102ad57816003193601126102ad57602090517f00000000000000000000000000000000000000000000000000000000000000008152f35b5050346102ad57816003193601126102ad57602090517f00000000000000000000000000000000000000000000000000000000000000008152f35b5050346102ad57816003193601126102ad5760025490516001600160a01b039091168152602090f35b833461073b578060031936011261073b5761087f6117ef565b61010061ff001960065416176006557f9e87fac88ff661f02d44f95383c817fece4bce600a3dab7a54406878b965e7528180a180f35b8383346102ad5760203660031901126102ad578235906108d3611982565b7f00000000000000000000000000000000000000000000000000000000000000006001600160a01b031680156109695781516323b872dd60e01b6020820152336024820152306044820152606480820185905281529160a083019067ffffffffffffffff82118483101761095657526103be9291610950916119dd565b33611a68565b634e487b7160e01b865260418752602486fd5b81516307a92f1960e51b81528590fd5b5050346102ad57816003193601126102ad57602090517f00000000000000000000000000000000000000000000000000000000000000008152f35b5050346102ad57816003193601126102ad57602090517fa49807205ce4d355092ef5a8a18f56e8913cf4a201fbe287825b095693c217758152f35b5050346102ad5760203660031901126102ad5760209160ff9082906001600160a01b03610a1a6117d9565b1681526008855220541690519015158152f35b5050346102ad57816003193601126102ad57517f00000000000000000000000000000000000000000000000000000000000000006001600160a01b03168152602090f35b5050346102ad57816003193601126102ad57517f00000000000000000000000000000000000000000000000000000000000000006001600160a01b03168152602090f35b9190503461036b578260031936011261036b57610ad0611982565b610ad86117ef565b60ff60065460101c1660058110156106655760020361034b57826103be612214565b9190503461036b578260031936011261036b57610b15611982565b60ff60025460a01c16600681101561066557828114159081610c00575b5061034b5733835260076020528083205415610bf357338352600760205280832080549084905591827f00000000000000000000000000000000000000000000000000000000000000006001600160a01b031680610be257508480808093335af1610b9b611dfe565b5015610bd457505b519081527fd7dee2702d63ad89917b6a4da9981c90c4d24f8c2bdfd64c604ecae57d8d065160203392a26001805580f35b90516312171d8360e31b8152fd5b610bee9250339061201e565b610ba3565b5163f76aef6560e01b8152fd5b60059150141538610b32565b5050346102ad57816003193601126102ad57610c3590610c2a61283c565b905191829182611795565b0390f35b833461073b578060031936011261073b57610c52611982565b6103be611bda565b5050346102ad57816003193601126102ad57517f00000000000000000000000000000000000000000000000000000000000000006001600160a01b03168152602090f35b90503461036b578260031936011261036b57610cb8611982565b60ff60025460a01c166006811015610de257600303610dd45733835260076020528183205415610dc657338352600860205260ff8284205416610db857503382526007602052610d38610d2f828420547f000000000000000000000000000000000000000000000000000000000000000090611dcb565b60035490611dde565b338084526008602052828420805460ff19166001179055909190610d879083907f00000000000000000000000000000000000000000000000000000000000000006001600160a01b031661201e565b519081527f896e034966eaaf1adc54acc0f257056febbd300c9e47182cf761982cf1f5e43060203392a26001805580f35b9051630c8d9eab60e31b8152fd5b9051631971fbf360e21b8152fd5b90516307a92f1960e51b8152fd5b634e487b7160e01b845260218252602484fd5b833461073b578060031936011261073b57610e0e6117ef565b61ff0019600654166006557fa45f47fdea8a1efdd9029a5691c7f759c32b7c698632b563573e155625d169338180a180f35b8383346102ad57806003193601126102ad57610e5a6117be565b90336001600160a01b03831603610e77575061040091923561190d565b5163334bd91960e11b81528390fd5b90503461036b578260031936011261036b5760209250549051908152f35b5050346102ad57816003193601126102ad57602090517f00000000000000000000000000000000000000000000000000000000000000008152f35b5050346102ad57816003193601126102ad57517f00000000000000000000000000000000000000000000000000000000000000006001600160a01b03168152602090f35b9190503461036b578060031936011261036b576104009135610f4860016103ea6117be565b61188f565b8383346102ad57816003193601126102ad5760ff60065460101c169051916005821015610f7c57602083838152f35b634e487b7160e01b815260218452602490fd5b90503461036b57602036600319011261036b57816020936001923581528085522001549051908152f35b82843461073b578160031936011261073b57823590602435933033036115c957835163095ea7b360e01b8082526001600160a01b037f0000000000000000000000000000000000000000000000000000000000000000811684840181815260208082018990529992977f0000000000000000000000000000000000000000000000000000000000000000808a16979096909493928c908290819060400103818c8c5af1801561131e576115ac575b50895163c45a015560e01b81528b818681865afa90811561131e57908a918a9161158f575b5016948a8c8a7f0000000000000000000000000000000000000000000000000000000000000000938d85169384156000146113285794505050505051966315ab88c960e31b88528b888681865afa97881561131e5789986112ff575b508a5163e6a4390560e01b8082526001600160a01b03808a16888401908152908b166020820152909591908e908290819060400103818b5afa9081156112d8578a8f918f938f8f92908e928d9285916112e2575b50161561126b575b50505050505061012c420193844211611258579160c491606094938e51968795869463f305d71960e01b86528b86015260248501528d60448501528d606485015230608485015260a48401525af1801561124e57908a9594939291611220575b5088519081526001600160a01b0393841691810191825294909216602083015283918290819060400103915afa91821561121557916111e8575b50915b5191168152f35b6112089150843d861161120e575b61120081836119a5565b81019061206c565b846111de565b503d6111f6565b8451903d90823e3d90fd5b6112409060603d8111611247575b61123881836119a5565b810190612774565b50506111a4565b503d61122e565b89513d89823e3d90fd5b634e487b7160e01b8b526011875260248bfd5b94516364e329cb60e11b81526001600160a01b039182169581019586529216602085015290928391908290819060400103918c5af180156112d857908e916112ba575b508c908a8c8b8a611144565b816112d092903d1061120e5761120081836119a5565b508c8e6112ae565b8d513d8d823e3d90fd5b6112f99150873d891161120e5761120081836119a5565b3861113c565b6113179198508c8d3d1061120e5761120081836119a5565b968c6110e8565b8b513d8b823e3d90fd5b519081526001600160a01b038716818a0190815260208101899052949b95979396949092918391829081906040010391895af180156112d8578e8b8f8c9998979695946113a894611562575b505163e6a4390560e01b8082526001600160a01b039a8b168c830190815292909a1660208301529283918291604090910190565b03818c5afa90811561153b578f908f928f8f918f93918f92918e928591611545575b5016156114ce575b50505050505061012c4201908142116114bb576101049260609594928f928e9351988997889662e8e33760e81b88528d8801526024870152604486015260648501528260848501528260a48501523060c485015260e48401525af1801561124e57908a959493929161149d575b5088519081526001600160a01b0393841691810191825294909216602083015283918290819060400103915afa9182156112155791611480575b50916111e1565b6114979150843d861161120e5761120081836119a5565b84611479565b6114b49060603d81116112475761123881836119a5565b505061143f565b634e487b7160e01b8c526011885260248cfd5b94516364e329cb60e11b81526001600160a01b039182169581019586529216602085015290928391908290819060400103918d5af1801561153b57908f9161151d575b508d908b8d8c8b6113d2565b8161153392903d1061120e5761120081836119a5565b508d8f611511565b8e513d8e823e3d90fd5b61155c9150873d891161120e5761120081836119a5565b386113ca565b61158190843d8611611588575b61157981836119a5565b8101906121fc565b5038611374565b503d61156f565b6115a691508d803d1061120e5761120081836119a5565b8d61108c565b6115c2908c8d3d106115885761157981836119a5565b508b611067565b835163ea8e4eb560e01b8152fd5b5050346102ad57816003193601126102ad57602090517f00000000000000000000000000000000000000000000000000000000000000008152f35b5050346102ad57816003193601126102ad57610c359060ff60025460a01c16905191829182611795565b5050346102ad57816003193601126102ad57602090517f00000000000000000000000000000000000000000000000000000000000000008152f35b5050346102ad57816003193601126102ad576020905161ffff7f0000000000000000000000000000000000000000000000000000000000000000168152f35b5050346102ad57816003193601126102ad57517f00000000000000000000000000000000000000000000000000000000000000006001600160a01b03168152602090f35b90503461036b57602036600319011261036b57359063ffffffff60e01b821680920361036b5760209250637965db0b60e01b821491821561173f575b50519015158152f35b6301ffc9a760e01b14915038611736565b9190503461036b578260031936011261036b5761176b611982565b6117736117ef565b60ff60065460101c1660058110156106655760030361034b57826103be6124e1565b9190602083019260068210156117a85752565b634e487b7160e01b600052602160045260246000fd5b602435906001600160a01b03821682036117d457565b600080fd5b600435906001600160a01b03821682036117d457565b3360009081527f7d7ffb7a348e1c6a02869081a26547b49160dd3df72d1d75a570eb9b698292ec60205260409020547fa49807205ce4d355092ef5a8a18f56e8913cf4a201fbe287825b095693c217759060ff161561184b5750565b6044906040519063e2517d3f60e01b82523360048301526024820152fd5b80600052600060205260406000203360005260205260ff604060002054161561184b5750565b9060009180835282602052604083209160018060a01b03169182845260205260ff6040842054161560001461190857808352826020526040832082845260205260408320600160ff198254161790557f2f8788117e7eff1d82e926ec794901d17c78024a50270940304540a733656f0d339380a4600190565b505090565b9060009180835282602052604083209160018060a01b03169182845260205260ff6040842054166000146119085780835282602052604083208284526020526040832060ff1981541690557ff6391f5c32d9c69d2a47ea670b442974b53935d1edc7fd64eb21e047a839171b339380a4600190565b600260015414611993576002600155565b604051633ee5aeb560e01b8152600490fd5b90601f8019910116810190811067ffffffffffffffff8211176119c757604052565b634e487b7160e01b600052604160045260246000fd5b906000602091828151910182855af115611a39576000513d611a3057506001600160a01b0381163b155b611a0e5750565b604051635274afe760e01b81526001600160a01b039091166004820152602490fd5b60011415611a07565b6040513d6000823e3d90fd5b91908201809211611a5257565b634e487b7160e01b600052601160045260246000fd5b919091611a7361278f565b60ff60025460a01c1660068110156117a857600103611bc85760ff60065460081c16611bb6577f00000000000000000000000000000000000000000000000000000000000000008310611ba45760018060a01b03166000928184526007602052604090611ae38183872054611a45565b7f00000000000000000000000000000000000000000000000000000000000000008111611b935783865260076020528286205415611b68575b8286857ffa35a310d7113dddce1c275da946348e9aaebf9050b00b372033c4d84b0bd6eb9697985260076020522055611b5781600354611a45565b8060035582519182526020820152a2565b6004546000198114611b7f57600101600455611b1c565b634e487b7160e01b87526011600452602487fd5b8251635e508cd360e11b8152600490fd5b604051636c7591b560e11b8152600490fd5b60405163ab35696f60e01b8152600490fd5b6040516307a92f1960e51b8152600490fd5b611be261278f565b60025460ff808260a01c1660068110156117a857600203611bc857600654818116611cfb576003547f000000000000000000000000000000000000000000000000000000000000000011611cc25781925060101c1660058110156117a85715611cb5575b8060065460101c1660058110156117a857600114611ca8575b8060065460101c1660058110156117a857600214611c9b575b60065460101c1660058110156117a857600314611c9157565b611c996124e1565b565b611ca3612214565b611c78565b611cb061208b565b611c5f565b611cbd611e87565b611c46565b505060ff60a01b1916600160a21b176002557fe48846a3dca191c762ab6aaa1e929ccaf55e31a875fb78ad1b93e15ef4830aca600080a1565b505050565b600260ff815460a01c1660068110156117a8578103611d9a575b6003547f000000000000000000000000000000000000000000000000000000000000000011611d62575060ff60065460101c1660058110156117a857611bc857611c99611e87565b805460ff60a01b1916600160a21b1790557fe48846a3dca191c762ab6aaa1e929ccaf55e31a875fb78ad1b93e15ef4830aca600080a1565b611da261278f565b60ff815460a01c1660068110156117a8578114611d1a576040516307a92f1960e51b8152600490fd5b81810292918115918404141715611a5257565b8115611de8570490565b634e487b7160e01b600052601260045260246000fd5b3d15611e39573d9067ffffffffffffffff82116119c75760405191611e2d601f8201601f1916602001846119a5565b82523d6000602084013e565b606090565b6020808252825181830181905290939260005b828110611e7357505060409293506000838284010152601f8019910116010190565b818101860151848201604001528501611e51565b60055415611fce575b6003546101f490818102918183041490151715611a525761271090046001600160a01b037f0000000000000000000000000000000000000000000000000000000000000000811680611f9c57507f000000000000000000000000000000000000000000000000000000000000000016803b156117d4576000906024604051809481936339650d1f60e01b83523060048401525af19081611f84575b50611f5857611f54611f3b611dfe565b604051630fb6a2b560e21b815291829160048301611e3e565b0390fd5b6201000062ff0000196006541617600655600080516020612948833981519152602060405160018152a1565b67ffffffffffffffff81116119c75760405238611f2b565b611fc99291507f00000000000000000000000000000000000000000000000000000000000000009061201e565b611f58565b600354670de0b6b3a764000090818102918183041490151715611a5257612016907f000000000000000000000000000000000000000000000000000000000000000090611dde565b600555611e90565b60405163a9059cbb60e01b60208201526001600160a01b03929092166024830152604480830193909352918152611c999161205a6064836119a5565b6119dd565b91908203918211611a5257565b908160209103126117d457516001600160a01b03811681036117d45790565b6003546101f4808202908282041482151715611a52576120dc6120b561271093848094049061205f565b7f000000000000000000000000000000000000000000000000000000000000000090611dcb565b049060055461ffff7f0000000000000000000000000000000000000000000000000000000000000000168201808311611a525761211891611dcb565b04670de0b6b3a764000090818302918383041483151715611a525761213c91611dde565b906040519163112749ff60e11b8352600483015260248201526020816044816000305af1600091816121dc575b5061219257611f54612179611dfe565b604051630abc035f60e41b815291829160048301611e3e565b6006805462010000600160b81b03191660189290921b6301000000600160b81b031691909117620200001790556040516002815260008051602061294883398151915290602090a1565b6121f591925060203d811161120e5761120081836119a5565b9038612169565b908160209103126117d4575180151581036117d45790565b6006546001600160a01b039060181c811680156124a9578160025416801561246457604080516370a0823160e01b815230600482015290936020938483602481845afa92831561242a57600093612435575b5062278d007f000000000000000000000000000000000000000000000000000000000000000081810292918115918404141715611a52578386916122ad6122e59442611a45565b895163095ea7b360e01b81526001600160a01b0390981660048901526024880192909252909592839190829060009082906044820190565b03925af1801561242a5761240d575b5060008480836002541660848560065460181c168a519586938492630aa393f360e01b845260048401528960248401528a6044840152887f00000000000000000000000000000000000000000000000000000000000000001660648401525af191826123e4575b505061238557611f548561236d611dfe565b90516301953ea360e11b815291829160048301611e3e565b9162030000917fe3afae9ec63e6f2e914c17bab8493b603680a72d9e6dfacf25ac6a4806555d41866000805160206129488339815191529795600654948251948552888501528460181c1692a262ff00001916176006555160038152a1565b813d8311612406575b6123f781836119a5565b810103126117d457843861235b565b503d6123ed565b61242390853d87116115885761157981836119a5565b50386122f4565b86513d6000823e3d90fd5b90928582813d831161245d575b61244c81836119a5565b8101031261073b5750519138612266565b503d612442565b60405162461bcd60e51b815260206004820152601860248201527f4c50204c6f636b6572206e6f7420636f6e6669677572656400000000000000006044820152606490fd5b60405162461bcd60e51b815260206004820152601060248201526f131408151bdad95b881b9bdd081cd95d60821b6044820152606490fd5b6003546101f4808202908282041482151715611a525761250a61253c926127108093049061205f565b906125357f000000000000000000000000000000000000000000000000000000000000000083611dcb565b049061205f565b6001600160a01b03907f00000000000000000000000000000000000000000000000000000000000000008281166126a7575b507f000000000000000000000000000000000000000000000000000000000000000082168061267157506000808080937f00000000000000000000000000000000000000000000000000000000000000005af16125c9611dfe565b501561265f5762040001905b600360a01b60ff60a01b1960025416176002557f6e4389167d2afbd1ccb4797ea87e29958adbf74cd16ba077a2ee5ab8460784e5608060065492600554906003546040519283526020830152600160ff1986161760181c16604082015260006060820152a162ff00ff191617600655600080516020612948833981519152602060405160048152a1565b6040516312171d8360e31b8152600490fd5b6204000192916126a2917f00000000000000000000000000000000000000000000000000000000000000009061201e565b6125d5565b6040516370a0823160e01b81523060048201527f000000000000000000000000000000000000000000000000000000000000000084169190602081602481865afa8015611a3957600090612741575b61272291507f00000000000000000000000000000000000000000000000000000000000000009061205f565b9081612730575b505061256e565b6127399261201e565b388080612729565b6020823d821161276c575b81612759602093836119a5565b8101031261073b575061272290516126f6565b3d915061274c565b908160609103126117d4578051916040602083015192015190565b60025460ff8160a01c1660068110156117a857801580612812575b156127c65750506002805460ff60a01b1916600160a01b179055565b600114806127e8575b6127d65750565b60ff60a01b1916600160a11b17600255565b507f00000000000000000000000000000000000000000000000000000000000000004210156127cf565b507f00000000000000000000000000000000000000000000000000000000000000004210156127aa565b60ff60025460a01c1660068110156117a8578015806128a2575b156128615750600190565b6001811480612878575b6128725790565b50600290565b507f000000000000000000000000000000000000000000000000000000000000000042101561286b565b507f0000000000000000000000000000000000000000000000000000000000000000421015612856565b60ff60025460a01c1660068110156117a85760030361294157600354801561293a576129379160018060a01b031660005260076020526129326040600020547f000000000000000000000000000000000000000000000000000000000000000090611dcb565b611dde565b90565b5050600090565b5060009056fe359f75319d3abf464a20742906c9b06c2e0cf50adc178c5f23eb44e3e83220b8a26469706673582212208ba7b660d91e0b8aa56b61a6cc0d0db6012bfca960c80c88b34014e71b6e3d7264736f6c634300081400332f8788117e7eff1d82e926ec794901d17c78024a50270940304540a733656f0d604060c0815234620003775762001004803803806200001e816200037c565b928339810160c08282031262000377576200003982620003a2565b906020916200004a838501620003a2565b8585015160608087015190966001600160401b03939092909184811162000377578662000079918501620003b7565b9560808401519085821162000377576200009c60a091620000a4938701620003b7565b9401620003a2565b6001808055959091906001600160a01b03808216156200034357841615620002ff578751855103620002c957875115620002945792620000f78795989693620000fe938d9b999660805260a05262000434565b50620004b4565b5060009586925b62000175575b505050507f721ddaabe5cc50a5a5fdc5ce1e5636612da513f19115ed78a77b4e60665f07b494508260035551908351928352820152a151610a8d908162000557823960805181818160e801526103e9015260a05181818161017a0152818161031a015261062a0152f35b9193959092949686518510156200028857506200019384876200041f565b51620001a085846200041f565b518a51918a83018381108782111762000272578c5282528882019081528a8201916000835260029182546801000000000000000081101562000272578981018085558110156200025c578360005260038c600020910201915182555188820155019051151560ff801983541691161790556200021d84836200041f565b518101809111620002465796600019841462000246578480940191899795939198969462000105565b634e487b7160e01b600052601160045260246000fd5b634e487b7160e01b600052603260045260246000fd5b634e487b7160e01b600052604160045260246000fd5b9694819694506200010b565b8a5162461bcd60e51b8152600481018a9052600e60248201526d456d707479207363686564756c6560901b6044820152606490fd5b8a5162461bcd60e51b8152600481018a9052600f60248201526e098cadccee8d040dad2e6dac2e8c6d608b1b6044820152606490fd5b8a5162461bcd60e51b8152600481018a9052601360248201527f496e76616c69642062656e6566696369617279000000000000000000000000006044820152606490fd5b8b5162461bcd60e51b8152600481018b9052600d60248201526c24b73b30b634b2103a37b5b2b760991b6044820152606490fd5b600080fd5b6040519190601f01601f191682016001600160401b038111838210176200027257604052565b51906001600160a01b03821682036200037757565b81601f8201121562000377578051916001600160401b03831162000272578260051b6020928380620003eb8185016200037c565b80978152019282010192831162000377578301905b8282106200040f575050505090565b8151815290830190830162000400565b80518210156200025c5760209160051b010190565b6001600160a01b031660008181527fad3228b676f7d3cd4284a5443f17f1962b36e491b30a40b2405849e597ba5fb5602052604081205490919060ff16620004b057818052816020526040822081835260205260408220600160ff19825416179055339160008051602062000fe48339815191528180a4600190565b5090565b6001600160a01b031660008181527fb9b0ac02325ee7cf4551d296a88408527c705a37fefd0e298966a9ada940b4c460205260408120549091907fc8a41221bcd7fcf2c225f5a9265e1d4d39949d89197159d59e5f4b87b62c419e9060ff166200055157808352826020526040832082845260205260408320600160ff1982541617905560008051602062000fe4833981519152339380a4600190565b50509056fe608060408181526004918236101561001657600080fd5b600092833560e01c91826301ffc9a71461075557508163248a9ca31461072b57816326fadbe2146105cc5781632db94d19146105ad5781632f2ff15d1461058f57816336568abe146105545781634e71d92d1461033d57816378e979251461030257816391d14854146102c8578163a217fddf146102ad578163bdc6d9ab1461025a578163ced3a4031461021f578163d547741f146101ea578163d54ad2a1146101c857508063ee28b7441461011b5763fc0c546a146100d557600080fd5b34610117578160031936011261011757517f00000000000000000000000000000000000000000000000000000000000000006001600160a01b03168152602090f35b5080fd5b503461011757816003193601126101175781906002928354905b818110610146576020848451908152f35b60ff8561015283610807565b500154161561016a575b6101659061098f565b610135565b61019e61017682610807565b50547f00000000000000000000000000000000000000000000000000000000000000006109b4565b421061015c57926101c06101659160016101b787610807565b500154906109b4565b93905061015c565b9050346101e657826003193601126101e65760209250549051908152f35b8280fd5b50503461011757600161021b91610216610203366107dc565b9390928387528660205286200154610858565b61091a565b5080f35b505034610117578160031936011261011757602090517fc8a41221bcd7fcf2c225f5a9265e1d4d39949d89197159d59e5f4b87b62c419e8152f35b9050346101e65760203660031901126101e65735916002548310156102aa5750610285606092610807565b509081549160ff60026001830154920154169082519384526020840152151590820152f35b80fd5b50503461011757816003193601126101175751908152602090f35b5050346101175760ff816020936102de366107dc565b9082528186528282206001600160a01b039091168252855220549151911615158152f35b505034610117578160031936011261011757602090517f00000000000000000000000000000000000000000000000000000000000000008152f35b919050346101e657826003193601126101e65760029060019282845414610546578284557fc8a41221bcd7fcf2c225f5a9265e1d4d39949d89197159d59e5f4b87b62c419e8086528560205282862033875260205260ff908184882054161561052957508593805491875b8381106104c4575050505082156104b7576103c48382546109b4565b8155815163a9059cbb60e01b60208201908152336024830152604480830186905282527f00000000000000000000000000000000000000000000000000000000000000006001600160a01b0316916080810167ffffffffffffffff8111828210176104a45785525160209188919082855af11561049a57855185903d610493575050803b155b61047f575050519081527f896e034966eaaf1adc54acc0f257056febbd300c9e47182cf761982cf1f5e43060203392a2805580f35b6024925191635274afe760e01b8352820152fd5b141561044a565b82513d87823e3d90fd5b634e487b7160e01b895260418552602489fd5b905162f3f86160e41b8152fd5b81836104cf83610807565b50015416156104e7575b6104e29061098f565b6103a8565b6104f361017682610807565b42106104d957956105216104e2918461050b8a610807565b5001805460ff19168b179055896101b78a610807565b9690506104d9565b9050604492519163e2517d3f60e01b835233908301526024820152fd5b9051633ee5aeb560e01b8152fd5b83833461011757610564366107dc565b91336001600160a01b0384160361058057509061021b9161091a565b5163334bd91960e11b81528490fd5b50503461011757600161021b916105a8610203366107dc565b61089c565b5050346101175781600319360112610117576020906003549051908152f35b5050346101175781600319360112610117576002918254906105ed82610a11565b926105f783610a11565b610600846109f9565b9061060d835192836109c1565b848252610619856109f9565b6020978389019691601f19013688377f0000000000000000000000000000000000000000000000000000000000000000865b8381106106b95750505050958091610680610673988551998a9960608b5260608b01906107a8565b90898203858b01526107a8565b938785039088015251928381520193925b8281106106a057505050500390f35b8351151585528695509381019392810192600101610691565b808a6106e2826106dc9d9e9b9a9c9d6106d461072096610807565b5054876109b4565b92610a43565b5260016106ee82610807565b5001546106fb8288610a43565b5260ff8461070883610807565b500154166107168289610a43565b901515905261098f565b99989795969961064b565b9050346101e65760203660031901126101e657816020936001923581528085522001549051908152f35b8491346101e65760203660031901126101e6573563ffffffff60e01b81168091036101e65760209250637965db0b60e01b8114908115610797575b5015158152f35b6301ffc9a760e01b14905083610790565b90815180825260208080930193019160005b8281106107c8575050505090565b8351855293810193928101926001016107ba565b604090600319011261080257600435906024356001600160a01b03811681036108025790565b600080fd5b600254811015610842576003906002600052027f405787fa12a823e0f2b7631cc41b3ba8828b3321ca811111fa75cd3aa3bb5ace0190600090565b634e487b7160e01b600052603260045260246000fd5b80600052600060205260406000203360005260205260ff604060002054161561087e5750565b6044906040519063e2517d3f60e01b82523360048301526024820152fd5b9060009180835282602052604083209160018060a01b03169182845260205260ff6040842054161560001461091557808352826020526040832082845260205260408320600160ff198254161790557f2f8788117e7eff1d82e926ec794901d17c78024a50270940304540a733656f0d339380a4600190565b505090565b9060009180835282602052604083209160018060a01b03169182845260205260ff6040842054166000146109155780835282602052604083208284526020526040832060ff1981541690557ff6391f5c32d9c69d2a47ea670b442974b53935d1edc7fd64eb21e047a839171b339380a4600190565b600019811461099e5760010190565b634e487b7160e01b600052601160045260246000fd5b9190820180921161099e57565b90601f8019910116810190811067ffffffffffffffff8211176109e357604052565b634e487b7160e01b600052604160045260246000fd5b67ffffffffffffffff81116109e35760051b60200190565b90610a1b826109f9565b610a2860405191826109c1565b8281528092610a39601f19916109f9565b0190602036910137565b80518210156108425760209160051b01019056fea2646970667358221220ab0dbad7314e73d77bf03df8edac5c8d9b05024f87d1f2e40e2234aa9960610464736f6c634300081400332f8788117e7eff1d82e926ec794901d17c78024a50270940304540a733656f0da26469706673582212208eec52cf2fa5e5225700d0fc7abb69775a9c9afd27994fbab39488e64b2c03f264736f6c634300081400332f8788117e7eff1d82e926ec794901d17c78024a50270940304540a733656f0d","opcodes":"PUSH2 0x100 CALLVALUE PUSH3 0x131 JUMPI PUSH1 0x1F PUSH3 0x5135 CODESIZE DUP2 SWAP1 SUB SWAP2 DUP3 ADD PUSH1 0x1F NOT AND DUP4 ADD SWAP3 SWAP2 SWAP1 PUSH1 0x1 PUSH1 0x1 PUSH1 0x40 SHL SUB DUP5 GT DUP4 DUP6 LT OR PUSH3 0x136 JUMPI DUP2 PUSH1 0x80 SWAP3 DUP5 SWAP3 PUSH1 0x40 SWAP7 DUP8 MSTORE DUP4 CODECOPY DUP2 ADD SUB SLT PUSH3 0x131 JUMPI DUP1 MLOAD SWAP1 PUSH3 0x58 PUSH1 0x20 DUP3 ADD PUSH3 0x14C JUMP JUMPDEST PUSH3 0x73 PUSH1 0x60 PUSH3 0x6B DUP7 DUP6 ADD PUSH3 0x14C JUMP JUMPDEST SWAP4 ADD PUSH3 0x14C JUMP JUMPDEST SWAP3 PUSH1 0x1 PUSH1 0x1 PUSH1 0xA0 SHL SUB DUP3 DUP2 AND ISZERO PUSH3 0x120 JUMPI DUP1 DUP5 AND ISZERO PUSH3 0x120 JUMPI DUP5 AND ISZERO PUSH3 0x10F JUMPI PUSH1 0xE0 MSTORE PUSH1 0x80 MSTORE PUSH1 0xA0 MSTORE PUSH1 0xC0 MSTORE PUSH3 0xAD CALLER PUSH3 0x161 JUMP JUMPDEST POP PUSH3 0xB9 CALLER PUSH3 0x1E1 JUMP JUMPDEST POP MLOAD PUSH2 0x4E91 SWAP1 DUP2 PUSH3 0x284 DUP3 CODECOPY PUSH1 0x80 MLOAD DUP2 DUP2 DUP2 PUSH2 0x2F4 ADD MSTORE PUSH2 0x630 ADD MSTORE PUSH1 0xA0 MLOAD DUP2 DUP2 DUP2 PUSH2 0x4CD ADD MSTORE PUSH2 0xAEC ADD MSTORE PUSH1 0xC0 MLOAD DUP2 DUP2 DUP2 PUSH2 0x66B ADD MSTORE DUP2 DUP2 PUSH2 0x9F2 ADD MSTORE PUSH2 0xC36 ADD MSTORE PUSH1 0xE0 MLOAD DUP2 DUP2 DUP2 PUSH2 0x1D5 ADD MSTORE PUSH2 0x41E ADD MSTORE RETURN JUMPDEST DUP5 MLOAD PUSH4 0xD92E233D PUSH1 0xE0 SHL DUP2 MSTORE PUSH1 0x4 SWAP1 REVERT JUMPDEST DUP6 MLOAD PUSH4 0xD92E233D PUSH1 0xE0 SHL DUP2 MSTORE PUSH1 0x4 SWAP1 REVERT JUMPDEST PUSH1 0x0 DUP1 REVERT JUMPDEST PUSH4 0x4E487B71 PUSH1 0xE0 SHL PUSH1 0x0 MSTORE PUSH1 0x41 PUSH1 0x4 MSTORE PUSH1 0x24 PUSH1 0x0 REVERT JUMPDEST MLOAD SWAP1 PUSH1 0x1 PUSH1 0x1 PUSH1 0xA0 SHL SUB DUP3 AND DUP3 SUB PUSH3 0x131 JUMPI JUMP JUMPDEST PUSH1 0x1 PUSH1 0x1 PUSH1 0xA0 SHL SUB AND PUSH1 0x0 DUP2 DUP2 MSTORE PUSH32 0xAD3228B676F7D3CD4284A5443F17F1962B36E491B30A40B2405849E597BA5FB5 PUSH1 0x20 MSTORE PUSH1 0x40 DUP2 KECCAK256 SLOAD SWAP1 SWAP2 SWAP1 PUSH1 0xFF AND PUSH3 0x1DD JUMPI DUP2 DUP1 MSTORE DUP2 PUSH1 0x20 MSTORE PUSH1 0x40 DUP3 KECCAK256 DUP2 DUP4 MSTORE PUSH1 0x20 MSTORE PUSH1 0x40 DUP3 KECCAK256 PUSH1 0x1 PUSH1 0xFF NOT DUP3 SLOAD AND OR SWAP1 SSTORE CALLER SWAP2 PUSH1 0x0 DUP1 MLOAD PUSH1 0x20 PUSH3 0x5115 DUP4 CODECOPY DUP2 MLOAD SWAP2 MSTORE DUP2 DUP1 LOG4 PUSH1 0x1 SWAP1 JUMP JUMPDEST POP SWAP1 JUMP JUMPDEST PUSH1 0x1 PUSH1 0x1 PUSH1 0xA0 SHL SUB AND PUSH1 0x0 DUP2 DUP2 MSTORE PUSH32 0x40D6054E7C1E32ABF36E71C717B2201C6FB50EE4639813CE060D4F8FFBB78BDD PUSH1 0x20 MSTORE PUSH1 0x40 DUP2 KECCAK256 SLOAD SWAP1 SWAP2 SWAP1 PUSH32 0xBD5D72AC35AE1E83AA0625C57EDDDA63FBB064A87FCA99DFDD7CE027384AE282 SWAP1 PUSH1 0xFF AND PUSH3 0x27E JUMPI DUP1 DUP4 MSTORE DUP3 PUSH1 0x20 MSTORE PUSH1 0x40 DUP4 KECCAK256 DUP3 DUP5 MSTORE PUSH1 0x20 MSTORE PUSH1 0x40 DUP4 KECCAK256 PUSH1 0x1 PUSH1 0xFF NOT DUP3 SLOAD AND OR SWAP1 SSTORE PUSH1 0x0 DUP1 MLOAD PUSH1 0x20 PUSH3 0x5115 DUP4 CODECOPY DUP2 MLOAD SWAP2 MSTORE CALLER SWAP4 DUP1 LOG4 PUSH1 0x1 SWAP1 JUMP JUMPDEST POP POP SWAP1 JUMP INVALID PUSH1 0x80 DUP1 PUSH1 0x40 MSTORE PUSH1 0x4 CALLDATASIZE LT ISZERO PUSH3 0x14 JUMPI PUSH1 0x0 DUP1 REVERT JUMPDEST PUSH1 0x0 CALLDATALOAD PUSH1 0xE0 SHR SWAP1 DUP2 PUSH4 0x1FFC9A7 EQ PUSH3 0xC65 JUMPI POP DUP1 PUSH4 0x1D1B49D3 EQ PUSH3 0xC1E JUMPI DUP1 PUSH4 0x248A9CA3 EQ PUSH3 0xBED JUMPI DUP1 PUSH4 0x2F2FF15D EQ PUSH3 0xBA6 JUMPI DUP1 PUSH4 0x3360CF5E EQ PUSH3 0xB69 JUMPI DUP1 PUSH4 0x36568ABE EQ PUSH3 0xB1B JUMPI DUP1 PUSH4 0x4626402B EQ PUSH3 0xAD4 JUMPI DUP1 PUSH4 0x47FCE119 EQ PUSH3 0x3D0 JUMPI DUP1 PUSH4 0x5148695F EQ PUSH3 0x323 JUMPI DUP1 PUSH4 0x6052970C EQ PUSH3 0x2DC JUMPI DUP1 PUSH4 0x91D14854 EQ PUSH3 0x28B JUMPI DUP1 PUSH4 0x9E1F288E EQ PUSH3 0x26B JUMPI DUP1 PUSH4 0xA186D14F EQ PUSH3 0x216 JUMPI DUP1 PUSH4 0xA217FDDF EQ PUSH3 0x1F8 JUMPI DUP1 PUSH4 0xA8F32251 EQ PUSH3 0x1BB JUMPI DUP1 PUSH4 0xD547741F EQ PUSH3 0x172 JUMPI DUP1 PUSH4 0xE0FE61FE EQ PUSH3 0x133 JUMPI PUSH4 0xE249CBEC EQ PUSH3 0xF8 JUMPI PUSH1 0x0 DUP1 REVERT JUMPDEST CALLVALUE PUSH3 0x12E JUMPI PUSH1 0x20 CALLDATASIZE PUSH1 0x3 NOT ADD SLT PUSH3 0x12E JUMPI PUSH1 0x4 CALLDATALOAD PUSH1 0x0 MSTORE PUSH1 0x2 PUSH1 0x20 MSTORE PUSH1 0x20 PUSH1 0x1 DUP1 PUSH1 0xA0 SHL SUB PUSH1 0x40 PUSH1 0x0 KECCAK256 SLOAD AND PUSH1 0x40 MLOAD SWAP1 DUP2 MSTORE RETURN JUMPDEST PUSH1 0x0 DUP1 REVERT JUMPDEST CALLVALUE PUSH3 0x12E JUMPI PUSH1 0x20 CALLDATASIZE PUSH1 0x3 NOT ADD SLT PUSH3 0x12E JUMPI PUSH1 0x20 PUSH1 0x1 PUSH1 0x1 PUSH1 0xA0 SHL SUB DUP1 PUSH3 0x15B PUSH3 0xCD4 JUMP JUMPDEST AND PUSH1 0x0 MSTORE PUSH1 0x3 DUP3 MSTORE PUSH1 0x40 PUSH1 0x0 KECCAK256 SLOAD AND PUSH1 0x40 MLOAD SWAP1 DUP2 MSTORE RETURN JUMPDEST CALLVALUE PUSH3 0x12E JUMPI PUSH1 0x40 CALLDATASIZE PUSH1 0x3 NOT ADD SLT PUSH3 0x12E JUMPI PUSH3 0x1B9 PUSH1 0x4 CALLDATALOAD PUSH3 0x196 PUSH3 0xCBD JUMP JUMPDEST SWAP1 DUP1 PUSH1 0x0 MSTORE PUSH1 0x0 PUSH1 0x20 MSTORE PUSH3 0x1B3 PUSH1 0x1 PUSH1 0x40 PUSH1 0x0 KECCAK256 ADD SLOAD PUSH3 0xCEB JUMP JUMPDEST PUSH3 0xDAF JUMP JUMPDEST STOP JUMPDEST CALLVALUE PUSH3 0x12E JUMPI PUSH1 0x0 CALLDATASIZE PUSH1 0x3 NOT ADD SLT PUSH3 0x12E JUMPI PUSH1 0x20 PUSH1 0x40 MLOAD PUSH32 0x0 DUP2 MSTORE RETURN JUMPDEST CALLVALUE PUSH3 0x12E JUMPI PUSH1 0x0 CALLDATASIZE PUSH1 0x3 NOT ADD SLT PUSH3 0x12E JUMPI PUSH1 0x20 PUSH1 0x40 MLOAD PUSH1 0x0 DUP2 MSTORE RETURN JUMPDEST CALLVALUE PUSH3 0x12E JUMPI PUSH1 0x20 CALLDATASIZE PUSH1 0x3 NOT ADD SLT PUSH3 0x12E JUMPI PUSH1 0x1 PUSH1 0x1 PUSH1 0xA0 SHL SUB PUSH3 0x23B PUSH3 0xCD4 JUMP JUMPDEST AND PUSH1 0x0 MSTORE PUSH1 0x4 PUSH1 0x20 MSTORE PUSH1 0x60 PUSH1 0x40 PUSH1 0x0 KECCAK256 DUP1 SLOAD SWAP1 PUSH1 0x2 PUSH1 0x1 DUP3 ADD SLOAD SWAP2 ADD SLOAD SWAP1 PUSH1 0x40 MLOAD SWAP3 DUP4 MSTORE PUSH1 0x20 DUP4 ADD MSTORE PUSH1 0x40 DUP3 ADD MSTORE RETURN JUMPDEST CALLVALUE PUSH3 0x12E JUMPI PUSH1 0x0 CALLDATASIZE PUSH1 0x3 NOT ADD SLT PUSH3 0x12E JUMPI PUSH1 0x20 PUSH1 0x1 SLOAD PUSH1 0x40 MLOAD SWAP1 DUP2 MSTORE RETURN JUMPDEST CALLVALUE PUSH3 0x12E JUMPI PUSH1 0x40 CALLDATASIZE PUSH1 0x3 NOT ADD SLT PUSH3 0x12E JUMPI PUSH3 0x2A8 PUSH3 0xCBD JUMP JUMPDEST PUSH1 0x4 CALLDATALOAD PUSH1 0x0 MSTORE PUSH1 0x0 PUSH1 0x20 MSTORE PUSH1 0x40 PUSH1 0x0 KECCAK256 SWAP1 PUSH1 0x1 DUP1 PUSH1 0xA0 SHL SUB AND PUSH1 0x0 MSTORE PUSH1 0x20 MSTORE PUSH1 0x20 PUSH1 0xFF PUSH1 0x40 PUSH1 0x0 KECCAK256 SLOAD AND PUSH1 0x40 MLOAD SWAP1 ISZERO ISZERO DUP2 MSTORE RETURN JUMPDEST CALLVALUE PUSH3 0x12E JUMPI PUSH1 0x0 CALLDATASIZE PUSH1 0x3 NOT ADD SLT PUSH3 0x12E JUMPI PUSH1 0x40 MLOAD PUSH32 0x0 PUSH1 0x1 PUSH1 0x1 PUSH1 0xA0 SHL SUB AND DUP2 MSTORE PUSH1 0x20 SWAP1 RETURN JUMPDEST CALLVALUE PUSH3 0x12E JUMPI PUSH1 0x20 DUP1 PUSH1 0x3 NOT CALLDATASIZE ADD SLT PUSH3 0x12E JUMPI PUSH1 0xA0 SWAP1 PUSH1 0x0 PUSH1 0x40 DUP1 MLOAD PUSH3 0x34B DUP2 PUSH3 0xE25 JUMP JUMPDEST DUP3 DUP2 MSTORE DUP3 DUP5 DUP3 ADD MSTORE ADD MSTORE PUSH1 0x4 CALLDATALOAD PUSH1 0x0 MSTORE PUSH1 0x2 DUP2 MSTORE PUSH1 0x1 DUP1 DUP4 SHL SUB SWAP1 DUP2 PUSH1 0x40 PUSH1 0x0 KECCAK256 SLOAD AND SWAP2 DUP3 PUSH1 0x0 MSTORE PUSH1 0x3 DUP3 MSTORE PUSH1 0x40 PUSH1 0x0 KECCAK256 SLOAD AND PUSH1 0x4 DUP3 MSTORE PUSH1 0x40 PUSH1 0x0 KECCAK256 SWAP1 PUSH1 0x40 MLOAD SWAP1 PUSH3 0x397 DUP3 PUSH3 0xE25 JUMP JUMPDEST DUP3 SLOAD DUP3 MSTORE PUSH1 0x2 PUSH1 0x1 DUP5 ADD SLOAD SWAP4 DUP6 DUP5 ADD SWAP5 DUP6 MSTORE ADD SLOAD SWAP4 PUSH1 0x40 DUP4 ADD SWAP5 DUP6 MSTORE PUSH1 0x40 MLOAD SWAP6 DUP7 MSTORE DUP6 ADD MSTORE MLOAD PUSH1 0x40 DUP5 ADD MSTORE MLOAD PUSH1 0x60 DUP4 ADD MSTORE MLOAD PUSH1 0x80 DUP3 ADD MSTORE RETURN JUMPDEST PUSH1 0x3 NOT CALLDATASIZE DUP2 ADD PUSH2 0x1C0 DUP2 SLT PUSH3 0x12E JUMPI PUSH2 0x140 SGT PUSH3 0x12E JUMPI PUSH8 0xFFFFFFFFFFFFFFFF PUSH2 0x144 CALLDATALOAD GT PUSH3 0x12E JUMPI PUSH1 0x80 SWAP1 PUSH2 0x144 CALLDATALOAD CALLDATASIZE SUB ADD SLT PUSH3 0x12E JUMPI PUSH1 0x60 CALLDATASIZE PUSH2 0x163 NOT ADD SLT PUSH3 0x12E JUMPI PUSH1 0x0 PUSH32 0x0 CALLVALUE LT PUSH3 0xAC2 JUMPI PUSH1 0x44 CALLDATALOAD ISZERO PUSH3 0xAB0 JUMPI PUSH1 0xE4 CALLDATALOAD PUSH1 0xC4 CALLDATALOAD LT ISZERO PUSH3 0xA9E JUMPI TIMESTAMP PUSH1 0xC4 CALLDATALOAD GT ISZERO PUSH3 0xA9E JUMPI PUSH1 0xA4 CALLDATALOAD PUSH1 0x84 CALLDATALOAD GT PUSH3 0xA8C JUMPI PUSH1 0x84 CALLDATALOAD ISZERO PUSH3 0xA8C JUMPI PUSH1 0xC PUSH2 0x164 CALLDATALOAD LT PUSH3 0xA7A JUMPI PUSH2 0x1B58 PUSH2 0x184 CALLDATALOAD LT PUSH3 0xA68 JUMPI PUSH1 0x1 PUSH1 0x1 PUSH1 0xA0 SHL SUB PUSH3 0x4A5 PUSH3 0xE7B JUMP JUMPDEST AND ISZERO PUSH3 0xA56 JUMPI PUSH1 0x1 PUSH1 0x1 PUSH1 0xA0 SHL SUB PUSH3 0x4BE PUSH3 0xE92 JUMP JUMPDEST AND ISZERO PUSH3 0xA56 JUMPI PUSH1 0x0 DUP1 DUP1 DUP1 CALLVALUE PUSH32 0x0 GAS CALL RETURNDATASIZE ISZERO PUSH3 0xA50 JUMPI RETURNDATASIZE PUSH8 0xFFFFFFFFFFFFFFFF DUP2 GT PUSH3 0x8FD JUMPI PUSH1 0x40 MLOAD SWAP1 PUSH1 0x1F NOT PUSH8 0xFFFFFFFFFFFFFFFF PUSH1 0x1F DUP4 ADD DUP3 AND PUSH1 0x3F ADD DUP3 AND DUP5 ADD SWAP1 DUP2 GT SWAP1 DUP5 GT OR PUSH3 0x8FD JUMPI PUSH1 0x3F DUP2 PUSH1 0x1F DUP5 ADD AND ADD AND DUP3 ADD PUSH1 0x40 MSTORE DUP2 MSTORE PUSH1 0x0 PUSH1 0x20 RETURNDATASIZE SWAP3 ADD RETURNDATACOPY JUMPDEST ISZERO PUSH3 0xA3E JUMPI PUSH3 0x567 PUSH1 0x64 PUSH2 0x144 CALLDATALOAD ADD PUSH2 0x144 CALLDATALOAD PUSH1 0x4 ADD PUSH3 0xE42 JUMP JUMPDEST SWAP1 POP PUSH3 0x913 JUMPI JUMPDEST PUSH3 0x579 PUSH3 0xE7B JUMP JUMPDEST SWAP1 PUSH1 0x24 CALLDATALOAD PUSH1 0x1 PUSH1 0x1 PUSH1 0xA0 SHL SUB DUP2 AND SWAP1 SUB PUSH3 0x12E JUMPI PUSH2 0x124 CALLDATALOAD SWAP2 PUSH2 0xFFFF DUP4 AND DUP4 SUB PUSH3 0x12E JUMPI PUSH3 0x5A9 PUSH3 0xE92 JUMP JUMPDEST SWAP1 PUSH1 0x40 MLOAD SWAP4 DUP5 PUSH2 0x2EC6 DUP2 ADD LT PUSH8 0xFFFFFFFFFFFFFFFF PUSH2 0x2EC6 DUP8 ADD GT OR PUSH3 0x8FD JUMPI PUSH2 0xFFFF SWAP2 PUSH2 0x2EC6 PUSH3 0xF92 DUP8 CODECOPY PUSH1 0x1 PUSH1 0x1 PUSH1 0xA0 SHL SUB SWAP1 DUP2 AND PUSH2 0x2EC6 DUP8 ADD SWAP1 DUP2 MSTORE PUSH1 0x24 CALLDATALOAD DUP3 AND PUSH1 0x20 DUP3 ADD MSTORE PUSH1 0x44 CALLDATALOAD PUSH1 0x40 DUP3 ADD MSTORE PUSH1 0x64 CALLDATALOAD PUSH1 0x60 DUP3 ADD MSTORE PUSH1 0x84 CALLDATALOAD PUSH1 0x80 DUP3 ADD MSTORE PUSH1 0xA4 CALLDATALOAD PUSH1 0xA0 DUP3 ADD MSTORE PUSH1 0xC4 CALLDATALOAD PUSH1 0xC0 DUP3 ADD MSTORE PUSH1 0xE4 CALLDATALOAD PUSH1 0xE0 DUP3 ADD MSTORE SWAP3 SWAP1 SWAP2 AND PUSH2 0x100 DUP4 ADD MSTORE PUSH32 0x0 DUP2 AND PUSH2 0x120 DUP4 ADD MSTORE DUP4 DUP2 AND PUSH2 0x140 DUP4 ADD MSTORE SWAP2 DUP3 AND PUSH2 0x160 DUP3 ADD MSTORE PUSH32 0x0 SWAP1 SWAP2 AND PUSH2 0x180 DUP3 ADD MSTORE PUSH2 0x184 CALLDATALOAD PUSH2 0x1A0 DUP3 ADD MSTORE PUSH2 0x164 CALLDATALOAD PUSH2 0x1C0 DUP3 ADD MSTORE PUSH2 0x1A4 CALLDATALOAD PUSH2 0x1E0 DUP3 ADD DUP2 SWAP1 MSTORE SWAP3 SWAP1 DUP2 SWAP1 SUB PUSH2 0x200 ADD SWAP1 PUSH1 0x0 CREATE DUP1 ISZERO PUSH3 0x8F1 JUMPI PUSH1 0x1 PUSH1 0x1 PUSH1 0xA0 SHL SUB SWAP1 DUP2 AND SWAP2 SWAP1 PUSH3 0x6DE PUSH3 0xE7B JUMP JUMPDEST AND PUSH2 0x184 CALLDATALOAD PUSH1 0x64 CALLDATALOAD MUL PUSH1 0x64 CALLDATALOAD DUP2 DIV PUSH2 0x184 CALLDATALOAD EQ PUSH1 0x64 CALLDATALOAD ISZERO OR ISZERO PUSH3 0x8DB JUMPI PUSH3 0x712 PUSH2 0x2710 PUSH3 0x71B SWAP3 DIV PUSH1 0x64 CALLDATALOAD PUSH3 0xECF JUMP JUMPDEST DUP5 CALLER DUP5 PUSH3 0xEED JUMP JUMPDEST PUSH1 0x1 PUSH1 0x1 PUSH1 0xA0 SHL SUB DUP3 AND ISZERO ISZERO SWAP1 DUP2 PUSH3 0x853 JUMPI JUMPDEST POP PUSH1 0x40 SWAP4 PUSH3 0x815 SWAP2 PUSH1 0x1 SLOAD PUSH1 0x0 MSTORE PUSH1 0x2 PUSH1 0x20 MSTORE DUP6 PUSH1 0x0 KECCAK256 SWAP1 PUSH12 0xFFFFFFFFFFFFFFFFFFFFFFFF PUSH1 0xA0 SHL SWAP2 DUP7 DUP4 DUP3 SLOAD AND OR SWAP1 SSTORE PUSH3 0x82D JUMPI JUMPDEST POP DUP4 PUSH1 0x0 MSTORE PUSH1 0x4 PUSH1 0x20 MSTORE DUP1 PUSH1 0x2 DUP7 PUSH1 0x0 KECCAK256 PUSH2 0x164 CALLDATALOAD DUP2 SSTORE PUSH2 0x184 CALLDATALOAD PUSH1 0x1 DUP3 ADD SSTORE ADD SSTORE DUP4 PUSH32 0xDA79E99DC31A6B02A1A6D9E3758C6D0EF34606738CC48A1FF703D6566B040626 PUSH1 0x60 PUSH1 0x1 SLOAD SWAP4 PUSH3 0x7BB PUSH3 0xE7B JUMP JUMPDEST DUP10 MLOAD PUSH1 0x1 PUSH1 0x1 PUSH1 0xA0 SHL SUB SWAP2 DUP3 AND DUP2 MSTORE SWAP1 DUP9 AND SWAP1 DUP6 SWAP1 DUP8 SWAP1 PUSH32 0x83690FC050263340E4F4DD8CB0061BEABB83623CC56DF48714B6AD16A68B1AB3 SWAP1 PUSH1 0x20 SWAP1 LOG4 DUP9 MLOAD SWAP1 PUSH2 0x164 CALLDATALOAD DUP3 MSTORE PUSH1 0x20 DUP3 ADD MSTORE PUSH2 0x184 CALLDATALOAD DUP10 DUP3 ADD MSTORE LOG2 PUSH3 0xEDD JUMP JUMPDEST PUSH1 0x1 SSTORE DUP3 MLOAD SWAP2 DUP3 MSTORE PUSH1 0x1 PUSH1 0x1 PUSH1 0xA0 SHL SUB AND PUSH1 0x20 DUP3 ADD MSTORE RETURN JUMPDEST PUSH1 0x0 DUP6 DUP2 MSTORE PUSH1 0x3 PUSH1 0x20 MSTORE DUP7 SWAP1 KECCAK256 DUP1 SLOAD SWAP1 SWAP2 AND PUSH1 0x1 PUSH1 0x1 PUSH1 0xA0 SHL SUB DUP6 AND OR SWAP1 SSTORE DUP6 PUSH3 0x767 JUMP JUMPDEST PUSH3 0x86B PUSH1 0x64 PUSH2 0x144 CALLDATALOAD ADD PUSH2 0x144 CALLDATALOAD PUSH1 0x4 ADD PUSH3 0xE42 JUMP JUMPDEST SWAP1 PUSH1 0x0 SWAP2 PUSH1 0x0 SWAP2 JUMPDEST DUP2 DUP4 LT PUSH3 0x8B2 JUMPI POP POP POP SWAP2 PUSH1 0x40 SWAP6 SWAP2 DUP4 DUP6 PUSH3 0x815 SWAP6 PUSH3 0x89C JUMPI JUMPDEST POP POP POP SWAP2 POP SWAP4 PUSH3 0x72F JUMP JUMPDEST PUSH3 0x8A9 SWAP3 CALLER SWAP1 PUSH3 0xEED JUMP JUMPDEST DUP7 DUP1 DUP6 PUSH3 0x890 JUMP JUMPDEST SWAP1 SWAP2 SWAP3 PUSH3 0x8CC PUSH3 0x8D3 SWAP2 DUP6 PUSH1 0x5 SHL DUP5 ADD CALLDATALOAD SWAP1 PUSH3 0xECF JUMP JUMPDEST SWAP4 PUSH3 0xEDD JUMP JUMPDEST SWAP2 SWAP1 PUSH3 0x873 JUMP JUMPDEST PUSH4 0x4E487B71 PUSH1 0xE0 SHL PUSH1 0x0 MSTORE PUSH1 0x11 PUSH1 0x4 MSTORE PUSH1 0x24 PUSH1 0x0 REVERT JUMPDEST PUSH1 0x40 MLOAD RETURNDATASIZE PUSH1 0x0 DUP3 RETURNDATACOPY RETURNDATASIZE SWAP1 REVERT JUMPDEST PUSH4 0x4E487B71 PUSH1 0xE0 SHL PUSH1 0x0 MSTORE PUSH1 0x41 PUSH1 0x4 MSTORE PUSH1 0x24 PUSH1 0x0 REVERT JUMPDEST POP PUSH3 0x91E PUSH3 0xE7B JUMP JUMPDEST PUSH1 0x4 PUSH2 0x144 CALLDATALOAD ADD CALLDATALOAD PUSH1 0x1 PUSH1 0x1 PUSH1 0xA0 SHL SUB DUP2 AND DUP2 SUB PUSH3 0x12E JUMPI PUSH3 0x94F PUSH1 0x44 PUSH2 0x144 CALLDATALOAD ADD PUSH2 0x144 CALLDATALOAD PUSH1 0x4 ADD PUSH3 0xE42 JUMP JUMPDEST SWAP2 SWAP1 SWAP3 PUSH3 0x96A PUSH1 0x64 PUSH2 0x144 CALLDATALOAD ADD PUSH2 0x144 CALLDATALOAD PUSH1 0x4 ADD PUSH3 0xE42 JUMP JUMPDEST SWAP1 SWAP2 PUSH1 0x40 MLOAD SWAP6 DUP7 PUSH2 0x1004 DUP2 ADD LT PUSH8 0xFFFFFFFFFFFFFFFF PUSH2 0x1004 DUP10 ADD GT OR PUSH3 0x8FD JUMPI DUP7 SWAP6 PUSH3 0x9F0 SWAP6 PUSH3 0x9D9 SWAP4 PUSH2 0x1004 PUSH3 0x3E58 DUP11 CODECOPY PUSH1 0x1 PUSH1 0x1 PUSH1 0xA0 SHL SUB SWAP1 DUP2 AND PUSH2 0x1004 DUP11 ADD SWAP1 DUP2 MSTORE SWAP2 AND PUSH1 0x20 DUP3 ADD MSTORE PUSH2 0x144 CALLDATALOAD PUSH1 0x24 ADD CALLDATALOAD PUSH1 0x40 DUP3 ADD MSTORE PUSH1 0xC0 PUSH1 0x60 DUP3 ADD DUP2 SWAP1 MSTORE ADD SWAP2 PUSH3 0xEAA JUMP JUMPDEST SWAP2 PUSH2 0x1004 DUP6 ADD DUP4 SUB PUSH1 0x80 PUSH2 0x1004 DUP8 ADD ADD MSTORE PUSH3 0xEAA JUMP JUMPDEST PUSH32 0x0 PUSH1 0x1 PUSH1 0x1 PUSH1 0xA0 SHL SUB AND PUSH2 0x1004 DUP4 ADD PUSH1 0xA0 ADD MSTORE SUB SWAP1 PUSH1 0x0 CREATE DUP1 ISZERO PUSH3 0x8F1 JUMPI PUSH1 0x1 PUSH1 0x1 PUSH1 0xA0 SHL SUB AND PUSH3 0x56F JUMP JUMPDEST PUSH1 0x40 MLOAD PUSH4 0x4033E4E3 PUSH1 0xE0 SHL DUP2 MSTORE PUSH1 0x4 SWAP1 REVERT JUMPDEST PUSH3 0x549 JUMP JUMPDEST PUSH1 0x40 MLOAD PUSH4 0xD92E233D PUSH1 0xE0 SHL DUP2 MSTORE PUSH1 0x4 SWAP1 REVERT JUMPDEST PUSH1 0x40 MLOAD PUSH4 0x4C87D753 PUSH1 0xE1 SHL DUP2 MSTORE PUSH1 0x4 SWAP1 REVERT JUMPDEST PUSH1 0x40 MLOAD PUSH4 0x76A12A0F PUSH1 0xE1 SHL DUP2 MSTORE PUSH1 0x4 SWAP1 REVERT JUMPDEST PUSH1 0x40 MLOAD PUSH4 0x102DF2A1 PUSH1 0xE1 SHL DUP2 MSTORE PUSH1 0x4 SWAP1 REVERT JUMPDEST PUSH1 0x40 MLOAD PUSH4 0x536A71AF PUSH1 0xE0 SHL DUP2 MSTORE PUSH1 0x4 SWAP1 REVERT JUMPDEST PUSH1 0x40 MLOAD PUSH4 0x6858A31F PUSH1 0xE1 SHL DUP2 MSTORE PUSH1 0x4 SWAP1 REVERT JUMPDEST PUSH1 0x40 MLOAD PUSH4 0x54605D01 PUSH1 0xE1 SHL DUP2 MSTORE PUSH1 0x4 SWAP1 REVERT JUMPDEST CALLVALUE PUSH3 0x12E JUMPI PUSH1 0x0 CALLDATASIZE PUSH1 0x3 NOT ADD SLT PUSH3 0x12E JUMPI PUSH1 0x40 MLOAD PUSH32 0x0 PUSH1 0x1 PUSH1 0x1 PUSH1 0xA0 SHL SUB AND DUP2 MSTORE PUSH1 0x20 SWAP1 RETURN JUMPDEST CALLVALUE PUSH3 0x12E JUMPI PUSH1 0x40 CALLDATASIZE PUSH1 0x3 NOT ADD SLT PUSH3 0x12E JUMPI PUSH3 0xB38 PUSH3 0xCBD JUMP JUMPDEST CALLER PUSH1 0x1 PUSH1 0x1 PUSH1 0xA0 SHL SUB DUP3 AND SUB PUSH3 0xB57 JUMPI PUSH3 0x1B9 SWAP1 PUSH1 0x4 CALLDATALOAD PUSH3 0xDAF JUMP JUMPDEST PUSH1 0x40 MLOAD PUSH4 0x334BD919 PUSH1 0xE1 SHL DUP2 MSTORE PUSH1 0x4 SWAP1 REVERT JUMPDEST CALLVALUE PUSH3 0x12E JUMPI PUSH1 0x0 CALLDATASIZE PUSH1 0x3 NOT ADD SLT PUSH3 0x12E JUMPI PUSH1 0x20 PUSH1 0x40 MLOAD PUSH32 0xBD5D72AC35AE1E83AA0625C57EDDDA63FBB064A87FCA99DFDD7CE027384AE282 DUP2 MSTORE RETURN JUMPDEST CALLVALUE PUSH3 0x12E JUMPI PUSH1 0x40 CALLDATASIZE PUSH1 0x3 NOT ADD SLT PUSH3 0x12E JUMPI PUSH3 0x1B9 PUSH1 0x4 CALLDATALOAD PUSH3 0xBCA PUSH3 0xCBD JUMP JUMPDEST SWAP1 DUP1 PUSH1 0x0 MSTORE PUSH1 0x0 PUSH1 0x20 MSTORE PUSH3 0xBE7 PUSH1 0x1 PUSH1 0x40 PUSH1 0x0 KECCAK256 ADD SLOAD PUSH3 0xCEB JUMP JUMPDEST PUSH3 0xD30 JUMP JUMPDEST CALLVALUE PUSH3 0x12E JUMPI PUSH1 0x20 CALLDATASIZE PUSH1 0x3 NOT ADD SLT PUSH3 0x12E JUMPI PUSH1 0x4 CALLDATALOAD PUSH1 0x0 MSTORE PUSH1 0x0 PUSH1 0x20 MSTORE PUSH1 0x20 PUSH1 0x1 PUSH1 0x40 PUSH1 0x0 KECCAK256 ADD SLOAD PUSH1 0x40 MLOAD SWAP1 DUP2 MSTORE RETURN JUMPDEST CALLVALUE PUSH3 0x12E JUMPI PUSH1 0x0 CALLDATASIZE PUSH1 0x3 NOT ADD SLT PUSH3 0x12E JUMPI PUSH1 0x40 MLOAD PUSH32 0x0 PUSH1 0x1 PUSH1 0x1 PUSH1 0xA0 SHL SUB AND DUP2 MSTORE PUSH1 0x20 SWAP1 RETURN JUMPDEST CALLVALUE PUSH3 0x12E JUMPI PUSH1 0x20 CALLDATASIZE PUSH1 0x3 NOT ADD SLT PUSH3 0x12E JUMPI PUSH1 0x4 CALLDATALOAD SWAP1 PUSH4 0xFFFFFFFF PUSH1 0xE0 SHL DUP3 AND DUP1 SWAP3 SUB PUSH3 0x12E JUMPI PUSH1 0x20 SWAP2 PUSH4 0x7965DB0B PUSH1 0xE0 SHL DUP2 EQ SWAP1 DUP2 ISZERO PUSH3 0xCAB JUMPI JUMPDEST POP ISZERO ISZERO DUP2 MSTORE RETURN JUMPDEST PUSH4 0x1FFC9A7 PUSH1 0xE0 SHL EQ SWAP1 POP DUP4 PUSH3 0xCA4 JUMP JUMPDEST PUSH1 0x24 CALLDATALOAD SWAP1 PUSH1 0x1 PUSH1 0x1 PUSH1 0xA0 SHL SUB DUP3 AND DUP3 SUB PUSH3 0x12E JUMPI JUMP JUMPDEST PUSH1 0x4 CALLDATALOAD SWAP1 PUSH1 0x1 PUSH1 0x1 PUSH1 0xA0 SHL SUB DUP3 AND DUP3 SUB PUSH3 0x12E JUMPI JUMP JUMPDEST DUP1 PUSH1 0x0 MSTORE PUSH1 0x0 PUSH1 0x20 MSTORE PUSH1 0x40 PUSH1 0x0 KECCAK256 CALLER PUSH1 0x0 MSTORE PUSH1 0x20 MSTORE PUSH1 0xFF PUSH1 0x40 PUSH1 0x0 KECCAK256 SLOAD AND ISZERO PUSH3 0xD12 JUMPI POP JUMP JUMPDEST PUSH1 0x44 SWAP1 PUSH1 0x40 MLOAD SWAP1 PUSH4 0xE2517D3F PUSH1 0xE0 SHL DUP3 MSTORE CALLER PUSH1 0x4 DUP4 ADD MSTORE PUSH1 0x24 DUP3 ADD MSTORE REVERT JUMPDEST SWAP1 PUSH1 0x0 SWAP2 DUP1 DUP4 MSTORE DUP3 PUSH1 0x20 MSTORE PUSH1 0x40 DUP4 KECCAK256 SWAP2 PUSH1 0x1 DUP1 PUSH1 0xA0 SHL SUB AND SWAP2 DUP3 DUP5 MSTORE PUSH1 0x20 MSTORE PUSH1 0xFF PUSH1 0x40 DUP5 KECCAK256 SLOAD AND ISZERO PUSH1 0x0 EQ PUSH3 0xDAA JUMPI DUP1 DUP4 MSTORE DUP3 PUSH1 0x20 MSTORE PUSH1 0x40 DUP4 KECCAK256 DUP3 DUP5 MSTORE PUSH1 0x20 MSTORE PUSH1 0x40 DUP4 KECCAK256 PUSH1 0x1 PUSH1 0xFF NOT DUP3 SLOAD AND OR SWAP1 SSTORE PUSH32 0x2F8788117E7EFF1D82E926EC794901D17C78024A50270940304540A733656F0D CALLER SWAP4 DUP1 LOG4 PUSH1 0x1 SWAP1 JUMP JUMPDEST POP POP SWAP1 JUMP JUMPDEST SWAP1 PUSH1 0x0 SWAP2 DUP1 DUP4 MSTORE DUP3 PUSH1 0x20 MSTORE PUSH1 0x40 DUP4 KECCAK256 SWAP2 PUSH1 0x1 DUP1 PUSH1 0xA0 SHL SUB AND SWAP2 DUP3 DUP5 MSTORE PUSH1 0x20 MSTORE PUSH1 0xFF PUSH1 0x40 DUP5 KECCAK256 SLOAD AND PUSH1 0x0 EQ PUSH3 0xDAA JUMPI DUP1 DUP4 MSTORE DUP3 PUSH1 0x20 MSTORE PUSH1 0x40 DUP4 KECCAK256 DUP3 DUP5 MSTORE PUSH1 0x20 MSTORE PUSH1 0x40 DUP4 KECCAK256 PUSH1 0xFF NOT DUP2 SLOAD AND SWAP1 SSTORE PUSH32 0xF6391F5C32D9C69D2A47EA670B442974B53935D1EDC7FD64EB21E047A839171B CALLER SWAP4 DUP1 LOG4 PUSH1 0x1 SWAP1 JUMP JUMPDEST PUSH1 0x60 DUP2 ADD SWAP1 DUP2 LT PUSH8 0xFFFFFFFFFFFFFFFF DUP3 GT OR PUSH3 0x8FD JUMPI PUSH1 0x40 MSTORE JUMP JUMPDEST SWAP1 CALLDATALOAD SWAP1 PUSH1 0x1E NOT DUP2 CALLDATASIZE SUB ADD DUP3 SLT ISZERO PUSH3 0x12E JUMPI ADD DUP1 CALLDATALOAD SWAP1 PUSH8 0xFFFFFFFFFFFFFFFF DUP3 GT PUSH3 0x12E JUMPI PUSH1 0x20 ADD SWAP2 DUP2 PUSH1 0x5 SHL CALLDATASIZE SUB DUP4 SGT PUSH3 0x12E JUMPI JUMP JUMPDEST PUSH1 0x4 CALLDATALOAD PUSH1 0x1 PUSH1 0x1 PUSH1 0xA0 SHL SUB DUP2 AND DUP2 SUB PUSH3 0x12E JUMPI SWAP1 JUMP JUMPDEST PUSH2 0x104 CALLDATALOAD PUSH1 0x1 PUSH1 0x1 PUSH1 0xA0 SHL SUB DUP2 AND DUP2 SUB PUSH3 0x12E JUMPI SWAP1 JUMP JUMPDEST DUP2 DUP4 MSTORE SWAP1 SWAP2 PUSH1 0x1 PUSH1 0x1 PUSH1 0xFB SHL SUB DUP4 GT PUSH3 0x12E JUMPI PUSH1 0x20 SWAP3 PUSH1 0x5 SHL DUP1 SWAP3 DUP5 DUP4 ADD CALLDATACOPY ADD ADD SWAP1 JUMP JUMPDEST SWAP2 SWAP1 DUP3 ADD DUP1 SWAP3 GT PUSH3 0x8DB JUMPI JUMP JUMPDEST PUSH1 0x0 NOT DUP2 EQ PUSH3 0x8DB JUMPI PUSH1 0x1 ADD SWAP1 JUMP JUMPDEST PUSH1 0x40 MLOAD PUSH4 0x23B872DD PUSH1 0xE0 SHL PUSH1 0x20 DUP3 ADD SWAP1 DUP2 MSTORE PUSH1 0x1 PUSH1 0x1 PUSH1 0xA0 SHL SUB SWAP4 DUP5 AND PUSH1 0x24 DUP4 ADD MSTORE SWAP4 DUP4 AND PUSH1 0x44 DUP3 ADD MSTORE PUSH1 0x64 DUP1 DUP3 ADD SWAP6 SWAP1 SWAP6 MSTORE SWAP4 DUP5 MSTORE SWAP3 SWAP1 SWAP2 PUSH1 0xA0 DUP3 ADD SWAP1 PUSH8 0xFFFFFFFFFFFFFFFF DUP3 GT DUP4 DUP4 LT OR PUSH3 0x8FD JUMPI PUSH1 0x20 SWAP3 PUSH1 0x0 SWAP3 PUSH1 0x40 MSTORE MLOAD SWAP1 DUP3 DUP7 GAS CALL ISZERO PUSH3 0x8F1 JUMPI PUSH1 0x0 MLOAD RETURNDATASIZE PUSH3 0xF87 JUMPI POP DUP1 DUP3 AND EXTCODESIZE ISZERO JUMPDEST PUSH3 0xF6D JUMPI POP POP JUMP JUMPDEST PUSH1 0x40 MLOAD PUSH4 0x5274AFE7 PUSH1 0xE0 SHL DUP2 MSTORE SWAP2 AND PUSH1 0x4 DUP3 ADD MSTORE PUSH1 0x24 SWAP2 POP REVERT JUMPDEST PUSH1 0x1 EQ ISZERO PUSH3 0xF64 JUMP INVALID CALLVALUE PUSH3 0x3B6 JUMPI PUSH3 0x2EC6 CODESIZE DUP2 SWAP1 SUB PUSH2 0x280 PUSH1 0x1F DUP3 ADD PUSH1 0x1F NOT AND DUP2 ADD SWAP1 PUSH1 0x1 PUSH1 0x1 PUSH1 0x40 SHL SUB DUP3 GT SWAP1 DUP3 LT OR PUSH3 0x3BB JUMPI PUSH2 0x200 SWAP3 DUP3 SWAP2 PUSH1 0x40 MSTORE PUSH2 0x280 CODECOPY SLT PUSH3 0x3B6 JUMPI PUSH3 0x4E PUSH2 0x280 PUSH3 0x3D1 JUMP JUMPDEST PUSH3 0x5B PUSH2 0x2A0 PUSH3 0x3D1 JUMP JUMPDEST PUSH2 0x2C0 MLOAD PUSH2 0x2E0 MLOAD PUSH2 0x300 MLOAD PUSH2 0x320 MLOAD PUSH2 0x340 MLOAD PUSH2 0x360 MLOAD PUSH2 0x380 MLOAD SWAP6 SWAP8 SWAP6 SWAP1 SWAP5 SWAP4 SWAP3 SWAP2 SWAP1 PUSH2 0xFFFF DUP2 AND DUP2 SUB PUSH3 0x3B6 JUMPI PUSH3 0x167 SWAP6 PUSH3 0x9E PUSH2 0x3A0 PUSH3 0x3D1 JUMP JUMPDEST SWAP3 PUSH3 0xAC PUSH2 0x3C0 PUSH3 0x3D1 JUMP JUMPDEST SWAP5 PUSH3 0xBA PUSH2 0x3E0 PUSH3 0x3D1 JUMP JUMPDEST SWAP7 PUSH3 0xC8 PUSH2 0x400 PUSH3 0x3D1 JUMP JUMPDEST PUSH2 0x420 MLOAD PUSH2 0x440 MLOAD PUSH2 0x460 MLOAD PUSH1 0x1 DUP1 SSTORE PUSH1 0x80 SWAP15 SWAP1 SWAP15 MSTORE PUSH1 0xA0 SWAP15 SWAP1 SWAP15 MSTORE PUSH1 0xC0 SWAP15 SWAP1 SWAP15 MSTORE PUSH1 0xE0 SWAP10 SWAP1 SWAP10 MSTORE PUSH2 0x100 MSTORE PUSH2 0x120 MSTORE PUSH2 0x140 MSTORE PUSH2 0x160 MSTORE PUSH2 0x180 MSTORE PUSH2 0x1A0 MSTORE PUSH2 0x1C0 MSTORE PUSH2 0x1E0 MSTORE PUSH2 0x220 SWAP5 DUP6 MSTORE PUSH2 0x240 SWAP4 DUP5 MSTORE PUSH2 0x260 SWAP3 DUP4 MSTORE PUSH1 0x2 DUP1 SLOAD PUSH1 0xFF PUSH1 0xA0 SHL NOT AND SWAP1 SSTORE PUSH1 0x0 CHAINID PUSH1 0x38 SUB PUSH3 0x2EC JUMPI POP PUSH20 0x10ED43C718714EB63D5AA57B78B54704E256024E JUMPDEST PUSH2 0x200 MSTORE PUSH3 0x160 DUP2 PUSH3 0x3E6 JUMP JUMPDEST POP PUSH3 0x466 JUMP JUMPDEST POP PUSH1 0x40 MLOAD SWAP2 PUSH2 0x299D SWAP4 DUP5 PUSH3 0x509 DUP6 CODECOPY PUSH1 0x80 MLOAD DUP5 DUP2 DUP2 PUSH2 0xC6F ADD MSTORE DUP2 DUP2 PUSH2 0xD5A ADD MSTORE DUP2 DUP2 PUSH2 0x1024 ADD MSTORE PUSH2 0x26BC ADD MSTORE PUSH1 0xA0 MLOAD DUP5 DUP2 DUP2 PUSH2 0x387 ADD MSTORE DUP2 DUP2 PUSH2 0x8D5 ADD MSTORE DUP2 DUP2 PUSH2 0xB5D ADD MSTORE DUP2 DUP2 PUSH2 0xEF4 ADD MSTORE DUP2 DUP2 PUSH2 0x1094 ADD MSTORE DUP2 DUP2 PUSH2 0x1EB6 ADD MSTORE PUSH2 0x2571 ADD MSTORE PUSH1 0xC0 MLOAD DUP5 DUP2 DUP2 PUSH2 0x28A ADD MSTORE DUP2 DUP2 PUSH2 0x1C0C ADD MSTORE PUSH2 0x1D1F ADD MSTORE PUSH1 0xE0 MLOAD DUP5 DUP2 DUP2 PUSH2 0xD0A ADD MSTORE DUP2 DUP2 PUSH2 0x1654 ADD MSTORE DUP2 DUP2 PUSH2 0x1FF1 ADD MSTORE DUP2 DUP2 PUSH2 0x26FD ADD MSTORE PUSH2 0x290D ADD MSTORE PUSH2 0x100 MLOAD DUP5 DUP2 DUP2 PUSH2 0x690 ADD MSTORE PUSH2 0x1A9B ADD MSTORE PUSH2 0x120 MLOAD DUP5 DUP2 DUP2 PUSH2 0x7DF ADD MSTORE PUSH2 0x1AE5 ADD MSTORE PUSH2 0x140 MLOAD DUP5 DUP2 DUP2 PUSH2 0x991 ADD MSTORE DUP2 DUP2 PUSH2 0x2815 ADD MSTORE PUSH2 0x28A5 ADD MSTORE PUSH2 0x160 MLOAD DUP5 DUP2 DUP2 PUSH2 0xEBC ADD MSTORE DUP2 DUP2 PUSH2 0x27EB ADD MSTORE PUSH2 0x287B ADD MSTORE PUSH2 0x180 MLOAD DUP5 DUP2 DUP2 PUSH2 0x1692 ADD MSTORE PUSH2 0x20E6 ADD MSTORE PUSH2 0x1A0 MLOAD DUP5 DUP2 DUP2 PUSH2 0xA86 ADD MSTORE DUP2 DUP2 PUSH2 0x1EDF ADD MSTORE PUSH2 0x1FA4 ADD MSTORE PUSH2 0x1C0 MLOAD DUP5 DUP2 DUP2 PUSH2 0xA42 ADD MSTORE PUSH2 0x2547 ADD MSTORE PUSH2 0x1E0 MLOAD DUP5 DUP2 DUP2 PUSH2 0x6C8 ADD MSTORE DUP2 DUP2 PUSH2 0x232D ADD MSTORE DUP2 DUP2 PUSH2 0x25A0 ADD MSTORE PUSH2 0x267D ADD MSTORE PUSH2 0x200 MLOAD DUP5 DUP2 DUP2 PUSH2 0xFF0 ADD MSTORE PUSH2 0x16CB ADD MSTORE MLOAD DUP4 DUP2 DUP2 PUSH2 0x5FD ADD MSTORE DUP2 DUP2 PUSH2 0x20B7 ADD MSTORE PUSH2 0x2510 ADD MSTORE MLOAD DUP3 DUP2 DUP2 PUSH2 0x81A ADD MSTORE PUSH2 0x226D ADD MSTORE MLOAD DUP2 PUSH2 0x15EF ADD MSTORE RETURN JUMPDEST CHAINID PUSH1 0x61 SUB PUSH3 0x311 JUMPI POP PUSH20 0xD99D1C33F9FC3444F8101754ABC46C52416550D1 PUSH3 0x151 JUMP JUMPDEST CHAINID PUSH1 0x1 SUB PUSH3 0x336 JUMPI POP PUSH20 0x7A250D5630B4CF539739DF2C5DACB4C659F2488D PUSH3 0x151 JUMP JUMPDEST CHAINID PUSH3 0xAA36A7 SUB PUSH3 0x35D JUMPI POP PUSH20 0xEE567FE1712FAF6149D80DA1E6934E354124CFE3 PUSH3 0x151 JUMP JUMPDEST PUSH2 0x2105 CHAINID EQ SWAP1 DUP2 ISZERO PUSH3 0x3A8 JUMPI JUMPDEST POP ISZERO PUSH3 0x38D JUMPI PUSH20 0x4752BA5DBC23F44D87826276BF6FD6B1C372AD24 PUSH3 0x151 JUMP JUMPDEST PUSH20 0x7A250D5630B4CF539739DF2C5DACB4C659F2488D PUSH3 0x151 JUMP JUMPDEST CHAINID PUSH3 0x14A34 EQ SWAP2 POP PUSH3 0x36B JUMP JUMPDEST PUSH1 0x0 DUP1 REVERT JUMPDEST PUSH4 0x4E487B71 PUSH1 0xE0 SHL PUSH1 0x0 MSTORE PUSH1 0x41 PUSH1 0x4 MSTORE PUSH1 0x24 PUSH1 0x0 REVERT JUMPDEST MLOAD SWAP1 PUSH1 0x1 PUSH1 0x1 PUSH1 0xA0 SHL SUB DUP3 AND DUP3 SUB PUSH3 0x3B6 JUMPI JUMP JUMPDEST PUSH1 0x1 PUSH1 0x1 PUSH1 0xA0 SHL SUB AND PUSH1 0x0 DUP2 DUP2 MSTORE PUSH32 0xAD3228B676F7D3CD4284A5443F17F1962B36E491B30A40B2405849E597BA5FB5 PUSH1 0x20 MSTORE PUSH1 0x40 DUP2 KECCAK256 SLOAD SWAP1 SWAP2 SWAP1 PUSH1 0xFF AND PUSH3 0x462 JUMPI DUP2 DUP1 MSTORE DUP2 PUSH1 0x20 MSTORE PUSH1 0x40 DUP3 KECCAK256 DUP2 DUP4 MSTORE PUSH1 0x20 MSTORE PUSH1 0x40 DUP3 KECCAK256 PUSH1 0x1 PUSH1 0xFF NOT DUP3 SLOAD AND OR SWAP1 SSTORE CALLER SWAP2 PUSH1 0x0 DUP1 MLOAD PUSH1 0x20 PUSH3 0x2EA6 DUP4 CODECOPY DUP2 MLOAD SWAP2 MSTORE DUP2 DUP1 LOG4 PUSH1 0x1 SWAP1 JUMP JUMPDEST POP SWAP1 JUMP JUMPDEST PUSH1 0x1 PUSH1 0x1 PUSH1 0xA0 SHL SUB AND PUSH1 0x0 DUP2 DUP2 MSTORE PUSH32 0x7D7FFB7A348E1C6A02869081A26547B49160DD3DF72D1D75A570EB9B698292EC PUSH1 0x20 MSTORE PUSH1 0x40 DUP2 KECCAK256 SLOAD SWAP1 SWAP2 SWAP1 PUSH32 0xA49807205CE4D355092EF5A8A18F56E8913CF4A201FBE287825B095693C21775 SWAP1 PUSH1 0xFF AND PUSH3 0x503 JUMPI DUP1 DUP4 MSTORE DUP3 PUSH1 0x20 MSTORE PUSH1 0x40 DUP4 KECCAK256 DUP3 DUP5 MSTORE PUSH1 0x20 MSTORE PUSH1 0x40 DUP4 KECCAK256 PUSH1 0x1 PUSH1 0xFF NOT DUP3 SLOAD AND OR SWAP1 SSTORE PUSH1 0x0 DUP1 MLOAD PUSH1 0x20 PUSH3 0x2EA6 DUP4 CODECOPY DUP2 MLOAD SWAP2 MSTORE CALLER SWAP4 DUP1 LOG4 PUSH1 0x1 SWAP1 JUMP JUMPDEST POP POP SWAP1 JUMP INVALID PUSH1 0x40 PUSH1 0x80 DUP2 MSTORE PUSH1 0x4 SWAP1 DUP2 CALLDATASIZE LT ISZERO PUSH2 0x15 JUMPI PUSH1 0x0 DUP1 REVERT JUMPDEST PUSH1 0x0 SWAP2 DUP3 CALLDATALOAD PUSH1 0xE0 SHR SWAP1 DUP2 PUSH3 0xC3702D EQ PUSH2 0x1750 JUMPI DUP2 PUSH4 0x1FFC9A7 EQ PUSH2 0x16FA JUMPI DUP2 PUSH4 0x3FC2013 EQ PUSH2 0x83D JUMPI DUP2 PUSH4 0x758D924 EQ PUSH2 0x16B6 JUMPI DUP2 PUSH4 0xB7C1AE1 EQ PUSH2 0x1677 JUMPI DUP2 PUSH4 0x12AEF8C3 EQ PUSH2 0x163C JUMPI DUP2 PUSH4 0x1CC64544 EQ PUSH2 0x73E JUMPI DUP2 PUSH4 0x200D2ED2 EQ PUSH2 0x1612 JUMPI DUP2 PUSH4 0x220C0956 EQ PUSH2 0x15D7 JUMPI DUP2 PUSH4 0x224E93FE EQ PUSH2 0xFB9 JUMPI DUP2 PUSH4 0x248A9CA3 EQ PUSH2 0xF8F JUMPI DUP2 PUSH4 0x2C51C7E0 EQ PUSH2 0xF4D JUMPI DUP2 PUSH4 0x2F2FF15D EQ PUSH2 0xF23 JUMPI DUP2 PUSH4 0x3013CE29 EQ PUSH2 0xEDF JUMPI DUP2 PUSH4 0x3197CBB6 EQ PUSH2 0xEA4 JUMPI DUP2 PUSH4 0x362F04C0 EQ PUSH2 0xE86 JUMPI DUP2 PUSH4 0x36568ABE EQ PUSH2 0xE40 JUMPI DUP2 PUSH4 0x3F4BA83A EQ PUSH2 0xDF5 JUMPI DUP2 PUSH4 0x42E94C90 EQ PUSH2 0x423 JUMPI DUP2 PUSH4 0x48C54B9D EQ PUSH2 0xC9E JUMPI DUP2 PUSH4 0x4B60CE77 EQ PUSH2 0xC5A JUMPI DUP2 PUSH4 0x4BB278F3 EQ PUSH2 0xC39 JUMPI DUP2 PUSH4 0x4E69D560 EQ PUSH2 0xC0C JUMPI DUP2 PUSH4 0x590E1AE3 EQ PUSH2 0xAFA JUMPI DUP2 PUSH4 0x5D49DFF4 EQ PUSH2 0xAB5 JUMPI DUP2 PUSH4 0x6052970C EQ PUSH2 0xA71 JUMPI DUP2 PUSH4 0x619F3D6C EQ PUSH2 0xA2D JUMPI DUP2 PUSH4 0x73B2E80E EQ PUSH2 0x9EF JUMPI DUP2 PUSH4 0x75B238FC EQ PUSH2 0x9B4 JUMPI DUP2 PUSH4 0x78E97925 EQ PUSH2 0x979 JUMPI DUP2 PUSH4 0x8160059A EQ PUSH2 0x8B5 JUMPI DUP2 PUSH4 0x8456CB59 EQ PUSH2 0x866 JUMPI DUP2 PUSH4 0x89DDA6A0 EQ PUSH2 0x83D JUMPI DUP2 PUSH4 0x8BCD8515 EQ PUSH2 0x802 JUMPI DUP2 PUSH4 0x8D3D6576 EQ PUSH2 0x7C7 JUMPI DUP2 PUSH4 0x8D4E4083 EQ PUSH2 0x7A3 JUMPI DUP2 PUSH4 0x91D14854 EQ PUSH2 0x75D JUMPI DUP2 PUSH4 0x9CE05DF7 EQ PUSH2 0x73E JUMPI DUP2 PUSH4 0x9E014FD5 EQ PUSH2 0x712 JUMPI DUP2 PUSH4 0xA217FDDF EQ PUSH2 0x6F7 JUMPI DUP2 PUSH4 0xA4475CE4 EQ PUSH2 0x6B3 JUMPI DUP2 PUSH4 0xAAFFADF3 EQ PUSH2 0x678 JUMPI DUP2 PUSH4 0xAF1A9CAB EQ PUSH2 0x620 JUMPI DUP2 PUSH4 0xB0683755 EQ PUSH2 0x5E5 JUMPI DUP2 PUSH4 0xB187BD26 EQ PUSH2 0x5BE JUMPI DUP2 PUSH4 0xB524F87B EQ PUSH2 0x488 JUMPI DUP2 PUSH4 0xB920ADE2 EQ PUSH2 0x45B JUMPI DUP2 PUSH4 0xBB8B2B47 EQ PUSH2 0x423 JUMPI DUP2 PUSH4 0xC5C4744C EQ PUSH2 0x404 JUMPI DUP2 PUSH4 0xD547741F EQ PUSH2 0x3C5 JUMPI DUP2 PUSH4 0xD7BB99BA EQ PUSH2 0x36F JUMPI DUP2 PUSH4 0xEA8A1AF0 EQ PUSH2 0x2DD JUMPI POP DUP1 PUSH4 0xF5AE497A EQ PUSH2 0x2B1 JUMPI PUSH4 0xF89BE593 EQ PUSH2 0x274 JUMPI PUSH1 0x0 DUP1 REVERT JUMPDEST CALLVALUE PUSH2 0x2AD JUMPI DUP2 PUSH1 0x3 NOT CALLDATASIZE ADD SLT PUSH2 0x2AD JUMPI PUSH1 0x20 SWAP1 MLOAD PUSH32 0x0 DUP2 MSTORE RETURN JUMPDEST POP DUP1 REVERT JUMPDEST POP CALLVALUE PUSH2 0x2AD JUMPI DUP2 PUSH1 0x3 NOT CALLDATASIZE ADD SLT PUSH2 0x2AD JUMPI PUSH1 0x6 SLOAD SWAP1 MLOAD PUSH1 0x18 SWAP2 SWAP1 SWAP2 SHR PUSH1 0x1 PUSH1 0x1 PUSH1 0xA0 SHL SUB AND DUP2 MSTORE PUSH1 0x20 SWAP1 RETURN JUMPDEST SWAP1 POP CALLVALUE PUSH2 0x36B JUMPI DUP3 PUSH1 0x3 NOT CALLDATASIZE ADD SLT PUSH2 0x36B JUMPI PUSH2 0x2F7 PUSH2 0x17EF JUMP JUMPDEST PUSH1 0x2 SLOAD SWAP2 PUSH1 0xFF DUP4 PUSH1 0xA0 SHR AND PUSH1 0x6 DUP2 LT ISZERO PUSH2 0x358 JUMPI PUSH1 0x3 EQ PUSH2 0x34B JUMPI POP POP PUSH1 0xFF PUSH1 0xA0 SHL NOT AND PUSH1 0x5 PUSH1 0xA0 SHL OR PUSH1 0x2 SSTORE PUSH32 0x63B958841F79AB97CB5456DA181454B9932C0E15A3B17F1CBD27E2A8BC610437 DUP2 DUP1 LOG1 DUP1 RETURN JUMPDEST MLOAD PUSH4 0x7A92F19 PUSH1 0xE5 SHL DUP2 MSTORE REVERT JUMPDEST PUSH4 0x4E487B71 PUSH1 0xE0 SHL DUP6 MSTORE PUSH1 0x21 DUP4 MSTORE PUSH1 0x24 DUP6 REVERT JUMPDEST DUP3 DUP1 REVERT JUMPDEST SWAP2 SWAP1 POP DUP3 PUSH1 0x3 NOT CALLDATASIZE ADD SLT PUSH2 0x36B JUMPI PUSH2 0x385 PUSH2 0x1982 JUMP JUMPDEST PUSH32 0x0 PUSH1 0x1 PUSH1 0x1 PUSH1 0xA0 SHL SUB AND PUSH2 0x34B JUMPI DUP3 PUSH2 0x3BE CALLVALUE CALLER PUSH2 0x1A68 JUMP JUMPDEST PUSH1 0x1 DUP1 SSTORE DUP1 RETURN JUMPDEST SWAP2 SWAP1 POP CALLVALUE PUSH2 0x36B JUMPI DUP1 PUSH1 0x3 NOT CALLDATASIZE ADD SLT PUSH2 0x36B JUMPI PUSH2 0x400 SWAP2 CALLDATALOAD PUSH2 0x3FB PUSH1 0x1 PUSH2 0x3EA PUSH2 0x17BE JUMP JUMPDEST SWAP4 DUP4 DUP8 MSTORE DUP7 PUSH1 0x20 MSTORE DUP7 KECCAK256 ADD SLOAD PUSH2 0x1869 JUMP JUMPDEST PUSH2 0x190D JUMP JUMPDEST POP DUP1 RETURN JUMPDEST POP POP CALLVALUE PUSH2 0x2AD JUMPI DUP2 PUSH1 0x3 NOT CALLDATASIZE ADD SLT PUSH2 0x2AD JUMPI PUSH1 0x20 SWAP1 PUSH1 0x3 SLOAD SWAP1 MLOAD SWAP1 DUP2 MSTORE RETURN JUMPDEST POP POP CALLVALUE PUSH2 0x2AD JUMPI PUSH1 0x20 CALLDATASIZE PUSH1 0x3 NOT ADD SLT PUSH2 0x2AD JUMPI PUSH1 0x20 SWAP2 DUP2 SWAP1 PUSH1 0x1 PUSH1 0x1 PUSH1 0xA0 SHL SUB PUSH2 0x44B PUSH2 0x17D9 JUMP JUMPDEST AND DUP2 MSTORE PUSH1 0x7 DUP5 MSTORE KECCAK256 SLOAD SWAP1 MLOAD SWAP1 DUP2 MSTORE RETURN JUMPDEST POP POP CALLVALUE PUSH2 0x2AD JUMPI PUSH1 0x20 CALLDATASIZE PUSH1 0x3 NOT ADD SLT PUSH2 0x2AD JUMPI PUSH1 0x20 SWAP1 PUSH2 0x481 PUSH2 0x47C PUSH2 0x17D9 JUMP JUMPDEST PUSH2 0x28CC JUMP JUMPDEST SWAP1 MLOAD SWAP1 DUP2 MSTORE RETURN JUMPDEST DUP4 SWAP2 POP CALLVALUE PUSH2 0x2AD JUMPI PUSH1 0x20 CALLDATASIZE PUSH1 0x3 NOT ADD SLT PUSH2 0x2AD JUMPI PUSH2 0x4A4 PUSH2 0x17D9 JUMP JUMPDEST PUSH2 0x4AC PUSH2 0x17EF JUMP JUMPDEST PUSH1 0x2 SLOAD SWAP1 PUSH1 0x1 PUSH1 0x1 PUSH1 0xA0 SHL SUB SWAP1 DUP2 DUP4 AND PUSH2 0x583 JUMPI PUSH1 0xFF PUSH1 0x6 SLOAD AND PUSH2 0x54C JUMPI AND SWAP2 DUP3 ISZERO PUSH2 0x509 JUMPI POP PUSH1 0x1 PUSH1 0x1 PUSH1 0xA0 SHL SUB NOT AND DUP2 OR PUSH1 0x2 SSTORE PUSH32 0xF3E056D0219310A4E47C749671CFBC8607538F3327BB8C6BF872A1119B622D2F DUP3 DUP1 LOG2 DUP1 RETURN JUMPDEST PUSH1 0x64 SWAP1 PUSH1 0x20 DUP7 MLOAD SWAP2 PUSH3 0x461BCD PUSH1 0xE5 SHL DUP4 MSTORE DUP3 ADD MSTORE PUSH1 0x19 PUSH1 0x24 DUP3 ADD MSTORE PUSH32 0x496E76616C6964204C50204C6F636B6572206164647265737300000000000000 PUSH1 0x44 DUP3 ADD MSTORE REVERT JUMPDEST DUP6 MLOAD PUSH3 0x461BCD PUSH1 0xE5 SHL DUP2 MSTORE PUSH1 0x20 DUP2 DUP7 ADD MSTORE PUSH1 0x11 PUSH1 0x24 DUP3 ADD MSTORE PUSH17 0x105B1C9958591E48199A5B985B1A5E9959 PUSH1 0x7A SHL PUSH1 0x44 DUP3 ADD MSTORE PUSH1 0x64 SWAP1 REVERT JUMPDEST DUP6 MLOAD PUSH3 0x461BCD PUSH1 0xE5 SHL DUP2 MSTORE PUSH1 0x20 DUP2 DUP7 ADD MSTORE PUSH1 0x15 PUSH1 0x24 DUP3 ADD MSTORE PUSH21 0x131408131BD8DAD95C88185B1C9958591E481CD95D PUSH1 0x5A SHL PUSH1 0x44 DUP3 ADD MSTORE PUSH1 0x64 SWAP1 REVERT JUMPDEST POP POP CALLVALUE PUSH2 0x2AD JUMPI DUP2 PUSH1 0x3 NOT CALLDATASIZE ADD SLT PUSH2 0x2AD JUMPI PUSH1 0x20 SWAP1 PUSH1 0xFF PUSH1 0x6 SLOAD PUSH1 0x8 SHR AND SWAP1 MLOAD SWAP1 ISZERO ISZERO DUP2 MSTORE RETURN JUMPDEST POP POP CALLVALUE PUSH2 0x2AD JUMPI DUP2 PUSH1 0x3 NOT CALLDATASIZE ADD SLT PUSH2 0x2AD JUMPI PUSH1 0x20 SWAP1 MLOAD PUSH32 0x0 DUP2 MSTORE RETURN JUMPDEST SWAP2 SWAP1 POP CALLVALUE PUSH2 0x36B JUMPI DUP3 PUSH1 0x3 NOT CALLDATASIZE ADD SLT PUSH2 0x36B JUMPI PUSH2 0x63B PUSH2 0x1982 JUMP JUMPDEST PUSH2 0x643 PUSH2 0x17EF JUMP JUMPDEST PUSH1 0xFF PUSH1 0x6 SLOAD PUSH1 0x10 SHR AND PUSH1 0x5 DUP2 LT ISZERO PUSH2 0x665 JUMPI PUSH1 0x1 SUB PUSH2 0x34B JUMPI DUP3 PUSH2 0x3BE PUSH2 0x208B JUMP JUMPDEST PUSH4 0x4E487B71 PUSH1 0xE0 SHL DUP5 MSTORE PUSH1 0x21 DUP4 MSTORE PUSH1 0x24 DUP5 REVERT JUMPDEST POP POP CALLVALUE PUSH2 0x2AD JUMPI DUP2 PUSH1 0x3 NOT CALLDATASIZE ADD SLT PUSH2 0x2AD JUMPI PUSH1 0x20 SWAP1 MLOAD PUSH32 0x0 DUP2 MSTORE RETURN JUMPDEST POP POP CALLVALUE PUSH2 0x2AD JUMPI DUP2 PUSH1 0x3 NOT CALLDATASIZE ADD SLT PUSH2 0x2AD JUMPI MLOAD PUSH32 0x0 PUSH1 0x1 PUSH1 0x1 PUSH1 0xA0 SHL SUB AND DUP2 MSTORE PUSH1 0x20 SWAP1 RETURN JUMPDEST POP POP CALLVALUE PUSH2 0x2AD JUMPI DUP2 PUSH1 0x3 NOT CALLDATASIZE ADD SLT PUSH2 0x2AD JUMPI MLOAD SWAP1 DUP2 MSTORE PUSH1 0x20 SWAP1 RETURN JUMPDEST DUP4 CALLVALUE PUSH2 0x73B JUMPI DUP1 PUSH1 0x3 NOT CALLDATASIZE ADD SLT PUSH2 0x73B JUMPI PUSH2 0x72B PUSH2 0x1982 JUMP JUMPDEST PUSH2 0x733 PUSH2 0x17EF JUMP JUMPDEST PUSH2 0x3BE PUSH2 0x1D00 JUMP JUMPDEST DUP1 REVERT JUMPDEST POP POP CALLVALUE PUSH2 0x2AD JUMPI DUP2 PUSH1 0x3 NOT CALLDATASIZE ADD SLT PUSH2 0x2AD JUMPI PUSH1 0x20 SWAP1 PUSH1 0x5 SLOAD SWAP1 MLOAD SWAP1 DUP2 MSTORE RETURN JUMPDEST SWAP1 POP CALLVALUE PUSH2 0x36B JUMPI DUP2 PUSH1 0x3 NOT CALLDATASIZE ADD SLT PUSH2 0x36B JUMPI DUP2 PUSH1 0x20 SWAP4 PUSH1 0xFF SWAP3 PUSH2 0x77E PUSH2 0x17BE JUMP JUMPDEST SWAP1 CALLDATALOAD DUP3 MSTORE DUP2 DUP7 MSTORE DUP3 DUP3 KECCAK256 PUSH1 0x1 PUSH1 0x1 PUSH1 0xA0 SHL SUB SWAP1 SWAP2 AND DUP3 MSTORE DUP6 MSTORE KECCAK256 SLOAD SWAP2 MLOAD SWAP2 AND ISZERO ISZERO DUP2 MSTORE RETURN JUMPDEST POP POP CALLVALUE PUSH2 0x2AD JUMPI DUP2 PUSH1 0x3 NOT CALLDATASIZE ADD SLT PUSH2 0x2AD JUMPI PUSH1 0x20 SWAP1 PUSH1 0xFF PUSH1 0x6 SLOAD AND SWAP1 MLOAD SWAP1 ISZERO ISZERO DUP2 MSTORE RETURN JUMPDEST POP POP CALLVALUE PUSH2 0x2AD JUMPI DUP2 PUSH1 0x3 NOT CALLDATASIZE ADD SLT PUSH2 0x2AD JUMPI PUSH1 0x20 SWAP1 MLOAD PUSH32 0x0 DUP2 MSTORE RETURN JUMPDEST POP POP CALLVALUE PUSH2 0x2AD JUMPI DUP2 PUSH1 0x3 NOT CALLDATASIZE ADD SLT PUSH2 0x2AD JUMPI PUSH1 0x20 SWAP1 MLOAD PUSH32 0x0 DUP2 MSTORE RETURN JUMPDEST POP POP CALLVALUE PUSH2 0x2AD JUMPI DUP2 PUSH1 0x3 NOT CALLDATASIZE ADD SLT PUSH2 0x2AD JUMPI PUSH1 0x2 SLOAD SWAP1 MLOAD PUSH1 0x1 PUSH1 0x1 PUSH1 0xA0 SHL SUB SWAP1 SWAP2 AND DUP2 MSTORE PUSH1 0x20 SWAP1 RETURN JUMPDEST DUP4 CALLVALUE PUSH2 0x73B JUMPI DUP1 PUSH1 0x3 NOT CALLDATASIZE ADD SLT PUSH2 0x73B JUMPI PUSH2 0x87F PUSH2 0x17EF JUMP JUMPDEST PUSH2 0x100 PUSH2 0xFF00 NOT PUSH1 0x6 SLOAD AND OR PUSH1 0x6 SSTORE PUSH32 0x9E87FAC88FF661F02D44F95383C817FECE4BCE600A3DAB7A54406878B965E752 DUP2 DUP1 LOG1 DUP1 RETURN JUMPDEST DUP4 DUP4 CALLVALUE PUSH2 0x2AD JUMPI PUSH1 0x20 CALLDATASIZE PUSH1 0x3 NOT ADD SLT PUSH2 0x2AD JUMPI DUP3 CALLDATALOAD SWAP1 PUSH2 0x8D3 PUSH2 0x1982 JUMP JUMPDEST PUSH32 0x0 PUSH1 0x1 PUSH1 0x1 PUSH1 0xA0 SHL SUB AND DUP1 ISZERO PUSH2 0x969 JUMPI DUP2 MLOAD PUSH4 0x23B872DD PUSH1 0xE0 SHL PUSH1 0x20 DUP3 ADD MSTORE CALLER PUSH1 0x24 DUP3 ADD MSTORE ADDRESS PUSH1 0x44 DUP3 ADD MSTORE PUSH1 0x64 DUP1 DUP3 ADD DUP6 SWAP1 MSTORE DUP2 MSTORE SWAP2 PUSH1 0xA0 DUP4 ADD SWAP1 PUSH8 0xFFFFFFFFFFFFFFFF DUP3 GT DUP5 DUP4 LT OR PUSH2 0x956 JUMPI MSTORE PUSH2 0x3BE SWAP3 SWAP2 PUSH2 0x950 SWAP2 PUSH2 0x19DD JUMP JUMPDEST CALLER PUSH2 0x1A68 JUMP JUMPDEST PUSH4 0x4E487B71 PUSH1 0xE0 SHL DUP7 MSTORE PUSH1 0x41 DUP8 MSTORE PUSH1 0x24 DUP7 REVERT JUMPDEST DUP2 MLOAD PUSH4 0x7A92F19 PUSH1 0xE5 SHL DUP2 MSTORE DUP6 SWAP1 REVERT JUMPDEST POP POP CALLVALUE PUSH2 0x2AD JUMPI DUP2 PUSH1 0x3 NOT CALLDATASIZE ADD SLT PUSH2 0x2AD JUMPI PUSH1 0x20 SWAP1 MLOAD PUSH32 0x0 DUP2 MSTORE RETURN JUMPDEST POP POP CALLVALUE PUSH2 0x2AD JUMPI DUP2 PUSH1 0x3 NOT CALLDATASIZE ADD SLT PUSH2 0x2AD JUMPI PUSH1 0x20 SWAP1 MLOAD PUSH32 0xA49807205CE4D355092EF5A8A18F56E8913CF4A201FBE287825B095693C21775 DUP2 MSTORE RETURN JUMPDEST POP POP CALLVALUE PUSH2 0x2AD JUMPI PUSH1 0x20 CALLDATASIZE PUSH1 0x3 NOT ADD SLT PUSH2 0x2AD JUMPI PUSH1 0x20 SWAP2 PUSH1 0xFF SWAP1 DUP3 SWAP1 PUSH1 0x1 PUSH1 0x1 PUSH1 0xA0 SHL SUB PUSH2 0xA1A PUSH2 0x17D9 JUMP JUMPDEST AND DUP2 MSTORE PUSH1 0x8 DUP6 MSTORE KECCAK256 SLOAD AND SWAP1 MLOAD SWAP1 ISZERO ISZERO DUP2 MSTORE RETURN JUMPDEST POP POP CALLVALUE PUSH2 0x2AD JUMPI DUP2 PUSH1 0x3 NOT CALLDATASIZE ADD SLT PUSH2 0x2AD JUMPI MLOAD PUSH32 0x0 PUSH1 0x1 PUSH1 0x1 PUSH1 0xA0 SHL SUB AND DUP2 MSTORE PUSH1 0x20 SWAP1 RETURN JUMPDEST POP POP CALLVALUE PUSH2 0x2AD JUMPI DUP2 PUSH1 0x3 NOT CALLDATASIZE ADD SLT PUSH2 0x2AD JUMPI MLOAD PUSH32 0x0 PUSH1 0x1 PUSH1 0x1 PUSH1 0xA0 SHL SUB AND DUP2 MSTORE PUSH1 0x20 SWAP1 RETURN JUMPDEST SWAP2 SWAP1 POP CALLVALUE PUSH2 0x36B JUMPI DUP3 PUSH1 0x3 NOT CALLDATASIZE ADD SLT PUSH2 0x36B JUMPI PUSH2 0xAD0 PUSH2 0x1982 JUMP JUMPDEST PUSH2 0xAD8 PUSH2 0x17EF JUMP JUMPDEST PUSH1 0xFF PUSH1 0x6 SLOAD PUSH1 0x10 SHR AND PUSH1 0x5 DUP2 LT ISZERO PUSH2 0x665 JUMPI PUSH1 0x2 SUB PUSH2 0x34B JUMPI DUP3 PUSH2 0x3BE PUSH2 0x2214 JUMP JUMPDEST SWAP2 SWAP1 POP CALLVALUE PUSH2 0x36B JUMPI DUP3 PUSH1 0x3 NOT CALLDATASIZE ADD SLT PUSH2 0x36B JUMPI PUSH2 0xB15 PUSH2 0x1982 JUMP JUMPDEST PUSH1 0xFF PUSH1 0x2 SLOAD PUSH1 0xA0 SHR AND PUSH1 0x6 DUP2 LT ISZERO PUSH2 0x665 JUMPI DUP3 DUP2 EQ ISZERO SWAP1 DUP2 PUSH2 0xC00 JUMPI JUMPDEST POP PUSH2 0x34B JUMPI CALLER DUP4 MSTORE PUSH1 0x7 PUSH1 0x20 MSTORE DUP1 DUP4 KECCAK256 SLOAD ISZERO PUSH2 0xBF3 JUMPI CALLER DUP4 MSTORE PUSH1 0x7 PUSH1 0x20 MSTORE DUP1 DUP4 KECCAK256 DUP1 SLOAD SWAP1 DUP5 SWAP1 SSTORE SWAP2 DUP3 PUSH32 0x0 PUSH1 0x1 PUSH1 0x1 PUSH1 0xA0 SHL SUB AND DUP1 PUSH2 0xBE2 JUMPI POP DUP5 DUP1 DUP1 DUP1 SWAP4 CALLER GAS CALL PUSH2 0xB9B PUSH2 0x1DFE JUMP JUMPDEST POP ISZERO PUSH2 0xBD4 JUMPI POP JUMPDEST MLOAD SWAP1 DUP2 MSTORE PUSH32 0xD7DEE2702D63AD89917B6A4DA9981C90C4D24F8C2BDFD64C604ECAE57D8D0651 PUSH1 0x20 CALLER SWAP3 LOG2 PUSH1 0x1 DUP1 SSTORE DUP1 RETURN JUMPDEST SWAP1 MLOAD PUSH4 0x12171D83 PUSH1 0xE3 SHL DUP2 MSTORE REVERT JUMPDEST PUSH2 0xBEE SWAP3 POP CALLER SWAP1 PUSH2 0x201E JUMP JUMPDEST PUSH2 0xBA3 JUMP JUMPDEST MLOAD PUSH4 0xF76AEF65 PUSH1 0xE0 SHL DUP2 MSTORE REVERT JUMPDEST PUSH1 0x5 SWAP2 POP EQ ISZERO CODESIZE PUSH2 0xB32 JUMP JUMPDEST POP POP CALLVALUE PUSH2 0x2AD JUMPI DUP2 PUSH1 0x3 NOT CALLDATASIZE ADD SLT PUSH2 0x2AD JUMPI PUSH2 0xC35 SWAP1 PUSH2 0xC2A PUSH2 0x283C JUMP JUMPDEST SWAP1 MLOAD SWAP2 DUP3 SWAP2 DUP3 PUSH2 0x1795 JUMP JUMPDEST SUB SWAP1 RETURN JUMPDEST DUP4 CALLVALUE PUSH2 0x73B JUMPI DUP1 PUSH1 0x3 NOT CALLDATASIZE ADD SLT PUSH2 0x73B JUMPI PUSH2 0xC52 PUSH2 0x1982 JUMP JUMPDEST PUSH2 0x3BE PUSH2 0x1BDA JUMP JUMPDEST POP POP CALLVALUE PUSH2 0x2AD JUMPI DUP2 PUSH1 0x3 NOT CALLDATASIZE ADD SLT PUSH2 0x2AD JUMPI MLOAD PUSH32 0x0 PUSH1 0x1 PUSH1 0x1 PUSH1 0xA0 SHL SUB AND DUP2 MSTORE PUSH1 0x20 SWAP1 RETURN JUMPDEST SWAP1 POP CALLVALUE PUSH2 0x36B JUMPI DUP3 PUSH1 0x3 NOT CALLDATASIZE ADD SLT PUSH2 0x36B JUMPI PUSH2 0xCB8 PUSH2 0x1982 JUMP JUMPDEST PUSH1 0xFF PUSH1 0x2 SLOAD PUSH1 0xA0 SHR AND PUSH1 0x6 DUP2 LT ISZERO PUSH2 0xDE2 JUMPI PUSH1 0x3 SUB PUSH2 0xDD4 JUMPI CALLER DUP4 MSTORE PUSH1 0x7 PUSH1 0x20 MSTORE DUP2 DUP4 KECCAK256 SLOAD ISZERO PUSH2 0xDC6 JUMPI CALLER DUP4 MSTORE PUSH1 0x8 PUSH1 0x20 MSTORE PUSH1 0xFF DUP3 DUP5 KECCAK256 SLOAD AND PUSH2 0xDB8 JUMPI POP CALLER DUP3 MSTORE PUSH1 0x7 PUSH1 0x20 MSTORE PUSH2 0xD38 PUSH2 0xD2F DUP3 DUP5 KECCAK256 SLOAD PUSH32 0x0 SWAP1 PUSH2 0x1DCB JUMP JUMPDEST PUSH1 0x3 SLOAD SWAP1 PUSH2 0x1DDE JUMP JUMPDEST CALLER DUP1 DUP5 MSTORE PUSH1 0x8 PUSH1 0x20 MSTORE DUP3 DUP5 KECCAK256 DUP1 SLOAD PUSH1 0xFF NOT AND PUSH1 0x1 OR SWAP1 SSTORE SWAP1 SWAP2 SWAP1 PUSH2 0xD87 SWAP1 DUP4 SWAP1 PUSH32 0x0 PUSH1 0x1 PUSH1 0x1 PUSH1 0xA0 SHL SUB AND PUSH2 0x201E JUMP JUMPDEST MLOAD SWAP1 DUP2 MSTORE PUSH32 0x896E034966EAAF1ADC54ACC0F257056FEBBD300C9E47182CF761982CF1F5E430 PUSH1 0x20 CALLER SWAP3 LOG2 PUSH1 0x1 DUP1 SSTORE DUP1 RETURN JUMPDEST SWAP1 MLOAD PUSH4 0xC8D9EAB PUSH1 0xE3 SHL DUP2 MSTORE REVERT JUMPDEST SWAP1 MLOAD PUSH4 0x1971FBF3 PUSH1 0xE2 SHL DUP2 MSTORE REVERT JUMPDEST SWAP1 MLOAD PUSH4 0x7A92F19 PUSH1 0xE5 SHL DUP2 MSTORE REVERT JUMPDEST PUSH4 0x4E487B71 PUSH1 0xE0 SHL DUP5 MSTORE PUSH1 0x21 DUP3 MSTORE PUSH1 0x24 DUP5 REVERT JUMPDEST DUP4 CALLVALUE PUSH2 0x73B JUMPI DUP1 PUSH1 0x3 NOT CALLDATASIZE ADD SLT PUSH2 0x73B JUMPI PUSH2 0xE0E PUSH2 0x17EF JUMP JUMPDEST PUSH2 0xFF00 NOT PUSH1 0x6 SLOAD AND PUSH1 0x6 SSTORE PUSH32 0xA45F47FDEA8A1EFDD9029A5691C7F759C32B7C698632B563573E155625D16933 DUP2 DUP1 LOG1 DUP1 RETURN JUMPDEST DUP4 DUP4 CALLVALUE PUSH2 0x2AD JUMPI DUP1 PUSH1 0x3 NOT CALLDATASIZE ADD SLT PUSH2 0x2AD JUMPI PUSH2 0xE5A PUSH2 0x17BE JUMP JUMPDEST SWAP1 CALLER PUSH1 0x1 PUSH1 0x1 PUSH1 0xA0 SHL SUB DUP4 AND SUB PUSH2 0xE77 JUMPI POP PUSH2 0x400 SWAP2 SWAP3 CALLDATALOAD PUSH2 0x190D JUMP JUMPDEST MLOAD PUSH4 0x334BD919 PUSH1 0xE1 SHL DUP2 MSTORE DUP4 SWAP1 REVERT JUMPDEST SWAP1 POP CALLVALUE PUSH2 0x36B JUMPI DUP3 PUSH1 0x3 NOT CALLDATASIZE ADD SLT PUSH2 0x36B JUMPI PUSH1 0x20 SWAP3 POP SLOAD SWAP1 MLOAD SWAP1 DUP2 MSTORE RETURN JUMPDEST POP POP CALLVALUE PUSH2 0x2AD JUMPI DUP2 PUSH1 0x3 NOT CALLDATASIZE ADD SLT PUSH2 0x2AD JUMPI PUSH1 0x20 SWAP1 MLOAD PUSH32 0x0 DUP2 MSTORE RETURN JUMPDEST POP POP CALLVALUE PUSH2 0x2AD JUMPI DUP2 PUSH1 0x3 NOT CALLDATASIZE ADD SLT PUSH2 0x2AD JUMPI MLOAD PUSH32 0x0 PUSH1 0x1 PUSH1 0x1 PUSH1 0xA0 SHL SUB AND DUP2 MSTORE PUSH1 0x20 SWAP1 RETURN JUMPDEST SWAP2 SWAP1 POP CALLVALUE PUSH2 0x36B JUMPI DUP1 PUSH1 0x3 NOT CALLDATASIZE ADD SLT PUSH2 0x36B JUMPI PUSH2 0x400 SWAP2 CALLDATALOAD PUSH2 0xF48 PUSH1 0x1 PUSH2 0x3EA PUSH2 0x17BE JUMP JUMPDEST PUSH2 0x188F JUMP JUMPDEST DUP4 DUP4 CALLVALUE PUSH2 0x2AD JUMPI DUP2 PUSH1 0x3 NOT CALLDATASIZE ADD SLT PUSH2 0x2AD JUMPI PUSH1 0xFF PUSH1 0x6 SLOAD PUSH1 0x10 SHR AND SWAP1 MLOAD SWAP2 PUSH1 0x5 DUP3 LT ISZERO PUSH2 0xF7C JUMPI PUSH1 0x20 DUP4 DUP4 DUP2 MSTORE RETURN JUMPDEST PUSH4 0x4E487B71 PUSH1 0xE0 SHL DUP2 MSTORE PUSH1 0x21 DUP5 MSTORE PUSH1 0x24 SWAP1 REVERT JUMPDEST SWAP1 POP CALLVALUE PUSH2 0x36B JUMPI PUSH1 0x20 CALLDATASIZE PUSH1 0x3 NOT ADD SLT PUSH2 0x36B JUMPI DUP2 PUSH1 0x20 SWAP4 PUSH1 0x1 SWAP3 CALLDATALOAD DUP2 MSTORE DUP1 DUP6 MSTORE KECCAK256 ADD SLOAD SWAP1 MLOAD SWAP1 DUP2 MSTORE RETURN JUMPDEST DUP3 DUP5 CALLVALUE PUSH2 0x73B JUMPI DUP2 PUSH1 0x3 NOT CALLDATASIZE ADD SLT PUSH2 0x73B JUMPI DUP3 CALLDATALOAD SWAP1 PUSH1 0x24 CALLDATALOAD SWAP4 ADDRESS CALLER SUB PUSH2 0x15C9 JUMPI DUP4 MLOAD PUSH4 0x95EA7B3 PUSH1 0xE0 SHL DUP1 DUP3 MSTORE PUSH1 0x1 PUSH1 0x1 PUSH1 0xA0 SHL SUB PUSH32 0x0 DUP2 AND DUP5 DUP5 ADD DUP2 DUP2 MSTORE PUSH1 0x20 DUP1 DUP3 ADD DUP10 SWAP1 MSTORE SWAP10 SWAP3 SWAP8 PUSH32 0x0 DUP1 DUP11 AND SWAP8 SWAP1 SWAP7 SWAP1 SWAP5 SWAP4 SWAP3 DUP13 SWAP1 DUP3 SWAP1 DUP2 SWAP1 PUSH1 0x40 ADD SUB DUP2 DUP13 DUP13 GAS CALL DUP1 ISZERO PUSH2 0x131E JUMPI PUSH2 0x15AC JUMPI JUMPDEST POP DUP10 MLOAD PUSH4 0xC45A0155 PUSH1 0xE0 SHL DUP2 MSTORE DUP12 DUP2 DUP7 DUP2 DUP7 GAS STATICCALL SWAP1 DUP2 ISZERO PUSH2 0x131E JUMPI SWAP1 DUP11 SWAP2 DUP11 SWAP2 PUSH2 0x158F JUMPI JUMPDEST POP AND SWAP5 DUP11 DUP13 DUP11 PUSH32 0x0 SWAP4 DUP14 DUP6 AND SWAP4 DUP5 ISZERO PUSH1 0x0 EQ PUSH2 0x1328 JUMPI SWAP5 POP POP POP POP POP MLOAD SWAP7 PUSH4 0x15AB88C9 PUSH1 0xE3 SHL DUP9 MSTORE DUP12 DUP9 DUP7 DUP2 DUP7 GAS STATICCALL SWAP8 DUP9 ISZERO PUSH2 0x131E JUMPI DUP10 SWAP9 PUSH2 0x12FF JUMPI JUMPDEST POP DUP11 MLOAD PUSH4 0xE6A43905 PUSH1 0xE0 SHL DUP1 DUP3 MSTORE PUSH1 0x1 PUSH1 0x1 PUSH1 0xA0 SHL SUB DUP1 DUP11 AND DUP9 DUP5 ADD SWAP1 DUP2 MSTORE SWAP1 DUP12 AND PUSH1 0x20 DUP3 ADD MSTORE SWAP1 SWAP6 SWAP2 SWAP1 DUP15 SWAP1 DUP3 SWAP1 DUP2 SWAP1 PUSH1 0x40 ADD SUB DUP2 DUP12 GAS STATICCALL SWAP1 DUP2 ISZERO PUSH2 0x12D8 JUMPI DUP11 DUP16 SWAP2 DUP16 SWAP4 DUP16 DUP16 SWAP3 SWAP1 DUP15 SWAP3 DUP14 SWAP3 DUP6 SWAP2 PUSH2 0x12E2 JUMPI JUMPDEST POP AND ISZERO PUSH2 0x126B JUMPI JUMPDEST POP POP POP POP POP POP PUSH2 0x12C TIMESTAMP ADD SWAP4 DUP5 TIMESTAMP GT PUSH2 0x1258 JUMPI SWAP2 PUSH1 0xC4 SWAP2 PUSH1 0x60 SWAP5 SWAP4 DUP15 MLOAD SWAP7 DUP8 SWAP6 DUP7 SWAP5 PUSH4 0xF305D719 PUSH1 0xE0 SHL DUP7 MSTORE DUP12 DUP7 ADD MSTORE PUSH1 0x24 DUP6 ADD MSTORE DUP14 PUSH1 0x44 DUP6 ADD MSTORE DUP14 PUSH1 0x64 DUP6 ADD MSTORE ADDRESS PUSH1 0x84 DUP6 ADD MSTORE PUSH1 0xA4 DUP5 ADD MSTORE GAS CALL DUP1 ISZERO PUSH2 0x124E JUMPI SWAP1 DUP11 SWAP6 SWAP5 SWAP4 SWAP3 SWAP2 PUSH2 0x1220 JUMPI JUMPDEST POP DUP9 MLOAD SWAP1 DUP2 MSTORE PUSH1 0x1 PUSH1 0x1 PUSH1 0xA0 SHL SUB SWAP4 DUP5 AND SWAP2 DUP2 ADD SWAP2 DUP3 MSTORE SWAP5 SWAP1 SWAP3 AND PUSH1 0x20 DUP4 ADD MSTORE DUP4 SWAP2 DUP3 SWAP1 DUP2 SWAP1 PUSH1 0x40 ADD SUB SWAP2 GAS STATICCALL SWAP2 DUP3 ISZERO PUSH2 0x1215 JUMPI SWAP2 PUSH2 0x11E8 JUMPI JUMPDEST POP SWAP2 JUMPDEST MLOAD SWAP2 AND DUP2 MSTORE RETURN JUMPDEST PUSH2 0x1208 SWAP2 POP DUP5 RETURNDATASIZE DUP7 GT PUSH2 0x120E JUMPI JUMPDEST PUSH2 0x1200 DUP2 DUP4 PUSH2 0x19A5 JUMP JUMPDEST DUP2 ADD SWAP1 PUSH2 0x206C JUMP JUMPDEST DUP5 PUSH2 0x11DE JUMP JUMPDEST POP RETURNDATASIZE PUSH2 0x11F6 JUMP JUMPDEST DUP5 MLOAD SWAP1 RETURNDATASIZE SWAP1 DUP3 RETURNDATACOPY RETURNDATASIZE SWAP1 REVERT JUMPDEST PUSH2 0x1240 SWAP1 PUSH1 0x60 RETURNDATASIZE DUP2 GT PUSH2 0x1247 JUMPI JUMPDEST PUSH2 0x1238 DUP2 DUP4 PUSH2 0x19A5 JUMP JUMPDEST DUP2 ADD SWAP1 PUSH2 0x2774 JUMP JUMPDEST POP POP PUSH2 0x11A4 JUMP JUMPDEST POP RETURNDATASIZE PUSH2 0x122E JUMP JUMPDEST DUP10 MLOAD RETURNDATASIZE DUP10 DUP3 RETURNDATACOPY RETURNDATASIZE SWAP1 REVERT JUMPDEST PUSH4 0x4E487B71 PUSH1 0xE0 SHL DUP12 MSTORE PUSH1 0x11 DUP8 MSTORE PUSH1 0x24 DUP12 REVERT JUMPDEST SWAP5 MLOAD PUSH4 0x64E329CB PUSH1 0xE1 SHL DUP2 MSTORE PUSH1 0x1 PUSH1 0x1 PUSH1 0xA0 SHL SUB SWAP2 DUP3 AND SWAP6 DUP2 ADD SWAP6 DUP7 MSTORE SWAP3 AND PUSH1 0x20 DUP6 ADD MSTORE SWAP1 SWAP3 DUP4 SWAP2 SWAP1 DUP3 SWAP1 DUP2 SWAP1 PUSH1 0x40 ADD SUB SWAP2 DUP13 GAS CALL DUP1 ISZERO PUSH2 0x12D8 JUMPI SWAP1 DUP15 SWAP2 PUSH2 0x12BA JUMPI JUMPDEST POP DUP13 SWAP1 DUP11 DUP13 DUP12 DUP11 PUSH2 0x1144 JUMP JUMPDEST DUP2 PUSH2 0x12D0 SWAP3 SWAP1 RETURNDATASIZE LT PUSH2 0x120E JUMPI PUSH2 0x1200 DUP2 DUP4 PUSH2 0x19A5 JUMP JUMPDEST POP DUP13 DUP15 PUSH2 0x12AE JUMP JUMPDEST DUP14 MLOAD RETURNDATASIZE DUP14 DUP3 RETURNDATACOPY RETURNDATASIZE SWAP1 REVERT JUMPDEST PUSH2 0x12F9 SWAP2 POP DUP8 RETURNDATASIZE DUP10 GT PUSH2 0x120E JUMPI PUSH2 0x1200 DUP2 DUP4 PUSH2 0x19A5 JUMP JUMPDEST CODESIZE PUSH2 0x113C JUMP JUMPDEST PUSH2 0x1317 SWAP2 SWAP9 POP DUP13 DUP14 RETURNDATASIZE LT PUSH2 0x120E JUMPI PUSH2 0x1200 DUP2 DUP4 PUSH2 0x19A5 JUMP JUMPDEST SWAP7 DUP13 PUSH2 0x10E8 JUMP JUMPDEST DUP12 MLOAD RETURNDATASIZE DUP12 DUP3 RETURNDATACOPY RETURNDATASIZE SWAP1 REVERT JUMPDEST MLOAD SWAP1 DUP2 MSTORE PUSH1 0x1 PUSH1 0x1 PUSH1 0xA0 SHL SUB DUP8 AND DUP2 DUP11 ADD SWAP1 DUP2 MSTORE PUSH1 0x20 DUP2 ADD DUP10 SWAP1 MSTORE SWAP5 SWAP12 SWAP6 SWAP8 SWAP4 SWAP7 SWAP5 SWAP1 SWAP3 SWAP2 DUP4 SWAP2 DUP3 SWAP1 DUP2 SWAP1 PUSH1 0x40 ADD SUB SWAP2 DUP10 GAS CALL DUP1 ISZERO PUSH2 0x12D8 JUMPI DUP15 DUP12 DUP16 DUP13 SWAP10 SWAP9 SWAP8 SWAP7 SWAP6 SWAP5 PUSH2 0x13A8 SWAP5 PUSH2 0x1562 JUMPI JUMPDEST POP MLOAD PUSH4 0xE6A43905 PUSH1 0xE0 SHL DUP1 DUP3 MSTORE PUSH1 0x1 PUSH1 0x1 PUSH1 0xA0 SHL SUB SWAP11 DUP12 AND DUP13 DUP4 ADD SWAP1 DUP2 MSTORE SWAP3 SWAP1 SWAP11 AND PUSH1 0x20 DUP4 ADD MSTORE SWAP3 DUP4 SWAP2 DUP3 SWAP2 PUSH1 0x40 SWAP1 SWAP2 ADD SWAP1 JUMP JUMPDEST SUB DUP2 DUP13 GAS STATICCALL SWAP1 DUP2 ISZERO PUSH2 0x153B JUMPI DUP16 SWAP1 DUP16 SWAP3 DUP16 DUP16 SWAP2 DUP16 SWAP4 SWAP2 DUP16 SWAP3 SWAP2 DUP15 SWAP3 DUP6 SWAP2 PUSH2 0x1545 JUMPI JUMPDEST POP AND ISZERO PUSH2 0x14CE JUMPI JUMPDEST POP POP POP POP POP POP PUSH2 0x12C TIMESTAMP ADD SWAP1 DUP2 TIMESTAMP GT PUSH2 0x14BB JUMPI PUSH2 0x104 SWAP3 PUSH1 0x60 SWAP6 SWAP5 SWAP3 DUP16 SWAP3 DUP15 SWAP4 MLOAD SWAP9 DUP10 SWAP8 DUP9 SWAP7 PUSH3 0xE8E337 PUSH1 0xE8 SHL DUP9 MSTORE DUP14 DUP9 ADD MSTORE PUSH1 0x24 DUP8 ADD MSTORE PUSH1 0x44 DUP7 ADD MSTORE PUSH1 0x64 DUP6 ADD MSTORE DUP3 PUSH1 0x84 DUP6 ADD MSTORE DUP3 PUSH1 0xA4 DUP6 ADD MSTORE ADDRESS PUSH1 0xC4 DUP6 ADD MSTORE PUSH1 0xE4 DUP5 ADD MSTORE GAS CALL DUP1 ISZERO PUSH2 0x124E JUMPI SWAP1 DUP11 SWAP6 SWAP5 SWAP4 SWAP3 SWAP2 PUSH2 0x149D JUMPI JUMPDEST POP DUP9 MLOAD SWAP1 DUP2 MSTORE PUSH1 0x1 PUSH1 0x1 PUSH1 0xA0 SHL SUB SWAP4 DUP5 AND SWAP2 DUP2 ADD SWAP2 DUP3 MSTORE SWAP5 SWAP1 SWAP3 AND PUSH1 0x20 DUP4 ADD MSTORE DUP4 SWAP2 DUP3 SWAP1 DUP2 SWAP1 PUSH1 0x40 ADD SUB SWAP2 GAS STATICCALL SWAP2 DUP3 ISZERO PUSH2 0x1215 JUMPI SWAP2 PUSH2 0x1480 JUMPI JUMPDEST POP SWAP2 PUSH2 0x11E1 JUMP JUMPDEST PUSH2 0x1497 SWAP2 POP DUP5 RETURNDATASIZE DUP7 GT PUSH2 0x120E JUMPI PUSH2 0x1200 DUP2 DUP4 PUSH2 0x19A5 JUMP JUMPDEST DUP5 PUSH2 0x1479 JUMP JUMPDEST PUSH2 0x14B4 SWAP1 PUSH1 0x60 RETURNDATASIZE DUP2 GT PUSH2 0x1247 JUMPI PUSH2 0x1238 DUP2 DUP4 PUSH2 0x19A5 JUMP JUMPDEST POP POP PUSH2 0x143F JUMP JUMPDEST PUSH4 0x4E487B71 PUSH1 0xE0 SHL DUP13 MSTORE PUSH1 0x11 DUP9 MSTORE PUSH1 0x24 DUP13 REVERT JUMPDEST SWAP5 MLOAD PUSH4 0x64E329CB PUSH1 0xE1 SHL DUP2 MSTORE PUSH1 0x1 PUSH1 0x1 PUSH1 0xA0 SHL SUB SWAP2 DUP3 AND SWAP6 DUP2 ADD SWAP6 DUP7 MSTORE SWAP3 AND PUSH1 0x20 DUP6 ADD MSTORE SWAP1 SWAP3 DUP4 SWAP2 SWAP1 DUP3 SWAP1 DUP2 SWAP1 PUSH1 0x40 ADD SUB SWAP2 DUP14 GAS CALL DUP1 ISZERO PUSH2 0x153B JUMPI SWAP1 DUP16 SWAP2 PUSH2 0x151D JUMPI JUMPDEST POP DUP14 SWAP1 DUP12 DUP14 DUP13 DUP12 PUSH2 0x13D2 JUMP JUMPDEST DUP2 PUSH2 0x1533 SWAP3 SWAP1 RETURNDATASIZE LT PUSH2 0x120E JUMPI PUSH2 0x1200 DUP2 DUP4 PUSH2 0x19A5 JUMP JUMPDEST POP DUP14 DUP16 PUSH2 0x1511 JUMP JUMPDEST DUP15 MLOAD RETURNDATASIZE DUP15 DUP3 RETURNDATACOPY RETURNDATASIZE SWAP1 REVERT JUMPDEST PUSH2 0x155C SWAP2 POP DUP8 RETURNDATASIZE DUP10 GT PUSH2 0x120E JUMPI PUSH2 0x1200 DUP2 DUP4 PUSH2 0x19A5 JUMP JUMPDEST CODESIZE PUSH2 0x13CA JUMP JUMPDEST PUSH2 0x1581 SWAP1 DUP5 RETURNDATASIZE DUP7 GT PUSH2 0x1588 JUMPI JUMPDEST PUSH2 0x1579 DUP2 DUP4 PUSH2 0x19A5 JUMP JUMPDEST DUP2 ADD SWAP1 PUSH2 0x21FC JUMP JUMPDEST POP CODESIZE PUSH2 0x1374 JUMP JUMPDEST POP RETURNDATASIZE PUSH2 0x156F JUMP JUMPDEST PUSH2 0x15A6 SWAP2 POP DUP14 DUP1 RETURNDATASIZE LT PUSH2 0x120E JUMPI PUSH2 0x1200 DUP2 DUP4 PUSH2 0x19A5 JUMP JUMPDEST DUP14 PUSH2 0x108C JUMP JUMPDEST PUSH2 0x15C2 SWAP1 DUP13 DUP14 RETURNDATASIZE LT PUSH2 0x1588 JUMPI PUSH2 0x1579 DUP2 DUP4 PUSH2 0x19A5 JUMP JUMPDEST POP DUP12 PUSH2 0x1067 JUMP JUMPDEST DUP4 MLOAD PUSH4 0xEA8E4EB5 PUSH1 0xE0 SHL DUP2 MSTORE REVERT JUMPDEST POP POP CALLVALUE PUSH2 0x2AD JUMPI DUP2 PUSH1 0x3 NOT CALLDATASIZE ADD SLT PUSH2 0x2AD JUMPI PUSH1 0x20 SWAP1 MLOAD PUSH32 0x0 DUP2 MSTORE RETURN JUMPDEST POP POP CALLVALUE PUSH2 0x2AD JUMPI DUP2 PUSH1 0x3 NOT CALLDATASIZE ADD SLT PUSH2 0x2AD JUMPI PUSH2 0xC35 SWAP1 PUSH1 0xFF PUSH1 0x2 SLOAD PUSH1 0xA0 SHR AND SWAP1 MLOAD SWAP2 DUP3 SWAP2 DUP3 PUSH2 0x1795 JUMP JUMPDEST POP POP CALLVALUE PUSH2 0x2AD JUMPI DUP2 PUSH1 0x3 NOT CALLDATASIZE ADD SLT PUSH2 0x2AD JUMPI PUSH1 0x20 SWAP1 MLOAD PUSH32 0x0 DUP2 MSTORE RETURN JUMPDEST POP POP CALLVALUE PUSH2 0x2AD JUMPI DUP2 PUSH1 0x3 NOT CALLDATASIZE ADD SLT PUSH2 0x2AD JUMPI PUSH1 0x20 SWAP1 MLOAD PUSH2 0xFFFF PUSH32 0x0 AND DUP2 MSTORE RETURN JUMPDEST POP POP CALLVALUE PUSH2 0x2AD JUMPI DUP2 PUSH1 0x3 NOT CALLDATASIZE ADD SLT PUSH2 0x2AD JUMPI MLOAD PUSH32 0x0 PUSH1 0x1 PUSH1 0x1 PUSH1 0xA0 SHL SUB AND DUP2 MSTORE PUSH1 0x20 SWAP1 RETURN JUMPDEST SWAP1 POP CALLVALUE PUSH2 0x36B JUMPI PUSH1 0x20 CALLDATASIZE PUSH1 0x3 NOT ADD SLT PUSH2 0x36B JUMPI CALLDATALOAD SWAP1 PUSH4 0xFFFFFFFF PUSH1 0xE0 SHL DUP3 AND DUP1 SWAP3 SUB PUSH2 0x36B JUMPI PUSH1 0x20 SWAP3 POP PUSH4 0x7965DB0B PUSH1 0xE0 SHL DUP3 EQ SWAP2 DUP3 ISZERO PUSH2 0x173F JUMPI JUMPDEST POP MLOAD SWAP1 ISZERO ISZERO DUP2 MSTORE RETURN JUMPDEST PUSH4 0x1FFC9A7 PUSH1 0xE0 SHL EQ SWAP2 POP CODESIZE PUSH2 0x1736 JUMP JUMPDEST SWAP2 SWAP1 POP CALLVALUE PUSH2 0x36B JUMPI DUP3 PUSH1 0x3 NOT CALLDATASIZE ADD SLT PUSH2 0x36B JUMPI PUSH2 0x176B PUSH2 0x1982 JUMP JUMPDEST PUSH2 0x1773 PUSH2 0x17EF JUMP JUMPDEST PUSH1 0xFF PUSH1 0x6 SLOAD PUSH1 0x10 SHR AND PUSH1 0x5 DUP2 LT ISZERO PUSH2 0x665 JUMPI PUSH1 0x3 SUB PUSH2 0x34B JUMPI DUP3 PUSH2 0x3BE PUSH2 0x24E1 JUMP JUMPDEST SWAP2 SWAP1 PUSH1 0x20 DUP4 ADD SWAP3 PUSH1 0x6 DUP3 LT ISZERO PUSH2 0x17A8 JUMPI MSTORE JUMP JUMPDEST PUSH4 0x4E487B71 PUSH1 0xE0 SHL PUSH1 0x0 MSTORE PUSH1 0x21 PUSH1 0x4 MSTORE PUSH1 0x24 PUSH1 0x0 REVERT JUMPDEST PUSH1 0x24 CALLDATALOAD SWAP1 PUSH1 0x1 PUSH1 0x1 PUSH1 0xA0 SHL SUB DUP3 AND DUP3 SUB PUSH2 0x17D4 JUMPI JUMP JUMPDEST PUSH1 0x0 DUP1 REVERT JUMPDEST PUSH1 0x4 CALLDATALOAD SWAP1 PUSH1 0x1 PUSH1 0x1 PUSH1 0xA0 SHL SUB DUP3 AND DUP3 SUB PUSH2 0x17D4 JUMPI JUMP JUMPDEST CALLER PUSH1 0x0 SWAP1 DUP2 MSTORE PUSH32 0x7D7FFB7A348E1C6A02869081A26547B49160DD3DF72D1D75A570EB9B698292EC PUSH1 0x20 MSTORE PUSH1 0x40 SWAP1 KECCAK256 SLOAD PUSH32 0xA49807205CE4D355092EF5A8A18F56E8913CF4A201FBE287825B095693C21775 SWAP1 PUSH1 0xFF AND ISZERO PUSH2 0x184B JUMPI POP JUMP JUMPDEST PUSH1 0x44 SWAP1 PUSH1 0x40 MLOAD SWAP1 PUSH4 0xE2517D3F PUSH1 0xE0 SHL DUP3 MSTORE CALLER PUSH1 0x4 DUP4 ADD MSTORE PUSH1 0x24 DUP3 ADD MSTORE REVERT JUMPDEST DUP1 PUSH1 0x0 MSTORE PUSH1 0x0 PUSH1 0x20 MSTORE PUSH1 0x40 PUSH1 0x0 KECCAK256 CALLER PUSH1 0x0 MSTORE PUSH1 0x20 MSTORE PUSH1 0xFF PUSH1 0x40 PUSH1 0x0 KECCAK256 SLOAD AND ISZERO PUSH2 0x184B JUMPI POP JUMP JUMPDEST SWAP1 PUSH1 0x0 SWAP2 DUP1 DUP4 MSTORE DUP3 PUSH1 0x20 MSTORE PUSH1 0x40 DUP4 KECCAK256 SWAP2 PUSH1 0x1 DUP1 PUSH1 0xA0 SHL SUB AND SWAP2 DUP3 DUP5 MSTORE PUSH1 0x20 MSTORE PUSH1 0xFF PUSH1 0x40 DUP5 KECCAK256 SLOAD AND ISZERO PUSH1 0x0 EQ PUSH2 0x1908 JUMPI DUP1 DUP4 MSTORE DUP3 PUSH1 0x20 MSTORE PUSH1 0x40 DUP4 KECCAK256 DUP3 DUP5 MSTORE PUSH1 0x20 MSTORE PUSH1 0x40 DUP4 KECCAK256 PUSH1 0x1 PUSH1 0xFF NOT DUP3 SLOAD AND OR SWAP1 SSTORE PUSH32 0x2F8788117E7EFF1D82E926EC794901D17C78024A50270940304540A733656F0D CALLER SWAP4 DUP1 LOG4 PUSH1 0x1 SWAP1 JUMP JUMPDEST POP POP SWAP1 JUMP JUMPDEST SWAP1 PUSH1 0x0 SWAP2 DUP1 DUP4 MSTORE DUP3 PUSH1 0x20 MSTORE PUSH1 0x40 DUP4 KECCAK256 SWAP2 PUSH1 0x1 DUP1 PUSH1 0xA0 SHL SUB AND SWAP2 DUP3 DUP5 MSTORE PUSH1 0x20 MSTORE PUSH1 0xFF PUSH1 0x40 DUP5 KECCAK256 SLOAD AND PUSH1 0x0 EQ PUSH2 0x1908 JUMPI DUP1 DUP4 MSTORE DUP3 PUSH1 0x20 MSTORE PUSH1 0x40 DUP4 KECCAK256 DUP3 DUP5 MSTORE PUSH1 0x20 MSTORE PUSH1 0x40 DUP4 KECCAK256 PUSH1 0xFF NOT DUP2 SLOAD AND SWAP1 SSTORE PUSH32 0xF6391F5C32D9C69D2A47EA670B442974B53935D1EDC7FD64EB21E047A839171B CALLER SWAP4 DUP1 LOG4 PUSH1 0x1 SWAP1 JUMP JUMPDEST PUSH1 0x2 PUSH1 0x1 SLOAD EQ PUSH2 0x1993 JUMPI PUSH1 0x2 PUSH1 0x1 SSTORE JUMP JUMPDEST PUSH1 0x40 MLOAD PUSH4 0x3EE5AEB5 PUSH1 0xE0 SHL DUP2 MSTORE PUSH1 0x4 SWAP1 REVERT JUMPDEST SWAP1 PUSH1 0x1F DUP1 NOT SWAP2 ADD AND DUP2 ADD SWAP1 DUP2 LT PUSH8 0xFFFFFFFFFFFFFFFF DUP3 GT OR PUSH2 0x19C7 JUMPI PUSH1 0x40 MSTORE JUMP JUMPDEST PUSH4 0x4E487B71 PUSH1 0xE0 SHL PUSH1 0x0 MSTORE PUSH1 0x41 PUSH1 0x4 MSTORE PUSH1 0x24 PUSH1 0x0 REVERT JUMPDEST SWAP1 PUSH1 0x0 PUSH1 0x20 SWAP2 DUP3 DUP2 MLOAD SWAP2 ADD DUP3 DUP6 GAS CALL ISZERO PUSH2 0x1A39 JUMPI PUSH1 0x0 MLOAD RETURNDATASIZE PUSH2 0x1A30 JUMPI POP PUSH1 0x1 PUSH1 0x1 PUSH1 0xA0 SHL SUB DUP2 AND EXTCODESIZE ISZERO JUMPDEST PUSH2 0x1A0E JUMPI POP JUMP JUMPDEST PUSH1 0x40 MLOAD PUSH4 0x5274AFE7 PUSH1 0xE0 SHL DUP2 MSTORE PUSH1 0x1 PUSH1 0x1 PUSH1 0xA0 SHL SUB SWAP1 SWAP2 AND PUSH1 0x4 DUP3 ADD MSTORE PUSH1 0x24 SWAP1 REVERT JUMPDEST PUSH1 0x1 EQ ISZERO PUSH2 0x1A07 JUMP JUMPDEST PUSH1 0x40 MLOAD RETURNDATASIZE PUSH1 0x0 DUP3 RETURNDATACOPY RETURNDATASIZE SWAP1 REVERT JUMPDEST SWAP2 SWAP1 DUP3 ADD DUP1 SWAP3 GT PUSH2 0x1A52 JUMPI JUMP JUMPDEST PUSH4 0x4E487B71 PUSH1 0xE0 SHL PUSH1 0x0 MSTORE PUSH1 0x11 PUSH1 0x4 MSTORE PUSH1 0x24 PUSH1 0x0 REVERT JUMPDEST SWAP2 SWAP1 SWAP2 PUSH2 0x1A73 PUSH2 0x278F JUMP JUMPDEST PUSH1 0xFF PUSH1 0x2 SLOAD PUSH1 0xA0 SHR AND PUSH1 0x6 DUP2 LT ISZERO PUSH2 0x17A8 JUMPI PUSH1 0x1 SUB PUSH2 0x1BC8 JUMPI PUSH1 0xFF PUSH1 0x6 SLOAD PUSH1 0x8 SHR AND PUSH2 0x1BB6 JUMPI PUSH32 0x0 DUP4 LT PUSH2 0x1BA4 JUMPI PUSH1 0x1 DUP1 PUSH1 0xA0 SHL SUB AND PUSH1 0x0 SWAP3 DUP2 DUP5 MSTORE PUSH1 0x7 PUSH1 0x20 MSTORE PUSH1 0x40 SWAP1 PUSH2 0x1AE3 DUP2 DUP4 DUP8 KECCAK256 SLOAD PUSH2 0x1A45 JUMP JUMPDEST PUSH32 0x0 DUP2 GT PUSH2 0x1B93 JUMPI DUP4 DUP7 MSTORE PUSH1 0x7 PUSH1 0x20 MSTORE DUP3 DUP7 KECCAK256 SLOAD ISZERO PUSH2 0x1B68 JUMPI JUMPDEST DUP3 DUP7 DUP6 PUSH32 0xFA35A310D7113DDDCE1C275DA946348E9AAEBF9050B00B372033C4D84B0BD6EB SWAP7 SWAP8 SWAP9 MSTORE PUSH1 0x7 PUSH1 0x20 MSTORE KECCAK256 SSTORE PUSH2 0x1B57 DUP2 PUSH1 0x3 SLOAD PUSH2 0x1A45 JUMP JUMPDEST DUP1 PUSH1 0x3 SSTORE DUP3 MLOAD SWAP2 DUP3 MSTORE PUSH1 0x20 DUP3 ADD MSTORE LOG2 JUMP JUMPDEST PUSH1 0x4 SLOAD PUSH1 0x0 NOT DUP2 EQ PUSH2 0x1B7F JUMPI PUSH1 0x1 ADD PUSH1 0x4 SSTORE PUSH2 0x1B1C JUMP JUMPDEST PUSH4 0x4E487B71 PUSH1 0xE0 SHL DUP8 MSTORE PUSH1 0x11 PUSH1 0x4 MSTORE PUSH1 0x24 DUP8 REVERT JUMPDEST DUP3 MLOAD PUSH4 0x5E508CD3 PUSH1 0xE1 SHL DUP2 MSTORE PUSH1 0x4 SWAP1 REVERT JUMPDEST PUSH1 0x40 MLOAD PUSH4 0x6C7591B5 PUSH1 0xE1 SHL DUP2 MSTORE PUSH1 0x4 SWAP1 REVERT JUMPDEST PUSH1 0x40 MLOAD PUSH4 0xAB35696F PUSH1 0xE0 SHL DUP2 MSTORE PUSH1 0x4 SWAP1 REVERT JUMPDEST PUSH1 0x40 MLOAD PUSH4 0x7A92F19 PUSH1 0xE5 SHL DUP2 MSTORE PUSH1 0x4 SWAP1 REVERT JUMPDEST PUSH2 0x1BE2 PUSH2 0x278F JUMP JUMPDEST PUSH1 0x2 SLOAD PUSH1 0xFF DUP1 DUP3 PUSH1 0xA0 SHR AND PUSH1 0x6 DUP2 LT ISZERO PUSH2 0x17A8 JUMPI PUSH1 0x2 SUB PUSH2 0x1BC8 JUMPI PUSH1 0x6 SLOAD DUP2 DUP2 AND PUSH2 0x1CFB JUMPI PUSH1 0x3 SLOAD PUSH32 0x0 GT PUSH2 0x1CC2 JUMPI DUP2 SWAP3 POP PUSH1 0x10 SHR AND PUSH1 0x5 DUP2 LT ISZERO PUSH2 0x17A8 JUMPI ISZERO PUSH2 0x1CB5 JUMPI JUMPDEST DUP1 PUSH1 0x6 SLOAD PUSH1 0x10 SHR AND PUSH1 0x5 DUP2 LT ISZERO PUSH2 0x17A8 JUMPI PUSH1 0x1 EQ PUSH2 0x1CA8 JUMPI JUMPDEST DUP1 PUSH1 0x6 SLOAD PUSH1 0x10 SHR AND PUSH1 0x5 DUP2 LT ISZERO PUSH2 0x17A8 JUMPI PUSH1 0x2 EQ PUSH2 0x1C9B JUMPI JUMPDEST PUSH1 0x6 SLOAD PUSH1 0x10 SHR AND PUSH1 0x5 DUP2 LT ISZERO PUSH2 0x17A8 JUMPI PUSH1 0x3 EQ PUSH2 0x1C91 JUMPI JUMP JUMPDEST PUSH2 0x1C99 PUSH2 0x24E1 JUMP JUMPDEST JUMP JUMPDEST PUSH2 0x1CA3 PUSH2 0x2214 JUMP JUMPDEST PUSH2 0x1C78 JUMP JUMPDEST PUSH2 0x1CB0 PUSH2 0x208B JUMP JUMPDEST PUSH2 0x1C5F JUMP JUMPDEST PUSH2 0x1CBD PUSH2 0x1E87 JUMP JUMPDEST PUSH2 0x1C46 JUMP JUMPDEST POP POP PUSH1 0xFF PUSH1 0xA0 SHL NOT AND PUSH1 0x1 PUSH1 0xA2 SHL OR PUSH1 0x2 SSTORE PUSH32 0xE48846A3DCA191C762AB6AAA1E929CCAF55E31A875FB78AD1B93E15EF4830ACA PUSH1 0x0 DUP1 LOG1 JUMP JUMPDEST POP POP POP JUMP JUMPDEST PUSH1 0x2 PUSH1 0xFF DUP2 SLOAD PUSH1 0xA0 SHR AND PUSH1 0x6 DUP2 LT ISZERO PUSH2 0x17A8 JUMPI DUP2 SUB PUSH2 0x1D9A JUMPI JUMPDEST PUSH1 0x3 SLOAD PUSH32 0x0 GT PUSH2 0x1D62 JUMPI POP PUSH1 0xFF PUSH1 0x6 SLOAD PUSH1 0x10 SHR AND PUSH1 0x5 DUP2 LT ISZERO PUSH2 0x17A8 JUMPI PUSH2 0x1BC8 JUMPI PUSH2 0x1C99 PUSH2 0x1E87 JUMP JUMPDEST DUP1 SLOAD PUSH1 0xFF PUSH1 0xA0 SHL NOT AND PUSH1 0x1 PUSH1 0xA2 SHL OR SWAP1 SSTORE PUSH32 0xE48846A3DCA191C762AB6AAA1E929CCAF55E31A875FB78AD1B93E15EF4830ACA PUSH1 0x0 DUP1 LOG1 JUMP JUMPDEST PUSH2 0x1DA2 PUSH2 0x278F JUMP JUMPDEST PUSH1 0xFF DUP2 SLOAD PUSH1 0xA0 SHR AND PUSH1 0x6 DUP2 LT ISZERO PUSH2 0x17A8 JUMPI DUP2 EQ PUSH2 0x1D1A JUMPI PUSH1 0x40 MLOAD PUSH4 0x7A92F19 PUSH1 0xE5 SHL DUP2 MSTORE PUSH1 0x4 SWAP1 REVERT JUMPDEST DUP2 DUP2 MUL SWAP3 SWAP2 DUP2 ISZERO SWAP2 DUP5 DIV EQ OR ISZERO PUSH2 0x1A52 JUMPI JUMP JUMPDEST DUP2 ISZERO PUSH2 0x1DE8 JUMPI DIV SWAP1 JUMP JUMPDEST PUSH4 0x4E487B71 PUSH1 0xE0 SHL PUSH1 0x0 MSTORE PUSH1 0x12 PUSH1 0x4 MSTORE PUSH1 0x24 PUSH1 0x0 REVERT JUMPDEST RETURNDATASIZE ISZERO PUSH2 0x1E39 JUMPI RETURNDATASIZE SWAP1 PUSH8 0xFFFFFFFFFFFFFFFF DUP3 GT PUSH2 0x19C7 JUMPI PUSH1 0x40 MLOAD SWAP2 PUSH2 0x1E2D PUSH1 0x1F DUP3 ADD PUSH1 0x1F NOT AND PUSH1 0x20 ADD DUP5 PUSH2 0x19A5 JUMP JUMPDEST DUP3 MSTORE RETURNDATASIZE PUSH1 0x0 PUSH1 0x20 DUP5 ADD RETURNDATACOPY JUMP JUMPDEST PUSH1 0x60 SWAP1 JUMP JUMPDEST PUSH1 0x20 DUP1 DUP3 MSTORE DUP3 MLOAD DUP2 DUP4 ADD DUP2 SWAP1 MSTORE SWAP1 SWAP4 SWAP3 PUSH1 0x0 JUMPDEST DUP3 DUP2 LT PUSH2 0x1E73 JUMPI POP POP PUSH1 0x40 SWAP3 SWAP4 POP PUSH1 0x0 DUP4 DUP3 DUP5 ADD ADD MSTORE PUSH1 0x1F DUP1 NOT SWAP2 ADD AND ADD ADD SWAP1 JUMP JUMPDEST DUP2 DUP2 ADD DUP7 ADD MLOAD DUP5 DUP3 ADD PUSH1 0x40 ADD MSTORE DUP6 ADD PUSH2 0x1E51 JUMP JUMPDEST PUSH1 0x5 SLOAD ISZERO PUSH2 0x1FCE JUMPI JUMPDEST PUSH1 0x3 SLOAD PUSH2 0x1F4 SWAP1 DUP2 DUP2 MUL SWAP2 DUP2 DUP4 DIV EQ SWAP1 ISZERO OR ISZERO PUSH2 0x1A52 JUMPI PUSH2 0x2710 SWAP1 DIV PUSH1 0x1 PUSH1 0x1 PUSH1 0xA0 SHL SUB PUSH32 0x0 DUP2 AND DUP1 PUSH2 0x1F9C JUMPI POP PUSH32 0x0 AND DUP1 EXTCODESIZE ISZERO PUSH2 0x17D4 JUMPI PUSH1 0x0 SWAP1 PUSH1 0x24 PUSH1 0x40 MLOAD DUP1 SWAP5 DUP2 SWAP4 PUSH4 0x39650D1F PUSH1 0xE0 SHL DUP4 MSTORE ADDRESS PUSH1 0x4 DUP5 ADD MSTORE GAS CALL SWAP1 DUP2 PUSH2 0x1F84 JUMPI JUMPDEST POP PUSH2 0x1F58 JUMPI PUSH2 0x1F54 PUSH2 0x1F3B PUSH2 0x1DFE JUMP JUMPDEST PUSH1 0x40 MLOAD PUSH4 0xFB6A2B5 PUSH1 0xE2 SHL DUP2 MSTORE SWAP2 DUP3 SWAP2 PUSH1 0x4 DUP4 ADD PUSH2 0x1E3E JUMP JUMPDEST SUB SWAP1 REVERT JUMPDEST PUSH3 0x10000 PUSH3 0xFF0000 NOT PUSH1 0x6 SLOAD AND OR PUSH1 0x6 SSTORE PUSH1 0x0 DUP1 MLOAD PUSH1 0x20 PUSH2 0x2948 DUP4 CODECOPY DUP2 MLOAD SWAP2 MSTORE PUSH1 0x20 PUSH1 0x40 MLOAD PUSH1 0x1 DUP2 MSTORE LOG1 JUMP JUMPDEST PUSH8 0xFFFFFFFFFFFFFFFF DUP2 GT PUSH2 0x19C7 JUMPI PUSH1 0x40 MSTORE CODESIZE PUSH2 0x1F2B JUMP JUMPDEST PUSH2 0x1FC9 SWAP3 SWAP2 POP PUSH32 0x0 SWAP1 PUSH2 0x201E JUMP JUMPDEST PUSH2 0x1F58 JUMP JUMPDEST PUSH1 0x3 SLOAD PUSH8 0xDE0B6B3A7640000 SWAP1 DUP2 DUP2 MUL SWAP2 DUP2 DUP4 DIV EQ SWAP1 ISZERO OR ISZERO PUSH2 0x1A52 JUMPI PUSH2 0x2016 SWAP1 PUSH32 0x0 SWAP1 PUSH2 0x1DDE JUMP JUMPDEST PUSH1 0x5 SSTORE PUSH2 0x1E90 JUMP JUMPDEST PUSH1 0x40 MLOAD PUSH4 0xA9059CBB PUSH1 0xE0 SHL PUSH1 0x20 DUP3 ADD MSTORE PUSH1 0x1 PUSH1 0x1 PUSH1 0xA0 SHL SUB SWAP3 SWAP1 SWAP3 AND PUSH1 0x24 DUP4 ADD MSTORE PUSH1 0x44 DUP1 DUP4 ADD SWAP4 SWAP1 SWAP4 MSTORE SWAP2 DUP2 MSTORE PUSH2 0x1C99 SWAP2 PUSH2 0x205A PUSH1 0x64 DUP4 PUSH2 0x19A5 JUMP JUMPDEST PUSH2 0x19DD JUMP JUMPDEST SWAP2 SWAP1 DUP3 SUB SWAP2 DUP3 GT PUSH2 0x1A52 JUMPI JUMP JUMPDEST SWAP1 DUP2 PUSH1 0x20 SWAP2 SUB SLT PUSH2 0x17D4 JUMPI MLOAD PUSH1 0x1 PUSH1 0x1 PUSH1 0xA0 SHL SUB DUP2 AND DUP2 SUB PUSH2 0x17D4 JUMPI SWAP1 JUMP JUMPDEST PUSH1 0x3 SLOAD PUSH2 0x1F4 DUP1 DUP3 MUL SWAP1 DUP3 DUP3 DIV EQ DUP3 ISZERO OR ISZERO PUSH2 0x1A52 JUMPI PUSH2 0x20DC PUSH2 0x20B5 PUSH2 0x2710 SWAP4 DUP5 DUP1 SWAP5 DIV SWAP1 PUSH2 0x205F JUMP JUMPDEST PUSH32 0x0 SWAP1 PUSH2 0x1DCB JUMP JUMPDEST DIV SWAP1 PUSH1 0x5 SLOAD PUSH2 0xFFFF PUSH32 0x0 AND DUP3 ADD DUP1 DUP4 GT PUSH2 0x1A52 JUMPI PUSH2 0x2118 SWAP2 PUSH2 0x1DCB JUMP JUMPDEST DIV PUSH8 0xDE0B6B3A7640000 SWAP1 DUP2 DUP4 MUL SWAP2 DUP4 DUP4 DIV EQ DUP4 ISZERO OR ISZERO PUSH2 0x1A52 JUMPI PUSH2 0x213C SWAP2 PUSH2 0x1DDE JUMP JUMPDEST SWAP1 PUSH1 0x40 MLOAD SWAP2 PUSH4 0x112749FF PUSH1 0xE1 SHL DUP4 MSTORE PUSH1 0x4 DUP4 ADD MSTORE PUSH1 0x24 DUP3 ADD MSTORE PUSH1 0x20 DUP2 PUSH1 0x44 DUP2 PUSH1 0x0 ADDRESS GAS CALL PUSH1 0x0 SWAP2 DUP2 PUSH2 0x21DC JUMPI JUMPDEST POP PUSH2 0x2192 JUMPI PUSH2 0x1F54 PUSH2 0x2179 PUSH2 0x1DFE JUMP JUMPDEST PUSH1 0x40 MLOAD PUSH4 0xABC035F PUSH1 0xE4 SHL DUP2 MSTORE SWAP2 DUP3 SWAP2 PUSH1 0x4 DUP4 ADD PUSH2 0x1E3E JUMP JUMPDEST PUSH1 0x6 DUP1 SLOAD PUSH3 0x10000 PUSH1 0x1 PUSH1 0xB8 SHL SUB NOT AND PUSH1 0x18 SWAP3 SWAP1 SWAP3 SHL PUSH4 0x1000000 PUSH1 0x1 PUSH1 0xB8 SHL SUB AND SWAP2 SWAP1 SWAP2 OR PUSH3 0x20000 OR SWAP1 SSTORE PUSH1 0x40 MLOAD PUSH1 0x2 DUP2 MSTORE PUSH1 0x0 DUP1 MLOAD PUSH1 0x20 PUSH2 0x2948 DUP4 CODECOPY DUP2 MLOAD SWAP2 MSTORE SWAP1 PUSH1 0x20 SWAP1 LOG1 JUMP JUMPDEST PUSH2 0x21F5 SWAP2 SWAP3 POP PUSH1 0x20 RETURNDATASIZE DUP2 GT PUSH2 0x120E JUMPI PUSH2 0x1200 DUP2 DUP4 PUSH2 0x19A5 JUMP JUMPDEST SWAP1 CODESIZE PUSH2 0x2169 JUMP JUMPDEST SWAP1 DUP2 PUSH1 0x20 SWAP2 SUB SLT PUSH2 0x17D4 JUMPI MLOAD DUP1 ISZERO ISZERO DUP2 SUB PUSH2 0x17D4 JUMPI SWAP1 JUMP JUMPDEST PUSH1 0x6 SLOAD PUSH1 0x1 PUSH1 0x1 PUSH1 0xA0 SHL SUB SWAP1 PUSH1 0x18 SHR DUP2 AND DUP1 ISZERO PUSH2 0x24A9 JUMPI DUP2 PUSH1 0x2 SLOAD AND DUP1 ISZERO PUSH2 0x2464 JUMPI PUSH1 0x40 DUP1 MLOAD PUSH4 0x70A08231 PUSH1 0xE0 SHL DUP2 MSTORE ADDRESS PUSH1 0x4 DUP3 ADD MSTORE SWAP1 SWAP4 PUSH1 0x20 SWAP4 DUP5 DUP4 PUSH1 0x24 DUP2 DUP5 GAS STATICCALL SWAP3 DUP4 ISZERO PUSH2 0x242A JUMPI PUSH1 0x0 SWAP4 PUSH2 0x2435 JUMPI JUMPDEST POP PUSH3 0x278D00 PUSH32 0x0 DUP2 DUP2 MUL SWAP3 SWAP2 DUP2 ISZERO SWAP2 DUP5 DIV EQ OR ISZERO PUSH2 0x1A52 JUMPI DUP4 DUP7 SWAP2 PUSH2 0x22AD PUSH2 0x22E5 SWAP5 TIMESTAMP PUSH2 0x1A45 JUMP JUMPDEST DUP10 MLOAD PUSH4 0x95EA7B3 PUSH1 0xE0 SHL DUP2 MSTORE PUSH1 0x1 PUSH1 0x1 PUSH1 0xA0 SHL SUB SWAP1 SWAP9 AND PUSH1 0x4 DUP10 ADD MSTORE PUSH1 0x24 DUP9 ADD SWAP3 SWAP1 SWAP3 MSTORE SWAP1 SWAP6 SWAP3 DUP4 SWAP2 SWAP1 DUP3 SWAP1 PUSH1 0x0 SWAP1 DUP3 SWAP1 PUSH1 0x44 DUP3 ADD SWAP1 JUMP JUMPDEST SUB SWAP3 GAS CALL DUP1 ISZERO PUSH2 0x242A JUMPI PUSH2 0x240D JUMPI JUMPDEST POP PUSH1 0x0 DUP5 DUP1 DUP4 PUSH1 0x2 SLOAD AND PUSH1 0x84 DUP6 PUSH1 0x6 SLOAD PUSH1 0x18 SHR AND DUP11 MLOAD SWAP6 DUP7 SWAP4 DUP5 SWAP3 PUSH4 0xAA393F3 PUSH1 0xE0 SHL DUP5 MSTORE PUSH1 0x4 DUP5 ADD MSTORE DUP10 PUSH1 0x24 DUP5 ADD MSTORE DUP11 PUSH1 0x44 DUP5 ADD MSTORE DUP9 PUSH32 0x0 AND PUSH1 0x64 DUP5 ADD MSTORE GAS CALL SWAP2 DUP3 PUSH2 0x23E4 JUMPI JUMPDEST POP POP PUSH2 0x2385 JUMPI PUSH2 0x1F54 DUP6 PUSH2 0x236D PUSH2 0x1DFE JUMP JUMPDEST SWAP1 MLOAD PUSH4 0x1953EA3 PUSH1 0xE1 SHL DUP2 MSTORE SWAP2 DUP3 SWAP2 PUSH1 0x4 DUP4 ADD PUSH2 0x1E3E JUMP JUMPDEST SWAP2 PUSH3 0x30000 SWAP2 PUSH32 0xE3AFAE9EC63E6F2E914C17BAB8493B603680A72D9E6DFACF25AC6A4806555D41 DUP7 PUSH1 0x0 DUP1 MLOAD PUSH1 0x20 PUSH2 0x2948 DUP4 CODECOPY DUP2 MLOAD SWAP2 MSTORE SWAP8 SWAP6 PUSH1 0x6 SLOAD SWAP5 DUP3 MLOAD SWAP5 DUP6 MSTORE DUP9 DUP6 ADD MSTORE DUP5 PUSH1 0x18 SHR AND SWAP3 LOG2 PUSH3 0xFF0000 NOT AND OR PUSH1 0x6 SSTORE MLOAD PUSH1 0x3 DUP2 MSTORE LOG1 JUMP JUMPDEST DUP2 RETURNDATASIZE DUP4 GT PUSH2 0x2406 JUMPI JUMPDEST PUSH2 0x23F7 DUP2 DUP4 PUSH2 0x19A5 JUMP JUMPDEST DUP2 ADD SUB SLT PUSH2 0x17D4 JUMPI DUP5 CODESIZE PUSH2 0x235B JUMP JUMPDEST POP RETURNDATASIZE PUSH2 0x23ED JUMP JUMPDEST PUSH2 0x2423 SWAP1 DUP6 RETURNDATASIZE DUP8 GT PUSH2 0x1588 JUMPI PUSH2 0x1579 DUP2 DUP4 PUSH2 0x19A5 JUMP JUMPDEST POP CODESIZE PUSH2 0x22F4 JUMP JUMPDEST DUP7 MLOAD RETURNDATASIZE PUSH1 0x0 DUP3 RETURNDATACOPY RETURNDATASIZE SWAP1 REVERT JUMPDEST SWAP1 SWAP3 DUP6 DUP3 DUP2 RETURNDATASIZE DUP4 GT PUSH2 0x245D JUMPI JUMPDEST PUSH2 0x244C DUP2 DUP4 PUSH2 0x19A5 JUMP JUMPDEST DUP2 ADD SUB SLT PUSH2 0x73B JUMPI POP MLOAD SWAP2 CODESIZE PUSH2 0x2266 JUMP JUMPDEST POP RETURNDATASIZE PUSH2 0x2442 JUMP JUMPDEST PUSH1 0x40 MLOAD PUSH3 0x461BCD PUSH1 0xE5 SHL DUP2 MSTORE PUSH1 0x20 PUSH1 0x4 DUP3 ADD MSTORE PUSH1 0x18 PUSH1 0x24 DUP3 ADD MSTORE PUSH32 0x4C50204C6F636B6572206E6F7420636F6E666967757265640000000000000000 PUSH1 0x44 DUP3 ADD MSTORE PUSH1 0x64 SWAP1 REVERT JUMPDEST PUSH1 0x40 MLOAD PUSH3 0x461BCD PUSH1 0xE5 SHL DUP2 MSTORE PUSH1 0x20 PUSH1 0x4 DUP3 ADD MSTORE PUSH1 0x10 PUSH1 0x24 DUP3 ADD MSTORE PUSH16 0x131408151BDAD95B881B9BDD081CD95D PUSH1 0x82 SHL PUSH1 0x44 DUP3 ADD MSTORE PUSH1 0x64 SWAP1 REVERT JUMPDEST PUSH1 0x3 SLOAD PUSH2 0x1F4 DUP1 DUP3 MUL SWAP1 DUP3 DUP3 DIV EQ DUP3 ISZERO OR ISZERO PUSH2 0x1A52 JUMPI PUSH2 0x250A PUSH2 0x253C SWAP3 PUSH2 0x2710 DUP1 SWAP4 DIV SWAP1 PUSH2 0x205F JUMP JUMPDEST SWAP1 PUSH2 0x2535 PUSH32 0x0 DUP4 PUSH2 0x1DCB JUMP JUMPDEST DIV SWAP1 PUSH2 0x205F JUMP JUMPDEST PUSH1 0x1 PUSH1 0x1 PUSH1 0xA0 SHL SUB SWAP1 PUSH32 0x0 DUP3 DUP2 AND PUSH2 0x26A7 JUMPI JUMPDEST POP PUSH32 0x0 DUP3 AND DUP1 PUSH2 0x2671 JUMPI POP PUSH1 0x0 DUP1 DUP1 DUP1 SWAP4 PUSH32 0x0 GAS CALL PUSH2 0x25C9 PUSH2 0x1DFE JUMP JUMPDEST POP ISZERO PUSH2 0x265F JUMPI PUSH3 0x40001 SWAP1 JUMPDEST PUSH1 0x3 PUSH1 0xA0 SHL PUSH1 0xFF PUSH1 0xA0 SHL NOT PUSH1 0x2 SLOAD AND OR PUSH1 0x2 SSTORE PUSH32 0x6E4389167D2AFBD1CCB4797EA87E29958ADBF74CD16BA077A2EE5AB8460784E5 PUSH1 0x80 PUSH1 0x6 SLOAD SWAP3 PUSH1 0x5 SLOAD SWAP1 PUSH1 0x3 SLOAD PUSH1 0x40 MLOAD SWAP3 DUP4 MSTORE PUSH1 0x20 DUP4 ADD MSTORE PUSH1 0x1 PUSH1 0xFF NOT DUP7 AND OR PUSH1 0x18 SHR AND PUSH1 0x40 DUP3 ADD MSTORE PUSH1 0x0 PUSH1 0x60 DUP3 ADD MSTORE LOG1 PUSH3 0xFF00FF NOT AND OR PUSH1 0x6 SSTORE PUSH1 0x0 DUP1 MLOAD PUSH1 0x20 PUSH2 0x2948 DUP4 CODECOPY DUP2 MLOAD SWAP2 MSTORE PUSH1 0x20 PUSH1 0x40 MLOAD PUSH1 0x4 DUP2 MSTORE LOG1 JUMP JUMPDEST PUSH1 0x40 MLOAD PUSH4 0x12171D83 PUSH1 0xE3 SHL DUP2 MSTORE PUSH1 0x4 SWAP1 REVERT JUMPDEST PUSH3 0x40001 SWAP3 SWAP2 PUSH2 0x26A2 SWAP2 PUSH32 0x0 SWAP1 PUSH2 0x201E JUMP JUMPDEST PUSH2 0x25D5 JUMP JUMPDEST PUSH1 0x40 MLOAD PUSH4 0x70A08231 PUSH1 0xE0 SHL DUP2 MSTORE ADDRESS PUSH1 0x4 DUP3 ADD MSTORE PUSH32 0x0 DUP5 AND SWAP2 SWAP1 PUSH1 0x20 DUP2 PUSH1 0x24 DUP2 DUP7 GAS STATICCALL DUP1 ISZERO PUSH2 0x1A39 JUMPI PUSH1 0x0 SWAP1 PUSH2 0x2741 JUMPI JUMPDEST PUSH2 0x2722 SWAP2 POP PUSH32 0x0 SWAP1 PUSH2 0x205F JUMP JUMPDEST SWAP1 DUP2 PUSH2 0x2730 JUMPI JUMPDEST POP POP PUSH2 0x256E JUMP JUMPDEST PUSH2 0x2739 SWAP3 PUSH2 0x201E JUMP JUMPDEST CODESIZE DUP1 DUP1 PUSH2 0x2729 JUMP JUMPDEST PUSH1 0x20 DUP3 RETURNDATASIZE DUP3 GT PUSH2 0x276C JUMPI JUMPDEST DUP2 PUSH2 0x2759 PUSH1 0x20 SWAP4 DUP4 PUSH2 0x19A5 JUMP JUMPDEST DUP2 ADD SUB SLT PUSH2 0x73B JUMPI POP PUSH2 0x2722 SWAP1 MLOAD PUSH2 0x26F6 JUMP JUMPDEST RETURNDATASIZE SWAP2 POP PUSH2 0x274C JUMP JUMPDEST SWAP1 DUP2 PUSH1 0x60 SWAP2 SUB SLT PUSH2 0x17D4 JUMPI DUP1 MLOAD SWAP2 PUSH1 0x40 PUSH1 0x20 DUP4 ADD MLOAD SWAP3 ADD MLOAD SWAP1 JUMP JUMPDEST PUSH1 0x2 SLOAD PUSH1 0xFF DUP2 PUSH1 0xA0 SHR AND PUSH1 0x6 DUP2 LT ISZERO PUSH2 0x17A8 JUMPI DUP1 ISZERO DUP1 PUSH2 0x2812 JUMPI JUMPDEST ISZERO PUSH2 0x27C6 JUMPI POP POP PUSH1 0x2 DUP1 SLOAD PUSH1 0xFF PUSH1 0xA0 SHL NOT AND PUSH1 0x1 PUSH1 0xA0 SHL OR SWAP1 SSTORE JUMP JUMPDEST PUSH1 0x1 EQ DUP1 PUSH2 0x27E8 JUMPI JUMPDEST PUSH2 0x27D6 JUMPI POP JUMP JUMPDEST PUSH1 0xFF PUSH1 0xA0 SHL NOT AND PUSH1 0x1 PUSH1 0xA1 SHL OR PUSH1 0x2 SSTORE JUMP JUMPDEST POP PUSH32 0x0 TIMESTAMP LT ISZERO PUSH2 0x27CF JUMP JUMPDEST POP PUSH32 0x0 TIMESTAMP LT ISZERO PUSH2 0x27AA JUMP JUMPDEST PUSH1 0xFF PUSH1 0x2 SLOAD PUSH1 0xA0 SHR AND PUSH1 0x6 DUP2 LT ISZERO PUSH2 0x17A8 JUMPI DUP1 ISZERO DUP1 PUSH2 0x28A2 JUMPI JUMPDEST ISZERO PUSH2 0x2861 JUMPI POP PUSH1 0x1 SWAP1 JUMP JUMPDEST PUSH1 0x1 DUP2 EQ DUP1 PUSH2 0x2878 JUMPI JUMPDEST PUSH2 0x2872 JUMPI SWAP1 JUMP JUMPDEST POP PUSH1 0x2 SWAP1 JUMP JUMPDEST POP PUSH32 0x0 TIMESTAMP LT ISZERO PUSH2 0x286B JUMP JUMPDEST POP PUSH32 0x0 TIMESTAMP LT ISZERO PUSH2 0x2856 JUMP JUMPDEST PUSH1 0xFF PUSH1 0x2 SLOAD PUSH1 0xA0 SHR AND PUSH1 0x6 DUP2 LT ISZERO PUSH2 0x17A8 JUMPI PUSH1 0x3 SUB PUSH2 0x2941 JUMPI PUSH1 0x3 SLOAD DUP1 ISZERO PUSH2 0x293A JUMPI PUSH2 0x2937 SWAP2 PUSH1 0x1 DUP1 PUSH1 0xA0 SHL SUB AND PUSH1 0x0 MSTORE PUSH1 0x7 PUSH1 0x20 MSTORE PUSH2 0x2932 PUSH1 0x40 PUSH1 0x0 KECCAK256 SLOAD PUSH32 0x0 SWAP1 PUSH2 0x1DCB JUMP JUMPDEST PUSH2 0x1DDE JUMP JUMPDEST SWAP1 JUMP JUMPDEST POP POP PUSH1 0x0 SWAP1 JUMP JUMPDEST POP PUSH1 0x0 SWAP1 JUMP INVALID CALLDATALOAD SWAP16 PUSH22 0x319D3ABF464A20742906C9B06C2E0CF50ADC178C5F23 0xEB PREVRANDAO 0xE3 0xE8 ORIGIN KECCAK256 0xB8 LOG2 PUSH5 0x6970667358 0x22 SLT KECCAK256 DUP12 0xA7 0xB6 PUSH1 0xD9 0x1E SIGNEXTEND DUP11 0xA5 PUSH12 0x61A6CC0D0DB6012BFCA960C8 0xC DUP9 0xB3 BLOCKHASH EQ 0xE7 SHL PUSH15 0x3D7264736F6C634300081400332F87 DUP9 GT PUSH31 0x7EFF1D82E926EC794901D17C78024A50270940304540A733656F0D604060C0 DUP2 MSTORE CALLVALUE PUSH3 0x377 JUMPI PUSH3 0x1004 DUP1 CODESIZE SUB DUP1 PUSH3 0x1E DUP2 PUSH3 0x37C JUMP JUMPDEST SWAP3 DUP4 CODECOPY DUP2 ADD PUSH1 0xC0 DUP3 DUP3 SUB SLT PUSH3 0x377 JUMPI PUSH3 0x39 DUP3 PUSH3 0x3A2 JUMP JUMPDEST SWAP1 PUSH1 0x20 SWAP2 PUSH3 0x4A DUP4 DUP6 ADD PUSH3 0x3A2 JUMP JUMPDEST DUP6 DUP6 ADD MLOAD PUSH1 0x60 DUP1 DUP8 ADD MLOAD SWAP1 SWAP7 PUSH1 0x1 PUSH1 0x1 PUSH1 0x40 SHL SUB SWAP4 SWAP1 SWAP3 SWAP1 SWAP2 DUP5 DUP2 GT PUSH3 0x377 JUMPI DUP7 PUSH3 0x79 SWAP2 DUP6 ADD PUSH3 0x3B7 JUMP JUMPDEST SWAP6 PUSH1 0x80 DUP5 ADD MLOAD SWAP1 DUP6 DUP3 GT PUSH3 0x377 JUMPI PUSH3 0x9C PUSH1 0xA0 SWAP2 PUSH3 0xA4 SWAP4 DUP8 ADD PUSH3 0x3B7 JUMP JUMPDEST SWAP5 ADD PUSH3 0x3A2 JUMP JUMPDEST PUSH1 0x1 DUP1 DUP1 SSTORE SWAP6 SWAP1 SWAP2 SWAP1 PUSH1 0x1 PUSH1 0x1 PUSH1 0xA0 SHL SUB DUP1 DUP3 AND ISZERO PUSH3 0x343 JUMPI DUP5 AND ISZERO PUSH3 0x2FF JUMPI DUP8 MLOAD DUP6 MLOAD SUB PUSH3 0x2C9 JUMPI DUP8 MLOAD ISZERO PUSH3 0x294 JUMPI SWAP3 PUSH3 0xF7 DUP8 SWAP6 SWAP9 SWAP7 SWAP4 PUSH3 0xFE SWAP4 DUP14 SWAP12 SWAP10 SWAP7 PUSH1 0x80 MSTORE PUSH1 0xA0 MSTORE PUSH3 0x434 JUMP JUMPDEST POP PUSH3 0x4B4 JUMP JUMPDEST POP PUSH1 0x0 SWAP6 DUP7 SWAP3 JUMPDEST PUSH3 0x175 JUMPI JUMPDEST POP POP POP POP PUSH32 0x721DDAABE5CC50A5A5FDC5CE1E5636612DA513F19115ED78A77B4E60665F07B4 SWAP5 POP DUP3 PUSH1 0x3 SSTORE MLOAD SWAP1 DUP4 MLOAD SWAP3 DUP4 MSTORE DUP3 ADD MSTORE LOG1 MLOAD PUSH2 0xA8D SWAP1 DUP2 PUSH3 0x557 DUP3 CODECOPY PUSH1 0x80 MLOAD DUP2 DUP2 DUP2 PUSH1 0xE8 ADD MSTORE PUSH2 0x3E9 ADD MSTORE PUSH1 0xA0 MLOAD DUP2 DUP2 DUP2 PUSH2 0x17A ADD MSTORE DUP2 DUP2 PUSH2 0x31A ADD MSTORE PUSH2 0x62A ADD MSTORE RETURN JUMPDEST SWAP2 SWAP4 SWAP6 SWAP1 SWAP3 SWAP5 SWAP7 DUP7 MLOAD DUP6 LT ISZERO PUSH3 0x288 JUMPI POP PUSH3 0x193 DUP5 DUP8 PUSH3 0x41F JUMP JUMPDEST MLOAD PUSH3 0x1A0 DUP6 DUP5 PUSH3 0x41F JUMP JUMPDEST MLOAD DUP11 MLOAD SWAP2 DUP11 DUP4 ADD DUP4 DUP2 LT DUP8 DUP3 GT OR PUSH3 0x272 JUMPI DUP13 MSTORE DUP3 MSTORE DUP9 DUP3 ADD SWAP1 DUP2 MSTORE DUP11 DUP3 ADD SWAP2 PUSH1 0x0 DUP4 MSTORE PUSH1 0x2 SWAP2 DUP3 SLOAD PUSH9 0x10000000000000000 DUP2 LT ISZERO PUSH3 0x272 JUMPI DUP10 DUP2 ADD DUP1 DUP6 SSTORE DUP2 LT ISZERO PUSH3 0x25C JUMPI DUP4 PUSH1 0x0 MSTORE PUSH1 0x3 DUP13 PUSH1 0x0 KECCAK256 SWAP2 MUL ADD SWAP2 MLOAD DUP3 SSTORE MLOAD DUP9 DUP3 ADD SSTORE ADD SWAP1 MLOAD ISZERO ISZERO PUSH1 0xFF DUP1 NOT DUP4 SLOAD AND SWAP2 AND OR SWAP1 SSTORE PUSH3 0x21D DUP5 DUP4 PUSH3 0x41F JUMP JUMPDEST MLOAD DUP2 ADD DUP1 SWAP2 GT PUSH3 0x246 JUMPI SWAP7 PUSH1 0x0 NOT DUP5 EQ PUSH3 0x246 JUMPI DUP5 DUP1 SWAP5 ADD SWAP2 DUP10 SWAP8 SWAP6 SWAP4 SWAP2 SWAP9 SWAP7 SWAP5 PUSH3 0x105 JUMP JUMPDEST PUSH4 0x4E487B71 PUSH1 0xE0 SHL PUSH1 0x0 MSTORE PUSH1 0x11 PUSH1 0x4 MSTORE PUSH1 0x24 PUSH1 0x0 REVERT JUMPDEST PUSH4 0x4E487B71 PUSH1 0xE0 SHL PUSH1 0x0 MSTORE PUSH1 0x32 PUSH1 0x4 MSTORE PUSH1 0x24 PUSH1 0x0 REVERT JUMPDEST PUSH4 0x4E487B71 PUSH1 0xE0 SHL PUSH1 0x0 MSTORE PUSH1 0x41 PUSH1 0x4 MSTORE PUSH1 0x24 PUSH1 0x0 REVERT JUMPDEST SWAP7 SWAP5 DUP2 SWAP7 SWAP5 POP PUSH3 0x10B JUMP JUMPDEST DUP11 MLOAD PUSH3 0x461BCD PUSH1 0xE5 SHL DUP2 MSTORE PUSH1 0x4 DUP2 ADD DUP11 SWAP1 MSTORE PUSH1 0xE PUSH1 0x24 DUP3 ADD MSTORE PUSH14 0x456D707479207363686564756C65 PUSH1 0x90 SHL PUSH1 0x44 DUP3 ADD MSTORE PUSH1 0x64 SWAP1 REVERT JUMPDEST DUP11 MLOAD PUSH3 0x461BCD PUSH1 0xE5 SHL DUP2 MSTORE PUSH1 0x4 DUP2 ADD DUP11 SWAP1 MSTORE PUSH1 0xF PUSH1 0x24 DUP3 ADD MSTORE PUSH15 0x98CADCCEE8D040DAD2E6DAC2E8C6D PUSH1 0x8B SHL PUSH1 0x44 DUP3 ADD MSTORE PUSH1 0x64 SWAP1 REVERT JUMPDEST DUP11 MLOAD PUSH3 0x461BCD PUSH1 0xE5 SHL DUP2 MSTORE PUSH1 0x4 DUP2 ADD DUP11 SWAP1 MSTORE PUSH1 0x13 PUSH1 0x24 DUP3 ADD MSTORE PUSH32 0x496E76616C69642062656E656669636961727900000000000000000000000000 PUSH1 0x44 DUP3 ADD MSTORE PUSH1 0x64 SWAP1 REVERT JUMPDEST DUP12 MLOAD PUSH3 0x461BCD PUSH1 0xE5 SHL DUP2 MSTORE PUSH1 0x4 DUP2 ADD DUP12 SWAP1 MSTORE PUSH1 0xD PUSH1 0x24 DUP3 ADD MSTORE PUSH13 0x24B73B30B634B2103A37B5B2B7 PUSH1 0x99 SHL PUSH1 0x44 DUP3 ADD MSTORE PUSH1 0x64 SWAP1 REVERT JUMPDEST PUSH1 0x0 DUP1 REVERT JUMPDEST PUSH1 0x40 MLOAD SWAP2 SWAP1 PUSH1 0x1F ADD PUSH1 0x1F NOT AND DUP3 ADD PUSH1 0x1 PUSH1 0x1 PUSH1 0x40 SHL SUB DUP2 GT DUP4 DUP3 LT OR PUSH3 0x272 JUMPI PUSH1 0x40 MSTORE JUMP JUMPDEST MLOAD SWAP1 PUSH1 0x1 PUSH1 0x1 PUSH1 0xA0 SHL SUB DUP3 AND DUP3 SUB PUSH3 0x377 JUMPI JUMP JUMPDEST DUP2 PUSH1 0x1F DUP3 ADD SLT ISZERO PUSH3 0x377 JUMPI DUP1 MLOAD SWAP2 PUSH1 0x1 PUSH1 0x1 PUSH1 0x40 SHL SUB DUP4 GT PUSH3 0x272 JUMPI DUP3 PUSH1 0x5 SHL PUSH1 0x20 SWAP3 DUP4 DUP1 PUSH3 0x3EB DUP2 DUP6 ADD PUSH3 0x37C JUMP JUMPDEST DUP1 SWAP8 DUP2 MSTORE ADD SWAP3 DUP3 ADD ADD SWAP3 DUP4 GT PUSH3 0x377 JUMPI DUP4 ADD SWAP1 JUMPDEST DUP3 DUP3 LT PUSH3 0x40F JUMPI POP POP POP POP SWAP1 JUMP JUMPDEST DUP2 MLOAD DUP2 MSTORE SWAP1 DUP4 ADD SWAP1 DUP4 ADD PUSH3 0x400 JUMP JUMPDEST DUP1 MLOAD DUP3 LT ISZERO PUSH3 0x25C JUMPI PUSH1 0x20 SWAP2 PUSH1 0x5 SHL ADD ADD SWAP1 JUMP JUMPDEST PUSH1 0x1 PUSH1 0x1 PUSH1 0xA0 SHL SUB AND PUSH1 0x0 DUP2 DUP2 MSTORE PUSH32 0xAD3228B676F7D3CD4284A5443F17F1962B36E491B30A40B2405849E597BA5FB5 PUSH1 0x20 MSTORE PUSH1 0x40 DUP2 KECCAK256 SLOAD SWAP1 SWAP2 SWAP1 PUSH1 0xFF AND PUSH3 0x4B0 JUMPI DUP2 DUP1 MSTORE DUP2 PUSH1 0x20 MSTORE PUSH1 0x40 DUP3 KECCAK256 DUP2 DUP4 MSTORE PUSH1 0x20 MSTORE PUSH1 0x40 DUP3 KECCAK256 PUSH1 0x1 PUSH1 0xFF NOT DUP3 SLOAD AND OR SWAP1 SSTORE CALLER SWAP2 PUSH1 0x0 DUP1 MLOAD PUSH1 0x20 PUSH3 0xFE4 DUP4 CODECOPY DUP2 MLOAD SWAP2 MSTORE DUP2 DUP1 LOG4 PUSH1 0x1 SWAP1 JUMP JUMPDEST POP SWAP1 JUMP JUMPDEST PUSH1 0x1 PUSH1 0x1 PUSH1 0xA0 SHL SUB AND PUSH1 0x0 DUP2 DUP2 MSTORE PUSH32 0xB9B0AC02325EE7CF4551D296A88408527C705A37FEFD0E298966A9ADA940B4C4 PUSH1 0x20 MSTORE PUSH1 0x40 DUP2 KECCAK256 SLOAD SWAP1 SWAP2 SWAP1 PUSH32 0xC8A41221BCD7FCF2C225F5A9265E1D4D39949D89197159D59E5F4B87B62C419E SWAP1 PUSH1 0xFF AND PUSH3 0x551 JUMPI DUP1 DUP4 MSTORE DUP3 PUSH1 0x20 MSTORE PUSH1 0x40 DUP4 KECCAK256 DUP3 DUP5 MSTORE PUSH1 0x20 MSTORE PUSH1 0x40 DUP4 KECCAK256 PUSH1 0x1 PUSH1 0xFF NOT DUP3 SLOAD AND OR SWAP1 SSTORE PUSH1 0x0 DUP1 MLOAD PUSH1 0x20 PUSH3 0xFE4 DUP4 CODECOPY DUP2 MLOAD SWAP2 MSTORE CALLER SWAP4 DUP1 LOG4 PUSH1 0x1 SWAP1 JUMP JUMPDEST POP POP SWAP1 JUMP INVALID PUSH1 0x80 PUSH1 0x40 DUP2 DUP2 MSTORE PUSH1 0x4 SWAP2 DUP3 CALLDATASIZE LT ISZERO PUSH2 0x16 JUMPI PUSH1 0x0 DUP1 REVERT JUMPDEST PUSH1 0x0 SWAP3 DUP4 CALLDATALOAD PUSH1 0xE0 SHR SWAP2 DUP3 PUSH4 0x1FFC9A7 EQ PUSH2 0x755 JUMPI POP DUP2 PUSH4 0x248A9CA3 EQ PUSH2 0x72B JUMPI DUP2 PUSH4 0x26FADBE2 EQ PUSH2 0x5CC JUMPI DUP2 PUSH4 0x2DB94D19 EQ PUSH2 0x5AD JUMPI DUP2 PUSH4 0x2F2FF15D EQ PUSH2 0x58F JUMPI DUP2 PUSH4 0x36568ABE EQ PUSH2 0x554 JUMPI DUP2 PUSH4 0x4E71D92D EQ PUSH2 0x33D JUMPI DUP2 PUSH4 0x78E97925 EQ PUSH2 0x302 JUMPI DUP2 PUSH4 0x91D14854 EQ PUSH2 0x2C8 JUMPI DUP2 PUSH4 0xA217FDDF EQ PUSH2 0x2AD JUMPI DUP2 PUSH4 0xBDC6D9AB EQ PUSH2 0x25A JUMPI DUP2 PUSH4 0xCED3A403 EQ PUSH2 0x21F JUMPI DUP2 PUSH4 0xD547741F EQ PUSH2 0x1EA JUMPI DUP2 PUSH4 0xD54AD2A1 EQ PUSH2 0x1C8 JUMPI POP DUP1 PUSH4 0xEE28B744 EQ PUSH2 0x11B JUMPI PUSH4 0xFC0C546A EQ PUSH2 0xD5 JUMPI PUSH1 0x0 DUP1 REVERT JUMPDEST CALLVALUE PUSH2 0x117 JUMPI DUP2 PUSH1 0x3 NOT CALLDATASIZE ADD SLT PUSH2 0x117 JUMPI MLOAD PUSH32 0x0 PUSH1 0x1 PUSH1 0x1 PUSH1 0xA0 SHL SUB AND DUP2 MSTORE PUSH1 0x20 SWAP1 RETURN JUMPDEST POP DUP1 REVERT JUMPDEST POP CALLVALUE PUSH2 0x117 JUMPI DUP2 PUSH1 0x3 NOT CALLDATASIZE ADD SLT PUSH2 0x117 JUMPI DUP2 SWAP1 PUSH1 0x2 SWAP3 DUP4 SLOAD SWAP1 JUMPDEST DUP2 DUP2 LT PUSH2 0x146 JUMPI PUSH1 0x20 DUP5 DUP5 MLOAD SWAP1 DUP2 MSTORE RETURN JUMPDEST PUSH1 0xFF DUP6 PUSH2 0x152 DUP4 PUSH2 0x807 JUMP JUMPDEST POP ADD SLOAD AND ISZERO PUSH2 0x16A JUMPI JUMPDEST PUSH2 0x165 SWAP1 PUSH2 0x98F JUMP JUMPDEST PUSH2 0x135 JUMP JUMPDEST PUSH2 0x19E PUSH2 0x176 DUP3 PUSH2 0x807 JUMP JUMPDEST POP SLOAD PUSH32 0x0 PUSH2 0x9B4 JUMP JUMPDEST TIMESTAMP LT PUSH2 0x15C JUMPI SWAP3 PUSH2 0x1C0 PUSH2 0x165 SWAP2 PUSH1 0x1 PUSH2 0x1B7 DUP8 PUSH2 0x807 JUMP JUMPDEST POP ADD SLOAD SWAP1 PUSH2 0x9B4 JUMP JUMPDEST SWAP4 SWAP1 POP PUSH2 0x15C JUMP JUMPDEST SWAP1 POP CALLVALUE PUSH2 0x1E6 JUMPI DUP3 PUSH1 0x3 NOT CALLDATASIZE ADD SLT PUSH2 0x1E6 JUMPI PUSH1 0x20 SWAP3 POP SLOAD SWAP1 MLOAD SWAP1 DUP2 MSTORE RETURN JUMPDEST DUP3 DUP1 REVERT JUMPDEST POP POP CALLVALUE PUSH2 0x117 JUMPI PUSH1 0x1 PUSH2 0x21B SWAP2 PUSH2 0x216 PUSH2 0x203 CALLDATASIZE PUSH2 0x7DC JUMP JUMPDEST SWAP4 SWAP1 SWAP3 DUP4 DUP8 MSTORE DUP7 PUSH1 0x20 MSTORE DUP7 KECCAK256 ADD SLOAD PUSH2 0x858 JUMP JUMPDEST PUSH2 0x91A JUMP JUMPDEST POP DUP1 RETURN JUMPDEST POP POP CALLVALUE PUSH2 0x117 JUMPI DUP2 PUSH1 0x3 NOT CALLDATASIZE ADD SLT PUSH2 0x117 JUMPI PUSH1 0x20 SWAP1 MLOAD PUSH32 0xC8A41221BCD7FCF2C225F5A9265E1D4D39949D89197159D59E5F4B87B62C419E DUP2 MSTORE RETURN JUMPDEST SWAP1 POP CALLVALUE PUSH2 0x1E6 JUMPI PUSH1 0x20 CALLDATASIZE PUSH1 0x3 NOT ADD SLT PUSH2 0x1E6 JUMPI CALLDATALOAD SWAP2 PUSH1 0x2 SLOAD DUP4 LT ISZERO PUSH2 0x2AA JUMPI POP PUSH2 0x285 PUSH1 0x60 SWAP3 PUSH2 0x807 JUMP JUMPDEST POP SWAP1 DUP2 SLOAD SWAP2 PUSH1 0xFF PUSH1 0x2 PUSH1 0x1 DUP4 ADD SLOAD SWAP3 ADD SLOAD AND SWAP1 DUP3 MLOAD SWAP4 DUP5 MSTORE PUSH1 0x20 DUP5 ADD MSTORE ISZERO ISZERO SWAP1 DUP3 ADD MSTORE RETURN JUMPDEST DUP1 REVERT JUMPDEST POP POP CALLVALUE PUSH2 0x117 JUMPI DUP2 PUSH1 0x3 NOT CALLDATASIZE ADD SLT PUSH2 0x117 JUMPI MLOAD SWAP1 DUP2 MSTORE PUSH1 0x20 SWAP1 RETURN JUMPDEST POP POP CALLVALUE PUSH2 0x117 JUMPI PUSH1 0xFF DUP2 PUSH1 0x20 SWAP4 PUSH2 0x2DE CALLDATASIZE PUSH2 0x7DC JUMP JUMPDEST SWAP1 DUP3 MSTORE DUP2 DUP7 MSTORE DUP3 DUP3 KECCAK256 PUSH1 0x1 PUSH1 0x1 PUSH1 0xA0 SHL SUB SWAP1 SWAP2 AND DUP3 MSTORE DUP6 MSTORE KECCAK256 SLOAD SWAP2 MLOAD SWAP2 AND ISZERO ISZERO DUP2 MSTORE RETURN JUMPDEST POP POP CALLVALUE PUSH2 0x117 JUMPI DUP2 PUSH1 0x3 NOT CALLDATASIZE ADD SLT PUSH2 0x117 JUMPI PUSH1 0x20 SWAP1 MLOAD PUSH32 0x0 DUP2 MSTORE RETURN JUMPDEST SWAP2 SWAP1 POP CALLVALUE PUSH2 0x1E6 JUMPI DUP3 PUSH1 0x3 NOT CALLDATASIZE ADD SLT PUSH2 0x1E6 JUMPI PUSH1 0x2 SWAP1 PUSH1 0x1 SWAP3 DUP3 DUP5 SLOAD EQ PUSH2 0x546 JUMPI DUP3 DUP5 SSTORE PUSH32 0xC8A41221BCD7FCF2C225F5A9265E1D4D39949D89197159D59E5F4B87B62C419E DUP1 DUP7 MSTORE DUP6 PUSH1 0x20 MSTORE DUP3 DUP7 KECCAK256 CALLER DUP8 MSTORE PUSH1 0x20 MSTORE PUSH1 0xFF SWAP1 DUP2 DUP5 DUP9 KECCAK256 SLOAD AND ISZERO PUSH2 0x529 JUMPI POP DUP6 SWAP4 DUP1 SLOAD SWAP2 DUP8 JUMPDEST DUP4 DUP2 LT PUSH2 0x4C4 JUMPI POP POP POP POP DUP3 ISZERO PUSH2 0x4B7 JUMPI PUSH2 0x3C4 DUP4 DUP3 SLOAD PUSH2 0x9B4 JUMP JUMPDEST DUP2 SSTORE DUP2 MLOAD PUSH4 0xA9059CBB PUSH1 0xE0 SHL PUSH1 0x20 DUP3 ADD SWAP1 DUP2 MSTORE CALLER PUSH1 0x24 DUP4 ADD MSTORE PUSH1 0x44 DUP1 DUP4 ADD DUP7 SWAP1 MSTORE DUP3 MSTORE PUSH32 0x0 PUSH1 0x1 PUSH1 0x1 PUSH1 0xA0 SHL SUB AND SWAP2 PUSH1 0x80 DUP2 ADD PUSH8 0xFFFFFFFFFFFFFFFF DUP2 GT DUP3 DUP3 LT OR PUSH2 0x4A4 JUMPI DUP6 MSTORE MLOAD PUSH1 0x20 SWAP2 DUP9 SWAP2 SWAP1 DUP3 DUP6 GAS CALL ISZERO PUSH2 0x49A JUMPI DUP6 MLOAD DUP6 SWAP1 RETURNDATASIZE PUSH2 0x493 JUMPI POP POP DUP1 EXTCODESIZE ISZERO JUMPDEST PUSH2 0x47F JUMPI POP POP MLOAD SWAP1 DUP2 MSTORE PUSH32 0x896E034966EAAF1ADC54ACC0F257056FEBBD300C9E47182CF761982CF1F5E430 PUSH1 0x20 CALLER SWAP3 LOG2 DUP1 SSTORE DUP1 RETURN JUMPDEST PUSH1 0x24 SWAP3 MLOAD SWAP2 PUSH4 0x5274AFE7 PUSH1 0xE0 SHL DUP4 MSTORE DUP3 ADD MSTORE REVERT JUMPDEST EQ ISZERO PUSH2 0x44A JUMP JUMPDEST DUP3 MLOAD RETURNDATASIZE DUP8 DUP3 RETURNDATACOPY RETURNDATASIZE SWAP1 REVERT JUMPDEST PUSH4 0x4E487B71 PUSH1 0xE0 SHL DUP10 MSTORE PUSH1 0x41 DUP6 MSTORE PUSH1 0x24 DUP10 REVERT JUMPDEST SWAP1 MLOAD PUSH3 0xF3F861 PUSH1 0xE4 SHL DUP2 MSTORE REVERT JUMPDEST DUP2 DUP4 PUSH2 0x4CF DUP4 PUSH2 0x807 JUMP JUMPDEST POP ADD SLOAD AND ISZERO PUSH2 0x4E7 JUMPI JUMPDEST PUSH2 0x4E2 SWAP1 PUSH2 0x98F JUMP JUMPDEST PUSH2 0x3A8 JUMP JUMPDEST PUSH2 0x4F3 PUSH2 0x176 DUP3 PUSH2 0x807 JUMP JUMPDEST TIMESTAMP LT PUSH2 0x4D9 JUMPI SWAP6 PUSH2 0x521 PUSH2 0x4E2 SWAP2 DUP5 PUSH2 0x50B DUP11 PUSH2 0x807 JUMP JUMPDEST POP ADD DUP1 SLOAD PUSH1 0xFF NOT AND DUP12 OR SWAP1 SSTORE DUP10 PUSH2 0x1B7 DUP11 PUSH2 0x807 JUMP JUMPDEST SWAP7 SWAP1 POP PUSH2 0x4D9 JUMP JUMPDEST SWAP1 POP PUSH1 0x44 SWAP3 MLOAD SWAP2 PUSH4 0xE2517D3F PUSH1 0xE0 SHL DUP4 MSTORE CALLER SWAP1 DUP4 ADD MSTORE PUSH1 0x24 DUP3 ADD MSTORE REVERT JUMPDEST SWAP1 MLOAD PUSH4 0x3EE5AEB5 PUSH1 0xE0 SHL DUP2 MSTORE REVERT JUMPDEST DUP4 DUP4 CALLVALUE PUSH2 0x117 JUMPI PUSH2 0x564 CALLDATASIZE PUSH2 0x7DC JUMP JUMPDEST SWAP2 CALLER PUSH1 0x1 PUSH1 0x1 PUSH1 0xA0 SHL SUB DUP5 AND SUB PUSH2 0x580 JUMPI POP SWAP1 PUSH2 0x21B SWAP2 PUSH2 0x91A JUMP JUMPDEST MLOAD PUSH4 0x334BD919 PUSH1 0xE1 SHL DUP2 MSTORE DUP5 SWAP1 REVERT JUMPDEST POP POP CALLVALUE PUSH2 0x117 JUMPI PUSH1 0x1 PUSH2 0x21B SWAP2 PUSH2 0x5A8 PUSH2 0x203 CALLDATASIZE PUSH2 0x7DC JUMP JUMPDEST PUSH2 0x89C JUMP JUMPDEST POP POP CALLVALUE PUSH2 0x117 JUMPI DUP2 PUSH1 0x3 NOT CALLDATASIZE ADD SLT PUSH2 0x117 JUMPI PUSH1 0x20 SWAP1 PUSH1 0x3 SLOAD SWAP1 MLOAD SWAP1 DUP2 MSTORE RETURN JUMPDEST POP POP CALLVALUE PUSH2 0x117 JUMPI DUP2 PUSH1 0x3 NOT CALLDATASIZE ADD SLT PUSH2 0x117 JUMPI PUSH1 0x2 SWAP2 DUP3 SLOAD SWAP1 PUSH2 0x5ED DUP3 PUSH2 0xA11 JUMP JUMPDEST SWAP3 PUSH2 0x5F7 DUP4 PUSH2 0xA11 JUMP JUMPDEST PUSH2 0x600 DUP5 PUSH2 0x9F9 JUMP JUMPDEST SWAP1 PUSH2 0x60D DUP4 MLOAD SWAP3 DUP4 PUSH2 0x9C1 JUMP JUMPDEST DUP5 DUP3 MSTORE PUSH2 0x619 DUP6 PUSH2 0x9F9 JUMP JUMPDEST PUSH1 0x20 SWAP8 DUP4 DUP10 ADD SWAP7 SWAP2 PUSH1 0x1F NOT ADD CALLDATASIZE DUP9 CALLDATACOPY PUSH32 0x0 DUP7 JUMPDEST DUP4 DUP2 LT PUSH2 0x6B9 JUMPI POP POP POP POP SWAP6 DUP1 SWAP2 PUSH2 0x680 PUSH2 0x673 SWAP9 DUP6 MLOAD SWAP10 DUP11 SWAP10 PUSH1 0x60 DUP12 MSTORE PUSH1 0x60 DUP12 ADD SWAP1 PUSH2 0x7A8 JUMP JUMPDEST SWAP1 DUP10 DUP3 SUB DUP6 DUP12 ADD MSTORE PUSH2 0x7A8 JUMP JUMPDEST SWAP4 DUP8 DUP6 SUB SWAP1 DUP9 ADD MSTORE MLOAD SWAP3 DUP4 DUP2 MSTORE ADD SWAP4 SWAP3 JUMPDEST DUP3 DUP2 LT PUSH2 0x6A0 JUMPI POP POP POP POP SUB SWAP1 RETURN JUMPDEST DUP4 MLOAD ISZERO ISZERO DUP6 MSTORE DUP7 SWAP6 POP SWAP4 DUP2 ADD SWAP4 SWAP3 DUP2 ADD SWAP3 PUSH1 0x1 ADD PUSH2 0x691 JUMP JUMPDEST DUP1 DUP11 PUSH2 0x6E2 DUP3 PUSH2 0x6DC SWAP14 SWAP15 SWAP12 SWAP11 SWAP13 SWAP14 PUSH2 0x6D4 PUSH2 0x720 SWAP7 PUSH2 0x807 JUMP JUMPDEST POP SLOAD DUP8 PUSH2 0x9B4 JUMP JUMPDEST SWAP3 PUSH2 0xA43 JUMP JUMPDEST MSTORE PUSH1 0x1 PUSH2 0x6EE DUP3 PUSH2 0x807 JUMP JUMPDEST POP ADD SLOAD PUSH2 0x6FB DUP3 DUP9 PUSH2 0xA43 JUMP JUMPDEST MSTORE PUSH1 0xFF DUP5 PUSH2 0x708 DUP4 PUSH2 0x807 JUMP JUMPDEST POP ADD SLOAD AND PUSH2 0x716 DUP3 DUP10 PUSH2 0xA43 JUMP JUMPDEST SWAP1 ISZERO ISZERO SWAP1 MSTORE PUSH2 0x98F JUMP JUMPDEST SWAP10 SWAP9 SWAP8 SWAP6 SWAP7 SWAP10 PUSH2 0x64B JUMP JUMPDEST SWAP1 POP CALLVALUE PUSH2 0x1E6 JUMPI PUSH1 0x20 CALLDATASIZE PUSH1 0x3 NOT ADD SLT PUSH2 0x1E6 JUMPI DUP2 PUSH1 0x20 SWAP4 PUSH1 0x1 SWAP3 CALLDATALOAD DUP2 MSTORE DUP1 DUP6 MSTORE KECCAK256 ADD SLOAD SWAP1 MLOAD SWAP1 DUP2 MSTORE RETURN JUMPDEST DUP5 SWAP2 CALLVALUE PUSH2 0x1E6 JUMPI PUSH1 0x20 CALLDATASIZE PUSH1 0x3 NOT ADD SLT PUSH2 0x1E6 JUMPI CALLDATALOAD PUSH4 0xFFFFFFFF PUSH1 0xE0 SHL DUP2 AND DUP1 SWAP2 SUB PUSH2 0x1E6 JUMPI PUSH1 0x20 SWAP3 POP PUSH4 0x7965DB0B PUSH1 0xE0 SHL DUP2 EQ SWAP1 DUP2 ISZERO PUSH2 0x797 JUMPI JUMPDEST POP ISZERO ISZERO DUP2 MSTORE RETURN JUMPDEST PUSH4 0x1FFC9A7 PUSH1 0xE0 SHL EQ SWAP1 POP DUP4 PUSH2 0x790 JUMP JUMPDEST SWAP1 DUP2 MLOAD DUP1 DUP3 MSTORE PUSH1 0x20 DUP1 DUP1 SWAP4 ADD SWAP4 ADD SWAP2 PUSH1 0x0 JUMPDEST DUP3 DUP2 LT PUSH2 0x7C8 JUMPI POP POP POP POP SWAP1 JUMP JUMPDEST DUP4 MLOAD DUP6 MSTORE SWAP4 DUP2 ADD SWAP4 SWAP3 DUP2 ADD SWAP3 PUSH1 0x1 ADD PUSH2 0x7BA JUMP JUMPDEST PUSH1 0x40 SWAP1 PUSH1 0x3 NOT ADD SLT PUSH2 0x802 JUMPI PUSH1 0x4 CALLDATALOAD SWAP1 PUSH1 0x24 CALLDATALOAD PUSH1 0x1 PUSH1 0x1 PUSH1 0xA0 SHL SUB DUP2 AND DUP2 SUB PUSH2 0x802 JUMPI SWAP1 JUMP JUMPDEST PUSH1 0x0 DUP1 REVERT JUMPDEST PUSH1 0x2 SLOAD DUP2 LT ISZERO PUSH2 0x842 JUMPI PUSH1 0x3 SWAP1 PUSH1 0x2 PUSH1 0x0 MSTORE MUL PUSH32 0x405787FA12A823E0F2B7631CC41B3BA8828B3321CA811111FA75CD3AA3BB5ACE ADD SWAP1 PUSH1 0x0 SWAP1 JUMP JUMPDEST PUSH4 0x4E487B71 PUSH1 0xE0 SHL PUSH1 0x0 MSTORE PUSH1 0x32 PUSH1 0x4 MSTORE PUSH1 0x24 PUSH1 0x0 REVERT JUMPDEST DUP1 PUSH1 0x0 MSTORE PUSH1 0x0 PUSH1 0x20 MSTORE PUSH1 0x40 PUSH1 0x0 KECCAK256 CALLER PUSH1 0x0 MSTORE PUSH1 0x20 MSTORE PUSH1 0xFF PUSH1 0x40 PUSH1 0x0 KECCAK256 SLOAD AND ISZERO PUSH2 0x87E JUMPI POP JUMP JUMPDEST PUSH1 0x44 SWAP1 PUSH1 0x40 MLOAD SWAP1 PUSH4 0xE2517D3F PUSH1 0xE0 SHL DUP3 MSTORE CALLER PUSH1 0x4 DUP4 ADD MSTORE PUSH1 0x24 DUP3 ADD MSTORE REVERT JUMPDEST SWAP1 PUSH1 0x0 SWAP2 DUP1 DUP4 MSTORE DUP3 PUSH1 0x20 MSTORE PUSH1 0x40 DUP4 KECCAK256 SWAP2 PUSH1 0x1 DUP1 PUSH1 0xA0 SHL SUB AND SWAP2 DUP3 DUP5 MSTORE PUSH1 0x20 MSTORE PUSH1 0xFF PUSH1 0x40 DUP5 KECCAK256 SLOAD AND ISZERO PUSH1 0x0 EQ PUSH2 0x915 JUMPI DUP1 DUP4 MSTORE DUP3 PUSH1 0x20 MSTORE PUSH1 0x40 DUP4 KECCAK256 DUP3 DUP5 MSTORE PUSH1 0x20 MSTORE PUSH1 0x40 DUP4 KECCAK256 PUSH1 0x1 PUSH1 0xFF NOT DUP3 SLOAD AND OR SWAP1 SSTORE PUSH32 0x2F8788117E7EFF1D82E926EC794901D17C78024A50270940304540A733656F0D CALLER SWAP4 DUP1 LOG4 PUSH1 0x1 SWAP1 JUMP JUMPDEST POP POP SWAP1 JUMP JUMPDEST SWAP1 PUSH1 0x0 SWAP2 DUP1 DUP4 MSTORE DUP3 PUSH1 0x20 MSTORE PUSH1 0x40 DUP4 KECCAK256 SWAP2 PUSH1 0x1 DUP1 PUSH1 0xA0 SHL SUB AND SWAP2 DUP3 DUP5 MSTORE PUSH1 0x20 MSTORE PUSH1 0xFF PUSH1 0x40 DUP5 KECCAK256 SLOAD AND PUSH1 0x0 EQ PUSH2 0x915 JUMPI DUP1 DUP4 MSTORE DUP3 PUSH1 0x20 MSTORE PUSH1 0x40 DUP4 KECCAK256 DUP3 DUP5 MSTORE PUSH1 0x20 MSTORE PUSH1 0x40 DUP4 KECCAK256 PUSH1 0xFF NOT DUP2 SLOAD AND SWAP1 SSTORE PUSH32 0xF6391F5C32D9C69D2A47EA670B442974B53935D1EDC7FD64EB21E047A839171B CALLER SWAP4 DUP1 LOG4 PUSH1 0x1 SWAP1 JUMP JUMPDEST PUSH1 0x0 NOT DUP2 EQ PUSH2 0x99E JUMPI PUSH1 0x1 ADD SWAP1 JUMP JUMPDEST PUSH4 0x4E487B71 PUSH1 0xE0 SHL PUSH1 0x0 MSTORE PUSH1 0x11 PUSH1 0x4 MSTORE PUSH1 0x24 PUSH1 0x0 REVERT JUMPDEST SWAP2 SWAP1 DUP3 ADD DUP1 SWAP3 GT PUSH2 0x99E JUMPI JUMP JUMPDEST SWAP1 PUSH1 0x1F DUP1 NOT SWAP2 ADD AND DUP2 ADD SWAP1 DUP2 LT PUSH8 0xFFFFFFFFFFFFFFFF DUP3 GT OR PUSH2 0x9E3 JUMPI PUSH1 0x40 MSTORE JUMP JUMPDEST PUSH4 0x4E487B71 PUSH1 0xE0 SHL PUSH1 0x0 MSTORE PUSH1 0x41 PUSH1 0x4 MSTORE PUSH1 0x24 PUSH1 0x0 REVERT JUMPDEST PUSH8 0xFFFFFFFFFFFFFFFF DUP2 GT PUSH2 0x9E3 JUMPI PUSH1 0x5 SHL PUSH1 0x20 ADD SWAP1 JUMP JUMPDEST SWAP1 PUSH2 0xA1B DUP3 PUSH2 0x9F9 JUMP JUMPDEST PUSH2 0xA28 PUSH1 0x40 MLOAD SWAP2 DUP3 PUSH2 0x9C1 JUMP JUMPDEST DUP3 DUP2 MSTORE DUP1 SWAP3 PUSH2 0xA39 PUSH1 0x1F NOT SWAP2 PUSH2 0x9F9 JUMP JUMPDEST ADD SWAP1 PUSH1 0x20 CALLDATASIZE SWAP2 ADD CALLDATACOPY JUMP JUMPDEST DUP1 MLOAD DUP3 LT ISZERO PUSH2 0x842 JUMPI PUSH1 0x20 SWAP2 PUSH1 0x5 SHL ADD ADD SWAP1 JUMP INVALID LOG2 PUSH5 0x6970667358 0x22 SLT KECCAK256 0xAB 0xD 0xBA 0xD7 BALANCE 0x4E PUSH20 0xD77BF03DF8EDAC5C8D9B05024F87D1F2E40E2234 0xAA SWAP10 PUSH1 0x61 DIV PUSH5 0x736F6C6343 STOP ADDMOD EQ STOP CALLER 0x2F DUP8 DUP9 GT PUSH31 0x7EFF1D82E926EC794901D17C78024A50270940304540A733656F0DA2646970 PUSH7 0x73582212208EEC MSTORE 0xCF 0x2F 0xA5 0xE5 0x22 JUMPI STOP 0xD0 0xFC PUSH27 0xBB69775A9C9AFD27994FBAB39488E64B2C03F264736F6C63430008 EQ STOP CALLER 0x2F DUP8 DUP9 GT PUSH31 0x7EFF1D82E926EC794901D17C78024A50270940304540A733656F0D00000000 "},"methodIdentifiers":{"DEFAULT_ADMIN_ROLE()":"a217fddf","DEPLOYMENT_FEE()":"a8f32251","FACTORY_ADMIN_ROLE()":"3360cf5e","adminExecutor()":"1d1b49d3","createFairlaunch((address,address,uint256,uint256,uint256,uint256,uint256,uint256,address,uint16),(address,uint256,uint256[],uint256[]),(uint256,uint256,bytes32))":"47fce119","fairlaunchCount()":"9e1f288e","fairlaunchToLPPlan(address)":"a186d14f","fairlaunchToVesting(address)":"e0fe61fe","fairlaunches(uint256)":"e249cbec","feeSplitter()":"6052970c","getFairlaunchDetails(uint256)":"5148695f","getRoleAdmin(bytes32)":"248a9ca3","grantRole(bytes32,address)":"2f2ff15d","hasRole(bytes32,address)":"91d14854","renounceRole(bytes32,address)":"36568abe","revokeRole(bytes32,address)":"d547741f","supportsInterface(bytes4)":"01ffc9a7","treasuryWallet()":"4626402b"}}}}}