{"contracts/fairlaunch/Fairlaunch.sol":{"Fairlaunch":{"abi":[{"inputs":[{"internalType":"address","name":"_projectToken","type":"address"},{"internalType":"address","name":"_paymentToken","type":"address"},{"internalType":"uint256","name":"_softcap","type":"uint256"},{"internalType":"uint256","name":"_tokensForSale","type":"uint256"},{"internalType":"uint256","name":"_minContribution","type":"uint256"},{"internalType":"uint256","name":"_maxContribution","type":"uint256"},{"internalType":"uint256","name":"_startTime","type":"uint256"},{"internalType":"uint256","name":"_endTime","type":"uint256"},{"internalType":"uint16","name":"_listingPremiumBps","type":"uint16"},{"internalType":"address","name":"_feeSplitter","type":"address"},{"internalType":"address","name":"_teamVesting","type":"address"},{"internalType":"address","name":"_projectOwner","type":"address"},{"internalType":"address","name":"_adminExecutor","type":"address"},{"internalType":"uint256","name":"_liquidityPercent","type":"uint256"},{"internalType":"uint256","name":"_lpLockMonths","type":"uint256"},{"internalType":"bytes32","name":"_dexId","type":"bytes32"}],"stateMutability":"nonpayable","type":"constructor"},{"inputs":[],"name":"AccessControlBadConfirmation","type":"error"},{"inputs":[{"internalType":"address","name":"account","type":"address"},{"internalType":"bytes32","name":"neededRole","type":"bytes32"}],"name":"AccessControlUnauthorizedAccount","type":"error"},{"inputs":[],"name":"AlreadyClaimed","type":"error"},{"inputs":[],"name":"ContractPaused","type":"error"},{"inputs":[],"name":"ContributionTooHigh","type":"error"},{"inputs":[],"name":"ContributionTooLow","type":"error"},{"inputs":[{"internalType":"bytes","name":"reason","type":"bytes"}],"name":"DexAddLiquidityCallFailed","type":"error"},{"inputs":[{"internalType":"bytes","name":"reason","type":"bytes"}],"name":"FeeSplitterCallFailed","type":"error"},{"inputs":[],"name":"InvalidStatus","type":"error"},{"inputs":[{"internalType":"bytes","name":"reason","type":"bytes"}],"name":"LPLockerCallFailed","type":"error"},{"inputs":[],"name":"NoContribution","type":"error"},{"inputs":[],"name":"NotAuthorized","type":"error"},{"inputs":[],"name":"NothingToRefund","type":"error"},{"inputs":[],"name":"ReentrancyGuardReentrantCall","type":"error"},{"inputs":[{"internalType":"address","name":"token","type":"address"}],"name":"SafeERC20FailedOperation","type":"error"},{"inputs":[],"name":"SoftcapNotMet","type":"error"},{"inputs":[],"name":"TransferFailed","type":"error"},{"anonymous":false,"inputs":[],"name":"Cancelled","type":"event"},{"anonymous":false,"inputs":[{"indexed":true,"internalType":"address","name":"user","type":"address"},{"indexed":false,"internalType":"uint256","name":"amount","type":"uint256"},{"indexed":false,"internalType":"uint256","name":"totalRaised","type":"uint256"}],"name":"Contributed","type":"event"},{"anonymous":false,"inputs":[{"indexed":false,"internalType":"enum Fairlaunch.FinalizeStep","name":"step","type":"uint8"}],"name":"FinalizationStepCompleted","type":"event"},{"anonymous":false,"inputs":[],"name":"FinalizedFail","type":"event"},{"anonymous":false,"inputs":[{"indexed":false,"internalType":"uint256","name":"finalPrice","type":"uint256"},{"indexed":false,"internalType":"uint256","name":"totalRaised","type":"uint256"},{"indexed":false,"internalType":"address","name":"lpToken","type":"address"},{"indexed":false,"internalType":"uint256","name":"lpAmount","type":"uint256"}],"name":"FinalizedSuccess","type":"event"},{"anonymous":false,"inputs":[{"indexed":true,"internalType":"address","name":"lpLocker","type":"address"}],"name":"LPLockerSet","type":"event"},{"anonymous":false,"inputs":[{"indexed":true,"internalType":"address","name":"lpToken","type":"address"},{"indexed":false,"internalType":"uint256","name":"lpAmount","type":"uint256"},{"indexed":false,"internalType":"uint256","name":"unlockTime","type":"uint256"}],"name":"LiquidityAdded","type":"event"},{"anonymous":false,"inputs":[{"indexed":true,"internalType":"address","name":"lpToken","type":"address"},{"indexed":false,"internalType":"uint256","name":"amount","type":"uint256"},{"indexed":false,"internalType":"uint256","name":"unlockTime","type":"uint256"}],"name":"LiquidityLocked","type":"event"},{"anonymous":false,"inputs":[],"name":"Paused","type":"event"},{"anonymous":false,"inputs":[{"indexed":true,"internalType":"address","name":"user","type":"address"},{"indexed":false,"internalType":"uint256","name":"amount","type":"uint256"}],"name":"Refunded","type":"event"},{"anonymous":false,"inputs":[{"indexed":true,"internalType":"bytes32","name":"role","type":"bytes32"},{"indexed":true,"internalType":"bytes32","name":"previousAdminRole","type":"bytes32"},{"indexed":true,"internalType":"bytes32","name":"newAdminRole","type":"bytes32"}],"name":"RoleAdminChanged","type":"event"},{"anonymous":false,"inputs":[{"indexed":true,"internalType":"bytes32","name":"role","type":"bytes32"},{"indexed":true,"internalType":"address","name":"account","type":"address"},{"indexed":true,"internalType":"address","name":"sender","type":"address"}],"name":"RoleGranted","type":"event"},{"anonymous":false,"inputs":[{"indexed":true,"internalType":"bytes32","name":"role","type":"bytes32"},{"indexed":true,"internalType":"address","name":"account","type":"address"},{"indexed":true,"internalType":"address","name":"sender","type":"address"}],"name":"RoleRevoked","type":"event"},{"anonymous":false,"inputs":[{"indexed":true,"internalType":"address","name":"user","type":"address"},{"indexed":false,"internalType":"uint256","name":"amount","type":"uint256"}],"name":"TokensClaimed","type":"event"},{"anonymous":false,"inputs":[],"name":"Unpaused","type":"event"},{"inputs":[],"name":"ADMIN_ROLE","outputs":[{"internalType":"bytes32","name":"","type":"bytes32"}],"stateMutability":"view","type":"function"},{"inputs":[],"name":"DEFAULT_ADMIN_ROLE","outputs":[{"internalType":"bytes32","name":"","type":"bytes32"}],"stateMutability":"view","type":"function"},{"inputs":[{"internalType":"uint256","name":"tokenAmount","type":"uint256"},{"internalType":"uint256","name":"fundAmount","type":"uint256"}],"name":"__addLiquidityExternal","outputs":[{"internalType":"address","name":"lpToken","type":"address"}],"stateMutability":"nonpayable","type":"function"},{"inputs":[],"name":"adminAddLiquidity","outputs":[],"stateMutability":"nonpayable","type":"function"},{"inputs":[],"name":"adminDistributeFee","outputs":[],"stateMutability":"nonpayable","type":"function"},{"inputs":[],"name":"adminDistributeFunds","outputs":[],"stateMutability":"nonpayable","type":"function"},{"inputs":[],"name":"adminLockLP","outputs":[],"stateMutability":"nonpayable","type":"function"},{"inputs":[],"name":"cancel","outputs":[],"stateMutability":"nonpayable","type":"function"},{"inputs":[],"name":"claimTokens","outputs":[],"stateMutability":"nonpayable","type":"function"},{"inputs":[],"name":"contribute","outputs":[],"stateMutability":"payable","type":"function"},{"inputs":[{"internalType":"uint256","name":"amount","type":"uint256"}],"name":"contributeERC20","outputs":[],"stateMutability":"nonpayable","type":"function"},{"inputs":[{"internalType":"address","name":"","type":"address"}],"name":"contributions","outputs":[{"internalType":"uint256","name":"","type":"uint256"}],"stateMutability":"view","type":"function"},{"inputs":[],"name":"dexId","outputs":[{"internalType":"bytes32","name":"","type":"bytes32"}],"stateMutability":"view","type":"function"},{"inputs":[],"name":"dexRouter","outputs":[{"internalType":"contract IUniswapV2Router02","name":"","type":"address"}],"stateMutability":"view","type":"function"},{"inputs":[],"name":"endTime","outputs":[{"internalType":"uint256","name":"","type":"uint256"}],"stateMutability":"view","type":"function"},{"inputs":[],"name":"feeSplitter","outputs":[{"internalType":"address","name":"","type":"address"}],"stateMutability":"view","type":"function"},{"inputs":[],"name":"finalTokenPrice","outputs":[{"internalType":"uint256","name":"","type":"uint256"}],"stateMutability":"view","type":"function"},{"inputs":[],"name":"finalize","outputs":[],"stateMutability":"nonpayable","type":"function"},{"inputs":[],"name":"finalizeStep","outputs":[{"internalType":"enum Fairlaunch.FinalizeStep","name":"","type":"uint8"}],"stateMutability":"view","type":"function"},{"inputs":[],"name":"getFinalPrice","outputs":[{"internalType":"uint256","name":"","type":"uint256"}],"stateMutability":"view","type":"function"},{"inputs":[{"internalType":"bytes32","name":"role","type":"bytes32"}],"name":"getRoleAdmin","outputs":[{"internalType":"bytes32","name":"","type":"bytes32"}],"stateMutability":"view","type":"function"},{"inputs":[],"name":"getStatus","outputs":[{"internalType":"enum Fairlaunch.Status","name":"","type":"uint8"}],"stateMutability":"view","type":"function"},{"inputs":[{"internalType":"address","name":"user","type":"address"}],"name":"getUserAllocation","outputs":[{"internalType":"uint256","name":"","type":"uint256"}],"stateMutability":"view","type":"function"},{"inputs":[{"internalType":"address","name":"user","type":"address"}],"name":"getUserContribution","outputs":[{"internalType":"uint256","name":"","type":"uint256"}],"stateMutability":"view","type":"function"},{"inputs":[{"internalType":"bytes32","name":"role","type":"bytes32"},{"internalType":"address","name":"account","type":"address"}],"name":"grantRole","outputs":[],"stateMutability":"nonpayable","type":"function"},{"inputs":[{"internalType":"address","name":"","type":"address"}],"name":"hasClaimed","outputs":[{"internalType":"bool","name":"","type":"bool"}],"stateMutability":"view","type":"function"},{"inputs":[{"internalType":"bytes32","name":"role","type":"bytes32"},{"internalType":"address","name":"account","type":"address"}],"name":"hasRole","outputs":[{"internalType":"bool","name":"","type":"bool"}],"stateMutability":"view","type":"function"},{"inputs":[],"name":"isFinalized","outputs":[{"internalType":"bool","name":"","type":"bool"}],"stateMutability":"view","type":"function"},{"inputs":[],"name":"isPaused","outputs":[{"internalType":"bool","name":"","type":"bool"}],"stateMutability":"view","type":"function"},{"inputs":[],"name":"liquidityPercent","outputs":[{"internalType":"uint256","name":"","type":"uint256"}],"stateMutability":"view","type":"function"},{"inputs":[],"name":"listingPremiumBps","outputs":[{"internalType":"uint16","name":"","type":"uint16"}],"stateMutability":"view","type":"function"},{"inputs":[],"name":"lpLockMonths","outputs":[{"internalType":"uint256","name":"","type":"uint256"}],"stateMutability":"view","type":"function"},{"inputs":[],"name":"lpLocker","outputs":[{"internalType":"contract ILPLocker","name":"","type":"address"}],"stateMutability":"view","type":"function"},{"inputs":[],"name":"lpLockerAddress","outputs":[{"internalType":"address","name":"","type":"address"}],"stateMutability":"view","type":"function"},{"inputs":[],"name":"lpTokenAddress","outputs":[{"internalType":"address","name":"","type":"address"}],"stateMutability":"view","type":"function"},{"inputs":[],"name":"maxContribution","outputs":[{"internalType":"uint256","name":"","type":"uint256"}],"stateMutability":"view","type":"function"},{"inputs":[],"name":"minContribution","outputs":[{"internalType":"uint256","name":"","type":"uint256"}],"stateMutability":"view","type":"function"},{"inputs":[],"name":"participantCount","outputs":[{"internalType":"uint256","name":"","type":"uint256"}],"stateMutability":"view","type":"function"},{"inputs":[],"name":"pause","outputs":[],"stateMutability":"nonpayable","type":"function"},{"inputs":[],"name":"paymentToken","outputs":[{"internalType":"address","name":"","type":"address"}],"stateMutability":"view","type":"function"},{"inputs":[],"name":"projectOwner","outputs":[{"internalType":"address","name":"","type":"address"}],"stateMutability":"view","type":"function"},{"inputs":[],"name":"projectToken","outputs":[{"internalType":"address","name":"","type":"address"}],"stateMutability":"view","type":"function"},{"inputs":[],"name":"refund","outputs":[],"stateMutability":"nonpayable","type":"function"},{"inputs":[{"internalType":"bytes32","name":"role","type":"bytes32"},{"internalType":"address","name":"callerConfirmation","type":"address"}],"name":"renounceRole","outputs":[],"stateMutability":"nonpayable","type":"function"},{"inputs":[{"internalType":"bytes32","name":"role","type":"bytes32"},{"internalType":"address","name":"account","type":"address"}],"name":"revokeRole","outputs":[],"stateMutability":"nonpayable","type":"function"},{"inputs":[{"internalType":"address","name":"_lpLocker","type":"address"}],"name":"setLPLocker","outputs":[],"stateMutability":"nonpayable","type":"function"},{"inputs":[],"name":"softcap","outputs":[{"internalType":"uint256","name":"","type":"uint256"}],"stateMutability":"view","type":"function"},{"inputs":[],"name":"startTime","outputs":[{"internalType":"uint256","name":"","type":"uint256"}],"stateMutability":"view","type":"function"},{"inputs":[],"name":"status","outputs":[{"internalType":"enum Fairlaunch.Status","name":"","type":"uint8"}],"stateMutability":"view","type":"function"},{"inputs":[{"internalType":"bytes4","name":"interfaceId","type":"bytes4"}],"name":"supportsInterface","outputs":[{"internalType":"bool","name":"","type":"bool"}],"stateMutability":"view","type":"function"},{"inputs":[],"name":"teamVesting","outputs":[{"internalType":"address","name":"","type":"address"}],"stateMutability":"view","type":"function"},{"inputs":[],"name":"tokensForSale","outputs":[{"internalType":"uint256","name":"","type":"uint256"}],"stateMutability":"view","type":"function"},{"inputs":[],"name":"totalRaised","outputs":[{"internalType":"uint256","name":"","type":"uint256"}],"stateMutability":"view","type":"function"},{"inputs":[],"name":"unpause","outputs":[],"stateMutability":"nonpayable","type":"function"}],"evm":{"bytecode":{"linkReferences":{},"object":"34620003b65762002ec638819003610280601f8201601f19168101906001600160401b03821190821017620003bb576102009282916040526102803912620003b6576200004e610280620003d1565b6200005b6102a0620003d1565b6102c0516102e051610300516103205161034051610360516103805195979590949392919061ffff81168103620003b65762000167956200009e6103a0620003d1565b92620000ac6103c0620003d1565b94620000ba6103e0620003d1565b96620000c8610400620003d1565b6104205161044051610460516001805560809e909e5260a09e909e5260c09e909e5260e09990995261010052610120526101405261016052610180526101a0526101c0526101e0526102209485526102409384526102609283526002805460ff60a01b19169055600046603803620002ec57507310ed43c718714eb63d5aa57b78b54704e256024e5b610200526200016081620003e6565b5062000466565b506040519161299d9384620005098539608051848181610c6f01528181610d5a0152818161102401526126bc015260a051848181610387015281816108d501528181610b5d01528181610ef40152818161109401528181611eb60152612571015260c05184818161028a01528181611c0c0152611d1f015260e051848181610d0a0152818161165401528181611ff1015281816126fd015261290d0152610100518481816106900152611a9b0152610120518481816107df0152611ae50152610140518481816109910152818161281501526128a5015261016051848181610ebc015281816127eb015261287b01526101805184818161169201526120e601526101a051848181610a8601528181611edf0152611fa401526101c051848181610a42015261254701526101e0518481816106c80152818161232d015281816125a0015261267d015261020051848181610ff001526116cb0152518381816105fd015281816120b7015261251001525182818161081a015261226d015251816115ef0152f35b4660610362000311575073d99d1c33f9fc3444f8101754abc46c52416550d162000151565b46600103620003365750737a250d5630b4cf539739df2c5dacb4c659f2488d62000151565b4662aa36a7036200035d575073ee567fe1712faf6149d80da1e6934e354124cfe362000151565b6121054614908115620003a8575b50156200038d57734752ba5dbc23f44d87826276bf6fd6b1c372ad2462000151565b737a250d5630b4cf539739df2c5dacb4c659f2488d62000151565b4662014a341491506200036b565b600080fd5b634e487b7160e01b600052604160045260246000fd5b51906001600160a01b0382168203620003b657565b6001600160a01b031660008181527fad3228b676f7d3cd4284a5443f17f1962b36e491b30a40b2405849e597ba5fb5602052604081205490919060ff166200046257818052816020526040822081835260205260408220600160ff19825416179055339160008051602062002ea68339815191528180a4600190565b5090565b6001600160a01b031660008181527f7d7ffb7a348e1c6a02869081a26547b49160dd3df72d1d75a570eb9b698292ec60205260408120549091907fa49807205ce4d355092ef5a8a18f56e8913cf4a201fbe287825b095693c217759060ff166200050357808352826020526040832082845260205260408320600160ff1982541617905560008051602062002ea6833981519152339380a4600190565b50509056fe6040608081526004908136101561001557600080fd5b600091823560e01c908162c3702d1461175057816301ffc9a7146116fa57816303fc20131461083d5781630758d924146116b65781630b7c1ae11461167757816312aef8c31461163c5781631cc645441461073e578163200d2ed214611612578163220c0956146115d7578163224e93fe14610fb9578163248a9ca314610f8f5781632c51c7e014610f4d5781632f2ff15d14610f235781633013ce2914610edf5781633197cbb614610ea4578163362f04c014610e8657816336568abe14610e405781633f4ba83a14610df557816342e94c901461042357816348c54b9d14610c9e5781634b60ce7714610c5a5781634bb278f314610c395781634e69d56014610c0c578163590e1ae314610afa5781635d49dff414610ab55781636052970c14610a71578163619f3d6c14610a2d57816373b2e80e146109ef57816375b238fc146109b457816378e97925146109795781638160059a146108b55781638456cb591461086657816389dda6a01461083d5781638bcd8515146108025781638d3d6576146107c75781638d4e4083146107a357816391d148541461075d5781639ce05df71461073e5781639e014fd514610712578163a217fddf146106f7578163a4475ce4146106b3578163aaffadf314610678578163af1a9cab14610620578163b0683755146105e5578163b187bd26146105be578163b524f87b14610488578163b920ade21461045b578163bb8b2b4714610423578163c5c4744c14610404578163d547741f146103c5578163d7bb99ba1461036f578163ea8a1af0146102dd57508063f5ae497a146102b15763f89be5931461027457600080fd5b346102ad57816003193601126102ad57602090517f00000000000000000000000000000000000000000000000000000000000000008152f35b5080fd5b50346102ad57816003193601126102ad57600654905160189190911c6001600160a01b03168152602090f35b90503461036b578260031936011261036b576102f76117ef565b6002549160ff8360a01c1660068110156103585760031461034b57505060ff60a01b1916600560a01b176002557f63b958841f79ab97cb5456da181454b9932c0e15a3b17f1cbd27e2a8bc6104378180a180f35b516307a92f1960e51b8152fd5b634e487b7160e01b855260218352602485fd5b8280fd5b9190508260031936011261036b57610385611982565b7f00000000000000000000000000000000000000000000000000000000000000006001600160a01b031661034b57826103be3433611a68565b6001805580f35b9190503461036b578060031936011261036b5761040091356103fb60016103ea6117be565b938387528660205286200154611869565b61190d565b5080f35b5050346102ad57816003193601126102ad576020906003549051908152f35b5050346102ad5760203660031901126102ad5760209181906001600160a01b0361044b6117d9565b1681526007845220549051908152f35b5050346102ad5760203660031901126102ad5760209061048161047c6117d9565b6128cc565b9051908152f35b839150346102ad5760203660031901126102ad576104a46117d9565b6104ac6117ef565b600254906001600160a01b03908183166105835760ff6006541661054c571691821561050957506001600160a01b03191681176002557ff3e056d0219310a4e47c749671cfbc8607538f3327bb8c6bf872a1119b622d2f8280a280f35b606490602086519162461bcd60e51b8352820152601960248201527f496e76616c6964204c50204c6f636b65722061646472657373000000000000006044820152fd5b855162461bcd60e51b81526020818601526011602482015270105b1c9958591e48199a5b985b1a5e9959607a1b6044820152606490fd5b855162461bcd60e51b81526020818601526015602482015274131408131bd8dad95c88185b1c9958591e481cd95d605a1b6044820152606490fd5b5050346102ad57816003193601126102ad5760209060ff60065460081c1690519015158152f35b5050346102ad57816003193601126102ad57602090517f00000000000000000000000000000000000000000000000000000000000000008152f35b9190503461036b578260031936011261036b5761063b611982565b6106436117ef565b60ff60065460101c1660058110156106655760010361034b57826103be61208b565b634e487b7160e01b845260218352602484fd5b5050346102ad57816003193601126102ad57602090517f00000000000000000000000000000000000000000000000000000000000000008152f35b5050346102ad57816003193601126102ad57517f00000000000000000000000000000000000000000000000000000000000000006001600160a01b03168152602090f35b5050346102ad57816003193601126102ad5751908152602090f35b833461073b578060031936011261073b5761072b611982565b6107336117ef565b6103be611d00565b80fd5b5050346102ad57816003193601126102ad576020906005549051908152f35b90503461036b578160031936011261036b578160209360ff9261077e6117be565b903582528186528282206001600160a01b039091168252855220549151911615158152f35b5050346102ad57816003193601126102ad5760209060ff6006541690519015158152f35b5050346102ad57816003193601126102ad57602090517f00000000000000000000000000000000000000000000000000000000000000008152f35b5050346102ad57816003193601126102ad57602090517f00000000000000000000000000000000000000000000000000000000000000008152f35b5050346102ad57816003193601126102ad5760025490516001600160a01b039091168152602090f35b833461073b578060031936011261073b5761087f6117ef565b61010061ff001960065416176006557f9e87fac88ff661f02d44f95383c817fece4bce600a3dab7a54406878b965e7528180a180f35b8383346102ad5760203660031901126102ad578235906108d3611982565b7f00000000000000000000000000000000000000000000000000000000000000006001600160a01b031680156109695781516323b872dd60e01b6020820152336024820152306044820152606480820185905281529160a083019067ffffffffffffffff82118483101761095657526103be9291610950916119dd565b33611a68565b634e487b7160e01b865260418752602486fd5b81516307a92f1960e51b81528590fd5b5050346102ad57816003193601126102ad57602090517f00000000000000000000000000000000000000000000000000000000000000008152f35b5050346102ad57816003193601126102ad57602090517fa49807205ce4d355092ef5a8a18f56e8913cf4a201fbe287825b095693c217758152f35b5050346102ad5760203660031901126102ad5760209160ff9082906001600160a01b03610a1a6117d9565b1681526008855220541690519015158152f35b5050346102ad57816003193601126102ad57517f00000000000000000000000000000000000000000000000000000000000000006001600160a01b03168152602090f35b5050346102ad57816003193601126102ad57517f00000000000000000000000000000000000000000000000000000000000000006001600160a01b03168152602090f35b9190503461036b578260031936011261036b57610ad0611982565b610ad86117ef565b60ff60065460101c1660058110156106655760020361034b57826103be612214565b9190503461036b578260031936011261036b57610b15611982565b60ff60025460a01c16600681101561066557828114159081610c00575b5061034b5733835260076020528083205415610bf357338352600760205280832080549084905591827f00000000000000000000000000000000000000000000000000000000000000006001600160a01b031680610be257508480808093335af1610b9b611dfe565b5015610bd457505b519081527fd7dee2702d63ad89917b6a4da9981c90c4d24f8c2bdfd64c604ecae57d8d065160203392a26001805580f35b90516312171d8360e31b8152fd5b610bee9250339061201e565b610ba3565b5163f76aef6560e01b8152fd5b60059150141538610b32565b5050346102ad57816003193601126102ad57610c3590610c2a61283c565b905191829182611795565b0390f35b833461073b578060031936011261073b57610c52611982565b6103be611bda565b5050346102ad57816003193601126102ad57517f00000000000000000000000000000000000000000000000000000000000000006001600160a01b03168152602090f35b90503461036b578260031936011261036b57610cb8611982565b60ff60025460a01c166006811015610de257600303610dd45733835260076020528183205415610dc657338352600860205260ff8284205416610db857503382526007602052610d38610d2f828420547f000000000000000000000000000000000000000000000000000000000000000090611dcb565b60035490611dde565b338084526008602052828420805460ff19166001179055909190610d879083907f00000000000000000000000000000000000000000000000000000000000000006001600160a01b031661201e565b519081527f896e034966eaaf1adc54acc0f257056febbd300c9e47182cf761982cf1f5e43060203392a26001805580f35b9051630c8d9eab60e31b8152fd5b9051631971fbf360e21b8152fd5b90516307a92f1960e51b8152fd5b634e487b7160e01b845260218252602484fd5b833461073b578060031936011261073b57610e0e6117ef565b61ff0019600654166006557fa45f47fdea8a1efdd9029a5691c7f759c32b7c698632b563573e155625d169338180a180f35b8383346102ad57806003193601126102ad57610e5a6117be565b90336001600160a01b03831603610e77575061040091923561190d565b5163334bd91960e11b81528390fd5b90503461036b578260031936011261036b5760209250549051908152f35b5050346102ad57816003193601126102ad57602090517f00000000000000000000000000000000000000000000000000000000000000008152f35b5050346102ad57816003193601126102ad57517f00000000000000000000000000000000000000000000000000000000000000006001600160a01b03168152602090f35b9190503461036b578060031936011261036b576104009135610f4860016103ea6117be565b61188f565b8383346102ad57816003193601126102ad5760ff60065460101c169051916005821015610f7c57602083838152f35b634e487b7160e01b815260218452602490fd5b90503461036b57602036600319011261036b57816020936001923581528085522001549051908152f35b82843461073b578160031936011261073b57823590602435933033036115c957835163095ea7b360e01b8082526001600160a01b037f0000000000000000000000000000000000000000000000000000000000000000811684840181815260208082018990529992977f0000000000000000000000000000000000000000000000000000000000000000808a16979096909493928c908290819060400103818c8c5af1801561131e576115ac575b50895163c45a015560e01b81528b818681865afa90811561131e57908a918a9161158f575b5016948a8c8a7f0000000000000000000000000000000000000000000000000000000000000000938d85169384156000146113285794505050505051966315ab88c960e31b88528b888681865afa97881561131e5789986112ff575b508a5163e6a4390560e01b8082526001600160a01b03808a16888401908152908b166020820152909591908e908290819060400103818b5afa9081156112d8578a8f918f938f8f92908e928d9285916112e2575b50161561126b575b50505050505061012c420193844211611258579160c491606094938e51968795869463f305d71960e01b86528b86015260248501528d60448501528d606485015230608485015260a48401525af1801561124e57908a9594939291611220575b5088519081526001600160a01b0393841691810191825294909216602083015283918290819060400103915afa91821561121557916111e8575b50915b5191168152f35b6112089150843d861161120e575b61120081836119a5565b81019061206c565b846111de565b503d6111f6565b8451903d90823e3d90fd5b6112409060603d8111611247575b61123881836119a5565b810190612774565b50506111a4565b503d61122e565b89513d89823e3d90fd5b634e487b7160e01b8b526011875260248bfd5b94516364e329cb60e11b81526001600160a01b039182169581019586529216602085015290928391908290819060400103918c5af180156112d857908e916112ba575b508c908a8c8b8a611144565b816112d092903d1061120e5761120081836119a5565b508c8e6112ae565b8d513d8d823e3d90fd5b6112f99150873d891161120e5761120081836119a5565b3861113c565b6113179198508c8d3d1061120e5761120081836119a5565b968c6110e8565b8b513d8b823e3d90fd5b519081526001600160a01b038716818a0190815260208101899052949b95979396949092918391829081906040010391895af180156112d8578e8b8f8c9998979695946113a894611562575b505163e6a4390560e01b8082526001600160a01b039a8b168c830190815292909a1660208301529283918291604090910190565b03818c5afa90811561153b578f908f928f8f918f93918f92918e928591611545575b5016156114ce575b50505050505061012c4201908142116114bb576101049260609594928f928e9351988997889662e8e33760e81b88528d8801526024870152604486015260648501528260848501528260a48501523060c485015260e48401525af1801561124e57908a959493929161149d575b5088519081526001600160a01b0393841691810191825294909216602083015283918290819060400103915afa9182156112155791611480575b50916111e1565b6114979150843d861161120e5761120081836119a5565b84611479565b6114b49060603d81116112475761123881836119a5565b505061143f565b634e487b7160e01b8c526011885260248cfd5b94516364e329cb60e11b81526001600160a01b039182169581019586529216602085015290928391908290819060400103918d5af1801561153b57908f9161151d575b508d908b8d8c8b6113d2565b8161153392903d1061120e5761120081836119a5565b508d8f611511565b8e513d8e823e3d90fd5b61155c9150873d891161120e5761120081836119a5565b386113ca565b61158190843d8611611588575b61157981836119a5565b8101906121fc565b5038611374565b503d61156f565b6115a691508d803d1061120e5761120081836119a5565b8d61108c565b6115c2908c8d3d106115885761157981836119a5565b508b611067565b835163ea8e4eb560e01b8152fd5b5050346102ad57816003193601126102ad57602090517f00000000000000000000000000000000000000000000000000000000000000008152f35b5050346102ad57816003193601126102ad57610c359060ff60025460a01c16905191829182611795565b5050346102ad57816003193601126102ad57602090517f00000000000000000000000000000000000000000000000000000000000000008152f35b5050346102ad57816003193601126102ad576020905161ffff7f0000000000000000000000000000000000000000000000000000000000000000168152f35b5050346102ad57816003193601126102ad57517f00000000000000000000000000000000000000000000000000000000000000006001600160a01b03168152602090f35b90503461036b57602036600319011261036b57359063ffffffff60e01b821680920361036b5760209250637965db0b60e01b821491821561173f575b50519015158152f35b6301ffc9a760e01b14915038611736565b9190503461036b578260031936011261036b5761176b611982565b6117736117ef565b60ff60065460101c1660058110156106655760030361034b57826103be6124e1565b9190602083019260068210156117a85752565b634e487b7160e01b600052602160045260246000fd5b602435906001600160a01b03821682036117d457565b600080fd5b600435906001600160a01b03821682036117d457565b3360009081527f7d7ffb7a348e1c6a02869081a26547b49160dd3df72d1d75a570eb9b698292ec60205260409020547fa49807205ce4d355092ef5a8a18f56e8913cf4a201fbe287825b095693c217759060ff161561184b5750565b6044906040519063e2517d3f60e01b82523360048301526024820152fd5b80600052600060205260406000203360005260205260ff604060002054161561184b5750565b9060009180835282602052604083209160018060a01b03169182845260205260ff6040842054161560001461190857808352826020526040832082845260205260408320600160ff198254161790557f2f8788117e7eff1d82e926ec794901d17c78024a50270940304540a733656f0d339380a4600190565b505090565b9060009180835282602052604083209160018060a01b03169182845260205260ff6040842054166000146119085780835282602052604083208284526020526040832060ff1981541690557ff6391f5c32d9c69d2a47ea670b442974b53935d1edc7fd64eb21e047a839171b339380a4600190565b600260015414611993576002600155565b604051633ee5aeb560e01b8152600490fd5b90601f8019910116810190811067ffffffffffffffff8211176119c757604052565b634e487b7160e01b600052604160045260246000fd5b906000602091828151910182855af115611a39576000513d611a3057506001600160a01b0381163b155b611a0e5750565b604051635274afe760e01b81526001600160a01b039091166004820152602490fd5b60011415611a07565b6040513d6000823e3d90fd5b91908201809211611a5257565b634e487b7160e01b600052601160045260246000fd5b919091611a7361278f565b60ff60025460a01c1660068110156117a857600103611bc85760ff60065460081c16611bb6577f00000000000000000000000000000000000000000000000000000000000000008310611ba45760018060a01b03166000928184526007602052604090611ae38183872054611a45565b7f00000000000000000000000000000000000000000000000000000000000000008111611b935783865260076020528286205415611b68575b8286857ffa35a310d7113dddce1c275da946348e9aaebf9050b00b372033c4d84b0bd6eb9697985260076020522055611b5781600354611a45565b8060035582519182526020820152a2565b6004546000198114611b7f57600101600455611b1c565b634e487b7160e01b87526011600452602487fd5b8251635e508cd360e11b8152600490fd5b604051636c7591b560e11b8152600490fd5b60405163ab35696f60e01b8152600490fd5b6040516307a92f1960e51b8152600490fd5b611be261278f565b60025460ff808260a01c1660068110156117a857600203611bc857600654818116611cfb576003547f000000000000000000000000000000000000000000000000000000000000000011611cc25781925060101c1660058110156117a85715611cb5575b8060065460101c1660058110156117a857600114611ca8575b8060065460101c1660058110156117a857600214611c9b575b60065460101c1660058110156117a857600314611c9157565b611c996124e1565b565b611ca3612214565b611c78565b611cb061208b565b611c5f565b611cbd611e87565b611c46565b505060ff60a01b1916600160a21b176002557fe48846a3dca191c762ab6aaa1e929ccaf55e31a875fb78ad1b93e15ef4830aca600080a1565b505050565b600260ff815460a01c1660068110156117a8578103611d9a575b6003547f000000000000000000000000000000000000000000000000000000000000000011611d62575060ff60065460101c1660058110156117a857611bc857611c99611e87565b805460ff60a01b1916600160a21b1790557fe48846a3dca191c762ab6aaa1e929ccaf55e31a875fb78ad1b93e15ef4830aca600080a1565b611da261278f565b60ff815460a01c1660068110156117a8578114611d1a576040516307a92f1960e51b8152600490fd5b81810292918115918404141715611a5257565b8115611de8570490565b634e487b7160e01b600052601260045260246000fd5b3d15611e39573d9067ffffffffffffffff82116119c75760405191611e2d601f8201601f1916602001846119a5565b82523d6000602084013e565b606090565b6020808252825181830181905290939260005b828110611e7357505060409293506000838284010152601f8019910116010190565b818101860151848201604001528501611e51565b60055415611fce575b6003546101f490818102918183041490151715611a525761271090046001600160a01b037f0000000000000000000000000000000000000000000000000000000000000000811680611f9c57507f000000000000000000000000000000000000000000000000000000000000000016803b156117d4576000906024604051809481936339650d1f60e01b83523060048401525af19081611f84575b50611f5857611f54611f3b611dfe565b604051630fb6a2b560e21b815291829160048301611e3e565b0390fd5b6201000062ff0000196006541617600655600080516020612948833981519152602060405160018152a1565b67ffffffffffffffff81116119c75760405238611f2b565b611fc99291507f00000000000000000000000000000000000000000000000000000000000000009061201e565b611f58565b600354670de0b6b3a764000090818102918183041490151715611a5257612016907f000000000000000000000000000000000000000000000000000000000000000090611dde565b600555611e90565b60405163a9059cbb60e01b60208201526001600160a01b03929092166024830152604480830193909352918152611c999161205a6064836119a5565b6119dd565b91908203918211611a5257565b908160209103126117d457516001600160a01b03811681036117d45790565b6003546101f4808202908282041482151715611a52576120dc6120b561271093848094049061205f565b7f000000000000000000000000000000000000000000000000000000000000000090611dcb565b049060055461ffff7f0000000000000000000000000000000000000000000000000000000000000000168201808311611a525761211891611dcb565b04670de0b6b3a764000090818302918383041483151715611a525761213c91611dde565b906040519163112749ff60e11b8352600483015260248201526020816044816000305af1600091816121dc575b5061219257611f54612179611dfe565b604051630abc035f60e41b815291829160048301611e3e565b6006805462010000600160b81b03191660189290921b6301000000600160b81b031691909117620200001790556040516002815260008051602061294883398151915290602090a1565b6121f591925060203d811161120e5761120081836119a5565b9038612169565b908160209103126117d4575180151581036117d45790565b6006546001600160a01b039060181c811680156124a9578160025416801561246457604080516370a0823160e01b815230600482015290936020938483602481845afa92831561242a57600093612435575b5062278d007f000000000000000000000000000000000000000000000000000000000000000081810292918115918404141715611a52578386916122ad6122e59442611a45565b895163095ea7b360e01b81526001600160a01b0390981660048901526024880192909252909592839190829060009082906044820190565b03925af1801561242a5761240d575b5060008480836002541660848560065460181c168a519586938492630aa393f360e01b845260048401528960248401528a6044840152887f00000000000000000000000000000000000000000000000000000000000000001660648401525af191826123e4575b505061238557611f548561236d611dfe565b90516301953ea360e11b815291829160048301611e3e565b9162030000917fe3afae9ec63e6f2e914c17bab8493b603680a72d9e6dfacf25ac6a4806555d41866000805160206129488339815191529795600654948251948552888501528460181c1692a262ff00001916176006555160038152a1565b813d8311612406575b6123f781836119a5565b810103126117d457843861235b565b503d6123ed565b61242390853d87116115885761157981836119a5565b50386122f4565b86513d6000823e3d90fd5b90928582813d831161245d575b61244c81836119a5565b8101031261073b5750519138612266565b503d612442565b60405162461bcd60e51b815260206004820152601860248201527f4c50204c6f636b6572206e6f7420636f6e6669677572656400000000000000006044820152606490fd5b60405162461bcd60e51b815260206004820152601060248201526f131408151bdad95b881b9bdd081cd95d60821b6044820152606490fd5b6003546101f4808202908282041482151715611a525761250a61253c926127108093049061205f565b906125357f000000000000000000000000000000000000000000000000000000000000000083611dcb565b049061205f565b6001600160a01b03907f00000000000000000000000000000000000000000000000000000000000000008281166126a7575b507f000000000000000000000000000000000000000000000000000000000000000082168061267157506000808080937f00000000000000000000000000000000000000000000000000000000000000005af16125c9611dfe565b501561265f5762040001905b600360a01b60ff60a01b1960025416176002557f6e4389167d2afbd1ccb4797ea87e29958adbf74cd16ba077a2ee5ab8460784e5608060065492600554906003546040519283526020830152600160ff1986161760181c16604082015260006060820152a162ff00ff191617600655600080516020612948833981519152602060405160048152a1565b6040516312171d8360e31b8152600490fd5b6204000192916126a2917f00000000000000000000000000000000000000000000000000000000000000009061201e565b6125d5565b6040516370a0823160e01b81523060048201527f000000000000000000000000000000000000000000000000000000000000000084169190602081602481865afa8015611a3957600090612741575b61272291507f00000000000000000000000000000000000000000000000000000000000000009061205f565b9081612730575b505061256e565b6127399261201e565b388080612729565b6020823d821161276c575b81612759602093836119a5565b8101031261073b575061272290516126f6565b3d915061274c565b908160609103126117d4578051916040602083015192015190565b60025460ff8160a01c1660068110156117a857801580612812575b156127c65750506002805460ff60a01b1916600160a01b179055565b600114806127e8575b6127d65750565b60ff60a01b1916600160a11b17600255565b507f00000000000000000000000000000000000000000000000000000000000000004210156127cf565b507f00000000000000000000000000000000000000000000000000000000000000004210156127aa565b60ff60025460a01c1660068110156117a8578015806128a2575b156128615750600190565b6001811480612878575b6128725790565b50600290565b507f000000000000000000000000000000000000000000000000000000000000000042101561286b565b507f0000000000000000000000000000000000000000000000000000000000000000421015612856565b60ff60025460a01c1660068110156117a85760030361294157600354801561293a576129379160018060a01b031660005260076020526129326040600020547f000000000000000000000000000000000000000000000000000000000000000090611dcb565b611dde565b90565b5050600090565b5060009056fe359f75319d3abf464a20742906c9b06c2e0cf50adc178c5f23eb44e3e83220b8a26469706673582212208ba7b660d91e0b8aa56b61a6cc0d0db6012bfca960c80c88b34014e71b6e3d7264736f6c634300081400332f8788117e7eff1d82e926ec794901d17c78024a50270940304540a733656f0d","opcodes":"CALLVALUE PUSH3 0x3B6 JUMPI PUSH3 0x2EC6 CODESIZE DUP2 SWAP1 SUB PUSH2 0x280 PUSH1 0x1F DUP3 ADD PUSH1 0x1F NOT AND DUP2 ADD SWAP1 PUSH1 0x1 PUSH1 0x1 PUSH1 0x40 SHL SUB DUP3 GT SWAP1 DUP3 LT OR PUSH3 0x3BB JUMPI PUSH2 0x200 SWAP3 DUP3 SWAP2 PUSH1 0x40 MSTORE PUSH2 0x280 CODECOPY SLT PUSH3 0x3B6 JUMPI PUSH3 0x4E PUSH2 0x280 PUSH3 0x3D1 JUMP JUMPDEST PUSH3 0x5B PUSH2 0x2A0 PUSH3 0x3D1 JUMP JUMPDEST PUSH2 0x2C0 MLOAD PUSH2 0x2E0 MLOAD PUSH2 0x300 MLOAD PUSH2 0x320 MLOAD PUSH2 0x340 MLOAD PUSH2 0x360 MLOAD PUSH2 0x380 MLOAD SWAP6 SWAP8 SWAP6 SWAP1 SWAP5 SWAP4 SWAP3 SWAP2 SWAP1 PUSH2 0xFFFF DUP2 AND DUP2 SUB PUSH3 0x3B6 JUMPI PUSH3 0x167 SWAP6 PUSH3 0x9E PUSH2 0x3A0 PUSH3 0x3D1 JUMP JUMPDEST SWAP3 PUSH3 0xAC PUSH2 0x3C0 PUSH3 0x3D1 JUMP JUMPDEST SWAP5 PUSH3 0xBA PUSH2 0x3E0 PUSH3 0x3D1 JUMP JUMPDEST SWAP7 PUSH3 0xC8 PUSH2 0x400 PUSH3 0x3D1 JUMP JUMPDEST PUSH2 0x420 MLOAD PUSH2 0x440 MLOAD PUSH2 0x460 MLOAD PUSH1 0x1 DUP1 SSTORE PUSH1 0x80 SWAP15 SWAP1 SWAP15 MSTORE PUSH1 0xA0 SWAP15 SWAP1 SWAP15 MSTORE PUSH1 0xC0 SWAP15 SWAP1 SWAP15 MSTORE PUSH1 0xE0 SWAP10 SWAP1 SWAP10 MSTORE PUSH2 0x100 MSTORE PUSH2 0x120 MSTORE PUSH2 0x140 MSTORE PUSH2 0x160 MSTORE PUSH2 0x180 MSTORE PUSH2 0x1A0 MSTORE PUSH2 0x1C0 MSTORE PUSH2 0x1E0 MSTORE PUSH2 0x220 SWAP5 DUP6 MSTORE PUSH2 0x240 SWAP4 DUP5 MSTORE PUSH2 0x260 SWAP3 DUP4 MSTORE PUSH1 0x2 DUP1 SLOAD PUSH1 0xFF PUSH1 0xA0 SHL NOT AND SWAP1 SSTORE PUSH1 0x0 CHAINID PUSH1 0x38 SUB PUSH3 0x2EC JUMPI POP PUSH20 0x10ED43C718714EB63D5AA57B78B54704E256024E JUMPDEST PUSH2 0x200 MSTORE PUSH3 0x160 DUP2 PUSH3 0x3E6 JUMP JUMPDEST POP PUSH3 0x466 JUMP JUMPDEST POP PUSH1 0x40 MLOAD SWAP2 PUSH2 0x299D SWAP4 DUP5 PUSH3 0x509 DUP6 CODECOPY PUSH1 0x80 MLOAD DUP5 DUP2 DUP2 PUSH2 0xC6F ADD MSTORE DUP2 DUP2 PUSH2 0xD5A ADD MSTORE DUP2 DUP2 PUSH2 0x1024 ADD MSTORE PUSH2 0x26BC ADD MSTORE PUSH1 0xA0 MLOAD DUP5 DUP2 DUP2 PUSH2 0x387 ADD MSTORE DUP2 DUP2 PUSH2 0x8D5 ADD MSTORE DUP2 DUP2 PUSH2 0xB5D ADD MSTORE DUP2 DUP2 PUSH2 0xEF4 ADD MSTORE DUP2 DUP2 PUSH2 0x1094 ADD MSTORE DUP2 DUP2 PUSH2 0x1EB6 ADD MSTORE PUSH2 0x2571 ADD MSTORE PUSH1 0xC0 MLOAD DUP5 DUP2 DUP2 PUSH2 0x28A ADD MSTORE DUP2 DUP2 PUSH2 0x1C0C ADD MSTORE PUSH2 0x1D1F ADD MSTORE PUSH1 0xE0 MLOAD DUP5 DUP2 DUP2 PUSH2 0xD0A ADD MSTORE DUP2 DUP2 PUSH2 0x1654 ADD MSTORE DUP2 DUP2 PUSH2 0x1FF1 ADD MSTORE DUP2 DUP2 PUSH2 0x26FD ADD MSTORE PUSH2 0x290D ADD MSTORE PUSH2 0x100 MLOAD DUP5 DUP2 DUP2 PUSH2 0x690 ADD MSTORE PUSH2 0x1A9B ADD MSTORE PUSH2 0x120 MLOAD DUP5 DUP2 DUP2 PUSH2 0x7DF ADD MSTORE PUSH2 0x1AE5 ADD MSTORE PUSH2 0x140 MLOAD DUP5 DUP2 DUP2 PUSH2 0x991 ADD MSTORE DUP2 DUP2 PUSH2 0x2815 ADD MSTORE PUSH2 0x28A5 ADD MSTORE PUSH2 0x160 MLOAD DUP5 DUP2 DUP2 PUSH2 0xEBC ADD MSTORE DUP2 DUP2 PUSH2 0x27EB ADD MSTORE PUSH2 0x287B ADD MSTORE PUSH2 0x180 MLOAD DUP5 DUP2 DUP2 PUSH2 0x1692 ADD MSTORE PUSH2 0x20E6 ADD MSTORE PUSH2 0x1A0 MLOAD DUP5 DUP2 DUP2 PUSH2 0xA86 ADD MSTORE DUP2 DUP2 PUSH2 0x1EDF ADD MSTORE PUSH2 0x1FA4 ADD MSTORE PUSH2 0x1C0 MLOAD DUP5 DUP2 DUP2 PUSH2 0xA42 ADD MSTORE PUSH2 0x2547 ADD MSTORE PUSH2 0x1E0 MLOAD DUP5 DUP2 DUP2 PUSH2 0x6C8 ADD MSTORE DUP2 DUP2 PUSH2 0x232D ADD MSTORE DUP2 DUP2 PUSH2 0x25A0 ADD MSTORE PUSH2 0x267D ADD MSTORE PUSH2 0x200 MLOAD DUP5 DUP2 DUP2 PUSH2 0xFF0 ADD MSTORE PUSH2 0x16CB ADD MSTORE MLOAD DUP4 DUP2 DUP2 PUSH2 0x5FD ADD MSTORE DUP2 DUP2 PUSH2 0x20B7 ADD MSTORE PUSH2 0x2510 ADD MSTORE MLOAD DUP3 DUP2 DUP2 PUSH2 0x81A ADD MSTORE PUSH2 0x226D ADD MSTORE MLOAD DUP2 PUSH2 0x15EF ADD MSTORE RETURN JUMPDEST CHAINID PUSH1 0x61 SUB PUSH3 0x311 JUMPI POP PUSH20 0xD99D1C33F9FC3444F8101754ABC46C52416550D1 PUSH3 0x151 JUMP JUMPDEST CHAINID PUSH1 0x1 SUB PUSH3 0x336 JUMPI POP PUSH20 0x7A250D5630B4CF539739DF2C5DACB4C659F2488D PUSH3 0x151 JUMP JUMPDEST CHAINID PUSH3 0xAA36A7 SUB PUSH3 0x35D JUMPI POP PUSH20 0xEE567FE1712FAF6149D80DA1E6934E354124CFE3 PUSH3 0x151 JUMP JUMPDEST PUSH2 0x2105 CHAINID EQ SWAP1 DUP2 ISZERO PUSH3 0x3A8 JUMPI JUMPDEST POP ISZERO PUSH3 0x38D JUMPI PUSH20 0x4752BA5DBC23F44D87826276BF6FD6B1C372AD24 PUSH3 0x151 JUMP JUMPDEST PUSH20 0x7A250D5630B4CF539739DF2C5DACB4C659F2488D PUSH3 0x151 JUMP JUMPDEST CHAINID PUSH3 0x14A34 EQ SWAP2 POP PUSH3 0x36B JUMP JUMPDEST PUSH1 0x0 DUP1 REVERT JUMPDEST PUSH4 0x4E487B71 PUSH1 0xE0 SHL PUSH1 0x0 MSTORE PUSH1 0x41 PUSH1 0x4 MSTORE PUSH1 0x24 PUSH1 0x0 REVERT JUMPDEST MLOAD SWAP1 PUSH1 0x1 PUSH1 0x1 PUSH1 0xA0 SHL SUB DUP3 AND DUP3 SUB PUSH3 0x3B6 JUMPI JUMP JUMPDEST PUSH1 0x1 PUSH1 0x1 PUSH1 0xA0 SHL SUB AND PUSH1 0x0 DUP2 DUP2 MSTORE PUSH32 0xAD3228B676F7D3CD4284A5443F17F1962B36E491B30A40B2405849E597BA5FB5 PUSH1 0x20 MSTORE PUSH1 0x40 DUP2 KECCAK256 SLOAD SWAP1 SWAP2 SWAP1 PUSH1 0xFF AND PUSH3 0x462 JUMPI DUP2 DUP1 MSTORE DUP2 PUSH1 0x20 MSTORE PUSH1 0x40 DUP3 KECCAK256 DUP2 DUP4 MSTORE PUSH1 0x20 MSTORE PUSH1 0x40 DUP3 KECCAK256 PUSH1 0x1 PUSH1 0xFF NOT DUP3 SLOAD AND OR SWAP1 SSTORE CALLER SWAP2 PUSH1 0x0 DUP1 MLOAD PUSH1 0x20 PUSH3 0x2EA6 DUP4 CODECOPY DUP2 MLOAD SWAP2 MSTORE DUP2 DUP1 LOG4 PUSH1 0x1 SWAP1 JUMP JUMPDEST POP SWAP1 JUMP JUMPDEST PUSH1 0x1 PUSH1 0x1 PUSH1 0xA0 SHL SUB AND PUSH1 0x0 DUP2 DUP2 MSTORE PUSH32 0x7D7FFB7A348E1C6A02869081A26547B49160DD3DF72D1D75A570EB9B698292EC PUSH1 0x20 MSTORE PUSH1 0x40 DUP2 KECCAK256 SLOAD SWAP1 SWAP2 SWAP1 PUSH32 0xA49807205CE4D355092EF5A8A18F56E8913CF4A201FBE287825B095693C21775 SWAP1 PUSH1 0xFF AND PUSH3 0x503 JUMPI DUP1 DUP4 MSTORE DUP3 PUSH1 0x20 MSTORE PUSH1 0x40 DUP4 KECCAK256 DUP3 DUP5 MSTORE PUSH1 0x20 MSTORE PUSH1 0x40 DUP4 KECCAK256 PUSH1 0x1 PUSH1 0xFF NOT DUP3 SLOAD AND OR SWAP1 SSTORE PUSH1 0x0 DUP1 MLOAD PUSH1 0x20 PUSH3 0x2EA6 DUP4 CODECOPY DUP2 MLOAD SWAP2 MSTORE CALLER SWAP4 DUP1 LOG4 PUSH1 0x1 SWAP1 JUMP JUMPDEST POP POP SWAP1 JUMP INVALID PUSH1 0x40 PUSH1 0x80 DUP2 MSTORE PUSH1 0x4 SWAP1 DUP2 CALLDATASIZE LT ISZERO PUSH2 0x15 JUMPI PUSH1 0x0 DUP1 REVERT JUMPDEST PUSH1 0x0 SWAP2 DUP3 CALLDATALOAD PUSH1 0xE0 SHR SWAP1 DUP2 PUSH3 0xC3702D EQ PUSH2 0x1750 JUMPI DUP2 PUSH4 0x1FFC9A7 EQ PUSH2 0x16FA JUMPI DUP2 PUSH4 0x3FC2013 EQ PUSH2 0x83D JUMPI DUP2 PUSH4 0x758D924 EQ PUSH2 0x16B6 JUMPI DUP2 PUSH4 0xB7C1AE1 EQ PUSH2 0x1677 JUMPI DUP2 PUSH4 0x12AEF8C3 EQ PUSH2 0x163C JUMPI DUP2 PUSH4 0x1CC64544 EQ PUSH2 0x73E JUMPI DUP2 PUSH4 0x200D2ED2 EQ PUSH2 0x1612 JUMPI DUP2 PUSH4 0x220C0956 EQ PUSH2 0x15D7 JUMPI DUP2 PUSH4 0x224E93FE EQ PUSH2 0xFB9 JUMPI DUP2 PUSH4 0x248A9CA3 EQ PUSH2 0xF8F JUMPI DUP2 PUSH4 0x2C51C7E0 EQ PUSH2 0xF4D JUMPI DUP2 PUSH4 0x2F2FF15D EQ PUSH2 0xF23 JUMPI DUP2 PUSH4 0x3013CE29 EQ PUSH2 0xEDF JUMPI DUP2 PUSH4 0x3197CBB6 EQ PUSH2 0xEA4 JUMPI DUP2 PUSH4 0x362F04C0 EQ PUSH2 0xE86 JUMPI DUP2 PUSH4 0x36568ABE EQ PUSH2 0xE40 JUMPI DUP2 PUSH4 0x3F4BA83A EQ PUSH2 0xDF5 JUMPI DUP2 PUSH4 0x42E94C90 EQ PUSH2 0x423 JUMPI DUP2 PUSH4 0x48C54B9D EQ PUSH2 0xC9E JUMPI DUP2 PUSH4 0x4B60CE77 EQ PUSH2 0xC5A JUMPI DUP2 PUSH4 0x4BB278F3 EQ PUSH2 0xC39 JUMPI DUP2 PUSH4 0x4E69D560 EQ PUSH2 0xC0C JUMPI DUP2 PUSH4 0x590E1AE3 EQ PUSH2 0xAFA JUMPI DUP2 PUSH4 0x5D49DFF4 EQ PUSH2 0xAB5 JUMPI DUP2 PUSH4 0x6052970C EQ PUSH2 0xA71 JUMPI DUP2 PUSH4 0x619F3D6C EQ PUSH2 0xA2D JUMPI DUP2 PUSH4 0x73B2E80E EQ PUSH2 0x9EF JUMPI DUP2 PUSH4 0x75B238FC EQ PUSH2 0x9B4 JUMPI DUP2 PUSH4 0x78E97925 EQ PUSH2 0x979 JUMPI DUP2 PUSH4 0x8160059A EQ PUSH2 0x8B5 JUMPI DUP2 PUSH4 0x8456CB59 EQ PUSH2 0x866 JUMPI DUP2 PUSH4 0x89DDA6A0 EQ PUSH2 0x83D JUMPI DUP2 PUSH4 0x8BCD8515 EQ PUSH2 0x802 JUMPI DUP2 PUSH4 0x8D3D6576 EQ PUSH2 0x7C7 JUMPI DUP2 PUSH4 0x8D4E4083 EQ PUSH2 0x7A3 JUMPI DUP2 PUSH4 0x91D14854 EQ PUSH2 0x75D JUMPI DUP2 PUSH4 0x9CE05DF7 EQ PUSH2 0x73E JUMPI DUP2 PUSH4 0x9E014FD5 EQ PUSH2 0x712 JUMPI DUP2 PUSH4 0xA217FDDF EQ PUSH2 0x6F7 JUMPI DUP2 PUSH4 0xA4475CE4 EQ PUSH2 0x6B3 JUMPI DUP2 PUSH4 0xAAFFADF3 EQ PUSH2 0x678 JUMPI DUP2 PUSH4 0xAF1A9CAB EQ PUSH2 0x620 JUMPI DUP2 PUSH4 0xB0683755 EQ PUSH2 0x5E5 JUMPI DUP2 PUSH4 0xB187BD26 EQ PUSH2 0x5BE JUMPI DUP2 PUSH4 0xB524F87B EQ PUSH2 0x488 JUMPI DUP2 PUSH4 0xB920ADE2 EQ PUSH2 0x45B JUMPI DUP2 PUSH4 0xBB8B2B47 EQ PUSH2 0x423 JUMPI DUP2 PUSH4 0xC5C4744C EQ PUSH2 0x404 JUMPI DUP2 PUSH4 0xD547741F EQ PUSH2 0x3C5 JUMPI DUP2 PUSH4 0xD7BB99BA EQ PUSH2 0x36F JUMPI DUP2 PUSH4 0xEA8A1AF0 EQ PUSH2 0x2DD JUMPI POP DUP1 PUSH4 0xF5AE497A EQ PUSH2 0x2B1 JUMPI PUSH4 0xF89BE593 EQ PUSH2 0x274 JUMPI PUSH1 0x0 DUP1 REVERT JUMPDEST CALLVALUE PUSH2 0x2AD JUMPI DUP2 PUSH1 0x3 NOT CALLDATASIZE ADD SLT PUSH2 0x2AD JUMPI PUSH1 0x20 SWAP1 MLOAD PUSH32 0x0 DUP2 MSTORE RETURN JUMPDEST POP DUP1 REVERT JUMPDEST POP CALLVALUE PUSH2 0x2AD JUMPI DUP2 PUSH1 0x3 NOT CALLDATASIZE ADD SLT PUSH2 0x2AD JUMPI PUSH1 0x6 SLOAD SWAP1 MLOAD PUSH1 0x18 SWAP2 SWAP1 SWAP2 SHR PUSH1 0x1 PUSH1 0x1 PUSH1 0xA0 SHL SUB AND DUP2 MSTORE PUSH1 0x20 SWAP1 RETURN JUMPDEST SWAP1 POP CALLVALUE PUSH2 0x36B JUMPI DUP3 PUSH1 0x3 NOT CALLDATASIZE ADD SLT PUSH2 0x36B JUMPI PUSH2 0x2F7 PUSH2 0x17EF JUMP JUMPDEST PUSH1 0x2 SLOAD SWAP2 PUSH1 0xFF DUP4 PUSH1 0xA0 SHR AND PUSH1 0x6 DUP2 LT ISZERO PUSH2 0x358 JUMPI PUSH1 0x3 EQ PUSH2 0x34B JUMPI POP POP PUSH1 0xFF PUSH1 0xA0 SHL NOT AND PUSH1 0x5 PUSH1 0xA0 SHL OR PUSH1 0x2 SSTORE PUSH32 0x63B958841F79AB97CB5456DA181454B9932C0E15A3B17F1CBD27E2A8BC610437 DUP2 DUP1 LOG1 DUP1 RETURN JUMPDEST MLOAD PUSH4 0x7A92F19 PUSH1 0xE5 SHL DUP2 MSTORE REVERT JUMPDEST PUSH4 0x4E487B71 PUSH1 0xE0 SHL DUP6 MSTORE PUSH1 0x21 DUP4 MSTORE PUSH1 0x24 DUP6 REVERT JUMPDEST DUP3 DUP1 REVERT JUMPDEST SWAP2 SWAP1 POP DUP3 PUSH1 0x3 NOT CALLDATASIZE ADD SLT PUSH2 0x36B JUMPI PUSH2 0x385 PUSH2 0x1982 JUMP JUMPDEST PUSH32 0x0 PUSH1 0x1 PUSH1 0x1 PUSH1 0xA0 SHL SUB AND PUSH2 0x34B JUMPI DUP3 PUSH2 0x3BE CALLVALUE CALLER PUSH2 0x1A68 JUMP JUMPDEST PUSH1 0x1 DUP1 SSTORE DUP1 RETURN JUMPDEST SWAP2 SWAP1 POP CALLVALUE PUSH2 0x36B JUMPI DUP1 PUSH1 0x3 NOT CALLDATASIZE ADD SLT PUSH2 0x36B JUMPI PUSH2 0x400 SWAP2 CALLDATALOAD PUSH2 0x3FB PUSH1 0x1 PUSH2 0x3EA PUSH2 0x17BE JUMP JUMPDEST SWAP4 DUP4 DUP8 MSTORE DUP7 PUSH1 0x20 MSTORE DUP7 KECCAK256 ADD SLOAD PUSH2 0x1869 JUMP JUMPDEST PUSH2 0x190D JUMP JUMPDEST POP DUP1 RETURN JUMPDEST POP POP CALLVALUE PUSH2 0x2AD JUMPI DUP2 PUSH1 0x3 NOT CALLDATASIZE ADD SLT PUSH2 0x2AD JUMPI PUSH1 0x20 SWAP1 PUSH1 0x3 SLOAD SWAP1 MLOAD SWAP1 DUP2 MSTORE RETURN JUMPDEST POP POP CALLVALUE PUSH2 0x2AD JUMPI PUSH1 0x20 CALLDATASIZE PUSH1 0x3 NOT ADD SLT PUSH2 0x2AD JUMPI PUSH1 0x20 SWAP2 DUP2 SWAP1 PUSH1 0x1 PUSH1 0x1 PUSH1 0xA0 SHL SUB PUSH2 0x44B PUSH2 0x17D9 JUMP JUMPDEST AND DUP2 MSTORE PUSH1 0x7 DUP5 MSTORE KECCAK256 SLOAD SWAP1 MLOAD SWAP1 DUP2 MSTORE RETURN JUMPDEST POP POP CALLVALUE PUSH2 0x2AD JUMPI PUSH1 0x20 CALLDATASIZE PUSH1 0x3 NOT ADD SLT PUSH2 0x2AD JUMPI PUSH1 0x20 SWAP1 PUSH2 0x481 PUSH2 0x47C PUSH2 0x17D9 JUMP JUMPDEST PUSH2 0x28CC JUMP JUMPDEST SWAP1 MLOAD SWAP1 DUP2 MSTORE RETURN JUMPDEST DUP4 SWAP2 POP CALLVALUE PUSH2 0x2AD JUMPI PUSH1 0x20 CALLDATASIZE PUSH1 0x3 NOT ADD SLT PUSH2 0x2AD JUMPI PUSH2 0x4A4 PUSH2 0x17D9 JUMP JUMPDEST PUSH2 0x4AC PUSH2 0x17EF JUMP JUMPDEST PUSH1 0x2 SLOAD SWAP1 PUSH1 0x1 PUSH1 0x1 PUSH1 0xA0 SHL SUB SWAP1 DUP2 DUP4 AND PUSH2 0x583 JUMPI PUSH1 0xFF PUSH1 0x6 SLOAD AND PUSH2 0x54C JUMPI AND SWAP2 DUP3 ISZERO PUSH2 0x509 JUMPI POP PUSH1 0x1 PUSH1 0x1 PUSH1 0xA0 SHL SUB NOT AND DUP2 OR PUSH1 0x2 SSTORE PUSH32 0xF3E056D0219310A4E47C749671CFBC8607538F3327BB8C6BF872A1119B622D2F DUP3 DUP1 LOG2 DUP1 RETURN JUMPDEST PUSH1 0x64 SWAP1 PUSH1 0x20 DUP7 MLOAD SWAP2 PUSH3 0x461BCD PUSH1 0xE5 SHL DUP4 MSTORE DUP3 ADD MSTORE PUSH1 0x19 PUSH1 0x24 DUP3 ADD MSTORE PUSH32 0x496E76616C6964204C50204C6F636B6572206164647265737300000000000000 PUSH1 0x44 DUP3 ADD MSTORE REVERT JUMPDEST DUP6 MLOAD PUSH3 0x461BCD PUSH1 0xE5 SHL DUP2 MSTORE PUSH1 0x20 DUP2 DUP7 ADD MSTORE PUSH1 0x11 PUSH1 0x24 DUP3 ADD MSTORE PUSH17 0x105B1C9958591E48199A5B985B1A5E9959 PUSH1 0x7A SHL PUSH1 0x44 DUP3 ADD MSTORE PUSH1 0x64 SWAP1 REVERT JUMPDEST DUP6 MLOAD PUSH3 0x461BCD PUSH1 0xE5 SHL DUP2 MSTORE PUSH1 0x20 DUP2 DUP7 ADD MSTORE PUSH1 0x15 PUSH1 0x24 DUP3 ADD MSTORE PUSH21 0x131408131BD8DAD95C88185B1C9958591E481CD95D PUSH1 0x5A SHL PUSH1 0x44 DUP3 ADD MSTORE PUSH1 0x64 SWAP1 REVERT JUMPDEST POP POP CALLVALUE PUSH2 0x2AD JUMPI DUP2 PUSH1 0x3 NOT CALLDATASIZE ADD SLT PUSH2 0x2AD JUMPI PUSH1 0x20 SWAP1 PUSH1 0xFF PUSH1 0x6 SLOAD PUSH1 0x8 SHR AND SWAP1 MLOAD SWAP1 ISZERO ISZERO DUP2 MSTORE RETURN JUMPDEST POP POP CALLVALUE PUSH2 0x2AD JUMPI DUP2 PUSH1 0x3 NOT CALLDATASIZE ADD SLT PUSH2 0x2AD JUMPI PUSH1 0x20 SWAP1 MLOAD PUSH32 0x0 DUP2 MSTORE RETURN JUMPDEST SWAP2 SWAP1 POP CALLVALUE PUSH2 0x36B JUMPI DUP3 PUSH1 0x3 NOT CALLDATASIZE ADD SLT PUSH2 0x36B JUMPI PUSH2 0x63B PUSH2 0x1982 JUMP JUMPDEST PUSH2 0x643 PUSH2 0x17EF JUMP JUMPDEST PUSH1 0xFF PUSH1 0x6 SLOAD PUSH1 0x10 SHR AND PUSH1 0x5 DUP2 LT ISZERO PUSH2 0x665 JUMPI PUSH1 0x1 SUB PUSH2 0x34B JUMPI DUP3 PUSH2 0x3BE PUSH2 0x208B JUMP JUMPDEST PUSH4 0x4E487B71 PUSH1 0xE0 SHL DUP5 MSTORE PUSH1 0x21 DUP4 MSTORE PUSH1 0x24 DUP5 REVERT JUMPDEST POP POP CALLVALUE PUSH2 0x2AD JUMPI DUP2 PUSH1 0x3 NOT CALLDATASIZE ADD SLT PUSH2 0x2AD JUMPI PUSH1 0x20 SWAP1 MLOAD PUSH32 0x0 DUP2 MSTORE RETURN JUMPDEST POP POP CALLVALUE PUSH2 0x2AD JUMPI DUP2 PUSH1 0x3 NOT CALLDATASIZE ADD SLT PUSH2 0x2AD JUMPI MLOAD PUSH32 0x0 PUSH1 0x1 PUSH1 0x1 PUSH1 0xA0 SHL SUB AND DUP2 MSTORE PUSH1 0x20 SWAP1 RETURN JUMPDEST POP POP CALLVALUE PUSH2 0x2AD JUMPI DUP2 PUSH1 0x3 NOT CALLDATASIZE ADD SLT PUSH2 0x2AD JUMPI MLOAD SWAP1 DUP2 MSTORE PUSH1 0x20 SWAP1 RETURN JUMPDEST DUP4 CALLVALUE PUSH2 0x73B JUMPI DUP1 PUSH1 0x3 NOT CALLDATASIZE ADD SLT PUSH2 0x73B JUMPI PUSH2 0x72B PUSH2 0x1982 JUMP JUMPDEST PUSH2 0x733 PUSH2 0x17EF JUMP JUMPDEST PUSH2 0x3BE PUSH2 0x1D00 JUMP JUMPDEST DUP1 REVERT JUMPDEST POP POP CALLVALUE PUSH2 0x2AD JUMPI DUP2 PUSH1 0x3 NOT CALLDATASIZE ADD SLT PUSH2 0x2AD JUMPI PUSH1 0x20 SWAP1 PUSH1 0x5 SLOAD SWAP1 MLOAD SWAP1 DUP2 MSTORE RETURN JUMPDEST SWAP1 POP CALLVALUE PUSH2 0x36B JUMPI DUP2 PUSH1 0x3 NOT CALLDATASIZE ADD SLT PUSH2 0x36B JUMPI DUP2 PUSH1 0x20 SWAP4 PUSH1 0xFF SWAP3 PUSH2 0x77E PUSH2 0x17BE JUMP JUMPDEST SWAP1 CALLDATALOAD DUP3 MSTORE DUP2 DUP7 MSTORE DUP3 DUP3 KECCAK256 PUSH1 0x1 PUSH1 0x1 PUSH1 0xA0 SHL SUB SWAP1 SWAP2 AND DUP3 MSTORE DUP6 MSTORE KECCAK256 SLOAD SWAP2 MLOAD SWAP2 AND ISZERO ISZERO DUP2 MSTORE RETURN JUMPDEST POP POP CALLVALUE PUSH2 0x2AD JUMPI DUP2 PUSH1 0x3 NOT CALLDATASIZE ADD SLT PUSH2 0x2AD JUMPI PUSH1 0x20 SWAP1 PUSH1 0xFF PUSH1 0x6 SLOAD AND SWAP1 MLOAD SWAP1 ISZERO ISZERO DUP2 MSTORE RETURN JUMPDEST POP POP CALLVALUE PUSH2 0x2AD JUMPI DUP2 PUSH1 0x3 NOT CALLDATASIZE ADD SLT PUSH2 0x2AD JUMPI PUSH1 0x20 SWAP1 MLOAD PUSH32 0x0 DUP2 MSTORE RETURN JUMPDEST POP POP CALLVALUE PUSH2 0x2AD JUMPI DUP2 PUSH1 0x3 NOT CALLDATASIZE ADD SLT PUSH2 0x2AD JUMPI PUSH1 0x20 SWAP1 MLOAD PUSH32 0x0 DUP2 MSTORE RETURN JUMPDEST POP POP CALLVALUE PUSH2 0x2AD JUMPI DUP2 PUSH1 0x3 NOT CALLDATASIZE ADD SLT PUSH2 0x2AD JUMPI PUSH1 0x2 SLOAD SWAP1 MLOAD PUSH1 0x1 PUSH1 0x1 PUSH1 0xA0 SHL SUB SWAP1 SWAP2 AND DUP2 MSTORE PUSH1 0x20 SWAP1 RETURN JUMPDEST DUP4 CALLVALUE PUSH2 0x73B JUMPI DUP1 PUSH1 0x3 NOT CALLDATASIZE ADD SLT PUSH2 0x73B JUMPI PUSH2 0x87F PUSH2 0x17EF JUMP JUMPDEST PUSH2 0x100 PUSH2 0xFF00 NOT PUSH1 0x6 SLOAD AND OR PUSH1 0x6 SSTORE PUSH32 0x9E87FAC88FF661F02D44F95383C817FECE4BCE600A3DAB7A54406878B965E752 DUP2 DUP1 LOG1 DUP1 RETURN JUMPDEST DUP4 DUP4 CALLVALUE PUSH2 0x2AD JUMPI PUSH1 0x20 CALLDATASIZE PUSH1 0x3 NOT ADD SLT PUSH2 0x2AD JUMPI DUP3 CALLDATALOAD SWAP1 PUSH2 0x8D3 PUSH2 0x1982 JUMP JUMPDEST PUSH32 0x0 PUSH1 0x1 PUSH1 0x1 PUSH1 0xA0 SHL SUB AND DUP1 ISZERO PUSH2 0x969 JUMPI DUP2 MLOAD PUSH4 0x23B872DD PUSH1 0xE0 SHL PUSH1 0x20 DUP3 ADD MSTORE CALLER PUSH1 0x24 DUP3 ADD MSTORE ADDRESS PUSH1 0x44 DUP3 ADD MSTORE PUSH1 0x64 DUP1 DUP3 ADD DUP6 SWAP1 MSTORE DUP2 MSTORE SWAP2 PUSH1 0xA0 DUP4 ADD SWAP1 PUSH8 0xFFFFFFFFFFFFFFFF DUP3 GT DUP5 DUP4 LT OR PUSH2 0x956 JUMPI MSTORE PUSH2 0x3BE SWAP3 SWAP2 PUSH2 0x950 SWAP2 PUSH2 0x19DD JUMP JUMPDEST CALLER PUSH2 0x1A68 JUMP JUMPDEST PUSH4 0x4E487B71 PUSH1 0xE0 SHL DUP7 MSTORE PUSH1 0x41 DUP8 MSTORE PUSH1 0x24 DUP7 REVERT JUMPDEST DUP2 MLOAD PUSH4 0x7A92F19 PUSH1 0xE5 SHL DUP2 MSTORE DUP6 SWAP1 REVERT JUMPDEST POP POP CALLVALUE PUSH2 0x2AD JUMPI DUP2 PUSH1 0x3 NOT CALLDATASIZE ADD SLT PUSH2 0x2AD JUMPI PUSH1 0x20 SWAP1 MLOAD PUSH32 0x0 DUP2 MSTORE RETURN JUMPDEST POP POP CALLVALUE PUSH2 0x2AD JUMPI DUP2 PUSH1 0x3 NOT CALLDATASIZE ADD SLT PUSH2 0x2AD JUMPI PUSH1 0x20 SWAP1 MLOAD PUSH32 0xA49807205CE4D355092EF5A8A18F56E8913CF4A201FBE287825B095693C21775 DUP2 MSTORE RETURN JUMPDEST POP POP CALLVALUE PUSH2 0x2AD JUMPI PUSH1 0x20 CALLDATASIZE PUSH1 0x3 NOT ADD SLT PUSH2 0x2AD JUMPI PUSH1 0x20 SWAP2 PUSH1 0xFF SWAP1 DUP3 SWAP1 PUSH1 0x1 PUSH1 0x1 PUSH1 0xA0 SHL SUB PUSH2 0xA1A PUSH2 0x17D9 JUMP JUMPDEST AND DUP2 MSTORE PUSH1 0x8 DUP6 MSTORE KECCAK256 SLOAD AND SWAP1 MLOAD SWAP1 ISZERO ISZERO DUP2 MSTORE RETURN JUMPDEST POP POP CALLVALUE PUSH2 0x2AD JUMPI DUP2 PUSH1 0x3 NOT CALLDATASIZE ADD SLT PUSH2 0x2AD JUMPI MLOAD PUSH32 0x0 PUSH1 0x1 PUSH1 0x1 PUSH1 0xA0 SHL SUB AND DUP2 MSTORE PUSH1 0x20 SWAP1 RETURN JUMPDEST POP POP CALLVALUE PUSH2 0x2AD JUMPI DUP2 PUSH1 0x3 NOT CALLDATASIZE ADD SLT PUSH2 0x2AD JUMPI MLOAD PUSH32 0x0 PUSH1 0x1 PUSH1 0x1 PUSH1 0xA0 SHL SUB AND DUP2 MSTORE PUSH1 0x20 SWAP1 RETURN JUMPDEST SWAP2 SWAP1 POP CALLVALUE PUSH2 0x36B JUMPI DUP3 PUSH1 0x3 NOT CALLDATASIZE ADD SLT PUSH2 0x36B JUMPI PUSH2 0xAD0 PUSH2 0x1982 JUMP JUMPDEST PUSH2 0xAD8 PUSH2 0x17EF JUMP JUMPDEST PUSH1 0xFF PUSH1 0x6 SLOAD PUSH1 0x10 SHR AND PUSH1 0x5 DUP2 LT ISZERO PUSH2 0x665 JUMPI PUSH1 0x2 SUB PUSH2 0x34B JUMPI DUP3 PUSH2 0x3BE PUSH2 0x2214 JUMP JUMPDEST SWAP2 SWAP1 POP CALLVALUE PUSH2 0x36B JUMPI DUP3 PUSH1 0x3 NOT CALLDATASIZE ADD SLT PUSH2 0x36B JUMPI PUSH2 0xB15 PUSH2 0x1982 JUMP JUMPDEST PUSH1 0xFF PUSH1 0x2 SLOAD PUSH1 0xA0 SHR AND PUSH1 0x6 DUP2 LT ISZERO PUSH2 0x665 JUMPI DUP3 DUP2 EQ ISZERO SWAP1 DUP2 PUSH2 0xC00 JUMPI JUMPDEST POP PUSH2 0x34B JUMPI CALLER DUP4 MSTORE PUSH1 0x7 PUSH1 0x20 MSTORE DUP1 DUP4 KECCAK256 SLOAD ISZERO PUSH2 0xBF3 JUMPI CALLER DUP4 MSTORE PUSH1 0x7 PUSH1 0x20 MSTORE DUP1 DUP4 KECCAK256 DUP1 SLOAD SWAP1 DUP5 SWAP1 SSTORE SWAP2 DUP3 PUSH32 0x0 PUSH1 0x1 PUSH1 0x1 PUSH1 0xA0 SHL SUB AND DUP1 PUSH2 0xBE2 JUMPI POP DUP5 DUP1 DUP1 DUP1 SWAP4 CALLER GAS CALL PUSH2 0xB9B PUSH2 0x1DFE JUMP JUMPDEST POP ISZERO PUSH2 0xBD4 JUMPI POP JUMPDEST MLOAD SWAP1 DUP2 MSTORE PUSH32 0xD7DEE2702D63AD89917B6A4DA9981C90C4D24F8C2BDFD64C604ECAE57D8D0651 PUSH1 0x20 CALLER SWAP3 LOG2 PUSH1 0x1 DUP1 SSTORE DUP1 RETURN JUMPDEST SWAP1 MLOAD PUSH4 0x12171D83 PUSH1 0xE3 SHL DUP2 MSTORE REVERT JUMPDEST PUSH2 0xBEE SWAP3 POP CALLER SWAP1 PUSH2 0x201E JUMP JUMPDEST PUSH2 0xBA3 JUMP JUMPDEST MLOAD PUSH4 0xF76AEF65 PUSH1 0xE0 SHL DUP2 MSTORE REVERT JUMPDEST PUSH1 0x5 SWAP2 POP EQ ISZERO CODESIZE PUSH2 0xB32 JUMP JUMPDEST POP POP CALLVALUE PUSH2 0x2AD JUMPI DUP2 PUSH1 0x3 NOT CALLDATASIZE ADD SLT PUSH2 0x2AD JUMPI PUSH2 0xC35 SWAP1 PUSH2 0xC2A PUSH2 0x283C JUMP JUMPDEST SWAP1 MLOAD SWAP2 DUP3 SWAP2 DUP3 PUSH2 0x1795 JUMP JUMPDEST SUB SWAP1 RETURN JUMPDEST DUP4 CALLVALUE PUSH2 0x73B JUMPI DUP1 PUSH1 0x3 NOT CALLDATASIZE ADD SLT PUSH2 0x73B JUMPI PUSH2 0xC52 PUSH2 0x1982 JUMP JUMPDEST PUSH2 0x3BE PUSH2 0x1BDA JUMP JUMPDEST POP POP CALLVALUE PUSH2 0x2AD JUMPI DUP2 PUSH1 0x3 NOT CALLDATASIZE ADD SLT PUSH2 0x2AD JUMPI MLOAD PUSH32 0x0 PUSH1 0x1 PUSH1 0x1 PUSH1 0xA0 SHL SUB AND DUP2 MSTORE PUSH1 0x20 SWAP1 RETURN JUMPDEST SWAP1 POP CALLVALUE PUSH2 0x36B JUMPI DUP3 PUSH1 0x3 NOT CALLDATASIZE ADD SLT PUSH2 0x36B JUMPI PUSH2 0xCB8 PUSH2 0x1982 JUMP JUMPDEST PUSH1 0xFF PUSH1 0x2 SLOAD PUSH1 0xA0 SHR AND PUSH1 0x6 DUP2 LT ISZERO PUSH2 0xDE2 JUMPI PUSH1 0x3 SUB PUSH2 0xDD4 JUMPI CALLER DUP4 MSTORE PUSH1 0x7 PUSH1 0x20 MSTORE DUP2 DUP4 KECCAK256 SLOAD ISZERO PUSH2 0xDC6 JUMPI CALLER DUP4 MSTORE PUSH1 0x8 PUSH1 0x20 MSTORE PUSH1 0xFF DUP3 DUP5 KECCAK256 SLOAD AND PUSH2 0xDB8 JUMPI POP CALLER DUP3 MSTORE PUSH1 0x7 PUSH1 0x20 MSTORE PUSH2 0xD38 PUSH2 0xD2F DUP3 DUP5 KECCAK256 SLOAD PUSH32 0x0 SWAP1 PUSH2 0x1DCB JUMP JUMPDEST PUSH1 0x3 SLOAD SWAP1 PUSH2 0x1DDE JUMP JUMPDEST CALLER DUP1 DUP5 MSTORE PUSH1 0x8 PUSH1 0x20 MSTORE DUP3 DUP5 KECCAK256 DUP1 SLOAD PUSH1 0xFF NOT AND PUSH1 0x1 OR SWAP1 SSTORE SWAP1 SWAP2 SWAP1 PUSH2 0xD87 SWAP1 DUP4 SWAP1 PUSH32 0x0 PUSH1 0x1 PUSH1 0x1 PUSH1 0xA0 SHL SUB AND PUSH2 0x201E JUMP JUMPDEST MLOAD SWAP1 DUP2 MSTORE PUSH32 0x896E034966EAAF1ADC54ACC0F257056FEBBD300C9E47182CF761982CF1F5E430 PUSH1 0x20 CALLER SWAP3 LOG2 PUSH1 0x1 DUP1 SSTORE DUP1 RETURN JUMPDEST SWAP1 MLOAD PUSH4 0xC8D9EAB PUSH1 0xE3 SHL DUP2 MSTORE REVERT JUMPDEST SWAP1 MLOAD PUSH4 0x1971FBF3 PUSH1 0xE2 SHL DUP2 MSTORE REVERT JUMPDEST SWAP1 MLOAD PUSH4 0x7A92F19 PUSH1 0xE5 SHL DUP2 MSTORE REVERT JUMPDEST PUSH4 0x4E487B71 PUSH1 0xE0 SHL DUP5 MSTORE PUSH1 0x21 DUP3 MSTORE PUSH1 0x24 DUP5 REVERT JUMPDEST DUP4 CALLVALUE PUSH2 0x73B JUMPI DUP1 PUSH1 0x3 NOT CALLDATASIZE ADD SLT PUSH2 0x73B JUMPI PUSH2 0xE0E PUSH2 0x17EF JUMP JUMPDEST PUSH2 0xFF00 NOT PUSH1 0x6 SLOAD AND PUSH1 0x6 SSTORE PUSH32 0xA45F47FDEA8A1EFDD9029A5691C7F759C32B7C698632B563573E155625D16933 DUP2 DUP1 LOG1 DUP1 RETURN JUMPDEST DUP4 DUP4 CALLVALUE PUSH2 0x2AD JUMPI DUP1 PUSH1 0x3 NOT CALLDATASIZE ADD SLT PUSH2 0x2AD JUMPI PUSH2 0xE5A PUSH2 0x17BE JUMP JUMPDEST SWAP1 CALLER PUSH1 0x1 PUSH1 0x1 PUSH1 0xA0 SHL SUB DUP4 AND SUB PUSH2 0xE77 JUMPI POP PUSH2 0x400 SWAP2 SWAP3 CALLDATALOAD PUSH2 0x190D JUMP JUMPDEST MLOAD PUSH4 0x334BD919 PUSH1 0xE1 SHL DUP2 MSTORE DUP4 SWAP1 REVERT JUMPDEST SWAP1 POP CALLVALUE PUSH2 0x36B JUMPI DUP3 PUSH1 0x3 NOT CALLDATASIZE ADD SLT PUSH2 0x36B JUMPI PUSH1 0x20 SWAP3 POP SLOAD SWAP1 MLOAD SWAP1 DUP2 MSTORE RETURN JUMPDEST POP POP CALLVALUE PUSH2 0x2AD JUMPI DUP2 PUSH1 0x3 NOT CALLDATASIZE ADD SLT PUSH2 0x2AD JUMPI PUSH1 0x20 SWAP1 MLOAD PUSH32 0x0 DUP2 MSTORE RETURN JUMPDEST POP POP CALLVALUE PUSH2 0x2AD JUMPI DUP2 PUSH1 0x3 NOT CALLDATASIZE ADD SLT PUSH2 0x2AD JUMPI MLOAD PUSH32 0x0 PUSH1 0x1 PUSH1 0x1 PUSH1 0xA0 SHL SUB AND DUP2 MSTORE PUSH1 0x20 SWAP1 RETURN JUMPDEST SWAP2 SWAP1 POP CALLVALUE PUSH2 0x36B JUMPI DUP1 PUSH1 0x3 NOT CALLDATASIZE ADD SLT PUSH2 0x36B JUMPI PUSH2 0x400 SWAP2 CALLDATALOAD PUSH2 0xF48 PUSH1 0x1 PUSH2 0x3EA PUSH2 0x17BE JUMP JUMPDEST PUSH2 0x188F JUMP JUMPDEST DUP4 DUP4 CALLVALUE PUSH2 0x2AD JUMPI DUP2 PUSH1 0x3 NOT CALLDATASIZE ADD SLT PUSH2 0x2AD JUMPI PUSH1 0xFF PUSH1 0x6 SLOAD PUSH1 0x10 SHR AND SWAP1 MLOAD SWAP2 PUSH1 0x5 DUP3 LT ISZERO PUSH2 0xF7C JUMPI PUSH1 0x20 DUP4 DUP4 DUP2 MSTORE RETURN JUMPDEST PUSH4 0x4E487B71 PUSH1 0xE0 SHL DUP2 MSTORE PUSH1 0x21 DUP5 MSTORE PUSH1 0x24 SWAP1 REVERT JUMPDEST SWAP1 POP CALLVALUE PUSH2 0x36B JUMPI PUSH1 0x20 CALLDATASIZE PUSH1 0x3 NOT ADD SLT PUSH2 0x36B JUMPI DUP2 PUSH1 0x20 SWAP4 PUSH1 0x1 SWAP3 CALLDATALOAD DUP2 MSTORE DUP1 DUP6 MSTORE KECCAK256 ADD SLOAD SWAP1 MLOAD SWAP1 DUP2 MSTORE RETURN JUMPDEST DUP3 DUP5 CALLVALUE PUSH2 0x73B JUMPI DUP2 PUSH1 0x3 NOT CALLDATASIZE ADD SLT PUSH2 0x73B JUMPI DUP3 CALLDATALOAD SWAP1 PUSH1 0x24 CALLDATALOAD SWAP4 ADDRESS CALLER SUB PUSH2 0x15C9 JUMPI DUP4 MLOAD PUSH4 0x95EA7B3 PUSH1 0xE0 SHL DUP1 DUP3 MSTORE PUSH1 0x1 PUSH1 0x1 PUSH1 0xA0 SHL SUB PUSH32 0x0 DUP2 AND DUP5 DUP5 ADD DUP2 DUP2 MSTORE PUSH1 0x20 DUP1 DUP3 ADD DUP10 SWAP1 MSTORE SWAP10 SWAP3 SWAP8 PUSH32 0x0 DUP1 DUP11 AND SWAP8 SWAP1 SWAP7 SWAP1 SWAP5 SWAP4 SWAP3 DUP13 SWAP1 DUP3 SWAP1 DUP2 SWAP1 PUSH1 0x40 ADD SUB DUP2 DUP13 DUP13 GAS CALL DUP1 ISZERO PUSH2 0x131E JUMPI PUSH2 0x15AC JUMPI JUMPDEST POP DUP10 MLOAD PUSH4 0xC45A0155 PUSH1 0xE0 SHL DUP2 MSTORE DUP12 DUP2 DUP7 DUP2 DUP7 GAS STATICCALL SWAP1 DUP2 ISZERO PUSH2 0x131E JUMPI SWAP1 DUP11 SWAP2 DUP11 SWAP2 PUSH2 0x158F JUMPI JUMPDEST POP AND SWAP5 DUP11 DUP13 DUP11 PUSH32 0x0 SWAP4 DUP14 DUP6 AND SWAP4 DUP5 ISZERO PUSH1 0x0 EQ PUSH2 0x1328 JUMPI SWAP5 POP POP POP POP POP MLOAD SWAP7 PUSH4 0x15AB88C9 PUSH1 0xE3 SHL DUP9 MSTORE DUP12 DUP9 DUP7 DUP2 DUP7 GAS STATICCALL SWAP8 DUP9 ISZERO PUSH2 0x131E JUMPI DUP10 SWAP9 PUSH2 0x12FF JUMPI JUMPDEST POP DUP11 MLOAD PUSH4 0xE6A43905 PUSH1 0xE0 SHL DUP1 DUP3 MSTORE PUSH1 0x1 PUSH1 0x1 PUSH1 0xA0 SHL SUB DUP1 DUP11 AND DUP9 DUP5 ADD SWAP1 DUP2 MSTORE SWAP1 DUP12 AND PUSH1 0x20 DUP3 ADD MSTORE SWAP1 SWAP6 SWAP2 SWAP1 DUP15 SWAP1 DUP3 SWAP1 DUP2 SWAP1 PUSH1 0x40 ADD SUB DUP2 DUP12 GAS STATICCALL SWAP1 DUP2 ISZERO PUSH2 0x12D8 JUMPI DUP11 DUP16 SWAP2 DUP16 SWAP4 DUP16 DUP16 SWAP3 SWAP1 DUP15 SWAP3 DUP14 SWAP3 DUP6 SWAP2 PUSH2 0x12E2 JUMPI JUMPDEST POP AND ISZERO PUSH2 0x126B JUMPI JUMPDEST POP POP POP POP POP POP PUSH2 0x12C TIMESTAMP ADD SWAP4 DUP5 TIMESTAMP GT PUSH2 0x1258 JUMPI SWAP2 PUSH1 0xC4 SWAP2 PUSH1 0x60 SWAP5 SWAP4 DUP15 MLOAD SWAP7 DUP8 SWAP6 DUP7 SWAP5 PUSH4 0xF305D719 PUSH1 0xE0 SHL DUP7 MSTORE DUP12 DUP7 ADD MSTORE PUSH1 0x24 DUP6 ADD MSTORE DUP14 PUSH1 0x44 DUP6 ADD MSTORE DUP14 PUSH1 0x64 DUP6 ADD MSTORE ADDRESS PUSH1 0x84 DUP6 ADD MSTORE PUSH1 0xA4 DUP5 ADD MSTORE GAS CALL DUP1 ISZERO PUSH2 0x124E JUMPI SWAP1 DUP11 SWAP6 SWAP5 SWAP4 SWAP3 SWAP2 PUSH2 0x1220 JUMPI JUMPDEST POP DUP9 MLOAD SWAP1 DUP2 MSTORE PUSH1 0x1 PUSH1 0x1 PUSH1 0xA0 SHL SUB SWAP4 DUP5 AND SWAP2 DUP2 ADD SWAP2 DUP3 MSTORE SWAP5 SWAP1 SWAP3 AND PUSH1 0x20 DUP4 ADD MSTORE DUP4 SWAP2 DUP3 SWAP1 DUP2 SWAP1 PUSH1 0x40 ADD SUB SWAP2 GAS STATICCALL SWAP2 DUP3 ISZERO PUSH2 0x1215 JUMPI SWAP2 PUSH2 0x11E8 JUMPI JUMPDEST POP SWAP2 JUMPDEST MLOAD SWAP2 AND DUP2 MSTORE RETURN JUMPDEST PUSH2 0x1208 SWAP2 POP DUP5 RETURNDATASIZE DUP7 GT PUSH2 0x120E JUMPI JUMPDEST PUSH2 0x1200 DUP2 DUP4 PUSH2 0x19A5 JUMP JUMPDEST DUP2 ADD SWAP1 PUSH2 0x206C JUMP JUMPDEST DUP5 PUSH2 0x11DE JUMP JUMPDEST POP RETURNDATASIZE PUSH2 0x11F6 JUMP JUMPDEST DUP5 MLOAD SWAP1 RETURNDATASIZE SWAP1 DUP3 RETURNDATACOPY RETURNDATASIZE SWAP1 REVERT JUMPDEST PUSH2 0x1240 SWAP1 PUSH1 0x60 RETURNDATASIZE DUP2 GT PUSH2 0x1247 JUMPI JUMPDEST PUSH2 0x1238 DUP2 DUP4 PUSH2 0x19A5 JUMP JUMPDEST DUP2 ADD SWAP1 PUSH2 0x2774 JUMP JUMPDEST POP POP PUSH2 0x11A4 JUMP JUMPDEST POP RETURNDATASIZE PUSH2 0x122E JUMP JUMPDEST DUP10 MLOAD RETURNDATASIZE DUP10 DUP3 RETURNDATACOPY RETURNDATASIZE SWAP1 REVERT JUMPDEST PUSH4 0x4E487B71 PUSH1 0xE0 SHL DUP12 MSTORE PUSH1 0x11 DUP8 MSTORE PUSH1 0x24 DUP12 REVERT JUMPDEST SWAP5 MLOAD PUSH4 0x64E329CB PUSH1 0xE1 SHL DUP2 MSTORE PUSH1 0x1 PUSH1 0x1 PUSH1 0xA0 SHL SUB SWAP2 DUP3 AND SWAP6 DUP2 ADD SWAP6 DUP7 MSTORE SWAP3 AND PUSH1 0x20 DUP6 ADD MSTORE SWAP1 SWAP3 DUP4 SWAP2 SWAP1 DUP3 SWAP1 DUP2 SWAP1 PUSH1 0x40 ADD SUB SWAP2 DUP13 GAS CALL DUP1 ISZERO PUSH2 0x12D8 JUMPI SWAP1 DUP15 SWAP2 PUSH2 0x12BA JUMPI JUMPDEST POP DUP13 SWAP1 DUP11 DUP13 DUP12 DUP11 PUSH2 0x1144 JUMP JUMPDEST DUP2 PUSH2 0x12D0 SWAP3 SWAP1 RETURNDATASIZE LT PUSH2 0x120E JUMPI PUSH2 0x1200 DUP2 DUP4 PUSH2 0x19A5 JUMP JUMPDEST POP DUP13 DUP15 PUSH2 0x12AE JUMP JUMPDEST DUP14 MLOAD RETURNDATASIZE DUP14 DUP3 RETURNDATACOPY RETURNDATASIZE SWAP1 REVERT JUMPDEST PUSH2 0x12F9 SWAP2 POP DUP8 RETURNDATASIZE DUP10 GT PUSH2 0x120E JUMPI PUSH2 0x1200 DUP2 DUP4 PUSH2 0x19A5 JUMP JUMPDEST CODESIZE PUSH2 0x113C JUMP JUMPDEST PUSH2 0x1317 SWAP2 SWAP9 POP DUP13 DUP14 RETURNDATASIZE LT PUSH2 0x120E JUMPI PUSH2 0x1200 DUP2 DUP4 PUSH2 0x19A5 JUMP JUMPDEST SWAP7 DUP13 PUSH2 0x10E8 JUMP JUMPDEST DUP12 MLOAD RETURNDATASIZE DUP12 DUP3 RETURNDATACOPY RETURNDATASIZE SWAP1 REVERT JUMPDEST MLOAD SWAP1 DUP2 MSTORE PUSH1 0x1 PUSH1 0x1 PUSH1 0xA0 SHL SUB DUP8 AND DUP2 DUP11 ADD SWAP1 DUP2 MSTORE PUSH1 0x20 DUP2 ADD DUP10 SWAP1 MSTORE SWAP5 SWAP12 SWAP6 SWAP8 SWAP4 SWAP7 SWAP5 SWAP1 SWAP3 SWAP2 DUP4 SWAP2 DUP3 SWAP1 DUP2 SWAP1 PUSH1 0x40 ADD SUB SWAP2 DUP10 GAS CALL DUP1 ISZERO PUSH2 0x12D8 JUMPI DUP15 DUP12 DUP16 DUP13 SWAP10 SWAP9 SWAP8 SWAP7 SWAP6 SWAP5 PUSH2 0x13A8 SWAP5 PUSH2 0x1562 JUMPI JUMPDEST POP MLOAD PUSH4 0xE6A43905 PUSH1 0xE0 SHL DUP1 DUP3 MSTORE PUSH1 0x1 PUSH1 0x1 PUSH1 0xA0 SHL SUB SWAP11 DUP12 AND DUP13 DUP4 ADD SWAP1 DUP2 MSTORE SWAP3 SWAP1 SWAP11 AND PUSH1 0x20 DUP4 ADD MSTORE SWAP3 DUP4 SWAP2 DUP3 SWAP2 PUSH1 0x40 SWAP1 SWAP2 ADD SWAP1 JUMP JUMPDEST SUB DUP2 DUP13 GAS STATICCALL SWAP1 DUP2 ISZERO PUSH2 0x153B JUMPI DUP16 SWAP1 DUP16 SWAP3 DUP16 DUP16 SWAP2 DUP16 SWAP4 SWAP2 DUP16 SWAP3 SWAP2 DUP15 SWAP3 DUP6 SWAP2 PUSH2 0x1545 JUMPI JUMPDEST POP AND ISZERO PUSH2 0x14CE JUMPI JUMPDEST POP POP POP POP POP POP PUSH2 0x12C TIMESTAMP ADD SWAP1 DUP2 TIMESTAMP GT PUSH2 0x14BB JUMPI PUSH2 0x104 SWAP3 PUSH1 0x60 SWAP6 SWAP5 SWAP3 DUP16 SWAP3 DUP15 SWAP4 MLOAD SWAP9 DUP10 SWAP8 DUP9 SWAP7 PUSH3 0xE8E337 PUSH1 0xE8 SHL DUP9 MSTORE DUP14 DUP9 ADD MSTORE PUSH1 0x24 DUP8 ADD MSTORE PUSH1 0x44 DUP7 ADD MSTORE PUSH1 0x64 DUP6 ADD MSTORE DUP3 PUSH1 0x84 DUP6 ADD MSTORE DUP3 PUSH1 0xA4 DUP6 ADD MSTORE ADDRESS PUSH1 0xC4 DUP6 ADD MSTORE PUSH1 0xE4 DUP5 ADD MSTORE GAS CALL DUP1 ISZERO PUSH2 0x124E JUMPI SWAP1 DUP11 SWAP6 SWAP5 SWAP4 SWAP3 SWAP2 PUSH2 0x149D JUMPI JUMPDEST POP DUP9 MLOAD SWAP1 DUP2 MSTORE PUSH1 0x1 PUSH1 0x1 PUSH1 0xA0 SHL SUB SWAP4 DUP5 AND SWAP2 DUP2 ADD SWAP2 DUP3 MSTORE SWAP5 SWAP1 SWAP3 AND PUSH1 0x20 DUP4 ADD MSTORE DUP4 SWAP2 DUP3 SWAP1 DUP2 SWAP1 PUSH1 0x40 ADD SUB SWAP2 GAS STATICCALL SWAP2 DUP3 ISZERO PUSH2 0x1215 JUMPI SWAP2 PUSH2 0x1480 JUMPI JUMPDEST POP SWAP2 PUSH2 0x11E1 JUMP JUMPDEST PUSH2 0x1497 SWAP2 POP DUP5 RETURNDATASIZE DUP7 GT PUSH2 0x120E JUMPI PUSH2 0x1200 DUP2 DUP4 PUSH2 0x19A5 JUMP JUMPDEST DUP5 PUSH2 0x1479 JUMP JUMPDEST PUSH2 0x14B4 SWAP1 PUSH1 0x60 RETURNDATASIZE DUP2 GT PUSH2 0x1247 JUMPI PUSH2 0x1238 DUP2 DUP4 PUSH2 0x19A5 JUMP JUMPDEST POP POP PUSH2 0x143F JUMP JUMPDEST PUSH4 0x4E487B71 PUSH1 0xE0 SHL DUP13 MSTORE PUSH1 0x11 DUP9 MSTORE PUSH1 0x24 DUP13 REVERT JUMPDEST SWAP5 MLOAD PUSH4 0x64E329CB PUSH1 0xE1 SHL DUP2 MSTORE PUSH1 0x1 PUSH1 0x1 PUSH1 0xA0 SHL SUB SWAP2 DUP3 AND SWAP6 DUP2 ADD SWAP6 DUP7 MSTORE SWAP3 AND PUSH1 0x20 DUP6 ADD MSTORE SWAP1 SWAP3 DUP4 SWAP2 SWAP1 DUP3 SWAP1 DUP2 SWAP1 PUSH1 0x40 ADD SUB SWAP2 DUP14 GAS CALL DUP1 ISZERO PUSH2 0x153B JUMPI SWAP1 DUP16 SWAP2 PUSH2 0x151D JUMPI JUMPDEST POP DUP14 SWAP1 DUP12 DUP14 DUP13 DUP12 PUSH2 0x13D2 JUMP JUMPDEST DUP2 PUSH2 0x1533 SWAP3 SWAP1 RETURNDATASIZE LT PUSH2 0x120E JUMPI PUSH2 0x1200 DUP2 DUP4 PUSH2 0x19A5 JUMP JUMPDEST POP DUP14 DUP16 PUSH2 0x1511 JUMP JUMPDEST DUP15 MLOAD RETURNDATASIZE DUP15 DUP3 RETURNDATACOPY RETURNDATASIZE SWAP1 REVERT JUMPDEST PUSH2 0x155C SWAP2 POP DUP8 RETURNDATASIZE DUP10 GT PUSH2 0x120E JUMPI PUSH2 0x1200 DUP2 DUP4 PUSH2 0x19A5 JUMP JUMPDEST CODESIZE PUSH2 0x13CA JUMP JUMPDEST PUSH2 0x1581 SWAP1 DUP5 RETURNDATASIZE DUP7 GT PUSH2 0x1588 JUMPI JUMPDEST PUSH2 0x1579 DUP2 DUP4 PUSH2 0x19A5 JUMP JUMPDEST DUP2 ADD SWAP1 PUSH2 0x21FC JUMP JUMPDEST POP CODESIZE PUSH2 0x1374 JUMP JUMPDEST POP RETURNDATASIZE PUSH2 0x156F JUMP JUMPDEST PUSH2 0x15A6 SWAP2 POP DUP14 DUP1 RETURNDATASIZE LT PUSH2 0x120E JUMPI PUSH2 0x1200 DUP2 DUP4 PUSH2 0x19A5 JUMP JUMPDEST DUP14 PUSH2 0x108C JUMP JUMPDEST PUSH2 0x15C2 SWAP1 DUP13 DUP14 RETURNDATASIZE LT PUSH2 0x1588 JUMPI PUSH2 0x1579 DUP2 DUP4 PUSH2 0x19A5 JUMP JUMPDEST POP DUP12 PUSH2 0x1067 JUMP JUMPDEST DUP4 MLOAD PUSH4 0xEA8E4EB5 PUSH1 0xE0 SHL DUP2 MSTORE REVERT JUMPDEST POP POP CALLVALUE PUSH2 0x2AD JUMPI DUP2 PUSH1 0x3 NOT CALLDATASIZE ADD SLT PUSH2 0x2AD JUMPI PUSH1 0x20 SWAP1 MLOAD PUSH32 0x0 DUP2 MSTORE RETURN JUMPDEST POP POP CALLVALUE PUSH2 0x2AD JUMPI DUP2 PUSH1 0x3 NOT CALLDATASIZE ADD SLT PUSH2 0x2AD JUMPI PUSH2 0xC35 SWAP1 PUSH1 0xFF PUSH1 0x2 SLOAD PUSH1 0xA0 SHR AND SWAP1 MLOAD SWAP2 DUP3 SWAP2 DUP3 PUSH2 0x1795 JUMP JUMPDEST POP POP CALLVALUE PUSH2 0x2AD JUMPI DUP2 PUSH1 0x3 NOT CALLDATASIZE ADD SLT PUSH2 0x2AD JUMPI PUSH1 0x20 SWAP1 MLOAD PUSH32 0x0 DUP2 MSTORE RETURN JUMPDEST POP POP CALLVALUE PUSH2 0x2AD JUMPI DUP2 PUSH1 0x3 NOT CALLDATASIZE ADD SLT PUSH2 0x2AD JUMPI PUSH1 0x20 SWAP1 MLOAD PUSH2 0xFFFF PUSH32 0x0 AND DUP2 MSTORE RETURN JUMPDEST POP POP CALLVALUE PUSH2 0x2AD JUMPI DUP2 PUSH1 0x3 NOT CALLDATASIZE ADD SLT PUSH2 0x2AD JUMPI MLOAD PUSH32 0x0 PUSH1 0x1 PUSH1 0x1 PUSH1 0xA0 SHL SUB AND DUP2 MSTORE PUSH1 0x20 SWAP1 RETURN JUMPDEST SWAP1 POP CALLVALUE PUSH2 0x36B JUMPI PUSH1 0x20 CALLDATASIZE PUSH1 0x3 NOT ADD SLT PUSH2 0x36B JUMPI CALLDATALOAD SWAP1 PUSH4 0xFFFFFFFF PUSH1 0xE0 SHL DUP3 AND DUP1 SWAP3 SUB PUSH2 0x36B JUMPI PUSH1 0x20 SWAP3 POP PUSH4 0x7965DB0B PUSH1 0xE0 SHL DUP3 EQ SWAP2 DUP3 ISZERO PUSH2 0x173F JUMPI JUMPDEST POP MLOAD SWAP1 ISZERO ISZERO DUP2 MSTORE RETURN JUMPDEST PUSH4 0x1FFC9A7 PUSH1 0xE0 SHL EQ SWAP2 POP CODESIZE PUSH2 0x1736 JUMP JUMPDEST SWAP2 SWAP1 POP CALLVALUE PUSH2 0x36B JUMPI DUP3 PUSH1 0x3 NOT CALLDATASIZE ADD SLT PUSH2 0x36B JUMPI PUSH2 0x176B PUSH2 0x1982 JUMP JUMPDEST PUSH2 0x1773 PUSH2 0x17EF JUMP JUMPDEST PUSH1 0xFF PUSH1 0x6 SLOAD PUSH1 0x10 SHR AND PUSH1 0x5 DUP2 LT ISZERO PUSH2 0x665 JUMPI PUSH1 0x3 SUB PUSH2 0x34B JUMPI DUP3 PUSH2 0x3BE PUSH2 0x24E1 JUMP JUMPDEST SWAP2 SWAP1 PUSH1 0x20 DUP4 ADD SWAP3 PUSH1 0x6 DUP3 LT ISZERO PUSH2 0x17A8 JUMPI MSTORE JUMP JUMPDEST PUSH4 0x4E487B71 PUSH1 0xE0 SHL PUSH1 0x0 MSTORE PUSH1 0x21 PUSH1 0x4 MSTORE PUSH1 0x24 PUSH1 0x0 REVERT JUMPDEST PUSH1 0x24 CALLDATALOAD SWAP1 PUSH1 0x1 PUSH1 0x1 PUSH1 0xA0 SHL SUB DUP3 AND DUP3 SUB PUSH2 0x17D4 JUMPI JUMP JUMPDEST PUSH1 0x0 DUP1 REVERT JUMPDEST PUSH1 0x4 CALLDATALOAD SWAP1 PUSH1 0x1 PUSH1 0x1 PUSH1 0xA0 SHL SUB DUP3 AND DUP3 SUB PUSH2 0x17D4 JUMPI JUMP JUMPDEST CALLER PUSH1 0x0 SWAP1 DUP2 MSTORE PUSH32 0x7D7FFB7A348E1C6A02869081A26547B49160DD3DF72D1D75A570EB9B698292EC PUSH1 0x20 MSTORE PUSH1 0x40 SWAP1 KECCAK256 SLOAD PUSH32 0xA49807205CE4D355092EF5A8A18F56E8913CF4A201FBE287825B095693C21775 SWAP1 PUSH1 0xFF AND ISZERO PUSH2 0x184B JUMPI POP JUMP JUMPDEST PUSH1 0x44 SWAP1 PUSH1 0x40 MLOAD SWAP1 PUSH4 0xE2517D3F PUSH1 0xE0 SHL DUP3 MSTORE CALLER PUSH1 0x4 DUP4 ADD MSTORE PUSH1 0x24 DUP3 ADD MSTORE REVERT JUMPDEST DUP1 PUSH1 0x0 MSTORE PUSH1 0x0 PUSH1 0x20 MSTORE PUSH1 0x40 PUSH1 0x0 KECCAK256 CALLER PUSH1 0x0 MSTORE PUSH1 0x20 MSTORE PUSH1 0xFF PUSH1 0x40 PUSH1 0x0 KECCAK256 SLOAD AND ISZERO PUSH2 0x184B JUMPI POP JUMP JUMPDEST SWAP1 PUSH1 0x0 SWAP2 DUP1 DUP4 MSTORE DUP3 PUSH1 0x20 MSTORE PUSH1 0x40 DUP4 KECCAK256 SWAP2 PUSH1 0x1 DUP1 PUSH1 0xA0 SHL SUB AND SWAP2 DUP3 DUP5 MSTORE PUSH1 0x20 MSTORE PUSH1 0xFF PUSH1 0x40 DUP5 KECCAK256 SLOAD AND ISZERO PUSH1 0x0 EQ PUSH2 0x1908 JUMPI DUP1 DUP4 MSTORE DUP3 PUSH1 0x20 MSTORE PUSH1 0x40 DUP4 KECCAK256 DUP3 DUP5 MSTORE PUSH1 0x20 MSTORE PUSH1 0x40 DUP4 KECCAK256 PUSH1 0x1 PUSH1 0xFF NOT DUP3 SLOAD AND OR SWAP1 SSTORE PUSH32 0x2F8788117E7EFF1D82E926EC794901D17C78024A50270940304540A733656F0D CALLER SWAP4 DUP1 LOG4 PUSH1 0x1 SWAP1 JUMP JUMPDEST POP POP SWAP1 JUMP JUMPDEST SWAP1 PUSH1 0x0 SWAP2 DUP1 DUP4 MSTORE DUP3 PUSH1 0x20 MSTORE PUSH1 0x40 DUP4 KECCAK256 SWAP2 PUSH1 0x1 DUP1 PUSH1 0xA0 SHL SUB AND SWAP2 DUP3 DUP5 MSTORE PUSH1 0x20 MSTORE PUSH1 0xFF PUSH1 0x40 DUP5 KECCAK256 SLOAD AND PUSH1 0x0 EQ PUSH2 0x1908 JUMPI DUP1 DUP4 MSTORE DUP3 PUSH1 0x20 MSTORE PUSH1 0x40 DUP4 KECCAK256 DUP3 DUP5 MSTORE PUSH1 0x20 MSTORE PUSH1 0x40 DUP4 KECCAK256 PUSH1 0xFF NOT DUP2 SLOAD AND SWAP1 SSTORE PUSH32 0xF6391F5C32D9C69D2A47EA670B442974B53935D1EDC7FD64EB21E047A839171B CALLER SWAP4 DUP1 LOG4 PUSH1 0x1 SWAP1 JUMP JUMPDEST PUSH1 0x2 PUSH1 0x1 SLOAD EQ PUSH2 0x1993 JUMPI PUSH1 0x2 PUSH1 0x1 SSTORE JUMP JUMPDEST PUSH1 0x40 MLOAD PUSH4 0x3EE5AEB5 PUSH1 0xE0 SHL DUP2 MSTORE PUSH1 0x4 SWAP1 REVERT JUMPDEST SWAP1 PUSH1 0x1F DUP1 NOT SWAP2 ADD AND DUP2 ADD SWAP1 DUP2 LT PUSH8 0xFFFFFFFFFFFFFFFF DUP3 GT OR PUSH2 0x19C7 JUMPI PUSH1 0x40 MSTORE JUMP JUMPDEST PUSH4 0x4E487B71 PUSH1 0xE0 SHL PUSH1 0x0 MSTORE PUSH1 0x41 PUSH1 0x4 MSTORE PUSH1 0x24 PUSH1 0x0 REVERT JUMPDEST SWAP1 PUSH1 0x0 PUSH1 0x20 SWAP2 DUP3 DUP2 MLOAD SWAP2 ADD DUP3 DUP6 GAS CALL ISZERO PUSH2 0x1A39 JUMPI PUSH1 0x0 MLOAD RETURNDATASIZE PUSH2 0x1A30 JUMPI POP PUSH1 0x1 PUSH1 0x1 PUSH1 0xA0 SHL SUB DUP2 AND EXTCODESIZE ISZERO JUMPDEST PUSH2 0x1A0E JUMPI POP JUMP JUMPDEST PUSH1 0x40 MLOAD PUSH4 0x5274AFE7 PUSH1 0xE0 SHL DUP2 MSTORE PUSH1 0x1 PUSH1 0x1 PUSH1 0xA0 SHL SUB SWAP1 SWAP2 AND PUSH1 0x4 DUP3 ADD MSTORE PUSH1 0x24 SWAP1 REVERT JUMPDEST PUSH1 0x1 EQ ISZERO PUSH2 0x1A07 JUMP JUMPDEST PUSH1 0x40 MLOAD RETURNDATASIZE PUSH1 0x0 DUP3 RETURNDATACOPY RETURNDATASIZE SWAP1 REVERT JUMPDEST SWAP2 SWAP1 DUP3 ADD DUP1 SWAP3 GT PUSH2 0x1A52 JUMPI JUMP JUMPDEST PUSH4 0x4E487B71 PUSH1 0xE0 SHL PUSH1 0x0 MSTORE PUSH1 0x11 PUSH1 0x4 MSTORE PUSH1 0x24 PUSH1 0x0 REVERT JUMPDEST SWAP2 SWAP1 SWAP2 PUSH2 0x1A73 PUSH2 0x278F JUMP JUMPDEST PUSH1 0xFF PUSH1 0x2 SLOAD PUSH1 0xA0 SHR AND PUSH1 0x6 DUP2 LT ISZERO PUSH2 0x17A8 JUMPI PUSH1 0x1 SUB PUSH2 0x1BC8 JUMPI PUSH1 0xFF PUSH1 0x6 SLOAD PUSH1 0x8 SHR AND PUSH2 0x1BB6 JUMPI PUSH32 0x0 DUP4 LT PUSH2 0x1BA4 JUMPI PUSH1 0x1 DUP1 PUSH1 0xA0 SHL SUB AND PUSH1 0x0 SWAP3 DUP2 DUP5 MSTORE PUSH1 0x7 PUSH1 0x20 MSTORE PUSH1 0x40 SWAP1 PUSH2 0x1AE3 DUP2 DUP4 DUP8 KECCAK256 SLOAD PUSH2 0x1A45 JUMP JUMPDEST PUSH32 0x0 DUP2 GT PUSH2 0x1B93 JUMPI DUP4 DUP7 MSTORE PUSH1 0x7 PUSH1 0x20 MSTORE DUP3 DUP7 KECCAK256 SLOAD ISZERO PUSH2 0x1B68 JUMPI JUMPDEST DUP3 DUP7 DUP6 PUSH32 0xFA35A310D7113DDDCE1C275DA946348E9AAEBF9050B00B372033C4D84B0BD6EB SWAP7 SWAP8 SWAP9 MSTORE PUSH1 0x7 PUSH1 0x20 MSTORE KECCAK256 SSTORE PUSH2 0x1B57 DUP2 PUSH1 0x3 SLOAD PUSH2 0x1A45 JUMP JUMPDEST DUP1 PUSH1 0x3 SSTORE DUP3 MLOAD SWAP2 DUP3 MSTORE PUSH1 0x20 DUP3 ADD MSTORE LOG2 JUMP JUMPDEST PUSH1 0x4 SLOAD PUSH1 0x0 NOT DUP2 EQ PUSH2 0x1B7F JUMPI PUSH1 0x1 ADD PUSH1 0x4 SSTORE PUSH2 0x1B1C JUMP JUMPDEST PUSH4 0x4E487B71 PUSH1 0xE0 SHL DUP8 MSTORE PUSH1 0x11 PUSH1 0x4 MSTORE PUSH1 0x24 DUP8 REVERT JUMPDEST DUP3 MLOAD PUSH4 0x5E508CD3 PUSH1 0xE1 SHL DUP2 MSTORE PUSH1 0x4 SWAP1 REVERT JUMPDEST PUSH1 0x40 MLOAD PUSH4 0x6C7591B5 PUSH1 0xE1 SHL DUP2 MSTORE PUSH1 0x4 SWAP1 REVERT JUMPDEST PUSH1 0x40 MLOAD PUSH4 0xAB35696F PUSH1 0xE0 SHL DUP2 MSTORE PUSH1 0x4 SWAP1 REVERT JUMPDEST PUSH1 0x40 MLOAD PUSH4 0x7A92F19 PUSH1 0xE5 SHL DUP2 MSTORE PUSH1 0x4 SWAP1 REVERT JUMPDEST PUSH2 0x1BE2 PUSH2 0x278F JUMP JUMPDEST PUSH1 0x2 SLOAD PUSH1 0xFF DUP1 DUP3 PUSH1 0xA0 SHR AND PUSH1 0x6 DUP2 LT ISZERO PUSH2 0x17A8 JUMPI PUSH1 0x2 SUB PUSH2 0x1BC8 JUMPI PUSH1 0x6 SLOAD DUP2 DUP2 AND PUSH2 0x1CFB JUMPI PUSH1 0x3 SLOAD PUSH32 0x0 GT PUSH2 0x1CC2 JUMPI DUP2 SWAP3 POP PUSH1 0x10 SHR AND PUSH1 0x5 DUP2 LT ISZERO PUSH2 0x17A8 JUMPI ISZERO PUSH2 0x1CB5 JUMPI JUMPDEST DUP1 PUSH1 0x6 SLOAD PUSH1 0x10 SHR AND PUSH1 0x5 DUP2 LT ISZERO PUSH2 0x17A8 JUMPI PUSH1 0x1 EQ PUSH2 0x1CA8 JUMPI JUMPDEST DUP1 PUSH1 0x6 SLOAD PUSH1 0x10 SHR AND PUSH1 0x5 DUP2 LT ISZERO PUSH2 0x17A8 JUMPI PUSH1 0x2 EQ PUSH2 0x1C9B JUMPI JUMPDEST PUSH1 0x6 SLOAD PUSH1 0x10 SHR AND PUSH1 0x5 DUP2 LT ISZERO PUSH2 0x17A8 JUMPI PUSH1 0x3 EQ PUSH2 0x1C91 JUMPI JUMP JUMPDEST PUSH2 0x1C99 PUSH2 0x24E1 JUMP JUMPDEST JUMP JUMPDEST PUSH2 0x1CA3 PUSH2 0x2214 JUMP JUMPDEST PUSH2 0x1C78 JUMP JUMPDEST PUSH2 0x1CB0 PUSH2 0x208B JUMP JUMPDEST PUSH2 0x1C5F JUMP JUMPDEST PUSH2 0x1CBD PUSH2 0x1E87 JUMP JUMPDEST PUSH2 0x1C46 JUMP JUMPDEST POP POP PUSH1 0xFF PUSH1 0xA0 SHL NOT AND PUSH1 0x1 PUSH1 0xA2 SHL OR PUSH1 0x2 SSTORE PUSH32 0xE48846A3DCA191C762AB6AAA1E929CCAF55E31A875FB78AD1B93E15EF4830ACA PUSH1 0x0 DUP1 LOG1 JUMP JUMPDEST POP POP POP JUMP JUMPDEST PUSH1 0x2 PUSH1 0xFF DUP2 SLOAD PUSH1 0xA0 SHR AND PUSH1 0x6 DUP2 LT ISZERO PUSH2 0x17A8 JUMPI DUP2 SUB PUSH2 0x1D9A JUMPI JUMPDEST PUSH1 0x3 SLOAD PUSH32 0x0 GT PUSH2 0x1D62 JUMPI POP PUSH1 0xFF PUSH1 0x6 SLOAD PUSH1 0x10 SHR AND PUSH1 0x5 DUP2 LT ISZERO PUSH2 0x17A8 JUMPI PUSH2 0x1BC8 JUMPI PUSH2 0x1C99 PUSH2 0x1E87 JUMP JUMPDEST DUP1 SLOAD PUSH1 0xFF PUSH1 0xA0 SHL NOT AND PUSH1 0x1 PUSH1 0xA2 SHL OR SWAP1 SSTORE PUSH32 0xE48846A3DCA191C762AB6AAA1E929CCAF55E31A875FB78AD1B93E15EF4830ACA PUSH1 0x0 DUP1 LOG1 JUMP JUMPDEST PUSH2 0x1DA2 PUSH2 0x278F JUMP JUMPDEST PUSH1 0xFF DUP2 SLOAD PUSH1 0xA0 SHR AND PUSH1 0x6 DUP2 LT ISZERO PUSH2 0x17A8 JUMPI DUP2 EQ PUSH2 0x1D1A JUMPI PUSH1 0x40 MLOAD PUSH4 0x7A92F19 PUSH1 0xE5 SHL DUP2 MSTORE PUSH1 0x4 SWAP1 REVERT JUMPDEST DUP2 DUP2 MUL SWAP3 SWAP2 DUP2 ISZERO SWAP2 DUP5 DIV EQ OR ISZERO PUSH2 0x1A52 JUMPI JUMP JUMPDEST DUP2 ISZERO PUSH2 0x1DE8 JUMPI DIV SWAP1 JUMP JUMPDEST PUSH4 0x4E487B71 PUSH1 0xE0 SHL PUSH1 0x0 MSTORE PUSH1 0x12 PUSH1 0x4 MSTORE PUSH1 0x24 PUSH1 0x0 REVERT JUMPDEST RETURNDATASIZE ISZERO PUSH2 0x1E39 JUMPI RETURNDATASIZE SWAP1 PUSH8 0xFFFFFFFFFFFFFFFF DUP3 GT PUSH2 0x19C7 JUMPI PUSH1 0x40 MLOAD SWAP2 PUSH2 0x1E2D PUSH1 0x1F DUP3 ADD PUSH1 0x1F NOT AND PUSH1 0x20 ADD DUP5 PUSH2 0x19A5 JUMP JUMPDEST DUP3 MSTORE RETURNDATASIZE PUSH1 0x0 PUSH1 0x20 DUP5 ADD RETURNDATACOPY JUMP JUMPDEST PUSH1 0x60 SWAP1 JUMP JUMPDEST PUSH1 0x20 DUP1 DUP3 MSTORE DUP3 MLOAD DUP2 DUP4 ADD DUP2 SWAP1 MSTORE SWAP1 SWAP4 SWAP3 PUSH1 0x0 JUMPDEST DUP3 DUP2 LT PUSH2 0x1E73 JUMPI POP POP PUSH1 0x40 SWAP3 SWAP4 POP PUSH1 0x0 DUP4 DUP3 DUP5 ADD ADD MSTORE PUSH1 0x1F DUP1 NOT SWAP2 ADD AND ADD ADD SWAP1 JUMP JUMPDEST DUP2 DUP2 ADD DUP7 ADD MLOAD DUP5 DUP3 ADD PUSH1 0x40 ADD MSTORE DUP6 ADD PUSH2 0x1E51 JUMP JUMPDEST PUSH1 0x5 SLOAD ISZERO PUSH2 0x1FCE JUMPI JUMPDEST PUSH1 0x3 SLOAD PUSH2 0x1F4 SWAP1 DUP2 DUP2 MUL SWAP2 DUP2 DUP4 DIV EQ SWAP1 ISZERO OR ISZERO PUSH2 0x1A52 JUMPI PUSH2 0x2710 SWAP1 DIV PUSH1 0x1 PUSH1 0x1 PUSH1 0xA0 SHL SUB PUSH32 0x0 DUP2 AND DUP1 PUSH2 0x1F9C JUMPI POP PUSH32 0x0 AND DUP1 EXTCODESIZE ISZERO PUSH2 0x17D4 JUMPI PUSH1 0x0 SWAP1 PUSH1 0x24 PUSH1 0x40 MLOAD DUP1 SWAP5 DUP2 SWAP4 PUSH4 0x39650D1F PUSH1 0xE0 SHL DUP4 MSTORE ADDRESS PUSH1 0x4 DUP5 ADD MSTORE GAS CALL SWAP1 DUP2 PUSH2 0x1F84 JUMPI JUMPDEST POP PUSH2 0x1F58 JUMPI PUSH2 0x1F54 PUSH2 0x1F3B PUSH2 0x1DFE JUMP JUMPDEST PUSH1 0x40 MLOAD PUSH4 0xFB6A2B5 PUSH1 0xE2 SHL DUP2 MSTORE SWAP2 DUP3 SWAP2 PUSH1 0x4 DUP4 ADD PUSH2 0x1E3E JUMP JUMPDEST SUB SWAP1 REVERT JUMPDEST PUSH3 0x10000 PUSH3 0xFF0000 NOT PUSH1 0x6 SLOAD AND OR PUSH1 0x6 SSTORE PUSH1 0x0 DUP1 MLOAD PUSH1 0x20 PUSH2 0x2948 DUP4 CODECOPY DUP2 MLOAD SWAP2 MSTORE PUSH1 0x20 PUSH1 0x40 MLOAD PUSH1 0x1 DUP2 MSTORE LOG1 JUMP JUMPDEST PUSH8 0xFFFFFFFFFFFFFFFF DUP2 GT PUSH2 0x19C7 JUMPI PUSH1 0x40 MSTORE CODESIZE PUSH2 0x1F2B JUMP JUMPDEST PUSH2 0x1FC9 SWAP3 SWAP2 POP PUSH32 0x0 SWAP1 PUSH2 0x201E JUMP JUMPDEST PUSH2 0x1F58 JUMP JUMPDEST PUSH1 0x3 SLOAD PUSH8 0xDE0B6B3A7640000 SWAP1 DUP2 DUP2 MUL SWAP2 DUP2 DUP4 DIV EQ SWAP1 ISZERO OR ISZERO PUSH2 0x1A52 JUMPI PUSH2 0x2016 SWAP1 PUSH32 0x0 SWAP1 PUSH2 0x1DDE JUMP JUMPDEST PUSH1 0x5 SSTORE PUSH2 0x1E90 JUMP JUMPDEST PUSH1 0x40 MLOAD PUSH4 0xA9059CBB PUSH1 0xE0 SHL PUSH1 0x20 DUP3 ADD MSTORE PUSH1 0x1 PUSH1 0x1 PUSH1 0xA0 SHL SUB SWAP3 SWAP1 SWAP3 AND PUSH1 0x24 DUP4 ADD MSTORE PUSH1 0x44 DUP1 DUP4 ADD SWAP4 SWAP1 SWAP4 MSTORE SWAP2 DUP2 MSTORE PUSH2 0x1C99 SWAP2 PUSH2 0x205A PUSH1 0x64 DUP4 PUSH2 0x19A5 JUMP JUMPDEST PUSH2 0x19DD JUMP JUMPDEST SWAP2 SWAP1 DUP3 SUB SWAP2 DUP3 GT PUSH2 0x1A52 JUMPI JUMP JUMPDEST SWAP1 DUP2 PUSH1 0x20 SWAP2 SUB SLT PUSH2 0x17D4 JUMPI MLOAD PUSH1 0x1 PUSH1 0x1 PUSH1 0xA0 SHL SUB DUP2 AND DUP2 SUB PUSH2 0x17D4 JUMPI SWAP1 JUMP JUMPDEST PUSH1 0x3 SLOAD PUSH2 0x1F4 DUP1 DUP3 MUL SWAP1 DUP3 DUP3 DIV EQ DUP3 ISZERO OR ISZERO PUSH2 0x1A52 JUMPI PUSH2 0x20DC PUSH2 0x20B5 PUSH2 0x2710 SWAP4 DUP5 DUP1 SWAP5 DIV SWAP1 PUSH2 0x205F JUMP JUMPDEST PUSH32 0x0 SWAP1 PUSH2 0x1DCB JUMP JUMPDEST DIV SWAP1 PUSH1 0x5 SLOAD PUSH2 0xFFFF PUSH32 0x0 AND DUP3 ADD DUP1 DUP4 GT PUSH2 0x1A52 JUMPI PUSH2 0x2118 SWAP2 PUSH2 0x1DCB JUMP JUMPDEST DIV PUSH8 0xDE0B6B3A7640000 SWAP1 DUP2 DUP4 MUL SWAP2 DUP4 DUP4 DIV EQ DUP4 ISZERO OR ISZERO PUSH2 0x1A52 JUMPI PUSH2 0x213C SWAP2 PUSH2 0x1DDE JUMP JUMPDEST SWAP1 PUSH1 0x40 MLOAD SWAP2 PUSH4 0x112749FF PUSH1 0xE1 SHL DUP4 MSTORE PUSH1 0x4 DUP4 ADD MSTORE PUSH1 0x24 DUP3 ADD MSTORE PUSH1 0x20 DUP2 PUSH1 0x44 DUP2 PUSH1 0x0 ADDRESS GAS CALL PUSH1 0x0 SWAP2 DUP2 PUSH2 0x21DC JUMPI JUMPDEST POP PUSH2 0x2192 JUMPI PUSH2 0x1F54 PUSH2 0x2179 PUSH2 0x1DFE JUMP JUMPDEST PUSH1 0x40 MLOAD PUSH4 0xABC035F PUSH1 0xE4 SHL DUP2 MSTORE SWAP2 DUP3 SWAP2 PUSH1 0x4 DUP4 ADD PUSH2 0x1E3E JUMP JUMPDEST PUSH1 0x6 DUP1 SLOAD PUSH3 0x10000 PUSH1 0x1 PUSH1 0xB8 SHL SUB NOT AND PUSH1 0x18 SWAP3 SWAP1 SWAP3 SHL PUSH4 0x1000000 PUSH1 0x1 PUSH1 0xB8 SHL SUB AND SWAP2 SWAP1 SWAP2 OR PUSH3 0x20000 OR SWAP1 SSTORE PUSH1 0x40 MLOAD PUSH1 0x2 DUP2 MSTORE PUSH1 0x0 DUP1 MLOAD PUSH1 0x20 PUSH2 0x2948 DUP4 CODECOPY DUP2 MLOAD SWAP2 MSTORE SWAP1 PUSH1 0x20 SWAP1 LOG1 JUMP JUMPDEST PUSH2 0x21F5 SWAP2 SWAP3 POP PUSH1 0x20 RETURNDATASIZE DUP2 GT PUSH2 0x120E JUMPI PUSH2 0x1200 DUP2 DUP4 PUSH2 0x19A5 JUMP JUMPDEST SWAP1 CODESIZE PUSH2 0x2169 JUMP JUMPDEST SWAP1 DUP2 PUSH1 0x20 SWAP2 SUB SLT PUSH2 0x17D4 JUMPI MLOAD DUP1 ISZERO ISZERO DUP2 SUB PUSH2 0x17D4 JUMPI SWAP1 JUMP JUMPDEST PUSH1 0x6 SLOAD PUSH1 0x1 PUSH1 0x1 PUSH1 0xA0 SHL SUB SWAP1 PUSH1 0x18 SHR DUP2 AND DUP1 ISZERO PUSH2 0x24A9 JUMPI DUP2 PUSH1 0x2 SLOAD AND DUP1 ISZERO PUSH2 0x2464 JUMPI PUSH1 0x40 DUP1 MLOAD PUSH4 0x70A08231 PUSH1 0xE0 SHL DUP2 MSTORE ADDRESS PUSH1 0x4 DUP3 ADD MSTORE SWAP1 SWAP4 PUSH1 0x20 SWAP4 DUP5 DUP4 PUSH1 0x24 DUP2 DUP5 GAS STATICCALL SWAP3 DUP4 ISZERO PUSH2 0x242A JUMPI PUSH1 0x0 SWAP4 PUSH2 0x2435 JUMPI JUMPDEST POP PUSH3 0x278D00 PUSH32 0x0 DUP2 DUP2 MUL SWAP3 SWAP2 DUP2 ISZERO SWAP2 DUP5 DIV EQ OR ISZERO PUSH2 0x1A52 JUMPI DUP4 DUP7 SWAP2 PUSH2 0x22AD PUSH2 0x22E5 SWAP5 TIMESTAMP PUSH2 0x1A45 JUMP JUMPDEST DUP10 MLOAD PUSH4 0x95EA7B3 PUSH1 0xE0 SHL DUP2 MSTORE PUSH1 0x1 PUSH1 0x1 PUSH1 0xA0 SHL SUB SWAP1 SWAP9 AND PUSH1 0x4 DUP10 ADD MSTORE PUSH1 0x24 DUP9 ADD SWAP3 SWAP1 SWAP3 MSTORE SWAP1 SWAP6 SWAP3 DUP4 SWAP2 SWAP1 DUP3 SWAP1 PUSH1 0x0 SWAP1 DUP3 SWAP1 PUSH1 0x44 DUP3 ADD SWAP1 JUMP JUMPDEST SUB SWAP3 GAS CALL DUP1 ISZERO PUSH2 0x242A JUMPI PUSH2 0x240D JUMPI JUMPDEST POP PUSH1 0x0 DUP5 DUP1 DUP4 PUSH1 0x2 SLOAD AND PUSH1 0x84 DUP6 PUSH1 0x6 SLOAD PUSH1 0x18 SHR AND DUP11 MLOAD SWAP6 DUP7 SWAP4 DUP5 SWAP3 PUSH4 0xAA393F3 PUSH1 0xE0 SHL DUP5 MSTORE PUSH1 0x4 DUP5 ADD MSTORE DUP10 PUSH1 0x24 DUP5 ADD MSTORE DUP11 PUSH1 0x44 DUP5 ADD MSTORE DUP9 PUSH32 0x0 AND PUSH1 0x64 DUP5 ADD MSTORE GAS CALL SWAP2 DUP3 PUSH2 0x23E4 JUMPI JUMPDEST POP POP PUSH2 0x2385 JUMPI PUSH2 0x1F54 DUP6 PUSH2 0x236D PUSH2 0x1DFE JUMP JUMPDEST SWAP1 MLOAD PUSH4 0x1953EA3 PUSH1 0xE1 SHL DUP2 MSTORE SWAP2 DUP3 SWAP2 PUSH1 0x4 DUP4 ADD PUSH2 0x1E3E JUMP JUMPDEST SWAP2 PUSH3 0x30000 SWAP2 PUSH32 0xE3AFAE9EC63E6F2E914C17BAB8493B603680A72D9E6DFACF25AC6A4806555D41 DUP7 PUSH1 0x0 DUP1 MLOAD PUSH1 0x20 PUSH2 0x2948 DUP4 CODECOPY DUP2 MLOAD SWAP2 MSTORE SWAP8 SWAP6 PUSH1 0x6 SLOAD SWAP5 DUP3 MLOAD SWAP5 DUP6 MSTORE DUP9 DUP6 ADD MSTORE DUP5 PUSH1 0x18 SHR AND SWAP3 LOG2 PUSH3 0xFF0000 NOT AND OR PUSH1 0x6 SSTORE MLOAD PUSH1 0x3 DUP2 MSTORE LOG1 JUMP JUMPDEST DUP2 RETURNDATASIZE DUP4 GT PUSH2 0x2406 JUMPI JUMPDEST PUSH2 0x23F7 DUP2 DUP4 PUSH2 0x19A5 JUMP JUMPDEST DUP2 ADD SUB SLT PUSH2 0x17D4 JUMPI DUP5 CODESIZE PUSH2 0x235B JUMP JUMPDEST POP RETURNDATASIZE PUSH2 0x23ED JUMP JUMPDEST PUSH2 0x2423 SWAP1 DUP6 RETURNDATASIZE DUP8 GT PUSH2 0x1588 JUMPI PUSH2 0x1579 DUP2 DUP4 PUSH2 0x19A5 JUMP JUMPDEST POP CODESIZE PUSH2 0x22F4 JUMP JUMPDEST DUP7 MLOAD RETURNDATASIZE PUSH1 0x0 DUP3 RETURNDATACOPY RETURNDATASIZE SWAP1 REVERT JUMPDEST SWAP1 SWAP3 DUP6 DUP3 DUP2 RETURNDATASIZE DUP4 GT PUSH2 0x245D JUMPI JUMPDEST PUSH2 0x244C DUP2 DUP4 PUSH2 0x19A5 JUMP JUMPDEST DUP2 ADD SUB SLT PUSH2 0x73B JUMPI POP MLOAD SWAP2 CODESIZE PUSH2 0x2266 JUMP JUMPDEST POP RETURNDATASIZE PUSH2 0x2442 JUMP JUMPDEST PUSH1 0x40 MLOAD PUSH3 0x461BCD PUSH1 0xE5 SHL DUP2 MSTORE PUSH1 0x20 PUSH1 0x4 DUP3 ADD MSTORE PUSH1 0x18 PUSH1 0x24 DUP3 ADD MSTORE PUSH32 0x4C50204C6F636B6572206E6F7420636F6E666967757265640000000000000000 PUSH1 0x44 DUP3 ADD MSTORE PUSH1 0x64 SWAP1 REVERT JUMPDEST PUSH1 0x40 MLOAD PUSH3 0x461BCD PUSH1 0xE5 SHL DUP2 MSTORE PUSH1 0x20 PUSH1 0x4 DUP3 ADD MSTORE PUSH1 0x10 PUSH1 0x24 DUP3 ADD MSTORE PUSH16 0x131408151BDAD95B881B9BDD081CD95D PUSH1 0x82 SHL PUSH1 0x44 DUP3 ADD MSTORE PUSH1 0x64 SWAP1 REVERT JUMPDEST PUSH1 0x3 SLOAD PUSH2 0x1F4 DUP1 DUP3 MUL SWAP1 DUP3 DUP3 DIV EQ DUP3 ISZERO OR ISZERO PUSH2 0x1A52 JUMPI PUSH2 0x250A PUSH2 0x253C SWAP3 PUSH2 0x2710 DUP1 SWAP4 DIV SWAP1 PUSH2 0x205F JUMP JUMPDEST SWAP1 PUSH2 0x2535 PUSH32 0x0 DUP4 PUSH2 0x1DCB JUMP JUMPDEST DIV SWAP1 PUSH2 0x205F JUMP JUMPDEST PUSH1 0x1 PUSH1 0x1 PUSH1 0xA0 SHL SUB SWAP1 PUSH32 0x0 DUP3 DUP2 AND PUSH2 0x26A7 JUMPI JUMPDEST POP PUSH32 0x0 DUP3 AND DUP1 PUSH2 0x2671 JUMPI POP PUSH1 0x0 DUP1 DUP1 DUP1 SWAP4 PUSH32 0x0 GAS CALL PUSH2 0x25C9 PUSH2 0x1DFE JUMP JUMPDEST POP ISZERO PUSH2 0x265F JUMPI PUSH3 0x40001 SWAP1 JUMPDEST PUSH1 0x3 PUSH1 0xA0 SHL PUSH1 0xFF PUSH1 0xA0 SHL NOT PUSH1 0x2 SLOAD AND OR PUSH1 0x2 SSTORE PUSH32 0x6E4389167D2AFBD1CCB4797EA87E29958ADBF74CD16BA077A2EE5AB8460784E5 PUSH1 0x80 PUSH1 0x6 SLOAD SWAP3 PUSH1 0x5 SLOAD SWAP1 PUSH1 0x3 SLOAD PUSH1 0x40 MLOAD SWAP3 DUP4 MSTORE PUSH1 0x20 DUP4 ADD MSTORE PUSH1 0x1 PUSH1 0xFF NOT DUP7 AND OR PUSH1 0x18 SHR AND PUSH1 0x40 DUP3 ADD MSTORE PUSH1 0x0 PUSH1 0x60 DUP3 ADD MSTORE LOG1 PUSH3 0xFF00FF NOT AND OR PUSH1 0x6 SSTORE PUSH1 0x0 DUP1 MLOAD PUSH1 0x20 PUSH2 0x2948 DUP4 CODECOPY DUP2 MLOAD SWAP2 MSTORE PUSH1 0x20 PUSH1 0x40 MLOAD PUSH1 0x4 DUP2 MSTORE LOG1 JUMP JUMPDEST PUSH1 0x40 MLOAD PUSH4 0x12171D83 PUSH1 0xE3 SHL DUP2 MSTORE PUSH1 0x4 SWAP1 REVERT JUMPDEST PUSH3 0x40001 SWAP3 SWAP2 PUSH2 0x26A2 SWAP2 PUSH32 0x0 SWAP1 PUSH2 0x201E JUMP JUMPDEST PUSH2 0x25D5 JUMP JUMPDEST PUSH1 0x40 MLOAD PUSH4 0x70A08231 PUSH1 0xE0 SHL DUP2 MSTORE ADDRESS PUSH1 0x4 DUP3 ADD MSTORE PUSH32 0x0 DUP5 AND SWAP2 SWAP1 PUSH1 0x20 DUP2 PUSH1 0x24 DUP2 DUP7 GAS STATICCALL DUP1 ISZERO PUSH2 0x1A39 JUMPI PUSH1 0x0 SWAP1 PUSH2 0x2741 JUMPI JUMPDEST PUSH2 0x2722 SWAP2 POP PUSH32 0x0 SWAP1 PUSH2 0x205F JUMP JUMPDEST SWAP1 DUP2 PUSH2 0x2730 JUMPI JUMPDEST POP POP PUSH2 0x256E JUMP JUMPDEST PUSH2 0x2739 SWAP3 PUSH2 0x201E JUMP JUMPDEST CODESIZE DUP1 DUP1 PUSH2 0x2729 JUMP JUMPDEST PUSH1 0x20 DUP3 RETURNDATASIZE DUP3 GT PUSH2 0x276C JUMPI JUMPDEST DUP2 PUSH2 0x2759 PUSH1 0x20 SWAP4 DUP4 PUSH2 0x19A5 JUMP JUMPDEST DUP2 ADD SUB SLT PUSH2 0x73B JUMPI POP PUSH2 0x2722 SWAP1 MLOAD PUSH2 0x26F6 JUMP JUMPDEST RETURNDATASIZE SWAP2 POP PUSH2 0x274C JUMP JUMPDEST SWAP1 DUP2 PUSH1 0x60 SWAP2 SUB SLT PUSH2 0x17D4 JUMPI DUP1 MLOAD SWAP2 PUSH1 0x40 PUSH1 0x20 DUP4 ADD MLOAD SWAP3 ADD MLOAD SWAP1 JUMP JUMPDEST PUSH1 0x2 SLOAD PUSH1 0xFF DUP2 PUSH1 0xA0 SHR AND PUSH1 0x6 DUP2 LT ISZERO PUSH2 0x17A8 JUMPI DUP1 ISZERO DUP1 PUSH2 0x2812 JUMPI JUMPDEST ISZERO PUSH2 0x27C6 JUMPI POP POP PUSH1 0x2 DUP1 SLOAD PUSH1 0xFF PUSH1 0xA0 SHL NOT AND PUSH1 0x1 PUSH1 0xA0 SHL OR SWAP1 SSTORE JUMP JUMPDEST PUSH1 0x1 EQ DUP1 PUSH2 0x27E8 JUMPI JUMPDEST PUSH2 0x27D6 JUMPI POP JUMP JUMPDEST PUSH1 0xFF PUSH1 0xA0 SHL NOT AND PUSH1 0x1 PUSH1 0xA1 SHL OR PUSH1 0x2 SSTORE JUMP JUMPDEST POP PUSH32 0x0 TIMESTAMP LT ISZERO PUSH2 0x27CF JUMP JUMPDEST POP PUSH32 0x0 TIMESTAMP LT ISZERO PUSH2 0x27AA JUMP JUMPDEST PUSH1 0xFF PUSH1 0x2 SLOAD PUSH1 0xA0 SHR AND PUSH1 0x6 DUP2 LT ISZERO PUSH2 0x17A8 JUMPI DUP1 ISZERO DUP1 PUSH2 0x28A2 JUMPI JUMPDEST ISZERO PUSH2 0x2861 JUMPI POP PUSH1 0x1 SWAP1 JUMP JUMPDEST PUSH1 0x1 DUP2 EQ DUP1 PUSH2 0x2878 JUMPI JUMPDEST PUSH2 0x2872 JUMPI SWAP1 JUMP JUMPDEST POP PUSH1 0x2 SWAP1 JUMP JUMPDEST POP PUSH32 0x0 TIMESTAMP LT ISZERO PUSH2 0x286B JUMP JUMPDEST POP PUSH32 0x0 TIMESTAMP LT ISZERO PUSH2 0x2856 JUMP JUMPDEST PUSH1 0xFF PUSH1 0x2 SLOAD PUSH1 0xA0 SHR AND PUSH1 0x6 DUP2 LT ISZERO PUSH2 0x17A8 JUMPI PUSH1 0x3 SUB PUSH2 0x2941 JUMPI PUSH1 0x3 SLOAD DUP1 ISZERO PUSH2 0x293A JUMPI PUSH2 0x2937 SWAP2 PUSH1 0x1 DUP1 PUSH1 0xA0 SHL SUB AND PUSH1 0x0 MSTORE PUSH1 0x7 PUSH1 0x20 MSTORE PUSH2 0x2932 PUSH1 0x40 PUSH1 0x0 KECCAK256 SLOAD PUSH32 0x0 SWAP1 PUSH2 0x1DCB JUMP JUMPDEST PUSH2 0x1DDE JUMP JUMPDEST SWAP1 JUMP JUMPDEST POP POP PUSH1 0x0 SWAP1 JUMP JUMPDEST POP PUSH1 0x0 SWAP1 JUMP INVALID CALLDATALOAD SWAP16 PUSH22 0x319D3ABF464A20742906C9B06C2E0CF50ADC178C5F23 0xEB PREVRANDAO 0xE3 0xE8 ORIGIN KECCAK256 0xB8 LOG2 PUSH5 0x6970667358 0x22 SLT KECCAK256 DUP12 0xA7 0xB6 PUSH1 0xD9 0x1E SIGNEXTEND DUP11 0xA5 PUSH12 0x61A6CC0D0DB6012BFCA960C8 0xC DUP9 0xB3 BLOCKHASH EQ 0xE7 SHL PUSH15 0x3D7264736F6C634300081400332F87 DUP9 GT PUSH31 0x7EFF1D82E926EC794901D17C78024A50270940304540A733656F0D00000000 "},"deployedBytecode":{"immutableReferences":{"1277":[{"length":32,"start":3183},{"length":32,"start":3418},{"length":32,"start":4132},{"length":32,"start":9916}],"1279":[{"length":32,"start":903},{"length":32,"start":2261},{"length":32,"start":2909},{"length":32,"start":3828},{"length":32,"start":4244},{"length":32,"start":7862},{"length":32,"start":9585}],"1281":[{"length":32,"start":650},{"length":32,"start":7180},{"length":32,"start":7455}],"1283":[{"length":32,"start":3338},{"length":32,"start":5716},{"length":32,"start":8177},{"length":32,"start":9981},{"length":32,"start":10509}],"1285":[{"length":32,"start":1680},{"length":32,"start":6811}],"1287":[{"length":32,"start":2015},{"length":32,"start":6885}],"1289":[{"length":32,"start":2449},{"length":32,"start":10261},{"length":32,"start":10405}],"1291":[{"length":32,"start":3772},{"length":32,"start":10219},{"length":32,"start":10363}],"1293":[{"length":32,"start":5778},{"length":32,"start":8422}],"1295":[{"length":32,"start":2694},{"length":32,"start":7903},{"length":32,"start":8100}],"1297":[{"length":32,"start":2626},{"length":32,"start":9543}],"1299":[{"length":32,"start":1736},{"length":32,"start":9005},{"length":32,"start":9632},{"length":32,"start":9853}],"1302":[{"length":32,"start":4080},{"length":32,"start":5835}],"1307":[{"length":32,"start":1533},{"length":32,"start":8375},{"length":32,"start":9488}],"1309":[{"length":32,"start":2074},{"length":32,"start":8813}],"1311":[{"length":32,"start":5615}]},"linkReferences":{},"object":"6040608081526004908136101561001557600080fd5b600091823560e01c908162c3702d1461175057816301ffc9a7146116fa57816303fc20131461083d5781630758d924146116b65781630b7c1ae11461167757816312aef8c31461163c5781631cc645441461073e578163200d2ed214611612578163220c0956146115d7578163224e93fe14610fb9578163248a9ca314610f8f5781632c51c7e014610f4d5781632f2ff15d14610f235781633013ce2914610edf5781633197cbb614610ea4578163362f04c014610e8657816336568abe14610e405781633f4ba83a14610df557816342e94c901461042357816348c54b9d14610c9e5781634b60ce7714610c5a5781634bb278f314610c395781634e69d56014610c0c578163590e1ae314610afa5781635d49dff414610ab55781636052970c14610a71578163619f3d6c14610a2d57816373b2e80e146109ef57816375b238fc146109b457816378e97925146109795781638160059a146108b55781638456cb591461086657816389dda6a01461083d5781638bcd8515146108025781638d3d6576146107c75781638d4e4083146107a357816391d148541461075d5781639ce05df71461073e5781639e014fd514610712578163a217fddf146106f7578163a4475ce4146106b3578163aaffadf314610678578163af1a9cab14610620578163b0683755146105e5578163b187bd26146105be578163b524f87b14610488578163b920ade21461045b578163bb8b2b4714610423578163c5c4744c14610404578163d547741f146103c5578163d7bb99ba1461036f578163ea8a1af0146102dd57508063f5ae497a146102b15763f89be5931461027457600080fd5b346102ad57816003193601126102ad57602090517f00000000000000000000000000000000000000000000000000000000000000008152f35b5080fd5b50346102ad57816003193601126102ad57600654905160189190911c6001600160a01b03168152602090f35b90503461036b578260031936011261036b576102f76117ef565b6002549160ff8360a01c1660068110156103585760031461034b57505060ff60a01b1916600560a01b176002557f63b958841f79ab97cb5456da181454b9932c0e15a3b17f1cbd27e2a8bc6104378180a180f35b516307a92f1960e51b8152fd5b634e487b7160e01b855260218352602485fd5b8280fd5b9190508260031936011261036b57610385611982565b7f00000000000000000000000000000000000000000000000000000000000000006001600160a01b031661034b57826103be3433611a68565b6001805580f35b9190503461036b578060031936011261036b5761040091356103fb60016103ea6117be565b938387528660205286200154611869565b61190d565b5080f35b5050346102ad57816003193601126102ad576020906003549051908152f35b5050346102ad5760203660031901126102ad5760209181906001600160a01b0361044b6117d9565b1681526007845220549051908152f35b5050346102ad5760203660031901126102ad5760209061048161047c6117d9565b6128cc565b9051908152f35b839150346102ad5760203660031901126102ad576104a46117d9565b6104ac6117ef565b600254906001600160a01b03908183166105835760ff6006541661054c571691821561050957506001600160a01b03191681176002557ff3e056d0219310a4e47c749671cfbc8607538f3327bb8c6bf872a1119b622d2f8280a280f35b606490602086519162461bcd60e51b8352820152601960248201527f496e76616c6964204c50204c6f636b65722061646472657373000000000000006044820152fd5b855162461bcd60e51b81526020818601526011602482015270105b1c9958591e48199a5b985b1a5e9959607a1b6044820152606490fd5b855162461bcd60e51b81526020818601526015602482015274131408131bd8dad95c88185b1c9958591e481cd95d605a1b6044820152606490fd5b5050346102ad57816003193601126102ad5760209060ff60065460081c1690519015158152f35b5050346102ad57816003193601126102ad57602090517f00000000000000000000000000000000000000000000000000000000000000008152f35b9190503461036b578260031936011261036b5761063b611982565b6106436117ef565b60ff60065460101c1660058110156106655760010361034b57826103be61208b565b634e487b7160e01b845260218352602484fd5b5050346102ad57816003193601126102ad57602090517f00000000000000000000000000000000000000000000000000000000000000008152f35b5050346102ad57816003193601126102ad57517f00000000000000000000000000000000000000000000000000000000000000006001600160a01b03168152602090f35b5050346102ad57816003193601126102ad5751908152602090f35b833461073b578060031936011261073b5761072b611982565b6107336117ef565b6103be611d00565b80fd5b5050346102ad57816003193601126102ad576020906005549051908152f35b90503461036b578160031936011261036b578160209360ff9261077e6117be565b903582528186528282206001600160a01b039091168252855220549151911615158152f35b5050346102ad57816003193601126102ad5760209060ff6006541690519015158152f35b5050346102ad57816003193601126102ad57602090517f00000000000000000000000000000000000000000000000000000000000000008152f35b5050346102ad57816003193601126102ad57602090517f00000000000000000000000000000000000000000000000000000000000000008152f35b5050346102ad57816003193601126102ad5760025490516001600160a01b039091168152602090f35b833461073b578060031936011261073b5761087f6117ef565b61010061ff001960065416176006557f9e87fac88ff661f02d44f95383c817fece4bce600a3dab7a54406878b965e7528180a180f35b8383346102ad5760203660031901126102ad578235906108d3611982565b7f00000000000000000000000000000000000000000000000000000000000000006001600160a01b031680156109695781516323b872dd60e01b6020820152336024820152306044820152606480820185905281529160a083019067ffffffffffffffff82118483101761095657526103be9291610950916119dd565b33611a68565b634e487b7160e01b865260418752602486fd5b81516307a92f1960e51b81528590fd5b5050346102ad57816003193601126102ad57602090517f00000000000000000000000000000000000000000000000000000000000000008152f35b5050346102ad57816003193601126102ad57602090517fa49807205ce4d355092ef5a8a18f56e8913cf4a201fbe287825b095693c217758152f35b5050346102ad5760203660031901126102ad5760209160ff9082906001600160a01b03610a1a6117d9565b1681526008855220541690519015158152f35b5050346102ad57816003193601126102ad57517f00000000000000000000000000000000000000000000000000000000000000006001600160a01b03168152602090f35b5050346102ad57816003193601126102ad57517f00000000000000000000000000000000000000000000000000000000000000006001600160a01b03168152602090f35b9190503461036b578260031936011261036b57610ad0611982565b610ad86117ef565b60ff60065460101c1660058110156106655760020361034b57826103be612214565b9190503461036b578260031936011261036b57610b15611982565b60ff60025460a01c16600681101561066557828114159081610c00575b5061034b5733835260076020528083205415610bf357338352600760205280832080549084905591827f00000000000000000000000000000000000000000000000000000000000000006001600160a01b031680610be257508480808093335af1610b9b611dfe565b5015610bd457505b519081527fd7dee2702d63ad89917b6a4da9981c90c4d24f8c2bdfd64c604ecae57d8d065160203392a26001805580f35b90516312171d8360e31b8152fd5b610bee9250339061201e565b610ba3565b5163f76aef6560e01b8152fd5b60059150141538610b32565b5050346102ad57816003193601126102ad57610c3590610c2a61283c565b905191829182611795565b0390f35b833461073b578060031936011261073b57610c52611982565b6103be611bda565b5050346102ad57816003193601126102ad57517f00000000000000000000000000000000000000000000000000000000000000006001600160a01b03168152602090f35b90503461036b578260031936011261036b57610cb8611982565b60ff60025460a01c166006811015610de257600303610dd45733835260076020528183205415610dc657338352600860205260ff8284205416610db857503382526007602052610d38610d2f828420547f000000000000000000000000000000000000000000000000000000000000000090611dcb565b60035490611dde565b338084526008602052828420805460ff19166001179055909190610d879083907f00000000000000000000000000000000000000000000000000000000000000006001600160a01b031661201e565b519081527f896e034966eaaf1adc54acc0f257056febbd300c9e47182cf761982cf1f5e43060203392a26001805580f35b9051630c8d9eab60e31b8152fd5b9051631971fbf360e21b8152fd5b90516307a92f1960e51b8152fd5b634e487b7160e01b845260218252602484fd5b833461073b578060031936011261073b57610e0e6117ef565b61ff0019600654166006557fa45f47fdea8a1efdd9029a5691c7f759c32b7c698632b563573e155625d169338180a180f35b8383346102ad57806003193601126102ad57610e5a6117be565b90336001600160a01b03831603610e77575061040091923561190d565b5163334bd91960e11b81528390fd5b90503461036b578260031936011261036b5760209250549051908152f35b5050346102ad57816003193601126102ad57602090517f00000000000000000000000000000000000000000000000000000000000000008152f35b5050346102ad57816003193601126102ad57517f00000000000000000000000000000000000000000000000000000000000000006001600160a01b03168152602090f35b9190503461036b578060031936011261036b576104009135610f4860016103ea6117be565b61188f565b8383346102ad57816003193601126102ad5760ff60065460101c169051916005821015610f7c57602083838152f35b634e487b7160e01b815260218452602490fd5b90503461036b57602036600319011261036b57816020936001923581528085522001549051908152f35b82843461073b578160031936011261073b57823590602435933033036115c957835163095ea7b360e01b8082526001600160a01b037f0000000000000000000000000000000000000000000000000000000000000000811684840181815260208082018990529992977f0000000000000000000000000000000000000000000000000000000000000000808a16979096909493928c908290819060400103818c8c5af1801561131e576115ac575b50895163c45a015560e01b81528b818681865afa90811561131e57908a918a9161158f575b5016948a8c8a7f0000000000000000000000000000000000000000000000000000000000000000938d85169384156000146113285794505050505051966315ab88c960e31b88528b888681865afa97881561131e5789986112ff575b508a5163e6a4390560e01b8082526001600160a01b03808a16888401908152908b166020820152909591908e908290819060400103818b5afa9081156112d8578a8f918f938f8f92908e928d9285916112e2575b50161561126b575b50505050505061012c420193844211611258579160c491606094938e51968795869463f305d71960e01b86528b86015260248501528d60448501528d606485015230608485015260a48401525af1801561124e57908a9594939291611220575b5088519081526001600160a01b0393841691810191825294909216602083015283918290819060400103915afa91821561121557916111e8575b50915b5191168152f35b6112089150843d861161120e575b61120081836119a5565b81019061206c565b846111de565b503d6111f6565b8451903d90823e3d90fd5b6112409060603d8111611247575b61123881836119a5565b810190612774565b50506111a4565b503d61122e565b89513d89823e3d90fd5b634e487b7160e01b8b526011875260248bfd5b94516364e329cb60e11b81526001600160a01b039182169581019586529216602085015290928391908290819060400103918c5af180156112d857908e916112ba575b508c908a8c8b8a611144565b816112d092903d1061120e5761120081836119a5565b508c8e6112ae565b8d513d8d823e3d90fd5b6112f99150873d891161120e5761120081836119a5565b3861113c565b6113179198508c8d3d1061120e5761120081836119a5565b968c6110e8565b8b513d8b823e3d90fd5b519081526001600160a01b038716818a0190815260208101899052949b95979396949092918391829081906040010391895af180156112d8578e8b8f8c9998979695946113a894611562575b505163e6a4390560e01b8082526001600160a01b039a8b168c830190815292909a1660208301529283918291604090910190565b03818c5afa90811561153b578f908f928f8f918f93918f92918e928591611545575b5016156114ce575b50505050505061012c4201908142116114bb576101049260609594928f928e9351988997889662e8e33760e81b88528d8801526024870152604486015260648501528260848501528260a48501523060c485015260e48401525af1801561124e57908a959493929161149d575b5088519081526001600160a01b0393841691810191825294909216602083015283918290819060400103915afa9182156112155791611480575b50916111e1565b6114979150843d861161120e5761120081836119a5565b84611479565b6114b49060603d81116112475761123881836119a5565b505061143f565b634e487b7160e01b8c526011885260248cfd5b94516364e329cb60e11b81526001600160a01b039182169581019586529216602085015290928391908290819060400103918d5af1801561153b57908f9161151d575b508d908b8d8c8b6113d2565b8161153392903d1061120e5761120081836119a5565b508d8f611511565b8e513d8e823e3d90fd5b61155c9150873d891161120e5761120081836119a5565b386113ca565b61158190843d8611611588575b61157981836119a5565b8101906121fc565b5038611374565b503d61156f565b6115a691508d803d1061120e5761120081836119a5565b8d61108c565b6115c2908c8d3d106115885761157981836119a5565b508b611067565b835163ea8e4eb560e01b8152fd5b5050346102ad57816003193601126102ad57602090517f00000000000000000000000000000000000000000000000000000000000000008152f35b5050346102ad57816003193601126102ad57610c359060ff60025460a01c16905191829182611795565b5050346102ad57816003193601126102ad57602090517f00000000000000000000000000000000000000000000000000000000000000008152f35b5050346102ad57816003193601126102ad576020905161ffff7f0000000000000000000000000000000000000000000000000000000000000000168152f35b5050346102ad57816003193601126102ad57517f00000000000000000000000000000000000000000000000000000000000000006001600160a01b03168152602090f35b90503461036b57602036600319011261036b57359063ffffffff60e01b821680920361036b5760209250637965db0b60e01b821491821561173f575b50519015158152f35b6301ffc9a760e01b14915038611736565b9190503461036b578260031936011261036b5761176b611982565b6117736117ef565b60ff60065460101c1660058110156106655760030361034b57826103be6124e1565b9190602083019260068210156117a85752565b634e487b7160e01b600052602160045260246000fd5b602435906001600160a01b03821682036117d457565b600080fd5b600435906001600160a01b03821682036117d457565b3360009081527f7d7ffb7a348e1c6a02869081a26547b49160dd3df72d1d75a570eb9b698292ec60205260409020547fa49807205ce4d355092ef5a8a18f56e8913cf4a201fbe287825b095693c217759060ff161561184b5750565b6044906040519063e2517d3f60e01b82523360048301526024820152fd5b80600052600060205260406000203360005260205260ff604060002054161561184b5750565b9060009180835282602052604083209160018060a01b03169182845260205260ff6040842054161560001461190857808352826020526040832082845260205260408320600160ff198254161790557f2f8788117e7eff1d82e926ec794901d17c78024a50270940304540a733656f0d339380a4600190565b505090565b9060009180835282602052604083209160018060a01b03169182845260205260ff6040842054166000146119085780835282602052604083208284526020526040832060ff1981541690557ff6391f5c32d9c69d2a47ea670b442974b53935d1edc7fd64eb21e047a839171b339380a4600190565b600260015414611993576002600155565b604051633ee5aeb560e01b8152600490fd5b90601f8019910116810190811067ffffffffffffffff8211176119c757604052565b634e487b7160e01b600052604160045260246000fd5b906000602091828151910182855af115611a39576000513d611a3057506001600160a01b0381163b155b611a0e5750565b604051635274afe760e01b81526001600160a01b039091166004820152602490fd5b60011415611a07565b6040513d6000823e3d90fd5b91908201809211611a5257565b634e487b7160e01b600052601160045260246000fd5b919091611a7361278f565b60ff60025460a01c1660068110156117a857600103611bc85760ff60065460081c16611bb6577f00000000000000000000000000000000000000000000000000000000000000008310611ba45760018060a01b03166000928184526007602052604090611ae38183872054611a45565b7f00000000000000000000000000000000000000000000000000000000000000008111611b935783865260076020528286205415611b68575b8286857ffa35a310d7113dddce1c275da946348e9aaebf9050b00b372033c4d84b0bd6eb9697985260076020522055611b5781600354611a45565b8060035582519182526020820152a2565b6004546000198114611b7f57600101600455611b1c565b634e487b7160e01b87526011600452602487fd5b8251635e508cd360e11b8152600490fd5b604051636c7591b560e11b8152600490fd5b60405163ab35696f60e01b8152600490fd5b6040516307a92f1960e51b8152600490fd5b611be261278f565b60025460ff808260a01c1660068110156117a857600203611bc857600654818116611cfb576003547f000000000000000000000000000000000000000000000000000000000000000011611cc25781925060101c1660058110156117a85715611cb5575b8060065460101c1660058110156117a857600114611ca8575b8060065460101c1660058110156117a857600214611c9b575b60065460101c1660058110156117a857600314611c9157565b611c996124e1565b565b611ca3612214565b611c78565b611cb061208b565b611c5f565b611cbd611e87565b611c46565b505060ff60a01b1916600160a21b176002557fe48846a3dca191c762ab6aaa1e929ccaf55e31a875fb78ad1b93e15ef4830aca600080a1565b505050565b600260ff815460a01c1660068110156117a8578103611d9a575b6003547f000000000000000000000000000000000000000000000000000000000000000011611d62575060ff60065460101c1660058110156117a857611bc857611c99611e87565b805460ff60a01b1916600160a21b1790557fe48846a3dca191c762ab6aaa1e929ccaf55e31a875fb78ad1b93e15ef4830aca600080a1565b611da261278f565b60ff815460a01c1660068110156117a8578114611d1a576040516307a92f1960e51b8152600490fd5b81810292918115918404141715611a5257565b8115611de8570490565b634e487b7160e01b600052601260045260246000fd5b3d15611e39573d9067ffffffffffffffff82116119c75760405191611e2d601f8201601f1916602001846119a5565b82523d6000602084013e565b606090565b6020808252825181830181905290939260005b828110611e7357505060409293506000838284010152601f8019910116010190565b818101860151848201604001528501611e51565b60055415611fce575b6003546101f490818102918183041490151715611a525761271090046001600160a01b037f0000000000000000000000000000000000000000000000000000000000000000811680611f9c57507f000000000000000000000000000000000000000000000000000000000000000016803b156117d4576000906024604051809481936339650d1f60e01b83523060048401525af19081611f84575b50611f5857611f54611f3b611dfe565b604051630fb6a2b560e21b815291829160048301611e3e565b0390fd5b6201000062ff0000196006541617600655600080516020612948833981519152602060405160018152a1565b67ffffffffffffffff81116119c75760405238611f2b565b611fc99291507f00000000000000000000000000000000000000000000000000000000000000009061201e565b611f58565b600354670de0b6b3a764000090818102918183041490151715611a5257612016907f000000000000000000000000000000000000000000000000000000000000000090611dde565b600555611e90565b60405163a9059cbb60e01b60208201526001600160a01b03929092166024830152604480830193909352918152611c999161205a6064836119a5565b6119dd565b91908203918211611a5257565b908160209103126117d457516001600160a01b03811681036117d45790565b6003546101f4808202908282041482151715611a52576120dc6120b561271093848094049061205f565b7f000000000000000000000000000000000000000000000000000000000000000090611dcb565b049060055461ffff7f0000000000000000000000000000000000000000000000000000000000000000168201808311611a525761211891611dcb565b04670de0b6b3a764000090818302918383041483151715611a525761213c91611dde565b906040519163112749ff60e11b8352600483015260248201526020816044816000305af1600091816121dc575b5061219257611f54612179611dfe565b604051630abc035f60e41b815291829160048301611e3e565b6006805462010000600160b81b03191660189290921b6301000000600160b81b031691909117620200001790556040516002815260008051602061294883398151915290602090a1565b6121f591925060203d811161120e5761120081836119a5565b9038612169565b908160209103126117d4575180151581036117d45790565b6006546001600160a01b039060181c811680156124a9578160025416801561246457604080516370a0823160e01b815230600482015290936020938483602481845afa92831561242a57600093612435575b5062278d007f000000000000000000000000000000000000000000000000000000000000000081810292918115918404141715611a52578386916122ad6122e59442611a45565b895163095ea7b360e01b81526001600160a01b0390981660048901526024880192909252909592839190829060009082906044820190565b03925af1801561242a5761240d575b5060008480836002541660848560065460181c168a519586938492630aa393f360e01b845260048401528960248401528a6044840152887f00000000000000000000000000000000000000000000000000000000000000001660648401525af191826123e4575b505061238557611f548561236d611dfe565b90516301953ea360e11b815291829160048301611e3e565b9162030000917fe3afae9ec63e6f2e914c17bab8493b603680a72d9e6dfacf25ac6a4806555d41866000805160206129488339815191529795600654948251948552888501528460181c1692a262ff00001916176006555160038152a1565b813d8311612406575b6123f781836119a5565b810103126117d457843861235b565b503d6123ed565b61242390853d87116115885761157981836119a5565b50386122f4565b86513d6000823e3d90fd5b90928582813d831161245d575b61244c81836119a5565b8101031261073b5750519138612266565b503d612442565b60405162461bcd60e51b815260206004820152601860248201527f4c50204c6f636b6572206e6f7420636f6e6669677572656400000000000000006044820152606490fd5b60405162461bcd60e51b815260206004820152601060248201526f131408151bdad95b881b9bdd081cd95d60821b6044820152606490fd5b6003546101f4808202908282041482151715611a525761250a61253c926127108093049061205f565b906125357f000000000000000000000000000000000000000000000000000000000000000083611dcb565b049061205f565b6001600160a01b03907f00000000000000000000000000000000000000000000000000000000000000008281166126a7575b507f000000000000000000000000000000000000000000000000000000000000000082168061267157506000808080937f00000000000000000000000000000000000000000000000000000000000000005af16125c9611dfe565b501561265f5762040001905b600360a01b60ff60a01b1960025416176002557f6e4389167d2afbd1ccb4797ea87e29958adbf74cd16ba077a2ee5ab8460784e5608060065492600554906003546040519283526020830152600160ff1986161760181c16604082015260006060820152a162ff00ff191617600655600080516020612948833981519152602060405160048152a1565b6040516312171d8360e31b8152600490fd5b6204000192916126a2917f00000000000000000000000000000000000000000000000000000000000000009061201e565b6125d5565b6040516370a0823160e01b81523060048201527f000000000000000000000000000000000000000000000000000000000000000084169190602081602481865afa8015611a3957600090612741575b61272291507f00000000000000000000000000000000000000000000000000000000000000009061205f565b9081612730575b505061256e565b6127399261201e565b388080612729565b6020823d821161276c575b81612759602093836119a5565b8101031261073b575061272290516126f6565b3d915061274c565b908160609103126117d4578051916040602083015192015190565b60025460ff8160a01c1660068110156117a857801580612812575b156127c65750506002805460ff60a01b1916600160a01b179055565b600114806127e8575b6127d65750565b60ff60a01b1916600160a11b17600255565b507f00000000000000000000000000000000000000000000000000000000000000004210156127cf565b507f00000000000000000000000000000000000000000000000000000000000000004210156127aa565b60ff60025460a01c1660068110156117a8578015806128a2575b156128615750600190565b6001811480612878575b6128725790565b50600290565b507f000000000000000000000000000000000000000000000000000000000000000042101561286b565b507f0000000000000000000000000000000000000000000000000000000000000000421015612856565b60ff60025460a01c1660068110156117a85760030361294157600354801561293a576129379160018060a01b031660005260076020526129326040600020547f000000000000000000000000000000000000000000000000000000000000000090611dcb565b611dde565b90565b5050600090565b5060009056fe359f75319d3abf464a20742906c9b06c2e0cf50adc178c5f23eb44e3e83220b8a26469706673582212208ba7b660d91e0b8aa56b61a6cc0d0db6012bfca960c80c88b34014e71b6e3d7264736f6c63430008140033","opcodes":"PUSH1 0x40 PUSH1 0x80 DUP2 MSTORE PUSH1 0x4 SWAP1 DUP2 CALLDATASIZE LT ISZERO PUSH2 0x15 JUMPI PUSH1 0x0 DUP1 REVERT JUMPDEST PUSH1 0x0 SWAP2 DUP3 CALLDATALOAD PUSH1 0xE0 SHR SWAP1 DUP2 PUSH3 0xC3702D EQ PUSH2 0x1750 JUMPI DUP2 PUSH4 0x1FFC9A7 EQ PUSH2 0x16FA JUMPI DUP2 PUSH4 0x3FC2013 EQ PUSH2 0x83D JUMPI DUP2 PUSH4 0x758D924 EQ PUSH2 0x16B6 JUMPI DUP2 PUSH4 0xB7C1AE1 EQ PUSH2 0x1677 JUMPI DUP2 PUSH4 0x12AEF8C3 EQ PUSH2 0x163C JUMPI DUP2 PUSH4 0x1CC64544 EQ PUSH2 0x73E JUMPI DUP2 PUSH4 0x200D2ED2 EQ PUSH2 0x1612 JUMPI DUP2 PUSH4 0x220C0956 EQ PUSH2 0x15D7 JUMPI DUP2 PUSH4 0x224E93FE EQ PUSH2 0xFB9 JUMPI DUP2 PUSH4 0x248A9CA3 EQ PUSH2 0xF8F JUMPI DUP2 PUSH4 0x2C51C7E0 EQ PUSH2 0xF4D JUMPI DUP2 PUSH4 0x2F2FF15D EQ PUSH2 0xF23 JUMPI DUP2 PUSH4 0x3013CE29 EQ PUSH2 0xEDF JUMPI DUP2 PUSH4 0x3197CBB6 EQ PUSH2 0xEA4 JUMPI DUP2 PUSH4 0x362F04C0 EQ PUSH2 0xE86 JUMPI DUP2 PUSH4 0x36568ABE EQ PUSH2 0xE40 JUMPI DUP2 PUSH4 0x3F4BA83A EQ PUSH2 0xDF5 JUMPI DUP2 PUSH4 0x42E94C90 EQ PUSH2 0x423 JUMPI DUP2 PUSH4 0x48C54B9D EQ PUSH2 0xC9E JUMPI DUP2 PUSH4 0x4B60CE77 EQ PUSH2 0xC5A JUMPI DUP2 PUSH4 0x4BB278F3 EQ PUSH2 0xC39 JUMPI DUP2 PUSH4 0x4E69D560 EQ PUSH2 0xC0C JUMPI DUP2 PUSH4 0x590E1AE3 EQ PUSH2 0xAFA JUMPI DUP2 PUSH4 0x5D49DFF4 EQ PUSH2 0xAB5 JUMPI DUP2 PUSH4 0x6052970C EQ PUSH2 0xA71 JUMPI DUP2 PUSH4 0x619F3D6C EQ PUSH2 0xA2D JUMPI DUP2 PUSH4 0x73B2E80E EQ PUSH2 0x9EF JUMPI DUP2 PUSH4 0x75B238FC EQ PUSH2 0x9B4 JUMPI DUP2 PUSH4 0x78E97925 EQ PUSH2 0x979 JUMPI DUP2 PUSH4 0x8160059A EQ PUSH2 0x8B5 JUMPI DUP2 PUSH4 0x8456CB59 EQ PUSH2 0x866 JUMPI DUP2 PUSH4 0x89DDA6A0 EQ PUSH2 0x83D JUMPI DUP2 PUSH4 0x8BCD8515 EQ PUSH2 0x802 JUMPI DUP2 PUSH4 0x8D3D6576 EQ PUSH2 0x7C7 JUMPI DUP2 PUSH4 0x8D4E4083 EQ PUSH2 0x7A3 JUMPI DUP2 PUSH4 0x91D14854 EQ PUSH2 0x75D JUMPI DUP2 PUSH4 0x9CE05DF7 EQ PUSH2 0x73E JUMPI DUP2 PUSH4 0x9E014FD5 EQ PUSH2 0x712 JUMPI DUP2 PUSH4 0xA217FDDF EQ PUSH2 0x6F7 JUMPI DUP2 PUSH4 0xA4475CE4 EQ PUSH2 0x6B3 JUMPI DUP2 PUSH4 0xAAFFADF3 EQ PUSH2 0x678 JUMPI DUP2 PUSH4 0xAF1A9CAB EQ PUSH2 0x620 JUMPI DUP2 PUSH4 0xB0683755 EQ PUSH2 0x5E5 JUMPI DUP2 PUSH4 0xB187BD26 EQ PUSH2 0x5BE JUMPI DUP2 PUSH4 0xB524F87B EQ PUSH2 0x488 JUMPI DUP2 PUSH4 0xB920ADE2 EQ PUSH2 0x45B JUMPI DUP2 PUSH4 0xBB8B2B47 EQ PUSH2 0x423 JUMPI DUP2 PUSH4 0xC5C4744C EQ PUSH2 0x404 JUMPI DUP2 PUSH4 0xD547741F EQ PUSH2 0x3C5 JUMPI DUP2 PUSH4 0xD7BB99BA EQ PUSH2 0x36F JUMPI DUP2 PUSH4 0xEA8A1AF0 EQ PUSH2 0x2DD JUMPI POP DUP1 PUSH4 0xF5AE497A EQ PUSH2 0x2B1 JUMPI PUSH4 0xF89BE593 EQ PUSH2 0x274 JUMPI PUSH1 0x0 DUP1 REVERT JUMPDEST CALLVALUE PUSH2 0x2AD JUMPI DUP2 PUSH1 0x3 NOT CALLDATASIZE ADD SLT PUSH2 0x2AD JUMPI PUSH1 0x20 SWAP1 MLOAD PUSH32 0x0 DUP2 MSTORE RETURN JUMPDEST POP DUP1 REVERT JUMPDEST POP CALLVALUE PUSH2 0x2AD JUMPI DUP2 PUSH1 0x3 NOT CALLDATASIZE ADD SLT PUSH2 0x2AD JUMPI PUSH1 0x6 SLOAD SWAP1 MLOAD PUSH1 0x18 SWAP2 SWAP1 SWAP2 SHR PUSH1 0x1 PUSH1 0x1 PUSH1 0xA0 SHL SUB AND DUP2 MSTORE PUSH1 0x20 SWAP1 RETURN JUMPDEST SWAP1 POP CALLVALUE PUSH2 0x36B JUMPI DUP3 PUSH1 0x3 NOT CALLDATASIZE ADD SLT PUSH2 0x36B JUMPI PUSH2 0x2F7 PUSH2 0x17EF JUMP JUMPDEST PUSH1 0x2 SLOAD SWAP2 PUSH1 0xFF DUP4 PUSH1 0xA0 SHR AND PUSH1 0x6 DUP2 LT ISZERO PUSH2 0x358 JUMPI PUSH1 0x3 EQ PUSH2 0x34B JUMPI POP POP PUSH1 0xFF PUSH1 0xA0 SHL NOT AND PUSH1 0x5 PUSH1 0xA0 SHL OR PUSH1 0x2 SSTORE PUSH32 0x63B958841F79AB97CB5456DA181454B9932C0E15A3B17F1CBD27E2A8BC610437 DUP2 DUP1 LOG1 DUP1 RETURN JUMPDEST MLOAD PUSH4 0x7A92F19 PUSH1 0xE5 SHL DUP2 MSTORE REVERT JUMPDEST PUSH4 0x4E487B71 PUSH1 0xE0 SHL DUP6 MSTORE PUSH1 0x21 DUP4 MSTORE PUSH1 0x24 DUP6 REVERT JUMPDEST DUP3 DUP1 REVERT JUMPDEST SWAP2 SWAP1 POP DUP3 PUSH1 0x3 NOT CALLDATASIZE ADD SLT PUSH2 0x36B JUMPI PUSH2 0x385 PUSH2 0x1982 JUMP JUMPDEST PUSH32 0x0 PUSH1 0x1 PUSH1 0x1 PUSH1 0xA0 SHL SUB AND PUSH2 0x34B JUMPI DUP3 PUSH2 0x3BE CALLVALUE CALLER PUSH2 0x1A68 JUMP JUMPDEST PUSH1 0x1 DUP1 SSTORE DUP1 RETURN JUMPDEST SWAP2 SWAP1 POP CALLVALUE PUSH2 0x36B JUMPI DUP1 PUSH1 0x3 NOT CALLDATASIZE ADD SLT PUSH2 0x36B JUMPI PUSH2 0x400 SWAP2 CALLDATALOAD PUSH2 0x3FB PUSH1 0x1 PUSH2 0x3EA PUSH2 0x17BE JUMP JUMPDEST SWAP4 DUP4 DUP8 MSTORE DUP7 PUSH1 0x20 MSTORE DUP7 KECCAK256 ADD SLOAD PUSH2 0x1869 JUMP JUMPDEST PUSH2 0x190D JUMP JUMPDEST POP DUP1 RETURN JUMPDEST POP POP CALLVALUE PUSH2 0x2AD JUMPI DUP2 PUSH1 0x3 NOT CALLDATASIZE ADD SLT PUSH2 0x2AD JUMPI PUSH1 0x20 SWAP1 PUSH1 0x3 SLOAD SWAP1 MLOAD SWAP1 DUP2 MSTORE RETURN JUMPDEST POP POP CALLVALUE PUSH2 0x2AD JUMPI PUSH1 0x20 CALLDATASIZE PUSH1 0x3 NOT ADD SLT PUSH2 0x2AD JUMPI PUSH1 0x20 SWAP2 DUP2 SWAP1 PUSH1 0x1 PUSH1 0x1 PUSH1 0xA0 SHL SUB PUSH2 0x44B PUSH2 0x17D9 JUMP JUMPDEST AND DUP2 MSTORE PUSH1 0x7 DUP5 MSTORE KECCAK256 SLOAD SWAP1 MLOAD SWAP1 DUP2 MSTORE RETURN JUMPDEST POP POP CALLVALUE PUSH2 0x2AD JUMPI PUSH1 0x20 CALLDATASIZE PUSH1 0x3 NOT ADD SLT PUSH2 0x2AD JUMPI PUSH1 0x20 SWAP1 PUSH2 0x481 PUSH2 0x47C PUSH2 0x17D9 JUMP JUMPDEST PUSH2 0x28CC JUMP JUMPDEST SWAP1 MLOAD SWAP1 DUP2 MSTORE RETURN JUMPDEST DUP4 SWAP2 POP CALLVALUE PUSH2 0x2AD JUMPI PUSH1 0x20 CALLDATASIZE PUSH1 0x3 NOT ADD SLT PUSH2 0x2AD JUMPI PUSH2 0x4A4 PUSH2 0x17D9 JUMP JUMPDEST PUSH2 0x4AC PUSH2 0x17EF JUMP JUMPDEST PUSH1 0x2 SLOAD SWAP1 PUSH1 0x1 PUSH1 0x1 PUSH1 0xA0 SHL SUB SWAP1 DUP2 DUP4 AND PUSH2 0x583 JUMPI PUSH1 0xFF PUSH1 0x6 SLOAD AND PUSH2 0x54C JUMPI AND SWAP2 DUP3 ISZERO PUSH2 0x509 JUMPI POP PUSH1 0x1 PUSH1 0x1 PUSH1 0xA0 SHL SUB NOT AND DUP2 OR PUSH1 0x2 SSTORE PUSH32 0xF3E056D0219310A4E47C749671CFBC8607538F3327BB8C6BF872A1119B622D2F DUP3 DUP1 LOG2 DUP1 RETURN JUMPDEST PUSH1 0x64 SWAP1 PUSH1 0x20 DUP7 MLOAD SWAP2 PUSH3 0x461BCD PUSH1 0xE5 SHL DUP4 MSTORE DUP3 ADD MSTORE PUSH1 0x19 PUSH1 0x24 DUP3 ADD MSTORE PUSH32 0x496E76616C6964204C50204C6F636B6572206164647265737300000000000000 PUSH1 0x44 DUP3 ADD MSTORE REVERT JUMPDEST DUP6 MLOAD PUSH3 0x461BCD PUSH1 0xE5 SHL DUP2 MSTORE PUSH1 0x20 DUP2 DUP7 ADD MSTORE PUSH1 0x11 PUSH1 0x24 DUP3 ADD MSTORE PUSH17 0x105B1C9958591E48199A5B985B1A5E9959 PUSH1 0x7A SHL PUSH1 0x44 DUP3 ADD MSTORE PUSH1 0x64 SWAP1 REVERT JUMPDEST DUP6 MLOAD PUSH3 0x461BCD PUSH1 0xE5 SHL DUP2 MSTORE PUSH1 0x20 DUP2 DUP7 ADD MSTORE PUSH1 0x15 PUSH1 0x24 DUP3 ADD MSTORE PUSH21 0x131408131BD8DAD95C88185B1C9958591E481CD95D PUSH1 0x5A SHL PUSH1 0x44 DUP3 ADD MSTORE PUSH1 0x64 SWAP1 REVERT JUMPDEST POP POP CALLVALUE PUSH2 0x2AD JUMPI DUP2 PUSH1 0x3 NOT CALLDATASIZE ADD SLT PUSH2 0x2AD JUMPI PUSH1 0x20 SWAP1 PUSH1 0xFF PUSH1 0x6 SLOAD PUSH1 0x8 SHR AND SWAP1 MLOAD SWAP1 ISZERO ISZERO DUP2 MSTORE RETURN JUMPDEST POP POP CALLVALUE PUSH2 0x2AD JUMPI DUP2 PUSH1 0x3 NOT CALLDATASIZE ADD SLT PUSH2 0x2AD JUMPI PUSH1 0x20 SWAP1 MLOAD PUSH32 0x0 DUP2 MSTORE RETURN JUMPDEST SWAP2 SWAP1 POP CALLVALUE PUSH2 0x36B JUMPI DUP3 PUSH1 0x3 NOT CALLDATASIZE ADD SLT PUSH2 0x36B JUMPI PUSH2 0x63B PUSH2 0x1982 JUMP JUMPDEST PUSH2 0x643 PUSH2 0x17EF JUMP JUMPDEST PUSH1 0xFF PUSH1 0x6 SLOAD PUSH1 0x10 SHR AND PUSH1 0x5 DUP2 LT ISZERO PUSH2 0x665 JUMPI PUSH1 0x1 SUB PUSH2 0x34B JUMPI DUP3 PUSH2 0x3BE PUSH2 0x208B JUMP JUMPDEST PUSH4 0x4E487B71 PUSH1 0xE0 SHL DUP5 MSTORE PUSH1 0x21 DUP4 MSTORE PUSH1 0x24 DUP5 REVERT JUMPDEST POP POP CALLVALUE PUSH2 0x2AD JUMPI DUP2 PUSH1 0x3 NOT CALLDATASIZE ADD SLT PUSH2 0x2AD JUMPI PUSH1 0x20 SWAP1 MLOAD PUSH32 0x0 DUP2 MSTORE RETURN JUMPDEST POP POP CALLVALUE PUSH2 0x2AD JUMPI DUP2 PUSH1 0x3 NOT CALLDATASIZE ADD SLT PUSH2 0x2AD JUMPI MLOAD PUSH32 0x0 PUSH1 0x1 PUSH1 0x1 PUSH1 0xA0 SHL SUB AND DUP2 MSTORE PUSH1 0x20 SWAP1 RETURN JUMPDEST POP POP CALLVALUE PUSH2 0x2AD JUMPI DUP2 PUSH1 0x3 NOT CALLDATASIZE ADD SLT PUSH2 0x2AD JUMPI MLOAD SWAP1 DUP2 MSTORE PUSH1 0x20 SWAP1 RETURN JUMPDEST DUP4 CALLVALUE PUSH2 0x73B JUMPI DUP1 PUSH1 0x3 NOT CALLDATASIZE ADD SLT PUSH2 0x73B JUMPI PUSH2 0x72B PUSH2 0x1982 JUMP JUMPDEST PUSH2 0x733 PUSH2 0x17EF JUMP JUMPDEST PUSH2 0x3BE PUSH2 0x1D00 JUMP JUMPDEST DUP1 REVERT JUMPDEST POP POP CALLVALUE PUSH2 0x2AD JUMPI DUP2 PUSH1 0x3 NOT CALLDATASIZE ADD SLT PUSH2 0x2AD JUMPI PUSH1 0x20 SWAP1 PUSH1 0x5 SLOAD SWAP1 MLOAD SWAP1 DUP2 MSTORE RETURN JUMPDEST SWAP1 POP CALLVALUE PUSH2 0x36B JUMPI DUP2 PUSH1 0x3 NOT CALLDATASIZE ADD SLT PUSH2 0x36B JUMPI DUP2 PUSH1 0x20 SWAP4 PUSH1 0xFF SWAP3 PUSH2 0x77E PUSH2 0x17BE JUMP JUMPDEST SWAP1 CALLDATALOAD DUP3 MSTORE DUP2 DUP7 MSTORE DUP3 DUP3 KECCAK256 PUSH1 0x1 PUSH1 0x1 PUSH1 0xA0 SHL SUB SWAP1 SWAP2 AND DUP3 MSTORE DUP6 MSTORE KECCAK256 SLOAD SWAP2 MLOAD SWAP2 AND ISZERO ISZERO DUP2 MSTORE RETURN JUMPDEST POP POP CALLVALUE PUSH2 0x2AD JUMPI DUP2 PUSH1 0x3 NOT CALLDATASIZE ADD SLT PUSH2 0x2AD JUMPI PUSH1 0x20 SWAP1 PUSH1 0xFF PUSH1 0x6 SLOAD AND SWAP1 MLOAD SWAP1 ISZERO ISZERO DUP2 MSTORE RETURN JUMPDEST POP POP CALLVALUE PUSH2 0x2AD JUMPI DUP2 PUSH1 0x3 NOT CALLDATASIZE ADD SLT PUSH2 0x2AD JUMPI PUSH1 0x20 SWAP1 MLOAD PUSH32 0x0 DUP2 MSTORE RETURN JUMPDEST POP POP CALLVALUE PUSH2 0x2AD JUMPI DUP2 PUSH1 0x3 NOT CALLDATASIZE ADD SLT PUSH2 0x2AD JUMPI PUSH1 0x20 SWAP1 MLOAD PUSH32 0x0 DUP2 MSTORE RETURN JUMPDEST POP POP CALLVALUE PUSH2 0x2AD JUMPI DUP2 PUSH1 0x3 NOT CALLDATASIZE ADD SLT PUSH2 0x2AD JUMPI PUSH1 0x2 SLOAD SWAP1 MLOAD PUSH1 0x1 PUSH1 0x1 PUSH1 0xA0 SHL SUB SWAP1 SWAP2 AND DUP2 MSTORE PUSH1 0x20 SWAP1 RETURN JUMPDEST DUP4 CALLVALUE PUSH2 0x73B JUMPI DUP1 PUSH1 0x3 NOT CALLDATASIZE ADD SLT PUSH2 0x73B JUMPI PUSH2 0x87F PUSH2 0x17EF JUMP JUMPDEST PUSH2 0x100 PUSH2 0xFF00 NOT PUSH1 0x6 SLOAD AND OR PUSH1 0x6 SSTORE PUSH32 0x9E87FAC88FF661F02D44F95383C817FECE4BCE600A3DAB7A54406878B965E752 DUP2 DUP1 LOG1 DUP1 RETURN JUMPDEST DUP4 DUP4 CALLVALUE PUSH2 0x2AD JUMPI PUSH1 0x20 CALLDATASIZE PUSH1 0x3 NOT ADD SLT PUSH2 0x2AD JUMPI DUP3 CALLDATALOAD SWAP1 PUSH2 0x8D3 PUSH2 0x1982 JUMP JUMPDEST PUSH32 0x0 PUSH1 0x1 PUSH1 0x1 PUSH1 0xA0 SHL SUB AND DUP1 ISZERO PUSH2 0x969 JUMPI DUP2 MLOAD PUSH4 0x23B872DD PUSH1 0xE0 SHL PUSH1 0x20 DUP3 ADD MSTORE CALLER PUSH1 0x24 DUP3 ADD MSTORE ADDRESS PUSH1 0x44 DUP3 ADD MSTORE PUSH1 0x64 DUP1 DUP3 ADD DUP6 SWAP1 MSTORE DUP2 MSTORE SWAP2 PUSH1 0xA0 DUP4 ADD SWAP1 PUSH8 0xFFFFFFFFFFFFFFFF DUP3 GT DUP5 DUP4 LT OR PUSH2 0x956 JUMPI MSTORE PUSH2 0x3BE SWAP3 SWAP2 PUSH2 0x950 SWAP2 PUSH2 0x19DD JUMP JUMPDEST CALLER PUSH2 0x1A68 JUMP JUMPDEST PUSH4 0x4E487B71 PUSH1 0xE0 SHL DUP7 MSTORE PUSH1 0x41 DUP8 MSTORE PUSH1 0x24 DUP7 REVERT JUMPDEST DUP2 MLOAD PUSH4 0x7A92F19 PUSH1 0xE5 SHL DUP2 MSTORE DUP6 SWAP1 REVERT JUMPDEST POP POP CALLVALUE PUSH2 0x2AD JUMPI DUP2 PUSH1 0x3 NOT CALLDATASIZE ADD SLT PUSH2 0x2AD JUMPI PUSH1 0x20 SWAP1 MLOAD PUSH32 0x0 DUP2 MSTORE RETURN JUMPDEST POP POP CALLVALUE PUSH2 0x2AD JUMPI DUP2 PUSH1 0x3 NOT CALLDATASIZE ADD SLT PUSH2 0x2AD JUMPI PUSH1 0x20 SWAP1 MLOAD PUSH32 0xA49807205CE4D355092EF5A8A18F56E8913CF4A201FBE287825B095693C21775 DUP2 MSTORE RETURN JUMPDEST POP POP CALLVALUE PUSH2 0x2AD JUMPI PUSH1 0x20 CALLDATASIZE PUSH1 0x3 NOT ADD SLT PUSH2 0x2AD JUMPI PUSH1 0x20 SWAP2 PUSH1 0xFF SWAP1 DUP3 SWAP1 PUSH1 0x1 PUSH1 0x1 PUSH1 0xA0 SHL SUB PUSH2 0xA1A PUSH2 0x17D9 JUMP JUMPDEST AND DUP2 MSTORE PUSH1 0x8 DUP6 MSTORE KECCAK256 SLOAD AND SWAP1 MLOAD SWAP1 ISZERO ISZERO DUP2 MSTORE RETURN JUMPDEST POP POP CALLVALUE PUSH2 0x2AD JUMPI DUP2 PUSH1 0x3 NOT CALLDATASIZE ADD SLT PUSH2 0x2AD JUMPI MLOAD PUSH32 0x0 PUSH1 0x1 PUSH1 0x1 PUSH1 0xA0 SHL SUB AND DUP2 MSTORE PUSH1 0x20 SWAP1 RETURN JUMPDEST POP POP CALLVALUE PUSH2 0x2AD JUMPI DUP2 PUSH1 0x3 NOT CALLDATASIZE ADD SLT PUSH2 0x2AD JUMPI MLOAD PUSH32 0x0 PUSH1 0x1 PUSH1 0x1 PUSH1 0xA0 SHL SUB AND DUP2 MSTORE PUSH1 0x20 SWAP1 RETURN JUMPDEST SWAP2 SWAP1 POP CALLVALUE PUSH2 0x36B JUMPI DUP3 PUSH1 0x3 NOT CALLDATASIZE ADD SLT PUSH2 0x36B JUMPI PUSH2 0xAD0 PUSH2 0x1982 JUMP JUMPDEST PUSH2 0xAD8 PUSH2 0x17EF JUMP JUMPDEST PUSH1 0xFF PUSH1 0x6 SLOAD PUSH1 0x10 SHR AND PUSH1 0x5 DUP2 LT ISZERO PUSH2 0x665 JUMPI PUSH1 0x2 SUB PUSH2 0x34B JUMPI DUP3 PUSH2 0x3BE PUSH2 0x2214 JUMP JUMPDEST SWAP2 SWAP1 POP CALLVALUE PUSH2 0x36B JUMPI DUP3 PUSH1 0x3 NOT CALLDATASIZE ADD SLT PUSH2 0x36B JUMPI PUSH2 0xB15 PUSH2 0x1982 JUMP JUMPDEST PUSH1 0xFF PUSH1 0x2 SLOAD PUSH1 0xA0 SHR AND PUSH1 0x6 DUP2 LT ISZERO PUSH2 0x665 JUMPI DUP3 DUP2 EQ ISZERO SWAP1 DUP2 PUSH2 0xC00 JUMPI JUMPDEST POP PUSH2 0x34B JUMPI CALLER DUP4 MSTORE PUSH1 0x7 PUSH1 0x20 MSTORE DUP1 DUP4 KECCAK256 SLOAD ISZERO PUSH2 0xBF3 JUMPI CALLER DUP4 MSTORE PUSH1 0x7 PUSH1 0x20 MSTORE DUP1 DUP4 KECCAK256 DUP1 SLOAD SWAP1 DUP5 SWAP1 SSTORE SWAP2 DUP3 PUSH32 0x0 PUSH1 0x1 PUSH1 0x1 PUSH1 0xA0 SHL SUB AND DUP1 PUSH2 0xBE2 JUMPI POP DUP5 DUP1 DUP1 DUP1 SWAP4 CALLER GAS CALL PUSH2 0xB9B PUSH2 0x1DFE JUMP JUMPDEST POP ISZERO PUSH2 0xBD4 JUMPI POP JUMPDEST MLOAD SWAP1 DUP2 MSTORE PUSH32 0xD7DEE2702D63AD89917B6A4DA9981C90C4D24F8C2BDFD64C604ECAE57D8D0651 PUSH1 0x20 CALLER SWAP3 LOG2 PUSH1 0x1 DUP1 SSTORE DUP1 RETURN JUMPDEST SWAP1 MLOAD PUSH4 0x12171D83 PUSH1 0xE3 SHL DUP2 MSTORE REVERT JUMPDEST PUSH2 0xBEE SWAP3 POP CALLER SWAP1 PUSH2 0x201E JUMP JUMPDEST PUSH2 0xBA3 JUMP JUMPDEST MLOAD PUSH4 0xF76AEF65 PUSH1 0xE0 SHL DUP2 MSTORE REVERT JUMPDEST PUSH1 0x5 SWAP2 POP EQ ISZERO CODESIZE PUSH2 0xB32 JUMP JUMPDEST POP POP CALLVALUE PUSH2 0x2AD JUMPI DUP2 PUSH1 0x3 NOT CALLDATASIZE ADD SLT PUSH2 0x2AD JUMPI PUSH2 0xC35 SWAP1 PUSH2 0xC2A PUSH2 0x283C JUMP JUMPDEST SWAP1 MLOAD SWAP2 DUP3 SWAP2 DUP3 PUSH2 0x1795 JUMP JUMPDEST SUB SWAP1 RETURN JUMPDEST DUP4 CALLVALUE PUSH2 0x73B JUMPI DUP1 PUSH1 0x3 NOT CALLDATASIZE ADD SLT PUSH2 0x73B JUMPI PUSH2 0xC52 PUSH2 0x1982 JUMP JUMPDEST PUSH2 0x3BE PUSH2 0x1BDA JUMP JUMPDEST POP POP CALLVALUE PUSH2 0x2AD JUMPI DUP2 PUSH1 0x3 NOT CALLDATASIZE ADD SLT PUSH2 0x2AD JUMPI MLOAD PUSH32 0x0 PUSH1 0x1 PUSH1 0x1 PUSH1 0xA0 SHL SUB AND DUP2 MSTORE PUSH1 0x20 SWAP1 RETURN JUMPDEST SWAP1 POP CALLVALUE PUSH2 0x36B JUMPI DUP3 PUSH1 0x3 NOT CALLDATASIZE ADD SLT PUSH2 0x36B JUMPI PUSH2 0xCB8 PUSH2 0x1982 JUMP JUMPDEST PUSH1 0xFF PUSH1 0x2 SLOAD PUSH1 0xA0 SHR AND PUSH1 0x6 DUP2 LT ISZERO PUSH2 0xDE2 JUMPI PUSH1 0x3 SUB PUSH2 0xDD4 JUMPI CALLER DUP4 MSTORE PUSH1 0x7 PUSH1 0x20 MSTORE DUP2 DUP4 KECCAK256 SLOAD ISZERO PUSH2 0xDC6 JUMPI CALLER DUP4 MSTORE PUSH1 0x8 PUSH1 0x20 MSTORE PUSH1 0xFF DUP3 DUP5 KECCAK256 SLOAD AND PUSH2 0xDB8 JUMPI POP CALLER DUP3 MSTORE PUSH1 0x7 PUSH1 0x20 MSTORE PUSH2 0xD38 PUSH2 0xD2F DUP3 DUP5 KECCAK256 SLOAD PUSH32 0x0 SWAP1 PUSH2 0x1DCB JUMP JUMPDEST PUSH1 0x3 SLOAD SWAP1 PUSH2 0x1DDE JUMP JUMPDEST CALLER DUP1 DUP5 MSTORE PUSH1 0x8 PUSH1 0x20 MSTORE DUP3 DUP5 KECCAK256 DUP1 SLOAD PUSH1 0xFF NOT AND PUSH1 0x1 OR SWAP1 SSTORE SWAP1 SWAP2 SWAP1 PUSH2 0xD87 SWAP1 DUP4 SWAP1 PUSH32 0x0 PUSH1 0x1 PUSH1 0x1 PUSH1 0xA0 SHL SUB AND PUSH2 0x201E JUMP JUMPDEST MLOAD SWAP1 DUP2 MSTORE PUSH32 0x896E034966EAAF1ADC54ACC0F257056FEBBD300C9E47182CF761982CF1F5E430 PUSH1 0x20 CALLER SWAP3 LOG2 PUSH1 0x1 DUP1 SSTORE DUP1 RETURN JUMPDEST SWAP1 MLOAD PUSH4 0xC8D9EAB PUSH1 0xE3 SHL DUP2 MSTORE REVERT JUMPDEST SWAP1 MLOAD PUSH4 0x1971FBF3 PUSH1 0xE2 SHL DUP2 MSTORE REVERT JUMPDEST SWAP1 MLOAD PUSH4 0x7A92F19 PUSH1 0xE5 SHL DUP2 MSTORE REVERT JUMPDEST PUSH4 0x4E487B71 PUSH1 0xE0 SHL DUP5 MSTORE PUSH1 0x21 DUP3 MSTORE PUSH1 0x24 DUP5 REVERT JUMPDEST DUP4 CALLVALUE PUSH2 0x73B JUMPI DUP1 PUSH1 0x3 NOT CALLDATASIZE ADD SLT PUSH2 0x73B JUMPI PUSH2 0xE0E PUSH2 0x17EF JUMP JUMPDEST PUSH2 0xFF00 NOT PUSH1 0x6 SLOAD AND PUSH1 0x6 SSTORE PUSH32 0xA45F47FDEA8A1EFDD9029A5691C7F759C32B7C698632B563573E155625D16933 DUP2 DUP1 LOG1 DUP1 RETURN JUMPDEST DUP4 DUP4 CALLVALUE PUSH2 0x2AD JUMPI DUP1 PUSH1 0x3 NOT CALLDATASIZE ADD SLT PUSH2 0x2AD JUMPI PUSH2 0xE5A PUSH2 0x17BE JUMP JUMPDEST SWAP1 CALLER PUSH1 0x1 PUSH1 0x1 PUSH1 0xA0 SHL SUB DUP4 AND SUB PUSH2 0xE77 JUMPI POP PUSH2 0x400 SWAP2 SWAP3 CALLDATALOAD PUSH2 0x190D JUMP JUMPDEST MLOAD PUSH4 0x334BD919 PUSH1 0xE1 SHL DUP2 MSTORE DUP4 SWAP1 REVERT JUMPDEST SWAP1 POP CALLVALUE PUSH2 0x36B JUMPI DUP3 PUSH1 0x3 NOT CALLDATASIZE ADD SLT PUSH2 0x36B JUMPI PUSH1 0x20 SWAP3 POP SLOAD SWAP1 MLOAD SWAP1 DUP2 MSTORE RETURN JUMPDEST POP POP CALLVALUE PUSH2 0x2AD JUMPI DUP2 PUSH1 0x3 NOT CALLDATASIZE ADD SLT PUSH2 0x2AD JUMPI PUSH1 0x20 SWAP1 MLOAD PUSH32 0x0 DUP2 MSTORE RETURN JUMPDEST POP POP CALLVALUE PUSH2 0x2AD JUMPI DUP2 PUSH1 0x3 NOT CALLDATASIZE ADD SLT PUSH2 0x2AD JUMPI MLOAD PUSH32 0x0 PUSH1 0x1 PUSH1 0x1 PUSH1 0xA0 SHL SUB AND DUP2 MSTORE PUSH1 0x20 SWAP1 RETURN JUMPDEST SWAP2 SWAP1 POP CALLVALUE PUSH2 0x36B JUMPI DUP1 PUSH1 0x3 NOT CALLDATASIZE ADD SLT PUSH2 0x36B JUMPI PUSH2 0x400 SWAP2 CALLDATALOAD PUSH2 0xF48 PUSH1 0x1 PUSH2 0x3EA PUSH2 0x17BE JUMP JUMPDEST PUSH2 0x188F JUMP JUMPDEST DUP4 DUP4 CALLVALUE PUSH2 0x2AD JUMPI DUP2 PUSH1 0x3 NOT CALLDATASIZE ADD SLT PUSH2 0x2AD JUMPI PUSH1 0xFF PUSH1 0x6 SLOAD PUSH1 0x10 SHR AND SWAP1 MLOAD SWAP2 PUSH1 0x5 DUP3 LT ISZERO PUSH2 0xF7C JUMPI PUSH1 0x20 DUP4 DUP4 DUP2 MSTORE RETURN JUMPDEST PUSH4 0x4E487B71 PUSH1 0xE0 SHL DUP2 MSTORE PUSH1 0x21 DUP5 MSTORE PUSH1 0x24 SWAP1 REVERT JUMPDEST SWAP1 POP CALLVALUE PUSH2 0x36B JUMPI PUSH1 0x20 CALLDATASIZE PUSH1 0x3 NOT ADD SLT PUSH2 0x36B JUMPI DUP2 PUSH1 0x20 SWAP4 PUSH1 0x1 SWAP3 CALLDATALOAD DUP2 MSTORE DUP1 DUP6 MSTORE KECCAK256 ADD SLOAD SWAP1 MLOAD SWAP1 DUP2 MSTORE RETURN JUMPDEST DUP3 DUP5 CALLVALUE PUSH2 0x73B JUMPI DUP2 PUSH1 0x3 NOT CALLDATASIZE ADD SLT PUSH2 0x73B JUMPI DUP3 CALLDATALOAD SWAP1 PUSH1 0x24 CALLDATALOAD SWAP4 ADDRESS CALLER SUB PUSH2 0x15C9 JUMPI DUP4 MLOAD PUSH4 0x95EA7B3 PUSH1 0xE0 SHL DUP1 DUP3 MSTORE PUSH1 0x1 PUSH1 0x1 PUSH1 0xA0 SHL SUB PUSH32 0x0 DUP2 AND DUP5 DUP5 ADD DUP2 DUP2 MSTORE PUSH1 0x20 DUP1 DUP3 ADD DUP10 SWAP1 MSTORE SWAP10 SWAP3 SWAP8 PUSH32 0x0 DUP1 DUP11 AND SWAP8 SWAP1 SWAP7 SWAP1 SWAP5 SWAP4 SWAP3 DUP13 SWAP1 DUP3 SWAP1 DUP2 SWAP1 PUSH1 0x40 ADD SUB DUP2 DUP13 DUP13 GAS CALL DUP1 ISZERO PUSH2 0x131E JUMPI PUSH2 0x15AC JUMPI JUMPDEST POP DUP10 MLOAD PUSH4 0xC45A0155 PUSH1 0xE0 SHL DUP2 MSTORE DUP12 DUP2 DUP7 DUP2 DUP7 GAS STATICCALL SWAP1 DUP2 ISZERO PUSH2 0x131E JUMPI SWAP1 DUP11 SWAP2 DUP11 SWAP2 PUSH2 0x158F JUMPI JUMPDEST POP AND SWAP5 DUP11 DUP13 DUP11 PUSH32 0x0 SWAP4 DUP14 DUP6 AND SWAP4 DUP5 ISZERO PUSH1 0x0 EQ PUSH2 0x1328 JUMPI SWAP5 POP POP POP POP POP MLOAD SWAP7 PUSH4 0x15AB88C9 PUSH1 0xE3 SHL DUP9 MSTORE DUP12 DUP9 DUP7 DUP2 DUP7 GAS STATICCALL SWAP8 DUP9 ISZERO PUSH2 0x131E JUMPI DUP10 SWAP9 PUSH2 0x12FF JUMPI JUMPDEST POP DUP11 MLOAD PUSH4 0xE6A43905 PUSH1 0xE0 SHL DUP1 DUP3 MSTORE PUSH1 0x1 PUSH1 0x1 PUSH1 0xA0 SHL SUB DUP1 DUP11 AND DUP9 DUP5 ADD SWAP1 DUP2 MSTORE SWAP1 DUP12 AND PUSH1 0x20 DUP3 ADD MSTORE SWAP1 SWAP6 SWAP2 SWAP1 DUP15 SWAP1 DUP3 SWAP1 DUP2 SWAP1 PUSH1 0x40 ADD SUB DUP2 DUP12 GAS STATICCALL SWAP1 DUP2 ISZERO PUSH2 0x12D8 JUMPI DUP11 DUP16 SWAP2 DUP16 SWAP4 DUP16 DUP16 SWAP3 SWAP1 DUP15 SWAP3 DUP14 SWAP3 DUP6 SWAP2 PUSH2 0x12E2 JUMPI JUMPDEST POP AND ISZERO PUSH2 0x126B JUMPI JUMPDEST POP POP POP POP POP POP PUSH2 0x12C TIMESTAMP ADD SWAP4 DUP5 TIMESTAMP GT PUSH2 0x1258 JUMPI SWAP2 PUSH1 0xC4 SWAP2 PUSH1 0x60 SWAP5 SWAP4 DUP15 MLOAD SWAP7 DUP8 SWAP6 DUP7 SWAP5 PUSH4 0xF305D719 PUSH1 0xE0 SHL DUP7 MSTORE DUP12 DUP7 ADD MSTORE PUSH1 0x24 DUP6 ADD MSTORE DUP14 PUSH1 0x44 DUP6 ADD MSTORE DUP14 PUSH1 0x64 DUP6 ADD MSTORE ADDRESS PUSH1 0x84 DUP6 ADD MSTORE PUSH1 0xA4 DUP5 ADD MSTORE GAS CALL DUP1 ISZERO PUSH2 0x124E JUMPI SWAP1 DUP11 SWAP6 SWAP5 SWAP4 SWAP3 SWAP2 PUSH2 0x1220 JUMPI JUMPDEST POP DUP9 MLOAD SWAP1 DUP2 MSTORE PUSH1 0x1 PUSH1 0x1 PUSH1 0xA0 SHL SUB SWAP4 DUP5 AND SWAP2 DUP2 ADD SWAP2 DUP3 MSTORE SWAP5 SWAP1 SWAP3 AND PUSH1 0x20 DUP4 ADD MSTORE DUP4 SWAP2 DUP3 SWAP1 DUP2 SWAP1 PUSH1 0x40 ADD SUB SWAP2 GAS STATICCALL SWAP2 DUP3 ISZERO PUSH2 0x1215 JUMPI SWAP2 PUSH2 0x11E8 JUMPI JUMPDEST POP SWAP2 JUMPDEST MLOAD SWAP2 AND DUP2 MSTORE RETURN JUMPDEST PUSH2 0x1208 SWAP2 POP DUP5 RETURNDATASIZE DUP7 GT PUSH2 0x120E JUMPI JUMPDEST PUSH2 0x1200 DUP2 DUP4 PUSH2 0x19A5 JUMP JUMPDEST DUP2 ADD SWAP1 PUSH2 0x206C JUMP JUMPDEST DUP5 PUSH2 0x11DE JUMP JUMPDEST POP RETURNDATASIZE PUSH2 0x11F6 JUMP JUMPDEST DUP5 MLOAD SWAP1 RETURNDATASIZE SWAP1 DUP3 RETURNDATACOPY RETURNDATASIZE SWAP1 REVERT JUMPDEST PUSH2 0x1240 SWAP1 PUSH1 0x60 RETURNDATASIZE DUP2 GT PUSH2 0x1247 JUMPI JUMPDEST PUSH2 0x1238 DUP2 DUP4 PUSH2 0x19A5 JUMP JUMPDEST DUP2 ADD SWAP1 PUSH2 0x2774 JUMP JUMPDEST POP POP PUSH2 0x11A4 JUMP JUMPDEST POP RETURNDATASIZE PUSH2 0x122E JUMP JUMPDEST DUP10 MLOAD RETURNDATASIZE DUP10 DUP3 RETURNDATACOPY RETURNDATASIZE SWAP1 REVERT JUMPDEST PUSH4 0x4E487B71 PUSH1 0xE0 SHL DUP12 MSTORE PUSH1 0x11 DUP8 MSTORE PUSH1 0x24 DUP12 REVERT JUMPDEST SWAP5 MLOAD PUSH4 0x64E329CB PUSH1 0xE1 SHL DUP2 MSTORE PUSH1 0x1 PUSH1 0x1 PUSH1 0xA0 SHL SUB SWAP2 DUP3 AND SWAP6 DUP2 ADD SWAP6 DUP7 MSTORE SWAP3 AND PUSH1 0x20 DUP6 ADD MSTORE SWAP1 SWAP3 DUP4 SWAP2 SWAP1 DUP3 SWAP1 DUP2 SWAP1 PUSH1 0x40 ADD SUB SWAP2 DUP13 GAS CALL DUP1 ISZERO PUSH2 0x12D8 JUMPI SWAP1 DUP15 SWAP2 PUSH2 0x12BA JUMPI JUMPDEST POP DUP13 SWAP1 DUP11 DUP13 DUP12 DUP11 PUSH2 0x1144 JUMP JUMPDEST DUP2 PUSH2 0x12D0 SWAP3 SWAP1 RETURNDATASIZE LT PUSH2 0x120E JUMPI PUSH2 0x1200 DUP2 DUP4 PUSH2 0x19A5 JUMP JUMPDEST POP DUP13 DUP15 PUSH2 0x12AE JUMP JUMPDEST DUP14 MLOAD RETURNDATASIZE DUP14 DUP3 RETURNDATACOPY RETURNDATASIZE SWAP1 REVERT JUMPDEST PUSH2 0x12F9 SWAP2 POP DUP8 RETURNDATASIZE DUP10 GT PUSH2 0x120E JUMPI PUSH2 0x1200 DUP2 DUP4 PUSH2 0x19A5 JUMP JUMPDEST CODESIZE PUSH2 0x113C JUMP JUMPDEST PUSH2 0x1317 SWAP2 SWAP9 POP DUP13 DUP14 RETURNDATASIZE LT PUSH2 0x120E JUMPI PUSH2 0x1200 DUP2 DUP4 PUSH2 0x19A5 JUMP JUMPDEST SWAP7 DUP13 PUSH2 0x10E8 JUMP JUMPDEST DUP12 MLOAD RETURNDATASIZE DUP12 DUP3 RETURNDATACOPY RETURNDATASIZE SWAP1 REVERT JUMPDEST MLOAD SWAP1 DUP2 MSTORE PUSH1 0x1 PUSH1 0x1 PUSH1 0xA0 SHL SUB DUP8 AND DUP2 DUP11 ADD SWAP1 DUP2 MSTORE PUSH1 0x20 DUP2 ADD DUP10 SWAP1 MSTORE SWAP5 SWAP12 SWAP6 SWAP8 SWAP4 SWAP7 SWAP5 SWAP1 SWAP3 SWAP2 DUP4 SWAP2 DUP3 SWAP1 DUP2 SWAP1 PUSH1 0x40 ADD SUB SWAP2 DUP10 GAS CALL DUP1 ISZERO PUSH2 0x12D8 JUMPI DUP15 DUP12 DUP16 DUP13 SWAP10 SWAP9 SWAP8 SWAP7 SWAP6 SWAP5 PUSH2 0x13A8 SWAP5 PUSH2 0x1562 JUMPI JUMPDEST POP MLOAD PUSH4 0xE6A43905 PUSH1 0xE0 SHL DUP1 DUP3 MSTORE PUSH1 0x1 PUSH1 0x1 PUSH1 0xA0 SHL SUB SWAP11 DUP12 AND DUP13 DUP4 ADD SWAP1 DUP2 MSTORE SWAP3 SWAP1 SWAP11 AND PUSH1 0x20 DUP4 ADD MSTORE SWAP3 DUP4 SWAP2 DUP3 SWAP2 PUSH1 0x40 SWAP1 SWAP2 ADD SWAP1 JUMP JUMPDEST SUB DUP2 DUP13 GAS STATICCALL SWAP1 DUP2 ISZERO PUSH2 0x153B JUMPI DUP16 SWAP1 DUP16 SWAP3 DUP16 DUP16 SWAP2 DUP16 SWAP4 SWAP2 DUP16 SWAP3 SWAP2 DUP15 SWAP3 DUP6 SWAP2 PUSH2 0x1545 JUMPI JUMPDEST POP AND ISZERO PUSH2 0x14CE JUMPI JUMPDEST POP POP POP POP POP POP PUSH2 0x12C TIMESTAMP ADD SWAP1 DUP2 TIMESTAMP GT PUSH2 0x14BB JUMPI PUSH2 0x104 SWAP3 PUSH1 0x60 SWAP6 SWAP5 SWAP3 DUP16 SWAP3 DUP15 SWAP4 MLOAD SWAP9 DUP10 SWAP8 DUP9 SWAP7 PUSH3 0xE8E337 PUSH1 0xE8 SHL DUP9 MSTORE DUP14 DUP9 ADD MSTORE PUSH1 0x24 DUP8 ADD MSTORE PUSH1 0x44 DUP7 ADD MSTORE PUSH1 0x64 DUP6 ADD MSTORE DUP3 PUSH1 0x84 DUP6 ADD MSTORE DUP3 PUSH1 0xA4 DUP6 ADD MSTORE ADDRESS PUSH1 0xC4 DUP6 ADD MSTORE PUSH1 0xE4 DUP5 ADD MSTORE GAS CALL DUP1 ISZERO PUSH2 0x124E JUMPI SWAP1 DUP11 SWAP6 SWAP5 SWAP4 SWAP3 SWAP2 PUSH2 0x149D JUMPI JUMPDEST POP DUP9 MLOAD SWAP1 DUP2 MSTORE PUSH1 0x1 PUSH1 0x1 PUSH1 0xA0 SHL SUB SWAP4 DUP5 AND SWAP2 DUP2 ADD SWAP2 DUP3 MSTORE SWAP5 SWAP1 SWAP3 AND PUSH1 0x20 DUP4 ADD MSTORE DUP4 SWAP2 DUP3 SWAP1 DUP2 SWAP1 PUSH1 0x40 ADD SUB SWAP2 GAS STATICCALL SWAP2 DUP3 ISZERO PUSH2 0x1215 JUMPI SWAP2 PUSH2 0x1480 JUMPI JUMPDEST POP SWAP2 PUSH2 0x11E1 JUMP JUMPDEST PUSH2 0x1497 SWAP2 POP DUP5 RETURNDATASIZE DUP7 GT PUSH2 0x120E JUMPI PUSH2 0x1200 DUP2 DUP4 PUSH2 0x19A5 JUMP JUMPDEST DUP5 PUSH2 0x1479 JUMP JUMPDEST PUSH2 0x14B4 SWAP1 PUSH1 0x60 RETURNDATASIZE DUP2 GT PUSH2 0x1247 JUMPI PUSH2 0x1238 DUP2 DUP4 PUSH2 0x19A5 JUMP JUMPDEST POP POP PUSH2 0x143F JUMP JUMPDEST PUSH4 0x4E487B71 PUSH1 0xE0 SHL DUP13 MSTORE PUSH1 0x11 DUP9 MSTORE PUSH1 0x24 DUP13 REVERT JUMPDEST SWAP5 MLOAD PUSH4 0x64E329CB PUSH1 0xE1 SHL DUP2 MSTORE PUSH1 0x1 PUSH1 0x1 PUSH1 0xA0 SHL SUB SWAP2 DUP3 AND SWAP6 DUP2 ADD SWAP6 DUP7 MSTORE SWAP3 AND PUSH1 0x20 DUP6 ADD MSTORE SWAP1 SWAP3 DUP4 SWAP2 SWAP1 DUP3 SWAP1 DUP2 SWAP1 PUSH1 0x40 ADD SUB SWAP2 DUP14 GAS CALL DUP1 ISZERO PUSH2 0x153B JUMPI SWAP1 DUP16 SWAP2 PUSH2 0x151D JUMPI JUMPDEST POP DUP14 SWAP1 DUP12 DUP14 DUP13 DUP12 PUSH2 0x13D2 JUMP JUMPDEST DUP2 PUSH2 0x1533 SWAP3 SWAP1 RETURNDATASIZE LT PUSH2 0x120E JUMPI PUSH2 0x1200 DUP2 DUP4 PUSH2 0x19A5 JUMP JUMPDEST POP DUP14 DUP16 PUSH2 0x1511 JUMP JUMPDEST DUP15 MLOAD RETURNDATASIZE DUP15 DUP3 RETURNDATACOPY RETURNDATASIZE SWAP1 REVERT JUMPDEST PUSH2 0x155C SWAP2 POP DUP8 RETURNDATASIZE DUP10 GT PUSH2 0x120E JUMPI PUSH2 0x1200 DUP2 DUP4 PUSH2 0x19A5 JUMP JUMPDEST CODESIZE PUSH2 0x13CA JUMP JUMPDEST PUSH2 0x1581 SWAP1 DUP5 RETURNDATASIZE DUP7 GT PUSH2 0x1588 JUMPI JUMPDEST PUSH2 0x1579 DUP2 DUP4 PUSH2 0x19A5 JUMP JUMPDEST DUP2 ADD SWAP1 PUSH2 0x21FC JUMP JUMPDEST POP CODESIZE PUSH2 0x1374 JUMP JUMPDEST POP RETURNDATASIZE PUSH2 0x156F JUMP JUMPDEST PUSH2 0x15A6 SWAP2 POP DUP14 DUP1 RETURNDATASIZE LT PUSH2 0x120E JUMPI PUSH2 0x1200 DUP2 DUP4 PUSH2 0x19A5 JUMP JUMPDEST DUP14 PUSH2 0x108C JUMP JUMPDEST PUSH2 0x15C2 SWAP1 DUP13 DUP14 RETURNDATASIZE LT PUSH2 0x1588 JUMPI PUSH2 0x1579 DUP2 DUP4 PUSH2 0x19A5 JUMP JUMPDEST POP DUP12 PUSH2 0x1067 JUMP JUMPDEST DUP4 MLOAD PUSH4 0xEA8E4EB5 PUSH1 0xE0 SHL DUP2 MSTORE REVERT JUMPDEST POP POP CALLVALUE PUSH2 0x2AD JUMPI DUP2 PUSH1 0x3 NOT CALLDATASIZE ADD SLT PUSH2 0x2AD JUMPI PUSH1 0x20 SWAP1 MLOAD PUSH32 0x0 DUP2 MSTORE RETURN JUMPDEST POP POP CALLVALUE PUSH2 0x2AD JUMPI DUP2 PUSH1 0x3 NOT CALLDATASIZE ADD SLT PUSH2 0x2AD JUMPI PUSH2 0xC35 SWAP1 PUSH1 0xFF PUSH1 0x2 SLOAD PUSH1 0xA0 SHR AND SWAP1 MLOAD SWAP2 DUP3 SWAP2 DUP3 PUSH2 0x1795 JUMP JUMPDEST POP POP CALLVALUE PUSH2 0x2AD JUMPI DUP2 PUSH1 0x3 NOT CALLDATASIZE ADD SLT PUSH2 0x2AD JUMPI PUSH1 0x20 SWAP1 MLOAD PUSH32 0x0 DUP2 MSTORE RETURN JUMPDEST POP POP CALLVALUE PUSH2 0x2AD JUMPI DUP2 PUSH1 0x3 NOT CALLDATASIZE ADD SLT PUSH2 0x2AD JUMPI PUSH1 0x20 SWAP1 MLOAD PUSH2 0xFFFF PUSH32 0x0 AND DUP2 MSTORE RETURN JUMPDEST POP POP CALLVALUE PUSH2 0x2AD JUMPI DUP2 PUSH1 0x3 NOT CALLDATASIZE ADD SLT PUSH2 0x2AD JUMPI MLOAD PUSH32 0x0 PUSH1 0x1 PUSH1 0x1 PUSH1 0xA0 SHL SUB AND DUP2 MSTORE PUSH1 0x20 SWAP1 RETURN JUMPDEST SWAP1 POP CALLVALUE PUSH2 0x36B JUMPI PUSH1 0x20 CALLDATASIZE PUSH1 0x3 NOT ADD SLT PUSH2 0x36B JUMPI CALLDATALOAD SWAP1 PUSH4 0xFFFFFFFF PUSH1 0xE0 SHL DUP3 AND DUP1 SWAP3 SUB PUSH2 0x36B JUMPI PUSH1 0x20 SWAP3 POP PUSH4 0x7965DB0B PUSH1 0xE0 SHL DUP3 EQ SWAP2 DUP3 ISZERO PUSH2 0x173F JUMPI JUMPDEST POP MLOAD SWAP1 ISZERO ISZERO DUP2 MSTORE RETURN JUMPDEST PUSH4 0x1FFC9A7 PUSH1 0xE0 SHL EQ SWAP2 POP CODESIZE PUSH2 0x1736 JUMP JUMPDEST SWAP2 SWAP1 POP CALLVALUE PUSH2 0x36B JUMPI DUP3 PUSH1 0x3 NOT CALLDATASIZE ADD SLT PUSH2 0x36B JUMPI PUSH2 0x176B PUSH2 0x1982 JUMP JUMPDEST PUSH2 0x1773 PUSH2 0x17EF JUMP JUMPDEST PUSH1 0xFF PUSH1 0x6 SLOAD PUSH1 0x10 SHR AND PUSH1 0x5 DUP2 LT ISZERO PUSH2 0x665 JUMPI PUSH1 0x3 SUB PUSH2 0x34B JUMPI DUP3 PUSH2 0x3BE PUSH2 0x24E1 JUMP JUMPDEST SWAP2 SWAP1 PUSH1 0x20 DUP4 ADD SWAP3 PUSH1 0x6 DUP3 LT ISZERO PUSH2 0x17A8 JUMPI MSTORE JUMP JUMPDEST PUSH4 0x4E487B71 PUSH1 0xE0 SHL PUSH1 0x0 MSTORE PUSH1 0x21 PUSH1 0x4 MSTORE PUSH1 0x24 PUSH1 0x0 REVERT JUMPDEST PUSH1 0x24 CALLDATALOAD SWAP1 PUSH1 0x1 PUSH1 0x1 PUSH1 0xA0 SHL SUB DUP3 AND DUP3 SUB PUSH2 0x17D4 JUMPI JUMP JUMPDEST PUSH1 0x0 DUP1 REVERT JUMPDEST PUSH1 0x4 CALLDATALOAD SWAP1 PUSH1 0x1 PUSH1 0x1 PUSH1 0xA0 SHL SUB DUP3 AND DUP3 SUB PUSH2 0x17D4 JUMPI JUMP JUMPDEST CALLER PUSH1 0x0 SWAP1 DUP2 MSTORE PUSH32 0x7D7FFB7A348E1C6A02869081A26547B49160DD3DF72D1D75A570EB9B698292EC PUSH1 0x20 MSTORE PUSH1 0x40 SWAP1 KECCAK256 SLOAD PUSH32 0xA49807205CE4D355092EF5A8A18F56E8913CF4A201FBE287825B095693C21775 SWAP1 PUSH1 0xFF AND ISZERO PUSH2 0x184B JUMPI POP JUMP JUMPDEST PUSH1 0x44 SWAP1 PUSH1 0x40 MLOAD SWAP1 PUSH4 0xE2517D3F PUSH1 0xE0 SHL DUP3 MSTORE CALLER PUSH1 0x4 DUP4 ADD MSTORE PUSH1 0x24 DUP3 ADD MSTORE REVERT JUMPDEST DUP1 PUSH1 0x0 MSTORE PUSH1 0x0 PUSH1 0x20 MSTORE PUSH1 0x40 PUSH1 0x0 KECCAK256 CALLER PUSH1 0x0 MSTORE PUSH1 0x20 MSTORE PUSH1 0xFF PUSH1 0x40 PUSH1 0x0 KECCAK256 SLOAD AND ISZERO PUSH2 0x184B JUMPI POP JUMP JUMPDEST SWAP1 PUSH1 0x0 SWAP2 DUP1 DUP4 MSTORE DUP3 PUSH1 0x20 MSTORE PUSH1 0x40 DUP4 KECCAK256 SWAP2 PUSH1 0x1 DUP1 PUSH1 0xA0 SHL SUB AND SWAP2 DUP3 DUP5 MSTORE PUSH1 0x20 MSTORE PUSH1 0xFF PUSH1 0x40 DUP5 KECCAK256 SLOAD AND ISZERO PUSH1 0x0 EQ PUSH2 0x1908 JUMPI DUP1 DUP4 MSTORE DUP3 PUSH1 0x20 MSTORE PUSH1 0x40 DUP4 KECCAK256 DUP3 DUP5 MSTORE PUSH1 0x20 MSTORE PUSH1 0x40 DUP4 KECCAK256 PUSH1 0x1 PUSH1 0xFF NOT DUP3 SLOAD AND OR SWAP1 SSTORE PUSH32 0x2F8788117E7EFF1D82E926EC794901D17C78024A50270940304540A733656F0D CALLER SWAP4 DUP1 LOG4 PUSH1 0x1 SWAP1 JUMP JUMPDEST POP POP SWAP1 JUMP JUMPDEST SWAP1 PUSH1 0x0 SWAP2 DUP1 DUP4 MSTORE DUP3 PUSH1 0x20 MSTORE PUSH1 0x40 DUP4 KECCAK256 SWAP2 PUSH1 0x1 DUP1 PUSH1 0xA0 SHL SUB AND SWAP2 DUP3 DUP5 MSTORE PUSH1 0x20 MSTORE PUSH1 0xFF PUSH1 0x40 DUP5 KECCAK256 SLOAD AND PUSH1 0x0 EQ PUSH2 0x1908 JUMPI DUP1 DUP4 MSTORE DUP3 PUSH1 0x20 MSTORE PUSH1 0x40 DUP4 KECCAK256 DUP3 DUP5 MSTORE PUSH1 0x20 MSTORE PUSH1 0x40 DUP4 KECCAK256 PUSH1 0xFF NOT DUP2 SLOAD AND SWAP1 SSTORE PUSH32 0xF6391F5C32D9C69D2A47EA670B442974B53935D1EDC7FD64EB21E047A839171B CALLER SWAP4 DUP1 LOG4 PUSH1 0x1 SWAP1 JUMP JUMPDEST PUSH1 0x2 PUSH1 0x1 SLOAD EQ PUSH2 0x1993 JUMPI PUSH1 0x2 PUSH1 0x1 SSTORE JUMP JUMPDEST PUSH1 0x40 MLOAD PUSH4 0x3EE5AEB5 PUSH1 0xE0 SHL DUP2 MSTORE PUSH1 0x4 SWAP1 REVERT JUMPDEST SWAP1 PUSH1 0x1F DUP1 NOT SWAP2 ADD AND DUP2 ADD SWAP1 DUP2 LT PUSH8 0xFFFFFFFFFFFFFFFF DUP3 GT OR PUSH2 0x19C7 JUMPI PUSH1 0x40 MSTORE JUMP JUMPDEST PUSH4 0x4E487B71 PUSH1 0xE0 SHL PUSH1 0x0 MSTORE PUSH1 0x41 PUSH1 0x4 MSTORE PUSH1 0x24 PUSH1 0x0 REVERT JUMPDEST SWAP1 PUSH1 0x0 PUSH1 0x20 SWAP2 DUP3 DUP2 MLOAD SWAP2 ADD DUP3 DUP6 GAS CALL ISZERO PUSH2 0x1A39 JUMPI PUSH1 0x0 MLOAD RETURNDATASIZE PUSH2 0x1A30 JUMPI POP PUSH1 0x1 PUSH1 0x1 PUSH1 0xA0 SHL SUB DUP2 AND EXTCODESIZE ISZERO JUMPDEST PUSH2 0x1A0E JUMPI POP JUMP JUMPDEST PUSH1 0x40 MLOAD PUSH4 0x5274AFE7 PUSH1 0xE0 SHL DUP2 MSTORE PUSH1 0x1 PUSH1 0x1 PUSH1 0xA0 SHL SUB SWAP1 SWAP2 AND PUSH1 0x4 DUP3 ADD MSTORE PUSH1 0x24 SWAP1 REVERT JUMPDEST PUSH1 0x1 EQ ISZERO PUSH2 0x1A07 JUMP JUMPDEST PUSH1 0x40 MLOAD RETURNDATASIZE PUSH1 0x0 DUP3 RETURNDATACOPY RETURNDATASIZE SWAP1 REVERT JUMPDEST SWAP2 SWAP1 DUP3 ADD DUP1 SWAP3 GT PUSH2 0x1A52 JUMPI JUMP JUMPDEST PUSH4 0x4E487B71 PUSH1 0xE0 SHL PUSH1 0x0 MSTORE PUSH1 0x11 PUSH1 0x4 MSTORE PUSH1 0x24 PUSH1 0x0 REVERT JUMPDEST SWAP2 SWAP1 SWAP2 PUSH2 0x1A73 PUSH2 0x278F JUMP JUMPDEST PUSH1 0xFF PUSH1 0x2 SLOAD PUSH1 0xA0 SHR AND PUSH1 0x6 DUP2 LT ISZERO PUSH2 0x17A8 JUMPI PUSH1 0x1 SUB PUSH2 0x1BC8 JUMPI PUSH1 0xFF PUSH1 0x6 SLOAD PUSH1 0x8 SHR AND PUSH2 0x1BB6 JUMPI PUSH32 0x0 DUP4 LT PUSH2 0x1BA4 JUMPI PUSH1 0x1 DUP1 PUSH1 0xA0 SHL SUB AND PUSH1 0x0 SWAP3 DUP2 DUP5 MSTORE PUSH1 0x7 PUSH1 0x20 MSTORE PUSH1 0x40 SWAP1 PUSH2 0x1AE3 DUP2 DUP4 DUP8 KECCAK256 SLOAD PUSH2 0x1A45 JUMP JUMPDEST PUSH32 0x0 DUP2 GT PUSH2 0x1B93 JUMPI DUP4 DUP7 MSTORE PUSH1 0x7 PUSH1 0x20 MSTORE DUP3 DUP7 KECCAK256 SLOAD ISZERO PUSH2 0x1B68 JUMPI JUMPDEST DUP3 DUP7 DUP6 PUSH32 0xFA35A310D7113DDDCE1C275DA946348E9AAEBF9050B00B372033C4D84B0BD6EB SWAP7 SWAP8 SWAP9 MSTORE PUSH1 0x7 PUSH1 0x20 MSTORE KECCAK256 SSTORE PUSH2 0x1B57 DUP2 PUSH1 0x3 SLOAD PUSH2 0x1A45 JUMP JUMPDEST DUP1 PUSH1 0x3 SSTORE DUP3 MLOAD SWAP2 DUP3 MSTORE PUSH1 0x20 DUP3 ADD MSTORE LOG2 JUMP JUMPDEST PUSH1 0x4 SLOAD PUSH1 0x0 NOT DUP2 EQ PUSH2 0x1B7F JUMPI PUSH1 0x1 ADD PUSH1 0x4 SSTORE PUSH2 0x1B1C JUMP JUMPDEST PUSH4 0x4E487B71 PUSH1 0xE0 SHL DUP8 MSTORE PUSH1 0x11 PUSH1 0x4 MSTORE PUSH1 0x24 DUP8 REVERT JUMPDEST DUP3 MLOAD PUSH4 0x5E508CD3 PUSH1 0xE1 SHL DUP2 MSTORE PUSH1 0x4 SWAP1 REVERT JUMPDEST PUSH1 0x40 MLOAD PUSH4 0x6C7591B5 PUSH1 0xE1 SHL DUP2 MSTORE PUSH1 0x4 SWAP1 REVERT JUMPDEST PUSH1 0x40 MLOAD PUSH4 0xAB35696F PUSH1 0xE0 SHL DUP2 MSTORE PUSH1 0x4 SWAP1 REVERT JUMPDEST PUSH1 0x40 MLOAD PUSH4 0x7A92F19 PUSH1 0xE5 SHL DUP2 MSTORE PUSH1 0x4 SWAP1 REVERT JUMPDEST PUSH2 0x1BE2 PUSH2 0x278F JUMP JUMPDEST PUSH1 0x2 SLOAD PUSH1 0xFF DUP1 DUP3 PUSH1 0xA0 SHR AND PUSH1 0x6 DUP2 LT ISZERO PUSH2 0x17A8 JUMPI PUSH1 0x2 SUB PUSH2 0x1BC8 JUMPI PUSH1 0x6 SLOAD DUP2 DUP2 AND PUSH2 0x1CFB JUMPI PUSH1 0x3 SLOAD PUSH32 0x0 GT PUSH2 0x1CC2 JUMPI DUP2 SWAP3 POP PUSH1 0x10 SHR AND PUSH1 0x5 DUP2 LT ISZERO PUSH2 0x17A8 JUMPI ISZERO PUSH2 0x1CB5 JUMPI JUMPDEST DUP1 PUSH1 0x6 SLOAD PUSH1 0x10 SHR AND PUSH1 0x5 DUP2 LT ISZERO PUSH2 0x17A8 JUMPI PUSH1 0x1 EQ PUSH2 0x1CA8 JUMPI JUMPDEST DUP1 PUSH1 0x6 SLOAD PUSH1 0x10 SHR AND PUSH1 0x5 DUP2 LT ISZERO PUSH2 0x17A8 JUMPI PUSH1 0x2 EQ PUSH2 0x1C9B JUMPI JUMPDEST PUSH1 0x6 SLOAD PUSH1 0x10 SHR AND PUSH1 0x5 DUP2 LT ISZERO PUSH2 0x17A8 JUMPI PUSH1 0x3 EQ PUSH2 0x1C91 JUMPI JUMP JUMPDEST PUSH2 0x1C99 PUSH2 0x24E1 JUMP JUMPDEST JUMP JUMPDEST PUSH2 0x1CA3 PUSH2 0x2214 JUMP JUMPDEST PUSH2 0x1C78 JUMP JUMPDEST PUSH2 0x1CB0 PUSH2 0x208B JUMP JUMPDEST PUSH2 0x1C5F JUMP JUMPDEST PUSH2 0x1CBD PUSH2 0x1E87 JUMP JUMPDEST PUSH2 0x1C46 JUMP JUMPDEST POP POP PUSH1 0xFF PUSH1 0xA0 SHL NOT AND PUSH1 0x1 PUSH1 0xA2 SHL OR PUSH1 0x2 SSTORE PUSH32 0xE48846A3DCA191C762AB6AAA1E929CCAF55E31A875FB78AD1B93E15EF4830ACA PUSH1 0x0 DUP1 LOG1 JUMP JUMPDEST POP POP POP JUMP JUMPDEST PUSH1 0x2 PUSH1 0xFF DUP2 SLOAD PUSH1 0xA0 SHR AND PUSH1 0x6 DUP2 LT ISZERO PUSH2 0x17A8 JUMPI DUP2 SUB PUSH2 0x1D9A JUMPI JUMPDEST PUSH1 0x3 SLOAD PUSH32 0x0 GT PUSH2 0x1D62 JUMPI POP PUSH1 0xFF PUSH1 0x6 SLOAD PUSH1 0x10 SHR AND PUSH1 0x5 DUP2 LT ISZERO PUSH2 0x17A8 JUMPI PUSH2 0x1BC8 JUMPI PUSH2 0x1C99 PUSH2 0x1E87 JUMP JUMPDEST DUP1 SLOAD PUSH1 0xFF PUSH1 0xA0 SHL NOT AND PUSH1 0x1 PUSH1 0xA2 SHL OR SWAP1 SSTORE PUSH32 0xE48846A3DCA191C762AB6AAA1E929CCAF55E31A875FB78AD1B93E15EF4830ACA PUSH1 0x0 DUP1 LOG1 JUMP JUMPDEST PUSH2 0x1DA2 PUSH2 0x278F JUMP JUMPDEST PUSH1 0xFF DUP2 SLOAD PUSH1 0xA0 SHR AND PUSH1 0x6 DUP2 LT ISZERO PUSH2 0x17A8 JUMPI DUP2 EQ PUSH2 0x1D1A JUMPI PUSH1 0x40 MLOAD PUSH4 0x7A92F19 PUSH1 0xE5 SHL DUP2 MSTORE PUSH1 0x4 SWAP1 REVERT JUMPDEST DUP2 DUP2 MUL SWAP3 SWAP2 DUP2 ISZERO SWAP2 DUP5 DIV EQ OR ISZERO PUSH2 0x1A52 JUMPI JUMP JUMPDEST DUP2 ISZERO PUSH2 0x1DE8 JUMPI DIV SWAP1 JUMP JUMPDEST PUSH4 0x4E487B71 PUSH1 0xE0 SHL PUSH1 0x0 MSTORE PUSH1 0x12 PUSH1 0x4 MSTORE PUSH1 0x24 PUSH1 0x0 REVERT JUMPDEST RETURNDATASIZE ISZERO PUSH2 0x1E39 JUMPI RETURNDATASIZE SWAP1 PUSH8 0xFFFFFFFFFFFFFFFF DUP3 GT PUSH2 0x19C7 JUMPI PUSH1 0x40 MLOAD SWAP2 PUSH2 0x1E2D PUSH1 0x1F DUP3 ADD PUSH1 0x1F NOT AND PUSH1 0x20 ADD DUP5 PUSH2 0x19A5 JUMP JUMPDEST DUP3 MSTORE RETURNDATASIZE PUSH1 0x0 PUSH1 0x20 DUP5 ADD RETURNDATACOPY JUMP JUMPDEST PUSH1 0x60 SWAP1 JUMP JUMPDEST PUSH1 0x20 DUP1 DUP3 MSTORE DUP3 MLOAD DUP2 DUP4 ADD DUP2 SWAP1 MSTORE SWAP1 SWAP4 SWAP3 PUSH1 0x0 JUMPDEST DUP3 DUP2 LT PUSH2 0x1E73 JUMPI POP POP PUSH1 0x40 SWAP3 SWAP4 POP PUSH1 0x0 DUP4 DUP3 DUP5 ADD ADD MSTORE PUSH1 0x1F DUP1 NOT SWAP2 ADD AND ADD ADD SWAP1 JUMP JUMPDEST DUP2 DUP2 ADD DUP7 ADD MLOAD DUP5 DUP3 ADD PUSH1 0x40 ADD MSTORE DUP6 ADD PUSH2 0x1E51 JUMP JUMPDEST PUSH1 0x5 SLOAD ISZERO PUSH2 0x1FCE JUMPI JUMPDEST PUSH1 0x3 SLOAD PUSH2 0x1F4 SWAP1 DUP2 DUP2 MUL SWAP2 DUP2 DUP4 DIV EQ SWAP1 ISZERO OR ISZERO PUSH2 0x1A52 JUMPI PUSH2 0x2710 SWAP1 DIV PUSH1 0x1 PUSH1 0x1 PUSH1 0xA0 SHL SUB PUSH32 0x0 DUP2 AND DUP1 PUSH2 0x1F9C JUMPI POP PUSH32 0x0 AND DUP1 EXTCODESIZE ISZERO PUSH2 0x17D4 JUMPI PUSH1 0x0 SWAP1 PUSH1 0x24 PUSH1 0x40 MLOAD DUP1 SWAP5 DUP2 SWAP4 PUSH4 0x39650D1F PUSH1 0xE0 SHL DUP4 MSTORE ADDRESS PUSH1 0x4 DUP5 ADD MSTORE GAS CALL SWAP1 DUP2 PUSH2 0x1F84 JUMPI JUMPDEST POP PUSH2 0x1F58 JUMPI PUSH2 0x1F54 PUSH2 0x1F3B PUSH2 0x1DFE JUMP JUMPDEST PUSH1 0x40 MLOAD PUSH4 0xFB6A2B5 PUSH1 0xE2 SHL DUP2 MSTORE SWAP2 DUP3 SWAP2 PUSH1 0x4 DUP4 ADD PUSH2 0x1E3E JUMP JUMPDEST SUB SWAP1 REVERT JUMPDEST PUSH3 0x10000 PUSH3 0xFF0000 NOT PUSH1 0x6 SLOAD AND OR PUSH1 0x6 SSTORE PUSH1 0x0 DUP1 MLOAD PUSH1 0x20 PUSH2 0x2948 DUP4 CODECOPY DUP2 MLOAD SWAP2 MSTORE PUSH1 0x20 PUSH1 0x40 MLOAD PUSH1 0x1 DUP2 MSTORE LOG1 JUMP JUMPDEST PUSH8 0xFFFFFFFFFFFFFFFF DUP2 GT PUSH2 0x19C7 JUMPI PUSH1 0x40 MSTORE CODESIZE PUSH2 0x1F2B JUMP JUMPDEST PUSH2 0x1FC9 SWAP3 SWAP2 POP PUSH32 0x0 SWAP1 PUSH2 0x201E JUMP JUMPDEST PUSH2 0x1F58 JUMP JUMPDEST PUSH1 0x3 SLOAD PUSH8 0xDE0B6B3A7640000 SWAP1 DUP2 DUP2 MUL SWAP2 DUP2 DUP4 DIV EQ SWAP1 ISZERO OR ISZERO PUSH2 0x1A52 JUMPI PUSH2 0x2016 SWAP1 PUSH32 0x0 SWAP1 PUSH2 0x1DDE JUMP JUMPDEST PUSH1 0x5 SSTORE PUSH2 0x1E90 JUMP JUMPDEST PUSH1 0x40 MLOAD PUSH4 0xA9059CBB PUSH1 0xE0 SHL PUSH1 0x20 DUP3 ADD MSTORE PUSH1 0x1 PUSH1 0x1 PUSH1 0xA0 SHL SUB SWAP3 SWAP1 SWAP3 AND PUSH1 0x24 DUP4 ADD MSTORE PUSH1 0x44 DUP1 DUP4 ADD SWAP4 SWAP1 SWAP4 MSTORE SWAP2 DUP2 MSTORE PUSH2 0x1C99 SWAP2 PUSH2 0x205A PUSH1 0x64 DUP4 PUSH2 0x19A5 JUMP JUMPDEST PUSH2 0x19DD JUMP JUMPDEST SWAP2 SWAP1 DUP3 SUB SWAP2 DUP3 GT PUSH2 0x1A52 JUMPI JUMP JUMPDEST SWAP1 DUP2 PUSH1 0x20 SWAP2 SUB SLT PUSH2 0x17D4 JUMPI MLOAD PUSH1 0x1 PUSH1 0x1 PUSH1 0xA0 SHL SUB DUP2 AND DUP2 SUB PUSH2 0x17D4 JUMPI SWAP1 JUMP JUMPDEST PUSH1 0x3 SLOAD PUSH2 0x1F4 DUP1 DUP3 MUL SWAP1 DUP3 DUP3 DIV EQ DUP3 ISZERO OR ISZERO PUSH2 0x1A52 JUMPI PUSH2 0x20DC PUSH2 0x20B5 PUSH2 0x2710 SWAP4 DUP5 DUP1 SWAP5 DIV SWAP1 PUSH2 0x205F JUMP JUMPDEST PUSH32 0x0 SWAP1 PUSH2 0x1DCB JUMP JUMPDEST DIV SWAP1 PUSH1 0x5 SLOAD PUSH2 0xFFFF PUSH32 0x0 AND DUP3 ADD DUP1 DUP4 GT PUSH2 0x1A52 JUMPI PUSH2 0x2118 SWAP2 PUSH2 0x1DCB JUMP JUMPDEST DIV PUSH8 0xDE0B6B3A7640000 SWAP1 DUP2 DUP4 MUL SWAP2 DUP4 DUP4 DIV EQ DUP4 ISZERO OR ISZERO PUSH2 0x1A52 JUMPI PUSH2 0x213C SWAP2 PUSH2 0x1DDE JUMP JUMPDEST SWAP1 PUSH1 0x40 MLOAD SWAP2 PUSH4 0x112749FF PUSH1 0xE1 SHL DUP4 MSTORE PUSH1 0x4 DUP4 ADD MSTORE PUSH1 0x24 DUP3 ADD MSTORE PUSH1 0x20 DUP2 PUSH1 0x44 DUP2 PUSH1 0x0 ADDRESS GAS CALL PUSH1 0x0 SWAP2 DUP2 PUSH2 0x21DC JUMPI JUMPDEST POP PUSH2 0x2192 JUMPI PUSH2 0x1F54 PUSH2 0x2179 PUSH2 0x1DFE JUMP JUMPDEST PUSH1 0x40 MLOAD PUSH4 0xABC035F PUSH1 0xE4 SHL DUP2 MSTORE SWAP2 DUP3 SWAP2 PUSH1 0x4 DUP4 ADD PUSH2 0x1E3E JUMP JUMPDEST PUSH1 0x6 DUP1 SLOAD PUSH3 0x10000 PUSH1 0x1 PUSH1 0xB8 SHL SUB NOT AND PUSH1 0x18 SWAP3 SWAP1 SWAP3 SHL PUSH4 0x1000000 PUSH1 0x1 PUSH1 0xB8 SHL SUB AND SWAP2 SWAP1 SWAP2 OR PUSH3 0x20000 OR SWAP1 SSTORE PUSH1 0x40 MLOAD PUSH1 0x2 DUP2 MSTORE PUSH1 0x0 DUP1 MLOAD PUSH1 0x20 PUSH2 0x2948 DUP4 CODECOPY DUP2 MLOAD SWAP2 MSTORE SWAP1 PUSH1 0x20 SWAP1 LOG1 JUMP JUMPDEST PUSH2 0x21F5 SWAP2 SWAP3 POP PUSH1 0x20 RETURNDATASIZE DUP2 GT PUSH2 0x120E JUMPI PUSH2 0x1200 DUP2 DUP4 PUSH2 0x19A5 JUMP JUMPDEST SWAP1 CODESIZE PUSH2 0x2169 JUMP JUMPDEST SWAP1 DUP2 PUSH1 0x20 SWAP2 SUB SLT PUSH2 0x17D4 JUMPI MLOAD DUP1 ISZERO ISZERO DUP2 SUB PUSH2 0x17D4 JUMPI SWAP1 JUMP JUMPDEST PUSH1 0x6 SLOAD PUSH1 0x1 PUSH1 0x1 PUSH1 0xA0 SHL SUB SWAP1 PUSH1 0x18 SHR DUP2 AND DUP1 ISZERO PUSH2 0x24A9 JUMPI DUP2 PUSH1 0x2 SLOAD AND DUP1 ISZERO PUSH2 0x2464 JUMPI PUSH1 0x40 DUP1 MLOAD PUSH4 0x70A08231 PUSH1 0xE0 SHL DUP2 MSTORE ADDRESS PUSH1 0x4 DUP3 ADD MSTORE SWAP1 SWAP4 PUSH1 0x20 SWAP4 DUP5 DUP4 PUSH1 0x24 DUP2 DUP5 GAS STATICCALL SWAP3 DUP4 ISZERO PUSH2 0x242A JUMPI PUSH1 0x0 SWAP4 PUSH2 0x2435 JUMPI JUMPDEST POP PUSH3 0x278D00 PUSH32 0x0 DUP2 DUP2 MUL SWAP3 SWAP2 DUP2 ISZERO SWAP2 DUP5 DIV EQ OR ISZERO PUSH2 0x1A52 JUMPI DUP4 DUP7 SWAP2 PUSH2 0x22AD PUSH2 0x22E5 SWAP5 TIMESTAMP PUSH2 0x1A45 JUMP JUMPDEST DUP10 MLOAD PUSH4 0x95EA7B3 PUSH1 0xE0 SHL DUP2 MSTORE PUSH1 0x1 PUSH1 0x1 PUSH1 0xA0 SHL SUB SWAP1 SWAP9 AND PUSH1 0x4 DUP10 ADD MSTORE PUSH1 0x24 DUP9 ADD SWAP3 SWAP1 SWAP3 MSTORE SWAP1 SWAP6 SWAP3 DUP4 SWAP2 SWAP1 DUP3 SWAP1 PUSH1 0x0 SWAP1 DUP3 SWAP1 PUSH1 0x44 DUP3 ADD SWAP1 JUMP JUMPDEST SUB SWAP3 GAS CALL DUP1 ISZERO PUSH2 0x242A JUMPI PUSH2 0x240D JUMPI JUMPDEST POP PUSH1 0x0 DUP5 DUP1 DUP4 PUSH1 0x2 SLOAD AND PUSH1 0x84 DUP6 PUSH1 0x6 SLOAD PUSH1 0x18 SHR AND DUP11 MLOAD SWAP6 DUP7 SWAP4 DUP5 SWAP3 PUSH4 0xAA393F3 PUSH1 0xE0 SHL DUP5 MSTORE PUSH1 0x4 DUP5 ADD MSTORE DUP10 PUSH1 0x24 DUP5 ADD MSTORE DUP11 PUSH1 0x44 DUP5 ADD MSTORE DUP9 PUSH32 0x0 AND PUSH1 0x64 DUP5 ADD MSTORE GAS CALL SWAP2 DUP3 PUSH2 0x23E4 JUMPI JUMPDEST POP POP PUSH2 0x2385 JUMPI PUSH2 0x1F54 DUP6 PUSH2 0x236D PUSH2 0x1DFE JUMP JUMPDEST SWAP1 MLOAD PUSH4 0x1953EA3 PUSH1 0xE1 SHL DUP2 MSTORE SWAP2 DUP3 SWAP2 PUSH1 0x4 DUP4 ADD PUSH2 0x1E3E JUMP JUMPDEST SWAP2 PUSH3 0x30000 SWAP2 PUSH32 0xE3AFAE9EC63E6F2E914C17BAB8493B603680A72D9E6DFACF25AC6A4806555D41 DUP7 PUSH1 0x0 DUP1 MLOAD PUSH1 0x20 PUSH2 0x2948 DUP4 CODECOPY DUP2 MLOAD SWAP2 MSTORE SWAP8 SWAP6 PUSH1 0x6 SLOAD SWAP5 DUP3 MLOAD SWAP5 DUP6 MSTORE DUP9 DUP6 ADD MSTORE DUP5 PUSH1 0x18 SHR AND SWAP3 LOG2 PUSH3 0xFF0000 NOT AND OR PUSH1 0x6 SSTORE MLOAD PUSH1 0x3 DUP2 MSTORE LOG1 JUMP JUMPDEST DUP2 RETURNDATASIZE DUP4 GT PUSH2 0x2406 JUMPI JUMPDEST PUSH2 0x23F7 DUP2 DUP4 PUSH2 0x19A5 JUMP JUMPDEST DUP2 ADD SUB SLT PUSH2 0x17D4 JUMPI DUP5 CODESIZE PUSH2 0x235B JUMP JUMPDEST POP RETURNDATASIZE PUSH2 0x23ED JUMP JUMPDEST PUSH2 0x2423 SWAP1 DUP6 RETURNDATASIZE DUP8 GT PUSH2 0x1588 JUMPI PUSH2 0x1579 DUP2 DUP4 PUSH2 0x19A5 JUMP JUMPDEST POP CODESIZE PUSH2 0x22F4 JUMP JUMPDEST DUP7 MLOAD RETURNDATASIZE PUSH1 0x0 DUP3 RETURNDATACOPY RETURNDATASIZE SWAP1 REVERT JUMPDEST SWAP1 SWAP3 DUP6 DUP3 DUP2 RETURNDATASIZE DUP4 GT PUSH2 0x245D JUMPI JUMPDEST PUSH2 0x244C DUP2 DUP4 PUSH2 0x19A5 JUMP JUMPDEST DUP2 ADD SUB SLT PUSH2 0x73B JUMPI POP MLOAD SWAP2 CODESIZE PUSH2 0x2266 JUMP JUMPDEST POP RETURNDATASIZE PUSH2 0x2442 JUMP JUMPDEST PUSH1 0x40 MLOAD PUSH3 0x461BCD PUSH1 0xE5 SHL DUP2 MSTORE PUSH1 0x20 PUSH1 0x4 DUP3 ADD MSTORE PUSH1 0x18 PUSH1 0x24 DUP3 ADD MSTORE PUSH32 0x4C50204C6F636B6572206E6F7420636F6E666967757265640000000000000000 PUSH1 0x44 DUP3 ADD MSTORE PUSH1 0x64 SWAP1 REVERT JUMPDEST PUSH1 0x40 MLOAD PUSH3 0x461BCD PUSH1 0xE5 SHL DUP2 MSTORE PUSH1 0x20 PUSH1 0x4 DUP3 ADD MSTORE PUSH1 0x10 PUSH1 0x24 DUP3 ADD MSTORE PUSH16 0x131408151BDAD95B881B9BDD081CD95D PUSH1 0x82 SHL PUSH1 0x44 DUP3 ADD MSTORE PUSH1 0x64 SWAP1 REVERT JUMPDEST PUSH1 0x3 SLOAD PUSH2 0x1F4 DUP1 DUP3 MUL SWAP1 DUP3 DUP3 DIV EQ DUP3 ISZERO OR ISZERO PUSH2 0x1A52 JUMPI PUSH2 0x250A PUSH2 0x253C SWAP3 PUSH2 0x2710 DUP1 SWAP4 DIV SWAP1 PUSH2 0x205F JUMP JUMPDEST SWAP1 PUSH2 0x2535 PUSH32 0x0 DUP4 PUSH2 0x1DCB JUMP JUMPDEST DIV SWAP1 PUSH2 0x205F JUMP JUMPDEST PUSH1 0x1 PUSH1 0x1 PUSH1 0xA0 SHL SUB SWAP1 PUSH32 0x0 DUP3 DUP2 AND PUSH2 0x26A7 JUMPI JUMPDEST POP PUSH32 0x0 DUP3 AND DUP1 PUSH2 0x2671 JUMPI POP PUSH1 0x0 DUP1 DUP1 DUP1 SWAP4 PUSH32 0x0 GAS CALL PUSH2 0x25C9 PUSH2 0x1DFE JUMP JUMPDEST POP ISZERO PUSH2 0x265F JUMPI PUSH3 0x40001 SWAP1 JUMPDEST PUSH1 0x3 PUSH1 0xA0 SHL PUSH1 0xFF PUSH1 0xA0 SHL NOT PUSH1 0x2 SLOAD AND OR PUSH1 0x2 SSTORE PUSH32 0x6E4389167D2AFBD1CCB4797EA87E29958ADBF74CD16BA077A2EE5AB8460784E5 PUSH1 0x80 PUSH1 0x6 SLOAD SWAP3 PUSH1 0x5 SLOAD SWAP1 PUSH1 0x3 SLOAD PUSH1 0x40 MLOAD SWAP3 DUP4 MSTORE PUSH1 0x20 DUP4 ADD MSTORE PUSH1 0x1 PUSH1 0xFF NOT DUP7 AND OR PUSH1 0x18 SHR AND PUSH1 0x40 DUP3 ADD MSTORE PUSH1 0x0 PUSH1 0x60 DUP3 ADD MSTORE LOG1 PUSH3 0xFF00FF NOT AND OR PUSH1 0x6 SSTORE PUSH1 0x0 DUP1 MLOAD PUSH1 0x20 PUSH2 0x2948 DUP4 CODECOPY DUP2 MLOAD SWAP2 MSTORE PUSH1 0x20 PUSH1 0x40 MLOAD PUSH1 0x4 DUP2 MSTORE LOG1 JUMP JUMPDEST PUSH1 0x40 MLOAD PUSH4 0x12171D83 PUSH1 0xE3 SHL DUP2 MSTORE PUSH1 0x4 SWAP1 REVERT JUMPDEST PUSH3 0x40001 SWAP3 SWAP2 PUSH2 0x26A2 SWAP2 PUSH32 0x0 SWAP1 PUSH2 0x201E JUMP JUMPDEST PUSH2 0x25D5 JUMP JUMPDEST PUSH1 0x40 MLOAD PUSH4 0x70A08231 PUSH1 0xE0 SHL DUP2 MSTORE ADDRESS PUSH1 0x4 DUP3 ADD MSTORE PUSH32 0x0 DUP5 AND SWAP2 SWAP1 PUSH1 0x20 DUP2 PUSH1 0x24 DUP2 DUP7 GAS STATICCALL DUP1 ISZERO PUSH2 0x1A39 JUMPI PUSH1 0x0 SWAP1 PUSH2 0x2741 JUMPI JUMPDEST PUSH2 0x2722 SWAP2 POP PUSH32 0x0 SWAP1 PUSH2 0x205F JUMP JUMPDEST SWAP1 DUP2 PUSH2 0x2730 JUMPI JUMPDEST POP POP PUSH2 0x256E JUMP JUMPDEST PUSH2 0x2739 SWAP3 PUSH2 0x201E JUMP JUMPDEST CODESIZE DUP1 DUP1 PUSH2 0x2729 JUMP JUMPDEST PUSH1 0x20 DUP3 RETURNDATASIZE DUP3 GT PUSH2 0x276C JUMPI JUMPDEST DUP2 PUSH2 0x2759 PUSH1 0x20 SWAP4 DUP4 PUSH2 0x19A5 JUMP JUMPDEST DUP2 ADD SUB SLT PUSH2 0x73B JUMPI POP PUSH2 0x2722 SWAP1 MLOAD PUSH2 0x26F6 JUMP JUMPDEST RETURNDATASIZE SWAP2 POP PUSH2 0x274C JUMP JUMPDEST SWAP1 DUP2 PUSH1 0x60 SWAP2 SUB SLT PUSH2 0x17D4 JUMPI DUP1 MLOAD SWAP2 PUSH1 0x40 PUSH1 0x20 DUP4 ADD MLOAD SWAP3 ADD MLOAD SWAP1 JUMP JUMPDEST PUSH1 0x2 SLOAD PUSH1 0xFF DUP2 PUSH1 0xA0 SHR AND PUSH1 0x6 DUP2 LT ISZERO PUSH2 0x17A8 JUMPI DUP1 ISZERO DUP1 PUSH2 0x2812 JUMPI JUMPDEST ISZERO PUSH2 0x27C6 JUMPI POP POP PUSH1 0x2 DUP1 SLOAD PUSH1 0xFF PUSH1 0xA0 SHL NOT AND PUSH1 0x1 PUSH1 0xA0 SHL OR SWAP1 SSTORE JUMP JUMPDEST PUSH1 0x1 EQ DUP1 PUSH2 0x27E8 JUMPI JUMPDEST PUSH2 0x27D6 JUMPI POP JUMP JUMPDEST PUSH1 0xFF PUSH1 0xA0 SHL NOT AND PUSH1 0x1 PUSH1 0xA1 SHL OR PUSH1 0x2 SSTORE JUMP JUMPDEST POP PUSH32 0x0 TIMESTAMP LT ISZERO PUSH2 0x27CF JUMP JUMPDEST POP PUSH32 0x0 TIMESTAMP LT ISZERO PUSH2 0x27AA JUMP JUMPDEST PUSH1 0xFF PUSH1 0x2 SLOAD PUSH1 0xA0 SHR AND PUSH1 0x6 DUP2 LT ISZERO PUSH2 0x17A8 JUMPI DUP1 ISZERO DUP1 PUSH2 0x28A2 JUMPI JUMPDEST ISZERO PUSH2 0x2861 JUMPI POP PUSH1 0x1 SWAP1 JUMP JUMPDEST PUSH1 0x1 DUP2 EQ DUP1 PUSH2 0x2878 JUMPI JUMPDEST PUSH2 0x2872 JUMPI SWAP1 JUMP JUMPDEST POP PUSH1 0x2 SWAP1 JUMP JUMPDEST POP PUSH32 0x0 TIMESTAMP LT ISZERO PUSH2 0x286B JUMP JUMPDEST POP PUSH32 0x0 TIMESTAMP LT ISZERO PUSH2 0x2856 JUMP JUMPDEST PUSH1 0xFF PUSH1 0x2 SLOAD PUSH1 0xA0 SHR AND PUSH1 0x6 DUP2 LT ISZERO PUSH2 0x17A8 JUMPI PUSH1 0x3 SUB PUSH2 0x2941 JUMPI PUSH1 0x3 SLOAD DUP1 ISZERO PUSH2 0x293A JUMPI PUSH2 0x2937 SWAP2 PUSH1 0x1 DUP1 PUSH1 0xA0 SHL SUB AND PUSH1 0x0 MSTORE PUSH1 0x7 PUSH1 0x20 MSTORE PUSH2 0x2932 PUSH1 0x40 PUSH1 0x0 KECCAK256 SLOAD PUSH32 0x0 SWAP1 PUSH2 0x1DCB JUMP JUMPDEST PUSH2 0x1DDE JUMP JUMPDEST SWAP1 JUMP JUMPDEST POP POP PUSH1 0x0 SWAP1 JUMP JUMPDEST POP PUSH1 0x0 SWAP1 JUMP INVALID CALLDATALOAD SWAP16 PUSH22 0x319D3ABF464A20742906C9B06C2E0CF50ADC178C5F23 0xEB PREVRANDAO 0xE3 0xE8 ORIGIN KECCAK256 0xB8 LOG2 PUSH5 0x6970667358 0x22 SLT KECCAK256 DUP12 0xA7 0xB6 PUSH1 0xD9 0x1E SIGNEXTEND DUP11 0xA5 PUSH12 0x61A6CC0D0DB6012BFCA960C8 0xC DUP9 0xB3 BLOCKHASH EQ 0xE7 SHL PUSH15 0x3D7264736F6C634300081400330000 "},"methodIdentifiers":{"ADMIN_ROLE()":"75b238fc","DEFAULT_ADMIN_ROLE()":"a217fddf","__addLiquidityExternal(uint256,uint256)":"224e93fe","adminAddLiquidity()":"af1a9cab","adminDistributeFee()":"9e014fd5","adminDistributeFunds()":"00c3702d","adminLockLP()":"5d49dff4","cancel()":"ea8a1af0","claimTokens()":"48c54b9d","contribute()":"d7bb99ba","contributeERC20(uint256)":"8160059a","contributions(address)":"42e94c90","dexId()":"220c0956","dexRouter()":"0758d924","endTime()":"3197cbb6","feeSplitter()":"6052970c","finalTokenPrice()":"1cc64544","finalize()":"4bb278f3","finalizeStep()":"2c51c7e0","getFinalPrice()":"9ce05df7","getRoleAdmin(bytes32)":"248a9ca3","getStatus()":"4e69d560","getUserAllocation(address)":"b920ade2","getUserContribution(address)":"bb8b2b47","grantRole(bytes32,address)":"2f2ff15d","hasClaimed(address)":"73b2e80e","hasRole(bytes32,address)":"91d14854","isFinalized()":"8d4e4083","isPaused()":"b187bd26","liquidityPercent()":"b0683755","listingPremiumBps()":"0b7c1ae1","lpLockMonths()":"8bcd8515","lpLocker()":"03fc2013","lpLockerAddress()":"89dda6a0","lpTokenAddress()":"f5ae497a","maxContribution()":"8d3d6576","minContribution()":"aaffadf3","participantCount()":"362f04c0","pause()":"8456cb59","paymentToken()":"3013ce29","projectOwner()":"a4475ce4","projectToken()":"4b60ce77","refund()":"590e1ae3","renounceRole(bytes32,address)":"36568abe","revokeRole(bytes32,address)":"d547741f","setLPLocker(address)":"b524f87b","softcap()":"f89be593","startTime()":"78e97925","status()":"200d2ed2","supportsInterface(bytes4)":"01ffc9a7","teamVesting()":"619f3d6c","tokensForSale()":"12aef8c3","totalRaised()":"c5c4744c","unpause()":"3f4ba83a"}}}}}