{"contracts/token/TokenFactory.sol":{"TokenFactory":{"abi":[{"inputs":[{"internalType":"uint256","name":"initialCreationFee_","type":"uint256"},{"internalType":"uint256","name":"initialFairlaunchFee_","type":"uint256"},{"internalType":"address payable","name":"treasuryWallet_","type":"address"},{"internalType":"address","name":"initialOwner_","type":"address"}],"stateMutability":"nonpayable","type":"constructor"},{"inputs":[{"internalType":"address","name":"owner","type":"address"}],"name":"OwnableInvalidOwner","type":"error"},{"inputs":[{"internalType":"address","name":"account","type":"address"}],"name":"OwnableUnauthorizedAccount","type":"error"},{"inputs":[],"name":"ReentrancyGuardReentrantCall","type":"error"},{"anonymous":false,"inputs":[{"indexed":false,"internalType":"uint256","name":"oldFee","type":"uint256"},{"indexed":false,"internalType":"uint256","name":"newFee","type":"uint256"}],"name":"CreationFeeUpdated","type":"event"},{"anonymous":false,"inputs":[{"indexed":false,"internalType":"uint256","name":"oldFee","type":"uint256"},{"indexed":false,"internalType":"uint256","name":"newFee","type":"uint256"}],"name":"FairlaunchFeeUpdated","type":"event"},{"anonymous":false,"inputs":[{"indexed":true,"internalType":"address","name":"to","type":"address"},{"indexed":false,"internalType":"uint256","name":"amount","type":"uint256"}],"name":"FeesWithdrawn","type":"event"},{"anonymous":false,"inputs":[{"indexed":true,"internalType":"address","name":"previousOwner","type":"address"},{"indexed":true,"internalType":"address","name":"newOwner","type":"address"}],"name":"OwnershipTransferred","type":"event"},{"anonymous":false,"inputs":[{"indexed":true,"internalType":"address","name":"tokenAddress","type":"address"},{"indexed":true,"internalType":"address","name":"creator","type":"address"},{"indexed":false,"internalType":"string","name":"name","type":"string"},{"indexed":false,"internalType":"string","name":"symbol","type":"string"},{"indexed":false,"internalType":"uint8","name":"decimals","type":"uint8"},{"indexed":false,"internalType":"uint256","name":"totalSupply","type":"uint256"},{"indexed":false,"internalType":"uint256","name":"feePaid","type":"uint256"},{"indexed":false,"internalType":"uint256","name":"timestamp","type":"uint256"}],"name":"TokenCreated","type":"event"},{"anonymous":false,"inputs":[{"indexed":true,"internalType":"address","name":"oldWallet","type":"address"},{"indexed":true,"internalType":"address","name":"newWallet","type":"address"}],"name":"TreasuryWalletUpdated","type":"event"},{"inputs":[{"internalType":"uint256","name":"","type":"uint256"}],"name":"allTokens","outputs":[{"internalType":"address","name":"","type":"address"}],"stateMutability":"view","type":"function"},{"inputs":[{"internalType":"string","name":"name_","type":"string"},{"internalType":"string","name":"symbol_","type":"string"},{"internalType":"uint8","name":"decimals_","type":"uint8"},{"internalType":"uint256","name":"totalSupply_","type":"uint256"},{"internalType":"uint256[3]","name":"antiBotConfig_","type":"uint256[3]"}],"name":"createFairlaunchToken","outputs":[{"internalType":"address","name":"tokenAddress","type":"address"}],"stateMutability":"payable","type":"function"},{"inputs":[{"internalType":"string","name":"name_","type":"string"},{"internalType":"string","name":"symbol_","type":"string"},{"internalType":"uint8","name":"decimals_","type":"uint8"},{"internalType":"uint256","name":"totalSupply_","type":"uint256"},{"internalType":"uint256[3]","name":"antiBotConfig_","type":"uint256[3]"}],"name":"createToken","outputs":[{"internalType":"address","name":"tokenAddress","type":"address"}],"stateMutability":"payable","type":"function"},{"inputs":[],"name":"creationFee","outputs":[{"internalType":"uint256","name":"","type":"uint256"}],"stateMutability":"view","type":"function"},{"inputs":[{"internalType":"address","name":"","type":"address"},{"internalType":"uint256","name":"","type":"uint256"}],"name":"creatorTokens","outputs":[{"internalType":"address","name":"","type":"address"}],"stateMutability":"view","type":"function"},{"inputs":[{"internalType":"address payable","name":"to_","type":"address"}],"name":"emergencyWithdraw","outputs":[],"stateMutability":"nonpayable","type":"function"},{"inputs":[],"name":"fairlaunchFee","outputs":[{"internalType":"uint256","name":"","type":"uint256"}],"stateMutability":"view","type":"function"},{"inputs":[{"internalType":"address","name":"creator_","type":"address"}],"name":"getCreatorTokens","outputs":[{"internalType":"address[]","name":"","type":"address[]"}],"stateMutability":"view","type":"function"},{"inputs":[{"internalType":"uint256","name":"index_","type":"uint256"}],"name":"getTokenAtIndex","outputs":[{"internalType":"address","name":"","type":"address"}],"stateMutability":"view","type":"function"},{"inputs":[],"name":"getTotalTokensCreated","outputs":[{"internalType":"uint256","name":"","type":"uint256"}],"stateMutability":"view","type":"function"},{"inputs":[{"internalType":"address","name":"","type":"address"}],"name":"isFromFactory","outputs":[{"internalType":"bool","name":"","type":"bool"}],"stateMutability":"view","type":"function"},{"inputs":[],"name":"owner","outputs":[{"internalType":"address","name":"","type":"address"}],"stateMutability":"view","type":"function"},{"inputs":[],"name":"renounceOwnership","outputs":[],"stateMutability":"nonpayable","type":"function"},{"inputs":[{"internalType":"address","name":"","type":"address"}],"name":"tokenInfo","outputs":[{"internalType":"address","name":"creator","type":"address"},{"internalType":"string","name":"name","type":"string"},{"internalType":"string","name":"symbol","type":"string"},{"internalType":"uint8","name":"decimals","type":"uint8"},{"internalType":"uint256","name":"totalSupply","type":"uint256"},{"internalType":"uint256","name":"createdAt","type":"uint256"},{"internalType":"uint256","name":"feePaid","type":"uint256"}],"stateMutability":"view","type":"function"},{"inputs":[{"internalType":"address","name":"newOwner","type":"address"}],"name":"transferOwnership","outputs":[],"stateMutability":"nonpayable","type":"function"},{"inputs":[],"name":"treasuryWallet","outputs":[{"internalType":"address payable","name":"","type":"address"}],"stateMutability":"view","type":"function"},{"inputs":[{"internalType":"uint256","name":"newFee_","type":"uint256"}],"name":"updateCreationFee","outputs":[],"stateMutability":"nonpayable","type":"function"},{"inputs":[{"internalType":"address payable","name":"newTreasury_","type":"address"}],"name":"updateTreasuryWallet","outputs":[],"stateMutability":"nonpayable","type":"function"},{"stateMutability":"payable","type":"receive"}],"evm":{"bytecode":{"linkReferences":{},"object":"60803461013657601f612c0738819003918201601f19168301916001600160401b0383118484101761013b57808492608094604052833981010312610136578051602082015160408301516001600160a01b0380821694909391859003610136576060015183811680910361013657801561011d576000549060018060a01b031994818684161760005560405192167f8be0079c531659141344cd1fd0a4f28419497f9722a3daafe3b4186f6b6457e0600080a36001805584156100db57506002556003556004541617600455604051612ab590816101528239f35b62461bcd60e51b815260206004820152601f60248201527f54726561737572792063616e6e6f74206265207a65726f2061646472657373006044820152606490fd5b604051631e4fbdf760e01b815260006004820152602490fd5b600080fd5b634e487b7160e01b600052604160045260246000fdfe6080604081815260048036101562000023575b50505036156200002157600080fd5b005b600092833560e01c9081631d66d6901462000880575080632e2ecd8d146200083e5780633bff3c9f14620007c25780634626402b1462000799578063634282af146200076a5780636fa2379514620007125780636ff1c9bc1462000602578063715018a614620005a457806374abfa5414620004f0578063809d458d146200042f5780638da5cb5b146200040557806397988dce1462000384578063aa4dd4dd1462000363578063d1ea066a14620002d2578063db3fa4cc146200026f578063dce0b4e4146200024a578063f2fde38b14620001bd5763f5dab71103620000125734620001b9576020366003190112620001b9576001600160a01b03928290846200012d6200089e565b1681526008602052209283541691620001496001850162000ab0565b93620001586002820162000ab0565b91620001a060ff60038401541694830154916006600585015494015494620001928251998a998a5260e060208b015260e08a019062000b62565b918883039089015262000b62565b936060860152608085015260a084015260c08301520390f35b8280fd5b5034620001b9576020366003190112620001b957620001db6200089e565b90620001e662000ba4565b6001600160a01b039182169283156200023457505082546001600160a01b0319811683178455167f8be0079c531659141344cd1fd0a4f28419497f9722a3daafe3b4186f6b6457e08380a380f35b51631e4fbdf760e01b8152908101849052602490fd5b5050346200026b57816003193601126200026b576020906002549051908152f35b5080fd5b5050346200026b57806003193601126200026b576200028d6200089e565b6001600160a01b039081168352600660205281832080546024359490851015620002cf5750602093620002c09162000a5a565b92905490519260031b1c168152f35b80fd5b50620002de366200095d565b93620002ec93919362000bd1565b6002549586341062000320576020886200030b89898989898962000c2a565b6001805590516001600160a01b039091168152f35b606490602089519162461bcd60e51b8352820152601960248201527f496e73756666696369656e74206372656174696f6e20666565000000000000006044820152fd5b5050346200026b57816003193601126200026b576020906003549051908152f35b508234620002cf576020366003190112620002cf5750803590600554821015620003cc57602083620003b68462000a0c565b905491519160018060a01b039160031b1c168152f35b606490602084519162461bcd60e51b83528201526013602482015272496e646578206f7574206f6620626f756e647360681b6044820152fd5b5050346200026b57816003193601126200026b57905490516001600160a01b039091168152602090f35b509034620001b9576020366003190112620001b9576001600160a01b03823581811693919290849003620004ec576200046762000ba4565b8315620004a9575080546001600160a01b031981168417909155167fa982575859d7ad2f390dc12b23f7dab8bbda047f9d0140ac68344b27bf34bfb48380a380f35b906020606492519162461bcd60e51b8352820152601f60248201527f54726561737572792063616e6e6f74206265207a65726f2061646472657373006044820152fd5b8480fd5b5050346200026b57602080600319360112620001b9576001600160a01b0392836200051a6200089e565b1681526006825282812091835190818185549182815201908195855282852090855b8181106200058d575050508262000555910383620008ba565b8451948186019282875251809352850193925b828110620005765785850386f35b835187168552938101939281019260010162000568565b82548a16845292840192600192830192016200053c565b8334620002cf5780600319360112620002cf57620005c162000ba4565b80546001600160a01b03198116825581906001600160a01b03167f8be0079c531659141344cd1fd0a4f28419497f9722a3daafe3b4186f6b6457e08280a380f35b5034620001b9576020366003190112620001b95780356001600160a01b03811692908390036200070e576200063662000ba4565b8215620006cb5747918262000649578480f35b8480808086885af16200065b62000bf5565b50156200069557507fc0819c13be868895eb93e40eaceb96de976442fa1d404e5c55f14bb65a8c489a9160209151908152a2388080808480f35b6020606492519162461bcd60e51b8352820152601160248201527015da5d1a191c985dd85b0819985a5b1959607a1b6044820152fd5b906020606492519162461bcd60e51b8352820152602060248201527f526563697069656e742063616e6e6f74206265207a65726f20616464726573736044820152fd5b8380fd5b509034620001b9576020366003190112620001b9577f5de302eeb1c80d4fb0c0953b692353f09ddf431411b8eb2034d5e8576956191291356200075462000ba4565b600254908060025582519182526020820152a180f35b5034620001b9576020366003190112620001b9573591600554831015620002cf5750620003b660209262000a0c565b5034620001b95782600319360112620001b9575490516001600160a01b03909116815260209150f35b50620007ce366200095d565b93620007dc93919362000bd1565b60035495863410620007fb576020886200030b89898989898962000c2a565b606490602089519162461bcd60e51b8352820152601b60248201527f496e73756666696369656e7420666169726c61756e63682066656500000000006044820152fd5b5050346200026b5760203660031901126200026b5760209160ff9082906001600160a01b036200086d6200089e565b1681526007855220541690519015158152f35b8490346200026b57816003193601126200026b576020906005548152f35b600435906001600160a01b0382168203620008b557565b600080fd5b90601f8019910116810190811067ffffffffffffffff821117620008dd57604052565b634e487b7160e01b600052604160045260246000fd5b67ffffffffffffffff8111620008dd57601f01601f191660200190565b81601f82011215620008b5578035906200092a82620008f3565b926200093a6040519485620008ba565b82845260208383010111620008b557816000926020809301838601378301015290565b9060e0600319830112620008b55767ffffffffffffffff600435818111620008b557836200098e9160040162000910565b92602435828111620008b55781620009a99160040162000910565b9260443560ff81168103620008b55792606435928060a31215620008b557604051916060830190811183821017620008dd576040528160e4918211620008b5576084905b828210620009fb5750505090565b8135815260209182019101620009ed565b60055481101562000a445760056000527f036b6384b5eca791c62761152d0c79bb0604c104a5fb6f4eb0703f3154bb3db00190600090565b634e487b7160e01b600052603260045260246000fd5b805482101562000a445760005260206000200190600090565b90600182811c9216801562000aa5575b602083101462000a8f57565b634e487b7160e01b600052602260045260246000fd5b91607f169162000a83565b906040519182600082549262000ac68462000a73565b90818452600194858116908160001462000b3d575060011462000af6575b505062000af492500383620008ba565b565b9093915060005260209081600020936000915b81831062000b2457505062000af49350820101388062000ae4565b8554888401850152948501948794509183019162000b09565b91505062000af494506020925060ff191682840152151560051b820101388062000ae4565b919082519283825260005b84811062000b8f575050826000602080949584010152601f8019910116010190565b60208183018101518483018201520162000b6d565b6000546001600160a01b0316330362000bb957565b60405163118cdaa760e01b8152336004820152602490fd5b60026001541462000be3576002600155565b604051633ee5aeb560e01b8152600490fd5b3d1562000c25573d9062000c0982620008f3565b9162000c196040519384620008ba565b82523d6000602084013e565b606090565b94939291928551156200129657815115620012585782156200120757604051906117ad908183019183831067ffffffffffffffff841117620008dd5790839291620012d3843960a062000c9862000c8961010080865285018c62000b62565b84810360208601528762000b62565b9260ff89166040820152876060820152336080820152016000905b60038210620011ec5750505003906000f08015620011e05760018060a01b031694600554680100000000000000009081811015620008dd5780600162000cfd920160055562000a0c565b81549060031b9089821b9160018060a01b03901b1916179055336000526006602052604060002090815490811015620008dd5762000d419160018201815562000a5a565b81546001600160a01b0360039290921b91821b19169088901b17905560008681526007602052604090819020805460ff191660011790555160e0810167ffffffffffffffff811182821017620008dd57604052338152602081019082825283604082015260ff861660608201528460808201524260a08201528660c082015287600052600860205260406000209160018060a01b038251166bffffffffffffffffffffffff60a01b8454161783555180519067ffffffffffffffff8211620008dd57819062000e14600186015462000a73565b601f811162001188575b50602090601f8311600114620011115760009262001105575b50508160011b916000199060031b1c19161760018301555b604081015180519067ffffffffffffffff8211620008dd5762000e76600285015462000a73565b601f8111620010b9575b50602090601f83116001146200103f5791806006949260c09460009262001033575b50508160011b916000199060031b1c19161760028501555b6003840160ff60608301511660ff198254161790556080810151600485015560a08101516005850155015191015560008080808860018060a01b03600454165af162000f0562000bf5565b501562000ff857859260ff62000f5c7f5720881da7c98b517e7cd64b73b5c859ab835d35854cd22c8f5532cc28b3e92b9462000f4d6040519560c0875260c087019062000b62565b90858203602087015262000b62565b9516604083015260608201528460808201524260a08201528033940390a380341162000f86575090565b340334811162000fe257600080808093335af162000fa362000bf5565b501562000fad5790565b60405162461bcd60e51b815260206004820152600d60248201526c1499599d5b990819985a5b1959609a1b6044820152606490fd5b634e487b7160e01b600052601160045260246000fd5b60405162461bcd60e51b8152602060048201526013602482015272119959481d1c985b9cd9995c8819985a5b1959606a1b6044820152606490fd5b01519050388062000ea2565b906002850160005260206000209160005b601f1985168110620010a05750926006949260019260c09583601f1981161062001086575b505050811b01600285015562000eba565b015160001960f88460031b161c1916905538808062001075565b9192602060018192868501518155019401920162001050565b600285016000526020600020601f840160051c810160208510620010fd575b601f830160051c82018110620010f057505062000e80565b60008155600101620010d8565b5080620010d8565b01519050388062000e37565b9250600185016000526020600020906000935b601f19841685106200116c576001945083601f1981161062001152575b505050811b01600183015562000e4f565b015160001960f88460031b161c1916905538808062001141565b8181015183556020948501946001909301929091019062001124565b909150600185016000526020600020601f840160051c810160208510620011d8575b90849392915b601f830160051c82018110620011c857505062000e1e565b60008155859450600101620011b0565b5080620011aa565b6040513d6000823e3d90fd5b82518152859450602092830192600192909201910162000cb3565b60405162461bcd60e51b815260206004820152602360248201527f546f74616c20737570706c79206d75737420626520677265617465722074686160448201526206e20360ec1b6064820152608490fd5b60405162461bcd60e51b815260206004820152601660248201527553796d626f6c2063616e6e6f7420626520656d70747960501b6044820152606490fd5b60405162461bcd60e51b81526020600482015260146024820152734e616d652063616e6e6f7420626520656d70747960601b6044820152606490fdfe604060a08152346200072957620017ad803803806200001e816200072e565b928339810190610100918282820312620007295781516001600160401b0381116200072957816200005191840162000754565b60208301519091906001600160401b0381116200072957816200007691850162000754565b91858401519060ff82168203620007295760608501516080860151969093906001600160a01b038816880362000729578160bf880112156200072957885196606088016001600160401b03811189821017620005d1578a5287918101928311620007295760a001905b8282106200071857505081519190506001600160401b038211620005d15760035490600182811c921680156200070d575b6020831014620006f75781601f84931162000682575b50602090601f8311600114620005f357600092620005e7575b50508160011b916000199060031b1c1916176003555b82516001600160401b038111620005d1576004938454600181811c91168015620005c6575b6020821014620005b1579081601f84931162000559575b50602090601f8311600114620004ee57600092620004e2575b50508160011b916000199060031b1c19161783555b6001600160a01b03851615620004cb57600580546001600160a01b038781166001600160a01b031983168117909355167f8be0079c531659141344cd1fd0a4f28419497f9722a3daafe3b4186f6b6457e0600080a381156200047c5760805260025481810180911162000467576002556001600160a01b0384166000818152602081815287822080548501905587518481528895949392917fddf252ad1be2c89b69c2b068fc378daa952ba7f163c4a11628f55a4df523b3ef91a3835180158015809162000459575b80156200044c575b620002e6575b848760018060a01b0316600052600b6020528060002060ff19906001828254161790553060005260018260002091825416179055600060095551610f9c9081620007f18239608051816107c40152f35b6005805460ff60a01b1916600160a01b179055620003de575b5060208401805192836200034e575b505050506060906000805160206200178d83398151915292015180600855600654906007548651928352602083015285820152a138828180808062000296565b9091929350612710809411620003905750926060926200038287936000805160206200178d833981519152965190620007c6565b04600755928192386200030e565b608490602088519162461bcd60e51b8352820152602260248201527f4d61782077616c6c65742070657263656e74206d757374206265203c3d203130604482015261302560f01b6064820152fd5b90919250612710809111620004095790859291620003fe855183620007c6565b0460065538620002ff565b855162461bcd60e51b8152602081850152601e60248201527f4d61782074782070657263656e74206d757374206265203c3d203130302500006044820152606490fd5b5084860151151562000290565b506020860151151562000288565b601183634e487b7160e01b6000525260246000fd5b855162461bcd60e51b8152602081850152602360248201527f546f74616c20737570706c79206d75737420626520677265617465722074686160448201526206e20360ec1b6064820152608490fd5b8551631e4fbdf760e01b8152600081850152602490fd5b015190503880620001aa565b6000878152602081209350601f198516905b81811062000540575090846001959493921062000526575b505050811b018355620001bf565b015160001960f88460031b161c1916905538808062000518565b9293602060018192878601518155019501930162000500565b909150856000526020600020601f840160051c81019160208510620005a6575b90601f859493920160051c01905b81811062000596575062000191565b6000815584935060010162000587565b909150819062000579565b602286634e487b7160e01b6000525260246000fd5b90607f16906200017a565b634e487b7160e01b600052604160045260246000fd5b0151905038806200013f565b6003600090815293507fc2575a0e9e593c00f959f8c92f12db2869c3395a3b0502d05e2516446f71f85b91905b601f198416851062000666576001945083601f198116106200064c575b505050811b0160035562000155565b015160001960f88460031b161c191690553880806200063d565b8181015183556020948501946001909301929091019062000620565b60036000529091507fc2575a0e9e593c00f959f8c92f12db2869c3395a3b0502d05e2516446f71f85b601f840160051c81019160208510620006ec575b90601f859493920160051c01905b818110620006dc575062000126565b60008155849350600101620006cd565b9091508190620006bf565b634e487b7160e01b600052602260045260246000fd5b91607f169162000110565b8151815260209182019101620000df565b600080fd5b6040519190601f01601f191682016001600160401b03811183821017620005d157604052565b919080601f84011215620007295782516001600160401b038111620005d1576020906200078a601f8201601f191683016200072e565b92818452828287010111620007295760005b818110620007b257508260009394955001015290565b85810183015184820184015282016200079c565b81810292918115918404141715620007da57565b634e487b7160e01b600052601160045260246000fdfe6080604081815260048036101561001557600080fd5b600092833560e01c90816306fdde03146109d85750806307ce9de4146109a3578063095ea7b3146108fa57806318160ddd146108db57806323b872dd146107e8578063313ce567146107aa57806334b7f7ae1461078b57806336fddb04146107095780635cce86cd146106cb57806370a0823114610694578063715018a6146106345780638a8c523c146105a15780638da5cb5b146105785780638ec3e56b146103ad57806395d89b41146102a9578063a9059cbb14610278578063aa4bde2814610259578063c31fe80a1461023a578063c8c8ebe41461021b578063d8c6404b146101f4578063dd62ed3e146101a75763f2fde38b1461011557600080fd5b346101a35760203660031901126101a35761012e610b13565b90610137610b44565b6001600160a01b0391821692831561018d575050600554826bffffffffffffffffffffffff60a01b821617600555167f8be0079c531659141344cd1fd0a4f28419497f9722a3daafe3b4186f6b6457e08380a380f35b51631e4fbdf760e01b8152908101849052602490fd5b8280fd5b5050346101f057806003193601126101f057806020926101c5610b13565b6101cd610b2e565b6001600160a01b0391821683526001865283832091168252845220549051908152f35b5080fd5b5050346101f057816003193601126101f05760209060ff60055460a01c1690519015158152f35b5050346101f057816003193601126101f0576020906006549051908152f35b5050346101f057816003193601126101f0576020906009549051908152f35b5050346101f057816003193601126101f0576020906007549051908152f35b5050346101f057806003193601126101f0576020906102a2610298610b13565b6024359033610ba8565b5160018152f35b509190346101f057816003193601126101f057805191809380549160019083821c928285169485156103a3575b60209586861081146103905785895290811561036c5750600114610314575b6103108787610306828c0383610b70565b5191829182610aca565b0390f35b81529295507f8a35acfbc15ff81a39ae7d344fd709f28e8600b4aa8c65c6b64bfe7fe36bd19b5b828410610359575050508261031094610306928201019438806102f5565b805486850188015292860192810161033b565b60ff19168887015250505050151560051b83010192506103068261031038806102f5565b634e487b7160e01b845260228352602484fd5b93607f16936102d6565b508290346101f05760603660031901126101f0578035906103cc610b44565b6002548451926060840184811067ffffffffffffffff82111761056557865280845260208401906024358252868501946044358652600160a01b60ff60a01b19600554161760055581610502575b505080519283610468575b857fe906abdb2bbfab8f7aeebbd422efec75b734b8569d84012ae5c0513aa39aaf146060898851806008556006549160075481519384526020840152820152a180f35b6127108094116104b45750916104a6606094927fe906abdb2bbfab8f7aeebbd422efec75b734b8569d84012ae5c0513aa39aaf149697945190610f53565b046007559181949386610425565b608490602088519162461bcd60e51b8352820152602260248201527f4d61782077616c6c65742070657263656e74206d757374206265203c3d203130604482015261302560f01b6064820152fd5b61271080921161052257610517905184610f53565b04600655868061041a565b875162461bcd60e51b8152602081870152601e60248201527f4d61782074782070657263656e74206d757374206265203c3d203130302500006044820152606490fd5b634e487b7160e01b865260418452602486fd5b5050346101f057816003193601126101f05760055490516001600160a01b039091168152602090f35b50346101a357826003193601126101a3576105ba610b44565b6009546105f2575060207fb3da2db3dfc3778f99852546c6e9ab39ec253f9de7b0847afec61bd27878e923914260095551428152a180f35b6020606492519162461bcd60e51b8352820152601760248201527f54726164696e6720616c726561647920656e61626c65640000000000000000006044820152fd5b833461069157806003193601126106915761064d610b44565b600580546001600160a01b0319811690915581906001600160a01b03167f8be0079c531659141344cd1fd0a4f28419497f9722a3daafe3b4186f6b6457e08280a380f35b80fd5b5050346101f05760203660031901126101f05760209181906001600160a01b036106bc610b13565b16815280845220549051908152f35b5050346101f05760203660031901126101f05760209160ff9082906001600160a01b036106f6610b13565b168152600b855220541690519015158152f35b5050346101f057806003193601126101f057610723610b13565b60243590811515809203610787577f74392251b09500cc108c71712e5e7e0392be9075a74a24f1494551cfa8e068709160209161075e610b44565b6001600160a01b0316808652600b8352848620805460ff191660ff84161790559351908152a280f35b8380fd5b5050346101f057816003193601126101f0576020906008549051908152f35b5050346101f057816003193601126101f0576020905160ff7f0000000000000000000000000000000000000000000000000000000000000000168152f35b50823461069157606036600319011261069157610803610b13565b61080b610b2e565b916044359360018060a01b038316808352600160205286832033845260205286832054916000198310610847575b6020886102a2898989610ba8565b8683106108af578115610898573315610881575082526001602090815286832033845281529186902090859003905582906102a287610839565b8751634a1406b160e11b8152908101849052602490fd5b875163e602df0560e01b8152908101849052602490fd5b8751637dc7a0d960e11b8152339181019182526020820193909352604081018790528291506060010390fd5b5050346101f057816003193601126101f0576020906002549051908152f35b50346101a357816003193601126101a357610913610b13565b60243590331561098c576001600160a01b031691821561097557508083602095338152600187528181208582528752205582519081527f8c5be1e5ebec7d5bd14f71427d1e84f3dd0314c0f7b2291e5b200ac8c7c3b925843392a35160018152f35b8351634a1406b160e11b8152908101859052602490fd5b835163e602df0560e01b8152808401869052602490fd5b83346106915780600319360112610691576109bc610b44565b60ff60a01b196005541660055580600655806007558060085580f35b9291905034610787578360031936011261078757600354600181811c9186908281168015610ac0575b6020958686108214610aad5750848852908115610a8b5750600114610a32575b6103108686610306828b0383610b70565b929550600383527fc2575a0e9e593c00f959f8c92f12db2869c3395a3b0502d05e2516446f71f85b5b828410610a78575050508261031094610306928201019438610a21565b8054868501880152928601928101610a5b565b60ff191687860152505050151560051b83010192506103068261031038610a21565b634e487b7160e01b845260229052602483fd5b93607f1693610a01565b6020808252825181830181905290939260005b828110610aff57505060409293506000838284010152601f8019910116010190565b818101860151848201604001528501610add565b600435906001600160a01b0382168203610b2957565b600080fd5b602435906001600160a01b0382168203610b2957565b6005546001600160a01b03163303610b5857565b60405163118cdaa760e01b8152336004820152602490fd5b90601f8019910116810190811067ffffffffffffffff821117610b9257604052565b634e487b7160e01b600052604160045260246000fd5b91906001600160a01b0380841615610be557811615610bcc57610bca92610c21565b565b60405163ec442f0560e01b815260006004820152602490fd5b604051634b637e8f60e11b815260006004820152602490fd5b91908201809211610c0b57565b634e487b7160e01b600052601160045260246000fd5b6001600160a01b038082169392919084158015610e4c575b8015610e34575b8015610e1a575b610c615760095415610dd55760ff60055460a01c16610c6c575b50610bca9350610e56565b60065480610d84575b506007549081151580610d79575b610d0f575b50506008548015610c6157610cab9085600052600a602052604060002054610bfe565b4210610cca57610bca93600052600a6020524260406000205538610c61565b60405162461bcd60e51b815260206004820152601860248201527f5472616e7366657220636f6f6c646f776e2061637469766500000000000000006044820152606490fd5b83166000526000602052610d2884604060002054610bfe565b11610d34573880610c88565b60405162461bcd60e51b815260206004820152601960248201527f45786365656473206d61782077616c6c657420616d6f756e74000000000000006044820152606490fd5b508084161515610c83565b8411610d905738610c75565b60405162461bcd60e51b815260206004820152601e60248201527f45786365656473206d6178207472616e73616374696f6e20616d6f756e7400006044820152606490fd5b60405162461bcd60e51b815260206004820152601760248201527f54726164696e67206e6f7420656e61626c6564207965740000000000000000006044820152606490fd5b50808316600052600b60205260ff60406000205416610c47565b5084600052600b60205260ff60406000205416610c40565b5080831615610c39565b6001600160a01b0380821692909183610ed057507fddf252ad1be2c89b69c2b068fc378daa952ba7f163c4a11628f55a4df523b3ef91602091610e9b86600254610bfe565b6002555b169384610eb85780600254036002555b604051908152a3565b84600052600082526040600020818154019055610eaf565b60009084825281602052604082205490868210610f2157509181604087602095887fddf252ad1be2c89b69c2b068fc378daa952ba7f163c4a11628f55a4df523b3ef98965283875203912055610e9f565b60405163391434e360e21b81526001600160a01b03919091166004820152602481019190915260448101869052606490fd5b81810292918115918404141715610c0b5756fea2646970667358221220bb079529b22137dbd6531031c3349a92c022be3587205ad764085b253476404164736f6c63430008140033e906abdb2bbfab8f7aeebbd422efec75b734b8569d84012ae5c0513aa39aaf14a2646970667358221220df0003889e8208d187ae0ca9fa7a03a7317bd42b726b4f9b7063156e5493768764736f6c63430008140033","opcodes":"PUSH1 0x80 CALLVALUE PUSH2 0x136 JUMPI PUSH1 0x1F PUSH2 0x2C07 CODESIZE DUP2 SWAP1 SUB SWAP2 DUP3 ADD PUSH1 0x1F NOT AND DUP4 ADD SWAP2 PUSH1 0x1 PUSH1 0x1 PUSH1 0x40 SHL SUB DUP4 GT DUP5 DUP5 LT OR PUSH2 0x13B JUMPI DUP1 DUP5 SWAP3 PUSH1 0x80 SWAP5 PUSH1 0x40 MSTORE DUP4 CODECOPY DUP2 ADD SUB SLT PUSH2 0x136 JUMPI DUP1 MLOAD PUSH1 0x20 DUP3 ADD MLOAD PUSH1 0x40 DUP4 ADD MLOAD PUSH1 0x1 PUSH1 0x1 PUSH1 0xA0 SHL SUB DUP1 DUP3 AND SWAP5 SWAP1 SWAP4 SWAP2 DUP6 SWAP1 SUB PUSH2 0x136 JUMPI PUSH1 0x60 ADD MLOAD DUP4 DUP2 AND DUP1 SWAP2 SUB PUSH2 0x136 JUMPI DUP1 ISZERO PUSH2 0x11D JUMPI PUSH1 0x0 SLOAD SWAP1 PUSH1 0x1 DUP1 PUSH1 0xA0 SHL SUB NOT SWAP5 DUP2 DUP7 DUP5 AND OR PUSH1 0x0 SSTORE PUSH1 0x40 MLOAD SWAP3 AND PUSH32 0x8BE0079C531659141344CD1FD0A4F28419497F9722A3DAAFE3B4186F6B6457E0 PUSH1 0x0 DUP1 LOG3 PUSH1 0x1 DUP1 SSTORE DUP5 ISZERO PUSH2 0xDB JUMPI POP PUSH1 0x2 SSTORE PUSH1 0x3 SSTORE PUSH1 0x4 SLOAD AND OR PUSH1 0x4 SSTORE PUSH1 0x40 MLOAD PUSH2 0x2AB5 SWAP1 DUP2 PUSH2 0x152 DUP3 CODECOPY RETURN JUMPDEST PUSH3 0x461BCD PUSH1 0xE5 SHL DUP2 MSTORE PUSH1 0x20 PUSH1 0x4 DUP3 ADD MSTORE PUSH1 0x1F PUSH1 0x24 DUP3 ADD MSTORE PUSH32 0x54726561737572792063616E6E6F74206265207A65726F206164647265737300 PUSH1 0x44 DUP3 ADD MSTORE PUSH1 0x64 SWAP1 REVERT JUMPDEST PUSH1 0x40 MLOAD PUSH4 0x1E4FBDF7 PUSH1 0xE0 SHL DUP2 MSTORE PUSH1 0x0 PUSH1 0x4 DUP3 ADD MSTORE PUSH1 0x24 SWAP1 REVERT JUMPDEST PUSH1 0x0 DUP1 REVERT JUMPDEST PUSH4 0x4E487B71 PUSH1 0xE0 SHL PUSH1 0x0 MSTORE PUSH1 0x41 PUSH1 0x4 MSTORE PUSH1 0x24 PUSH1 0x0 REVERT INVALID PUSH1 0x80 PUSH1 0x40 DUP2 DUP2 MSTORE PUSH1 0x4 DUP1 CALLDATASIZE LT ISZERO PUSH3 0x23 JUMPI JUMPDEST POP POP POP CALLDATASIZE ISZERO PUSH3 0x21 JUMPI PUSH1 0x0 DUP1 REVERT JUMPDEST STOP JUMPDEST PUSH1 0x0 SWAP3 DUP4 CALLDATALOAD PUSH1 0xE0 SHR SWAP1 DUP2 PUSH4 0x1D66D690 EQ PUSH3 0x880 JUMPI POP DUP1 PUSH4 0x2E2ECD8D EQ PUSH3 0x83E JUMPI DUP1 PUSH4 0x3BFF3C9F EQ PUSH3 0x7C2 JUMPI DUP1 PUSH4 0x4626402B EQ PUSH3 0x799 JUMPI DUP1 PUSH4 0x634282AF EQ PUSH3 0x76A JUMPI DUP1 PUSH4 0x6FA23795 EQ PUSH3 0x712 JUMPI DUP1 PUSH4 0x6FF1C9BC EQ PUSH3 0x602 JUMPI DUP1 PUSH4 0x715018A6 EQ PUSH3 0x5A4 JUMPI DUP1 PUSH4 0x74ABFA54 EQ PUSH3 0x4F0 JUMPI DUP1 PUSH4 0x809D458D EQ PUSH3 0x42F JUMPI DUP1 PUSH4 0x8DA5CB5B EQ PUSH3 0x405 JUMPI DUP1 PUSH4 0x97988DCE EQ PUSH3 0x384 JUMPI DUP1 PUSH4 0xAA4DD4DD EQ PUSH3 0x363 JUMPI DUP1 PUSH4 0xD1EA066A EQ PUSH3 0x2D2 JUMPI DUP1 PUSH4 0xDB3FA4CC EQ PUSH3 0x26F JUMPI DUP1 PUSH4 0xDCE0B4E4 EQ PUSH3 0x24A JUMPI DUP1 PUSH4 0xF2FDE38B EQ PUSH3 0x1BD JUMPI PUSH4 0xF5DAB711 SUB PUSH3 0x12 JUMPI CALLVALUE PUSH3 0x1B9 JUMPI PUSH1 0x20 CALLDATASIZE PUSH1 0x3 NOT ADD SLT PUSH3 0x1B9 JUMPI PUSH1 0x1 PUSH1 0x1 PUSH1 0xA0 SHL SUB SWAP3 DUP3 SWAP1 DUP5 PUSH3 0x12D PUSH3 0x89E JUMP JUMPDEST AND DUP2 MSTORE PUSH1 0x8 PUSH1 0x20 MSTORE KECCAK256 SWAP3 DUP4 SLOAD AND SWAP2 PUSH3 0x149 PUSH1 0x1 DUP6 ADD PUSH3 0xAB0 JUMP JUMPDEST SWAP4 PUSH3 0x158 PUSH1 0x2 DUP3 ADD PUSH3 0xAB0 JUMP JUMPDEST SWAP2 PUSH3 0x1A0 PUSH1 0xFF PUSH1 0x3 DUP5 ADD SLOAD AND SWAP5 DUP4 ADD SLOAD SWAP2 PUSH1 0x6 PUSH1 0x5 DUP6 ADD SLOAD SWAP5 ADD SLOAD SWAP5 PUSH3 0x192 DUP3 MLOAD SWAP10 DUP11 SWAP10 DUP11 MSTORE PUSH1 0xE0 PUSH1 0x20 DUP12 ADD MSTORE PUSH1 0xE0 DUP11 ADD SWAP1 PUSH3 0xB62 JUMP JUMPDEST SWAP2 DUP9 DUP4 SUB SWAP1 DUP10 ADD MSTORE PUSH3 0xB62 JUMP JUMPDEST SWAP4 PUSH1 0x60 DUP7 ADD MSTORE PUSH1 0x80 DUP6 ADD MSTORE PUSH1 0xA0 DUP5 ADD MSTORE PUSH1 0xC0 DUP4 ADD MSTORE SUB SWAP1 RETURN JUMPDEST DUP3 DUP1 REVERT JUMPDEST POP CALLVALUE PUSH3 0x1B9 JUMPI PUSH1 0x20 CALLDATASIZE PUSH1 0x3 NOT ADD SLT PUSH3 0x1B9 JUMPI PUSH3 0x1DB PUSH3 0x89E JUMP JUMPDEST SWAP1 PUSH3 0x1E6 PUSH3 0xBA4 JUMP JUMPDEST PUSH1 0x1 PUSH1 0x1 PUSH1 0xA0 SHL SUB SWAP2 DUP3 AND SWAP3 DUP4 ISZERO PUSH3 0x234 JUMPI POP POP DUP3 SLOAD PUSH1 0x1 PUSH1 0x1 PUSH1 0xA0 SHL SUB NOT DUP2 AND DUP4 OR DUP5 SSTORE AND PUSH32 0x8BE0079C531659141344CD1FD0A4F28419497F9722A3DAAFE3B4186F6B6457E0 DUP4 DUP1 LOG3 DUP1 RETURN JUMPDEST MLOAD PUSH4 0x1E4FBDF7 PUSH1 0xE0 SHL DUP2 MSTORE SWAP1 DUP2 ADD DUP5 SWAP1 MSTORE PUSH1 0x24 SWAP1 REVERT JUMPDEST POP POP CALLVALUE PUSH3 0x26B JUMPI DUP2 PUSH1 0x3 NOT CALLDATASIZE ADD SLT PUSH3 0x26B JUMPI PUSH1 0x20 SWAP1 PUSH1 0x2 SLOAD SWAP1 MLOAD SWAP1 DUP2 MSTORE RETURN JUMPDEST POP DUP1 REVERT JUMPDEST POP POP CALLVALUE PUSH3 0x26B JUMPI DUP1 PUSH1 0x3 NOT CALLDATASIZE ADD SLT PUSH3 0x26B JUMPI PUSH3 0x28D PUSH3 0x89E JUMP JUMPDEST PUSH1 0x1 PUSH1 0x1 PUSH1 0xA0 SHL SUB SWAP1 DUP2 AND DUP4 MSTORE PUSH1 0x6 PUSH1 0x20 MSTORE DUP2 DUP4 KECCAK256 DUP1 SLOAD PUSH1 0x24 CALLDATALOAD SWAP5 SWAP1 DUP6 LT ISZERO PUSH3 0x2CF JUMPI POP PUSH1 0x20 SWAP4 PUSH3 0x2C0 SWAP2 PUSH3 0xA5A JUMP JUMPDEST SWAP3 SWAP1 SLOAD SWAP1 MLOAD SWAP3 PUSH1 0x3 SHL SHR AND DUP2 MSTORE RETURN JUMPDEST DUP1 REVERT JUMPDEST POP PUSH3 0x2DE CALLDATASIZE PUSH3 0x95D JUMP JUMPDEST SWAP4 PUSH3 0x2EC SWAP4 SWAP2 SWAP4 PUSH3 0xBD1 JUMP JUMPDEST PUSH1 0x2 SLOAD SWAP6 DUP7 CALLVALUE LT PUSH3 0x320 JUMPI PUSH1 0x20 DUP9 PUSH3 0x30B DUP10 DUP10 DUP10 DUP10 DUP10 DUP10 PUSH3 0xC2A JUMP JUMPDEST PUSH1 0x1 DUP1 SSTORE SWAP1 MLOAD PUSH1 0x1 PUSH1 0x1 PUSH1 0xA0 SHL SUB SWAP1 SWAP2 AND DUP2 MSTORE RETURN JUMPDEST PUSH1 0x64 SWAP1 PUSH1 0x20 DUP10 MLOAD SWAP2 PUSH3 0x461BCD PUSH1 0xE5 SHL DUP4 MSTORE DUP3 ADD MSTORE PUSH1 0x19 PUSH1 0x24 DUP3 ADD MSTORE PUSH32 0x496E73756666696369656E74206372656174696F6E2066656500000000000000 PUSH1 0x44 DUP3 ADD MSTORE REVERT JUMPDEST POP POP CALLVALUE PUSH3 0x26B JUMPI DUP2 PUSH1 0x3 NOT CALLDATASIZE ADD SLT PUSH3 0x26B JUMPI PUSH1 0x20 SWAP1 PUSH1 0x3 SLOAD SWAP1 MLOAD SWAP1 DUP2 MSTORE RETURN JUMPDEST POP DUP3 CALLVALUE PUSH3 0x2CF JUMPI PUSH1 0x20 CALLDATASIZE PUSH1 0x3 NOT ADD SLT PUSH3 0x2CF JUMPI POP DUP1 CALLDATALOAD SWAP1 PUSH1 0x5 SLOAD DUP3 LT ISZERO PUSH3 0x3CC JUMPI PUSH1 0x20 DUP4 PUSH3 0x3B6 DUP5 PUSH3 0xA0C JUMP JUMPDEST SWAP1 SLOAD SWAP2 MLOAD SWAP2 PUSH1 0x1 DUP1 PUSH1 0xA0 SHL SUB SWAP2 PUSH1 0x3 SHL SHR AND DUP2 MSTORE RETURN JUMPDEST PUSH1 0x64 SWAP1 PUSH1 0x20 DUP5 MLOAD SWAP2 PUSH3 0x461BCD PUSH1 0xE5 SHL DUP4 MSTORE DUP3 ADD MSTORE PUSH1 0x13 PUSH1 0x24 DUP3 ADD MSTORE PUSH19 0x496E646578206F7574206F6620626F756E6473 PUSH1 0x68 SHL PUSH1 0x44 DUP3 ADD MSTORE REVERT JUMPDEST POP POP CALLVALUE PUSH3 0x26B JUMPI DUP2 PUSH1 0x3 NOT CALLDATASIZE ADD SLT PUSH3 0x26B JUMPI SWAP1 SLOAD SWAP1 MLOAD PUSH1 0x1 PUSH1 0x1 PUSH1 0xA0 SHL SUB SWAP1 SWAP2 AND DUP2 MSTORE PUSH1 0x20 SWAP1 RETURN JUMPDEST POP SWAP1 CALLVALUE PUSH3 0x1B9 JUMPI PUSH1 0x20 CALLDATASIZE PUSH1 0x3 NOT ADD SLT PUSH3 0x1B9 JUMPI PUSH1 0x1 PUSH1 0x1 PUSH1 0xA0 SHL SUB DUP3 CALLDATALOAD DUP2 DUP2 AND SWAP4 SWAP2 SWAP3 SWAP1 DUP5 SWAP1 SUB PUSH3 0x4EC JUMPI PUSH3 0x467 PUSH3 0xBA4 JUMP JUMPDEST DUP4 ISZERO PUSH3 0x4A9 JUMPI POP DUP1 SLOAD PUSH1 0x1 PUSH1 0x1 PUSH1 0xA0 SHL SUB NOT DUP2 AND DUP5 OR SWAP1 SWAP2 SSTORE AND PUSH32 0xA982575859D7AD2F390DC12B23F7DAB8BBDA047F9D0140AC68344B27BF34BFB4 DUP4 DUP1 LOG3 DUP1 RETURN JUMPDEST SWAP1 PUSH1 0x20 PUSH1 0x64 SWAP3 MLOAD SWAP2 PUSH3 0x461BCD PUSH1 0xE5 SHL DUP4 MSTORE DUP3 ADD MSTORE PUSH1 0x1F PUSH1 0x24 DUP3 ADD MSTORE PUSH32 0x54726561737572792063616E6E6F74206265207A65726F206164647265737300 PUSH1 0x44 DUP3 ADD MSTORE REVERT JUMPDEST DUP5 DUP1 REVERT JUMPDEST POP POP CALLVALUE PUSH3 0x26B JUMPI PUSH1 0x20 DUP1 PUSH1 0x3 NOT CALLDATASIZE ADD SLT PUSH3 0x1B9 JUMPI PUSH1 0x1 PUSH1 0x1 PUSH1 0xA0 SHL SUB SWAP3 DUP4 PUSH3 0x51A PUSH3 0x89E JUMP JUMPDEST AND DUP2 MSTORE PUSH1 0x6 DUP3 MSTORE DUP3 DUP2 KECCAK256 SWAP2 DUP4 MLOAD SWAP1 DUP2 DUP2 DUP6 SLOAD SWAP2 DUP3 DUP2 MSTORE ADD SWAP1 DUP2 SWAP6 DUP6 MSTORE DUP3 DUP6 KECCAK256 SWAP1 DUP6 JUMPDEST DUP2 DUP2 LT PUSH3 0x58D JUMPI POP POP POP DUP3 PUSH3 0x555 SWAP2 SUB DUP4 PUSH3 0x8BA JUMP JUMPDEST DUP5 MLOAD SWAP5 DUP2 DUP7 ADD SWAP3 DUP3 DUP8 MSTORE MLOAD DUP1 SWAP4 MSTORE DUP6 ADD SWAP4 SWAP3 JUMPDEST DUP3 DUP2 LT PUSH3 0x576 JUMPI DUP6 DUP6 SUB DUP7 RETURN JUMPDEST DUP4 MLOAD DUP8 AND DUP6 MSTORE SWAP4 DUP2 ADD SWAP4 SWAP3 DUP2 ADD SWAP3 PUSH1 0x1 ADD PUSH3 0x568 JUMP JUMPDEST DUP3 SLOAD DUP11 AND DUP5 MSTORE SWAP3 DUP5 ADD SWAP3 PUSH1 0x1 SWAP3 DUP4 ADD SWAP3 ADD PUSH3 0x53C JUMP JUMPDEST DUP4 CALLVALUE PUSH3 0x2CF JUMPI DUP1 PUSH1 0x3 NOT CALLDATASIZE ADD SLT PUSH3 0x2CF JUMPI PUSH3 0x5C1 PUSH3 0xBA4 JUMP JUMPDEST DUP1 SLOAD PUSH1 0x1 PUSH1 0x1 PUSH1 0xA0 SHL SUB NOT DUP2 AND DUP3 SSTORE DUP2 SWAP1 PUSH1 0x1 PUSH1 0x1 PUSH1 0xA0 SHL SUB AND PUSH32 0x8BE0079C531659141344CD1FD0A4F28419497F9722A3DAAFE3B4186F6B6457E0 DUP3 DUP1 LOG3 DUP1 RETURN JUMPDEST POP CALLVALUE PUSH3 0x1B9 JUMPI PUSH1 0x20 CALLDATASIZE PUSH1 0x3 NOT ADD SLT PUSH3 0x1B9 JUMPI DUP1 CALLDATALOAD PUSH1 0x1 PUSH1 0x1 PUSH1 0xA0 SHL SUB DUP2 AND SWAP3 SWAP1 DUP4 SWAP1 SUB PUSH3 0x70E JUMPI PUSH3 0x636 PUSH3 0xBA4 JUMP JUMPDEST DUP3 ISZERO PUSH3 0x6CB JUMPI SELFBALANCE SWAP2 DUP3 PUSH3 0x649 JUMPI DUP5 DUP1 RETURN JUMPDEST DUP5 DUP1 DUP1 DUP1 DUP7 DUP9 GAS CALL PUSH3 0x65B PUSH3 0xBF5 JUMP JUMPDEST POP ISZERO PUSH3 0x695 JUMPI POP PUSH32 0xC0819C13BE868895EB93E40EACEB96DE976442FA1D404E5C55F14BB65A8C489A SWAP2 PUSH1 0x20 SWAP2 MLOAD SWAP1 DUP2 MSTORE LOG2 CODESIZE DUP1 DUP1 DUP1 DUP5 DUP1 RETURN JUMPDEST PUSH1 0x20 PUSH1 0x64 SWAP3 MLOAD SWAP2 PUSH3 0x461BCD PUSH1 0xE5 SHL DUP4 MSTORE DUP3 ADD MSTORE PUSH1 0x11 PUSH1 0x24 DUP3 ADD MSTORE PUSH17 0x15DA5D1A191C985DD85B0819985A5B1959 PUSH1 0x7A SHL PUSH1 0x44 DUP3 ADD MSTORE REVERT JUMPDEST SWAP1 PUSH1 0x20 PUSH1 0x64 SWAP3 MLOAD SWAP2 PUSH3 0x461BCD PUSH1 0xE5 SHL DUP4 MSTORE DUP3 ADD MSTORE PUSH1 0x20 PUSH1 0x24 DUP3 ADD MSTORE PUSH32 0x526563697069656E742063616E6E6F74206265207A65726F2061646472657373 PUSH1 0x44 DUP3 ADD MSTORE REVERT JUMPDEST DUP4 DUP1 REVERT JUMPDEST POP SWAP1 CALLVALUE PUSH3 0x1B9 JUMPI PUSH1 0x20 CALLDATASIZE PUSH1 0x3 NOT ADD SLT PUSH3 0x1B9 JUMPI PUSH32 0x5DE302EEB1C80D4FB0C0953B692353F09DDF431411B8EB2034D5E85769561912 SWAP2 CALLDATALOAD PUSH3 0x754 PUSH3 0xBA4 JUMP JUMPDEST PUSH1 0x2 SLOAD SWAP1 DUP1 PUSH1 0x2 SSTORE DUP3 MLOAD SWAP2 DUP3 MSTORE PUSH1 0x20 DUP3 ADD MSTORE LOG1 DUP1 RETURN JUMPDEST POP CALLVALUE PUSH3 0x1B9 JUMPI PUSH1 0x20 CALLDATASIZE PUSH1 0x3 NOT ADD SLT PUSH3 0x1B9 JUMPI CALLDATALOAD SWAP2 PUSH1 0x5 SLOAD DUP4 LT ISZERO PUSH3 0x2CF JUMPI POP PUSH3 0x3B6 PUSH1 0x20 SWAP3 PUSH3 0xA0C JUMP JUMPDEST POP CALLVALUE PUSH3 0x1B9 JUMPI DUP3 PUSH1 0x3 NOT CALLDATASIZE ADD SLT PUSH3 0x1B9 JUMPI SLOAD SWAP1 MLOAD PUSH1 0x1 PUSH1 0x1 PUSH1 0xA0 SHL SUB SWAP1 SWAP2 AND DUP2 MSTORE PUSH1 0x20 SWAP2 POP RETURN JUMPDEST POP PUSH3 0x7CE CALLDATASIZE PUSH3 0x95D JUMP JUMPDEST SWAP4 PUSH3 0x7DC SWAP4 SWAP2 SWAP4 PUSH3 0xBD1 JUMP JUMPDEST PUSH1 0x3 SLOAD SWAP6 DUP7 CALLVALUE LT PUSH3 0x7FB JUMPI PUSH1 0x20 DUP9 PUSH3 0x30B DUP10 DUP10 DUP10 DUP10 DUP10 DUP10 PUSH3 0xC2A JUMP JUMPDEST PUSH1 0x64 SWAP1 PUSH1 0x20 DUP10 MLOAD SWAP2 PUSH3 0x461BCD PUSH1 0xE5 SHL DUP4 MSTORE DUP3 ADD MSTORE PUSH1 0x1B PUSH1 0x24 DUP3 ADD MSTORE PUSH32 0x496E73756666696369656E7420666169726C61756E6368206665650000000000 PUSH1 0x44 DUP3 ADD MSTORE REVERT JUMPDEST POP POP CALLVALUE PUSH3 0x26B JUMPI PUSH1 0x20 CALLDATASIZE PUSH1 0x3 NOT ADD SLT PUSH3 0x26B JUMPI PUSH1 0x20 SWAP2 PUSH1 0xFF SWAP1 DUP3 SWAP1 PUSH1 0x1 PUSH1 0x1 PUSH1 0xA0 SHL SUB PUSH3 0x86D PUSH3 0x89E JUMP JUMPDEST AND DUP2 MSTORE PUSH1 0x7 DUP6 MSTORE KECCAK256 SLOAD AND SWAP1 MLOAD SWAP1 ISZERO ISZERO DUP2 MSTORE RETURN JUMPDEST DUP5 SWAP1 CALLVALUE PUSH3 0x26B JUMPI DUP2 PUSH1 0x3 NOT CALLDATASIZE ADD SLT PUSH3 0x26B JUMPI PUSH1 0x20 SWAP1 PUSH1 0x5 SLOAD DUP2 MSTORE RETURN JUMPDEST PUSH1 0x4 CALLDATALOAD SWAP1 PUSH1 0x1 PUSH1 0x1 PUSH1 0xA0 SHL SUB DUP3 AND DUP3 SUB PUSH3 0x8B5 JUMPI JUMP JUMPDEST PUSH1 0x0 DUP1 REVERT JUMPDEST SWAP1 PUSH1 0x1F DUP1 NOT SWAP2 ADD AND DUP2 ADD SWAP1 DUP2 LT PUSH8 0xFFFFFFFFFFFFFFFF DUP3 GT OR PUSH3 0x8DD JUMPI PUSH1 0x40 MSTORE JUMP JUMPDEST PUSH4 0x4E487B71 PUSH1 0xE0 SHL PUSH1 0x0 MSTORE PUSH1 0x41 PUSH1 0x4 MSTORE PUSH1 0x24 PUSH1 0x0 REVERT JUMPDEST PUSH8 0xFFFFFFFFFFFFFFFF DUP2 GT PUSH3 0x8DD JUMPI PUSH1 0x1F ADD PUSH1 0x1F NOT AND PUSH1 0x20 ADD SWAP1 JUMP JUMPDEST DUP2 PUSH1 0x1F DUP3 ADD SLT ISZERO PUSH3 0x8B5 JUMPI DUP1 CALLDATALOAD SWAP1 PUSH3 0x92A DUP3 PUSH3 0x8F3 JUMP JUMPDEST SWAP3 PUSH3 0x93A PUSH1 0x40 MLOAD SWAP5 DUP6 PUSH3 0x8BA JUMP JUMPDEST DUP3 DUP5 MSTORE PUSH1 0x20 DUP4 DUP4 ADD ADD GT PUSH3 0x8B5 JUMPI DUP2 PUSH1 0x0 SWAP3 PUSH1 0x20 DUP1 SWAP4 ADD DUP4 DUP7 ADD CALLDATACOPY DUP4 ADD ADD MSTORE SWAP1 JUMP JUMPDEST SWAP1 PUSH1 0xE0 PUSH1 0x3 NOT DUP4 ADD SLT PUSH3 0x8B5 JUMPI PUSH8 0xFFFFFFFFFFFFFFFF PUSH1 0x4 CALLDATALOAD DUP2 DUP2 GT PUSH3 0x8B5 JUMPI DUP4 PUSH3 0x98E SWAP2 PUSH1 0x4 ADD PUSH3 0x910 JUMP JUMPDEST SWAP3 PUSH1 0x24 CALLDATALOAD DUP3 DUP2 GT PUSH3 0x8B5 JUMPI DUP2 PUSH3 0x9A9 SWAP2 PUSH1 0x4 ADD PUSH3 0x910 JUMP JUMPDEST SWAP3 PUSH1 0x44 CALLDATALOAD PUSH1 0xFF DUP2 AND DUP2 SUB PUSH3 0x8B5 JUMPI SWAP3 PUSH1 0x64 CALLDATALOAD SWAP3 DUP1 PUSH1 0xA3 SLT ISZERO PUSH3 0x8B5 JUMPI PUSH1 0x40 MLOAD SWAP2 PUSH1 0x60 DUP4 ADD SWAP1 DUP2 GT DUP4 DUP3 LT OR PUSH3 0x8DD JUMPI PUSH1 0x40 MSTORE DUP2 PUSH1 0xE4 SWAP2 DUP3 GT PUSH3 0x8B5 JUMPI PUSH1 0x84 SWAP1 JUMPDEST DUP3 DUP3 LT PUSH3 0x9FB JUMPI POP POP POP SWAP1 JUMP JUMPDEST DUP2 CALLDATALOAD DUP2 MSTORE PUSH1 0x20 SWAP2 DUP3 ADD SWAP2 ADD PUSH3 0x9ED JUMP JUMPDEST PUSH1 0x5 SLOAD DUP2 LT ISZERO PUSH3 0xA44 JUMPI PUSH1 0x5 PUSH1 0x0 MSTORE PUSH32 0x36B6384B5ECA791C62761152D0C79BB0604C104A5FB6F4EB0703F3154BB3DB0 ADD SWAP1 PUSH1 0x0 SWAP1 JUMP JUMPDEST PUSH4 0x4E487B71 PUSH1 0xE0 SHL PUSH1 0x0 MSTORE PUSH1 0x32 PUSH1 0x4 MSTORE PUSH1 0x24 PUSH1 0x0 REVERT JUMPDEST DUP1 SLOAD DUP3 LT ISZERO PUSH3 0xA44 JUMPI PUSH1 0x0 MSTORE PUSH1 0x20 PUSH1 0x0 KECCAK256 ADD SWAP1 PUSH1 0x0 SWAP1 JUMP JUMPDEST SWAP1 PUSH1 0x1 DUP3 DUP2 SHR SWAP3 AND DUP1 ISZERO PUSH3 0xAA5 JUMPI JUMPDEST PUSH1 0x20 DUP4 LT EQ PUSH3 0xA8F JUMPI JUMP JUMPDEST PUSH4 0x4E487B71 PUSH1 0xE0 SHL PUSH1 0x0 MSTORE PUSH1 0x22 PUSH1 0x4 MSTORE PUSH1 0x24 PUSH1 0x0 REVERT JUMPDEST SWAP2 PUSH1 0x7F AND SWAP2 PUSH3 0xA83 JUMP JUMPDEST SWAP1 PUSH1 0x40 MLOAD SWAP2 DUP3 PUSH1 0x0 DUP3 SLOAD SWAP3 PUSH3 0xAC6 DUP5 PUSH3 0xA73 JUMP JUMPDEST SWAP1 DUP2 DUP5 MSTORE PUSH1 0x1 SWAP5 DUP6 DUP2 AND SWAP1 DUP2 PUSH1 0x0 EQ PUSH3 0xB3D JUMPI POP PUSH1 0x1 EQ PUSH3 0xAF6 JUMPI JUMPDEST POP POP PUSH3 0xAF4 SWAP3 POP SUB DUP4 PUSH3 0x8BA JUMP JUMPDEST JUMP JUMPDEST SWAP1 SWAP4 SWAP2 POP PUSH1 0x0 MSTORE PUSH1 0x20 SWAP1 DUP2 PUSH1 0x0 KECCAK256 SWAP4 PUSH1 0x0 SWAP2 JUMPDEST DUP2 DUP4 LT PUSH3 0xB24 JUMPI POP POP PUSH3 0xAF4 SWAP4 POP DUP3 ADD ADD CODESIZE DUP1 PUSH3 0xAE4 JUMP JUMPDEST DUP6 SLOAD DUP9 DUP5 ADD DUP6 ADD MSTORE SWAP5 DUP6 ADD SWAP5 DUP8 SWAP5 POP SWAP2 DUP4 ADD SWAP2 PUSH3 0xB09 JUMP JUMPDEST SWAP2 POP POP PUSH3 0xAF4 SWAP5 POP PUSH1 0x20 SWAP3 POP PUSH1 0xFF NOT AND DUP3 DUP5 ADD MSTORE ISZERO ISZERO PUSH1 0x5 SHL DUP3 ADD ADD CODESIZE DUP1 PUSH3 0xAE4 JUMP JUMPDEST SWAP2 SWAP1 DUP3 MLOAD SWAP3 DUP4 DUP3 MSTORE PUSH1 0x0 JUMPDEST DUP5 DUP2 LT PUSH3 0xB8F JUMPI POP POP DUP3 PUSH1 0x0 PUSH1 0x20 DUP1 SWAP5 SWAP6 DUP5 ADD ADD MSTORE PUSH1 0x1F DUP1 NOT SWAP2 ADD AND ADD ADD SWAP1 JUMP JUMPDEST PUSH1 0x20 DUP2 DUP4 ADD DUP2 ADD MLOAD DUP5 DUP4 ADD DUP3 ADD MSTORE ADD PUSH3 0xB6D JUMP JUMPDEST PUSH1 0x0 SLOAD PUSH1 0x1 PUSH1 0x1 PUSH1 0xA0 SHL SUB AND CALLER SUB PUSH3 0xBB9 JUMPI JUMP JUMPDEST PUSH1 0x40 MLOAD PUSH4 0x118CDAA7 PUSH1 0xE0 SHL DUP2 MSTORE CALLER PUSH1 0x4 DUP3 ADD MSTORE PUSH1 0x24 SWAP1 REVERT JUMPDEST PUSH1 0x2 PUSH1 0x1 SLOAD EQ PUSH3 0xBE3 JUMPI PUSH1 0x2 PUSH1 0x1 SSTORE JUMP JUMPDEST PUSH1 0x40 MLOAD PUSH4 0x3EE5AEB5 PUSH1 0xE0 SHL DUP2 MSTORE PUSH1 0x4 SWAP1 REVERT JUMPDEST RETURNDATASIZE ISZERO PUSH3 0xC25 JUMPI RETURNDATASIZE SWAP1 PUSH3 0xC09 DUP3 PUSH3 0x8F3 JUMP JUMPDEST SWAP2 PUSH3 0xC19 PUSH1 0x40 MLOAD SWAP4 DUP5 PUSH3 0x8BA JUMP JUMPDEST DUP3 MSTORE RETURNDATASIZE PUSH1 0x0 PUSH1 0x20 DUP5 ADD RETURNDATACOPY JUMP JUMPDEST PUSH1 0x60 SWAP1 JUMP JUMPDEST SWAP5 SWAP4 SWAP3 SWAP2 SWAP3 DUP6 MLOAD ISZERO PUSH3 0x1296 JUMPI DUP2 MLOAD ISZERO PUSH3 0x1258 JUMPI DUP3 ISZERO PUSH3 0x1207 JUMPI PUSH1 0x40 MLOAD SWAP1 PUSH2 0x17AD SWAP1 DUP2 DUP4 ADD SWAP2 DUP4 DUP4 LT PUSH8 0xFFFFFFFFFFFFFFFF DUP5 GT OR PUSH3 0x8DD JUMPI SWAP1 DUP4 SWAP3 SWAP2 PUSH3 0x12D3 DUP5 CODECOPY PUSH1 0xA0 PUSH3 0xC98 PUSH3 0xC89 PUSH2 0x100 DUP1 DUP7 MSTORE DUP6 ADD DUP13 PUSH3 0xB62 JUMP JUMPDEST DUP5 DUP2 SUB PUSH1 0x20 DUP7 ADD MSTORE DUP8 PUSH3 0xB62 JUMP JUMPDEST SWAP3 PUSH1 0xFF DUP10 AND PUSH1 0x40 DUP3 ADD MSTORE DUP8 PUSH1 0x60 DUP3 ADD MSTORE CALLER PUSH1 0x80 DUP3 ADD MSTORE ADD PUSH1 0x0 SWAP1 JUMPDEST PUSH1 0x3 DUP3 LT PUSH3 0x11EC JUMPI POP POP POP SUB SWAP1 PUSH1 0x0 CREATE DUP1 ISZERO PUSH3 0x11E0 JUMPI PUSH1 0x1 DUP1 PUSH1 0xA0 SHL SUB AND SWAP5 PUSH1 0x5 SLOAD PUSH9 0x10000000000000000 SWAP1 DUP2 DUP2 LT ISZERO PUSH3 0x8DD JUMPI DUP1 PUSH1 0x1 PUSH3 0xCFD SWAP3 ADD PUSH1 0x5 SSTORE PUSH3 0xA0C JUMP JUMPDEST DUP2 SLOAD SWAP1 PUSH1 0x3 SHL SWAP1 DUP10 DUP3 SHL SWAP2 PUSH1 0x1 DUP1 PUSH1 0xA0 SHL SUB SWAP1 SHL NOT AND OR SWAP1 SSTORE CALLER PUSH1 0x0 MSTORE PUSH1 0x6 PUSH1 0x20 MSTORE PUSH1 0x40 PUSH1 0x0 KECCAK256 SWAP1 DUP2 SLOAD SWAP1 DUP2 LT ISZERO PUSH3 0x8DD JUMPI PUSH3 0xD41 SWAP2 PUSH1 0x1 DUP3 ADD DUP2 SSTORE PUSH3 0xA5A JUMP JUMPDEST DUP2 SLOAD PUSH1 0x1 PUSH1 0x1 PUSH1 0xA0 SHL SUB PUSH1 0x3 SWAP3 SWAP1 SWAP3 SHL SWAP2 DUP3 SHL NOT AND SWAP1 DUP9 SWAP1 SHL OR SWAP1 SSTORE PUSH1 0x0 DUP7 DUP2 MSTORE PUSH1 0x7 PUSH1 0x20 MSTORE PUSH1 0x40 SWAP1 DUP2 SWAP1 KECCAK256 DUP1 SLOAD PUSH1 0xFF NOT AND PUSH1 0x1 OR SWAP1 SSTORE MLOAD PUSH1 0xE0 DUP2 ADD PUSH8 0xFFFFFFFFFFFFFFFF DUP2 GT DUP3 DUP3 LT OR PUSH3 0x8DD JUMPI PUSH1 0x40 MSTORE CALLER DUP2 MSTORE PUSH1 0x20 DUP2 ADD SWAP1 DUP3 DUP3 MSTORE DUP4 PUSH1 0x40 DUP3 ADD MSTORE PUSH1 0xFF DUP7 AND PUSH1 0x60 DUP3 ADD MSTORE DUP5 PUSH1 0x80 DUP3 ADD MSTORE TIMESTAMP PUSH1 0xA0 DUP3 ADD MSTORE DUP7 PUSH1 0xC0 DUP3 ADD MSTORE DUP8 PUSH1 0x0 MSTORE PUSH1 0x8 PUSH1 0x20 MSTORE PUSH1 0x40 PUSH1 0x0 KECCAK256 SWAP2 PUSH1 0x1 DUP1 PUSH1 0xA0 SHL SUB DUP3 MLOAD AND PUSH12 0xFFFFFFFFFFFFFFFFFFFFFFFF PUSH1 0xA0 SHL DUP5 SLOAD AND OR DUP4 SSTORE MLOAD DUP1 MLOAD SWAP1 PUSH8 0xFFFFFFFFFFFFFFFF DUP3 GT PUSH3 0x8DD JUMPI DUP2 SWAP1 PUSH3 0xE14 PUSH1 0x1 DUP7 ADD SLOAD PUSH3 0xA73 JUMP JUMPDEST PUSH1 0x1F DUP2 GT PUSH3 0x1188 JUMPI JUMPDEST POP PUSH1 0x20 SWAP1 PUSH1 0x1F DUP4 GT PUSH1 0x1 EQ PUSH3 0x1111 JUMPI PUSH1 0x0 SWAP3 PUSH3 0x1105 JUMPI JUMPDEST POP POP DUP2 PUSH1 0x1 SHL SWAP2 PUSH1 0x0 NOT SWAP1 PUSH1 0x3 SHL SHR NOT AND OR PUSH1 0x1 DUP4 ADD SSTORE JUMPDEST PUSH1 0x40 DUP2 ADD MLOAD DUP1 MLOAD SWAP1 PUSH8 0xFFFFFFFFFFFFFFFF DUP3 GT PUSH3 0x8DD JUMPI PUSH3 0xE76 PUSH1 0x2 DUP6 ADD SLOAD PUSH3 0xA73 JUMP JUMPDEST PUSH1 0x1F DUP2 GT PUSH3 0x10B9 JUMPI JUMPDEST POP PUSH1 0x20 SWAP1 PUSH1 0x1F DUP4 GT PUSH1 0x1 EQ PUSH3 0x103F JUMPI SWAP2 DUP1 PUSH1 0x6 SWAP5 SWAP3 PUSH1 0xC0 SWAP5 PUSH1 0x0 SWAP3 PUSH3 0x1033 JUMPI JUMPDEST POP POP DUP2 PUSH1 0x1 SHL SWAP2 PUSH1 0x0 NOT SWAP1 PUSH1 0x3 SHL SHR NOT AND OR PUSH1 0x2 DUP6 ADD SSTORE JUMPDEST PUSH1 0x3 DUP5 ADD PUSH1 0xFF PUSH1 0x60 DUP4 ADD MLOAD AND PUSH1 0xFF NOT DUP3 SLOAD AND OR SWAP1 SSTORE PUSH1 0x80 DUP2 ADD MLOAD PUSH1 0x4 DUP6 ADD SSTORE PUSH1 0xA0 DUP2 ADD MLOAD PUSH1 0x5 DUP6 ADD SSTORE ADD MLOAD SWAP2 ADD SSTORE PUSH1 0x0 DUP1 DUP1 DUP1 DUP9 PUSH1 0x1 DUP1 PUSH1 0xA0 SHL SUB PUSH1 0x4 SLOAD AND GAS CALL PUSH3 0xF05 PUSH3 0xBF5 JUMP JUMPDEST POP ISZERO PUSH3 0xFF8 JUMPI DUP6 SWAP3 PUSH1 0xFF PUSH3 0xF5C PUSH32 0x5720881DA7C98B517E7CD64B73B5C859AB835D35854CD22C8F5532CC28B3E92B SWAP5 PUSH3 0xF4D PUSH1 0x40 MLOAD SWAP6 PUSH1 0xC0 DUP8 MSTORE PUSH1 0xC0 DUP8 ADD SWAP1 PUSH3 0xB62 JUMP JUMPDEST SWAP1 DUP6 DUP3 SUB PUSH1 0x20 DUP8 ADD MSTORE PUSH3 0xB62 JUMP JUMPDEST SWAP6 AND PUSH1 0x40 DUP4 ADD MSTORE PUSH1 0x60 DUP3 ADD MSTORE DUP5 PUSH1 0x80 DUP3 ADD MSTORE TIMESTAMP PUSH1 0xA0 DUP3 ADD MSTORE DUP1 CALLER SWAP5 SUB SWAP1 LOG3 DUP1 CALLVALUE GT PUSH3 0xF86 JUMPI POP SWAP1 JUMP JUMPDEST CALLVALUE SUB CALLVALUE DUP2 GT PUSH3 0xFE2 JUMPI PUSH1 0x0 DUP1 DUP1 DUP1 SWAP4 CALLER GAS CALL PUSH3 0xFA3 PUSH3 0xBF5 JUMP JUMPDEST POP ISZERO PUSH3 0xFAD JUMPI SWAP1 JUMP JUMPDEST PUSH1 0x40 MLOAD PUSH3 0x461BCD PUSH1 0xE5 SHL DUP2 MSTORE PUSH1 0x20 PUSH1 0x4 DUP3 ADD MSTORE PUSH1 0xD PUSH1 0x24 DUP3 ADD MSTORE PUSH13 0x1499599D5B990819985A5B1959 PUSH1 0x9A SHL PUSH1 0x44 DUP3 ADD MSTORE PUSH1 0x64 SWAP1 REVERT JUMPDEST PUSH4 0x4E487B71 PUSH1 0xE0 SHL PUSH1 0x0 MSTORE PUSH1 0x11 PUSH1 0x4 MSTORE PUSH1 0x24 PUSH1 0x0 REVERT JUMPDEST PUSH1 0x40 MLOAD PUSH3 0x461BCD PUSH1 0xE5 SHL DUP2 MSTORE PUSH1 0x20 PUSH1 0x4 DUP3 ADD MSTORE PUSH1 0x13 PUSH1 0x24 DUP3 ADD MSTORE PUSH19 0x119959481D1C985B9CD9995C8819985A5B1959 PUSH1 0x6A SHL PUSH1 0x44 DUP3 ADD MSTORE PUSH1 0x64 SWAP1 REVERT JUMPDEST ADD MLOAD SWAP1 POP CODESIZE DUP1 PUSH3 0xEA2 JUMP JUMPDEST SWAP1 PUSH1 0x2 DUP6 ADD PUSH1 0x0 MSTORE PUSH1 0x20 PUSH1 0x0 KECCAK256 SWAP2 PUSH1 0x0 JUMPDEST PUSH1 0x1F NOT DUP6 AND DUP2 LT PUSH3 0x10A0 JUMPI POP SWAP3 PUSH1 0x6 SWAP5 SWAP3 PUSH1 0x1 SWAP3 PUSH1 0xC0 SWAP6 DUP4 PUSH1 0x1F NOT DUP2 AND LT PUSH3 0x1086 JUMPI JUMPDEST POP POP POP DUP2 SHL ADD PUSH1 0x2 DUP6 ADD SSTORE PUSH3 0xEBA JUMP JUMPDEST ADD MLOAD PUSH1 0x0 NOT PUSH1 0xF8 DUP5 PUSH1 0x3 SHL AND SHR NOT AND SWAP1 SSTORE CODESIZE DUP1 DUP1 PUSH3 0x1075 JUMP JUMPDEST SWAP2 SWAP3 PUSH1 0x20 PUSH1 0x1 DUP2 SWAP3 DUP7 DUP6 ADD MLOAD DUP2 SSTORE ADD SWAP5 ADD SWAP3 ADD PUSH3 0x1050 JUMP JUMPDEST PUSH1 0x2 DUP6 ADD PUSH1 0x0 MSTORE PUSH1 0x20 PUSH1 0x0 KECCAK256 PUSH1 0x1F DUP5 ADD PUSH1 0x5 SHR DUP2 ADD PUSH1 0x20 DUP6 LT PUSH3 0x10FD JUMPI JUMPDEST PUSH1 0x1F DUP4 ADD PUSH1 0x5 SHR DUP3 ADD DUP2 LT PUSH3 0x10F0 JUMPI POP POP PUSH3 0xE80 JUMP JUMPDEST PUSH1 0x0 DUP2 SSTORE PUSH1 0x1 ADD PUSH3 0x10D8 JUMP JUMPDEST POP DUP1 PUSH3 0x10D8 JUMP JUMPDEST ADD MLOAD SWAP1 POP CODESIZE DUP1 PUSH3 0xE37 JUMP JUMPDEST SWAP3 POP PUSH1 0x1 DUP6 ADD PUSH1 0x0 MSTORE PUSH1 0x20 PUSH1 0x0 KECCAK256 SWAP1 PUSH1 0x0 SWAP4 JUMPDEST PUSH1 0x1F NOT DUP5 AND DUP6 LT PUSH3 0x116C JUMPI PUSH1 0x1 SWAP5 POP DUP4 PUSH1 0x1F NOT DUP2 AND LT PUSH3 0x1152 JUMPI JUMPDEST POP POP POP DUP2 SHL ADD PUSH1 0x1 DUP4 ADD SSTORE PUSH3 0xE4F JUMP JUMPDEST ADD MLOAD PUSH1 0x0 NOT PUSH1 0xF8 DUP5 PUSH1 0x3 SHL AND SHR NOT AND SWAP1 SSTORE CODESIZE DUP1 DUP1 PUSH3 0x1141 JUMP JUMPDEST DUP2 DUP2 ADD MLOAD DUP4 SSTORE PUSH1 0x20 SWAP5 DUP6 ADD SWAP5 PUSH1 0x1 SWAP1 SWAP4 ADD SWAP3 SWAP1 SWAP2 ADD SWAP1 PUSH3 0x1124 JUMP JUMPDEST SWAP1 SWAP2 POP PUSH1 0x1 DUP6 ADD PUSH1 0x0 MSTORE PUSH1 0x20 PUSH1 0x0 KECCAK256 PUSH1 0x1F DUP5 ADD PUSH1 0x5 SHR DUP2 ADD PUSH1 0x20 DUP6 LT PUSH3 0x11D8 JUMPI JUMPDEST SWAP1 DUP5 SWAP4 SWAP3 SWAP2 JUMPDEST PUSH1 0x1F DUP4 ADD PUSH1 0x5 SHR DUP3 ADD DUP2 LT PUSH3 0x11C8 JUMPI POP POP PUSH3 0xE1E JUMP JUMPDEST PUSH1 0x0 DUP2 SSTORE DUP6 SWAP5 POP PUSH1 0x1 ADD PUSH3 0x11B0 JUMP JUMPDEST POP DUP1 PUSH3 0x11AA JUMP JUMPDEST PUSH1 0x40 MLOAD RETURNDATASIZE PUSH1 0x0 DUP3 RETURNDATACOPY RETURNDATASIZE SWAP1 REVERT JUMPDEST DUP3 MLOAD DUP2 MSTORE DUP6 SWAP5 POP PUSH1 0x20 SWAP3 DUP4 ADD SWAP3 PUSH1 0x1 SWAP3 SWAP1 SWAP3 ADD SWAP2 ADD PUSH3 0xCB3 JUMP JUMPDEST PUSH1 0x40 MLOAD PUSH3 0x461BCD PUSH1 0xE5 SHL DUP2 MSTORE PUSH1 0x20 PUSH1 0x4 DUP3 ADD MSTORE PUSH1 0x23 PUSH1 0x24 DUP3 ADD MSTORE PUSH32 0x546F74616C20737570706C79206D757374206265206772656174657220746861 PUSH1 0x44 DUP3 ADD MSTORE PUSH3 0x6E203 PUSH1 0xEC SHL PUSH1 0x64 DUP3 ADD MSTORE PUSH1 0x84 SWAP1 REVERT JUMPDEST PUSH1 0x40 MLOAD PUSH3 0x461BCD PUSH1 0xE5 SHL DUP2 MSTORE PUSH1 0x20 PUSH1 0x4 DUP3 ADD MSTORE PUSH1 0x16 PUSH1 0x24 DUP3 ADD MSTORE PUSH22 0x53796D626F6C2063616E6E6F7420626520656D707479 PUSH1 0x50 SHL PUSH1 0x44 DUP3 ADD MSTORE PUSH1 0x64 SWAP1 REVERT JUMPDEST PUSH1 0x40 MLOAD PUSH3 0x461BCD PUSH1 0xE5 SHL DUP2 MSTORE PUSH1 0x20 PUSH1 0x4 DUP3 ADD MSTORE PUSH1 0x14 PUSH1 0x24 DUP3 ADD MSTORE PUSH20 0x4E616D652063616E6E6F7420626520656D707479 PUSH1 0x60 SHL PUSH1 0x44 DUP3 ADD MSTORE PUSH1 0x64 SWAP1 REVERT INVALID PUSH1 0x40 PUSH1 0xA0 DUP2 MSTORE CALLVALUE PUSH3 0x729 JUMPI PUSH3 0x17AD DUP1 CODESIZE SUB DUP1 PUSH3 0x1E DUP2 PUSH3 0x72E JUMP JUMPDEST SWAP3 DUP4 CODECOPY DUP2 ADD SWAP1 PUSH2 0x100 SWAP2 DUP3 DUP3 DUP3 SUB SLT PUSH3 0x729 JUMPI DUP2 MLOAD PUSH1 0x1 PUSH1 0x1 PUSH1 0x40 SHL SUB DUP2 GT PUSH3 0x729 JUMPI DUP2 PUSH3 0x51 SWAP2 DUP5 ADD PUSH3 0x754 JUMP JUMPDEST PUSH1 0x20 DUP4 ADD MLOAD SWAP1 SWAP2 SWAP1 PUSH1 0x1 PUSH1 0x1 PUSH1 0x40 SHL SUB DUP2 GT PUSH3 0x729 JUMPI DUP2 PUSH3 0x76 SWAP2 DUP6 ADD PUSH3 0x754 JUMP JUMPDEST SWAP2 DUP6 DUP5 ADD MLOAD SWAP1 PUSH1 0xFF DUP3 AND DUP3 SUB PUSH3 0x729 JUMPI PUSH1 0x60 DUP6 ADD MLOAD PUSH1 0x80 DUP7 ADD MLOAD SWAP7 SWAP1 SWAP4 SWAP1 PUSH1 0x1 PUSH1 0x1 PUSH1 0xA0 SHL SUB DUP9 AND DUP9 SUB PUSH3 0x729 JUMPI DUP2 PUSH1 0xBF DUP9 ADD SLT ISZERO PUSH3 0x729 JUMPI DUP9 MLOAD SWAP7 PUSH1 0x60 DUP9 ADD PUSH1 0x1 PUSH1 0x1 PUSH1 0x40 SHL SUB DUP2 GT DUP10 DUP3 LT OR PUSH3 0x5D1 JUMPI DUP11 MSTORE DUP8 SWAP2 DUP2 ADD SWAP3 DUP4 GT PUSH3 0x729 JUMPI PUSH1 0xA0 ADD SWAP1 JUMPDEST DUP3 DUP3 LT PUSH3 0x718 JUMPI POP POP DUP2 MLOAD SWAP2 SWAP1 POP PUSH1 0x1 PUSH1 0x1 PUSH1 0x40 SHL SUB DUP3 GT PUSH3 0x5D1 JUMPI PUSH1 0x3 SLOAD SWAP1 PUSH1 0x1 DUP3 DUP2 SHR SWAP3 AND DUP1 ISZERO PUSH3 0x70D JUMPI JUMPDEST PUSH1 0x20 DUP4 LT EQ PUSH3 0x6F7 JUMPI DUP2 PUSH1 0x1F DUP5 SWAP4 GT PUSH3 0x682 JUMPI JUMPDEST POP PUSH1 0x20 SWAP1 PUSH1 0x1F DUP4 GT PUSH1 0x1 EQ PUSH3 0x5F3 JUMPI PUSH1 0x0 SWAP3 PUSH3 0x5E7 JUMPI JUMPDEST POP POP DUP2 PUSH1 0x1 SHL SWAP2 PUSH1 0x0 NOT SWAP1 PUSH1 0x3 SHL SHR NOT AND OR PUSH1 0x3 SSTORE JUMPDEST DUP3 MLOAD PUSH1 0x1 PUSH1 0x1 PUSH1 0x40 SHL SUB DUP2 GT PUSH3 0x5D1 JUMPI PUSH1 0x4 SWAP4 DUP5 SLOAD PUSH1 0x1 DUP2 DUP2 SHR SWAP2 AND DUP1 ISZERO PUSH3 0x5C6 JUMPI JUMPDEST PUSH1 0x20 DUP3 LT EQ PUSH3 0x5B1 JUMPI SWAP1 DUP2 PUSH1 0x1F DUP5 SWAP4 GT PUSH3 0x559 JUMPI JUMPDEST POP PUSH1 0x20 SWAP1 PUSH1 0x1F DUP4 GT PUSH1 0x1 EQ PUSH3 0x4EE JUMPI PUSH1 0x0 SWAP3 PUSH3 0x4E2 JUMPI JUMPDEST POP POP DUP2 PUSH1 0x1 SHL SWAP2 PUSH1 0x0 NOT SWAP1 PUSH1 0x3 SHL SHR NOT AND OR DUP4 SSTORE JUMPDEST PUSH1 0x1 PUSH1 0x1 PUSH1 0xA0 SHL SUB DUP6 AND ISZERO PUSH3 0x4CB JUMPI PUSH1 0x5 DUP1 SLOAD PUSH1 0x1 PUSH1 0x1 PUSH1 0xA0 SHL SUB DUP8 DUP2 AND PUSH1 0x1 PUSH1 0x1 PUSH1 0xA0 SHL SUB NOT DUP4 AND DUP2 OR SWAP1 SWAP4 SSTORE AND PUSH32 0x8BE0079C531659141344CD1FD0A4F28419497F9722A3DAAFE3B4186F6B6457E0 PUSH1 0x0 DUP1 LOG3 DUP2 ISZERO PUSH3 0x47C JUMPI PUSH1 0x80 MSTORE PUSH1 0x2 SLOAD DUP2 DUP2 ADD DUP1 SWAP2 GT PUSH3 0x467 JUMPI PUSH1 0x2 SSTORE PUSH1 0x1 PUSH1 0x1 PUSH1 0xA0 SHL SUB DUP5 AND PUSH1 0x0 DUP2 DUP2 MSTORE PUSH1 0x20 DUP2 DUP2 MSTORE DUP8 DUP3 KECCAK256 DUP1 SLOAD DUP6 ADD SWAP1 SSTORE DUP8 MLOAD DUP5 DUP2 MSTORE DUP9 SWAP6 SWAP5 SWAP4 SWAP3 SWAP2 PUSH32 0xDDF252AD1BE2C89B69C2B068FC378DAA952BA7F163C4A11628F55A4DF523B3EF SWAP2 LOG3 DUP4 MLOAD DUP1 ISZERO DUP1 ISZERO DUP1 SWAP2 PUSH3 0x459 JUMPI JUMPDEST DUP1 ISZERO PUSH3 0x44C JUMPI JUMPDEST PUSH3 0x2E6 JUMPI JUMPDEST DUP5 DUP8 PUSH1 0x1 DUP1 PUSH1 0xA0 SHL SUB AND PUSH1 0x0 MSTORE PUSH1 0xB PUSH1 0x20 MSTORE DUP1 PUSH1 0x0 KECCAK256 PUSH1 0xFF NOT SWAP1 PUSH1 0x1 DUP3 DUP3 SLOAD AND OR SWAP1 SSTORE ADDRESS PUSH1 0x0 MSTORE PUSH1 0x1 DUP3 PUSH1 0x0 KECCAK256 SWAP2 DUP3 SLOAD AND OR SWAP1 SSTORE PUSH1 0x0 PUSH1 0x9 SSTORE MLOAD PUSH2 0xF9C SWAP1 DUP2 PUSH3 0x7F1 DUP3 CODECOPY PUSH1 0x80 MLOAD DUP2 PUSH2 0x7C4 ADD MSTORE RETURN JUMPDEST PUSH1 0x5 DUP1 SLOAD PUSH1 0xFF PUSH1 0xA0 SHL NOT AND PUSH1 0x1 PUSH1 0xA0 SHL OR SWAP1 SSTORE PUSH3 0x3DE JUMPI JUMPDEST POP PUSH1 0x20 DUP5 ADD DUP1 MLOAD SWAP3 DUP4 PUSH3 0x34E JUMPI JUMPDEST POP POP POP POP PUSH1 0x60 SWAP1 PUSH1 0x0 DUP1 MLOAD PUSH1 0x20 PUSH3 0x178D DUP4 CODECOPY DUP2 MLOAD SWAP2 MSTORE SWAP3 ADD MLOAD DUP1 PUSH1 0x8 SSTORE PUSH1 0x6 SLOAD SWAP1 PUSH1 0x7 SLOAD DUP7 MLOAD SWAP3 DUP4 MSTORE PUSH1 0x20 DUP4 ADD MSTORE DUP6 DUP3 ADD MSTORE LOG1 CODESIZE DUP3 DUP2 DUP1 DUP1 DUP1 PUSH3 0x296 JUMP JUMPDEST SWAP1 SWAP2 SWAP3 SWAP4 POP PUSH2 0x2710 DUP1 SWAP5 GT PUSH3 0x390 JUMPI POP SWAP3 PUSH1 0x60 SWAP3 PUSH3 0x382 DUP8 SWAP4 PUSH1 0x0 DUP1 MLOAD PUSH1 0x20 PUSH3 0x178D DUP4 CODECOPY DUP2 MLOAD SWAP2 MSTORE SWAP7 MLOAD SWAP1 PUSH3 0x7C6 JUMP JUMPDEST DIV PUSH1 0x7 SSTORE SWAP3 DUP2 SWAP3 CODESIZE PUSH3 0x30E JUMP JUMPDEST PUSH1 0x84 SWAP1 PUSH1 0x20 DUP9 MLOAD SWAP2 PUSH3 0x461BCD PUSH1 0xE5 SHL DUP4 MSTORE DUP3 ADD MSTORE PUSH1 0x22 PUSH1 0x24 DUP3 ADD MSTORE PUSH32 0x4D61782077616C6C65742070657263656E74206D757374206265203C3D203130 PUSH1 0x44 DUP3 ADD MSTORE PUSH2 0x3025 PUSH1 0xF0 SHL PUSH1 0x64 DUP3 ADD MSTORE REVERT JUMPDEST SWAP1 SWAP2 SWAP3 POP PUSH2 0x2710 DUP1 SWAP2 GT PUSH3 0x409 JUMPI SWAP1 DUP6 SWAP3 SWAP2 PUSH3 0x3FE DUP6 MLOAD DUP4 PUSH3 0x7C6 JUMP JUMPDEST DIV PUSH1 0x6 SSTORE CODESIZE PUSH3 0x2FF JUMP JUMPDEST DUP6 MLOAD PUSH3 0x461BCD PUSH1 0xE5 SHL DUP2 MSTORE PUSH1 0x20 DUP2 DUP6 ADD MSTORE PUSH1 0x1E PUSH1 0x24 DUP3 ADD MSTORE PUSH32 0x4D61782074782070657263656E74206D757374206265203C3D20313030250000 PUSH1 0x44 DUP3 ADD MSTORE PUSH1 0x64 SWAP1 REVERT JUMPDEST POP DUP5 DUP7 ADD MLOAD ISZERO ISZERO PUSH3 0x290 JUMP JUMPDEST POP PUSH1 0x20 DUP7 ADD MLOAD ISZERO ISZERO PUSH3 0x288 JUMP JUMPDEST PUSH1 0x11 DUP4 PUSH4 0x4E487B71 PUSH1 0xE0 SHL PUSH1 0x0 MSTORE MSTORE PUSH1 0x24 PUSH1 0x0 REVERT JUMPDEST DUP6 MLOAD PUSH3 0x461BCD PUSH1 0xE5 SHL DUP2 MSTORE PUSH1 0x20 DUP2 DUP6 ADD MSTORE PUSH1 0x23 PUSH1 0x24 DUP3 ADD MSTORE PUSH32 0x546F74616C20737570706C79206D757374206265206772656174657220746861 PUSH1 0x44 DUP3 ADD MSTORE PUSH3 0x6E203 PUSH1 0xEC SHL PUSH1 0x64 DUP3 ADD MSTORE PUSH1 0x84 SWAP1 REVERT JUMPDEST DUP6 MLOAD PUSH4 0x1E4FBDF7 PUSH1 0xE0 SHL DUP2 MSTORE PUSH1 0x0 DUP2 DUP6 ADD MSTORE PUSH1 0x24 SWAP1 REVERT JUMPDEST ADD MLOAD SWAP1 POP CODESIZE DUP1 PUSH3 0x1AA JUMP JUMPDEST PUSH1 0x0 DUP8 DUP2 MSTORE PUSH1 0x20 DUP2 KECCAK256 SWAP4 POP PUSH1 0x1F NOT DUP6 AND SWAP1 JUMPDEST DUP2 DUP2 LT PUSH3 0x540 JUMPI POP SWAP1 DUP5 PUSH1 0x1 SWAP6 SWAP5 SWAP4 SWAP3 LT PUSH3 0x526 JUMPI JUMPDEST POP POP POP DUP2 SHL ADD DUP4 SSTORE PUSH3 0x1BF JUMP JUMPDEST ADD MLOAD PUSH1 0x0 NOT PUSH1 0xF8 DUP5 PUSH1 0x3 SHL AND SHR NOT AND SWAP1 SSTORE CODESIZE DUP1 DUP1 PUSH3 0x518 JUMP JUMPDEST SWAP3 SWAP4 PUSH1 0x20 PUSH1 0x1 DUP2 SWAP3 DUP8 DUP7 ADD MLOAD DUP2 SSTORE ADD SWAP6 ADD SWAP4 ADD PUSH3 0x500 JUMP JUMPDEST SWAP1 SWAP2 POP DUP6 PUSH1 0x0 MSTORE PUSH1 0x20 PUSH1 0x0 KECCAK256 PUSH1 0x1F DUP5 ADD PUSH1 0x5 SHR DUP2 ADD SWAP2 PUSH1 0x20 DUP6 LT PUSH3 0x5A6 JUMPI JUMPDEST SWAP1 PUSH1 0x1F DUP6 SWAP5 SWAP4 SWAP3 ADD PUSH1 0x5 SHR ADD SWAP1 JUMPDEST DUP2 DUP2 LT PUSH3 0x596 JUMPI POP PUSH3 0x191 JUMP JUMPDEST PUSH1 0x0 DUP2 SSTORE DUP5 SWAP4 POP PUSH1 0x1 ADD PUSH3 0x587 JUMP JUMPDEST SWAP1 SWAP2 POP DUP2 SWAP1 PUSH3 0x579 JUMP JUMPDEST PUSH1 0x22 DUP7 PUSH4 0x4E487B71 PUSH1 0xE0 SHL PUSH1 0x0 MSTORE MSTORE PUSH1 0x24 PUSH1 0x0 REVERT JUMPDEST SWAP1 PUSH1 0x7F AND SWAP1 PUSH3 0x17A JUMP JUMPDEST PUSH4 0x4E487B71 PUSH1 0xE0 SHL PUSH1 0x0 MSTORE PUSH1 0x41 PUSH1 0x4 MSTORE PUSH1 0x24 PUSH1 0x0 REVERT JUMPDEST ADD MLOAD SWAP1 POP CODESIZE DUP1 PUSH3 0x13F JUMP JUMPDEST PUSH1 0x3 PUSH1 0x0 SWAP1 DUP2 MSTORE SWAP4 POP PUSH32 0xC2575A0E9E593C00F959F8C92F12DB2869C3395A3B0502D05E2516446F71F85B SWAP2 SWAP1 JUMPDEST PUSH1 0x1F NOT DUP5 AND DUP6 LT PUSH3 0x666 JUMPI PUSH1 0x1 SWAP5 POP DUP4 PUSH1 0x1F NOT DUP2 AND LT PUSH3 0x64C JUMPI JUMPDEST POP POP POP DUP2 SHL ADD PUSH1 0x3 SSTORE PUSH3 0x155 JUMP JUMPDEST ADD MLOAD PUSH1 0x0 NOT PUSH1 0xF8 DUP5 PUSH1 0x3 SHL AND SHR NOT AND SWAP1 SSTORE CODESIZE DUP1 DUP1 PUSH3 0x63D JUMP JUMPDEST DUP2 DUP2 ADD MLOAD DUP4 SSTORE PUSH1 0x20 SWAP5 DUP6 ADD SWAP5 PUSH1 0x1 SWAP1 SWAP4 ADD SWAP3 SWAP1 SWAP2 ADD SWAP1 PUSH3 0x620 JUMP JUMPDEST PUSH1 0x3 PUSH1 0x0 MSTORE SWAP1 SWAP2 POP PUSH32 0xC2575A0E9E593C00F959F8C92F12DB2869C3395A3B0502D05E2516446F71F85B PUSH1 0x1F DUP5 ADD PUSH1 0x5 SHR DUP2 ADD SWAP2 PUSH1 0x20 DUP6 LT PUSH3 0x6EC JUMPI JUMPDEST SWAP1 PUSH1 0x1F DUP6 SWAP5 SWAP4 SWAP3 ADD PUSH1 0x5 SHR ADD SWAP1 JUMPDEST DUP2 DUP2 LT PUSH3 0x6DC JUMPI POP PUSH3 0x126 JUMP JUMPDEST PUSH1 0x0 DUP2 SSTORE DUP5 SWAP4 POP PUSH1 0x1 ADD PUSH3 0x6CD JUMP JUMPDEST SWAP1 SWAP2 POP DUP2 SWAP1 PUSH3 0x6BF JUMP JUMPDEST PUSH4 0x4E487B71 PUSH1 0xE0 SHL PUSH1 0x0 MSTORE PUSH1 0x22 PUSH1 0x4 MSTORE PUSH1 0x24 PUSH1 0x0 REVERT JUMPDEST SWAP2 PUSH1 0x7F AND SWAP2 PUSH3 0x110 JUMP JUMPDEST DUP2 MLOAD DUP2 MSTORE PUSH1 0x20 SWAP2 DUP3 ADD SWAP2 ADD PUSH3 0xDF JUMP JUMPDEST PUSH1 0x0 DUP1 REVERT JUMPDEST PUSH1 0x40 MLOAD SWAP2 SWAP1 PUSH1 0x1F ADD PUSH1 0x1F NOT AND DUP3 ADD PUSH1 0x1 PUSH1 0x1 PUSH1 0x40 SHL SUB DUP2 GT DUP4 DUP3 LT OR PUSH3 0x5D1 JUMPI PUSH1 0x40 MSTORE JUMP JUMPDEST SWAP2 SWAP1 DUP1 PUSH1 0x1F DUP5 ADD SLT ISZERO PUSH3 0x729 JUMPI DUP3 MLOAD PUSH1 0x1 PUSH1 0x1 PUSH1 0x40 SHL SUB DUP2 GT PUSH3 0x5D1 JUMPI PUSH1 0x20 SWAP1 PUSH3 0x78A PUSH1 0x1F DUP3 ADD PUSH1 0x1F NOT AND DUP4 ADD PUSH3 0x72E JUMP JUMPDEST SWAP3 DUP2 DUP5 MSTORE DUP3 DUP3 DUP8 ADD ADD GT PUSH3 0x729 JUMPI PUSH1 0x0 JUMPDEST DUP2 DUP2 LT PUSH3 0x7B2 JUMPI POP DUP3 PUSH1 0x0 SWAP4 SWAP5 SWAP6 POP ADD ADD MSTORE SWAP1 JUMP JUMPDEST DUP6 DUP2 ADD DUP4 ADD MLOAD DUP5 DUP3 ADD DUP5 ADD MSTORE DUP3 ADD PUSH3 0x79C JUMP JUMPDEST DUP2 DUP2 MUL SWAP3 SWAP2 DUP2 ISZERO SWAP2 DUP5 DIV EQ OR ISZERO PUSH3 0x7DA JUMPI JUMP JUMPDEST PUSH4 0x4E487B71 PUSH1 0xE0 SHL PUSH1 0x0 MSTORE PUSH1 0x11 PUSH1 0x4 MSTORE PUSH1 0x24 PUSH1 0x0 REVERT INVALID PUSH1 0x80 PUSH1 0x40 DUP2 DUP2 MSTORE PUSH1 0x4 DUP1 CALLDATASIZE LT ISZERO PUSH2 0x15 JUMPI PUSH1 0x0 DUP1 REVERT JUMPDEST PUSH1 0x0 SWAP3 DUP4 CALLDATALOAD PUSH1 0xE0 SHR SWAP1 DUP2 PUSH4 0x6FDDE03 EQ PUSH2 0x9D8 JUMPI POP DUP1 PUSH4 0x7CE9DE4 EQ PUSH2 0x9A3 JUMPI DUP1 PUSH4 0x95EA7B3 EQ PUSH2 0x8FA JUMPI DUP1 PUSH4 0x18160DDD EQ PUSH2 0x8DB JUMPI DUP1 PUSH4 0x23B872DD EQ PUSH2 0x7E8 JUMPI DUP1 PUSH4 0x313CE567 EQ PUSH2 0x7AA JUMPI DUP1 PUSH4 0x34B7F7AE EQ PUSH2 0x78B JUMPI DUP1 PUSH4 0x36FDDB04 EQ PUSH2 0x709 JUMPI DUP1 PUSH4 0x5CCE86CD EQ PUSH2 0x6CB JUMPI DUP1 PUSH4 0x70A08231 EQ PUSH2 0x694 JUMPI DUP1 PUSH4 0x715018A6 EQ PUSH2 0x634 JUMPI DUP1 PUSH4 0x8A8C523C EQ PUSH2 0x5A1 JUMPI DUP1 PUSH4 0x8DA5CB5B EQ PUSH2 0x578 JUMPI DUP1 PUSH4 0x8EC3E56B EQ PUSH2 0x3AD JUMPI DUP1 PUSH4 0x95D89B41 EQ PUSH2 0x2A9 JUMPI DUP1 PUSH4 0xA9059CBB EQ PUSH2 0x278 JUMPI DUP1 PUSH4 0xAA4BDE28 EQ PUSH2 0x259 JUMPI DUP1 PUSH4 0xC31FE80A EQ PUSH2 0x23A JUMPI DUP1 PUSH4 0xC8C8EBE4 EQ PUSH2 0x21B JUMPI DUP1 PUSH4 0xD8C6404B EQ PUSH2 0x1F4 JUMPI DUP1 PUSH4 0xDD62ED3E EQ PUSH2 0x1A7 JUMPI PUSH4 0xF2FDE38B EQ PUSH2 0x115 JUMPI PUSH1 0x0 DUP1 REVERT JUMPDEST CALLVALUE PUSH2 0x1A3 JUMPI PUSH1 0x20 CALLDATASIZE PUSH1 0x3 NOT ADD SLT PUSH2 0x1A3 JUMPI PUSH2 0x12E PUSH2 0xB13 JUMP JUMPDEST SWAP1 PUSH2 0x137 PUSH2 0xB44 JUMP JUMPDEST PUSH1 0x1 PUSH1 0x1 PUSH1 0xA0 SHL SUB SWAP2 DUP3 AND SWAP3 DUP4 ISZERO PUSH2 0x18D JUMPI POP POP PUSH1 0x5 SLOAD DUP3 PUSH12 0xFFFFFFFFFFFFFFFFFFFFFFFF PUSH1 0xA0 SHL DUP3 AND OR PUSH1 0x5 SSTORE AND PUSH32 0x8BE0079C531659141344CD1FD0A4F28419497F9722A3DAAFE3B4186F6B6457E0 DUP4 DUP1 LOG3 DUP1 RETURN JUMPDEST MLOAD PUSH4 0x1E4FBDF7 PUSH1 0xE0 SHL DUP2 MSTORE SWAP1 DUP2 ADD DUP5 SWAP1 MSTORE PUSH1 0x24 SWAP1 REVERT JUMPDEST DUP3 DUP1 REVERT JUMPDEST POP POP CALLVALUE PUSH2 0x1F0 JUMPI DUP1 PUSH1 0x3 NOT CALLDATASIZE ADD SLT PUSH2 0x1F0 JUMPI DUP1 PUSH1 0x20 SWAP3 PUSH2 0x1C5 PUSH2 0xB13 JUMP JUMPDEST PUSH2 0x1CD PUSH2 0xB2E JUMP JUMPDEST PUSH1 0x1 PUSH1 0x1 PUSH1 0xA0 SHL SUB SWAP2 DUP3 AND DUP4 MSTORE PUSH1 0x1 DUP7 MSTORE DUP4 DUP4 KECCAK256 SWAP2 AND DUP3 MSTORE DUP5 MSTORE KECCAK256 SLOAD SWAP1 MLOAD SWAP1 DUP2 MSTORE RETURN JUMPDEST POP DUP1 REVERT JUMPDEST POP POP CALLVALUE PUSH2 0x1F0 JUMPI DUP2 PUSH1 0x3 NOT CALLDATASIZE ADD SLT PUSH2 0x1F0 JUMPI PUSH1 0x20 SWAP1 PUSH1 0xFF PUSH1 0x5 SLOAD PUSH1 0xA0 SHR AND SWAP1 MLOAD SWAP1 ISZERO ISZERO DUP2 MSTORE RETURN JUMPDEST POP POP CALLVALUE PUSH2 0x1F0 JUMPI DUP2 PUSH1 0x3 NOT CALLDATASIZE ADD SLT PUSH2 0x1F0 JUMPI PUSH1 0x20 SWAP1 PUSH1 0x6 SLOAD SWAP1 MLOAD SWAP1 DUP2 MSTORE RETURN JUMPDEST POP POP CALLVALUE PUSH2 0x1F0 JUMPI DUP2 PUSH1 0x3 NOT CALLDATASIZE ADD SLT PUSH2 0x1F0 JUMPI PUSH1 0x20 SWAP1 PUSH1 0x9 SLOAD SWAP1 MLOAD SWAP1 DUP2 MSTORE RETURN JUMPDEST POP POP CALLVALUE PUSH2 0x1F0 JUMPI DUP2 PUSH1 0x3 NOT CALLDATASIZE ADD SLT PUSH2 0x1F0 JUMPI PUSH1 0x20 SWAP1 PUSH1 0x7 SLOAD SWAP1 MLOAD SWAP1 DUP2 MSTORE RETURN JUMPDEST POP POP CALLVALUE PUSH2 0x1F0 JUMPI DUP1 PUSH1 0x3 NOT CALLDATASIZE ADD SLT PUSH2 0x1F0 JUMPI PUSH1 0x20 SWAP1 PUSH2 0x2A2 PUSH2 0x298 PUSH2 0xB13 JUMP JUMPDEST PUSH1 0x24 CALLDATALOAD SWAP1 CALLER PUSH2 0xBA8 JUMP JUMPDEST MLOAD PUSH1 0x1 DUP2 MSTORE RETURN JUMPDEST POP SWAP2 SWAP1 CALLVALUE PUSH2 0x1F0 JUMPI DUP2 PUSH1 0x3 NOT CALLDATASIZE ADD SLT PUSH2 0x1F0 JUMPI DUP1 MLOAD SWAP2 DUP1 SWAP4 DUP1 SLOAD SWAP2 PUSH1 0x1 SWAP1 DUP4 DUP3 SHR SWAP3 DUP3 DUP6 AND SWAP5 DUP6 ISZERO PUSH2 0x3A3 JUMPI JUMPDEST PUSH1 0x20 SWAP6 DUP7 DUP7 LT DUP2 EQ PUSH2 0x390 JUMPI DUP6 DUP10 MSTORE SWAP1 DUP2 ISZERO PUSH2 0x36C JUMPI POP PUSH1 0x1 EQ PUSH2 0x314 JUMPI JUMPDEST PUSH2 0x310 DUP8 DUP8 PUSH2 0x306 DUP3 DUP13 SUB DUP4 PUSH2 0xB70 JUMP JUMPDEST MLOAD SWAP2 DUP3 SWAP2 DUP3 PUSH2 0xACA JUMP JUMPDEST SUB SWAP1 RETURN JUMPDEST DUP2 MSTORE SWAP3 SWAP6 POP PUSH32 0x8A35ACFBC15FF81A39AE7D344FD709F28E8600B4AA8C65C6B64BFE7FE36BD19B JUMPDEST DUP3 DUP5 LT PUSH2 0x359 JUMPI POP POP POP DUP3 PUSH2 0x310 SWAP5 PUSH2 0x306 SWAP3 DUP3 ADD ADD SWAP5 CODESIZE DUP1 PUSH2 0x2F5 JUMP JUMPDEST DUP1 SLOAD DUP7 DUP6 ADD DUP9 ADD MSTORE SWAP3 DUP7 ADD SWAP3 DUP2 ADD PUSH2 0x33B JUMP JUMPDEST PUSH1 0xFF NOT AND DUP9 DUP8 ADD MSTORE POP POP POP POP ISZERO ISZERO PUSH1 0x5 SHL DUP4 ADD ADD SWAP3 POP PUSH2 0x306 DUP3 PUSH2 0x310 CODESIZE DUP1 PUSH2 0x2F5 JUMP JUMPDEST PUSH4 0x4E487B71 PUSH1 0xE0 SHL DUP5 MSTORE PUSH1 0x22 DUP4 MSTORE PUSH1 0x24 DUP5 REVERT JUMPDEST SWAP4 PUSH1 0x7F AND SWAP4 PUSH2 0x2D6 JUMP JUMPDEST POP DUP3 SWAP1 CALLVALUE PUSH2 0x1F0 JUMPI PUSH1 0x60 CALLDATASIZE PUSH1 0x3 NOT ADD SLT PUSH2 0x1F0 JUMPI DUP1 CALLDATALOAD SWAP1 PUSH2 0x3CC PUSH2 0xB44 JUMP JUMPDEST PUSH1 0x2 SLOAD DUP5 MLOAD SWAP3 PUSH1 0x60 DUP5 ADD DUP5 DUP2 LT PUSH8 0xFFFFFFFFFFFFFFFF DUP3 GT OR PUSH2 0x565 JUMPI DUP7 MSTORE DUP1 DUP5 MSTORE PUSH1 0x20 DUP5 ADD SWAP1 PUSH1 0x24 CALLDATALOAD DUP3 MSTORE DUP7 DUP6 ADD SWAP5 PUSH1 0x44 CALLDATALOAD DUP7 MSTORE PUSH1 0x1 PUSH1 0xA0 SHL PUSH1 0xFF PUSH1 0xA0 SHL NOT PUSH1 0x5 SLOAD AND OR PUSH1 0x5 SSTORE DUP2 PUSH2 0x502 JUMPI JUMPDEST POP POP DUP1 MLOAD SWAP3 DUP4 PUSH2 0x468 JUMPI JUMPDEST DUP6 PUSH32 0xE906ABDB2BBFAB8F7AEEBBD422EFEC75B734B8569D84012AE5C0513AA39AAF14 PUSH1 0x60 DUP10 DUP9 MLOAD DUP1 PUSH1 0x8 SSTORE PUSH1 0x6 SLOAD SWAP2 PUSH1 0x7 SLOAD DUP2 MLOAD SWAP4 DUP5 MSTORE PUSH1 0x20 DUP5 ADD MSTORE DUP3 ADD MSTORE LOG1 DUP1 RETURN JUMPDEST PUSH2 0x2710 DUP1 SWAP5 GT PUSH2 0x4B4 JUMPI POP SWAP2 PUSH2 0x4A6 PUSH1 0x60 SWAP5 SWAP3 PUSH32 0xE906ABDB2BBFAB8F7AEEBBD422EFEC75B734B8569D84012AE5C0513AA39AAF14 SWAP7 SWAP8 SWAP5 MLOAD SWAP1 PUSH2 0xF53 JUMP JUMPDEST DIV PUSH1 0x7 SSTORE SWAP2 DUP2 SWAP5 SWAP4 DUP7 PUSH2 0x425 JUMP JUMPDEST PUSH1 0x84 SWAP1 PUSH1 0x20 DUP9 MLOAD SWAP2 PUSH3 0x461BCD PUSH1 0xE5 SHL DUP4 MSTORE DUP3 ADD MSTORE PUSH1 0x22 PUSH1 0x24 DUP3 ADD MSTORE PUSH32 0x4D61782077616C6C65742070657263656E74206D757374206265203C3D203130 PUSH1 0x44 DUP3 ADD MSTORE PUSH2 0x3025 PUSH1 0xF0 SHL PUSH1 0x64 DUP3 ADD MSTORE REVERT JUMPDEST PUSH2 0x2710 DUP1 SWAP3 GT PUSH2 0x522 JUMPI PUSH2 0x517 SWAP1 MLOAD DUP5 PUSH2 0xF53 JUMP JUMPDEST DIV PUSH1 0x6 SSTORE DUP7 DUP1 PUSH2 0x41A JUMP JUMPDEST DUP8 MLOAD PUSH3 0x461BCD PUSH1 0xE5 SHL DUP2 MSTORE PUSH1 0x20 DUP2 DUP8 ADD MSTORE PUSH1 0x1E PUSH1 0x24 DUP3 ADD MSTORE PUSH32 0x4D61782074782070657263656E74206D757374206265203C3D20313030250000 PUSH1 0x44 DUP3 ADD MSTORE PUSH1 0x64 SWAP1 REVERT JUMPDEST PUSH4 0x4E487B71 PUSH1 0xE0 SHL DUP7 MSTORE PUSH1 0x41 DUP5 MSTORE PUSH1 0x24 DUP7 REVERT JUMPDEST POP POP CALLVALUE PUSH2 0x1F0 JUMPI DUP2 PUSH1 0x3 NOT CALLDATASIZE ADD SLT PUSH2 0x1F0 JUMPI PUSH1 0x5 SLOAD SWAP1 MLOAD PUSH1 0x1 PUSH1 0x1 PUSH1 0xA0 SHL SUB SWAP1 SWAP2 AND DUP2 MSTORE PUSH1 0x20 SWAP1 RETURN JUMPDEST POP CALLVALUE PUSH2 0x1A3 JUMPI DUP3 PUSH1 0x3 NOT CALLDATASIZE ADD SLT PUSH2 0x1A3 JUMPI PUSH2 0x5BA PUSH2 0xB44 JUMP JUMPDEST PUSH1 0x9 SLOAD PUSH2 0x5F2 JUMPI POP PUSH1 0x20 PUSH32 0xB3DA2DB3DFC3778F99852546C6E9AB39EC253F9DE7B0847AFEC61BD27878E923 SWAP2 TIMESTAMP PUSH1 0x9 SSTORE MLOAD TIMESTAMP DUP2 MSTORE LOG1 DUP1 RETURN JUMPDEST PUSH1 0x20 PUSH1 0x64 SWAP3 MLOAD SWAP2 PUSH3 0x461BCD PUSH1 0xE5 SHL DUP4 MSTORE DUP3 ADD MSTORE PUSH1 0x17 PUSH1 0x24 DUP3 ADD MSTORE PUSH32 0x54726164696E6720616C726561647920656E61626C6564000000000000000000 PUSH1 0x44 DUP3 ADD MSTORE REVERT JUMPDEST DUP4 CALLVALUE PUSH2 0x691 JUMPI DUP1 PUSH1 0x3 NOT CALLDATASIZE ADD SLT PUSH2 0x691 JUMPI PUSH2 0x64D PUSH2 0xB44 JUMP JUMPDEST PUSH1 0x5 DUP1 SLOAD PUSH1 0x1 PUSH1 0x1 PUSH1 0xA0 SHL SUB NOT DUP2 AND SWAP1 SWAP2 SSTORE DUP2 SWAP1 PUSH1 0x1 PUSH1 0x1 PUSH1 0xA0 SHL SUB AND PUSH32 0x8BE0079C531659141344CD1FD0A4F28419497F9722A3DAAFE3B4186F6B6457E0 DUP3 DUP1 LOG3 DUP1 RETURN JUMPDEST DUP1 REVERT JUMPDEST POP POP CALLVALUE PUSH2 0x1F0 JUMPI PUSH1 0x20 CALLDATASIZE PUSH1 0x3 NOT ADD SLT PUSH2 0x1F0 JUMPI PUSH1 0x20 SWAP2 DUP2 SWAP1 PUSH1 0x1 PUSH1 0x1 PUSH1 0xA0 SHL SUB PUSH2 0x6BC PUSH2 0xB13 JUMP JUMPDEST AND DUP2 MSTORE DUP1 DUP5 MSTORE KECCAK256 SLOAD SWAP1 MLOAD SWAP1 DUP2 MSTORE RETURN JUMPDEST POP POP CALLVALUE PUSH2 0x1F0 JUMPI PUSH1 0x20 CALLDATASIZE PUSH1 0x3 NOT ADD SLT PUSH2 0x1F0 JUMPI PUSH1 0x20 SWAP2 PUSH1 0xFF SWAP1 DUP3 SWAP1 PUSH1 0x1 PUSH1 0x1 PUSH1 0xA0 SHL SUB PUSH2 0x6F6 PUSH2 0xB13 JUMP JUMPDEST AND DUP2 MSTORE PUSH1 0xB DUP6 MSTORE KECCAK256 SLOAD AND SWAP1 MLOAD SWAP1 ISZERO ISZERO DUP2 MSTORE RETURN JUMPDEST POP POP CALLVALUE PUSH2 0x1F0 JUMPI DUP1 PUSH1 0x3 NOT CALLDATASIZE ADD SLT PUSH2 0x1F0 JUMPI PUSH2 0x723 PUSH2 0xB13 JUMP JUMPDEST PUSH1 0x24 CALLDATALOAD SWAP1 DUP2 ISZERO ISZERO DUP1 SWAP3 SUB PUSH2 0x787 JUMPI PUSH32 0x74392251B09500CC108C71712E5E7E0392BE9075A74A24F1494551CFA8E06870 SWAP2 PUSH1 0x20 SWAP2 PUSH2 0x75E PUSH2 0xB44 JUMP JUMPDEST PUSH1 0x1 PUSH1 0x1 PUSH1 0xA0 SHL SUB AND DUP1 DUP7 MSTORE PUSH1 0xB DUP4 MSTORE DUP5 DUP7 KECCAK256 DUP1 SLOAD PUSH1 0xFF NOT AND PUSH1 0xFF DUP5 AND OR SWAP1 SSTORE SWAP4 MLOAD SWAP1 DUP2 MSTORE LOG2 DUP1 RETURN JUMPDEST DUP4 DUP1 REVERT JUMPDEST POP POP CALLVALUE PUSH2 0x1F0 JUMPI DUP2 PUSH1 0x3 NOT CALLDATASIZE ADD SLT PUSH2 0x1F0 JUMPI PUSH1 0x20 SWAP1 PUSH1 0x8 SLOAD SWAP1 MLOAD SWAP1 DUP2 MSTORE RETURN JUMPDEST POP POP CALLVALUE PUSH2 0x1F0 JUMPI DUP2 PUSH1 0x3 NOT CALLDATASIZE ADD SLT PUSH2 0x1F0 JUMPI PUSH1 0x20 SWAP1 MLOAD PUSH1 0xFF PUSH32 0x0 AND DUP2 MSTORE RETURN JUMPDEST POP DUP3 CALLVALUE PUSH2 0x691 JUMPI PUSH1 0x60 CALLDATASIZE PUSH1 0x3 NOT ADD SLT PUSH2 0x691 JUMPI PUSH2 0x803 PUSH2 0xB13 JUMP JUMPDEST PUSH2 0x80B PUSH2 0xB2E JUMP JUMPDEST SWAP2 PUSH1 0x44 CALLDATALOAD SWAP4 PUSH1 0x1 DUP1 PUSH1 0xA0 SHL SUB DUP4 AND DUP1 DUP4 MSTORE PUSH1 0x1 PUSH1 0x20 MSTORE DUP7 DUP4 KECCAK256 CALLER DUP5 MSTORE PUSH1 0x20 MSTORE DUP7 DUP4 KECCAK256 SLOAD SWAP2 PUSH1 0x0 NOT DUP4 LT PUSH2 0x847 JUMPI JUMPDEST PUSH1 0x20 DUP9 PUSH2 0x2A2 DUP10 DUP10 DUP10 PUSH2 0xBA8 JUMP JUMPDEST DUP7 DUP4 LT PUSH2 0x8AF JUMPI DUP2 ISZERO PUSH2 0x898 JUMPI CALLER ISZERO PUSH2 0x881 JUMPI POP DUP3 MSTORE PUSH1 0x1 PUSH1 0x20 SWAP1 DUP2 MSTORE DUP7 DUP4 KECCAK256 CALLER DUP5 MSTORE DUP2 MSTORE SWAP2 DUP7 SWAP1 KECCAK256 SWAP1 DUP6 SWAP1 SUB SWAP1 SSTORE DUP3 SWAP1 PUSH2 0x2A2 DUP8 PUSH2 0x839 JUMP JUMPDEST DUP8 MLOAD PUSH4 0x4A1406B1 PUSH1 0xE1 SHL DUP2 MSTORE SWAP1 DUP2 ADD DUP5 SWAP1 MSTORE PUSH1 0x24 SWAP1 REVERT JUMPDEST DUP8 MLOAD PUSH4 0xE602DF05 PUSH1 0xE0 SHL DUP2 MSTORE SWAP1 DUP2 ADD DUP5 SWAP1 MSTORE PUSH1 0x24 SWAP1 REVERT JUMPDEST DUP8 MLOAD PUSH4 0x7DC7A0D9 PUSH1 0xE1 SHL DUP2 MSTORE CALLER SWAP2 DUP2 ADD SWAP2 DUP3 MSTORE PUSH1 0x20 DUP3 ADD SWAP4 SWAP1 SWAP4 MSTORE PUSH1 0x40 DUP2 ADD DUP8 SWAP1 MSTORE DUP3 SWAP2 POP PUSH1 0x60 ADD SUB SWAP1 REVERT JUMPDEST POP POP CALLVALUE PUSH2 0x1F0 JUMPI DUP2 PUSH1 0x3 NOT CALLDATASIZE ADD SLT PUSH2 0x1F0 JUMPI PUSH1 0x20 SWAP1 PUSH1 0x2 SLOAD SWAP1 MLOAD SWAP1 DUP2 MSTORE RETURN JUMPDEST POP CALLVALUE PUSH2 0x1A3 JUMPI DUP2 PUSH1 0x3 NOT CALLDATASIZE ADD SLT PUSH2 0x1A3 JUMPI PUSH2 0x913 PUSH2 0xB13 JUMP JUMPDEST PUSH1 0x24 CALLDATALOAD SWAP1 CALLER ISZERO PUSH2 0x98C JUMPI PUSH1 0x1 PUSH1 0x1 PUSH1 0xA0 SHL SUB AND SWAP2 DUP3 ISZERO PUSH2 0x975 JUMPI POP DUP1 DUP4 PUSH1 0x20 SWAP6 CALLER DUP2 MSTORE PUSH1 0x1 DUP8 MSTORE DUP2 DUP2 KECCAK256 DUP6 DUP3 MSTORE DUP8 MSTORE KECCAK256 SSTORE DUP3 MLOAD SWAP1 DUP2 MSTORE PUSH32 0x8C5BE1E5EBEC7D5BD14F71427D1E84F3DD0314C0F7B2291E5B200AC8C7C3B925 DUP5 CALLER SWAP3 LOG3 MLOAD PUSH1 0x1 DUP2 MSTORE RETURN JUMPDEST DUP4 MLOAD PUSH4 0x4A1406B1 PUSH1 0xE1 SHL DUP2 MSTORE SWAP1 DUP2 ADD DUP6 SWAP1 MSTORE PUSH1 0x24 SWAP1 REVERT JUMPDEST DUP4 MLOAD PUSH4 0xE602DF05 PUSH1 0xE0 SHL DUP2 MSTORE DUP1 DUP5 ADD DUP7 SWAP1 MSTORE PUSH1 0x24 SWAP1 REVERT JUMPDEST DUP4 CALLVALUE PUSH2 0x691 JUMPI DUP1 PUSH1 0x3 NOT CALLDATASIZE ADD SLT PUSH2 0x691 JUMPI PUSH2 0x9BC PUSH2 0xB44 JUMP JUMPDEST PUSH1 0xFF PUSH1 0xA0 SHL NOT PUSH1 0x5 SLOAD AND PUSH1 0x5 SSTORE DUP1 PUSH1 0x6 SSTORE DUP1 PUSH1 0x7 SSTORE DUP1 PUSH1 0x8 SSTORE DUP1 RETURN JUMPDEST SWAP3 SWAP2 SWAP1 POP CALLVALUE PUSH2 0x787 JUMPI DUP4 PUSH1 0x3 NOT CALLDATASIZE ADD SLT PUSH2 0x787 JUMPI PUSH1 0x3 SLOAD PUSH1 0x1 DUP2 DUP2 SHR SWAP2 DUP7 SWAP1 DUP3 DUP2 AND DUP1 ISZERO PUSH2 0xAC0 JUMPI JUMPDEST PUSH1 0x20 SWAP6 DUP7 DUP7 LT DUP3 EQ PUSH2 0xAAD JUMPI POP DUP5 DUP9 MSTORE SWAP1 DUP2 ISZERO PUSH2 0xA8B JUMPI POP PUSH1 0x1 EQ PUSH2 0xA32 JUMPI JUMPDEST PUSH2 0x310 DUP7 DUP7 PUSH2 0x306 DUP3 DUP12 SUB DUP4 PUSH2 0xB70 JUMP JUMPDEST SWAP3 SWAP6 POP PUSH1 0x3 DUP4 MSTORE PUSH32 0xC2575A0E9E593C00F959F8C92F12DB2869C3395A3B0502D05E2516446F71F85B JUMPDEST DUP3 DUP5 LT PUSH2 0xA78 JUMPI POP POP POP DUP3 PUSH2 0x310 SWAP5 PUSH2 0x306 SWAP3 DUP3 ADD ADD SWAP5 CODESIZE PUSH2 0xA21 JUMP JUMPDEST DUP1 SLOAD DUP7 DUP6 ADD DUP9 ADD MSTORE SWAP3 DUP7 ADD SWAP3 DUP2 ADD PUSH2 0xA5B JUMP JUMPDEST PUSH1 0xFF NOT AND DUP8 DUP7 ADD MSTORE POP POP POP ISZERO ISZERO PUSH1 0x5 SHL DUP4 ADD ADD SWAP3 POP PUSH2 0x306 DUP3 PUSH2 0x310 CODESIZE PUSH2 0xA21 JUMP JUMPDEST PUSH4 0x4E487B71 PUSH1 0xE0 SHL DUP5 MSTORE PUSH1 0x22 SWAP1 MSTORE PUSH1 0x24 DUP4 REVERT JUMPDEST SWAP4 PUSH1 0x7F AND SWAP4 PUSH2 0xA01 JUMP JUMPDEST PUSH1 0x20 DUP1 DUP3 MSTORE DUP3 MLOAD DUP2 DUP4 ADD DUP2 SWAP1 MSTORE SWAP1 SWAP4 SWAP3 PUSH1 0x0 JUMPDEST DUP3 DUP2 LT PUSH2 0xAFF JUMPI POP POP PUSH1 0x40 SWAP3 SWAP4 POP PUSH1 0x0 DUP4 DUP3 DUP5 ADD ADD MSTORE PUSH1 0x1F DUP1 NOT SWAP2 ADD AND ADD ADD SWAP1 JUMP JUMPDEST DUP2 DUP2 ADD DUP7 ADD MLOAD DUP5 DUP3 ADD PUSH1 0x40 ADD MSTORE DUP6 ADD PUSH2 0xADD JUMP JUMPDEST PUSH1 0x4 CALLDATALOAD SWAP1 PUSH1 0x1 PUSH1 0x1 PUSH1 0xA0 SHL SUB DUP3 AND DUP3 SUB PUSH2 0xB29 JUMPI JUMP JUMPDEST PUSH1 0x0 DUP1 REVERT JUMPDEST PUSH1 0x24 CALLDATALOAD SWAP1 PUSH1 0x1 PUSH1 0x1 PUSH1 0xA0 SHL SUB DUP3 AND DUP3 SUB PUSH2 0xB29 JUMPI JUMP JUMPDEST PUSH1 0x5 SLOAD PUSH1 0x1 PUSH1 0x1 PUSH1 0xA0 SHL SUB AND CALLER SUB PUSH2 0xB58 JUMPI JUMP JUMPDEST PUSH1 0x40 MLOAD PUSH4 0x118CDAA7 PUSH1 0xE0 SHL DUP2 MSTORE CALLER PUSH1 0x4 DUP3 ADD MSTORE PUSH1 0x24 SWAP1 REVERT JUMPDEST SWAP1 PUSH1 0x1F DUP1 NOT SWAP2 ADD AND DUP2 ADD SWAP1 DUP2 LT PUSH8 0xFFFFFFFFFFFFFFFF DUP3 GT OR PUSH2 0xB92 JUMPI PUSH1 0x40 MSTORE JUMP JUMPDEST PUSH4 0x4E487B71 PUSH1 0xE0 SHL PUSH1 0x0 MSTORE PUSH1 0x41 PUSH1 0x4 MSTORE PUSH1 0x24 PUSH1 0x0 REVERT JUMPDEST SWAP2 SWAP1 PUSH1 0x1 PUSH1 0x1 PUSH1 0xA0 SHL SUB DUP1 DUP5 AND ISZERO PUSH2 0xBE5 JUMPI DUP2 AND ISZERO PUSH2 0xBCC JUMPI PUSH2 0xBCA SWAP3 PUSH2 0xC21 JUMP JUMPDEST JUMP JUMPDEST PUSH1 0x40 MLOAD PUSH4 0xEC442F05 PUSH1 0xE0 SHL DUP2 MSTORE PUSH1 0x0 PUSH1 0x4 DUP3 ADD MSTORE PUSH1 0x24 SWAP1 REVERT JUMPDEST PUSH1 0x40 MLOAD PUSH4 0x4B637E8F PUSH1 0xE1 SHL DUP2 MSTORE PUSH1 0x0 PUSH1 0x4 DUP3 ADD MSTORE PUSH1 0x24 SWAP1 REVERT JUMPDEST SWAP2 SWAP1 DUP3 ADD DUP1 SWAP3 GT PUSH2 0xC0B JUMPI JUMP JUMPDEST PUSH4 0x4E487B71 PUSH1 0xE0 SHL PUSH1 0x0 MSTORE PUSH1 0x11 PUSH1 0x4 MSTORE PUSH1 0x24 PUSH1 0x0 REVERT JUMPDEST PUSH1 0x1 PUSH1 0x1 PUSH1 0xA0 SHL SUB DUP1 DUP3 AND SWAP4 SWAP3 SWAP2 SWAP1 DUP5 ISZERO DUP1 ISZERO PUSH2 0xE4C JUMPI JUMPDEST DUP1 ISZERO PUSH2 0xE34 JUMPI JUMPDEST DUP1 ISZERO PUSH2 0xE1A JUMPI JUMPDEST PUSH2 0xC61 JUMPI PUSH1 0x9 SLOAD ISZERO PUSH2 0xDD5 JUMPI PUSH1 0xFF PUSH1 0x5 SLOAD PUSH1 0xA0 SHR AND PUSH2 0xC6C JUMPI JUMPDEST POP PUSH2 0xBCA SWAP4 POP PUSH2 0xE56 JUMP JUMPDEST PUSH1 0x6 SLOAD DUP1 PUSH2 0xD84 JUMPI JUMPDEST POP PUSH1 0x7 SLOAD SWAP1 DUP2 ISZERO ISZERO DUP1 PUSH2 0xD79 JUMPI JUMPDEST PUSH2 0xD0F JUMPI JUMPDEST POP POP PUSH1 0x8 SLOAD DUP1 ISZERO PUSH2 0xC61 JUMPI PUSH2 0xCAB SWAP1 DUP6 PUSH1 0x0 MSTORE PUSH1 0xA PUSH1 0x20 MSTORE PUSH1 0x40 PUSH1 0x0 KECCAK256 SLOAD PUSH2 0xBFE JUMP JUMPDEST TIMESTAMP LT PUSH2 0xCCA JUMPI PUSH2 0xBCA SWAP4 PUSH1 0x0 MSTORE PUSH1 0xA PUSH1 0x20 MSTORE TIMESTAMP PUSH1 0x40 PUSH1 0x0 KECCAK256 SSTORE CODESIZE PUSH2 0xC61 JUMP JUMPDEST PUSH1 0x40 MLOAD PUSH3 0x461BCD PUSH1 0xE5 SHL DUP2 MSTORE PUSH1 0x20 PUSH1 0x4 DUP3 ADD MSTORE PUSH1 0x18 PUSH1 0x24 DUP3 ADD MSTORE PUSH32 0x5472616E7366657220636F6F6C646F776E206163746976650000000000000000 PUSH1 0x44 DUP3 ADD MSTORE PUSH1 0x64 SWAP1 REVERT JUMPDEST DUP4 AND PUSH1 0x0 MSTORE PUSH1 0x0 PUSH1 0x20 MSTORE PUSH2 0xD28 DUP5 PUSH1 0x40 PUSH1 0x0 KECCAK256 SLOAD PUSH2 0xBFE JUMP JUMPDEST GT PUSH2 0xD34 JUMPI CODESIZE DUP1 PUSH2 0xC88 JUMP JUMPDEST PUSH1 0x40 MLOAD PUSH3 0x461BCD PUSH1 0xE5 SHL DUP2 MSTORE PUSH1 0x20 PUSH1 0x4 DUP3 ADD MSTORE PUSH1 0x19 PUSH1 0x24 DUP3 ADD MSTORE PUSH32 0x45786365656473206D61782077616C6C657420616D6F756E7400000000000000 PUSH1 0x44 DUP3 ADD MSTORE PUSH1 0x64 SWAP1 REVERT JUMPDEST POP DUP1 DUP5 AND ISZERO ISZERO PUSH2 0xC83 JUMP JUMPDEST DUP5 GT PUSH2 0xD90 JUMPI CODESIZE PUSH2 0xC75 JUMP JUMPDEST PUSH1 0x40 MLOAD PUSH3 0x461BCD PUSH1 0xE5 SHL DUP2 MSTORE PUSH1 0x20 PUSH1 0x4 DUP3 ADD MSTORE PUSH1 0x1E PUSH1 0x24 DUP3 ADD MSTORE PUSH32 0x45786365656473206D6178207472616E73616374696F6E20616D6F756E740000 PUSH1 0x44 DUP3 ADD MSTORE PUSH1 0x64 SWAP1 REVERT JUMPDEST PUSH1 0x40 MLOAD PUSH3 0x461BCD PUSH1 0xE5 SHL DUP2 MSTORE PUSH1 0x20 PUSH1 0x4 DUP3 ADD MSTORE PUSH1 0x17 PUSH1 0x24 DUP3 ADD MSTORE PUSH32 0x54726164696E67206E6F7420656E61626C656420796574000000000000000000 PUSH1 0x44 DUP3 ADD MSTORE PUSH1 0x64 SWAP1 REVERT JUMPDEST POP DUP1 DUP4 AND PUSH1 0x0 MSTORE PUSH1 0xB PUSH1 0x20 MSTORE PUSH1 0xFF PUSH1 0x40 PUSH1 0x0 KECCAK256 SLOAD AND PUSH2 0xC47 JUMP JUMPDEST POP DUP5 PUSH1 0x0 MSTORE PUSH1 0xB PUSH1 0x20 MSTORE PUSH1 0xFF PUSH1 0x40 PUSH1 0x0 KECCAK256 SLOAD AND PUSH2 0xC40 JUMP JUMPDEST POP DUP1 DUP4 AND ISZERO PUSH2 0xC39 JUMP JUMPDEST PUSH1 0x1 PUSH1 0x1 PUSH1 0xA0 SHL SUB DUP1 DUP3 AND SWAP3 SWAP1 SWAP2 DUP4 PUSH2 0xED0 JUMPI POP PUSH32 0xDDF252AD1BE2C89B69C2B068FC378DAA952BA7F163C4A11628F55A4DF523B3EF SWAP2 PUSH1 0x20 SWAP2 PUSH2 0xE9B DUP7 PUSH1 0x2 SLOAD PUSH2 0xBFE JUMP JUMPDEST PUSH1 0x2 SSTORE JUMPDEST AND SWAP4 DUP5 PUSH2 0xEB8 JUMPI DUP1 PUSH1 0x2 SLOAD SUB PUSH1 0x2 SSTORE JUMPDEST PUSH1 0x40 MLOAD SWAP1 DUP2 MSTORE LOG3 JUMP JUMPDEST DUP5 PUSH1 0x0 MSTORE PUSH1 0x0 DUP3 MSTORE PUSH1 0x40 PUSH1 0x0 KECCAK256 DUP2 DUP2 SLOAD ADD SWAP1 SSTORE PUSH2 0xEAF JUMP JUMPDEST PUSH1 0x0 SWAP1 DUP5 DUP3 MSTORE DUP2 PUSH1 0x20 MSTORE PUSH1 0x40 DUP3 KECCAK256 SLOAD SWAP1 DUP7 DUP3 LT PUSH2 0xF21 JUMPI POP SWAP2 DUP2 PUSH1 0x40 DUP8 PUSH1 0x20 SWAP6 DUP9 PUSH32 0xDDF252AD1BE2C89B69C2B068FC378DAA952BA7F163C4A11628F55A4DF523B3EF SWAP9 SWAP7 MSTORE DUP4 DUP8 MSTORE SUB SWAP2 KECCAK256 SSTORE PUSH2 0xE9F JUMP JUMPDEST PUSH1 0x40 MLOAD PUSH4 0x391434E3 PUSH1 0xE2 SHL DUP2 MSTORE PUSH1 0x1 PUSH1 0x1 PUSH1 0xA0 SHL SUB SWAP2 SWAP1 SWAP2 AND PUSH1 0x4 DUP3 ADD MSTORE PUSH1 0x24 DUP2 ADD SWAP2 SWAP1 SWAP2 MSTORE PUSH1 0x44 DUP2 ADD DUP7 SWAP1 MSTORE PUSH1 0x64 SWAP1 REVERT JUMPDEST DUP2 DUP2 MUL SWAP3 SWAP2 DUP2 ISZERO SWAP2 DUP5 DIV EQ OR ISZERO PUSH2 0xC0B JUMPI JUMP INVALID LOG2 PUSH5 0x6970667358 0x22 SLT KECCAK256 0xBB SMOD SWAP6 0x29 0xB2 0x21 CALLDATACOPY 0xDB 0xD6 MSTORE8 LT BALANCE 0xC3 CALLVALUE SWAP11 SWAP3 0xC0 0x22 0xBE CALLDATALOAD DUP8 KECCAK256 GAS 0xD7 PUSH5 0x85B253476 BLOCKHASH COINBASE PUSH5 0x736F6C6343 STOP ADDMOD EQ STOP CALLER 0xE9 MOD 0xAB 0xDB 0x2B 0xBF 0xAB DUP16 PUSH27 0xEEBBD422EFEC75B734B8569D84012AE5C0513AA39AAF14A2646970 PUSH7 0x7358221220DF00 SUB DUP9 SWAP15 DUP3 ADDMOD 0xD1 DUP8 0xAE 0xC 0xA9 STATICCALL PUSH27 0x3A7317BD42B726B4F9B7063156E5493768764736F6C6343000814 STOP CALLER "},"methodIdentifiers":{"allTokens(uint256)":"634282af","createFairlaunchToken(string,string,uint8,uint256,uint256[3])":"3bff3c9f","createToken(string,string,uint8,uint256,uint256[3])":"d1ea066a","creationFee()":"dce0b4e4","creatorTokens(address,uint256)":"db3fa4cc","emergencyWithdraw(address)":"6ff1c9bc","fairlaunchFee()":"aa4dd4dd","getCreatorTokens(address)":"74abfa54","getTokenAtIndex(uint256)":"97988dce","getTotalTokensCreated()":"1d66d690","isFromFactory(address)":"2e2ecd8d","owner()":"8da5cb5b","renounceOwnership()":"715018a6","tokenInfo(address)":"f5dab711","transferOwnership(address)":"f2fde38b","treasuryWallet()":"4626402b","updateCreationFee(uint256)":"6fa23795","updateTreasuryWallet(address)":"809d458d"}}}}}