{"contracts/fees/FeeSplitter.sol":{"FeeSplitter":{"abi":[{"inputs":[{"internalType":"address payable","name":"_treasury","type":"address"},{"internalType":"address payable","name":"_referralPool","type":"address"},{"internalType":"address payable","name":"_sbtStaking","type":"address"},{"internalType":"address","name":"_admin","type":"address"}],"stateMutability":"nonpayable","type":"constructor"},{"inputs":[],"name":"AccessControlBadConfirmation","type":"error"},{"inputs":[{"internalType":"address","name":"account","type":"address"},{"internalType":"bytes32","name":"neededRole","type":"bytes32"}],"name":"AccessControlUnauthorizedAccount","type":"error"},{"inputs":[],"name":"ReentrancyGuardReentrantCall","type":"error"},{"inputs":[{"internalType":"address","name":"token","type":"address"}],"name":"SafeERC20FailedOperation","type":"error"},{"anonymous":false,"inputs":[{"indexed":true,"internalType":"address","name":"from","type":"address"},{"indexed":false,"internalType":"uint256","name":"totalAmount","type":"uint256"},{"indexed":false,"internalType":"uint256","name":"treasuryAmount","type":"uint256"},{"indexed":false,"internalType":"uint256","name":"referralAmount","type":"uint256"},{"indexed":false,"internalType":"uint256","name":"sbtAmount","type":"uint256"}],"name":"FeeDistributed","type":"event"},{"anonymous":false,"inputs":[{"indexed":true,"internalType":"bytes32","name":"role","type":"bytes32"},{"indexed":true,"internalType":"bytes32","name":"previousAdminRole","type":"bytes32"},{"indexed":true,"internalType":"bytes32","name":"newAdminRole","type":"bytes32"}],"name":"RoleAdminChanged","type":"event"},{"anonymous":false,"inputs":[{"indexed":true,"internalType":"bytes32","name":"role","type":"bytes32"},{"indexed":true,"internalType":"address","name":"account","type":"address"},{"indexed":true,"internalType":"address","name":"sender","type":"address"}],"name":"RoleGranted","type":"event"},{"anonymous":false,"inputs":[{"indexed":true,"internalType":"bytes32","name":"role","type":"bytes32"},{"indexed":true,"internalType":"address","name":"account","type":"address"},{"indexed":true,"internalType":"address","name":"sender","type":"address"}],"name":"RoleRevoked","type":"event"},{"inputs":[],"name":"DEFAULT_ADMIN_ROLE","outputs":[{"internalType":"bytes32","name":"","type":"bytes32"}],"stateMutability":"view","type":"function"},{"inputs":[],"name":"PRESALE_ROLE","outputs":[{"internalType":"bytes32","name":"","type":"bytes32"}],"stateMutability":"view","type":"function"},{"inputs":[],"name":"REFERRAL_POOL_BPS","outputs":[{"internalType":"uint256","name":"","type":"uint256"}],"stateMutability":"view","type":"function"},{"inputs":[],"name":"SBT_STAKING_BPS","outputs":[{"internalType":"uint256","name":"","type":"uint256"}],"stateMutability":"view","type":"function"},{"inputs":[],"name":"TOTAL_BPS","outputs":[{"internalType":"uint256","name":"","type":"uint256"}],"stateMutability":"view","type":"function"},{"inputs":[],"name":"TREASURY_BPS","outputs":[{"internalType":"uint256","name":"","type":"uint256"}],"stateMutability":"view","type":"function"},{"inputs":[{"internalType":"address","name":"token","type":"address"},{"internalType":"uint256","name":"amount","type":"uint256"}],"name":"distributeFeeERC20","outputs":[],"stateMutability":"nonpayable","type":"function"},{"inputs":[],"name":"distributeFeeNative","outputs":[],"stateMutability":"payable","type":"function"},{"inputs":[{"internalType":"bytes32","name":"role","type":"bytes32"}],"name":"getRoleAdmin","outputs":[{"internalType":"bytes32","name":"","type":"bytes32"}],"stateMutability":"view","type":"function"},{"inputs":[{"internalType":"address","name":"presale","type":"address"}],"name":"grantPresaleRole","outputs":[],"stateMutability":"nonpayable","type":"function"},{"inputs":[{"internalType":"bytes32","name":"role","type":"bytes32"},{"internalType":"address","name":"account","type":"address"}],"name":"grantRole","outputs":[],"stateMutability":"nonpayable","type":"function"},{"inputs":[{"internalType":"bytes32","name":"role","type":"bytes32"},{"internalType":"address","name":"account","type":"address"}],"name":"hasRole","outputs":[{"internalType":"bool","name":"","type":"bool"}],"stateMutability":"view","type":"function"},{"inputs":[],"name":"referralPool","outputs":[{"internalType":"address payable","name":"","type":"address"}],"stateMutability":"view","type":"function"},{"inputs":[{"internalType":"bytes32","name":"role","type":"bytes32"},{"internalType":"address","name":"callerConfirmation","type":"address"}],"name":"renounceRole","outputs":[],"stateMutability":"nonpayable","type":"function"},{"inputs":[{"internalType":"bytes32","name":"role","type":"bytes32"},{"internalType":"address","name":"account","type":"address"}],"name":"revokeRole","outputs":[],"stateMutability":"nonpayable","type":"function"},{"inputs":[],"name":"sbtStaking","outputs":[{"internalType":"address payable","name":"","type":"address"}],"stateMutability":"view","type":"function"},{"inputs":[{"internalType":"bytes4","name":"interfaceId","type":"bytes4"}],"name":"supportsInterface","outputs":[{"internalType":"bool","name":"","type":"bool"}],"stateMutability":"view","type":"function"},{"inputs":[],"name":"treasury","outputs":[{"internalType":"address payable","name":"","type":"address"}],"stateMutability":"view","type":"function"},{"inputs":[{"internalType":"address payable","name":"_referralPool","type":"address"}],"name":"updateReferralPool","outputs":[],"stateMutability":"nonpayable","type":"function"},{"inputs":[{"internalType":"address payable","name":"_sbtStaking","type":"address"}],"name":"updateSbtStaking","outputs":[],"stateMutability":"nonpayable","type":"function"},{"inputs":[{"internalType":"address payable","name":"_treasury","type":"address"}],"name":"updateTreasury","outputs":[],"stateMutability":"nonpayable","type":"function"},{"stateMutability":"payable","type":"receive"}],"evm":{"bytecode":{"linkReferences":{},"object":"6080346101a057601f6200100e38819003918201601f1916830191906001600160401b038311848410176101a55781608092859260409586528339810103126101a05761004b826101bb565b610057602084016101bb565b60606100648486016101bb565b940151916001600160a01b039081841684036101a05760018055811691821561015c57811694851561011857169081156100d4576100c5939460018060a01b03199182600254161760025581600354161760035560045416176004556101cf565b5051610dae9081620002608239f35b835162461bcd60e51b815260206004820152601860248201527f534254207374616b696e67207a65726f206164647265737300000000000000006044820152606490fd5b845162461bcd60e51b815260206004820152601a60248201527f526566657272616c20706f6f6c207a65726f20616464726573730000000000006044820152606490fd5b845162461bcd60e51b815260206004820152601560248201527f5472656173757279207a65726f206164647265737300000000000000000000006044820152606490fd5b600080fd5b634e487b7160e01b600052604160045260246000fd5b51906001600160a01b03821682036101a057565b6001600160a01b031660008181527fad3228b676f7d3cd4284a5443f17f1962b36e491b30a40b2405849e597ba5fb5602052604081205490919060ff1661025b57818052816020526040822081835260205260408220600160ff1982541617905533917f2f8788117e7eff1d82e926ec794901d17c78024a50270940304540a733656f0d8180a4600190565b509056fe6080604081815260049182361015610022575b505050361561002057600080fd5b005b600092833560e01c91826301ffc9a7146108df575081631e4df938146108b6578163248a9ca31461088c5781632792ffcb146108005781632f2ff15d146107d657816336568abe14610790578163398da9111461061357816340199171146105f7578163417eb66c146105ca5781634c25d197146105ae57816355d089491461051857816361d027b3146104ef5781637f51bb1f1461045d57816383dd99721461043557816391d14854146103ef5781639326197a146103b4578163990087b7146101b2578163a217fddf14610197578163d3cd52bc1461017a578163d547741f14610137575063e626b8c2146101195780610012565b346101335781600319360112610133576020905160328152f35b5080fd5b91905034610176578060031936011261017657610172913561016d600161015c610932565b938387528660205286200154610a17565b610b68565b5080f35b8280fd5b505034610133578160031936011261013357602090516101f48152f35b50503461013357816003193601126101335751908152602090f35b83809250600319360112610133576101c8610c9b565b6101d06109bb565b3415906101dd8215610bdd565b60fa340234810460fa148317156103a1576101f48091049260c834029034820460c814171561038e570461021a816102158534610c17565b610c17565b9160018060a01b03858080808885600254165af1610236610c3a565b501561034b57858080808685600354165af1610250610c3a565b5015610308578580808681948654165af1610269610c3a565b50156102c557506102bb7fe29b466abf22e244968b38f750c90f5e685ce810800dbd3af88752f8a210fae293949551928392339634859094939260609260808301968352602083015260408201520152565b0390a26001805580f35b606490602087519162461bcd60e51b8352820152601b60248201527f534254207374616b696e67207472616e73666572206661696c656400000000006044820152fd5b865162461bcd60e51b8152602081840152601d60248201527f526566657272616c20706f6f6c207472616e73666572206661696c65640000006044820152606490fd5b865162461bcd60e51b8152602081840152601860248201527f5472656173757279207472616e73666572206661696c656400000000000000006044820152606490fd5b634e487b7160e01b855260118352602485fd5b634e487b7160e01b845260118252602484fd5b505034610133578160031936011261013357602090517f6a4b509b5f306a69ec99e97ff6b166daad9c0a3dfce739a6d67ad1c57143a6b28152f35b9050346101765781600319360112610176578160209360ff92610410610932565b903582528186528282206001600160a01b039091168252855220549151911615158152f35b9050346101765782600319360112610176575490516001600160a01b03909116815260209150f35b9050346101765760203660031901126101765780356001600160a01b03811692908390036104eb5761048d610963565b82156104b05750506bffffffffffffffffffffffff60a01b600254161760025580f35b906020606492519162461bcd60e51b835282015260156024820152745472656173757279207a65726f206164647265737360581b6044820152fd5b8380fd5b50503461013357816003193601126101335760025490516001600160a01b039091168152602090f35b9050346101765760203660031901126101765780356001600160a01b03811692908390036104eb57610548610963565b821561056b5750506bffffffffffffffffffffffff60a01b600354161760035580f35b906020606492519162461bcd60e51b8352820152601a60248201527f526566657272616c20706f6f6c207a65726f20616464726573730000000000006044820152fd5b5050346101335781600319360112610133576020905160fa8152f35b83346105f45760203660031901126105f4576101726105e761094d565b6105ef610963565b610a3d565b80fd5b5050346101335781600319360112610133576020905160c88152f35b83833461013357806003193601126101335761062d61094d565b906024359161063a610c9b565b6106426109bb565b82159061064f8215610bdd565b82516323b872dd60e01b6020820152336024820152306044820152606480820186905281526001600160a01b03918216939060a0810167ffffffffffffffff81118282101761077d5782526106a49085610d10565b60fa850285810460fa1484171561076a576101f48091049360c887029087820460c8141715610757577fe29b466abf22e244968b38f750c90f5e685ce810800dbd3af88752f8a210fae29697986102bb94939261073492049661070b88610215898d610c17565b94859261071d89836002541685610cbe565b61072c8a836003541685610cbe565b541690610cbe565b519384933397859094939260609260808301968352602083015260408201520152565b634e487b7160e01b885260118952602488fd5b634e487b7160e01b875260118852602487fd5b634e487b7160e01b885260418952602488fd5b8383346101335780600319360112610133576107aa610932565b90336001600160a01b038316036107c75750610172919235610b68565b5163334bd91960e11b81528390fd5b9190503461017657806003193601126101765761017291356107fb600161015c610932565b610aef565b919050346101765760203660031901126101765781356001600160a01b03811691908290036104eb57610831610963565b811561084a575081546001600160a01b03191617905580f35b5162461bcd60e51b8152602081840152601860248201527f534254207374616b696e67207a65726f206164647265737300000000000000006044820152606490fd5b90503461017657602036600319011261017657816020936001923581528085522001549051908152f35b50503461013357816003193601126101335760035490516001600160a01b039091168152602090f35b849134610176576020366003190112610176573563ffffffff60e01b81168091036101765760209250637965db0b60e01b8114908115610921575b5015158152f35b6301ffc9a760e01b1490508361091a565b602435906001600160a01b038216820361094857565b600080fd5b600435906001600160a01b038216820361094857565b3360009081527fad3228b676f7d3cd4284a5443f17f1962b36e491b30a40b2405849e597ba5fb5602052604081205460ff161561099d5750565b6044906040519063e2517d3f60e01b82523360048301526024820152fd5b3360009081527faff2420ced5911b742e0dc1de23aeaa1b9f211c451e4e528095225cdc861d7d660205260409020547f6a4b509b5f306a69ec99e97ff6b166daad9c0a3dfce739a6d67ad1c57143a6b29060ff161561099d5750565b80600052600060205260406000203360005260205260ff604060002054161561099d5750565b6001600160a01b031660008181527faff2420ced5911b742e0dc1de23aeaa1b9f211c451e4e528095225cdc861d7d660205260408120549091907f6a4b509b5f306a69ec99e97ff6b166daad9c0a3dfce739a6d67ad1c57143a6b29060ff16610aea57808352826020526040832082845260205260408320600160ff198254161790557f2f8788117e7eff1d82e926ec794901d17c78024a50270940304540a733656f0d339380a4600190565b505090565b9060009180835282602052604083209160018060a01b03169182845260205260ff60408420541615600014610aea57808352826020526040832082845260205260408320600160ff198254161790557f2f8788117e7eff1d82e926ec794901d17c78024a50270940304540a733656f0d339380a4600190565b9060009180835282602052604083209160018060a01b03169182845260205260ff604084205416600014610aea5780835282602052604083208284526020526040832060ff1981541690557ff6391f5c32d9c69d2a47ea670b442974b53935d1edc7fd64eb21e047a839171b339380a4600190565b15610be457565b60405162461bcd60e51b815260206004820152600b60248201526a16995c9bc8185b5bdd5b9d60aa1b6044820152606490fd5b91908203918211610c2457565b634e487b7160e01b600052601160045260246000fd5b3d15610c965767ffffffffffffffff903d828111610c805760405192601f8201601f19908116603f0116840190811184821017610c805760405282523d6000602084013e565b634e487b7160e01b600052604160045260246000fd5b606090565b600260015414610cac576002600155565b604051633ee5aeb560e01b8152600490fd5b60405163a9059cbb60e01b60208201526001600160a01b039092166024830152604480830193909352918152608081019167ffffffffffffffff831182841017610c8057610d0e92604052610d10565b565b906000602091828151910182855af115610d6c576000513d610d6357506001600160a01b0381163b155b610d415750565b604051635274afe760e01b81526001600160a01b039091166004820152602490fd5b60011415610d3a565b6040513d6000823e3d90fdfea2646970667358221220396fa232cdf692ae0703f4c939cf7b01ed50e2a471a81606f2d830849980d6c164736f6c63430008140033","opcodes":"PUSH1 0x80 CALLVALUE PUSH2 0x1A0 JUMPI PUSH1 0x1F PUSH3 0x100E CODESIZE DUP2 SWAP1 SUB SWAP2 DUP3 ADD PUSH1 0x1F NOT AND DUP4 ADD SWAP2 SWAP1 PUSH1 0x1 PUSH1 0x1 PUSH1 0x40 SHL SUB DUP4 GT DUP5 DUP5 LT OR PUSH2 0x1A5 JUMPI DUP2 PUSH1 0x80 SWAP3 DUP6 SWAP3 PUSH1 0x40 SWAP6 DUP7 MSTORE DUP4 CODECOPY DUP2 ADD SUB SLT PUSH2 0x1A0 JUMPI PUSH2 0x4B DUP3 PUSH2 0x1BB JUMP JUMPDEST PUSH2 0x57 PUSH1 0x20 DUP5 ADD PUSH2 0x1BB JUMP JUMPDEST PUSH1 0x60 PUSH2 0x64 DUP5 DUP7 ADD PUSH2 0x1BB JUMP JUMPDEST SWAP5 ADD MLOAD SWAP2 PUSH1 0x1 PUSH1 0x1 PUSH1 0xA0 SHL SUB SWAP1 DUP2 DUP5 AND DUP5 SUB PUSH2 0x1A0 JUMPI PUSH1 0x1 DUP1 SSTORE DUP2 AND SWAP2 DUP3 ISZERO PUSH2 0x15C JUMPI DUP2 AND SWAP5 DUP6 ISZERO PUSH2 0x118 JUMPI AND SWAP1 DUP2 ISZERO PUSH2 0xD4 JUMPI PUSH2 0xC5 SWAP4 SWAP5 PUSH1 0x1 DUP1 PUSH1 0xA0 SHL SUB NOT SWAP2 DUP3 PUSH1 0x2 SLOAD AND OR PUSH1 0x2 SSTORE DUP2 PUSH1 0x3 SLOAD AND OR PUSH1 0x3 SSTORE PUSH1 0x4 SLOAD AND OR PUSH1 0x4 SSTORE PUSH2 0x1CF JUMP JUMPDEST POP MLOAD PUSH2 0xDAE SWAP1 DUP2 PUSH3 0x260 DUP3 CODECOPY RETURN JUMPDEST DUP4 MLOAD PUSH3 0x461BCD PUSH1 0xE5 SHL DUP2 MSTORE PUSH1 0x20 PUSH1 0x4 DUP3 ADD MSTORE PUSH1 0x18 PUSH1 0x24 DUP3 ADD MSTORE PUSH32 0x534254207374616B696E67207A65726F20616464726573730000000000000000 PUSH1 0x44 DUP3 ADD MSTORE PUSH1 0x64 SWAP1 REVERT JUMPDEST DUP5 MLOAD PUSH3 0x461BCD PUSH1 0xE5 SHL DUP2 MSTORE PUSH1 0x20 PUSH1 0x4 DUP3 ADD MSTORE PUSH1 0x1A PUSH1 0x24 DUP3 ADD MSTORE PUSH32 0x526566657272616C20706F6F6C207A65726F2061646472657373000000000000 PUSH1 0x44 DUP3 ADD MSTORE PUSH1 0x64 SWAP1 REVERT JUMPDEST DUP5 MLOAD PUSH3 0x461BCD PUSH1 0xE5 SHL DUP2 MSTORE PUSH1 0x20 PUSH1 0x4 DUP3 ADD MSTORE PUSH1 0x15 PUSH1 0x24 DUP3 ADD MSTORE PUSH32 0x5472656173757279207A65726F20616464726573730000000000000000000000 PUSH1 0x44 DUP3 ADD MSTORE PUSH1 0x64 SWAP1 REVERT JUMPDEST PUSH1 0x0 DUP1 REVERT JUMPDEST PUSH4 0x4E487B71 PUSH1 0xE0 SHL PUSH1 0x0 MSTORE PUSH1 0x41 PUSH1 0x4 MSTORE PUSH1 0x24 PUSH1 0x0 REVERT JUMPDEST MLOAD SWAP1 PUSH1 0x1 PUSH1 0x1 PUSH1 0xA0 SHL SUB DUP3 AND DUP3 SUB PUSH2 0x1A0 JUMPI JUMP JUMPDEST PUSH1 0x1 PUSH1 0x1 PUSH1 0xA0 SHL SUB AND PUSH1 0x0 DUP2 DUP2 MSTORE PUSH32 0xAD3228B676F7D3CD4284A5443F17F1962B36E491B30A40B2405849E597BA5FB5 PUSH1 0x20 MSTORE PUSH1 0x40 DUP2 KECCAK256 SLOAD SWAP1 SWAP2 SWAP1 PUSH1 0xFF AND PUSH2 0x25B JUMPI DUP2 DUP1 MSTORE DUP2 PUSH1 0x20 MSTORE PUSH1 0x40 DUP3 KECCAK256 DUP2 DUP4 MSTORE PUSH1 0x20 MSTORE PUSH1 0x40 DUP3 KECCAK256 PUSH1 0x1 PUSH1 0xFF NOT DUP3 SLOAD AND OR SWAP1 SSTORE CALLER SWAP2 PUSH32 0x2F8788117E7EFF1D82E926EC794901D17C78024A50270940304540A733656F0D DUP2 DUP1 LOG4 PUSH1 0x1 SWAP1 JUMP JUMPDEST POP SWAP1 JUMP INVALID PUSH1 0x80 PUSH1 0x40 DUP2 DUP2 MSTORE PUSH1 0x4 SWAP2 DUP3 CALLDATASIZE LT ISZERO PUSH2 0x22 JUMPI JUMPDEST POP POP POP CALLDATASIZE ISZERO PUSH2 0x20 JUMPI PUSH1 0x0 DUP1 REVERT JUMPDEST STOP JUMPDEST PUSH1 0x0 SWAP3 DUP4 CALLDATALOAD PUSH1 0xE0 SHR SWAP2 DUP3 PUSH4 0x1FFC9A7 EQ PUSH2 0x8DF JUMPI POP DUP2 PUSH4 0x1E4DF938 EQ PUSH2 0x8B6 JUMPI DUP2 PUSH4 0x248A9CA3 EQ PUSH2 0x88C JUMPI DUP2 PUSH4 0x2792FFCB EQ PUSH2 0x800 JUMPI DUP2 PUSH4 0x2F2FF15D EQ PUSH2 0x7D6 JUMPI DUP2 PUSH4 0x36568ABE EQ PUSH2 0x790 JUMPI DUP2 PUSH4 0x398DA911 EQ PUSH2 0x613 JUMPI DUP2 PUSH4 0x40199171 EQ PUSH2 0x5F7 JUMPI DUP2 PUSH4 0x417EB66C EQ PUSH2 0x5CA JUMPI DUP2 PUSH4 0x4C25D197 EQ PUSH2 0x5AE JUMPI DUP2 PUSH4 0x55D08949 EQ PUSH2 0x518 JUMPI DUP2 PUSH4 0x61D027B3 EQ PUSH2 0x4EF JUMPI DUP2 PUSH4 0x7F51BB1F EQ PUSH2 0x45D JUMPI DUP2 PUSH4 0x83DD9972 EQ PUSH2 0x435 JUMPI DUP2 PUSH4 0x91D14854 EQ PUSH2 0x3EF JUMPI DUP2 PUSH4 0x9326197A EQ PUSH2 0x3B4 JUMPI DUP2 PUSH4 0x990087B7 EQ PUSH2 0x1B2 JUMPI DUP2 PUSH4 0xA217FDDF EQ PUSH2 0x197 JUMPI DUP2 PUSH4 0xD3CD52BC EQ PUSH2 0x17A JUMPI DUP2 PUSH4 0xD547741F EQ PUSH2 0x137 JUMPI POP PUSH4 0xE626B8C2 EQ PUSH2 0x119 JUMPI DUP1 PUSH2 0x12 JUMP JUMPDEST CALLVALUE PUSH2 0x133 JUMPI DUP2 PUSH1 0x3 NOT CALLDATASIZE ADD SLT PUSH2 0x133 JUMPI PUSH1 0x20 SWAP1 MLOAD PUSH1 0x32 DUP2 MSTORE RETURN JUMPDEST POP DUP1 REVERT JUMPDEST SWAP2 SWAP1 POP CALLVALUE PUSH2 0x176 JUMPI DUP1 PUSH1 0x3 NOT CALLDATASIZE ADD SLT PUSH2 0x176 JUMPI PUSH2 0x172 SWAP2 CALLDATALOAD PUSH2 0x16D PUSH1 0x1 PUSH2 0x15C PUSH2 0x932 JUMP JUMPDEST SWAP4 DUP4 DUP8 MSTORE DUP7 PUSH1 0x20 MSTORE DUP7 KECCAK256 ADD SLOAD PUSH2 0xA17 JUMP JUMPDEST PUSH2 0xB68 JUMP JUMPDEST POP DUP1 RETURN JUMPDEST DUP3 DUP1 REVERT JUMPDEST POP POP CALLVALUE PUSH2 0x133 JUMPI DUP2 PUSH1 0x3 NOT CALLDATASIZE ADD SLT PUSH2 0x133 JUMPI PUSH1 0x20 SWAP1 MLOAD PUSH2 0x1F4 DUP2 MSTORE RETURN JUMPDEST POP POP CALLVALUE PUSH2 0x133 JUMPI DUP2 PUSH1 0x3 NOT CALLDATASIZE ADD SLT PUSH2 0x133 JUMPI MLOAD SWAP1 DUP2 MSTORE PUSH1 0x20 SWAP1 RETURN JUMPDEST DUP4 DUP1 SWAP3 POP PUSH1 0x3 NOT CALLDATASIZE ADD SLT PUSH2 0x133 JUMPI PUSH2 0x1C8 PUSH2 0xC9B JUMP JUMPDEST PUSH2 0x1D0 PUSH2 0x9BB JUMP JUMPDEST CALLVALUE ISZERO SWAP1 PUSH2 0x1DD DUP3 ISZERO PUSH2 0xBDD JUMP JUMPDEST PUSH1 0xFA CALLVALUE MUL CALLVALUE DUP2 DIV PUSH1 0xFA EQ DUP4 OR ISZERO PUSH2 0x3A1 JUMPI PUSH2 0x1F4 DUP1 SWAP2 DIV SWAP3 PUSH1 0xC8 CALLVALUE MUL SWAP1 CALLVALUE DUP3 DIV PUSH1 0xC8 EQ OR ISZERO PUSH2 0x38E JUMPI DIV PUSH2 0x21A DUP2 PUSH2 0x215 DUP6 CALLVALUE PUSH2 0xC17 JUMP JUMPDEST PUSH2 0xC17 JUMP JUMPDEST SWAP2 PUSH1 0x1 DUP1 PUSH1 0xA0 SHL SUB DUP6 DUP1 DUP1 DUP1 DUP9 DUP6 PUSH1 0x2 SLOAD AND GAS CALL PUSH2 0x236 PUSH2 0xC3A JUMP JUMPDEST POP ISZERO PUSH2 0x34B JUMPI DUP6 DUP1 DUP1 DUP1 DUP7 DUP6 PUSH1 0x3 SLOAD AND GAS CALL PUSH2 0x250 PUSH2 0xC3A JUMP JUMPDEST POP ISZERO PUSH2 0x308 JUMPI DUP6 DUP1 DUP1 DUP7 DUP2 SWAP5 DUP7 SLOAD AND GAS CALL PUSH2 0x269 PUSH2 0xC3A JUMP JUMPDEST POP ISZERO PUSH2 0x2C5 JUMPI POP PUSH2 0x2BB PUSH32 0xE29B466ABF22E244968B38F750C90F5E685CE810800DBD3AF88752F8A210FAE2 SWAP4 SWAP5 SWAP6 MLOAD SWAP3 DUP4 SWAP3 CALLER SWAP7 CALLVALUE DUP6 SWAP1 SWAP5 SWAP4 SWAP3 PUSH1 0x60 SWAP3 PUSH1 0x80 DUP4 ADD SWAP7 DUP4 MSTORE PUSH1 0x20 DUP4 ADD MSTORE PUSH1 0x40 DUP3 ADD MSTORE ADD MSTORE JUMP JUMPDEST SUB SWAP1 LOG2 PUSH1 0x1 DUP1 SSTORE DUP1 RETURN JUMPDEST PUSH1 0x64 SWAP1 PUSH1 0x20 DUP8 MLOAD SWAP2 PUSH3 0x461BCD PUSH1 0xE5 SHL DUP4 MSTORE DUP3 ADD MSTORE PUSH1 0x1B PUSH1 0x24 DUP3 ADD MSTORE PUSH32 0x534254207374616B696E67207472616E73666572206661696C65640000000000 PUSH1 0x44 DUP3 ADD MSTORE REVERT JUMPDEST DUP7 MLOAD PUSH3 0x461BCD PUSH1 0xE5 SHL DUP2 MSTORE PUSH1 0x20 DUP2 DUP5 ADD MSTORE PUSH1 0x1D PUSH1 0x24 DUP3 ADD MSTORE PUSH32 0x526566657272616C20706F6F6C207472616E73666572206661696C6564000000 PUSH1 0x44 DUP3 ADD MSTORE PUSH1 0x64 SWAP1 REVERT JUMPDEST DUP7 MLOAD PUSH3 0x461BCD PUSH1 0xE5 SHL DUP2 MSTORE PUSH1 0x20 DUP2 DUP5 ADD MSTORE PUSH1 0x18 PUSH1 0x24 DUP3 ADD MSTORE PUSH32 0x5472656173757279207472616E73666572206661696C65640000000000000000 PUSH1 0x44 DUP3 ADD MSTORE PUSH1 0x64 SWAP1 REVERT JUMPDEST PUSH4 0x4E487B71 PUSH1 0xE0 SHL DUP6 MSTORE PUSH1 0x11 DUP4 MSTORE PUSH1 0x24 DUP6 REVERT JUMPDEST PUSH4 0x4E487B71 PUSH1 0xE0 SHL DUP5 MSTORE PUSH1 0x11 DUP3 MSTORE PUSH1 0x24 DUP5 REVERT JUMPDEST POP POP CALLVALUE PUSH2 0x133 JUMPI DUP2 PUSH1 0x3 NOT CALLDATASIZE ADD SLT PUSH2 0x133 JUMPI PUSH1 0x20 SWAP1 MLOAD PUSH32 0x6A4B509B5F306A69EC99E97FF6B166DAAD9C0A3DFCE739A6D67AD1C57143A6B2 DUP2 MSTORE RETURN JUMPDEST SWAP1 POP CALLVALUE PUSH2 0x176 JUMPI DUP2 PUSH1 0x3 NOT CALLDATASIZE ADD SLT PUSH2 0x176 JUMPI DUP2 PUSH1 0x20 SWAP4 PUSH1 0xFF SWAP3 PUSH2 0x410 PUSH2 0x932 JUMP JUMPDEST SWAP1 CALLDATALOAD DUP3 MSTORE DUP2 DUP7 MSTORE DUP3 DUP3 KECCAK256 PUSH1 0x1 PUSH1 0x1 PUSH1 0xA0 SHL SUB SWAP1 SWAP2 AND DUP3 MSTORE DUP6 MSTORE KECCAK256 SLOAD SWAP2 MLOAD SWAP2 AND ISZERO ISZERO DUP2 MSTORE RETURN JUMPDEST SWAP1 POP CALLVALUE PUSH2 0x176 JUMPI DUP3 PUSH1 0x3 NOT CALLDATASIZE ADD SLT PUSH2 0x176 JUMPI SLOAD SWAP1 MLOAD PUSH1 0x1 PUSH1 0x1 PUSH1 0xA0 SHL SUB SWAP1 SWAP2 AND DUP2 MSTORE PUSH1 0x20 SWAP2 POP RETURN JUMPDEST SWAP1 POP CALLVALUE PUSH2 0x176 JUMPI PUSH1 0x20 CALLDATASIZE PUSH1 0x3 NOT ADD SLT PUSH2 0x176 JUMPI DUP1 CALLDATALOAD PUSH1 0x1 PUSH1 0x1 PUSH1 0xA0 SHL SUB DUP2 AND SWAP3 SWAP1 DUP4 SWAP1 SUB PUSH2 0x4EB JUMPI PUSH2 0x48D PUSH2 0x963 JUMP JUMPDEST DUP3 ISZERO PUSH2 0x4B0 JUMPI POP POP PUSH12 0xFFFFFFFFFFFFFFFFFFFFFFFF PUSH1 0xA0 SHL PUSH1 0x2 SLOAD AND OR PUSH1 0x2 SSTORE DUP1 RETURN JUMPDEST SWAP1 PUSH1 0x20 PUSH1 0x64 SWAP3 MLOAD SWAP2 PUSH3 0x461BCD PUSH1 0xE5 SHL DUP4 MSTORE DUP3 ADD MSTORE PUSH1 0x15 PUSH1 0x24 DUP3 ADD MSTORE PUSH21 0x5472656173757279207A65726F2061646472657373 PUSH1 0x58 SHL PUSH1 0x44 DUP3 ADD MSTORE REVERT JUMPDEST DUP4 DUP1 REVERT JUMPDEST POP POP CALLVALUE PUSH2 0x133 JUMPI DUP2 PUSH1 0x3 NOT CALLDATASIZE ADD SLT PUSH2 0x133 JUMPI PUSH1 0x2 SLOAD SWAP1 MLOAD PUSH1 0x1 PUSH1 0x1 PUSH1 0xA0 SHL SUB SWAP1 SWAP2 AND DUP2 MSTORE PUSH1 0x20 SWAP1 RETURN JUMPDEST SWAP1 POP CALLVALUE PUSH2 0x176 JUMPI PUSH1 0x20 CALLDATASIZE PUSH1 0x3 NOT ADD SLT PUSH2 0x176 JUMPI DUP1 CALLDATALOAD PUSH1 0x1 PUSH1 0x1 PUSH1 0xA0 SHL SUB DUP2 AND SWAP3 SWAP1 DUP4 SWAP1 SUB PUSH2 0x4EB JUMPI PUSH2 0x548 PUSH2 0x963 JUMP JUMPDEST DUP3 ISZERO PUSH2 0x56B JUMPI POP POP PUSH12 0xFFFFFFFFFFFFFFFFFFFFFFFF PUSH1 0xA0 SHL PUSH1 0x3 SLOAD AND OR PUSH1 0x3 SSTORE DUP1 RETURN JUMPDEST SWAP1 PUSH1 0x20 PUSH1 0x64 SWAP3 MLOAD SWAP2 PUSH3 0x461BCD PUSH1 0xE5 SHL DUP4 MSTORE DUP3 ADD MSTORE PUSH1 0x1A PUSH1 0x24 DUP3 ADD MSTORE PUSH32 0x526566657272616C20706F6F6C207A65726F2061646472657373000000000000 PUSH1 0x44 DUP3 ADD MSTORE REVERT JUMPDEST POP POP CALLVALUE PUSH2 0x133 JUMPI DUP2 PUSH1 0x3 NOT CALLDATASIZE ADD SLT PUSH2 0x133 JUMPI PUSH1 0x20 SWAP1 MLOAD PUSH1 0xFA DUP2 MSTORE RETURN JUMPDEST DUP4 CALLVALUE PUSH2 0x5F4 JUMPI PUSH1 0x20 CALLDATASIZE PUSH1 0x3 NOT ADD SLT PUSH2 0x5F4 JUMPI PUSH2 0x172 PUSH2 0x5E7 PUSH2 0x94D JUMP JUMPDEST PUSH2 0x5EF PUSH2 0x963 JUMP JUMPDEST PUSH2 0xA3D JUMP JUMPDEST DUP1 REVERT JUMPDEST POP POP CALLVALUE PUSH2 0x133 JUMPI DUP2 PUSH1 0x3 NOT CALLDATASIZE ADD SLT PUSH2 0x133 JUMPI PUSH1 0x20 SWAP1 MLOAD PUSH1 0xC8 DUP2 MSTORE RETURN JUMPDEST DUP4 DUP4 CALLVALUE PUSH2 0x133 JUMPI DUP1 PUSH1 0x3 NOT CALLDATASIZE ADD SLT PUSH2 0x133 JUMPI PUSH2 0x62D PUSH2 0x94D JUMP JUMPDEST SWAP1 PUSH1 0x24 CALLDATALOAD SWAP2 PUSH2 0x63A PUSH2 0xC9B JUMP JUMPDEST PUSH2 0x642 PUSH2 0x9BB JUMP JUMPDEST DUP3 ISZERO SWAP1 PUSH2 0x64F DUP3 ISZERO PUSH2 0xBDD JUMP JUMPDEST DUP3 MLOAD PUSH4 0x23B872DD PUSH1 0xE0 SHL PUSH1 0x20 DUP3 ADD MSTORE CALLER PUSH1 0x24 DUP3 ADD MSTORE ADDRESS PUSH1 0x44 DUP3 ADD MSTORE PUSH1 0x64 DUP1 DUP3 ADD DUP7 SWAP1 MSTORE DUP2 MSTORE PUSH1 0x1 PUSH1 0x1 PUSH1 0xA0 SHL SUB SWAP2 DUP3 AND SWAP4 SWAP1 PUSH1 0xA0 DUP2 ADD PUSH8 0xFFFFFFFFFFFFFFFF DUP2 GT DUP3 DUP3 LT OR PUSH2 0x77D JUMPI DUP3 MSTORE PUSH2 0x6A4 SWAP1 DUP6 PUSH2 0xD10 JUMP JUMPDEST PUSH1 0xFA DUP6 MUL DUP6 DUP2 DIV PUSH1 0xFA EQ DUP5 OR ISZERO PUSH2 0x76A JUMPI PUSH2 0x1F4 DUP1 SWAP2 DIV SWAP4 PUSH1 0xC8 DUP8 MUL SWAP1 DUP8 DUP3 DIV PUSH1 0xC8 EQ OR ISZERO PUSH2 0x757 JUMPI PUSH32 0xE29B466ABF22E244968B38F750C90F5E685CE810800DBD3AF88752F8A210FAE2 SWAP7 SWAP8 SWAP9 PUSH2 0x2BB SWAP5 SWAP4 SWAP3 PUSH2 0x734 SWAP3 DIV SWAP7 PUSH2 0x70B DUP9 PUSH2 0x215 DUP10 DUP14 PUSH2 0xC17 JUMP JUMPDEST SWAP5 DUP6 SWAP3 PUSH2 0x71D DUP10 DUP4 PUSH1 0x2 SLOAD AND DUP6 PUSH2 0xCBE JUMP JUMPDEST PUSH2 0x72C DUP11 DUP4 PUSH1 0x3 SLOAD AND DUP6 PUSH2 0xCBE JUMP JUMPDEST SLOAD AND SWAP1 PUSH2 0xCBE JUMP JUMPDEST MLOAD SWAP4 DUP5 SWAP4 CALLER SWAP8 DUP6 SWAP1 SWAP5 SWAP4 SWAP3 PUSH1 0x60 SWAP3 PUSH1 0x80 DUP4 ADD SWAP7 DUP4 MSTORE PUSH1 0x20 DUP4 ADD MSTORE PUSH1 0x40 DUP3 ADD MSTORE ADD MSTORE JUMP JUMPDEST PUSH4 0x4E487B71 PUSH1 0xE0 SHL DUP9 MSTORE PUSH1 0x11 DUP10 MSTORE PUSH1 0x24 DUP9 REVERT JUMPDEST PUSH4 0x4E487B71 PUSH1 0xE0 SHL DUP8 MSTORE PUSH1 0x11 DUP9 MSTORE PUSH1 0x24 DUP8 REVERT JUMPDEST PUSH4 0x4E487B71 PUSH1 0xE0 SHL DUP9 MSTORE PUSH1 0x41 DUP10 MSTORE PUSH1 0x24 DUP9 REVERT JUMPDEST DUP4 DUP4 CALLVALUE PUSH2 0x133 JUMPI DUP1 PUSH1 0x3 NOT CALLDATASIZE ADD SLT PUSH2 0x133 JUMPI PUSH2 0x7AA PUSH2 0x932 JUMP JUMPDEST SWAP1 CALLER PUSH1 0x1 PUSH1 0x1 PUSH1 0xA0 SHL SUB DUP4 AND SUB PUSH2 0x7C7 JUMPI POP PUSH2 0x172 SWAP2 SWAP3 CALLDATALOAD PUSH2 0xB68 JUMP JUMPDEST MLOAD PUSH4 0x334BD919 PUSH1 0xE1 SHL DUP2 MSTORE DUP4 SWAP1 REVERT JUMPDEST SWAP2 SWAP1 POP CALLVALUE PUSH2 0x176 JUMPI DUP1 PUSH1 0x3 NOT CALLDATASIZE ADD SLT PUSH2 0x176 JUMPI PUSH2 0x172 SWAP2 CALLDATALOAD PUSH2 0x7FB PUSH1 0x1 PUSH2 0x15C PUSH2 0x932 JUMP JUMPDEST PUSH2 0xAEF JUMP JUMPDEST SWAP2 SWAP1 POP CALLVALUE PUSH2 0x176 JUMPI PUSH1 0x20 CALLDATASIZE PUSH1 0x3 NOT ADD SLT PUSH2 0x176 JUMPI DUP2 CALLDATALOAD PUSH1 0x1 PUSH1 0x1 PUSH1 0xA0 SHL SUB DUP2 AND SWAP2 SWAP1 DUP3 SWAP1 SUB PUSH2 0x4EB JUMPI PUSH2 0x831 PUSH2 0x963 JUMP JUMPDEST DUP2 ISZERO PUSH2 0x84A JUMPI POP DUP2 SLOAD PUSH1 0x1 PUSH1 0x1 PUSH1 0xA0 SHL SUB NOT AND OR SWAP1 SSTORE DUP1 RETURN JUMPDEST MLOAD PUSH3 0x461BCD PUSH1 0xE5 SHL DUP2 MSTORE PUSH1 0x20 DUP2 DUP5 ADD MSTORE PUSH1 0x18 PUSH1 0x24 DUP3 ADD MSTORE PUSH32 0x534254207374616B696E67207A65726F20616464726573730000000000000000 PUSH1 0x44 DUP3 ADD MSTORE PUSH1 0x64 SWAP1 REVERT JUMPDEST SWAP1 POP CALLVALUE PUSH2 0x176 JUMPI PUSH1 0x20 CALLDATASIZE PUSH1 0x3 NOT ADD SLT PUSH2 0x176 JUMPI DUP2 PUSH1 0x20 SWAP4 PUSH1 0x1 SWAP3 CALLDATALOAD DUP2 MSTORE DUP1 DUP6 MSTORE KECCAK256 ADD SLOAD SWAP1 MLOAD SWAP1 DUP2 MSTORE RETURN JUMPDEST POP POP CALLVALUE PUSH2 0x133 JUMPI DUP2 PUSH1 0x3 NOT CALLDATASIZE ADD SLT PUSH2 0x133 JUMPI PUSH1 0x3 SLOAD SWAP1 MLOAD PUSH1 0x1 PUSH1 0x1 PUSH1 0xA0 SHL SUB SWAP1 SWAP2 AND DUP2 MSTORE PUSH1 0x20 SWAP1 RETURN JUMPDEST DUP5 SWAP2 CALLVALUE PUSH2 0x176 JUMPI PUSH1 0x20 CALLDATASIZE PUSH1 0x3 NOT ADD SLT PUSH2 0x176 JUMPI CALLDATALOAD PUSH4 0xFFFFFFFF PUSH1 0xE0 SHL DUP2 AND DUP1 SWAP2 SUB PUSH2 0x176 JUMPI PUSH1 0x20 SWAP3 POP PUSH4 0x7965DB0B PUSH1 0xE0 SHL DUP2 EQ SWAP1 DUP2 ISZERO PUSH2 0x921 JUMPI JUMPDEST POP ISZERO ISZERO DUP2 MSTORE RETURN JUMPDEST PUSH4 0x1FFC9A7 PUSH1 0xE0 SHL EQ SWAP1 POP DUP4 PUSH2 0x91A JUMP JUMPDEST PUSH1 0x24 CALLDATALOAD SWAP1 PUSH1 0x1 PUSH1 0x1 PUSH1 0xA0 SHL SUB DUP3 AND DUP3 SUB PUSH2 0x948 JUMPI JUMP JUMPDEST PUSH1 0x0 DUP1 REVERT JUMPDEST PUSH1 0x4 CALLDATALOAD SWAP1 PUSH1 0x1 PUSH1 0x1 PUSH1 0xA0 SHL SUB DUP3 AND DUP3 SUB PUSH2 0x948 JUMPI JUMP JUMPDEST CALLER PUSH1 0x0 SWAP1 DUP2 MSTORE PUSH32 0xAD3228B676F7D3CD4284A5443F17F1962B36E491B30A40B2405849E597BA5FB5 PUSH1 0x20 MSTORE PUSH1 0x40 DUP2 KECCAK256 SLOAD PUSH1 0xFF AND ISZERO PUSH2 0x99D JUMPI POP JUMP JUMPDEST PUSH1 0x44 SWAP1 PUSH1 0x40 MLOAD SWAP1 PUSH4 0xE2517D3F PUSH1 0xE0 SHL DUP3 MSTORE CALLER PUSH1 0x4 DUP4 ADD MSTORE PUSH1 0x24 DUP3 ADD MSTORE REVERT JUMPDEST CALLER PUSH1 0x0 SWAP1 DUP2 MSTORE PUSH32 0xAFF2420CED5911B742E0DC1DE23AEAA1B9F211C451E4E528095225CDC861D7D6 PUSH1 0x20 MSTORE PUSH1 0x40 SWAP1 KECCAK256 SLOAD PUSH32 0x6A4B509B5F306A69EC99E97FF6B166DAAD9C0A3DFCE739A6D67AD1C57143A6B2 SWAP1 PUSH1 0xFF AND ISZERO PUSH2 0x99D JUMPI POP JUMP JUMPDEST DUP1 PUSH1 0x0 MSTORE PUSH1 0x0 PUSH1 0x20 MSTORE PUSH1 0x40 PUSH1 0x0 KECCAK256 CALLER PUSH1 0x0 MSTORE PUSH1 0x20 MSTORE PUSH1 0xFF PUSH1 0x40 PUSH1 0x0 KECCAK256 SLOAD AND ISZERO PUSH2 0x99D JUMPI POP JUMP JUMPDEST PUSH1 0x1 PUSH1 0x1 PUSH1 0xA0 SHL SUB AND PUSH1 0x0 DUP2 DUP2 MSTORE PUSH32 0xAFF2420CED5911B742E0DC1DE23AEAA1B9F211C451E4E528095225CDC861D7D6 PUSH1 0x20 MSTORE PUSH1 0x40 DUP2 KECCAK256 SLOAD SWAP1 SWAP2 SWAP1 PUSH32 0x6A4B509B5F306A69EC99E97FF6B166DAAD9C0A3DFCE739A6D67AD1C57143A6B2 SWAP1 PUSH1 0xFF AND PUSH2 0xAEA JUMPI DUP1 DUP4 MSTORE DUP3 PUSH1 0x20 MSTORE PUSH1 0x40 DUP4 KECCAK256 DUP3 DUP5 MSTORE PUSH1 0x20 MSTORE PUSH1 0x40 DUP4 KECCAK256 PUSH1 0x1 PUSH1 0xFF NOT DUP3 SLOAD AND OR SWAP1 SSTORE PUSH32 0x2F8788117E7EFF1D82E926EC794901D17C78024A50270940304540A733656F0D CALLER SWAP4 DUP1 LOG4 PUSH1 0x1 SWAP1 JUMP JUMPDEST POP POP SWAP1 JUMP JUMPDEST SWAP1 PUSH1 0x0 SWAP2 DUP1 DUP4 MSTORE DUP3 PUSH1 0x20 MSTORE PUSH1 0x40 DUP4 KECCAK256 SWAP2 PUSH1 0x1 DUP1 PUSH1 0xA0 SHL SUB AND SWAP2 DUP3 DUP5 MSTORE PUSH1 0x20 MSTORE PUSH1 0xFF PUSH1 0x40 DUP5 KECCAK256 SLOAD AND ISZERO PUSH1 0x0 EQ PUSH2 0xAEA JUMPI DUP1 DUP4 MSTORE DUP3 PUSH1 0x20 MSTORE PUSH1 0x40 DUP4 KECCAK256 DUP3 DUP5 MSTORE PUSH1 0x20 MSTORE PUSH1 0x40 DUP4 KECCAK256 PUSH1 0x1 PUSH1 0xFF NOT DUP3 SLOAD AND OR SWAP1 SSTORE PUSH32 0x2F8788117E7EFF1D82E926EC794901D17C78024A50270940304540A733656F0D CALLER SWAP4 DUP1 LOG4 PUSH1 0x1 SWAP1 JUMP JUMPDEST SWAP1 PUSH1 0x0 SWAP2 DUP1 DUP4 MSTORE DUP3 PUSH1 0x20 MSTORE PUSH1 0x40 DUP4 KECCAK256 SWAP2 PUSH1 0x1 DUP1 PUSH1 0xA0 SHL SUB AND SWAP2 DUP3 DUP5 MSTORE PUSH1 0x20 MSTORE PUSH1 0xFF PUSH1 0x40 DUP5 KECCAK256 SLOAD AND PUSH1 0x0 EQ PUSH2 0xAEA JUMPI DUP1 DUP4 MSTORE DUP3 PUSH1 0x20 MSTORE PUSH1 0x40 DUP4 KECCAK256 DUP3 DUP5 MSTORE PUSH1 0x20 MSTORE PUSH1 0x40 DUP4 KECCAK256 PUSH1 0xFF NOT DUP2 SLOAD AND SWAP1 SSTORE PUSH32 0xF6391F5C32D9C69D2A47EA670B442974B53935D1EDC7FD64EB21E047A839171B CALLER SWAP4 DUP1 LOG4 PUSH1 0x1 SWAP1 JUMP JUMPDEST ISZERO PUSH2 0xBE4 JUMPI JUMP JUMPDEST PUSH1 0x40 MLOAD PUSH3 0x461BCD PUSH1 0xE5 SHL DUP2 MSTORE PUSH1 0x20 PUSH1 0x4 DUP3 ADD MSTORE PUSH1 0xB PUSH1 0x24 DUP3 ADD MSTORE PUSH11 0x16995C9BC8185B5BDD5B9D PUSH1 0xAA SHL PUSH1 0x44 DUP3 ADD MSTORE PUSH1 0x64 SWAP1 REVERT JUMPDEST SWAP2 SWAP1 DUP3 SUB SWAP2 DUP3 GT PUSH2 0xC24 JUMPI JUMP JUMPDEST PUSH4 0x4E487B71 PUSH1 0xE0 SHL PUSH1 0x0 MSTORE PUSH1 0x11 PUSH1 0x4 MSTORE PUSH1 0x24 PUSH1 0x0 REVERT JUMPDEST RETURNDATASIZE ISZERO PUSH2 0xC96 JUMPI PUSH8 0xFFFFFFFFFFFFFFFF SWAP1 RETURNDATASIZE DUP3 DUP2 GT PUSH2 0xC80 JUMPI PUSH1 0x40 MLOAD SWAP3 PUSH1 0x1F DUP3 ADD PUSH1 0x1F NOT SWAP1 DUP2 AND PUSH1 0x3F ADD AND DUP5 ADD SWAP1 DUP2 GT DUP5 DUP3 LT OR PUSH2 0xC80 JUMPI PUSH1 0x40 MSTORE DUP3 MSTORE RETURNDATASIZE PUSH1 0x0 PUSH1 0x20 DUP5 ADD RETURNDATACOPY JUMP JUMPDEST PUSH4 0x4E487B71 PUSH1 0xE0 SHL PUSH1 0x0 MSTORE PUSH1 0x41 PUSH1 0x4 MSTORE PUSH1 0x24 PUSH1 0x0 REVERT JUMPDEST PUSH1 0x60 SWAP1 JUMP JUMPDEST PUSH1 0x2 PUSH1 0x1 SLOAD EQ PUSH2 0xCAC JUMPI PUSH1 0x2 PUSH1 0x1 SSTORE JUMP JUMPDEST PUSH1 0x40 MLOAD PUSH4 0x3EE5AEB5 PUSH1 0xE0 SHL DUP2 MSTORE PUSH1 0x4 SWAP1 REVERT JUMPDEST PUSH1 0x40 MLOAD PUSH4 0xA9059CBB PUSH1 0xE0 SHL PUSH1 0x20 DUP3 ADD MSTORE PUSH1 0x1 PUSH1 0x1 PUSH1 0xA0 SHL SUB SWAP1 SWAP3 AND PUSH1 0x24 DUP4 ADD MSTORE PUSH1 0x44 DUP1 DUP4 ADD SWAP4 SWAP1 SWAP4 MSTORE SWAP2 DUP2 MSTORE PUSH1 0x80 DUP2 ADD SWAP2 PUSH8 0xFFFFFFFFFFFFFFFF DUP4 GT DUP3 DUP5 LT OR PUSH2 0xC80 JUMPI PUSH2 0xD0E SWAP3 PUSH1 0x40 MSTORE PUSH2 0xD10 JUMP JUMPDEST JUMP JUMPDEST SWAP1 PUSH1 0x0 PUSH1 0x20 SWAP2 DUP3 DUP2 MLOAD SWAP2 ADD DUP3 DUP6 GAS CALL ISZERO PUSH2 0xD6C JUMPI PUSH1 0x0 MLOAD RETURNDATASIZE PUSH2 0xD63 JUMPI POP PUSH1 0x1 PUSH1 0x1 PUSH1 0xA0 SHL SUB DUP2 AND EXTCODESIZE ISZERO JUMPDEST PUSH2 0xD41 JUMPI POP JUMP JUMPDEST PUSH1 0x40 MLOAD PUSH4 0x5274AFE7 PUSH1 0xE0 SHL DUP2 MSTORE PUSH1 0x1 PUSH1 0x1 PUSH1 0xA0 SHL SUB SWAP1 SWAP2 AND PUSH1 0x4 DUP3 ADD MSTORE PUSH1 0x24 SWAP1 REVERT JUMPDEST PUSH1 0x1 EQ ISZERO PUSH2 0xD3A JUMP JUMPDEST PUSH1 0x40 MLOAD RETURNDATASIZE PUSH1 0x0 DUP3 RETURNDATACOPY RETURNDATASIZE SWAP1 REVERT INVALID LOG2 PUSH5 0x6970667358 0x22 SLT KECCAK256 CODECOPY PUSH16 0xA232CDF692AE0703F4C939CF7B01ED50 0xE2 LOG4 PUSH18 0xA81606F2D830849980D6C164736F6C634300 ADDMOD EQ STOP CALLER "},"methodIdentifiers":{"DEFAULT_ADMIN_ROLE()":"a217fddf","PRESALE_ROLE()":"9326197a","REFERRAL_POOL_BPS()":"40199171","SBT_STAKING_BPS()":"e626b8c2","TOTAL_BPS()":"d3cd52bc","TREASURY_BPS()":"4c25d197","distributeFeeERC20(address,uint256)":"398da911","distributeFeeNative()":"990087b7","getRoleAdmin(bytes32)":"248a9ca3","grantPresaleRole(address)":"417eb66c","grantRole(bytes32,address)":"2f2ff15d","hasRole(bytes32,address)":"91d14854","referralPool()":"1e4df938","renounceRole(bytes32,address)":"36568abe","revokeRole(bytes32,address)":"d547741f","sbtStaking()":"83dd9972","supportsInterface(bytes4)":"01ffc9a7","treasury()":"61d027b3","updateReferralPool(address)":"55d08949","updateSbtStaking(address)":"2792ffcb","updateTreasury(address)":"7f51bb1f"}}}}}