{"contracts/fairlaunch/FairlaunchFactory.sol":{"FairlaunchFactory":{"abi":[{"inputs":[{"internalType":"address","name":"_feeSplitter","type":"address"},{"internalType":"address payable","name":"_treasuryWallet","type":"address"},{"internalType":"address","name":"_timelockExecutor","type":"address"},{"internalType":"uint256","name":"_initialCreationFee","type":"uint256"}],"stateMutability":"nonpayable","type":"constructor"},{"inputs":[],"name":"AccessControlBadConfirmation","type":"error"},{"inputs":[{"internalType":"address","name":"account","type":"address"},{"internalType":"bytes32","name":"neededRole","type":"bytes32"}],"name":"AccessControlUnauthorizedAccount","type":"error"},{"inputs":[],"name":"InsufficientCreationFee","type":"error"},{"inputs":[],"name":"InsufficientLPLockDuration","type":"error"},{"inputs":[],"name":"InvalidContributionRange","type":"error"},{"inputs":[],"name":"InvalidLiquidityPercent","type":"error"},{"inputs":[],"name":"InvalidSoftCap","type":"error"},{"inputs":[],"name":"InvalidTimeRange","type":"error"},{"inputs":[],"name":"InvalidTokenAmount","type":"error"},{"inputs":[{"internalType":"address","name":"token","type":"address"}],"name":"SafeERC20FailedOperation","type":"error"},{"inputs":[],"name":"ZeroAddress","type":"error"},{"anonymous":false,"inputs":[{"indexed":false,"internalType":"uint256","name":"oldFee","type":"uint256"},{"indexed":false,"internalType":"uint256","name":"newFee","type":"uint256"}],"name":"CreationFeeUpdated","type":"event"},{"anonymous":false,"inputs":[{"indexed":true,"internalType":"uint256","name":"fairlaunchId","type":"uint256"},{"indexed":true,"internalType":"address","name":"fairlaunch","type":"address"},{"indexed":false,"internalType":"address","name":"vestingAddress","type":"address"},{"indexed":false,"internalType":"bytes32","name":"complianceHash","type":"bytes32"},{"indexed":false,"internalType":"uint256","name":"creationFeePaid","type":"uint256"}],"name":"FairlaunchCreated","type":"event"},{"anonymous":false,"inputs":[{"indexed":true,"internalType":"address","name":"fairlaunch","type":"address"},{"indexed":false,"internalType":"uint256","name":"lockMonths","type":"uint256"},{"indexed":false,"internalType":"bytes32","name":"dexId","type":"bytes32"},{"indexed":false,"internalType":"uint256","name":"liquidityPercent","type":"uint256"}],"name":"LPPlanRecorded","type":"event"},{"anonymous":false,"inputs":[{"indexed":true,"internalType":"bytes32","name":"role","type":"bytes32"},{"indexed":true,"internalType":"bytes32","name":"previousAdminRole","type":"bytes32"},{"indexed":true,"internalType":"bytes32","name":"newAdminRole","type":"bytes32"}],"name":"RoleAdminChanged","type":"event"},{"anonymous":false,"inputs":[{"indexed":true,"internalType":"bytes32","name":"role","type":"bytes32"},{"indexed":true,"internalType":"address","name":"account","type":"address"},{"indexed":true,"internalType":"address","name":"sender","type":"address"}],"name":"RoleGranted","type":"event"},{"anonymous":false,"inputs":[{"indexed":true,"internalType":"bytes32","name":"role","type":"bytes32"},{"indexed":true,"internalType":"address","name":"account","type":"address"},{"indexed":true,"internalType":"address","name":"sender","type":"address"}],"name":"RoleRevoked","type":"event"},{"anonymous":false,"inputs":[{"indexed":true,"internalType":"address","name":"oldWallet","type":"address"},{"indexed":true,"internalType":"address","name":"newWallet","type":"address"}],"name":"TreasuryWalletUpdated","type":"event"},{"inputs":[],"name":"DEFAULT_ADMIN_ROLE","outputs":[{"internalType":"bytes32","name":"","type":"bytes32"}],"stateMutability":"view","type":"function"},{"inputs":[],"name":"FACTORY_ADMIN_ROLE","outputs":[{"internalType":"bytes32","name":"","type":"bytes32"}],"stateMutability":"view","type":"function"},{"inputs":[{"components":[{"internalType":"address","name":"saleToken","type":"address"},{"internalType":"address","name":"paymentToken","type":"address"},{"internalType":"uint256","name":"tokenForSale","type":"uint256"},{"internalType":"uint256","name":"softCap","type":"uint256"},{"internalType":"uint256","name":"minContribution","type":"uint256"},{"internalType":"uint256","name":"maxContribution","type":"uint256"},{"internalType":"uint256","name":"startTime","type":"uint256"},{"internalType":"uint256","name":"endTime","type":"uint256"},{"internalType":"uint256","name":"listingPremiumBps","type":"uint256"},{"internalType":"address","name":"projectOwner","type":"address"}],"internalType":"struct FairlaunchFactory.CreateFairlaunchParams","name":"params","type":"tuple"},{"components":[{"internalType":"uint256","name":"lockMonths","type":"uint256"},{"internalType":"bytes32","name":"dexId","type":"bytes32"},{"internalType":"uint256","name":"liquidityPercent","type":"uint256"}],"internalType":"struct FairlaunchFactory.LPLockPlan","name":"lpPlan","type":"tuple"},{"components":[{"internalType":"uint256[]","name":"durations","type":"uint256[]"},{"internalType":"uint256[]","name":"amounts","type":"uint256[]"}],"internalType":"struct FairlaunchFactory.VestingParams","name":"vestingParams","type":"tuple"},{"internalType":"bytes32","name":"complianceHash","type":"bytes32"}],"name":"createFairlaunch","outputs":[{"internalType":"address","name":"fairlaunch","type":"address"}],"stateMutability":"payable","type":"function"},{"inputs":[],"name":"creationFee","outputs":[{"internalType":"uint256","name":"","type":"uint256"}],"stateMutability":"view","type":"function"},{"inputs":[],"name":"fairlaunchCount","outputs":[{"internalType":"uint256","name":"","type":"uint256"}],"stateMutability":"view","type":"function"},{"inputs":[{"internalType":"address","name":"","type":"address"}],"name":"fairlaunchToComplianceHash","outputs":[{"internalType":"bytes32","name":"","type":"bytes32"}],"stateMutability":"view","type":"function"},{"inputs":[{"internalType":"address","name":"","type":"address"}],"name":"fairlaunchToLPPlan","outputs":[{"internalType":"uint256","name":"lockMonths","type":"uint256"},{"internalType":"bytes32","name":"dexId","type":"bytes32"},{"internalType":"uint256","name":"liquidityPercent","type":"uint256"}],"stateMutability":"view","type":"function"},{"inputs":[{"internalType":"address","name":"","type":"address"}],"name":"fairlaunchToVesting","outputs":[{"internalType":"address","name":"","type":"address"}],"stateMutability":"view","type":"function"},{"inputs":[{"internalType":"uint256","name":"","type":"uint256"}],"name":"fairlaunches","outputs":[{"internalType":"address","name":"","type":"address"}],"stateMutability":"view","type":"function"},{"inputs":[],"name":"feeSplitter","outputs":[{"internalType":"address","name":"","type":"address"}],"stateMutability":"view","type":"function"},{"inputs":[{"internalType":"uint256","name":"fairlaunchId","type":"uint256"}],"name":"getFairlaunchDetails","outputs":[{"internalType":"address","name":"fairlaunch","type":"address"},{"internalType":"bytes32","name":"complianceHash","type":"bytes32"},{"components":[{"internalType":"uint256","name":"lockMonths","type":"uint256"},{"internalType":"bytes32","name":"dexId","type":"bytes32"},{"internalType":"uint256","name":"liquidityPercent","type":"uint256"}],"internalType":"struct FairlaunchFactory.LPLockPlan","name":"lpPlan","type":"tuple"},{"internalType":"address","name":"vestingAddress","type":"address"}],"stateMutability":"view","type":"function"},{"inputs":[{"internalType":"address","name":"fairlaunch","type":"address"}],"name":"getLPPlan","outputs":[{"components":[{"internalType":"uint256","name":"lockMonths","type":"uint256"},{"internalType":"bytes32","name":"dexId","type":"bytes32"},{"internalType":"uint256","name":"liquidityPercent","type":"uint256"}],"internalType":"struct FairlaunchFactory.LPLockPlan","name":"","type":"tuple"}],"stateMutability":"view","type":"function"},{"inputs":[{"internalType":"bytes32","name":"role","type":"bytes32"}],"name":"getRoleAdmin","outputs":[{"internalType":"bytes32","name":"","type":"bytes32"}],"stateMutability":"view","type":"function"},{"inputs":[{"internalType":"bytes32","name":"role","type":"bytes32"},{"internalType":"address","name":"account","type":"address"}],"name":"grantRole","outputs":[],"stateMutability":"nonpayable","type":"function"},{"inputs":[{"internalType":"bytes32","name":"role","type":"bytes32"},{"internalType":"address","name":"account","type":"address"}],"name":"hasRole","outputs":[{"internalType":"bool","name":"","type":"bool"}],"stateMutability":"view","type":"function"},{"inputs":[{"internalType":"bytes32","name":"role","type":"bytes32"},{"internalType":"address","name":"callerConfirmation","type":"address"}],"name":"renounceRole","outputs":[],"stateMutability":"nonpayable","type":"function"},{"inputs":[{"internalType":"bytes32","name":"role","type":"bytes32"},{"internalType":"address","name":"account","type":"address"}],"name":"revokeRole","outputs":[],"stateMutability":"nonpayable","type":"function"},{"inputs":[{"internalType":"bytes4","name":"interfaceId","type":"bytes4"}],"name":"supportsInterface","outputs":[{"internalType":"bool","name":"","type":"bool"}],"stateMutability":"view","type":"function"},{"inputs":[],"name":"timelockExecutor","outputs":[{"internalType":"address","name":"","type":"address"}],"stateMutability":"view","type":"function"},{"inputs":[],"name":"treasuryWallet","outputs":[{"internalType":"address payable","name":"","type":"address"}],"stateMutability":"view","type":"function"},{"inputs":[{"internalType":"uint256","name":"newFee","type":"uint256"}],"name":"updateCreationFee","outputs":[],"stateMutability":"nonpayable","type":"function"},{"inputs":[{"internalType":"address payable","name":"newTreasury","type":"address"}],"name":"updateTreasuryWallet","outputs":[],"stateMutability":"nonpayable","type":"function"},{"stateMutability":"payable","type":"receive"}],"evm":{"bytecode":{"linkReferences":{},"object":"60c0346200013157601f6200494e38819003918201601f191683019291906001600160401b0384118385101762000136578160809284926040968752833981010312620001315762000051816200014c565b60208201516001600160a01b03929183821691829003620001315760606200007b8685016200014c565b93015193808216156200012057821562000120578316156200010f57608052600280546001600160a01b03191691909117905560a052600155620000bf3362000161565b50620000cb33620001e1565b50516146aa90816200028482396080518181816103b1015281816104ce015281816105190152610e3d015260a0518181816103e3015281816107fe0152610b160152f35b845163d92e233d60e01b8152600490fd5b855163d92e233d60e01b8152600490fd5b600080fd5b634e487b7160e01b600052604160045260246000fd5b51906001600160a01b03821682036200013157565b6001600160a01b031660008181527fad3228b676f7d3cd4284a5443f17f1962b36e491b30a40b2405849e597ba5fb5602052604081205490919060ff16620001dd57818052816020526040822081835260205260408220600160ff1982541617905533916000805160206200492e8339815191528180a4600190565b5090565b6001600160a01b031660008181527f40d6054e7c1e32abf36e71c717b2201c6fb50ee4639813ce060d4f8ffbb78bdd60205260408120549091907fbd5d72ac35ae1e83aa0625c57eddda63fbb064a87fca99dfdd7ce027384ae2829060ff166200027e57808352826020526040832082845260205260408320600160ff198254161790556000805160206200492e833981519152339380a4600190565b50509056fe60808060405260043610156200001f575b5036156200001d57600080fd5b005b600090813560e01c90816301ffc9a714620010d457508063182f630f146200104a578063248a9ca3146200101c5780632f2ff15d1462000fd75780633360cf5e1462000f9a57806336568abe1462000f4b5780634626402b1462000f205780635148695f1462000e6c5780636052970c1462000e255780636fa237951462000dcb578063718bcaee1462000d8e578063809d458d1462000d1057806391d148541462000cc45780639e1f288e1462000ca4578063a186d14f1462000c41578063a217fddf1462000c23578063d547741f1462000bda578063dce0b4e41462000bba578063e0fe61fe1462000b7a578063e249cbec1462000b45578063f6a4ad651462000afe5763fb6e1db70362000010576003193681016101e0811262000993576101401362000afa5760603661014319011262000afa5767ffffffffffffffff6101a4351162000afa576040906101a4353603011262000728577fbd5d72ac35ae1e83aa0625c57eddda63fbb064a87fca99dfdd7ce027384ae282808252816020526040822033835260205260ff6040832054161562000adc5750600154341062000aca576064351562000ab85760e43560c435101562000aa6574260c435111562000aa65760a435608435118062000a9a575b62000a88576084351562000a88576044351562000a7657600c610144351062000a6457611b586101843510801562000a55575b62000a43576001600160a01b036200023e62001325565b161562000a31576001600160a01b03620002576200133c565b161562000a3157806200027760246101a435016101a435600401620012b8565b9050620009ab575b6200028d8260443562001317565b6001600160a01b036200029f62001325565b16620002aa6200133c565b6040516323b872dd60e01b60208201526001600160a01b03909116602482015230604482015260648082019390935291825267ffffffffffffffff60a0830190811190831117620009975790620003089160a08201604052620013e4565b6200031262001325565b6024356001600160a01b03811681036200099357620003306200133c565b9060405192836121ff81011067ffffffffffffffff6121ff860111176200097f576121ff6200147285396001600160a01b039081166121ff8501908152918116602083015260443560408301526064356060830152608435608083015260a43560a083015260c43560c083015260e43560e0830152610104356101008301527f000000000000000000000000000000000000000000000000000000000000000081166101208301529182166101408201527f0000000000000000000000000000000000000000000000000000000000000000909116610160820152819003610180019082f08015620008be576001600160a01b0390811691906200043362001325565b60405163095ea7b360e01b60208201526001600160a01b0385166024820152604480359082015291166200047582606481015b03601f1981018452836200139c565b602083835182850182855af183513d8262000960575b505015620008f1575b5050813b156200072857604051637c4b414d60e01b8152818160048183875af180156200072b57620008df575b5080928062000736575b507f00000000000000000000000000000000000000000000000000000000000000006001600160a01b03163b15620007285760405163105fad9b60e21b8152600481018390528181602481837f00000000000000000000000000000000000000000000000000000000000000006001600160a01b03165af180156200072b5790829162000710575b50506003548152600460205260408120826bffffffffffffffffffffffff60a01b82541617905581815260056020526101c4356040822055600660205260408120610144358155610164356001820155600261018435910155808080803460018060a01b03600254165af1903d1562000709573d9067ffffffffffffffff8211620006f55760405191620005f2601f8201601f1916602001846200139c565b825260203d92013e5b15620006b057620006a56060826020947ffc86fe9edff420b07462373f90f5140ab7b05c9d0e746344115a189f8dde04506003549384926040519060018060a01b031681526101c43589820152346040820152a3827fda79e99dc31a6b02a1a6d9e3758c6d0ef34606738cc48a1ff703d6566b040626604051806200069c610184356101643561014435846040919493926060820195825260208201520152565b0390a2620012f1565b600355604051908152f35b60405162461bcd60e51b815260206004820152601860248201527f5472656173757279207472616e73666572206661696c656400000000000000006044820152606490fd5b634e487b7160e01b81526041600452602490fd5b50620005fb565b6200071b9062001387565b6200072857803862000553565b80fd5b6040513d84823e3d90fd5b92506200074262001325565b6200074c6200133c565b6200075e60046101a4350180620012b8565b906200077760246101a435016101a435600401620012b8565b929093604051958661100481011067ffffffffffffffff61100489011117620008cb5792620007fc9492620007e592889795611004620036718a396001600160a01b039081166110048a019081529116602082015260e435604082015260c0606082018190520191620013bf565b9161100485018303608061100487010152620013bf565b7f00000000000000000000000000000000000000000000000000000000000000006001600160a01b0316611004830160a00152039082f08015620008be576001600160a01b03908116936200089b9162000466919062000895906200086062001325565b60405163a9059cbb60e01b60208201526001600160a01b038a1660248201526044810194909452929392169183906064820190565b620013e4565b81815260076020526040812080546001600160a01b0319168417905538620004cb565b50604051903d90823e3d90fd5b634e487b7160e01b88526041600452602488fd5b620008ea9062001387565b38620004c1565b60405163095ea7b360e01b60208201528460248201528360448201526044815280608081011067ffffffffffffffff6080830111176200094c5790620008958260806200094495940160405282620013e4565b388062000494565b634e487b7160e01b84526041600452602484fd5b909150620009765750803b15155b38806200048b565b6001146200096e565b634e487b7160e01b85526041600452602485fd5b8280fd5b634e487b7160e01b83526041600452602483fd5b80915b620009c660246101a435016101a435600401620012b8565b905083101562000a2957620009e860246101a435016101a435600401620012b8565b84101562000a155762000a0e9162000a07918560051b01359062001317565b92620012f1565b91620009ae565b634e487b7160e01b83526032600452602483fd5b91506200027f565b60405163d92e233d60e01b8152600490fd5b6040516351424f0b60e11b8152600490fd5b50612710610184351162000227565b6040516376a12a0f60e11b8152600490fd5b604051632160733960e01b8152600490fd5b60405163102df2a160e11b8152600490fd5b5060a4351515620001f4565b60405163536a71af60e01b8152600490fd5b60405163f4354b3960e01b8152600490fd5b604051630535b74760e41b8152600490fd5b6044906040519063e2517d3f60e01b82523360048301526024820152fd5b5080fd5b503462000728578060031936011262000728576040517f00000000000000000000000000000000000000000000000000000000000000006001600160a01b03168152602090f35b5034620007285760203660031901126200072857602090600435815260048252604060018060a01b0391205416604051908152f35b50346200072857602036600319011262000728576020906001600160a01b03906040908262000ba86200112e565b16815260078452205416604051908152f35b503462000728578060031936011262000728576020600154604051908152f35b503462000728576040366003190112620007285762000c1f60043562000bff6200114a565b908084528360205262000c1960016040862001546200119c565b62001242565b5080f35b50346200072857806003193601126200072857602090604051908152f35b50346200072857602036600319011262000728576040906001600160a01b0362000c6a6200112e565b168152600660205220805462000ca060026001840154930154604051938493846040919493926060820195825260208201520152565b0390f35b503462000728578060031936011262000728576020600354604051908152f35b503462000728576040366003190112620007285760ff604060209262000ce96200114a565b60043582528185528282206001600160a01b03909116825284522054604051911615158152f35b50346200072857602036600319011262000728576004356001600160a01b0381811691829003620009935762000d4562001161565b811562000a3157600254826bffffffffffffffffffffffff60a01b821617600255167fa982575859d7ad2f390dc12b23f7dab8bbda047f9d0140ac68344b27bf34bfb48380a380f35b50346200072857602036600319011262000728576020906040906001600160a01b0362000dba6200112e565b168152600583522054604051908152f35b50346200072857602036600319011262000728577f5de302eeb1c80d4fb0c0953b692353f09ddf431411b8eb2034d5e85769561912604060043562000e0f62001161565b600154908060015582519182526020820152a180f35b503462000728578060031936011262000728576040517f00000000000000000000000000000000000000000000000000000000000000006001600160a01b03168152602090f35b5034620007285760208060031936011262000afa579060c09162000e8f62001450565b5060043582526004815262000f1960018060a01b039283604082205416938482526005845260408220549060068552604080842093600282519562000ed48762001354565b80548752600181015489880152015482860152878152600787522054169360405195865285015260408401906040809180518452602081015160208501520151910152565b60a0820152f35b503462000728578060031936011262000728576002546040516001600160a01b039091168152602090f35b503462000728576040366003190112620007285762000f696200114a565b336001600160a01b0382160362000f885762000c1f9060043562001242565b60405163334bd91960e11b8152600490fd5b5034620007285780600319360112620007285760206040517fbd5d72ac35ae1e83aa0625c57eddda63fbb064a87fca99dfdd7ce027384ae2828152f35b503462000728576040366003190112620007285762000c1f60043562000ffc6200114a565b90808452836020526200101660016040862001546200119c565b620011c3565b5034620007285760203660031901126200072857600160406020926004358152808452200154604051908152f35b503462000728576020366003190112620007285760406060916200106d6200112e565b6200107762001450565b506001600160a01b03168152600660205220604051906002906200109b8362001354565b805483526001810154602084015201546040820152620010d260405180926040809180518452602081015160208501520151910152565bf35b90503462000afa57602036600319011262000afa5760043563ffffffff60e01b8116809103620009935760209250637965db0b60e01b81149081156200111c575b5015158152f35b6301ffc9a760e01b1490503862001115565b600435906001600160a01b03821682036200114557565b600080fd5b602435906001600160a01b03821682036200114557565b3360009081527fad3228b676f7d3cd4284a5443f17f1962b36e491b30a40b2405849e597ba5fb5602052604081205460ff161562000adc5750565b80600052600060205260406000203360005260205260ff604060002054161562000adc5750565b9060009180835282602052604083209160018060a01b03169182845260205260ff604084205416156000146200123d57808352826020526040832082845260205260408320600160ff198254161790557f2f8788117e7eff1d82e926ec794901d17c78024a50270940304540a733656f0d339380a4600190565b505090565b9060009180835282602052604083209160018060a01b03169182845260205260ff6040842054166000146200123d5780835282602052604083208284526020526040832060ff1981541690557ff6391f5c32d9c69d2a47ea670b442974b53935d1edc7fd64eb21e047a839171b339380a4600190565b903590601e198136030182121562001145570180359067ffffffffffffffff82116200114557602001918160051b360383136200114557565b6000198114620013015760010190565b634e487b7160e01b600052601160045260246000fd5b919082018092116200130157565b6004356001600160a01b0381168103620011455790565b610124356001600160a01b0381168103620011455790565b6060810190811067ffffffffffffffff8211176200137157604052565b634e487b7160e01b600052604160045260246000fd5b67ffffffffffffffff81116200137157604052565b90601f8019910116810190811067ffffffffffffffff8211176200137157604052565b81835290916001600160fb1b038311620011455760209260051b809284830137010190565b906000602091828151910182855af11562001444576000513d6200143a57506001600160a01b0381163b155b620014185750565b604051635274afe760e01b81526001600160a01b039091166004820152602490fd5b6001141562001410565b6040513d6000823e3d90fd5b604051906200145f8262001354565b6000604083828152826020820152015256fe6101e034620002ff57601f620021ff38819003918201601f19168301916001600160401b03831184841017620002c55780849261018094604052833981010312620002ff576200004f8162000304565b906200005e6020820162000304565b916040820151926060830151608084015160a085015160c08601519060e08701519261010088015194620000966101208a0162000304565b99620000b5610160620000ad6101408d0162000304565b9b0162000304565b97600160005585871115620002db576001600160a01b038c1615620002ed576001600160a01b038b1615620002ed576001600160a01b038a1615620002ed578115620002db578215620002db576200014f9960805260a05260c05260e05261010052610120526101405261016052610180526101a09384526101c092835260ff1960075416600755620001488162000319565b506200039a565b50604051608081016001600160401b03811182821017620002c557604052603260606101f49283815260fa602082015260c86040820152015260035560fa60045560c8600555603260065560405190611da192836200043e8439608051838181610305015281816107cd01528181610aa50152610ed9015260a0518381816104b301528181610c6b01528181611128015261151f015260c05183818161026b01528181610a7d01528181610ff10152818161109d0152611d09015260e051838181610246015281816106d501528181610978015261105901526101005183818161059b0152610c090152610120518381816109b30152610c3001526101405183818161029b0152818161060001528181610b0d0152611b090152610160518381816102c1015281816114e70152611bcd0152610180518381816110cc015261161d015251828181610dcb0152818161115701526112d901525181818161081e015281816108b1015281816111b101526112820152f35b634e487b7160e01b600052604160045260246000fd5b6040516307a92f1960e51b8152600490fd5b60405163e6c4247b60e01b8152600490fd5b600080fd5b51906001600160a01b0382168203620002ff57565b6001600160a01b031660008181527fac33ff75c19e70fe83507db0d683fd3465c996598dc972688b7ace676c89077b602052604081205490919060ff16620003965781805260026020526040822081835260205260408220600160ff198254161790553391600080516020620021df8339815191528180a4600190565b5090565b6001600160a01b031660008181527fe5ebfa64fca8d502a8e50c1edffd2c31ef4dad5b396e65d9f397fb028f74abc560205260408120549091907fa49807205ce4d355092ef5a8a18f56e8913cf4a201fbe287825b095693c217759060ff16620004385780835260026020526040832082845260205260408320600160ff19825416179055600080516020620021df833981519152339380a4600190565b50509056fe608060408181526004918236101561001657600080fd5b600092833560e01c91826301ffc9a714611704575081630b4f3f3d146116785781630b6d621c146116405781630b7c1ae1146116055781631e5eb1d0146115cc578163200d2ed2146115a3578163248a9ca3146115785781632f2ff15d1461154e5781633013ce291461150a5781633197cbb6146114cf57816336568abe146114895781633871bda5146110145781633970f69814610fd95781633f4ba83a14610f6f57816342e94c9014610f3757816348c54b9d14610e595781634a3b68cc14610e1e5781635c975abb14610dfa5781636052970c14610db657816360b0b0f014610ba957816373b2e80e14610b6b57816375b238fc14610b3057816378e9792514610af55781637c4b414d14610a305781638456cb59146109d65781638d3d65761461099b578163906a26e01461096057816391d148541461091a578163a217fddf146108ff578163a4317ef4146108e0578163a4475ce41461089c578163a4a1383f1461077c578163a6b513ee1461075d578163a87f966f14610697578163a9eddf99146105be578163aaffadf314610583578163b5545a3c14610454578163b920ade214610427578163c5c4744c14610408578163c78f19f9146103e9578163cd78d92c14610378578163d547741f1461033457508063e985e367146102f15763f65f314b1461020957600080fd5b346102ed57816003193601126102ed576101209060ff600754169060085490600954600a5491600b549361023f825180976117d2565b60208601527f0000000000000000000000000000000000000000000000000000000000000000908501527f00000000000000000000000000000000000000000000000000000000000000006060850152608084015260a08301527f000000000000000000000000000000000000000000000000000000000000000060c08301527f000000000000000000000000000000000000000000000000000000000000000060e0830152610100820152f35b5080fd5b50346102ed57816003193601126102ed57517f00000000000000000000000000000000000000000000000000000000000000006001600160a01b03168152602090f35b91905034610374578060031936011261037457610370913561036b60016103596117bc565b9383875260026020528620015461186f565b611915565b5080f35b8280fd5b5050346102ed5760203660031901126102ed57906080916103976117a6565b9160018060a01b039160ff8184861694858552600c6020526103bc8286205497611ccb565b958552600f602052818520541693600e602052205416928151948552602085015283015215156060820152f35b5050346102ed57816003193601126102ed57602090600a549051908152f35b5050346102ed57816003193601126102ed576020906008549051908152f35b5050346102ed5760203660031901126102ed5760209061044d6104486117a6565b611ccb565b9051908152f35b9190503461037457826003193601126103745761046f611adc565b60ff6007541660098110156105705760068114159081610564575b5061055757338352600c6020528083205491821561054957338452600c602052818420849055827f00000000000000000000000000000000000000000000000000000000000000006001600160a01b03168061053857508480808093335af16104f1611c4a565b501561052a57505b519081527fd7dee2702d63ad89917b6a4da9981c90c4d24f8c2bdfd64c604ecae57d8d065160203392a26001815580f35b90516307a92f1960e51b8152fd5b61054492503390611c8a565b6104f9565b9051631971fbf360e21b8152fd5b51630b4d698160e01b8152fd5b6008915014153861048a565b634e487b7160e01b845260218352602484fd5b5050346102ed57816003193601126102ed57602090517f00000000000000000000000000000000000000000000000000000000000000008152f35b905034610374576080366003190112610374576105d96117f5565b60ff600754166009811015610684578015159081610678575b5061066b5760085461066b577f000000000000000000000000000000000000000000000000000000000000000042101561066b576044359060243590803561063a8484611a9b565b946106486064358097611a9b565b820361065c57506003555560055560065580f35b51632b00a33d60e11b81529050fd5b905162b5d7e160e81b8152fd5b600291501415386105f2565b634e487b7160e01b845260218252602484fd5b839150346102ed576106a836611757565b916106b16117f5565b6106b9611aff565b6007549060ff8216600981101561074a57810361073c576008547f0000000000000000000000000000000000000000000000000000000000000000111561073c57507f3d83bfe8797f11e26cefdb415ba6850e58a00ccd2f3d29e924104f10b7f184ee939460066107369260ff1916176007555192839283611d43565b0390a180f35b85516307a92f1960e51b8152fd5b634e487b7160e01b865260218252602486fd5b5050346102ed57816003193601126102ed576020906009549051908152f35b919050346103745782600319360112610374576107976117f5565b60ff6007541660098110156105705760068114159081610890575b506108835780516370a0823160e01b815230928101929092527f00000000000000000000000000000000000000000000000000000000000000006001600160a01b031691602081602481865afa91821561087a57508391610849575b5080610818578280f35b610843917f000000000000000000000000000000000000000000000000000000000000000090611c8a565b38808280f35b90506020813d8211610872575b81610863602093836119b6565b8101031261037457513861080e565b3d9150610856565b513d85823e3d90fd5b516307a92f1960e51b8152fd5b600891501415386107b2565b5050346102ed57816003193601126102ed57517f00000000000000000000000000000000000000000000000000000000000000006001600160a01b03168152602090f35b5050346102ed57816003193601126102ed57602090600b549051908152f35b5050346102ed57816003193601126102ed5751908152602090f35b905034610374578160031936011261037457816020936109386117bc565b9235815260028552209060018060a01b0316600052825260ff81600020541690519015158152f35b5050346102ed57816003193601126102ed57602090517f00000000000000000000000000000000000000000000000000000000000000008152f35b5050346102ed57816003193601126102ed57602090517f00000000000000000000000000000000000000000000000000000000000000008152f35b5050346102ed57816003193601126102ed5760207f62e78cea01bee320cd4e420270b5ea74000d11b0c9f74754ebdbfc544b05a25891610a146117f5565b610a1c611abe565b600160ff198154161760015551338152a180f35b90503461037457826003193601126103745760ff60075416600981101561068457610ae757507f77acf75e237f9aae98f997395832d522bdb695e4a9bd07704936aa889a3667d1906020907f000000000000000000000000000000000000000000000000000000000000000090610ad28230337f00000000000000000000000000000000000000000000000000000000000000006001600160a01b03166119d8565b600260ff19600754161760075551908152a180f35b9051630fd0af2360e31b8152fd5b5050346102ed57816003193601126102ed57602090517f00000000000000000000000000000000000000000000000000000000000000008152f35b5050346102ed57816003193601126102ed57602090517fa49807205ce4d355092ef5a8a18f56e8913cf4a201fbe287825b095693c217758152f35b5050346102ed5760203660031901126102ed5760209160ff9082906001600160a01b03610b966117a6565b168152600e855220541690519015158152f35b90508160031936011261037457803590610bc16117bc565b90610bca611adc565b610bd2611abe565b610bda611aff565b60ff60075416600981101561074a57600303610da857338552602091600c8352610c078486882054611a9b565b7f00000000000000000000000000000000000000000000000000000000000000008110610d98577f00000000000000000000000000000000000000000000000000000000000000008015159182610d8e575b5050610d7f576001600160a01b0391847f0000000000000000000000000000000000000000000000000000000000000000841680610d455750340361073c575090807fec470969f3350ca5a15f0d85053f8763ffd0ee39c7b74fcdc5af7862718e292a93925b338852600c8452868820610cd4878254611a9b565b9055610ce286600854611a9b565b6008551680151580610d31575b610d10575b50338652600f8252848620541693519283523392a36001815580f35b338752600f835285872080546001600160a01b031916909117905538610cf4565b50338752600f835281868820541615610cef565b8493917fec470969f3350ca5a15f0d85053f8763ffd0ee39c7b74fcdc5af7862718e292a96959350610d7a91309033906119d8565b610cbf565b5083516374368fb960e11b8152fd5b1190503880610c59565b855163860b82a960e01b81528390fd5b83516307a92f1960e51b8152fd5b5050346102ed57816003193601126102ed57517f00000000000000000000000000000000000000000000000000000000000000006001600160a01b03168152602090f35b5050346102ed57816003193601126102ed5760209060ff6001541690519015158152f35b5050346102ed5760203660031901126102ed576020916001600160a01b0390829082610e486117a6565b168152600f85522054169051908152f35b905034610374578260031936011261037457610e73611adc565b60ff6007541660098110156106845760050361052a57338352600e60205260ff828420541661052a57338352600c60205281832054156105495750610eb733611ccb565b33808452600e602052828420805460ff19166001179055909190610f069083907f00000000000000000000000000000000000000000000000000000000000000006001600160a01b0316611c8a565b519081527f896e034966eaaf1adc54acc0f257056febbd300c9e47182cf761982cf1f5e43060203392a26001815580f35b5050346102ed5760203660031901126102ed5760209181906001600160a01b03610f5f6117a6565b168152600c845220549051908152f35b905034610374578260031936011261037457610f896117f5565b6001549060ff821615610fcb575060ff1916600155513381527f5db9ee0a495bf2e6ff9c91a7834c1ba4fdd244a5e8aa4e537bd38aeae4b073aa90602090a180f35b8251638dfc202b60e01b8152fd5b5050346102ed57816003193601126102ed57602090517f00000000000000000000000000000000000000000000000000000000000000008152f35b90503461037457826003193601126103745761102e6117f5565b611036611adc565b61103e611aff565b60ff60075416600981101561068457810361052a57600854907f0000000000000000000000000000000000000000000000000000000000000000821061147b57670de0b6b3a7640000808302908382041483151715611455576110c2907f000000000000000000000000000000000000000000000000000000000000000090611c2a565b80600955612710907f000000000000000000000000000000000000000000000000000000000000000082019081831161146857829161110091611c17565b04600a5561111060035484611c17565b04918281039081116114555784906001600160a01b037f00000000000000000000000000000000000000000000000000000000000000008181169182159182156112d257507f000000000000000000000000000000000000000000000000000000000000000016803b156112ce57848791878a518094819363990087b760e01b83525af19081156112c45785916112ac575b50505b156112525750818080927f00000000000000000000000000000000000000000000000000000000000000005af16111da611c4a565b501561124457507face74245e2451ecdb289c3f7d531ca72af2b951251b6c2acf0dd836bf0775d4b9160a0915b42600b55600560ff1960075416176007556008549160095490600a5491815194855260208501528301526060820152426080820152a16001815580f35b82516307a92f1960e51b8152fd5b7face74245e2451ecdb289c3f7d531ca72af2b951251b6c2acf0dd836bf0775d4b95935060a0949250906112a7917f000000000000000000000000000000000000000000000000000000000000000090611c8a565b611207565b6112b59061198c565b6112c05783386111a2565b8380fd5b88513d87823e3d90fd5b8480fd5b91929394907f00000000000000000000000000000000000000000000000000000000000000008951896020858184016113418561133363095ea7b360e01b96878552896024840160209093929193604081019460018060a01b031681520152565b03601f1981018752866119b6565b845190828c5af185513d82611439575b5050156113cf575b50501691823b156102ed57885163398da91160e01b81526001600160a01b03909116878201908152602081018990529092839182908490829060400103925af180156113c5576113ae575b50908692916111a5565b6113bc90979193929761198c565b959091386113a4565b87513d8a823e3d90fd5b90919293508a5190602082015283831660248201528b6044820152604481526080810181811067ffffffffffffffff821117611426579161141961141f928e9695948e5289611a33565b87611a33565b3880611359565b634e487b7160e01b8d5260418a5260248dfd5b90915061144d5750873b15155b3880611351565b600114611446565b634e487b7160e01b855260118252602485fd5b634e487b7160e01b875260118452602487fd5b82516346c21a5560e01b8152fd5b8383346102ed57806003193601126102ed576114a36117bc565b90336001600160a01b038316036114c05750610370919235611915565b5163334bd91960e11b81528390fd5b5050346102ed57816003193601126102ed57602090517f00000000000000000000000000000000000000000000000000000000000000008152f35b5050346102ed57816003193601126102ed57517f00000000000000000000000000000000000000000000000000000000000000006001600160a01b03168152602090f35b91905034610374578060031936011261037457610370913561157360016103596117bc565b611895565b9050346103745760203660031901126103745781602093600192358152600285522001549051908152f35b5050346102ed57816003193601126102ed576020906115ca60ff60075416915180926117d2565bf35b91905034610374578260031936011261037457608092506003549154906005549060065492815194855260208501528301526060820152f35b5050346102ed57816003193601126102ed57602090517f00000000000000000000000000000000000000000000000000000000000000008152f35b5050346102ed5760203660031901126102ed5760209181906001600160a01b036116686117a6565b168152600d845220549051908152f35b839150346102ed5761168936611757565b916116926117f5565b61169a611aff565b6007549060ff8216600981101561074a57600281141590816116f8575b5061073c57507f2ac842f90dab3279148f7e55ac91d911f75c1c300a202a5250e05400b15fa156939460086107369260ff1916176007555192839283611d43565b600391501415876116b7565b849134610374576020366003190112610374573563ffffffff60e01b81168091036103745760209250637965db0b60e01b8114908115611746575b5015158152f35b6301ffc9a760e01b1490508361173f565b9060206003198301126117a15760043567ffffffffffffffff928382116117a157806023830112156117a15781600401359384116117a157602484830101116117a1576024019190565b600080fd5b600435906001600160a01b03821682036117a157565b602435906001600160a01b03821682036117a157565b9060098210156117df5752565b634e487b7160e01b600052602160045260246000fd5b3360009081527fe5ebfa64fca8d502a8e50c1edffd2c31ef4dad5b396e65d9f397fb028f74abc560205260409020547fa49807205ce4d355092ef5a8a18f56e8913cf4a201fbe287825b095693c217759060ff16156118515750565b6044906040519063e2517d3f60e01b82523360048301526024820152fd5b80600052600260205260406000203360005260205260ff60406000205416156118515750565b906000918083526002602052604083209160018060a01b03169182845260205260ff604084205416156000146119105780835260026020526040832082845260205260408320600160ff198254161790557f2f8788117e7eff1d82e926ec794901d17c78024a50270940304540a733656f0d339380a4600190565b505090565b906000918083526002602052604083209160018060a01b03169182845260205260ff604084205416600014611910578083526002602052604083208284526020526040832060ff1981541690557ff6391f5c32d9c69d2a47ea670b442974b53935d1edc7fd64eb21e047a839171b339380a4600190565b67ffffffffffffffff81116119a057604052565b634e487b7160e01b600052604160045260246000fd5b90601f8019910116810190811067ffffffffffffffff8211176119a057604052565b6040516323b872dd60e01b60208201526001600160a01b03928316602482015292909116604483015260648083019390935291815260a081019181831067ffffffffffffffff8411176119a057611a3192604052611a33565b565b906000602091828151910182855af115611a8f576000513d611a8657506001600160a01b0381163b155b611a645750565b604051635274afe760e01b81526001600160a01b039091166004820152602490fd5b60011415611a5d565b6040513d6000823e3d90fd5b91908201809211611aa857565b634e487b7160e01b600052601160045260246000fd5b60ff60015416611aca57565b60405163d93c066560e01b8152600490fd5b600260005414611aed576002600055565b604051633ee5aeb560e01b8152600490fd5b60075460ff8116907f000000000000000000000000000000000000000000000000000000000000000042101580611c04575b611bf4575b5060075460ff811660098110156117df5760031480611bca575b611bba575b5060ff6007541660098110156117df5760098210156117df57808203611b79575050565b7f0d643a1384921de4b8ad16df0a695f1e75fcfe3bcac27f9c5c8cee464587238291611bb7604092611bad845180946117d2565b60208301906117d2565ba1565b60ff191660041760075538611b55565b507f0000000000000000000000000000000000000000000000000000000000000000421015611b50565b60ff191660031760075538611b36565b5060098210156117df5760028214611b31565b81810292918115918404141715611aa857565b8115611c34570490565b634e487b7160e01b600052601260045260246000fd5b3d15611c85573d9067ffffffffffffffff82116119a05760405191611c79601f8201601f1916602001846119b6565b82523d6000602084013e565b606090565b60405163a9059cbb60e01b60208201526001600160a01b03929092166024830152604480830193909352918152611a3191611cc66064836119b6565b611a33565b60ff6007541660098110156117df57600503611d3d576008548015611d3657611d339160018060a01b0316600052600c602052611d2e6040600020547f000000000000000000000000000000000000000000000000000000000000000090611c17565b611c2a565b90565b5050600090565b50600090565b90918060409360208452816020850152848401376000828201840152601f01601f191601019056fea264697066735822122006fcfabb08470258aba6bfddaede3eb00a8f107acb3768fe45c757078245b44764736f6c634300081400332f8788117e7eff1d82e926ec794901d17c78024a50270940304540a733656f0d604060c0815234620003775762001004803803806200001e816200037c565b928339810160c08282031262000377576200003982620003a2565b906020916200004a838501620003a2565b8585015160608087015190966001600160401b03939092909184811162000377578662000079918501620003b7565b9560808401519085821162000377576200009c60a091620000a4938701620003b7565b9401620003a2565b6001808055959091906001600160a01b03808216156200034357841615620002ff578751855103620002c957875115620002945792620000f78795989693620000fe938d9b999660805260a05262000434565b50620004b4565b5060009586925b62000175575b505050507f721ddaabe5cc50a5a5fdc5ce1e5636612da513f19115ed78a77b4e60665f07b494508260035551908351928352820152a151610a8d908162000557823960805181818160e801526103e9015260a05181818161017a0152818161031a015261062a0152f35b9193959092949686518510156200028857506200019384876200041f565b51620001a085846200041f565b518a51918a83018381108782111762000272578c5282528882019081528a8201916000835260029182546801000000000000000081101562000272578981018085558110156200025c578360005260038c600020910201915182555188820155019051151560ff801983541691161790556200021d84836200041f565b518101809111620002465796600019841462000246578480940191899795939198969462000105565b634e487b7160e01b600052601160045260246000fd5b634e487b7160e01b600052603260045260246000fd5b634e487b7160e01b600052604160045260246000fd5b9694819694506200010b565b8a5162461bcd60e51b8152600481018a9052600e60248201526d456d707479207363686564756c6560901b6044820152606490fd5b8a5162461bcd60e51b8152600481018a9052600f60248201526e098cadccee8d040dad2e6dac2e8c6d608b1b6044820152606490fd5b8a5162461bcd60e51b8152600481018a9052601360248201527f496e76616c69642062656e6566696369617279000000000000000000000000006044820152606490fd5b8b5162461bcd60e51b8152600481018b9052600d60248201526c24b73b30b634b2103a37b5b2b760991b6044820152606490fd5b600080fd5b6040519190601f01601f191682016001600160401b038111838210176200027257604052565b51906001600160a01b03821682036200037757565b81601f8201121562000377578051916001600160401b03831162000272578260051b6020928380620003eb8185016200037c565b80978152019282010192831162000377578301905b8282106200040f575050505090565b8151815290830190830162000400565b80518210156200025c5760209160051b010190565b6001600160a01b031660008181527fad3228b676f7d3cd4284a5443f17f1962b36e491b30a40b2405849e597ba5fb5602052604081205490919060ff16620004b057818052816020526040822081835260205260408220600160ff19825416179055339160008051602062000fe48339815191528180a4600190565b5090565b6001600160a01b031660008181527fb9b0ac02325ee7cf4551d296a88408527c705a37fefd0e298966a9ada940b4c460205260408120549091907fc8a41221bcd7fcf2c225f5a9265e1d4d39949d89197159d59e5f4b87b62c419e9060ff166200055157808352826020526040832082845260205260408320600160ff1982541617905560008051602062000fe4833981519152339380a4600190565b50509056fe608060408181526004918236101561001657600080fd5b600092833560e01c91826301ffc9a71461075557508163248a9ca31461072b57816326fadbe2146105cc5781632db94d19146105ad5781632f2ff15d1461058f57816336568abe146105545781634e71d92d1461033d57816378e979251461030257816391d14854146102c8578163a217fddf146102ad578163bdc6d9ab1461025a578163ced3a4031461021f578163d547741f146101ea578163d54ad2a1146101c857508063ee28b7441461011b5763fc0c546a146100d557600080fd5b34610117578160031936011261011757517f00000000000000000000000000000000000000000000000000000000000000006001600160a01b03168152602090f35b5080fd5b503461011757816003193601126101175781906002928354905b818110610146576020848451908152f35b60ff8561015283610807565b500154161561016a575b6101659061098f565b610135565b61019e61017682610807565b50547f00000000000000000000000000000000000000000000000000000000000000006109b4565b421061015c57926101c06101659160016101b787610807565b500154906109b4565b93905061015c565b9050346101e657826003193601126101e65760209250549051908152f35b8280fd5b50503461011757600161021b91610216610203366107dc565b9390928387528660205286200154610858565b61091a565b5080f35b505034610117578160031936011261011757602090517fc8a41221bcd7fcf2c225f5a9265e1d4d39949d89197159d59e5f4b87b62c419e8152f35b9050346101e65760203660031901126101e65735916002548310156102aa5750610285606092610807565b509081549160ff60026001830154920154169082519384526020840152151590820152f35b80fd5b50503461011757816003193601126101175751908152602090f35b5050346101175760ff816020936102de366107dc565b9082528186528282206001600160a01b039091168252855220549151911615158152f35b505034610117578160031936011261011757602090517f00000000000000000000000000000000000000000000000000000000000000008152f35b919050346101e657826003193601126101e65760029060019282845414610546578284557fc8a41221bcd7fcf2c225f5a9265e1d4d39949d89197159d59e5f4b87b62c419e8086528560205282862033875260205260ff908184882054161561052957508593805491875b8381106104c4575050505082156104b7576103c48382546109b4565b8155815163a9059cbb60e01b60208201908152336024830152604480830186905282527f00000000000000000000000000000000000000000000000000000000000000006001600160a01b0316916080810167ffffffffffffffff8111828210176104a45785525160209188919082855af11561049a57855185903d610493575050803b155b61047f575050519081527f896e034966eaaf1adc54acc0f257056febbd300c9e47182cf761982cf1f5e43060203392a2805580f35b6024925191635274afe760e01b8352820152fd5b141561044a565b82513d87823e3d90fd5b634e487b7160e01b895260418552602489fd5b905162f3f86160e41b8152fd5b81836104cf83610807565b50015416156104e7575b6104e29061098f565b6103a8565b6104f361017682610807565b42106104d957956105216104e2918461050b8a610807565b5001805460ff19168b179055896101b78a610807565b9690506104d9565b9050604492519163e2517d3f60e01b835233908301526024820152fd5b9051633ee5aeb560e01b8152fd5b83833461011757610564366107dc565b91336001600160a01b0384160361058057509061021b9161091a565b5163334bd91960e11b81528490fd5b50503461011757600161021b916105a8610203366107dc565b61089c565b5050346101175781600319360112610117576020906003549051908152f35b5050346101175781600319360112610117576002918254906105ed82610a11565b926105f783610a11565b610600846109f9565b9061060d835192836109c1565b848252610619856109f9565b6020978389019691601f19013688377f0000000000000000000000000000000000000000000000000000000000000000865b8381106106b95750505050958091610680610673988551998a9960608b5260608b01906107a8565b90898203858b01526107a8565b938785039088015251928381520193925b8281106106a057505050500390f35b8351151585528695509381019392810192600101610691565b808a6106e2826106dc9d9e9b9a9c9d6106d461072096610807565b5054876109b4565b92610a43565b5260016106ee82610807565b5001546106fb8288610a43565b5260ff8461070883610807565b500154166107168289610a43565b901515905261098f565b99989795969961064b565b9050346101e65760203660031901126101e657816020936001923581528085522001549051908152f35b8491346101e65760203660031901126101e6573563ffffffff60e01b81168091036101e65760209250637965db0b60e01b8114908115610797575b5015158152f35b6301ffc9a760e01b14905083610790565b90815180825260208080930193019160005b8281106107c8575050505090565b8351855293810193928101926001016107ba565b604090600319011261080257600435906024356001600160a01b03811681036108025790565b600080fd5b600254811015610842576003906002600052027f405787fa12a823e0f2b7631cc41b3ba8828b3321ca811111fa75cd3aa3bb5ace0190600090565b634e487b7160e01b600052603260045260246000fd5b80600052600060205260406000203360005260205260ff604060002054161561087e5750565b6044906040519063e2517d3f60e01b82523360048301526024820152fd5b9060009180835282602052604083209160018060a01b03169182845260205260ff6040842054161560001461091557808352826020526040832082845260205260408320600160ff198254161790557f2f8788117e7eff1d82e926ec794901d17c78024a50270940304540a733656f0d339380a4600190565b505090565b9060009180835282602052604083209160018060a01b03169182845260205260ff6040842054166000146109155780835282602052604083208284526020526040832060ff1981541690557ff6391f5c32d9c69d2a47ea670b442974b53935d1edc7fd64eb21e047a839171b339380a4600190565b600019811461099e5760010190565b634e487b7160e01b600052601160045260246000fd5b9190820180921161099e57565b90601f8019910116810190811067ffffffffffffffff8211176109e357604052565b634e487b7160e01b600052604160045260246000fd5b67ffffffffffffffff81116109e35760051b60200190565b90610a1b826109f9565b610a2860405191826109c1565b8281528092610a39601f19916109f9565b0190602036910137565b80518210156108425760209160051b01019056fea2646970667358221220ab0dbad7314e73d77bf03df8edac5c8d9b05024f87d1f2e40e2234aa9960610464736f6c634300081400332f8788117e7eff1d82e926ec794901d17c78024a50270940304540a733656f0da2646970667358221220547a54de35b0e04efb2863716511e2046dc77c5c94a2721c884ab6e78c39d17564736f6c634300081400332f8788117e7eff1d82e926ec794901d17c78024a50270940304540a733656f0d","opcodes":"PUSH1 0xC0 CALLVALUE PUSH3 0x131 JUMPI PUSH1 0x1F PUSH3 0x494E CODESIZE DUP2 SWAP1 SUB SWAP2 DUP3 ADD PUSH1 0x1F NOT AND DUP4 ADD SWAP3 SWAP2 SWAP1 PUSH1 0x1 PUSH1 0x1 PUSH1 0x40 SHL SUB DUP5 GT DUP4 DUP6 LT OR PUSH3 0x136 JUMPI DUP2 PUSH1 0x80 SWAP3 DUP5 SWAP3 PUSH1 0x40 SWAP7 DUP8 MSTORE DUP4 CODECOPY DUP2 ADD SUB SLT PUSH3 0x131 JUMPI PUSH3 0x51 DUP2 PUSH3 0x14C JUMP JUMPDEST PUSH1 0x20 DUP3 ADD MLOAD PUSH1 0x1 PUSH1 0x1 PUSH1 0xA0 SHL SUB SWAP3 SWAP2 DUP4 DUP3 AND SWAP2 DUP3 SWAP1 SUB PUSH3 0x131 JUMPI PUSH1 0x60 PUSH3 0x7B DUP7 DUP6 ADD PUSH3 0x14C JUMP JUMPDEST SWAP4 ADD MLOAD SWAP4 DUP1 DUP3 AND ISZERO PUSH3 0x120 JUMPI DUP3 ISZERO PUSH3 0x120 JUMPI DUP4 AND ISZERO PUSH3 0x10F JUMPI PUSH1 0x80 MSTORE PUSH1 0x2 DUP1 SLOAD PUSH1 0x1 PUSH1 0x1 PUSH1 0xA0 SHL SUB NOT AND SWAP2 SWAP1 SWAP2 OR SWAP1 SSTORE PUSH1 0xA0 MSTORE PUSH1 0x1 SSTORE PUSH3 0xBF CALLER PUSH3 0x161 JUMP JUMPDEST POP PUSH3 0xCB CALLER PUSH3 0x1E1 JUMP JUMPDEST POP MLOAD PUSH2 0x46AA SWAP1 DUP2 PUSH3 0x284 DUP3 CODECOPY PUSH1 0x80 MLOAD DUP2 DUP2 DUP2 PUSH2 0x3B1 ADD MSTORE DUP2 DUP2 PUSH2 0x4CE ADD MSTORE DUP2 DUP2 PUSH2 0x519 ADD MSTORE PUSH2 0xE3D ADD MSTORE PUSH1 0xA0 MLOAD DUP2 DUP2 DUP2 PUSH2 0x3E3 ADD MSTORE DUP2 DUP2 PUSH2 0x7FE ADD MSTORE PUSH2 0xB16 ADD MSTORE RETURN JUMPDEST DUP5 MLOAD PUSH4 0xD92E233D PUSH1 0xE0 SHL DUP2 MSTORE PUSH1 0x4 SWAP1 REVERT JUMPDEST DUP6 MLOAD PUSH4 0xD92E233D PUSH1 0xE0 SHL DUP2 MSTORE PUSH1 0x4 SWAP1 REVERT JUMPDEST PUSH1 0x0 DUP1 REVERT JUMPDEST PUSH4 0x4E487B71 PUSH1 0xE0 SHL PUSH1 0x0 MSTORE PUSH1 0x41 PUSH1 0x4 MSTORE PUSH1 0x24 PUSH1 0x0 REVERT JUMPDEST MLOAD SWAP1 PUSH1 0x1 PUSH1 0x1 PUSH1 0xA0 SHL SUB DUP3 AND DUP3 SUB PUSH3 0x131 JUMPI JUMP JUMPDEST PUSH1 0x1 PUSH1 0x1 PUSH1 0xA0 SHL SUB AND PUSH1 0x0 DUP2 DUP2 MSTORE PUSH32 0xAD3228B676F7D3CD4284A5443F17F1962B36E491B30A40B2405849E597BA5FB5 PUSH1 0x20 MSTORE PUSH1 0x40 DUP2 KECCAK256 SLOAD SWAP1 SWAP2 SWAP1 PUSH1 0xFF AND PUSH3 0x1DD JUMPI DUP2 DUP1 MSTORE DUP2 PUSH1 0x20 MSTORE PUSH1 0x40 DUP3 KECCAK256 DUP2 DUP4 MSTORE PUSH1 0x20 MSTORE PUSH1 0x40 DUP3 KECCAK256 PUSH1 0x1 PUSH1 0xFF NOT DUP3 SLOAD AND OR SWAP1 SSTORE CALLER SWAP2 PUSH1 0x0 DUP1 MLOAD PUSH1 0x20 PUSH3 0x492E DUP4 CODECOPY DUP2 MLOAD SWAP2 MSTORE DUP2 DUP1 LOG4 PUSH1 0x1 SWAP1 JUMP JUMPDEST POP SWAP1 JUMP JUMPDEST PUSH1 0x1 PUSH1 0x1 PUSH1 0xA0 SHL SUB AND PUSH1 0x0 DUP2 DUP2 MSTORE PUSH32 0x40D6054E7C1E32ABF36E71C717B2201C6FB50EE4639813CE060D4F8FFBB78BDD PUSH1 0x20 MSTORE PUSH1 0x40 DUP2 KECCAK256 SLOAD SWAP1 SWAP2 SWAP1 PUSH32 0xBD5D72AC35AE1E83AA0625C57EDDDA63FBB064A87FCA99DFDD7CE027384AE282 SWAP1 PUSH1 0xFF AND PUSH3 0x27E JUMPI DUP1 DUP4 MSTORE DUP3 PUSH1 0x20 MSTORE PUSH1 0x40 DUP4 KECCAK256 DUP3 DUP5 MSTORE PUSH1 0x20 MSTORE PUSH1 0x40 DUP4 KECCAK256 PUSH1 0x1 PUSH1 0xFF NOT DUP3 SLOAD AND OR SWAP1 SSTORE PUSH1 0x0 DUP1 MLOAD PUSH1 0x20 PUSH3 0x492E DUP4 CODECOPY DUP2 MLOAD SWAP2 MSTORE CALLER SWAP4 DUP1 LOG4 PUSH1 0x1 SWAP1 JUMP JUMPDEST POP POP SWAP1 JUMP INVALID PUSH1 0x80 DUP1 PUSH1 0x40 MSTORE PUSH1 0x4 CALLDATASIZE LT ISZERO PUSH3 0x1F JUMPI JUMPDEST POP CALLDATASIZE ISZERO PUSH3 0x1D JUMPI PUSH1 0x0 DUP1 REVERT JUMPDEST STOP JUMPDEST PUSH1 0x0 SWAP1 DUP2 CALLDATALOAD PUSH1 0xE0 SHR SWAP1 DUP2 PUSH4 0x1FFC9A7 EQ PUSH3 0x10D4 JUMPI POP DUP1 PUSH4 0x182F630F EQ PUSH3 0x104A JUMPI DUP1 PUSH4 0x248A9CA3 EQ PUSH3 0x101C JUMPI DUP1 PUSH4 0x2F2FF15D EQ PUSH3 0xFD7 JUMPI DUP1 PUSH4 0x3360CF5E EQ PUSH3 0xF9A JUMPI DUP1 PUSH4 0x36568ABE EQ PUSH3 0xF4B JUMPI DUP1 PUSH4 0x4626402B EQ PUSH3 0xF20 JUMPI DUP1 PUSH4 0x5148695F EQ PUSH3 0xE6C JUMPI DUP1 PUSH4 0x6052970C EQ PUSH3 0xE25 JUMPI DUP1 PUSH4 0x6FA23795 EQ PUSH3 0xDCB JUMPI DUP1 PUSH4 0x718BCAEE EQ PUSH3 0xD8E JUMPI DUP1 PUSH4 0x809D458D EQ PUSH3 0xD10 JUMPI DUP1 PUSH4 0x91D14854 EQ PUSH3 0xCC4 JUMPI DUP1 PUSH4 0x9E1F288E EQ PUSH3 0xCA4 JUMPI DUP1 PUSH4 0xA186D14F EQ PUSH3 0xC41 JUMPI DUP1 PUSH4 0xA217FDDF EQ PUSH3 0xC23 JUMPI DUP1 PUSH4 0xD547741F EQ PUSH3 0xBDA JUMPI DUP1 PUSH4 0xDCE0B4E4 EQ PUSH3 0xBBA JUMPI DUP1 PUSH4 0xE0FE61FE EQ PUSH3 0xB7A JUMPI DUP1 PUSH4 0xE249CBEC EQ PUSH3 0xB45 JUMPI DUP1 PUSH4 0xF6A4AD65 EQ PUSH3 0xAFE JUMPI PUSH4 0xFB6E1DB7 SUB PUSH3 0x10 JUMPI PUSH1 0x3 NOT CALLDATASIZE DUP2 ADD PUSH2 0x1E0 DUP2 SLT PUSH3 0x993 JUMPI PUSH2 0x140 SGT PUSH3 0xAFA JUMPI PUSH1 0x60 CALLDATASIZE PUSH2 0x143 NOT ADD SLT PUSH3 0xAFA JUMPI PUSH8 0xFFFFFFFFFFFFFFFF PUSH2 0x1A4 CALLDATALOAD GT PUSH3 0xAFA JUMPI PUSH1 0x40 SWAP1 PUSH2 0x1A4 CALLDATALOAD CALLDATASIZE SUB ADD SLT PUSH3 0x728 JUMPI PUSH32 0xBD5D72AC35AE1E83AA0625C57EDDDA63FBB064A87FCA99DFDD7CE027384AE282 DUP1 DUP3 MSTORE DUP2 PUSH1 0x20 MSTORE PUSH1 0x40 DUP3 KECCAK256 CALLER DUP4 MSTORE PUSH1 0x20 MSTORE PUSH1 0xFF PUSH1 0x40 DUP4 KECCAK256 SLOAD AND ISZERO PUSH3 0xADC JUMPI POP PUSH1 0x1 SLOAD CALLVALUE LT PUSH3 0xACA JUMPI PUSH1 0x64 CALLDATALOAD ISZERO PUSH3 0xAB8 JUMPI PUSH1 0xE4 CALLDATALOAD PUSH1 0xC4 CALLDATALOAD LT ISZERO PUSH3 0xAA6 JUMPI TIMESTAMP PUSH1 0xC4 CALLDATALOAD GT ISZERO PUSH3 0xAA6 JUMPI PUSH1 0xA4 CALLDATALOAD PUSH1 0x84 CALLDATALOAD GT DUP1 PUSH3 0xA9A JUMPI JUMPDEST PUSH3 0xA88 JUMPI PUSH1 0x84 CALLDATALOAD ISZERO PUSH3 0xA88 JUMPI PUSH1 0x44 CALLDATALOAD ISZERO PUSH3 0xA76 JUMPI PUSH1 0xC PUSH2 0x144 CALLDATALOAD LT PUSH3 0xA64 JUMPI PUSH2 0x1B58 PUSH2 0x184 CALLDATALOAD LT DUP1 ISZERO PUSH3 0xA55 JUMPI JUMPDEST PUSH3 0xA43 JUMPI PUSH1 0x1 PUSH1 0x1 PUSH1 0xA0 SHL SUB PUSH3 0x23E PUSH3 0x1325 JUMP JUMPDEST AND ISZERO PUSH3 0xA31 JUMPI PUSH1 0x1 PUSH1 0x1 PUSH1 0xA0 SHL SUB PUSH3 0x257 PUSH3 0x133C JUMP JUMPDEST AND ISZERO PUSH3 0xA31 JUMPI DUP1 PUSH3 0x277 PUSH1 0x24 PUSH2 0x1A4 CALLDATALOAD ADD PUSH2 0x1A4 CALLDATALOAD PUSH1 0x4 ADD PUSH3 0x12B8 JUMP JUMPDEST SWAP1 POP PUSH3 0x9AB JUMPI JUMPDEST PUSH3 0x28D DUP3 PUSH1 0x44 CALLDATALOAD PUSH3 0x1317 JUMP JUMPDEST PUSH1 0x1 PUSH1 0x1 PUSH1 0xA0 SHL SUB PUSH3 0x29F PUSH3 0x1325 JUMP JUMPDEST AND PUSH3 0x2AA PUSH3 0x133C JUMP JUMPDEST PUSH1 0x40 MLOAD PUSH4 0x23B872DD PUSH1 0xE0 SHL PUSH1 0x20 DUP3 ADD MSTORE PUSH1 0x1 PUSH1 0x1 PUSH1 0xA0 SHL SUB SWAP1 SWAP2 AND PUSH1 0x24 DUP3 ADD MSTORE ADDRESS PUSH1 0x44 DUP3 ADD MSTORE PUSH1 0x64 DUP1 DUP3 ADD SWAP4 SWAP1 SWAP4 MSTORE SWAP2 DUP3 MSTORE PUSH8 0xFFFFFFFFFFFFFFFF PUSH1 0xA0 DUP4 ADD SWAP1 DUP2 GT SWAP1 DUP4 GT OR PUSH3 0x997 JUMPI SWAP1 PUSH3 0x308 SWAP2 PUSH1 0xA0 DUP3 ADD PUSH1 0x40 MSTORE PUSH3 0x13E4 JUMP JUMPDEST PUSH3 0x312 PUSH3 0x1325 JUMP JUMPDEST PUSH1 0x24 CALLDATALOAD PUSH1 0x1 PUSH1 0x1 PUSH1 0xA0 SHL SUB DUP2 AND DUP2 SUB PUSH3 0x993 JUMPI PUSH3 0x330 PUSH3 0x133C JUMP JUMPDEST SWAP1 PUSH1 0x40 MLOAD SWAP3 DUP4 PUSH2 0x21FF DUP2 ADD LT PUSH8 0xFFFFFFFFFFFFFFFF PUSH2 0x21FF DUP7 ADD GT OR PUSH3 0x97F JUMPI PUSH2 0x21FF PUSH3 0x1472 DUP6 CODECOPY PUSH1 0x1 PUSH1 0x1 PUSH1 0xA0 SHL SUB SWAP1 DUP2 AND PUSH2 0x21FF DUP6 ADD SWAP1 DUP2 MSTORE SWAP2 DUP2 AND PUSH1 0x20 DUP4 ADD MSTORE PUSH1 0x44 CALLDATALOAD PUSH1 0x40 DUP4 ADD MSTORE PUSH1 0x64 CALLDATALOAD PUSH1 0x60 DUP4 ADD MSTORE PUSH1 0x84 CALLDATALOAD PUSH1 0x80 DUP4 ADD MSTORE PUSH1 0xA4 CALLDATALOAD PUSH1 0xA0 DUP4 ADD MSTORE PUSH1 0xC4 CALLDATALOAD PUSH1 0xC0 DUP4 ADD MSTORE PUSH1 0xE4 CALLDATALOAD PUSH1 0xE0 DUP4 ADD MSTORE PUSH2 0x104 CALLDATALOAD PUSH2 0x100 DUP4 ADD MSTORE PUSH32 0x0 DUP2 AND PUSH2 0x120 DUP4 ADD MSTORE SWAP2 DUP3 AND PUSH2 0x140 DUP3 ADD MSTORE PUSH32 0x0 SWAP1 SWAP2 AND PUSH2 0x160 DUP3 ADD MSTORE DUP2 SWAP1 SUB PUSH2 0x180 ADD SWAP1 DUP3 CREATE DUP1 ISZERO PUSH3 0x8BE JUMPI PUSH1 0x1 PUSH1 0x1 PUSH1 0xA0 SHL SUB SWAP1 DUP2 AND SWAP2 SWAP1 PUSH3 0x433 PUSH3 0x1325 JUMP JUMPDEST PUSH1 0x40 MLOAD PUSH4 0x95EA7B3 PUSH1 0xE0 SHL PUSH1 0x20 DUP3 ADD MSTORE PUSH1 0x1 PUSH1 0x1 PUSH1 0xA0 SHL SUB DUP6 AND PUSH1 0x24 DUP3 ADD MSTORE PUSH1 0x44 DUP1 CALLDATALOAD SWAP1 DUP3 ADD MSTORE SWAP2 AND PUSH3 0x475 DUP3 PUSH1 0x64 DUP2 ADD JUMPDEST SUB PUSH1 0x1F NOT DUP2 ADD DUP5 MSTORE DUP4 PUSH3 0x139C JUMP JUMPDEST PUSH1 0x20 DUP4 DUP4 MLOAD DUP3 DUP6 ADD DUP3 DUP6 GAS CALL DUP4 MLOAD RETURNDATASIZE DUP3 PUSH3 0x960 JUMPI JUMPDEST POP POP ISZERO PUSH3 0x8F1 JUMPI JUMPDEST POP POP DUP2 EXTCODESIZE ISZERO PUSH3 0x728 JUMPI PUSH1 0x40 MLOAD PUSH4 0x7C4B414D PUSH1 0xE0 SHL DUP2 MSTORE DUP2 DUP2 PUSH1 0x4 DUP2 DUP4 DUP8 GAS CALL DUP1 ISZERO PUSH3 0x72B JUMPI PUSH3 0x8DF JUMPI JUMPDEST POP DUP1 SWAP3 DUP1 PUSH3 0x736 JUMPI JUMPDEST POP PUSH32 0x0 PUSH1 0x1 PUSH1 0x1 PUSH1 0xA0 SHL SUB AND EXTCODESIZE ISZERO PUSH3 0x728 JUMPI PUSH1 0x40 MLOAD PUSH4 0x105FAD9B PUSH1 0xE2 SHL DUP2 MSTORE PUSH1 0x4 DUP2 ADD DUP4 SWAP1 MSTORE DUP2 DUP2 PUSH1 0x24 DUP2 DUP4 PUSH32 0x0 PUSH1 0x1 PUSH1 0x1 PUSH1 0xA0 SHL SUB AND GAS CALL DUP1 ISZERO PUSH3 0x72B JUMPI SWAP1 DUP3 SWAP2 PUSH3 0x710 JUMPI JUMPDEST POP POP PUSH1 0x3 SLOAD DUP2 MSTORE PUSH1 0x4 PUSH1 0x20 MSTORE PUSH1 0x40 DUP2 KECCAK256 DUP3 PUSH12 0xFFFFFFFFFFFFFFFFFFFFFFFF PUSH1 0xA0 SHL DUP3 SLOAD AND OR SWAP1 SSTORE DUP2 DUP2 MSTORE PUSH1 0x5 PUSH1 0x20 MSTORE PUSH2 0x1C4 CALLDATALOAD PUSH1 0x40 DUP3 KECCAK256 SSTORE PUSH1 0x6 PUSH1 0x20 MSTORE PUSH1 0x40 DUP2 KECCAK256 PUSH2 0x144 CALLDATALOAD DUP2 SSTORE PUSH2 0x164 CALLDATALOAD PUSH1 0x1 DUP3 ADD SSTORE PUSH1 0x2 PUSH2 0x184 CALLDATALOAD SWAP2 ADD SSTORE DUP1 DUP1 DUP1 DUP1 CALLVALUE PUSH1 0x1 DUP1 PUSH1 0xA0 SHL SUB PUSH1 0x2 SLOAD AND GAS CALL SWAP1 RETURNDATASIZE ISZERO PUSH3 0x709 JUMPI RETURNDATASIZE SWAP1 PUSH8 0xFFFFFFFFFFFFFFFF DUP3 GT PUSH3 0x6F5 JUMPI PUSH1 0x40 MLOAD SWAP2 PUSH3 0x5F2 PUSH1 0x1F DUP3 ADD PUSH1 0x1F NOT AND PUSH1 0x20 ADD DUP5 PUSH3 0x139C JUMP JUMPDEST DUP3 MSTORE PUSH1 0x20 RETURNDATASIZE SWAP3 ADD RETURNDATACOPY JUMPDEST ISZERO PUSH3 0x6B0 JUMPI PUSH3 0x6A5 PUSH1 0x60 DUP3 PUSH1 0x20 SWAP5 PUSH32 0xFC86FE9EDFF420B07462373F90F5140AB7B05C9D0E746344115A189F8DDE0450 PUSH1 0x3 SLOAD SWAP4 DUP5 SWAP3 PUSH1 0x40 MLOAD SWAP1 PUSH1 0x1 DUP1 PUSH1 0xA0 SHL SUB AND DUP2 MSTORE PUSH2 0x1C4 CALLDATALOAD DUP10 DUP3 ADD MSTORE CALLVALUE PUSH1 0x40 DUP3 ADD MSTORE LOG3 DUP3 PUSH32 0xDA79E99DC31A6B02A1A6D9E3758C6D0EF34606738CC48A1FF703D6566B040626 PUSH1 0x40 MLOAD DUP1 PUSH3 0x69C PUSH2 0x184 CALLDATALOAD PUSH2 0x164 CALLDATALOAD PUSH2 0x144 CALLDATALOAD DUP5 PUSH1 0x40 SWAP2 SWAP5 SWAP4 SWAP3 PUSH1 0x60 DUP3 ADD SWAP6 DUP3 MSTORE PUSH1 0x20 DUP3 ADD MSTORE ADD MSTORE JUMP JUMPDEST SUB SWAP1 LOG2 PUSH3 0x12F1 JUMP JUMPDEST PUSH1 0x3 SSTORE PUSH1 0x40 MLOAD SWAP1 DUP2 MSTORE RETURN JUMPDEST PUSH1 0x40 MLOAD PUSH3 0x461BCD PUSH1 0xE5 SHL DUP2 MSTORE PUSH1 0x20 PUSH1 0x4 DUP3 ADD MSTORE PUSH1 0x18 PUSH1 0x24 DUP3 ADD MSTORE PUSH32 0x5472656173757279207472616E73666572206661696C65640000000000000000 PUSH1 0x44 DUP3 ADD MSTORE PUSH1 0x64 SWAP1 REVERT JUMPDEST PUSH4 0x4E487B71 PUSH1 0xE0 SHL DUP2 MSTORE PUSH1 0x41 PUSH1 0x4 MSTORE PUSH1 0x24 SWAP1 REVERT JUMPDEST POP PUSH3 0x5FB JUMP JUMPDEST PUSH3 0x71B SWAP1 PUSH3 0x1387 JUMP JUMPDEST PUSH3 0x728 JUMPI DUP1 CODESIZE PUSH3 0x553 JUMP JUMPDEST DUP1 REVERT JUMPDEST PUSH1 0x40 MLOAD RETURNDATASIZE DUP5 DUP3 RETURNDATACOPY RETURNDATASIZE SWAP1 REVERT JUMPDEST SWAP3 POP PUSH3 0x742 PUSH3 0x1325 JUMP JUMPDEST PUSH3 0x74C PUSH3 0x133C JUMP JUMPDEST PUSH3 0x75E PUSH1 0x4 PUSH2 0x1A4 CALLDATALOAD ADD DUP1 PUSH3 0x12B8 JUMP JUMPDEST SWAP1 PUSH3 0x777 PUSH1 0x24 PUSH2 0x1A4 CALLDATALOAD ADD PUSH2 0x1A4 CALLDATALOAD PUSH1 0x4 ADD PUSH3 0x12B8 JUMP JUMPDEST SWAP3 SWAP1 SWAP4 PUSH1 0x40 MLOAD SWAP6 DUP7 PUSH2 0x1004 DUP2 ADD LT PUSH8 0xFFFFFFFFFFFFFFFF PUSH2 0x1004 DUP10 ADD GT OR PUSH3 0x8CB JUMPI SWAP3 PUSH3 0x7FC SWAP5 SWAP3 PUSH3 0x7E5 SWAP3 DUP9 SWAP8 SWAP6 PUSH2 0x1004 PUSH3 0x3671 DUP11 CODECOPY PUSH1 0x1 PUSH1 0x1 PUSH1 0xA0 SHL SUB SWAP1 DUP2 AND PUSH2 0x1004 DUP11 ADD SWAP1 DUP2 MSTORE SWAP2 AND PUSH1 0x20 DUP3 ADD MSTORE PUSH1 0xE4 CALLDATALOAD PUSH1 0x40 DUP3 ADD MSTORE PUSH1 0xC0 PUSH1 0x60 DUP3 ADD DUP2 SWAP1 MSTORE ADD SWAP2 PUSH3 0x13BF JUMP JUMPDEST SWAP2 PUSH2 0x1004 DUP6 ADD DUP4 SUB PUSH1 0x80 PUSH2 0x1004 DUP8 ADD ADD MSTORE PUSH3 0x13BF JUMP JUMPDEST PUSH32 0x0 PUSH1 0x1 PUSH1 0x1 PUSH1 0xA0 SHL SUB AND PUSH2 0x1004 DUP4 ADD PUSH1 0xA0 ADD MSTORE SUB SWAP1 DUP3 CREATE DUP1 ISZERO PUSH3 0x8BE JUMPI PUSH1 0x1 PUSH1 0x1 PUSH1 0xA0 SHL SUB SWAP1 DUP2 AND SWAP4 PUSH3 0x89B SWAP2 PUSH3 0x466 SWAP2 SWAP1 PUSH3 0x895 SWAP1 PUSH3 0x860 PUSH3 0x1325 JUMP JUMPDEST PUSH1 0x40 MLOAD PUSH4 0xA9059CBB PUSH1 0xE0 SHL PUSH1 0x20 DUP3 ADD MSTORE PUSH1 0x1 PUSH1 0x1 PUSH1 0xA0 SHL SUB DUP11 AND PUSH1 0x24 DUP3 ADD MSTORE PUSH1 0x44 DUP2 ADD SWAP5 SWAP1 SWAP5 MSTORE SWAP3 SWAP4 SWAP3 AND SWAP2 DUP4 SWAP1 PUSH1 0x64 DUP3 ADD SWAP1 JUMP JUMPDEST PUSH3 0x13E4 JUMP JUMPDEST DUP2 DUP2 MSTORE PUSH1 0x7 PUSH1 0x20 MSTORE PUSH1 0x40 DUP2 KECCAK256 DUP1 SLOAD PUSH1 0x1 PUSH1 0x1 PUSH1 0xA0 SHL SUB NOT AND DUP5 OR SWAP1 SSTORE CODESIZE PUSH3 0x4CB JUMP JUMPDEST POP PUSH1 0x40 MLOAD SWAP1 RETURNDATASIZE SWAP1 DUP3 RETURNDATACOPY RETURNDATASIZE SWAP1 REVERT JUMPDEST PUSH4 0x4E487B71 PUSH1 0xE0 SHL DUP9 MSTORE PUSH1 0x41 PUSH1 0x4 MSTORE PUSH1 0x24 DUP9 REVERT JUMPDEST PUSH3 0x8EA SWAP1 PUSH3 0x1387 JUMP JUMPDEST CODESIZE PUSH3 0x4C1 JUMP JUMPDEST PUSH1 0x40 MLOAD PUSH4 0x95EA7B3 PUSH1 0xE0 SHL PUSH1 0x20 DUP3 ADD MSTORE DUP5 PUSH1 0x24 DUP3 ADD MSTORE DUP4 PUSH1 0x44 DUP3 ADD MSTORE PUSH1 0x44 DUP2 MSTORE DUP1 PUSH1 0x80 DUP2 ADD LT PUSH8 0xFFFFFFFFFFFFFFFF PUSH1 0x80 DUP4 ADD GT OR PUSH3 0x94C JUMPI SWAP1 PUSH3 0x895 DUP3 PUSH1 0x80 PUSH3 0x944 SWAP6 SWAP5 ADD PUSH1 0x40 MSTORE DUP3 PUSH3 0x13E4 JUMP JUMPDEST CODESIZE DUP1 PUSH3 0x494 JUMP JUMPDEST PUSH4 0x4E487B71 PUSH1 0xE0 SHL DUP5 MSTORE PUSH1 0x41 PUSH1 0x4 MSTORE PUSH1 0x24 DUP5 REVERT JUMPDEST SWAP1 SWAP2 POP PUSH3 0x976 JUMPI POP DUP1 EXTCODESIZE ISZERO ISZERO JUMPDEST CODESIZE DUP1 PUSH3 0x48B JUMP JUMPDEST PUSH1 0x1 EQ PUSH3 0x96E JUMP JUMPDEST PUSH4 0x4E487B71 PUSH1 0xE0 SHL DUP6 MSTORE PUSH1 0x41 PUSH1 0x4 MSTORE PUSH1 0x24 DUP6 REVERT JUMPDEST DUP3 DUP1 REVERT JUMPDEST PUSH4 0x4E487B71 PUSH1 0xE0 SHL DUP4 MSTORE PUSH1 0x41 PUSH1 0x4 MSTORE PUSH1 0x24 DUP4 REVERT JUMPDEST DUP1 SWAP2 JUMPDEST PUSH3 0x9C6 PUSH1 0x24 PUSH2 0x1A4 CALLDATALOAD ADD PUSH2 0x1A4 CALLDATALOAD PUSH1 0x4 ADD PUSH3 0x12B8 JUMP JUMPDEST SWAP1 POP DUP4 LT ISZERO PUSH3 0xA29 JUMPI PUSH3 0x9E8 PUSH1 0x24 PUSH2 0x1A4 CALLDATALOAD ADD PUSH2 0x1A4 CALLDATALOAD PUSH1 0x4 ADD PUSH3 0x12B8 JUMP JUMPDEST DUP5 LT ISZERO PUSH3 0xA15 JUMPI PUSH3 0xA0E SWAP2 PUSH3 0xA07 SWAP2 DUP6 PUSH1 0x5 SHL ADD CALLDATALOAD SWAP1 PUSH3 0x1317 JUMP JUMPDEST SWAP3 PUSH3 0x12F1 JUMP JUMPDEST SWAP2 PUSH3 0x9AE JUMP JUMPDEST PUSH4 0x4E487B71 PUSH1 0xE0 SHL DUP4 MSTORE PUSH1 0x32 PUSH1 0x4 MSTORE PUSH1 0x24 DUP4 REVERT JUMPDEST SWAP2 POP PUSH3 0x27F JUMP JUMPDEST PUSH1 0x40 MLOAD PUSH4 0xD92E233D PUSH1 0xE0 SHL DUP2 MSTORE PUSH1 0x4 SWAP1 REVERT JUMPDEST PUSH1 0x40 MLOAD PUSH4 0x51424F0B PUSH1 0xE1 SHL DUP2 MSTORE PUSH1 0x4 SWAP1 REVERT JUMPDEST POP PUSH2 0x2710 PUSH2 0x184 CALLDATALOAD GT PUSH3 0x227 JUMP JUMPDEST PUSH1 0x40 MLOAD PUSH4 0x76A12A0F PUSH1 0xE1 SHL DUP2 MSTORE PUSH1 0x4 SWAP1 REVERT JUMPDEST PUSH1 0x40 MLOAD PUSH4 0x21607339 PUSH1 0xE0 SHL DUP2 MSTORE PUSH1 0x4 SWAP1 REVERT JUMPDEST PUSH1 0x40 MLOAD PUSH4 0x102DF2A1 PUSH1 0xE1 SHL DUP2 MSTORE PUSH1 0x4 SWAP1 REVERT JUMPDEST POP PUSH1 0xA4 CALLDATALOAD ISZERO ISZERO PUSH3 0x1F4 JUMP JUMPDEST PUSH1 0x40 MLOAD PUSH4 0x536A71AF PUSH1 0xE0 SHL DUP2 MSTORE PUSH1 0x4 SWAP1 REVERT JUMPDEST PUSH1 0x40 MLOAD PUSH4 0xF4354B39 PUSH1 0xE0 SHL DUP2 MSTORE PUSH1 0x4 SWAP1 REVERT JUMPDEST PUSH1 0x40 MLOAD PUSH4 0x535B747 PUSH1 0xE4 SHL DUP2 MSTORE PUSH1 0x4 SWAP1 REVERT JUMPDEST PUSH1 0x44 SWAP1 PUSH1 0x40 MLOAD SWAP1 PUSH4 0xE2517D3F PUSH1 0xE0 SHL DUP3 MSTORE CALLER PUSH1 0x4 DUP4 ADD MSTORE PUSH1 0x24 DUP3 ADD MSTORE REVERT JUMPDEST POP DUP1 REVERT JUMPDEST POP CALLVALUE PUSH3 0x728 JUMPI DUP1 PUSH1 0x3 NOT CALLDATASIZE ADD SLT PUSH3 0x728 JUMPI PUSH1 0x40 MLOAD PUSH32 0x0 PUSH1 0x1 PUSH1 0x1 PUSH1 0xA0 SHL SUB AND DUP2 MSTORE PUSH1 0x20 SWAP1 RETURN JUMPDEST POP CALLVALUE PUSH3 0x728 JUMPI PUSH1 0x20 CALLDATASIZE PUSH1 0x3 NOT ADD SLT PUSH3 0x728 JUMPI PUSH1 0x20 SWAP1 PUSH1 0x4 CALLDATALOAD DUP2 MSTORE PUSH1 0x4 DUP3 MSTORE PUSH1 0x40 PUSH1 0x1 DUP1 PUSH1 0xA0 SHL SUB SWAP2 KECCAK256 SLOAD AND PUSH1 0x40 MLOAD SWAP1 DUP2 MSTORE RETURN JUMPDEST POP CALLVALUE PUSH3 0x728 JUMPI PUSH1 0x20 CALLDATASIZE PUSH1 0x3 NOT ADD SLT PUSH3 0x728 JUMPI PUSH1 0x20 SWAP1 PUSH1 0x1 PUSH1 0x1 PUSH1 0xA0 SHL SUB SWAP1 PUSH1 0x40 SWAP1 DUP3 PUSH3 0xBA8 PUSH3 0x112E JUMP JUMPDEST AND DUP2 MSTORE PUSH1 0x7 DUP5 MSTORE KECCAK256 SLOAD AND PUSH1 0x40 MLOAD SWAP1 DUP2 MSTORE RETURN JUMPDEST POP CALLVALUE PUSH3 0x728 JUMPI DUP1 PUSH1 0x3 NOT CALLDATASIZE ADD SLT PUSH3 0x728 JUMPI PUSH1 0x20 PUSH1 0x1 SLOAD PUSH1 0x40 MLOAD SWAP1 DUP2 MSTORE RETURN JUMPDEST POP CALLVALUE PUSH3 0x728 JUMPI PUSH1 0x40 CALLDATASIZE PUSH1 0x3 NOT ADD SLT PUSH3 0x728 JUMPI PUSH3 0xC1F PUSH1 0x4 CALLDATALOAD PUSH3 0xBFF PUSH3 0x114A JUMP JUMPDEST SWAP1 DUP1 DUP5 MSTORE DUP4 PUSH1 0x20 MSTORE PUSH3 0xC19 PUSH1 0x1 PUSH1 0x40 DUP7 KECCAK256 ADD SLOAD PUSH3 0x119C JUMP JUMPDEST PUSH3 0x1242 JUMP JUMPDEST POP DUP1 RETURN JUMPDEST POP CALLVALUE PUSH3 0x728 JUMPI DUP1 PUSH1 0x3 NOT CALLDATASIZE ADD SLT PUSH3 0x728 JUMPI PUSH1 0x20 SWAP1 PUSH1 0x40 MLOAD SWAP1 DUP2 MSTORE RETURN JUMPDEST POP CALLVALUE PUSH3 0x728 JUMPI PUSH1 0x20 CALLDATASIZE PUSH1 0x3 NOT ADD SLT PUSH3 0x728 JUMPI PUSH1 0x40 SWAP1 PUSH1 0x1 PUSH1 0x1 PUSH1 0xA0 SHL SUB PUSH3 0xC6A PUSH3 0x112E JUMP JUMPDEST AND DUP2 MSTORE PUSH1 0x6 PUSH1 0x20 MSTORE KECCAK256 DUP1 SLOAD PUSH3 0xCA0 PUSH1 0x2 PUSH1 0x1 DUP5 ADD SLOAD SWAP4 ADD SLOAD PUSH1 0x40 MLOAD SWAP4 DUP5 SWAP4 DUP5 PUSH1 0x40 SWAP2 SWAP5 SWAP4 SWAP3 PUSH1 0x60 DUP3 ADD SWAP6 DUP3 MSTORE PUSH1 0x20 DUP3 ADD MSTORE ADD MSTORE JUMP JUMPDEST SUB SWAP1 RETURN JUMPDEST POP CALLVALUE PUSH3 0x728 JUMPI DUP1 PUSH1 0x3 NOT CALLDATASIZE ADD SLT PUSH3 0x728 JUMPI PUSH1 0x20 PUSH1 0x3 SLOAD PUSH1 0x40 MLOAD SWAP1 DUP2 MSTORE RETURN JUMPDEST POP CALLVALUE PUSH3 0x728 JUMPI PUSH1 0x40 CALLDATASIZE PUSH1 0x3 NOT ADD SLT PUSH3 0x728 JUMPI PUSH1 0xFF PUSH1 0x40 PUSH1 0x20 SWAP3 PUSH3 0xCE9 PUSH3 0x114A JUMP JUMPDEST PUSH1 0x4 CALLDATALOAD DUP3 MSTORE DUP2 DUP6 MSTORE DUP3 DUP3 KECCAK256 PUSH1 0x1 PUSH1 0x1 PUSH1 0xA0 SHL SUB SWAP1 SWAP2 AND DUP3 MSTORE DUP5 MSTORE KECCAK256 SLOAD PUSH1 0x40 MLOAD SWAP2 AND ISZERO ISZERO DUP2 MSTORE RETURN JUMPDEST POP CALLVALUE PUSH3 0x728 JUMPI PUSH1 0x20 CALLDATASIZE PUSH1 0x3 NOT ADD SLT PUSH3 0x728 JUMPI PUSH1 0x4 CALLDATALOAD PUSH1 0x1 PUSH1 0x1 PUSH1 0xA0 SHL SUB DUP2 DUP2 AND SWAP2 DUP3 SWAP1 SUB PUSH3 0x993 JUMPI PUSH3 0xD45 PUSH3 0x1161 JUMP JUMPDEST DUP2 ISZERO PUSH3 0xA31 JUMPI PUSH1 0x2 SLOAD DUP3 PUSH12 0xFFFFFFFFFFFFFFFFFFFFFFFF PUSH1 0xA0 SHL DUP3 AND OR PUSH1 0x2 SSTORE AND PUSH32 0xA982575859D7AD2F390DC12B23F7DAB8BBDA047F9D0140AC68344B27BF34BFB4 DUP4 DUP1 LOG3 DUP1 RETURN JUMPDEST POP CALLVALUE PUSH3 0x728 JUMPI PUSH1 0x20 CALLDATASIZE PUSH1 0x3 NOT ADD SLT PUSH3 0x728 JUMPI PUSH1 0x20 SWAP1 PUSH1 0x40 SWAP1 PUSH1 0x1 PUSH1 0x1 PUSH1 0xA0 SHL SUB PUSH3 0xDBA PUSH3 0x112E JUMP JUMPDEST AND DUP2 MSTORE PUSH1 0x5 DUP4 MSTORE KECCAK256 SLOAD PUSH1 0x40 MLOAD SWAP1 DUP2 MSTORE RETURN JUMPDEST POP CALLVALUE PUSH3 0x728 JUMPI PUSH1 0x20 CALLDATASIZE PUSH1 0x3 NOT ADD SLT PUSH3 0x728 JUMPI PUSH32 0x5DE302EEB1C80D4FB0C0953B692353F09DDF431411B8EB2034D5E85769561912 PUSH1 0x40 PUSH1 0x4 CALLDATALOAD PUSH3 0xE0F PUSH3 0x1161 JUMP JUMPDEST PUSH1 0x1 SLOAD SWAP1 DUP1 PUSH1 0x1 SSTORE DUP3 MLOAD SWAP2 DUP3 MSTORE PUSH1 0x20 DUP3 ADD MSTORE LOG1 DUP1 RETURN JUMPDEST POP CALLVALUE PUSH3 0x728 JUMPI DUP1 PUSH1 0x3 NOT CALLDATASIZE ADD SLT PUSH3 0x728 JUMPI PUSH1 0x40 MLOAD PUSH32 0x0 PUSH1 0x1 PUSH1 0x1 PUSH1 0xA0 SHL SUB AND DUP2 MSTORE PUSH1 0x20 SWAP1 RETURN JUMPDEST POP CALLVALUE PUSH3 0x728 JUMPI PUSH1 0x20 DUP1 PUSH1 0x3 NOT CALLDATASIZE ADD SLT PUSH3 0xAFA JUMPI SWAP1 PUSH1 0xC0 SWAP2 PUSH3 0xE8F PUSH3 0x1450 JUMP JUMPDEST POP PUSH1 0x4 CALLDATALOAD DUP3 MSTORE PUSH1 0x4 DUP2 MSTORE PUSH3 0xF19 PUSH1 0x1 DUP1 PUSH1 0xA0 SHL SUB SWAP3 DUP4 PUSH1 0x40 DUP3 KECCAK256 SLOAD AND SWAP4 DUP5 DUP3 MSTORE PUSH1 0x5 DUP5 MSTORE PUSH1 0x40 DUP3 KECCAK256 SLOAD SWAP1 PUSH1 0x6 DUP6 MSTORE PUSH1 0x40 DUP1 DUP5 KECCAK256 SWAP4 PUSH1 0x2 DUP3 MLOAD SWAP6 PUSH3 0xED4 DUP8 PUSH3 0x1354 JUMP JUMPDEST DUP1 SLOAD DUP8 MSTORE PUSH1 0x1 DUP2 ADD SLOAD DUP10 DUP9 ADD MSTORE ADD SLOAD DUP3 DUP7 ADD MSTORE DUP8 DUP2 MSTORE PUSH1 0x7 DUP8 MSTORE KECCAK256 SLOAD AND SWAP4 PUSH1 0x40 MLOAD SWAP6 DUP7 MSTORE DUP6 ADD MSTORE PUSH1 0x40 DUP5 ADD SWAP1 PUSH1 0x40 DUP1 SWAP2 DUP1 MLOAD DUP5 MSTORE PUSH1 0x20 DUP2 ADD MLOAD PUSH1 0x20 DUP6 ADD MSTORE ADD MLOAD SWAP2 ADD MSTORE JUMP JUMPDEST PUSH1 0xA0 DUP3 ADD MSTORE RETURN JUMPDEST POP CALLVALUE PUSH3 0x728 JUMPI DUP1 PUSH1 0x3 NOT CALLDATASIZE ADD SLT PUSH3 0x728 JUMPI PUSH1 0x2 SLOAD PUSH1 0x40 MLOAD PUSH1 0x1 PUSH1 0x1 PUSH1 0xA0 SHL SUB SWAP1 SWAP2 AND DUP2 MSTORE PUSH1 0x20 SWAP1 RETURN JUMPDEST POP CALLVALUE PUSH3 0x728 JUMPI PUSH1 0x40 CALLDATASIZE PUSH1 0x3 NOT ADD SLT PUSH3 0x728 JUMPI PUSH3 0xF69 PUSH3 0x114A JUMP JUMPDEST CALLER PUSH1 0x1 PUSH1 0x1 PUSH1 0xA0 SHL SUB DUP3 AND SUB PUSH3 0xF88 JUMPI PUSH3 0xC1F SWAP1 PUSH1 0x4 CALLDATALOAD PUSH3 0x1242 JUMP JUMPDEST PUSH1 0x40 MLOAD PUSH4 0x334BD919 PUSH1 0xE1 SHL DUP2 MSTORE PUSH1 0x4 SWAP1 REVERT JUMPDEST POP CALLVALUE PUSH3 0x728 JUMPI DUP1 PUSH1 0x3 NOT CALLDATASIZE ADD SLT PUSH3 0x728 JUMPI PUSH1 0x20 PUSH1 0x40 MLOAD PUSH32 0xBD5D72AC35AE1E83AA0625C57EDDDA63FBB064A87FCA99DFDD7CE027384AE282 DUP2 MSTORE RETURN JUMPDEST POP CALLVALUE PUSH3 0x728 JUMPI PUSH1 0x40 CALLDATASIZE PUSH1 0x3 NOT ADD SLT PUSH3 0x728 JUMPI PUSH3 0xC1F PUSH1 0x4 CALLDATALOAD PUSH3 0xFFC PUSH3 0x114A JUMP JUMPDEST SWAP1 DUP1 DUP5 MSTORE DUP4 PUSH1 0x20 MSTORE PUSH3 0x1016 PUSH1 0x1 PUSH1 0x40 DUP7 KECCAK256 ADD SLOAD PUSH3 0x119C JUMP JUMPDEST PUSH3 0x11C3 JUMP JUMPDEST POP CALLVALUE PUSH3 0x728 JUMPI PUSH1 0x20 CALLDATASIZE PUSH1 0x3 NOT ADD SLT PUSH3 0x728 JUMPI PUSH1 0x1 PUSH1 0x40 PUSH1 0x20 SWAP3 PUSH1 0x4 CALLDATALOAD DUP2 MSTORE DUP1 DUP5 MSTORE KECCAK256 ADD SLOAD PUSH1 0x40 MLOAD SWAP1 DUP2 MSTORE RETURN JUMPDEST POP CALLVALUE PUSH3 0x728 JUMPI PUSH1 0x20 CALLDATASIZE PUSH1 0x3 NOT ADD SLT PUSH3 0x728 JUMPI PUSH1 0x40 PUSH1 0x60 SWAP2 PUSH3 0x106D PUSH3 0x112E JUMP JUMPDEST PUSH3 0x1077 PUSH3 0x1450 JUMP JUMPDEST POP PUSH1 0x1 PUSH1 0x1 PUSH1 0xA0 SHL SUB AND DUP2 MSTORE PUSH1 0x6 PUSH1 0x20 MSTORE KECCAK256 PUSH1 0x40 MLOAD SWAP1 PUSH1 0x2 SWAP1 PUSH3 0x109B DUP4 PUSH3 0x1354 JUMP JUMPDEST DUP1 SLOAD DUP4 MSTORE PUSH1 0x1 DUP2 ADD SLOAD PUSH1 0x20 DUP5 ADD MSTORE ADD SLOAD PUSH1 0x40 DUP3 ADD MSTORE PUSH3 0x10D2 PUSH1 0x40 MLOAD DUP1 SWAP3 PUSH1 0x40 DUP1 SWAP2 DUP1 MLOAD DUP5 MSTORE PUSH1 0x20 DUP2 ADD MLOAD PUSH1 0x20 DUP6 ADD MSTORE ADD MLOAD SWAP2 ADD MSTORE JUMP JUMPDEST RETURN JUMPDEST SWAP1 POP CALLVALUE PUSH3 0xAFA JUMPI PUSH1 0x20 CALLDATASIZE PUSH1 0x3 NOT ADD SLT PUSH3 0xAFA JUMPI PUSH1 0x4 CALLDATALOAD PUSH4 0xFFFFFFFF PUSH1 0xE0 SHL DUP2 AND DUP1 SWAP2 SUB PUSH3 0x993 JUMPI PUSH1 0x20 SWAP3 POP PUSH4 0x7965DB0B PUSH1 0xE0 SHL DUP2 EQ SWAP1 DUP2 ISZERO PUSH3 0x111C JUMPI JUMPDEST POP ISZERO ISZERO DUP2 MSTORE RETURN JUMPDEST PUSH4 0x1FFC9A7 PUSH1 0xE0 SHL EQ SWAP1 POP CODESIZE PUSH3 0x1115 JUMP JUMPDEST PUSH1 0x4 CALLDATALOAD SWAP1 PUSH1 0x1 PUSH1 0x1 PUSH1 0xA0 SHL SUB DUP3 AND DUP3 SUB PUSH3 0x1145 JUMPI JUMP JUMPDEST PUSH1 0x0 DUP1 REVERT JUMPDEST PUSH1 0x24 CALLDATALOAD SWAP1 PUSH1 0x1 PUSH1 0x1 PUSH1 0xA0 SHL SUB DUP3 AND DUP3 SUB PUSH3 0x1145 JUMPI JUMP JUMPDEST CALLER PUSH1 0x0 SWAP1 DUP2 MSTORE PUSH32 0xAD3228B676F7D3CD4284A5443F17F1962B36E491B30A40B2405849E597BA5FB5 PUSH1 0x20 MSTORE PUSH1 0x40 DUP2 KECCAK256 SLOAD PUSH1 0xFF AND ISZERO PUSH3 0xADC JUMPI POP JUMP JUMPDEST DUP1 PUSH1 0x0 MSTORE PUSH1 0x0 PUSH1 0x20 MSTORE PUSH1 0x40 PUSH1 0x0 KECCAK256 CALLER PUSH1 0x0 MSTORE PUSH1 0x20 MSTORE PUSH1 0xFF PUSH1 0x40 PUSH1 0x0 KECCAK256 SLOAD AND ISZERO PUSH3 0xADC JUMPI POP JUMP JUMPDEST SWAP1 PUSH1 0x0 SWAP2 DUP1 DUP4 MSTORE DUP3 PUSH1 0x20 MSTORE PUSH1 0x40 DUP4 KECCAK256 SWAP2 PUSH1 0x1 DUP1 PUSH1 0xA0 SHL SUB AND SWAP2 DUP3 DUP5 MSTORE PUSH1 0x20 MSTORE PUSH1 0xFF PUSH1 0x40 DUP5 KECCAK256 SLOAD AND ISZERO PUSH1 0x0 EQ PUSH3 0x123D JUMPI DUP1 DUP4 MSTORE DUP3 PUSH1 0x20 MSTORE PUSH1 0x40 DUP4 KECCAK256 DUP3 DUP5 MSTORE PUSH1 0x20 MSTORE PUSH1 0x40 DUP4 KECCAK256 PUSH1 0x1 PUSH1 0xFF NOT DUP3 SLOAD AND OR SWAP1 SSTORE PUSH32 0x2F8788117E7EFF1D82E926EC794901D17C78024A50270940304540A733656F0D CALLER SWAP4 DUP1 LOG4 PUSH1 0x1 SWAP1 JUMP JUMPDEST POP POP SWAP1 JUMP JUMPDEST SWAP1 PUSH1 0x0 SWAP2 DUP1 DUP4 MSTORE DUP3 PUSH1 0x20 MSTORE PUSH1 0x40 DUP4 KECCAK256 SWAP2 PUSH1 0x1 DUP1 PUSH1 0xA0 SHL SUB AND SWAP2 DUP3 DUP5 MSTORE PUSH1 0x20 MSTORE PUSH1 0xFF PUSH1 0x40 DUP5 KECCAK256 SLOAD AND PUSH1 0x0 EQ PUSH3 0x123D JUMPI DUP1 DUP4 MSTORE DUP3 PUSH1 0x20 MSTORE PUSH1 0x40 DUP4 KECCAK256 DUP3 DUP5 MSTORE PUSH1 0x20 MSTORE PUSH1 0x40 DUP4 KECCAK256 PUSH1 0xFF NOT DUP2 SLOAD AND SWAP1 SSTORE PUSH32 0xF6391F5C32D9C69D2A47EA670B442974B53935D1EDC7FD64EB21E047A839171B CALLER SWAP4 DUP1 LOG4 PUSH1 0x1 SWAP1 JUMP JUMPDEST SWAP1 CALLDATALOAD SWAP1 PUSH1 0x1E NOT DUP2 CALLDATASIZE SUB ADD DUP3 SLT ISZERO PUSH3 0x1145 JUMPI ADD DUP1 CALLDATALOAD SWAP1 PUSH8 0xFFFFFFFFFFFFFFFF DUP3 GT PUSH3 0x1145 JUMPI PUSH1 0x20 ADD SWAP2 DUP2 PUSH1 0x5 SHL CALLDATASIZE SUB DUP4 SGT PUSH3 0x1145 JUMPI JUMP JUMPDEST PUSH1 0x0 NOT DUP2 EQ PUSH3 0x1301 JUMPI PUSH1 0x1 ADD SWAP1 JUMP JUMPDEST PUSH4 0x4E487B71 PUSH1 0xE0 SHL PUSH1 0x0 MSTORE PUSH1 0x11 PUSH1 0x4 MSTORE PUSH1 0x24 PUSH1 0x0 REVERT JUMPDEST SWAP2 SWAP1 DUP3 ADD DUP1 SWAP3 GT PUSH3 0x1301 JUMPI JUMP JUMPDEST PUSH1 0x4 CALLDATALOAD PUSH1 0x1 PUSH1 0x1 PUSH1 0xA0 SHL SUB DUP2 AND DUP2 SUB PUSH3 0x1145 JUMPI SWAP1 JUMP JUMPDEST PUSH2 0x124 CALLDATALOAD PUSH1 0x1 PUSH1 0x1 PUSH1 0xA0 SHL SUB DUP2 AND DUP2 SUB PUSH3 0x1145 JUMPI SWAP1 JUMP JUMPDEST PUSH1 0x60 DUP2 ADD SWAP1 DUP2 LT PUSH8 0xFFFFFFFFFFFFFFFF DUP3 GT OR PUSH3 0x1371 JUMPI PUSH1 0x40 MSTORE JUMP JUMPDEST PUSH4 0x4E487B71 PUSH1 0xE0 SHL PUSH1 0x0 MSTORE PUSH1 0x41 PUSH1 0x4 MSTORE PUSH1 0x24 PUSH1 0x0 REVERT JUMPDEST PUSH8 0xFFFFFFFFFFFFFFFF DUP2 GT PUSH3 0x1371 JUMPI PUSH1 0x40 MSTORE JUMP JUMPDEST SWAP1 PUSH1 0x1F DUP1 NOT SWAP2 ADD AND DUP2 ADD SWAP1 DUP2 LT PUSH8 0xFFFFFFFFFFFFFFFF DUP3 GT OR PUSH3 0x1371 JUMPI PUSH1 0x40 MSTORE JUMP JUMPDEST DUP2 DUP4 MSTORE SWAP1 SWAP2 PUSH1 0x1 PUSH1 0x1 PUSH1 0xFB SHL SUB DUP4 GT PUSH3 0x1145 JUMPI PUSH1 0x20 SWAP3 PUSH1 0x5 SHL DUP1 SWAP3 DUP5 DUP4 ADD CALLDATACOPY ADD ADD SWAP1 JUMP JUMPDEST SWAP1 PUSH1 0x0 PUSH1 0x20 SWAP2 DUP3 DUP2 MLOAD SWAP2 ADD DUP3 DUP6 GAS CALL ISZERO PUSH3 0x1444 JUMPI PUSH1 0x0 MLOAD RETURNDATASIZE PUSH3 0x143A JUMPI POP PUSH1 0x1 PUSH1 0x1 PUSH1 0xA0 SHL SUB DUP2 AND EXTCODESIZE ISZERO JUMPDEST PUSH3 0x1418 JUMPI POP JUMP JUMPDEST PUSH1 0x40 MLOAD PUSH4 0x5274AFE7 PUSH1 0xE0 SHL DUP2 MSTORE PUSH1 0x1 PUSH1 0x1 PUSH1 0xA0 SHL SUB SWAP1 SWAP2 AND PUSH1 0x4 DUP3 ADD MSTORE PUSH1 0x24 SWAP1 REVERT JUMPDEST PUSH1 0x1 EQ ISZERO PUSH3 0x1410 JUMP JUMPDEST PUSH1 0x40 MLOAD RETURNDATASIZE PUSH1 0x0 DUP3 RETURNDATACOPY RETURNDATASIZE SWAP1 REVERT JUMPDEST PUSH1 0x40 MLOAD SWAP1 PUSH3 0x145F DUP3 PUSH3 0x1354 JUMP JUMPDEST PUSH1 0x0 PUSH1 0x40 DUP4 DUP3 DUP2 MSTORE DUP3 PUSH1 0x20 DUP3 ADD MSTORE ADD MSTORE JUMP INVALID PUSH2 0x1E0 CALLVALUE PUSH3 0x2FF JUMPI PUSH1 0x1F PUSH3 0x21FF CODESIZE DUP2 SWAP1 SUB SWAP2 DUP3 ADD PUSH1 0x1F NOT AND DUP4 ADD SWAP2 PUSH1 0x1 PUSH1 0x1 PUSH1 0x40 SHL SUB DUP4 GT DUP5 DUP5 LT OR PUSH3 0x2C5 JUMPI DUP1 DUP5 SWAP3 PUSH2 0x180 SWAP5 PUSH1 0x40 MSTORE DUP4 CODECOPY DUP2 ADD SUB SLT PUSH3 0x2FF JUMPI PUSH3 0x4F DUP2 PUSH3 0x304 JUMP JUMPDEST SWAP1 PUSH3 0x5E PUSH1 0x20 DUP3 ADD PUSH3 0x304 JUMP JUMPDEST SWAP2 PUSH1 0x40 DUP3 ADD MLOAD SWAP3 PUSH1 0x60 DUP4 ADD MLOAD PUSH1 0x80 DUP5 ADD MLOAD PUSH1 0xA0 DUP6 ADD MLOAD PUSH1 0xC0 DUP7 ADD MLOAD SWAP1 PUSH1 0xE0 DUP8 ADD MLOAD SWAP3 PUSH2 0x100 DUP9 ADD MLOAD SWAP5 PUSH3 0x96 PUSH2 0x120 DUP11 ADD PUSH3 0x304 JUMP JUMPDEST SWAP10 PUSH3 0xB5 PUSH2 0x160 PUSH3 0xAD PUSH2 0x140 DUP14 ADD PUSH3 0x304 JUMP JUMPDEST SWAP12 ADD PUSH3 0x304 JUMP JUMPDEST SWAP8 PUSH1 0x1 PUSH1 0x0 SSTORE DUP6 DUP8 GT ISZERO PUSH3 0x2DB JUMPI PUSH1 0x1 PUSH1 0x1 PUSH1 0xA0 SHL SUB DUP13 AND ISZERO PUSH3 0x2ED JUMPI PUSH1 0x1 PUSH1 0x1 PUSH1 0xA0 SHL SUB DUP12 AND ISZERO PUSH3 0x2ED JUMPI PUSH1 0x1 PUSH1 0x1 PUSH1 0xA0 SHL SUB DUP11 AND ISZERO PUSH3 0x2ED JUMPI DUP2 ISZERO PUSH3 0x2DB JUMPI DUP3 ISZERO PUSH3 0x2DB JUMPI PUSH3 0x14F SWAP10 PUSH1 0x80 MSTORE PUSH1 0xA0 MSTORE PUSH1 0xC0 MSTORE PUSH1 0xE0 MSTORE PUSH2 0x100 MSTORE PUSH2 0x120 MSTORE PUSH2 0x140 MSTORE PUSH2 0x160 MSTORE PUSH2 0x180 MSTORE PUSH2 0x1A0 SWAP4 DUP5 MSTORE PUSH2 0x1C0 SWAP3 DUP4 MSTORE PUSH1 0xFF NOT PUSH1 0x7 SLOAD AND PUSH1 0x7 SSTORE PUSH3 0x148 DUP2 PUSH3 0x319 JUMP JUMPDEST POP PUSH3 0x39A JUMP JUMPDEST POP PUSH1 0x40 MLOAD PUSH1 0x80 DUP2 ADD PUSH1 0x1 PUSH1 0x1 PUSH1 0x40 SHL SUB DUP2 GT DUP3 DUP3 LT OR PUSH3 0x2C5 JUMPI PUSH1 0x40 MSTORE PUSH1 0x32 PUSH1 0x60 PUSH2 0x1F4 SWAP3 DUP4 DUP2 MSTORE PUSH1 0xFA PUSH1 0x20 DUP3 ADD MSTORE PUSH1 0xC8 PUSH1 0x40 DUP3 ADD MSTORE ADD MSTORE PUSH1 0x3 SSTORE PUSH1 0xFA PUSH1 0x4 SSTORE PUSH1 0xC8 PUSH1 0x5 SSTORE PUSH1 0x32 PUSH1 0x6 SSTORE PUSH1 0x40 MLOAD SWAP1 PUSH2 0x1DA1 SWAP3 DUP4 PUSH3 0x43E DUP5 CODECOPY PUSH1 0x80 MLOAD DUP4 DUP2 DUP2 PUSH2 0x305 ADD MSTORE DUP2 DUP2 PUSH2 0x7CD ADD MSTORE DUP2 DUP2 PUSH2 0xAA5 ADD MSTORE PUSH2 0xED9 ADD MSTORE PUSH1 0xA0 MLOAD DUP4 DUP2 DUP2 PUSH2 0x4B3 ADD MSTORE DUP2 DUP2 PUSH2 0xC6B ADD MSTORE DUP2 DUP2 PUSH2 0x1128 ADD MSTORE PUSH2 0x151F ADD MSTORE PUSH1 0xC0 MLOAD DUP4 DUP2 DUP2 PUSH2 0x26B ADD MSTORE DUP2 DUP2 PUSH2 0xA7D ADD MSTORE DUP2 DUP2 PUSH2 0xFF1 ADD MSTORE DUP2 DUP2 PUSH2 0x109D ADD MSTORE PUSH2 0x1D09 ADD MSTORE PUSH1 0xE0 MLOAD DUP4 DUP2 DUP2 PUSH2 0x246 ADD MSTORE DUP2 DUP2 PUSH2 0x6D5 ADD MSTORE DUP2 DUP2 PUSH2 0x978 ADD MSTORE PUSH2 0x1059 ADD MSTORE PUSH2 0x100 MLOAD DUP4 DUP2 DUP2 PUSH2 0x59B ADD MSTORE PUSH2 0xC09 ADD MSTORE PUSH2 0x120 MLOAD DUP4 DUP2 DUP2 PUSH2 0x9B3 ADD MSTORE PUSH2 0xC30 ADD MSTORE PUSH2 0x140 MLOAD DUP4 DUP2 DUP2 PUSH2 0x29B ADD MSTORE DUP2 DUP2 PUSH2 0x600 ADD MSTORE DUP2 DUP2 PUSH2 0xB0D ADD MSTORE PUSH2 0x1B09 ADD MSTORE PUSH2 0x160 MLOAD DUP4 DUP2 DUP2 PUSH2 0x2C1 ADD MSTORE DUP2 DUP2 PUSH2 0x14E7 ADD MSTORE PUSH2 0x1BCD ADD MSTORE PUSH2 0x180 MLOAD DUP4 DUP2 DUP2 PUSH2 0x10CC ADD MSTORE PUSH2 0x161D ADD MSTORE MLOAD DUP3 DUP2 DUP2 PUSH2 0xDCB ADD MSTORE DUP2 DUP2 PUSH2 0x1157 ADD MSTORE PUSH2 0x12D9 ADD MSTORE MLOAD DUP2 DUP2 DUP2 PUSH2 0x81E ADD MSTORE DUP2 DUP2 PUSH2 0x8B1 ADD MSTORE DUP2 DUP2 PUSH2 0x11B1 ADD MSTORE PUSH2 0x1282 ADD MSTORE RETURN JUMPDEST PUSH4 0x4E487B71 PUSH1 0xE0 SHL PUSH1 0x0 MSTORE PUSH1 0x41 PUSH1 0x4 MSTORE PUSH1 0x24 PUSH1 0x0 REVERT JUMPDEST PUSH1 0x40 MLOAD PUSH4 0x7A92F19 PUSH1 0xE5 SHL DUP2 MSTORE PUSH1 0x4 SWAP1 REVERT JUMPDEST PUSH1 0x40 MLOAD PUSH4 0xE6C4247B PUSH1 0xE0 SHL DUP2 MSTORE PUSH1 0x4 SWAP1 REVERT JUMPDEST PUSH1 0x0 DUP1 REVERT JUMPDEST MLOAD SWAP1 PUSH1 0x1 PUSH1 0x1 PUSH1 0xA0 SHL SUB DUP3 AND DUP3 SUB PUSH3 0x2FF JUMPI JUMP JUMPDEST PUSH1 0x1 PUSH1 0x1 PUSH1 0xA0 SHL SUB AND PUSH1 0x0 DUP2 DUP2 MSTORE PUSH32 0xAC33FF75C19E70FE83507DB0D683FD3465C996598DC972688B7ACE676C89077B PUSH1 0x20 MSTORE PUSH1 0x40 DUP2 KECCAK256 SLOAD SWAP1 SWAP2 SWAP1 PUSH1 0xFF AND PUSH3 0x396 JUMPI DUP2 DUP1 MSTORE PUSH1 0x2 PUSH1 0x20 MSTORE PUSH1 0x40 DUP3 KECCAK256 DUP2 DUP4 MSTORE PUSH1 0x20 MSTORE PUSH1 0x40 DUP3 KECCAK256 PUSH1 0x1 PUSH1 0xFF NOT DUP3 SLOAD AND OR SWAP1 SSTORE CALLER SWAP2 PUSH1 0x0 DUP1 MLOAD PUSH1 0x20 PUSH3 0x21DF DUP4 CODECOPY DUP2 MLOAD SWAP2 MSTORE DUP2 DUP1 LOG4 PUSH1 0x1 SWAP1 JUMP JUMPDEST POP SWAP1 JUMP JUMPDEST PUSH1 0x1 PUSH1 0x1 PUSH1 0xA0 SHL SUB AND PUSH1 0x0 DUP2 DUP2 MSTORE PUSH32 0xE5EBFA64FCA8D502A8E50C1EDFFD2C31EF4DAD5B396E65D9F397FB028F74ABC5 PUSH1 0x20 MSTORE PUSH1 0x40 DUP2 KECCAK256 SLOAD SWAP1 SWAP2 SWAP1 PUSH32 0xA49807205CE4D355092EF5A8A18F56E8913CF4A201FBE287825B095693C21775 SWAP1 PUSH1 0xFF AND PUSH3 0x438 JUMPI DUP1 DUP4 MSTORE PUSH1 0x2 PUSH1 0x20 MSTORE PUSH1 0x40 DUP4 KECCAK256 DUP3 DUP5 MSTORE PUSH1 0x20 MSTORE PUSH1 0x40 DUP4 KECCAK256 PUSH1 0x1 PUSH1 0xFF NOT DUP3 SLOAD AND OR SWAP1 SSTORE PUSH1 0x0 DUP1 MLOAD PUSH1 0x20 PUSH3 0x21DF DUP4 CODECOPY DUP2 MLOAD SWAP2 MSTORE CALLER SWAP4 DUP1 LOG4 PUSH1 0x1 SWAP1 JUMP JUMPDEST POP POP SWAP1 JUMP INVALID PUSH1 0x80 PUSH1 0x40 DUP2 DUP2 MSTORE PUSH1 0x4 SWAP2 DUP3 CALLDATASIZE LT ISZERO PUSH2 0x16 JUMPI PUSH1 0x0 DUP1 REVERT JUMPDEST PUSH1 0x0 SWAP3 DUP4 CALLDATALOAD PUSH1 0xE0 SHR SWAP2 DUP3 PUSH4 0x1FFC9A7 EQ PUSH2 0x1704 JUMPI POP DUP2 PUSH4 0xB4F3F3D EQ PUSH2 0x1678 JUMPI DUP2 PUSH4 0xB6D621C EQ PUSH2 0x1640 JUMPI DUP2 PUSH4 0xB7C1AE1 EQ PUSH2 0x1605 JUMPI DUP2 PUSH4 0x1E5EB1D0 EQ PUSH2 0x15CC JUMPI DUP2 PUSH4 0x200D2ED2 EQ PUSH2 0x15A3 JUMPI DUP2 PUSH4 0x248A9CA3 EQ PUSH2 0x1578 JUMPI DUP2 PUSH4 0x2F2FF15D EQ PUSH2 0x154E JUMPI DUP2 PUSH4 0x3013CE29 EQ PUSH2 0x150A JUMPI DUP2 PUSH4 0x3197CBB6 EQ PUSH2 0x14CF JUMPI DUP2 PUSH4 0x36568ABE EQ PUSH2 0x1489 JUMPI DUP2 PUSH4 0x3871BDA5 EQ PUSH2 0x1014 JUMPI DUP2 PUSH4 0x3970F698 EQ PUSH2 0xFD9 JUMPI DUP2 PUSH4 0x3F4BA83A EQ PUSH2 0xF6F JUMPI DUP2 PUSH4 0x42E94C90 EQ PUSH2 0xF37 JUMPI DUP2 PUSH4 0x48C54B9D EQ PUSH2 0xE59 JUMPI DUP2 PUSH4 0x4A3B68CC EQ PUSH2 0xE1E JUMPI DUP2 PUSH4 0x5C975ABB EQ PUSH2 0xDFA JUMPI DUP2 PUSH4 0x6052970C EQ PUSH2 0xDB6 JUMPI DUP2 PUSH4 0x60B0B0F0 EQ PUSH2 0xBA9 JUMPI DUP2 PUSH4 0x73B2E80E EQ PUSH2 0xB6B JUMPI DUP2 PUSH4 0x75B238FC EQ PUSH2 0xB30 JUMPI DUP2 PUSH4 0x78E97925 EQ PUSH2 0xAF5 JUMPI DUP2 PUSH4 0x7C4B414D EQ PUSH2 0xA30 JUMPI DUP2 PUSH4 0x8456CB59 EQ PUSH2 0x9D6 JUMPI DUP2 PUSH4 0x8D3D6576 EQ PUSH2 0x99B JUMPI DUP2 PUSH4 0x906A26E0 EQ PUSH2 0x960 JUMPI DUP2 PUSH4 0x91D14854 EQ PUSH2 0x91A JUMPI DUP2 PUSH4 0xA217FDDF EQ PUSH2 0x8FF JUMPI DUP2 PUSH4 0xA4317EF4 EQ PUSH2 0x8E0 JUMPI DUP2 PUSH4 0xA4475CE4 EQ PUSH2 0x89C JUMPI DUP2 PUSH4 0xA4A1383F EQ PUSH2 0x77C JUMPI DUP2 PUSH4 0xA6B513EE EQ PUSH2 0x75D JUMPI DUP2 PUSH4 0xA87F966F EQ PUSH2 0x697 JUMPI DUP2 PUSH4 0xA9EDDF99 EQ PUSH2 0x5BE JUMPI DUP2 PUSH4 0xAAFFADF3 EQ PUSH2 0x583 JUMPI DUP2 PUSH4 0xB5545A3C EQ PUSH2 0x454 JUMPI DUP2 PUSH4 0xB920ADE2 EQ PUSH2 0x427 JUMPI DUP2 PUSH4 0xC5C4744C EQ PUSH2 0x408 JUMPI DUP2 PUSH4 0xC78F19F9 EQ PUSH2 0x3E9 JUMPI DUP2 PUSH4 0xCD78D92C EQ PUSH2 0x378 JUMPI DUP2 PUSH4 0xD547741F EQ PUSH2 0x334 JUMPI POP DUP1 PUSH4 0xE985E367 EQ PUSH2 0x2F1 JUMPI PUSH4 0xF65F314B EQ PUSH2 0x209 JUMPI PUSH1 0x0 DUP1 REVERT JUMPDEST CALLVALUE PUSH2 0x2ED JUMPI DUP2 PUSH1 0x3 NOT CALLDATASIZE ADD SLT PUSH2 0x2ED JUMPI PUSH2 0x120 SWAP1 PUSH1 0xFF PUSH1 0x7 SLOAD AND SWAP1 PUSH1 0x8 SLOAD SWAP1 PUSH1 0x9 SLOAD PUSH1 0xA SLOAD SWAP2 PUSH1 0xB SLOAD SWAP4 PUSH2 0x23F DUP3 MLOAD DUP1 SWAP8 PUSH2 0x17D2 JUMP JUMPDEST PUSH1 0x20 DUP7 ADD MSTORE PUSH32 0x0 SWAP1 DUP6 ADD MSTORE PUSH32 0x0 PUSH1 0x60 DUP6 ADD MSTORE PUSH1 0x80 DUP5 ADD MSTORE PUSH1 0xA0 DUP4 ADD MSTORE PUSH32 0x0 PUSH1 0xC0 DUP4 ADD MSTORE PUSH32 0x0 PUSH1 0xE0 DUP4 ADD MSTORE PUSH2 0x100 DUP3 ADD MSTORE RETURN JUMPDEST POP DUP1 REVERT JUMPDEST POP CALLVALUE PUSH2 0x2ED JUMPI DUP2 PUSH1 0x3 NOT CALLDATASIZE ADD SLT PUSH2 0x2ED JUMPI MLOAD PUSH32 0x0 PUSH1 0x1 PUSH1 0x1 PUSH1 0xA0 SHL SUB AND DUP2 MSTORE PUSH1 0x20 SWAP1 RETURN JUMPDEST SWAP2 SWAP1 POP CALLVALUE PUSH2 0x374 JUMPI DUP1 PUSH1 0x3 NOT CALLDATASIZE ADD SLT PUSH2 0x374 JUMPI PUSH2 0x370 SWAP2 CALLDATALOAD PUSH2 0x36B PUSH1 0x1 PUSH2 0x359 PUSH2 0x17BC JUMP JUMPDEST SWAP4 DUP4 DUP8 MSTORE PUSH1 0x2 PUSH1 0x20 MSTORE DUP7 KECCAK256 ADD SLOAD PUSH2 0x186F JUMP JUMPDEST PUSH2 0x1915 JUMP JUMPDEST POP DUP1 RETURN JUMPDEST DUP3 DUP1 REVERT JUMPDEST POP POP CALLVALUE PUSH2 0x2ED JUMPI PUSH1 0x20 CALLDATASIZE PUSH1 0x3 NOT ADD SLT PUSH2 0x2ED JUMPI SWAP1 PUSH1 0x80 SWAP2 PUSH2 0x397 PUSH2 0x17A6 JUMP JUMPDEST SWAP2 PUSH1 0x1 DUP1 PUSH1 0xA0 SHL SUB SWAP2 PUSH1 0xFF DUP2 DUP5 DUP7 AND SWAP5 DUP6 DUP6 MSTORE PUSH1 0xC PUSH1 0x20 MSTORE PUSH2 0x3BC DUP3 DUP7 KECCAK256 SLOAD SWAP8 PUSH2 0x1CCB JUMP JUMPDEST SWAP6 DUP6 MSTORE PUSH1 0xF PUSH1 0x20 MSTORE DUP2 DUP6 KECCAK256 SLOAD AND SWAP4 PUSH1 0xE PUSH1 0x20 MSTORE KECCAK256 SLOAD AND SWAP3 DUP2 MLOAD SWAP5 DUP6 MSTORE PUSH1 0x20 DUP6 ADD MSTORE DUP4 ADD MSTORE ISZERO ISZERO PUSH1 0x60 DUP3 ADD MSTORE RETURN JUMPDEST POP POP CALLVALUE PUSH2 0x2ED JUMPI DUP2 PUSH1 0x3 NOT CALLDATASIZE ADD SLT PUSH2 0x2ED JUMPI PUSH1 0x20 SWAP1 PUSH1 0xA SLOAD SWAP1 MLOAD SWAP1 DUP2 MSTORE RETURN JUMPDEST POP POP CALLVALUE PUSH2 0x2ED JUMPI DUP2 PUSH1 0x3 NOT CALLDATASIZE ADD SLT PUSH2 0x2ED JUMPI PUSH1 0x20 SWAP1 PUSH1 0x8 SLOAD SWAP1 MLOAD SWAP1 DUP2 MSTORE RETURN JUMPDEST POP POP CALLVALUE PUSH2 0x2ED JUMPI PUSH1 0x20 CALLDATASIZE PUSH1 0x3 NOT ADD SLT PUSH2 0x2ED JUMPI PUSH1 0x20 SWAP1 PUSH2 0x44D PUSH2 0x448 PUSH2 0x17A6 JUMP JUMPDEST PUSH2 0x1CCB JUMP JUMPDEST SWAP1 MLOAD SWAP1 DUP2 MSTORE RETURN JUMPDEST SWAP2 SWAP1 POP CALLVALUE PUSH2 0x374 JUMPI DUP3 PUSH1 0x3 NOT CALLDATASIZE ADD SLT PUSH2 0x374 JUMPI PUSH2 0x46F PUSH2 0x1ADC JUMP JUMPDEST PUSH1 0xFF PUSH1 0x7 SLOAD AND PUSH1 0x9 DUP2 LT ISZERO PUSH2 0x570 JUMPI PUSH1 0x6 DUP2 EQ ISZERO SWAP1 DUP2 PUSH2 0x564 JUMPI JUMPDEST POP PUSH2 0x557 JUMPI CALLER DUP4 MSTORE PUSH1 0xC PUSH1 0x20 MSTORE DUP1 DUP4 KECCAK256 SLOAD SWAP2 DUP3 ISZERO PUSH2 0x549 JUMPI CALLER DUP5 MSTORE PUSH1 0xC PUSH1 0x20 MSTORE DUP2 DUP5 KECCAK256 DUP5 SWAP1 SSTORE DUP3 PUSH32 0x0 PUSH1 0x1 PUSH1 0x1 PUSH1 0xA0 SHL SUB AND DUP1 PUSH2 0x538 JUMPI POP DUP5 DUP1 DUP1 DUP1 SWAP4 CALLER GAS CALL PUSH2 0x4F1 PUSH2 0x1C4A JUMP JUMPDEST POP ISZERO PUSH2 0x52A JUMPI POP JUMPDEST MLOAD SWAP1 DUP2 MSTORE PUSH32 0xD7DEE2702D63AD89917B6A4DA9981C90C4D24F8C2BDFD64C604ECAE57D8D0651 PUSH1 0x20 CALLER SWAP3 LOG2 PUSH1 0x1 DUP2 SSTORE DUP1 RETURN JUMPDEST SWAP1 MLOAD PUSH4 0x7A92F19 PUSH1 0xE5 SHL DUP2 MSTORE REVERT JUMPDEST PUSH2 0x544 SWAP3 POP CALLER SWAP1 PUSH2 0x1C8A JUMP JUMPDEST PUSH2 0x4F9 JUMP JUMPDEST SWAP1 MLOAD PUSH4 0x1971FBF3 PUSH1 0xE2 SHL DUP2 MSTORE REVERT JUMPDEST MLOAD PUSH4 0xB4D6981 PUSH1 0xE0 SHL DUP2 MSTORE REVERT JUMPDEST PUSH1 0x8 SWAP2 POP EQ ISZERO CODESIZE PUSH2 0x48A JUMP JUMPDEST PUSH4 0x4E487B71 PUSH1 0xE0 SHL DUP5 MSTORE PUSH1 0x21 DUP4 MSTORE PUSH1 0x24 DUP5 REVERT JUMPDEST POP POP CALLVALUE PUSH2 0x2ED JUMPI DUP2 PUSH1 0x3 NOT CALLDATASIZE ADD SLT PUSH2 0x2ED JUMPI PUSH1 0x20 SWAP1 MLOAD PUSH32 0x0 DUP2 MSTORE RETURN JUMPDEST SWAP1 POP CALLVALUE PUSH2 0x374 JUMPI PUSH1 0x80 CALLDATASIZE PUSH1 0x3 NOT ADD SLT PUSH2 0x374 JUMPI PUSH2 0x5D9 PUSH2 0x17F5 JUMP JUMPDEST PUSH1 0xFF PUSH1 0x7 SLOAD AND PUSH1 0x9 DUP2 LT ISZERO PUSH2 0x684 JUMPI DUP1 ISZERO ISZERO SWAP1 DUP2 PUSH2 0x678 JUMPI JUMPDEST POP PUSH2 0x66B JUMPI PUSH1 0x8 SLOAD PUSH2 0x66B JUMPI PUSH32 0x0 TIMESTAMP LT ISZERO PUSH2 0x66B JUMPI PUSH1 0x44 CALLDATALOAD SWAP1 PUSH1 0x24 CALLDATALOAD SWAP1 DUP1 CALLDATALOAD PUSH2 0x63A DUP5 DUP5 PUSH2 0x1A9B JUMP JUMPDEST SWAP5 PUSH2 0x648 PUSH1 0x64 CALLDATALOAD DUP1 SWAP8 PUSH2 0x1A9B JUMP JUMPDEST DUP3 SUB PUSH2 0x65C JUMPI POP PUSH1 0x3 SSTORE SSTORE PUSH1 0x5 SSTORE PUSH1 0x6 SSTORE DUP1 RETURN JUMPDEST MLOAD PUSH4 0x2B00A33D PUSH1 0xE1 SHL DUP2 MSTORE SWAP1 POP REVERT JUMPDEST SWAP1 MLOAD PUSH3 0xB5D7E1 PUSH1 0xE8 SHL DUP2 MSTORE REVERT JUMPDEST PUSH1 0x2 SWAP2 POP EQ ISZERO CODESIZE PUSH2 0x5F2 JUMP JUMPDEST PUSH4 0x4E487B71 PUSH1 0xE0 SHL DUP5 MSTORE PUSH1 0x21 DUP3 MSTORE PUSH1 0x24 DUP5 REVERT JUMPDEST DUP4 SWAP2 POP CALLVALUE PUSH2 0x2ED JUMPI PUSH2 0x6A8 CALLDATASIZE PUSH2 0x1757 JUMP JUMPDEST SWAP2 PUSH2 0x6B1 PUSH2 0x17F5 JUMP JUMPDEST PUSH2 0x6B9 PUSH2 0x1AFF JUMP JUMPDEST PUSH1 0x7 SLOAD SWAP1 PUSH1 0xFF DUP3 AND PUSH1 0x9 DUP2 LT ISZERO PUSH2 0x74A JUMPI DUP2 SUB PUSH2 0x73C JUMPI PUSH1 0x8 SLOAD PUSH32 0x0 GT ISZERO PUSH2 0x73C JUMPI POP PUSH32 0x3D83BFE8797F11E26CEFDB415BA6850E58A00CCD2F3D29E924104F10B7F184EE SWAP4 SWAP5 PUSH1 0x6 PUSH2 0x736 SWAP3 PUSH1 0xFF NOT AND OR PUSH1 0x7 SSTORE MLOAD SWAP3 DUP4 SWAP3 DUP4 PUSH2 0x1D43 JUMP JUMPDEST SUB SWAP1 LOG1 DUP1 RETURN JUMPDEST DUP6 MLOAD PUSH4 0x7A92F19 PUSH1 0xE5 SHL DUP2 MSTORE REVERT JUMPDEST PUSH4 0x4E487B71 PUSH1 0xE0 SHL DUP7 MSTORE PUSH1 0x21 DUP3 MSTORE PUSH1 0x24 DUP7 REVERT JUMPDEST POP POP CALLVALUE PUSH2 0x2ED JUMPI DUP2 PUSH1 0x3 NOT CALLDATASIZE ADD SLT PUSH2 0x2ED JUMPI PUSH1 0x20 SWAP1 PUSH1 0x9 SLOAD SWAP1 MLOAD SWAP1 DUP2 MSTORE RETURN JUMPDEST SWAP2 SWAP1 POP CALLVALUE PUSH2 0x374 JUMPI DUP3 PUSH1 0x3 NOT CALLDATASIZE ADD SLT PUSH2 0x374 JUMPI PUSH2 0x797 PUSH2 0x17F5 JUMP JUMPDEST PUSH1 0xFF PUSH1 0x7 SLOAD AND PUSH1 0x9 DUP2 LT ISZERO PUSH2 0x570 JUMPI PUSH1 0x6 DUP2 EQ ISZERO SWAP1 DUP2 PUSH2 0x890 JUMPI JUMPDEST POP PUSH2 0x883 JUMPI DUP1 MLOAD PUSH4 0x70A08231 PUSH1 0xE0 SHL DUP2 MSTORE ADDRESS SWAP3 DUP2 ADD SWAP3 SWAP1 SWAP3 MSTORE PUSH32 0x0 PUSH1 0x1 PUSH1 0x1 PUSH1 0xA0 SHL SUB AND SWAP2 PUSH1 0x20 DUP2 PUSH1 0x24 DUP2 DUP7 GAS STATICCALL SWAP2 DUP3 ISZERO PUSH2 0x87A JUMPI POP DUP4 SWAP2 PUSH2 0x849 JUMPI JUMPDEST POP DUP1 PUSH2 0x818 JUMPI DUP3 DUP1 RETURN JUMPDEST PUSH2 0x843 SWAP2 PUSH32 0x0 SWAP1 PUSH2 0x1C8A JUMP JUMPDEST CODESIZE DUP1 DUP3 DUP1 RETURN JUMPDEST SWAP1 POP PUSH1 0x20 DUP2 RETURNDATASIZE DUP3 GT PUSH2 0x872 JUMPI JUMPDEST DUP2 PUSH2 0x863 PUSH1 0x20 SWAP4 DUP4 PUSH2 0x19B6 JUMP JUMPDEST DUP2 ADD SUB SLT PUSH2 0x374 JUMPI MLOAD CODESIZE PUSH2 0x80E JUMP JUMPDEST RETURNDATASIZE SWAP2 POP PUSH2 0x856 JUMP JUMPDEST MLOAD RETURNDATASIZE DUP6 DUP3 RETURNDATACOPY RETURNDATASIZE SWAP1 REVERT JUMPDEST MLOAD PUSH4 0x7A92F19 PUSH1 0xE5 SHL DUP2 MSTORE REVERT JUMPDEST PUSH1 0x8 SWAP2 POP EQ ISZERO CODESIZE PUSH2 0x7B2 JUMP JUMPDEST POP POP CALLVALUE PUSH2 0x2ED JUMPI DUP2 PUSH1 0x3 NOT CALLDATASIZE ADD SLT PUSH2 0x2ED JUMPI MLOAD PUSH32 0x0 PUSH1 0x1 PUSH1 0x1 PUSH1 0xA0 SHL SUB AND DUP2 MSTORE PUSH1 0x20 SWAP1 RETURN JUMPDEST POP POP CALLVALUE PUSH2 0x2ED JUMPI DUP2 PUSH1 0x3 NOT CALLDATASIZE ADD SLT PUSH2 0x2ED JUMPI PUSH1 0x20 SWAP1 PUSH1 0xB SLOAD SWAP1 MLOAD SWAP1 DUP2 MSTORE RETURN JUMPDEST POP POP CALLVALUE PUSH2 0x2ED JUMPI DUP2 PUSH1 0x3 NOT CALLDATASIZE ADD SLT PUSH2 0x2ED JUMPI MLOAD SWAP1 DUP2 MSTORE PUSH1 0x20 SWAP1 RETURN JUMPDEST SWAP1 POP CALLVALUE PUSH2 0x374 JUMPI DUP2 PUSH1 0x3 NOT CALLDATASIZE ADD SLT PUSH2 0x374 JUMPI DUP2 PUSH1 0x20 SWAP4 PUSH2 0x938 PUSH2 0x17BC JUMP JUMPDEST SWAP3 CALLDATALOAD DUP2 MSTORE PUSH1 0x2 DUP6 MSTORE KECCAK256 SWAP1 PUSH1 0x1 DUP1 PUSH1 0xA0 SHL SUB AND PUSH1 0x0 MSTORE DUP3 MSTORE PUSH1 0xFF DUP2 PUSH1 0x0 KECCAK256 SLOAD AND SWAP1 MLOAD SWAP1 ISZERO ISZERO DUP2 MSTORE RETURN JUMPDEST POP POP CALLVALUE PUSH2 0x2ED JUMPI DUP2 PUSH1 0x3 NOT CALLDATASIZE ADD SLT PUSH2 0x2ED JUMPI PUSH1 0x20 SWAP1 MLOAD PUSH32 0x0 DUP2 MSTORE RETURN JUMPDEST POP POP CALLVALUE PUSH2 0x2ED JUMPI DUP2 PUSH1 0x3 NOT CALLDATASIZE ADD SLT PUSH2 0x2ED JUMPI PUSH1 0x20 SWAP1 MLOAD PUSH32 0x0 DUP2 MSTORE RETURN JUMPDEST POP POP CALLVALUE PUSH2 0x2ED JUMPI DUP2 PUSH1 0x3 NOT CALLDATASIZE ADD SLT PUSH2 0x2ED JUMPI PUSH1 0x20 PUSH32 0x62E78CEA01BEE320CD4E420270B5EA74000D11B0C9F74754EBDBFC544B05A258 SWAP2 PUSH2 0xA14 PUSH2 0x17F5 JUMP JUMPDEST PUSH2 0xA1C PUSH2 0x1ABE JUMP JUMPDEST PUSH1 0x1 PUSH1 0xFF NOT DUP2 SLOAD AND OR PUSH1 0x1 SSTORE MLOAD CALLER DUP2 MSTORE LOG1 DUP1 RETURN JUMPDEST SWAP1 POP CALLVALUE PUSH2 0x374 JUMPI DUP3 PUSH1 0x3 NOT CALLDATASIZE ADD SLT PUSH2 0x374 JUMPI PUSH1 0xFF PUSH1 0x7 SLOAD AND PUSH1 0x9 DUP2 LT ISZERO PUSH2 0x684 JUMPI PUSH2 0xAE7 JUMPI POP PUSH32 0x77ACF75E237F9AAE98F997395832D522BDB695E4A9BD07704936AA889A3667D1 SWAP1 PUSH1 0x20 SWAP1 PUSH32 0x0 SWAP1 PUSH2 0xAD2 DUP3 ADDRESS CALLER PUSH32 0x0 PUSH1 0x1 PUSH1 0x1 PUSH1 0xA0 SHL SUB AND PUSH2 0x19D8 JUMP JUMPDEST PUSH1 0x2 PUSH1 0xFF NOT PUSH1 0x7 SLOAD AND OR PUSH1 0x7 SSTORE MLOAD SWAP1 DUP2 MSTORE LOG1 DUP1 RETURN JUMPDEST SWAP1 MLOAD PUSH4 0xFD0AF23 PUSH1 0xE3 SHL DUP2 MSTORE REVERT JUMPDEST POP POP CALLVALUE PUSH2 0x2ED JUMPI DUP2 PUSH1 0x3 NOT CALLDATASIZE ADD SLT PUSH2 0x2ED JUMPI PUSH1 0x20 SWAP1 MLOAD PUSH32 0x0 DUP2 MSTORE RETURN JUMPDEST POP POP CALLVALUE PUSH2 0x2ED JUMPI DUP2 PUSH1 0x3 NOT CALLDATASIZE ADD SLT PUSH2 0x2ED JUMPI PUSH1 0x20 SWAP1 MLOAD PUSH32 0xA49807205CE4D355092EF5A8A18F56E8913CF4A201FBE287825B095693C21775 DUP2 MSTORE RETURN JUMPDEST POP POP CALLVALUE PUSH2 0x2ED JUMPI PUSH1 0x20 CALLDATASIZE PUSH1 0x3 NOT ADD SLT PUSH2 0x2ED JUMPI PUSH1 0x20 SWAP2 PUSH1 0xFF SWAP1 DUP3 SWAP1 PUSH1 0x1 PUSH1 0x1 PUSH1 0xA0 SHL SUB PUSH2 0xB96 PUSH2 0x17A6 JUMP JUMPDEST AND DUP2 MSTORE PUSH1 0xE DUP6 MSTORE KECCAK256 SLOAD AND SWAP1 MLOAD SWAP1 ISZERO ISZERO DUP2 MSTORE RETURN JUMPDEST SWAP1 POP DUP2 PUSH1 0x3 NOT CALLDATASIZE ADD SLT PUSH2 0x374 JUMPI DUP1 CALLDATALOAD SWAP1 PUSH2 0xBC1 PUSH2 0x17BC JUMP JUMPDEST SWAP1 PUSH2 0xBCA PUSH2 0x1ADC JUMP JUMPDEST PUSH2 0xBD2 PUSH2 0x1ABE JUMP JUMPDEST PUSH2 0xBDA PUSH2 0x1AFF JUMP JUMPDEST PUSH1 0xFF PUSH1 0x7 SLOAD AND PUSH1 0x9 DUP2 LT ISZERO PUSH2 0x74A JUMPI PUSH1 0x3 SUB PUSH2 0xDA8 JUMPI CALLER DUP6 MSTORE PUSH1 0x20 SWAP2 PUSH1 0xC DUP4 MSTORE PUSH2 0xC07 DUP5 DUP7 DUP9 KECCAK256 SLOAD PUSH2 0x1A9B JUMP JUMPDEST PUSH32 0x0 DUP2 LT PUSH2 0xD98 JUMPI PUSH32 0x0 DUP1 ISZERO ISZERO SWAP2 DUP3 PUSH2 0xD8E JUMPI JUMPDEST POP POP PUSH2 0xD7F JUMPI PUSH1 0x1 PUSH1 0x1 PUSH1 0xA0 SHL SUB SWAP2 DUP5 PUSH32 0x0 DUP5 AND DUP1 PUSH2 0xD45 JUMPI POP CALLVALUE SUB PUSH2 0x73C JUMPI POP SWAP1 DUP1 PUSH32 0xEC470969F3350CA5A15F0D85053F8763FFD0EE39C7B74FCDC5AF7862718E292A SWAP4 SWAP3 JUMPDEST CALLER DUP9 MSTORE PUSH1 0xC DUP5 MSTORE DUP7 DUP9 KECCAK256 PUSH2 0xCD4 DUP8 DUP3 SLOAD PUSH2 0x1A9B JUMP JUMPDEST SWAP1 SSTORE PUSH2 0xCE2 DUP7 PUSH1 0x8 SLOAD PUSH2 0x1A9B JUMP JUMPDEST PUSH1 0x8 SSTORE AND DUP1 ISZERO ISZERO DUP1 PUSH2 0xD31 JUMPI JUMPDEST PUSH2 0xD10 JUMPI JUMPDEST POP CALLER DUP7 MSTORE PUSH1 0xF DUP3 MSTORE DUP5 DUP7 KECCAK256 SLOAD AND SWAP4 MLOAD SWAP3 DUP4 MSTORE CALLER SWAP3 LOG3 PUSH1 0x1 DUP2 SSTORE DUP1 RETURN JUMPDEST CALLER DUP8 MSTORE PUSH1 0xF DUP4 MSTORE DUP6 DUP8 KECCAK256 DUP1 SLOAD PUSH1 0x1 PUSH1 0x1 PUSH1 0xA0 SHL SUB NOT AND SWAP1 SWAP2 OR SWAP1 SSTORE CODESIZE PUSH2 0xCF4 JUMP JUMPDEST POP CALLER DUP8 MSTORE PUSH1 0xF DUP4 MSTORE DUP2 DUP7 DUP9 KECCAK256 SLOAD AND ISZERO PUSH2 0xCEF JUMP JUMPDEST DUP5 SWAP4 SWAP2 PUSH32 0xEC470969F3350CA5A15F0D85053F8763FFD0EE39C7B74FCDC5AF7862718E292A SWAP7 SWAP6 SWAP4 POP PUSH2 0xD7A SWAP2 ADDRESS SWAP1 CALLER SWAP1 PUSH2 0x19D8 JUMP JUMPDEST PUSH2 0xCBF JUMP JUMPDEST POP DUP4 MLOAD PUSH4 0x74368FB9 PUSH1 0xE1 SHL DUP2 MSTORE REVERT JUMPDEST GT SWAP1 POP CODESIZE DUP1 PUSH2 0xC59 JUMP JUMPDEST DUP6 MLOAD PUSH4 0x860B82A9 PUSH1 0xE0 SHL DUP2 MSTORE DUP4 SWAP1 REVERT JUMPDEST DUP4 MLOAD PUSH4 0x7A92F19 PUSH1 0xE5 SHL DUP2 MSTORE REVERT JUMPDEST POP POP CALLVALUE PUSH2 0x2ED JUMPI DUP2 PUSH1 0x3 NOT CALLDATASIZE ADD SLT PUSH2 0x2ED JUMPI MLOAD PUSH32 0x0 PUSH1 0x1 PUSH1 0x1 PUSH1 0xA0 SHL SUB AND DUP2 MSTORE PUSH1 0x20 SWAP1 RETURN JUMPDEST POP POP CALLVALUE PUSH2 0x2ED JUMPI DUP2 PUSH1 0x3 NOT CALLDATASIZE ADD SLT PUSH2 0x2ED JUMPI PUSH1 0x20 SWAP1 PUSH1 0xFF PUSH1 0x1 SLOAD AND SWAP1 MLOAD SWAP1 ISZERO ISZERO DUP2 MSTORE RETURN JUMPDEST POP POP CALLVALUE PUSH2 0x2ED JUMPI PUSH1 0x20 CALLDATASIZE PUSH1 0x3 NOT ADD SLT PUSH2 0x2ED JUMPI PUSH1 0x20 SWAP2 PUSH1 0x1 PUSH1 0x1 PUSH1 0xA0 SHL SUB SWAP1 DUP3 SWAP1 DUP3 PUSH2 0xE48 PUSH2 0x17A6 JUMP JUMPDEST AND DUP2 MSTORE PUSH1 0xF DUP6 MSTORE KECCAK256 SLOAD AND SWAP1 MLOAD SWAP1 DUP2 MSTORE RETURN JUMPDEST SWAP1 POP CALLVALUE PUSH2 0x374 JUMPI DUP3 PUSH1 0x3 NOT CALLDATASIZE ADD SLT PUSH2 0x374 JUMPI PUSH2 0xE73 PUSH2 0x1ADC JUMP JUMPDEST PUSH1 0xFF PUSH1 0x7 SLOAD AND PUSH1 0x9 DUP2 LT ISZERO PUSH2 0x684 JUMPI PUSH1 0x5 SUB PUSH2 0x52A JUMPI CALLER DUP4 MSTORE PUSH1 0xE PUSH1 0x20 MSTORE PUSH1 0xFF DUP3 DUP5 KECCAK256 SLOAD AND PUSH2 0x52A JUMPI CALLER DUP4 MSTORE PUSH1 0xC PUSH1 0x20 MSTORE DUP2 DUP4 KECCAK256 SLOAD ISZERO PUSH2 0x549 JUMPI POP PUSH2 0xEB7 CALLER PUSH2 0x1CCB JUMP JUMPDEST CALLER DUP1 DUP5 MSTORE PUSH1 0xE PUSH1 0x20 MSTORE DUP3 DUP5 KECCAK256 DUP1 SLOAD PUSH1 0xFF NOT AND PUSH1 0x1 OR SWAP1 SSTORE SWAP1 SWAP2 SWAP1 PUSH2 0xF06 SWAP1 DUP4 SWAP1 PUSH32 0x0 PUSH1 0x1 PUSH1 0x1 PUSH1 0xA0 SHL SUB AND PUSH2 0x1C8A JUMP JUMPDEST MLOAD SWAP1 DUP2 MSTORE PUSH32 0x896E034966EAAF1ADC54ACC0F257056FEBBD300C9E47182CF761982CF1F5E430 PUSH1 0x20 CALLER SWAP3 LOG2 PUSH1 0x1 DUP2 SSTORE DUP1 RETURN JUMPDEST POP POP CALLVALUE PUSH2 0x2ED JUMPI PUSH1 0x20 CALLDATASIZE PUSH1 0x3 NOT ADD SLT PUSH2 0x2ED JUMPI PUSH1 0x20 SWAP2 DUP2 SWAP1 PUSH1 0x1 PUSH1 0x1 PUSH1 0xA0 SHL SUB PUSH2 0xF5F PUSH2 0x17A6 JUMP JUMPDEST AND DUP2 MSTORE PUSH1 0xC DUP5 MSTORE KECCAK256 SLOAD SWAP1 MLOAD SWAP1 DUP2 MSTORE RETURN JUMPDEST SWAP1 POP CALLVALUE PUSH2 0x374 JUMPI DUP3 PUSH1 0x3 NOT CALLDATASIZE ADD SLT PUSH2 0x374 JUMPI PUSH2 0xF89 PUSH2 0x17F5 JUMP JUMPDEST PUSH1 0x1 SLOAD SWAP1 PUSH1 0xFF DUP3 AND ISZERO PUSH2 0xFCB JUMPI POP PUSH1 0xFF NOT AND PUSH1 0x1 SSTORE MLOAD CALLER DUP2 MSTORE PUSH32 0x5DB9EE0A495BF2E6FF9C91A7834C1BA4FDD244A5E8AA4E537BD38AEAE4B073AA SWAP1 PUSH1 0x20 SWAP1 LOG1 DUP1 RETURN JUMPDEST DUP3 MLOAD PUSH4 0x8DFC202B PUSH1 0xE0 SHL DUP2 MSTORE REVERT JUMPDEST POP POP CALLVALUE PUSH2 0x2ED JUMPI DUP2 PUSH1 0x3 NOT CALLDATASIZE ADD SLT PUSH2 0x2ED JUMPI PUSH1 0x20 SWAP1 MLOAD PUSH32 0x0 DUP2 MSTORE RETURN JUMPDEST SWAP1 POP CALLVALUE PUSH2 0x374 JUMPI DUP3 PUSH1 0x3 NOT CALLDATASIZE ADD SLT PUSH2 0x374 JUMPI PUSH2 0x102E PUSH2 0x17F5 JUMP JUMPDEST PUSH2 0x1036 PUSH2 0x1ADC JUMP JUMPDEST PUSH2 0x103E PUSH2 0x1AFF JUMP JUMPDEST PUSH1 0xFF PUSH1 0x7 SLOAD AND PUSH1 0x9 DUP2 LT ISZERO PUSH2 0x684 JUMPI DUP2 SUB PUSH2 0x52A JUMPI PUSH1 0x8 SLOAD SWAP1 PUSH32 0x0 DUP3 LT PUSH2 0x147B JUMPI PUSH8 0xDE0B6B3A7640000 DUP1 DUP4 MUL SWAP1 DUP4 DUP3 DIV EQ DUP4 ISZERO OR ISZERO PUSH2 0x1455 JUMPI PUSH2 0x10C2 SWAP1 PUSH32 0x0 SWAP1 PUSH2 0x1C2A JUMP JUMPDEST DUP1 PUSH1 0x9 SSTORE PUSH2 0x2710 SWAP1 PUSH32 0x0 DUP3 ADD SWAP1 DUP2 DUP4 GT PUSH2 0x1468 JUMPI DUP3 SWAP2 PUSH2 0x1100 SWAP2 PUSH2 0x1C17 JUMP JUMPDEST DIV PUSH1 0xA SSTORE PUSH2 0x1110 PUSH1 0x3 SLOAD DUP5 PUSH2 0x1C17 JUMP JUMPDEST DIV SWAP2 DUP3 DUP2 SUB SWAP1 DUP2 GT PUSH2 0x1455 JUMPI DUP5 SWAP1 PUSH1 0x1 PUSH1 0x1 PUSH1 0xA0 SHL SUB PUSH32 0x0 DUP2 DUP2 AND SWAP2 DUP3 ISZERO SWAP2 DUP3 ISZERO PUSH2 0x12D2 JUMPI POP PUSH32 0x0 AND DUP1 EXTCODESIZE ISZERO PUSH2 0x12CE JUMPI DUP5 DUP8 SWAP2 DUP8 DUP11 MLOAD DUP1 SWAP5 DUP2 SWAP4 PUSH4 0x990087B7 PUSH1 0xE0 SHL DUP4 MSTORE GAS CALL SWAP1 DUP2 ISZERO PUSH2 0x12C4 JUMPI DUP6 SWAP2 PUSH2 0x12AC JUMPI JUMPDEST POP POP JUMPDEST ISZERO PUSH2 0x1252 JUMPI POP DUP2 DUP1 DUP1 SWAP3 PUSH32 0x0 GAS CALL PUSH2 0x11DA PUSH2 0x1C4A JUMP JUMPDEST POP ISZERO PUSH2 0x1244 JUMPI POP PUSH32 0xACE74245E2451ECDB289C3F7D531CA72AF2B951251B6C2ACF0DD836BF0775D4B SWAP2 PUSH1 0xA0 SWAP2 JUMPDEST TIMESTAMP PUSH1 0xB SSTORE PUSH1 0x5 PUSH1 0xFF NOT PUSH1 0x7 SLOAD AND OR PUSH1 0x7 SSTORE PUSH1 0x8 SLOAD SWAP2 PUSH1 0x9 SLOAD SWAP1 PUSH1 0xA SLOAD SWAP2 DUP2 MLOAD SWAP5 DUP6 MSTORE PUSH1 0x20 DUP6 ADD MSTORE DUP4 ADD MSTORE PUSH1 0x60 DUP3 ADD MSTORE TIMESTAMP PUSH1 0x80 DUP3 ADD MSTORE LOG1 PUSH1 0x1 DUP2 SSTORE DUP1 RETURN JUMPDEST DUP3 MLOAD PUSH4 0x7A92F19 PUSH1 0xE5 SHL DUP2 MSTORE REVERT JUMPDEST PUSH32 0xACE74245E2451ECDB289C3F7D531CA72AF2B951251B6C2ACF0DD836BF0775D4B SWAP6 SWAP4 POP PUSH1 0xA0 SWAP5 SWAP3 POP SWAP1 PUSH2 0x12A7 SWAP2 PUSH32 0x0 SWAP1 PUSH2 0x1C8A JUMP JUMPDEST PUSH2 0x1207 JUMP JUMPDEST PUSH2 0x12B5 SWAP1 PUSH2 0x198C JUMP JUMPDEST PUSH2 0x12C0 JUMPI DUP4 CODESIZE PUSH2 0x11A2 JUMP JUMPDEST DUP4 DUP1 REVERT JUMPDEST DUP9 MLOAD RETURNDATASIZE DUP8 DUP3 RETURNDATACOPY RETURNDATASIZE SWAP1 REVERT JUMPDEST DUP5 DUP1 REVERT JUMPDEST SWAP2 SWAP3 SWAP4 SWAP5 SWAP1 PUSH32 0x0 DUP10 MLOAD DUP10 PUSH1 0x20 DUP6 DUP2 DUP5 ADD PUSH2 0x1341 DUP6 PUSH2 0x1333 PUSH4 0x95EA7B3 PUSH1 0xE0 SHL SWAP7 DUP8 DUP6 MSTORE DUP10 PUSH1 0x24 DUP5 ADD PUSH1 0x20 SWAP1 SWAP4 SWAP3 SWAP2 SWAP4 PUSH1 0x40 DUP2 ADD SWAP5 PUSH1 0x1 DUP1 PUSH1 0xA0 SHL SUB AND DUP2 MSTORE ADD MSTORE JUMP JUMPDEST SUB PUSH1 0x1F NOT DUP2 ADD DUP8 MSTORE DUP7 PUSH2 0x19B6 JUMP JUMPDEST DUP5 MLOAD SWAP1 DUP3 DUP13 GAS CALL DUP6 MLOAD RETURNDATASIZE DUP3 PUSH2 0x1439 JUMPI JUMPDEST POP POP ISZERO PUSH2 0x13CF JUMPI JUMPDEST POP POP AND SWAP2 DUP3 EXTCODESIZE ISZERO PUSH2 0x2ED JUMPI DUP9 MLOAD PUSH4 0x398DA911 PUSH1 0xE0 SHL DUP2 MSTORE PUSH1 0x1 PUSH1 0x1 PUSH1 0xA0 SHL SUB SWAP1 SWAP2 AND DUP8 DUP3 ADD SWAP1 DUP2 MSTORE PUSH1 0x20 DUP2 ADD DUP10 SWAP1 MSTORE SWAP1 SWAP3 DUP4 SWAP2 DUP3 SWAP1 DUP5 SWAP1 DUP3 SWAP1 PUSH1 0x40 ADD SUB SWAP3 GAS CALL DUP1 ISZERO PUSH2 0x13C5 JUMPI PUSH2 0x13AE JUMPI JUMPDEST POP SWAP1 DUP7 SWAP3 SWAP2 PUSH2 0x11A5 JUMP JUMPDEST PUSH2 0x13BC SWAP1 SWAP8 SWAP2 SWAP4 SWAP3 SWAP8 PUSH2 0x198C JUMP JUMPDEST SWAP6 SWAP1 SWAP2 CODESIZE PUSH2 0x13A4 JUMP JUMPDEST DUP8 MLOAD RETURNDATASIZE DUP11 DUP3 RETURNDATACOPY RETURNDATASIZE SWAP1 REVERT JUMPDEST SWAP1 SWAP2 SWAP3 SWAP4 POP DUP11 MLOAD SWAP1 PUSH1 0x20 DUP3 ADD MSTORE DUP4 DUP4 AND PUSH1 0x24 DUP3 ADD MSTORE DUP12 PUSH1 0x44 DUP3 ADD MSTORE PUSH1 0x44 DUP2 MSTORE PUSH1 0x80 DUP2 ADD DUP2 DUP2 LT PUSH8 0xFFFFFFFFFFFFFFFF DUP3 GT OR PUSH2 0x1426 JUMPI SWAP2 PUSH2 0x1419 PUSH2 0x141F SWAP3 DUP15 SWAP7 SWAP6 SWAP5 DUP15 MSTORE DUP10 PUSH2 0x1A33 JUMP JUMPDEST DUP8 PUSH2 0x1A33 JUMP JUMPDEST CODESIZE DUP1 PUSH2 0x1359 JUMP JUMPDEST PUSH4 0x4E487B71 PUSH1 0xE0 SHL DUP14 MSTORE PUSH1 0x41 DUP11 MSTORE PUSH1 0x24 DUP14 REVERT JUMPDEST SWAP1 SWAP2 POP PUSH2 0x144D JUMPI POP DUP8 EXTCODESIZE ISZERO ISZERO JUMPDEST CODESIZE DUP1 PUSH2 0x1351 JUMP JUMPDEST PUSH1 0x1 EQ PUSH2 0x1446 JUMP JUMPDEST PUSH4 0x4E487B71 PUSH1 0xE0 SHL DUP6 MSTORE PUSH1 0x11 DUP3 MSTORE PUSH1 0x24 DUP6 REVERT JUMPDEST PUSH4 0x4E487B71 PUSH1 0xE0 SHL DUP8 MSTORE PUSH1 0x11 DUP5 MSTORE PUSH1 0x24 DUP8 REVERT JUMPDEST DUP3 MLOAD PUSH4 0x46C21A55 PUSH1 0xE0 SHL DUP2 MSTORE REVERT JUMPDEST DUP4 DUP4 CALLVALUE PUSH2 0x2ED JUMPI DUP1 PUSH1 0x3 NOT CALLDATASIZE ADD SLT PUSH2 0x2ED JUMPI PUSH2 0x14A3 PUSH2 0x17BC JUMP JUMPDEST SWAP1 CALLER PUSH1 0x1 PUSH1 0x1 PUSH1 0xA0 SHL SUB DUP4 AND SUB PUSH2 0x14C0 JUMPI POP PUSH2 0x370 SWAP2 SWAP3 CALLDATALOAD PUSH2 0x1915 JUMP JUMPDEST MLOAD PUSH4 0x334BD919 PUSH1 0xE1 SHL DUP2 MSTORE DUP4 SWAP1 REVERT JUMPDEST POP POP CALLVALUE PUSH2 0x2ED JUMPI DUP2 PUSH1 0x3 NOT CALLDATASIZE ADD SLT PUSH2 0x2ED JUMPI PUSH1 0x20 SWAP1 MLOAD PUSH32 0x0 DUP2 MSTORE RETURN JUMPDEST POP POP CALLVALUE PUSH2 0x2ED JUMPI DUP2 PUSH1 0x3 NOT CALLDATASIZE ADD SLT PUSH2 0x2ED JUMPI MLOAD PUSH32 0x0 PUSH1 0x1 PUSH1 0x1 PUSH1 0xA0 SHL SUB AND DUP2 MSTORE PUSH1 0x20 SWAP1 RETURN JUMPDEST SWAP2 SWAP1 POP CALLVALUE PUSH2 0x374 JUMPI DUP1 PUSH1 0x3 NOT CALLDATASIZE ADD SLT PUSH2 0x374 JUMPI PUSH2 0x370 SWAP2 CALLDATALOAD PUSH2 0x1573 PUSH1 0x1 PUSH2 0x359 PUSH2 0x17BC JUMP JUMPDEST PUSH2 0x1895 JUMP JUMPDEST SWAP1 POP CALLVALUE PUSH2 0x374 JUMPI PUSH1 0x20 CALLDATASIZE PUSH1 0x3 NOT ADD SLT PUSH2 0x374 JUMPI DUP2 PUSH1 0x20 SWAP4 PUSH1 0x1 SWAP3 CALLDATALOAD DUP2 MSTORE PUSH1 0x2 DUP6 MSTORE KECCAK256 ADD SLOAD SWAP1 MLOAD SWAP1 DUP2 MSTORE RETURN JUMPDEST POP POP CALLVALUE PUSH2 0x2ED JUMPI DUP2 PUSH1 0x3 NOT CALLDATASIZE ADD SLT PUSH2 0x2ED JUMPI PUSH1 0x20 SWAP1 PUSH2 0x15CA PUSH1 0xFF PUSH1 0x7 SLOAD AND SWAP2 MLOAD DUP1 SWAP3 PUSH2 0x17D2 JUMP JUMPDEST RETURN JUMPDEST SWAP2 SWAP1 POP CALLVALUE PUSH2 0x374 JUMPI DUP3 PUSH1 0x3 NOT CALLDATASIZE ADD SLT PUSH2 0x374 JUMPI PUSH1 0x80 SWAP3 POP PUSH1 0x3 SLOAD SWAP2 SLOAD SWAP1 PUSH1 0x5 SLOAD SWAP1 PUSH1 0x6 SLOAD SWAP3 DUP2 MLOAD SWAP5 DUP6 MSTORE PUSH1 0x20 DUP6 ADD MSTORE DUP4 ADD MSTORE PUSH1 0x60 DUP3 ADD MSTORE RETURN JUMPDEST POP POP CALLVALUE PUSH2 0x2ED JUMPI DUP2 PUSH1 0x3 NOT CALLDATASIZE ADD SLT PUSH2 0x2ED JUMPI PUSH1 0x20 SWAP1 MLOAD PUSH32 0x0 DUP2 MSTORE RETURN JUMPDEST POP POP CALLVALUE PUSH2 0x2ED JUMPI PUSH1 0x20 CALLDATASIZE PUSH1 0x3 NOT ADD SLT PUSH2 0x2ED JUMPI PUSH1 0x20 SWAP2 DUP2 SWAP1 PUSH1 0x1 PUSH1 0x1 PUSH1 0xA0 SHL SUB PUSH2 0x1668 PUSH2 0x17A6 JUMP JUMPDEST AND DUP2 MSTORE PUSH1 0xD DUP5 MSTORE KECCAK256 SLOAD SWAP1 MLOAD SWAP1 DUP2 MSTORE RETURN JUMPDEST DUP4 SWAP2 POP CALLVALUE PUSH2 0x2ED JUMPI PUSH2 0x1689 CALLDATASIZE PUSH2 0x1757 JUMP JUMPDEST SWAP2 PUSH2 0x1692 PUSH2 0x17F5 JUMP JUMPDEST PUSH2 0x169A PUSH2 0x1AFF JUMP JUMPDEST PUSH1 0x7 SLOAD SWAP1 PUSH1 0xFF DUP3 AND PUSH1 0x9 DUP2 LT ISZERO PUSH2 0x74A JUMPI PUSH1 0x2 DUP2 EQ ISZERO SWAP1 DUP2 PUSH2 0x16F8 JUMPI JUMPDEST POP PUSH2 0x73C JUMPI POP PUSH32 0x2AC842F90DAB3279148F7E55AC91D911F75C1C300A202A5250E05400B15FA156 SWAP4 SWAP5 PUSH1 0x8 PUSH2 0x736 SWAP3 PUSH1 0xFF NOT AND OR PUSH1 0x7 SSTORE MLOAD SWAP3 DUP4 SWAP3 DUP4 PUSH2 0x1D43 JUMP JUMPDEST PUSH1 0x3 SWAP2 POP EQ ISZERO DUP8 PUSH2 0x16B7 JUMP JUMPDEST DUP5 SWAP2 CALLVALUE PUSH2 0x374 JUMPI PUSH1 0x20 CALLDATASIZE PUSH1 0x3 NOT ADD SLT PUSH2 0x374 JUMPI CALLDATALOAD PUSH4 0xFFFFFFFF PUSH1 0xE0 SHL DUP2 AND DUP1 SWAP2 SUB PUSH2 0x374 JUMPI PUSH1 0x20 SWAP3 POP PUSH4 0x7965DB0B PUSH1 0xE0 SHL DUP2 EQ SWAP1 DUP2 ISZERO PUSH2 0x1746 JUMPI JUMPDEST POP ISZERO ISZERO DUP2 MSTORE RETURN JUMPDEST PUSH4 0x1FFC9A7 PUSH1 0xE0 SHL EQ SWAP1 POP DUP4 PUSH2 0x173F JUMP JUMPDEST SWAP1 PUSH1 0x20 PUSH1 0x3 NOT DUP4 ADD SLT PUSH2 0x17A1 JUMPI PUSH1 0x4 CALLDATALOAD PUSH8 0xFFFFFFFFFFFFFFFF SWAP3 DUP4 DUP3 GT PUSH2 0x17A1 JUMPI DUP1 PUSH1 0x23 DUP4 ADD SLT ISZERO PUSH2 0x17A1 JUMPI DUP2 PUSH1 0x4 ADD CALLDATALOAD SWAP4 DUP5 GT PUSH2 0x17A1 JUMPI PUSH1 0x24 DUP5 DUP4 ADD ADD GT PUSH2 0x17A1 JUMPI PUSH1 0x24 ADD SWAP2 SWAP1 JUMP JUMPDEST PUSH1 0x0 DUP1 REVERT JUMPDEST PUSH1 0x4 CALLDATALOAD SWAP1 PUSH1 0x1 PUSH1 0x1 PUSH1 0xA0 SHL SUB DUP3 AND DUP3 SUB PUSH2 0x17A1 JUMPI JUMP JUMPDEST PUSH1 0x24 CALLDATALOAD SWAP1 PUSH1 0x1 PUSH1 0x1 PUSH1 0xA0 SHL SUB DUP3 AND DUP3 SUB PUSH2 0x17A1 JUMPI JUMP JUMPDEST SWAP1 PUSH1 0x9 DUP3 LT ISZERO PUSH2 0x17DF JUMPI MSTORE JUMP JUMPDEST PUSH4 0x4E487B71 PUSH1 0xE0 SHL PUSH1 0x0 MSTORE PUSH1 0x21 PUSH1 0x4 MSTORE PUSH1 0x24 PUSH1 0x0 REVERT JUMPDEST CALLER PUSH1 0x0 SWAP1 DUP2 MSTORE PUSH32 0xE5EBFA64FCA8D502A8E50C1EDFFD2C31EF4DAD5B396E65D9F397FB028F74ABC5 PUSH1 0x20 MSTORE PUSH1 0x40 SWAP1 KECCAK256 SLOAD PUSH32 0xA49807205CE4D355092EF5A8A18F56E8913CF4A201FBE287825B095693C21775 SWAP1 PUSH1 0xFF AND ISZERO PUSH2 0x1851 JUMPI POP JUMP JUMPDEST PUSH1 0x44 SWAP1 PUSH1 0x40 MLOAD SWAP1 PUSH4 0xE2517D3F PUSH1 0xE0 SHL DUP3 MSTORE CALLER PUSH1 0x4 DUP4 ADD MSTORE PUSH1 0x24 DUP3 ADD MSTORE REVERT JUMPDEST DUP1 PUSH1 0x0 MSTORE PUSH1 0x2 PUSH1 0x20 MSTORE PUSH1 0x40 PUSH1 0x0 KECCAK256 CALLER PUSH1 0x0 MSTORE PUSH1 0x20 MSTORE PUSH1 0xFF PUSH1 0x40 PUSH1 0x0 KECCAK256 SLOAD AND ISZERO PUSH2 0x1851 JUMPI POP JUMP JUMPDEST SWAP1 PUSH1 0x0 SWAP2 DUP1 DUP4 MSTORE PUSH1 0x2 PUSH1 0x20 MSTORE PUSH1 0x40 DUP4 KECCAK256 SWAP2 PUSH1 0x1 DUP1 PUSH1 0xA0 SHL SUB AND SWAP2 DUP3 DUP5 MSTORE PUSH1 0x20 MSTORE PUSH1 0xFF PUSH1 0x40 DUP5 KECCAK256 SLOAD AND ISZERO PUSH1 0x0 EQ PUSH2 0x1910 JUMPI DUP1 DUP4 MSTORE PUSH1 0x2 PUSH1 0x20 MSTORE PUSH1 0x40 DUP4 KECCAK256 DUP3 DUP5 MSTORE PUSH1 0x20 MSTORE PUSH1 0x40 DUP4 KECCAK256 PUSH1 0x1 PUSH1 0xFF NOT DUP3 SLOAD AND OR SWAP1 SSTORE PUSH32 0x2F8788117E7EFF1D82E926EC794901D17C78024A50270940304540A733656F0D CALLER SWAP4 DUP1 LOG4 PUSH1 0x1 SWAP1 JUMP JUMPDEST POP POP SWAP1 JUMP JUMPDEST SWAP1 PUSH1 0x0 SWAP2 DUP1 DUP4 MSTORE PUSH1 0x2 PUSH1 0x20 MSTORE PUSH1 0x40 DUP4 KECCAK256 SWAP2 PUSH1 0x1 DUP1 PUSH1 0xA0 SHL SUB AND SWAP2 DUP3 DUP5 MSTORE PUSH1 0x20 MSTORE PUSH1 0xFF PUSH1 0x40 DUP5 KECCAK256 SLOAD AND PUSH1 0x0 EQ PUSH2 0x1910 JUMPI DUP1 DUP4 MSTORE PUSH1 0x2 PUSH1 0x20 MSTORE PUSH1 0x40 DUP4 KECCAK256 DUP3 DUP5 MSTORE PUSH1 0x20 MSTORE PUSH1 0x40 DUP4 KECCAK256 PUSH1 0xFF NOT DUP2 SLOAD AND SWAP1 SSTORE PUSH32 0xF6391F5C32D9C69D2A47EA670B442974B53935D1EDC7FD64EB21E047A839171B CALLER SWAP4 DUP1 LOG4 PUSH1 0x1 SWAP1 JUMP JUMPDEST PUSH8 0xFFFFFFFFFFFFFFFF DUP2 GT PUSH2 0x19A0 JUMPI PUSH1 0x40 MSTORE JUMP JUMPDEST PUSH4 0x4E487B71 PUSH1 0xE0 SHL PUSH1 0x0 MSTORE PUSH1 0x41 PUSH1 0x4 MSTORE PUSH1 0x24 PUSH1 0x0 REVERT JUMPDEST SWAP1 PUSH1 0x1F DUP1 NOT SWAP2 ADD AND DUP2 ADD SWAP1 DUP2 LT PUSH8 0xFFFFFFFFFFFFFFFF DUP3 GT OR PUSH2 0x19A0 JUMPI PUSH1 0x40 MSTORE JUMP JUMPDEST PUSH1 0x40 MLOAD PUSH4 0x23B872DD PUSH1 0xE0 SHL PUSH1 0x20 DUP3 ADD MSTORE PUSH1 0x1 PUSH1 0x1 PUSH1 0xA0 SHL SUB SWAP3 DUP4 AND PUSH1 0x24 DUP3 ADD MSTORE SWAP3 SWAP1 SWAP2 AND PUSH1 0x44 DUP4 ADD MSTORE PUSH1 0x64 DUP1 DUP4 ADD SWAP4 SWAP1 SWAP4 MSTORE SWAP2 DUP2 MSTORE PUSH1 0xA0 DUP2 ADD SWAP2 DUP2 DUP4 LT PUSH8 0xFFFFFFFFFFFFFFFF DUP5 GT OR PUSH2 0x19A0 JUMPI PUSH2 0x1A31 SWAP3 PUSH1 0x40 MSTORE PUSH2 0x1A33 JUMP JUMPDEST JUMP JUMPDEST SWAP1 PUSH1 0x0 PUSH1 0x20 SWAP2 DUP3 DUP2 MLOAD SWAP2 ADD DUP3 DUP6 GAS CALL ISZERO PUSH2 0x1A8F JUMPI PUSH1 0x0 MLOAD RETURNDATASIZE PUSH2 0x1A86 JUMPI POP PUSH1 0x1 PUSH1 0x1 PUSH1 0xA0 SHL SUB DUP2 AND EXTCODESIZE ISZERO JUMPDEST PUSH2 0x1A64 JUMPI POP JUMP JUMPDEST PUSH1 0x40 MLOAD PUSH4 0x5274AFE7 PUSH1 0xE0 SHL DUP2 MSTORE PUSH1 0x1 PUSH1 0x1 PUSH1 0xA0 SHL SUB SWAP1 SWAP2 AND PUSH1 0x4 DUP3 ADD MSTORE PUSH1 0x24 SWAP1 REVERT JUMPDEST PUSH1 0x1 EQ ISZERO PUSH2 0x1A5D JUMP JUMPDEST PUSH1 0x40 MLOAD RETURNDATASIZE PUSH1 0x0 DUP3 RETURNDATACOPY RETURNDATASIZE SWAP1 REVERT JUMPDEST SWAP2 SWAP1 DUP3 ADD DUP1 SWAP3 GT PUSH2 0x1AA8 JUMPI JUMP JUMPDEST PUSH4 0x4E487B71 PUSH1 0xE0 SHL PUSH1 0x0 MSTORE PUSH1 0x11 PUSH1 0x4 MSTORE PUSH1 0x24 PUSH1 0x0 REVERT JUMPDEST PUSH1 0xFF PUSH1 0x1 SLOAD AND PUSH2 0x1ACA JUMPI JUMP JUMPDEST PUSH1 0x40 MLOAD PUSH4 0xD93C0665 PUSH1 0xE0 SHL DUP2 MSTORE PUSH1 0x4 SWAP1 REVERT JUMPDEST PUSH1 0x2 PUSH1 0x0 SLOAD EQ PUSH2 0x1AED JUMPI PUSH1 0x2 PUSH1 0x0 SSTORE JUMP JUMPDEST PUSH1 0x40 MLOAD PUSH4 0x3EE5AEB5 PUSH1 0xE0 SHL DUP2 MSTORE PUSH1 0x4 SWAP1 REVERT JUMPDEST PUSH1 0x7 SLOAD PUSH1 0xFF DUP2 AND SWAP1 PUSH32 0x0 TIMESTAMP LT ISZERO DUP1 PUSH2 0x1C04 JUMPI JUMPDEST PUSH2 0x1BF4 JUMPI JUMPDEST POP PUSH1 0x7 SLOAD PUSH1 0xFF DUP2 AND PUSH1 0x9 DUP2 LT ISZERO PUSH2 0x17DF JUMPI PUSH1 0x3 EQ DUP1 PUSH2 0x1BCA JUMPI JUMPDEST PUSH2 0x1BBA JUMPI JUMPDEST POP PUSH1 0xFF PUSH1 0x7 SLOAD AND PUSH1 0x9 DUP2 LT ISZERO PUSH2 0x17DF JUMPI PUSH1 0x9 DUP3 LT ISZERO PUSH2 0x17DF JUMPI DUP1 DUP3 SUB PUSH2 0x1B79 JUMPI POP POP JUMP JUMPDEST PUSH32 0xD643A1384921DE4B8AD16DF0A695F1E75FCFE3BCAC27F9C5C8CEE4645872382 SWAP2 PUSH2 0x1BB7 PUSH1 0x40 SWAP3 PUSH2 0x1BAD DUP5 MLOAD DUP1 SWAP5 PUSH2 0x17D2 JUMP JUMPDEST PUSH1 0x20 DUP4 ADD SWAP1 PUSH2 0x17D2 JUMP JUMPDEST LOG1 JUMP JUMPDEST PUSH1 0xFF NOT AND PUSH1 0x4 OR PUSH1 0x7 SSTORE CODESIZE PUSH2 0x1B55 JUMP JUMPDEST POP PUSH32 0x0 TIMESTAMP LT ISZERO PUSH2 0x1B50 JUMP JUMPDEST PUSH1 0xFF NOT AND PUSH1 0x3 OR PUSH1 0x7 SSTORE CODESIZE PUSH2 0x1B36 JUMP JUMPDEST POP PUSH1 0x9 DUP3 LT ISZERO PUSH2 0x17DF JUMPI PUSH1 0x2 DUP3 EQ PUSH2 0x1B31 JUMP JUMPDEST DUP2 DUP2 MUL SWAP3 SWAP2 DUP2 ISZERO SWAP2 DUP5 DIV EQ OR ISZERO PUSH2 0x1AA8 JUMPI JUMP JUMPDEST DUP2 ISZERO PUSH2 0x1C34 JUMPI DIV SWAP1 JUMP JUMPDEST PUSH4 0x4E487B71 PUSH1 0xE0 SHL PUSH1 0x0 MSTORE PUSH1 0x12 PUSH1 0x4 MSTORE PUSH1 0x24 PUSH1 0x0 REVERT JUMPDEST RETURNDATASIZE ISZERO PUSH2 0x1C85 JUMPI RETURNDATASIZE SWAP1 PUSH8 0xFFFFFFFFFFFFFFFF DUP3 GT PUSH2 0x19A0 JUMPI PUSH1 0x40 MLOAD SWAP2 PUSH2 0x1C79 PUSH1 0x1F DUP3 ADD PUSH1 0x1F NOT AND PUSH1 0x20 ADD DUP5 PUSH2 0x19B6 JUMP JUMPDEST DUP3 MSTORE RETURNDATASIZE PUSH1 0x0 PUSH1 0x20 DUP5 ADD RETURNDATACOPY JUMP JUMPDEST PUSH1 0x60 SWAP1 JUMP JUMPDEST PUSH1 0x40 MLOAD PUSH4 0xA9059CBB PUSH1 0xE0 SHL PUSH1 0x20 DUP3 ADD MSTORE PUSH1 0x1 PUSH1 0x1 PUSH1 0xA0 SHL SUB SWAP3 SWAP1 SWAP3 AND PUSH1 0x24 DUP4 ADD MSTORE PUSH1 0x44 DUP1 DUP4 ADD SWAP4 SWAP1 SWAP4 MSTORE SWAP2 DUP2 MSTORE PUSH2 0x1A31 SWAP2 PUSH2 0x1CC6 PUSH1 0x64 DUP4 PUSH2 0x19B6 JUMP JUMPDEST PUSH2 0x1A33 JUMP JUMPDEST PUSH1 0xFF PUSH1 0x7 SLOAD AND PUSH1 0x9 DUP2 LT ISZERO PUSH2 0x17DF JUMPI PUSH1 0x5 SUB PUSH2 0x1D3D JUMPI PUSH1 0x8 SLOAD DUP1 ISZERO PUSH2 0x1D36 JUMPI PUSH2 0x1D33 SWAP2 PUSH1 0x1 DUP1 PUSH1 0xA0 SHL SUB AND PUSH1 0x0 MSTORE PUSH1 0xC PUSH1 0x20 MSTORE PUSH2 0x1D2E PUSH1 0x40 PUSH1 0x0 KECCAK256 SLOAD PUSH32 0x0 SWAP1 PUSH2 0x1C17 JUMP JUMPDEST PUSH2 0x1C2A JUMP JUMPDEST SWAP1 JUMP JUMPDEST POP POP PUSH1 0x0 SWAP1 JUMP JUMPDEST POP PUSH1 0x0 SWAP1 JUMP JUMPDEST SWAP1 SWAP2 DUP1 PUSH1 0x40 SWAP4 PUSH1 0x20 DUP5 MSTORE DUP2 PUSH1 0x20 DUP6 ADD MSTORE DUP5 DUP5 ADD CALLDATACOPY PUSH1 0x0 DUP3 DUP3 ADD DUP5 ADD MSTORE PUSH1 0x1F ADD PUSH1 0x1F NOT AND ADD ADD SWAP1 JUMP INVALID LOG2 PUSH5 0x6970667358 0x22 SLT KECCAK256 MOD 0xFC STATICCALL 0xBB ADDMOD SELFBALANCE MUL PC 0xAB 0xA6 0xBF 0xDD 0xAE 0xDE RETURNDATACOPY 0xB0 EXP DUP16 LT PUSH27 0xCB3768FE45C757078245B44764736F6C634300081400332F878811 PUSH31 0x7EFF1D82E926EC794901D17C78024A50270940304540A733656F0D604060C0 DUP2 MSTORE CALLVALUE PUSH3 0x377 JUMPI PUSH3 0x1004 DUP1 CODESIZE SUB DUP1 PUSH3 0x1E DUP2 PUSH3 0x37C JUMP JUMPDEST SWAP3 DUP4 CODECOPY DUP2 ADD PUSH1 0xC0 DUP3 DUP3 SUB SLT PUSH3 0x377 JUMPI PUSH3 0x39 DUP3 PUSH3 0x3A2 JUMP JUMPDEST SWAP1 PUSH1 0x20 SWAP2 PUSH3 0x4A DUP4 DUP6 ADD PUSH3 0x3A2 JUMP JUMPDEST DUP6 DUP6 ADD MLOAD PUSH1 0x60 DUP1 DUP8 ADD MLOAD SWAP1 SWAP7 PUSH1 0x1 PUSH1 0x1 PUSH1 0x40 SHL SUB SWAP4 SWAP1 SWAP3 SWAP1 SWAP2 DUP5 DUP2 GT PUSH3 0x377 JUMPI DUP7 PUSH3 0x79 SWAP2 DUP6 ADD PUSH3 0x3B7 JUMP JUMPDEST SWAP6 PUSH1 0x80 DUP5 ADD MLOAD SWAP1 DUP6 DUP3 GT PUSH3 0x377 JUMPI PUSH3 0x9C PUSH1 0xA0 SWAP2 PUSH3 0xA4 SWAP4 DUP8 ADD PUSH3 0x3B7 JUMP JUMPDEST SWAP5 ADD PUSH3 0x3A2 JUMP JUMPDEST PUSH1 0x1 DUP1 DUP1 SSTORE SWAP6 SWAP1 SWAP2 SWAP1 PUSH1 0x1 PUSH1 0x1 PUSH1 0xA0 SHL SUB DUP1 DUP3 AND ISZERO PUSH3 0x343 JUMPI DUP5 AND ISZERO PUSH3 0x2FF JUMPI DUP8 MLOAD DUP6 MLOAD SUB PUSH3 0x2C9 JUMPI DUP8 MLOAD ISZERO PUSH3 0x294 JUMPI SWAP3 PUSH3 0xF7 DUP8 SWAP6 SWAP9 SWAP7 SWAP4 PUSH3 0xFE SWAP4 DUP14 SWAP12 SWAP10 SWAP7 PUSH1 0x80 MSTORE PUSH1 0xA0 MSTORE PUSH3 0x434 JUMP JUMPDEST POP PUSH3 0x4B4 JUMP JUMPDEST POP PUSH1 0x0 SWAP6 DUP7 SWAP3 JUMPDEST PUSH3 0x175 JUMPI JUMPDEST POP POP POP POP PUSH32 0x721DDAABE5CC50A5A5FDC5CE1E5636612DA513F19115ED78A77B4E60665F07B4 SWAP5 POP DUP3 PUSH1 0x3 SSTORE MLOAD SWAP1 DUP4 MLOAD SWAP3 DUP4 MSTORE DUP3 ADD MSTORE LOG1 MLOAD PUSH2 0xA8D SWAP1 DUP2 PUSH3 0x557 DUP3 CODECOPY PUSH1 0x80 MLOAD DUP2 DUP2 DUP2 PUSH1 0xE8 ADD MSTORE PUSH2 0x3E9 ADD MSTORE PUSH1 0xA0 MLOAD DUP2 DUP2 DUP2 PUSH2 0x17A ADD MSTORE DUP2 DUP2 PUSH2 0x31A ADD MSTORE PUSH2 0x62A ADD MSTORE RETURN JUMPDEST SWAP2 SWAP4 SWAP6 SWAP1 SWAP3 SWAP5 SWAP7 DUP7 MLOAD DUP6 LT ISZERO PUSH3 0x288 JUMPI POP PUSH3 0x193 DUP5 DUP8 PUSH3 0x41F JUMP JUMPDEST MLOAD PUSH3 0x1A0 DUP6 DUP5 PUSH3 0x41F JUMP JUMPDEST MLOAD DUP11 MLOAD SWAP2 DUP11 DUP4 ADD DUP4 DUP2 LT DUP8 DUP3 GT OR PUSH3 0x272 JUMPI DUP13 MSTORE DUP3 MSTORE DUP9 DUP3 ADD SWAP1 DUP2 MSTORE DUP11 DUP3 ADD SWAP2 PUSH1 0x0 DUP4 MSTORE PUSH1 0x2 SWAP2 DUP3 SLOAD PUSH9 0x10000000000000000 DUP2 LT ISZERO PUSH3 0x272 JUMPI DUP10 DUP2 ADD DUP1 DUP6 SSTORE DUP2 LT ISZERO PUSH3 0x25C JUMPI DUP4 PUSH1 0x0 MSTORE PUSH1 0x3 DUP13 PUSH1 0x0 KECCAK256 SWAP2 MUL ADD SWAP2 MLOAD DUP3 SSTORE MLOAD DUP9 DUP3 ADD SSTORE ADD SWAP1 MLOAD ISZERO ISZERO PUSH1 0xFF DUP1 NOT DUP4 SLOAD AND SWAP2 AND OR SWAP1 SSTORE PUSH3 0x21D DUP5 DUP4 PUSH3 0x41F JUMP JUMPDEST MLOAD DUP2 ADD DUP1 SWAP2 GT PUSH3 0x246 JUMPI SWAP7 PUSH1 0x0 NOT DUP5 EQ PUSH3 0x246 JUMPI DUP5 DUP1 SWAP5 ADD SWAP2 DUP10 SWAP8 SWAP6 SWAP4 SWAP2 SWAP9 SWAP7 SWAP5 PUSH3 0x105 JUMP JUMPDEST PUSH4 0x4E487B71 PUSH1 0xE0 SHL PUSH1 0x0 MSTORE PUSH1 0x11 PUSH1 0x4 MSTORE PUSH1 0x24 PUSH1 0x0 REVERT JUMPDEST PUSH4 0x4E487B71 PUSH1 0xE0 SHL PUSH1 0x0 MSTORE PUSH1 0x32 PUSH1 0x4 MSTORE PUSH1 0x24 PUSH1 0x0 REVERT JUMPDEST PUSH4 0x4E487B71 PUSH1 0xE0 SHL PUSH1 0x0 MSTORE PUSH1 0x41 PUSH1 0x4 MSTORE PUSH1 0x24 PUSH1 0x0 REVERT JUMPDEST SWAP7 SWAP5 DUP2 SWAP7 SWAP5 POP PUSH3 0x10B JUMP JUMPDEST DUP11 MLOAD PUSH3 0x461BCD PUSH1 0xE5 SHL DUP2 MSTORE PUSH1 0x4 DUP2 ADD DUP11 SWAP1 MSTORE PUSH1 0xE PUSH1 0x24 DUP3 ADD MSTORE PUSH14 0x456D707479207363686564756C65 PUSH1 0x90 SHL PUSH1 0x44 DUP3 ADD MSTORE PUSH1 0x64 SWAP1 REVERT JUMPDEST DUP11 MLOAD PUSH3 0x461BCD PUSH1 0xE5 SHL DUP2 MSTORE PUSH1 0x4 DUP2 ADD DUP11 SWAP1 MSTORE PUSH1 0xF PUSH1 0x24 DUP3 ADD MSTORE PUSH15 0x98CADCCEE8D040DAD2E6DAC2E8C6D PUSH1 0x8B SHL PUSH1 0x44 DUP3 ADD MSTORE PUSH1 0x64 SWAP1 REVERT JUMPDEST DUP11 MLOAD PUSH3 0x461BCD PUSH1 0xE5 SHL DUP2 MSTORE PUSH1 0x4 DUP2 ADD DUP11 SWAP1 MSTORE PUSH1 0x13 PUSH1 0x24 DUP3 ADD MSTORE PUSH32 0x496E76616C69642062656E656669636961727900000000000000000000000000 PUSH1 0x44 DUP3 ADD MSTORE PUSH1 0x64 SWAP1 REVERT JUMPDEST DUP12 MLOAD PUSH3 0x461BCD PUSH1 0xE5 SHL DUP2 MSTORE PUSH1 0x4 DUP2 ADD DUP12 SWAP1 MSTORE PUSH1 0xD PUSH1 0x24 DUP3 ADD MSTORE PUSH13 0x24B73B30B634B2103A37B5B2B7 PUSH1 0x99 SHL PUSH1 0x44 DUP3 ADD MSTORE PUSH1 0x64 SWAP1 REVERT JUMPDEST PUSH1 0x0 DUP1 REVERT JUMPDEST PUSH1 0x40 MLOAD SWAP2 SWAP1 PUSH1 0x1F ADD PUSH1 0x1F NOT AND DUP3 ADD PUSH1 0x1 PUSH1 0x1 PUSH1 0x40 SHL SUB DUP2 GT DUP4 DUP3 LT OR PUSH3 0x272 JUMPI PUSH1 0x40 MSTORE JUMP JUMPDEST MLOAD SWAP1 PUSH1 0x1 PUSH1 0x1 PUSH1 0xA0 SHL SUB DUP3 AND DUP3 SUB PUSH3 0x377 JUMPI JUMP JUMPDEST DUP2 PUSH1 0x1F DUP3 ADD SLT ISZERO PUSH3 0x377 JUMPI DUP1 MLOAD SWAP2 PUSH1 0x1 PUSH1 0x1 PUSH1 0x40 SHL SUB DUP4 GT PUSH3 0x272 JUMPI DUP3 PUSH1 0x5 SHL PUSH1 0x20 SWAP3 DUP4 DUP1 PUSH3 0x3EB DUP2 DUP6 ADD PUSH3 0x37C JUMP JUMPDEST DUP1 SWAP8 DUP2 MSTORE ADD SWAP3 DUP3 ADD ADD SWAP3 DUP4 GT PUSH3 0x377 JUMPI DUP4 ADD SWAP1 JUMPDEST DUP3 DUP3 LT PUSH3 0x40F JUMPI POP POP POP POP SWAP1 JUMP JUMPDEST DUP2 MLOAD DUP2 MSTORE SWAP1 DUP4 ADD SWAP1 DUP4 ADD PUSH3 0x400 JUMP JUMPDEST DUP1 MLOAD DUP3 LT ISZERO PUSH3 0x25C JUMPI PUSH1 0x20 SWAP2 PUSH1 0x5 SHL ADD ADD SWAP1 JUMP JUMPDEST PUSH1 0x1 PUSH1 0x1 PUSH1 0xA0 SHL SUB AND PUSH1 0x0 DUP2 DUP2 MSTORE PUSH32 0xAD3228B676F7D3CD4284A5443F17F1962B36E491B30A40B2405849E597BA5FB5 PUSH1 0x20 MSTORE PUSH1 0x40 DUP2 KECCAK256 SLOAD SWAP1 SWAP2 SWAP1 PUSH1 0xFF AND PUSH3 0x4B0 JUMPI DUP2 DUP1 MSTORE DUP2 PUSH1 0x20 MSTORE PUSH1 0x40 DUP3 KECCAK256 DUP2 DUP4 MSTORE PUSH1 0x20 MSTORE PUSH1 0x40 DUP3 KECCAK256 PUSH1 0x1 PUSH1 0xFF NOT DUP3 SLOAD AND OR SWAP1 SSTORE CALLER SWAP2 PUSH1 0x0 DUP1 MLOAD PUSH1 0x20 PUSH3 0xFE4 DUP4 CODECOPY DUP2 MLOAD SWAP2 MSTORE DUP2 DUP1 LOG4 PUSH1 0x1 SWAP1 JUMP JUMPDEST POP SWAP1 JUMP JUMPDEST PUSH1 0x1 PUSH1 0x1 PUSH1 0xA0 SHL SUB AND PUSH1 0x0 DUP2 DUP2 MSTORE PUSH32 0xB9B0AC02325EE7CF4551D296A88408527C705A37FEFD0E298966A9ADA940B4C4 PUSH1 0x20 MSTORE PUSH1 0x40 DUP2 KECCAK256 SLOAD SWAP1 SWAP2 SWAP1 PUSH32 0xC8A41221BCD7FCF2C225F5A9265E1D4D39949D89197159D59E5F4B87B62C419E SWAP1 PUSH1 0xFF AND PUSH3 0x551 JUMPI DUP1 DUP4 MSTORE DUP3 PUSH1 0x20 MSTORE PUSH1 0x40 DUP4 KECCAK256 DUP3 DUP5 MSTORE PUSH1 0x20 MSTORE PUSH1 0x40 DUP4 KECCAK256 PUSH1 0x1 PUSH1 0xFF NOT DUP3 SLOAD AND OR SWAP1 SSTORE PUSH1 0x0 DUP1 MLOAD PUSH1 0x20 PUSH3 0xFE4 DUP4 CODECOPY DUP2 MLOAD SWAP2 MSTORE CALLER SWAP4 DUP1 LOG4 PUSH1 0x1 SWAP1 JUMP JUMPDEST POP POP SWAP1 JUMP INVALID PUSH1 0x80 PUSH1 0x40 DUP2 DUP2 MSTORE PUSH1 0x4 SWAP2 DUP3 CALLDATASIZE LT ISZERO PUSH2 0x16 JUMPI PUSH1 0x0 DUP1 REVERT JUMPDEST PUSH1 0x0 SWAP3 DUP4 CALLDATALOAD PUSH1 0xE0 SHR SWAP2 DUP3 PUSH4 0x1FFC9A7 EQ PUSH2 0x755 JUMPI POP DUP2 PUSH4 0x248A9CA3 EQ PUSH2 0x72B JUMPI DUP2 PUSH4 0x26FADBE2 EQ PUSH2 0x5CC JUMPI DUP2 PUSH4 0x2DB94D19 EQ PUSH2 0x5AD JUMPI DUP2 PUSH4 0x2F2FF15D EQ PUSH2 0x58F JUMPI DUP2 PUSH4 0x36568ABE EQ PUSH2 0x554 JUMPI DUP2 PUSH4 0x4E71D92D EQ PUSH2 0x33D JUMPI DUP2 PUSH4 0x78E97925 EQ PUSH2 0x302 JUMPI DUP2 PUSH4 0x91D14854 EQ PUSH2 0x2C8 JUMPI DUP2 PUSH4 0xA217FDDF EQ PUSH2 0x2AD JUMPI DUP2 PUSH4 0xBDC6D9AB EQ PUSH2 0x25A JUMPI DUP2 PUSH4 0xCED3A403 EQ PUSH2 0x21F JUMPI DUP2 PUSH4 0xD547741F EQ PUSH2 0x1EA JUMPI DUP2 PUSH4 0xD54AD2A1 EQ PUSH2 0x1C8 JUMPI POP DUP1 PUSH4 0xEE28B744 EQ PUSH2 0x11B JUMPI PUSH4 0xFC0C546A EQ PUSH2 0xD5 JUMPI PUSH1 0x0 DUP1 REVERT JUMPDEST CALLVALUE PUSH2 0x117 JUMPI DUP2 PUSH1 0x3 NOT CALLDATASIZE ADD SLT PUSH2 0x117 JUMPI MLOAD PUSH32 0x0 PUSH1 0x1 PUSH1 0x1 PUSH1 0xA0 SHL SUB AND DUP2 MSTORE PUSH1 0x20 SWAP1 RETURN JUMPDEST POP DUP1 REVERT JUMPDEST POP CALLVALUE PUSH2 0x117 JUMPI DUP2 PUSH1 0x3 NOT CALLDATASIZE ADD SLT PUSH2 0x117 JUMPI DUP2 SWAP1 PUSH1 0x2 SWAP3 DUP4 SLOAD SWAP1 JUMPDEST DUP2 DUP2 LT PUSH2 0x146 JUMPI PUSH1 0x20 DUP5 DUP5 MLOAD SWAP1 DUP2 MSTORE RETURN JUMPDEST PUSH1 0xFF DUP6 PUSH2 0x152 DUP4 PUSH2 0x807 JUMP JUMPDEST POP ADD SLOAD AND ISZERO PUSH2 0x16A JUMPI JUMPDEST PUSH2 0x165 SWAP1 PUSH2 0x98F JUMP JUMPDEST PUSH2 0x135 JUMP JUMPDEST PUSH2 0x19E PUSH2 0x176 DUP3 PUSH2 0x807 JUMP JUMPDEST POP SLOAD PUSH32 0x0 PUSH2 0x9B4 JUMP JUMPDEST TIMESTAMP LT PUSH2 0x15C JUMPI SWAP3 PUSH2 0x1C0 PUSH2 0x165 SWAP2 PUSH1 0x1 PUSH2 0x1B7 DUP8 PUSH2 0x807 JUMP JUMPDEST POP ADD SLOAD SWAP1 PUSH2 0x9B4 JUMP JUMPDEST SWAP4 SWAP1 POP PUSH2 0x15C JUMP JUMPDEST SWAP1 POP CALLVALUE PUSH2 0x1E6 JUMPI DUP3 PUSH1 0x3 NOT CALLDATASIZE ADD SLT PUSH2 0x1E6 JUMPI PUSH1 0x20 SWAP3 POP SLOAD SWAP1 MLOAD SWAP1 DUP2 MSTORE RETURN JUMPDEST DUP3 DUP1 REVERT JUMPDEST POP POP CALLVALUE PUSH2 0x117 JUMPI PUSH1 0x1 PUSH2 0x21B SWAP2 PUSH2 0x216 PUSH2 0x203 CALLDATASIZE PUSH2 0x7DC JUMP JUMPDEST SWAP4 SWAP1 SWAP3 DUP4 DUP8 MSTORE DUP7 PUSH1 0x20 MSTORE DUP7 KECCAK256 ADD SLOAD PUSH2 0x858 JUMP JUMPDEST PUSH2 0x91A JUMP JUMPDEST POP DUP1 RETURN JUMPDEST POP POP CALLVALUE PUSH2 0x117 JUMPI DUP2 PUSH1 0x3 NOT CALLDATASIZE ADD SLT PUSH2 0x117 JUMPI PUSH1 0x20 SWAP1 MLOAD PUSH32 0xC8A41221BCD7FCF2C225F5A9265E1D4D39949D89197159D59E5F4B87B62C419E DUP2 MSTORE RETURN JUMPDEST SWAP1 POP CALLVALUE PUSH2 0x1E6 JUMPI PUSH1 0x20 CALLDATASIZE PUSH1 0x3 NOT ADD SLT PUSH2 0x1E6 JUMPI CALLDATALOAD SWAP2 PUSH1 0x2 SLOAD DUP4 LT ISZERO PUSH2 0x2AA JUMPI POP PUSH2 0x285 PUSH1 0x60 SWAP3 PUSH2 0x807 JUMP JUMPDEST POP SWAP1 DUP2 SLOAD SWAP2 PUSH1 0xFF PUSH1 0x2 PUSH1 0x1 DUP4 ADD SLOAD SWAP3 ADD SLOAD AND SWAP1 DUP3 MLOAD SWAP4 DUP5 MSTORE PUSH1 0x20 DUP5 ADD MSTORE ISZERO ISZERO SWAP1 DUP3 ADD MSTORE RETURN JUMPDEST DUP1 REVERT JUMPDEST POP POP CALLVALUE PUSH2 0x117 JUMPI DUP2 PUSH1 0x3 NOT CALLDATASIZE ADD SLT PUSH2 0x117 JUMPI MLOAD SWAP1 DUP2 MSTORE PUSH1 0x20 SWAP1 RETURN JUMPDEST POP POP CALLVALUE PUSH2 0x117 JUMPI PUSH1 0xFF DUP2 PUSH1 0x20 SWAP4 PUSH2 0x2DE CALLDATASIZE PUSH2 0x7DC JUMP JUMPDEST SWAP1 DUP3 MSTORE DUP2 DUP7 MSTORE DUP3 DUP3 KECCAK256 PUSH1 0x1 PUSH1 0x1 PUSH1 0xA0 SHL SUB SWAP1 SWAP2 AND DUP3 MSTORE DUP6 MSTORE KECCAK256 SLOAD SWAP2 MLOAD SWAP2 AND ISZERO ISZERO DUP2 MSTORE RETURN JUMPDEST POP POP CALLVALUE PUSH2 0x117 JUMPI DUP2 PUSH1 0x3 NOT CALLDATASIZE ADD SLT PUSH2 0x117 JUMPI PUSH1 0x20 SWAP1 MLOAD PUSH32 0x0 DUP2 MSTORE RETURN JUMPDEST SWAP2 SWAP1 POP CALLVALUE PUSH2 0x1E6 JUMPI DUP3 PUSH1 0x3 NOT CALLDATASIZE ADD SLT PUSH2 0x1E6 JUMPI PUSH1 0x2 SWAP1 PUSH1 0x1 SWAP3 DUP3 DUP5 SLOAD EQ PUSH2 0x546 JUMPI DUP3 DUP5 SSTORE PUSH32 0xC8A41221BCD7FCF2C225F5A9265E1D4D39949D89197159D59E5F4B87B62C419E DUP1 DUP7 MSTORE DUP6 PUSH1 0x20 MSTORE DUP3 DUP7 KECCAK256 CALLER DUP8 MSTORE PUSH1 0x20 MSTORE PUSH1 0xFF SWAP1 DUP2 DUP5 DUP9 KECCAK256 SLOAD AND ISZERO PUSH2 0x529 JUMPI POP DUP6 SWAP4 DUP1 SLOAD SWAP2 DUP8 JUMPDEST DUP4 DUP2 LT PUSH2 0x4C4 JUMPI POP POP POP POP DUP3 ISZERO PUSH2 0x4B7 JUMPI PUSH2 0x3C4 DUP4 DUP3 SLOAD PUSH2 0x9B4 JUMP JUMPDEST DUP2 SSTORE DUP2 MLOAD PUSH4 0xA9059CBB PUSH1 0xE0 SHL PUSH1 0x20 DUP3 ADD SWAP1 DUP2 MSTORE CALLER PUSH1 0x24 DUP4 ADD MSTORE PUSH1 0x44 DUP1 DUP4 ADD DUP7 SWAP1 MSTORE DUP3 MSTORE PUSH32 0x0 PUSH1 0x1 PUSH1 0x1 PUSH1 0xA0 SHL SUB AND SWAP2 PUSH1 0x80 DUP2 ADD PUSH8 0xFFFFFFFFFFFFFFFF DUP2 GT DUP3 DUP3 LT OR PUSH2 0x4A4 JUMPI DUP6 MSTORE MLOAD PUSH1 0x20 SWAP2 DUP9 SWAP2 SWAP1 DUP3 DUP6 GAS CALL ISZERO PUSH2 0x49A JUMPI DUP6 MLOAD DUP6 SWAP1 RETURNDATASIZE PUSH2 0x493 JUMPI POP POP DUP1 EXTCODESIZE ISZERO JUMPDEST PUSH2 0x47F JUMPI POP POP MLOAD SWAP1 DUP2 MSTORE PUSH32 0x896E034966EAAF1ADC54ACC0F257056FEBBD300C9E47182CF761982CF1F5E430 PUSH1 0x20 CALLER SWAP3 LOG2 DUP1 SSTORE DUP1 RETURN JUMPDEST PUSH1 0x24 SWAP3 MLOAD SWAP2 PUSH4 0x5274AFE7 PUSH1 0xE0 SHL DUP4 MSTORE DUP3 ADD MSTORE REVERT JUMPDEST EQ ISZERO PUSH2 0x44A JUMP JUMPDEST DUP3 MLOAD RETURNDATASIZE DUP8 DUP3 RETURNDATACOPY RETURNDATASIZE SWAP1 REVERT JUMPDEST PUSH4 0x4E487B71 PUSH1 0xE0 SHL DUP10 MSTORE PUSH1 0x41 DUP6 MSTORE PUSH1 0x24 DUP10 REVERT JUMPDEST SWAP1 MLOAD PUSH3 0xF3F861 PUSH1 0xE4 SHL DUP2 MSTORE REVERT JUMPDEST DUP2 DUP4 PUSH2 0x4CF DUP4 PUSH2 0x807 JUMP JUMPDEST POP ADD SLOAD AND ISZERO PUSH2 0x4E7 JUMPI JUMPDEST PUSH2 0x4E2 SWAP1 PUSH2 0x98F JUMP JUMPDEST PUSH2 0x3A8 JUMP JUMPDEST PUSH2 0x4F3 PUSH2 0x176 DUP3 PUSH2 0x807 JUMP JUMPDEST TIMESTAMP LT PUSH2 0x4D9 JUMPI SWAP6 PUSH2 0x521 PUSH2 0x4E2 SWAP2 DUP5 PUSH2 0x50B DUP11 PUSH2 0x807 JUMP JUMPDEST POP ADD DUP1 SLOAD PUSH1 0xFF NOT AND DUP12 OR SWAP1 SSTORE DUP10 PUSH2 0x1B7 DUP11 PUSH2 0x807 JUMP JUMPDEST SWAP7 SWAP1 POP PUSH2 0x4D9 JUMP JUMPDEST SWAP1 POP PUSH1 0x44 SWAP3 MLOAD SWAP2 PUSH4 0xE2517D3F PUSH1 0xE0 SHL DUP4 MSTORE CALLER SWAP1 DUP4 ADD MSTORE PUSH1 0x24 DUP3 ADD MSTORE REVERT JUMPDEST SWAP1 MLOAD PUSH4 0x3EE5AEB5 PUSH1 0xE0 SHL DUP2 MSTORE REVERT JUMPDEST DUP4 DUP4 CALLVALUE PUSH2 0x117 JUMPI PUSH2 0x564 CALLDATASIZE PUSH2 0x7DC JUMP JUMPDEST SWAP2 CALLER PUSH1 0x1 PUSH1 0x1 PUSH1 0xA0 SHL SUB DUP5 AND SUB PUSH2 0x580 JUMPI POP SWAP1 PUSH2 0x21B SWAP2 PUSH2 0x91A JUMP JUMPDEST MLOAD PUSH4 0x334BD919 PUSH1 0xE1 SHL DUP2 MSTORE DUP5 SWAP1 REVERT JUMPDEST POP POP CALLVALUE PUSH2 0x117 JUMPI PUSH1 0x1 PUSH2 0x21B SWAP2 PUSH2 0x5A8 PUSH2 0x203 CALLDATASIZE PUSH2 0x7DC JUMP JUMPDEST PUSH2 0x89C JUMP JUMPDEST POP POP CALLVALUE PUSH2 0x117 JUMPI DUP2 PUSH1 0x3 NOT CALLDATASIZE ADD SLT PUSH2 0x117 JUMPI PUSH1 0x20 SWAP1 PUSH1 0x3 SLOAD SWAP1 MLOAD SWAP1 DUP2 MSTORE RETURN JUMPDEST POP POP CALLVALUE PUSH2 0x117 JUMPI DUP2 PUSH1 0x3 NOT CALLDATASIZE ADD SLT PUSH2 0x117 JUMPI PUSH1 0x2 SWAP2 DUP3 SLOAD SWAP1 PUSH2 0x5ED DUP3 PUSH2 0xA11 JUMP JUMPDEST SWAP3 PUSH2 0x5F7 DUP4 PUSH2 0xA11 JUMP JUMPDEST PUSH2 0x600 DUP5 PUSH2 0x9F9 JUMP JUMPDEST SWAP1 PUSH2 0x60D DUP4 MLOAD SWAP3 DUP4 PUSH2 0x9C1 JUMP JUMPDEST DUP5 DUP3 MSTORE PUSH2 0x619 DUP6 PUSH2 0x9F9 JUMP JUMPDEST PUSH1 0x20 SWAP8 DUP4 DUP10 ADD SWAP7 SWAP2 PUSH1 0x1F NOT ADD CALLDATASIZE DUP9 CALLDATACOPY PUSH32 0x0 DUP7 JUMPDEST DUP4 DUP2 LT PUSH2 0x6B9 JUMPI POP POP POP POP SWAP6 DUP1 SWAP2 PUSH2 0x680 PUSH2 0x673 SWAP9 DUP6 MLOAD SWAP10 DUP11 SWAP10 PUSH1 0x60 DUP12 MSTORE PUSH1 0x60 DUP12 ADD SWAP1 PUSH2 0x7A8 JUMP JUMPDEST SWAP1 DUP10 DUP3 SUB DUP6 DUP12 ADD MSTORE PUSH2 0x7A8 JUMP JUMPDEST SWAP4 DUP8 DUP6 SUB SWAP1 DUP9 ADD MSTORE MLOAD SWAP3 DUP4 DUP2 MSTORE ADD SWAP4 SWAP3 JUMPDEST DUP3 DUP2 LT PUSH2 0x6A0 JUMPI POP POP POP POP SUB SWAP1 RETURN JUMPDEST DUP4 MLOAD ISZERO ISZERO DUP6 MSTORE DUP7 SWAP6 POP SWAP4 DUP2 ADD SWAP4 SWAP3 DUP2 ADD SWAP3 PUSH1 0x1 ADD PUSH2 0x691 JUMP JUMPDEST DUP1 DUP11 PUSH2 0x6E2 DUP3 PUSH2 0x6DC SWAP14 SWAP15 SWAP12 SWAP11 SWAP13 SWAP14 PUSH2 0x6D4 PUSH2 0x720 SWAP7 PUSH2 0x807 JUMP JUMPDEST POP SLOAD DUP8 PUSH2 0x9B4 JUMP JUMPDEST SWAP3 PUSH2 0xA43 JUMP JUMPDEST MSTORE PUSH1 0x1 PUSH2 0x6EE DUP3 PUSH2 0x807 JUMP JUMPDEST POP ADD SLOAD PUSH2 0x6FB DUP3 DUP9 PUSH2 0xA43 JUMP JUMPDEST MSTORE PUSH1 0xFF DUP5 PUSH2 0x708 DUP4 PUSH2 0x807 JUMP JUMPDEST POP ADD SLOAD AND PUSH2 0x716 DUP3 DUP10 PUSH2 0xA43 JUMP JUMPDEST SWAP1 ISZERO ISZERO SWAP1 MSTORE PUSH2 0x98F JUMP JUMPDEST SWAP10 SWAP9 SWAP8 SWAP6 SWAP7 SWAP10 PUSH2 0x64B JUMP JUMPDEST SWAP1 POP CALLVALUE PUSH2 0x1E6 JUMPI PUSH1 0x20 CALLDATASIZE PUSH1 0x3 NOT ADD SLT PUSH2 0x1E6 JUMPI DUP2 PUSH1 0x20 SWAP4 PUSH1 0x1 SWAP3 CALLDATALOAD DUP2 MSTORE DUP1 DUP6 MSTORE KECCAK256 ADD SLOAD SWAP1 MLOAD SWAP1 DUP2 MSTORE RETURN JUMPDEST DUP5 SWAP2 CALLVALUE PUSH2 0x1E6 JUMPI PUSH1 0x20 CALLDATASIZE PUSH1 0x3 NOT ADD SLT PUSH2 0x1E6 JUMPI CALLDATALOAD PUSH4 0xFFFFFFFF PUSH1 0xE0 SHL DUP2 AND DUP1 SWAP2 SUB PUSH2 0x1E6 JUMPI PUSH1 0x20 SWAP3 POP PUSH4 0x7965DB0B PUSH1 0xE0 SHL DUP2 EQ SWAP1 DUP2 ISZERO PUSH2 0x797 JUMPI JUMPDEST POP ISZERO ISZERO DUP2 MSTORE RETURN JUMPDEST PUSH4 0x1FFC9A7 PUSH1 0xE0 SHL EQ SWAP1 POP DUP4 PUSH2 0x790 JUMP JUMPDEST SWAP1 DUP2 MLOAD DUP1 DUP3 MSTORE PUSH1 0x20 DUP1 DUP1 SWAP4 ADD SWAP4 ADD SWAP2 PUSH1 0x0 JUMPDEST DUP3 DUP2 LT PUSH2 0x7C8 JUMPI POP POP POP POP SWAP1 JUMP JUMPDEST DUP4 MLOAD DUP6 MSTORE SWAP4 DUP2 ADD SWAP4 SWAP3 DUP2 ADD SWAP3 PUSH1 0x1 ADD PUSH2 0x7BA JUMP JUMPDEST PUSH1 0x40 SWAP1 PUSH1 0x3 NOT ADD SLT PUSH2 0x802 JUMPI PUSH1 0x4 CALLDATALOAD SWAP1 PUSH1 0x24 CALLDATALOAD PUSH1 0x1 PUSH1 0x1 PUSH1 0xA0 SHL SUB DUP2 AND DUP2 SUB PUSH2 0x802 JUMPI SWAP1 JUMP JUMPDEST PUSH1 0x0 DUP1 REVERT JUMPDEST PUSH1 0x2 SLOAD DUP2 LT ISZERO PUSH2 0x842 JUMPI PUSH1 0x3 SWAP1 PUSH1 0x2 PUSH1 0x0 MSTORE MUL PUSH32 0x405787FA12A823E0F2B7631CC41B3BA8828B3321CA811111FA75CD3AA3BB5ACE ADD SWAP1 PUSH1 0x0 SWAP1 JUMP JUMPDEST PUSH4 0x4E487B71 PUSH1 0xE0 SHL PUSH1 0x0 MSTORE PUSH1 0x32 PUSH1 0x4 MSTORE PUSH1 0x24 PUSH1 0x0 REVERT JUMPDEST DUP1 PUSH1 0x0 MSTORE PUSH1 0x0 PUSH1 0x20 MSTORE PUSH1 0x40 PUSH1 0x0 KECCAK256 CALLER PUSH1 0x0 MSTORE PUSH1 0x20 MSTORE PUSH1 0xFF PUSH1 0x40 PUSH1 0x0 KECCAK256 SLOAD AND ISZERO PUSH2 0x87E JUMPI POP JUMP JUMPDEST PUSH1 0x44 SWAP1 PUSH1 0x40 MLOAD SWAP1 PUSH4 0xE2517D3F PUSH1 0xE0 SHL DUP3 MSTORE CALLER PUSH1 0x4 DUP4 ADD MSTORE PUSH1 0x24 DUP3 ADD MSTORE REVERT JUMPDEST SWAP1 PUSH1 0x0 SWAP2 DUP1 DUP4 MSTORE DUP3 PUSH1 0x20 MSTORE PUSH1 0x40 DUP4 KECCAK256 SWAP2 PUSH1 0x1 DUP1 PUSH1 0xA0 SHL SUB AND SWAP2 DUP3 DUP5 MSTORE PUSH1 0x20 MSTORE PUSH1 0xFF PUSH1 0x40 DUP5 KECCAK256 SLOAD AND ISZERO PUSH1 0x0 EQ PUSH2 0x915 JUMPI DUP1 DUP4 MSTORE DUP3 PUSH1 0x20 MSTORE PUSH1 0x40 DUP4 KECCAK256 DUP3 DUP5 MSTORE PUSH1 0x20 MSTORE PUSH1 0x40 DUP4 KECCAK256 PUSH1 0x1 PUSH1 0xFF NOT DUP3 SLOAD AND OR SWAP1 SSTORE PUSH32 0x2F8788117E7EFF1D82E926EC794901D17C78024A50270940304540A733656F0D CALLER SWAP4 DUP1 LOG4 PUSH1 0x1 SWAP1 JUMP JUMPDEST POP POP SWAP1 JUMP JUMPDEST SWAP1 PUSH1 0x0 SWAP2 DUP1 DUP4 MSTORE DUP3 PUSH1 0x20 MSTORE PUSH1 0x40 DUP4 KECCAK256 SWAP2 PUSH1 0x1 DUP1 PUSH1 0xA0 SHL SUB AND SWAP2 DUP3 DUP5 MSTORE PUSH1 0x20 MSTORE PUSH1 0xFF PUSH1 0x40 DUP5 KECCAK256 SLOAD AND PUSH1 0x0 EQ PUSH2 0x915 JUMPI DUP1 DUP4 MSTORE DUP3 PUSH1 0x20 MSTORE PUSH1 0x40 DUP4 KECCAK256 DUP3 DUP5 MSTORE PUSH1 0x20 MSTORE PUSH1 0x40 DUP4 KECCAK256 PUSH1 0xFF NOT DUP2 SLOAD AND SWAP1 SSTORE PUSH32 0xF6391F5C32D9C69D2A47EA670B442974B53935D1EDC7FD64EB21E047A839171B CALLER SWAP4 DUP1 LOG4 PUSH1 0x1 SWAP1 JUMP JUMPDEST PUSH1 0x0 NOT DUP2 EQ PUSH2 0x99E JUMPI PUSH1 0x1 ADD SWAP1 JUMP JUMPDEST PUSH4 0x4E487B71 PUSH1 0xE0 SHL PUSH1 0x0 MSTORE PUSH1 0x11 PUSH1 0x4 MSTORE PUSH1 0x24 PUSH1 0x0 REVERT JUMPDEST SWAP2 SWAP1 DUP3 ADD DUP1 SWAP3 GT PUSH2 0x99E JUMPI JUMP JUMPDEST SWAP1 PUSH1 0x1F DUP1 NOT SWAP2 ADD AND DUP2 ADD SWAP1 DUP2 LT PUSH8 0xFFFFFFFFFFFFFFFF DUP3 GT OR PUSH2 0x9E3 JUMPI PUSH1 0x40 MSTORE JUMP JUMPDEST PUSH4 0x4E487B71 PUSH1 0xE0 SHL PUSH1 0x0 MSTORE PUSH1 0x41 PUSH1 0x4 MSTORE PUSH1 0x24 PUSH1 0x0 REVERT JUMPDEST PUSH8 0xFFFFFFFFFFFFFFFF DUP2 GT PUSH2 0x9E3 JUMPI PUSH1 0x5 SHL PUSH1 0x20 ADD SWAP1 JUMP JUMPDEST SWAP1 PUSH2 0xA1B DUP3 PUSH2 0x9F9 JUMP JUMPDEST PUSH2 0xA28 PUSH1 0x40 MLOAD SWAP2 DUP3 PUSH2 0x9C1 JUMP JUMPDEST DUP3 DUP2 MSTORE DUP1 SWAP3 PUSH2 0xA39 PUSH1 0x1F NOT SWAP2 PUSH2 0x9F9 JUMP JUMPDEST ADD SWAP1 PUSH1 0x20 CALLDATASIZE SWAP2 ADD CALLDATACOPY JUMP JUMPDEST DUP1 MLOAD DUP3 LT ISZERO PUSH2 0x842 JUMPI PUSH1 0x20 SWAP2 PUSH1 0x5 SHL ADD ADD SWAP1 JUMP INVALID LOG2 PUSH5 0x6970667358 0x22 SLT KECCAK256 0xAB 0xD 0xBA 0xD7 BALANCE 0x4E PUSH20 0xD77BF03DF8EDAC5C8D9B05024F87D1F2E40E2234 0xAA SWAP10 PUSH1 0x61 DIV PUSH5 0x736F6C6343 STOP ADDMOD EQ STOP CALLER 0x2F DUP8 DUP9 GT PUSH31 0x7EFF1D82E926EC794901D17C78024A50270940304540A733656F0DA2646970 PUSH7 0x7358221220547A SLOAD 0xDE CALLDATALOAD 0xB0 0xE0 0x4E 0xFB 0x28 PUSH4 0x716511E2 DIV PUSH14 0xC77C5C94A2721C884AB6E78C39D1 PUSH22 0x64736F6C634300081400332F8788117E7EFF1D82E926 0xEC PUSH26 0x4901D17C78024A50270940304540A733656F0D00000000000000 "},"methodIdentifiers":{"DEFAULT_ADMIN_ROLE()":"a217fddf","FACTORY_ADMIN_ROLE()":"3360cf5e","createFairlaunch((address,address,uint256,uint256,uint256,uint256,uint256,uint256,uint256,address),(uint256,bytes32,uint256),(uint256[],uint256[]),bytes32)":"fb6e1db7","creationFee()":"dce0b4e4","fairlaunchCount()":"9e1f288e","fairlaunchToComplianceHash(address)":"718bcaee","fairlaunchToLPPlan(address)":"a186d14f","fairlaunchToVesting(address)":"e0fe61fe","fairlaunches(uint256)":"e249cbec","feeSplitter()":"6052970c","getFairlaunchDetails(uint256)":"5148695f","getLPPlan(address)":"182f630f","getRoleAdmin(bytes32)":"248a9ca3","grantRole(bytes32,address)":"2f2ff15d","hasRole(bytes32,address)":"91d14854","renounceRole(bytes32,address)":"36568abe","revokeRole(bytes32,address)":"d547741f","supportsInterface(bytes4)":"01ffc9a7","timelockExecutor()":"f6a4ad65","treasuryWallet()":"4626402b","updateCreationFee(uint256)":"6fa23795","updateTreasuryWallet(address)":"809d458d"}}}}}