{"contracts/fairlaunch/Fairlaunch.sol":{"Fairlaunch":{"abi":[{"inputs":[{"internalType":"address","name":"_saleToken","type":"address"},{"internalType":"address","name":"_paymentToken","type":"address"},{"internalType":"uint256","name":"_tokenForSale","type":"uint256"},{"internalType":"uint256","name":"_softCap","type":"uint256"},{"internalType":"uint256","name":"_minContribution","type":"uint256"},{"internalType":"uint256","name":"_maxContribution","type":"uint256"},{"internalType":"uint256","name":"_startTime","type":"uint256"},{"internalType":"uint256","name":"_endTime","type":"uint256"},{"internalType":"uint256","name":"_listingPremiumBps","type":"uint256"},{"internalType":"address","name":"_feeSplitter","type":"address"},{"internalType":"address","name":"_projectOwner","type":"address"},{"internalType":"address","name":"_admin","type":"address"}],"stateMutability":"nonpayable","type":"constructor"},{"inputs":[],"name":"AccessControlBadConfirmation","type":"error"},{"inputs":[{"internalType":"address","name":"account","type":"address"},{"internalType":"bytes32","name":"neededRole","type":"bytes32"}],"name":"AccessControlUnauthorizedAccount","type":"error"},{"inputs":[],"name":"BelowMinimum","type":"error"},{"inputs":[],"name":"ConfigLocked","type":"error"},{"inputs":[],"name":"ContributionLimitExceeded","type":"error"},{"inputs":[],"name":"EnforcedPause","type":"error"},{"inputs":[],"name":"ExpectedPause","type":"error"},{"inputs":[],"name":"InsufficientTokenBalance","type":"error"},{"inputs":[],"name":"InvalidAddress","type":"error"},{"inputs":[],"name":"InvalidFeeConfig","type":"error"},{"inputs":[],"name":"InvalidStatus","type":"error"},{"inputs":[],"name":"NoContribution","type":"error"},{"inputs":[],"name":"ReentrancyGuardReentrantCall","type":"error"},{"inputs":[],"name":"RefundNotAvailable","type":"error"},{"inputs":[{"internalType":"address","name":"token","type":"address"}],"name":"SafeERC20FailedOperation","type":"error"},{"inputs":[],"name":"SoftCapNotMet","type":"error"},{"inputs":[],"name":"TokensAlreadyDeposited","type":"error"},{"anonymous":false,"inputs":[{"indexed":false,"internalType":"string","name":"reason","type":"string"}],"name":"Cancelled","type":"event"},{"anonymous":false,"inputs":[{"indexed":true,"internalType":"address","name":"contributor","type":"address"},{"indexed":false,"internalType":"uint256","name":"amount","type":"uint256"},{"indexed":true,"internalType":"address","name":"referrer","type":"address"}],"name":"Contributed","type":"event"},{"anonymous":false,"inputs":[{"indexed":false,"internalType":"string","name":"reason","type":"string"}],"name":"FinalizedFail","type":"event"},{"anonymous":false,"inputs":[{"indexed":false,"internalType":"uint256","name":"totalRaised","type":"uint256"},{"indexed":false,"internalType":"uint256","name":"finalPrice","type":"uint256"},{"indexed":false,"internalType":"uint256","name":"listingPrice","type":"uint256"},{"indexed":false,"internalType":"uint256","name":"feeAmount","type":"uint256"},{"indexed":false,"internalType":"uint256","name":"tgeTimestamp","type":"uint256"}],"name":"FinalizedSuccess","type":"event"},{"anonymous":false,"inputs":[{"indexed":false,"internalType":"address","name":"account","type":"address"}],"name":"Paused","type":"event"},{"anonymous":false,"inputs":[{"indexed":true,"internalType":"address","name":"contributor","type":"address"},{"indexed":false,"internalType":"uint256","name":"amount","type":"uint256"}],"name":"Refunded","type":"event"},{"anonymous":false,"inputs":[{"indexed":true,"internalType":"bytes32","name":"role","type":"bytes32"},{"indexed":true,"internalType":"bytes32","name":"previousAdminRole","type":"bytes32"},{"indexed":true,"internalType":"bytes32","name":"newAdminRole","type":"bytes32"}],"name":"RoleAdminChanged","type":"event"},{"anonymous":false,"inputs":[{"indexed":true,"internalType":"bytes32","name":"role","type":"bytes32"},{"indexed":true,"internalType":"address","name":"account","type":"address"},{"indexed":true,"internalType":"address","name":"sender","type":"address"}],"name":"RoleGranted","type":"event"},{"anonymous":false,"inputs":[{"indexed":true,"internalType":"bytes32","name":"role","type":"bytes32"},{"indexed":true,"internalType":"address","name":"account","type":"address"},{"indexed":true,"internalType":"address","name":"sender","type":"address"}],"name":"RoleRevoked","type":"event"},{"anonymous":false,"inputs":[{"indexed":false,"internalType":"enum Fairlaunch.Status","name":"oldStatus","type":"uint8"},{"indexed":false,"internalType":"enum Fairlaunch.Status","name":"newStatus","type":"uint8"}],"name":"StatusSynced","type":"event"},{"anonymous":false,"inputs":[{"indexed":true,"internalType":"address","name":"contributor","type":"address"},{"indexed":false,"internalType":"uint256","name":"amount","type":"uint256"}],"name":"TokensClaimed","type":"event"},{"anonymous":false,"inputs":[{"indexed":false,"internalType":"uint256","name":"amount","type":"uint256"}],"name":"TokensDeposited","type":"event"},{"anonymous":false,"inputs":[{"indexed":false,"internalType":"address","name":"account","type":"address"}],"name":"Unpaused","type":"event"},{"inputs":[],"name":"ADMIN_ROLE","outputs":[{"internalType":"bytes32","name":"","type":"bytes32"}],"stateMutability":"view","type":"function"},{"inputs":[],"name":"DEFAULT_ADMIN_ROLE","outputs":[{"internalType":"bytes32","name":"","type":"bytes32"}],"stateMutability":"view","type":"function"},{"inputs":[{"internalType":"string","name":"reason","type":"string"}],"name":"cancel","outputs":[],"stateMutability":"nonpayable","type":"function"},{"inputs":[],"name":"claimRefund","outputs":[],"stateMutability":"nonpayable","type":"function"},{"inputs":[],"name":"claimTokens","outputs":[],"stateMutability":"nonpayable","type":"function"},{"inputs":[{"internalType":"uint256","name":"amount","type":"uint256"},{"internalType":"address","name":"referrer","type":"address"}],"name":"contribute","outputs":[],"stateMutability":"payable","type":"function"},{"inputs":[{"internalType":"address","name":"","type":"address"}],"name":"contributions","outputs":[{"internalType":"uint256","name":"","type":"uint256"}],"stateMutability":"view","type":"function"},{"inputs":[],"name":"depositTokens","outputs":[],"stateMutability":"nonpayable","type":"function"},{"inputs":[],"name":"endTime","outputs":[{"internalType":"uint256","name":"","type":"uint256"}],"stateMutability":"view","type":"function"},{"inputs":[],"name":"feeConfig","outputs":[{"internalType":"uint256","name":"totalBps","type":"uint256"},{"internalType":"uint256","name":"treasuryBps","type":"uint256"},{"internalType":"uint256","name":"referralPoolBps","type":"uint256"},{"internalType":"uint256","name":"sbtStakingBps","type":"uint256"}],"stateMutability":"view","type":"function"},{"inputs":[],"name":"feeSplitter","outputs":[{"internalType":"address","name":"","type":"address"}],"stateMutability":"view","type":"function"},{"inputs":[],"name":"finalPrice","outputs":[{"internalType":"uint256","name":"","type":"uint256"}],"stateMutability":"view","type":"function"},{"inputs":[{"internalType":"string","name":"reason","type":"string"}],"name":"finalizeFail","outputs":[],"stateMutability":"nonpayable","type":"function"},{"inputs":[],"name":"finalizeSuccess","outputs":[],"stateMutability":"nonpayable","type":"function"},{"inputs":[{"internalType":"address","name":"contributor","type":"address"}],"name":"getContributionInfo","outputs":[{"internalType":"uint256","name":"contribution","type":"uint256"},{"internalType":"uint256","name":"allocation","type":"uint256"},{"internalType":"address","name":"referrer","type":"address"},{"internalType":"bool","name":"claimed","type":"bool"}],"stateMutability":"view","type":"function"},{"inputs":[],"name":"getFairlaunchInfo","outputs":[{"internalType":"enum Fairlaunch.Status","name":"_status","type":"uint8"},{"internalType":"uint256","name":"_totalRaised","type":"uint256"},{"internalType":"uint256","name":"_softCap","type":"uint256"},{"internalType":"uint256","name":"_tokenForSale","type":"uint256"},{"internalType":"uint256","name":"_finalPrice","type":"uint256"},{"internalType":"uint256","name":"_listingPrice","type":"uint256"},{"internalType":"uint256","name":"_startTime","type":"uint256"},{"internalType":"uint256","name":"_endTime","type":"uint256"},{"internalType":"uint256","name":"_tgeTimestamp","type":"uint256"}],"stateMutability":"view","type":"function"},{"inputs":[{"internalType":"bytes32","name":"role","type":"bytes32"}],"name":"getRoleAdmin","outputs":[{"internalType":"bytes32","name":"","type":"bytes32"}],"stateMutability":"view","type":"function"},{"inputs":[{"internalType":"address","name":"user","type":"address"}],"name":"getUserAllocation","outputs":[{"internalType":"uint256","name":"","type":"uint256"}],"stateMutability":"view","type":"function"},{"inputs":[{"internalType":"bytes32","name":"role","type":"bytes32"},{"internalType":"address","name":"account","type":"address"}],"name":"grantRole","outputs":[],"stateMutability":"nonpayable","type":"function"},{"inputs":[{"internalType":"address","name":"","type":"address"}],"name":"hasClaimed","outputs":[{"internalType":"bool","name":"","type":"bool"}],"stateMutability":"view","type":"function"},{"inputs":[{"internalType":"bytes32","name":"role","type":"bytes32"},{"internalType":"address","name":"account","type":"address"}],"name":"hasRole","outputs":[{"internalType":"bool","name":"","type":"bool"}],"stateMutability":"view","type":"function"},{"inputs":[],"name":"listingPremiumBps","outputs":[{"internalType":"uint256","name":"","type":"uint256"}],"stateMutability":"view","type":"function"},{"inputs":[],"name":"listingPrice","outputs":[{"internalType":"uint256","name":"","type":"uint256"}],"stateMutability":"view","type":"function"},{"inputs":[],"name":"maxContribution","outputs":[{"internalType":"uint256","name":"","type":"uint256"}],"stateMutability":"view","type":"function"},{"inputs":[],"name":"minContribution","outputs":[{"internalType":"uint256","name":"","type":"uint256"}],"stateMutability":"view","type":"function"},{"inputs":[],"name":"pause","outputs":[],"stateMutability":"nonpayable","type":"function"},{"inputs":[],"name":"paused","outputs":[{"internalType":"bool","name":"","type":"bool"}],"stateMutability":"view","type":"function"},{"inputs":[],"name":"paymentToken","outputs":[{"internalType":"address","name":"","type":"address"}],"stateMutability":"view","type":"function"},{"inputs":[],"name":"projectOwner","outputs":[{"internalType":"address","name":"","type":"address"}],"stateMutability":"view","type":"function"},{"inputs":[{"internalType":"address","name":"","type":"address"}],"name":"referrers","outputs":[{"internalType":"address","name":"","type":"address"}],"stateMutability":"view","type":"function"},{"inputs":[{"internalType":"bytes32","name":"role","type":"bytes32"},{"internalType":"address","name":"callerConfirmation","type":"address"}],"name":"renounceRole","outputs":[],"stateMutability":"nonpayable","type":"function"},{"inputs":[],"name":"returnUnsoldTokens","outputs":[],"stateMutability":"nonpayable","type":"function"},{"inputs":[{"internalType":"bytes32","name":"role","type":"bytes32"},{"internalType":"address","name":"account","type":"address"}],"name":"revokeRole","outputs":[],"stateMutability":"nonpayable","type":"function"},{"inputs":[],"name":"saleToken","outputs":[{"internalType":"address","name":"","type":"address"}],"stateMutability":"view","type":"function"},{"inputs":[{"components":[{"internalType":"uint256","name":"totalBps","type":"uint256"},{"internalType":"uint256","name":"treasuryBps","type":"uint256"},{"internalType":"uint256","name":"referralPoolBps","type":"uint256"},{"internalType":"uint256","name":"sbtStakingBps","type":"uint256"}],"internalType":"struct Fairlaunch.FeeConfig","name":"newConfig","type":"tuple"}],"name":"setFeeConfig","outputs":[],"stateMutability":"nonpayable","type":"function"},{"inputs":[],"name":"softCap","outputs":[{"internalType":"uint256","name":"","type":"uint256"}],"stateMutability":"view","type":"function"},{"inputs":[],"name":"startTime","outputs":[{"internalType":"uint256","name":"","type":"uint256"}],"stateMutability":"view","type":"function"},{"inputs":[],"name":"status","outputs":[{"internalType":"enum Fairlaunch.Status","name":"","type":"uint8"}],"stateMutability":"view","type":"function"},{"inputs":[{"internalType":"bytes4","name":"interfaceId","type":"bytes4"}],"name":"supportsInterface","outputs":[{"internalType":"bool","name":"","type":"bool"}],"stateMutability":"view","type":"function"},{"inputs":[],"name":"tgeTimestamp","outputs":[{"internalType":"uint256","name":"","type":"uint256"}],"stateMutability":"view","type":"function"},{"inputs":[{"internalType":"address","name":"","type":"address"}],"name":"tokenAllocations","outputs":[{"internalType":"uint256","name":"","type":"uint256"}],"stateMutability":"view","type":"function"},{"inputs":[],"name":"tokenForSale","outputs":[{"internalType":"uint256","name":"","type":"uint256"}],"stateMutability":"view","type":"function"},{"inputs":[],"name":"totalRaised","outputs":[{"internalType":"uint256","name":"","type":"uint256"}],"stateMutability":"view","type":"function"},{"inputs":[],"name":"unpause","outputs":[],"stateMutability":"nonpayable","type":"function"}],"evm":{"bytecode":{"linkReferences":{},"object":"6101e034620002ff57601f620021ff38819003918201601f19168301916001600160401b03831184841017620002c55780849261018094604052833981010312620002ff576200004f8162000304565b906200005e6020820162000304565b916040820151926060830151608084015160a085015160c08601519060e08701519261010088015194620000966101208a0162000304565b99620000b5610160620000ad6101408d0162000304565b9b0162000304565b97600160005585871115620002db576001600160a01b038c1615620002ed576001600160a01b038b1615620002ed576001600160a01b038a1615620002ed578115620002db578215620002db576200014f9960805260a05260c05260e05261010052610120526101405261016052610180526101a09384526101c092835260ff1960075416600755620001488162000319565b506200039a565b50604051608081016001600160401b03811182821017620002c557604052603260606101f49283815260fa602082015260c86040820152015260035560fa60045560c8600555603260065560405190611da192836200043e8439608051838181610305015281816107cd01528181610aa50152610ed9015260a0518381816104b301528181610c6b01528181611128015261151f015260c05183818161026b01528181610a7d01528181610ff10152818161109d0152611d09015260e051838181610246015281816106d501528181610978015261105901526101005183818161059b0152610c090152610120518381816109b30152610c3001526101405183818161029b0152818161060001528181610b0d0152611b090152610160518381816102c1015281816114e70152611bcd0152610180518381816110cc015261161d015251828181610dcb0152818161115701526112d901525181818161081e015281816108b1015281816111b101526112820152f35b634e487b7160e01b600052604160045260246000fd5b6040516307a92f1960e51b8152600490fd5b60405163e6c4247b60e01b8152600490fd5b600080fd5b51906001600160a01b0382168203620002ff57565b6001600160a01b031660008181527fac33ff75c19e70fe83507db0d683fd3465c996598dc972688b7ace676c89077b602052604081205490919060ff16620003965781805260026020526040822081835260205260408220600160ff198254161790553391600080516020620021df8339815191528180a4600190565b5090565b6001600160a01b031660008181527fe5ebfa64fca8d502a8e50c1edffd2c31ef4dad5b396e65d9f397fb028f74abc560205260408120549091907fa49807205ce4d355092ef5a8a18f56e8913cf4a201fbe287825b095693c217759060ff16620004385780835260026020526040832082845260205260408320600160ff19825416179055600080516020620021df833981519152339380a4600190565b50509056fe608060408181526004918236101561001657600080fd5b600092833560e01c91826301ffc9a714611704575081630b4f3f3d146116785781630b6d621c146116405781630b7c1ae1146116055781631e5eb1d0146115cc578163200d2ed2146115a3578163248a9ca3146115785781632f2ff15d1461154e5781633013ce291461150a5781633197cbb6146114cf57816336568abe146114895781633871bda5146110145781633970f69814610fd95781633f4ba83a14610f6f57816342e94c9014610f3757816348c54b9d14610e595781634a3b68cc14610e1e5781635c975abb14610dfa5781636052970c14610db657816360b0b0f014610ba957816373b2e80e14610b6b57816375b238fc14610b3057816378e9792514610af55781637c4b414d14610a305781638456cb59146109d65781638d3d65761461099b578163906a26e01461096057816391d148541461091a578163a217fddf146108ff578163a4317ef4146108e0578163a4475ce41461089c578163a4a1383f1461077c578163a6b513ee1461075d578163a87f966f14610697578163a9eddf99146105be578163aaffadf314610583578163b5545a3c14610454578163b920ade214610427578163c5c4744c14610408578163c78f19f9146103e9578163cd78d92c14610378578163d547741f1461033457508063e985e367146102f15763f65f314b1461020957600080fd5b346102ed57816003193601126102ed576101209060ff600754169060085490600954600a5491600b549361023f825180976117d2565b60208601527f0000000000000000000000000000000000000000000000000000000000000000908501527f00000000000000000000000000000000000000000000000000000000000000006060850152608084015260a08301527f000000000000000000000000000000000000000000000000000000000000000060c08301527f000000000000000000000000000000000000000000000000000000000000000060e0830152610100820152f35b5080fd5b50346102ed57816003193601126102ed57517f00000000000000000000000000000000000000000000000000000000000000006001600160a01b03168152602090f35b91905034610374578060031936011261037457610370913561036b60016103596117bc565b9383875260026020528620015461186f565b611915565b5080f35b8280fd5b5050346102ed5760203660031901126102ed57906080916103976117a6565b9160018060a01b039160ff8184861694858552600c6020526103bc8286205497611ccb565b958552600f602052818520541693600e602052205416928151948552602085015283015215156060820152f35b5050346102ed57816003193601126102ed57602090600a549051908152f35b5050346102ed57816003193601126102ed576020906008549051908152f35b5050346102ed5760203660031901126102ed5760209061044d6104486117a6565b611ccb565b9051908152f35b9190503461037457826003193601126103745761046f611adc565b60ff6007541660098110156105705760068114159081610564575b5061055757338352600c6020528083205491821561054957338452600c602052818420849055827f00000000000000000000000000000000000000000000000000000000000000006001600160a01b03168061053857508480808093335af16104f1611c4a565b501561052a57505b519081527fd7dee2702d63ad89917b6a4da9981c90c4d24f8c2bdfd64c604ecae57d8d065160203392a26001815580f35b90516307a92f1960e51b8152fd5b61054492503390611c8a565b6104f9565b9051631971fbf360e21b8152fd5b51630b4d698160e01b8152fd5b6008915014153861048a565b634e487b7160e01b845260218352602484fd5b5050346102ed57816003193601126102ed57602090517f00000000000000000000000000000000000000000000000000000000000000008152f35b905034610374576080366003190112610374576105d96117f5565b60ff600754166009811015610684578015159081610678575b5061066b5760085461066b577f000000000000000000000000000000000000000000000000000000000000000042101561066b576044359060243590803561063a8484611a9b565b946106486064358097611a9b565b820361065c57506003555560055560065580f35b51632b00a33d60e11b81529050fd5b905162b5d7e160e81b8152fd5b600291501415386105f2565b634e487b7160e01b845260218252602484fd5b839150346102ed576106a836611757565b916106b16117f5565b6106b9611aff565b6007549060ff8216600981101561074a57810361073c576008547f0000000000000000000000000000000000000000000000000000000000000000111561073c57507f3d83bfe8797f11e26cefdb415ba6850e58a00ccd2f3d29e924104f10b7f184ee939460066107369260ff1916176007555192839283611d43565b0390a180f35b85516307a92f1960e51b8152fd5b634e487b7160e01b865260218252602486fd5b5050346102ed57816003193601126102ed576020906009549051908152f35b919050346103745782600319360112610374576107976117f5565b60ff6007541660098110156105705760068114159081610890575b506108835780516370a0823160e01b815230928101929092527f00000000000000000000000000000000000000000000000000000000000000006001600160a01b031691602081602481865afa91821561087a57508391610849575b5080610818578280f35b610843917f000000000000000000000000000000000000000000000000000000000000000090611c8a565b38808280f35b90506020813d8211610872575b81610863602093836119b6565b8101031261037457513861080e565b3d9150610856565b513d85823e3d90fd5b516307a92f1960e51b8152fd5b600891501415386107b2565b5050346102ed57816003193601126102ed57517f00000000000000000000000000000000000000000000000000000000000000006001600160a01b03168152602090f35b5050346102ed57816003193601126102ed57602090600b549051908152f35b5050346102ed57816003193601126102ed5751908152602090f35b905034610374578160031936011261037457816020936109386117bc565b9235815260028552209060018060a01b0316600052825260ff81600020541690519015158152f35b5050346102ed57816003193601126102ed57602090517f00000000000000000000000000000000000000000000000000000000000000008152f35b5050346102ed57816003193601126102ed57602090517f00000000000000000000000000000000000000000000000000000000000000008152f35b5050346102ed57816003193601126102ed5760207f62e78cea01bee320cd4e420270b5ea74000d11b0c9f74754ebdbfc544b05a25891610a146117f5565b610a1c611abe565b600160ff198154161760015551338152a180f35b90503461037457826003193601126103745760ff60075416600981101561068457610ae757507f77acf75e237f9aae98f997395832d522bdb695e4a9bd07704936aa889a3667d1906020907f000000000000000000000000000000000000000000000000000000000000000090610ad28230337f00000000000000000000000000000000000000000000000000000000000000006001600160a01b03166119d8565b600260ff19600754161760075551908152a180f35b9051630fd0af2360e31b8152fd5b5050346102ed57816003193601126102ed57602090517f00000000000000000000000000000000000000000000000000000000000000008152f35b5050346102ed57816003193601126102ed57602090517fa49807205ce4d355092ef5a8a18f56e8913cf4a201fbe287825b095693c217758152f35b5050346102ed5760203660031901126102ed5760209160ff9082906001600160a01b03610b966117a6565b168152600e855220541690519015158152f35b90508160031936011261037457803590610bc16117bc565b90610bca611adc565b610bd2611abe565b610bda611aff565b60ff60075416600981101561074a57600303610da857338552602091600c8352610c078486882054611a9b565b7f00000000000000000000000000000000000000000000000000000000000000008110610d98577f00000000000000000000000000000000000000000000000000000000000000008015159182610d8e575b5050610d7f576001600160a01b0391847f0000000000000000000000000000000000000000000000000000000000000000841680610d455750340361073c575090807fec470969f3350ca5a15f0d85053f8763ffd0ee39c7b74fcdc5af7862718e292a93925b338852600c8452868820610cd4878254611a9b565b9055610ce286600854611a9b565b6008551680151580610d31575b610d10575b50338652600f8252848620541693519283523392a36001815580f35b338752600f835285872080546001600160a01b031916909117905538610cf4565b50338752600f835281868820541615610cef565b8493917fec470969f3350ca5a15f0d85053f8763ffd0ee39c7b74fcdc5af7862718e292a96959350610d7a91309033906119d8565b610cbf565b5083516374368fb960e11b8152fd5b1190503880610c59565b855163860b82a960e01b81528390fd5b83516307a92f1960e51b8152fd5b5050346102ed57816003193601126102ed57517f00000000000000000000000000000000000000000000000000000000000000006001600160a01b03168152602090f35b5050346102ed57816003193601126102ed5760209060ff6001541690519015158152f35b5050346102ed5760203660031901126102ed576020916001600160a01b0390829082610e486117a6565b168152600f85522054169051908152f35b905034610374578260031936011261037457610e73611adc565b60ff6007541660098110156106845760050361052a57338352600e60205260ff828420541661052a57338352600c60205281832054156105495750610eb733611ccb565b33808452600e602052828420805460ff19166001179055909190610f069083907f00000000000000000000000000000000000000000000000000000000000000006001600160a01b0316611c8a565b519081527f896e034966eaaf1adc54acc0f257056febbd300c9e47182cf761982cf1f5e43060203392a26001815580f35b5050346102ed5760203660031901126102ed5760209181906001600160a01b03610f5f6117a6565b168152600c845220549051908152f35b905034610374578260031936011261037457610f896117f5565b6001549060ff821615610fcb575060ff1916600155513381527f5db9ee0a495bf2e6ff9c91a7834c1ba4fdd244a5e8aa4e537bd38aeae4b073aa90602090a180f35b8251638dfc202b60e01b8152fd5b5050346102ed57816003193601126102ed57602090517f00000000000000000000000000000000000000000000000000000000000000008152f35b90503461037457826003193601126103745761102e6117f5565b611036611adc565b61103e611aff565b60ff60075416600981101561068457810361052a57600854907f0000000000000000000000000000000000000000000000000000000000000000821061147b57670de0b6b3a7640000808302908382041483151715611455576110c2907f000000000000000000000000000000000000000000000000000000000000000090611c2a565b80600955612710907f000000000000000000000000000000000000000000000000000000000000000082019081831161146857829161110091611c17565b04600a5561111060035484611c17565b04918281039081116114555784906001600160a01b037f00000000000000000000000000000000000000000000000000000000000000008181169182159182156112d257507f000000000000000000000000000000000000000000000000000000000000000016803b156112ce57848791878a518094819363990087b760e01b83525af19081156112c45785916112ac575b50505b156112525750818080927f00000000000000000000000000000000000000000000000000000000000000005af16111da611c4a565b501561124457507face74245e2451ecdb289c3f7d531ca72af2b951251b6c2acf0dd836bf0775d4b9160a0915b42600b55600560ff1960075416176007556008549160095490600a5491815194855260208501528301526060820152426080820152a16001815580f35b82516307a92f1960e51b8152fd5b7face74245e2451ecdb289c3f7d531ca72af2b951251b6c2acf0dd836bf0775d4b95935060a0949250906112a7917f000000000000000000000000000000000000000000000000000000000000000090611c8a565b611207565b6112b59061198c565b6112c05783386111a2565b8380fd5b88513d87823e3d90fd5b8480fd5b91929394907f00000000000000000000000000000000000000000000000000000000000000008951896020858184016113418561133363095ea7b360e01b96878552896024840160209093929193604081019460018060a01b031681520152565b03601f1981018752866119b6565b845190828c5af185513d82611439575b5050156113cf575b50501691823b156102ed57885163398da91160e01b81526001600160a01b03909116878201908152602081018990529092839182908490829060400103925af180156113c5576113ae575b50908692916111a5565b6113bc90979193929761198c565b959091386113a4565b87513d8a823e3d90fd5b90919293508a5190602082015283831660248201528b6044820152604481526080810181811067ffffffffffffffff821117611426579161141961141f928e9695948e5289611a33565b87611a33565b3880611359565b634e487b7160e01b8d5260418a5260248dfd5b90915061144d5750873b15155b3880611351565b600114611446565b634e487b7160e01b855260118252602485fd5b634e487b7160e01b875260118452602487fd5b82516346c21a5560e01b8152fd5b8383346102ed57806003193601126102ed576114a36117bc565b90336001600160a01b038316036114c05750610370919235611915565b5163334bd91960e11b81528390fd5b5050346102ed57816003193601126102ed57602090517f00000000000000000000000000000000000000000000000000000000000000008152f35b5050346102ed57816003193601126102ed57517f00000000000000000000000000000000000000000000000000000000000000006001600160a01b03168152602090f35b91905034610374578060031936011261037457610370913561157360016103596117bc565b611895565b9050346103745760203660031901126103745781602093600192358152600285522001549051908152f35b5050346102ed57816003193601126102ed576020906115ca60ff60075416915180926117d2565bf35b91905034610374578260031936011261037457608092506003549154906005549060065492815194855260208501528301526060820152f35b5050346102ed57816003193601126102ed57602090517f00000000000000000000000000000000000000000000000000000000000000008152f35b5050346102ed5760203660031901126102ed5760209181906001600160a01b036116686117a6565b168152600d845220549051908152f35b839150346102ed5761168936611757565b916116926117f5565b61169a611aff565b6007549060ff8216600981101561074a57600281141590816116f8575b5061073c57507f2ac842f90dab3279148f7e55ac91d911f75c1c300a202a5250e05400b15fa156939460086107369260ff1916176007555192839283611d43565b600391501415876116b7565b849134610374576020366003190112610374573563ffffffff60e01b81168091036103745760209250637965db0b60e01b8114908115611746575b5015158152f35b6301ffc9a760e01b1490508361173f565b9060206003198301126117a15760043567ffffffffffffffff928382116117a157806023830112156117a15781600401359384116117a157602484830101116117a1576024019190565b600080fd5b600435906001600160a01b03821682036117a157565b602435906001600160a01b03821682036117a157565b9060098210156117df5752565b634e487b7160e01b600052602160045260246000fd5b3360009081527fe5ebfa64fca8d502a8e50c1edffd2c31ef4dad5b396e65d9f397fb028f74abc560205260409020547fa49807205ce4d355092ef5a8a18f56e8913cf4a201fbe287825b095693c217759060ff16156118515750565b6044906040519063e2517d3f60e01b82523360048301526024820152fd5b80600052600260205260406000203360005260205260ff60406000205416156118515750565b906000918083526002602052604083209160018060a01b03169182845260205260ff604084205416156000146119105780835260026020526040832082845260205260408320600160ff198254161790557f2f8788117e7eff1d82e926ec794901d17c78024a50270940304540a733656f0d339380a4600190565b505090565b906000918083526002602052604083209160018060a01b03169182845260205260ff604084205416600014611910578083526002602052604083208284526020526040832060ff1981541690557ff6391f5c32d9c69d2a47ea670b442974b53935d1edc7fd64eb21e047a839171b339380a4600190565b67ffffffffffffffff81116119a057604052565b634e487b7160e01b600052604160045260246000fd5b90601f8019910116810190811067ffffffffffffffff8211176119a057604052565b6040516323b872dd60e01b60208201526001600160a01b03928316602482015292909116604483015260648083019390935291815260a081019181831067ffffffffffffffff8411176119a057611a3192604052611a33565b565b906000602091828151910182855af115611a8f576000513d611a8657506001600160a01b0381163b155b611a645750565b604051635274afe760e01b81526001600160a01b039091166004820152602490fd5b60011415611a5d565b6040513d6000823e3d90fd5b91908201809211611aa857565b634e487b7160e01b600052601160045260246000fd5b60ff60015416611aca57565b60405163d93c066560e01b8152600490fd5b600260005414611aed576002600055565b604051633ee5aeb560e01b8152600490fd5b60075460ff8116907f000000000000000000000000000000000000000000000000000000000000000042101580611c04575b611bf4575b5060075460ff811660098110156117df5760031480611bca575b611bba575b5060ff6007541660098110156117df5760098210156117df57808203611b79575050565b7f0d643a1384921de4b8ad16df0a695f1e75fcfe3bcac27f9c5c8cee464587238291611bb7604092611bad845180946117d2565b60208301906117d2565ba1565b60ff191660041760075538611b55565b507f0000000000000000000000000000000000000000000000000000000000000000421015611b50565b60ff191660031760075538611b36565b5060098210156117df5760028214611b31565b81810292918115918404141715611aa857565b8115611c34570490565b634e487b7160e01b600052601260045260246000fd5b3d15611c85573d9067ffffffffffffffff82116119a05760405191611c79601f8201601f1916602001846119b6565b82523d6000602084013e565b606090565b60405163a9059cbb60e01b60208201526001600160a01b03929092166024830152604480830193909352918152611a3191611cc66064836119b6565b611a33565b60ff6007541660098110156117df57600503611d3d576008548015611d3657611d339160018060a01b0316600052600c602052611d2e6040600020547f000000000000000000000000000000000000000000000000000000000000000090611c17565b611c2a565b90565b5050600090565b50600090565b90918060409360208452816020850152848401376000828201840152601f01601f191601019056fea264697066735822122006fcfabb08470258aba6bfddaede3eb00a8f107acb3768fe45c757078245b44764736f6c634300081400332f8788117e7eff1d82e926ec794901d17c78024a50270940304540a733656f0d","opcodes":"PUSH2 0x1E0 CALLVALUE PUSH3 0x2FF JUMPI PUSH1 0x1F PUSH3 0x21FF CODESIZE DUP2 SWAP1 SUB SWAP2 DUP3 ADD PUSH1 0x1F NOT AND DUP4 ADD SWAP2 PUSH1 0x1 PUSH1 0x1 PUSH1 0x40 SHL SUB DUP4 GT DUP5 DUP5 LT OR PUSH3 0x2C5 JUMPI DUP1 DUP5 SWAP3 PUSH2 0x180 SWAP5 PUSH1 0x40 MSTORE DUP4 CODECOPY DUP2 ADD SUB SLT PUSH3 0x2FF JUMPI PUSH3 0x4F DUP2 PUSH3 0x304 JUMP JUMPDEST SWAP1 PUSH3 0x5E PUSH1 0x20 DUP3 ADD PUSH3 0x304 JUMP JUMPDEST SWAP2 PUSH1 0x40 DUP3 ADD MLOAD SWAP3 PUSH1 0x60 DUP4 ADD MLOAD PUSH1 0x80 DUP5 ADD MLOAD PUSH1 0xA0 DUP6 ADD MLOAD PUSH1 0xC0 DUP7 ADD MLOAD SWAP1 PUSH1 0xE0 DUP8 ADD MLOAD SWAP3 PUSH2 0x100 DUP9 ADD MLOAD SWAP5 PUSH3 0x96 PUSH2 0x120 DUP11 ADD PUSH3 0x304 JUMP JUMPDEST SWAP10 PUSH3 0xB5 PUSH2 0x160 PUSH3 0xAD PUSH2 0x140 DUP14 ADD PUSH3 0x304 JUMP JUMPDEST SWAP12 ADD PUSH3 0x304 JUMP JUMPDEST SWAP8 PUSH1 0x1 PUSH1 0x0 SSTORE DUP6 DUP8 GT ISZERO PUSH3 0x2DB JUMPI PUSH1 0x1 PUSH1 0x1 PUSH1 0xA0 SHL SUB DUP13 AND ISZERO PUSH3 0x2ED JUMPI PUSH1 0x1 PUSH1 0x1 PUSH1 0xA0 SHL SUB DUP12 AND ISZERO PUSH3 0x2ED JUMPI PUSH1 0x1 PUSH1 0x1 PUSH1 0xA0 SHL SUB DUP11 AND ISZERO PUSH3 0x2ED JUMPI DUP2 ISZERO PUSH3 0x2DB JUMPI DUP3 ISZERO PUSH3 0x2DB JUMPI PUSH3 0x14F SWAP10 PUSH1 0x80 MSTORE PUSH1 0xA0 MSTORE PUSH1 0xC0 MSTORE PUSH1 0xE0 MSTORE PUSH2 0x100 MSTORE PUSH2 0x120 MSTORE PUSH2 0x140 MSTORE PUSH2 0x160 MSTORE PUSH2 0x180 MSTORE PUSH2 0x1A0 SWAP4 DUP5 MSTORE PUSH2 0x1C0 SWAP3 DUP4 MSTORE PUSH1 0xFF NOT PUSH1 0x7 SLOAD AND PUSH1 0x7 SSTORE PUSH3 0x148 DUP2 PUSH3 0x319 JUMP JUMPDEST POP PUSH3 0x39A JUMP JUMPDEST POP PUSH1 0x40 MLOAD PUSH1 0x80 DUP2 ADD PUSH1 0x1 PUSH1 0x1 PUSH1 0x40 SHL SUB DUP2 GT DUP3 DUP3 LT OR PUSH3 0x2C5 JUMPI PUSH1 0x40 MSTORE PUSH1 0x32 PUSH1 0x60 PUSH2 0x1F4 SWAP3 DUP4 DUP2 MSTORE PUSH1 0xFA PUSH1 0x20 DUP3 ADD MSTORE PUSH1 0xC8 PUSH1 0x40 DUP3 ADD MSTORE ADD MSTORE PUSH1 0x3 SSTORE PUSH1 0xFA PUSH1 0x4 SSTORE PUSH1 0xC8 PUSH1 0x5 SSTORE PUSH1 0x32 PUSH1 0x6 SSTORE PUSH1 0x40 MLOAD SWAP1 PUSH2 0x1DA1 SWAP3 DUP4 PUSH3 0x43E DUP5 CODECOPY PUSH1 0x80 MLOAD DUP4 DUP2 DUP2 PUSH2 0x305 ADD MSTORE DUP2 DUP2 PUSH2 0x7CD ADD MSTORE DUP2 DUP2 PUSH2 0xAA5 ADD MSTORE PUSH2 0xED9 ADD MSTORE PUSH1 0xA0 MLOAD DUP4 DUP2 DUP2 PUSH2 0x4B3 ADD MSTORE DUP2 DUP2 PUSH2 0xC6B ADD MSTORE DUP2 DUP2 PUSH2 0x1128 ADD MSTORE PUSH2 0x151F ADD MSTORE PUSH1 0xC0 MLOAD DUP4 DUP2 DUP2 PUSH2 0x26B ADD MSTORE DUP2 DUP2 PUSH2 0xA7D ADD MSTORE DUP2 DUP2 PUSH2 0xFF1 ADD MSTORE DUP2 DUP2 PUSH2 0x109D ADD MSTORE PUSH2 0x1D09 ADD MSTORE PUSH1 0xE0 MLOAD DUP4 DUP2 DUP2 PUSH2 0x246 ADD MSTORE DUP2 DUP2 PUSH2 0x6D5 ADD MSTORE DUP2 DUP2 PUSH2 0x978 ADD MSTORE PUSH2 0x1059 ADD MSTORE PUSH2 0x100 MLOAD DUP4 DUP2 DUP2 PUSH2 0x59B ADD MSTORE PUSH2 0xC09 ADD MSTORE PUSH2 0x120 MLOAD DUP4 DUP2 DUP2 PUSH2 0x9B3 ADD MSTORE PUSH2 0xC30 ADD MSTORE PUSH2 0x140 MLOAD DUP4 DUP2 DUP2 PUSH2 0x29B ADD MSTORE DUP2 DUP2 PUSH2 0x600 ADD MSTORE DUP2 DUP2 PUSH2 0xB0D ADD MSTORE PUSH2 0x1B09 ADD MSTORE PUSH2 0x160 MLOAD DUP4 DUP2 DUP2 PUSH2 0x2C1 ADD MSTORE DUP2 DUP2 PUSH2 0x14E7 ADD MSTORE PUSH2 0x1BCD ADD MSTORE PUSH2 0x180 MLOAD DUP4 DUP2 DUP2 PUSH2 0x10CC ADD MSTORE PUSH2 0x161D ADD MSTORE MLOAD DUP3 DUP2 DUP2 PUSH2 0xDCB ADD MSTORE DUP2 DUP2 PUSH2 0x1157 ADD MSTORE PUSH2 0x12D9 ADD MSTORE MLOAD DUP2 DUP2 DUP2 PUSH2 0x81E ADD MSTORE DUP2 DUP2 PUSH2 0x8B1 ADD MSTORE DUP2 DUP2 PUSH2 0x11B1 ADD MSTORE PUSH2 0x1282 ADD MSTORE RETURN JUMPDEST PUSH4 0x4E487B71 PUSH1 0xE0 SHL PUSH1 0x0 MSTORE PUSH1 0x41 PUSH1 0x4 MSTORE PUSH1 0x24 PUSH1 0x0 REVERT JUMPDEST PUSH1 0x40 MLOAD PUSH4 0x7A92F19 PUSH1 0xE5 SHL DUP2 MSTORE PUSH1 0x4 SWAP1 REVERT JUMPDEST PUSH1 0x40 MLOAD PUSH4 0xE6C4247B PUSH1 0xE0 SHL DUP2 MSTORE PUSH1 0x4 SWAP1 REVERT JUMPDEST PUSH1 0x0 DUP1 REVERT JUMPDEST MLOAD SWAP1 PUSH1 0x1 PUSH1 0x1 PUSH1 0xA0 SHL SUB DUP3 AND DUP3 SUB PUSH3 0x2FF JUMPI JUMP JUMPDEST PUSH1 0x1 PUSH1 0x1 PUSH1 0xA0 SHL SUB AND PUSH1 0x0 DUP2 DUP2 MSTORE PUSH32 0xAC33FF75C19E70FE83507DB0D683FD3465C996598DC972688B7ACE676C89077B PUSH1 0x20 MSTORE PUSH1 0x40 DUP2 KECCAK256 SLOAD SWAP1 SWAP2 SWAP1 PUSH1 0xFF AND PUSH3 0x396 JUMPI DUP2 DUP1 MSTORE PUSH1 0x2 PUSH1 0x20 MSTORE PUSH1 0x40 DUP3 KECCAK256 DUP2 DUP4 MSTORE PUSH1 0x20 MSTORE PUSH1 0x40 DUP3 KECCAK256 PUSH1 0x1 PUSH1 0xFF NOT DUP3 SLOAD AND OR SWAP1 SSTORE CALLER SWAP2 PUSH1 0x0 DUP1 MLOAD PUSH1 0x20 PUSH3 0x21DF DUP4 CODECOPY DUP2 MLOAD SWAP2 MSTORE DUP2 DUP1 LOG4 PUSH1 0x1 SWAP1 JUMP JUMPDEST POP SWAP1 JUMP JUMPDEST PUSH1 0x1 PUSH1 0x1 PUSH1 0xA0 SHL SUB AND PUSH1 0x0 DUP2 DUP2 MSTORE PUSH32 0xE5EBFA64FCA8D502A8E50C1EDFFD2C31EF4DAD5B396E65D9F397FB028F74ABC5 PUSH1 0x20 MSTORE PUSH1 0x40 DUP2 KECCAK256 SLOAD SWAP1 SWAP2 SWAP1 PUSH32 0xA49807205CE4D355092EF5A8A18F56E8913CF4A201FBE287825B095693C21775 SWAP1 PUSH1 0xFF AND PUSH3 0x438 JUMPI DUP1 DUP4 MSTORE PUSH1 0x2 PUSH1 0x20 MSTORE PUSH1 0x40 DUP4 KECCAK256 DUP3 DUP5 MSTORE PUSH1 0x20 MSTORE PUSH1 0x40 DUP4 KECCAK256 PUSH1 0x1 PUSH1 0xFF NOT DUP3 SLOAD AND OR SWAP1 SSTORE PUSH1 0x0 DUP1 MLOAD PUSH1 0x20 PUSH3 0x21DF DUP4 CODECOPY DUP2 MLOAD SWAP2 MSTORE CALLER SWAP4 DUP1 LOG4 PUSH1 0x1 SWAP1 JUMP JUMPDEST POP POP SWAP1 JUMP INVALID PUSH1 0x80 PUSH1 0x40 DUP2 DUP2 MSTORE PUSH1 0x4 SWAP2 DUP3 CALLDATASIZE LT ISZERO PUSH2 0x16 JUMPI PUSH1 0x0 DUP1 REVERT JUMPDEST PUSH1 0x0 SWAP3 DUP4 CALLDATALOAD PUSH1 0xE0 SHR SWAP2 DUP3 PUSH4 0x1FFC9A7 EQ PUSH2 0x1704 JUMPI POP DUP2 PUSH4 0xB4F3F3D EQ PUSH2 0x1678 JUMPI DUP2 PUSH4 0xB6D621C EQ PUSH2 0x1640 JUMPI DUP2 PUSH4 0xB7C1AE1 EQ PUSH2 0x1605 JUMPI DUP2 PUSH4 0x1E5EB1D0 EQ PUSH2 0x15CC JUMPI DUP2 PUSH4 0x200D2ED2 EQ PUSH2 0x15A3 JUMPI DUP2 PUSH4 0x248A9CA3 EQ PUSH2 0x1578 JUMPI DUP2 PUSH4 0x2F2FF15D EQ PUSH2 0x154E JUMPI DUP2 PUSH4 0x3013CE29 EQ PUSH2 0x150A JUMPI DUP2 PUSH4 0x3197CBB6 EQ PUSH2 0x14CF JUMPI DUP2 PUSH4 0x36568ABE EQ PUSH2 0x1489 JUMPI DUP2 PUSH4 0x3871BDA5 EQ PUSH2 0x1014 JUMPI DUP2 PUSH4 0x3970F698 EQ PUSH2 0xFD9 JUMPI DUP2 PUSH4 0x3F4BA83A EQ PUSH2 0xF6F JUMPI DUP2 PUSH4 0x42E94C90 EQ PUSH2 0xF37 JUMPI DUP2 PUSH4 0x48C54B9D EQ PUSH2 0xE59 JUMPI DUP2 PUSH4 0x4A3B68CC EQ PUSH2 0xE1E JUMPI DUP2 PUSH4 0x5C975ABB EQ PUSH2 0xDFA JUMPI DUP2 PUSH4 0x6052970C EQ PUSH2 0xDB6 JUMPI DUP2 PUSH4 0x60B0B0F0 EQ PUSH2 0xBA9 JUMPI DUP2 PUSH4 0x73B2E80E EQ PUSH2 0xB6B JUMPI DUP2 PUSH4 0x75B238FC EQ PUSH2 0xB30 JUMPI DUP2 PUSH4 0x78E97925 EQ PUSH2 0xAF5 JUMPI DUP2 PUSH4 0x7C4B414D EQ PUSH2 0xA30 JUMPI DUP2 PUSH4 0x8456CB59 EQ PUSH2 0x9D6 JUMPI DUP2 PUSH4 0x8D3D6576 EQ PUSH2 0x99B JUMPI DUP2 PUSH4 0x906A26E0 EQ PUSH2 0x960 JUMPI DUP2 PUSH4 0x91D14854 EQ PUSH2 0x91A JUMPI DUP2 PUSH4 0xA217FDDF EQ PUSH2 0x8FF JUMPI DUP2 PUSH4 0xA4317EF4 EQ PUSH2 0x8E0 JUMPI DUP2 PUSH4 0xA4475CE4 EQ PUSH2 0x89C JUMPI DUP2 PUSH4 0xA4A1383F EQ PUSH2 0x77C JUMPI DUP2 PUSH4 0xA6B513EE EQ PUSH2 0x75D JUMPI DUP2 PUSH4 0xA87F966F EQ PUSH2 0x697 JUMPI DUP2 PUSH4 0xA9EDDF99 EQ PUSH2 0x5BE JUMPI DUP2 PUSH4 0xAAFFADF3 EQ PUSH2 0x583 JUMPI DUP2 PUSH4 0xB5545A3C EQ PUSH2 0x454 JUMPI DUP2 PUSH4 0xB920ADE2 EQ PUSH2 0x427 JUMPI DUP2 PUSH4 0xC5C4744C EQ PUSH2 0x408 JUMPI DUP2 PUSH4 0xC78F19F9 EQ PUSH2 0x3E9 JUMPI DUP2 PUSH4 0xCD78D92C EQ PUSH2 0x378 JUMPI DUP2 PUSH4 0xD547741F EQ PUSH2 0x334 JUMPI POP DUP1 PUSH4 0xE985E367 EQ PUSH2 0x2F1 JUMPI PUSH4 0xF65F314B EQ PUSH2 0x209 JUMPI PUSH1 0x0 DUP1 REVERT JUMPDEST CALLVALUE PUSH2 0x2ED JUMPI DUP2 PUSH1 0x3 NOT CALLDATASIZE ADD SLT PUSH2 0x2ED JUMPI PUSH2 0x120 SWAP1 PUSH1 0xFF PUSH1 0x7 SLOAD AND SWAP1 PUSH1 0x8 SLOAD SWAP1 PUSH1 0x9 SLOAD PUSH1 0xA SLOAD SWAP2 PUSH1 0xB SLOAD SWAP4 PUSH2 0x23F DUP3 MLOAD DUP1 SWAP8 PUSH2 0x17D2 JUMP JUMPDEST PUSH1 0x20 DUP7 ADD MSTORE PUSH32 0x0 SWAP1 DUP6 ADD MSTORE PUSH32 0x0 PUSH1 0x60 DUP6 ADD MSTORE PUSH1 0x80 DUP5 ADD MSTORE PUSH1 0xA0 DUP4 ADD MSTORE PUSH32 0x0 PUSH1 0xC0 DUP4 ADD MSTORE PUSH32 0x0 PUSH1 0xE0 DUP4 ADD MSTORE PUSH2 0x100 DUP3 ADD MSTORE RETURN JUMPDEST POP DUP1 REVERT JUMPDEST POP CALLVALUE PUSH2 0x2ED JUMPI DUP2 PUSH1 0x3 NOT CALLDATASIZE ADD SLT PUSH2 0x2ED JUMPI MLOAD PUSH32 0x0 PUSH1 0x1 PUSH1 0x1 PUSH1 0xA0 SHL SUB AND DUP2 MSTORE PUSH1 0x20 SWAP1 RETURN JUMPDEST SWAP2 SWAP1 POP CALLVALUE PUSH2 0x374 JUMPI DUP1 PUSH1 0x3 NOT CALLDATASIZE ADD SLT PUSH2 0x374 JUMPI PUSH2 0x370 SWAP2 CALLDATALOAD PUSH2 0x36B PUSH1 0x1 PUSH2 0x359 PUSH2 0x17BC JUMP JUMPDEST SWAP4 DUP4 DUP8 MSTORE PUSH1 0x2 PUSH1 0x20 MSTORE DUP7 KECCAK256 ADD SLOAD PUSH2 0x186F JUMP JUMPDEST PUSH2 0x1915 JUMP JUMPDEST POP DUP1 RETURN JUMPDEST DUP3 DUP1 REVERT JUMPDEST POP POP CALLVALUE PUSH2 0x2ED JUMPI PUSH1 0x20 CALLDATASIZE PUSH1 0x3 NOT ADD SLT PUSH2 0x2ED JUMPI SWAP1 PUSH1 0x80 SWAP2 PUSH2 0x397 PUSH2 0x17A6 JUMP JUMPDEST SWAP2 PUSH1 0x1 DUP1 PUSH1 0xA0 SHL SUB SWAP2 PUSH1 0xFF DUP2 DUP5 DUP7 AND SWAP5 DUP6 DUP6 MSTORE PUSH1 0xC PUSH1 0x20 MSTORE PUSH2 0x3BC DUP3 DUP7 KECCAK256 SLOAD SWAP8 PUSH2 0x1CCB JUMP JUMPDEST SWAP6 DUP6 MSTORE PUSH1 0xF PUSH1 0x20 MSTORE DUP2 DUP6 KECCAK256 SLOAD AND SWAP4 PUSH1 0xE PUSH1 0x20 MSTORE KECCAK256 SLOAD AND SWAP3 DUP2 MLOAD SWAP5 DUP6 MSTORE PUSH1 0x20 DUP6 ADD MSTORE DUP4 ADD MSTORE ISZERO ISZERO PUSH1 0x60 DUP3 ADD MSTORE RETURN JUMPDEST POP POP CALLVALUE PUSH2 0x2ED JUMPI DUP2 PUSH1 0x3 NOT CALLDATASIZE ADD SLT PUSH2 0x2ED JUMPI PUSH1 0x20 SWAP1 PUSH1 0xA SLOAD SWAP1 MLOAD SWAP1 DUP2 MSTORE RETURN JUMPDEST POP POP CALLVALUE PUSH2 0x2ED JUMPI DUP2 PUSH1 0x3 NOT CALLDATASIZE ADD SLT PUSH2 0x2ED JUMPI PUSH1 0x20 SWAP1 PUSH1 0x8 SLOAD SWAP1 MLOAD SWAP1 DUP2 MSTORE RETURN JUMPDEST POP POP CALLVALUE PUSH2 0x2ED JUMPI PUSH1 0x20 CALLDATASIZE PUSH1 0x3 NOT ADD SLT PUSH2 0x2ED JUMPI PUSH1 0x20 SWAP1 PUSH2 0x44D PUSH2 0x448 PUSH2 0x17A6 JUMP JUMPDEST PUSH2 0x1CCB JUMP JUMPDEST SWAP1 MLOAD SWAP1 DUP2 MSTORE RETURN JUMPDEST SWAP2 SWAP1 POP CALLVALUE PUSH2 0x374 JUMPI DUP3 PUSH1 0x3 NOT CALLDATASIZE ADD SLT PUSH2 0x374 JUMPI PUSH2 0x46F PUSH2 0x1ADC JUMP JUMPDEST PUSH1 0xFF PUSH1 0x7 SLOAD AND PUSH1 0x9 DUP2 LT ISZERO PUSH2 0x570 JUMPI PUSH1 0x6 DUP2 EQ ISZERO SWAP1 DUP2 PUSH2 0x564 JUMPI JUMPDEST POP PUSH2 0x557 JUMPI CALLER DUP4 MSTORE PUSH1 0xC PUSH1 0x20 MSTORE DUP1 DUP4 KECCAK256 SLOAD SWAP2 DUP3 ISZERO PUSH2 0x549 JUMPI CALLER DUP5 MSTORE PUSH1 0xC PUSH1 0x20 MSTORE DUP2 DUP5 KECCAK256 DUP5 SWAP1 SSTORE DUP3 PUSH32 0x0 PUSH1 0x1 PUSH1 0x1 PUSH1 0xA0 SHL SUB AND DUP1 PUSH2 0x538 JUMPI POP DUP5 DUP1 DUP1 DUP1 SWAP4 CALLER GAS CALL PUSH2 0x4F1 PUSH2 0x1C4A JUMP JUMPDEST POP ISZERO PUSH2 0x52A JUMPI POP JUMPDEST MLOAD SWAP1 DUP2 MSTORE PUSH32 0xD7DEE2702D63AD89917B6A4DA9981C90C4D24F8C2BDFD64C604ECAE57D8D0651 PUSH1 0x20 CALLER SWAP3 LOG2 PUSH1 0x1 DUP2 SSTORE DUP1 RETURN JUMPDEST SWAP1 MLOAD PUSH4 0x7A92F19 PUSH1 0xE5 SHL DUP2 MSTORE REVERT JUMPDEST PUSH2 0x544 SWAP3 POP CALLER SWAP1 PUSH2 0x1C8A JUMP JUMPDEST PUSH2 0x4F9 JUMP JUMPDEST SWAP1 MLOAD PUSH4 0x1971FBF3 PUSH1 0xE2 SHL DUP2 MSTORE REVERT JUMPDEST MLOAD PUSH4 0xB4D6981 PUSH1 0xE0 SHL DUP2 MSTORE REVERT JUMPDEST PUSH1 0x8 SWAP2 POP EQ ISZERO CODESIZE PUSH2 0x48A JUMP JUMPDEST PUSH4 0x4E487B71 PUSH1 0xE0 SHL DUP5 MSTORE PUSH1 0x21 DUP4 MSTORE PUSH1 0x24 DUP5 REVERT JUMPDEST POP POP CALLVALUE PUSH2 0x2ED JUMPI DUP2 PUSH1 0x3 NOT CALLDATASIZE ADD SLT PUSH2 0x2ED JUMPI PUSH1 0x20 SWAP1 MLOAD PUSH32 0x0 DUP2 MSTORE RETURN JUMPDEST SWAP1 POP CALLVALUE PUSH2 0x374 JUMPI PUSH1 0x80 CALLDATASIZE PUSH1 0x3 NOT ADD SLT PUSH2 0x374 JUMPI PUSH2 0x5D9 PUSH2 0x17F5 JUMP JUMPDEST PUSH1 0xFF PUSH1 0x7 SLOAD AND PUSH1 0x9 DUP2 LT ISZERO PUSH2 0x684 JUMPI DUP1 ISZERO ISZERO SWAP1 DUP2 PUSH2 0x678 JUMPI JUMPDEST POP PUSH2 0x66B JUMPI PUSH1 0x8 SLOAD PUSH2 0x66B JUMPI PUSH32 0x0 TIMESTAMP LT ISZERO PUSH2 0x66B JUMPI PUSH1 0x44 CALLDATALOAD SWAP1 PUSH1 0x24 CALLDATALOAD SWAP1 DUP1 CALLDATALOAD PUSH2 0x63A DUP5 DUP5 PUSH2 0x1A9B JUMP JUMPDEST SWAP5 PUSH2 0x648 PUSH1 0x64 CALLDATALOAD DUP1 SWAP8 PUSH2 0x1A9B JUMP JUMPDEST DUP3 SUB PUSH2 0x65C JUMPI POP PUSH1 0x3 SSTORE SSTORE PUSH1 0x5 SSTORE PUSH1 0x6 SSTORE DUP1 RETURN JUMPDEST MLOAD PUSH4 0x2B00A33D PUSH1 0xE1 SHL DUP2 MSTORE SWAP1 POP REVERT JUMPDEST SWAP1 MLOAD PUSH3 0xB5D7E1 PUSH1 0xE8 SHL DUP2 MSTORE REVERT JUMPDEST PUSH1 0x2 SWAP2 POP EQ ISZERO CODESIZE PUSH2 0x5F2 JUMP JUMPDEST PUSH4 0x4E487B71 PUSH1 0xE0 SHL DUP5 MSTORE PUSH1 0x21 DUP3 MSTORE PUSH1 0x24 DUP5 REVERT JUMPDEST DUP4 SWAP2 POP CALLVALUE PUSH2 0x2ED JUMPI PUSH2 0x6A8 CALLDATASIZE PUSH2 0x1757 JUMP JUMPDEST SWAP2 PUSH2 0x6B1 PUSH2 0x17F5 JUMP JUMPDEST PUSH2 0x6B9 PUSH2 0x1AFF JUMP JUMPDEST PUSH1 0x7 SLOAD SWAP1 PUSH1 0xFF DUP3 AND PUSH1 0x9 DUP2 LT ISZERO PUSH2 0x74A JUMPI DUP2 SUB PUSH2 0x73C JUMPI PUSH1 0x8 SLOAD PUSH32 0x0 GT ISZERO PUSH2 0x73C JUMPI POP PUSH32 0x3D83BFE8797F11E26CEFDB415BA6850E58A00CCD2F3D29E924104F10B7F184EE SWAP4 SWAP5 PUSH1 0x6 PUSH2 0x736 SWAP3 PUSH1 0xFF NOT AND OR PUSH1 0x7 SSTORE MLOAD SWAP3 DUP4 SWAP3 DUP4 PUSH2 0x1D43 JUMP JUMPDEST SUB SWAP1 LOG1 DUP1 RETURN JUMPDEST DUP6 MLOAD PUSH4 0x7A92F19 PUSH1 0xE5 SHL DUP2 MSTORE REVERT JUMPDEST PUSH4 0x4E487B71 PUSH1 0xE0 SHL DUP7 MSTORE PUSH1 0x21 DUP3 MSTORE PUSH1 0x24 DUP7 REVERT JUMPDEST POP POP CALLVALUE PUSH2 0x2ED JUMPI DUP2 PUSH1 0x3 NOT CALLDATASIZE ADD SLT PUSH2 0x2ED JUMPI PUSH1 0x20 SWAP1 PUSH1 0x9 SLOAD SWAP1 MLOAD SWAP1 DUP2 MSTORE RETURN JUMPDEST SWAP2 SWAP1 POP CALLVALUE PUSH2 0x374 JUMPI DUP3 PUSH1 0x3 NOT CALLDATASIZE ADD SLT PUSH2 0x374 JUMPI PUSH2 0x797 PUSH2 0x17F5 JUMP JUMPDEST PUSH1 0xFF PUSH1 0x7 SLOAD AND PUSH1 0x9 DUP2 LT ISZERO PUSH2 0x570 JUMPI PUSH1 0x6 DUP2 EQ ISZERO SWAP1 DUP2 PUSH2 0x890 JUMPI JUMPDEST POP PUSH2 0x883 JUMPI DUP1 MLOAD PUSH4 0x70A08231 PUSH1 0xE0 SHL DUP2 MSTORE ADDRESS SWAP3 DUP2 ADD SWAP3 SWAP1 SWAP3 MSTORE PUSH32 0x0 PUSH1 0x1 PUSH1 0x1 PUSH1 0xA0 SHL SUB AND SWAP2 PUSH1 0x20 DUP2 PUSH1 0x24 DUP2 DUP7 GAS STATICCALL SWAP2 DUP3 ISZERO PUSH2 0x87A JUMPI POP DUP4 SWAP2 PUSH2 0x849 JUMPI JUMPDEST POP DUP1 PUSH2 0x818 JUMPI DUP3 DUP1 RETURN JUMPDEST PUSH2 0x843 SWAP2 PUSH32 0x0 SWAP1 PUSH2 0x1C8A JUMP JUMPDEST CODESIZE DUP1 DUP3 DUP1 RETURN JUMPDEST SWAP1 POP PUSH1 0x20 DUP2 RETURNDATASIZE DUP3 GT PUSH2 0x872 JUMPI JUMPDEST DUP2 PUSH2 0x863 PUSH1 0x20 SWAP4 DUP4 PUSH2 0x19B6 JUMP JUMPDEST DUP2 ADD SUB SLT PUSH2 0x374 JUMPI MLOAD CODESIZE PUSH2 0x80E JUMP JUMPDEST RETURNDATASIZE SWAP2 POP PUSH2 0x856 JUMP JUMPDEST MLOAD RETURNDATASIZE DUP6 DUP3 RETURNDATACOPY RETURNDATASIZE SWAP1 REVERT JUMPDEST MLOAD PUSH4 0x7A92F19 PUSH1 0xE5 SHL DUP2 MSTORE REVERT JUMPDEST PUSH1 0x8 SWAP2 POP EQ ISZERO CODESIZE PUSH2 0x7B2 JUMP JUMPDEST POP POP CALLVALUE PUSH2 0x2ED JUMPI DUP2 PUSH1 0x3 NOT CALLDATASIZE ADD SLT PUSH2 0x2ED JUMPI MLOAD PUSH32 0x0 PUSH1 0x1 PUSH1 0x1 PUSH1 0xA0 SHL SUB AND DUP2 MSTORE PUSH1 0x20 SWAP1 RETURN JUMPDEST POP POP CALLVALUE PUSH2 0x2ED JUMPI DUP2 PUSH1 0x3 NOT CALLDATASIZE ADD SLT PUSH2 0x2ED JUMPI PUSH1 0x20 SWAP1 PUSH1 0xB SLOAD SWAP1 MLOAD SWAP1 DUP2 MSTORE RETURN JUMPDEST POP POP CALLVALUE PUSH2 0x2ED JUMPI DUP2 PUSH1 0x3 NOT CALLDATASIZE ADD SLT PUSH2 0x2ED JUMPI MLOAD SWAP1 DUP2 MSTORE PUSH1 0x20 SWAP1 RETURN JUMPDEST SWAP1 POP CALLVALUE PUSH2 0x374 JUMPI DUP2 PUSH1 0x3 NOT CALLDATASIZE ADD SLT PUSH2 0x374 JUMPI DUP2 PUSH1 0x20 SWAP4 PUSH2 0x938 PUSH2 0x17BC JUMP JUMPDEST SWAP3 CALLDATALOAD DUP2 MSTORE PUSH1 0x2 DUP6 MSTORE KECCAK256 SWAP1 PUSH1 0x1 DUP1 PUSH1 0xA0 SHL SUB AND PUSH1 0x0 MSTORE DUP3 MSTORE PUSH1 0xFF DUP2 PUSH1 0x0 KECCAK256 SLOAD AND SWAP1 MLOAD SWAP1 ISZERO ISZERO DUP2 MSTORE RETURN JUMPDEST POP POP CALLVALUE PUSH2 0x2ED JUMPI DUP2 PUSH1 0x3 NOT CALLDATASIZE ADD SLT PUSH2 0x2ED JUMPI PUSH1 0x20 SWAP1 MLOAD PUSH32 0x0 DUP2 MSTORE RETURN JUMPDEST POP POP CALLVALUE PUSH2 0x2ED JUMPI DUP2 PUSH1 0x3 NOT CALLDATASIZE ADD SLT PUSH2 0x2ED JUMPI PUSH1 0x20 SWAP1 MLOAD PUSH32 0x0 DUP2 MSTORE RETURN JUMPDEST POP POP CALLVALUE PUSH2 0x2ED JUMPI DUP2 PUSH1 0x3 NOT CALLDATASIZE ADD SLT PUSH2 0x2ED JUMPI PUSH1 0x20 PUSH32 0x62E78CEA01BEE320CD4E420270B5EA74000D11B0C9F74754EBDBFC544B05A258 SWAP2 PUSH2 0xA14 PUSH2 0x17F5 JUMP JUMPDEST PUSH2 0xA1C PUSH2 0x1ABE JUMP JUMPDEST PUSH1 0x1 PUSH1 0xFF NOT DUP2 SLOAD AND OR PUSH1 0x1 SSTORE MLOAD CALLER DUP2 MSTORE LOG1 DUP1 RETURN JUMPDEST SWAP1 POP CALLVALUE PUSH2 0x374 JUMPI DUP3 PUSH1 0x3 NOT CALLDATASIZE ADD SLT PUSH2 0x374 JUMPI PUSH1 0xFF PUSH1 0x7 SLOAD AND PUSH1 0x9 DUP2 LT ISZERO PUSH2 0x684 JUMPI PUSH2 0xAE7 JUMPI POP PUSH32 0x77ACF75E237F9AAE98F997395832D522BDB695E4A9BD07704936AA889A3667D1 SWAP1 PUSH1 0x20 SWAP1 PUSH32 0x0 SWAP1 PUSH2 0xAD2 DUP3 ADDRESS CALLER PUSH32 0x0 PUSH1 0x1 PUSH1 0x1 PUSH1 0xA0 SHL SUB AND PUSH2 0x19D8 JUMP JUMPDEST PUSH1 0x2 PUSH1 0xFF NOT PUSH1 0x7 SLOAD AND OR PUSH1 0x7 SSTORE MLOAD SWAP1 DUP2 MSTORE LOG1 DUP1 RETURN JUMPDEST SWAP1 MLOAD PUSH4 0xFD0AF23 PUSH1 0xE3 SHL DUP2 MSTORE REVERT JUMPDEST POP POP CALLVALUE PUSH2 0x2ED JUMPI DUP2 PUSH1 0x3 NOT CALLDATASIZE ADD SLT PUSH2 0x2ED JUMPI PUSH1 0x20 SWAP1 MLOAD PUSH32 0x0 DUP2 MSTORE RETURN JUMPDEST POP POP CALLVALUE PUSH2 0x2ED JUMPI DUP2 PUSH1 0x3 NOT CALLDATASIZE ADD SLT PUSH2 0x2ED JUMPI PUSH1 0x20 SWAP1 MLOAD PUSH32 0xA49807205CE4D355092EF5A8A18F56E8913CF4A201FBE287825B095693C21775 DUP2 MSTORE RETURN JUMPDEST POP POP CALLVALUE PUSH2 0x2ED JUMPI PUSH1 0x20 CALLDATASIZE PUSH1 0x3 NOT ADD SLT PUSH2 0x2ED JUMPI PUSH1 0x20 SWAP2 PUSH1 0xFF SWAP1 DUP3 SWAP1 PUSH1 0x1 PUSH1 0x1 PUSH1 0xA0 SHL SUB PUSH2 0xB96 PUSH2 0x17A6 JUMP JUMPDEST AND DUP2 MSTORE PUSH1 0xE DUP6 MSTORE KECCAK256 SLOAD AND SWAP1 MLOAD SWAP1 ISZERO ISZERO DUP2 MSTORE RETURN JUMPDEST SWAP1 POP DUP2 PUSH1 0x3 NOT CALLDATASIZE ADD SLT PUSH2 0x374 JUMPI DUP1 CALLDATALOAD SWAP1 PUSH2 0xBC1 PUSH2 0x17BC JUMP JUMPDEST SWAP1 PUSH2 0xBCA PUSH2 0x1ADC JUMP JUMPDEST PUSH2 0xBD2 PUSH2 0x1ABE JUMP JUMPDEST PUSH2 0xBDA PUSH2 0x1AFF JUMP JUMPDEST PUSH1 0xFF PUSH1 0x7 SLOAD AND PUSH1 0x9 DUP2 LT ISZERO PUSH2 0x74A JUMPI PUSH1 0x3 SUB PUSH2 0xDA8 JUMPI CALLER DUP6 MSTORE PUSH1 0x20 SWAP2 PUSH1 0xC DUP4 MSTORE PUSH2 0xC07 DUP5 DUP7 DUP9 KECCAK256 SLOAD PUSH2 0x1A9B JUMP JUMPDEST PUSH32 0x0 DUP2 LT PUSH2 0xD98 JUMPI PUSH32 0x0 DUP1 ISZERO ISZERO SWAP2 DUP3 PUSH2 0xD8E JUMPI JUMPDEST POP POP PUSH2 0xD7F JUMPI PUSH1 0x1 PUSH1 0x1 PUSH1 0xA0 SHL SUB SWAP2 DUP5 PUSH32 0x0 DUP5 AND DUP1 PUSH2 0xD45 JUMPI POP CALLVALUE SUB PUSH2 0x73C JUMPI POP SWAP1 DUP1 PUSH32 0xEC470969F3350CA5A15F0D85053F8763FFD0EE39C7B74FCDC5AF7862718E292A SWAP4 SWAP3 JUMPDEST CALLER DUP9 MSTORE PUSH1 0xC DUP5 MSTORE DUP7 DUP9 KECCAK256 PUSH2 0xCD4 DUP8 DUP3 SLOAD PUSH2 0x1A9B JUMP JUMPDEST SWAP1 SSTORE PUSH2 0xCE2 DUP7 PUSH1 0x8 SLOAD PUSH2 0x1A9B JUMP JUMPDEST PUSH1 0x8 SSTORE AND DUP1 ISZERO ISZERO DUP1 PUSH2 0xD31 JUMPI JUMPDEST PUSH2 0xD10 JUMPI JUMPDEST POP CALLER DUP7 MSTORE PUSH1 0xF DUP3 MSTORE DUP5 DUP7 KECCAK256 SLOAD AND SWAP4 MLOAD SWAP3 DUP4 MSTORE CALLER SWAP3 LOG3 PUSH1 0x1 DUP2 SSTORE DUP1 RETURN JUMPDEST CALLER DUP8 MSTORE PUSH1 0xF DUP4 MSTORE DUP6 DUP8 KECCAK256 DUP1 SLOAD PUSH1 0x1 PUSH1 0x1 PUSH1 0xA0 SHL SUB NOT AND SWAP1 SWAP2 OR SWAP1 SSTORE CODESIZE PUSH2 0xCF4 JUMP JUMPDEST POP CALLER DUP8 MSTORE PUSH1 0xF DUP4 MSTORE DUP2 DUP7 DUP9 KECCAK256 SLOAD AND ISZERO PUSH2 0xCEF JUMP JUMPDEST DUP5 SWAP4 SWAP2 PUSH32 0xEC470969F3350CA5A15F0D85053F8763FFD0EE39C7B74FCDC5AF7862718E292A SWAP7 SWAP6 SWAP4 POP PUSH2 0xD7A SWAP2 ADDRESS SWAP1 CALLER SWAP1 PUSH2 0x19D8 JUMP JUMPDEST PUSH2 0xCBF JUMP JUMPDEST POP DUP4 MLOAD PUSH4 0x74368FB9 PUSH1 0xE1 SHL DUP2 MSTORE REVERT JUMPDEST GT SWAP1 POP CODESIZE DUP1 PUSH2 0xC59 JUMP JUMPDEST DUP6 MLOAD PUSH4 0x860B82A9 PUSH1 0xE0 SHL DUP2 MSTORE DUP4 SWAP1 REVERT JUMPDEST DUP4 MLOAD PUSH4 0x7A92F19 PUSH1 0xE5 SHL DUP2 MSTORE REVERT JUMPDEST POP POP CALLVALUE PUSH2 0x2ED JUMPI DUP2 PUSH1 0x3 NOT CALLDATASIZE ADD SLT PUSH2 0x2ED JUMPI MLOAD PUSH32 0x0 PUSH1 0x1 PUSH1 0x1 PUSH1 0xA0 SHL SUB AND DUP2 MSTORE PUSH1 0x20 SWAP1 RETURN JUMPDEST POP POP CALLVALUE PUSH2 0x2ED JUMPI DUP2 PUSH1 0x3 NOT CALLDATASIZE ADD SLT PUSH2 0x2ED JUMPI PUSH1 0x20 SWAP1 PUSH1 0xFF PUSH1 0x1 SLOAD AND SWAP1 MLOAD SWAP1 ISZERO ISZERO DUP2 MSTORE RETURN JUMPDEST POP POP CALLVALUE PUSH2 0x2ED JUMPI PUSH1 0x20 CALLDATASIZE PUSH1 0x3 NOT ADD SLT PUSH2 0x2ED JUMPI PUSH1 0x20 SWAP2 PUSH1 0x1 PUSH1 0x1 PUSH1 0xA0 SHL SUB SWAP1 DUP3 SWAP1 DUP3 PUSH2 0xE48 PUSH2 0x17A6 JUMP JUMPDEST AND DUP2 MSTORE PUSH1 0xF DUP6 MSTORE KECCAK256 SLOAD AND SWAP1 MLOAD SWAP1 DUP2 MSTORE RETURN JUMPDEST SWAP1 POP CALLVALUE PUSH2 0x374 JUMPI DUP3 PUSH1 0x3 NOT CALLDATASIZE ADD SLT PUSH2 0x374 JUMPI PUSH2 0xE73 PUSH2 0x1ADC JUMP JUMPDEST PUSH1 0xFF PUSH1 0x7 SLOAD AND PUSH1 0x9 DUP2 LT ISZERO PUSH2 0x684 JUMPI PUSH1 0x5 SUB PUSH2 0x52A JUMPI CALLER DUP4 MSTORE PUSH1 0xE PUSH1 0x20 MSTORE PUSH1 0xFF DUP3 DUP5 KECCAK256 SLOAD AND PUSH2 0x52A JUMPI CALLER DUP4 MSTORE PUSH1 0xC PUSH1 0x20 MSTORE DUP2 DUP4 KECCAK256 SLOAD ISZERO PUSH2 0x549 JUMPI POP PUSH2 0xEB7 CALLER PUSH2 0x1CCB JUMP JUMPDEST CALLER DUP1 DUP5 MSTORE PUSH1 0xE PUSH1 0x20 MSTORE DUP3 DUP5 KECCAK256 DUP1 SLOAD PUSH1 0xFF NOT AND PUSH1 0x1 OR SWAP1 SSTORE SWAP1 SWAP2 SWAP1 PUSH2 0xF06 SWAP1 DUP4 SWAP1 PUSH32 0x0 PUSH1 0x1 PUSH1 0x1 PUSH1 0xA0 SHL SUB AND PUSH2 0x1C8A JUMP JUMPDEST MLOAD SWAP1 DUP2 MSTORE PUSH32 0x896E034966EAAF1ADC54ACC0F257056FEBBD300C9E47182CF761982CF1F5E430 PUSH1 0x20 CALLER SWAP3 LOG2 PUSH1 0x1 DUP2 SSTORE DUP1 RETURN JUMPDEST POP POP CALLVALUE PUSH2 0x2ED JUMPI PUSH1 0x20 CALLDATASIZE PUSH1 0x3 NOT ADD SLT PUSH2 0x2ED JUMPI PUSH1 0x20 SWAP2 DUP2 SWAP1 PUSH1 0x1 PUSH1 0x1 PUSH1 0xA0 SHL SUB PUSH2 0xF5F PUSH2 0x17A6 JUMP JUMPDEST AND DUP2 MSTORE PUSH1 0xC DUP5 MSTORE KECCAK256 SLOAD SWAP1 MLOAD SWAP1 DUP2 MSTORE RETURN JUMPDEST SWAP1 POP CALLVALUE PUSH2 0x374 JUMPI DUP3 PUSH1 0x3 NOT CALLDATASIZE ADD SLT PUSH2 0x374 JUMPI PUSH2 0xF89 PUSH2 0x17F5 JUMP JUMPDEST PUSH1 0x1 SLOAD SWAP1 PUSH1 0xFF DUP3 AND ISZERO PUSH2 0xFCB JUMPI POP PUSH1 0xFF NOT AND PUSH1 0x1 SSTORE MLOAD CALLER DUP2 MSTORE PUSH32 0x5DB9EE0A495BF2E6FF9C91A7834C1BA4FDD244A5E8AA4E537BD38AEAE4B073AA SWAP1 PUSH1 0x20 SWAP1 LOG1 DUP1 RETURN JUMPDEST DUP3 MLOAD PUSH4 0x8DFC202B PUSH1 0xE0 SHL DUP2 MSTORE REVERT JUMPDEST POP POP CALLVALUE PUSH2 0x2ED JUMPI DUP2 PUSH1 0x3 NOT CALLDATASIZE ADD SLT PUSH2 0x2ED JUMPI PUSH1 0x20 SWAP1 MLOAD PUSH32 0x0 DUP2 MSTORE RETURN JUMPDEST SWAP1 POP CALLVALUE PUSH2 0x374 JUMPI DUP3 PUSH1 0x3 NOT CALLDATASIZE ADD SLT PUSH2 0x374 JUMPI PUSH2 0x102E PUSH2 0x17F5 JUMP JUMPDEST PUSH2 0x1036 PUSH2 0x1ADC JUMP JUMPDEST PUSH2 0x103E PUSH2 0x1AFF JUMP JUMPDEST PUSH1 0xFF PUSH1 0x7 SLOAD AND PUSH1 0x9 DUP2 LT ISZERO PUSH2 0x684 JUMPI DUP2 SUB PUSH2 0x52A JUMPI PUSH1 0x8 SLOAD SWAP1 PUSH32 0x0 DUP3 LT PUSH2 0x147B JUMPI PUSH8 0xDE0B6B3A7640000 DUP1 DUP4 MUL SWAP1 DUP4 DUP3 DIV EQ DUP4 ISZERO OR ISZERO PUSH2 0x1455 JUMPI PUSH2 0x10C2 SWAP1 PUSH32 0x0 SWAP1 PUSH2 0x1C2A JUMP JUMPDEST DUP1 PUSH1 0x9 SSTORE PUSH2 0x2710 SWAP1 PUSH32 0x0 DUP3 ADD SWAP1 DUP2 DUP4 GT PUSH2 0x1468 JUMPI DUP3 SWAP2 PUSH2 0x1100 SWAP2 PUSH2 0x1C17 JUMP JUMPDEST DIV PUSH1 0xA SSTORE PUSH2 0x1110 PUSH1 0x3 SLOAD DUP5 PUSH2 0x1C17 JUMP JUMPDEST DIV SWAP2 DUP3 DUP2 SUB SWAP1 DUP2 GT PUSH2 0x1455 JUMPI DUP5 SWAP1 PUSH1 0x1 PUSH1 0x1 PUSH1 0xA0 SHL SUB PUSH32 0x0 DUP2 DUP2 AND SWAP2 DUP3 ISZERO SWAP2 DUP3 ISZERO PUSH2 0x12D2 JUMPI POP PUSH32 0x0 AND DUP1 EXTCODESIZE ISZERO PUSH2 0x12CE JUMPI DUP5 DUP8 SWAP2 DUP8 DUP11 MLOAD DUP1 SWAP5 DUP2 SWAP4 PUSH4 0x990087B7 PUSH1 0xE0 SHL DUP4 MSTORE GAS CALL SWAP1 DUP2 ISZERO PUSH2 0x12C4 JUMPI DUP6 SWAP2 PUSH2 0x12AC JUMPI JUMPDEST POP POP JUMPDEST ISZERO PUSH2 0x1252 JUMPI POP DUP2 DUP1 DUP1 SWAP3 PUSH32 0x0 GAS CALL PUSH2 0x11DA PUSH2 0x1C4A JUMP JUMPDEST POP ISZERO PUSH2 0x1244 JUMPI POP PUSH32 0xACE74245E2451ECDB289C3F7D531CA72AF2B951251B6C2ACF0DD836BF0775D4B SWAP2 PUSH1 0xA0 SWAP2 JUMPDEST TIMESTAMP PUSH1 0xB SSTORE PUSH1 0x5 PUSH1 0xFF NOT PUSH1 0x7 SLOAD AND OR PUSH1 0x7 SSTORE PUSH1 0x8 SLOAD SWAP2 PUSH1 0x9 SLOAD SWAP1 PUSH1 0xA SLOAD SWAP2 DUP2 MLOAD SWAP5 DUP6 MSTORE PUSH1 0x20 DUP6 ADD MSTORE DUP4 ADD MSTORE PUSH1 0x60 DUP3 ADD MSTORE TIMESTAMP PUSH1 0x80 DUP3 ADD MSTORE LOG1 PUSH1 0x1 DUP2 SSTORE DUP1 RETURN JUMPDEST DUP3 MLOAD PUSH4 0x7A92F19 PUSH1 0xE5 SHL DUP2 MSTORE REVERT JUMPDEST PUSH32 0xACE74245E2451ECDB289C3F7D531CA72AF2B951251B6C2ACF0DD836BF0775D4B SWAP6 SWAP4 POP PUSH1 0xA0 SWAP5 SWAP3 POP SWAP1 PUSH2 0x12A7 SWAP2 PUSH32 0x0 SWAP1 PUSH2 0x1C8A JUMP JUMPDEST PUSH2 0x1207 JUMP JUMPDEST PUSH2 0x12B5 SWAP1 PUSH2 0x198C JUMP JUMPDEST PUSH2 0x12C0 JUMPI DUP4 CODESIZE PUSH2 0x11A2 JUMP JUMPDEST DUP4 DUP1 REVERT JUMPDEST DUP9 MLOAD RETURNDATASIZE DUP8 DUP3 RETURNDATACOPY RETURNDATASIZE SWAP1 REVERT JUMPDEST DUP5 DUP1 REVERT JUMPDEST SWAP2 SWAP3 SWAP4 SWAP5 SWAP1 PUSH32 0x0 DUP10 MLOAD DUP10 PUSH1 0x20 DUP6 DUP2 DUP5 ADD PUSH2 0x1341 DUP6 PUSH2 0x1333 PUSH4 0x95EA7B3 PUSH1 0xE0 SHL SWAP7 DUP8 DUP6 MSTORE DUP10 PUSH1 0x24 DUP5 ADD PUSH1 0x20 SWAP1 SWAP4 SWAP3 SWAP2 SWAP4 PUSH1 0x40 DUP2 ADD SWAP5 PUSH1 0x1 DUP1 PUSH1 0xA0 SHL SUB AND DUP2 MSTORE ADD MSTORE JUMP JUMPDEST SUB PUSH1 0x1F NOT DUP2 ADD DUP8 MSTORE DUP7 PUSH2 0x19B6 JUMP JUMPDEST DUP5 MLOAD SWAP1 DUP3 DUP13 GAS CALL DUP6 MLOAD RETURNDATASIZE DUP3 PUSH2 0x1439 JUMPI JUMPDEST POP POP ISZERO PUSH2 0x13CF JUMPI JUMPDEST POP POP AND SWAP2 DUP3 EXTCODESIZE ISZERO PUSH2 0x2ED JUMPI DUP9 MLOAD PUSH4 0x398DA911 PUSH1 0xE0 SHL DUP2 MSTORE PUSH1 0x1 PUSH1 0x1 PUSH1 0xA0 SHL SUB SWAP1 SWAP2 AND DUP8 DUP3 ADD SWAP1 DUP2 MSTORE PUSH1 0x20 DUP2 ADD DUP10 SWAP1 MSTORE SWAP1 SWAP3 DUP4 SWAP2 DUP3 SWAP1 DUP5 SWAP1 DUP3 SWAP1 PUSH1 0x40 ADD SUB SWAP3 GAS CALL DUP1 ISZERO PUSH2 0x13C5 JUMPI PUSH2 0x13AE JUMPI JUMPDEST POP SWAP1 DUP7 SWAP3 SWAP2 PUSH2 0x11A5 JUMP JUMPDEST PUSH2 0x13BC SWAP1 SWAP8 SWAP2 SWAP4 SWAP3 SWAP8 PUSH2 0x198C JUMP JUMPDEST SWAP6 SWAP1 SWAP2 CODESIZE PUSH2 0x13A4 JUMP JUMPDEST DUP8 MLOAD RETURNDATASIZE DUP11 DUP3 RETURNDATACOPY RETURNDATASIZE SWAP1 REVERT JUMPDEST SWAP1 SWAP2 SWAP3 SWAP4 POP DUP11 MLOAD SWAP1 PUSH1 0x20 DUP3 ADD MSTORE DUP4 DUP4 AND PUSH1 0x24 DUP3 ADD MSTORE DUP12 PUSH1 0x44 DUP3 ADD MSTORE PUSH1 0x44 DUP2 MSTORE PUSH1 0x80 DUP2 ADD DUP2 DUP2 LT PUSH8 0xFFFFFFFFFFFFFFFF DUP3 GT OR PUSH2 0x1426 JUMPI SWAP2 PUSH2 0x1419 PUSH2 0x141F SWAP3 DUP15 SWAP7 SWAP6 SWAP5 DUP15 MSTORE DUP10 PUSH2 0x1A33 JUMP JUMPDEST DUP8 PUSH2 0x1A33 JUMP JUMPDEST CODESIZE DUP1 PUSH2 0x1359 JUMP JUMPDEST PUSH4 0x4E487B71 PUSH1 0xE0 SHL DUP14 MSTORE PUSH1 0x41 DUP11 MSTORE PUSH1 0x24 DUP14 REVERT JUMPDEST SWAP1 SWAP2 POP PUSH2 0x144D JUMPI POP DUP8 EXTCODESIZE ISZERO ISZERO JUMPDEST CODESIZE DUP1 PUSH2 0x1351 JUMP JUMPDEST PUSH1 0x1 EQ PUSH2 0x1446 JUMP JUMPDEST PUSH4 0x4E487B71 PUSH1 0xE0 SHL DUP6 MSTORE PUSH1 0x11 DUP3 MSTORE PUSH1 0x24 DUP6 REVERT JUMPDEST PUSH4 0x4E487B71 PUSH1 0xE0 SHL DUP8 MSTORE PUSH1 0x11 DUP5 MSTORE PUSH1 0x24 DUP8 REVERT JUMPDEST DUP3 MLOAD PUSH4 0x46C21A55 PUSH1 0xE0 SHL DUP2 MSTORE REVERT JUMPDEST DUP4 DUP4 CALLVALUE PUSH2 0x2ED JUMPI DUP1 PUSH1 0x3 NOT CALLDATASIZE ADD SLT PUSH2 0x2ED JUMPI PUSH2 0x14A3 PUSH2 0x17BC JUMP JUMPDEST SWAP1 CALLER PUSH1 0x1 PUSH1 0x1 PUSH1 0xA0 SHL SUB DUP4 AND SUB PUSH2 0x14C0 JUMPI POP PUSH2 0x370 SWAP2 SWAP3 CALLDATALOAD PUSH2 0x1915 JUMP JUMPDEST MLOAD PUSH4 0x334BD919 PUSH1 0xE1 SHL DUP2 MSTORE DUP4 SWAP1 REVERT JUMPDEST POP POP CALLVALUE PUSH2 0x2ED JUMPI DUP2 PUSH1 0x3 NOT CALLDATASIZE ADD SLT PUSH2 0x2ED JUMPI PUSH1 0x20 SWAP1 MLOAD PUSH32 0x0 DUP2 MSTORE RETURN JUMPDEST POP POP CALLVALUE PUSH2 0x2ED JUMPI DUP2 PUSH1 0x3 NOT CALLDATASIZE ADD SLT PUSH2 0x2ED JUMPI MLOAD PUSH32 0x0 PUSH1 0x1 PUSH1 0x1 PUSH1 0xA0 SHL SUB AND DUP2 MSTORE PUSH1 0x20 SWAP1 RETURN JUMPDEST SWAP2 SWAP1 POP CALLVALUE PUSH2 0x374 JUMPI DUP1 PUSH1 0x3 NOT CALLDATASIZE ADD SLT PUSH2 0x374 JUMPI PUSH2 0x370 SWAP2 CALLDATALOAD PUSH2 0x1573 PUSH1 0x1 PUSH2 0x359 PUSH2 0x17BC JUMP JUMPDEST PUSH2 0x1895 JUMP JUMPDEST SWAP1 POP CALLVALUE PUSH2 0x374 JUMPI PUSH1 0x20 CALLDATASIZE PUSH1 0x3 NOT ADD SLT PUSH2 0x374 JUMPI DUP2 PUSH1 0x20 SWAP4 PUSH1 0x1 SWAP3 CALLDATALOAD DUP2 MSTORE PUSH1 0x2 DUP6 MSTORE KECCAK256 ADD SLOAD SWAP1 MLOAD SWAP1 DUP2 MSTORE RETURN JUMPDEST POP POP CALLVALUE PUSH2 0x2ED JUMPI DUP2 PUSH1 0x3 NOT CALLDATASIZE ADD SLT PUSH2 0x2ED JUMPI PUSH1 0x20 SWAP1 PUSH2 0x15CA PUSH1 0xFF PUSH1 0x7 SLOAD AND SWAP2 MLOAD DUP1 SWAP3 PUSH2 0x17D2 JUMP JUMPDEST RETURN JUMPDEST SWAP2 SWAP1 POP CALLVALUE PUSH2 0x374 JUMPI DUP3 PUSH1 0x3 NOT CALLDATASIZE ADD SLT PUSH2 0x374 JUMPI PUSH1 0x80 SWAP3 POP PUSH1 0x3 SLOAD SWAP2 SLOAD SWAP1 PUSH1 0x5 SLOAD SWAP1 PUSH1 0x6 SLOAD SWAP3 DUP2 MLOAD SWAP5 DUP6 MSTORE PUSH1 0x20 DUP6 ADD MSTORE DUP4 ADD MSTORE PUSH1 0x60 DUP3 ADD MSTORE RETURN JUMPDEST POP POP CALLVALUE PUSH2 0x2ED JUMPI DUP2 PUSH1 0x3 NOT CALLDATASIZE ADD SLT PUSH2 0x2ED JUMPI PUSH1 0x20 SWAP1 MLOAD PUSH32 0x0 DUP2 MSTORE RETURN JUMPDEST POP POP CALLVALUE PUSH2 0x2ED JUMPI PUSH1 0x20 CALLDATASIZE PUSH1 0x3 NOT ADD SLT PUSH2 0x2ED JUMPI PUSH1 0x20 SWAP2 DUP2 SWAP1 PUSH1 0x1 PUSH1 0x1 PUSH1 0xA0 SHL SUB PUSH2 0x1668 PUSH2 0x17A6 JUMP JUMPDEST AND DUP2 MSTORE PUSH1 0xD DUP5 MSTORE KECCAK256 SLOAD SWAP1 MLOAD SWAP1 DUP2 MSTORE RETURN JUMPDEST DUP4 SWAP2 POP CALLVALUE PUSH2 0x2ED JUMPI PUSH2 0x1689 CALLDATASIZE PUSH2 0x1757 JUMP JUMPDEST SWAP2 PUSH2 0x1692 PUSH2 0x17F5 JUMP JUMPDEST PUSH2 0x169A PUSH2 0x1AFF JUMP JUMPDEST PUSH1 0x7 SLOAD SWAP1 PUSH1 0xFF DUP3 AND PUSH1 0x9 DUP2 LT ISZERO PUSH2 0x74A JUMPI PUSH1 0x2 DUP2 EQ ISZERO SWAP1 DUP2 PUSH2 0x16F8 JUMPI JUMPDEST POP PUSH2 0x73C JUMPI POP PUSH32 0x2AC842F90DAB3279148F7E55AC91D911F75C1C300A202A5250E05400B15FA156 SWAP4 SWAP5 PUSH1 0x8 PUSH2 0x736 SWAP3 PUSH1 0xFF NOT AND OR PUSH1 0x7 SSTORE MLOAD SWAP3 DUP4 SWAP3 DUP4 PUSH2 0x1D43 JUMP JUMPDEST PUSH1 0x3 SWAP2 POP EQ ISZERO DUP8 PUSH2 0x16B7 JUMP JUMPDEST DUP5 SWAP2 CALLVALUE PUSH2 0x374 JUMPI PUSH1 0x20 CALLDATASIZE PUSH1 0x3 NOT ADD SLT PUSH2 0x374 JUMPI CALLDATALOAD PUSH4 0xFFFFFFFF PUSH1 0xE0 SHL DUP2 AND DUP1 SWAP2 SUB PUSH2 0x374 JUMPI PUSH1 0x20 SWAP3 POP PUSH4 0x7965DB0B PUSH1 0xE0 SHL DUP2 EQ SWAP1 DUP2 ISZERO PUSH2 0x1746 JUMPI JUMPDEST POP ISZERO ISZERO DUP2 MSTORE RETURN JUMPDEST PUSH4 0x1FFC9A7 PUSH1 0xE0 SHL EQ SWAP1 POP DUP4 PUSH2 0x173F JUMP JUMPDEST SWAP1 PUSH1 0x20 PUSH1 0x3 NOT DUP4 ADD SLT PUSH2 0x17A1 JUMPI PUSH1 0x4 CALLDATALOAD PUSH8 0xFFFFFFFFFFFFFFFF SWAP3 DUP4 DUP3 GT PUSH2 0x17A1 JUMPI DUP1 PUSH1 0x23 DUP4 ADD SLT ISZERO PUSH2 0x17A1 JUMPI DUP2 PUSH1 0x4 ADD CALLDATALOAD SWAP4 DUP5 GT PUSH2 0x17A1 JUMPI PUSH1 0x24 DUP5 DUP4 ADD ADD GT PUSH2 0x17A1 JUMPI PUSH1 0x24 ADD SWAP2 SWAP1 JUMP JUMPDEST PUSH1 0x0 DUP1 REVERT JUMPDEST PUSH1 0x4 CALLDATALOAD SWAP1 PUSH1 0x1 PUSH1 0x1 PUSH1 0xA0 SHL SUB DUP3 AND DUP3 SUB PUSH2 0x17A1 JUMPI JUMP JUMPDEST PUSH1 0x24 CALLDATALOAD SWAP1 PUSH1 0x1 PUSH1 0x1 PUSH1 0xA0 SHL SUB DUP3 AND DUP3 SUB PUSH2 0x17A1 JUMPI JUMP JUMPDEST SWAP1 PUSH1 0x9 DUP3 LT ISZERO PUSH2 0x17DF JUMPI MSTORE JUMP JUMPDEST PUSH4 0x4E487B71 PUSH1 0xE0 SHL PUSH1 0x0 MSTORE PUSH1 0x21 PUSH1 0x4 MSTORE PUSH1 0x24 PUSH1 0x0 REVERT JUMPDEST CALLER PUSH1 0x0 SWAP1 DUP2 MSTORE PUSH32 0xE5EBFA64FCA8D502A8E50C1EDFFD2C31EF4DAD5B396E65D9F397FB028F74ABC5 PUSH1 0x20 MSTORE PUSH1 0x40 SWAP1 KECCAK256 SLOAD PUSH32 0xA49807205CE4D355092EF5A8A18F56E8913CF4A201FBE287825B095693C21775 SWAP1 PUSH1 0xFF AND ISZERO PUSH2 0x1851 JUMPI POP JUMP JUMPDEST PUSH1 0x44 SWAP1 PUSH1 0x40 MLOAD SWAP1 PUSH4 0xE2517D3F PUSH1 0xE0 SHL DUP3 MSTORE CALLER PUSH1 0x4 DUP4 ADD MSTORE PUSH1 0x24 DUP3 ADD MSTORE REVERT JUMPDEST DUP1 PUSH1 0x0 MSTORE PUSH1 0x2 PUSH1 0x20 MSTORE PUSH1 0x40 PUSH1 0x0 KECCAK256 CALLER PUSH1 0x0 MSTORE PUSH1 0x20 MSTORE PUSH1 0xFF PUSH1 0x40 PUSH1 0x0 KECCAK256 SLOAD AND ISZERO PUSH2 0x1851 JUMPI POP JUMP JUMPDEST SWAP1 PUSH1 0x0 SWAP2 DUP1 DUP4 MSTORE PUSH1 0x2 PUSH1 0x20 MSTORE PUSH1 0x40 DUP4 KECCAK256 SWAP2 PUSH1 0x1 DUP1 PUSH1 0xA0 SHL SUB AND SWAP2 DUP3 DUP5 MSTORE PUSH1 0x20 MSTORE PUSH1 0xFF PUSH1 0x40 DUP5 KECCAK256 SLOAD AND ISZERO PUSH1 0x0 EQ PUSH2 0x1910 JUMPI DUP1 DUP4 MSTORE PUSH1 0x2 PUSH1 0x20 MSTORE PUSH1 0x40 DUP4 KECCAK256 DUP3 DUP5 MSTORE PUSH1 0x20 MSTORE PUSH1 0x40 DUP4 KECCAK256 PUSH1 0x1 PUSH1 0xFF NOT DUP3 SLOAD AND OR SWAP1 SSTORE PUSH32 0x2F8788117E7EFF1D82E926EC794901D17C78024A50270940304540A733656F0D CALLER SWAP4 DUP1 LOG4 PUSH1 0x1 SWAP1 JUMP JUMPDEST POP POP SWAP1 JUMP JUMPDEST SWAP1 PUSH1 0x0 SWAP2 DUP1 DUP4 MSTORE PUSH1 0x2 PUSH1 0x20 MSTORE PUSH1 0x40 DUP4 KECCAK256 SWAP2 PUSH1 0x1 DUP1 PUSH1 0xA0 SHL SUB AND SWAP2 DUP3 DUP5 MSTORE PUSH1 0x20 MSTORE PUSH1 0xFF PUSH1 0x40 DUP5 KECCAK256 SLOAD AND PUSH1 0x0 EQ PUSH2 0x1910 JUMPI DUP1 DUP4 MSTORE PUSH1 0x2 PUSH1 0x20 MSTORE PUSH1 0x40 DUP4 KECCAK256 DUP3 DUP5 MSTORE PUSH1 0x20 MSTORE PUSH1 0x40 DUP4 KECCAK256 PUSH1 0xFF NOT DUP2 SLOAD AND SWAP1 SSTORE PUSH32 0xF6391F5C32D9C69D2A47EA670B442974B53935D1EDC7FD64EB21E047A839171B CALLER SWAP4 DUP1 LOG4 PUSH1 0x1 SWAP1 JUMP JUMPDEST PUSH8 0xFFFFFFFFFFFFFFFF DUP2 GT PUSH2 0x19A0 JUMPI PUSH1 0x40 MSTORE JUMP JUMPDEST PUSH4 0x4E487B71 PUSH1 0xE0 SHL PUSH1 0x0 MSTORE PUSH1 0x41 PUSH1 0x4 MSTORE PUSH1 0x24 PUSH1 0x0 REVERT JUMPDEST SWAP1 PUSH1 0x1F DUP1 NOT SWAP2 ADD AND DUP2 ADD SWAP1 DUP2 LT PUSH8 0xFFFFFFFFFFFFFFFF DUP3 GT OR PUSH2 0x19A0 JUMPI PUSH1 0x40 MSTORE JUMP JUMPDEST PUSH1 0x40 MLOAD PUSH4 0x23B872DD PUSH1 0xE0 SHL PUSH1 0x20 DUP3 ADD MSTORE PUSH1 0x1 PUSH1 0x1 PUSH1 0xA0 SHL SUB SWAP3 DUP4 AND PUSH1 0x24 DUP3 ADD MSTORE SWAP3 SWAP1 SWAP2 AND PUSH1 0x44 DUP4 ADD MSTORE PUSH1 0x64 DUP1 DUP4 ADD SWAP4 SWAP1 SWAP4 MSTORE SWAP2 DUP2 MSTORE PUSH1 0xA0 DUP2 ADD SWAP2 DUP2 DUP4 LT PUSH8 0xFFFFFFFFFFFFFFFF DUP5 GT OR PUSH2 0x19A0 JUMPI PUSH2 0x1A31 SWAP3 PUSH1 0x40 MSTORE PUSH2 0x1A33 JUMP JUMPDEST JUMP JUMPDEST SWAP1 PUSH1 0x0 PUSH1 0x20 SWAP2 DUP3 DUP2 MLOAD SWAP2 ADD DUP3 DUP6 GAS CALL ISZERO PUSH2 0x1A8F JUMPI PUSH1 0x0 MLOAD RETURNDATASIZE PUSH2 0x1A86 JUMPI POP PUSH1 0x1 PUSH1 0x1 PUSH1 0xA0 SHL SUB DUP2 AND EXTCODESIZE ISZERO JUMPDEST PUSH2 0x1A64 JUMPI POP JUMP JUMPDEST PUSH1 0x40 MLOAD PUSH4 0x5274AFE7 PUSH1 0xE0 SHL DUP2 MSTORE PUSH1 0x1 PUSH1 0x1 PUSH1 0xA0 SHL SUB SWAP1 SWAP2 AND PUSH1 0x4 DUP3 ADD MSTORE PUSH1 0x24 SWAP1 REVERT JUMPDEST PUSH1 0x1 EQ ISZERO PUSH2 0x1A5D JUMP JUMPDEST PUSH1 0x40 MLOAD RETURNDATASIZE PUSH1 0x0 DUP3 RETURNDATACOPY RETURNDATASIZE SWAP1 REVERT JUMPDEST SWAP2 SWAP1 DUP3 ADD DUP1 SWAP3 GT PUSH2 0x1AA8 JUMPI JUMP JUMPDEST PUSH4 0x4E487B71 PUSH1 0xE0 SHL PUSH1 0x0 MSTORE PUSH1 0x11 PUSH1 0x4 MSTORE PUSH1 0x24 PUSH1 0x0 REVERT JUMPDEST PUSH1 0xFF PUSH1 0x1 SLOAD AND PUSH2 0x1ACA JUMPI JUMP JUMPDEST PUSH1 0x40 MLOAD PUSH4 0xD93C0665 PUSH1 0xE0 SHL DUP2 MSTORE PUSH1 0x4 SWAP1 REVERT JUMPDEST PUSH1 0x2 PUSH1 0x0 SLOAD EQ PUSH2 0x1AED JUMPI PUSH1 0x2 PUSH1 0x0 SSTORE JUMP JUMPDEST PUSH1 0x40 MLOAD PUSH4 0x3EE5AEB5 PUSH1 0xE0 SHL DUP2 MSTORE PUSH1 0x4 SWAP1 REVERT JUMPDEST PUSH1 0x7 SLOAD PUSH1 0xFF DUP2 AND SWAP1 PUSH32 0x0 TIMESTAMP LT ISZERO DUP1 PUSH2 0x1C04 JUMPI JUMPDEST PUSH2 0x1BF4 JUMPI JUMPDEST POP PUSH1 0x7 SLOAD PUSH1 0xFF DUP2 AND PUSH1 0x9 DUP2 LT ISZERO PUSH2 0x17DF JUMPI PUSH1 0x3 EQ DUP1 PUSH2 0x1BCA JUMPI JUMPDEST PUSH2 0x1BBA JUMPI JUMPDEST POP PUSH1 0xFF PUSH1 0x7 SLOAD AND PUSH1 0x9 DUP2 LT ISZERO PUSH2 0x17DF JUMPI PUSH1 0x9 DUP3 LT ISZERO PUSH2 0x17DF JUMPI DUP1 DUP3 SUB PUSH2 0x1B79 JUMPI POP POP JUMP JUMPDEST PUSH32 0xD643A1384921DE4B8AD16DF0A695F1E75FCFE3BCAC27F9C5C8CEE4645872382 SWAP2 PUSH2 0x1BB7 PUSH1 0x40 SWAP3 PUSH2 0x1BAD DUP5 MLOAD DUP1 SWAP5 PUSH2 0x17D2 JUMP JUMPDEST PUSH1 0x20 DUP4 ADD SWAP1 PUSH2 0x17D2 JUMP JUMPDEST LOG1 JUMP JUMPDEST PUSH1 0xFF NOT AND PUSH1 0x4 OR PUSH1 0x7 SSTORE CODESIZE PUSH2 0x1B55 JUMP JUMPDEST POP PUSH32 0x0 TIMESTAMP LT ISZERO PUSH2 0x1B50 JUMP JUMPDEST PUSH1 0xFF NOT AND PUSH1 0x3 OR PUSH1 0x7 SSTORE CODESIZE PUSH2 0x1B36 JUMP JUMPDEST POP PUSH1 0x9 DUP3 LT ISZERO PUSH2 0x17DF JUMPI PUSH1 0x2 DUP3 EQ PUSH2 0x1B31 JUMP JUMPDEST DUP2 DUP2 MUL SWAP3 SWAP2 DUP2 ISZERO SWAP2 DUP5 DIV EQ OR ISZERO PUSH2 0x1AA8 JUMPI JUMP JUMPDEST DUP2 ISZERO PUSH2 0x1C34 JUMPI DIV SWAP1 JUMP JUMPDEST PUSH4 0x4E487B71 PUSH1 0xE0 SHL PUSH1 0x0 MSTORE PUSH1 0x12 PUSH1 0x4 MSTORE PUSH1 0x24 PUSH1 0x0 REVERT JUMPDEST RETURNDATASIZE ISZERO PUSH2 0x1C85 JUMPI RETURNDATASIZE SWAP1 PUSH8 0xFFFFFFFFFFFFFFFF DUP3 GT PUSH2 0x19A0 JUMPI PUSH1 0x40 MLOAD SWAP2 PUSH2 0x1C79 PUSH1 0x1F DUP3 ADD PUSH1 0x1F NOT AND PUSH1 0x20 ADD DUP5 PUSH2 0x19B6 JUMP JUMPDEST DUP3 MSTORE RETURNDATASIZE PUSH1 0x0 PUSH1 0x20 DUP5 ADD RETURNDATACOPY JUMP JUMPDEST PUSH1 0x60 SWAP1 JUMP JUMPDEST PUSH1 0x40 MLOAD PUSH4 0xA9059CBB PUSH1 0xE0 SHL PUSH1 0x20 DUP3 ADD MSTORE PUSH1 0x1 PUSH1 0x1 PUSH1 0xA0 SHL SUB SWAP3 SWAP1 SWAP3 AND PUSH1 0x24 DUP4 ADD MSTORE PUSH1 0x44 DUP1 DUP4 ADD SWAP4 SWAP1 SWAP4 MSTORE SWAP2 DUP2 MSTORE PUSH2 0x1A31 SWAP2 PUSH2 0x1CC6 PUSH1 0x64 DUP4 PUSH2 0x19B6 JUMP JUMPDEST PUSH2 0x1A33 JUMP JUMPDEST PUSH1 0xFF PUSH1 0x7 SLOAD AND PUSH1 0x9 DUP2 LT ISZERO PUSH2 0x17DF JUMPI PUSH1 0x5 SUB PUSH2 0x1D3D JUMPI PUSH1 0x8 SLOAD DUP1 ISZERO PUSH2 0x1D36 JUMPI PUSH2 0x1D33 SWAP2 PUSH1 0x1 DUP1 PUSH1 0xA0 SHL SUB AND PUSH1 0x0 MSTORE PUSH1 0xC PUSH1 0x20 MSTORE PUSH2 0x1D2E PUSH1 0x40 PUSH1 0x0 KECCAK256 SLOAD PUSH32 0x0 SWAP1 PUSH2 0x1C17 JUMP JUMPDEST PUSH2 0x1C2A JUMP JUMPDEST SWAP1 JUMP JUMPDEST POP POP PUSH1 0x0 SWAP1 JUMP JUMPDEST POP PUSH1 0x0 SWAP1 JUMP JUMPDEST SWAP1 SWAP2 DUP1 PUSH1 0x40 SWAP4 PUSH1 0x20 DUP5 MSTORE DUP2 PUSH1 0x20 DUP6 ADD MSTORE DUP5 DUP5 ADD CALLDATACOPY PUSH1 0x0 DUP3 DUP3 ADD DUP5 ADD MSTORE PUSH1 0x1F ADD PUSH1 0x1F NOT AND ADD ADD SWAP1 JUMP INVALID LOG2 PUSH5 0x6970667358 0x22 SLT KECCAK256 MOD 0xFC STATICCALL 0xBB ADDMOD SELFBALANCE MUL PC 0xAB 0xA6 0xBF 0xDD 0xAE 0xDE RETURNDATACOPY 0xB0 EXP DUP16 LT PUSH27 0xCB3768FE45C757078245B44764736F6C634300081400332F878811 PUSH31 0x7EFF1D82E926EC794901D17C78024A50270940304540A733656F0D00000000 "},"methodIdentifiers":{"ADMIN_ROLE()":"75b238fc","DEFAULT_ADMIN_ROLE()":"a217fddf","cancel(string)":"0b4f3f3d","claimRefund()":"b5545a3c","claimTokens()":"48c54b9d","contribute(uint256,address)":"60b0b0f0","contributions(address)":"42e94c90","depositTokens()":"7c4b414d","endTime()":"3197cbb6","feeConfig()":"1e5eb1d0","feeSplitter()":"6052970c","finalPrice()":"a6b513ee","finalizeFail(string)":"a87f966f","finalizeSuccess()":"3871bda5","getContributionInfo(address)":"cd78d92c","getFairlaunchInfo()":"f65f314b","getRoleAdmin(bytes32)":"248a9ca3","getUserAllocation(address)":"b920ade2","grantRole(bytes32,address)":"2f2ff15d","hasClaimed(address)":"73b2e80e","hasRole(bytes32,address)":"91d14854","listingPremiumBps()":"0b7c1ae1","listingPrice()":"c78f19f9","maxContribution()":"8d3d6576","minContribution()":"aaffadf3","pause()":"8456cb59","paused()":"5c975abb","paymentToken()":"3013ce29","projectOwner()":"a4475ce4","referrers(address)":"4a3b68cc","renounceRole(bytes32,address)":"36568abe","returnUnsoldTokens()":"a4a1383f","revokeRole(bytes32,address)":"d547741f","saleToken()":"e985e367","setFeeConfig((uint256,uint256,uint256,uint256))":"a9eddf99","softCap()":"906a26e0","startTime()":"78e97925","status()":"200d2ed2","supportsInterface(bytes4)":"01ffc9a7","tgeTimestamp()":"a4317ef4","tokenAllocations(address)":"0b6d621c","tokenForSale()":"3970f698","totalRaised()":"c5c4744c","unpause()":"3f4ba83a"}}}}}