{"contracts/token/StandardERC20Token.sol":{"StandardERC20Token":{"abi":[{"inputs":[{"internalType":"string","name":"name_","type":"string"},{"internalType":"string","name":"symbol_","type":"string"},{"internalType":"uint8","name":"decimals_","type":"uint8"},{"internalType":"uint256","name":"totalSupply_","type":"uint256"},{"internalType":"address","name":"creator_","type":"address"},{"internalType":"uint256[3]","name":"antiBotConfig_","type":"uint256[3]"}],"stateMutability":"nonpayable","type":"constructor"},{"inputs":[{"internalType":"address","name":"spender","type":"address"},{"internalType":"uint256","name":"allowance","type":"uint256"},{"internalType":"uint256","name":"needed","type":"uint256"}],"name":"ERC20InsufficientAllowance","type":"error"},{"inputs":[{"internalType":"address","name":"sender","type":"address"},{"internalType":"uint256","name":"balance","type":"uint256"},{"internalType":"uint256","name":"needed","type":"uint256"}],"name":"ERC20InsufficientBalance","type":"error"},{"inputs":[{"internalType":"address","name":"approver","type":"address"}],"name":"ERC20InvalidApprover","type":"error"},{"inputs":[{"internalType":"address","name":"receiver","type":"address"}],"name":"ERC20InvalidReceiver","type":"error"},{"inputs":[{"internalType":"address","name":"sender","type":"address"}],"name":"ERC20InvalidSender","type":"error"},{"inputs":[{"internalType":"address","name":"spender","type":"address"}],"name":"ERC20InvalidSpender","type":"error"},{"inputs":[{"internalType":"address","name":"owner","type":"address"}],"name":"OwnableInvalidOwner","type":"error"},{"inputs":[{"internalType":"address","name":"account","type":"address"}],"name":"OwnableUnauthorizedAccount","type":"error"},{"anonymous":false,"inputs":[{"indexed":false,"internalType":"uint256","name":"maxTransactionAmount","type":"uint256"},{"indexed":false,"internalType":"uint256","name":"maxWalletAmount","type":"uint256"},{"indexed":false,"internalType":"uint256","name":"tradingCooldown","type":"uint256"}],"name":"AntiBotConfigured","type":"event"},{"anonymous":false,"inputs":[{"indexed":true,"internalType":"address","name":"owner","type":"address"},{"indexed":true,"internalType":"address","name":"spender","type":"address"},{"indexed":false,"internalType":"uint256","name":"value","type":"uint256"}],"name":"Approval","type":"event"},{"anonymous":false,"inputs":[{"indexed":true,"internalType":"address","name":"account","type":"address"},{"indexed":false,"internalType":"bool","name":"excluded","type":"bool"}],"name":"ExcludedFromLimits","type":"event"},{"anonymous":false,"inputs":[{"indexed":true,"internalType":"address","name":"previousOwner","type":"address"},{"indexed":true,"internalType":"address","name":"newOwner","type":"address"}],"name":"OwnershipTransferred","type":"event"},{"anonymous":false,"inputs":[{"indexed":false,"internalType":"uint256","name":"timestamp","type":"uint256"}],"name":"TradingEnabled","type":"event"},{"anonymous":false,"inputs":[{"indexed":true,"internalType":"address","name":"from","type":"address"},{"indexed":true,"internalType":"address","name":"to","type":"address"},{"indexed":false,"internalType":"uint256","name":"value","type":"uint256"}],"name":"Transfer","type":"event"},{"inputs":[{"internalType":"address","name":"owner","type":"address"},{"internalType":"address","name":"spender","type":"address"}],"name":"allowance","outputs":[{"internalType":"uint256","name":"","type":"uint256"}],"stateMutability":"view","type":"function"},{"inputs":[],"name":"antiBotEnabled","outputs":[{"internalType":"bool","name":"","type":"bool"}],"stateMutability":"view","type":"function"},{"inputs":[{"internalType":"address","name":"spender","type":"address"},{"internalType":"uint256","name":"value","type":"uint256"}],"name":"approve","outputs":[{"internalType":"bool","name":"","type":"bool"}],"stateMutability":"nonpayable","type":"function"},{"inputs":[{"internalType":"address","name":"account","type":"address"}],"name":"balanceOf","outputs":[{"internalType":"uint256","name":"","type":"uint256"}],"stateMutability":"view","type":"function"},{"inputs":[],"name":"decimals","outputs":[{"internalType":"uint8","name":"","type":"uint8"}],"stateMutability":"view","type":"function"},{"inputs":[],"name":"disableAntiBot","outputs":[],"stateMutability":"nonpayable","type":"function"},{"inputs":[],"name":"enableTrading","outputs":[],"stateMutability":"nonpayable","type":"function"},{"inputs":[{"internalType":"address","name":"","type":"address"}],"name":"isExcludedFromLimits","outputs":[{"internalType":"bool","name":"","type":"bool"}],"stateMutability":"view","type":"function"},{"inputs":[],"name":"maxTransactionAmount","outputs":[{"internalType":"uint256","name":"","type":"uint256"}],"stateMutability":"view","type":"function"},{"inputs":[],"name":"maxWalletAmount","outputs":[{"internalType":"uint256","name":"","type":"uint256"}],"stateMutability":"view","type":"function"},{"inputs":[],"name":"name","outputs":[{"internalType":"string","name":"","type":"string"}],"stateMutability":"view","type":"function"},{"inputs":[],"name":"owner","outputs":[{"internalType":"address","name":"","type":"address"}],"stateMutability":"view","type":"function"},{"inputs":[],"name":"renounceOwnership","outputs":[],"stateMutability":"nonpayable","type":"function"},{"inputs":[{"internalType":"address","name":"account","type":"address"},{"internalType":"bool","name":"excluded","type":"bool"}],"name":"setExcludedFromLimits","outputs":[],"stateMutability":"nonpayable","type":"function"},{"inputs":[],"name":"symbol","outputs":[{"internalType":"string","name":"","type":"string"}],"stateMutability":"view","type":"function"},{"inputs":[],"name":"totalSupply","outputs":[{"internalType":"uint256","name":"","type":"uint256"}],"stateMutability":"view","type":"function"},{"inputs":[],"name":"tradingCooldown","outputs":[{"internalType":"uint256","name":"","type":"uint256"}],"stateMutability":"view","type":"function"},{"inputs":[],"name":"tradingEnabledAt","outputs":[{"internalType":"uint256","name":"","type":"uint256"}],"stateMutability":"view","type":"function"},{"inputs":[{"internalType":"address","name":"to","type":"address"},{"internalType":"uint256","name":"value","type":"uint256"}],"name":"transfer","outputs":[{"internalType":"bool","name":"","type":"bool"}],"stateMutability":"nonpayable","type":"function"},{"inputs":[{"internalType":"address","name":"from","type":"address"},{"internalType":"address","name":"to","type":"address"},{"internalType":"uint256","name":"value","type":"uint256"}],"name":"transferFrom","outputs":[{"internalType":"bool","name":"","type":"bool"}],"stateMutability":"nonpayable","type":"function"},{"inputs":[{"internalType":"address","name":"newOwner","type":"address"}],"name":"transferOwnership","outputs":[],"stateMutability":"nonpayable","type":"function"},{"inputs":[{"internalType":"uint256","name":"maxTxPercent","type":"uint256"},{"internalType":"uint256","name":"maxWalletPercent","type":"uint256"},{"internalType":"uint256","name":"cooldownSeconds","type":"uint256"}],"name":"updateAntiBotConfig","outputs":[],"stateMutability":"nonpayable","type":"function"}],"evm":{"bytecode":{"linkReferences":{},"object":"604060a08152346200072957620017ad803803806200001e816200072e565b928339810190610100918282820312620007295781516001600160401b0381116200072957816200005191840162000754565b60208301519091906001600160401b0381116200072957816200007691850162000754565b91858401519060ff82168203620007295760608501516080860151969093906001600160a01b038816880362000729578160bf880112156200072957885196606088016001600160401b03811189821017620005d1578a5287918101928311620007295760a001905b8282106200071857505081519190506001600160401b038211620005d15760035490600182811c921680156200070d575b6020831014620006f75781601f84931162000682575b50602090601f8311600114620005f357600092620005e7575b50508160011b916000199060031b1c1916176003555b82516001600160401b038111620005d1576004938454600181811c91168015620005c6575b6020821014620005b1579081601f84931162000559575b50602090601f8311600114620004ee57600092620004e2575b50508160011b916000199060031b1c19161783555b6001600160a01b03851615620004cb57600580546001600160a01b038781166001600160a01b031983168117909355167f8be0079c531659141344cd1fd0a4f28419497f9722a3daafe3b4186f6b6457e0600080a381156200047c5760805260025481810180911162000467576002556001600160a01b0384166000818152602081815287822080548501905587518481528895949392917fddf252ad1be2c89b69c2b068fc378daa952ba7f163c4a11628f55a4df523b3ef91a3835180158015809162000459575b80156200044c575b620002e6575b848760018060a01b0316600052600b6020528060002060ff19906001828254161790553060005260018260002091825416179055600060095551610f9c9081620007f18239608051816107c40152f35b6005805460ff60a01b1916600160a01b179055620003de575b5060208401805192836200034e575b505050506060906000805160206200178d83398151915292015180600855600654906007548651928352602083015285820152a138828180808062000296565b9091929350612710809411620003905750926060926200038287936000805160206200178d833981519152965190620007c6565b04600755928192386200030e565b608490602088519162461bcd60e51b8352820152602260248201527f4d61782077616c6c65742070657263656e74206d757374206265203c3d203130604482015261302560f01b6064820152fd5b90919250612710809111620004095790859291620003fe855183620007c6565b0460065538620002ff565b855162461bcd60e51b8152602081850152601e60248201527f4d61782074782070657263656e74206d757374206265203c3d203130302500006044820152606490fd5b5084860151151562000290565b506020860151151562000288565b601183634e487b7160e01b6000525260246000fd5b855162461bcd60e51b8152602081850152602360248201527f546f74616c20737570706c79206d75737420626520677265617465722074686160448201526206e20360ec1b6064820152608490fd5b8551631e4fbdf760e01b8152600081850152602490fd5b015190503880620001aa565b6000878152602081209350601f198516905b81811062000540575090846001959493921062000526575b505050811b018355620001bf565b015160001960f88460031b161c1916905538808062000518565b9293602060018192878601518155019501930162000500565b909150856000526020600020601f840160051c81019160208510620005a6575b90601f859493920160051c01905b81811062000596575062000191565b6000815584935060010162000587565b909150819062000579565b602286634e487b7160e01b6000525260246000fd5b90607f16906200017a565b634e487b7160e01b600052604160045260246000fd5b0151905038806200013f565b6003600090815293507fc2575a0e9e593c00f959f8c92f12db2869c3395a3b0502d05e2516446f71f85b91905b601f198416851062000666576001945083601f198116106200064c575b505050811b0160035562000155565b015160001960f88460031b161c191690553880806200063d565b8181015183556020948501946001909301929091019062000620565b60036000529091507fc2575a0e9e593c00f959f8c92f12db2869c3395a3b0502d05e2516446f71f85b601f840160051c81019160208510620006ec575b90601f859493920160051c01905b818110620006dc575062000126565b60008155849350600101620006cd565b9091508190620006bf565b634e487b7160e01b600052602260045260246000fd5b91607f169162000110565b8151815260209182019101620000df565b600080fd5b6040519190601f01601f191682016001600160401b03811183821017620005d157604052565b919080601f84011215620007295782516001600160401b038111620005d1576020906200078a601f8201601f191683016200072e565b92818452828287010111620007295760005b818110620007b257508260009394955001015290565b85810183015184820184015282016200079c565b81810292918115918404141715620007da57565b634e487b7160e01b600052601160045260246000fdfe6080604081815260048036101561001557600080fd5b600092833560e01c90816306fdde03146109d85750806307ce9de4146109a3578063095ea7b3146108fa57806318160ddd146108db57806323b872dd146107e8578063313ce567146107aa57806334b7f7ae1461078b57806336fddb04146107095780635cce86cd146106cb57806370a0823114610694578063715018a6146106345780638a8c523c146105a15780638da5cb5b146105785780638ec3e56b146103ad57806395d89b41146102a9578063a9059cbb14610278578063aa4bde2814610259578063c31fe80a1461023a578063c8c8ebe41461021b578063d8c6404b146101f4578063dd62ed3e146101a75763f2fde38b1461011557600080fd5b346101a35760203660031901126101a35761012e610b13565b90610137610b44565b6001600160a01b0391821692831561018d575050600554826bffffffffffffffffffffffff60a01b821617600555167f8be0079c531659141344cd1fd0a4f28419497f9722a3daafe3b4186f6b6457e08380a380f35b51631e4fbdf760e01b8152908101849052602490fd5b8280fd5b5050346101f057806003193601126101f057806020926101c5610b13565b6101cd610b2e565b6001600160a01b0391821683526001865283832091168252845220549051908152f35b5080fd5b5050346101f057816003193601126101f05760209060ff60055460a01c1690519015158152f35b5050346101f057816003193601126101f0576020906006549051908152f35b5050346101f057816003193601126101f0576020906009549051908152f35b5050346101f057816003193601126101f0576020906007549051908152f35b5050346101f057806003193601126101f0576020906102a2610298610b13565b6024359033610ba8565b5160018152f35b509190346101f057816003193601126101f057805191809380549160019083821c928285169485156103a3575b60209586861081146103905785895290811561036c5750600114610314575b6103108787610306828c0383610b70565b5191829182610aca565b0390f35b81529295507f8a35acfbc15ff81a39ae7d344fd709f28e8600b4aa8c65c6b64bfe7fe36bd19b5b828410610359575050508261031094610306928201019438806102f5565b805486850188015292860192810161033b565b60ff19168887015250505050151560051b83010192506103068261031038806102f5565b634e487b7160e01b845260228352602484fd5b93607f16936102d6565b508290346101f05760603660031901126101f0578035906103cc610b44565b6002548451926060840184811067ffffffffffffffff82111761056557865280845260208401906024358252868501946044358652600160a01b60ff60a01b19600554161760055581610502575b505080519283610468575b857fe906abdb2bbfab8f7aeebbd422efec75b734b8569d84012ae5c0513aa39aaf146060898851806008556006549160075481519384526020840152820152a180f35b6127108094116104b45750916104a6606094927fe906abdb2bbfab8f7aeebbd422efec75b734b8569d84012ae5c0513aa39aaf149697945190610f53565b046007559181949386610425565b608490602088519162461bcd60e51b8352820152602260248201527f4d61782077616c6c65742070657263656e74206d757374206265203c3d203130604482015261302560f01b6064820152fd5b61271080921161052257610517905184610f53565b04600655868061041a565b875162461bcd60e51b8152602081870152601e60248201527f4d61782074782070657263656e74206d757374206265203c3d203130302500006044820152606490fd5b634e487b7160e01b865260418452602486fd5b5050346101f057816003193601126101f05760055490516001600160a01b039091168152602090f35b50346101a357826003193601126101a3576105ba610b44565b6009546105f2575060207fb3da2db3dfc3778f99852546c6e9ab39ec253f9de7b0847afec61bd27878e923914260095551428152a180f35b6020606492519162461bcd60e51b8352820152601760248201527f54726164696e6720616c726561647920656e61626c65640000000000000000006044820152fd5b833461069157806003193601126106915761064d610b44565b600580546001600160a01b0319811690915581906001600160a01b03167f8be0079c531659141344cd1fd0a4f28419497f9722a3daafe3b4186f6b6457e08280a380f35b80fd5b5050346101f05760203660031901126101f05760209181906001600160a01b036106bc610b13565b16815280845220549051908152f35b5050346101f05760203660031901126101f05760209160ff9082906001600160a01b036106f6610b13565b168152600b855220541690519015158152f35b5050346101f057806003193601126101f057610723610b13565b60243590811515809203610787577f74392251b09500cc108c71712e5e7e0392be9075a74a24f1494551cfa8e068709160209161075e610b44565b6001600160a01b0316808652600b8352848620805460ff191660ff84161790559351908152a280f35b8380fd5b5050346101f057816003193601126101f0576020906008549051908152f35b5050346101f057816003193601126101f0576020905160ff7f0000000000000000000000000000000000000000000000000000000000000000168152f35b50823461069157606036600319011261069157610803610b13565b61080b610b2e565b916044359360018060a01b038316808352600160205286832033845260205286832054916000198310610847575b6020886102a2898989610ba8565b8683106108af578115610898573315610881575082526001602090815286832033845281529186902090859003905582906102a287610839565b8751634a1406b160e11b8152908101849052602490fd5b875163e602df0560e01b8152908101849052602490fd5b8751637dc7a0d960e11b8152339181019182526020820193909352604081018790528291506060010390fd5b5050346101f057816003193601126101f0576020906002549051908152f35b50346101a357816003193601126101a357610913610b13565b60243590331561098c576001600160a01b031691821561097557508083602095338152600187528181208582528752205582519081527f8c5be1e5ebec7d5bd14f71427d1e84f3dd0314c0f7b2291e5b200ac8c7c3b925843392a35160018152f35b8351634a1406b160e11b8152908101859052602490fd5b835163e602df0560e01b8152808401869052602490fd5b83346106915780600319360112610691576109bc610b44565b60ff60a01b196005541660055580600655806007558060085580f35b9291905034610787578360031936011261078757600354600181811c9186908281168015610ac0575b6020958686108214610aad5750848852908115610a8b5750600114610a32575b6103108686610306828b0383610b70565b929550600383527fc2575a0e9e593c00f959f8c92f12db2869c3395a3b0502d05e2516446f71f85b5b828410610a78575050508261031094610306928201019438610a21565b8054868501880152928601928101610a5b565b60ff191687860152505050151560051b83010192506103068261031038610a21565b634e487b7160e01b845260229052602483fd5b93607f1693610a01565b6020808252825181830181905290939260005b828110610aff57505060409293506000838284010152601f8019910116010190565b818101860151848201604001528501610add565b600435906001600160a01b0382168203610b2957565b600080fd5b602435906001600160a01b0382168203610b2957565b6005546001600160a01b03163303610b5857565b60405163118cdaa760e01b8152336004820152602490fd5b90601f8019910116810190811067ffffffffffffffff821117610b9257604052565b634e487b7160e01b600052604160045260246000fd5b91906001600160a01b0380841615610be557811615610bcc57610bca92610c21565b565b60405163ec442f0560e01b815260006004820152602490fd5b604051634b637e8f60e11b815260006004820152602490fd5b91908201809211610c0b57565b634e487b7160e01b600052601160045260246000fd5b6001600160a01b038082169392919084158015610e4c575b8015610e34575b8015610e1a575b610c615760095415610dd55760ff60055460a01c16610c6c575b50610bca9350610e56565b60065480610d84575b506007549081151580610d79575b610d0f575b50506008548015610c6157610cab9085600052600a602052604060002054610bfe565b4210610cca57610bca93600052600a6020524260406000205538610c61565b60405162461bcd60e51b815260206004820152601860248201527f5472616e7366657220636f6f6c646f776e2061637469766500000000000000006044820152606490fd5b83166000526000602052610d2884604060002054610bfe565b11610d34573880610c88565b60405162461bcd60e51b815260206004820152601960248201527f45786365656473206d61782077616c6c657420616d6f756e74000000000000006044820152606490fd5b508084161515610c83565b8411610d905738610c75565b60405162461bcd60e51b815260206004820152601e60248201527f45786365656473206d6178207472616e73616374696f6e20616d6f756e7400006044820152606490fd5b60405162461bcd60e51b815260206004820152601760248201527f54726164696e67206e6f7420656e61626c6564207965740000000000000000006044820152606490fd5b50808316600052600b60205260ff60406000205416610c47565b5084600052600b60205260ff60406000205416610c40565b5080831615610c39565b6001600160a01b0380821692909183610ed057507fddf252ad1be2c89b69c2b068fc378daa952ba7f163c4a11628f55a4df523b3ef91602091610e9b86600254610bfe565b6002555b169384610eb85780600254036002555b604051908152a3565b84600052600082526040600020818154019055610eaf565b60009084825281602052604082205490868210610f2157509181604087602095887fddf252ad1be2c89b69c2b068fc378daa952ba7f163c4a11628f55a4df523b3ef98965283875203912055610e9f565b60405163391434e360e21b81526001600160a01b03919091166004820152602481019190915260448101869052606490fd5b81810292918115918404141715610c0b5756fea2646970667358221220bb079529b22137dbd6531031c3349a92c022be3587205ad764085b253476404164736f6c63430008140033e906abdb2bbfab8f7aeebbd422efec75b734b8569d84012ae5c0513aa39aaf14","opcodes":"PUSH1 0x40 PUSH1 0xA0 DUP2 MSTORE CALLVALUE PUSH3 0x729 JUMPI PUSH3 0x17AD DUP1 CODESIZE SUB DUP1 PUSH3 0x1E DUP2 PUSH3 0x72E JUMP JUMPDEST SWAP3 DUP4 CODECOPY DUP2 ADD SWAP1 PUSH2 0x100 SWAP2 DUP3 DUP3 DUP3 SUB SLT PUSH3 0x729 JUMPI DUP2 MLOAD PUSH1 0x1 PUSH1 0x1 PUSH1 0x40 SHL SUB DUP2 GT PUSH3 0x729 JUMPI DUP2 PUSH3 0x51 SWAP2 DUP5 ADD PUSH3 0x754 JUMP JUMPDEST PUSH1 0x20 DUP4 ADD MLOAD SWAP1 SWAP2 SWAP1 PUSH1 0x1 PUSH1 0x1 PUSH1 0x40 SHL SUB DUP2 GT PUSH3 0x729 JUMPI DUP2 PUSH3 0x76 SWAP2 DUP6 ADD PUSH3 0x754 JUMP JUMPDEST SWAP2 DUP6 DUP5 ADD MLOAD SWAP1 PUSH1 0xFF DUP3 AND DUP3 SUB PUSH3 0x729 JUMPI PUSH1 0x60 DUP6 ADD MLOAD PUSH1 0x80 DUP7 ADD MLOAD SWAP7 SWAP1 SWAP4 SWAP1 PUSH1 0x1 PUSH1 0x1 PUSH1 0xA0 SHL SUB DUP9 AND DUP9 SUB PUSH3 0x729 JUMPI DUP2 PUSH1 0xBF DUP9 ADD SLT ISZERO PUSH3 0x729 JUMPI DUP9 MLOAD SWAP7 PUSH1 0x60 DUP9 ADD PUSH1 0x1 PUSH1 0x1 PUSH1 0x40 SHL SUB DUP2 GT DUP10 DUP3 LT OR PUSH3 0x5D1 JUMPI DUP11 MSTORE DUP8 SWAP2 DUP2 ADD SWAP3 DUP4 GT PUSH3 0x729 JUMPI PUSH1 0xA0 ADD SWAP1 JUMPDEST DUP3 DUP3 LT PUSH3 0x718 JUMPI POP POP DUP2 MLOAD SWAP2 SWAP1 POP PUSH1 0x1 PUSH1 0x1 PUSH1 0x40 SHL SUB DUP3 GT PUSH3 0x5D1 JUMPI PUSH1 0x3 SLOAD SWAP1 PUSH1 0x1 DUP3 DUP2 SHR SWAP3 AND DUP1 ISZERO PUSH3 0x70D JUMPI JUMPDEST PUSH1 0x20 DUP4 LT EQ PUSH3 0x6F7 JUMPI DUP2 PUSH1 0x1F DUP5 SWAP4 GT PUSH3 0x682 JUMPI JUMPDEST POP PUSH1 0x20 SWAP1 PUSH1 0x1F DUP4 GT PUSH1 0x1 EQ PUSH3 0x5F3 JUMPI PUSH1 0x0 SWAP3 PUSH3 0x5E7 JUMPI JUMPDEST POP POP DUP2 PUSH1 0x1 SHL SWAP2 PUSH1 0x0 NOT SWAP1 PUSH1 0x3 SHL SHR NOT AND OR PUSH1 0x3 SSTORE JUMPDEST DUP3 MLOAD PUSH1 0x1 PUSH1 0x1 PUSH1 0x40 SHL SUB DUP2 GT PUSH3 0x5D1 JUMPI PUSH1 0x4 SWAP4 DUP5 SLOAD PUSH1 0x1 DUP2 DUP2 SHR SWAP2 AND DUP1 ISZERO PUSH3 0x5C6 JUMPI JUMPDEST PUSH1 0x20 DUP3 LT EQ PUSH3 0x5B1 JUMPI SWAP1 DUP2 PUSH1 0x1F DUP5 SWAP4 GT PUSH3 0x559 JUMPI JUMPDEST POP PUSH1 0x20 SWAP1 PUSH1 0x1F DUP4 GT PUSH1 0x1 EQ PUSH3 0x4EE JUMPI PUSH1 0x0 SWAP3 PUSH3 0x4E2 JUMPI JUMPDEST POP POP DUP2 PUSH1 0x1 SHL SWAP2 PUSH1 0x0 NOT SWAP1 PUSH1 0x3 SHL SHR NOT AND OR DUP4 SSTORE JUMPDEST PUSH1 0x1 PUSH1 0x1 PUSH1 0xA0 SHL SUB DUP6 AND ISZERO PUSH3 0x4CB JUMPI PUSH1 0x5 DUP1 SLOAD PUSH1 0x1 PUSH1 0x1 PUSH1 0xA0 SHL SUB DUP8 DUP2 AND PUSH1 0x1 PUSH1 0x1 PUSH1 0xA0 SHL SUB NOT DUP4 AND DUP2 OR SWAP1 SWAP4 SSTORE AND PUSH32 0x8BE0079C531659141344CD1FD0A4F28419497F9722A3DAAFE3B4186F6B6457E0 PUSH1 0x0 DUP1 LOG3 DUP2 ISZERO PUSH3 0x47C JUMPI PUSH1 0x80 MSTORE PUSH1 0x2 SLOAD DUP2 DUP2 ADD DUP1 SWAP2 GT PUSH3 0x467 JUMPI PUSH1 0x2 SSTORE PUSH1 0x1 PUSH1 0x1 PUSH1 0xA0 SHL SUB DUP5 AND PUSH1 0x0 DUP2 DUP2 MSTORE PUSH1 0x20 DUP2 DUP2 MSTORE DUP8 DUP3 KECCAK256 DUP1 SLOAD DUP6 ADD SWAP1 SSTORE DUP8 MLOAD DUP5 DUP2 MSTORE DUP9 SWAP6 SWAP5 SWAP4 SWAP3 SWAP2 PUSH32 0xDDF252AD1BE2C89B69C2B068FC378DAA952BA7F163C4A11628F55A4DF523B3EF SWAP2 LOG3 DUP4 MLOAD DUP1 ISZERO DUP1 ISZERO DUP1 SWAP2 PUSH3 0x459 JUMPI JUMPDEST DUP1 ISZERO PUSH3 0x44C JUMPI JUMPDEST PUSH3 0x2E6 JUMPI JUMPDEST DUP5 DUP8 PUSH1 0x1 DUP1 PUSH1 0xA0 SHL SUB AND PUSH1 0x0 MSTORE PUSH1 0xB PUSH1 0x20 MSTORE DUP1 PUSH1 0x0 KECCAK256 PUSH1 0xFF NOT SWAP1 PUSH1 0x1 DUP3 DUP3 SLOAD AND OR SWAP1 SSTORE ADDRESS PUSH1 0x0 MSTORE PUSH1 0x1 DUP3 PUSH1 0x0 KECCAK256 SWAP2 DUP3 SLOAD AND OR SWAP1 SSTORE PUSH1 0x0 PUSH1 0x9 SSTORE MLOAD PUSH2 0xF9C SWAP1 DUP2 PUSH3 0x7F1 DUP3 CODECOPY PUSH1 0x80 MLOAD DUP2 PUSH2 0x7C4 ADD MSTORE RETURN JUMPDEST PUSH1 0x5 DUP1 SLOAD PUSH1 0xFF PUSH1 0xA0 SHL NOT AND PUSH1 0x1 PUSH1 0xA0 SHL OR SWAP1 SSTORE PUSH3 0x3DE JUMPI JUMPDEST POP PUSH1 0x20 DUP5 ADD DUP1 MLOAD SWAP3 DUP4 PUSH3 0x34E JUMPI JUMPDEST POP POP POP POP PUSH1 0x60 SWAP1 PUSH1 0x0 DUP1 MLOAD PUSH1 0x20 PUSH3 0x178D DUP4 CODECOPY DUP2 MLOAD SWAP2 MSTORE SWAP3 ADD MLOAD DUP1 PUSH1 0x8 SSTORE PUSH1 0x6 SLOAD SWAP1 PUSH1 0x7 SLOAD DUP7 MLOAD SWAP3 DUP4 MSTORE PUSH1 0x20 DUP4 ADD MSTORE DUP6 DUP3 ADD MSTORE LOG1 CODESIZE DUP3 DUP2 DUP1 DUP1 DUP1 PUSH3 0x296 JUMP JUMPDEST SWAP1 SWAP2 SWAP3 SWAP4 POP PUSH2 0x2710 DUP1 SWAP5 GT PUSH3 0x390 JUMPI POP SWAP3 PUSH1 0x60 SWAP3 PUSH3 0x382 DUP8 SWAP4 PUSH1 0x0 DUP1 MLOAD PUSH1 0x20 PUSH3 0x178D DUP4 CODECOPY DUP2 MLOAD SWAP2 MSTORE SWAP7 MLOAD SWAP1 PUSH3 0x7C6 JUMP JUMPDEST DIV PUSH1 0x7 SSTORE SWAP3 DUP2 SWAP3 CODESIZE PUSH3 0x30E JUMP JUMPDEST PUSH1 0x84 SWAP1 PUSH1 0x20 DUP9 MLOAD SWAP2 PUSH3 0x461BCD PUSH1 0xE5 SHL DUP4 MSTORE DUP3 ADD MSTORE PUSH1 0x22 PUSH1 0x24 DUP3 ADD MSTORE PUSH32 0x4D61782077616C6C65742070657263656E74206D757374206265203C3D203130 PUSH1 0x44 DUP3 ADD MSTORE PUSH2 0x3025 PUSH1 0xF0 SHL PUSH1 0x64 DUP3 ADD MSTORE REVERT JUMPDEST SWAP1 SWAP2 SWAP3 POP PUSH2 0x2710 DUP1 SWAP2 GT PUSH3 0x409 JUMPI SWAP1 DUP6 SWAP3 SWAP2 PUSH3 0x3FE DUP6 MLOAD DUP4 PUSH3 0x7C6 JUMP JUMPDEST DIV PUSH1 0x6 SSTORE CODESIZE PUSH3 0x2FF JUMP JUMPDEST DUP6 MLOAD PUSH3 0x461BCD PUSH1 0xE5 SHL DUP2 MSTORE PUSH1 0x20 DUP2 DUP6 ADD MSTORE PUSH1 0x1E PUSH1 0x24 DUP3 ADD MSTORE PUSH32 0x4D61782074782070657263656E74206D757374206265203C3D20313030250000 PUSH1 0x44 DUP3 ADD MSTORE PUSH1 0x64 SWAP1 REVERT JUMPDEST POP DUP5 DUP7 ADD MLOAD ISZERO ISZERO PUSH3 0x290 JUMP JUMPDEST POP PUSH1 0x20 DUP7 ADD MLOAD ISZERO ISZERO PUSH3 0x288 JUMP JUMPDEST PUSH1 0x11 DUP4 PUSH4 0x4E487B71 PUSH1 0xE0 SHL PUSH1 0x0 MSTORE MSTORE PUSH1 0x24 PUSH1 0x0 REVERT JUMPDEST DUP6 MLOAD PUSH3 0x461BCD PUSH1 0xE5 SHL DUP2 MSTORE PUSH1 0x20 DUP2 DUP6 ADD MSTORE PUSH1 0x23 PUSH1 0x24 DUP3 ADD MSTORE PUSH32 0x546F74616C20737570706C79206D757374206265206772656174657220746861 PUSH1 0x44 DUP3 ADD MSTORE PUSH3 0x6E203 PUSH1 0xEC SHL PUSH1 0x64 DUP3 ADD MSTORE PUSH1 0x84 SWAP1 REVERT JUMPDEST DUP6 MLOAD PUSH4 0x1E4FBDF7 PUSH1 0xE0 SHL DUP2 MSTORE PUSH1 0x0 DUP2 DUP6 ADD MSTORE PUSH1 0x24 SWAP1 REVERT JUMPDEST ADD MLOAD SWAP1 POP CODESIZE DUP1 PUSH3 0x1AA JUMP JUMPDEST PUSH1 0x0 DUP8 DUP2 MSTORE PUSH1 0x20 DUP2 KECCAK256 SWAP4 POP PUSH1 0x1F NOT DUP6 AND SWAP1 JUMPDEST DUP2 DUP2 LT PUSH3 0x540 JUMPI POP SWAP1 DUP5 PUSH1 0x1 SWAP6 SWAP5 SWAP4 SWAP3 LT PUSH3 0x526 JUMPI JUMPDEST POP POP POP DUP2 SHL ADD DUP4 SSTORE PUSH3 0x1BF JUMP JUMPDEST ADD MLOAD PUSH1 0x0 NOT PUSH1 0xF8 DUP5 PUSH1 0x3 SHL AND SHR NOT AND SWAP1 SSTORE CODESIZE DUP1 DUP1 PUSH3 0x518 JUMP JUMPDEST SWAP3 SWAP4 PUSH1 0x20 PUSH1 0x1 DUP2 SWAP3 DUP8 DUP7 ADD MLOAD DUP2 SSTORE ADD SWAP6 ADD SWAP4 ADD PUSH3 0x500 JUMP JUMPDEST SWAP1 SWAP2 POP DUP6 PUSH1 0x0 MSTORE PUSH1 0x20 PUSH1 0x0 KECCAK256 PUSH1 0x1F DUP5 ADD PUSH1 0x5 SHR DUP2 ADD SWAP2 PUSH1 0x20 DUP6 LT PUSH3 0x5A6 JUMPI JUMPDEST SWAP1 PUSH1 0x1F DUP6 SWAP5 SWAP4 SWAP3 ADD PUSH1 0x5 SHR ADD SWAP1 JUMPDEST DUP2 DUP2 LT PUSH3 0x596 JUMPI POP PUSH3 0x191 JUMP JUMPDEST PUSH1 0x0 DUP2 SSTORE DUP5 SWAP4 POP PUSH1 0x1 ADD PUSH3 0x587 JUMP JUMPDEST SWAP1 SWAP2 POP DUP2 SWAP1 PUSH3 0x579 JUMP JUMPDEST PUSH1 0x22 DUP7 PUSH4 0x4E487B71 PUSH1 0xE0 SHL PUSH1 0x0 MSTORE MSTORE PUSH1 0x24 PUSH1 0x0 REVERT JUMPDEST SWAP1 PUSH1 0x7F AND SWAP1 PUSH3 0x17A JUMP JUMPDEST PUSH4 0x4E487B71 PUSH1 0xE0 SHL PUSH1 0x0 MSTORE PUSH1 0x41 PUSH1 0x4 MSTORE PUSH1 0x24 PUSH1 0x0 REVERT JUMPDEST ADD MLOAD SWAP1 POP CODESIZE DUP1 PUSH3 0x13F JUMP JUMPDEST PUSH1 0x3 PUSH1 0x0 SWAP1 DUP2 MSTORE SWAP4 POP PUSH32 0xC2575A0E9E593C00F959F8C92F12DB2869C3395A3B0502D05E2516446F71F85B SWAP2 SWAP1 JUMPDEST PUSH1 0x1F NOT DUP5 AND DUP6 LT PUSH3 0x666 JUMPI PUSH1 0x1 SWAP5 POP DUP4 PUSH1 0x1F NOT DUP2 AND LT PUSH3 0x64C JUMPI JUMPDEST POP POP POP DUP2 SHL ADD PUSH1 0x3 SSTORE PUSH3 0x155 JUMP JUMPDEST ADD MLOAD PUSH1 0x0 NOT PUSH1 0xF8 DUP5 PUSH1 0x3 SHL AND SHR NOT AND SWAP1 SSTORE CODESIZE DUP1 DUP1 PUSH3 0x63D JUMP JUMPDEST DUP2 DUP2 ADD MLOAD DUP4 SSTORE PUSH1 0x20 SWAP5 DUP6 ADD SWAP5 PUSH1 0x1 SWAP1 SWAP4 ADD SWAP3 SWAP1 SWAP2 ADD SWAP1 PUSH3 0x620 JUMP JUMPDEST PUSH1 0x3 PUSH1 0x0 MSTORE SWAP1 SWAP2 POP PUSH32 0xC2575A0E9E593C00F959F8C92F12DB2869C3395A3B0502D05E2516446F71F85B PUSH1 0x1F DUP5 ADD PUSH1 0x5 SHR DUP2 ADD SWAP2 PUSH1 0x20 DUP6 LT PUSH3 0x6EC JUMPI JUMPDEST SWAP1 PUSH1 0x1F DUP6 SWAP5 SWAP4 SWAP3 ADD PUSH1 0x5 SHR ADD SWAP1 JUMPDEST DUP2 DUP2 LT PUSH3 0x6DC JUMPI POP PUSH3 0x126 JUMP JUMPDEST PUSH1 0x0 DUP2 SSTORE DUP5 SWAP4 POP PUSH1 0x1 ADD PUSH3 0x6CD JUMP JUMPDEST SWAP1 SWAP2 POP DUP2 SWAP1 PUSH3 0x6BF JUMP JUMPDEST PUSH4 0x4E487B71 PUSH1 0xE0 SHL PUSH1 0x0 MSTORE PUSH1 0x22 PUSH1 0x4 MSTORE PUSH1 0x24 PUSH1 0x0 REVERT JUMPDEST SWAP2 PUSH1 0x7F AND SWAP2 PUSH3 0x110 JUMP JUMPDEST DUP2 MLOAD DUP2 MSTORE PUSH1 0x20 SWAP2 DUP3 ADD SWAP2 ADD PUSH3 0xDF JUMP JUMPDEST PUSH1 0x0 DUP1 REVERT JUMPDEST PUSH1 0x40 MLOAD SWAP2 SWAP1 PUSH1 0x1F ADD PUSH1 0x1F NOT AND DUP3 ADD PUSH1 0x1 PUSH1 0x1 PUSH1 0x40 SHL SUB DUP2 GT DUP4 DUP3 LT OR PUSH3 0x5D1 JUMPI PUSH1 0x40 MSTORE JUMP JUMPDEST SWAP2 SWAP1 DUP1 PUSH1 0x1F DUP5 ADD SLT ISZERO PUSH3 0x729 JUMPI DUP3 MLOAD PUSH1 0x1 PUSH1 0x1 PUSH1 0x40 SHL SUB DUP2 GT PUSH3 0x5D1 JUMPI PUSH1 0x20 SWAP1 PUSH3 0x78A PUSH1 0x1F DUP3 ADD PUSH1 0x1F NOT AND DUP4 ADD PUSH3 0x72E JUMP JUMPDEST SWAP3 DUP2 DUP5 MSTORE DUP3 DUP3 DUP8 ADD ADD GT PUSH3 0x729 JUMPI PUSH1 0x0 JUMPDEST DUP2 DUP2 LT PUSH3 0x7B2 JUMPI POP DUP3 PUSH1 0x0 SWAP4 SWAP5 SWAP6 POP ADD ADD MSTORE SWAP1 JUMP JUMPDEST DUP6 DUP2 ADD DUP4 ADD MLOAD DUP5 DUP3 ADD DUP5 ADD MSTORE DUP3 ADD PUSH3 0x79C JUMP JUMPDEST DUP2 DUP2 MUL SWAP3 SWAP2 DUP2 ISZERO SWAP2 DUP5 DIV EQ OR ISZERO PUSH3 0x7DA JUMPI JUMP JUMPDEST PUSH4 0x4E487B71 PUSH1 0xE0 SHL PUSH1 0x0 MSTORE PUSH1 0x11 PUSH1 0x4 MSTORE PUSH1 0x24 PUSH1 0x0 REVERT INVALID PUSH1 0x80 PUSH1 0x40 DUP2 DUP2 MSTORE PUSH1 0x4 DUP1 CALLDATASIZE LT ISZERO PUSH2 0x15 JUMPI PUSH1 0x0 DUP1 REVERT JUMPDEST PUSH1 0x0 SWAP3 DUP4 CALLDATALOAD PUSH1 0xE0 SHR SWAP1 DUP2 PUSH4 0x6FDDE03 EQ PUSH2 0x9D8 JUMPI POP DUP1 PUSH4 0x7CE9DE4 EQ PUSH2 0x9A3 JUMPI DUP1 PUSH4 0x95EA7B3 EQ PUSH2 0x8FA JUMPI DUP1 PUSH4 0x18160DDD EQ PUSH2 0x8DB JUMPI DUP1 PUSH4 0x23B872DD EQ PUSH2 0x7E8 JUMPI DUP1 PUSH4 0x313CE567 EQ PUSH2 0x7AA JUMPI DUP1 PUSH4 0x34B7F7AE EQ PUSH2 0x78B JUMPI DUP1 PUSH4 0x36FDDB04 EQ PUSH2 0x709 JUMPI DUP1 PUSH4 0x5CCE86CD EQ PUSH2 0x6CB JUMPI DUP1 PUSH4 0x70A08231 EQ PUSH2 0x694 JUMPI DUP1 PUSH4 0x715018A6 EQ PUSH2 0x634 JUMPI DUP1 PUSH4 0x8A8C523C EQ PUSH2 0x5A1 JUMPI DUP1 PUSH4 0x8DA5CB5B EQ PUSH2 0x578 JUMPI DUP1 PUSH4 0x8EC3E56B EQ PUSH2 0x3AD JUMPI DUP1 PUSH4 0x95D89B41 EQ PUSH2 0x2A9 JUMPI DUP1 PUSH4 0xA9059CBB EQ PUSH2 0x278 JUMPI DUP1 PUSH4 0xAA4BDE28 EQ PUSH2 0x259 JUMPI DUP1 PUSH4 0xC31FE80A EQ PUSH2 0x23A JUMPI DUP1 PUSH4 0xC8C8EBE4 EQ PUSH2 0x21B JUMPI DUP1 PUSH4 0xD8C6404B EQ PUSH2 0x1F4 JUMPI DUP1 PUSH4 0xDD62ED3E EQ PUSH2 0x1A7 JUMPI PUSH4 0xF2FDE38B EQ PUSH2 0x115 JUMPI PUSH1 0x0 DUP1 REVERT JUMPDEST CALLVALUE PUSH2 0x1A3 JUMPI PUSH1 0x20 CALLDATASIZE PUSH1 0x3 NOT ADD SLT PUSH2 0x1A3 JUMPI PUSH2 0x12E PUSH2 0xB13 JUMP JUMPDEST SWAP1 PUSH2 0x137 PUSH2 0xB44 JUMP JUMPDEST PUSH1 0x1 PUSH1 0x1 PUSH1 0xA0 SHL SUB SWAP2 DUP3 AND SWAP3 DUP4 ISZERO PUSH2 0x18D JUMPI POP POP PUSH1 0x5 SLOAD DUP3 PUSH12 0xFFFFFFFFFFFFFFFFFFFFFFFF PUSH1 0xA0 SHL DUP3 AND OR PUSH1 0x5 SSTORE AND PUSH32 0x8BE0079C531659141344CD1FD0A4F28419497F9722A3DAAFE3B4186F6B6457E0 DUP4 DUP1 LOG3 DUP1 RETURN JUMPDEST MLOAD PUSH4 0x1E4FBDF7 PUSH1 0xE0 SHL DUP2 MSTORE SWAP1 DUP2 ADD DUP5 SWAP1 MSTORE PUSH1 0x24 SWAP1 REVERT JUMPDEST DUP3 DUP1 REVERT JUMPDEST POP POP CALLVALUE PUSH2 0x1F0 JUMPI DUP1 PUSH1 0x3 NOT CALLDATASIZE ADD SLT PUSH2 0x1F0 JUMPI DUP1 PUSH1 0x20 SWAP3 PUSH2 0x1C5 PUSH2 0xB13 JUMP JUMPDEST PUSH2 0x1CD PUSH2 0xB2E JUMP JUMPDEST PUSH1 0x1 PUSH1 0x1 PUSH1 0xA0 SHL SUB SWAP2 DUP3 AND DUP4 MSTORE PUSH1 0x1 DUP7 MSTORE DUP4 DUP4 KECCAK256 SWAP2 AND DUP3 MSTORE DUP5 MSTORE KECCAK256 SLOAD SWAP1 MLOAD SWAP1 DUP2 MSTORE RETURN JUMPDEST POP DUP1 REVERT JUMPDEST POP POP CALLVALUE PUSH2 0x1F0 JUMPI DUP2 PUSH1 0x3 NOT CALLDATASIZE ADD SLT PUSH2 0x1F0 JUMPI PUSH1 0x20 SWAP1 PUSH1 0xFF PUSH1 0x5 SLOAD PUSH1 0xA0 SHR AND SWAP1 MLOAD SWAP1 ISZERO ISZERO DUP2 MSTORE RETURN JUMPDEST POP POP CALLVALUE PUSH2 0x1F0 JUMPI DUP2 PUSH1 0x3 NOT CALLDATASIZE ADD SLT PUSH2 0x1F0 JUMPI PUSH1 0x20 SWAP1 PUSH1 0x6 SLOAD SWAP1 MLOAD SWAP1 DUP2 MSTORE RETURN JUMPDEST POP POP CALLVALUE PUSH2 0x1F0 JUMPI DUP2 PUSH1 0x3 NOT CALLDATASIZE ADD SLT PUSH2 0x1F0 JUMPI PUSH1 0x20 SWAP1 PUSH1 0x9 SLOAD SWAP1 MLOAD SWAP1 DUP2 MSTORE RETURN JUMPDEST POP POP CALLVALUE PUSH2 0x1F0 JUMPI DUP2 PUSH1 0x3 NOT CALLDATASIZE ADD SLT PUSH2 0x1F0 JUMPI PUSH1 0x20 SWAP1 PUSH1 0x7 SLOAD SWAP1 MLOAD SWAP1 DUP2 MSTORE RETURN JUMPDEST POP POP CALLVALUE PUSH2 0x1F0 JUMPI DUP1 PUSH1 0x3 NOT CALLDATASIZE ADD SLT PUSH2 0x1F0 JUMPI PUSH1 0x20 SWAP1 PUSH2 0x2A2 PUSH2 0x298 PUSH2 0xB13 JUMP JUMPDEST PUSH1 0x24 CALLDATALOAD SWAP1 CALLER PUSH2 0xBA8 JUMP JUMPDEST MLOAD PUSH1 0x1 DUP2 MSTORE RETURN JUMPDEST POP SWAP2 SWAP1 CALLVALUE PUSH2 0x1F0 JUMPI DUP2 PUSH1 0x3 NOT CALLDATASIZE ADD SLT PUSH2 0x1F0 JUMPI DUP1 MLOAD SWAP2 DUP1 SWAP4 DUP1 SLOAD SWAP2 PUSH1 0x1 SWAP1 DUP4 DUP3 SHR SWAP3 DUP3 DUP6 AND SWAP5 DUP6 ISZERO PUSH2 0x3A3 JUMPI JUMPDEST PUSH1 0x20 SWAP6 DUP7 DUP7 LT DUP2 EQ PUSH2 0x390 JUMPI DUP6 DUP10 MSTORE SWAP1 DUP2 ISZERO PUSH2 0x36C JUMPI POP PUSH1 0x1 EQ PUSH2 0x314 JUMPI JUMPDEST PUSH2 0x310 DUP8 DUP8 PUSH2 0x306 DUP3 DUP13 SUB DUP4 PUSH2 0xB70 JUMP JUMPDEST MLOAD SWAP2 DUP3 SWAP2 DUP3 PUSH2 0xACA JUMP JUMPDEST SUB SWAP1 RETURN JUMPDEST DUP2 MSTORE SWAP3 SWAP6 POP PUSH32 0x8A35ACFBC15FF81A39AE7D344FD709F28E8600B4AA8C65C6B64BFE7FE36BD19B JUMPDEST DUP3 DUP5 LT PUSH2 0x359 JUMPI POP POP POP DUP3 PUSH2 0x310 SWAP5 PUSH2 0x306 SWAP3 DUP3 ADD ADD SWAP5 CODESIZE DUP1 PUSH2 0x2F5 JUMP JUMPDEST DUP1 SLOAD DUP7 DUP6 ADD DUP9 ADD MSTORE SWAP3 DUP7 ADD SWAP3 DUP2 ADD PUSH2 0x33B JUMP JUMPDEST PUSH1 0xFF NOT AND DUP9 DUP8 ADD MSTORE POP POP POP POP ISZERO ISZERO PUSH1 0x5 SHL DUP4 ADD ADD SWAP3 POP PUSH2 0x306 DUP3 PUSH2 0x310 CODESIZE DUP1 PUSH2 0x2F5 JUMP JUMPDEST PUSH4 0x4E487B71 PUSH1 0xE0 SHL DUP5 MSTORE PUSH1 0x22 DUP4 MSTORE PUSH1 0x24 DUP5 REVERT JUMPDEST SWAP4 PUSH1 0x7F AND SWAP4 PUSH2 0x2D6 JUMP JUMPDEST POP DUP3 SWAP1 CALLVALUE PUSH2 0x1F0 JUMPI PUSH1 0x60 CALLDATASIZE PUSH1 0x3 NOT ADD SLT PUSH2 0x1F0 JUMPI DUP1 CALLDATALOAD SWAP1 PUSH2 0x3CC PUSH2 0xB44 JUMP JUMPDEST PUSH1 0x2 SLOAD DUP5 MLOAD SWAP3 PUSH1 0x60 DUP5 ADD DUP5 DUP2 LT PUSH8 0xFFFFFFFFFFFFFFFF DUP3 GT OR PUSH2 0x565 JUMPI DUP7 MSTORE DUP1 DUP5 MSTORE PUSH1 0x20 DUP5 ADD SWAP1 PUSH1 0x24 CALLDATALOAD DUP3 MSTORE DUP7 DUP6 ADD SWAP5 PUSH1 0x44 CALLDATALOAD DUP7 MSTORE PUSH1 0x1 PUSH1 0xA0 SHL PUSH1 0xFF PUSH1 0xA0 SHL NOT PUSH1 0x5 SLOAD AND OR PUSH1 0x5 SSTORE DUP2 PUSH2 0x502 JUMPI JUMPDEST POP POP DUP1 MLOAD SWAP3 DUP4 PUSH2 0x468 JUMPI JUMPDEST DUP6 PUSH32 0xE906ABDB2BBFAB8F7AEEBBD422EFEC75B734B8569D84012AE5C0513AA39AAF14 PUSH1 0x60 DUP10 DUP9 MLOAD DUP1 PUSH1 0x8 SSTORE PUSH1 0x6 SLOAD SWAP2 PUSH1 0x7 SLOAD DUP2 MLOAD SWAP4 DUP5 MSTORE PUSH1 0x20 DUP5 ADD MSTORE DUP3 ADD MSTORE LOG1 DUP1 RETURN JUMPDEST PUSH2 0x2710 DUP1 SWAP5 GT PUSH2 0x4B4 JUMPI POP SWAP2 PUSH2 0x4A6 PUSH1 0x60 SWAP5 SWAP3 PUSH32 0xE906ABDB2BBFAB8F7AEEBBD422EFEC75B734B8569D84012AE5C0513AA39AAF14 SWAP7 SWAP8 SWAP5 MLOAD SWAP1 PUSH2 0xF53 JUMP JUMPDEST DIV PUSH1 0x7 SSTORE SWAP2 DUP2 SWAP5 SWAP4 DUP7 PUSH2 0x425 JUMP JUMPDEST PUSH1 0x84 SWAP1 PUSH1 0x20 DUP9 MLOAD SWAP2 PUSH3 0x461BCD PUSH1 0xE5 SHL DUP4 MSTORE DUP3 ADD MSTORE PUSH1 0x22 PUSH1 0x24 DUP3 ADD MSTORE PUSH32 0x4D61782077616C6C65742070657263656E74206D757374206265203C3D203130 PUSH1 0x44 DUP3 ADD MSTORE PUSH2 0x3025 PUSH1 0xF0 SHL PUSH1 0x64 DUP3 ADD MSTORE REVERT JUMPDEST PUSH2 0x2710 DUP1 SWAP3 GT PUSH2 0x522 JUMPI PUSH2 0x517 SWAP1 MLOAD DUP5 PUSH2 0xF53 JUMP JUMPDEST DIV PUSH1 0x6 SSTORE DUP7 DUP1 PUSH2 0x41A JUMP JUMPDEST DUP8 MLOAD PUSH3 0x461BCD PUSH1 0xE5 SHL DUP2 MSTORE PUSH1 0x20 DUP2 DUP8 ADD MSTORE PUSH1 0x1E PUSH1 0x24 DUP3 ADD MSTORE PUSH32 0x4D61782074782070657263656E74206D757374206265203C3D20313030250000 PUSH1 0x44 DUP3 ADD MSTORE PUSH1 0x64 SWAP1 REVERT JUMPDEST PUSH4 0x4E487B71 PUSH1 0xE0 SHL DUP7 MSTORE PUSH1 0x41 DUP5 MSTORE PUSH1 0x24 DUP7 REVERT JUMPDEST POP POP CALLVALUE PUSH2 0x1F0 JUMPI DUP2 PUSH1 0x3 NOT CALLDATASIZE ADD SLT PUSH2 0x1F0 JUMPI PUSH1 0x5 SLOAD SWAP1 MLOAD PUSH1 0x1 PUSH1 0x1 PUSH1 0xA0 SHL SUB SWAP1 SWAP2 AND DUP2 MSTORE PUSH1 0x20 SWAP1 RETURN JUMPDEST POP CALLVALUE PUSH2 0x1A3 JUMPI DUP3 PUSH1 0x3 NOT CALLDATASIZE ADD SLT PUSH2 0x1A3 JUMPI PUSH2 0x5BA PUSH2 0xB44 JUMP JUMPDEST PUSH1 0x9 SLOAD PUSH2 0x5F2 JUMPI POP PUSH1 0x20 PUSH32 0xB3DA2DB3DFC3778F99852546C6E9AB39EC253F9DE7B0847AFEC61BD27878E923 SWAP2 TIMESTAMP PUSH1 0x9 SSTORE MLOAD TIMESTAMP DUP2 MSTORE LOG1 DUP1 RETURN JUMPDEST PUSH1 0x20 PUSH1 0x64 SWAP3 MLOAD SWAP2 PUSH3 0x461BCD PUSH1 0xE5 SHL DUP4 MSTORE DUP3 ADD MSTORE PUSH1 0x17 PUSH1 0x24 DUP3 ADD MSTORE PUSH32 0x54726164696E6720616C726561647920656E61626C6564000000000000000000 PUSH1 0x44 DUP3 ADD MSTORE REVERT JUMPDEST DUP4 CALLVALUE PUSH2 0x691 JUMPI DUP1 PUSH1 0x3 NOT CALLDATASIZE ADD SLT PUSH2 0x691 JUMPI PUSH2 0x64D PUSH2 0xB44 JUMP JUMPDEST PUSH1 0x5 DUP1 SLOAD PUSH1 0x1 PUSH1 0x1 PUSH1 0xA0 SHL SUB NOT DUP2 AND SWAP1 SWAP2 SSTORE DUP2 SWAP1 PUSH1 0x1 PUSH1 0x1 PUSH1 0xA0 SHL SUB AND PUSH32 0x8BE0079C531659141344CD1FD0A4F28419497F9722A3DAAFE3B4186F6B6457E0 DUP3 DUP1 LOG3 DUP1 RETURN JUMPDEST DUP1 REVERT JUMPDEST POP POP CALLVALUE PUSH2 0x1F0 JUMPI PUSH1 0x20 CALLDATASIZE PUSH1 0x3 NOT ADD SLT PUSH2 0x1F0 JUMPI PUSH1 0x20 SWAP2 DUP2 SWAP1 PUSH1 0x1 PUSH1 0x1 PUSH1 0xA0 SHL SUB PUSH2 0x6BC PUSH2 0xB13 JUMP JUMPDEST AND DUP2 MSTORE DUP1 DUP5 MSTORE KECCAK256 SLOAD SWAP1 MLOAD SWAP1 DUP2 MSTORE RETURN JUMPDEST POP POP CALLVALUE PUSH2 0x1F0 JUMPI PUSH1 0x20 CALLDATASIZE PUSH1 0x3 NOT ADD SLT PUSH2 0x1F0 JUMPI PUSH1 0x20 SWAP2 PUSH1 0xFF SWAP1 DUP3 SWAP1 PUSH1 0x1 PUSH1 0x1 PUSH1 0xA0 SHL SUB PUSH2 0x6F6 PUSH2 0xB13 JUMP JUMPDEST AND DUP2 MSTORE PUSH1 0xB DUP6 MSTORE KECCAK256 SLOAD AND SWAP1 MLOAD SWAP1 ISZERO ISZERO DUP2 MSTORE RETURN JUMPDEST POP POP CALLVALUE PUSH2 0x1F0 JUMPI DUP1 PUSH1 0x3 NOT CALLDATASIZE ADD SLT PUSH2 0x1F0 JUMPI PUSH2 0x723 PUSH2 0xB13 JUMP JUMPDEST PUSH1 0x24 CALLDATALOAD SWAP1 DUP2 ISZERO ISZERO DUP1 SWAP3 SUB PUSH2 0x787 JUMPI PUSH32 0x74392251B09500CC108C71712E5E7E0392BE9075A74A24F1494551CFA8E06870 SWAP2 PUSH1 0x20 SWAP2 PUSH2 0x75E PUSH2 0xB44 JUMP JUMPDEST PUSH1 0x1 PUSH1 0x1 PUSH1 0xA0 SHL SUB AND DUP1 DUP7 MSTORE PUSH1 0xB DUP4 MSTORE DUP5 DUP7 KECCAK256 DUP1 SLOAD PUSH1 0xFF NOT AND PUSH1 0xFF DUP5 AND OR SWAP1 SSTORE SWAP4 MLOAD SWAP1 DUP2 MSTORE LOG2 DUP1 RETURN JUMPDEST DUP4 DUP1 REVERT JUMPDEST POP POP CALLVALUE PUSH2 0x1F0 JUMPI DUP2 PUSH1 0x3 NOT CALLDATASIZE ADD SLT PUSH2 0x1F0 JUMPI PUSH1 0x20 SWAP1 PUSH1 0x8 SLOAD SWAP1 MLOAD SWAP1 DUP2 MSTORE RETURN JUMPDEST POP POP CALLVALUE PUSH2 0x1F0 JUMPI DUP2 PUSH1 0x3 NOT CALLDATASIZE ADD SLT PUSH2 0x1F0 JUMPI PUSH1 0x20 SWAP1 MLOAD PUSH1 0xFF PUSH32 0x0 AND DUP2 MSTORE RETURN JUMPDEST POP DUP3 CALLVALUE PUSH2 0x691 JUMPI PUSH1 0x60 CALLDATASIZE PUSH1 0x3 NOT ADD SLT PUSH2 0x691 JUMPI PUSH2 0x803 PUSH2 0xB13 JUMP JUMPDEST PUSH2 0x80B PUSH2 0xB2E JUMP JUMPDEST SWAP2 PUSH1 0x44 CALLDATALOAD SWAP4 PUSH1 0x1 DUP1 PUSH1 0xA0 SHL SUB DUP4 AND DUP1 DUP4 MSTORE PUSH1 0x1 PUSH1 0x20 MSTORE DUP7 DUP4 KECCAK256 CALLER DUP5 MSTORE PUSH1 0x20 MSTORE DUP7 DUP4 KECCAK256 SLOAD SWAP2 PUSH1 0x0 NOT DUP4 LT PUSH2 0x847 JUMPI JUMPDEST PUSH1 0x20 DUP9 PUSH2 0x2A2 DUP10 DUP10 DUP10 PUSH2 0xBA8 JUMP JUMPDEST DUP7 DUP4 LT PUSH2 0x8AF JUMPI DUP2 ISZERO PUSH2 0x898 JUMPI CALLER ISZERO PUSH2 0x881 JUMPI POP DUP3 MSTORE PUSH1 0x1 PUSH1 0x20 SWAP1 DUP2 MSTORE DUP7 DUP4 KECCAK256 CALLER DUP5 MSTORE DUP2 MSTORE SWAP2 DUP7 SWAP1 KECCAK256 SWAP1 DUP6 SWAP1 SUB SWAP1 SSTORE DUP3 SWAP1 PUSH2 0x2A2 DUP8 PUSH2 0x839 JUMP JUMPDEST DUP8 MLOAD PUSH4 0x4A1406B1 PUSH1 0xE1 SHL DUP2 MSTORE SWAP1 DUP2 ADD DUP5 SWAP1 MSTORE PUSH1 0x24 SWAP1 REVERT JUMPDEST DUP8 MLOAD PUSH4 0xE602DF05 PUSH1 0xE0 SHL DUP2 MSTORE SWAP1 DUP2 ADD DUP5 SWAP1 MSTORE PUSH1 0x24 SWAP1 REVERT JUMPDEST DUP8 MLOAD PUSH4 0x7DC7A0D9 PUSH1 0xE1 SHL DUP2 MSTORE CALLER SWAP2 DUP2 ADD SWAP2 DUP3 MSTORE PUSH1 0x20 DUP3 ADD SWAP4 SWAP1 SWAP4 MSTORE PUSH1 0x40 DUP2 ADD DUP8 SWAP1 MSTORE DUP3 SWAP2 POP PUSH1 0x60 ADD SUB SWAP1 REVERT JUMPDEST POP POP CALLVALUE PUSH2 0x1F0 JUMPI DUP2 PUSH1 0x3 NOT CALLDATASIZE ADD SLT PUSH2 0x1F0 JUMPI PUSH1 0x20 SWAP1 PUSH1 0x2 SLOAD SWAP1 MLOAD SWAP1 DUP2 MSTORE RETURN JUMPDEST POP CALLVALUE PUSH2 0x1A3 JUMPI DUP2 PUSH1 0x3 NOT CALLDATASIZE ADD SLT PUSH2 0x1A3 JUMPI PUSH2 0x913 PUSH2 0xB13 JUMP JUMPDEST PUSH1 0x24 CALLDATALOAD SWAP1 CALLER ISZERO PUSH2 0x98C JUMPI PUSH1 0x1 PUSH1 0x1 PUSH1 0xA0 SHL SUB AND SWAP2 DUP3 ISZERO PUSH2 0x975 JUMPI POP DUP1 DUP4 PUSH1 0x20 SWAP6 CALLER DUP2 MSTORE PUSH1 0x1 DUP8 MSTORE DUP2 DUP2 KECCAK256 DUP6 DUP3 MSTORE DUP8 MSTORE KECCAK256 SSTORE DUP3 MLOAD SWAP1 DUP2 MSTORE PUSH32 0x8C5BE1E5EBEC7D5BD14F71427D1E84F3DD0314C0F7B2291E5B200AC8C7C3B925 DUP5 CALLER SWAP3 LOG3 MLOAD PUSH1 0x1 DUP2 MSTORE RETURN JUMPDEST DUP4 MLOAD PUSH4 0x4A1406B1 PUSH1 0xE1 SHL DUP2 MSTORE SWAP1 DUP2 ADD DUP6 SWAP1 MSTORE PUSH1 0x24 SWAP1 REVERT JUMPDEST DUP4 MLOAD PUSH4 0xE602DF05 PUSH1 0xE0 SHL DUP2 MSTORE DUP1 DUP5 ADD DUP7 SWAP1 MSTORE PUSH1 0x24 SWAP1 REVERT JUMPDEST DUP4 CALLVALUE PUSH2 0x691 JUMPI DUP1 PUSH1 0x3 NOT CALLDATASIZE ADD SLT PUSH2 0x691 JUMPI PUSH2 0x9BC PUSH2 0xB44 JUMP JUMPDEST PUSH1 0xFF PUSH1 0xA0 SHL NOT PUSH1 0x5 SLOAD AND PUSH1 0x5 SSTORE DUP1 PUSH1 0x6 SSTORE DUP1 PUSH1 0x7 SSTORE DUP1 PUSH1 0x8 SSTORE DUP1 RETURN JUMPDEST SWAP3 SWAP2 SWAP1 POP CALLVALUE PUSH2 0x787 JUMPI DUP4 PUSH1 0x3 NOT CALLDATASIZE ADD SLT PUSH2 0x787 JUMPI PUSH1 0x3 SLOAD PUSH1 0x1 DUP2 DUP2 SHR SWAP2 DUP7 SWAP1 DUP3 DUP2 AND DUP1 ISZERO PUSH2 0xAC0 JUMPI JUMPDEST PUSH1 0x20 SWAP6 DUP7 DUP7 LT DUP3 EQ PUSH2 0xAAD JUMPI POP DUP5 DUP9 MSTORE SWAP1 DUP2 ISZERO PUSH2 0xA8B JUMPI POP PUSH1 0x1 EQ PUSH2 0xA32 JUMPI JUMPDEST PUSH2 0x310 DUP7 DUP7 PUSH2 0x306 DUP3 DUP12 SUB DUP4 PUSH2 0xB70 JUMP JUMPDEST SWAP3 SWAP6 POP PUSH1 0x3 DUP4 MSTORE PUSH32 0xC2575A0E9E593C00F959F8C92F12DB2869C3395A3B0502D05E2516446F71F85B JUMPDEST DUP3 DUP5 LT PUSH2 0xA78 JUMPI POP POP POP DUP3 PUSH2 0x310 SWAP5 PUSH2 0x306 SWAP3 DUP3 ADD ADD SWAP5 CODESIZE PUSH2 0xA21 JUMP JUMPDEST DUP1 SLOAD DUP7 DUP6 ADD DUP9 ADD MSTORE SWAP3 DUP7 ADD SWAP3 DUP2 ADD PUSH2 0xA5B JUMP JUMPDEST PUSH1 0xFF NOT AND DUP8 DUP7 ADD MSTORE POP POP POP ISZERO ISZERO PUSH1 0x5 SHL DUP4 ADD ADD SWAP3 POP PUSH2 0x306 DUP3 PUSH2 0x310 CODESIZE PUSH2 0xA21 JUMP JUMPDEST PUSH4 0x4E487B71 PUSH1 0xE0 SHL DUP5 MSTORE PUSH1 0x22 SWAP1 MSTORE PUSH1 0x24 DUP4 REVERT JUMPDEST SWAP4 PUSH1 0x7F AND SWAP4 PUSH2 0xA01 JUMP JUMPDEST PUSH1 0x20 DUP1 DUP3 MSTORE DUP3 MLOAD DUP2 DUP4 ADD DUP2 SWAP1 MSTORE SWAP1 SWAP4 SWAP3 PUSH1 0x0 JUMPDEST DUP3 DUP2 LT PUSH2 0xAFF JUMPI POP POP PUSH1 0x40 SWAP3 SWAP4 POP PUSH1 0x0 DUP4 DUP3 DUP5 ADD ADD MSTORE PUSH1 0x1F DUP1 NOT SWAP2 ADD AND ADD ADD SWAP1 JUMP JUMPDEST DUP2 DUP2 ADD DUP7 ADD MLOAD DUP5 DUP3 ADD PUSH1 0x40 ADD MSTORE DUP6 ADD PUSH2 0xADD JUMP JUMPDEST PUSH1 0x4 CALLDATALOAD SWAP1 PUSH1 0x1 PUSH1 0x1 PUSH1 0xA0 SHL SUB DUP3 AND DUP3 SUB PUSH2 0xB29 JUMPI JUMP JUMPDEST PUSH1 0x0 DUP1 REVERT JUMPDEST PUSH1 0x24 CALLDATALOAD SWAP1 PUSH1 0x1 PUSH1 0x1 PUSH1 0xA0 SHL SUB DUP3 AND DUP3 SUB PUSH2 0xB29 JUMPI JUMP JUMPDEST PUSH1 0x5 SLOAD PUSH1 0x1 PUSH1 0x1 PUSH1 0xA0 SHL SUB AND CALLER SUB PUSH2 0xB58 JUMPI JUMP JUMPDEST PUSH1 0x40 MLOAD PUSH4 0x118CDAA7 PUSH1 0xE0 SHL DUP2 MSTORE CALLER PUSH1 0x4 DUP3 ADD MSTORE PUSH1 0x24 SWAP1 REVERT JUMPDEST SWAP1 PUSH1 0x1F DUP1 NOT SWAP2 ADD AND DUP2 ADD SWAP1 DUP2 LT PUSH8 0xFFFFFFFFFFFFFFFF DUP3 GT OR PUSH2 0xB92 JUMPI PUSH1 0x40 MSTORE JUMP JUMPDEST PUSH4 0x4E487B71 PUSH1 0xE0 SHL PUSH1 0x0 MSTORE PUSH1 0x41 PUSH1 0x4 MSTORE PUSH1 0x24 PUSH1 0x0 REVERT JUMPDEST SWAP2 SWAP1 PUSH1 0x1 PUSH1 0x1 PUSH1 0xA0 SHL SUB DUP1 DUP5 AND ISZERO PUSH2 0xBE5 JUMPI DUP2 AND ISZERO PUSH2 0xBCC JUMPI PUSH2 0xBCA SWAP3 PUSH2 0xC21 JUMP JUMPDEST JUMP JUMPDEST PUSH1 0x40 MLOAD PUSH4 0xEC442F05 PUSH1 0xE0 SHL DUP2 MSTORE PUSH1 0x0 PUSH1 0x4 DUP3 ADD MSTORE PUSH1 0x24 SWAP1 REVERT JUMPDEST PUSH1 0x40 MLOAD PUSH4 0x4B637E8F PUSH1 0xE1 SHL DUP2 MSTORE PUSH1 0x0 PUSH1 0x4 DUP3 ADD MSTORE PUSH1 0x24 SWAP1 REVERT JUMPDEST SWAP2 SWAP1 DUP3 ADD DUP1 SWAP3 GT PUSH2 0xC0B JUMPI JUMP JUMPDEST PUSH4 0x4E487B71 PUSH1 0xE0 SHL PUSH1 0x0 MSTORE PUSH1 0x11 PUSH1 0x4 MSTORE PUSH1 0x24 PUSH1 0x0 REVERT JUMPDEST PUSH1 0x1 PUSH1 0x1 PUSH1 0xA0 SHL SUB DUP1 DUP3 AND SWAP4 SWAP3 SWAP2 SWAP1 DUP5 ISZERO DUP1 ISZERO PUSH2 0xE4C JUMPI JUMPDEST DUP1 ISZERO PUSH2 0xE34 JUMPI JUMPDEST DUP1 ISZERO PUSH2 0xE1A JUMPI JUMPDEST PUSH2 0xC61 JUMPI PUSH1 0x9 SLOAD ISZERO PUSH2 0xDD5 JUMPI PUSH1 0xFF PUSH1 0x5 SLOAD PUSH1 0xA0 SHR AND PUSH2 0xC6C JUMPI JUMPDEST POP PUSH2 0xBCA SWAP4 POP PUSH2 0xE56 JUMP JUMPDEST PUSH1 0x6 SLOAD DUP1 PUSH2 0xD84 JUMPI JUMPDEST POP PUSH1 0x7 SLOAD SWAP1 DUP2 ISZERO ISZERO DUP1 PUSH2 0xD79 JUMPI JUMPDEST PUSH2 0xD0F JUMPI JUMPDEST POP POP PUSH1 0x8 SLOAD DUP1 ISZERO PUSH2 0xC61 JUMPI PUSH2 0xCAB SWAP1 DUP6 PUSH1 0x0 MSTORE PUSH1 0xA PUSH1 0x20 MSTORE PUSH1 0x40 PUSH1 0x0 KECCAK256 SLOAD PUSH2 0xBFE JUMP JUMPDEST TIMESTAMP LT PUSH2 0xCCA JUMPI PUSH2 0xBCA SWAP4 PUSH1 0x0 MSTORE PUSH1 0xA PUSH1 0x20 MSTORE TIMESTAMP PUSH1 0x40 PUSH1 0x0 KECCAK256 SSTORE CODESIZE PUSH2 0xC61 JUMP JUMPDEST PUSH1 0x40 MLOAD PUSH3 0x461BCD PUSH1 0xE5 SHL DUP2 MSTORE PUSH1 0x20 PUSH1 0x4 DUP3 ADD MSTORE PUSH1 0x18 PUSH1 0x24 DUP3 ADD MSTORE PUSH32 0x5472616E7366657220636F6F6C646F776E206163746976650000000000000000 PUSH1 0x44 DUP3 ADD MSTORE PUSH1 0x64 SWAP1 REVERT JUMPDEST DUP4 AND PUSH1 0x0 MSTORE PUSH1 0x0 PUSH1 0x20 MSTORE PUSH2 0xD28 DUP5 PUSH1 0x40 PUSH1 0x0 KECCAK256 SLOAD PUSH2 0xBFE JUMP JUMPDEST GT PUSH2 0xD34 JUMPI CODESIZE DUP1 PUSH2 0xC88 JUMP JUMPDEST PUSH1 0x40 MLOAD PUSH3 0x461BCD PUSH1 0xE5 SHL DUP2 MSTORE PUSH1 0x20 PUSH1 0x4 DUP3 ADD MSTORE PUSH1 0x19 PUSH1 0x24 DUP3 ADD MSTORE PUSH32 0x45786365656473206D61782077616C6C657420616D6F756E7400000000000000 PUSH1 0x44 DUP3 ADD MSTORE PUSH1 0x64 SWAP1 REVERT JUMPDEST POP DUP1 DUP5 AND ISZERO ISZERO PUSH2 0xC83 JUMP JUMPDEST DUP5 GT PUSH2 0xD90 JUMPI CODESIZE PUSH2 0xC75 JUMP JUMPDEST PUSH1 0x40 MLOAD PUSH3 0x461BCD PUSH1 0xE5 SHL DUP2 MSTORE PUSH1 0x20 PUSH1 0x4 DUP3 ADD MSTORE PUSH1 0x1E PUSH1 0x24 DUP3 ADD MSTORE PUSH32 0x45786365656473206D6178207472616E73616374696F6E20616D6F756E740000 PUSH1 0x44 DUP3 ADD MSTORE PUSH1 0x64 SWAP1 REVERT JUMPDEST PUSH1 0x40 MLOAD PUSH3 0x461BCD PUSH1 0xE5 SHL DUP2 MSTORE PUSH1 0x20 PUSH1 0x4 DUP3 ADD MSTORE PUSH1 0x17 PUSH1 0x24 DUP3 ADD MSTORE PUSH32 0x54726164696E67206E6F7420656E61626C656420796574000000000000000000 PUSH1 0x44 DUP3 ADD MSTORE PUSH1 0x64 SWAP1 REVERT JUMPDEST POP DUP1 DUP4 AND PUSH1 0x0 MSTORE PUSH1 0xB PUSH1 0x20 MSTORE PUSH1 0xFF PUSH1 0x40 PUSH1 0x0 KECCAK256 SLOAD AND PUSH2 0xC47 JUMP JUMPDEST POP DUP5 PUSH1 0x0 MSTORE PUSH1 0xB PUSH1 0x20 MSTORE PUSH1 0xFF PUSH1 0x40 PUSH1 0x0 KECCAK256 SLOAD AND PUSH2 0xC40 JUMP JUMPDEST POP DUP1 DUP4 AND ISZERO PUSH2 0xC39 JUMP JUMPDEST PUSH1 0x1 PUSH1 0x1 PUSH1 0xA0 SHL SUB DUP1 DUP3 AND SWAP3 SWAP1 SWAP2 DUP4 PUSH2 0xED0 JUMPI POP PUSH32 0xDDF252AD1BE2C89B69C2B068FC378DAA952BA7F163C4A11628F55A4DF523B3EF SWAP2 PUSH1 0x20 SWAP2 PUSH2 0xE9B DUP7 PUSH1 0x2 SLOAD PUSH2 0xBFE JUMP JUMPDEST PUSH1 0x2 SSTORE JUMPDEST AND SWAP4 DUP5 PUSH2 0xEB8 JUMPI DUP1 PUSH1 0x2 SLOAD SUB PUSH1 0x2 SSTORE JUMPDEST PUSH1 0x40 MLOAD SWAP1 DUP2 MSTORE LOG3 JUMP JUMPDEST DUP5 PUSH1 0x0 MSTORE PUSH1 0x0 DUP3 MSTORE PUSH1 0x40 PUSH1 0x0 KECCAK256 DUP2 DUP2 SLOAD ADD SWAP1 SSTORE PUSH2 0xEAF JUMP JUMPDEST PUSH1 0x0 SWAP1 DUP5 DUP3 MSTORE DUP2 PUSH1 0x20 MSTORE PUSH1 0x40 DUP3 KECCAK256 SLOAD SWAP1 DUP7 DUP3 LT PUSH2 0xF21 JUMPI POP SWAP2 DUP2 PUSH1 0x40 DUP8 PUSH1 0x20 SWAP6 DUP9 PUSH32 0xDDF252AD1BE2C89B69C2B068FC378DAA952BA7F163C4A11628F55A4DF523B3EF SWAP9 SWAP7 MSTORE DUP4 DUP8 MSTORE SUB SWAP2 KECCAK256 SSTORE PUSH2 0xE9F JUMP JUMPDEST PUSH1 0x40 MLOAD PUSH4 0x391434E3 PUSH1 0xE2 SHL DUP2 MSTORE PUSH1 0x1 PUSH1 0x1 PUSH1 0xA0 SHL SUB SWAP2 SWAP1 SWAP2 AND PUSH1 0x4 DUP3 ADD MSTORE PUSH1 0x24 DUP2 ADD SWAP2 SWAP1 SWAP2 MSTORE PUSH1 0x44 DUP2 ADD DUP7 SWAP1 MSTORE PUSH1 0x64 SWAP1 REVERT JUMPDEST DUP2 DUP2 MUL SWAP3 SWAP2 DUP2 ISZERO SWAP2 DUP5 DIV EQ OR ISZERO PUSH2 0xC0B JUMPI JUMP INVALID LOG2 PUSH5 0x6970667358 0x22 SLT KECCAK256 0xBB SMOD SWAP6 0x29 0xB2 0x21 CALLDATACOPY 0xDB 0xD6 MSTORE8 LT BALANCE 0xC3 CALLVALUE SWAP11 SWAP3 0xC0 0x22 0xBE CALLDATALOAD DUP8 KECCAK256 GAS 0xD7 PUSH5 0x85B253476 BLOCKHASH COINBASE PUSH5 0x736F6C6343 STOP ADDMOD EQ STOP CALLER 0xE9 MOD 0xAB 0xDB 0x2B 0xBF 0xAB DUP16 PUSH27 0xEEBBD422EFEC75B734B8569D84012AE5C0513AA39AAF1400000000 "},"methodIdentifiers":{"allowance(address,address)":"dd62ed3e","antiBotEnabled()":"d8c6404b","approve(address,uint256)":"095ea7b3","balanceOf(address)":"70a08231","decimals()":"313ce567","disableAntiBot()":"07ce9de4","enableTrading()":"8a8c523c","isExcludedFromLimits(address)":"5cce86cd","maxTransactionAmount()":"c8c8ebe4","maxWalletAmount()":"aa4bde28","name()":"06fdde03","owner()":"8da5cb5b","renounceOwnership()":"715018a6","setExcludedFromLimits(address,bool)":"36fddb04","symbol()":"95d89b41","totalSupply()":"18160ddd","tradingCooldown()":"34b7f7ae","tradingEnabledAt()":"c31fe80a","transfer(address,uint256)":"a9059cbb","transferFrom(address,address,uint256)":"23b872dd","transferOwnership(address)":"f2fde38b","updateAntiBotConfig(uint256,uint256,uint256)":"8ec3e56b"}}}}}