{"contracts/std-presale/PresaleRound.sol":{"PresaleRound":{"abi":[{"inputs":[{"internalType":"address","name":"_projectToken","type":"address"},{"internalType":"address","name":"_paymentToken","type":"address"},{"internalType":"uint256","name":"_softCap","type":"uint256"},{"internalType":"uint256","name":"_hardCap","type":"uint256"},{"internalType":"uint256","name":"_minContribution","type":"uint256"},{"internalType":"uint256","name":"_maxContribution","type":"uint256"},{"internalType":"uint256","name":"_startTime","type":"uint256"},{"internalType":"uint256","name":"_endTime","type":"uint256"},{"internalType":"address","name":"_feeSplitter","type":"address"},{"internalType":"address","name":"_vestingVault","type":"address"},{"internalType":"address","name":"_projectOwner","type":"address"},{"internalType":"address","name":"_admin","type":"address"},{"internalType":"address","name":"_dexRouter","type":"address"},{"internalType":"address","name":"_lpLocker","type":"address"},{"internalType":"uint256","name":"_liquidityBps","type":"uint256"},{"internalType":"uint256","name":"_lpLockDuration","type":"uint256"}],"stateMutability":"nonpayable","type":"constructor"},{"inputs":[],"name":"AccessControlBadConfirmation","type":"error"},{"inputs":[{"internalType":"address","name":"account","type":"address"},{"internalType":"bytes32","name":"neededRole","type":"bytes32"}],"name":"AccessControlUnauthorizedAccount","type":"error"},{"inputs":[],"name":"AlreadyFinalized","type":"error"},{"inputs":[],"name":"BelowMinimum","type":"error"},{"inputs":[],"name":"ConfigLocked","type":"error"},{"inputs":[],"name":"ContributionLimitExceeded","type":"error"},{"inputs":[],"name":"EnforcedPause","type":"error"},{"inputs":[],"name":"ExpectedPause","type":"error"},{"inputs":[],"name":"FeeDistributionFailed","type":"error"},{"inputs":[],"name":"FeeNotDone","type":"error"},{"inputs":[],"name":"HardCapExceeded","type":"error"},{"inputs":[],"name":"InsufficientNativeBal","type":"error"},{"inputs":[],"name":"InsufficientTokenBalance","type":"error"},{"inputs":[],"name":"InsufficientTokenBudget","type":"error"},{"inputs":[],"name":"InvalidAddress","type":"error"},{"inputs":[],"name":"InvalidFeeConfig","type":"error"},{"inputs":[],"name":"InvalidMerkleRoot","type":"error"},{"inputs":[],"name":"InvalidStatus","type":"error"},{"inputs":[],"name":"LPNotDone","type":"error"},{"inputs":[],"name":"NativeTransferFailed","type":"error"},{"inputs":[],"name":"NoContribution","type":"error"},{"inputs":[],"name":"ReentrancyGuardReentrantCall","type":"error"},{"inputs":[],"name":"RefundNotAvailable","type":"error"},{"inputs":[{"internalType":"address","name":"token","type":"address"}],"name":"SafeERC20FailedOperation","type":"error"},{"inputs":[],"name":"SoftCapNotMet","type":"error"},{"inputs":[],"name":"VestingFundingFailed","type":"error"},{"anonymous":false,"inputs":[{"indexed":false,"internalType":"string","name":"reason","type":"string"}],"name":"Cancelled","type":"event"},{"anonymous":false,"inputs":[{"indexed":true,"internalType":"address","name":"contributor","type":"address"},{"indexed":false,"internalType":"uint256","name":"amount","type":"uint256"},{"indexed":true,"internalType":"address","name":"referrer","type":"address"}],"name":"Contributed","type":"event"},{"anonymous":false,"inputs":[{"indexed":false,"internalType":"uint256","name":"amount","type":"uint256"}],"name":"ExcessBurned","type":"event"},{"anonymous":false,"inputs":[{"indexed":true,"internalType":"address","name":"token","type":"address"},{"indexed":true,"internalType":"address","name":"to","type":"address"},{"indexed":false,"internalType":"uint256","name":"amount","type":"uint256"}],"name":"ExcessSwept","type":"event"},{"anonymous":false,"inputs":[{"components":[{"internalType":"uint256","name":"totalBps","type":"uint256"},{"internalType":"uint256","name":"treasuryBps","type":"uint256"},{"internalType":"uint256","name":"referralPoolBps","type":"uint256"},{"internalType":"uint256","name":"sbtStakingBps","type":"uint256"}],"indexed":false,"internalType":"struct PresaleRound.FeeConfig","name":"newConfig","type":"tuple"}],"name":"FeeConfigUpdated","type":"event"},{"anonymous":false,"inputs":[{"indexed":false,"internalType":"string","name":"reason","type":"string"}],"name":"FinalizedFailed","type":"event"},{"anonymous":false,"inputs":[{"indexed":false,"internalType":"uint256","name":"totalRaised","type":"uint256"},{"indexed":false,"internalType":"uint256","name":"feeAmount","type":"uint256"},{"indexed":false,"internalType":"uint256","name":"tgeTimestamp","type":"uint256"}],"name":"FinalizedSuccess","type":"event"},{"anonymous":false,"inputs":[{"indexed":false,"internalType":"uint256","name":"totalNative","type":"uint256"},{"indexed":false,"internalType":"uint256","name":"fee","type":"uint256"},{"indexed":false,"internalType":"uint256","name":"net","type":"uint256"},{"indexed":false,"internalType":"uint256","name":"vestingTopUp","type":"uint256"},{"indexed":false,"internalType":"uint256","name":"burned","type":"uint256"},{"indexed":false,"internalType":"bytes32","name":"merkleRoot","type":"bytes32"}],"name":"FinalizedSuccessEscrow","type":"event"},{"anonymous":false,"inputs":[{"indexed":true,"internalType":"uint256","name":"lockId","type":"uint256"},{"indexed":true,"internalType":"address","name":"lpToken","type":"address"},{"indexed":false,"internalType":"uint256","name":"amount","type":"uint256"},{"indexed":false,"internalType":"uint256","name":"unlockTime","type":"uint256"}],"name":"LPLocked","type":"event"},{"anonymous":false,"inputs":[{"indexed":true,"internalType":"address","name":"pair","type":"address"},{"indexed":false,"internalType":"uint256","name":"tokenAmount","type":"uint256"},{"indexed":false,"internalType":"uint256","name":"bnbAmount","type":"uint256"},{"indexed":false,"internalType":"uint256","name":"lpTokens","type":"uint256"}],"name":"LiquidityAdded","type":"event"},{"anonymous":false,"inputs":[{"indexed":false,"internalType":"address","name":"account","type":"address"}],"name":"Paused","type":"event"},{"anonymous":false,"inputs":[{"indexed":true,"internalType":"address","name":"contributor","type":"address"},{"indexed":false,"internalType":"uint256","name":"amount","type":"uint256"}],"name":"Refunded","type":"event"},{"anonymous":false,"inputs":[{"indexed":true,"internalType":"bytes32","name":"role","type":"bytes32"},{"indexed":true,"internalType":"bytes32","name":"previousAdminRole","type":"bytes32"},{"indexed":true,"internalType":"bytes32","name":"newAdminRole","type":"bytes32"}],"name":"RoleAdminChanged","type":"event"},{"anonymous":false,"inputs":[{"indexed":true,"internalType":"bytes32","name":"role","type":"bytes32"},{"indexed":true,"internalType":"address","name":"account","type":"address"},{"indexed":true,"internalType":"address","name":"sender","type":"address"}],"name":"RoleGranted","type":"event"},{"anonymous":false,"inputs":[{"indexed":true,"internalType":"bytes32","name":"role","type":"bytes32"},{"indexed":true,"internalType":"address","name":"account","type":"address"},{"indexed":true,"internalType":"address","name":"sender","type":"address"}],"name":"RoleRevoked","type":"event"},{"anonymous":false,"inputs":[{"indexed":false,"internalType":"enum PresaleRound.Status","name":"oldStatus","type":"uint8"},{"indexed":false,"internalType":"enum PresaleRound.Status","name":"newStatus","type":"uint8"}],"name":"StatusSynced","type":"event"},{"anonymous":false,"inputs":[{"indexed":false,"internalType":"address","name":"account","type":"address"}],"name":"Unpaused","type":"event"},{"anonymous":false,"inputs":[{"indexed":false,"internalType":"uint256","name":"amount","type":"uint256"}],"name":"UnsoldTokensBurned","type":"event"},{"inputs":[],"name":"ADMIN_ROLE","outputs":[{"internalType":"bytes32","name":"","type":"bytes32"}],"stateMutability":"view","type":"function"},{"inputs":[],"name":"DEFAULT_ADMIN_ROLE","outputs":[{"internalType":"bytes32","name":"","type":"bytes32"}],"stateMutability":"view","type":"function"},{"inputs":[],"name":"burnedAmount","outputs":[{"internalType":"uint256","name":"","type":"uint256"}],"stateMutability":"view","type":"function"},{"inputs":[{"internalType":"string","name":"reason","type":"string"}],"name":"cancel","outputs":[],"stateMutability":"nonpayable","type":"function"},{"inputs":[],"name":"claimRefund","outputs":[],"stateMutability":"nonpayable","type":"function"},{"inputs":[{"internalType":"uint256","name":"amount","type":"uint256"},{"internalType":"address","name":"referrer","type":"address"}],"name":"contribute","outputs":[],"stateMutability":"payable","type":"function"},{"inputs":[{"internalType":"address","name":"","type":"address"}],"name":"contributions","outputs":[{"internalType":"uint256","name":"","type":"uint256"}],"stateMutability":"view","type":"function"},{"inputs":[],"name":"dexRouter","outputs":[{"internalType":"address","name":"","type":"address"}],"stateMutability":"view","type":"function"},{"inputs":[],"name":"endTime","outputs":[{"internalType":"uint256","name":"","type":"uint256"}],"stateMutability":"view","type":"function"},{"inputs":[],"name":"feeConfig","outputs":[{"internalType":"uint256","name":"totalBps","type":"uint256"},{"internalType":"uint256","name":"treasuryBps","type":"uint256"},{"internalType":"uint256","name":"referralPoolBps","type":"uint256"},{"internalType":"uint256","name":"sbtStakingBps","type":"uint256"}],"stateMutability":"view","type":"function"},{"inputs":[],"name":"feePaid","outputs":[{"internalType":"bool","name":"","type":"bool"}],"stateMutability":"view","type":"function"},{"inputs":[],"name":"feeSplitter","outputs":[{"internalType":"address","name":"","type":"address"}],"stateMutability":"view","type":"function"},{"inputs":[{"internalType":"string","name":"reason","type":"string"}],"name":"finalizeFailed","outputs":[],"stateMutability":"nonpayable","type":"function"},{"inputs":[{"internalType":"bytes32","name":"merkleRoot","type":"bytes32"},{"internalType":"uint256","name":"totalVestingAllocation","type":"uint256"},{"internalType":"uint256","name":"totalTokensForSale","type":"uint256"}],"name":"finalizeSuccess","outputs":[],"stateMutability":"nonpayable","type":"function"},{"inputs":[{"internalType":"bytes32","name":"_merkleRoot","type":"bytes32"},{"internalType":"uint256","name":"totalVestingAllocation","type":"uint256"},{"internalType":"uint256","name":"unsoldToBurn","type":"uint256"},{"internalType":"uint256","name":"tokensForLP","type":"uint256"},{"internalType":"uint256","name":"tokenMinLP","type":"uint256"},{"internalType":"uint256","name":"bnbMinLP","type":"uint256"}],"name":"finalizeSuccessEscrow","outputs":[],"stateMutability":"nonpayable","type":"function"},{"inputs":[{"internalType":"address","name":"contributor","type":"address"}],"name":"getContributionInfo","outputs":[{"internalType":"uint256","name":"contribution","type":"uint256"},{"internalType":"address","name":"referrer","type":"address"}],"stateMutability":"view","type":"function"},{"inputs":[],"name":"getPresaleInfo","outputs":[{"internalType":"enum PresaleRound.Status","name":"_status","type":"uint8"},{"internalType":"uint256","name":"_totalRaised","type":"uint256"},{"internalType":"uint256","name":"_softCap","type":"uint256"},{"internalType":"uint256","name":"_hardCap","type":"uint256"},{"internalType":"uint256","name":"_startTime","type":"uint256"},{"internalType":"uint256","name":"_endTime","type":"uint256"},{"internalType":"uint256","name":"_tgeTimestamp","type":"uint256"}],"stateMutability":"view","type":"function"},{"inputs":[{"internalType":"bytes32","name":"role","type":"bytes32"}],"name":"getRoleAdmin","outputs":[{"internalType":"bytes32","name":"","type":"bytes32"}],"stateMutability":"view","type":"function"},{"inputs":[{"internalType":"bytes32","name":"role","type":"bytes32"},{"internalType":"address","name":"account","type":"address"}],"name":"grantRole","outputs":[],"stateMutability":"nonpayable","type":"function"},{"inputs":[],"name":"hardCap","outputs":[{"internalType":"uint256","name":"","type":"uint256"}],"stateMutability":"view","type":"function"},{"inputs":[{"internalType":"bytes32","name":"role","type":"bytes32"},{"internalType":"address","name":"account","type":"address"}],"name":"hasRole","outputs":[{"internalType":"bool","name":"","type":"bool"}],"stateMutability":"view","type":"function"},{"inputs":[],"name":"liquidityBps","outputs":[{"internalType":"uint256","name":"","type":"uint256"}],"stateMutability":"view","type":"function"},{"inputs":[],"name":"lpCreated","outputs":[{"internalType":"bool","name":"","type":"bool"}],"stateMutability":"view","type":"function"},{"inputs":[],"name":"lpLockDuration","outputs":[{"internalType":"uint256","name":"","type":"uint256"}],"stateMutability":"view","type":"function"},{"inputs":[],"name":"lpLockId","outputs":[{"internalType":"uint256","name":"","type":"uint256"}],"stateMutability":"view","type":"function"},{"inputs":[],"name":"lpLocker","outputs":[{"internalType":"address","name":"","type":"address"}],"stateMutability":"view","type":"function"},{"inputs":[],"name":"lpUsedBnb","outputs":[{"internalType":"uint256","name":"","type":"uint256"}],"stateMutability":"view","type":"function"},{"inputs":[],"name":"maxContribution","outputs":[{"internalType":"uint256","name":"","type":"uint256"}],"stateMutability":"view","type":"function"},{"inputs":[],"name":"minContribution","outputs":[{"internalType":"uint256","name":"","type":"uint256"}],"stateMutability":"view","type":"function"},{"inputs":[],"name":"ownerPaid","outputs":[{"internalType":"bool","name":"","type":"bool"}],"stateMutability":"view","type":"function"},{"inputs":[],"name":"pause","outputs":[],"stateMutability":"nonpayable","type":"function"},{"inputs":[],"name":"paused","outputs":[{"internalType":"bool","name":"","type":"bool"}],"stateMutability":"view","type":"function"},{"inputs":[],"name":"paymentToken","outputs":[{"internalType":"address","name":"","type":"address"}],"stateMutability":"view","type":"function"},{"inputs":[],"name":"projectOwner","outputs":[{"internalType":"address","name":"","type":"address"}],"stateMutability":"view","type":"function"},{"inputs":[],"name":"projectToken","outputs":[{"internalType":"address","name":"","type":"address"}],"stateMutability":"view","type":"function"},{"inputs":[{"internalType":"address","name":"","type":"address"}],"name":"referrers","outputs":[{"internalType":"address","name":"","type":"address"}],"stateMutability":"view","type":"function"},{"inputs":[{"internalType":"bytes32","name":"role","type":"bytes32"},{"internalType":"address","name":"callerConfirmation","type":"address"}],"name":"renounceRole","outputs":[],"stateMutability":"nonpayable","type":"function"},{"inputs":[{"internalType":"bytes32","name":"role","type":"bytes32"},{"internalType":"address","name":"account","type":"address"}],"name":"revokeRole","outputs":[],"stateMutability":"nonpayable","type":"function"},{"inputs":[{"components":[{"internalType":"uint256","name":"totalBps","type":"uint256"},{"internalType":"uint256","name":"treasuryBps","type":"uint256"},{"internalType":"uint256","name":"referralPoolBps","type":"uint256"},{"internalType":"uint256","name":"sbtStakingBps","type":"uint256"}],"internalType":"struct PresaleRound.FeeConfig","name":"newConfig","type":"tuple"}],"name":"setFeeConfig","outputs":[],"stateMutability":"nonpayable","type":"function"},{"inputs":[],"name":"snap","outputs":[{"internalType":"uint256","name":"totalNative","type":"uint256"},{"internalType":"uint256","name":"feeAmount","type":"uint256"},{"internalType":"uint256","name":"netAfterFee","type":"uint256"},{"internalType":"uint256","name":"lpBnb","type":"uint256"},{"internalType":"uint256","name":"ownerBnb","type":"uint256"},{"internalType":"bool","name":"taken","type":"bool"}],"stateMutability":"view","type":"function"},{"inputs":[],"name":"softCap","outputs":[{"internalType":"uint256","name":"","type":"uint256"}],"stateMutability":"view","type":"function"},{"inputs":[],"name":"startTime","outputs":[{"internalType":"uint256","name":"","type":"uint256"}],"stateMutability":"view","type":"function"},{"inputs":[],"name":"status","outputs":[{"internalType":"enum PresaleRound.Status","name":"","type":"uint8"}],"stateMutability":"view","type":"function"},{"inputs":[{"internalType":"bytes4","name":"interfaceId","type":"bytes4"}],"name":"supportsInterface","outputs":[{"internalType":"bool","name":"","type":"bool"}],"stateMutability":"view","type":"function"},{"inputs":[],"name":"surplusBurned","outputs":[{"internalType":"bool","name":"","type":"bool"}],"stateMutability":"view","type":"function"},{"inputs":[{"internalType":"address","name":"to","type":"address"}],"name":"sweepExcessNative","outputs":[],"stateMutability":"nonpayable","type":"function"},{"inputs":[],"name":"sweepExcessTokens","outputs":[],"stateMutability":"nonpayable","type":"function"},{"inputs":[],"name":"tgeTimestamp","outputs":[{"internalType":"uint256","name":"","type":"uint256"}],"stateMutability":"view","type":"function"},{"inputs":[],"name":"totalRaised","outputs":[{"internalType":"uint256","name":"","type":"uint256"}],"stateMutability":"view","type":"function"},{"inputs":[],"name":"unpause","outputs":[],"stateMutability":"nonpayable","type":"function"},{"inputs":[],"name":"vestingFunded","outputs":[{"internalType":"bool","name":"","type":"bool"}],"stateMutability":"view","type":"function"},{"inputs":[],"name":"vestingVault","outputs":[{"internalType":"address","name":"","type":"address"}],"stateMutability":"view","type":"function"},{"stateMutability":"payable","type":"receive"}],"evm":{"bytecode":{"linkReferences":{},"object":"3462000508576200342038819003610280601f8201601f19168101906001600160401b03821190821017620003d957610200928291604052610280391262000508576200004e6102806200050d565b6200005b6102a06200050d565b6102c0516102e051610300516103205161034051610360519396959493620000856103806200050d565b91620000936103a06200050d565b93620000a16103c06200050d565b95620000af6103e06200050d565b9a620000bd6104006200050d565b98620000cb6104206200050d565b61044051610260526104605160016000559c909b90828410620004f65786881115620004f6576001600160a01b0389811615620004e457808b1615620004e457808c1615620004e4576127106102605111620004ae57808d1615801590620004a2575b156200046f578d161580159062000463575b1562000430576301e133808e1080159062000424575b15620003ef5760805260a05260c05260e05261010052610120526101405261016052610180526101a0526101c0526101e05261020052620001bd610260519261022093845261024092835260ff1960075416600755620001b68162000522565b50620005a3565b50604051608081016001600160401b03811182821017620003d957604052603260606101f49283815260fa602082015260c86040820152015260035560fa60045560c8600555603260065560405190612db992836200064784396080518381816104d8015281816107a901528181610805015281816108d101528181610ac901528181610d5401528181610e80015281816110030152818161151101528181611db00152611f54015260a05183818161132f01528181611bcb015281816120030152612371015260c0518381816103130152818161144b015281816118e301528181611a0a0152611f0b015260e05183818161027901528181611a3001528181611b9c015281816120a60152612b2101526101005183818161160f0152611b4301526101205183818161191e0152611b6a015261014051838181611668015281816119b301528181611a560152612a36015261016051838181611a7c015281816123380152612ade015261018051838181610c9f01528181611d2a01528181612032015261223201526101a05183818161036401528181610e4f015281816117ab0152611f9b01526101c05183818161069d015281816109ad015281816117f00152611f7801526101e05183818161078101526125cf015261020051838181610920015261261401525182818161061f01528181610c7301528181610f49015261129101525181818161095a01528181610a7401526111ae0152f35b634e487b7160e01b600052604160045260246000fd5b60405162461bcd60e51b815260206004820152600d60248201526c4d494e5f31325f4d4f4e54485360981b6044820152606490fd5b50610260511562000156565b60405162461bcd60e51b815260206004820152600b60248201526a2722a2a22fa627a1a5a2a960a91b6044820152606490fd5b50610260511562000140565b60405162461bcd60e51b815260206004820152600b60248201526a2722a2a22fa927aaaa22a960a91b6044820152606490fd5b5061026051156200012e565b60405162461bcd60e51b815260206004820152600e60248201526d494e56414c49445f4c505f42505360901b6044820152606490fd5b60405163e6c4247b60e01b8152600490fd5b6040516307a92f1960e51b8152600490fd5b600080fd5b51906001600160a01b03821682036200050857565b6001600160a01b031660008181527fac33ff75c19e70fe83507db0d683fd3465c996598dc972688b7ace676c89077b602052604081205490919060ff166200059f5781805260026020526040822081835260205260408220600160ff198254161790553391600080516020620034008339815191528180a4600190565b5090565b6001600160a01b031660008181527fe5ebfa64fca8d502a8e50c1edffd2c31ef4dad5b396e65d9f397fb028f74abc560205260408120549091907fa49807205ce4d355092ef5a8a18f56e8913cf4a201fbe287825b095693c217759060ff16620006415780835260026020526040832082845260205260408320600160ff1982541617905560008051602062003400833981519152339380a4600190565b50509056fe608080604052600436101561001d575b50361561001b57600080fd5b005b600090813560e01c90816301ffc9a7146126435750806303fc2013146125fe5780630758d924146125b95780630b4f3f3d146125335780631e5eb1d0146124fc578063200d2ed2146124d4578063248a9ca3146124a7578063260813d5146124815780632c23ba53146123de5780632f2ff15d146123a05780633013ce291461235b5780633197cbb61461232057806336568abe146122d8578063387cd2cb14611ebf5780633f4ba83a14611e5457806342e94c9014611e1b5780634a3b68cc14611ddf5780634b60ce7714611d9a57806350e15fdd14611d7c5780635c975abb14611d595780636052970c14611d1457806360b0b0f014611ae257806375b238fc14611aa7578063767fa723146119d657806378e979251461199b5780638456cb59146119415780638d3d657614611906578063906a26e0146118cb57806391d148541461187f57806391ed3ab014611859578063a217fddf1461183d578063a4317ef41461181f578063a4475ce4146117da578063a5917baf14611795578063a77d38fa14611748578063a9725d5214611725578063a9eddf9914611632578063aaffadf3146115f7578063ac7c5780146115d1578063afb5f1a7146114c5578063b30ca2da1461140f578063b5545a3c146112d2578063c5c4744c146112b4578063c9f62af214611279578063ca8c3bea1461125b578063cd78d92c14611213578063d547741f146111d1578063de35eb2414611196578063f2c4b64714611171578063f41e0ba9146102bd578063f86aa92d1461029f5763fb86a4040361000f573461029c578060031936011261029c5760206040517f00000000000000000000000000000000000000000000000000000000000000008152f35b80fd5b503461029c578060031936011261029c576020601254604051908152f35b503461029c5760c036600319011261029c576004356044356102dd612731565b6102e5612a07565b60ff60075416600781101561113f576004811461115f5760028114159081611153575b506110f7575b6008547f000000000000000000000000000000000000000000000000000000000000000081106110e557600f5460ff811615610f29575b505060ff6011541615610e40575b604051632eb4a7ab60e01b815282907f00000000000000000000000000000000000000000000000000000000000000006001600160a01b031690602081600481855afa908115610e35578691610dff575b5080610df557508115610de3578491813b15610dd4578291604483926040519485938492637c382d0b60e01b8452600484015260243560248401525af18015610dd857610dc0575b50505b829080151580610db5575b610d3f575b5060ff60115460081c161580610d34575b610c99575b60115460ff8160101c161580610c70575b80610c65575b80610c5a575b610765575b5060115460ff8160181c161561060b575b5060ff60115460201c16156104c3575b60c0907fc4cc84355ef3f7327b5aa6c366cafe189c44e1a7807ce501f6f3a503a66717e89242600955600460ff196007541617600755600a5491600b54600e5490604051948552602085015260408401526024356060840152608083015260a0820152a16001815580f35b6040516370a0823160e01b81523060048201527f00000000000000000000000000000000000000000000000000000000000000006001600160a01b0316602082602481845afa9182156106005785926105a1575b5092817fc4cc84355ef3f7327b5aa6c366cafe189c44e1a7807ce501f6f3a503a66717e89460c09493610565575b505064010000000064ff0000000019601154161760115592509050610458565b816105937fddab54067aac83090451464d8672d15b704d96dbee6ff6a39bb4119faede5d3793602093612bc6565b604051908152a13880610545565b929150926020833d6020116105f8575b816105be6020938361291b565b810103126105f357915191929091907fc4cc84355ef3f7327b5aa6c366cafe189c44e1a7807ce501f6f3a503a66717e8610517565b600080fd5b3d91506105b1565b6040513d87823e3d90fd5b60ff8160081c16158061075a575b610748577f000000000000000000000000000000000000000000000000000000000000000015158061073d575b8061072f575b61071d5760ff849160101c1680610710575b6106f6575b61066f90600e546128c8565b8061068f575b50630100000063ff00000019601154161760115538610448565b8047106106e45783808080937f00000000000000000000000000000000000000000000000000000000000000005af16106c6612b86565b50156106d25738610675565b604051633d2cec6f60e21b8152600490fd5b604051639c88354560e01b8152600490fd5b5061066f610709600d5460135490612b79565b9050610663565b50600d546013541061065e565b604051635961cb6360e11b8152600490fd5b5060ff8160101c161561064c565b50600d541515610646565b604051632c17c9c760e21b8152600490fd5b50600b541515610619565b60081c60ff161580610c4f575b6107485747600d54116106e4577f00000000000000000000000000000000000000000000000000000000000000006107d6606435827f00000000000000000000000000000000000000000000000000000000000000006001600160a01b0316612c49565b600d5461012c4201804211610c3b576060869160c46040518096819363f305d71960e01b835260018060a01b037f00000000000000000000000000000000000000000000000000000000000000001660048401526064356024840152608435604484015260a435606484015230608484015260a483015260018060a01b031695865af1918215610c2e57819382908394610be6575b506040516315ab88c960e31b815291602083600481845afa908115610bb9576004938592610bc4575b506020906040519485809263c45a015560e01b82525afa928315610bb9578493610b97575b5060405163e6a4390560e01b81526001600160a01b037f00000000000000000000000000000000000000000000000000000000000000008116600483015291821660248201529260209184916044918391165afa918215610b8c578392610b5b575b5060207f000000000000000000000000000000000000000000000000000000000000000061095386826001600160a01b038716612c49565b608461097f7f0000000000000000000000000000000000000000000000000000000000000000426128c8565b604051630aa393f360e01b81526001600160a01b038781166004830152602482018a905260448201929092527f0000000000000000000000000000000000000000000000000000000000000000821660648201529687938492165af1928315610b50578893610afc575b50601283905560138190556011805462ff00001916620100001790556040805186815260208101929092528181018590527fce43c008407997433724b443add46562764945cebefa7fb64f11a3537db3a15b9290916001600160a01b038216907f64b83944e79c3ce8d4c297411de637c3e102d064677aac0c163976ebdcd6f50e90606090a2610a997f0000000000000000000000000000000000000000000000000000000000000000426128c8565b825195865260208601526001600160a01b031693a380606435111561043757610ac7610af691606435612b79565b7f00000000000000000000000000000000000000000000000000000000000000006001600160a01b0316612bc6565b38610437565b9092506020813d602011610b48575b81610b186020938361291b565b810103126105f35751917fce43c008407997433724b443add46562764945cebefa7fb64f11a3537db3a15b6109e9565b3d9150610b0b565b6040513d8a823e3d90fd5b610b7e91925060203d602011610b85575b610b76818361291b565b810190612d64565b903861091b565b503d610b6c565b6040513d85823e3d90fd5b6020919350610bb290823d8411610b8557610b76818361291b565b92906108b9565b6040513d86823e3d90fd5b6020919250610bdf90823d8411610b8557610b76818361291b565b9190610894565b9450509150506060823d8211610c26575b81610c046060938361291b565b81010312610c2257848251916040602085015194015192933861086b565b8480fd5b3d9150610bf7565b50604051903d90823e3d90fd5b634e487b7160e01b86526011600452602486fd5b50600b541515610772565b50600d541515610432565b50606435151561042c565b507f00000000000000000000000000000000000000000000000000000000000000001515610426565b600b54837f00000000000000000000000000000000000000000000000000000000000000006001600160a01b0316803b15610d3057819060046040518095819363990087b760e01b83525af19182610d18575b5050610d04576040516354ce345960e01b8152600490fd5b61010061ff00196011541617601155610415565b610d21906128eb565b610d2c578338610cec565b8380fd5b5080fd5b50600b541515610410565b9050610d4d60105482612b79565b90610d81827f00000000000000000000000000000000000000000000000000000000000000006001600160a01b0316612bc6565b6010557f3316cd92e8029a9d825199ad5d83f540869e52a9d77cf97560178a0b5ebac6fb602082604051908152a1386103ff565b5080601054106103fa565b610dc9906128eb565b610dd45782386103ec565b8280fd5b6040513d84823e3d90fd5b604051639dd854d360e01b8152600490fd5b93506103ef915050565b90506020813d602011610e2d575b81610e1a6020938361291b565b81010312610e295751386103a4565b8580fd5b3d9150610e0d565b6040513d88823e3d90fd5b6040516370a0823160e01b81527f00000000000000000000000000000000000000000000000000000000000000006001600160a01b0381811660048401527f00000000000000000000000000000000000000000000000000000000000000001690602083602481855afa928315610e35578693610ef6575b50602435808410610eda575b50505050600160ff196011541617601155610353565b610eed93610ee791612b79565b91612c0d565b38808080610ec4565b9092506020813d8211610f21575b81610f116020938361291b565b810103126105f357519138610eb8565b3d9150610f04565b6127109182610f3a60035483612b66565b0492610f468483612b79565b907f000000000000000000000000000000000000000000000000000000000000000080156110dd57610f789083612b66565b045b610f848183612b79565b9160405160c0810181811067ffffffffffffffff8211176110c75760019160a091604052868152886020820152836040820152846060820152856080820152015283600a5585600b55600c55600d55600e55600160ff1980931617600f5547106106e4576040516370a0823160e01b81523060048201526020816024817f00000000000000000000000000000000000000000000000000000000000000006001600160a01b03165afa908115610e35578691611096575b506110538461104e6064356024356128c8565b6128c8565b116110845760039115611070575b60075416176007553880610345565b61010061ff00196011541617601155611061565b6040516378a7ac6760e11b8152600490fd5b90506020813d82116110bf575b816110b06020938361291b565b810103126105f357513861103b565b3d91506110a3565b634e487b7160e01b600052604160045260246000fd5b505086610f7a565b6040516346c21a5560e01b8152600490fd5b6110ff612a2a565b60ff60075416600781101561113f5760028114159081611133575b501561030e575b6040516307a92f1960e51b8152600490fd5b6003915014153861111a565b634e487b7160e01b84526021600452602484fd5b60039150141538610308565b60405163475a253560e01b8152600490fd5b503461029c578060031936011261029c57602060115460ff60405191831c1615158152f35b503461029c578060031936011261029c5760206040517f00000000000000000000000000000000000000000000000000000000000000008152f35b503461029c57604036600319011261029c5761120f6004356111f161271b565b90808452600260205261120a60016040862001546127ab565b612851565b5080f35b503461029c57602036600319011261029c576040906001600160a01b0380611239612705565b1682526014602052828083205492601560205220541682519182526020820152f35b503461029c578060031936011261029c576020601354604051908152f35b503461029c578060031936011261029c5760206040517f00000000000000000000000000000000000000000000000000000000000000008152f35b503461029c578060031936011261029c576020600854604051908152f35b503461029c578060031936011261029c576112eb612a07565b60ff6007541660078110156113fb57600581141590816113ef575b506113dd573381526014602052604081205480156113cb573382526014602052604082208290557f00000000000000000000000000000000000000000000000000000000000000006001600160a01b031681816113bb5783808093508092335af161136f612b86565b50156113a9575b6040519081527fd7dee2702d63ad89917b6a4da9981c90c4d24f8c2bdfd64c604ecae57d8d065160203392a26001815580f35b60405163b9da5d2b60e01b8152600490fd5b6113c6913390612c0d565b611376565b604051631971fbf360e21b8152600490fd5b604051630b4d698160e01b8152600490fd5b60069150141538611306565b634e487b7160e01b82526021600452602482fd5b503461029c5761141e36612698565b611426612731565b61142e612a2a565b6007549160ff831660078110156114b157600203611121576008547f000000000000000000000000000000000000000000000000000000000000000011156111215760057f5b55eccea968a9bf1df9a6702e20475ac67bb0d7f402f51701eef38e619368fe9360ff1916176007556114ab60405192839283612d3c565b0390a180f35b634e487b7160e01b85526021600452602485fd5b503461029c578060031936011261029c576114de612731565b6114e6612a07565b60ff6007541660078110156113fb57600403611121576040516370a0823160e01b81523060048201527f00000000000000000000000000000000000000000000000000000000000000006001600160a01b0316602082602481845afa918215610b8c57839261159e575b508161155f575b826001815580f35b7fb3c71476dfd272eb50cc448234b60ee937ab332f54e7eaab71159ca6eb67744060208361159061dead9585612bc6565b604051908152a33880611557565b9091506020813d82116115c9575b816115b96020938361291b565b810103126105f357519038611550565b3d91506115ac565b503461029c578060031936011261029c57602060ff60115460081c166040519015158152f35b503461029c578060031936011261029c5760206040517f00000000000000000000000000000000000000000000000000000000000000008152f35b503461029c57608036600319011261029c5761164c612731565b60ff6007541660078110156113fb5761171457600854611714577f0000000000000000000000000000000000000000000000000000000000000000421015611714576044356024356004356116a183836128c8565b6116ae60643580926128c8565b8203611702577f0ad166d8be1925ee44c5a77600b8a5f7e58cbe711c0dbd99624014a81b8350ba9360809383600355806004558160055582600655604051938452602084015260408301526060820152a180f35b604051632b00a33d60e11b8152600490fd5b60405162b5d7e160e81b8152600490fd5b503461029c578060031936011261029c57602060ff601154166040519015158152f35b503461029c578060031936011261029c5760c0600a54600b54600c54600d54600e549160ff600f5416936040519586526020860152604085015260608401526080830152151560a0820152f35b503461029c578060031936011261029c576040517f00000000000000000000000000000000000000000000000000000000000000006001600160a01b03168152602090f35b503461029c578060031936011261029c576040517f00000000000000000000000000000000000000000000000000000000000000006001600160a01b03168152602090f35b503461029c578060031936011261029c576020600954604051908152f35b503461029c578060031936011261029c57602090604051908152f35b503461029c578060031936011261029c57602060ff60115460181c166040519015158152f35b503461029c57604036600319011261029c57604061189b61271b565b9160043581526002602052209060018060a01b0316600052602052602060ff604060002054166040519015158152f35b503461029c578060031936011261029c5760206040517f00000000000000000000000000000000000000000000000000000000000000008152f35b503461029c578060031936011261029c5760206040517f00000000000000000000000000000000000000000000000000000000000000008152f35b503461029c578060031936011261029c5761195a612731565b6119626129e9565b600160ff19815416176001557f62e78cea01bee320cd4e420270b5ea74000d11b0c9f74754ebdbfc544b05a2586020604051338152a180f35b503461029c578060031936011261029c5760206040517f00000000000000000000000000000000000000000000000000000000000000008152f35b503461029c578060031936011261029c5760e060ff6007541660085460095490611a0360405180946126e2565b60208301527f000000000000000000000000000000000000000000000000000000000000000060408301527f000000000000000000000000000000000000000000000000000000000000000060608301527f000000000000000000000000000000000000000000000000000000000000000060808301527f000000000000000000000000000000000000000000000000000000000000000060a083015260c0820152f35b503461029c578060031936011261029c5760206040517fa49807205ce4d355092ef5a8a18f56e8913cf4a201fbe287825b095693c217758152f35b50604036600319011261029c57600435611afa61271b565b90611b03612a07565b611b0b6129e9565b611b13612a2a565b60ff60075416600781101561113f576001036111215733835260209160148352611b418260408620546128c8565b7f00000000000000000000000000000000000000000000000000000000000000008110611d02577f000000000000000000000000000000000000000000000000000000000000000010611cf057611b9a826008546128c8565b7f000000000000000000000000000000000000000000000000000000000000000010611cde576001600160a01b03827f0000000000000000000000000000000000000000000000000000000000000000821680611ca85750340361112157807fec470969f3350ca5a15f0d85053f8763ffd0ee39c7b74fcdc5af7862718e292a925b3387526014865260408720611c328682546128c8565b9055611c40856008546128c8565b6008551680151580611c93575b611c71575b5033855260158452604085205416926040519283523392a36001815580f35b338652601585526040862080546001600160a01b031916909117905538611c52565b50338652601585528160408720541615611c4d565b92611cd983927fec470969f3350ca5a15f0d85053f8763ffd0ee39c7b74fcdc5af7862718e292a953090339061293d565b611c1c565b604051631c4af3c960e11b8152600490fd5b6040516374368fb960e11b8152600490fd5b60405163860b82a960e01b8152600490fd5b503461029c578060031936011261029c576040517f00000000000000000000000000000000000000000000000000000000000000006001600160a01b03168152602090f35b503461029c578060031936011261029c57602060ff600154166040519015158152f35b503461029c578060031936011261029c576020601054604051908152f35b503461029c578060031936011261029c576040517f00000000000000000000000000000000000000000000000000000000000000006001600160a01b03168152602090f35b503461029c57602036600319011261029c576020906001600160a01b039060409082611e09612705565b16815260158452205416604051908152f35b503461029c57602036600319011261029c576020906040906001600160a01b03611e43612705565b168152601483522054604051908152f35b503461029c578060031936011261029c57611e6d612731565b60015460ff811615611ead5760ff19166001557f5db9ee0a495bf2e6ff9c91a7834c1ba4fdd244a5e8aa4e537bd38aeae4b073aa6020604051338152a180f35b604051638dfc202b60e01b8152600490fd5b503461029c57606036600319011261029c57604435602435611edf612731565b611ee7612a07565b611eef612a2a565b60ff60075416600781101561113f5760020361112157600854907f000000000000000000000000000000000000000000000000000000000000000082106110e557611f4a612710611f4260035485612b66565b048093612b79565b60018060a01b03807f00000000000000000000000000000000000000000000000000000000000000001691867f000000000000000000000000000000000000000000000000000000000000000094837f0000000000000000000000000000000000000000000000000000000000000000611fc683828a8a61293d565b16803b15610dd457604483926040519485938492637c382d0b60e01b8452600435600485015260248401525af18015610b50576122c5575b5086907f0000000000000000000000000000000000000000000000000000000000000000838116801591821561222e5750847f00000000000000000000000000000000000000000000000000000000000000001691823b15610c225784899360046040518096819363990087b760e01b83525af180156106005788938691612215575b50505b15612206575082809281925af1612099612b86565b50156113a9575b600854947f000000000000000000000000000000000000000000000000000000000000000095868110806121fd575b61212d575b4260098190556007805460ff19166004179055600854604080519182526020820189905281019190915288907ff3e2f1d90bd58f6807b6468783c27fdc68307b057882b3ca4eb0f3bb2116789990606090a16001815580f35b9061213b6121419288612b79565b90612b66565b9480156121e7577ff3e2f1d90bd58f6807b6468783c27fdc68307b057882b3ca4eb0f3bb2116789995049081612178575b806120d4565b7f3316cd92e8029a9d825199ad5d83f540869e52a9d77cf97560178a0b5ebac6fb936020936121d792604051926323b872dd60e01b8785015216602483015261dead6044830152836064830152606482526121d2826128ff565b612981565b604051908152a138808080612172565b634e487b7160e01b600052601260045260246000fd5b508115156120cf565b6122109350612c0d565b6120a0565b612221919294506128eb565b610d2c5786918438612081565b91857f000000000000000000000000000000000000000000000000000000000000000061225c8b8286612c49565b16803b15610e295760405163398da91160e01b81526001600160a01b03949094166004850152602484018a905285908490604490829084905af1801561060057889386916122ac575b5050612084565b6122b8919294506128eb565b610d2c57869184386122a5565b6122d1909791976128eb565b9538611ffe565b503461029c57604036600319011261029c576122f261271b565b336001600160a01b0382160361230e5761120f90600435612851565b60405163334bd91960e11b8152600490fd5b503461029c578060031936011261029c5760206040517f00000000000000000000000000000000000000000000000000000000000000008152f35b503461029c578060031936011261029c576040517f00000000000000000000000000000000000000000000000000000000000000006001600160a01b03168152602090f35b503461029c57604036600319011261029c5761120f6004356123c061271b565b9080845260026020526123d960016040862001546127ab565b6127d1565b503461029c57602036600319011261029c576123f8612705565b612400612731565b612408612a07565b60ff60075416600781101561246d57600403611121576001600160a01b0381161561245b578190478061243d57826001815580f35b8280929181925af161244d612b86565b50156106d257803880611557565b60405163e6c4247b60e01b8152600490fd5b634e487b7160e01b83526021600452602483fd5b503461029c578060031936011261029c57602060ff60115460101c166040519015158152f35b503461029c57602036600319011261029c5760016040602092600435815260028452200154604051908152f35b503461029c578060031936011261029c57602060ff600754166124fa60405180926126e2565bf35b503461029c578060031936011261029c57608060035460045460055460065491604051938452602084015260408301526060820152f35b503461029c5761254236612698565b61254a612731565b612552612a2a565b6007549160ff831660078110156114b15780151590816125ad575b506111215760067f2ac842f90dab3279148f7e55ac91d911f75c1c300a202a5250e05400b15fa1569360ff1916176007556114ab60405192839283612d3c565b6001915014153861256d565b503461029c578060031936011261029c576040517f00000000000000000000000000000000000000000000000000000000000000006001600160a01b03168152602090f35b503461029c578060031936011261029c576040517f00000000000000000000000000000000000000000000000000000000000000006001600160a01b03168152602090f35b905034610d30576020366003190112610d305760043563ffffffff60e01b8116809103610dd45760209250637965db0b60e01b8114908115612687575b5015158152f35b6301ffc9a760e01b14905038612680565b9060206003198301126105f35760043567ffffffffffffffff928382116105f357806023830112156105f35781600401359384116105f357602484830101116105f3576024019190565b9060078210156126ef5752565b634e487b7160e01b600052602160045260246000fd5b600435906001600160a01b03821682036105f357565b602435906001600160a01b03821682036105f357565b3360009081527fe5ebfa64fca8d502a8e50c1edffd2c31ef4dad5b396e65d9f397fb028f74abc560205260409020547fa49807205ce4d355092ef5a8a18f56e8913cf4a201fbe287825b095693c217759060ff161561278d5750565b6044906040519063e2517d3f60e01b82523360048301526024820152fd5b80600052600260205260406000203360005260205260ff604060002054161561278d5750565b906000918083526002602052604083209160018060a01b03169182845260205260ff6040842054161560001461284c5780835260026020526040832082845260205260408320600160ff198254161790557f2f8788117e7eff1d82e926ec794901d17c78024a50270940304540a733656f0d339380a4600190565b505090565b906000918083526002602052604083209160018060a01b03169182845260205260ff60408420541660001461284c578083526002602052604083208284526020526040832060ff1981541690557ff6391f5c32d9c69d2a47ea670b442974b53935d1edc7fd64eb21e047a839171b339380a4600190565b919082018092116128d557565b634e487b7160e01b600052601160045260246000fd5b67ffffffffffffffff81116110c757604052565b60a0810190811067ffffffffffffffff8211176110c757604052565b90601f8019910116810190811067ffffffffffffffff8211176110c757604052565b6040516323b872dd60e01b60208201526001600160a01b03928316602482015292909116604483015260648083019390935291815261297f916121d2826128ff565b565b906000602091828151910182855af1156129dd576000513d6129d457506001600160a01b0381163b155b6129b25750565b604051635274afe760e01b81526001600160a01b039091166004820152602490fd5b600114156129ab565b6040513d6000823e3d90fd5b60ff600154166129f557565b60405163d93c066560e01b8152600490fd5b600260005414612a18576002600055565b604051633ee5aeb560e01b8152600490fd5b600780549060ff8216917f000000000000000000000000000000000000000000000000000000000000000042101580612b56575b612b47575b50805460ff8116828110156126ef57600114612adc575b5060ff81541690808210156126ef578210156126ef57808203612a9b575050565b7f0d643a1384921de4b8ad16df0a695f1e75fcfe3bcac27f9c5c8cee464587238291612ad9604092612acf845180946126e2565b60208301906126e2565ba1565b7f00000000000000000000000000000000000000000000000000000000000000004210801590612b1b575b15612a7a5760ff1916600217815538612a7a565b506008547f00000000000000000000000000000000000000000000000000000000000000001115612b07565b60ff1916600117815538612a63565b50818310156126ef578215612a5e565b818102929181159184041417156128d557565b919082039182116128d557565b3d15612bc1573d9067ffffffffffffffff82116110c75760405191612bb5601f8201601f19166020018461291b565b82523d6000602084013e565b606090565b906040519063a9059cbb60e01b602083015261dead6024830152604482015260448152608081019181831067ffffffffffffffff8411176110c75761297f92604052612981565b60405163a9059cbb60e01b60208201526001600160a01b0392909216602483015260448083019390935291815261297f916121d260648361291b565b60405163095ea7b360e01b602082018181526001600160a01b038516602484015260448084019690965294825294939092612c8560648561291b565b60206000809386519082875af182513d82612d17575b505015612cab575b505050509050565b60405160208101969096526001600160a01b0316602486015260448086018290528552608085019067ffffffffffffffff821186831017612d035750612cf993946121d29160405282612981565b8038808080612ca3565b634e487b7160e01b81526041600452602490fd5b909150612d3457506001600160a01b0383163b15155b3880612c9b565b600114612d2d565b90918060409360208452816020850152848401376000828201840152601f01601f1916010190565b908160209103126105f357516001600160a01b03811681036105f3579056fea26469706673582212206f6abc5e6753b2224060987d816b7593fc4bad8ec200daeec2e74b096bfc5dc764736f6c634300081400332f8788117e7eff1d82e926ec794901d17c78024a50270940304540a733656f0d","opcodes":"CALLVALUE PUSH3 0x508 JUMPI PUSH3 0x3420 CODESIZE DUP2 SWAP1 SUB PUSH2 0x280 PUSH1 0x1F DUP3 ADD PUSH1 0x1F NOT AND DUP2 ADD SWAP1 PUSH1 0x1 PUSH1 0x1 PUSH1 0x40 SHL SUB DUP3 GT SWAP1 DUP3 LT OR PUSH3 0x3D9 JUMPI PUSH2 0x200 SWAP3 DUP3 SWAP2 PUSH1 0x40 MSTORE PUSH2 0x280 CODECOPY SLT PUSH3 0x508 JUMPI PUSH3 0x4E PUSH2 0x280 PUSH3 0x50D JUMP JUMPDEST PUSH3 0x5B PUSH2 0x2A0 PUSH3 0x50D JUMP JUMPDEST PUSH2 0x2C0 MLOAD PUSH2 0x2E0 MLOAD PUSH2 0x300 MLOAD PUSH2 0x320 MLOAD PUSH2 0x340 MLOAD PUSH2 0x360 MLOAD SWAP4 SWAP7 SWAP6 SWAP5 SWAP4 PUSH3 0x85 PUSH2 0x380 PUSH3 0x50D JUMP JUMPDEST SWAP2 PUSH3 0x93 PUSH2 0x3A0 PUSH3 0x50D JUMP JUMPDEST SWAP4 PUSH3 0xA1 PUSH2 0x3C0 PUSH3 0x50D JUMP JUMPDEST SWAP6 PUSH3 0xAF PUSH2 0x3E0 PUSH3 0x50D JUMP JUMPDEST SWAP11 PUSH3 0xBD PUSH2 0x400 PUSH3 0x50D JUMP JUMPDEST SWAP9 PUSH3 0xCB PUSH2 0x420 PUSH3 0x50D JUMP JUMPDEST PUSH2 0x440 MLOAD PUSH2 0x260 MSTORE PUSH2 0x460 MLOAD PUSH1 0x1 PUSH1 0x0 SSTORE SWAP13 SWAP1 SWAP12 SWAP1 DUP3 DUP5 LT PUSH3 0x4F6 JUMPI DUP7 DUP9 GT ISZERO PUSH3 0x4F6 JUMPI PUSH1 0x1 PUSH1 0x1 PUSH1 0xA0 SHL SUB DUP10 DUP2 AND ISZERO PUSH3 0x4E4 JUMPI DUP1 DUP12 AND ISZERO PUSH3 0x4E4 JUMPI DUP1 DUP13 AND ISZERO PUSH3 0x4E4 JUMPI PUSH2 0x2710 PUSH2 0x260 MLOAD GT PUSH3 0x4AE JUMPI DUP1 DUP14 AND ISZERO DUP1 ISZERO SWAP1 PUSH3 0x4A2 JUMPI JUMPDEST ISZERO PUSH3 0x46F JUMPI DUP14 AND ISZERO DUP1 ISZERO SWAP1 PUSH3 0x463 JUMPI JUMPDEST ISZERO PUSH3 0x430 JUMPI PUSH4 0x1E13380 DUP15 LT DUP1 ISZERO SWAP1 PUSH3 0x424 JUMPI JUMPDEST ISZERO PUSH3 0x3EF JUMPI PUSH1 0x80 MSTORE PUSH1 0xA0 MSTORE PUSH1 0xC0 MSTORE PUSH1 0xE0 MSTORE PUSH2 0x100 MSTORE PUSH2 0x120 MSTORE PUSH2 0x140 MSTORE PUSH2 0x160 MSTORE PUSH2 0x180 MSTORE PUSH2 0x1A0 MSTORE PUSH2 0x1C0 MSTORE PUSH2 0x1E0 MSTORE PUSH2 0x200 MSTORE PUSH3 0x1BD PUSH2 0x260 MLOAD SWAP3 PUSH2 0x220 SWAP4 DUP5 MSTORE PUSH2 0x240 SWAP3 DUP4 MSTORE PUSH1 0xFF NOT PUSH1 0x7 SLOAD AND PUSH1 0x7 SSTORE PUSH3 0x1B6 DUP2 PUSH3 0x522 JUMP JUMPDEST POP PUSH3 0x5A3 JUMP JUMPDEST POP PUSH1 0x40 MLOAD PUSH1 0x80 DUP2 ADD PUSH1 0x1 PUSH1 0x1 PUSH1 0x40 SHL SUB DUP2 GT DUP3 DUP3 LT OR PUSH3 0x3D9 JUMPI PUSH1 0x40 MSTORE PUSH1 0x32 PUSH1 0x60 PUSH2 0x1F4 SWAP3 DUP4 DUP2 MSTORE PUSH1 0xFA PUSH1 0x20 DUP3 ADD MSTORE PUSH1 0xC8 PUSH1 0x40 DUP3 ADD MSTORE ADD MSTORE PUSH1 0x3 SSTORE PUSH1 0xFA PUSH1 0x4 SSTORE PUSH1 0xC8 PUSH1 0x5 SSTORE PUSH1 0x32 PUSH1 0x6 SSTORE PUSH1 0x40 MLOAD SWAP1 PUSH2 0x2DB9 SWAP3 DUP4 PUSH3 0x647 DUP5 CODECOPY PUSH1 0x80 MLOAD DUP4 DUP2 DUP2 PUSH2 0x4D8 ADD MSTORE DUP2 DUP2 PUSH2 0x7A9 ADD MSTORE DUP2 DUP2 PUSH2 0x805 ADD MSTORE DUP2 DUP2 PUSH2 0x8D1 ADD MSTORE DUP2 DUP2 PUSH2 0xAC9 ADD MSTORE DUP2 DUP2 PUSH2 0xD54 ADD MSTORE DUP2 DUP2 PUSH2 0xE80 ADD MSTORE DUP2 DUP2 PUSH2 0x1003 ADD MSTORE DUP2 DUP2 PUSH2 0x1511 ADD MSTORE DUP2 DUP2 PUSH2 0x1DB0 ADD MSTORE PUSH2 0x1F54 ADD MSTORE PUSH1 0xA0 MLOAD DUP4 DUP2 DUP2 PUSH2 0x132F ADD MSTORE DUP2 DUP2 PUSH2 0x1BCB ADD MSTORE DUP2 DUP2 PUSH2 0x2003 ADD MSTORE PUSH2 0x2371 ADD MSTORE PUSH1 0xC0 MLOAD DUP4 DUP2 DUP2 PUSH2 0x313 ADD MSTORE DUP2 DUP2 PUSH2 0x144B ADD MSTORE DUP2 DUP2 PUSH2 0x18E3 ADD MSTORE DUP2 DUP2 PUSH2 0x1A0A ADD MSTORE PUSH2 0x1F0B ADD MSTORE PUSH1 0xE0 MLOAD DUP4 DUP2 DUP2 PUSH2 0x279 ADD MSTORE DUP2 DUP2 PUSH2 0x1A30 ADD MSTORE DUP2 DUP2 PUSH2 0x1B9C ADD MSTORE DUP2 DUP2 PUSH2 0x20A6 ADD MSTORE PUSH2 0x2B21 ADD MSTORE PUSH2 0x100 MLOAD DUP4 DUP2 DUP2 PUSH2 0x160F ADD MSTORE PUSH2 0x1B43 ADD MSTORE PUSH2 0x120 MLOAD DUP4 DUP2 DUP2 PUSH2 0x191E ADD MSTORE PUSH2 0x1B6A ADD MSTORE PUSH2 0x140 MLOAD DUP4 DUP2 DUP2 PUSH2 0x1668 ADD MSTORE DUP2 DUP2 PUSH2 0x19B3 ADD MSTORE DUP2 DUP2 PUSH2 0x1A56 ADD MSTORE PUSH2 0x2A36 ADD MSTORE PUSH2 0x160 MLOAD DUP4 DUP2 DUP2 PUSH2 0x1A7C ADD MSTORE DUP2 DUP2 PUSH2 0x2338 ADD MSTORE PUSH2 0x2ADE ADD MSTORE PUSH2 0x180 MLOAD DUP4 DUP2 DUP2 PUSH2 0xC9F ADD MSTORE DUP2 DUP2 PUSH2 0x1D2A ADD MSTORE DUP2 DUP2 PUSH2 0x2032 ADD MSTORE PUSH2 0x2232 ADD MSTORE PUSH2 0x1A0 MLOAD DUP4 DUP2 DUP2 PUSH2 0x364 ADD MSTORE DUP2 DUP2 PUSH2 0xE4F ADD MSTORE DUP2 DUP2 PUSH2 0x17AB ADD MSTORE PUSH2 0x1F9B ADD MSTORE PUSH2 0x1C0 MLOAD DUP4 DUP2 DUP2 PUSH2 0x69D ADD MSTORE DUP2 DUP2 PUSH2 0x9AD ADD MSTORE DUP2 DUP2 PUSH2 0x17F0 ADD MSTORE PUSH2 0x1F78 ADD MSTORE PUSH2 0x1E0 MLOAD DUP4 DUP2 DUP2 PUSH2 0x781 ADD MSTORE PUSH2 0x25CF ADD MSTORE PUSH2 0x200 MLOAD DUP4 DUP2 DUP2 PUSH2 0x920 ADD MSTORE PUSH2 0x2614 ADD MSTORE MLOAD DUP3 DUP2 DUP2 PUSH2 0x61F ADD MSTORE DUP2 DUP2 PUSH2 0xC73 ADD MSTORE DUP2 DUP2 PUSH2 0xF49 ADD MSTORE PUSH2 0x1291 ADD MSTORE MLOAD DUP2 DUP2 DUP2 PUSH2 0x95A ADD MSTORE DUP2 DUP2 PUSH2 0xA74 ADD MSTORE PUSH2 0x11AE ADD MSTORE RETURN JUMPDEST PUSH4 0x4E487B71 PUSH1 0xE0 SHL PUSH1 0x0 MSTORE PUSH1 0x41 PUSH1 0x4 MSTORE PUSH1 0x24 PUSH1 0x0 REVERT JUMPDEST PUSH1 0x40 MLOAD PUSH3 0x461BCD PUSH1 0xE5 SHL DUP2 MSTORE PUSH1 0x20 PUSH1 0x4 DUP3 ADD MSTORE PUSH1 0xD PUSH1 0x24 DUP3 ADD MSTORE PUSH13 0x4D494E5F31325F4D4F4E544853 PUSH1 0x98 SHL PUSH1 0x44 DUP3 ADD MSTORE PUSH1 0x64 SWAP1 REVERT JUMPDEST POP PUSH2 0x260 MLOAD ISZERO PUSH3 0x156 JUMP JUMPDEST PUSH1 0x40 MLOAD PUSH3 0x461BCD PUSH1 0xE5 SHL DUP2 MSTORE PUSH1 0x20 PUSH1 0x4 DUP3 ADD MSTORE PUSH1 0xB PUSH1 0x24 DUP3 ADD MSTORE PUSH11 0x2722A2A22FA627A1A5A2A9 PUSH1 0xA9 SHL PUSH1 0x44 DUP3 ADD MSTORE PUSH1 0x64 SWAP1 REVERT JUMPDEST POP PUSH2 0x260 MLOAD ISZERO PUSH3 0x140 JUMP JUMPDEST PUSH1 0x40 MLOAD PUSH3 0x461BCD PUSH1 0xE5 SHL DUP2 MSTORE PUSH1 0x20 PUSH1 0x4 DUP3 ADD MSTORE PUSH1 0xB PUSH1 0x24 DUP3 ADD MSTORE PUSH11 0x2722A2A22FA927AAAA22A9 PUSH1 0xA9 SHL PUSH1 0x44 DUP3 ADD MSTORE PUSH1 0x64 SWAP1 REVERT JUMPDEST POP PUSH2 0x260 MLOAD ISZERO PUSH3 0x12E JUMP JUMPDEST PUSH1 0x40 MLOAD PUSH3 0x461BCD PUSH1 0xE5 SHL DUP2 MSTORE PUSH1 0x20 PUSH1 0x4 DUP3 ADD MSTORE PUSH1 0xE PUSH1 0x24 DUP3 ADD MSTORE PUSH14 0x494E56414C49445F4C505F425053 PUSH1 0x90 SHL PUSH1 0x44 DUP3 ADD MSTORE PUSH1 0x64 SWAP1 REVERT JUMPDEST PUSH1 0x40 MLOAD PUSH4 0xE6C4247B PUSH1 0xE0 SHL DUP2 MSTORE PUSH1 0x4 SWAP1 REVERT JUMPDEST PUSH1 0x40 MLOAD PUSH4 0x7A92F19 PUSH1 0xE5 SHL DUP2 MSTORE PUSH1 0x4 SWAP1 REVERT JUMPDEST PUSH1 0x0 DUP1 REVERT JUMPDEST MLOAD SWAP1 PUSH1 0x1 PUSH1 0x1 PUSH1 0xA0 SHL SUB DUP3 AND DUP3 SUB PUSH3 0x508 JUMPI JUMP JUMPDEST PUSH1 0x1 PUSH1 0x1 PUSH1 0xA0 SHL SUB AND PUSH1 0x0 DUP2 DUP2 MSTORE PUSH32 0xAC33FF75C19E70FE83507DB0D683FD3465C996598DC972688B7ACE676C89077B PUSH1 0x20 MSTORE PUSH1 0x40 DUP2 KECCAK256 SLOAD SWAP1 SWAP2 SWAP1 PUSH1 0xFF AND PUSH3 0x59F JUMPI DUP2 DUP1 MSTORE PUSH1 0x2 PUSH1 0x20 MSTORE PUSH1 0x40 DUP3 KECCAK256 DUP2 DUP4 MSTORE PUSH1 0x20 MSTORE PUSH1 0x40 DUP3 KECCAK256 PUSH1 0x1 PUSH1 0xFF NOT DUP3 SLOAD AND OR SWAP1 SSTORE CALLER SWAP2 PUSH1 0x0 DUP1 MLOAD PUSH1 0x20 PUSH3 0x3400 DUP4 CODECOPY DUP2 MLOAD SWAP2 MSTORE DUP2 DUP1 LOG4 PUSH1 0x1 SWAP1 JUMP JUMPDEST POP SWAP1 JUMP JUMPDEST PUSH1 0x1 PUSH1 0x1 PUSH1 0xA0 SHL SUB AND PUSH1 0x0 DUP2 DUP2 MSTORE PUSH32 0xE5EBFA64FCA8D502A8E50C1EDFFD2C31EF4DAD5B396E65D9F397FB028F74ABC5 PUSH1 0x20 MSTORE PUSH1 0x40 DUP2 KECCAK256 SLOAD SWAP1 SWAP2 SWAP1 PUSH32 0xA49807205CE4D355092EF5A8A18F56E8913CF4A201FBE287825B095693C21775 SWAP1 PUSH1 0xFF AND PUSH3 0x641 JUMPI DUP1 DUP4 MSTORE PUSH1 0x2 PUSH1 0x20 MSTORE PUSH1 0x40 DUP4 KECCAK256 DUP3 DUP5 MSTORE PUSH1 0x20 MSTORE PUSH1 0x40 DUP4 KECCAK256 PUSH1 0x1 PUSH1 0xFF NOT DUP3 SLOAD AND OR SWAP1 SSTORE PUSH1 0x0 DUP1 MLOAD PUSH1 0x20 PUSH3 0x3400 DUP4 CODECOPY DUP2 MLOAD SWAP2 MSTORE CALLER SWAP4 DUP1 LOG4 PUSH1 0x1 SWAP1 JUMP JUMPDEST POP POP SWAP1 JUMP INVALID PUSH1 0x80 DUP1 PUSH1 0x40 MSTORE PUSH1 0x4 CALLDATASIZE LT ISZERO PUSH2 0x1D JUMPI JUMPDEST POP CALLDATASIZE ISZERO PUSH2 0x1B JUMPI PUSH1 0x0 DUP1 REVERT JUMPDEST STOP JUMPDEST PUSH1 0x0 SWAP1 DUP2 CALLDATALOAD PUSH1 0xE0 SHR SWAP1 DUP2 PUSH4 0x1FFC9A7 EQ PUSH2 0x2643 JUMPI POP DUP1 PUSH4 0x3FC2013 EQ PUSH2 0x25FE JUMPI DUP1 PUSH4 0x758D924 EQ PUSH2 0x25B9 JUMPI DUP1 PUSH4 0xB4F3F3D EQ PUSH2 0x2533 JUMPI DUP1 PUSH4 0x1E5EB1D0 EQ PUSH2 0x24FC JUMPI DUP1 PUSH4 0x200D2ED2 EQ PUSH2 0x24D4 JUMPI DUP1 PUSH4 0x248A9CA3 EQ PUSH2 0x24A7 JUMPI DUP1 PUSH4 0x260813D5 EQ PUSH2 0x2481 JUMPI DUP1 PUSH4 0x2C23BA53 EQ PUSH2 0x23DE JUMPI DUP1 PUSH4 0x2F2FF15D EQ PUSH2 0x23A0 JUMPI DUP1 PUSH4 0x3013CE29 EQ PUSH2 0x235B JUMPI DUP1 PUSH4 0x3197CBB6 EQ PUSH2 0x2320 JUMPI DUP1 PUSH4 0x36568ABE EQ PUSH2 0x22D8 JUMPI DUP1 PUSH4 0x387CD2CB EQ PUSH2 0x1EBF JUMPI DUP1 PUSH4 0x3F4BA83A EQ PUSH2 0x1E54 JUMPI DUP1 PUSH4 0x42E94C90 EQ PUSH2 0x1E1B JUMPI DUP1 PUSH4 0x4A3B68CC EQ PUSH2 0x1DDF JUMPI DUP1 PUSH4 0x4B60CE77 EQ PUSH2 0x1D9A JUMPI DUP1 PUSH4 0x50E15FDD EQ PUSH2 0x1D7C JUMPI DUP1 PUSH4 0x5C975ABB EQ PUSH2 0x1D59 JUMPI DUP1 PUSH4 0x6052970C EQ PUSH2 0x1D14 JUMPI DUP1 PUSH4 0x60B0B0F0 EQ PUSH2 0x1AE2 JUMPI DUP1 PUSH4 0x75B238FC EQ PUSH2 0x1AA7 JUMPI DUP1 PUSH4 0x767FA723 EQ PUSH2 0x19D6 JUMPI DUP1 PUSH4 0x78E97925 EQ PUSH2 0x199B JUMPI DUP1 PUSH4 0x8456CB59 EQ PUSH2 0x1941 JUMPI DUP1 PUSH4 0x8D3D6576 EQ PUSH2 0x1906 JUMPI DUP1 PUSH4 0x906A26E0 EQ PUSH2 0x18CB JUMPI DUP1 PUSH4 0x91D14854 EQ PUSH2 0x187F JUMPI DUP1 PUSH4 0x91ED3AB0 EQ PUSH2 0x1859 JUMPI DUP1 PUSH4 0xA217FDDF EQ PUSH2 0x183D JUMPI DUP1 PUSH4 0xA4317EF4 EQ PUSH2 0x181F JUMPI DUP1 PUSH4 0xA4475CE4 EQ PUSH2 0x17DA JUMPI DUP1 PUSH4 0xA5917BAF EQ PUSH2 0x1795 JUMPI DUP1 PUSH4 0xA77D38FA EQ PUSH2 0x1748 JUMPI DUP1 PUSH4 0xA9725D52 EQ PUSH2 0x1725 JUMPI DUP1 PUSH4 0xA9EDDF99 EQ PUSH2 0x1632 JUMPI DUP1 PUSH4 0xAAFFADF3 EQ PUSH2 0x15F7 JUMPI DUP1 PUSH4 0xAC7C5780 EQ PUSH2 0x15D1 JUMPI DUP1 PUSH4 0xAFB5F1A7 EQ PUSH2 0x14C5 JUMPI DUP1 PUSH4 0xB30CA2DA EQ PUSH2 0x140F JUMPI DUP1 PUSH4 0xB5545A3C EQ PUSH2 0x12D2 JUMPI DUP1 PUSH4 0xC5C4744C EQ PUSH2 0x12B4 JUMPI DUP1 PUSH4 0xC9F62AF2 EQ PUSH2 0x1279 JUMPI DUP1 PUSH4 0xCA8C3BEA EQ PUSH2 0x125B JUMPI DUP1 PUSH4 0xCD78D92C EQ PUSH2 0x1213 JUMPI DUP1 PUSH4 0xD547741F EQ PUSH2 0x11D1 JUMPI DUP1 PUSH4 0xDE35EB24 EQ PUSH2 0x1196 JUMPI DUP1 PUSH4 0xF2C4B647 EQ PUSH2 0x1171 JUMPI DUP1 PUSH4 0xF41E0BA9 EQ PUSH2 0x2BD JUMPI DUP1 PUSH4 0xF86AA92D EQ PUSH2 0x29F JUMPI PUSH4 0xFB86A404 SUB PUSH2 0xF JUMPI CALLVALUE PUSH2 0x29C JUMPI DUP1 PUSH1 0x3 NOT CALLDATASIZE ADD SLT PUSH2 0x29C JUMPI PUSH1 0x20 PUSH1 0x40 MLOAD PUSH32 0x0 DUP2 MSTORE RETURN JUMPDEST DUP1 REVERT JUMPDEST POP CALLVALUE PUSH2 0x29C JUMPI DUP1 PUSH1 0x3 NOT CALLDATASIZE ADD SLT PUSH2 0x29C JUMPI PUSH1 0x20 PUSH1 0x12 SLOAD PUSH1 0x40 MLOAD SWAP1 DUP2 MSTORE RETURN JUMPDEST POP CALLVALUE PUSH2 0x29C JUMPI PUSH1 0xC0 CALLDATASIZE PUSH1 0x3 NOT ADD SLT PUSH2 0x29C JUMPI PUSH1 0x4 CALLDATALOAD PUSH1 0x44 CALLDATALOAD PUSH2 0x2DD PUSH2 0x2731 JUMP JUMPDEST PUSH2 0x2E5 PUSH2 0x2A07 JUMP JUMPDEST PUSH1 0xFF PUSH1 0x7 SLOAD AND PUSH1 0x7 DUP2 LT ISZERO PUSH2 0x113F JUMPI PUSH1 0x4 DUP2 EQ PUSH2 0x115F JUMPI PUSH1 0x2 DUP2 EQ ISZERO SWAP1 DUP2 PUSH2 0x1153 JUMPI JUMPDEST POP PUSH2 0x10F7 JUMPI JUMPDEST PUSH1 0x8 SLOAD PUSH32 0x0 DUP2 LT PUSH2 0x10E5 JUMPI PUSH1 0xF SLOAD PUSH1 0xFF DUP2 AND ISZERO PUSH2 0xF29 JUMPI JUMPDEST POP POP PUSH1 0xFF PUSH1 0x11 SLOAD AND ISZERO PUSH2 0xE40 JUMPI JUMPDEST PUSH1 0x40 MLOAD PUSH4 0x2EB4A7AB PUSH1 0xE0 SHL DUP2 MSTORE DUP3 SWAP1 PUSH32 0x0 PUSH1 0x1 PUSH1 0x1 PUSH1 0xA0 SHL SUB AND SWAP1 PUSH1 0x20 DUP2 PUSH1 0x4 DUP2 DUP6 GAS STATICCALL SWAP1 DUP2 ISZERO PUSH2 0xE35 JUMPI DUP7 SWAP2 PUSH2 0xDFF JUMPI JUMPDEST POP DUP1 PUSH2 0xDF5 JUMPI POP DUP2 ISZERO PUSH2 0xDE3 JUMPI DUP5 SWAP2 DUP2 EXTCODESIZE ISZERO PUSH2 0xDD4 JUMPI DUP3 SWAP2 PUSH1 0x44 DUP4 SWAP3 PUSH1 0x40 MLOAD SWAP5 DUP6 SWAP4 DUP5 SWAP3 PUSH4 0x7C382D0B PUSH1 0xE0 SHL DUP5 MSTORE PUSH1 0x4 DUP5 ADD MSTORE PUSH1 0x24 CALLDATALOAD PUSH1 0x24 DUP5 ADD MSTORE GAS CALL DUP1 ISZERO PUSH2 0xDD8 JUMPI PUSH2 0xDC0 JUMPI JUMPDEST POP POP JUMPDEST DUP3 SWAP1 DUP1 ISZERO ISZERO DUP1 PUSH2 0xDB5 JUMPI JUMPDEST PUSH2 0xD3F JUMPI JUMPDEST POP PUSH1 0xFF PUSH1 0x11 SLOAD PUSH1 0x8 SHR AND ISZERO DUP1 PUSH2 0xD34 JUMPI JUMPDEST PUSH2 0xC99 JUMPI JUMPDEST PUSH1 0x11 SLOAD PUSH1 0xFF DUP2 PUSH1 0x10 SHR AND ISZERO DUP1 PUSH2 0xC70 JUMPI JUMPDEST DUP1 PUSH2 0xC65 JUMPI JUMPDEST DUP1 PUSH2 0xC5A JUMPI JUMPDEST PUSH2 0x765 JUMPI JUMPDEST POP PUSH1 0x11 SLOAD PUSH1 0xFF DUP2 PUSH1 0x18 SHR AND ISZERO PUSH2 0x60B JUMPI JUMPDEST POP PUSH1 0xFF PUSH1 0x11 SLOAD PUSH1 0x20 SHR AND ISZERO PUSH2 0x4C3 JUMPI JUMPDEST PUSH1 0xC0 SWAP1 PUSH32 0xC4CC84355EF3F7327B5AA6C366CAFE189C44E1A7807CE501F6F3A503A66717E8 SWAP3 TIMESTAMP PUSH1 0x9 SSTORE PUSH1 0x4 PUSH1 0xFF NOT PUSH1 0x7 SLOAD AND OR PUSH1 0x7 SSTORE PUSH1 0xA SLOAD SWAP2 PUSH1 0xB SLOAD PUSH1 0xE SLOAD SWAP1 PUSH1 0x40 MLOAD SWAP5 DUP6 MSTORE PUSH1 0x20 DUP6 ADD MSTORE PUSH1 0x40 DUP5 ADD MSTORE PUSH1 0x24 CALLDATALOAD PUSH1 0x60 DUP5 ADD MSTORE PUSH1 0x80 DUP4 ADD MSTORE PUSH1 0xA0 DUP3 ADD MSTORE LOG1 PUSH1 0x1 DUP2 SSTORE DUP1 RETURN JUMPDEST PUSH1 0x40 MLOAD PUSH4 0x70A08231 PUSH1 0xE0 SHL DUP2 MSTORE ADDRESS PUSH1 0x4 DUP3 ADD MSTORE PUSH32 0x0 PUSH1 0x1 PUSH1 0x1 PUSH1 0xA0 SHL SUB AND PUSH1 0x20 DUP3 PUSH1 0x24 DUP2 DUP5 GAS STATICCALL SWAP2 DUP3 ISZERO PUSH2 0x600 JUMPI DUP6 SWAP3 PUSH2 0x5A1 JUMPI JUMPDEST POP SWAP3 DUP2 PUSH32 0xC4CC84355EF3F7327B5AA6C366CAFE189C44E1A7807CE501F6F3A503A66717E8 SWAP5 PUSH1 0xC0 SWAP5 SWAP4 PUSH2 0x565 JUMPI JUMPDEST POP POP PUSH5 0x100000000 PUSH5 0xFF00000000 NOT PUSH1 0x11 SLOAD AND OR PUSH1 0x11 SSTORE SWAP3 POP SWAP1 POP PUSH2 0x458 JUMP JUMPDEST DUP2 PUSH2 0x593 PUSH32 0xDDAB54067AAC83090451464D8672D15B704D96DBEE6FF6A39BB4119FAEDE5D37 SWAP4 PUSH1 0x20 SWAP4 PUSH2 0x2BC6 JUMP JUMPDEST PUSH1 0x40 MLOAD SWAP1 DUP2 MSTORE LOG1 CODESIZE DUP1 PUSH2 0x545 JUMP JUMPDEST SWAP3 SWAP2 POP SWAP3 PUSH1 0x20 DUP4 RETURNDATASIZE PUSH1 0x20 GT PUSH2 0x5F8 JUMPI JUMPDEST DUP2 PUSH2 0x5BE PUSH1 0x20 SWAP4 DUP4 PUSH2 0x291B JUMP JUMPDEST DUP2 ADD SUB SLT PUSH2 0x5F3 JUMPI SWAP2 MLOAD SWAP2 SWAP3 SWAP1 SWAP2 SWAP1 PUSH32 0xC4CC84355EF3F7327B5AA6C366CAFE189C44E1A7807CE501F6F3A503A66717E8 PUSH2 0x517 JUMP JUMPDEST PUSH1 0x0 DUP1 REVERT JUMPDEST RETURNDATASIZE SWAP2 POP PUSH2 0x5B1 JUMP JUMPDEST PUSH1 0x40 MLOAD RETURNDATASIZE DUP8 DUP3 RETURNDATACOPY RETURNDATASIZE SWAP1 REVERT JUMPDEST PUSH1 0xFF DUP2 PUSH1 0x8 SHR AND ISZERO DUP1 PUSH2 0x75A JUMPI JUMPDEST PUSH2 0x748 JUMPI PUSH32 0x0 ISZERO ISZERO DUP1 PUSH2 0x73D JUMPI JUMPDEST DUP1 PUSH2 0x72F JUMPI JUMPDEST PUSH2 0x71D JUMPI PUSH1 0xFF DUP5 SWAP2 PUSH1 0x10 SHR AND DUP1 PUSH2 0x710 JUMPI JUMPDEST PUSH2 0x6F6 JUMPI JUMPDEST PUSH2 0x66F SWAP1 PUSH1 0xE SLOAD PUSH2 0x28C8 JUMP JUMPDEST DUP1 PUSH2 0x68F JUMPI JUMPDEST POP PUSH4 0x1000000 PUSH4 0xFF000000 NOT PUSH1 0x11 SLOAD AND OR PUSH1 0x11 SSTORE CODESIZE PUSH2 0x448 JUMP JUMPDEST DUP1 SELFBALANCE LT PUSH2 0x6E4 JUMPI DUP4 DUP1 DUP1 DUP1 SWAP4 PUSH32 0x0 GAS CALL PUSH2 0x6C6 PUSH2 0x2B86 JUMP JUMPDEST POP ISZERO PUSH2 0x6D2 JUMPI CODESIZE PUSH2 0x675 JUMP JUMPDEST PUSH1 0x40 MLOAD PUSH4 0x3D2CEC6F PUSH1 0xE2 SHL DUP2 MSTORE PUSH1 0x4 SWAP1 REVERT JUMPDEST PUSH1 0x40 MLOAD PUSH4 0x9C883545 PUSH1 0xE0 SHL DUP2 MSTORE PUSH1 0x4 SWAP1 REVERT JUMPDEST POP PUSH2 0x66F PUSH2 0x709 PUSH1 0xD SLOAD PUSH1 0x13 SLOAD SWAP1 PUSH2 0x2B79 JUMP JUMPDEST SWAP1 POP PUSH2 0x663 JUMP JUMPDEST POP PUSH1 0xD SLOAD PUSH1 0x13 SLOAD LT PUSH2 0x65E JUMP JUMPDEST PUSH1 0x40 MLOAD PUSH4 0x5961CB63 PUSH1 0xE1 SHL DUP2 MSTORE PUSH1 0x4 SWAP1 REVERT JUMPDEST POP PUSH1 0xFF DUP2 PUSH1 0x10 SHR AND ISZERO PUSH2 0x64C JUMP JUMPDEST POP PUSH1 0xD SLOAD ISZERO ISZERO PUSH2 0x646 JUMP JUMPDEST PUSH1 0x40 MLOAD PUSH4 0x2C17C9C7 PUSH1 0xE2 SHL DUP2 MSTORE PUSH1 0x4 SWAP1 REVERT JUMPDEST POP PUSH1 0xB SLOAD ISZERO ISZERO PUSH2 0x619 JUMP JUMPDEST PUSH1 0x8 SHR PUSH1 0xFF AND ISZERO DUP1 PUSH2 0xC4F JUMPI JUMPDEST PUSH2 0x748 JUMPI SELFBALANCE PUSH1 0xD SLOAD GT PUSH2 0x6E4 JUMPI PUSH32 0x0 PUSH2 0x7D6 PUSH1 0x64 CALLDATALOAD DUP3 PUSH32 0x0 PUSH1 0x1 PUSH1 0x1 PUSH1 0xA0 SHL SUB AND PUSH2 0x2C49 JUMP JUMPDEST PUSH1 0xD SLOAD PUSH2 0x12C TIMESTAMP ADD DUP1 TIMESTAMP GT PUSH2 0xC3B JUMPI PUSH1 0x60 DUP7 SWAP2 PUSH1 0xC4 PUSH1 0x40 MLOAD DUP1 SWAP7 DUP2 SWAP4 PUSH4 0xF305D719 PUSH1 0xE0 SHL DUP4 MSTORE PUSH1 0x1 DUP1 PUSH1 0xA0 SHL SUB PUSH32 0x0 AND PUSH1 0x4 DUP5 ADD MSTORE PUSH1 0x64 CALLDATALOAD PUSH1 0x24 DUP5 ADD MSTORE PUSH1 0x84 CALLDATALOAD PUSH1 0x44 DUP5 ADD MSTORE PUSH1 0xA4 CALLDATALOAD PUSH1 0x64 DUP5 ADD MSTORE ADDRESS PUSH1 0x84 DUP5 ADD MSTORE PUSH1 0xA4 DUP4 ADD MSTORE PUSH1 0x1 DUP1 PUSH1 0xA0 SHL SUB AND SWAP6 DUP7 GAS CALL SWAP2 DUP3 ISZERO PUSH2 0xC2E JUMPI DUP2 SWAP4 DUP3 SWAP1 DUP4 SWAP5 PUSH2 0xBE6 JUMPI JUMPDEST POP PUSH1 0x40 MLOAD PUSH4 0x15AB88C9 PUSH1 0xE3 SHL DUP2 MSTORE SWAP2 PUSH1 0x20 DUP4 PUSH1 0x4 DUP2 DUP5 GAS STATICCALL SWAP1 DUP2 ISZERO PUSH2 0xBB9 JUMPI PUSH1 0x4 SWAP4 DUP6 SWAP3 PUSH2 0xBC4 JUMPI JUMPDEST POP PUSH1 0x20 SWAP1 PUSH1 0x40 MLOAD SWAP5 DUP6 DUP1 SWAP3 PUSH4 0xC45A0155 PUSH1 0xE0 SHL DUP3 MSTORE GAS STATICCALL SWAP3 DUP4 ISZERO PUSH2 0xBB9 JUMPI DUP5 SWAP4 PUSH2 0xB97 JUMPI JUMPDEST POP PUSH1 0x40 MLOAD PUSH4 0xE6A43905 PUSH1 0xE0 SHL DUP2 MSTORE PUSH1 0x1 PUSH1 0x1 PUSH1 0xA0 SHL SUB PUSH32 0x0 DUP2 AND PUSH1 0x4 DUP4 ADD MSTORE SWAP2 DUP3 AND PUSH1 0x24 DUP3 ADD MSTORE SWAP3 PUSH1 0x20 SWAP2 DUP5 SWAP2 PUSH1 0x44 SWAP2 DUP4 SWAP2 AND GAS STATICCALL SWAP2 DUP3 ISZERO PUSH2 0xB8C JUMPI DUP4 SWAP3 PUSH2 0xB5B JUMPI JUMPDEST POP PUSH1 0x20 PUSH32 0x0 PUSH2 0x953 DUP7 DUP3 PUSH1 0x1 PUSH1 0x1 PUSH1 0xA0 SHL SUB DUP8 AND PUSH2 0x2C49 JUMP JUMPDEST PUSH1 0x84 PUSH2 0x97F PUSH32 0x0 TIMESTAMP PUSH2 0x28C8 JUMP JUMPDEST PUSH1 0x40 MLOAD PUSH4 0xAA393F3 PUSH1 0xE0 SHL DUP2 MSTORE PUSH1 0x1 PUSH1 0x1 PUSH1 0xA0 SHL SUB DUP8 DUP2 AND PUSH1 0x4 DUP4 ADD MSTORE PUSH1 0x24 DUP3 ADD DUP11 SWAP1 MSTORE PUSH1 0x44 DUP3 ADD SWAP3 SWAP1 SWAP3 MSTORE PUSH32 0x0 DUP3 AND PUSH1 0x64 DUP3 ADD MSTORE SWAP7 DUP8 SWAP4 DUP5 SWAP3 AND GAS CALL SWAP3 DUP4 ISZERO PUSH2 0xB50 JUMPI DUP9 SWAP4 PUSH2 0xAFC JUMPI JUMPDEST POP PUSH1 0x12 DUP4 SWAP1 SSTORE PUSH1 0x13 DUP2 SWAP1 SSTORE PUSH1 0x11 DUP1 SLOAD PUSH3 0xFF0000 NOT AND PUSH3 0x10000 OR SWAP1 SSTORE PUSH1 0x40 DUP1 MLOAD DUP7 DUP2 MSTORE PUSH1 0x20 DUP2 ADD SWAP3 SWAP1 SWAP3 MSTORE DUP2 DUP2 ADD DUP6 SWAP1 MSTORE PUSH32 0xCE43C008407997433724B443ADD46562764945CEBEFA7FB64F11A3537DB3A15B SWAP3 SWAP1 SWAP2 PUSH1 0x1 PUSH1 0x1 PUSH1 0xA0 SHL SUB DUP3 AND SWAP1 PUSH32 0x64B83944E79C3CE8D4C297411DE637C3E102D064677AAC0C163976EBDCD6F50E SWAP1 PUSH1 0x60 SWAP1 LOG2 PUSH2 0xA99 PUSH32 0x0 TIMESTAMP PUSH2 0x28C8 JUMP JUMPDEST DUP3 MLOAD SWAP6 DUP7 MSTORE PUSH1 0x20 DUP7 ADD MSTORE PUSH1 0x1 PUSH1 0x1 PUSH1 0xA0 SHL SUB AND SWAP4 LOG3 DUP1 PUSH1 0x64 CALLDATALOAD GT ISZERO PUSH2 0x437 JUMPI PUSH2 0xAC7 PUSH2 0xAF6 SWAP2 PUSH1 0x64 CALLDATALOAD PUSH2 0x2B79 JUMP JUMPDEST PUSH32 0x0 PUSH1 0x1 PUSH1 0x1 PUSH1 0xA0 SHL SUB AND PUSH2 0x2BC6 JUMP JUMPDEST CODESIZE PUSH2 0x437 JUMP JUMPDEST SWAP1 SWAP3 POP PUSH1 0x20 DUP2 RETURNDATASIZE PUSH1 0x20 GT PUSH2 0xB48 JUMPI JUMPDEST DUP2 PUSH2 0xB18 PUSH1 0x20 SWAP4 DUP4 PUSH2 0x291B JUMP JUMPDEST DUP2 ADD SUB SLT PUSH2 0x5F3 JUMPI MLOAD SWAP2 PUSH32 0xCE43C008407997433724B443ADD46562764945CEBEFA7FB64F11A3537DB3A15B PUSH2 0x9E9 JUMP JUMPDEST RETURNDATASIZE SWAP2 POP PUSH2 0xB0B JUMP JUMPDEST PUSH1 0x40 MLOAD RETURNDATASIZE DUP11 DUP3 RETURNDATACOPY RETURNDATASIZE SWAP1 REVERT JUMPDEST PUSH2 0xB7E SWAP2 SWAP3 POP PUSH1 0x20 RETURNDATASIZE PUSH1 0x20 GT PUSH2 0xB85 JUMPI JUMPDEST PUSH2 0xB76 DUP2 DUP4 PUSH2 0x291B JUMP JUMPDEST DUP2 ADD SWAP1 PUSH2 0x2D64 JUMP JUMPDEST SWAP1 CODESIZE PUSH2 0x91B JUMP JUMPDEST POP RETURNDATASIZE PUSH2 0xB6C JUMP JUMPDEST PUSH1 0x40 MLOAD RETURNDATASIZE DUP6 DUP3 RETURNDATACOPY RETURNDATASIZE SWAP1 REVERT JUMPDEST PUSH1 0x20 SWAP2 SWAP4 POP PUSH2 0xBB2 SWAP1 DUP3 RETURNDATASIZE DUP5 GT PUSH2 0xB85 JUMPI PUSH2 0xB76 DUP2 DUP4 PUSH2 0x291B JUMP JUMPDEST SWAP3 SWAP1 PUSH2 0x8B9 JUMP JUMPDEST PUSH1 0x40 MLOAD RETURNDATASIZE DUP7 DUP3 RETURNDATACOPY RETURNDATASIZE SWAP1 REVERT JUMPDEST PUSH1 0x20 SWAP2 SWAP3 POP PUSH2 0xBDF SWAP1 DUP3 RETURNDATASIZE DUP5 GT PUSH2 0xB85 JUMPI PUSH2 0xB76 DUP2 DUP4 PUSH2 0x291B JUMP JUMPDEST SWAP2 SWAP1 PUSH2 0x894 JUMP JUMPDEST SWAP5 POP POP SWAP2 POP POP PUSH1 0x60 DUP3 RETURNDATASIZE DUP3 GT PUSH2 0xC26 JUMPI JUMPDEST DUP2 PUSH2 0xC04 PUSH1 0x60 SWAP4 DUP4 PUSH2 0x291B JUMP JUMPDEST DUP2 ADD SUB SLT PUSH2 0xC22 JUMPI DUP5 DUP3 MLOAD SWAP2 PUSH1 0x40 PUSH1 0x20 DUP6 ADD MLOAD SWAP5 ADD MLOAD SWAP3 SWAP4 CODESIZE PUSH2 0x86B JUMP JUMPDEST DUP5 DUP1 REVERT JUMPDEST RETURNDATASIZE SWAP2 POP PUSH2 0xBF7 JUMP JUMPDEST POP PUSH1 0x40 MLOAD SWAP1 RETURNDATASIZE SWAP1 DUP3 RETURNDATACOPY RETURNDATASIZE SWAP1 REVERT JUMPDEST PUSH4 0x4E487B71 PUSH1 0xE0 SHL DUP7 MSTORE PUSH1 0x11 PUSH1 0x4 MSTORE PUSH1 0x24 DUP7 REVERT JUMPDEST POP PUSH1 0xB SLOAD ISZERO ISZERO PUSH2 0x772 JUMP JUMPDEST POP PUSH1 0xD SLOAD ISZERO ISZERO PUSH2 0x432 JUMP JUMPDEST POP PUSH1 0x64 CALLDATALOAD ISZERO ISZERO PUSH2 0x42C JUMP JUMPDEST POP PUSH32 0x0 ISZERO ISZERO PUSH2 0x426 JUMP JUMPDEST PUSH1 0xB SLOAD DUP4 PUSH32 0x0 PUSH1 0x1 PUSH1 0x1 PUSH1 0xA0 SHL SUB AND DUP1 EXTCODESIZE ISZERO PUSH2 0xD30 JUMPI DUP2 SWAP1 PUSH1 0x4 PUSH1 0x40 MLOAD DUP1 SWAP6 DUP2 SWAP4 PUSH4 0x990087B7 PUSH1 0xE0 SHL DUP4 MSTORE GAS CALL SWAP2 DUP3 PUSH2 0xD18 JUMPI JUMPDEST POP POP PUSH2 0xD04 JUMPI PUSH1 0x40 MLOAD PUSH4 0x54CE3459 PUSH1 0xE0 SHL DUP2 MSTORE PUSH1 0x4 SWAP1 REVERT JUMPDEST PUSH2 0x100 PUSH2 0xFF00 NOT PUSH1 0x11 SLOAD AND OR PUSH1 0x11 SSTORE PUSH2 0x415 JUMP JUMPDEST PUSH2 0xD21 SWAP1 PUSH2 0x28EB JUMP JUMPDEST PUSH2 0xD2C JUMPI DUP4 CODESIZE PUSH2 0xCEC JUMP JUMPDEST DUP4 DUP1 REVERT JUMPDEST POP DUP1 REVERT JUMPDEST POP PUSH1 0xB SLOAD ISZERO ISZERO PUSH2 0x410 JUMP JUMPDEST SWAP1 POP PUSH2 0xD4D PUSH1 0x10 SLOAD DUP3 PUSH2 0x2B79 JUMP JUMPDEST SWAP1 PUSH2 0xD81 DUP3 PUSH32 0x0 PUSH1 0x1 PUSH1 0x1 PUSH1 0xA0 SHL SUB AND PUSH2 0x2BC6 JUMP JUMPDEST PUSH1 0x10 SSTORE PUSH32 0x3316CD92E8029A9D825199AD5D83F540869E52A9D77CF97560178A0B5EBAC6FB PUSH1 0x20 DUP3 PUSH1 0x40 MLOAD SWAP1 DUP2 MSTORE LOG1 CODESIZE PUSH2 0x3FF JUMP JUMPDEST POP DUP1 PUSH1 0x10 SLOAD LT PUSH2 0x3FA JUMP JUMPDEST PUSH2 0xDC9 SWAP1 PUSH2 0x28EB JUMP JUMPDEST PUSH2 0xDD4 JUMPI DUP3 CODESIZE PUSH2 0x3EC JUMP JUMPDEST DUP3 DUP1 REVERT JUMPDEST PUSH1 0x40 MLOAD RETURNDATASIZE DUP5 DUP3 RETURNDATACOPY RETURNDATASIZE SWAP1 REVERT JUMPDEST PUSH1 0x40 MLOAD PUSH4 0x9DD854D3 PUSH1 0xE0 SHL DUP2 MSTORE PUSH1 0x4 SWAP1 REVERT JUMPDEST SWAP4 POP PUSH2 0x3EF SWAP2 POP POP JUMP JUMPDEST SWAP1 POP PUSH1 0x20 DUP2 RETURNDATASIZE PUSH1 0x20 GT PUSH2 0xE2D JUMPI JUMPDEST DUP2 PUSH2 0xE1A PUSH1 0x20 SWAP4 DUP4 PUSH2 0x291B JUMP JUMPDEST DUP2 ADD SUB SLT PUSH2 0xE29 JUMPI MLOAD CODESIZE PUSH2 0x3A4 JUMP JUMPDEST DUP6 DUP1 REVERT JUMPDEST RETURNDATASIZE SWAP2 POP PUSH2 0xE0D JUMP JUMPDEST PUSH1 0x40 MLOAD RETURNDATASIZE DUP9 DUP3 RETURNDATACOPY RETURNDATASIZE SWAP1 REVERT JUMPDEST PUSH1 0x40 MLOAD PUSH4 0x70A08231 PUSH1 0xE0 SHL DUP2 MSTORE PUSH32 0x0 PUSH1 0x1 PUSH1 0x1 PUSH1 0xA0 SHL SUB DUP2 DUP2 AND PUSH1 0x4 DUP5 ADD MSTORE PUSH32 0x0 AND SWAP1 PUSH1 0x20 DUP4 PUSH1 0x24 DUP2 DUP6 GAS STATICCALL SWAP3 DUP4 ISZERO PUSH2 0xE35 JUMPI DUP7 SWAP4 PUSH2 0xEF6 JUMPI JUMPDEST POP PUSH1 0x24 CALLDATALOAD DUP1 DUP5 LT PUSH2 0xEDA JUMPI JUMPDEST POP POP POP POP PUSH1 0x1 PUSH1 0xFF NOT PUSH1 0x11 SLOAD AND OR PUSH1 0x11 SSTORE PUSH2 0x353 JUMP JUMPDEST PUSH2 0xEED SWAP4 PUSH2 0xEE7 SWAP2 PUSH2 0x2B79 JUMP JUMPDEST SWAP2 PUSH2 0x2C0D JUMP JUMPDEST CODESIZE DUP1 DUP1 DUP1 PUSH2 0xEC4 JUMP JUMPDEST SWAP1 SWAP3 POP PUSH1 0x20 DUP2 RETURNDATASIZE DUP3 GT PUSH2 0xF21 JUMPI JUMPDEST DUP2 PUSH2 0xF11 PUSH1 0x20 SWAP4 DUP4 PUSH2 0x291B JUMP JUMPDEST DUP2 ADD SUB SLT PUSH2 0x5F3 JUMPI MLOAD SWAP2 CODESIZE PUSH2 0xEB8 JUMP JUMPDEST RETURNDATASIZE SWAP2 POP PUSH2 0xF04 JUMP JUMPDEST PUSH2 0x2710 SWAP2 DUP3 PUSH2 0xF3A PUSH1 0x3 SLOAD DUP4 PUSH2 0x2B66 JUMP JUMPDEST DIV SWAP3 PUSH2 0xF46 DUP5 DUP4 PUSH2 0x2B79 JUMP JUMPDEST SWAP1 PUSH32 0x0 DUP1 ISZERO PUSH2 0x10DD JUMPI PUSH2 0xF78 SWAP1 DUP4 PUSH2 0x2B66 JUMP JUMPDEST DIV JUMPDEST PUSH2 0xF84 DUP2 DUP4 PUSH2 0x2B79 JUMP JUMPDEST SWAP2 PUSH1 0x40 MLOAD PUSH1 0xC0 DUP2 ADD DUP2 DUP2 LT PUSH8 0xFFFFFFFFFFFFFFFF DUP3 GT OR PUSH2 0x10C7 JUMPI PUSH1 0x1 SWAP2 PUSH1 0xA0 SWAP2 PUSH1 0x40 MSTORE DUP7 DUP2 MSTORE DUP9 PUSH1 0x20 DUP3 ADD MSTORE DUP4 PUSH1 0x40 DUP3 ADD MSTORE DUP5 PUSH1 0x60 DUP3 ADD MSTORE DUP6 PUSH1 0x80 DUP3 ADD MSTORE ADD MSTORE DUP4 PUSH1 0xA SSTORE DUP6 PUSH1 0xB SSTORE PUSH1 0xC SSTORE PUSH1 0xD SSTORE PUSH1 0xE SSTORE PUSH1 0x1 PUSH1 0xFF NOT DUP1 SWAP4 AND OR PUSH1 0xF SSTORE SELFBALANCE LT PUSH2 0x6E4 JUMPI PUSH1 0x40 MLOAD PUSH4 0x70A08231 PUSH1 0xE0 SHL DUP2 MSTORE ADDRESS PUSH1 0x4 DUP3 ADD MSTORE PUSH1 0x20 DUP2 PUSH1 0x24 DUP2 PUSH32 0x0 PUSH1 0x1 PUSH1 0x1 PUSH1 0xA0 SHL SUB AND GAS STATICCALL SWAP1 DUP2 ISZERO PUSH2 0xE35 JUMPI DUP7 SWAP2 PUSH2 0x1096 JUMPI JUMPDEST POP PUSH2 0x1053 DUP5 PUSH2 0x104E PUSH1 0x64 CALLDATALOAD PUSH1 0x24 CALLDATALOAD PUSH2 0x28C8 JUMP JUMPDEST PUSH2 0x28C8 JUMP JUMPDEST GT PUSH2 0x1084 JUMPI PUSH1 0x3 SWAP2 ISZERO PUSH2 0x1070 JUMPI JUMPDEST PUSH1 0x7 SLOAD AND OR PUSH1 0x7 SSTORE CODESIZE DUP1 PUSH2 0x345 JUMP JUMPDEST PUSH2 0x100 PUSH2 0xFF00 NOT PUSH1 0x11 SLOAD AND OR PUSH1 0x11 SSTORE PUSH2 0x1061 JUMP JUMPDEST PUSH1 0x40 MLOAD PUSH4 0x78A7AC67 PUSH1 0xE1 SHL DUP2 MSTORE PUSH1 0x4 SWAP1 REVERT JUMPDEST SWAP1 POP PUSH1 0x20 DUP2 RETURNDATASIZE DUP3 GT PUSH2 0x10BF JUMPI JUMPDEST DUP2 PUSH2 0x10B0 PUSH1 0x20 SWAP4 DUP4 PUSH2 0x291B JUMP JUMPDEST DUP2 ADD SUB SLT PUSH2 0x5F3 JUMPI MLOAD CODESIZE PUSH2 0x103B JUMP JUMPDEST RETURNDATASIZE SWAP2 POP PUSH2 0x10A3 JUMP JUMPDEST PUSH4 0x4E487B71 PUSH1 0xE0 SHL PUSH1 0x0 MSTORE PUSH1 0x41 PUSH1 0x4 MSTORE PUSH1 0x24 PUSH1 0x0 REVERT JUMPDEST POP POP DUP7 PUSH2 0xF7A JUMP JUMPDEST PUSH1 0x40 MLOAD PUSH4 0x46C21A55 PUSH1 0xE0 SHL DUP2 MSTORE PUSH1 0x4 SWAP1 REVERT JUMPDEST PUSH2 0x10FF PUSH2 0x2A2A JUMP JUMPDEST PUSH1 0xFF PUSH1 0x7 SLOAD AND PUSH1 0x7 DUP2 LT ISZERO PUSH2 0x113F JUMPI PUSH1 0x2 DUP2 EQ ISZERO SWAP1 DUP2 PUSH2 0x1133 JUMPI JUMPDEST POP ISZERO PUSH2 0x30E JUMPI JUMPDEST PUSH1 0x40 MLOAD PUSH4 0x7A92F19 PUSH1 0xE5 SHL DUP2 MSTORE PUSH1 0x4 SWAP1 REVERT JUMPDEST PUSH1 0x3 SWAP2 POP EQ ISZERO CODESIZE PUSH2 0x111A JUMP JUMPDEST PUSH4 0x4E487B71 PUSH1 0xE0 SHL DUP5 MSTORE PUSH1 0x21 PUSH1 0x4 MSTORE PUSH1 0x24 DUP5 REVERT JUMPDEST PUSH1 0x3 SWAP2 POP EQ ISZERO CODESIZE PUSH2 0x308 JUMP JUMPDEST PUSH1 0x40 MLOAD PUSH4 0x475A2535 PUSH1 0xE0 SHL DUP2 MSTORE PUSH1 0x4 SWAP1 REVERT JUMPDEST POP CALLVALUE PUSH2 0x29C JUMPI DUP1 PUSH1 0x3 NOT CALLDATASIZE ADD SLT PUSH2 0x29C JUMPI PUSH1 0x20 PUSH1 0x11 SLOAD PUSH1 0xFF PUSH1 0x40 MLOAD SWAP2 DUP4 SHR AND ISZERO ISZERO DUP2 MSTORE RETURN JUMPDEST POP CALLVALUE PUSH2 0x29C JUMPI DUP1 PUSH1 0x3 NOT CALLDATASIZE ADD SLT PUSH2 0x29C JUMPI PUSH1 0x20 PUSH1 0x40 MLOAD PUSH32 0x0 DUP2 MSTORE RETURN JUMPDEST POP CALLVALUE PUSH2 0x29C JUMPI PUSH1 0x40 CALLDATASIZE PUSH1 0x3 NOT ADD SLT PUSH2 0x29C JUMPI PUSH2 0x120F PUSH1 0x4 CALLDATALOAD PUSH2 0x11F1 PUSH2 0x271B JUMP JUMPDEST SWAP1 DUP1 DUP5 MSTORE PUSH1 0x2 PUSH1 0x20 MSTORE PUSH2 0x120A PUSH1 0x1 PUSH1 0x40 DUP7 KECCAK256 ADD SLOAD PUSH2 0x27AB JUMP JUMPDEST PUSH2 0x2851 JUMP JUMPDEST POP DUP1 RETURN JUMPDEST POP CALLVALUE PUSH2 0x29C JUMPI PUSH1 0x20 CALLDATASIZE PUSH1 0x3 NOT ADD SLT PUSH2 0x29C JUMPI PUSH1 0x40 SWAP1 PUSH1 0x1 PUSH1 0x1 PUSH1 0xA0 SHL SUB DUP1 PUSH2 0x1239 PUSH2 0x2705 JUMP JUMPDEST AND DUP3 MSTORE PUSH1 0x14 PUSH1 0x20 MSTORE DUP3 DUP1 DUP4 KECCAK256 SLOAD SWAP3 PUSH1 0x15 PUSH1 0x20 MSTORE KECCAK256 SLOAD AND DUP3 MLOAD SWAP2 DUP3 MSTORE PUSH1 0x20 DUP3 ADD MSTORE RETURN JUMPDEST POP CALLVALUE PUSH2 0x29C JUMPI DUP1 PUSH1 0x3 NOT CALLDATASIZE ADD SLT PUSH2 0x29C JUMPI PUSH1 0x20 PUSH1 0x13 SLOAD PUSH1 0x40 MLOAD SWAP1 DUP2 MSTORE RETURN JUMPDEST POP CALLVALUE PUSH2 0x29C JUMPI DUP1 PUSH1 0x3 NOT CALLDATASIZE ADD SLT PUSH2 0x29C JUMPI PUSH1 0x20 PUSH1 0x40 MLOAD PUSH32 0x0 DUP2 MSTORE RETURN JUMPDEST POP CALLVALUE PUSH2 0x29C JUMPI DUP1 PUSH1 0x3 NOT CALLDATASIZE ADD SLT PUSH2 0x29C JUMPI PUSH1 0x20 PUSH1 0x8 SLOAD PUSH1 0x40 MLOAD SWAP1 DUP2 MSTORE RETURN JUMPDEST POP CALLVALUE PUSH2 0x29C JUMPI DUP1 PUSH1 0x3 NOT CALLDATASIZE ADD SLT PUSH2 0x29C JUMPI PUSH2 0x12EB PUSH2 0x2A07 JUMP JUMPDEST PUSH1 0xFF PUSH1 0x7 SLOAD AND PUSH1 0x7 DUP2 LT ISZERO PUSH2 0x13FB JUMPI PUSH1 0x5 DUP2 EQ ISZERO SWAP1 DUP2 PUSH2 0x13EF JUMPI JUMPDEST POP PUSH2 0x13DD JUMPI CALLER DUP2 MSTORE PUSH1 0x14 PUSH1 0x20 MSTORE PUSH1 0x40 DUP2 KECCAK256 SLOAD DUP1 ISZERO PUSH2 0x13CB JUMPI CALLER DUP3 MSTORE PUSH1 0x14 PUSH1 0x20 MSTORE PUSH1 0x40 DUP3 KECCAK256 DUP3 SWAP1 SSTORE PUSH32 0x0 PUSH1 0x1 PUSH1 0x1 PUSH1 0xA0 SHL SUB AND DUP2 DUP2 PUSH2 0x13BB JUMPI DUP4 DUP1 DUP1 SWAP4 POP DUP1 SWAP3 CALLER GAS CALL PUSH2 0x136F PUSH2 0x2B86 JUMP JUMPDEST POP ISZERO PUSH2 0x13A9 JUMPI JUMPDEST PUSH1 0x40 MLOAD SWAP1 DUP2 MSTORE PUSH32 0xD7DEE2702D63AD89917B6A4DA9981C90C4D24F8C2BDFD64C604ECAE57D8D0651 PUSH1 0x20 CALLER SWAP3 LOG2 PUSH1 0x1 DUP2 SSTORE DUP1 RETURN JUMPDEST PUSH1 0x40 MLOAD PUSH4 0xB9DA5D2B PUSH1 0xE0 SHL DUP2 MSTORE PUSH1 0x4 SWAP1 REVERT JUMPDEST PUSH2 0x13C6 SWAP2 CALLER SWAP1 PUSH2 0x2C0D JUMP JUMPDEST PUSH2 0x1376 JUMP JUMPDEST PUSH1 0x40 MLOAD PUSH4 0x1971FBF3 PUSH1 0xE2 SHL DUP2 MSTORE PUSH1 0x4 SWAP1 REVERT JUMPDEST PUSH1 0x40 MLOAD PUSH4 0xB4D6981 PUSH1 0xE0 SHL DUP2 MSTORE PUSH1 0x4 SWAP1 REVERT JUMPDEST PUSH1 0x6 SWAP2 POP EQ ISZERO CODESIZE PUSH2 0x1306 JUMP JUMPDEST PUSH4 0x4E487B71 PUSH1 0xE0 SHL DUP3 MSTORE PUSH1 0x21 PUSH1 0x4 MSTORE PUSH1 0x24 DUP3 REVERT JUMPDEST POP CALLVALUE PUSH2 0x29C JUMPI PUSH2 0x141E CALLDATASIZE PUSH2 0x2698 JUMP JUMPDEST PUSH2 0x1426 PUSH2 0x2731 JUMP JUMPDEST PUSH2 0x142E PUSH2 0x2A2A JUMP JUMPDEST PUSH1 0x7 SLOAD SWAP2 PUSH1 0xFF DUP4 AND PUSH1 0x7 DUP2 LT ISZERO PUSH2 0x14B1 JUMPI PUSH1 0x2 SUB PUSH2 0x1121 JUMPI PUSH1 0x8 SLOAD PUSH32 0x0 GT ISZERO PUSH2 0x1121 JUMPI PUSH1 0x5 PUSH32 0x5B55ECCEA968A9BF1DF9A6702E20475AC67BB0D7F402F51701EEF38E619368FE SWAP4 PUSH1 0xFF NOT AND OR PUSH1 0x7 SSTORE PUSH2 0x14AB PUSH1 0x40 MLOAD SWAP3 DUP4 SWAP3 DUP4 PUSH2 0x2D3C JUMP JUMPDEST SUB SWAP1 LOG1 DUP1 RETURN JUMPDEST PUSH4 0x4E487B71 PUSH1 0xE0 SHL DUP6 MSTORE PUSH1 0x21 PUSH1 0x4 MSTORE PUSH1 0x24 DUP6 REVERT JUMPDEST POP CALLVALUE PUSH2 0x29C JUMPI DUP1 PUSH1 0x3 NOT CALLDATASIZE ADD SLT PUSH2 0x29C JUMPI PUSH2 0x14DE PUSH2 0x2731 JUMP JUMPDEST PUSH2 0x14E6 PUSH2 0x2A07 JUMP JUMPDEST PUSH1 0xFF PUSH1 0x7 SLOAD AND PUSH1 0x7 DUP2 LT ISZERO PUSH2 0x13FB JUMPI PUSH1 0x4 SUB PUSH2 0x1121 JUMPI PUSH1 0x40 MLOAD PUSH4 0x70A08231 PUSH1 0xE0 SHL DUP2 MSTORE ADDRESS PUSH1 0x4 DUP3 ADD MSTORE PUSH32 0x0 PUSH1 0x1 PUSH1 0x1 PUSH1 0xA0 SHL SUB AND PUSH1 0x20 DUP3 PUSH1 0x24 DUP2 DUP5 GAS STATICCALL SWAP2 DUP3 ISZERO PUSH2 0xB8C JUMPI DUP4 SWAP3 PUSH2 0x159E JUMPI JUMPDEST POP DUP2 PUSH2 0x155F JUMPI JUMPDEST DUP3 PUSH1 0x1 DUP2 SSTORE DUP1 RETURN JUMPDEST PUSH32 0xB3C71476DFD272EB50CC448234B60EE937AB332F54E7EAAB71159CA6EB677440 PUSH1 0x20 DUP4 PUSH2 0x1590 PUSH2 0xDEAD SWAP6 DUP6 PUSH2 0x2BC6 JUMP JUMPDEST PUSH1 0x40 MLOAD SWAP1 DUP2 MSTORE LOG3 CODESIZE DUP1 PUSH2 0x1557 JUMP JUMPDEST SWAP1 SWAP2 POP PUSH1 0x20 DUP2 RETURNDATASIZE DUP3 GT PUSH2 0x15C9 JUMPI JUMPDEST DUP2 PUSH2 0x15B9 PUSH1 0x20 SWAP4 DUP4 PUSH2 0x291B JUMP JUMPDEST DUP2 ADD SUB SLT PUSH2 0x5F3 JUMPI MLOAD SWAP1 CODESIZE PUSH2 0x1550 JUMP JUMPDEST RETURNDATASIZE SWAP2 POP PUSH2 0x15AC JUMP JUMPDEST POP CALLVALUE PUSH2 0x29C JUMPI DUP1 PUSH1 0x3 NOT CALLDATASIZE ADD SLT PUSH2 0x29C JUMPI PUSH1 0x20 PUSH1 0xFF PUSH1 0x11 SLOAD PUSH1 0x8 SHR AND PUSH1 0x40 MLOAD SWAP1 ISZERO ISZERO DUP2 MSTORE RETURN JUMPDEST POP CALLVALUE PUSH2 0x29C JUMPI DUP1 PUSH1 0x3 NOT CALLDATASIZE ADD SLT PUSH2 0x29C JUMPI PUSH1 0x20 PUSH1 0x40 MLOAD PUSH32 0x0 DUP2 MSTORE RETURN JUMPDEST POP CALLVALUE PUSH2 0x29C JUMPI PUSH1 0x80 CALLDATASIZE PUSH1 0x3 NOT ADD SLT PUSH2 0x29C JUMPI PUSH2 0x164C PUSH2 0x2731 JUMP JUMPDEST PUSH1 0xFF PUSH1 0x7 SLOAD AND PUSH1 0x7 DUP2 LT ISZERO PUSH2 0x13FB JUMPI PUSH2 0x1714 JUMPI PUSH1 0x8 SLOAD PUSH2 0x1714 JUMPI PUSH32 0x0 TIMESTAMP LT ISZERO PUSH2 0x1714 JUMPI PUSH1 0x44 CALLDATALOAD PUSH1 0x24 CALLDATALOAD PUSH1 0x4 CALLDATALOAD PUSH2 0x16A1 DUP4 DUP4 PUSH2 0x28C8 JUMP JUMPDEST PUSH2 0x16AE PUSH1 0x64 CALLDATALOAD DUP1 SWAP3 PUSH2 0x28C8 JUMP JUMPDEST DUP3 SUB PUSH2 0x1702 JUMPI PUSH32 0xAD166D8BE1925EE44C5A77600B8A5F7E58CBE711C0DBD99624014A81B8350BA SWAP4 PUSH1 0x80 SWAP4 DUP4 PUSH1 0x3 SSTORE DUP1 PUSH1 0x4 SSTORE DUP2 PUSH1 0x5 SSTORE DUP3 PUSH1 0x6 SSTORE PUSH1 0x40 MLOAD SWAP4 DUP5 MSTORE PUSH1 0x20 DUP5 ADD MSTORE PUSH1 0x40 DUP4 ADD MSTORE PUSH1 0x60 DUP3 ADD MSTORE LOG1 DUP1 RETURN JUMPDEST PUSH1 0x40 MLOAD PUSH4 0x2B00A33D PUSH1 0xE1 SHL DUP2 MSTORE PUSH1 0x4 SWAP1 REVERT JUMPDEST PUSH1 0x40 MLOAD PUSH3 0xB5D7E1 PUSH1 0xE8 SHL DUP2 MSTORE PUSH1 0x4 SWAP1 REVERT JUMPDEST POP CALLVALUE PUSH2 0x29C JUMPI DUP1 PUSH1 0x3 NOT CALLDATASIZE ADD SLT PUSH2 0x29C JUMPI PUSH1 0x20 PUSH1 0xFF PUSH1 0x11 SLOAD AND PUSH1 0x40 MLOAD SWAP1 ISZERO ISZERO DUP2 MSTORE RETURN JUMPDEST POP CALLVALUE PUSH2 0x29C JUMPI DUP1 PUSH1 0x3 NOT CALLDATASIZE ADD SLT PUSH2 0x29C JUMPI PUSH1 0xC0 PUSH1 0xA SLOAD PUSH1 0xB SLOAD PUSH1 0xC SLOAD PUSH1 0xD SLOAD PUSH1 0xE SLOAD SWAP2 PUSH1 0xFF PUSH1 0xF SLOAD AND SWAP4 PUSH1 0x40 MLOAD SWAP6 DUP7 MSTORE PUSH1 0x20 DUP7 ADD MSTORE PUSH1 0x40 DUP6 ADD MSTORE PUSH1 0x60 DUP5 ADD MSTORE PUSH1 0x80 DUP4 ADD MSTORE ISZERO ISZERO PUSH1 0xA0 DUP3 ADD MSTORE RETURN JUMPDEST POP CALLVALUE PUSH2 0x29C JUMPI DUP1 PUSH1 0x3 NOT CALLDATASIZE ADD SLT PUSH2 0x29C JUMPI PUSH1 0x40 MLOAD PUSH32 0x0 PUSH1 0x1 PUSH1 0x1 PUSH1 0xA0 SHL SUB AND DUP2 MSTORE PUSH1 0x20 SWAP1 RETURN JUMPDEST POP CALLVALUE PUSH2 0x29C JUMPI DUP1 PUSH1 0x3 NOT CALLDATASIZE ADD SLT PUSH2 0x29C JUMPI PUSH1 0x40 MLOAD PUSH32 0x0 PUSH1 0x1 PUSH1 0x1 PUSH1 0xA0 SHL SUB AND DUP2 MSTORE PUSH1 0x20 SWAP1 RETURN JUMPDEST POP CALLVALUE PUSH2 0x29C JUMPI DUP1 PUSH1 0x3 NOT CALLDATASIZE ADD SLT PUSH2 0x29C JUMPI PUSH1 0x20 PUSH1 0x9 SLOAD PUSH1 0x40 MLOAD SWAP1 DUP2 MSTORE RETURN JUMPDEST POP CALLVALUE PUSH2 0x29C JUMPI DUP1 PUSH1 0x3 NOT CALLDATASIZE ADD SLT PUSH2 0x29C JUMPI PUSH1 0x20 SWAP1 PUSH1 0x40 MLOAD SWAP1 DUP2 MSTORE RETURN JUMPDEST POP CALLVALUE PUSH2 0x29C JUMPI DUP1 PUSH1 0x3 NOT CALLDATASIZE ADD SLT PUSH2 0x29C JUMPI PUSH1 0x20 PUSH1 0xFF PUSH1 0x11 SLOAD PUSH1 0x18 SHR AND PUSH1 0x40 MLOAD SWAP1 ISZERO ISZERO DUP2 MSTORE RETURN JUMPDEST POP CALLVALUE PUSH2 0x29C JUMPI PUSH1 0x40 CALLDATASIZE PUSH1 0x3 NOT ADD SLT PUSH2 0x29C JUMPI PUSH1 0x40 PUSH2 0x189B PUSH2 0x271B JUMP JUMPDEST SWAP2 PUSH1 0x4 CALLDATALOAD DUP2 MSTORE PUSH1 0x2 PUSH1 0x20 MSTORE KECCAK256 SWAP1 PUSH1 0x1 DUP1 PUSH1 0xA0 SHL SUB AND PUSH1 0x0 MSTORE PUSH1 0x20 MSTORE PUSH1 0x20 PUSH1 0xFF PUSH1 0x40 PUSH1 0x0 KECCAK256 SLOAD AND PUSH1 0x40 MLOAD SWAP1 ISZERO ISZERO DUP2 MSTORE RETURN JUMPDEST POP CALLVALUE PUSH2 0x29C JUMPI DUP1 PUSH1 0x3 NOT CALLDATASIZE ADD SLT PUSH2 0x29C JUMPI PUSH1 0x20 PUSH1 0x40 MLOAD PUSH32 0x0 DUP2 MSTORE RETURN JUMPDEST POP CALLVALUE PUSH2 0x29C JUMPI DUP1 PUSH1 0x3 NOT CALLDATASIZE ADD SLT PUSH2 0x29C JUMPI PUSH1 0x20 PUSH1 0x40 MLOAD PUSH32 0x0 DUP2 MSTORE RETURN JUMPDEST POP CALLVALUE PUSH2 0x29C JUMPI DUP1 PUSH1 0x3 NOT CALLDATASIZE ADD SLT PUSH2 0x29C JUMPI PUSH2 0x195A PUSH2 0x2731 JUMP JUMPDEST PUSH2 0x1962 PUSH2 0x29E9 JUMP JUMPDEST PUSH1 0x1 PUSH1 0xFF NOT DUP2 SLOAD AND OR PUSH1 0x1 SSTORE PUSH32 0x62E78CEA01BEE320CD4E420270B5EA74000D11B0C9F74754EBDBFC544B05A258 PUSH1 0x20 PUSH1 0x40 MLOAD CALLER DUP2 MSTORE LOG1 DUP1 RETURN JUMPDEST POP CALLVALUE PUSH2 0x29C JUMPI DUP1 PUSH1 0x3 NOT CALLDATASIZE ADD SLT PUSH2 0x29C JUMPI PUSH1 0x20 PUSH1 0x40 MLOAD PUSH32 0x0 DUP2 MSTORE RETURN JUMPDEST POP CALLVALUE PUSH2 0x29C JUMPI DUP1 PUSH1 0x3 NOT CALLDATASIZE ADD SLT PUSH2 0x29C JUMPI PUSH1 0xE0 PUSH1 0xFF PUSH1 0x7 SLOAD AND PUSH1 0x8 SLOAD PUSH1 0x9 SLOAD SWAP1 PUSH2 0x1A03 PUSH1 0x40 MLOAD DUP1 SWAP5 PUSH2 0x26E2 JUMP JUMPDEST PUSH1 0x20 DUP4 ADD MSTORE PUSH32 0x0 PUSH1 0x40 DUP4 ADD MSTORE PUSH32 0x0 PUSH1 0x60 DUP4 ADD MSTORE PUSH32 0x0 PUSH1 0x80 DUP4 ADD MSTORE PUSH32 0x0 PUSH1 0xA0 DUP4 ADD MSTORE PUSH1 0xC0 DUP3 ADD MSTORE RETURN JUMPDEST POP CALLVALUE PUSH2 0x29C JUMPI DUP1 PUSH1 0x3 NOT CALLDATASIZE ADD SLT PUSH2 0x29C JUMPI PUSH1 0x20 PUSH1 0x40 MLOAD PUSH32 0xA49807205CE4D355092EF5A8A18F56E8913CF4A201FBE287825B095693C21775 DUP2 MSTORE RETURN JUMPDEST POP PUSH1 0x40 CALLDATASIZE PUSH1 0x3 NOT ADD SLT PUSH2 0x29C JUMPI PUSH1 0x4 CALLDATALOAD PUSH2 0x1AFA PUSH2 0x271B JUMP JUMPDEST SWAP1 PUSH2 0x1B03 PUSH2 0x2A07 JUMP JUMPDEST PUSH2 0x1B0B PUSH2 0x29E9 JUMP JUMPDEST PUSH2 0x1B13 PUSH2 0x2A2A JUMP JUMPDEST PUSH1 0xFF PUSH1 0x7 SLOAD AND PUSH1 0x7 DUP2 LT ISZERO PUSH2 0x113F JUMPI PUSH1 0x1 SUB PUSH2 0x1121 JUMPI CALLER DUP4 MSTORE PUSH1 0x20 SWAP2 PUSH1 0x14 DUP4 MSTORE PUSH2 0x1B41 DUP3 PUSH1 0x40 DUP7 KECCAK256 SLOAD PUSH2 0x28C8 JUMP JUMPDEST PUSH32 0x0 DUP2 LT PUSH2 0x1D02 JUMPI PUSH32 0x0 LT PUSH2 0x1CF0 JUMPI PUSH2 0x1B9A DUP3 PUSH1 0x8 SLOAD PUSH2 0x28C8 JUMP JUMPDEST PUSH32 0x0 LT PUSH2 0x1CDE JUMPI PUSH1 0x1 PUSH1 0x1 PUSH1 0xA0 SHL SUB DUP3 PUSH32 0x0 DUP3 AND DUP1 PUSH2 0x1CA8 JUMPI POP CALLVALUE SUB PUSH2 0x1121 JUMPI DUP1 PUSH32 0xEC470969F3350CA5A15F0D85053F8763FFD0EE39C7B74FCDC5AF7862718E292A SWAP3 JUMPDEST CALLER DUP8 MSTORE PUSH1 0x14 DUP7 MSTORE PUSH1 0x40 DUP8 KECCAK256 PUSH2 0x1C32 DUP7 DUP3 SLOAD PUSH2 0x28C8 JUMP JUMPDEST SWAP1 SSTORE PUSH2 0x1C40 DUP6 PUSH1 0x8 SLOAD PUSH2 0x28C8 JUMP JUMPDEST PUSH1 0x8 SSTORE AND DUP1 ISZERO ISZERO DUP1 PUSH2 0x1C93 JUMPI JUMPDEST PUSH2 0x1C71 JUMPI JUMPDEST POP CALLER DUP6 MSTORE PUSH1 0x15 DUP5 MSTORE PUSH1 0x40 DUP6 KECCAK256 SLOAD AND SWAP3 PUSH1 0x40 MLOAD SWAP3 DUP4 MSTORE CALLER SWAP3 LOG3 PUSH1 0x1 DUP2 SSTORE DUP1 RETURN JUMPDEST CALLER DUP7 MSTORE PUSH1 0x15 DUP6 MSTORE PUSH1 0x40 DUP7 KECCAK256 DUP1 SLOAD PUSH1 0x1 PUSH1 0x1 PUSH1 0xA0 SHL SUB NOT AND SWAP1 SWAP2 OR SWAP1 SSTORE CODESIZE PUSH2 0x1C52 JUMP JUMPDEST POP CALLER DUP7 MSTORE PUSH1 0x15 DUP6 MSTORE DUP2 PUSH1 0x40 DUP8 KECCAK256 SLOAD AND ISZERO PUSH2 0x1C4D JUMP JUMPDEST SWAP3 PUSH2 0x1CD9 DUP4 SWAP3 PUSH32 0xEC470969F3350CA5A15F0D85053F8763FFD0EE39C7B74FCDC5AF7862718E292A SWAP6 ADDRESS SWAP1 CALLER SWAP1 PUSH2 0x293D JUMP JUMPDEST PUSH2 0x1C1C JUMP JUMPDEST PUSH1 0x40 MLOAD PUSH4 0x1C4AF3C9 PUSH1 0xE1 SHL DUP2 MSTORE PUSH1 0x4 SWAP1 REVERT JUMPDEST PUSH1 0x40 MLOAD PUSH4 0x74368FB9 PUSH1 0xE1 SHL DUP2 MSTORE PUSH1 0x4 SWAP1 REVERT JUMPDEST PUSH1 0x40 MLOAD PUSH4 0x860B82A9 PUSH1 0xE0 SHL DUP2 MSTORE PUSH1 0x4 SWAP1 REVERT JUMPDEST POP CALLVALUE PUSH2 0x29C JUMPI DUP1 PUSH1 0x3 NOT CALLDATASIZE ADD SLT PUSH2 0x29C JUMPI PUSH1 0x40 MLOAD PUSH32 0x0 PUSH1 0x1 PUSH1 0x1 PUSH1 0xA0 SHL SUB AND DUP2 MSTORE PUSH1 0x20 SWAP1 RETURN JUMPDEST POP CALLVALUE PUSH2 0x29C JUMPI DUP1 PUSH1 0x3 NOT CALLDATASIZE ADD SLT PUSH2 0x29C JUMPI PUSH1 0x20 PUSH1 0xFF PUSH1 0x1 SLOAD AND PUSH1 0x40 MLOAD SWAP1 ISZERO ISZERO DUP2 MSTORE RETURN JUMPDEST POP CALLVALUE PUSH2 0x29C JUMPI DUP1 PUSH1 0x3 NOT CALLDATASIZE ADD SLT PUSH2 0x29C JUMPI PUSH1 0x20 PUSH1 0x10 SLOAD PUSH1 0x40 MLOAD SWAP1 DUP2 MSTORE RETURN JUMPDEST POP CALLVALUE PUSH2 0x29C JUMPI DUP1 PUSH1 0x3 NOT CALLDATASIZE ADD SLT PUSH2 0x29C JUMPI PUSH1 0x40 MLOAD PUSH32 0x0 PUSH1 0x1 PUSH1 0x1 PUSH1 0xA0 SHL SUB AND DUP2 MSTORE PUSH1 0x20 SWAP1 RETURN JUMPDEST POP CALLVALUE PUSH2 0x29C JUMPI PUSH1 0x20 CALLDATASIZE PUSH1 0x3 NOT ADD SLT PUSH2 0x29C JUMPI PUSH1 0x20 SWAP1 PUSH1 0x1 PUSH1 0x1 PUSH1 0xA0 SHL SUB SWAP1 PUSH1 0x40 SWAP1 DUP3 PUSH2 0x1E09 PUSH2 0x2705 JUMP JUMPDEST AND DUP2 MSTORE PUSH1 0x15 DUP5 MSTORE KECCAK256 SLOAD AND PUSH1 0x40 MLOAD SWAP1 DUP2 MSTORE RETURN JUMPDEST POP CALLVALUE PUSH2 0x29C JUMPI PUSH1 0x20 CALLDATASIZE PUSH1 0x3 NOT ADD SLT PUSH2 0x29C JUMPI PUSH1 0x20 SWAP1 PUSH1 0x40 SWAP1 PUSH1 0x1 PUSH1 0x1 PUSH1 0xA0 SHL SUB PUSH2 0x1E43 PUSH2 0x2705 JUMP JUMPDEST AND DUP2 MSTORE PUSH1 0x14 DUP4 MSTORE KECCAK256 SLOAD PUSH1 0x40 MLOAD SWAP1 DUP2 MSTORE RETURN JUMPDEST POP CALLVALUE PUSH2 0x29C JUMPI DUP1 PUSH1 0x3 NOT CALLDATASIZE ADD SLT PUSH2 0x29C JUMPI PUSH2 0x1E6D PUSH2 0x2731 JUMP JUMPDEST PUSH1 0x1 SLOAD PUSH1 0xFF DUP2 AND ISZERO PUSH2 0x1EAD JUMPI PUSH1 0xFF NOT AND PUSH1 0x1 SSTORE PUSH32 0x5DB9EE0A495BF2E6FF9C91A7834C1BA4FDD244A5E8AA4E537BD38AEAE4B073AA PUSH1 0x20 PUSH1 0x40 MLOAD CALLER DUP2 MSTORE LOG1 DUP1 RETURN JUMPDEST PUSH1 0x40 MLOAD PUSH4 0x8DFC202B PUSH1 0xE0 SHL DUP2 MSTORE PUSH1 0x4 SWAP1 REVERT JUMPDEST POP CALLVALUE PUSH2 0x29C JUMPI PUSH1 0x60 CALLDATASIZE PUSH1 0x3 NOT ADD SLT PUSH2 0x29C JUMPI PUSH1 0x44 CALLDATALOAD PUSH1 0x24 CALLDATALOAD PUSH2 0x1EDF PUSH2 0x2731 JUMP JUMPDEST PUSH2 0x1EE7 PUSH2 0x2A07 JUMP JUMPDEST PUSH2 0x1EEF PUSH2 0x2A2A JUMP JUMPDEST PUSH1 0xFF PUSH1 0x7 SLOAD AND PUSH1 0x7 DUP2 LT ISZERO PUSH2 0x113F JUMPI PUSH1 0x2 SUB PUSH2 0x1121 JUMPI PUSH1 0x8 SLOAD SWAP1 PUSH32 0x0 DUP3 LT PUSH2 0x10E5 JUMPI PUSH2 0x1F4A PUSH2 0x2710 PUSH2 0x1F42 PUSH1 0x3 SLOAD DUP6 PUSH2 0x2B66 JUMP JUMPDEST DIV DUP1 SWAP4 PUSH2 0x2B79 JUMP JUMPDEST PUSH1 0x1 DUP1 PUSH1 0xA0 SHL SUB DUP1 PUSH32 0x0 AND SWAP2 DUP7 PUSH32 0x0 SWAP5 DUP4 PUSH32 0x0 PUSH2 0x1FC6 DUP4 DUP3 DUP11 DUP11 PUSH2 0x293D JUMP JUMPDEST AND DUP1 EXTCODESIZE ISZERO PUSH2 0xDD4 JUMPI PUSH1 0x44 DUP4 SWAP3 PUSH1 0x40 MLOAD SWAP5 DUP6 SWAP4 DUP5 SWAP3 PUSH4 0x7C382D0B PUSH1 0xE0 SHL DUP5 MSTORE PUSH1 0x4 CALLDATALOAD PUSH1 0x4 DUP6 ADD MSTORE PUSH1 0x24 DUP5 ADD MSTORE GAS CALL DUP1 ISZERO PUSH2 0xB50 JUMPI PUSH2 0x22C5 JUMPI JUMPDEST POP DUP7 SWAP1 PUSH32 0x0 DUP4 DUP2 AND DUP1 ISZERO SWAP2 DUP3 ISZERO PUSH2 0x222E JUMPI POP DUP5 PUSH32 0x0 AND SWAP2 DUP3 EXTCODESIZE ISZERO PUSH2 0xC22 JUMPI DUP5 DUP10 SWAP4 PUSH1 0x4 PUSH1 0x40 MLOAD DUP1 SWAP7 DUP2 SWAP4 PUSH4 0x990087B7 PUSH1 0xE0 SHL DUP4 MSTORE GAS CALL DUP1 ISZERO PUSH2 0x600 JUMPI DUP9 SWAP4 DUP7 SWAP2 PUSH2 0x2215 JUMPI JUMPDEST POP POP JUMPDEST ISZERO PUSH2 0x2206 JUMPI POP DUP3 DUP1 SWAP3 DUP2 SWAP3 GAS CALL PUSH2 0x2099 PUSH2 0x2B86 JUMP JUMPDEST POP ISZERO PUSH2 0x13A9 JUMPI JUMPDEST PUSH1 0x8 SLOAD SWAP5 PUSH32 0x0 SWAP6 DUP7 DUP2 LT DUP1 PUSH2 0x21FD JUMPI JUMPDEST PUSH2 0x212D JUMPI JUMPDEST TIMESTAMP PUSH1 0x9 DUP2 SWAP1 SSTORE PUSH1 0x7 DUP1 SLOAD PUSH1 0xFF NOT AND PUSH1 0x4 OR SWAP1 SSTORE PUSH1 0x8 SLOAD PUSH1 0x40 DUP1 MLOAD SWAP2 DUP3 MSTORE PUSH1 0x20 DUP3 ADD DUP10 SWAP1 MSTORE DUP2 ADD SWAP2 SWAP1 SWAP2 MSTORE DUP9 SWAP1 PUSH32 0xF3E2F1D90BD58F6807B6468783C27FDC68307B057882B3CA4EB0F3BB21167899 SWAP1 PUSH1 0x60 SWAP1 LOG1 PUSH1 0x1 DUP2 SSTORE DUP1 RETURN JUMPDEST SWAP1 PUSH2 0x213B PUSH2 0x2141 SWAP3 DUP9 PUSH2 0x2B79 JUMP JUMPDEST SWAP1 PUSH2 0x2B66 JUMP JUMPDEST SWAP5 DUP1 ISZERO PUSH2 0x21E7 JUMPI PUSH32 0xF3E2F1D90BD58F6807B6468783C27FDC68307B057882B3CA4EB0F3BB21167899 SWAP6 DIV SWAP1 DUP2 PUSH2 0x2178 JUMPI JUMPDEST DUP1 PUSH2 0x20D4 JUMP JUMPDEST PUSH32 0x3316CD92E8029A9D825199AD5D83F540869E52A9D77CF97560178A0B5EBAC6FB SWAP4 PUSH1 0x20 SWAP4 PUSH2 0x21D7 SWAP3 PUSH1 0x40 MLOAD SWAP3 PUSH4 0x23B872DD PUSH1 0xE0 SHL DUP8 DUP6 ADD MSTORE AND PUSH1 0x24 DUP4 ADD MSTORE PUSH2 0xDEAD PUSH1 0x44 DUP4 ADD MSTORE DUP4 PUSH1 0x64 DUP4 ADD MSTORE PUSH1 0x64 DUP3 MSTORE PUSH2 0x21D2 DUP3 PUSH2 0x28FF JUMP JUMPDEST PUSH2 0x2981 JUMP JUMPDEST PUSH1 0x40 MLOAD SWAP1 DUP2 MSTORE LOG1 CODESIZE DUP1 DUP1 DUP1 PUSH2 0x2172 JUMP JUMPDEST PUSH4 0x4E487B71 PUSH1 0xE0 SHL PUSH1 0x0 MSTORE PUSH1 0x12 PUSH1 0x4 MSTORE PUSH1 0x24 PUSH1 0x0 REVERT JUMPDEST POP DUP2 ISZERO ISZERO PUSH2 0x20CF JUMP JUMPDEST PUSH2 0x2210 SWAP4 POP PUSH2 0x2C0D JUMP JUMPDEST PUSH2 0x20A0 JUMP JUMPDEST PUSH2 0x2221 SWAP2 SWAP3 SWAP5 POP PUSH2 0x28EB JUMP JUMPDEST PUSH2 0xD2C JUMPI DUP7 SWAP2 DUP5 CODESIZE PUSH2 0x2081 JUMP JUMPDEST SWAP2 DUP6 PUSH32 0x0 PUSH2 0x225C DUP12 DUP3 DUP7 PUSH2 0x2C49 JUMP JUMPDEST AND DUP1 EXTCODESIZE ISZERO PUSH2 0xE29 JUMPI PUSH1 0x40 MLOAD PUSH4 0x398DA911 PUSH1 0xE0 SHL DUP2 MSTORE PUSH1 0x1 PUSH1 0x1 PUSH1 0xA0 SHL SUB SWAP5 SWAP1 SWAP5 AND PUSH1 0x4 DUP6 ADD MSTORE PUSH1 0x24 DUP5 ADD DUP11 SWAP1 MSTORE DUP6 SWAP1 DUP5 SWAP1 PUSH1 0x44 SWAP1 DUP3 SWAP1 DUP5 SWAP1 GAS CALL DUP1 ISZERO PUSH2 0x600 JUMPI DUP9 SWAP4 DUP7 SWAP2 PUSH2 0x22AC JUMPI JUMPDEST POP POP PUSH2 0x2084 JUMP JUMPDEST PUSH2 0x22B8 SWAP2 SWAP3 SWAP5 POP PUSH2 0x28EB JUMP JUMPDEST PUSH2 0xD2C JUMPI DUP7 SWAP2 DUP5 CODESIZE PUSH2 0x22A5 JUMP JUMPDEST PUSH2 0x22D1 SWAP1 SWAP8 SWAP2 SWAP8 PUSH2 0x28EB JUMP JUMPDEST SWAP6 CODESIZE PUSH2 0x1FFE JUMP JUMPDEST POP CALLVALUE PUSH2 0x29C JUMPI PUSH1 0x40 CALLDATASIZE PUSH1 0x3 NOT ADD SLT PUSH2 0x29C JUMPI PUSH2 0x22F2 PUSH2 0x271B JUMP JUMPDEST CALLER PUSH1 0x1 PUSH1 0x1 PUSH1 0xA0 SHL SUB DUP3 AND SUB PUSH2 0x230E JUMPI PUSH2 0x120F SWAP1 PUSH1 0x4 CALLDATALOAD PUSH2 0x2851 JUMP JUMPDEST PUSH1 0x40 MLOAD PUSH4 0x334BD919 PUSH1 0xE1 SHL DUP2 MSTORE PUSH1 0x4 SWAP1 REVERT JUMPDEST POP CALLVALUE PUSH2 0x29C JUMPI DUP1 PUSH1 0x3 NOT CALLDATASIZE ADD SLT PUSH2 0x29C JUMPI PUSH1 0x20 PUSH1 0x40 MLOAD PUSH32 0x0 DUP2 MSTORE RETURN JUMPDEST POP CALLVALUE PUSH2 0x29C JUMPI DUP1 PUSH1 0x3 NOT CALLDATASIZE ADD SLT PUSH2 0x29C JUMPI PUSH1 0x40 MLOAD PUSH32 0x0 PUSH1 0x1 PUSH1 0x1 PUSH1 0xA0 SHL SUB AND DUP2 MSTORE PUSH1 0x20 SWAP1 RETURN JUMPDEST POP CALLVALUE PUSH2 0x29C JUMPI PUSH1 0x40 CALLDATASIZE PUSH1 0x3 NOT ADD SLT PUSH2 0x29C JUMPI PUSH2 0x120F PUSH1 0x4 CALLDATALOAD PUSH2 0x23C0 PUSH2 0x271B JUMP JUMPDEST SWAP1 DUP1 DUP5 MSTORE PUSH1 0x2 PUSH1 0x20 MSTORE PUSH2 0x23D9 PUSH1 0x1 PUSH1 0x40 DUP7 KECCAK256 ADD SLOAD PUSH2 0x27AB JUMP JUMPDEST PUSH2 0x27D1 JUMP JUMPDEST POP CALLVALUE PUSH2 0x29C JUMPI PUSH1 0x20 CALLDATASIZE PUSH1 0x3 NOT ADD SLT PUSH2 0x29C JUMPI PUSH2 0x23F8 PUSH2 0x2705 JUMP JUMPDEST PUSH2 0x2400 PUSH2 0x2731 JUMP JUMPDEST PUSH2 0x2408 PUSH2 0x2A07 JUMP JUMPDEST PUSH1 0xFF PUSH1 0x7 SLOAD AND PUSH1 0x7 DUP2 LT ISZERO PUSH2 0x246D JUMPI PUSH1 0x4 SUB PUSH2 0x1121 JUMPI PUSH1 0x1 PUSH1 0x1 PUSH1 0xA0 SHL SUB DUP2 AND ISZERO PUSH2 0x245B JUMPI DUP2 SWAP1 SELFBALANCE DUP1 PUSH2 0x243D JUMPI DUP3 PUSH1 0x1 DUP2 SSTORE DUP1 RETURN JUMPDEST DUP3 DUP1 SWAP3 SWAP2 DUP2 SWAP3 GAS CALL PUSH2 0x244D PUSH2 0x2B86 JUMP JUMPDEST POP ISZERO PUSH2 0x6D2 JUMPI DUP1 CODESIZE DUP1 PUSH2 0x1557 JUMP JUMPDEST PUSH1 0x40 MLOAD PUSH4 0xE6C4247B PUSH1 0xE0 SHL DUP2 MSTORE PUSH1 0x4 SWAP1 REVERT JUMPDEST PUSH4 0x4E487B71 PUSH1 0xE0 SHL DUP4 MSTORE PUSH1 0x21 PUSH1 0x4 MSTORE PUSH1 0x24 DUP4 REVERT JUMPDEST POP CALLVALUE PUSH2 0x29C JUMPI DUP1 PUSH1 0x3 NOT CALLDATASIZE ADD SLT PUSH2 0x29C JUMPI PUSH1 0x20 PUSH1 0xFF PUSH1 0x11 SLOAD PUSH1 0x10 SHR AND PUSH1 0x40 MLOAD SWAP1 ISZERO ISZERO DUP2 MSTORE RETURN JUMPDEST POP CALLVALUE PUSH2 0x29C JUMPI PUSH1 0x20 CALLDATASIZE PUSH1 0x3 NOT ADD SLT PUSH2 0x29C JUMPI PUSH1 0x1 PUSH1 0x40 PUSH1 0x20 SWAP3 PUSH1 0x4 CALLDATALOAD DUP2 MSTORE PUSH1 0x2 DUP5 MSTORE KECCAK256 ADD SLOAD PUSH1 0x40 MLOAD SWAP1 DUP2 MSTORE RETURN JUMPDEST POP CALLVALUE PUSH2 0x29C JUMPI DUP1 PUSH1 0x3 NOT CALLDATASIZE ADD SLT PUSH2 0x29C JUMPI PUSH1 0x20 PUSH1 0xFF PUSH1 0x7 SLOAD AND PUSH2 0x24FA PUSH1 0x40 MLOAD DUP1 SWAP3 PUSH2 0x26E2 JUMP JUMPDEST RETURN JUMPDEST POP CALLVALUE PUSH2 0x29C JUMPI DUP1 PUSH1 0x3 NOT CALLDATASIZE ADD SLT PUSH2 0x29C JUMPI PUSH1 0x80 PUSH1 0x3 SLOAD PUSH1 0x4 SLOAD PUSH1 0x5 SLOAD PUSH1 0x6 SLOAD SWAP2 PUSH1 0x40 MLOAD SWAP4 DUP5 MSTORE PUSH1 0x20 DUP5 ADD MSTORE PUSH1 0x40 DUP4 ADD MSTORE PUSH1 0x60 DUP3 ADD MSTORE RETURN JUMPDEST POP CALLVALUE PUSH2 0x29C JUMPI PUSH2 0x2542 CALLDATASIZE PUSH2 0x2698 JUMP JUMPDEST PUSH2 0x254A PUSH2 0x2731 JUMP JUMPDEST PUSH2 0x2552 PUSH2 0x2A2A JUMP JUMPDEST PUSH1 0x7 SLOAD SWAP2 PUSH1 0xFF DUP4 AND PUSH1 0x7 DUP2 LT ISZERO PUSH2 0x14B1 JUMPI DUP1 ISZERO ISZERO SWAP1 DUP2 PUSH2 0x25AD JUMPI JUMPDEST POP PUSH2 0x1121 JUMPI PUSH1 0x6 PUSH32 0x2AC842F90DAB3279148F7E55AC91D911F75C1C300A202A5250E05400B15FA156 SWAP4 PUSH1 0xFF NOT AND OR PUSH1 0x7 SSTORE PUSH2 0x14AB PUSH1 0x40 MLOAD SWAP3 DUP4 SWAP3 DUP4 PUSH2 0x2D3C JUMP JUMPDEST PUSH1 0x1 SWAP2 POP EQ ISZERO CODESIZE PUSH2 0x256D JUMP JUMPDEST POP CALLVALUE PUSH2 0x29C JUMPI DUP1 PUSH1 0x3 NOT CALLDATASIZE ADD SLT PUSH2 0x29C JUMPI PUSH1 0x40 MLOAD PUSH32 0x0 PUSH1 0x1 PUSH1 0x1 PUSH1 0xA0 SHL SUB AND DUP2 MSTORE PUSH1 0x20 SWAP1 RETURN JUMPDEST POP CALLVALUE PUSH2 0x29C JUMPI DUP1 PUSH1 0x3 NOT CALLDATASIZE ADD SLT PUSH2 0x29C JUMPI PUSH1 0x40 MLOAD PUSH32 0x0 PUSH1 0x1 PUSH1 0x1 PUSH1 0xA0 SHL SUB AND DUP2 MSTORE PUSH1 0x20 SWAP1 RETURN JUMPDEST SWAP1 POP CALLVALUE PUSH2 0xD30 JUMPI PUSH1 0x20 CALLDATASIZE PUSH1 0x3 NOT ADD SLT PUSH2 0xD30 JUMPI PUSH1 0x4 CALLDATALOAD PUSH4 0xFFFFFFFF PUSH1 0xE0 SHL DUP2 AND DUP1 SWAP2 SUB PUSH2 0xDD4 JUMPI PUSH1 0x20 SWAP3 POP PUSH4 0x7965DB0B PUSH1 0xE0 SHL DUP2 EQ SWAP1 DUP2 ISZERO PUSH2 0x2687 JUMPI JUMPDEST POP ISZERO ISZERO DUP2 MSTORE RETURN JUMPDEST PUSH4 0x1FFC9A7 PUSH1 0xE0 SHL EQ SWAP1 POP CODESIZE PUSH2 0x2680 JUMP JUMPDEST SWAP1 PUSH1 0x20 PUSH1 0x3 NOT DUP4 ADD SLT PUSH2 0x5F3 JUMPI PUSH1 0x4 CALLDATALOAD PUSH8 0xFFFFFFFFFFFFFFFF SWAP3 DUP4 DUP3 GT PUSH2 0x5F3 JUMPI DUP1 PUSH1 0x23 DUP4 ADD SLT ISZERO PUSH2 0x5F3 JUMPI DUP2 PUSH1 0x4 ADD CALLDATALOAD SWAP4 DUP5 GT PUSH2 0x5F3 JUMPI PUSH1 0x24 DUP5 DUP4 ADD ADD GT PUSH2 0x5F3 JUMPI PUSH1 0x24 ADD SWAP2 SWAP1 JUMP JUMPDEST SWAP1 PUSH1 0x7 DUP3 LT ISZERO PUSH2 0x26EF JUMPI MSTORE JUMP JUMPDEST PUSH4 0x4E487B71 PUSH1 0xE0 SHL PUSH1 0x0 MSTORE PUSH1 0x21 PUSH1 0x4 MSTORE PUSH1 0x24 PUSH1 0x0 REVERT JUMPDEST PUSH1 0x4 CALLDATALOAD SWAP1 PUSH1 0x1 PUSH1 0x1 PUSH1 0xA0 SHL SUB DUP3 AND DUP3 SUB PUSH2 0x5F3 JUMPI JUMP JUMPDEST PUSH1 0x24 CALLDATALOAD SWAP1 PUSH1 0x1 PUSH1 0x1 PUSH1 0xA0 SHL SUB DUP3 AND DUP3 SUB PUSH2 0x5F3 JUMPI JUMP JUMPDEST CALLER PUSH1 0x0 SWAP1 DUP2 MSTORE PUSH32 0xE5EBFA64FCA8D502A8E50C1EDFFD2C31EF4DAD5B396E65D9F397FB028F74ABC5 PUSH1 0x20 MSTORE PUSH1 0x40 SWAP1 KECCAK256 SLOAD PUSH32 0xA49807205CE4D355092EF5A8A18F56E8913CF4A201FBE287825B095693C21775 SWAP1 PUSH1 0xFF AND ISZERO PUSH2 0x278D JUMPI POP JUMP JUMPDEST PUSH1 0x44 SWAP1 PUSH1 0x40 MLOAD SWAP1 PUSH4 0xE2517D3F PUSH1 0xE0 SHL DUP3 MSTORE CALLER PUSH1 0x4 DUP4 ADD MSTORE PUSH1 0x24 DUP3 ADD MSTORE REVERT JUMPDEST DUP1 PUSH1 0x0 MSTORE PUSH1 0x2 PUSH1 0x20 MSTORE PUSH1 0x40 PUSH1 0x0 KECCAK256 CALLER PUSH1 0x0 MSTORE PUSH1 0x20 MSTORE PUSH1 0xFF PUSH1 0x40 PUSH1 0x0 KECCAK256 SLOAD AND ISZERO PUSH2 0x278D JUMPI POP JUMP JUMPDEST SWAP1 PUSH1 0x0 SWAP2 DUP1 DUP4 MSTORE PUSH1 0x2 PUSH1 0x20 MSTORE PUSH1 0x40 DUP4 KECCAK256 SWAP2 PUSH1 0x1 DUP1 PUSH1 0xA0 SHL SUB AND SWAP2 DUP3 DUP5 MSTORE PUSH1 0x20 MSTORE PUSH1 0xFF PUSH1 0x40 DUP5 KECCAK256 SLOAD AND ISZERO PUSH1 0x0 EQ PUSH2 0x284C JUMPI DUP1 DUP4 MSTORE PUSH1 0x2 PUSH1 0x20 MSTORE PUSH1 0x40 DUP4 KECCAK256 DUP3 DUP5 MSTORE PUSH1 0x20 MSTORE PUSH1 0x40 DUP4 KECCAK256 PUSH1 0x1 PUSH1 0xFF NOT DUP3 SLOAD AND OR SWAP1 SSTORE PUSH32 0x2F8788117E7EFF1D82E926EC794901D17C78024A50270940304540A733656F0D CALLER SWAP4 DUP1 LOG4 PUSH1 0x1 SWAP1 JUMP JUMPDEST POP POP SWAP1 JUMP JUMPDEST SWAP1 PUSH1 0x0 SWAP2 DUP1 DUP4 MSTORE PUSH1 0x2 PUSH1 0x20 MSTORE PUSH1 0x40 DUP4 KECCAK256 SWAP2 PUSH1 0x1 DUP1 PUSH1 0xA0 SHL SUB AND SWAP2 DUP3 DUP5 MSTORE PUSH1 0x20 MSTORE PUSH1 0xFF PUSH1 0x40 DUP5 KECCAK256 SLOAD AND PUSH1 0x0 EQ PUSH2 0x284C JUMPI DUP1 DUP4 MSTORE PUSH1 0x2 PUSH1 0x20 MSTORE PUSH1 0x40 DUP4 KECCAK256 DUP3 DUP5 MSTORE PUSH1 0x20 MSTORE PUSH1 0x40 DUP4 KECCAK256 PUSH1 0xFF NOT DUP2 SLOAD AND SWAP1 SSTORE PUSH32 0xF6391F5C32D9C69D2A47EA670B442974B53935D1EDC7FD64EB21E047A839171B CALLER SWAP4 DUP1 LOG4 PUSH1 0x1 SWAP1 JUMP JUMPDEST SWAP2 SWAP1 DUP3 ADD DUP1 SWAP3 GT PUSH2 0x28D5 JUMPI JUMP JUMPDEST PUSH4 0x4E487B71 PUSH1 0xE0 SHL PUSH1 0x0 MSTORE PUSH1 0x11 PUSH1 0x4 MSTORE PUSH1 0x24 PUSH1 0x0 REVERT JUMPDEST PUSH8 0xFFFFFFFFFFFFFFFF DUP2 GT PUSH2 0x10C7 JUMPI PUSH1 0x40 MSTORE JUMP JUMPDEST PUSH1 0xA0 DUP2 ADD SWAP1 DUP2 LT PUSH8 0xFFFFFFFFFFFFFFFF DUP3 GT OR PUSH2 0x10C7 JUMPI PUSH1 0x40 MSTORE JUMP JUMPDEST SWAP1 PUSH1 0x1F DUP1 NOT SWAP2 ADD AND DUP2 ADD SWAP1 DUP2 LT PUSH8 0xFFFFFFFFFFFFFFFF DUP3 GT OR PUSH2 0x10C7 JUMPI PUSH1 0x40 MSTORE JUMP JUMPDEST PUSH1 0x40 MLOAD PUSH4 0x23B872DD PUSH1 0xE0 SHL PUSH1 0x20 DUP3 ADD MSTORE PUSH1 0x1 PUSH1 0x1 PUSH1 0xA0 SHL SUB SWAP3 DUP4 AND PUSH1 0x24 DUP3 ADD MSTORE SWAP3 SWAP1 SWAP2 AND PUSH1 0x44 DUP4 ADD MSTORE PUSH1 0x64 DUP1 DUP4 ADD SWAP4 SWAP1 SWAP4 MSTORE SWAP2 DUP2 MSTORE PUSH2 0x297F SWAP2 PUSH2 0x21D2 DUP3 PUSH2 0x28FF JUMP JUMPDEST JUMP JUMPDEST SWAP1 PUSH1 0x0 PUSH1 0x20 SWAP2 DUP3 DUP2 MLOAD SWAP2 ADD DUP3 DUP6 GAS CALL ISZERO PUSH2 0x29DD JUMPI PUSH1 0x0 MLOAD RETURNDATASIZE PUSH2 0x29D4 JUMPI POP PUSH1 0x1 PUSH1 0x1 PUSH1 0xA0 SHL SUB DUP2 AND EXTCODESIZE ISZERO JUMPDEST PUSH2 0x29B2 JUMPI POP JUMP JUMPDEST PUSH1 0x40 MLOAD PUSH4 0x5274AFE7 PUSH1 0xE0 SHL DUP2 MSTORE PUSH1 0x1 PUSH1 0x1 PUSH1 0xA0 SHL SUB SWAP1 SWAP2 AND PUSH1 0x4 DUP3 ADD MSTORE PUSH1 0x24 SWAP1 REVERT JUMPDEST PUSH1 0x1 EQ ISZERO PUSH2 0x29AB JUMP JUMPDEST PUSH1 0x40 MLOAD RETURNDATASIZE PUSH1 0x0 DUP3 RETURNDATACOPY RETURNDATASIZE SWAP1 REVERT JUMPDEST PUSH1 0xFF PUSH1 0x1 SLOAD AND PUSH2 0x29F5 JUMPI JUMP JUMPDEST PUSH1 0x40 MLOAD PUSH4 0xD93C0665 PUSH1 0xE0 SHL DUP2 MSTORE PUSH1 0x4 SWAP1 REVERT JUMPDEST PUSH1 0x2 PUSH1 0x0 SLOAD EQ PUSH2 0x2A18 JUMPI PUSH1 0x2 PUSH1 0x0 SSTORE JUMP JUMPDEST PUSH1 0x40 MLOAD PUSH4 0x3EE5AEB5 PUSH1 0xE0 SHL DUP2 MSTORE PUSH1 0x4 SWAP1 REVERT JUMPDEST PUSH1 0x7 DUP1 SLOAD SWAP1 PUSH1 0xFF DUP3 AND SWAP2 PUSH32 0x0 TIMESTAMP LT ISZERO DUP1 PUSH2 0x2B56 JUMPI JUMPDEST PUSH2 0x2B47 JUMPI JUMPDEST POP DUP1 SLOAD PUSH1 0xFF DUP2 AND DUP3 DUP2 LT ISZERO PUSH2 0x26EF JUMPI PUSH1 0x1 EQ PUSH2 0x2ADC JUMPI JUMPDEST POP PUSH1 0xFF DUP2 SLOAD AND SWAP1 DUP1 DUP3 LT ISZERO PUSH2 0x26EF JUMPI DUP3 LT ISZERO PUSH2 0x26EF JUMPI DUP1 DUP3 SUB PUSH2 0x2A9B JUMPI POP POP JUMP JUMPDEST PUSH32 0xD643A1384921DE4B8AD16DF0A695F1E75FCFE3BCAC27F9C5C8CEE4645872382 SWAP2 PUSH2 0x2AD9 PUSH1 0x40 SWAP3 PUSH2 0x2ACF DUP5 MLOAD DUP1 SWAP5 PUSH2 0x26E2 JUMP JUMPDEST PUSH1 0x20 DUP4 ADD SWAP1 PUSH2 0x26E2 JUMP JUMPDEST LOG1 JUMP JUMPDEST PUSH32 0x0 TIMESTAMP LT DUP1 ISZERO SWAP1 PUSH2 0x2B1B JUMPI JUMPDEST ISZERO PUSH2 0x2A7A JUMPI PUSH1 0xFF NOT AND PUSH1 0x2 OR DUP2 SSTORE CODESIZE PUSH2 0x2A7A JUMP JUMPDEST POP PUSH1 0x8 SLOAD PUSH32 0x0 GT ISZERO PUSH2 0x2B07 JUMP JUMPDEST PUSH1 0xFF NOT AND PUSH1 0x1 OR DUP2 SSTORE CODESIZE PUSH2 0x2A63 JUMP JUMPDEST POP DUP2 DUP4 LT ISZERO PUSH2 0x26EF JUMPI DUP3 ISZERO PUSH2 0x2A5E JUMP JUMPDEST DUP2 DUP2 MUL SWAP3 SWAP2 DUP2 ISZERO SWAP2 DUP5 DIV EQ OR ISZERO PUSH2 0x28D5 JUMPI JUMP JUMPDEST SWAP2 SWAP1 DUP3 SUB SWAP2 DUP3 GT PUSH2 0x28D5 JUMPI JUMP JUMPDEST RETURNDATASIZE ISZERO PUSH2 0x2BC1 JUMPI RETURNDATASIZE SWAP1 PUSH8 0xFFFFFFFFFFFFFFFF DUP3 GT PUSH2 0x10C7 JUMPI PUSH1 0x40 MLOAD SWAP2 PUSH2 0x2BB5 PUSH1 0x1F DUP3 ADD PUSH1 0x1F NOT AND PUSH1 0x20 ADD DUP5 PUSH2 0x291B JUMP JUMPDEST DUP3 MSTORE RETURNDATASIZE PUSH1 0x0 PUSH1 0x20 DUP5 ADD RETURNDATACOPY JUMP JUMPDEST PUSH1 0x60 SWAP1 JUMP JUMPDEST SWAP1 PUSH1 0x40 MLOAD SWAP1 PUSH4 0xA9059CBB PUSH1 0xE0 SHL PUSH1 0x20 DUP4 ADD MSTORE PUSH2 0xDEAD PUSH1 0x24 DUP4 ADD MSTORE PUSH1 0x44 DUP3 ADD MSTORE PUSH1 0x44 DUP2 MSTORE PUSH1 0x80 DUP2 ADD SWAP2 DUP2 DUP4 LT PUSH8 0xFFFFFFFFFFFFFFFF DUP5 GT OR PUSH2 0x10C7 JUMPI PUSH2 0x297F SWAP3 PUSH1 0x40 MSTORE PUSH2 0x2981 JUMP JUMPDEST PUSH1 0x40 MLOAD PUSH4 0xA9059CBB PUSH1 0xE0 SHL PUSH1 0x20 DUP3 ADD MSTORE PUSH1 0x1 PUSH1 0x1 PUSH1 0xA0 SHL SUB SWAP3 SWAP1 SWAP3 AND PUSH1 0x24 DUP4 ADD MSTORE PUSH1 0x44 DUP1 DUP4 ADD SWAP4 SWAP1 SWAP4 MSTORE SWAP2 DUP2 MSTORE PUSH2 0x297F SWAP2 PUSH2 0x21D2 PUSH1 0x64 DUP4 PUSH2 0x291B JUMP JUMPDEST PUSH1 0x40 MLOAD PUSH4 0x95EA7B3 PUSH1 0xE0 SHL PUSH1 0x20 DUP3 ADD DUP2 DUP2 MSTORE PUSH1 0x1 PUSH1 0x1 PUSH1 0xA0 SHL SUB DUP6 AND PUSH1 0x24 DUP5 ADD MSTORE PUSH1 0x44 DUP1 DUP5 ADD SWAP7 SWAP1 SWAP7 MSTORE SWAP5 DUP3 MSTORE SWAP5 SWAP4 SWAP1 SWAP3 PUSH2 0x2C85 PUSH1 0x64 DUP6 PUSH2 0x291B JUMP JUMPDEST PUSH1 0x20 PUSH1 0x0 DUP1 SWAP4 DUP7 MLOAD SWAP1 DUP3 DUP8 GAS CALL DUP3 MLOAD RETURNDATASIZE DUP3 PUSH2 0x2D17 JUMPI JUMPDEST POP POP ISZERO PUSH2 0x2CAB JUMPI JUMPDEST POP POP POP POP SWAP1 POP JUMP JUMPDEST PUSH1 0x40 MLOAD PUSH1 0x20 DUP2 ADD SWAP7 SWAP1 SWAP7 MSTORE PUSH1 0x1 PUSH1 0x1 PUSH1 0xA0 SHL SUB AND PUSH1 0x24 DUP7 ADD MSTORE PUSH1 0x44 DUP1 DUP7 ADD DUP3 SWAP1 MSTORE DUP6 MSTORE PUSH1 0x80 DUP6 ADD SWAP1 PUSH8 0xFFFFFFFFFFFFFFFF DUP3 GT DUP7 DUP4 LT OR PUSH2 0x2D03 JUMPI POP PUSH2 0x2CF9 SWAP4 SWAP5 PUSH2 0x21D2 SWAP2 PUSH1 0x40 MSTORE DUP3 PUSH2 0x2981 JUMP JUMPDEST DUP1 CODESIZE DUP1 DUP1 DUP1 PUSH2 0x2CA3 JUMP JUMPDEST PUSH4 0x4E487B71 PUSH1 0xE0 SHL DUP2 MSTORE PUSH1 0x41 PUSH1 0x4 MSTORE PUSH1 0x24 SWAP1 REVERT JUMPDEST SWAP1 SWAP2 POP PUSH2 0x2D34 JUMPI POP PUSH1 0x1 PUSH1 0x1 PUSH1 0xA0 SHL SUB DUP4 AND EXTCODESIZE ISZERO ISZERO JUMPDEST CODESIZE DUP1 PUSH2 0x2C9B JUMP JUMPDEST PUSH1 0x1 EQ PUSH2 0x2D2D JUMP JUMPDEST SWAP1 SWAP2 DUP1 PUSH1 0x40 SWAP4 PUSH1 0x20 DUP5 MSTORE DUP2 PUSH1 0x20 DUP6 ADD MSTORE DUP5 DUP5 ADD CALLDATACOPY PUSH1 0x0 DUP3 DUP3 ADD DUP5 ADD MSTORE PUSH1 0x1F ADD PUSH1 0x1F NOT AND ADD ADD SWAP1 JUMP JUMPDEST SWAP1 DUP2 PUSH1 0x20 SWAP2 SUB SLT PUSH2 0x5F3 JUMPI MLOAD PUSH1 0x1 PUSH1 0x1 PUSH1 0xA0 SHL SUB DUP2 AND DUP2 SUB PUSH2 0x5F3 JUMPI SWAP1 JUMP INVALID LOG2 PUSH5 0x6970667358 0x22 SLT KECCAK256 PUSH16 0x6ABC5E6753B2224060987D816B7593FC 0x4B 0xAD DUP15 0xC2 STOP 0xDA 0xEE 0xC2 0xE7 0x4B MULMOD PUSH12 0xFC5DC764736F6C6343000814 STOP CALLER 0x2F DUP8 DUP9 GT PUSH31 0x7EFF1D82E926EC794901D17C78024A50270940304540A733656F0D00000000 "},"deployedBytecode":{"immutableReferences":{"3555":[{"length":32,"start":1240},{"length":32,"start":1961},{"length":32,"start":2053},{"length":32,"start":2257},{"length":32,"start":2761},{"length":32,"start":3412},{"length":32,"start":3712},{"length":32,"start":4099},{"length":32,"start":5393},{"length":32,"start":7600},{"length":32,"start":8020}],"3557":[{"length":32,"start":4911},{"length":32,"start":7115},{"length":32,"start":8195},{"length":32,"start":9073}],"3559":[{"length":32,"start":787},{"length":32,"start":5195},{"length":32,"start":6371},{"length":32,"start":6666},{"length":32,"start":7947}],"3561":[{"length":32,"start":633},{"length":32,"start":6704},{"length":32,"start":7068},{"length":32,"start":8358},{"length":32,"start":11041}],"3563":[{"length":32,"start":5647},{"length":32,"start":6979}],"3565":[{"length":32,"start":6430},{"length":32,"start":7018}],"3567":[{"length":32,"start":5736},{"length":32,"start":6579},{"length":32,"start":6742},{"length":32,"start":10806}],"3569":[{"length":32,"start":6780},{"length":32,"start":9016},{"length":32,"start":10974}],"3571":[{"length":32,"start":3231},{"length":32,"start":7466},{"length":32,"start":8242},{"length":32,"start":8754}],"3573":[{"length":32,"start":868},{"length":32,"start":3663},{"length":32,"start":6059},{"length":32,"start":8091}],"3575":[{"length":32,"start":1693},{"length":32,"start":2477},{"length":32,"start":6128},{"length":32,"start":8056}],"3577":[{"length":32,"start":1921},{"length":32,"start":9679}],"3579":[{"length":32,"start":2336},{"length":32,"start":9748}],"3581":[{"length":32,"start":1567},{"length":32,"start":3187},{"length":32,"start":3913},{"length":32,"start":4753}],"3583":[{"length":32,"start":2394},{"length":32,"start":2676},{"length":32,"start":4526}]},"linkReferences":{},"object":"608080604052600436101561001d575b50361561001b57600080fd5b005b600090813560e01c90816301ffc9a7146126435750806303fc2013146125fe5780630758d924146125b95780630b4f3f3d146125335780631e5eb1d0146124fc578063200d2ed2146124d4578063248a9ca3146124a7578063260813d5146124815780632c23ba53146123de5780632f2ff15d146123a05780633013ce291461235b5780633197cbb61461232057806336568abe146122d8578063387cd2cb14611ebf5780633f4ba83a14611e5457806342e94c9014611e1b5780634a3b68cc14611ddf5780634b60ce7714611d9a57806350e15fdd14611d7c5780635c975abb14611d595780636052970c14611d1457806360b0b0f014611ae257806375b238fc14611aa7578063767fa723146119d657806378e979251461199b5780638456cb59146119415780638d3d657614611906578063906a26e0146118cb57806391d148541461187f57806391ed3ab014611859578063a217fddf1461183d578063a4317ef41461181f578063a4475ce4146117da578063a5917baf14611795578063a77d38fa14611748578063a9725d5214611725578063a9eddf9914611632578063aaffadf3146115f7578063ac7c5780146115d1578063afb5f1a7146114c5578063b30ca2da1461140f578063b5545a3c146112d2578063c5c4744c146112b4578063c9f62af214611279578063ca8c3bea1461125b578063cd78d92c14611213578063d547741f146111d1578063de35eb2414611196578063f2c4b64714611171578063f41e0ba9146102bd578063f86aa92d1461029f5763fb86a4040361000f573461029c578060031936011261029c5760206040517f00000000000000000000000000000000000000000000000000000000000000008152f35b80fd5b503461029c578060031936011261029c576020601254604051908152f35b503461029c5760c036600319011261029c576004356044356102dd612731565b6102e5612a07565b60ff60075416600781101561113f576004811461115f5760028114159081611153575b506110f7575b6008547f000000000000000000000000000000000000000000000000000000000000000081106110e557600f5460ff811615610f29575b505060ff6011541615610e40575b604051632eb4a7ab60e01b815282907f00000000000000000000000000000000000000000000000000000000000000006001600160a01b031690602081600481855afa908115610e35578691610dff575b5080610df557508115610de3578491813b15610dd4578291604483926040519485938492637c382d0b60e01b8452600484015260243560248401525af18015610dd857610dc0575b50505b829080151580610db5575b610d3f575b5060ff60115460081c161580610d34575b610c99575b60115460ff8160101c161580610c70575b80610c65575b80610c5a575b610765575b5060115460ff8160181c161561060b575b5060ff60115460201c16156104c3575b60c0907fc4cc84355ef3f7327b5aa6c366cafe189c44e1a7807ce501f6f3a503a66717e89242600955600460ff196007541617600755600a5491600b54600e5490604051948552602085015260408401526024356060840152608083015260a0820152a16001815580f35b6040516370a0823160e01b81523060048201527f00000000000000000000000000000000000000000000000000000000000000006001600160a01b0316602082602481845afa9182156106005785926105a1575b5092817fc4cc84355ef3f7327b5aa6c366cafe189c44e1a7807ce501f6f3a503a66717e89460c09493610565575b505064010000000064ff0000000019601154161760115592509050610458565b816105937fddab54067aac83090451464d8672d15b704d96dbee6ff6a39bb4119faede5d3793602093612bc6565b604051908152a13880610545565b929150926020833d6020116105f8575b816105be6020938361291b565b810103126105f357915191929091907fc4cc84355ef3f7327b5aa6c366cafe189c44e1a7807ce501f6f3a503a66717e8610517565b600080fd5b3d91506105b1565b6040513d87823e3d90fd5b60ff8160081c16158061075a575b610748577f000000000000000000000000000000000000000000000000000000000000000015158061073d575b8061072f575b61071d5760ff849160101c1680610710575b6106f6575b61066f90600e546128c8565b8061068f575b50630100000063ff00000019601154161760115538610448565b8047106106e45783808080937f00000000000000000000000000000000000000000000000000000000000000005af16106c6612b86565b50156106d25738610675565b604051633d2cec6f60e21b8152600490fd5b604051639c88354560e01b8152600490fd5b5061066f610709600d5460135490612b79565b9050610663565b50600d546013541061065e565b604051635961cb6360e11b8152600490fd5b5060ff8160101c161561064c565b50600d541515610646565b604051632c17c9c760e21b8152600490fd5b50600b541515610619565b60081c60ff161580610c4f575b6107485747600d54116106e4577f00000000000000000000000000000000000000000000000000000000000000006107d6606435827f00000000000000000000000000000000000000000000000000000000000000006001600160a01b0316612c49565b600d5461012c4201804211610c3b576060869160c46040518096819363f305d71960e01b835260018060a01b037f00000000000000000000000000000000000000000000000000000000000000001660048401526064356024840152608435604484015260a435606484015230608484015260a483015260018060a01b031695865af1918215610c2e57819382908394610be6575b506040516315ab88c960e31b815291602083600481845afa908115610bb9576004938592610bc4575b506020906040519485809263c45a015560e01b82525afa928315610bb9578493610b97575b5060405163e6a4390560e01b81526001600160a01b037f00000000000000000000000000000000000000000000000000000000000000008116600483015291821660248201529260209184916044918391165afa918215610b8c578392610b5b575b5060207f000000000000000000000000000000000000000000000000000000000000000061095386826001600160a01b038716612c49565b608461097f7f0000000000000000000000000000000000000000000000000000000000000000426128c8565b604051630aa393f360e01b81526001600160a01b038781166004830152602482018a905260448201929092527f0000000000000000000000000000000000000000000000000000000000000000821660648201529687938492165af1928315610b50578893610afc575b50601283905560138190556011805462ff00001916620100001790556040805186815260208101929092528181018590527fce43c008407997433724b443add46562764945cebefa7fb64f11a3537db3a15b9290916001600160a01b038216907f64b83944e79c3ce8d4c297411de637c3e102d064677aac0c163976ebdcd6f50e90606090a2610a997f0000000000000000000000000000000000000000000000000000000000000000426128c8565b825195865260208601526001600160a01b031693a380606435111561043757610ac7610af691606435612b79565b7f00000000000000000000000000000000000000000000000000000000000000006001600160a01b0316612bc6565b38610437565b9092506020813d602011610b48575b81610b186020938361291b565b810103126105f35751917fce43c008407997433724b443add46562764945cebefa7fb64f11a3537db3a15b6109e9565b3d9150610b0b565b6040513d8a823e3d90fd5b610b7e91925060203d602011610b85575b610b76818361291b565b810190612d64565b903861091b565b503d610b6c565b6040513d85823e3d90fd5b6020919350610bb290823d8411610b8557610b76818361291b565b92906108b9565b6040513d86823e3d90fd5b6020919250610bdf90823d8411610b8557610b76818361291b565b9190610894565b9450509150506060823d8211610c26575b81610c046060938361291b565b81010312610c2257848251916040602085015194015192933861086b565b8480fd5b3d9150610bf7565b50604051903d90823e3d90fd5b634e487b7160e01b86526011600452602486fd5b50600b541515610772565b50600d541515610432565b50606435151561042c565b507f00000000000000000000000000000000000000000000000000000000000000001515610426565b600b54837f00000000000000000000000000000000000000000000000000000000000000006001600160a01b0316803b15610d3057819060046040518095819363990087b760e01b83525af19182610d18575b5050610d04576040516354ce345960e01b8152600490fd5b61010061ff00196011541617601155610415565b610d21906128eb565b610d2c578338610cec565b8380fd5b5080fd5b50600b541515610410565b9050610d4d60105482612b79565b90610d81827f00000000000000000000000000000000000000000000000000000000000000006001600160a01b0316612bc6565b6010557f3316cd92e8029a9d825199ad5d83f540869e52a9d77cf97560178a0b5ebac6fb602082604051908152a1386103ff565b5080601054106103fa565b610dc9906128eb565b610dd45782386103ec565b8280fd5b6040513d84823e3d90fd5b604051639dd854d360e01b8152600490fd5b93506103ef915050565b90506020813d602011610e2d575b81610e1a6020938361291b565b81010312610e295751386103a4565b8580fd5b3d9150610e0d565b6040513d88823e3d90fd5b6040516370a0823160e01b81527f00000000000000000000000000000000000000000000000000000000000000006001600160a01b0381811660048401527f00000000000000000000000000000000000000000000000000000000000000001690602083602481855afa928315610e35578693610ef6575b50602435808410610eda575b50505050600160ff196011541617601155610353565b610eed93610ee791612b79565b91612c0d565b38808080610ec4565b9092506020813d8211610f21575b81610f116020938361291b565b810103126105f357519138610eb8565b3d9150610f04565b6127109182610f3a60035483612b66565b0492610f468483612b79565b907f000000000000000000000000000000000000000000000000000000000000000080156110dd57610f789083612b66565b045b610f848183612b79565b9160405160c0810181811067ffffffffffffffff8211176110c75760019160a091604052868152886020820152836040820152846060820152856080820152015283600a5585600b55600c55600d55600e55600160ff1980931617600f5547106106e4576040516370a0823160e01b81523060048201526020816024817f00000000000000000000000000000000000000000000000000000000000000006001600160a01b03165afa908115610e35578691611096575b506110538461104e6064356024356128c8565b6128c8565b116110845760039115611070575b60075416176007553880610345565b61010061ff00196011541617601155611061565b6040516378a7ac6760e11b8152600490fd5b90506020813d82116110bf575b816110b06020938361291b565b810103126105f357513861103b565b3d91506110a3565b634e487b7160e01b600052604160045260246000fd5b505086610f7a565b6040516346c21a5560e01b8152600490fd5b6110ff612a2a565b60ff60075416600781101561113f5760028114159081611133575b501561030e575b6040516307a92f1960e51b8152600490fd5b6003915014153861111a565b634e487b7160e01b84526021600452602484fd5b60039150141538610308565b60405163475a253560e01b8152600490fd5b503461029c578060031936011261029c57602060115460ff60405191831c1615158152f35b503461029c578060031936011261029c5760206040517f00000000000000000000000000000000000000000000000000000000000000008152f35b503461029c57604036600319011261029c5761120f6004356111f161271b565b90808452600260205261120a60016040862001546127ab565b612851565b5080f35b503461029c57602036600319011261029c576040906001600160a01b0380611239612705565b1682526014602052828083205492601560205220541682519182526020820152f35b503461029c578060031936011261029c576020601354604051908152f35b503461029c578060031936011261029c5760206040517f00000000000000000000000000000000000000000000000000000000000000008152f35b503461029c578060031936011261029c576020600854604051908152f35b503461029c578060031936011261029c576112eb612a07565b60ff6007541660078110156113fb57600581141590816113ef575b506113dd573381526014602052604081205480156113cb573382526014602052604082208290557f00000000000000000000000000000000000000000000000000000000000000006001600160a01b031681816113bb5783808093508092335af161136f612b86565b50156113a9575b6040519081527fd7dee2702d63ad89917b6a4da9981c90c4d24f8c2bdfd64c604ecae57d8d065160203392a26001815580f35b60405163b9da5d2b60e01b8152600490fd5b6113c6913390612c0d565b611376565b604051631971fbf360e21b8152600490fd5b604051630b4d698160e01b8152600490fd5b60069150141538611306565b634e487b7160e01b82526021600452602482fd5b503461029c5761141e36612698565b611426612731565b61142e612a2a565b6007549160ff831660078110156114b157600203611121576008547f000000000000000000000000000000000000000000000000000000000000000011156111215760057f5b55eccea968a9bf1df9a6702e20475ac67bb0d7f402f51701eef38e619368fe9360ff1916176007556114ab60405192839283612d3c565b0390a180f35b634e487b7160e01b85526021600452602485fd5b503461029c578060031936011261029c576114de612731565b6114e6612a07565b60ff6007541660078110156113fb57600403611121576040516370a0823160e01b81523060048201527f00000000000000000000000000000000000000000000000000000000000000006001600160a01b0316602082602481845afa918215610b8c57839261159e575b508161155f575b826001815580f35b7fb3c71476dfd272eb50cc448234b60ee937ab332f54e7eaab71159ca6eb67744060208361159061dead9585612bc6565b604051908152a33880611557565b9091506020813d82116115c9575b816115b96020938361291b565b810103126105f357519038611550565b3d91506115ac565b503461029c578060031936011261029c57602060ff60115460081c166040519015158152f35b503461029c578060031936011261029c5760206040517f00000000000000000000000000000000000000000000000000000000000000008152f35b503461029c57608036600319011261029c5761164c612731565b60ff6007541660078110156113fb5761171457600854611714577f0000000000000000000000000000000000000000000000000000000000000000421015611714576044356024356004356116a183836128c8565b6116ae60643580926128c8565b8203611702577f0ad166d8be1925ee44c5a77600b8a5f7e58cbe711c0dbd99624014a81b8350ba9360809383600355806004558160055582600655604051938452602084015260408301526060820152a180f35b604051632b00a33d60e11b8152600490fd5b60405162b5d7e160e81b8152600490fd5b503461029c578060031936011261029c57602060ff601154166040519015158152f35b503461029c578060031936011261029c5760c0600a54600b54600c54600d54600e549160ff600f5416936040519586526020860152604085015260608401526080830152151560a0820152f35b503461029c578060031936011261029c576040517f00000000000000000000000000000000000000000000000000000000000000006001600160a01b03168152602090f35b503461029c578060031936011261029c576040517f00000000000000000000000000000000000000000000000000000000000000006001600160a01b03168152602090f35b503461029c578060031936011261029c576020600954604051908152f35b503461029c578060031936011261029c57602090604051908152f35b503461029c578060031936011261029c57602060ff60115460181c166040519015158152f35b503461029c57604036600319011261029c57604061189b61271b565b9160043581526002602052209060018060a01b0316600052602052602060ff604060002054166040519015158152f35b503461029c578060031936011261029c5760206040517f00000000000000000000000000000000000000000000000000000000000000008152f35b503461029c578060031936011261029c5760206040517f00000000000000000000000000000000000000000000000000000000000000008152f35b503461029c578060031936011261029c5761195a612731565b6119626129e9565b600160ff19815416176001557f62e78cea01bee320cd4e420270b5ea74000d11b0c9f74754ebdbfc544b05a2586020604051338152a180f35b503461029c578060031936011261029c5760206040517f00000000000000000000000000000000000000000000000000000000000000008152f35b503461029c578060031936011261029c5760e060ff6007541660085460095490611a0360405180946126e2565b60208301527f000000000000000000000000000000000000000000000000000000000000000060408301527f000000000000000000000000000000000000000000000000000000000000000060608301527f000000000000000000000000000000000000000000000000000000000000000060808301527f000000000000000000000000000000000000000000000000000000000000000060a083015260c0820152f35b503461029c578060031936011261029c5760206040517fa49807205ce4d355092ef5a8a18f56e8913cf4a201fbe287825b095693c217758152f35b50604036600319011261029c57600435611afa61271b565b90611b03612a07565b611b0b6129e9565b611b13612a2a565b60ff60075416600781101561113f576001036111215733835260209160148352611b418260408620546128c8565b7f00000000000000000000000000000000000000000000000000000000000000008110611d02577f000000000000000000000000000000000000000000000000000000000000000010611cf057611b9a826008546128c8565b7f000000000000000000000000000000000000000000000000000000000000000010611cde576001600160a01b03827f0000000000000000000000000000000000000000000000000000000000000000821680611ca85750340361112157807fec470969f3350ca5a15f0d85053f8763ffd0ee39c7b74fcdc5af7862718e292a925b3387526014865260408720611c328682546128c8565b9055611c40856008546128c8565b6008551680151580611c93575b611c71575b5033855260158452604085205416926040519283523392a36001815580f35b338652601585526040862080546001600160a01b031916909117905538611c52565b50338652601585528160408720541615611c4d565b92611cd983927fec470969f3350ca5a15f0d85053f8763ffd0ee39c7b74fcdc5af7862718e292a953090339061293d565b611c1c565b604051631c4af3c960e11b8152600490fd5b6040516374368fb960e11b8152600490fd5b60405163860b82a960e01b8152600490fd5b503461029c578060031936011261029c576040517f00000000000000000000000000000000000000000000000000000000000000006001600160a01b03168152602090f35b503461029c578060031936011261029c57602060ff600154166040519015158152f35b503461029c578060031936011261029c576020601054604051908152f35b503461029c578060031936011261029c576040517f00000000000000000000000000000000000000000000000000000000000000006001600160a01b03168152602090f35b503461029c57602036600319011261029c576020906001600160a01b039060409082611e09612705565b16815260158452205416604051908152f35b503461029c57602036600319011261029c576020906040906001600160a01b03611e43612705565b168152601483522054604051908152f35b503461029c578060031936011261029c57611e6d612731565b60015460ff811615611ead5760ff19166001557f5db9ee0a495bf2e6ff9c91a7834c1ba4fdd244a5e8aa4e537bd38aeae4b073aa6020604051338152a180f35b604051638dfc202b60e01b8152600490fd5b503461029c57606036600319011261029c57604435602435611edf612731565b611ee7612a07565b611eef612a2a565b60ff60075416600781101561113f5760020361112157600854907f000000000000000000000000000000000000000000000000000000000000000082106110e557611f4a612710611f4260035485612b66565b048093612b79565b60018060a01b03807f00000000000000000000000000000000000000000000000000000000000000001691867f000000000000000000000000000000000000000000000000000000000000000094837f0000000000000000000000000000000000000000000000000000000000000000611fc683828a8a61293d565b16803b15610dd457604483926040519485938492637c382d0b60e01b8452600435600485015260248401525af18015610b50576122c5575b5086907f0000000000000000000000000000000000000000000000000000000000000000838116801591821561222e5750847f00000000000000000000000000000000000000000000000000000000000000001691823b15610c225784899360046040518096819363990087b760e01b83525af180156106005788938691612215575b50505b15612206575082809281925af1612099612b86565b50156113a9575b600854947f000000000000000000000000000000000000000000000000000000000000000095868110806121fd575b61212d575b4260098190556007805460ff19166004179055600854604080519182526020820189905281019190915288907ff3e2f1d90bd58f6807b6468783c27fdc68307b057882b3ca4eb0f3bb2116789990606090a16001815580f35b9061213b6121419288612b79565b90612b66565b9480156121e7577ff3e2f1d90bd58f6807b6468783c27fdc68307b057882b3ca4eb0f3bb2116789995049081612178575b806120d4565b7f3316cd92e8029a9d825199ad5d83f540869e52a9d77cf97560178a0b5ebac6fb936020936121d792604051926323b872dd60e01b8785015216602483015261dead6044830152836064830152606482526121d2826128ff565b612981565b604051908152a138808080612172565b634e487b7160e01b600052601260045260246000fd5b508115156120cf565b6122109350612c0d565b6120a0565b612221919294506128eb565b610d2c5786918438612081565b91857f000000000000000000000000000000000000000000000000000000000000000061225c8b8286612c49565b16803b15610e295760405163398da91160e01b81526001600160a01b03949094166004850152602484018a905285908490604490829084905af1801561060057889386916122ac575b5050612084565b6122b8919294506128eb565b610d2c57869184386122a5565b6122d1909791976128eb565b9538611ffe565b503461029c57604036600319011261029c576122f261271b565b336001600160a01b0382160361230e5761120f90600435612851565b60405163334bd91960e11b8152600490fd5b503461029c578060031936011261029c5760206040517f00000000000000000000000000000000000000000000000000000000000000008152f35b503461029c578060031936011261029c576040517f00000000000000000000000000000000000000000000000000000000000000006001600160a01b03168152602090f35b503461029c57604036600319011261029c5761120f6004356123c061271b565b9080845260026020526123d960016040862001546127ab565b6127d1565b503461029c57602036600319011261029c576123f8612705565b612400612731565b612408612a07565b60ff60075416600781101561246d57600403611121576001600160a01b0381161561245b578190478061243d57826001815580f35b8280929181925af161244d612b86565b50156106d257803880611557565b60405163e6c4247b60e01b8152600490fd5b634e487b7160e01b83526021600452602483fd5b503461029c578060031936011261029c57602060ff60115460101c166040519015158152f35b503461029c57602036600319011261029c5760016040602092600435815260028452200154604051908152f35b503461029c578060031936011261029c57602060ff600754166124fa60405180926126e2565bf35b503461029c578060031936011261029c57608060035460045460055460065491604051938452602084015260408301526060820152f35b503461029c5761254236612698565b61254a612731565b612552612a2a565b6007549160ff831660078110156114b15780151590816125ad575b506111215760067f2ac842f90dab3279148f7e55ac91d911f75c1c300a202a5250e05400b15fa1569360ff1916176007556114ab60405192839283612d3c565b6001915014153861256d565b503461029c578060031936011261029c576040517f00000000000000000000000000000000000000000000000000000000000000006001600160a01b03168152602090f35b503461029c578060031936011261029c576040517f00000000000000000000000000000000000000000000000000000000000000006001600160a01b03168152602090f35b905034610d30576020366003190112610d305760043563ffffffff60e01b8116809103610dd45760209250637965db0b60e01b8114908115612687575b5015158152f35b6301ffc9a760e01b14905038612680565b9060206003198301126105f35760043567ffffffffffffffff928382116105f357806023830112156105f35781600401359384116105f357602484830101116105f3576024019190565b9060078210156126ef5752565b634e487b7160e01b600052602160045260246000fd5b600435906001600160a01b03821682036105f357565b602435906001600160a01b03821682036105f357565b3360009081527fe5ebfa64fca8d502a8e50c1edffd2c31ef4dad5b396e65d9f397fb028f74abc560205260409020547fa49807205ce4d355092ef5a8a18f56e8913cf4a201fbe287825b095693c217759060ff161561278d5750565b6044906040519063e2517d3f60e01b82523360048301526024820152fd5b80600052600260205260406000203360005260205260ff604060002054161561278d5750565b906000918083526002602052604083209160018060a01b03169182845260205260ff6040842054161560001461284c5780835260026020526040832082845260205260408320600160ff198254161790557f2f8788117e7eff1d82e926ec794901d17c78024a50270940304540a733656f0d339380a4600190565b505090565b906000918083526002602052604083209160018060a01b03169182845260205260ff60408420541660001461284c578083526002602052604083208284526020526040832060ff1981541690557ff6391f5c32d9c69d2a47ea670b442974b53935d1edc7fd64eb21e047a839171b339380a4600190565b919082018092116128d557565b634e487b7160e01b600052601160045260246000fd5b67ffffffffffffffff81116110c757604052565b60a0810190811067ffffffffffffffff8211176110c757604052565b90601f8019910116810190811067ffffffffffffffff8211176110c757604052565b6040516323b872dd60e01b60208201526001600160a01b03928316602482015292909116604483015260648083019390935291815261297f916121d2826128ff565b565b906000602091828151910182855af1156129dd576000513d6129d457506001600160a01b0381163b155b6129b25750565b604051635274afe760e01b81526001600160a01b039091166004820152602490fd5b600114156129ab565b6040513d6000823e3d90fd5b60ff600154166129f557565b60405163d93c066560e01b8152600490fd5b600260005414612a18576002600055565b604051633ee5aeb560e01b8152600490fd5b600780549060ff8216917f000000000000000000000000000000000000000000000000000000000000000042101580612b56575b612b47575b50805460ff8116828110156126ef57600114612adc575b5060ff81541690808210156126ef578210156126ef57808203612a9b575050565b7f0d643a1384921de4b8ad16df0a695f1e75fcfe3bcac27f9c5c8cee464587238291612ad9604092612acf845180946126e2565b60208301906126e2565ba1565b7f00000000000000000000000000000000000000000000000000000000000000004210801590612b1b575b15612a7a5760ff1916600217815538612a7a565b506008547f00000000000000000000000000000000000000000000000000000000000000001115612b07565b60ff1916600117815538612a63565b50818310156126ef578215612a5e565b818102929181159184041417156128d557565b919082039182116128d557565b3d15612bc1573d9067ffffffffffffffff82116110c75760405191612bb5601f8201601f19166020018461291b565b82523d6000602084013e565b606090565b906040519063a9059cbb60e01b602083015261dead6024830152604482015260448152608081019181831067ffffffffffffffff8411176110c75761297f92604052612981565b60405163a9059cbb60e01b60208201526001600160a01b0392909216602483015260448083019390935291815261297f916121d260648361291b565b60405163095ea7b360e01b602082018181526001600160a01b038516602484015260448084019690965294825294939092612c8560648561291b565b60206000809386519082875af182513d82612d17575b505015612cab575b505050509050565b60405160208101969096526001600160a01b0316602486015260448086018290528552608085019067ffffffffffffffff821186831017612d035750612cf993946121d29160405282612981565b8038808080612ca3565b634e487b7160e01b81526041600452602490fd5b909150612d3457506001600160a01b0383163b15155b3880612c9b565b600114612d2d565b90918060409360208452816020850152848401376000828201840152601f01601f1916010190565b908160209103126105f357516001600160a01b03811681036105f3579056fea26469706673582212206f6abc5e6753b2224060987d816b7593fc4bad8ec200daeec2e74b096bfc5dc764736f6c63430008140033","opcodes":"PUSH1 0x80 DUP1 PUSH1 0x40 MSTORE PUSH1 0x4 CALLDATASIZE LT ISZERO PUSH2 0x1D JUMPI JUMPDEST POP CALLDATASIZE ISZERO PUSH2 0x1B JUMPI PUSH1 0x0 DUP1 REVERT JUMPDEST STOP JUMPDEST PUSH1 0x0 SWAP1 DUP2 CALLDATALOAD PUSH1 0xE0 SHR SWAP1 DUP2 PUSH4 0x1FFC9A7 EQ PUSH2 0x2643 JUMPI POP DUP1 PUSH4 0x3FC2013 EQ PUSH2 0x25FE JUMPI DUP1 PUSH4 0x758D924 EQ PUSH2 0x25B9 JUMPI DUP1 PUSH4 0xB4F3F3D EQ PUSH2 0x2533 JUMPI DUP1 PUSH4 0x1E5EB1D0 EQ PUSH2 0x24FC JUMPI DUP1 PUSH4 0x200D2ED2 EQ PUSH2 0x24D4 JUMPI DUP1 PUSH4 0x248A9CA3 EQ PUSH2 0x24A7 JUMPI DUP1 PUSH4 0x260813D5 EQ PUSH2 0x2481 JUMPI DUP1 PUSH4 0x2C23BA53 EQ PUSH2 0x23DE JUMPI DUP1 PUSH4 0x2F2FF15D EQ PUSH2 0x23A0 JUMPI DUP1 PUSH4 0x3013CE29 EQ PUSH2 0x235B JUMPI DUP1 PUSH4 0x3197CBB6 EQ PUSH2 0x2320 JUMPI DUP1 PUSH4 0x36568ABE EQ PUSH2 0x22D8 JUMPI DUP1 PUSH4 0x387CD2CB EQ PUSH2 0x1EBF JUMPI DUP1 PUSH4 0x3F4BA83A EQ PUSH2 0x1E54 JUMPI DUP1 PUSH4 0x42E94C90 EQ PUSH2 0x1E1B JUMPI DUP1 PUSH4 0x4A3B68CC EQ PUSH2 0x1DDF JUMPI DUP1 PUSH4 0x4B60CE77 EQ PUSH2 0x1D9A JUMPI DUP1 PUSH4 0x50E15FDD EQ PUSH2 0x1D7C JUMPI DUP1 PUSH4 0x5C975ABB EQ PUSH2 0x1D59 JUMPI DUP1 PUSH4 0x6052970C EQ PUSH2 0x1D14 JUMPI DUP1 PUSH4 0x60B0B0F0 EQ PUSH2 0x1AE2 JUMPI DUP1 PUSH4 0x75B238FC EQ PUSH2 0x1AA7 JUMPI DUP1 PUSH4 0x767FA723 EQ PUSH2 0x19D6 JUMPI DUP1 PUSH4 0x78E97925 EQ PUSH2 0x199B JUMPI DUP1 PUSH4 0x8456CB59 EQ PUSH2 0x1941 JUMPI DUP1 PUSH4 0x8D3D6576 EQ PUSH2 0x1906 JUMPI DUP1 PUSH4 0x906A26E0 EQ PUSH2 0x18CB JUMPI DUP1 PUSH4 0x91D14854 EQ PUSH2 0x187F JUMPI DUP1 PUSH4 0x91ED3AB0 EQ PUSH2 0x1859 JUMPI DUP1 PUSH4 0xA217FDDF EQ PUSH2 0x183D JUMPI DUP1 PUSH4 0xA4317EF4 EQ PUSH2 0x181F JUMPI DUP1 PUSH4 0xA4475CE4 EQ PUSH2 0x17DA JUMPI DUP1 PUSH4 0xA5917BAF EQ PUSH2 0x1795 JUMPI DUP1 PUSH4 0xA77D38FA EQ PUSH2 0x1748 JUMPI DUP1 PUSH4 0xA9725D52 EQ PUSH2 0x1725 JUMPI DUP1 PUSH4 0xA9EDDF99 EQ PUSH2 0x1632 JUMPI DUP1 PUSH4 0xAAFFADF3 EQ PUSH2 0x15F7 JUMPI DUP1 PUSH4 0xAC7C5780 EQ PUSH2 0x15D1 JUMPI DUP1 PUSH4 0xAFB5F1A7 EQ PUSH2 0x14C5 JUMPI DUP1 PUSH4 0xB30CA2DA EQ PUSH2 0x140F JUMPI DUP1 PUSH4 0xB5545A3C EQ PUSH2 0x12D2 JUMPI DUP1 PUSH4 0xC5C4744C EQ PUSH2 0x12B4 JUMPI DUP1 PUSH4 0xC9F62AF2 EQ PUSH2 0x1279 JUMPI DUP1 PUSH4 0xCA8C3BEA EQ PUSH2 0x125B JUMPI DUP1 PUSH4 0xCD78D92C EQ PUSH2 0x1213 JUMPI DUP1 PUSH4 0xD547741F EQ PUSH2 0x11D1 JUMPI DUP1 PUSH4 0xDE35EB24 EQ PUSH2 0x1196 JUMPI DUP1 PUSH4 0xF2C4B647 EQ PUSH2 0x1171 JUMPI DUP1 PUSH4 0xF41E0BA9 EQ PUSH2 0x2BD JUMPI DUP1 PUSH4 0xF86AA92D EQ PUSH2 0x29F JUMPI PUSH4 0xFB86A404 SUB PUSH2 0xF JUMPI CALLVALUE PUSH2 0x29C JUMPI DUP1 PUSH1 0x3 NOT CALLDATASIZE ADD SLT PUSH2 0x29C JUMPI PUSH1 0x20 PUSH1 0x40 MLOAD PUSH32 0x0 DUP2 MSTORE RETURN JUMPDEST DUP1 REVERT JUMPDEST POP CALLVALUE PUSH2 0x29C JUMPI DUP1 PUSH1 0x3 NOT CALLDATASIZE ADD SLT PUSH2 0x29C JUMPI PUSH1 0x20 PUSH1 0x12 SLOAD PUSH1 0x40 MLOAD SWAP1 DUP2 MSTORE RETURN JUMPDEST POP CALLVALUE PUSH2 0x29C JUMPI PUSH1 0xC0 CALLDATASIZE PUSH1 0x3 NOT ADD SLT PUSH2 0x29C JUMPI PUSH1 0x4 CALLDATALOAD PUSH1 0x44 CALLDATALOAD PUSH2 0x2DD PUSH2 0x2731 JUMP JUMPDEST PUSH2 0x2E5 PUSH2 0x2A07 JUMP JUMPDEST PUSH1 0xFF PUSH1 0x7 SLOAD AND PUSH1 0x7 DUP2 LT ISZERO PUSH2 0x113F JUMPI PUSH1 0x4 DUP2 EQ PUSH2 0x115F JUMPI PUSH1 0x2 DUP2 EQ ISZERO SWAP1 DUP2 PUSH2 0x1153 JUMPI JUMPDEST POP PUSH2 0x10F7 JUMPI JUMPDEST PUSH1 0x8 SLOAD PUSH32 0x0 DUP2 LT PUSH2 0x10E5 JUMPI PUSH1 0xF SLOAD PUSH1 0xFF DUP2 AND ISZERO PUSH2 0xF29 JUMPI JUMPDEST POP POP PUSH1 0xFF PUSH1 0x11 SLOAD AND ISZERO PUSH2 0xE40 JUMPI JUMPDEST PUSH1 0x40 MLOAD PUSH4 0x2EB4A7AB PUSH1 0xE0 SHL DUP2 MSTORE DUP3 SWAP1 PUSH32 0x0 PUSH1 0x1 PUSH1 0x1 PUSH1 0xA0 SHL SUB AND SWAP1 PUSH1 0x20 DUP2 PUSH1 0x4 DUP2 DUP6 GAS STATICCALL SWAP1 DUP2 ISZERO PUSH2 0xE35 JUMPI DUP7 SWAP2 PUSH2 0xDFF JUMPI JUMPDEST POP DUP1 PUSH2 0xDF5 JUMPI POP DUP2 ISZERO PUSH2 0xDE3 JUMPI DUP5 SWAP2 DUP2 EXTCODESIZE ISZERO PUSH2 0xDD4 JUMPI DUP3 SWAP2 PUSH1 0x44 DUP4 SWAP3 PUSH1 0x40 MLOAD SWAP5 DUP6 SWAP4 DUP5 SWAP3 PUSH4 0x7C382D0B PUSH1 0xE0 SHL DUP5 MSTORE PUSH1 0x4 DUP5 ADD MSTORE PUSH1 0x24 CALLDATALOAD PUSH1 0x24 DUP5 ADD MSTORE GAS CALL DUP1 ISZERO PUSH2 0xDD8 JUMPI PUSH2 0xDC0 JUMPI JUMPDEST POP POP JUMPDEST DUP3 SWAP1 DUP1 ISZERO ISZERO DUP1 PUSH2 0xDB5 JUMPI JUMPDEST PUSH2 0xD3F JUMPI JUMPDEST POP PUSH1 0xFF PUSH1 0x11 SLOAD PUSH1 0x8 SHR AND ISZERO DUP1 PUSH2 0xD34 JUMPI JUMPDEST PUSH2 0xC99 JUMPI JUMPDEST PUSH1 0x11 SLOAD PUSH1 0xFF DUP2 PUSH1 0x10 SHR AND ISZERO DUP1 PUSH2 0xC70 JUMPI JUMPDEST DUP1 PUSH2 0xC65 JUMPI JUMPDEST DUP1 PUSH2 0xC5A JUMPI JUMPDEST PUSH2 0x765 JUMPI JUMPDEST POP PUSH1 0x11 SLOAD PUSH1 0xFF DUP2 PUSH1 0x18 SHR AND ISZERO PUSH2 0x60B JUMPI JUMPDEST POP PUSH1 0xFF PUSH1 0x11 SLOAD PUSH1 0x20 SHR AND ISZERO PUSH2 0x4C3 JUMPI JUMPDEST PUSH1 0xC0 SWAP1 PUSH32 0xC4CC84355EF3F7327B5AA6C366CAFE189C44E1A7807CE501F6F3A503A66717E8 SWAP3 TIMESTAMP PUSH1 0x9 SSTORE PUSH1 0x4 PUSH1 0xFF NOT PUSH1 0x7 SLOAD AND OR PUSH1 0x7 SSTORE PUSH1 0xA SLOAD SWAP2 PUSH1 0xB SLOAD PUSH1 0xE SLOAD SWAP1 PUSH1 0x40 MLOAD SWAP5 DUP6 MSTORE PUSH1 0x20 DUP6 ADD MSTORE PUSH1 0x40 DUP5 ADD MSTORE PUSH1 0x24 CALLDATALOAD PUSH1 0x60 DUP5 ADD MSTORE PUSH1 0x80 DUP4 ADD MSTORE PUSH1 0xA0 DUP3 ADD MSTORE LOG1 PUSH1 0x1 DUP2 SSTORE DUP1 RETURN JUMPDEST PUSH1 0x40 MLOAD PUSH4 0x70A08231 PUSH1 0xE0 SHL DUP2 MSTORE ADDRESS PUSH1 0x4 DUP3 ADD MSTORE PUSH32 0x0 PUSH1 0x1 PUSH1 0x1 PUSH1 0xA0 SHL SUB AND PUSH1 0x20 DUP3 PUSH1 0x24 DUP2 DUP5 GAS STATICCALL SWAP2 DUP3 ISZERO PUSH2 0x600 JUMPI DUP6 SWAP3 PUSH2 0x5A1 JUMPI JUMPDEST POP SWAP3 DUP2 PUSH32 0xC4CC84355EF3F7327B5AA6C366CAFE189C44E1A7807CE501F6F3A503A66717E8 SWAP5 PUSH1 0xC0 SWAP5 SWAP4 PUSH2 0x565 JUMPI JUMPDEST POP POP PUSH5 0x100000000 PUSH5 0xFF00000000 NOT PUSH1 0x11 SLOAD AND OR PUSH1 0x11 SSTORE SWAP3 POP SWAP1 POP PUSH2 0x458 JUMP JUMPDEST DUP2 PUSH2 0x593 PUSH32 0xDDAB54067AAC83090451464D8672D15B704D96DBEE6FF6A39BB4119FAEDE5D37 SWAP4 PUSH1 0x20 SWAP4 PUSH2 0x2BC6 JUMP JUMPDEST PUSH1 0x40 MLOAD SWAP1 DUP2 MSTORE LOG1 CODESIZE DUP1 PUSH2 0x545 JUMP JUMPDEST SWAP3 SWAP2 POP SWAP3 PUSH1 0x20 DUP4 RETURNDATASIZE PUSH1 0x20 GT PUSH2 0x5F8 JUMPI JUMPDEST DUP2 PUSH2 0x5BE PUSH1 0x20 SWAP4 DUP4 PUSH2 0x291B JUMP JUMPDEST DUP2 ADD SUB SLT PUSH2 0x5F3 JUMPI SWAP2 MLOAD SWAP2 SWAP3 SWAP1 SWAP2 SWAP1 PUSH32 0xC4CC84355EF3F7327B5AA6C366CAFE189C44E1A7807CE501F6F3A503A66717E8 PUSH2 0x517 JUMP JUMPDEST PUSH1 0x0 DUP1 REVERT JUMPDEST RETURNDATASIZE SWAP2 POP PUSH2 0x5B1 JUMP JUMPDEST PUSH1 0x40 MLOAD RETURNDATASIZE DUP8 DUP3 RETURNDATACOPY RETURNDATASIZE SWAP1 REVERT JUMPDEST PUSH1 0xFF DUP2 PUSH1 0x8 SHR AND ISZERO DUP1 PUSH2 0x75A JUMPI JUMPDEST PUSH2 0x748 JUMPI PUSH32 0x0 ISZERO ISZERO DUP1 PUSH2 0x73D JUMPI JUMPDEST DUP1 PUSH2 0x72F JUMPI JUMPDEST PUSH2 0x71D JUMPI PUSH1 0xFF DUP5 SWAP2 PUSH1 0x10 SHR AND DUP1 PUSH2 0x710 JUMPI JUMPDEST PUSH2 0x6F6 JUMPI JUMPDEST PUSH2 0x66F SWAP1 PUSH1 0xE SLOAD PUSH2 0x28C8 JUMP JUMPDEST DUP1 PUSH2 0x68F JUMPI JUMPDEST POP PUSH4 0x1000000 PUSH4 0xFF000000 NOT PUSH1 0x11 SLOAD AND OR PUSH1 0x11 SSTORE CODESIZE PUSH2 0x448 JUMP JUMPDEST DUP1 SELFBALANCE LT PUSH2 0x6E4 JUMPI DUP4 DUP1 DUP1 DUP1 SWAP4 PUSH32 0x0 GAS CALL PUSH2 0x6C6 PUSH2 0x2B86 JUMP JUMPDEST POP ISZERO PUSH2 0x6D2 JUMPI CODESIZE PUSH2 0x675 JUMP JUMPDEST PUSH1 0x40 MLOAD PUSH4 0x3D2CEC6F PUSH1 0xE2 SHL DUP2 MSTORE PUSH1 0x4 SWAP1 REVERT JUMPDEST PUSH1 0x40 MLOAD PUSH4 0x9C883545 PUSH1 0xE0 SHL DUP2 MSTORE PUSH1 0x4 SWAP1 REVERT JUMPDEST POP PUSH2 0x66F PUSH2 0x709 PUSH1 0xD SLOAD PUSH1 0x13 SLOAD SWAP1 PUSH2 0x2B79 JUMP JUMPDEST SWAP1 POP PUSH2 0x663 JUMP JUMPDEST POP PUSH1 0xD SLOAD PUSH1 0x13 SLOAD LT PUSH2 0x65E JUMP JUMPDEST PUSH1 0x40 MLOAD PUSH4 0x5961CB63 PUSH1 0xE1 SHL DUP2 MSTORE PUSH1 0x4 SWAP1 REVERT JUMPDEST POP PUSH1 0xFF DUP2 PUSH1 0x10 SHR AND ISZERO PUSH2 0x64C JUMP JUMPDEST POP PUSH1 0xD SLOAD ISZERO ISZERO PUSH2 0x646 JUMP JUMPDEST PUSH1 0x40 MLOAD PUSH4 0x2C17C9C7 PUSH1 0xE2 SHL DUP2 MSTORE PUSH1 0x4 SWAP1 REVERT JUMPDEST POP PUSH1 0xB SLOAD ISZERO ISZERO PUSH2 0x619 JUMP JUMPDEST PUSH1 0x8 SHR PUSH1 0xFF AND ISZERO DUP1 PUSH2 0xC4F JUMPI JUMPDEST PUSH2 0x748 JUMPI SELFBALANCE PUSH1 0xD SLOAD GT PUSH2 0x6E4 JUMPI PUSH32 0x0 PUSH2 0x7D6 PUSH1 0x64 CALLDATALOAD DUP3 PUSH32 0x0 PUSH1 0x1 PUSH1 0x1 PUSH1 0xA0 SHL SUB AND PUSH2 0x2C49 JUMP JUMPDEST PUSH1 0xD SLOAD PUSH2 0x12C TIMESTAMP ADD DUP1 TIMESTAMP GT PUSH2 0xC3B JUMPI PUSH1 0x60 DUP7 SWAP2 PUSH1 0xC4 PUSH1 0x40 MLOAD DUP1 SWAP7 DUP2 SWAP4 PUSH4 0xF305D719 PUSH1 0xE0 SHL DUP4 MSTORE PUSH1 0x1 DUP1 PUSH1 0xA0 SHL SUB PUSH32 0x0 AND PUSH1 0x4 DUP5 ADD MSTORE PUSH1 0x64 CALLDATALOAD PUSH1 0x24 DUP5 ADD MSTORE PUSH1 0x84 CALLDATALOAD PUSH1 0x44 DUP5 ADD MSTORE PUSH1 0xA4 CALLDATALOAD PUSH1 0x64 DUP5 ADD MSTORE ADDRESS PUSH1 0x84 DUP5 ADD MSTORE PUSH1 0xA4 DUP4 ADD MSTORE PUSH1 0x1 DUP1 PUSH1 0xA0 SHL SUB AND SWAP6 DUP7 GAS CALL SWAP2 DUP3 ISZERO PUSH2 0xC2E JUMPI DUP2 SWAP4 DUP3 SWAP1 DUP4 SWAP5 PUSH2 0xBE6 JUMPI JUMPDEST POP PUSH1 0x40 MLOAD PUSH4 0x15AB88C9 PUSH1 0xE3 SHL DUP2 MSTORE SWAP2 PUSH1 0x20 DUP4 PUSH1 0x4 DUP2 DUP5 GAS STATICCALL SWAP1 DUP2 ISZERO PUSH2 0xBB9 JUMPI PUSH1 0x4 SWAP4 DUP6 SWAP3 PUSH2 0xBC4 JUMPI JUMPDEST POP PUSH1 0x20 SWAP1 PUSH1 0x40 MLOAD SWAP5 DUP6 DUP1 SWAP3 PUSH4 0xC45A0155 PUSH1 0xE0 SHL DUP3 MSTORE GAS STATICCALL SWAP3 DUP4 ISZERO PUSH2 0xBB9 JUMPI DUP5 SWAP4 PUSH2 0xB97 JUMPI JUMPDEST POP PUSH1 0x40 MLOAD PUSH4 0xE6A43905 PUSH1 0xE0 SHL DUP2 MSTORE PUSH1 0x1 PUSH1 0x1 PUSH1 0xA0 SHL SUB PUSH32 0x0 DUP2 AND PUSH1 0x4 DUP4 ADD MSTORE SWAP2 DUP3 AND PUSH1 0x24 DUP3 ADD MSTORE SWAP3 PUSH1 0x20 SWAP2 DUP5 SWAP2 PUSH1 0x44 SWAP2 DUP4 SWAP2 AND GAS STATICCALL SWAP2 DUP3 ISZERO PUSH2 0xB8C JUMPI DUP4 SWAP3 PUSH2 0xB5B JUMPI JUMPDEST POP PUSH1 0x20 PUSH32 0x0 PUSH2 0x953 DUP7 DUP3 PUSH1 0x1 PUSH1 0x1 PUSH1 0xA0 SHL SUB DUP8 AND PUSH2 0x2C49 JUMP JUMPDEST PUSH1 0x84 PUSH2 0x97F PUSH32 0x0 TIMESTAMP PUSH2 0x28C8 JUMP JUMPDEST PUSH1 0x40 MLOAD PUSH4 0xAA393F3 PUSH1 0xE0 SHL DUP2 MSTORE PUSH1 0x1 PUSH1 0x1 PUSH1 0xA0 SHL SUB DUP8 DUP2 AND PUSH1 0x4 DUP4 ADD MSTORE PUSH1 0x24 DUP3 ADD DUP11 SWAP1 MSTORE PUSH1 0x44 DUP3 ADD SWAP3 SWAP1 SWAP3 MSTORE PUSH32 0x0 DUP3 AND PUSH1 0x64 DUP3 ADD MSTORE SWAP7 DUP8 SWAP4 DUP5 SWAP3 AND GAS CALL SWAP3 DUP4 ISZERO PUSH2 0xB50 JUMPI DUP9 SWAP4 PUSH2 0xAFC JUMPI JUMPDEST POP PUSH1 0x12 DUP4 SWAP1 SSTORE PUSH1 0x13 DUP2 SWAP1 SSTORE PUSH1 0x11 DUP1 SLOAD PUSH3 0xFF0000 NOT AND PUSH3 0x10000 OR SWAP1 SSTORE PUSH1 0x40 DUP1 MLOAD DUP7 DUP2 MSTORE PUSH1 0x20 DUP2 ADD SWAP3 SWAP1 SWAP3 MSTORE DUP2 DUP2 ADD DUP6 SWAP1 MSTORE PUSH32 0xCE43C008407997433724B443ADD46562764945CEBEFA7FB64F11A3537DB3A15B SWAP3 SWAP1 SWAP2 PUSH1 0x1 PUSH1 0x1 PUSH1 0xA0 SHL SUB DUP3 AND SWAP1 PUSH32 0x64B83944E79C3CE8D4C297411DE637C3E102D064677AAC0C163976EBDCD6F50E SWAP1 PUSH1 0x60 SWAP1 LOG2 PUSH2 0xA99 PUSH32 0x0 TIMESTAMP PUSH2 0x28C8 JUMP JUMPDEST DUP3 MLOAD SWAP6 DUP7 MSTORE PUSH1 0x20 DUP7 ADD MSTORE PUSH1 0x1 PUSH1 0x1 PUSH1 0xA0 SHL SUB AND SWAP4 LOG3 DUP1 PUSH1 0x64 CALLDATALOAD GT ISZERO PUSH2 0x437 JUMPI PUSH2 0xAC7 PUSH2 0xAF6 SWAP2 PUSH1 0x64 CALLDATALOAD PUSH2 0x2B79 JUMP JUMPDEST PUSH32 0x0 PUSH1 0x1 PUSH1 0x1 PUSH1 0xA0 SHL SUB AND PUSH2 0x2BC6 JUMP JUMPDEST CODESIZE PUSH2 0x437 JUMP JUMPDEST SWAP1 SWAP3 POP PUSH1 0x20 DUP2 RETURNDATASIZE PUSH1 0x20 GT PUSH2 0xB48 JUMPI JUMPDEST DUP2 PUSH2 0xB18 PUSH1 0x20 SWAP4 DUP4 PUSH2 0x291B JUMP JUMPDEST DUP2 ADD SUB SLT PUSH2 0x5F3 JUMPI MLOAD SWAP2 PUSH32 0xCE43C008407997433724B443ADD46562764945CEBEFA7FB64F11A3537DB3A15B PUSH2 0x9E9 JUMP JUMPDEST RETURNDATASIZE SWAP2 POP PUSH2 0xB0B JUMP JUMPDEST PUSH1 0x40 MLOAD RETURNDATASIZE DUP11 DUP3 RETURNDATACOPY RETURNDATASIZE SWAP1 REVERT JUMPDEST PUSH2 0xB7E SWAP2 SWAP3 POP PUSH1 0x20 RETURNDATASIZE PUSH1 0x20 GT PUSH2 0xB85 JUMPI JUMPDEST PUSH2 0xB76 DUP2 DUP4 PUSH2 0x291B JUMP JUMPDEST DUP2 ADD SWAP1 PUSH2 0x2D64 JUMP JUMPDEST SWAP1 CODESIZE PUSH2 0x91B JUMP JUMPDEST POP RETURNDATASIZE PUSH2 0xB6C JUMP JUMPDEST PUSH1 0x40 MLOAD RETURNDATASIZE DUP6 DUP3 RETURNDATACOPY RETURNDATASIZE SWAP1 REVERT JUMPDEST PUSH1 0x20 SWAP2 SWAP4 POP PUSH2 0xBB2 SWAP1 DUP3 RETURNDATASIZE DUP5 GT PUSH2 0xB85 JUMPI PUSH2 0xB76 DUP2 DUP4 PUSH2 0x291B JUMP JUMPDEST SWAP3 SWAP1 PUSH2 0x8B9 JUMP JUMPDEST PUSH1 0x40 MLOAD RETURNDATASIZE DUP7 DUP3 RETURNDATACOPY RETURNDATASIZE SWAP1 REVERT JUMPDEST PUSH1 0x20 SWAP2 SWAP3 POP PUSH2 0xBDF SWAP1 DUP3 RETURNDATASIZE DUP5 GT PUSH2 0xB85 JUMPI PUSH2 0xB76 DUP2 DUP4 PUSH2 0x291B JUMP JUMPDEST SWAP2 SWAP1 PUSH2 0x894 JUMP JUMPDEST SWAP5 POP POP SWAP2 POP POP PUSH1 0x60 DUP3 RETURNDATASIZE DUP3 GT PUSH2 0xC26 JUMPI JUMPDEST DUP2 PUSH2 0xC04 PUSH1 0x60 SWAP4 DUP4 PUSH2 0x291B JUMP JUMPDEST DUP2 ADD SUB SLT PUSH2 0xC22 JUMPI DUP5 DUP3 MLOAD SWAP2 PUSH1 0x40 PUSH1 0x20 DUP6 ADD MLOAD SWAP5 ADD MLOAD SWAP3 SWAP4 CODESIZE PUSH2 0x86B JUMP JUMPDEST DUP5 DUP1 REVERT JUMPDEST RETURNDATASIZE SWAP2 POP PUSH2 0xBF7 JUMP JUMPDEST POP PUSH1 0x40 MLOAD SWAP1 RETURNDATASIZE SWAP1 DUP3 RETURNDATACOPY RETURNDATASIZE SWAP1 REVERT JUMPDEST PUSH4 0x4E487B71 PUSH1 0xE0 SHL DUP7 MSTORE PUSH1 0x11 PUSH1 0x4 MSTORE PUSH1 0x24 DUP7 REVERT JUMPDEST POP PUSH1 0xB SLOAD ISZERO ISZERO PUSH2 0x772 JUMP JUMPDEST POP PUSH1 0xD SLOAD ISZERO ISZERO PUSH2 0x432 JUMP JUMPDEST POP PUSH1 0x64 CALLDATALOAD ISZERO ISZERO PUSH2 0x42C JUMP JUMPDEST POP PUSH32 0x0 ISZERO ISZERO PUSH2 0x426 JUMP JUMPDEST PUSH1 0xB SLOAD DUP4 PUSH32 0x0 PUSH1 0x1 PUSH1 0x1 PUSH1 0xA0 SHL SUB AND DUP1 EXTCODESIZE ISZERO PUSH2 0xD30 JUMPI DUP2 SWAP1 PUSH1 0x4 PUSH1 0x40 MLOAD DUP1 SWAP6 DUP2 SWAP4 PUSH4 0x990087B7 PUSH1 0xE0 SHL DUP4 MSTORE GAS CALL SWAP2 DUP3 PUSH2 0xD18 JUMPI JUMPDEST POP POP PUSH2 0xD04 JUMPI PUSH1 0x40 MLOAD PUSH4 0x54CE3459 PUSH1 0xE0 SHL DUP2 MSTORE PUSH1 0x4 SWAP1 REVERT JUMPDEST PUSH2 0x100 PUSH2 0xFF00 NOT PUSH1 0x11 SLOAD AND OR PUSH1 0x11 SSTORE PUSH2 0x415 JUMP JUMPDEST PUSH2 0xD21 SWAP1 PUSH2 0x28EB JUMP JUMPDEST PUSH2 0xD2C JUMPI DUP4 CODESIZE PUSH2 0xCEC JUMP JUMPDEST DUP4 DUP1 REVERT JUMPDEST POP DUP1 REVERT JUMPDEST POP PUSH1 0xB SLOAD ISZERO ISZERO PUSH2 0x410 JUMP JUMPDEST SWAP1 POP PUSH2 0xD4D PUSH1 0x10 SLOAD DUP3 PUSH2 0x2B79 JUMP JUMPDEST SWAP1 PUSH2 0xD81 DUP3 PUSH32 0x0 PUSH1 0x1 PUSH1 0x1 PUSH1 0xA0 SHL SUB AND PUSH2 0x2BC6 JUMP JUMPDEST PUSH1 0x10 SSTORE PUSH32 0x3316CD92E8029A9D825199AD5D83F540869E52A9D77CF97560178A0B5EBAC6FB PUSH1 0x20 DUP3 PUSH1 0x40 MLOAD SWAP1 DUP2 MSTORE LOG1 CODESIZE PUSH2 0x3FF JUMP JUMPDEST POP DUP1 PUSH1 0x10 SLOAD LT PUSH2 0x3FA JUMP JUMPDEST PUSH2 0xDC9 SWAP1 PUSH2 0x28EB JUMP JUMPDEST PUSH2 0xDD4 JUMPI DUP3 CODESIZE PUSH2 0x3EC JUMP JUMPDEST DUP3 DUP1 REVERT JUMPDEST PUSH1 0x40 MLOAD RETURNDATASIZE DUP5 DUP3 RETURNDATACOPY RETURNDATASIZE SWAP1 REVERT JUMPDEST PUSH1 0x40 MLOAD PUSH4 0x9DD854D3 PUSH1 0xE0 SHL DUP2 MSTORE PUSH1 0x4 SWAP1 REVERT JUMPDEST SWAP4 POP PUSH2 0x3EF SWAP2 POP POP JUMP JUMPDEST SWAP1 POP PUSH1 0x20 DUP2 RETURNDATASIZE PUSH1 0x20 GT PUSH2 0xE2D JUMPI JUMPDEST DUP2 PUSH2 0xE1A PUSH1 0x20 SWAP4 DUP4 PUSH2 0x291B JUMP JUMPDEST DUP2 ADD SUB SLT PUSH2 0xE29 JUMPI MLOAD CODESIZE PUSH2 0x3A4 JUMP JUMPDEST DUP6 DUP1 REVERT JUMPDEST RETURNDATASIZE SWAP2 POP PUSH2 0xE0D JUMP JUMPDEST PUSH1 0x40 MLOAD RETURNDATASIZE DUP9 DUP3 RETURNDATACOPY RETURNDATASIZE SWAP1 REVERT JUMPDEST PUSH1 0x40 MLOAD PUSH4 0x70A08231 PUSH1 0xE0 SHL DUP2 MSTORE PUSH32 0x0 PUSH1 0x1 PUSH1 0x1 PUSH1 0xA0 SHL SUB DUP2 DUP2 AND PUSH1 0x4 DUP5 ADD MSTORE PUSH32 0x0 AND SWAP1 PUSH1 0x20 DUP4 PUSH1 0x24 DUP2 DUP6 GAS STATICCALL SWAP3 DUP4 ISZERO PUSH2 0xE35 JUMPI DUP7 SWAP4 PUSH2 0xEF6 JUMPI JUMPDEST POP PUSH1 0x24 CALLDATALOAD DUP1 DUP5 LT PUSH2 0xEDA JUMPI JUMPDEST POP POP POP POP PUSH1 0x1 PUSH1 0xFF NOT PUSH1 0x11 SLOAD AND OR PUSH1 0x11 SSTORE PUSH2 0x353 JUMP JUMPDEST PUSH2 0xEED SWAP4 PUSH2 0xEE7 SWAP2 PUSH2 0x2B79 JUMP JUMPDEST SWAP2 PUSH2 0x2C0D JUMP JUMPDEST CODESIZE DUP1 DUP1 DUP1 PUSH2 0xEC4 JUMP JUMPDEST SWAP1 SWAP3 POP PUSH1 0x20 DUP2 RETURNDATASIZE DUP3 GT PUSH2 0xF21 JUMPI JUMPDEST DUP2 PUSH2 0xF11 PUSH1 0x20 SWAP4 DUP4 PUSH2 0x291B JUMP JUMPDEST DUP2 ADD SUB SLT PUSH2 0x5F3 JUMPI MLOAD SWAP2 CODESIZE PUSH2 0xEB8 JUMP JUMPDEST RETURNDATASIZE SWAP2 POP PUSH2 0xF04 JUMP JUMPDEST PUSH2 0x2710 SWAP2 DUP3 PUSH2 0xF3A PUSH1 0x3 SLOAD DUP4 PUSH2 0x2B66 JUMP JUMPDEST DIV SWAP3 PUSH2 0xF46 DUP5 DUP4 PUSH2 0x2B79 JUMP JUMPDEST SWAP1 PUSH32 0x0 DUP1 ISZERO PUSH2 0x10DD JUMPI PUSH2 0xF78 SWAP1 DUP4 PUSH2 0x2B66 JUMP JUMPDEST DIV JUMPDEST PUSH2 0xF84 DUP2 DUP4 PUSH2 0x2B79 JUMP JUMPDEST SWAP2 PUSH1 0x40 MLOAD PUSH1 0xC0 DUP2 ADD DUP2 DUP2 LT PUSH8 0xFFFFFFFFFFFFFFFF DUP3 GT OR PUSH2 0x10C7 JUMPI PUSH1 0x1 SWAP2 PUSH1 0xA0 SWAP2 PUSH1 0x40 MSTORE DUP7 DUP2 MSTORE DUP9 PUSH1 0x20 DUP3 ADD MSTORE DUP4 PUSH1 0x40 DUP3 ADD MSTORE DUP5 PUSH1 0x60 DUP3 ADD MSTORE DUP6 PUSH1 0x80 DUP3 ADD MSTORE ADD MSTORE DUP4 PUSH1 0xA SSTORE DUP6 PUSH1 0xB SSTORE PUSH1 0xC SSTORE PUSH1 0xD SSTORE PUSH1 0xE SSTORE PUSH1 0x1 PUSH1 0xFF NOT DUP1 SWAP4 AND OR PUSH1 0xF SSTORE SELFBALANCE LT PUSH2 0x6E4 JUMPI PUSH1 0x40 MLOAD PUSH4 0x70A08231 PUSH1 0xE0 SHL DUP2 MSTORE ADDRESS PUSH1 0x4 DUP3 ADD MSTORE PUSH1 0x20 DUP2 PUSH1 0x24 DUP2 PUSH32 0x0 PUSH1 0x1 PUSH1 0x1 PUSH1 0xA0 SHL SUB AND GAS STATICCALL SWAP1 DUP2 ISZERO PUSH2 0xE35 JUMPI DUP7 SWAP2 PUSH2 0x1096 JUMPI JUMPDEST POP PUSH2 0x1053 DUP5 PUSH2 0x104E PUSH1 0x64 CALLDATALOAD PUSH1 0x24 CALLDATALOAD PUSH2 0x28C8 JUMP JUMPDEST PUSH2 0x28C8 JUMP JUMPDEST GT PUSH2 0x1084 JUMPI PUSH1 0x3 SWAP2 ISZERO PUSH2 0x1070 JUMPI JUMPDEST PUSH1 0x7 SLOAD AND OR PUSH1 0x7 SSTORE CODESIZE DUP1 PUSH2 0x345 JUMP JUMPDEST PUSH2 0x100 PUSH2 0xFF00 NOT PUSH1 0x11 SLOAD AND OR PUSH1 0x11 SSTORE PUSH2 0x1061 JUMP JUMPDEST PUSH1 0x40 MLOAD PUSH4 0x78A7AC67 PUSH1 0xE1 SHL DUP2 MSTORE PUSH1 0x4 SWAP1 REVERT JUMPDEST SWAP1 POP PUSH1 0x20 DUP2 RETURNDATASIZE DUP3 GT PUSH2 0x10BF JUMPI JUMPDEST DUP2 PUSH2 0x10B0 PUSH1 0x20 SWAP4 DUP4 PUSH2 0x291B JUMP JUMPDEST DUP2 ADD SUB SLT PUSH2 0x5F3 JUMPI MLOAD CODESIZE PUSH2 0x103B JUMP JUMPDEST RETURNDATASIZE SWAP2 POP PUSH2 0x10A3 JUMP JUMPDEST PUSH4 0x4E487B71 PUSH1 0xE0 SHL PUSH1 0x0 MSTORE PUSH1 0x41 PUSH1 0x4 MSTORE PUSH1 0x24 PUSH1 0x0 REVERT JUMPDEST POP POP DUP7 PUSH2 0xF7A JUMP JUMPDEST PUSH1 0x40 MLOAD PUSH4 0x46C21A55 PUSH1 0xE0 SHL DUP2 MSTORE PUSH1 0x4 SWAP1 REVERT JUMPDEST PUSH2 0x10FF PUSH2 0x2A2A JUMP JUMPDEST PUSH1 0xFF PUSH1 0x7 SLOAD AND PUSH1 0x7 DUP2 LT ISZERO PUSH2 0x113F JUMPI PUSH1 0x2 DUP2 EQ ISZERO SWAP1 DUP2 PUSH2 0x1133 JUMPI JUMPDEST POP ISZERO PUSH2 0x30E JUMPI JUMPDEST PUSH1 0x40 MLOAD PUSH4 0x7A92F19 PUSH1 0xE5 SHL DUP2 MSTORE PUSH1 0x4 SWAP1 REVERT JUMPDEST PUSH1 0x3 SWAP2 POP EQ ISZERO CODESIZE PUSH2 0x111A JUMP JUMPDEST PUSH4 0x4E487B71 PUSH1 0xE0 SHL DUP5 MSTORE PUSH1 0x21 PUSH1 0x4 MSTORE PUSH1 0x24 DUP5 REVERT JUMPDEST PUSH1 0x3 SWAP2 POP EQ ISZERO CODESIZE PUSH2 0x308 JUMP JUMPDEST PUSH1 0x40 MLOAD PUSH4 0x475A2535 PUSH1 0xE0 SHL DUP2 MSTORE PUSH1 0x4 SWAP1 REVERT JUMPDEST POP CALLVALUE PUSH2 0x29C JUMPI DUP1 PUSH1 0x3 NOT CALLDATASIZE ADD SLT PUSH2 0x29C JUMPI PUSH1 0x20 PUSH1 0x11 SLOAD PUSH1 0xFF PUSH1 0x40 MLOAD SWAP2 DUP4 SHR AND ISZERO ISZERO DUP2 MSTORE RETURN JUMPDEST POP CALLVALUE PUSH2 0x29C JUMPI DUP1 PUSH1 0x3 NOT CALLDATASIZE ADD SLT PUSH2 0x29C JUMPI PUSH1 0x20 PUSH1 0x40 MLOAD PUSH32 0x0 DUP2 MSTORE RETURN JUMPDEST POP CALLVALUE PUSH2 0x29C JUMPI PUSH1 0x40 CALLDATASIZE PUSH1 0x3 NOT ADD SLT PUSH2 0x29C JUMPI PUSH2 0x120F PUSH1 0x4 CALLDATALOAD PUSH2 0x11F1 PUSH2 0x271B JUMP JUMPDEST SWAP1 DUP1 DUP5 MSTORE PUSH1 0x2 PUSH1 0x20 MSTORE PUSH2 0x120A PUSH1 0x1 PUSH1 0x40 DUP7 KECCAK256 ADD SLOAD PUSH2 0x27AB JUMP JUMPDEST PUSH2 0x2851 JUMP JUMPDEST POP DUP1 RETURN JUMPDEST POP CALLVALUE PUSH2 0x29C JUMPI PUSH1 0x20 CALLDATASIZE PUSH1 0x3 NOT ADD SLT PUSH2 0x29C JUMPI PUSH1 0x40 SWAP1 PUSH1 0x1 PUSH1 0x1 PUSH1 0xA0 SHL SUB DUP1 PUSH2 0x1239 PUSH2 0x2705 JUMP JUMPDEST AND DUP3 MSTORE PUSH1 0x14 PUSH1 0x20 MSTORE DUP3 DUP1 DUP4 KECCAK256 SLOAD SWAP3 PUSH1 0x15 PUSH1 0x20 MSTORE KECCAK256 SLOAD AND DUP3 MLOAD SWAP2 DUP3 MSTORE PUSH1 0x20 DUP3 ADD MSTORE RETURN JUMPDEST POP CALLVALUE PUSH2 0x29C JUMPI DUP1 PUSH1 0x3 NOT CALLDATASIZE ADD SLT PUSH2 0x29C JUMPI PUSH1 0x20 PUSH1 0x13 SLOAD PUSH1 0x40 MLOAD SWAP1 DUP2 MSTORE RETURN JUMPDEST POP CALLVALUE PUSH2 0x29C JUMPI DUP1 PUSH1 0x3 NOT CALLDATASIZE ADD SLT PUSH2 0x29C JUMPI PUSH1 0x20 PUSH1 0x40 MLOAD PUSH32 0x0 DUP2 MSTORE RETURN JUMPDEST POP CALLVALUE PUSH2 0x29C JUMPI DUP1 PUSH1 0x3 NOT CALLDATASIZE ADD SLT PUSH2 0x29C JUMPI PUSH1 0x20 PUSH1 0x8 SLOAD PUSH1 0x40 MLOAD SWAP1 DUP2 MSTORE RETURN JUMPDEST POP CALLVALUE PUSH2 0x29C JUMPI DUP1 PUSH1 0x3 NOT CALLDATASIZE ADD SLT PUSH2 0x29C JUMPI PUSH2 0x12EB PUSH2 0x2A07 JUMP JUMPDEST PUSH1 0xFF PUSH1 0x7 SLOAD AND PUSH1 0x7 DUP2 LT ISZERO PUSH2 0x13FB JUMPI PUSH1 0x5 DUP2 EQ ISZERO SWAP1 DUP2 PUSH2 0x13EF JUMPI JUMPDEST POP PUSH2 0x13DD JUMPI CALLER DUP2 MSTORE PUSH1 0x14 PUSH1 0x20 MSTORE PUSH1 0x40 DUP2 KECCAK256 SLOAD DUP1 ISZERO PUSH2 0x13CB JUMPI CALLER DUP3 MSTORE PUSH1 0x14 PUSH1 0x20 MSTORE PUSH1 0x40 DUP3 KECCAK256 DUP3 SWAP1 SSTORE PUSH32 0x0 PUSH1 0x1 PUSH1 0x1 PUSH1 0xA0 SHL SUB AND DUP2 DUP2 PUSH2 0x13BB JUMPI DUP4 DUP1 DUP1 SWAP4 POP DUP1 SWAP3 CALLER GAS CALL PUSH2 0x136F PUSH2 0x2B86 JUMP JUMPDEST POP ISZERO PUSH2 0x13A9 JUMPI JUMPDEST PUSH1 0x40 MLOAD SWAP1 DUP2 MSTORE PUSH32 0xD7DEE2702D63AD89917B6A4DA9981C90C4D24F8C2BDFD64C604ECAE57D8D0651 PUSH1 0x20 CALLER SWAP3 LOG2 PUSH1 0x1 DUP2 SSTORE DUP1 RETURN JUMPDEST PUSH1 0x40 MLOAD PUSH4 0xB9DA5D2B PUSH1 0xE0 SHL DUP2 MSTORE PUSH1 0x4 SWAP1 REVERT JUMPDEST PUSH2 0x13C6 SWAP2 CALLER SWAP1 PUSH2 0x2C0D JUMP JUMPDEST PUSH2 0x1376 JUMP JUMPDEST PUSH1 0x40 MLOAD PUSH4 0x1971FBF3 PUSH1 0xE2 SHL DUP2 MSTORE PUSH1 0x4 SWAP1 REVERT JUMPDEST PUSH1 0x40 MLOAD PUSH4 0xB4D6981 PUSH1 0xE0 SHL DUP2 MSTORE PUSH1 0x4 SWAP1 REVERT JUMPDEST PUSH1 0x6 SWAP2 POP EQ ISZERO CODESIZE PUSH2 0x1306 JUMP JUMPDEST PUSH4 0x4E487B71 PUSH1 0xE0 SHL DUP3 MSTORE PUSH1 0x21 PUSH1 0x4 MSTORE PUSH1 0x24 DUP3 REVERT JUMPDEST POP CALLVALUE PUSH2 0x29C JUMPI PUSH2 0x141E CALLDATASIZE PUSH2 0x2698 JUMP JUMPDEST PUSH2 0x1426 PUSH2 0x2731 JUMP JUMPDEST PUSH2 0x142E PUSH2 0x2A2A JUMP JUMPDEST PUSH1 0x7 SLOAD SWAP2 PUSH1 0xFF DUP4 AND PUSH1 0x7 DUP2 LT ISZERO PUSH2 0x14B1 JUMPI PUSH1 0x2 SUB PUSH2 0x1121 JUMPI PUSH1 0x8 SLOAD PUSH32 0x0 GT ISZERO PUSH2 0x1121 JUMPI PUSH1 0x5 PUSH32 0x5B55ECCEA968A9BF1DF9A6702E20475AC67BB0D7F402F51701EEF38E619368FE SWAP4 PUSH1 0xFF NOT AND OR PUSH1 0x7 SSTORE PUSH2 0x14AB PUSH1 0x40 MLOAD SWAP3 DUP4 SWAP3 DUP4 PUSH2 0x2D3C JUMP JUMPDEST SUB SWAP1 LOG1 DUP1 RETURN JUMPDEST PUSH4 0x4E487B71 PUSH1 0xE0 SHL DUP6 MSTORE PUSH1 0x21 PUSH1 0x4 MSTORE PUSH1 0x24 DUP6 REVERT JUMPDEST POP CALLVALUE PUSH2 0x29C JUMPI DUP1 PUSH1 0x3 NOT CALLDATASIZE ADD SLT PUSH2 0x29C JUMPI PUSH2 0x14DE PUSH2 0x2731 JUMP JUMPDEST PUSH2 0x14E6 PUSH2 0x2A07 JUMP JUMPDEST PUSH1 0xFF PUSH1 0x7 SLOAD AND PUSH1 0x7 DUP2 LT ISZERO PUSH2 0x13FB JUMPI PUSH1 0x4 SUB PUSH2 0x1121 JUMPI PUSH1 0x40 MLOAD PUSH4 0x70A08231 PUSH1 0xE0 SHL DUP2 MSTORE ADDRESS PUSH1 0x4 DUP3 ADD MSTORE PUSH32 0x0 PUSH1 0x1 PUSH1 0x1 PUSH1 0xA0 SHL SUB AND PUSH1 0x20 DUP3 PUSH1 0x24 DUP2 DUP5 GAS STATICCALL SWAP2 DUP3 ISZERO PUSH2 0xB8C JUMPI DUP4 SWAP3 PUSH2 0x159E JUMPI JUMPDEST POP DUP2 PUSH2 0x155F JUMPI JUMPDEST DUP3 PUSH1 0x1 DUP2 SSTORE DUP1 RETURN JUMPDEST PUSH32 0xB3C71476DFD272EB50CC448234B60EE937AB332F54E7EAAB71159CA6EB677440 PUSH1 0x20 DUP4 PUSH2 0x1590 PUSH2 0xDEAD SWAP6 DUP6 PUSH2 0x2BC6 JUMP JUMPDEST PUSH1 0x40 MLOAD SWAP1 DUP2 MSTORE LOG3 CODESIZE DUP1 PUSH2 0x1557 JUMP JUMPDEST SWAP1 SWAP2 POP PUSH1 0x20 DUP2 RETURNDATASIZE DUP3 GT PUSH2 0x15C9 JUMPI JUMPDEST DUP2 PUSH2 0x15B9 PUSH1 0x20 SWAP4 DUP4 PUSH2 0x291B JUMP JUMPDEST DUP2 ADD SUB SLT PUSH2 0x5F3 JUMPI MLOAD SWAP1 CODESIZE PUSH2 0x1550 JUMP JUMPDEST RETURNDATASIZE SWAP2 POP PUSH2 0x15AC JUMP JUMPDEST POP CALLVALUE PUSH2 0x29C JUMPI DUP1 PUSH1 0x3 NOT CALLDATASIZE ADD SLT PUSH2 0x29C JUMPI PUSH1 0x20 PUSH1 0xFF PUSH1 0x11 SLOAD PUSH1 0x8 SHR AND PUSH1 0x40 MLOAD SWAP1 ISZERO ISZERO DUP2 MSTORE RETURN JUMPDEST POP CALLVALUE PUSH2 0x29C JUMPI DUP1 PUSH1 0x3 NOT CALLDATASIZE ADD SLT PUSH2 0x29C JUMPI PUSH1 0x20 PUSH1 0x40 MLOAD PUSH32 0x0 DUP2 MSTORE RETURN JUMPDEST POP CALLVALUE PUSH2 0x29C JUMPI PUSH1 0x80 CALLDATASIZE PUSH1 0x3 NOT ADD SLT PUSH2 0x29C JUMPI PUSH2 0x164C PUSH2 0x2731 JUMP JUMPDEST PUSH1 0xFF PUSH1 0x7 SLOAD AND PUSH1 0x7 DUP2 LT ISZERO PUSH2 0x13FB JUMPI PUSH2 0x1714 JUMPI PUSH1 0x8 SLOAD PUSH2 0x1714 JUMPI PUSH32 0x0 TIMESTAMP LT ISZERO PUSH2 0x1714 JUMPI PUSH1 0x44 CALLDATALOAD PUSH1 0x24 CALLDATALOAD PUSH1 0x4 CALLDATALOAD PUSH2 0x16A1 DUP4 DUP4 PUSH2 0x28C8 JUMP JUMPDEST PUSH2 0x16AE PUSH1 0x64 CALLDATALOAD DUP1 SWAP3 PUSH2 0x28C8 JUMP JUMPDEST DUP3 SUB PUSH2 0x1702 JUMPI PUSH32 0xAD166D8BE1925EE44C5A77600B8A5F7E58CBE711C0DBD99624014A81B8350BA SWAP4 PUSH1 0x80 SWAP4 DUP4 PUSH1 0x3 SSTORE DUP1 PUSH1 0x4 SSTORE DUP2 PUSH1 0x5 SSTORE DUP3 PUSH1 0x6 SSTORE PUSH1 0x40 MLOAD SWAP4 DUP5 MSTORE PUSH1 0x20 DUP5 ADD MSTORE PUSH1 0x40 DUP4 ADD MSTORE PUSH1 0x60 DUP3 ADD MSTORE LOG1 DUP1 RETURN JUMPDEST PUSH1 0x40 MLOAD PUSH4 0x2B00A33D PUSH1 0xE1 SHL DUP2 MSTORE PUSH1 0x4 SWAP1 REVERT JUMPDEST PUSH1 0x40 MLOAD PUSH3 0xB5D7E1 PUSH1 0xE8 SHL DUP2 MSTORE PUSH1 0x4 SWAP1 REVERT JUMPDEST POP CALLVALUE PUSH2 0x29C JUMPI DUP1 PUSH1 0x3 NOT CALLDATASIZE ADD SLT PUSH2 0x29C JUMPI PUSH1 0x20 PUSH1 0xFF PUSH1 0x11 SLOAD AND PUSH1 0x40 MLOAD SWAP1 ISZERO ISZERO DUP2 MSTORE RETURN JUMPDEST POP CALLVALUE PUSH2 0x29C JUMPI DUP1 PUSH1 0x3 NOT CALLDATASIZE ADD SLT PUSH2 0x29C JUMPI PUSH1 0xC0 PUSH1 0xA SLOAD PUSH1 0xB SLOAD PUSH1 0xC SLOAD PUSH1 0xD SLOAD PUSH1 0xE SLOAD SWAP2 PUSH1 0xFF PUSH1 0xF SLOAD AND SWAP4 PUSH1 0x40 MLOAD SWAP6 DUP7 MSTORE PUSH1 0x20 DUP7 ADD MSTORE PUSH1 0x40 DUP6 ADD MSTORE PUSH1 0x60 DUP5 ADD MSTORE PUSH1 0x80 DUP4 ADD MSTORE ISZERO ISZERO PUSH1 0xA0 DUP3 ADD MSTORE RETURN JUMPDEST POP CALLVALUE PUSH2 0x29C JUMPI DUP1 PUSH1 0x3 NOT CALLDATASIZE ADD SLT PUSH2 0x29C JUMPI PUSH1 0x40 MLOAD PUSH32 0x0 PUSH1 0x1 PUSH1 0x1 PUSH1 0xA0 SHL SUB AND DUP2 MSTORE PUSH1 0x20 SWAP1 RETURN JUMPDEST POP CALLVALUE PUSH2 0x29C JUMPI DUP1 PUSH1 0x3 NOT CALLDATASIZE ADD SLT PUSH2 0x29C JUMPI PUSH1 0x40 MLOAD PUSH32 0x0 PUSH1 0x1 PUSH1 0x1 PUSH1 0xA0 SHL SUB AND DUP2 MSTORE PUSH1 0x20 SWAP1 RETURN JUMPDEST POP CALLVALUE PUSH2 0x29C JUMPI DUP1 PUSH1 0x3 NOT CALLDATASIZE ADD SLT PUSH2 0x29C JUMPI PUSH1 0x20 PUSH1 0x9 SLOAD PUSH1 0x40 MLOAD SWAP1 DUP2 MSTORE RETURN JUMPDEST POP CALLVALUE PUSH2 0x29C JUMPI DUP1 PUSH1 0x3 NOT CALLDATASIZE ADD SLT PUSH2 0x29C JUMPI PUSH1 0x20 SWAP1 PUSH1 0x40 MLOAD SWAP1 DUP2 MSTORE RETURN JUMPDEST POP CALLVALUE PUSH2 0x29C JUMPI DUP1 PUSH1 0x3 NOT CALLDATASIZE ADD SLT PUSH2 0x29C JUMPI PUSH1 0x20 PUSH1 0xFF PUSH1 0x11 SLOAD PUSH1 0x18 SHR AND PUSH1 0x40 MLOAD SWAP1 ISZERO ISZERO DUP2 MSTORE RETURN JUMPDEST POP CALLVALUE PUSH2 0x29C JUMPI PUSH1 0x40 CALLDATASIZE PUSH1 0x3 NOT ADD SLT PUSH2 0x29C JUMPI PUSH1 0x40 PUSH2 0x189B PUSH2 0x271B JUMP JUMPDEST SWAP2 PUSH1 0x4 CALLDATALOAD DUP2 MSTORE PUSH1 0x2 PUSH1 0x20 MSTORE KECCAK256 SWAP1 PUSH1 0x1 DUP1 PUSH1 0xA0 SHL SUB AND PUSH1 0x0 MSTORE PUSH1 0x20 MSTORE PUSH1 0x20 PUSH1 0xFF PUSH1 0x40 PUSH1 0x0 KECCAK256 SLOAD AND PUSH1 0x40 MLOAD SWAP1 ISZERO ISZERO DUP2 MSTORE RETURN JUMPDEST POP CALLVALUE PUSH2 0x29C JUMPI DUP1 PUSH1 0x3 NOT CALLDATASIZE ADD SLT PUSH2 0x29C JUMPI PUSH1 0x20 PUSH1 0x40 MLOAD PUSH32 0x0 DUP2 MSTORE RETURN JUMPDEST POP CALLVALUE PUSH2 0x29C JUMPI DUP1 PUSH1 0x3 NOT CALLDATASIZE ADD SLT PUSH2 0x29C JUMPI PUSH1 0x20 PUSH1 0x40 MLOAD PUSH32 0x0 DUP2 MSTORE RETURN JUMPDEST POP CALLVALUE PUSH2 0x29C JUMPI DUP1 PUSH1 0x3 NOT CALLDATASIZE ADD SLT PUSH2 0x29C JUMPI PUSH2 0x195A PUSH2 0x2731 JUMP JUMPDEST PUSH2 0x1962 PUSH2 0x29E9 JUMP JUMPDEST PUSH1 0x1 PUSH1 0xFF NOT DUP2 SLOAD AND OR PUSH1 0x1 SSTORE PUSH32 0x62E78CEA01BEE320CD4E420270B5EA74000D11B0C9F74754EBDBFC544B05A258 PUSH1 0x20 PUSH1 0x40 MLOAD CALLER DUP2 MSTORE LOG1 DUP1 RETURN JUMPDEST POP CALLVALUE PUSH2 0x29C JUMPI DUP1 PUSH1 0x3 NOT CALLDATASIZE ADD SLT PUSH2 0x29C JUMPI PUSH1 0x20 PUSH1 0x40 MLOAD PUSH32 0x0 DUP2 MSTORE RETURN JUMPDEST POP CALLVALUE PUSH2 0x29C JUMPI DUP1 PUSH1 0x3 NOT CALLDATASIZE ADD SLT PUSH2 0x29C JUMPI PUSH1 0xE0 PUSH1 0xFF PUSH1 0x7 SLOAD AND PUSH1 0x8 SLOAD PUSH1 0x9 SLOAD SWAP1 PUSH2 0x1A03 PUSH1 0x40 MLOAD DUP1 SWAP5 PUSH2 0x26E2 JUMP JUMPDEST PUSH1 0x20 DUP4 ADD MSTORE PUSH32 0x0 PUSH1 0x40 DUP4 ADD MSTORE PUSH32 0x0 PUSH1 0x60 DUP4 ADD MSTORE PUSH32 0x0 PUSH1 0x80 DUP4 ADD MSTORE PUSH32 0x0 PUSH1 0xA0 DUP4 ADD MSTORE PUSH1 0xC0 DUP3 ADD MSTORE RETURN JUMPDEST POP CALLVALUE PUSH2 0x29C JUMPI DUP1 PUSH1 0x3 NOT CALLDATASIZE ADD SLT PUSH2 0x29C JUMPI PUSH1 0x20 PUSH1 0x40 MLOAD PUSH32 0xA49807205CE4D355092EF5A8A18F56E8913CF4A201FBE287825B095693C21775 DUP2 MSTORE RETURN JUMPDEST POP PUSH1 0x40 CALLDATASIZE PUSH1 0x3 NOT ADD SLT PUSH2 0x29C JUMPI PUSH1 0x4 CALLDATALOAD PUSH2 0x1AFA PUSH2 0x271B JUMP JUMPDEST SWAP1 PUSH2 0x1B03 PUSH2 0x2A07 JUMP JUMPDEST PUSH2 0x1B0B PUSH2 0x29E9 JUMP JUMPDEST PUSH2 0x1B13 PUSH2 0x2A2A JUMP JUMPDEST PUSH1 0xFF PUSH1 0x7 SLOAD AND PUSH1 0x7 DUP2 LT ISZERO PUSH2 0x113F JUMPI PUSH1 0x1 SUB PUSH2 0x1121 JUMPI CALLER DUP4 MSTORE PUSH1 0x20 SWAP2 PUSH1 0x14 DUP4 MSTORE PUSH2 0x1B41 DUP3 PUSH1 0x40 DUP7 KECCAK256 SLOAD PUSH2 0x28C8 JUMP JUMPDEST PUSH32 0x0 DUP2 LT PUSH2 0x1D02 JUMPI PUSH32 0x0 LT PUSH2 0x1CF0 JUMPI PUSH2 0x1B9A DUP3 PUSH1 0x8 SLOAD PUSH2 0x28C8 JUMP JUMPDEST PUSH32 0x0 LT PUSH2 0x1CDE JUMPI PUSH1 0x1 PUSH1 0x1 PUSH1 0xA0 SHL SUB DUP3 PUSH32 0x0 DUP3 AND DUP1 PUSH2 0x1CA8 JUMPI POP CALLVALUE SUB PUSH2 0x1121 JUMPI DUP1 PUSH32 0xEC470969F3350CA5A15F0D85053F8763FFD0EE39C7B74FCDC5AF7862718E292A SWAP3 JUMPDEST CALLER DUP8 MSTORE PUSH1 0x14 DUP7 MSTORE PUSH1 0x40 DUP8 KECCAK256 PUSH2 0x1C32 DUP7 DUP3 SLOAD PUSH2 0x28C8 JUMP JUMPDEST SWAP1 SSTORE PUSH2 0x1C40 DUP6 PUSH1 0x8 SLOAD PUSH2 0x28C8 JUMP JUMPDEST PUSH1 0x8 SSTORE AND DUP1 ISZERO ISZERO DUP1 PUSH2 0x1C93 JUMPI JUMPDEST PUSH2 0x1C71 JUMPI JUMPDEST POP CALLER DUP6 MSTORE PUSH1 0x15 DUP5 MSTORE PUSH1 0x40 DUP6 KECCAK256 SLOAD AND SWAP3 PUSH1 0x40 MLOAD SWAP3 DUP4 MSTORE CALLER SWAP3 LOG3 PUSH1 0x1 DUP2 SSTORE DUP1 RETURN JUMPDEST CALLER DUP7 MSTORE PUSH1 0x15 DUP6 MSTORE PUSH1 0x40 DUP7 KECCAK256 DUP1 SLOAD PUSH1 0x1 PUSH1 0x1 PUSH1 0xA0 SHL SUB NOT AND SWAP1 SWAP2 OR SWAP1 SSTORE CODESIZE PUSH2 0x1C52 JUMP JUMPDEST POP CALLER DUP7 MSTORE PUSH1 0x15 DUP6 MSTORE DUP2 PUSH1 0x40 DUP8 KECCAK256 SLOAD AND ISZERO PUSH2 0x1C4D JUMP JUMPDEST SWAP3 PUSH2 0x1CD9 DUP4 SWAP3 PUSH32 0xEC470969F3350CA5A15F0D85053F8763FFD0EE39C7B74FCDC5AF7862718E292A SWAP6 ADDRESS SWAP1 CALLER SWAP1 PUSH2 0x293D JUMP JUMPDEST PUSH2 0x1C1C JUMP JUMPDEST PUSH1 0x40 MLOAD PUSH4 0x1C4AF3C9 PUSH1 0xE1 SHL DUP2 MSTORE PUSH1 0x4 SWAP1 REVERT JUMPDEST PUSH1 0x40 MLOAD PUSH4 0x74368FB9 PUSH1 0xE1 SHL DUP2 MSTORE PUSH1 0x4 SWAP1 REVERT JUMPDEST PUSH1 0x40 MLOAD PUSH4 0x860B82A9 PUSH1 0xE0 SHL DUP2 MSTORE PUSH1 0x4 SWAP1 REVERT JUMPDEST POP CALLVALUE PUSH2 0x29C JUMPI DUP1 PUSH1 0x3 NOT CALLDATASIZE ADD SLT PUSH2 0x29C JUMPI PUSH1 0x40 MLOAD PUSH32 0x0 PUSH1 0x1 PUSH1 0x1 PUSH1 0xA0 SHL SUB AND DUP2 MSTORE PUSH1 0x20 SWAP1 RETURN JUMPDEST POP CALLVALUE PUSH2 0x29C JUMPI DUP1 PUSH1 0x3 NOT CALLDATASIZE ADD SLT PUSH2 0x29C JUMPI PUSH1 0x20 PUSH1 0xFF PUSH1 0x1 SLOAD AND PUSH1 0x40 MLOAD SWAP1 ISZERO ISZERO DUP2 MSTORE RETURN JUMPDEST POP CALLVALUE PUSH2 0x29C JUMPI DUP1 PUSH1 0x3 NOT CALLDATASIZE ADD SLT PUSH2 0x29C JUMPI PUSH1 0x20 PUSH1 0x10 SLOAD PUSH1 0x40 MLOAD SWAP1 DUP2 MSTORE RETURN JUMPDEST POP CALLVALUE PUSH2 0x29C JUMPI DUP1 PUSH1 0x3 NOT CALLDATASIZE ADD SLT PUSH2 0x29C JUMPI PUSH1 0x40 MLOAD PUSH32 0x0 PUSH1 0x1 PUSH1 0x1 PUSH1 0xA0 SHL SUB AND DUP2 MSTORE PUSH1 0x20 SWAP1 RETURN JUMPDEST POP CALLVALUE PUSH2 0x29C JUMPI PUSH1 0x20 CALLDATASIZE PUSH1 0x3 NOT ADD SLT PUSH2 0x29C JUMPI PUSH1 0x20 SWAP1 PUSH1 0x1 PUSH1 0x1 PUSH1 0xA0 SHL SUB SWAP1 PUSH1 0x40 SWAP1 DUP3 PUSH2 0x1E09 PUSH2 0x2705 JUMP JUMPDEST AND DUP2 MSTORE PUSH1 0x15 DUP5 MSTORE KECCAK256 SLOAD AND PUSH1 0x40 MLOAD SWAP1 DUP2 MSTORE RETURN JUMPDEST POP CALLVALUE PUSH2 0x29C JUMPI PUSH1 0x20 CALLDATASIZE PUSH1 0x3 NOT ADD SLT PUSH2 0x29C JUMPI PUSH1 0x20 SWAP1 PUSH1 0x40 SWAP1 PUSH1 0x1 PUSH1 0x1 PUSH1 0xA0 SHL SUB PUSH2 0x1E43 PUSH2 0x2705 JUMP JUMPDEST AND DUP2 MSTORE PUSH1 0x14 DUP4 MSTORE KECCAK256 SLOAD PUSH1 0x40 MLOAD SWAP1 DUP2 MSTORE RETURN JUMPDEST POP CALLVALUE PUSH2 0x29C JUMPI DUP1 PUSH1 0x3 NOT CALLDATASIZE ADD SLT PUSH2 0x29C JUMPI PUSH2 0x1E6D PUSH2 0x2731 JUMP JUMPDEST PUSH1 0x1 SLOAD PUSH1 0xFF DUP2 AND ISZERO PUSH2 0x1EAD JUMPI PUSH1 0xFF NOT AND PUSH1 0x1 SSTORE PUSH32 0x5DB9EE0A495BF2E6FF9C91A7834C1BA4FDD244A5E8AA4E537BD38AEAE4B073AA PUSH1 0x20 PUSH1 0x40 MLOAD CALLER DUP2 MSTORE LOG1 DUP1 RETURN JUMPDEST PUSH1 0x40 MLOAD PUSH4 0x8DFC202B PUSH1 0xE0 SHL DUP2 MSTORE PUSH1 0x4 SWAP1 REVERT JUMPDEST POP CALLVALUE PUSH2 0x29C JUMPI PUSH1 0x60 CALLDATASIZE PUSH1 0x3 NOT ADD SLT PUSH2 0x29C JUMPI PUSH1 0x44 CALLDATALOAD PUSH1 0x24 CALLDATALOAD PUSH2 0x1EDF PUSH2 0x2731 JUMP JUMPDEST PUSH2 0x1EE7 PUSH2 0x2A07 JUMP JUMPDEST PUSH2 0x1EEF PUSH2 0x2A2A JUMP JUMPDEST PUSH1 0xFF PUSH1 0x7 SLOAD AND PUSH1 0x7 DUP2 LT ISZERO PUSH2 0x113F JUMPI PUSH1 0x2 SUB PUSH2 0x1121 JUMPI PUSH1 0x8 SLOAD SWAP1 PUSH32 0x0 DUP3 LT PUSH2 0x10E5 JUMPI PUSH2 0x1F4A PUSH2 0x2710 PUSH2 0x1F42 PUSH1 0x3 SLOAD DUP6 PUSH2 0x2B66 JUMP JUMPDEST DIV DUP1 SWAP4 PUSH2 0x2B79 JUMP JUMPDEST PUSH1 0x1 DUP1 PUSH1 0xA0 SHL SUB DUP1 PUSH32 0x0 AND SWAP2 DUP7 PUSH32 0x0 SWAP5 DUP4 PUSH32 0x0 PUSH2 0x1FC6 DUP4 DUP3 DUP11 DUP11 PUSH2 0x293D JUMP JUMPDEST AND DUP1 EXTCODESIZE ISZERO PUSH2 0xDD4 JUMPI PUSH1 0x44 DUP4 SWAP3 PUSH1 0x40 MLOAD SWAP5 DUP6 SWAP4 DUP5 SWAP3 PUSH4 0x7C382D0B PUSH1 0xE0 SHL DUP5 MSTORE PUSH1 0x4 CALLDATALOAD PUSH1 0x4 DUP6 ADD MSTORE PUSH1 0x24 DUP5 ADD MSTORE GAS CALL DUP1 ISZERO PUSH2 0xB50 JUMPI PUSH2 0x22C5 JUMPI JUMPDEST POP DUP7 SWAP1 PUSH32 0x0 DUP4 DUP2 AND DUP1 ISZERO SWAP2 DUP3 ISZERO PUSH2 0x222E JUMPI POP DUP5 PUSH32 0x0 AND SWAP2 DUP3 EXTCODESIZE ISZERO PUSH2 0xC22 JUMPI DUP5 DUP10 SWAP4 PUSH1 0x4 PUSH1 0x40 MLOAD DUP1 SWAP7 DUP2 SWAP4 PUSH4 0x990087B7 PUSH1 0xE0 SHL DUP4 MSTORE GAS CALL DUP1 ISZERO PUSH2 0x600 JUMPI DUP9 SWAP4 DUP7 SWAP2 PUSH2 0x2215 JUMPI JUMPDEST POP POP JUMPDEST ISZERO PUSH2 0x2206 JUMPI POP DUP3 DUP1 SWAP3 DUP2 SWAP3 GAS CALL PUSH2 0x2099 PUSH2 0x2B86 JUMP JUMPDEST POP ISZERO PUSH2 0x13A9 JUMPI JUMPDEST PUSH1 0x8 SLOAD SWAP5 PUSH32 0x0 SWAP6 DUP7 DUP2 LT DUP1 PUSH2 0x21FD JUMPI JUMPDEST PUSH2 0x212D JUMPI JUMPDEST TIMESTAMP PUSH1 0x9 DUP2 SWAP1 SSTORE PUSH1 0x7 DUP1 SLOAD PUSH1 0xFF NOT AND PUSH1 0x4 OR SWAP1 SSTORE PUSH1 0x8 SLOAD PUSH1 0x40 DUP1 MLOAD SWAP2 DUP3 MSTORE PUSH1 0x20 DUP3 ADD DUP10 SWAP1 MSTORE DUP2 ADD SWAP2 SWAP1 SWAP2 MSTORE DUP9 SWAP1 PUSH32 0xF3E2F1D90BD58F6807B6468783C27FDC68307B057882B3CA4EB0F3BB21167899 SWAP1 PUSH1 0x60 SWAP1 LOG1 PUSH1 0x1 DUP2 SSTORE DUP1 RETURN JUMPDEST SWAP1 PUSH2 0x213B PUSH2 0x2141 SWAP3 DUP9 PUSH2 0x2B79 JUMP JUMPDEST SWAP1 PUSH2 0x2B66 JUMP JUMPDEST SWAP5 DUP1 ISZERO PUSH2 0x21E7 JUMPI PUSH32 0xF3E2F1D90BD58F6807B6468783C27FDC68307B057882B3CA4EB0F3BB21167899 SWAP6 DIV SWAP1 DUP2 PUSH2 0x2178 JUMPI JUMPDEST DUP1 PUSH2 0x20D4 JUMP JUMPDEST PUSH32 0x3316CD92E8029A9D825199AD5D83F540869E52A9D77CF97560178A0B5EBAC6FB SWAP4 PUSH1 0x20 SWAP4 PUSH2 0x21D7 SWAP3 PUSH1 0x40 MLOAD SWAP3 PUSH4 0x23B872DD PUSH1 0xE0 SHL DUP8 DUP6 ADD MSTORE AND PUSH1 0x24 DUP4 ADD MSTORE PUSH2 0xDEAD PUSH1 0x44 DUP4 ADD MSTORE DUP4 PUSH1 0x64 DUP4 ADD MSTORE PUSH1 0x64 DUP3 MSTORE PUSH2 0x21D2 DUP3 PUSH2 0x28FF JUMP JUMPDEST PUSH2 0x2981 JUMP JUMPDEST PUSH1 0x40 MLOAD SWAP1 DUP2 MSTORE LOG1 CODESIZE DUP1 DUP1 DUP1 PUSH2 0x2172 JUMP JUMPDEST PUSH4 0x4E487B71 PUSH1 0xE0 SHL PUSH1 0x0 MSTORE PUSH1 0x12 PUSH1 0x4 MSTORE PUSH1 0x24 PUSH1 0x0 REVERT JUMPDEST POP DUP2 ISZERO ISZERO PUSH2 0x20CF JUMP JUMPDEST PUSH2 0x2210 SWAP4 POP PUSH2 0x2C0D JUMP JUMPDEST PUSH2 0x20A0 JUMP JUMPDEST PUSH2 0x2221 SWAP2 SWAP3 SWAP5 POP PUSH2 0x28EB JUMP JUMPDEST PUSH2 0xD2C JUMPI DUP7 SWAP2 DUP5 CODESIZE PUSH2 0x2081 JUMP JUMPDEST SWAP2 DUP6 PUSH32 0x0 PUSH2 0x225C DUP12 DUP3 DUP7 PUSH2 0x2C49 JUMP JUMPDEST AND DUP1 EXTCODESIZE ISZERO PUSH2 0xE29 JUMPI PUSH1 0x40 MLOAD PUSH4 0x398DA911 PUSH1 0xE0 SHL DUP2 MSTORE PUSH1 0x1 PUSH1 0x1 PUSH1 0xA0 SHL SUB SWAP5 SWAP1 SWAP5 AND PUSH1 0x4 DUP6 ADD MSTORE PUSH1 0x24 DUP5 ADD DUP11 SWAP1 MSTORE DUP6 SWAP1 DUP5 SWAP1 PUSH1 0x44 SWAP1 DUP3 SWAP1 DUP5 SWAP1 GAS CALL DUP1 ISZERO PUSH2 0x600 JUMPI DUP9 SWAP4 DUP7 SWAP2 PUSH2 0x22AC JUMPI JUMPDEST POP POP PUSH2 0x2084 JUMP JUMPDEST PUSH2 0x22B8 SWAP2 SWAP3 SWAP5 POP PUSH2 0x28EB JUMP JUMPDEST PUSH2 0xD2C JUMPI DUP7 SWAP2 DUP5 CODESIZE PUSH2 0x22A5 JUMP JUMPDEST PUSH2 0x22D1 SWAP1 SWAP8 SWAP2 SWAP8 PUSH2 0x28EB JUMP JUMPDEST SWAP6 CODESIZE PUSH2 0x1FFE JUMP JUMPDEST POP CALLVALUE PUSH2 0x29C JUMPI PUSH1 0x40 CALLDATASIZE PUSH1 0x3 NOT ADD SLT PUSH2 0x29C JUMPI PUSH2 0x22F2 PUSH2 0x271B JUMP JUMPDEST CALLER PUSH1 0x1 PUSH1 0x1 PUSH1 0xA0 SHL SUB DUP3 AND SUB PUSH2 0x230E JUMPI PUSH2 0x120F SWAP1 PUSH1 0x4 CALLDATALOAD PUSH2 0x2851 JUMP JUMPDEST PUSH1 0x40 MLOAD PUSH4 0x334BD919 PUSH1 0xE1 SHL DUP2 MSTORE PUSH1 0x4 SWAP1 REVERT JUMPDEST POP CALLVALUE PUSH2 0x29C JUMPI DUP1 PUSH1 0x3 NOT CALLDATASIZE ADD SLT PUSH2 0x29C JUMPI PUSH1 0x20 PUSH1 0x40 MLOAD PUSH32 0x0 DUP2 MSTORE RETURN JUMPDEST POP CALLVALUE PUSH2 0x29C JUMPI DUP1 PUSH1 0x3 NOT CALLDATASIZE ADD SLT PUSH2 0x29C JUMPI PUSH1 0x40 MLOAD PUSH32 0x0 PUSH1 0x1 PUSH1 0x1 PUSH1 0xA0 SHL SUB AND DUP2 MSTORE PUSH1 0x20 SWAP1 RETURN JUMPDEST POP CALLVALUE PUSH2 0x29C JUMPI PUSH1 0x40 CALLDATASIZE PUSH1 0x3 NOT ADD SLT PUSH2 0x29C JUMPI PUSH2 0x120F PUSH1 0x4 CALLDATALOAD PUSH2 0x23C0 PUSH2 0x271B JUMP JUMPDEST SWAP1 DUP1 DUP5 MSTORE PUSH1 0x2 PUSH1 0x20 MSTORE PUSH2 0x23D9 PUSH1 0x1 PUSH1 0x40 DUP7 KECCAK256 ADD SLOAD PUSH2 0x27AB JUMP JUMPDEST PUSH2 0x27D1 JUMP JUMPDEST POP CALLVALUE PUSH2 0x29C JUMPI PUSH1 0x20 CALLDATASIZE PUSH1 0x3 NOT ADD SLT PUSH2 0x29C JUMPI PUSH2 0x23F8 PUSH2 0x2705 JUMP JUMPDEST PUSH2 0x2400 PUSH2 0x2731 JUMP JUMPDEST PUSH2 0x2408 PUSH2 0x2A07 JUMP JUMPDEST PUSH1 0xFF PUSH1 0x7 SLOAD AND PUSH1 0x7 DUP2 LT ISZERO PUSH2 0x246D JUMPI PUSH1 0x4 SUB PUSH2 0x1121 JUMPI PUSH1 0x1 PUSH1 0x1 PUSH1 0xA0 SHL SUB DUP2 AND ISZERO PUSH2 0x245B JUMPI DUP2 SWAP1 SELFBALANCE DUP1 PUSH2 0x243D JUMPI DUP3 PUSH1 0x1 DUP2 SSTORE DUP1 RETURN JUMPDEST DUP3 DUP1 SWAP3 SWAP2 DUP2 SWAP3 GAS CALL PUSH2 0x244D PUSH2 0x2B86 JUMP JUMPDEST POP ISZERO PUSH2 0x6D2 JUMPI DUP1 CODESIZE DUP1 PUSH2 0x1557 JUMP JUMPDEST PUSH1 0x40 MLOAD PUSH4 0xE6C4247B PUSH1 0xE0 SHL DUP2 MSTORE PUSH1 0x4 SWAP1 REVERT JUMPDEST PUSH4 0x4E487B71 PUSH1 0xE0 SHL DUP4 MSTORE PUSH1 0x21 PUSH1 0x4 MSTORE PUSH1 0x24 DUP4 REVERT JUMPDEST POP CALLVALUE PUSH2 0x29C JUMPI DUP1 PUSH1 0x3 NOT CALLDATASIZE ADD SLT PUSH2 0x29C JUMPI PUSH1 0x20 PUSH1 0xFF PUSH1 0x11 SLOAD PUSH1 0x10 SHR AND PUSH1 0x40 MLOAD SWAP1 ISZERO ISZERO DUP2 MSTORE RETURN JUMPDEST POP CALLVALUE PUSH2 0x29C JUMPI PUSH1 0x20 CALLDATASIZE PUSH1 0x3 NOT ADD SLT PUSH2 0x29C JUMPI PUSH1 0x1 PUSH1 0x40 PUSH1 0x20 SWAP3 PUSH1 0x4 CALLDATALOAD DUP2 MSTORE PUSH1 0x2 DUP5 MSTORE KECCAK256 ADD SLOAD PUSH1 0x40 MLOAD SWAP1 DUP2 MSTORE RETURN JUMPDEST POP CALLVALUE PUSH2 0x29C JUMPI DUP1 PUSH1 0x3 NOT CALLDATASIZE ADD SLT PUSH2 0x29C JUMPI PUSH1 0x20 PUSH1 0xFF PUSH1 0x7 SLOAD AND PUSH2 0x24FA PUSH1 0x40 MLOAD DUP1 SWAP3 PUSH2 0x26E2 JUMP JUMPDEST RETURN JUMPDEST POP CALLVALUE PUSH2 0x29C JUMPI DUP1 PUSH1 0x3 NOT CALLDATASIZE ADD SLT PUSH2 0x29C JUMPI PUSH1 0x80 PUSH1 0x3 SLOAD PUSH1 0x4 SLOAD PUSH1 0x5 SLOAD PUSH1 0x6 SLOAD SWAP2 PUSH1 0x40 MLOAD SWAP4 DUP5 MSTORE PUSH1 0x20 DUP5 ADD MSTORE PUSH1 0x40 DUP4 ADD MSTORE PUSH1 0x60 DUP3 ADD MSTORE RETURN JUMPDEST POP CALLVALUE PUSH2 0x29C JUMPI PUSH2 0x2542 CALLDATASIZE PUSH2 0x2698 JUMP JUMPDEST PUSH2 0x254A PUSH2 0x2731 JUMP JUMPDEST PUSH2 0x2552 PUSH2 0x2A2A JUMP JUMPDEST PUSH1 0x7 SLOAD SWAP2 PUSH1 0xFF DUP4 AND PUSH1 0x7 DUP2 LT ISZERO PUSH2 0x14B1 JUMPI DUP1 ISZERO ISZERO SWAP1 DUP2 PUSH2 0x25AD JUMPI JUMPDEST POP PUSH2 0x1121 JUMPI PUSH1 0x6 PUSH32 0x2AC842F90DAB3279148F7E55AC91D911F75C1C300A202A5250E05400B15FA156 SWAP4 PUSH1 0xFF NOT AND OR PUSH1 0x7 SSTORE PUSH2 0x14AB PUSH1 0x40 MLOAD SWAP3 DUP4 SWAP3 DUP4 PUSH2 0x2D3C JUMP JUMPDEST PUSH1 0x1 SWAP2 POP EQ ISZERO CODESIZE PUSH2 0x256D JUMP JUMPDEST POP CALLVALUE PUSH2 0x29C JUMPI DUP1 PUSH1 0x3 NOT CALLDATASIZE ADD SLT PUSH2 0x29C JUMPI PUSH1 0x40 MLOAD PUSH32 0x0 PUSH1 0x1 PUSH1 0x1 PUSH1 0xA0 SHL SUB AND DUP2 MSTORE PUSH1 0x20 SWAP1 RETURN JUMPDEST POP CALLVALUE PUSH2 0x29C JUMPI DUP1 PUSH1 0x3 NOT CALLDATASIZE ADD SLT PUSH2 0x29C JUMPI PUSH1 0x40 MLOAD PUSH32 0x0 PUSH1 0x1 PUSH1 0x1 PUSH1 0xA0 SHL SUB AND DUP2 MSTORE PUSH1 0x20 SWAP1 RETURN JUMPDEST SWAP1 POP CALLVALUE PUSH2 0xD30 JUMPI PUSH1 0x20 CALLDATASIZE PUSH1 0x3 NOT ADD SLT PUSH2 0xD30 JUMPI PUSH1 0x4 CALLDATALOAD PUSH4 0xFFFFFFFF PUSH1 0xE0 SHL DUP2 AND DUP1 SWAP2 SUB PUSH2 0xDD4 JUMPI PUSH1 0x20 SWAP3 POP PUSH4 0x7965DB0B PUSH1 0xE0 SHL DUP2 EQ SWAP1 DUP2 ISZERO PUSH2 0x2687 JUMPI JUMPDEST POP ISZERO ISZERO DUP2 MSTORE RETURN JUMPDEST PUSH4 0x1FFC9A7 PUSH1 0xE0 SHL EQ SWAP1 POP CODESIZE PUSH2 0x2680 JUMP JUMPDEST SWAP1 PUSH1 0x20 PUSH1 0x3 NOT DUP4 ADD SLT PUSH2 0x5F3 JUMPI PUSH1 0x4 CALLDATALOAD PUSH8 0xFFFFFFFFFFFFFFFF SWAP3 DUP4 DUP3 GT PUSH2 0x5F3 JUMPI DUP1 PUSH1 0x23 DUP4 ADD SLT ISZERO PUSH2 0x5F3 JUMPI DUP2 PUSH1 0x4 ADD CALLDATALOAD SWAP4 DUP5 GT PUSH2 0x5F3 JUMPI PUSH1 0x24 DUP5 DUP4 ADD ADD GT PUSH2 0x5F3 JUMPI PUSH1 0x24 ADD SWAP2 SWAP1 JUMP JUMPDEST SWAP1 PUSH1 0x7 DUP3 LT ISZERO PUSH2 0x26EF JUMPI MSTORE JUMP JUMPDEST PUSH4 0x4E487B71 PUSH1 0xE0 SHL PUSH1 0x0 MSTORE PUSH1 0x21 PUSH1 0x4 MSTORE PUSH1 0x24 PUSH1 0x0 REVERT JUMPDEST PUSH1 0x4 CALLDATALOAD SWAP1 PUSH1 0x1 PUSH1 0x1 PUSH1 0xA0 SHL SUB DUP3 AND DUP3 SUB PUSH2 0x5F3 JUMPI JUMP JUMPDEST PUSH1 0x24 CALLDATALOAD SWAP1 PUSH1 0x1 PUSH1 0x1 PUSH1 0xA0 SHL SUB DUP3 AND DUP3 SUB PUSH2 0x5F3 JUMPI JUMP JUMPDEST CALLER PUSH1 0x0 SWAP1 DUP2 MSTORE PUSH32 0xE5EBFA64FCA8D502A8E50C1EDFFD2C31EF4DAD5B396E65D9F397FB028F74ABC5 PUSH1 0x20 MSTORE PUSH1 0x40 SWAP1 KECCAK256 SLOAD PUSH32 0xA49807205CE4D355092EF5A8A18F56E8913CF4A201FBE287825B095693C21775 SWAP1 PUSH1 0xFF AND ISZERO PUSH2 0x278D JUMPI POP JUMP JUMPDEST PUSH1 0x44 SWAP1 PUSH1 0x40 MLOAD SWAP1 PUSH4 0xE2517D3F PUSH1 0xE0 SHL DUP3 MSTORE CALLER PUSH1 0x4 DUP4 ADD MSTORE PUSH1 0x24 DUP3 ADD MSTORE REVERT JUMPDEST DUP1 PUSH1 0x0 MSTORE PUSH1 0x2 PUSH1 0x20 MSTORE PUSH1 0x40 PUSH1 0x0 KECCAK256 CALLER PUSH1 0x0 MSTORE PUSH1 0x20 MSTORE PUSH1 0xFF PUSH1 0x40 PUSH1 0x0 KECCAK256 SLOAD AND ISZERO PUSH2 0x278D JUMPI POP JUMP JUMPDEST SWAP1 PUSH1 0x0 SWAP2 DUP1 DUP4 MSTORE PUSH1 0x2 PUSH1 0x20 MSTORE PUSH1 0x40 DUP4 KECCAK256 SWAP2 PUSH1 0x1 DUP1 PUSH1 0xA0 SHL SUB AND SWAP2 DUP3 DUP5 MSTORE PUSH1 0x20 MSTORE PUSH1 0xFF PUSH1 0x40 DUP5 KECCAK256 SLOAD AND ISZERO PUSH1 0x0 EQ PUSH2 0x284C JUMPI DUP1 DUP4 MSTORE PUSH1 0x2 PUSH1 0x20 MSTORE PUSH1 0x40 DUP4 KECCAK256 DUP3 DUP5 MSTORE PUSH1 0x20 MSTORE PUSH1 0x40 DUP4 KECCAK256 PUSH1 0x1 PUSH1 0xFF NOT DUP3 SLOAD AND OR SWAP1 SSTORE PUSH32 0x2F8788117E7EFF1D82E926EC794901D17C78024A50270940304540A733656F0D CALLER SWAP4 DUP1 LOG4 PUSH1 0x1 SWAP1 JUMP JUMPDEST POP POP SWAP1 JUMP JUMPDEST SWAP1 PUSH1 0x0 SWAP2 DUP1 DUP4 MSTORE PUSH1 0x2 PUSH1 0x20 MSTORE PUSH1 0x40 DUP4 KECCAK256 SWAP2 PUSH1 0x1 DUP1 PUSH1 0xA0 SHL SUB AND SWAP2 DUP3 DUP5 MSTORE PUSH1 0x20 MSTORE PUSH1 0xFF PUSH1 0x40 DUP5 KECCAK256 SLOAD AND PUSH1 0x0 EQ PUSH2 0x284C JUMPI DUP1 DUP4 MSTORE PUSH1 0x2 PUSH1 0x20 MSTORE PUSH1 0x40 DUP4 KECCAK256 DUP3 DUP5 MSTORE PUSH1 0x20 MSTORE PUSH1 0x40 DUP4 KECCAK256 PUSH1 0xFF NOT DUP2 SLOAD AND SWAP1 SSTORE PUSH32 0xF6391F5C32D9C69D2A47EA670B442974B53935D1EDC7FD64EB21E047A839171B CALLER SWAP4 DUP1 LOG4 PUSH1 0x1 SWAP1 JUMP JUMPDEST SWAP2 SWAP1 DUP3 ADD DUP1 SWAP3 GT PUSH2 0x28D5 JUMPI JUMP JUMPDEST PUSH4 0x4E487B71 PUSH1 0xE0 SHL PUSH1 0x0 MSTORE PUSH1 0x11 PUSH1 0x4 MSTORE PUSH1 0x24 PUSH1 0x0 REVERT JUMPDEST PUSH8 0xFFFFFFFFFFFFFFFF DUP2 GT PUSH2 0x10C7 JUMPI PUSH1 0x40 MSTORE JUMP JUMPDEST PUSH1 0xA0 DUP2 ADD SWAP1 DUP2 LT PUSH8 0xFFFFFFFFFFFFFFFF DUP3 GT OR PUSH2 0x10C7 JUMPI PUSH1 0x40 MSTORE JUMP JUMPDEST SWAP1 PUSH1 0x1F DUP1 NOT SWAP2 ADD AND DUP2 ADD SWAP1 DUP2 LT PUSH8 0xFFFFFFFFFFFFFFFF DUP3 GT OR PUSH2 0x10C7 JUMPI PUSH1 0x40 MSTORE JUMP JUMPDEST PUSH1 0x40 MLOAD PUSH4 0x23B872DD PUSH1 0xE0 SHL PUSH1 0x20 DUP3 ADD MSTORE PUSH1 0x1 PUSH1 0x1 PUSH1 0xA0 SHL SUB SWAP3 DUP4 AND PUSH1 0x24 DUP3 ADD MSTORE SWAP3 SWAP1 SWAP2 AND PUSH1 0x44 DUP4 ADD MSTORE PUSH1 0x64 DUP1 DUP4 ADD SWAP4 SWAP1 SWAP4 MSTORE SWAP2 DUP2 MSTORE PUSH2 0x297F SWAP2 PUSH2 0x21D2 DUP3 PUSH2 0x28FF JUMP JUMPDEST JUMP JUMPDEST SWAP1 PUSH1 0x0 PUSH1 0x20 SWAP2 DUP3 DUP2 MLOAD SWAP2 ADD DUP3 DUP6 GAS CALL ISZERO PUSH2 0x29DD JUMPI PUSH1 0x0 MLOAD RETURNDATASIZE PUSH2 0x29D4 JUMPI POP PUSH1 0x1 PUSH1 0x1 PUSH1 0xA0 SHL SUB DUP2 AND EXTCODESIZE ISZERO JUMPDEST PUSH2 0x29B2 JUMPI POP JUMP JUMPDEST PUSH1 0x40 MLOAD PUSH4 0x5274AFE7 PUSH1 0xE0 SHL DUP2 MSTORE PUSH1 0x1 PUSH1 0x1 PUSH1 0xA0 SHL SUB SWAP1 SWAP2 AND PUSH1 0x4 DUP3 ADD MSTORE PUSH1 0x24 SWAP1 REVERT JUMPDEST PUSH1 0x1 EQ ISZERO PUSH2 0x29AB JUMP JUMPDEST PUSH1 0x40 MLOAD RETURNDATASIZE PUSH1 0x0 DUP3 RETURNDATACOPY RETURNDATASIZE SWAP1 REVERT JUMPDEST PUSH1 0xFF PUSH1 0x1 SLOAD AND PUSH2 0x29F5 JUMPI JUMP JUMPDEST PUSH1 0x40 MLOAD PUSH4 0xD93C0665 PUSH1 0xE0 SHL DUP2 MSTORE PUSH1 0x4 SWAP1 REVERT JUMPDEST PUSH1 0x2 PUSH1 0x0 SLOAD EQ PUSH2 0x2A18 JUMPI PUSH1 0x2 PUSH1 0x0 SSTORE JUMP JUMPDEST PUSH1 0x40 MLOAD PUSH4 0x3EE5AEB5 PUSH1 0xE0 SHL DUP2 MSTORE PUSH1 0x4 SWAP1 REVERT JUMPDEST PUSH1 0x7 DUP1 SLOAD SWAP1 PUSH1 0xFF DUP3 AND SWAP2 PUSH32 0x0 TIMESTAMP LT ISZERO DUP1 PUSH2 0x2B56 JUMPI JUMPDEST PUSH2 0x2B47 JUMPI JUMPDEST POP DUP1 SLOAD PUSH1 0xFF DUP2 AND DUP3 DUP2 LT ISZERO PUSH2 0x26EF JUMPI PUSH1 0x1 EQ PUSH2 0x2ADC JUMPI JUMPDEST POP PUSH1 0xFF DUP2 SLOAD AND SWAP1 DUP1 DUP3 LT ISZERO PUSH2 0x26EF JUMPI DUP3 LT ISZERO PUSH2 0x26EF JUMPI DUP1 DUP3 SUB PUSH2 0x2A9B JUMPI POP POP JUMP JUMPDEST PUSH32 0xD643A1384921DE4B8AD16DF0A695F1E75FCFE3BCAC27F9C5C8CEE4645872382 SWAP2 PUSH2 0x2AD9 PUSH1 0x40 SWAP3 PUSH2 0x2ACF DUP5 MLOAD DUP1 SWAP5 PUSH2 0x26E2 JUMP JUMPDEST PUSH1 0x20 DUP4 ADD SWAP1 PUSH2 0x26E2 JUMP JUMPDEST LOG1 JUMP JUMPDEST PUSH32 0x0 TIMESTAMP LT DUP1 ISZERO SWAP1 PUSH2 0x2B1B JUMPI JUMPDEST ISZERO PUSH2 0x2A7A JUMPI PUSH1 0xFF NOT AND PUSH1 0x2 OR DUP2 SSTORE CODESIZE PUSH2 0x2A7A JUMP JUMPDEST POP PUSH1 0x8 SLOAD PUSH32 0x0 GT ISZERO PUSH2 0x2B07 JUMP JUMPDEST PUSH1 0xFF NOT AND PUSH1 0x1 OR DUP2 SSTORE CODESIZE PUSH2 0x2A63 JUMP JUMPDEST POP DUP2 DUP4 LT ISZERO PUSH2 0x26EF JUMPI DUP3 ISZERO PUSH2 0x2A5E JUMP JUMPDEST DUP2 DUP2 MUL SWAP3 SWAP2 DUP2 ISZERO SWAP2 DUP5 DIV EQ OR ISZERO PUSH2 0x28D5 JUMPI JUMP JUMPDEST SWAP2 SWAP1 DUP3 SUB SWAP2 DUP3 GT PUSH2 0x28D5 JUMPI JUMP JUMPDEST RETURNDATASIZE ISZERO PUSH2 0x2BC1 JUMPI RETURNDATASIZE SWAP1 PUSH8 0xFFFFFFFFFFFFFFFF DUP3 GT PUSH2 0x10C7 JUMPI PUSH1 0x40 MLOAD SWAP2 PUSH2 0x2BB5 PUSH1 0x1F DUP3 ADD PUSH1 0x1F NOT AND PUSH1 0x20 ADD DUP5 PUSH2 0x291B JUMP JUMPDEST DUP3 MSTORE RETURNDATASIZE PUSH1 0x0 PUSH1 0x20 DUP5 ADD RETURNDATACOPY JUMP JUMPDEST PUSH1 0x60 SWAP1 JUMP JUMPDEST SWAP1 PUSH1 0x40 MLOAD SWAP1 PUSH4 0xA9059CBB PUSH1 0xE0 SHL PUSH1 0x20 DUP4 ADD MSTORE PUSH2 0xDEAD PUSH1 0x24 DUP4 ADD MSTORE PUSH1 0x44 DUP3 ADD MSTORE PUSH1 0x44 DUP2 MSTORE PUSH1 0x80 DUP2 ADD SWAP2 DUP2 DUP4 LT PUSH8 0xFFFFFFFFFFFFFFFF DUP5 GT OR PUSH2 0x10C7 JUMPI PUSH2 0x297F SWAP3 PUSH1 0x40 MSTORE PUSH2 0x2981 JUMP JUMPDEST PUSH1 0x40 MLOAD PUSH4 0xA9059CBB PUSH1 0xE0 SHL PUSH1 0x20 DUP3 ADD MSTORE PUSH1 0x1 PUSH1 0x1 PUSH1 0xA0 SHL SUB SWAP3 SWAP1 SWAP3 AND PUSH1 0x24 DUP4 ADD MSTORE PUSH1 0x44 DUP1 DUP4 ADD SWAP4 SWAP1 SWAP4 MSTORE SWAP2 DUP2 MSTORE PUSH2 0x297F SWAP2 PUSH2 0x21D2 PUSH1 0x64 DUP4 PUSH2 0x291B JUMP JUMPDEST PUSH1 0x40 MLOAD PUSH4 0x95EA7B3 PUSH1 0xE0 SHL PUSH1 0x20 DUP3 ADD DUP2 DUP2 MSTORE PUSH1 0x1 PUSH1 0x1 PUSH1 0xA0 SHL SUB DUP6 AND PUSH1 0x24 DUP5 ADD MSTORE PUSH1 0x44 DUP1 DUP5 ADD SWAP7 SWAP1 SWAP7 MSTORE SWAP5 DUP3 MSTORE SWAP5 SWAP4 SWAP1 SWAP3 PUSH2 0x2C85 PUSH1 0x64 DUP6 PUSH2 0x291B JUMP JUMPDEST PUSH1 0x20 PUSH1 0x0 DUP1 SWAP4 DUP7 MLOAD SWAP1 DUP3 DUP8 GAS CALL DUP3 MLOAD RETURNDATASIZE DUP3 PUSH2 0x2D17 JUMPI JUMPDEST POP POP ISZERO PUSH2 0x2CAB JUMPI JUMPDEST POP POP POP POP SWAP1 POP JUMP JUMPDEST PUSH1 0x40 MLOAD PUSH1 0x20 DUP2 ADD SWAP7 SWAP1 SWAP7 MSTORE PUSH1 0x1 PUSH1 0x1 PUSH1 0xA0 SHL SUB AND PUSH1 0x24 DUP7 ADD MSTORE PUSH1 0x44 DUP1 DUP7 ADD DUP3 SWAP1 MSTORE DUP6 MSTORE PUSH1 0x80 DUP6 ADD SWAP1 PUSH8 0xFFFFFFFFFFFFFFFF DUP3 GT DUP7 DUP4 LT OR PUSH2 0x2D03 JUMPI POP PUSH2 0x2CF9 SWAP4 SWAP5 PUSH2 0x21D2 SWAP2 PUSH1 0x40 MSTORE DUP3 PUSH2 0x2981 JUMP JUMPDEST DUP1 CODESIZE DUP1 DUP1 DUP1 PUSH2 0x2CA3 JUMP JUMPDEST PUSH4 0x4E487B71 PUSH1 0xE0 SHL DUP2 MSTORE PUSH1 0x41 PUSH1 0x4 MSTORE PUSH1 0x24 SWAP1 REVERT JUMPDEST SWAP1 SWAP2 POP PUSH2 0x2D34 JUMPI POP PUSH1 0x1 PUSH1 0x1 PUSH1 0xA0 SHL SUB DUP4 AND EXTCODESIZE ISZERO ISZERO JUMPDEST CODESIZE DUP1 PUSH2 0x2C9B JUMP JUMPDEST PUSH1 0x1 EQ PUSH2 0x2D2D JUMP JUMPDEST SWAP1 SWAP2 DUP1 PUSH1 0x40 SWAP4 PUSH1 0x20 DUP5 MSTORE DUP2 PUSH1 0x20 DUP6 ADD MSTORE DUP5 DUP5 ADD CALLDATACOPY PUSH1 0x0 DUP3 DUP3 ADD DUP5 ADD MSTORE PUSH1 0x1F ADD PUSH1 0x1F NOT AND ADD ADD SWAP1 JUMP JUMPDEST SWAP1 DUP2 PUSH1 0x20 SWAP2 SUB SLT PUSH2 0x5F3 JUMPI MLOAD PUSH1 0x1 PUSH1 0x1 PUSH1 0xA0 SHL SUB DUP2 AND DUP2 SUB PUSH2 0x5F3 JUMPI SWAP1 JUMP INVALID LOG2 PUSH5 0x6970667358 0x22 SLT KECCAK256 PUSH16 0x6ABC5E6753B2224060987D816B7593FC 0x4B 0xAD DUP15 0xC2 STOP 0xDA 0xEE 0xC2 0xE7 0x4B MULMOD PUSH12 0xFC5DC764736F6C6343000814 STOP CALLER "},"methodIdentifiers":{"ADMIN_ROLE()":"75b238fc","DEFAULT_ADMIN_ROLE()":"a217fddf","burnedAmount()":"50e15fdd","cancel(string)":"0b4f3f3d","claimRefund()":"b5545a3c","contribute(uint256,address)":"60b0b0f0","contributions(address)":"42e94c90","dexRouter()":"0758d924","endTime()":"3197cbb6","feeConfig()":"1e5eb1d0","feePaid()":"ac7c5780","feeSplitter()":"6052970c","finalizeFailed(string)":"b30ca2da","finalizeSuccess(bytes32,uint256,uint256)":"387cd2cb","finalizeSuccessEscrow(bytes32,uint256,uint256,uint256,uint256,uint256)":"f41e0ba9","getContributionInfo(address)":"cd78d92c","getPresaleInfo()":"767fa723","getRoleAdmin(bytes32)":"248a9ca3","grantRole(bytes32,address)":"2f2ff15d","hardCap()":"fb86a404","hasRole(bytes32,address)":"91d14854","liquidityBps()":"c9f62af2","lpCreated()":"260813d5","lpLockDuration()":"de35eb24","lpLockId()":"f86aa92d","lpLocker()":"03fc2013","lpUsedBnb()":"ca8c3bea","maxContribution()":"8d3d6576","minContribution()":"aaffadf3","ownerPaid()":"91ed3ab0","pause()":"8456cb59","paused()":"5c975abb","paymentToken()":"3013ce29","projectOwner()":"a4475ce4","projectToken()":"4b60ce77","referrers(address)":"4a3b68cc","renounceRole(bytes32,address)":"36568abe","revokeRole(bytes32,address)":"d547741f","setFeeConfig((uint256,uint256,uint256,uint256))":"a9eddf99","snap()":"a77d38fa","softCap()":"906a26e0","startTime()":"78e97925","status()":"200d2ed2","supportsInterface(bytes4)":"01ffc9a7","surplusBurned()":"f2c4b647","sweepExcessNative(address)":"2c23ba53","sweepExcessTokens()":"afb5f1a7","tgeTimestamp()":"a4317ef4","totalRaised()":"c5c4744c","unpause()":"3f4ba83a","vestingFunded()":"a9725d52","vestingVault()":"a5917baf"}}}}}