{"contracts/fairlaunch/mocks/MockFeeSplitter.sol":{"MockFeeSplitter":{"abi":[{"inputs":[{"internalType":"address","name":"presale","type":"address"}],"name":"grantPresaleRole","outputs":[],"stateMutability":"nonpayable","type":"function"}],"evm":{"bytecode":{"linkReferences":{},"object":"60808060405234601457607d908161001a8239f35b600080fdfe6004361015600c57600080fd5b6000803560e01c63417eb66c14602157600080fd5b3460445760203660031901126044576004356001600160a01b0381160360445780f35b80fdfea26469706673582212201af2c2249ad673dd21afc4e313a58086b0bb1367886632be25696ce3031a066564736f6c63430008140033","opcodes":"PUSH1 0x80 DUP1 PUSH1 0x40 MSTORE CALLVALUE PUSH1 0x14 JUMPI PUSH1 0x7D SWAP1 DUP2 PUSH2 0x1A DUP3 CODECOPY RETURN JUMPDEST PUSH1 0x0 DUP1 REVERT INVALID PUSH1 0x4 CALLDATASIZE LT ISZERO PUSH1 0xC JUMPI PUSH1 0x0 DUP1 REVERT JUMPDEST PUSH1 0x0 DUP1 CALLDATALOAD PUSH1 0xE0 SHR PUSH4 0x417EB66C EQ PUSH1 0x21 JUMPI PUSH1 0x0 DUP1 REVERT JUMPDEST CALLVALUE PUSH1 0x44 JUMPI PUSH1 0x20 CALLDATASIZE PUSH1 0x3 NOT ADD SLT PUSH1 0x44 JUMPI PUSH1 0x4 CALLDATALOAD PUSH1 0x1 PUSH1 0x1 PUSH1 0xA0 SHL SUB DUP2 AND SUB PUSH1 0x44 JUMPI DUP1 RETURN JUMPDEST DUP1 REVERT INVALID LOG2 PUSH5 0x6970667358 0x22 SLT KECCAK256 BYTE CALLCODE 0xC2 0x24 SWAP11 0xD6 PUSH20 0xDD21AFC4E313A58086B0BB1367886632BE25696C 0xE3 SUB BYTE MOD PUSH6 0x64736F6C6343 STOP ADDMOD EQ STOP CALLER "},"methodIdentifiers":{"grantPresaleRole(address)":"417eb66c"}}}}}