{"contracts/fairlaunch/TeamVesting.sol":{"TeamVesting":{"abi":[{"inputs":[{"internalType":"address","name":"_token","type":"address"},{"internalType":"address","name":"_beneficiary","type":"address"},{"internalType":"uint256","name":"_startTime","type":"uint256"},{"internalType":"uint256[]","name":"_durations","type":"uint256[]"},{"internalType":"uint256[]","name":"_amounts","type":"uint256[]"},{"internalType":"address","name":"_admin","type":"address"}],"stateMutability":"nonpayable","type":"constructor"},{"inputs":[],"name":"AccessControlBadConfirmation","type":"error"},{"inputs":[{"internalType":"address","name":"account","type":"address"},{"internalType":"bytes32","name":"neededRole","type":"bytes32"}],"name":"AccessControlUnauthorizedAccount","type":"error"},{"inputs":[],"name":"InvalidSchedule","type":"error"},{"inputs":[],"name":"NoTokensToClaim","type":"error"},{"inputs":[],"name":"ReentrancyGuardReentrantCall","type":"error"},{"inputs":[{"internalType":"address","name":"token","type":"address"}],"name":"SafeERC20FailedOperation","type":"error"},{"inputs":[],"name":"Unauthorized","type":"error"},{"anonymous":false,"inputs":[{"indexed":true,"internalType":"bytes32","name":"role","type":"bytes32"},{"indexed":true,"internalType":"bytes32","name":"previousAdminRole","type":"bytes32"},{"indexed":true,"internalType":"bytes32","name":"newAdminRole","type":"bytes32"}],"name":"RoleAdminChanged","type":"event"},{"anonymous":false,"inputs":[{"indexed":true,"internalType":"bytes32","name":"role","type":"bytes32"},{"indexed":true,"internalType":"address","name":"account","type":"address"},{"indexed":true,"internalType":"address","name":"sender","type":"address"}],"name":"RoleGranted","type":"event"},{"anonymous":false,"inputs":[{"indexed":true,"internalType":"bytes32","name":"role","type":"bytes32"},{"indexed":true,"internalType":"address","name":"account","type":"address"},{"indexed":true,"internalType":"address","name":"sender","type":"address"}],"name":"RoleRevoked","type":"event"},{"anonymous":false,"inputs":[{"indexed":false,"internalType":"uint256","name":"totalAmount","type":"uint256"},{"indexed":false,"internalType":"uint256","name":"scheduleCount","type":"uint256"}],"name":"ScheduleCreated","type":"event"},{"anonymous":false,"inputs":[{"indexed":true,"internalType":"address","name":"beneficiary","type":"address"},{"indexed":false,"internalType":"uint256","name":"amount","type":"uint256"}],"name":"TokensClaimed","type":"event"},{"inputs":[],"name":"BENEFICIARY_ROLE","outputs":[{"internalType":"bytes32","name":"","type":"bytes32"}],"stateMutability":"view","type":"function"},{"inputs":[],"name":"DEFAULT_ADMIN_ROLE","outputs":[{"internalType":"bytes32","name":"","type":"bytes32"}],"stateMutability":"view","type":"function"},{"inputs":[],"name":"claim","outputs":[],"stateMutability":"nonpayable","type":"function"},{"inputs":[],"name":"getClaimable","outputs":[{"internalType":"uint256","name":"","type":"uint256"}],"stateMutability":"view","type":"function"},{"inputs":[{"internalType":"bytes32","name":"role","type":"bytes32"}],"name":"getRoleAdmin","outputs":[{"internalType":"bytes32","name":"","type":"bytes32"}],"stateMutability":"view","type":"function"},{"inputs":[],"name":"getSchedule","outputs":[{"internalType":"uint256[]","name":"times","type":"uint256[]"},{"internalType":"uint256[]","name":"amounts","type":"uint256[]"},{"internalType":"bool[]","name":"claimedStatus","type":"bool[]"}],"stateMutability":"view","type":"function"},{"inputs":[{"internalType":"bytes32","name":"role","type":"bytes32"},{"internalType":"address","name":"account","type":"address"}],"name":"grantRole","outputs":[],"stateMutability":"nonpayable","type":"function"},{"inputs":[{"internalType":"bytes32","name":"role","type":"bytes32"},{"internalType":"address","name":"account","type":"address"}],"name":"hasRole","outputs":[{"internalType":"bool","name":"","type":"bool"}],"stateMutability":"view","type":"function"},{"inputs":[{"internalType":"bytes32","name":"role","type":"bytes32"},{"internalType":"address","name":"callerConfirmation","type":"address"}],"name":"renounceRole","outputs":[],"stateMutability":"nonpayable","type":"function"},{"inputs":[{"internalType":"bytes32","name":"role","type":"bytes32"},{"internalType":"address","name":"account","type":"address"}],"name":"revokeRole","outputs":[],"stateMutability":"nonpayable","type":"function"},{"inputs":[{"internalType":"uint256","name":"","type":"uint256"}],"name":"schedules","outputs":[{"internalType":"uint256","name":"durationBytes","type":"uint256"},{"internalType":"uint256","name":"amount","type":"uint256"},{"internalType":"bool","name":"claimed","type":"bool"}],"stateMutability":"view","type":"function"},{"inputs":[],"name":"startTime","outputs":[{"internalType":"uint256","name":"","type":"uint256"}],"stateMutability":"view","type":"function"},{"inputs":[{"internalType":"bytes4","name":"interfaceId","type":"bytes4"}],"name":"supportsInterface","outputs":[{"internalType":"bool","name":"","type":"bool"}],"stateMutability":"view","type":"function"},{"inputs":[],"name":"token","outputs":[{"internalType":"address","name":"","type":"address"}],"stateMutability":"view","type":"function"},{"inputs":[],"name":"totalClaimed","outputs":[{"internalType":"uint256","name":"","type":"uint256"}],"stateMutability":"view","type":"function"},{"inputs":[],"name":"totalVestingAmount","outputs":[{"internalType":"uint256","name":"","type":"uint256"}],"stateMutability":"view","type":"function"}],"evm":{"bytecode":{"linkReferences":{},"object":"604060c0815234620003775762001004803803806200001e816200037c565b928339810160c08282031262000377576200003982620003a2565b906020916200004a838501620003a2565b8585015160608087015190966001600160401b03939092909184811162000377578662000079918501620003b7565b9560808401519085821162000377576200009c60a091620000a4938701620003b7565b9401620003a2565b6001808055959091906001600160a01b03808216156200034357841615620002ff578751855103620002c957875115620002945792620000f78795989693620000fe938d9b999660805260a05262000434565b50620004b4565b5060009586925b62000175575b505050507f721ddaabe5cc50a5a5fdc5ce1e5636612da513f19115ed78a77b4e60665f07b494508260035551908351928352820152a151610a8d908162000557823960805181818160e801526103e9015260a05181818161017a0152818161031a015261062a0152f35b9193959092949686518510156200028857506200019384876200041f565b51620001a085846200041f565b518a51918a83018381108782111762000272578c5282528882019081528a8201916000835260029182546801000000000000000081101562000272578981018085558110156200025c578360005260038c600020910201915182555188820155019051151560ff801983541691161790556200021d84836200041f565b518101809111620002465796600019841462000246578480940191899795939198969462000105565b634e487b7160e01b600052601160045260246000fd5b634e487b7160e01b600052603260045260246000fd5b634e487b7160e01b600052604160045260246000fd5b9694819694506200010b565b8a5162461bcd60e51b8152600481018a9052600e60248201526d456d707479207363686564756c6560901b6044820152606490fd5b8a5162461bcd60e51b8152600481018a9052600f60248201526e098cadccee8d040dad2e6dac2e8c6d608b1b6044820152606490fd5b8a5162461bcd60e51b8152600481018a9052601360248201527f496e76616c69642062656e6566696369617279000000000000000000000000006044820152606490fd5b8b5162461bcd60e51b8152600481018b9052600d60248201526c24b73b30b634b2103a37b5b2b760991b6044820152606490fd5b600080fd5b6040519190601f01601f191682016001600160401b038111838210176200027257604052565b51906001600160a01b03821682036200037757565b81601f8201121562000377578051916001600160401b03831162000272578260051b6020928380620003eb8185016200037c565b80978152019282010192831162000377578301905b8282106200040f575050505090565b8151815290830190830162000400565b80518210156200025c5760209160051b010190565b6001600160a01b031660008181527fad3228b676f7d3cd4284a5443f17f1962b36e491b30a40b2405849e597ba5fb5602052604081205490919060ff16620004b057818052816020526040822081835260205260408220600160ff19825416179055339160008051602062000fe48339815191528180a4600190565b5090565b6001600160a01b031660008181527fb9b0ac02325ee7cf4551d296a88408527c705a37fefd0e298966a9ada940b4c460205260408120549091907fc8a41221bcd7fcf2c225f5a9265e1d4d39949d89197159d59e5f4b87b62c419e9060ff166200055157808352826020526040832082845260205260408320600160ff1982541617905560008051602062000fe4833981519152339380a4600190565b50509056fe608060408181526004918236101561001657600080fd5b600092833560e01c91826301ffc9a71461075557508163248a9ca31461072b57816326fadbe2146105cc5781632db94d19146105ad5781632f2ff15d1461058f57816336568abe146105545781634e71d92d1461033d57816378e979251461030257816391d14854146102c8578163a217fddf146102ad578163bdc6d9ab1461025a578163ced3a4031461021f578163d547741f146101ea578163d54ad2a1146101c857508063ee28b7441461011b5763fc0c546a146100d557600080fd5b34610117578160031936011261011757517f00000000000000000000000000000000000000000000000000000000000000006001600160a01b03168152602090f35b5080fd5b503461011757816003193601126101175781906002928354905b818110610146576020848451908152f35b60ff8561015283610807565b500154161561016a575b6101659061098f565b610135565b61019e61017682610807565b50547f00000000000000000000000000000000000000000000000000000000000000006109b4565b421061015c57926101c06101659160016101b787610807565b500154906109b4565b93905061015c565b9050346101e657826003193601126101e65760209250549051908152f35b8280fd5b50503461011757600161021b91610216610203366107dc565b9390928387528660205286200154610858565b61091a565b5080f35b505034610117578160031936011261011757602090517fc8a41221bcd7fcf2c225f5a9265e1d4d39949d89197159d59e5f4b87b62c419e8152f35b9050346101e65760203660031901126101e65735916002548310156102aa5750610285606092610807565b509081549160ff60026001830154920154169082519384526020840152151590820152f35b80fd5b50503461011757816003193601126101175751908152602090f35b5050346101175760ff816020936102de366107dc565b9082528186528282206001600160a01b039091168252855220549151911615158152f35b505034610117578160031936011261011757602090517f00000000000000000000000000000000000000000000000000000000000000008152f35b919050346101e657826003193601126101e65760029060019282845414610546578284557fc8a41221bcd7fcf2c225f5a9265e1d4d39949d89197159d59e5f4b87b62c419e8086528560205282862033875260205260ff908184882054161561052957508593805491875b8381106104c4575050505082156104b7576103c48382546109b4565b8155815163a9059cbb60e01b60208201908152336024830152604480830186905282527f00000000000000000000000000000000000000000000000000000000000000006001600160a01b0316916080810167ffffffffffffffff8111828210176104a45785525160209188919082855af11561049a57855185903d610493575050803b155b61047f575050519081527f896e034966eaaf1adc54acc0f257056febbd300c9e47182cf761982cf1f5e43060203392a2805580f35b6024925191635274afe760e01b8352820152fd5b141561044a565b82513d87823e3d90fd5b634e487b7160e01b895260418552602489fd5b905162f3f86160e41b8152fd5b81836104cf83610807565b50015416156104e7575b6104e29061098f565b6103a8565b6104f361017682610807565b42106104d957956105216104e2918461050b8a610807565b5001805460ff19168b179055896101b78a610807565b9690506104d9565b9050604492519163e2517d3f60e01b835233908301526024820152fd5b9051633ee5aeb560e01b8152fd5b83833461011757610564366107dc565b91336001600160a01b0384160361058057509061021b9161091a565b5163334bd91960e11b81528490fd5b50503461011757600161021b916105a8610203366107dc565b61089c565b5050346101175781600319360112610117576020906003549051908152f35b5050346101175781600319360112610117576002918254906105ed82610a11565b926105f783610a11565b610600846109f9565b9061060d835192836109c1565b848252610619856109f9565b6020978389019691601f19013688377f0000000000000000000000000000000000000000000000000000000000000000865b8381106106b95750505050958091610680610673988551998a9960608b5260608b01906107a8565b90898203858b01526107a8565b938785039088015251928381520193925b8281106106a057505050500390f35b8351151585528695509381019392810192600101610691565b808a6106e2826106dc9d9e9b9a9c9d6106d461072096610807565b5054876109b4565b92610a43565b5260016106ee82610807565b5001546106fb8288610a43565b5260ff8461070883610807565b500154166107168289610a43565b901515905261098f565b99989795969961064b565b9050346101e65760203660031901126101e657816020936001923581528085522001549051908152f35b8491346101e65760203660031901126101e6573563ffffffff60e01b81168091036101e65760209250637965db0b60e01b8114908115610797575b5015158152f35b6301ffc9a760e01b14905083610790565b90815180825260208080930193019160005b8281106107c8575050505090565b8351855293810193928101926001016107ba565b604090600319011261080257600435906024356001600160a01b03811681036108025790565b600080fd5b600254811015610842576003906002600052027f405787fa12a823e0f2b7631cc41b3ba8828b3321ca811111fa75cd3aa3bb5ace0190600090565b634e487b7160e01b600052603260045260246000fd5b80600052600060205260406000203360005260205260ff604060002054161561087e5750565b6044906040519063e2517d3f60e01b82523360048301526024820152fd5b9060009180835282602052604083209160018060a01b03169182845260205260ff6040842054161560001461091557808352826020526040832082845260205260408320600160ff198254161790557f2f8788117e7eff1d82e926ec794901d17c78024a50270940304540a733656f0d339380a4600190565b505090565b9060009180835282602052604083209160018060a01b03169182845260205260ff6040842054166000146109155780835282602052604083208284526020526040832060ff1981541690557ff6391f5c32d9c69d2a47ea670b442974b53935d1edc7fd64eb21e047a839171b339380a4600190565b600019811461099e5760010190565b634e487b7160e01b600052601160045260246000fd5b9190820180921161099e57565b90601f8019910116810190811067ffffffffffffffff8211176109e357604052565b634e487b7160e01b600052604160045260246000fd5b67ffffffffffffffff81116109e35760051b60200190565b90610a1b826109f9565b610a2860405191826109c1565b8281528092610a39601f19916109f9565b0190602036910137565b80518210156108425760209160051b01019056fea2646970667358221220ab0dbad7314e73d77bf03df8edac5c8d9b05024f87d1f2e40e2234aa9960610464736f6c634300081400332f8788117e7eff1d82e926ec794901d17c78024a50270940304540a733656f0d","opcodes":"PUSH1 0x40 PUSH1 0xC0 DUP2 MSTORE CALLVALUE PUSH3 0x377 JUMPI PUSH3 0x1004 DUP1 CODESIZE SUB DUP1 PUSH3 0x1E DUP2 PUSH3 0x37C JUMP JUMPDEST SWAP3 DUP4 CODECOPY DUP2 ADD PUSH1 0xC0 DUP3 DUP3 SUB SLT PUSH3 0x377 JUMPI PUSH3 0x39 DUP3 PUSH3 0x3A2 JUMP JUMPDEST SWAP1 PUSH1 0x20 SWAP2 PUSH3 0x4A DUP4 DUP6 ADD PUSH3 0x3A2 JUMP JUMPDEST DUP6 DUP6 ADD MLOAD PUSH1 0x60 DUP1 DUP8 ADD MLOAD SWAP1 SWAP7 PUSH1 0x1 PUSH1 0x1 PUSH1 0x40 SHL SUB SWAP4 SWAP1 SWAP3 SWAP1 SWAP2 DUP5 DUP2 GT PUSH3 0x377 JUMPI DUP7 PUSH3 0x79 SWAP2 DUP6 ADD PUSH3 0x3B7 JUMP JUMPDEST SWAP6 PUSH1 0x80 DUP5 ADD MLOAD SWAP1 DUP6 DUP3 GT PUSH3 0x377 JUMPI PUSH3 0x9C PUSH1 0xA0 SWAP2 PUSH3 0xA4 SWAP4 DUP8 ADD PUSH3 0x3B7 JUMP JUMPDEST SWAP5 ADD PUSH3 0x3A2 JUMP JUMPDEST PUSH1 0x1 DUP1 DUP1 SSTORE SWAP6 SWAP1 SWAP2 SWAP1 PUSH1 0x1 PUSH1 0x1 PUSH1 0xA0 SHL SUB DUP1 DUP3 AND ISZERO PUSH3 0x343 JUMPI DUP5 AND ISZERO PUSH3 0x2FF JUMPI DUP8 MLOAD DUP6 MLOAD SUB PUSH3 0x2C9 JUMPI DUP8 MLOAD ISZERO PUSH3 0x294 JUMPI SWAP3 PUSH3 0xF7 DUP8 SWAP6 SWAP9 SWAP7 SWAP4 PUSH3 0xFE SWAP4 DUP14 SWAP12 SWAP10 SWAP7 PUSH1 0x80 MSTORE PUSH1 0xA0 MSTORE PUSH3 0x434 JUMP JUMPDEST POP PUSH3 0x4B4 JUMP JUMPDEST POP PUSH1 0x0 SWAP6 DUP7 SWAP3 JUMPDEST PUSH3 0x175 JUMPI JUMPDEST POP POP POP POP PUSH32 0x721DDAABE5CC50A5A5FDC5CE1E5636612DA513F19115ED78A77B4E60665F07B4 SWAP5 POP DUP3 PUSH1 0x3 SSTORE MLOAD SWAP1 DUP4 MLOAD SWAP3 DUP4 MSTORE DUP3 ADD MSTORE LOG1 MLOAD PUSH2 0xA8D SWAP1 DUP2 PUSH3 0x557 DUP3 CODECOPY PUSH1 0x80 MLOAD DUP2 DUP2 DUP2 PUSH1 0xE8 ADD MSTORE PUSH2 0x3E9 ADD MSTORE PUSH1 0xA0 MLOAD DUP2 DUP2 DUP2 PUSH2 0x17A ADD MSTORE DUP2 DUP2 PUSH2 0x31A ADD MSTORE PUSH2 0x62A ADD MSTORE RETURN JUMPDEST SWAP2 SWAP4 SWAP6 SWAP1 SWAP3 SWAP5 SWAP7 DUP7 MLOAD DUP6 LT ISZERO PUSH3 0x288 JUMPI POP PUSH3 0x193 DUP5 DUP8 PUSH3 0x41F JUMP JUMPDEST MLOAD PUSH3 0x1A0 DUP6 DUP5 PUSH3 0x41F JUMP JUMPDEST MLOAD DUP11 MLOAD SWAP2 DUP11 DUP4 ADD DUP4 DUP2 LT DUP8 DUP3 GT OR PUSH3 0x272 JUMPI DUP13 MSTORE DUP3 MSTORE DUP9 DUP3 ADD SWAP1 DUP2 MSTORE DUP11 DUP3 ADD SWAP2 PUSH1 0x0 DUP4 MSTORE PUSH1 0x2 SWAP2 DUP3 SLOAD PUSH9 0x10000000000000000 DUP2 LT ISZERO PUSH3 0x272 JUMPI DUP10 DUP2 ADD DUP1 DUP6 SSTORE DUP2 LT ISZERO PUSH3 0x25C JUMPI DUP4 PUSH1 0x0 MSTORE PUSH1 0x3 DUP13 PUSH1 0x0 KECCAK256 SWAP2 MUL ADD SWAP2 MLOAD DUP3 SSTORE MLOAD DUP9 DUP3 ADD SSTORE ADD SWAP1 MLOAD ISZERO ISZERO PUSH1 0xFF DUP1 NOT DUP4 SLOAD AND SWAP2 AND OR SWAP1 SSTORE PUSH3 0x21D DUP5 DUP4 PUSH3 0x41F JUMP JUMPDEST MLOAD DUP2 ADD DUP1 SWAP2 GT PUSH3 0x246 JUMPI SWAP7 PUSH1 0x0 NOT DUP5 EQ PUSH3 0x246 JUMPI DUP5 DUP1 SWAP5 ADD SWAP2 DUP10 SWAP8 SWAP6 SWAP4 SWAP2 SWAP9 SWAP7 SWAP5 PUSH3 0x105 JUMP JUMPDEST PUSH4 0x4E487B71 PUSH1 0xE0 SHL PUSH1 0x0 MSTORE PUSH1 0x11 PUSH1 0x4 MSTORE PUSH1 0x24 PUSH1 0x0 REVERT JUMPDEST PUSH4 0x4E487B71 PUSH1 0xE0 SHL PUSH1 0x0 MSTORE PUSH1 0x32 PUSH1 0x4 MSTORE PUSH1 0x24 PUSH1 0x0 REVERT JUMPDEST PUSH4 0x4E487B71 PUSH1 0xE0 SHL PUSH1 0x0 MSTORE PUSH1 0x41 PUSH1 0x4 MSTORE PUSH1 0x24 PUSH1 0x0 REVERT JUMPDEST SWAP7 SWAP5 DUP2 SWAP7 SWAP5 POP PUSH3 0x10B JUMP JUMPDEST DUP11 MLOAD PUSH3 0x461BCD PUSH1 0xE5 SHL DUP2 MSTORE PUSH1 0x4 DUP2 ADD DUP11 SWAP1 MSTORE PUSH1 0xE PUSH1 0x24 DUP3 ADD MSTORE PUSH14 0x456D707479207363686564756C65 PUSH1 0x90 SHL PUSH1 0x44 DUP3 ADD MSTORE PUSH1 0x64 SWAP1 REVERT JUMPDEST DUP11 MLOAD PUSH3 0x461BCD PUSH1 0xE5 SHL DUP2 MSTORE PUSH1 0x4 DUP2 ADD DUP11 SWAP1 MSTORE PUSH1 0xF PUSH1 0x24 DUP3 ADD MSTORE PUSH15 0x98CADCCEE8D040DAD2E6DAC2E8C6D PUSH1 0x8B SHL PUSH1 0x44 DUP3 ADD MSTORE PUSH1 0x64 SWAP1 REVERT JUMPDEST DUP11 MLOAD PUSH3 0x461BCD PUSH1 0xE5 SHL DUP2 MSTORE PUSH1 0x4 DUP2 ADD DUP11 SWAP1 MSTORE PUSH1 0x13 PUSH1 0x24 DUP3 ADD MSTORE PUSH32 0x496E76616C69642062656E656669636961727900000000000000000000000000 PUSH1 0x44 DUP3 ADD MSTORE PUSH1 0x64 SWAP1 REVERT JUMPDEST DUP12 MLOAD PUSH3 0x461BCD PUSH1 0xE5 SHL DUP2 MSTORE PUSH1 0x4 DUP2 ADD DUP12 SWAP1 MSTORE PUSH1 0xD PUSH1 0x24 DUP3 ADD MSTORE PUSH13 0x24B73B30B634B2103A37B5B2B7 PUSH1 0x99 SHL PUSH1 0x44 DUP3 ADD MSTORE PUSH1 0x64 SWAP1 REVERT JUMPDEST PUSH1 0x0 DUP1 REVERT JUMPDEST PUSH1 0x40 MLOAD SWAP2 SWAP1 PUSH1 0x1F ADD PUSH1 0x1F NOT AND DUP3 ADD PUSH1 0x1 PUSH1 0x1 PUSH1 0x40 SHL SUB DUP2 GT DUP4 DUP3 LT OR PUSH3 0x272 JUMPI PUSH1 0x40 MSTORE JUMP JUMPDEST MLOAD SWAP1 PUSH1 0x1 PUSH1 0x1 PUSH1 0xA0 SHL SUB DUP3 AND DUP3 SUB PUSH3 0x377 JUMPI JUMP JUMPDEST DUP2 PUSH1 0x1F DUP3 ADD SLT ISZERO PUSH3 0x377 JUMPI DUP1 MLOAD SWAP2 PUSH1 0x1 PUSH1 0x1 PUSH1 0x40 SHL SUB DUP4 GT PUSH3 0x272 JUMPI DUP3 PUSH1 0x5 SHL PUSH1 0x20 SWAP3 DUP4 DUP1 PUSH3 0x3EB DUP2 DUP6 ADD PUSH3 0x37C JUMP JUMPDEST DUP1 SWAP8 DUP2 MSTORE ADD SWAP3 DUP3 ADD ADD SWAP3 DUP4 GT PUSH3 0x377 JUMPI DUP4 ADD SWAP1 JUMPDEST DUP3 DUP3 LT PUSH3 0x40F JUMPI POP POP POP POP SWAP1 JUMP JUMPDEST DUP2 MLOAD DUP2 MSTORE SWAP1 DUP4 ADD SWAP1 DUP4 ADD PUSH3 0x400 JUMP JUMPDEST DUP1 MLOAD DUP3 LT ISZERO PUSH3 0x25C JUMPI PUSH1 0x20 SWAP2 PUSH1 0x5 SHL ADD ADD SWAP1 JUMP JUMPDEST PUSH1 0x1 PUSH1 0x1 PUSH1 0xA0 SHL SUB AND PUSH1 0x0 DUP2 DUP2 MSTORE PUSH32 0xAD3228B676F7D3CD4284A5443F17F1962B36E491B30A40B2405849E597BA5FB5 PUSH1 0x20 MSTORE PUSH1 0x40 DUP2 KECCAK256 SLOAD SWAP1 SWAP2 SWAP1 PUSH1 0xFF AND PUSH3 0x4B0 JUMPI DUP2 DUP1 MSTORE DUP2 PUSH1 0x20 MSTORE PUSH1 0x40 DUP3 KECCAK256 DUP2 DUP4 MSTORE PUSH1 0x20 MSTORE PUSH1 0x40 DUP3 KECCAK256 PUSH1 0x1 PUSH1 0xFF NOT DUP3 SLOAD AND OR SWAP1 SSTORE CALLER SWAP2 PUSH1 0x0 DUP1 MLOAD PUSH1 0x20 PUSH3 0xFE4 DUP4 CODECOPY DUP2 MLOAD SWAP2 MSTORE DUP2 DUP1 LOG4 PUSH1 0x1 SWAP1 JUMP JUMPDEST POP SWAP1 JUMP JUMPDEST PUSH1 0x1 PUSH1 0x1 PUSH1 0xA0 SHL SUB AND PUSH1 0x0 DUP2 DUP2 MSTORE PUSH32 0xB9B0AC02325EE7CF4551D296A88408527C705A37FEFD0E298966A9ADA940B4C4 PUSH1 0x20 MSTORE PUSH1 0x40 DUP2 KECCAK256 SLOAD SWAP1 SWAP2 SWAP1 PUSH32 0xC8A41221BCD7FCF2C225F5A9265E1D4D39949D89197159D59E5F4B87B62C419E SWAP1 PUSH1 0xFF AND PUSH3 0x551 JUMPI DUP1 DUP4 MSTORE DUP3 PUSH1 0x20 MSTORE PUSH1 0x40 DUP4 KECCAK256 DUP3 DUP5 MSTORE PUSH1 0x20 MSTORE PUSH1 0x40 DUP4 KECCAK256 PUSH1 0x1 PUSH1 0xFF NOT DUP3 SLOAD AND OR SWAP1 SSTORE PUSH1 0x0 DUP1 MLOAD PUSH1 0x20 PUSH3 0xFE4 DUP4 CODECOPY DUP2 MLOAD SWAP2 MSTORE CALLER SWAP4 DUP1 LOG4 PUSH1 0x1 SWAP1 JUMP JUMPDEST POP POP SWAP1 JUMP INVALID PUSH1 0x80 PUSH1 0x40 DUP2 DUP2 MSTORE PUSH1 0x4 SWAP2 DUP3 CALLDATASIZE LT ISZERO PUSH2 0x16 JUMPI PUSH1 0x0 DUP1 REVERT JUMPDEST PUSH1 0x0 SWAP3 DUP4 CALLDATALOAD PUSH1 0xE0 SHR SWAP2 DUP3 PUSH4 0x1FFC9A7 EQ PUSH2 0x755 JUMPI POP DUP2 PUSH4 0x248A9CA3 EQ PUSH2 0x72B JUMPI DUP2 PUSH4 0x26FADBE2 EQ PUSH2 0x5CC JUMPI DUP2 PUSH4 0x2DB94D19 EQ PUSH2 0x5AD JUMPI DUP2 PUSH4 0x2F2FF15D EQ PUSH2 0x58F JUMPI DUP2 PUSH4 0x36568ABE EQ PUSH2 0x554 JUMPI DUP2 PUSH4 0x4E71D92D EQ PUSH2 0x33D JUMPI DUP2 PUSH4 0x78E97925 EQ PUSH2 0x302 JUMPI DUP2 PUSH4 0x91D14854 EQ PUSH2 0x2C8 JUMPI DUP2 PUSH4 0xA217FDDF EQ PUSH2 0x2AD JUMPI DUP2 PUSH4 0xBDC6D9AB EQ PUSH2 0x25A JUMPI DUP2 PUSH4 0xCED3A403 EQ PUSH2 0x21F JUMPI DUP2 PUSH4 0xD547741F EQ PUSH2 0x1EA JUMPI DUP2 PUSH4 0xD54AD2A1 EQ PUSH2 0x1C8 JUMPI POP DUP1 PUSH4 0xEE28B744 EQ PUSH2 0x11B JUMPI PUSH4 0xFC0C546A EQ PUSH2 0xD5 JUMPI PUSH1 0x0 DUP1 REVERT JUMPDEST CALLVALUE PUSH2 0x117 JUMPI DUP2 PUSH1 0x3 NOT CALLDATASIZE ADD SLT PUSH2 0x117 JUMPI MLOAD PUSH32 0x0 PUSH1 0x1 PUSH1 0x1 PUSH1 0xA0 SHL SUB AND DUP2 MSTORE PUSH1 0x20 SWAP1 RETURN JUMPDEST POP DUP1 REVERT JUMPDEST POP CALLVALUE PUSH2 0x117 JUMPI DUP2 PUSH1 0x3 NOT CALLDATASIZE ADD SLT PUSH2 0x117 JUMPI DUP2 SWAP1 PUSH1 0x2 SWAP3 DUP4 SLOAD SWAP1 JUMPDEST DUP2 DUP2 LT PUSH2 0x146 JUMPI PUSH1 0x20 DUP5 DUP5 MLOAD SWAP1 DUP2 MSTORE RETURN JUMPDEST PUSH1 0xFF DUP6 PUSH2 0x152 DUP4 PUSH2 0x807 JUMP JUMPDEST POP ADD SLOAD AND ISZERO PUSH2 0x16A JUMPI JUMPDEST PUSH2 0x165 SWAP1 PUSH2 0x98F JUMP JUMPDEST PUSH2 0x135 JUMP JUMPDEST PUSH2 0x19E PUSH2 0x176 DUP3 PUSH2 0x807 JUMP JUMPDEST POP SLOAD PUSH32 0x0 PUSH2 0x9B4 JUMP JUMPDEST TIMESTAMP LT PUSH2 0x15C JUMPI SWAP3 PUSH2 0x1C0 PUSH2 0x165 SWAP2 PUSH1 0x1 PUSH2 0x1B7 DUP8 PUSH2 0x807 JUMP JUMPDEST POP ADD SLOAD SWAP1 PUSH2 0x9B4 JUMP JUMPDEST SWAP4 SWAP1 POP PUSH2 0x15C JUMP JUMPDEST SWAP1 POP CALLVALUE PUSH2 0x1E6 JUMPI DUP3 PUSH1 0x3 NOT CALLDATASIZE ADD SLT PUSH2 0x1E6 JUMPI PUSH1 0x20 SWAP3 POP SLOAD SWAP1 MLOAD SWAP1 DUP2 MSTORE RETURN JUMPDEST DUP3 DUP1 REVERT JUMPDEST POP POP CALLVALUE PUSH2 0x117 JUMPI PUSH1 0x1 PUSH2 0x21B SWAP2 PUSH2 0x216 PUSH2 0x203 CALLDATASIZE PUSH2 0x7DC JUMP JUMPDEST SWAP4 SWAP1 SWAP3 DUP4 DUP8 MSTORE DUP7 PUSH1 0x20 MSTORE DUP7 KECCAK256 ADD SLOAD PUSH2 0x858 JUMP JUMPDEST PUSH2 0x91A JUMP JUMPDEST POP DUP1 RETURN JUMPDEST POP POP CALLVALUE PUSH2 0x117 JUMPI DUP2 PUSH1 0x3 NOT CALLDATASIZE ADD SLT PUSH2 0x117 JUMPI PUSH1 0x20 SWAP1 MLOAD PUSH32 0xC8A41221BCD7FCF2C225F5A9265E1D4D39949D89197159D59E5F4B87B62C419E DUP2 MSTORE RETURN JUMPDEST SWAP1 POP CALLVALUE PUSH2 0x1E6 JUMPI PUSH1 0x20 CALLDATASIZE PUSH1 0x3 NOT ADD SLT PUSH2 0x1E6 JUMPI CALLDATALOAD SWAP2 PUSH1 0x2 SLOAD DUP4 LT ISZERO PUSH2 0x2AA JUMPI POP PUSH2 0x285 PUSH1 0x60 SWAP3 PUSH2 0x807 JUMP JUMPDEST POP SWAP1 DUP2 SLOAD SWAP2 PUSH1 0xFF PUSH1 0x2 PUSH1 0x1 DUP4 ADD SLOAD SWAP3 ADD SLOAD AND SWAP1 DUP3 MLOAD SWAP4 DUP5 MSTORE PUSH1 0x20 DUP5 ADD MSTORE ISZERO ISZERO SWAP1 DUP3 ADD MSTORE RETURN JUMPDEST DUP1 REVERT JUMPDEST POP POP CALLVALUE PUSH2 0x117 JUMPI DUP2 PUSH1 0x3 NOT CALLDATASIZE ADD SLT PUSH2 0x117 JUMPI MLOAD SWAP1 DUP2 MSTORE PUSH1 0x20 SWAP1 RETURN JUMPDEST POP POP CALLVALUE PUSH2 0x117 JUMPI PUSH1 0xFF DUP2 PUSH1 0x20 SWAP4 PUSH2 0x2DE CALLDATASIZE PUSH2 0x7DC JUMP JUMPDEST SWAP1 DUP3 MSTORE DUP2 DUP7 MSTORE DUP3 DUP3 KECCAK256 PUSH1 0x1 PUSH1 0x1 PUSH1 0xA0 SHL SUB SWAP1 SWAP2 AND DUP3 MSTORE DUP6 MSTORE KECCAK256 SLOAD SWAP2 MLOAD SWAP2 AND ISZERO ISZERO DUP2 MSTORE RETURN JUMPDEST POP POP CALLVALUE PUSH2 0x117 JUMPI DUP2 PUSH1 0x3 NOT CALLDATASIZE ADD SLT PUSH2 0x117 JUMPI PUSH1 0x20 SWAP1 MLOAD PUSH32 0x0 DUP2 MSTORE RETURN JUMPDEST SWAP2 SWAP1 POP CALLVALUE PUSH2 0x1E6 JUMPI DUP3 PUSH1 0x3 NOT CALLDATASIZE ADD SLT PUSH2 0x1E6 JUMPI PUSH1 0x2 SWAP1 PUSH1 0x1 SWAP3 DUP3 DUP5 SLOAD EQ PUSH2 0x546 JUMPI DUP3 DUP5 SSTORE PUSH32 0xC8A41221BCD7FCF2C225F5A9265E1D4D39949D89197159D59E5F4B87B62C419E DUP1 DUP7 MSTORE DUP6 PUSH1 0x20 MSTORE DUP3 DUP7 KECCAK256 CALLER DUP8 MSTORE PUSH1 0x20 MSTORE PUSH1 0xFF SWAP1 DUP2 DUP5 DUP9 KECCAK256 SLOAD AND ISZERO PUSH2 0x529 JUMPI POP DUP6 SWAP4 DUP1 SLOAD SWAP2 DUP8 JUMPDEST DUP4 DUP2 LT PUSH2 0x4C4 JUMPI POP POP POP POP DUP3 ISZERO PUSH2 0x4B7 JUMPI PUSH2 0x3C4 DUP4 DUP3 SLOAD PUSH2 0x9B4 JUMP JUMPDEST DUP2 SSTORE DUP2 MLOAD PUSH4 0xA9059CBB PUSH1 0xE0 SHL PUSH1 0x20 DUP3 ADD SWAP1 DUP2 MSTORE CALLER PUSH1 0x24 DUP4 ADD MSTORE PUSH1 0x44 DUP1 DUP4 ADD DUP7 SWAP1 MSTORE DUP3 MSTORE PUSH32 0x0 PUSH1 0x1 PUSH1 0x1 PUSH1 0xA0 SHL SUB AND SWAP2 PUSH1 0x80 DUP2 ADD PUSH8 0xFFFFFFFFFFFFFFFF DUP2 GT DUP3 DUP3 LT OR PUSH2 0x4A4 JUMPI DUP6 MSTORE MLOAD PUSH1 0x20 SWAP2 DUP9 SWAP2 SWAP1 DUP3 DUP6 GAS CALL ISZERO PUSH2 0x49A JUMPI DUP6 MLOAD DUP6 SWAP1 RETURNDATASIZE PUSH2 0x493 JUMPI POP POP DUP1 EXTCODESIZE ISZERO JUMPDEST PUSH2 0x47F JUMPI POP POP MLOAD SWAP1 DUP2 MSTORE PUSH32 0x896E034966EAAF1ADC54ACC0F257056FEBBD300C9E47182CF761982CF1F5E430 PUSH1 0x20 CALLER SWAP3 LOG2 DUP1 SSTORE DUP1 RETURN JUMPDEST PUSH1 0x24 SWAP3 MLOAD SWAP2 PUSH4 0x5274AFE7 PUSH1 0xE0 SHL DUP4 MSTORE DUP3 ADD MSTORE REVERT JUMPDEST EQ ISZERO PUSH2 0x44A JUMP JUMPDEST DUP3 MLOAD RETURNDATASIZE DUP8 DUP3 RETURNDATACOPY RETURNDATASIZE SWAP1 REVERT JUMPDEST PUSH4 0x4E487B71 PUSH1 0xE0 SHL DUP10 MSTORE PUSH1 0x41 DUP6 MSTORE PUSH1 0x24 DUP10 REVERT JUMPDEST SWAP1 MLOAD PUSH3 0xF3F861 PUSH1 0xE4 SHL DUP2 MSTORE REVERT JUMPDEST DUP2 DUP4 PUSH2 0x4CF DUP4 PUSH2 0x807 JUMP JUMPDEST POP ADD SLOAD AND ISZERO PUSH2 0x4E7 JUMPI JUMPDEST PUSH2 0x4E2 SWAP1 PUSH2 0x98F JUMP JUMPDEST PUSH2 0x3A8 JUMP JUMPDEST PUSH2 0x4F3 PUSH2 0x176 DUP3 PUSH2 0x807 JUMP JUMPDEST TIMESTAMP LT PUSH2 0x4D9 JUMPI SWAP6 PUSH2 0x521 PUSH2 0x4E2 SWAP2 DUP5 PUSH2 0x50B DUP11 PUSH2 0x807 JUMP JUMPDEST POP ADD DUP1 SLOAD PUSH1 0xFF NOT AND DUP12 OR SWAP1 SSTORE DUP10 PUSH2 0x1B7 DUP11 PUSH2 0x807 JUMP JUMPDEST SWAP7 SWAP1 POP PUSH2 0x4D9 JUMP JUMPDEST SWAP1 POP PUSH1 0x44 SWAP3 MLOAD SWAP2 PUSH4 0xE2517D3F PUSH1 0xE0 SHL DUP4 MSTORE CALLER SWAP1 DUP4 ADD MSTORE PUSH1 0x24 DUP3 ADD MSTORE REVERT JUMPDEST SWAP1 MLOAD PUSH4 0x3EE5AEB5 PUSH1 0xE0 SHL DUP2 MSTORE REVERT JUMPDEST DUP4 DUP4 CALLVALUE PUSH2 0x117 JUMPI PUSH2 0x564 CALLDATASIZE PUSH2 0x7DC JUMP JUMPDEST SWAP2 CALLER PUSH1 0x1 PUSH1 0x1 PUSH1 0xA0 SHL SUB DUP5 AND SUB PUSH2 0x580 JUMPI POP SWAP1 PUSH2 0x21B SWAP2 PUSH2 0x91A JUMP JUMPDEST MLOAD PUSH4 0x334BD919 PUSH1 0xE1 SHL DUP2 MSTORE DUP5 SWAP1 REVERT JUMPDEST POP POP CALLVALUE PUSH2 0x117 JUMPI PUSH1 0x1 PUSH2 0x21B SWAP2 PUSH2 0x5A8 PUSH2 0x203 CALLDATASIZE PUSH2 0x7DC JUMP JUMPDEST PUSH2 0x89C JUMP JUMPDEST POP POP CALLVALUE PUSH2 0x117 JUMPI DUP2 PUSH1 0x3 NOT CALLDATASIZE ADD SLT PUSH2 0x117 JUMPI PUSH1 0x20 SWAP1 PUSH1 0x3 SLOAD SWAP1 MLOAD SWAP1 DUP2 MSTORE RETURN JUMPDEST POP POP CALLVALUE PUSH2 0x117 JUMPI DUP2 PUSH1 0x3 NOT CALLDATASIZE ADD SLT PUSH2 0x117 JUMPI PUSH1 0x2 SWAP2 DUP3 SLOAD SWAP1 PUSH2 0x5ED DUP3 PUSH2 0xA11 JUMP JUMPDEST SWAP3 PUSH2 0x5F7 DUP4 PUSH2 0xA11 JUMP JUMPDEST PUSH2 0x600 DUP5 PUSH2 0x9F9 JUMP JUMPDEST SWAP1 PUSH2 0x60D DUP4 MLOAD SWAP3 DUP4 PUSH2 0x9C1 JUMP JUMPDEST DUP5 DUP3 MSTORE PUSH2 0x619 DUP6 PUSH2 0x9F9 JUMP JUMPDEST PUSH1 0x20 SWAP8 DUP4 DUP10 ADD SWAP7 SWAP2 PUSH1 0x1F NOT ADD CALLDATASIZE DUP9 CALLDATACOPY PUSH32 0x0 DUP7 JUMPDEST DUP4 DUP2 LT PUSH2 0x6B9 JUMPI POP POP POP POP SWAP6 DUP1 SWAP2 PUSH2 0x680 PUSH2 0x673 SWAP9 DUP6 MLOAD SWAP10 DUP11 SWAP10 PUSH1 0x60 DUP12 MSTORE PUSH1 0x60 DUP12 ADD SWAP1 PUSH2 0x7A8 JUMP JUMPDEST SWAP1 DUP10 DUP3 SUB DUP6 DUP12 ADD MSTORE PUSH2 0x7A8 JUMP JUMPDEST SWAP4 DUP8 DUP6 SUB SWAP1 DUP9 ADD MSTORE MLOAD SWAP3 DUP4 DUP2 MSTORE ADD SWAP4 SWAP3 JUMPDEST DUP3 DUP2 LT PUSH2 0x6A0 JUMPI POP POP POP POP SUB SWAP1 RETURN JUMPDEST DUP4 MLOAD ISZERO ISZERO DUP6 MSTORE DUP7 SWAP6 POP SWAP4 DUP2 ADD SWAP4 SWAP3 DUP2 ADD SWAP3 PUSH1 0x1 ADD PUSH2 0x691 JUMP JUMPDEST DUP1 DUP11 PUSH2 0x6E2 DUP3 PUSH2 0x6DC SWAP14 SWAP15 SWAP12 SWAP11 SWAP13 SWAP14 PUSH2 0x6D4 PUSH2 0x720 SWAP7 PUSH2 0x807 JUMP JUMPDEST POP SLOAD DUP8 PUSH2 0x9B4 JUMP JUMPDEST SWAP3 PUSH2 0xA43 JUMP JUMPDEST MSTORE PUSH1 0x1 PUSH2 0x6EE DUP3 PUSH2 0x807 JUMP JUMPDEST POP ADD SLOAD PUSH2 0x6FB DUP3 DUP9 PUSH2 0xA43 JUMP JUMPDEST MSTORE PUSH1 0xFF DUP5 PUSH2 0x708 DUP4 PUSH2 0x807 JUMP JUMPDEST POP ADD SLOAD AND PUSH2 0x716 DUP3 DUP10 PUSH2 0xA43 JUMP JUMPDEST SWAP1 ISZERO ISZERO SWAP1 MSTORE PUSH2 0x98F JUMP JUMPDEST SWAP10 SWAP9 SWAP8 SWAP6 SWAP7 SWAP10 PUSH2 0x64B JUMP JUMPDEST SWAP1 POP CALLVALUE PUSH2 0x1E6 JUMPI PUSH1 0x20 CALLDATASIZE PUSH1 0x3 NOT ADD SLT PUSH2 0x1E6 JUMPI DUP2 PUSH1 0x20 SWAP4 PUSH1 0x1 SWAP3 CALLDATALOAD DUP2 MSTORE DUP1 DUP6 MSTORE KECCAK256 ADD SLOAD SWAP1 MLOAD SWAP1 DUP2 MSTORE RETURN JUMPDEST DUP5 SWAP2 CALLVALUE PUSH2 0x1E6 JUMPI PUSH1 0x20 CALLDATASIZE PUSH1 0x3 NOT ADD SLT PUSH2 0x1E6 JUMPI CALLDATALOAD PUSH4 0xFFFFFFFF PUSH1 0xE0 SHL DUP2 AND DUP1 SWAP2 SUB PUSH2 0x1E6 JUMPI PUSH1 0x20 SWAP3 POP PUSH4 0x7965DB0B PUSH1 0xE0 SHL DUP2 EQ SWAP1 DUP2 ISZERO PUSH2 0x797 JUMPI JUMPDEST POP ISZERO ISZERO DUP2 MSTORE RETURN JUMPDEST PUSH4 0x1FFC9A7 PUSH1 0xE0 SHL EQ SWAP1 POP DUP4 PUSH2 0x790 JUMP JUMPDEST SWAP1 DUP2 MLOAD DUP1 DUP3 MSTORE PUSH1 0x20 DUP1 DUP1 SWAP4 ADD SWAP4 ADD SWAP2 PUSH1 0x0 JUMPDEST DUP3 DUP2 LT PUSH2 0x7C8 JUMPI POP POP POP POP SWAP1 JUMP JUMPDEST DUP4 MLOAD DUP6 MSTORE SWAP4 DUP2 ADD SWAP4 SWAP3 DUP2 ADD SWAP3 PUSH1 0x1 ADD PUSH2 0x7BA JUMP JUMPDEST PUSH1 0x40 SWAP1 PUSH1 0x3 NOT ADD SLT PUSH2 0x802 JUMPI PUSH1 0x4 CALLDATALOAD SWAP1 PUSH1 0x24 CALLDATALOAD PUSH1 0x1 PUSH1 0x1 PUSH1 0xA0 SHL SUB DUP2 AND DUP2 SUB PUSH2 0x802 JUMPI SWAP1 JUMP JUMPDEST PUSH1 0x0 DUP1 REVERT JUMPDEST PUSH1 0x2 SLOAD DUP2 LT ISZERO PUSH2 0x842 JUMPI PUSH1 0x3 SWAP1 PUSH1 0x2 PUSH1 0x0 MSTORE MUL PUSH32 0x405787FA12A823E0F2B7631CC41B3BA8828B3321CA811111FA75CD3AA3BB5ACE ADD SWAP1 PUSH1 0x0 SWAP1 JUMP JUMPDEST PUSH4 0x4E487B71 PUSH1 0xE0 SHL PUSH1 0x0 MSTORE PUSH1 0x32 PUSH1 0x4 MSTORE PUSH1 0x24 PUSH1 0x0 REVERT JUMPDEST DUP1 PUSH1 0x0 MSTORE PUSH1 0x0 PUSH1 0x20 MSTORE PUSH1 0x40 PUSH1 0x0 KECCAK256 CALLER PUSH1 0x0 MSTORE PUSH1 0x20 MSTORE PUSH1 0xFF PUSH1 0x40 PUSH1 0x0 KECCAK256 SLOAD AND ISZERO PUSH2 0x87E JUMPI POP JUMP JUMPDEST PUSH1 0x44 SWAP1 PUSH1 0x40 MLOAD SWAP1 PUSH4 0xE2517D3F PUSH1 0xE0 SHL DUP3 MSTORE CALLER PUSH1 0x4 DUP4 ADD MSTORE PUSH1 0x24 DUP3 ADD MSTORE REVERT JUMPDEST SWAP1 PUSH1 0x0 SWAP2 DUP1 DUP4 MSTORE DUP3 PUSH1 0x20 MSTORE PUSH1 0x40 DUP4 KECCAK256 SWAP2 PUSH1 0x1 DUP1 PUSH1 0xA0 SHL SUB AND SWAP2 DUP3 DUP5 MSTORE PUSH1 0x20 MSTORE PUSH1 0xFF PUSH1 0x40 DUP5 KECCAK256 SLOAD AND ISZERO PUSH1 0x0 EQ PUSH2 0x915 JUMPI DUP1 DUP4 MSTORE DUP3 PUSH1 0x20 MSTORE PUSH1 0x40 DUP4 KECCAK256 DUP3 DUP5 MSTORE PUSH1 0x20 MSTORE PUSH1 0x40 DUP4 KECCAK256 PUSH1 0x1 PUSH1 0xFF NOT DUP3 SLOAD AND OR SWAP1 SSTORE PUSH32 0x2F8788117E7EFF1D82E926EC794901D17C78024A50270940304540A733656F0D CALLER SWAP4 DUP1 LOG4 PUSH1 0x1 SWAP1 JUMP JUMPDEST POP POP SWAP1 JUMP JUMPDEST SWAP1 PUSH1 0x0 SWAP2 DUP1 DUP4 MSTORE DUP3 PUSH1 0x20 MSTORE PUSH1 0x40 DUP4 KECCAK256 SWAP2 PUSH1 0x1 DUP1 PUSH1 0xA0 SHL SUB AND SWAP2 DUP3 DUP5 MSTORE PUSH1 0x20 MSTORE PUSH1 0xFF PUSH1 0x40 DUP5 KECCAK256 SLOAD AND PUSH1 0x0 EQ PUSH2 0x915 JUMPI DUP1 DUP4 MSTORE DUP3 PUSH1 0x20 MSTORE PUSH1 0x40 DUP4 KECCAK256 DUP3 DUP5 MSTORE PUSH1 0x20 MSTORE PUSH1 0x40 DUP4 KECCAK256 PUSH1 0xFF NOT DUP2 SLOAD AND SWAP1 SSTORE PUSH32 0xF6391F5C32D9C69D2A47EA670B442974B53935D1EDC7FD64EB21E047A839171B CALLER SWAP4 DUP1 LOG4 PUSH1 0x1 SWAP1 JUMP JUMPDEST PUSH1 0x0 NOT DUP2 EQ PUSH2 0x99E JUMPI PUSH1 0x1 ADD SWAP1 JUMP JUMPDEST PUSH4 0x4E487B71 PUSH1 0xE0 SHL PUSH1 0x0 MSTORE PUSH1 0x11 PUSH1 0x4 MSTORE PUSH1 0x24 PUSH1 0x0 REVERT JUMPDEST SWAP2 SWAP1 DUP3 ADD DUP1 SWAP3 GT PUSH2 0x99E JUMPI JUMP JUMPDEST SWAP1 PUSH1 0x1F DUP1 NOT SWAP2 ADD AND DUP2 ADD SWAP1 DUP2 LT PUSH8 0xFFFFFFFFFFFFFFFF DUP3 GT OR PUSH2 0x9E3 JUMPI PUSH1 0x40 MSTORE JUMP JUMPDEST PUSH4 0x4E487B71 PUSH1 0xE0 SHL PUSH1 0x0 MSTORE PUSH1 0x41 PUSH1 0x4 MSTORE PUSH1 0x24 PUSH1 0x0 REVERT JUMPDEST PUSH8 0xFFFFFFFFFFFFFFFF DUP2 GT PUSH2 0x9E3 JUMPI PUSH1 0x5 SHL PUSH1 0x20 ADD SWAP1 JUMP JUMPDEST SWAP1 PUSH2 0xA1B DUP3 PUSH2 0x9F9 JUMP JUMPDEST PUSH2 0xA28 PUSH1 0x40 MLOAD SWAP2 DUP3 PUSH2 0x9C1 JUMP JUMPDEST DUP3 DUP2 MSTORE DUP1 SWAP3 PUSH2 0xA39 PUSH1 0x1F NOT SWAP2 PUSH2 0x9F9 JUMP JUMPDEST ADD SWAP1 PUSH1 0x20 CALLDATASIZE SWAP2 ADD CALLDATACOPY JUMP JUMPDEST DUP1 MLOAD DUP3 LT ISZERO PUSH2 0x842 JUMPI PUSH1 0x20 SWAP2 PUSH1 0x5 SHL ADD ADD SWAP1 JUMP INVALID LOG2 PUSH5 0x6970667358 0x22 SLT KECCAK256 0xAB 0xD 0xBA 0xD7 BALANCE 0x4E PUSH20 0xD77BF03DF8EDAC5C8D9B05024F87D1F2E40E2234 0xAA SWAP10 PUSH1 0x61 DIV PUSH5 0x736F6C6343 STOP ADDMOD EQ STOP CALLER 0x2F DUP8 DUP9 GT PUSH31 0x7EFF1D82E926EC794901D17C78024A50270940304540A733656F0D00000000 "},"methodIdentifiers":{"BENEFICIARY_ROLE()":"ced3a403","DEFAULT_ADMIN_ROLE()":"a217fddf","claim()":"4e71d92d","getClaimable()":"ee28b744","getRoleAdmin(bytes32)":"248a9ca3","getSchedule()":"26fadbe2","grantRole(bytes32,address)":"2f2ff15d","hasRole(bytes32,address)":"91d14854","renounceRole(bytes32,address)":"36568abe","revokeRole(bytes32,address)":"d547741f","schedules(uint256)":"bdc6d9ab","startTime()":"78e97925","supportsInterface(bytes4)":"01ffc9a7","token()":"fc0c546a","totalClaimed()":"d54ad2a1","totalVestingAmount()":"2db94d19"}}}}}