{"contracts/fairlaunch/FairlaunchFactory.sol":{"FairlaunchFactory":{"abi":[{"inputs":[{"internalType":"uint256","name":"_deploymentFee","type":"uint256"},{"internalType":"address","name":"_feeSplitter","type":"address"},{"internalType":"address","name":"_treasuryWallet","type":"address"},{"internalType":"address","name":"_adminExecutor","type":"address"}],"stateMutability":"nonpayable","type":"constructor"},{"inputs":[],"name":"AccessControlBadConfirmation","type":"error"},{"inputs":[{"internalType":"address","name":"account","type":"address"},{"internalType":"bytes32","name":"neededRole","type":"bytes32"}],"name":"AccessControlUnauthorizedAccount","type":"error"},{"inputs":[],"name":"FeeTransferFailed","type":"error"},{"inputs":[],"name":"InsufficientDeploymentFee","type":"error"},{"inputs":[],"name":"InsufficientLPLockDuration","type":"error"},{"inputs":[],"name":"InsufficientLiquidityPercent","type":"error"},{"inputs":[],"name":"InvalidContributionRange","type":"error"},{"inputs":[],"name":"InvalidSoftcap","type":"error"},{"inputs":[],"name":"InvalidTimeRange","type":"error"},{"inputs":[],"name":"ZeroAddress","type":"error"},{"anonymous":false,"inputs":[{"indexed":true,"internalType":"uint256","name":"fairlaunchId","type":"uint256"},{"indexed":true,"internalType":"address","name":"fairlaunch","type":"address"},{"indexed":true,"internalType":"address","name":"vesting","type":"address"},{"indexed":false,"internalType":"address","name":"projectToken","type":"address"}],"name":"FairlaunchCreated","type":"event"},{"anonymous":false,"inputs":[{"indexed":true,"internalType":"address","name":"fairlaunch","type":"address"},{"indexed":false,"internalType":"uint256","name":"lockMonths","type":"uint256"},{"indexed":false,"internalType":"bytes32","name":"dexId","type":"bytes32"},{"indexed":false,"internalType":"uint256","name":"liquidityPercent","type":"uint256"}],"name":"LPPlanRecorded","type":"event"},{"anonymous":false,"inputs":[{"indexed":true,"internalType":"bytes32","name":"role","type":"bytes32"},{"indexed":true,"internalType":"bytes32","name":"previousAdminRole","type":"bytes32"},{"indexed":true,"internalType":"bytes32","name":"newAdminRole","type":"bytes32"}],"name":"RoleAdminChanged","type":"event"},{"anonymous":false,"inputs":[{"indexed":true,"internalType":"bytes32","name":"role","type":"bytes32"},{"indexed":true,"internalType":"address","name":"account","type":"address"},{"indexed":true,"internalType":"address","name":"sender","type":"address"}],"name":"RoleGranted","type":"event"},{"anonymous":false,"inputs":[{"indexed":true,"internalType":"bytes32","name":"role","type":"bytes32"},{"indexed":true,"internalType":"address","name":"account","type":"address"},{"indexed":true,"internalType":"address","name":"sender","type":"address"}],"name":"RoleRevoked","type":"event"},{"inputs":[],"name":"DEFAULT_ADMIN_ROLE","outputs":[{"internalType":"bytes32","name":"","type":"bytes32"}],"stateMutability":"view","type":"function"},{"inputs":[],"name":"DEPLOYMENT_FEE","outputs":[{"internalType":"uint256","name":"","type":"uint256"}],"stateMutability":"view","type":"function"},{"inputs":[],"name":"FACTORY_ADMIN_ROLE","outputs":[{"internalType":"bytes32","name":"","type":"bytes32"}],"stateMutability":"view","type":"function"},{"inputs":[],"name":"adminExecutor","outputs":[{"internalType":"address","name":"","type":"address"}],"stateMutability":"view","type":"function"},{"inputs":[{"components":[{"internalType":"address","name":"projectToken","type":"address"},{"internalType":"address","name":"paymentToken","type":"address"},{"internalType":"uint256","name":"softcap","type":"uint256"},{"internalType":"uint256","name":"tokensForSale","type":"uint256"},{"internalType":"uint256","name":"minContribution","type":"uint256"},{"internalType":"uint256","name":"maxContribution","type":"uint256"},{"internalType":"uint256","name":"startTime","type":"uint256"},{"internalType":"uint256","name":"endTime","type":"uint256"},{"internalType":"address","name":"projectOwner","type":"address"},{"internalType":"uint16","name":"listingPremiumBps","type":"uint16"}],"internalType":"struct FairlaunchFactory.CreateFairlaunchParams","name":"params","type":"tuple"},{"components":[{"internalType":"address","name":"beneficiary","type":"address"},{"internalType":"uint256","name":"startTime","type":"uint256"},{"internalType":"uint256[]","name":"durations","type":"uint256[]"},{"internalType":"uint256[]","name":"amounts","type":"uint256[]"}],"internalType":"struct FairlaunchFactory.TeamVestingParams","name":"vestingParams","type":"tuple"},{"components":[{"internalType":"uint256","name":"lockMonths","type":"uint256"},{"internalType":"uint256","name":"liquidityPercent","type":"uint256"},{"internalType":"bytes32","name":"dexId","type":"bytes32"}],"internalType":"struct FairlaunchFactory.LPLockPlan","name":"lpPlan","type":"tuple"}],"name":"createFairlaunch","outputs":[{"internalType":"address","name":"fairlaunch","type":"address"},{"internalType":"address","name":"vesting","type":"address"}],"stateMutability":"payable","type":"function"},{"inputs":[],"name":"fairlaunchCount","outputs":[{"internalType":"uint256","name":"","type":"uint256"}],"stateMutability":"view","type":"function"},{"inputs":[{"internalType":"address","name":"","type":"address"}],"name":"fairlaunchToLPPlan","outputs":[{"internalType":"uint256","name":"lockMonths","type":"uint256"},{"internalType":"uint256","name":"liquidityPercent","type":"uint256"},{"internalType":"bytes32","name":"dexId","type":"bytes32"}],"stateMutability":"view","type":"function"},{"inputs":[{"internalType":"address","name":"","type":"address"}],"name":"fairlaunchToVesting","outputs":[{"internalType":"address","name":"","type":"address"}],"stateMutability":"view","type":"function"},{"inputs":[{"internalType":"uint256","name":"","type":"uint256"}],"name":"fairlaunches","outputs":[{"internalType":"address","name":"","type":"address"}],"stateMutability":"view","type":"function"},{"inputs":[],"name":"feeSplitter","outputs":[{"internalType":"address","name":"","type":"address"}],"stateMutability":"view","type":"function"},{"inputs":[{"internalType":"uint256","name":"fairlaunchId","type":"uint256"}],"name":"getFairlaunchDetails","outputs":[{"internalType":"address","name":"fairlaunch","type":"address"},{"internalType":"address","name":"vesting","type":"address"},{"components":[{"internalType":"uint256","name":"lockMonths","type":"uint256"},{"internalType":"uint256","name":"liquidityPercent","type":"uint256"},{"internalType":"bytes32","name":"dexId","type":"bytes32"}],"internalType":"struct FairlaunchFactory.LPLockPlan","name":"lpPlan","type":"tuple"}],"stateMutability":"view","type":"function"},{"inputs":[{"internalType":"bytes32","name":"role","type":"bytes32"}],"name":"getRoleAdmin","outputs":[{"internalType":"bytes32","name":"","type":"bytes32"}],"stateMutability":"view","type":"function"},{"inputs":[{"internalType":"bytes32","name":"role","type":"bytes32"},{"internalType":"address","name":"account","type":"address"}],"name":"grantRole","outputs":[],"stateMutability":"nonpayable","type":"function"},{"inputs":[{"internalType":"bytes32","name":"role","type":"bytes32"},{"internalType":"address","name":"account","type":"address"}],"name":"hasRole","outputs":[{"internalType":"bool","name":"","type":"bool"}],"stateMutability":"view","type":"function"},{"inputs":[{"internalType":"bytes32","name":"role","type":"bytes32"},{"internalType":"address","name":"callerConfirmation","type":"address"}],"name":"renounceRole","outputs":[],"stateMutability":"nonpayable","type":"function"},{"inputs":[{"internalType":"bytes32","name":"role","type":"bytes32"},{"internalType":"address","name":"account","type":"address"}],"name":"revokeRole","outputs":[],"stateMutability":"nonpayable","type":"function"},{"inputs":[{"internalType":"bytes4","name":"interfaceId","type":"bytes4"}],"name":"supportsInterface","outputs":[{"internalType":"bool","name":"","type":"bool"}],"stateMutability":"view","type":"function"},{"inputs":[],"name":"treasuryWallet","outputs":[{"internalType":"address","name":"","type":"address"}],"stateMutability":"view","type":"function"}],"evm":{"bytecode":{"linkReferences":{},"object":"610100346200013157601f620047ed38819003918201601f191683019291906001600160401b0384118385101762000136578160809284926040968752833981010312620001315780519062000058602082016200014c565b6200007360606200006b8685016200014c565b93016200014c565b926001600160a01b038281161562000120578084161562000120578416156200010f5760e05260805260a05260c052620000ad3362000161565b50620000b933620001e1565b505161454990816200028482396080518181816102f4015261062c015260a0518181816104c601526109d9015260c051818181610669015281816108dd0152610b23015260e0518181816101d501526104170152f35b845163d92e233d60e01b8152600490fd5b855163d92e233d60e01b8152600490fd5b600080fd5b634e487b7160e01b600052604160045260246000fd5b51906001600160a01b03821682036200013157565b6001600160a01b031660008181527fad3228b676f7d3cd4284a5443f17f1962b36e491b30a40b2405849e597ba5fb5602052604081205490919060ff16620001dd57818052816020526040822081835260205260408220600160ff198254161790553391600080516020620047cd8339815191528180a4600190565b5090565b6001600160a01b031660008181527f40d6054e7c1e32abf36e71c717b2201c6fb50ee4639813ce060d4f8ffbb78bdd60205260408120549091907fbd5d72ac35ae1e83aa0625c57eddda63fbb064a87fca99dfdd7ce027384ae2829060ff166200027e57808352826020526040832082845260205260408320600160ff19825416179055600080516020620047cd833981519152339380a4600190565b50509056fe60808060405260043610156200001457600080fd5b60003560e01c90816301ffc9a71462000b52575080631d1b49d31462000b0b578063248a9ca31462000ada5780632f2ff15d1462000a935780633360cf5e1462000a5657806336568abe1462000a085780634626402b14620009c157806347fce11914620003c95780635148695f14620003235780636052970c14620002dc57806391d14854146200028b5780639e1f288e146200026b578063a186d14f1462000216578063a217fddf14620001f8578063a8f3225114620001bb578063d547741f1462000172578063e0fe61fe14620001335763e249cbec14620000f857600080fd5b346200012e5760203660031901126200012e576004356000526002602052602060018060a01b0360406000205416604051908152f35b600080fd5b346200012e5760203660031901126200012e5760206001600160a01b03806200015b62000bc1565b166000526003825260406000205416604051908152f35b346200012e5760403660031901126200012e57620001b96004356200019662000baa565b90806000526000602052620001b360016040600020015462000bd8565b62000c9c565b005b346200012e5760003660031901126200012e5760206040517f00000000000000000000000000000000000000000000000000000000000000008152f35b346200012e5760003660031901126200012e57602060405160008152f35b346200012e5760203660031901126200012e576001600160a01b036200023b62000bc1565b16600052600460205260606040600020805490600260018201549101549060405192835260208301526040820152f35b346200012e5760003660031901126200012e576020600154604051908152f35b346200012e5760403660031901126200012e57620002a862000baa565b600435600052600060205260406000209060018060a01b0316600052602052602060ff604060002054166040519015158152f35b346200012e5760003660031901126200012e576040517f00000000000000000000000000000000000000000000000000000000000000006001600160a01b03168152602090f35b346200012e576020806003193601126200012e5760a090600060406200034862000d12565b8281528284820152015260043560005260028152600180831b0390816040600020541691826000526003825260406000205416600482526040600020906200038f62000d12565b9082548252600260018401549385840194855201549360408301948552604051958652850152516040840152516060830152516080820152f35b6003193681016101c081126200012e57610140136200012e5767ffffffffffffffff61014435116200012e5760809061014435360301126200012e576060366101631901126200012e5760007f00000000000000000000000000000000000000000000000000000000000000003410620009af57604435156200099d5760e43560c43510156200098b574260c43511156200098b5760a435608435116200097957608435156200097957600c61016435106200096757611b58610184351062000955576001600160a01b036200049e62000d6c565b161562000943576001600160a01b03620004b762000d83565b161562000943576000808080347f00000000000000000000000000000000000000000000000000000000000000005af13d156200093d573d67ffffffffffffffff8111620007ff5760405190601f1967ffffffffffffffff601f83018216603f018216840190811190841117620007ff57603f81601f840116011682016040528152600060203d92013e5b156200092b5760646101443501610144356004019062000563818362000d33565b905062000815575b50506200057762000d6c565b602435916001600160a01b03831683036200012e57610124359161ffff831683036200012e57620005a762000d83565b92604051948561274f81011067ffffffffffffffff61274f88011117620007ff5761ffff9261274f62000dc188396001600160a01b0390811661274f8801908152918116602083015260443560408301526064356060830152608435608083015260a43560a083015260c43560c083015260e43560e0830152929091166101008201527f0000000000000000000000000000000000000000000000000000000000000000821661012082015291811661014083018190529281166101608301527f000000000000000000000000000000000000000000000000000000000000000016610180820152610184356101a0820152610164356101c08201526101a4356101e08201819052929081900361020001906000f08015620007f35760018060a01b031690600154600052600260205260406000206bffffffffffffffffffffffff60a01b90838282541617905581620007d6575b5081600052600460205282600260406000206101643581556101843560018201550155817fda79e99dc31a6b02a1a6d9e3758c6d0ef34606738cc48a1ff703d6566b0406266060600154958484887f83690fc050263340e4f4dd8cb0061beabb83623cc56df48714b6ad16a68b1ab360206200077762000d6c565b6040516001600160a01b039091168152a4604051906101643582526020820152610184356040820152a26000198314620007c05760016040930160015582519182526020820152f35b634e487b7160e01b600052601160045260246000fd5b8260005260036020528160406000209182541617905583620006fc565b6040513d6000823e3d90fd5b634e487b7160e01b600052604160045260246000fd5b9091506200082262000d6c565b8235906001600160a01b03821682036200012e57620008556200084c604461014435018662000d33565b94909562000d33565b9091604051958661100481011067ffffffffffffffff61100489011117620007ff578695620008db95620008c493611004620035108a396001600160a01b039081166110048a01908152911660208201526101443560240135604082015260c060608201819052019162000d9b565b916110048501830360806110048701015262000d9b565b7f00000000000000000000000000000000000000000000000000000000000000006001600160a01b0316611004830160a0015203906000f08015620007f3576001600160a01b031681806200056b565b604051634033e4e360e01b8152600490fd5b62000542565b60405163d92e233d60e01b8152600490fd5b604051634c87d75360e11b8152600490fd5b6040516376a12a0f60e11b8152600490fd5b60405163102df2a160e11b8152600490fd5b60405163536a71af60e01b8152600490fd5b604051636858a31f60e11b8152600490fd5b6040516354605d0160e11b8152600490fd5b346200012e5760003660031901126200012e576040517f00000000000000000000000000000000000000000000000000000000000000006001600160a01b03168152602090f35b346200012e5760403660031901126200012e5762000a2562000baa565b336001600160a01b0382160362000a4457620001b99060043562000c9c565b60405163334bd91960e11b8152600490fd5b346200012e5760003660031901126200012e5760206040517fbd5d72ac35ae1e83aa0625c57eddda63fbb064a87fca99dfdd7ce027384ae2828152f35b346200012e5760403660031901126200012e57620001b960043562000ab762000baa565b9080600052600060205262000ad460016040600020015462000bd8565b62000c1d565b346200012e5760203660031901126200012e5760043560005260006020526020600160406000200154604051908152f35b346200012e5760003660031901126200012e576040517f00000000000000000000000000000000000000000000000000000000000000006001600160a01b03168152602090f35b346200012e5760203660031901126200012e576004359063ffffffff60e01b82168092036200012e57602091637965db0b60e01b811490811562000b98575b5015158152f35b6301ffc9a760e01b1490508362000b91565b602435906001600160a01b03821682036200012e57565b600435906001600160a01b03821682036200012e57565b80600052600060205260406000203360005260205260ff604060002054161562000bff5750565b6044906040519063e2517d3f60e01b82523360048301526024820152fd5b9060009180835282602052604083209160018060a01b03169182845260205260ff6040842054161560001462000c9757808352826020526040832082845260205260408320600160ff198254161790557f2f8788117e7eff1d82e926ec794901d17c78024a50270940304540a733656f0d339380a4600190565b505090565b9060009180835282602052604083209160018060a01b03169182845260205260ff60408420541660001462000c975780835282602052604083208284526020526040832060ff1981541690557ff6391f5c32d9c69d2a47ea670b442974b53935d1edc7fd64eb21e047a839171b339380a4600190565b604051906060820182811067ffffffffffffffff821117620007ff57604052565b903590601e19813603018212156200012e570180359067ffffffffffffffff82116200012e57602001918160051b360383136200012e57565b6004356001600160a01b03811681036200012e5790565b610104356001600160a01b03811681036200012e5790565b81835290916001600160fb1b0383116200012e5760209260051b80928483013701019056fe34620003ed576200274f38819003610280601f8201601f19168101906001600160401b03821190821017620003f2576102009282916040526102803912620003ed576200004e61028062000408565b6200005b6102a062000408565b6102c0516102e051610300516103205161034051610360516103805195979590949392919061ffff81168103620003ed5762000175956200009e6103a062000408565b92620000ac6103c062000408565b94620000ba6103e062000408565b96620000c861040062000408565b986101a061028001519d6101c061028001519d6101e061028001519d6001805560805260a05260c05260e05261010052610120526101405261016052610180526101a0526101c0526101e05261022094855261024093845261026092835260ff60a01b1960025416600255603846148015620003e2575b600090156200034e57507310ed43c718714eb63d5aa57b78b54704e256024e5b610200526200016e816200041d565b506200049d565b50604051916121ef93846200054085396080518481816109d101528181610abc01528181611543015281816115ca015281816117050152818161199201528181611a0b01528181611c400152611d59015260a0518481816102fb01528181610669015281816108ac01528181610c56015281816114100152818161157b015281816118720152818161194c01528181611be801528181611c6e01528181611d810152611ec7015260c05184818161022a015261137c015260e051848181610a6c01528181610d56015281816113c3015281816114cb015281816119d4015261217f015261010051848181610476015261117e01526101205184818161059901526111c8015261014051848181610725015281816120870152612117015261016051848181610c1e0152818161205d01526120ed01526101805184610d9401526101a05184818161081a0152818161143e0152611ea601526101c0518481816107d6015261183601526101e0518481816104ae01526117fd015261020051848181610dcd015281816114fe0152818161161b0152818161165e015281816116ad01528181611ba701528181611cc60152611d0901525183818161043b01526114990152518281816105d4015261179d01525181610cf10152f35b600146148015620003d5575b156200037c5750737a250d5630b4cf539739df2c5dacb4c659f2488d6200015f565b6121054614908115620003c7575b5015620003ac57734752ba5dbc23f44d87826276bf6fd6b1c372ad246200015f565b737a250d5630b4cf539739df2c5dacb4c659f2488d6200015f565b4662014a341491506200038a565b5062aa36a746146200035a565b50606146146200013f565b600080fd5b634e487b7160e01b600052604160045260246000fd5b51906001600160a01b0382168203620003ed57565b6001600160a01b031660008181527fad3228b676f7d3cd4284a5443f17f1962b36e491b30a40b2405849e597ba5fb5602052604081205490919060ff166200049957818052816020526040822081835260205260408220600160ff1982541617905533916000805160206200272f8339815191528180a4600190565b5090565b6001600160a01b031660008181527f7d7ffb7a348e1c6a02869081a26547b49160dd3df72d1d75a570eb9b698292ec60205260408120549091907fa49807205ce4d355092ef5a8a18f56e8913cf4a201fbe287825b095693c217759060ff166200053a57808352826020526040832082845260205260408320600160ff198254161790556000805160206200272f833981519152339380a4600190565b50509056fe608060408181526004918236101561001657600080fd5b600092833560e01c91826301ffc9a714610e255750816303fc201314610dfc5781630758d92414610db85781630b7c1ae114610d7957816312aef8c314610d3e5781631cc64544146104f8578163200d2ed214610d14578163220c095614610cd9578163248a9ca314610caf5781632f2ff15d14610c855781633013ce2914610c415781633197cbb614610c06578163362f04c014610be857816336568abe14610ba25781633f4ba83a14610b5757816342e94c901461039757816348c54b9d14610a005781634b60ce77146109bc5781634bb278f31461099b5781634e69d5601461096e578163590e1ae3146108495781636052970c14610805578163619f3d6c146107c157816373b2e80e1461078357816375b238fc1461074857816378e979251461070d5781638160059a146106495781638456cb59146105f75781638bcd8515146105bc5781638d3d6576146105815781638d4e40831461055d57816391d14854146105175781639ce05df7146104f8578163a217fddf146104dd578163a4475ce414610499578163aaffadf31461045e578163b068375514610423578163b187bd26146103fc578163b920ade2146103cf578163bb8b2b4714610397578163c5c4744c14610378578163d547741f14610339578163d7bb99ba146102e3578163ea8a1af014610251575063f89be5931461021457600080fd5b3461024d578160031936011261024d57602090517f00000000000000000000000000000000000000000000000000000000000000008152f35b5080fd5b9050346102df57826003193601126102df5761026b610ed2565b6002549160ff8360a01c1660068110156102cc576003146102bf57505060ff60a01b1916600560a01b176002557f63b958841f79ab97cb5456da181454b9932c0e15a3b17f1cbd27e2a8bc6104378180a180f35b516307a92f1960e51b8152fd5b634e487b7160e01b855260218352602485fd5b8280fd5b919050826003193601126102df576102f9611065565b7f00000000000000000000000000000000000000000000000000000000000000006001600160a01b03166102bf5782610332343361114b565b6001805580f35b919050346102df57806003193601126102df57610374913561036f600161035e610ea1565b938387528660205286200154610f4c565b610ff0565b5080f35b50503461024d578160031936011261024d576020906003549051908152f35b50503461024d57602036600319011261024d5760209181906001600160a01b036103bf610ebc565b1681526007845220549051908152f35b50503461024d57602036600319011261024d576020906103f56103f0610ebc565b61213e565b9051908152f35b50503461024d578160031936011261024d5760209060ff60065460081c1690519015158152f35b50503461024d578160031936011261024d57602090517f00000000000000000000000000000000000000000000000000000000000000008152f35b50503461024d578160031936011261024d57602090517f00000000000000000000000000000000000000000000000000000000000000008152f35b50503461024d578160031936011261024d57517f00000000000000000000000000000000000000000000000000000000000000006001600160a01b03168152602090f35b50503461024d578160031936011261024d5751908152602090f35b50503461024d578160031936011261024d576020906005549051908152f35b9050346102df57816003193601126102df578160209360ff92610538610ea1565b903582528186528282206001600160a01b039091168252855220549151911615158152f35b50503461024d578160031936011261024d5760209060ff6006541690519015158152f35b50503461024d578160031936011261024d57602090517f00000000000000000000000000000000000000000000000000000000000000008152f35b50503461024d578160031936011261024d57602090517f00000000000000000000000000000000000000000000000000000000000000008152f35b8334610646578060031936011261064657610610610ed2565b61010061ff001960065416176006557f9e87fac88ff661f02d44f95383c817fece4bce600a3dab7a54406878b965e7528180a180f35b80fd5b83833461024d57602036600319011261024d57823590610667611065565b7f00000000000000000000000000000000000000000000000000000000000000006001600160a01b031680156106fd5781516323b872dd60e01b6020820152336024820152306044820152606480820185905281529160a083019067ffffffffffffffff8211848310176106ea575261033292916106e4916110c0565b3361114b565b634e487b7160e01b865260418752602486fd5b81516307a92f1960e51b81528590fd5b50503461024d578160031936011261024d57602090517f00000000000000000000000000000000000000000000000000000000000000008152f35b50503461024d578160031936011261024d57602090517fa49807205ce4d355092ef5a8a18f56e8913cf4a201fbe287825b095693c217758152f35b50503461024d57602036600319011261024d5760209160ff9082906001600160a01b036107ae610ebc565b1681526008855220541690519015158152f35b50503461024d578160031936011261024d57517f00000000000000000000000000000000000000000000000000000000000000006001600160a01b03168152602090f35b50503461024d578160031936011261024d57517f00000000000000000000000000000000000000000000000000000000000000006001600160a01b03168152602090f35b919050346102df57826003193601126102df57610864611065565b60ff60025460a01c16600681101561095b5782811415908161094f575b506102bf573383526007602052808320541561094257338352600760205280832080549084905591827f00000000000000000000000000000000000000000000000000000000000000006001600160a01b03168061093157508480808093335af16108ea6112fd565b501561092357505b519081527fd7dee2702d63ad89917b6a4da9981c90c4d24f8c2bdfd64c604ecae57d8d065160203392a26001805580f35b90516312171d8360e31b8152fd5b61093d92503390611f6c565b6108f2565b5163f76aef6560e01b8152fd5b60059150141538610881565b634e487b7160e01b845260218352602484fd5b50503461024d578160031936011261024d576109979061098c6120ae565b905191829182610e78565b0390f35b83346106465780600319360112610646576109b4611065565b61033261133d565b50503461024d578160031936011261024d57517f00000000000000000000000000000000000000000000000000000000000000006001600160a01b03168152602090f35b9050346102df57826003193601126102df57610a1a611065565b60ff60025460a01c166006811015610b4457600303610b365733835260076020528183205415610b2857338352600860205260ff8284205416610b1a57503382526007602052610a9a610a91828420547f0000000000000000000000000000000000000000000000000000000000000000906112bd565b600354906112d0565b338084526008602052828420805460ff19166001179055909190610ae99083907f00000000000000000000000000000000000000000000000000000000000000006001600160a01b0316611f6c565b519081527f896e034966eaaf1adc54acc0f257056febbd300c9e47182cf761982cf1f5e43060203392a26001805580f35b9051630c8d9eab60e31b8152fd5b9051631971fbf360e21b8152fd5b90516307a92f1960e51b8152fd5b634e487b7160e01b845260218252602484fd5b8334610646578060031936011261064657610b70610ed2565b61ff0019600654166006557fa45f47fdea8a1efdd9029a5691c7f759c32b7c698632b563573e155625d169338180a180f35b83833461024d578060031936011261024d57610bbc610ea1565b90336001600160a01b03831603610bd95750610374919235610ff0565b5163334bd91960e11b81528390fd5b9050346102df57826003193601126102df5760209250549051908152f35b50503461024d578160031936011261024d57602090517f00000000000000000000000000000000000000000000000000000000000000008152f35b50503461024d578160031936011261024d57517f00000000000000000000000000000000000000000000000000000000000000006001600160a01b03168152602090f35b919050346102df57806003193601126102df576103749135610caa600161035e610ea1565b610f72565b9050346102df5760203660031901126102df57816020936001923581528085522001549051908152f35b50503461024d578160031936011261024d57602090517f00000000000000000000000000000000000000000000000000000000000000008152f35b50503461024d578160031936011261024d576109979060ff60025460a01c16905191829182610e78565b50503461024d578160031936011261024d57602090517f00000000000000000000000000000000000000000000000000000000000000008152f35b50503461024d578160031936011261024d576020905161ffff7f0000000000000000000000000000000000000000000000000000000000000000168152f35b50503461024d578160031936011261024d57517f00000000000000000000000000000000000000000000000000000000000000006001600160a01b03168152602090f35b50503461024d578160031936011261024d5760025490516001600160a01b039091168152602090f35b8491346102df5760203660031901126102df573563ffffffff60e01b81168091036102df5760209250637965db0b60e01b8114908115610e67575b5015158152f35b6301ffc9a760e01b14905083610e60565b919060208301926006821015610e8b5752565b634e487b7160e01b600052602160045260246000fd5b602435906001600160a01b0382168203610eb757565b600080fd5b600435906001600160a01b0382168203610eb757565b3360009081527f7d7ffb7a348e1c6a02869081a26547b49160dd3df72d1d75a570eb9b698292ec60205260409020547fa49807205ce4d355092ef5a8a18f56e8913cf4a201fbe287825b095693c217759060ff1615610f2e5750565b6044906040519063e2517d3f60e01b82523360048301526024820152fd5b80600052600060205260406000203360005260205260ff6040600020541615610f2e5750565b9060009180835282602052604083209160018060a01b03169182845260205260ff60408420541615600014610feb57808352826020526040832082845260205260408320600160ff198254161790557f2f8788117e7eff1d82e926ec794901d17c78024a50270940304540a733656f0d339380a4600190565b505090565b9060009180835282602052604083209160018060a01b03169182845260205260ff604084205416600014610feb5780835282602052604083208284526020526040832060ff1981541690557ff6391f5c32d9c69d2a47ea670b442974b53935d1edc7fd64eb21e047a839171b339380a4600190565b600260015414611076576002600155565b604051633ee5aeb560e01b8152600490fd5b90601f8019910116810190811067ffffffffffffffff8211176110aa57604052565b634e487b7160e01b600052604160045260246000fd5b906000602091828151910182855af11561111c576000513d61111357506001600160a01b0381163b155b6110f15750565b604051635274afe760e01b81526001600160a01b039091166004820152602490fd5b600114156110ea565b6040513d6000823e3d90fd5b9190820180921161113557565b634e487b7160e01b600052601160045260246000fd5b919091611156612001565b60ff60025460a01c166006811015610e8b576001036112ab5760ff60065460081c16611299577f000000000000000000000000000000000000000000000000000000000000000083106112875760018060a01b031660009281845260076020526040906111c68183872054611128565b7f00000000000000000000000000000000000000000000000000000000000000008111611276578386526007602052828620541561124b575b8286857ffa35a310d7113dddce1c275da946348e9aaebf9050b00b372033c4d84b0bd6eb969798526007602052205561123a81600354611128565b8060035582519182526020820152a2565b6004546000198114611262576001016004556111ff565b634e487b7160e01b87526011600452602487fd5b8251635e508cd360e11b8152600490fd5b604051636c7591b560e11b8152600490fd5b60405163ab35696f60e01b8152600490fd5b6040516307a92f1960e51b8152600490fd5b8181029291811591840414171561113557565b81156112da570490565b634e487b7160e01b600052601260045260246000fd5b9190820391821161113557565b3d15611338573d9067ffffffffffffffff82116110aa576040519161132c601f8201601f191660200184611088565b82523d6000602084013e565b606090565b611345612001565b600254600060ff8260a01c166006811015611f58576002036112ab5760065460ff81166112ab5760ff1916600117600655600354917f00000000000000000000000000000000000000000000000000000000000000008310611f215750670de0b6b3a76400009081830283159284820414831715611f0d576113e8907f0000000000000000000000000000000000000000000000000000000000000000906112d0565b6005556101f49182840292848404141715611ef95761140d61271080930480946112f0565b927f00000000000000000000000000000000000000000000000000000000000000006001600160a01b0316611ea0577f00000000000000000000000000000000000000000000000000000000000000006001600160a01b0316803b156102df5782906024604051809481936339650d1f60e01b83523060048401525af18015611b0257611e74575b505b7f0000000000000000000000000000000000000000000000000000000000000000916114ef816114c785876112bd565b04937f00000000000000000000000000000000000000000000000000000000000000006112bd565b60405163095ea7b360e01b81527f00000000000000000000000000000000000000000000000000000000000000006001600160a01b03166004820152919004602482018190529060208180604481010381867f00000000000000000000000000000000000000000000000000000000000000006001600160a01b03165af18015611b2c57611e55575b507f00000000000000000000000000000000000000000000000000000000000000006001600160a01b0316611b985761012c4201804211611b84576040519163f305d71960e01b835260018060a01b037f0000000000000000000000000000000000000000000000000000000000000000166004840152602483015282604483015282606483015230608483015260a482015260608160c4818660018060a01b037f0000000000000000000000000000000000000000000000000000000000000000165af18015611b0257611b56575b5060405163c45a015560e01b81526020816004817f00000000000000000000000000000000000000000000000000000000000000006001600160a01b03165afa908115611b02578291611b37575b506040516315ab88c960e31b8152906020826004817f00000000000000000000000000000000000000000000000000000000000000006001600160a01b03165afa918215611b2c5791602091611743938592611b0d575b5060405163e6a4390560e01b81526001600160a01b037f00000000000000000000000000000000000000000000000000000000000000008116600483015290921660248301529092839190829081906044820190565b03916001600160a01b03165afa908115611b02578291611ad3575b505b60018060a01b031692604051926370a0823160e01b90818552306004860152602085602481895afa948515611ac8578495611a94575b5062278d007f0000000000000000000000000000000000000000000000000000000000000000818102918115918304141715611a80576117d69042611128565b92867fac1d76749e5447b7b16f5ab61447e1bd502f3bb4807af3b28e620d1700a6ee4560407f0000000000000000000000000000000000000000000000000000000000000000966118288a8986611f6c565b8151908a82526020820152a27f00000000000000000000000000000000000000000000000000000000000000006001600160a01b03811661197e575b5061186f92506112f0565b907f00000000000000000000000000000000000000000000000000000000000000006001600160a01b031661191d5782809281925af16118ad6112fd565b501561190b577f6e4389167d2afbd1ccb4797ea87e29958adbf74cd16ba077a2ee5ab8460784e5916080915b600360a01b60ff60a01b19600254161760025560055491600354604051938452602084015260408301526060820152a1565b6040516312171d8360e31b8152600490fd5b7f6e4389167d2afbd1ccb4797ea87e29958adbf74cd16ba077a2ee5ab8460784e59460809490935091611979917f00000000000000000000000000000000000000000000000000000000000000006001600160a01b0316611f6c565b6118d9565b6040519384523060048501526020846024817f00000000000000000000000000000000000000000000000000000000000000006001600160a01b03165afa938415611a75578694611a3f575b506119f961186f947f0000000000000000000000000000000000000000000000000000000000000000906112f0565b80611a05575b50611864565b611a38917f00000000000000000000000000000000000000000000000000000000000000006001600160a01b0316611f6c565b38806119ff565b93506020843d602011611a6d575b81611a5a60209383611088565b81010312610eb7579251926119f96119ca565b3d9150611a4d565b6040513d88823e3d90fd5b634e487b7160e01b85526011600452602485fd5b9094506020813d602011611ac0575b81611ab060209383611088565b81010312610eb757519338611796565b3d9150611aa3565b6040513d86823e3d90fd5b611af5915060203d602011611afb575b611aed8183611088565b810190611fe2565b3861175e565b503d611ae3565b6040513d84823e3d90fd5b611b25919250833d8511611afb57611aed8183611088565b90386116ed565b6040513d85823e3d90fd5b611b50915060203d602011611afb57611aed8183611088565b38611696565b611b769060603d8111611b7d575b611b6e8183611088565b810190611fc7565b5050611648565b503d611b64565b634e487b7160e01b83526011600452602483fd5b60405163095ea7b360e01b81527f00000000000000000000000000000000000000000000000000000000000000006001600160a01b031660048201526024810184905260208180604481010381867f00000000000000000000000000000000000000000000000000000000000000006001600160a01b03165af18015611b2c57611e26575b5061012c4201804211611b84576040519162e8e33760e81b835260018060a01b037f000000000000000000000000000000000000000000000000000000000000000016600484015260018060a01b037f000000000000000000000000000000000000000000000000000000000000000016602484015260448301528360648301528260848301528260a48301523060c483015260e4820152606081610104818560018060a01b037f0000000000000000000000000000000000000000000000000000000000000000165af18015611b0257611e08575b5060405163c45a015560e01b81526020816004817f00000000000000000000000000000000000000000000000000000000000000006001600160a01b03165afa908115611b02578291611de9575b5060405163e6a4390560e01b81526001600160a01b037f0000000000000000000000000000000000000000000000000000000000000000811660048301527f000000000000000000000000000000000000000000000000000000000000000081166024830152909160209183916044918391165afa908115611b02578291611dca575b50611760565b611de3915060203d602011611afb57611aed8183611088565b38611dc4565b611e02915060203d602011611afb57611aed8183611088565b38611d41565b611e1f9060603d8111611b7d57611b6e8183611088565b5050611cf3565b611e479060203d602011611e4e575b611e3f8183611088565b810190611faf565b5038611c1d565b503d611e35565b611e6d9060203d602011611e4e57611e3f8183611088565b5038611578565b67ffffffffffffffff8111611e8c5760405238611495565b634e487b7160e01b82526041600452602482fd5b611ef4907f00000000000000000000000000000000000000000000000000000000000000007f00000000000000000000000000000000000000000000000000000000000000006001600160a01b0316611f6c565b611497565b634e487b7160e01b81526011600452602490fd5b634e487b7160e01b82526011600452602482fd5b60ff60a01b1916600160a21b176002557fe48846a3dca191c762ab6aaa1e929ccaf55e31a875fb78ad1b93e15ef4830aca915080a1565b634e487b7160e01b82526021600452602482fd5b60405163a9059cbb60e01b60208201526001600160a01b03929092166024830152604480830193909352918152611fad91611fa8606483611088565b6110c0565b565b90816020910312610eb757518015158103610eb75790565b90816060910312610eb7578051916040602083015192015190565b90816020910312610eb757516001600160a01b0381168103610eb75790565b60025460ff8160a01c166006811015610e8b57801580612084575b156120385750506002805460ff60a01b1916600160a01b179055565b6001148061205a575b6120485750565b60ff60a01b1916600160a11b17600255565b507f0000000000000000000000000000000000000000000000000000000000000000421015612041565b507f000000000000000000000000000000000000000000000000000000000000000042101561201c565b60ff60025460a01c166006811015610e8b57801580612114575b156120d35750600190565b60018114806120ea575b6120e45790565b50600290565b507f00000000000000000000000000000000000000000000000000000000000000004210156120dd565b507f00000000000000000000000000000000000000000000000000000000000000004210156120c8565b60ff60025460a01c166006811015610e8b576003036121b35760035480156121ac576121a99160018060a01b031660005260076020526121a46040600020547f0000000000000000000000000000000000000000000000000000000000000000906112bd565b6112d0565b90565b5050600090565b5060009056fea2646970667358221220a4b8c0c931fe4a9241633e43750d27f91e3689951ceaa2bc9cc9cb2a47a734fd64736f6c634300081400332f8788117e7eff1d82e926ec794901d17c78024a50270940304540a733656f0d604060c0815234620003775762001004803803806200001e816200037c565b928339810160c08282031262000377576200003982620003a2565b906020916200004a838501620003a2565b8585015160608087015190966001600160401b03939092909184811162000377578662000079918501620003b7565b9560808401519085821162000377576200009c60a091620000a4938701620003b7565b9401620003a2565b6001808055959091906001600160a01b03808216156200034357841615620002ff578751855103620002c957875115620002945792620000f78795989693620000fe938d9b999660805260a05262000434565b50620004b4565b5060009586925b62000175575b505050507f721ddaabe5cc50a5a5fdc5ce1e5636612da513f19115ed78a77b4e60665f07b494508260035551908351928352820152a151610a8d908162000557823960805181818160e801526103e9015260a05181818161017a0152818161031a015261062a0152f35b9193959092949686518510156200028857506200019384876200041f565b51620001a085846200041f565b518a51918a83018381108782111762000272578c5282528882019081528a8201916000835260029182546801000000000000000081101562000272578981018085558110156200025c578360005260038c600020910201915182555188820155019051151560ff801983541691161790556200021d84836200041f565b518101809111620002465796600019841462000246578480940191899795939198969462000105565b634e487b7160e01b600052601160045260246000fd5b634e487b7160e01b600052603260045260246000fd5b634e487b7160e01b600052604160045260246000fd5b9694819694506200010b565b8a5162461bcd60e51b8152600481018a9052600e60248201526d456d707479207363686564756c6560901b6044820152606490fd5b8a5162461bcd60e51b8152600481018a9052600f60248201526e098cadccee8d040dad2e6dac2e8c6d608b1b6044820152606490fd5b8a5162461bcd60e51b8152600481018a9052601360248201527f496e76616c69642062656e6566696369617279000000000000000000000000006044820152606490fd5b8b5162461bcd60e51b8152600481018b9052600d60248201526c24b73b30b634b2103a37b5b2b760991b6044820152606490fd5b600080fd5b6040519190601f01601f191682016001600160401b038111838210176200027257604052565b51906001600160a01b03821682036200037757565b81601f8201121562000377578051916001600160401b03831162000272578260051b6020928380620003eb8185016200037c565b80978152019282010192831162000377578301905b8282106200040f575050505090565b8151815290830190830162000400565b80518210156200025c5760209160051b010190565b6001600160a01b031660008181527fad3228b676f7d3cd4284a5443f17f1962b36e491b30a40b2405849e597ba5fb5602052604081205490919060ff16620004b057818052816020526040822081835260205260408220600160ff19825416179055339160008051602062000fe48339815191528180a4600190565b5090565b6001600160a01b031660008181527fb9b0ac02325ee7cf4551d296a88408527c705a37fefd0e298966a9ada940b4c460205260408120549091907fc8a41221bcd7fcf2c225f5a9265e1d4d39949d89197159d59e5f4b87b62c419e9060ff166200055157808352826020526040832082845260205260408320600160ff1982541617905560008051602062000fe4833981519152339380a4600190565b50509056fe608060408181526004918236101561001657600080fd5b600092833560e01c91826301ffc9a71461075557508163248a9ca31461072b57816326fadbe2146105cc5781632db94d19146105ad5781632f2ff15d1461058f57816336568abe146105545781634e71d92d1461033d57816378e979251461030257816391d14854146102c8578163a217fddf146102ad578163bdc6d9ab1461025a578163ced3a4031461021f578163d547741f146101ea578163d54ad2a1146101c857508063ee28b7441461011b5763fc0c546a146100d557600080fd5b34610117578160031936011261011757517f00000000000000000000000000000000000000000000000000000000000000006001600160a01b03168152602090f35b5080fd5b503461011757816003193601126101175781906002928354905b818110610146576020848451908152f35b60ff8561015283610807565b500154161561016a575b6101659061098f565b610135565b61019e61017682610807565b50547f00000000000000000000000000000000000000000000000000000000000000006109b4565b421061015c57926101c06101659160016101b787610807565b500154906109b4565b93905061015c565b9050346101e657826003193601126101e65760209250549051908152f35b8280fd5b50503461011757600161021b91610216610203366107dc565b9390928387528660205286200154610858565b61091a565b5080f35b505034610117578160031936011261011757602090517fc8a41221bcd7fcf2c225f5a9265e1d4d39949d89197159d59e5f4b87b62c419e8152f35b9050346101e65760203660031901126101e65735916002548310156102aa5750610285606092610807565b509081549160ff60026001830154920154169082519384526020840152151590820152f35b80fd5b50503461011757816003193601126101175751908152602090f35b5050346101175760ff816020936102de366107dc565b9082528186528282206001600160a01b039091168252855220549151911615158152f35b505034610117578160031936011261011757602090517f00000000000000000000000000000000000000000000000000000000000000008152f35b919050346101e657826003193601126101e65760029060019282845414610546578284557fc8a41221bcd7fcf2c225f5a9265e1d4d39949d89197159d59e5f4b87b62c419e8086528560205282862033875260205260ff908184882054161561052957508593805491875b8381106104c4575050505082156104b7576103c48382546109b4565b8155815163a9059cbb60e01b60208201908152336024830152604480830186905282527f00000000000000000000000000000000000000000000000000000000000000006001600160a01b0316916080810167ffffffffffffffff8111828210176104a45785525160209188919082855af11561049a57855185903d610493575050803b155b61047f575050519081527f896e034966eaaf1adc54acc0f257056febbd300c9e47182cf761982cf1f5e43060203392a2805580f35b6024925191635274afe760e01b8352820152fd5b141561044a565b82513d87823e3d90fd5b634e487b7160e01b895260418552602489fd5b905162f3f86160e41b8152fd5b81836104cf83610807565b50015416156104e7575b6104e29061098f565b6103a8565b6104f361017682610807565b42106104d957956105216104e2918461050b8a610807565b5001805460ff19168b179055896101b78a610807565b9690506104d9565b9050604492519163e2517d3f60e01b835233908301526024820152fd5b9051633ee5aeb560e01b8152fd5b83833461011757610564366107dc565b91336001600160a01b0384160361058057509061021b9161091a565b5163334bd91960e11b81528490fd5b50503461011757600161021b916105a8610203366107dc565b61089c565b5050346101175781600319360112610117576020906003549051908152f35b5050346101175781600319360112610117576002918254906105ed82610a11565b926105f783610a11565b610600846109f9565b9061060d835192836109c1565b848252610619856109f9565b6020978389019691601f19013688377f0000000000000000000000000000000000000000000000000000000000000000865b8381106106b95750505050958091610680610673988551998a9960608b5260608b01906107a8565b90898203858b01526107a8565b938785039088015251928381520193925b8281106106a057505050500390f35b8351151585528695509381019392810192600101610691565b808a6106e2826106dc9d9e9b9a9c9d6106d461072096610807565b5054876109b4565b92610a43565b5260016106ee82610807565b5001546106fb8288610a43565b5260ff8461070883610807565b500154166107168289610a43565b901515905261098f565b99989795969961064b565b9050346101e65760203660031901126101e657816020936001923581528085522001549051908152f35b8491346101e65760203660031901126101e6573563ffffffff60e01b81168091036101e65760209250637965db0b60e01b8114908115610797575b5015158152f35b6301ffc9a760e01b14905083610790565b90815180825260208080930193019160005b8281106107c8575050505090565b8351855293810193928101926001016107ba565b604090600319011261080257600435906024356001600160a01b03811681036108025790565b600080fd5b600254811015610842576003906002600052027f405787fa12a823e0f2b7631cc41b3ba8828b3321ca811111fa75cd3aa3bb5ace0190600090565b634e487b7160e01b600052603260045260246000fd5b80600052600060205260406000203360005260205260ff604060002054161561087e5750565b6044906040519063e2517d3f60e01b82523360048301526024820152fd5b9060009180835282602052604083209160018060a01b03169182845260205260ff6040842054161560001461091557808352826020526040832082845260205260408320600160ff198254161790557f2f8788117e7eff1d82e926ec794901d17c78024a50270940304540a733656f0d339380a4600190565b505090565b9060009180835282602052604083209160018060a01b03169182845260205260ff6040842054166000146109155780835282602052604083208284526020526040832060ff1981541690557ff6391f5c32d9c69d2a47ea670b442974b53935d1edc7fd64eb21e047a839171b339380a4600190565b600019811461099e5760010190565b634e487b7160e01b600052601160045260246000fd5b9190820180921161099e57565b90601f8019910116810190811067ffffffffffffffff8211176109e357604052565b634e487b7160e01b600052604160045260246000fd5b67ffffffffffffffff81116109e35760051b60200190565b90610a1b826109f9565b610a2860405191826109c1565b8281528092610a39601f19916109f9565b0190602036910137565b80518210156108425760209160051b01019056fea2646970667358221220ab0dbad7314e73d77bf03df8edac5c8d9b05024f87d1f2e40e2234aa9960610464736f6c634300081400332f8788117e7eff1d82e926ec794901d17c78024a50270940304540a733656f0da2646970667358221220bc0f7fdf8338735d8193be2c361bf4debf57dabd78f66284e0bc728b00938a7f64736f6c634300081400332f8788117e7eff1d82e926ec794901d17c78024a50270940304540a733656f0d","opcodes":"PUSH2 0x100 CALLVALUE PUSH3 0x131 JUMPI PUSH1 0x1F PUSH3 0x47ED CODESIZE DUP2 SWAP1 SUB SWAP2 DUP3 ADD PUSH1 0x1F NOT AND DUP4 ADD SWAP3 SWAP2 SWAP1 PUSH1 0x1 PUSH1 0x1 PUSH1 0x40 SHL SUB DUP5 GT DUP4 DUP6 LT OR PUSH3 0x136 JUMPI DUP2 PUSH1 0x80 SWAP3 DUP5 SWAP3 PUSH1 0x40 SWAP7 DUP8 MSTORE DUP4 CODECOPY DUP2 ADD SUB SLT PUSH3 0x131 JUMPI DUP1 MLOAD SWAP1 PUSH3 0x58 PUSH1 0x20 DUP3 ADD PUSH3 0x14C JUMP JUMPDEST PUSH3 0x73 PUSH1 0x60 PUSH3 0x6B DUP7 DUP6 ADD PUSH3 0x14C JUMP JUMPDEST SWAP4 ADD PUSH3 0x14C JUMP JUMPDEST SWAP3 PUSH1 0x1 PUSH1 0x1 PUSH1 0xA0 SHL SUB DUP3 DUP2 AND ISZERO PUSH3 0x120 JUMPI DUP1 DUP5 AND ISZERO PUSH3 0x120 JUMPI DUP5 AND ISZERO PUSH3 0x10F JUMPI PUSH1 0xE0 MSTORE PUSH1 0x80 MSTORE PUSH1 0xA0 MSTORE PUSH1 0xC0 MSTORE PUSH3 0xAD CALLER PUSH3 0x161 JUMP JUMPDEST POP PUSH3 0xB9 CALLER PUSH3 0x1E1 JUMP JUMPDEST POP MLOAD PUSH2 0x4549 SWAP1 DUP2 PUSH3 0x284 DUP3 CODECOPY PUSH1 0x80 MLOAD DUP2 DUP2 DUP2 PUSH2 0x2F4 ADD MSTORE PUSH2 0x62C ADD MSTORE PUSH1 0xA0 MLOAD DUP2 DUP2 DUP2 PUSH2 0x4C6 ADD MSTORE PUSH2 0x9D9 ADD MSTORE PUSH1 0xC0 MLOAD DUP2 DUP2 DUP2 PUSH2 0x669 ADD MSTORE DUP2 DUP2 PUSH2 0x8DD ADD MSTORE PUSH2 0xB23 ADD MSTORE PUSH1 0xE0 MLOAD DUP2 DUP2 DUP2 PUSH2 0x1D5 ADD MSTORE PUSH2 0x417 ADD MSTORE RETURN JUMPDEST DUP5 MLOAD PUSH4 0xD92E233D PUSH1 0xE0 SHL DUP2 MSTORE PUSH1 0x4 SWAP1 REVERT JUMPDEST DUP6 MLOAD PUSH4 0xD92E233D PUSH1 0xE0 SHL DUP2 MSTORE PUSH1 0x4 SWAP1 REVERT JUMPDEST PUSH1 0x0 DUP1 REVERT JUMPDEST PUSH4 0x4E487B71 PUSH1 0xE0 SHL PUSH1 0x0 MSTORE PUSH1 0x41 PUSH1 0x4 MSTORE PUSH1 0x24 PUSH1 0x0 REVERT JUMPDEST MLOAD SWAP1 PUSH1 0x1 PUSH1 0x1 PUSH1 0xA0 SHL SUB DUP3 AND DUP3 SUB PUSH3 0x131 JUMPI JUMP JUMPDEST PUSH1 0x1 PUSH1 0x1 PUSH1 0xA0 SHL SUB AND PUSH1 0x0 DUP2 DUP2 MSTORE PUSH32 0xAD3228B676F7D3CD4284A5443F17F1962B36E491B30A40B2405849E597BA5FB5 PUSH1 0x20 MSTORE PUSH1 0x40 DUP2 KECCAK256 SLOAD SWAP1 SWAP2 SWAP1 PUSH1 0xFF AND PUSH3 0x1DD JUMPI DUP2 DUP1 MSTORE DUP2 PUSH1 0x20 MSTORE PUSH1 0x40 DUP3 KECCAK256 DUP2 DUP4 MSTORE PUSH1 0x20 MSTORE PUSH1 0x40 DUP3 KECCAK256 PUSH1 0x1 PUSH1 0xFF NOT DUP3 SLOAD AND OR SWAP1 SSTORE CALLER SWAP2 PUSH1 0x0 DUP1 MLOAD PUSH1 0x20 PUSH3 0x47CD DUP4 CODECOPY DUP2 MLOAD SWAP2 MSTORE DUP2 DUP1 LOG4 PUSH1 0x1 SWAP1 JUMP JUMPDEST POP SWAP1 JUMP JUMPDEST PUSH1 0x1 PUSH1 0x1 PUSH1 0xA0 SHL SUB AND PUSH1 0x0 DUP2 DUP2 MSTORE PUSH32 0x40D6054E7C1E32ABF36E71C717B2201C6FB50EE4639813CE060D4F8FFBB78BDD PUSH1 0x20 MSTORE PUSH1 0x40 DUP2 KECCAK256 SLOAD SWAP1 SWAP2 SWAP1 PUSH32 0xBD5D72AC35AE1E83AA0625C57EDDDA63FBB064A87FCA99DFDD7CE027384AE282 SWAP1 PUSH1 0xFF AND PUSH3 0x27E JUMPI DUP1 DUP4 MSTORE DUP3 PUSH1 0x20 MSTORE PUSH1 0x40 DUP4 KECCAK256 DUP3 DUP5 MSTORE PUSH1 0x20 MSTORE PUSH1 0x40 DUP4 KECCAK256 PUSH1 0x1 PUSH1 0xFF NOT DUP3 SLOAD AND OR SWAP1 SSTORE PUSH1 0x0 DUP1 MLOAD PUSH1 0x20 PUSH3 0x47CD DUP4 CODECOPY DUP2 MLOAD SWAP2 MSTORE CALLER SWAP4 DUP1 LOG4 PUSH1 0x1 SWAP1 JUMP JUMPDEST POP POP SWAP1 JUMP INVALID PUSH1 0x80 DUP1 PUSH1 0x40 MSTORE PUSH1 0x4 CALLDATASIZE LT ISZERO PUSH3 0x14 JUMPI PUSH1 0x0 DUP1 REVERT JUMPDEST PUSH1 0x0 CALLDATALOAD PUSH1 0xE0 SHR SWAP1 DUP2 PUSH4 0x1FFC9A7 EQ PUSH3 0xB52 JUMPI POP DUP1 PUSH4 0x1D1B49D3 EQ PUSH3 0xB0B JUMPI DUP1 PUSH4 0x248A9CA3 EQ PUSH3 0xADA JUMPI DUP1 PUSH4 0x2F2FF15D EQ PUSH3 0xA93 JUMPI DUP1 PUSH4 0x3360CF5E EQ PUSH3 0xA56 JUMPI DUP1 PUSH4 0x36568ABE EQ PUSH3 0xA08 JUMPI DUP1 PUSH4 0x4626402B EQ PUSH3 0x9C1 JUMPI DUP1 PUSH4 0x47FCE119 EQ PUSH3 0x3C9 JUMPI DUP1 PUSH4 0x5148695F EQ PUSH3 0x323 JUMPI DUP1 PUSH4 0x6052970C EQ PUSH3 0x2DC JUMPI DUP1 PUSH4 0x91D14854 EQ PUSH3 0x28B JUMPI DUP1 PUSH4 0x9E1F288E EQ PUSH3 0x26B JUMPI DUP1 PUSH4 0xA186D14F EQ PUSH3 0x216 JUMPI DUP1 PUSH4 0xA217FDDF EQ PUSH3 0x1F8 JUMPI DUP1 PUSH4 0xA8F32251 EQ PUSH3 0x1BB JUMPI DUP1 PUSH4 0xD547741F EQ PUSH3 0x172 JUMPI DUP1 PUSH4 0xE0FE61FE EQ PUSH3 0x133 JUMPI PUSH4 0xE249CBEC EQ PUSH3 0xF8 JUMPI PUSH1 0x0 DUP1 REVERT JUMPDEST CALLVALUE PUSH3 0x12E JUMPI PUSH1 0x20 CALLDATASIZE PUSH1 0x3 NOT ADD SLT PUSH3 0x12E JUMPI PUSH1 0x4 CALLDATALOAD PUSH1 0x0 MSTORE PUSH1 0x2 PUSH1 0x20 MSTORE PUSH1 0x20 PUSH1 0x1 DUP1 PUSH1 0xA0 SHL SUB PUSH1 0x40 PUSH1 0x0 KECCAK256 SLOAD AND PUSH1 0x40 MLOAD SWAP1 DUP2 MSTORE RETURN JUMPDEST PUSH1 0x0 DUP1 REVERT JUMPDEST CALLVALUE PUSH3 0x12E JUMPI PUSH1 0x20 CALLDATASIZE PUSH1 0x3 NOT ADD SLT PUSH3 0x12E JUMPI PUSH1 0x20 PUSH1 0x1 PUSH1 0x1 PUSH1 0xA0 SHL SUB DUP1 PUSH3 0x15B PUSH3 0xBC1 JUMP JUMPDEST AND PUSH1 0x0 MSTORE PUSH1 0x3 DUP3 MSTORE PUSH1 0x40 PUSH1 0x0 KECCAK256 SLOAD AND PUSH1 0x40 MLOAD SWAP1 DUP2 MSTORE RETURN JUMPDEST CALLVALUE PUSH3 0x12E JUMPI PUSH1 0x40 CALLDATASIZE PUSH1 0x3 NOT ADD SLT PUSH3 0x12E JUMPI PUSH3 0x1B9 PUSH1 0x4 CALLDATALOAD PUSH3 0x196 PUSH3 0xBAA JUMP JUMPDEST SWAP1 DUP1 PUSH1 0x0 MSTORE PUSH1 0x0 PUSH1 0x20 MSTORE PUSH3 0x1B3 PUSH1 0x1 PUSH1 0x40 PUSH1 0x0 KECCAK256 ADD SLOAD PUSH3 0xBD8 JUMP JUMPDEST PUSH3 0xC9C JUMP JUMPDEST STOP JUMPDEST CALLVALUE PUSH3 0x12E JUMPI PUSH1 0x0 CALLDATASIZE PUSH1 0x3 NOT ADD SLT PUSH3 0x12E JUMPI PUSH1 0x20 PUSH1 0x40 MLOAD PUSH32 0x0 DUP2 MSTORE RETURN JUMPDEST CALLVALUE PUSH3 0x12E JUMPI PUSH1 0x0 CALLDATASIZE PUSH1 0x3 NOT ADD SLT PUSH3 0x12E JUMPI PUSH1 0x20 PUSH1 0x40 MLOAD PUSH1 0x0 DUP2 MSTORE RETURN JUMPDEST CALLVALUE PUSH3 0x12E JUMPI PUSH1 0x20 CALLDATASIZE PUSH1 0x3 NOT ADD SLT PUSH3 0x12E JUMPI PUSH1 0x1 PUSH1 0x1 PUSH1 0xA0 SHL SUB PUSH3 0x23B PUSH3 0xBC1 JUMP JUMPDEST AND PUSH1 0x0 MSTORE PUSH1 0x4 PUSH1 0x20 MSTORE PUSH1 0x60 PUSH1 0x40 PUSH1 0x0 KECCAK256 DUP1 SLOAD SWAP1 PUSH1 0x2 PUSH1 0x1 DUP3 ADD SLOAD SWAP2 ADD SLOAD SWAP1 PUSH1 0x40 MLOAD SWAP3 DUP4 MSTORE PUSH1 0x20 DUP4 ADD MSTORE PUSH1 0x40 DUP3 ADD MSTORE RETURN JUMPDEST CALLVALUE PUSH3 0x12E JUMPI PUSH1 0x0 CALLDATASIZE PUSH1 0x3 NOT ADD SLT PUSH3 0x12E JUMPI PUSH1 0x20 PUSH1 0x1 SLOAD PUSH1 0x40 MLOAD SWAP1 DUP2 MSTORE RETURN JUMPDEST CALLVALUE PUSH3 0x12E JUMPI PUSH1 0x40 CALLDATASIZE PUSH1 0x3 NOT ADD SLT PUSH3 0x12E JUMPI PUSH3 0x2A8 PUSH3 0xBAA JUMP JUMPDEST PUSH1 0x4 CALLDATALOAD PUSH1 0x0 MSTORE PUSH1 0x0 PUSH1 0x20 MSTORE PUSH1 0x40 PUSH1 0x0 KECCAK256 SWAP1 PUSH1 0x1 DUP1 PUSH1 0xA0 SHL SUB AND PUSH1 0x0 MSTORE PUSH1 0x20 MSTORE PUSH1 0x20 PUSH1 0xFF PUSH1 0x40 PUSH1 0x0 KECCAK256 SLOAD AND PUSH1 0x40 MLOAD SWAP1 ISZERO ISZERO DUP2 MSTORE RETURN JUMPDEST CALLVALUE PUSH3 0x12E JUMPI PUSH1 0x0 CALLDATASIZE PUSH1 0x3 NOT ADD SLT PUSH3 0x12E JUMPI PUSH1 0x40 MLOAD PUSH32 0x0 PUSH1 0x1 PUSH1 0x1 PUSH1 0xA0 SHL SUB AND DUP2 MSTORE PUSH1 0x20 SWAP1 RETURN JUMPDEST CALLVALUE PUSH3 0x12E JUMPI PUSH1 0x20 DUP1 PUSH1 0x3 NOT CALLDATASIZE ADD SLT PUSH3 0x12E JUMPI PUSH1 0xA0 SWAP1 PUSH1 0x0 PUSH1 0x40 PUSH3 0x348 PUSH3 0xD12 JUMP JUMPDEST DUP3 DUP2 MSTORE DUP3 DUP5 DUP3 ADD MSTORE ADD MSTORE PUSH1 0x4 CALLDATALOAD PUSH1 0x0 MSTORE PUSH1 0x2 DUP2 MSTORE PUSH1 0x1 DUP1 DUP4 SHL SUB SWAP1 DUP2 PUSH1 0x40 PUSH1 0x0 KECCAK256 SLOAD AND SWAP2 DUP3 PUSH1 0x0 MSTORE PUSH1 0x3 DUP3 MSTORE PUSH1 0x40 PUSH1 0x0 KECCAK256 SLOAD AND PUSH1 0x4 DUP3 MSTORE PUSH1 0x40 PUSH1 0x0 KECCAK256 SWAP1 PUSH3 0x38F PUSH3 0xD12 JUMP JUMPDEST SWAP1 DUP3 SLOAD DUP3 MSTORE PUSH1 0x2 PUSH1 0x1 DUP5 ADD SLOAD SWAP4 DUP6 DUP5 ADD SWAP5 DUP6 MSTORE ADD SLOAD SWAP4 PUSH1 0x40 DUP4 ADD SWAP5 DUP6 MSTORE PUSH1 0x40 MLOAD SWAP6 DUP7 MSTORE DUP6 ADD MSTORE MLOAD PUSH1 0x40 DUP5 ADD MSTORE MLOAD PUSH1 0x60 DUP4 ADD MSTORE MLOAD PUSH1 0x80 DUP3 ADD MSTORE RETURN JUMPDEST PUSH1 0x3 NOT CALLDATASIZE DUP2 ADD PUSH2 0x1C0 DUP2 SLT PUSH3 0x12E JUMPI PUSH2 0x140 SGT PUSH3 0x12E JUMPI PUSH8 0xFFFFFFFFFFFFFFFF PUSH2 0x144 CALLDATALOAD GT PUSH3 0x12E JUMPI PUSH1 0x80 SWAP1 PUSH2 0x144 CALLDATALOAD CALLDATASIZE SUB ADD SLT PUSH3 0x12E JUMPI PUSH1 0x60 CALLDATASIZE PUSH2 0x163 NOT ADD SLT PUSH3 0x12E JUMPI PUSH1 0x0 PUSH32 0x0 CALLVALUE LT PUSH3 0x9AF JUMPI PUSH1 0x44 CALLDATALOAD ISZERO PUSH3 0x99D JUMPI PUSH1 0xE4 CALLDATALOAD PUSH1 0xC4 CALLDATALOAD LT ISZERO PUSH3 0x98B JUMPI TIMESTAMP PUSH1 0xC4 CALLDATALOAD GT ISZERO PUSH3 0x98B JUMPI PUSH1 0xA4 CALLDATALOAD PUSH1 0x84 CALLDATALOAD GT PUSH3 0x979 JUMPI PUSH1 0x84 CALLDATALOAD ISZERO PUSH3 0x979 JUMPI PUSH1 0xC PUSH2 0x164 CALLDATALOAD LT PUSH3 0x967 JUMPI PUSH2 0x1B58 PUSH2 0x184 CALLDATALOAD LT PUSH3 0x955 JUMPI PUSH1 0x1 PUSH1 0x1 PUSH1 0xA0 SHL SUB PUSH3 0x49E PUSH3 0xD6C JUMP JUMPDEST AND ISZERO PUSH3 0x943 JUMPI PUSH1 0x1 PUSH1 0x1 PUSH1 0xA0 SHL SUB PUSH3 0x4B7 PUSH3 0xD83 JUMP JUMPDEST AND ISZERO PUSH3 0x943 JUMPI PUSH1 0x0 DUP1 DUP1 DUP1 CALLVALUE PUSH32 0x0 GAS CALL RETURNDATASIZE ISZERO PUSH3 0x93D JUMPI RETURNDATASIZE PUSH8 0xFFFFFFFFFFFFFFFF DUP2 GT PUSH3 0x7FF JUMPI PUSH1 0x40 MLOAD SWAP1 PUSH1 0x1F NOT PUSH8 0xFFFFFFFFFFFFFFFF PUSH1 0x1F DUP4 ADD DUP3 AND PUSH1 0x3F ADD DUP3 AND DUP5 ADD SWAP1 DUP2 GT SWAP1 DUP5 GT OR PUSH3 0x7FF JUMPI PUSH1 0x3F DUP2 PUSH1 0x1F DUP5 ADD AND ADD AND DUP3 ADD PUSH1 0x40 MSTORE DUP2 MSTORE PUSH1 0x0 PUSH1 0x20 RETURNDATASIZE SWAP3 ADD RETURNDATACOPY JUMPDEST ISZERO PUSH3 0x92B JUMPI PUSH1 0x64 PUSH2 0x144 CALLDATALOAD ADD PUSH2 0x144 CALLDATALOAD PUSH1 0x4 ADD SWAP1 PUSH3 0x563 DUP2 DUP4 PUSH3 0xD33 JUMP JUMPDEST SWAP1 POP PUSH3 0x815 JUMPI JUMPDEST POP POP PUSH3 0x577 PUSH3 0xD6C JUMP JUMPDEST PUSH1 0x24 CALLDATALOAD SWAP2 PUSH1 0x1 PUSH1 0x1 PUSH1 0xA0 SHL SUB DUP4 AND DUP4 SUB PUSH3 0x12E JUMPI PUSH2 0x124 CALLDATALOAD SWAP2 PUSH2 0xFFFF DUP4 AND DUP4 SUB PUSH3 0x12E JUMPI PUSH3 0x5A7 PUSH3 0xD83 JUMP JUMPDEST SWAP3 PUSH1 0x40 MLOAD SWAP5 DUP6 PUSH2 0x274F DUP2 ADD LT PUSH8 0xFFFFFFFFFFFFFFFF PUSH2 0x274F DUP9 ADD GT OR PUSH3 0x7FF JUMPI PUSH2 0xFFFF SWAP3 PUSH2 0x274F PUSH3 0xDC1 DUP9 CODECOPY PUSH1 0x1 PUSH1 0x1 PUSH1 0xA0 SHL SUB SWAP1 DUP2 AND PUSH2 0x274F DUP9 ADD SWAP1 DUP2 MSTORE SWAP2 DUP2 AND PUSH1 0x20 DUP4 ADD MSTORE PUSH1 0x44 CALLDATALOAD PUSH1 0x40 DUP4 ADD MSTORE PUSH1 0x64 CALLDATALOAD PUSH1 0x60 DUP4 ADD MSTORE PUSH1 0x84 CALLDATALOAD PUSH1 0x80 DUP4 ADD MSTORE PUSH1 0xA4 CALLDATALOAD PUSH1 0xA0 DUP4 ADD MSTORE PUSH1 0xC4 CALLDATALOAD PUSH1 0xC0 DUP4 ADD MSTORE PUSH1 0xE4 CALLDATALOAD PUSH1 0xE0 DUP4 ADD MSTORE SWAP3 SWAP1 SWAP2 AND PUSH2 0x100 DUP3 ADD MSTORE PUSH32 0x0 DUP3 AND PUSH2 0x120 DUP3 ADD MSTORE SWAP2 DUP2 AND PUSH2 0x140 DUP4 ADD DUP2 SWAP1 MSTORE SWAP3 DUP2 AND PUSH2 0x160 DUP4 ADD MSTORE PUSH32 0x0 AND PUSH2 0x180 DUP3 ADD MSTORE PUSH2 0x184 CALLDATALOAD PUSH2 0x1A0 DUP3 ADD MSTORE PUSH2 0x164 CALLDATALOAD PUSH2 0x1C0 DUP3 ADD MSTORE PUSH2 0x1A4 CALLDATALOAD PUSH2 0x1E0 DUP3 ADD DUP2 SWAP1 MSTORE SWAP3 SWAP1 DUP2 SWAP1 SUB PUSH2 0x200 ADD SWAP1 PUSH1 0x0 CREATE DUP1 ISZERO PUSH3 0x7F3 JUMPI PUSH1 0x1 DUP1 PUSH1 0xA0 SHL SUB AND SWAP1 PUSH1 0x1 SLOAD PUSH1 0x0 MSTORE PUSH1 0x2 PUSH1 0x20 MSTORE PUSH1 0x40 PUSH1 0x0 KECCAK256 PUSH12 0xFFFFFFFFFFFFFFFFFFFFFFFF PUSH1 0xA0 SHL SWAP1 DUP4 DUP3 DUP3 SLOAD AND OR SWAP1 SSTORE DUP2 PUSH3 0x7D6 JUMPI JUMPDEST POP DUP2 PUSH1 0x0 MSTORE PUSH1 0x4 PUSH1 0x20 MSTORE DUP3 PUSH1 0x2 PUSH1 0x40 PUSH1 0x0 KECCAK256 PUSH2 0x164 CALLDATALOAD DUP2 SSTORE PUSH2 0x184 CALLDATALOAD PUSH1 0x1 DUP3 ADD SSTORE ADD SSTORE DUP2 PUSH32 0xDA79E99DC31A6B02A1A6D9E3758C6D0EF34606738CC48A1FF703D6566B040626 PUSH1 0x60 PUSH1 0x1 SLOAD SWAP6 DUP5 DUP5 DUP9 PUSH32 0x83690FC050263340E4F4DD8CB0061BEABB83623CC56DF48714B6AD16A68B1AB3 PUSH1 0x20 PUSH3 0x777 PUSH3 0xD6C JUMP JUMPDEST PUSH1 0x40 MLOAD PUSH1 0x1 PUSH1 0x1 PUSH1 0xA0 SHL SUB SWAP1 SWAP2 AND DUP2 MSTORE LOG4 PUSH1 0x40 MLOAD SWAP1 PUSH2 0x164 CALLDATALOAD DUP3 MSTORE PUSH1 0x20 DUP3 ADD MSTORE PUSH2 0x184 CALLDATALOAD PUSH1 0x40 DUP3 ADD MSTORE LOG2 PUSH1 0x0 NOT DUP4 EQ PUSH3 0x7C0 JUMPI PUSH1 0x1 PUSH1 0x40 SWAP4 ADD PUSH1 0x1 SSTORE DUP3 MLOAD SWAP2 DUP3 MSTORE PUSH1 0x20 DUP3 ADD MSTORE RETURN JUMPDEST PUSH4 0x4E487B71 PUSH1 0xE0 SHL PUSH1 0x0 MSTORE PUSH1 0x11 PUSH1 0x4 MSTORE PUSH1 0x24 PUSH1 0x0 REVERT JUMPDEST DUP3 PUSH1 0x0 MSTORE PUSH1 0x3 PUSH1 0x20 MSTORE DUP2 PUSH1 0x40 PUSH1 0x0 KECCAK256 SWAP2 DUP3 SLOAD AND OR SWAP1 SSTORE DUP4 PUSH3 0x6FC JUMP JUMPDEST PUSH1 0x40 MLOAD RETURNDATASIZE PUSH1 0x0 DUP3 RETURNDATACOPY RETURNDATASIZE SWAP1 REVERT JUMPDEST PUSH4 0x4E487B71 PUSH1 0xE0 SHL PUSH1 0x0 MSTORE PUSH1 0x41 PUSH1 0x4 MSTORE PUSH1 0x24 PUSH1 0x0 REVERT JUMPDEST SWAP1 SWAP2 POP PUSH3 0x822 PUSH3 0xD6C JUMP JUMPDEST DUP3 CALLDATALOAD SWAP1 PUSH1 0x1 PUSH1 0x1 PUSH1 0xA0 SHL SUB DUP3 AND DUP3 SUB PUSH3 0x12E JUMPI PUSH3 0x855 PUSH3 0x84C PUSH1 0x44 PUSH2 0x144 CALLDATALOAD ADD DUP7 PUSH3 0xD33 JUMP JUMPDEST SWAP5 SWAP1 SWAP6 PUSH3 0xD33 JUMP JUMPDEST SWAP1 SWAP2 PUSH1 0x40 MLOAD SWAP6 DUP7 PUSH2 0x1004 DUP2 ADD LT PUSH8 0xFFFFFFFFFFFFFFFF PUSH2 0x1004 DUP10 ADD GT OR PUSH3 0x7FF JUMPI DUP7 SWAP6 PUSH3 0x8DB SWAP6 PUSH3 0x8C4 SWAP4 PUSH2 0x1004 PUSH3 0x3510 DUP11 CODECOPY PUSH1 0x1 PUSH1 0x1 PUSH1 0xA0 SHL SUB SWAP1 DUP2 AND PUSH2 0x1004 DUP11 ADD SWAP1 DUP2 MSTORE SWAP2 AND PUSH1 0x20 DUP3 ADD MSTORE PUSH2 0x144 CALLDATALOAD PUSH1 0x24 ADD CALLDATALOAD PUSH1 0x40 DUP3 ADD MSTORE PUSH1 0xC0 PUSH1 0x60 DUP3 ADD DUP2 SWAP1 MSTORE ADD SWAP2 PUSH3 0xD9B JUMP JUMPDEST SWAP2 PUSH2 0x1004 DUP6 ADD DUP4 SUB PUSH1 0x80 PUSH2 0x1004 DUP8 ADD ADD MSTORE PUSH3 0xD9B JUMP JUMPDEST PUSH32 0x0 PUSH1 0x1 PUSH1 0x1 PUSH1 0xA0 SHL SUB AND PUSH2 0x1004 DUP4 ADD PUSH1 0xA0 ADD MSTORE SUB SWAP1 PUSH1 0x0 CREATE DUP1 ISZERO PUSH3 0x7F3 JUMPI PUSH1 0x1 PUSH1 0x1 PUSH1 0xA0 SHL SUB AND DUP2 DUP1 PUSH3 0x56B JUMP JUMPDEST PUSH1 0x40 MLOAD PUSH4 0x4033E4E3 PUSH1 0xE0 SHL DUP2 MSTORE PUSH1 0x4 SWAP1 REVERT JUMPDEST PUSH3 0x542 JUMP JUMPDEST PUSH1 0x40 MLOAD PUSH4 0xD92E233D PUSH1 0xE0 SHL DUP2 MSTORE PUSH1 0x4 SWAP1 REVERT JUMPDEST PUSH1 0x40 MLOAD PUSH4 0x4C87D753 PUSH1 0xE1 SHL DUP2 MSTORE PUSH1 0x4 SWAP1 REVERT JUMPDEST PUSH1 0x40 MLOAD PUSH4 0x76A12A0F PUSH1 0xE1 SHL DUP2 MSTORE PUSH1 0x4 SWAP1 REVERT JUMPDEST PUSH1 0x40 MLOAD PUSH4 0x102DF2A1 PUSH1 0xE1 SHL DUP2 MSTORE PUSH1 0x4 SWAP1 REVERT JUMPDEST PUSH1 0x40 MLOAD PUSH4 0x536A71AF PUSH1 0xE0 SHL DUP2 MSTORE PUSH1 0x4 SWAP1 REVERT JUMPDEST PUSH1 0x40 MLOAD PUSH4 0x6858A31F PUSH1 0xE1 SHL DUP2 MSTORE PUSH1 0x4 SWAP1 REVERT JUMPDEST PUSH1 0x40 MLOAD PUSH4 0x54605D01 PUSH1 0xE1 SHL DUP2 MSTORE PUSH1 0x4 SWAP1 REVERT JUMPDEST CALLVALUE PUSH3 0x12E JUMPI PUSH1 0x0 CALLDATASIZE PUSH1 0x3 NOT ADD SLT PUSH3 0x12E JUMPI PUSH1 0x40 MLOAD PUSH32 0x0 PUSH1 0x1 PUSH1 0x1 PUSH1 0xA0 SHL SUB AND DUP2 MSTORE PUSH1 0x20 SWAP1 RETURN JUMPDEST CALLVALUE PUSH3 0x12E JUMPI PUSH1 0x40 CALLDATASIZE PUSH1 0x3 NOT ADD SLT PUSH3 0x12E JUMPI PUSH3 0xA25 PUSH3 0xBAA JUMP JUMPDEST CALLER PUSH1 0x1 PUSH1 0x1 PUSH1 0xA0 SHL SUB DUP3 AND SUB PUSH3 0xA44 JUMPI PUSH3 0x1B9 SWAP1 PUSH1 0x4 CALLDATALOAD PUSH3 0xC9C JUMP JUMPDEST PUSH1 0x40 MLOAD PUSH4 0x334BD919 PUSH1 0xE1 SHL DUP2 MSTORE PUSH1 0x4 SWAP1 REVERT JUMPDEST CALLVALUE PUSH3 0x12E JUMPI PUSH1 0x0 CALLDATASIZE PUSH1 0x3 NOT ADD SLT PUSH3 0x12E JUMPI PUSH1 0x20 PUSH1 0x40 MLOAD PUSH32 0xBD5D72AC35AE1E83AA0625C57EDDDA63FBB064A87FCA99DFDD7CE027384AE282 DUP2 MSTORE RETURN JUMPDEST CALLVALUE PUSH3 0x12E JUMPI PUSH1 0x40 CALLDATASIZE PUSH1 0x3 NOT ADD SLT PUSH3 0x12E JUMPI PUSH3 0x1B9 PUSH1 0x4 CALLDATALOAD PUSH3 0xAB7 PUSH3 0xBAA JUMP JUMPDEST SWAP1 DUP1 PUSH1 0x0 MSTORE PUSH1 0x0 PUSH1 0x20 MSTORE PUSH3 0xAD4 PUSH1 0x1 PUSH1 0x40 PUSH1 0x0 KECCAK256 ADD SLOAD PUSH3 0xBD8 JUMP JUMPDEST PUSH3 0xC1D JUMP JUMPDEST CALLVALUE PUSH3 0x12E JUMPI PUSH1 0x20 CALLDATASIZE PUSH1 0x3 NOT ADD SLT PUSH3 0x12E JUMPI PUSH1 0x4 CALLDATALOAD PUSH1 0x0 MSTORE PUSH1 0x0 PUSH1 0x20 MSTORE PUSH1 0x20 PUSH1 0x1 PUSH1 0x40 PUSH1 0x0 KECCAK256 ADD SLOAD PUSH1 0x40 MLOAD SWAP1 DUP2 MSTORE RETURN JUMPDEST CALLVALUE PUSH3 0x12E JUMPI PUSH1 0x0 CALLDATASIZE PUSH1 0x3 NOT ADD SLT PUSH3 0x12E JUMPI PUSH1 0x40 MLOAD PUSH32 0x0 PUSH1 0x1 PUSH1 0x1 PUSH1 0xA0 SHL SUB AND DUP2 MSTORE PUSH1 0x20 SWAP1 RETURN JUMPDEST CALLVALUE PUSH3 0x12E JUMPI PUSH1 0x20 CALLDATASIZE PUSH1 0x3 NOT ADD SLT PUSH3 0x12E JUMPI PUSH1 0x4 CALLDATALOAD SWAP1 PUSH4 0xFFFFFFFF PUSH1 0xE0 SHL DUP3 AND DUP1 SWAP3 SUB PUSH3 0x12E JUMPI PUSH1 0x20 SWAP2 PUSH4 0x7965DB0B PUSH1 0xE0 SHL DUP2 EQ SWAP1 DUP2 ISZERO PUSH3 0xB98 JUMPI JUMPDEST POP ISZERO ISZERO DUP2 MSTORE RETURN JUMPDEST PUSH4 0x1FFC9A7 PUSH1 0xE0 SHL EQ SWAP1 POP DUP4 PUSH3 0xB91 JUMP JUMPDEST PUSH1 0x24 CALLDATALOAD SWAP1 PUSH1 0x1 PUSH1 0x1 PUSH1 0xA0 SHL SUB DUP3 AND DUP3 SUB PUSH3 0x12E JUMPI JUMP JUMPDEST PUSH1 0x4 CALLDATALOAD SWAP1 PUSH1 0x1 PUSH1 0x1 PUSH1 0xA0 SHL SUB DUP3 AND DUP3 SUB PUSH3 0x12E JUMPI JUMP JUMPDEST DUP1 PUSH1 0x0 MSTORE PUSH1 0x0 PUSH1 0x20 MSTORE PUSH1 0x40 PUSH1 0x0 KECCAK256 CALLER PUSH1 0x0 MSTORE PUSH1 0x20 MSTORE PUSH1 0xFF PUSH1 0x40 PUSH1 0x0 KECCAK256 SLOAD AND ISZERO PUSH3 0xBFF JUMPI POP JUMP JUMPDEST PUSH1 0x44 SWAP1 PUSH1 0x40 MLOAD SWAP1 PUSH4 0xE2517D3F PUSH1 0xE0 SHL DUP3 MSTORE CALLER PUSH1 0x4 DUP4 ADD MSTORE PUSH1 0x24 DUP3 ADD MSTORE REVERT JUMPDEST SWAP1 PUSH1 0x0 SWAP2 DUP1 DUP4 MSTORE DUP3 PUSH1 0x20 MSTORE PUSH1 0x40 DUP4 KECCAK256 SWAP2 PUSH1 0x1 DUP1 PUSH1 0xA0 SHL SUB AND SWAP2 DUP3 DUP5 MSTORE PUSH1 0x20 MSTORE PUSH1 0xFF PUSH1 0x40 DUP5 KECCAK256 SLOAD AND ISZERO PUSH1 0x0 EQ PUSH3 0xC97 JUMPI DUP1 DUP4 MSTORE DUP3 PUSH1 0x20 MSTORE PUSH1 0x40 DUP4 KECCAK256 DUP3 DUP5 MSTORE PUSH1 0x20 MSTORE PUSH1 0x40 DUP4 KECCAK256 PUSH1 0x1 PUSH1 0xFF NOT DUP3 SLOAD AND OR SWAP1 SSTORE PUSH32 0x2F8788117E7EFF1D82E926EC794901D17C78024A50270940304540A733656F0D CALLER SWAP4 DUP1 LOG4 PUSH1 0x1 SWAP1 JUMP JUMPDEST POP POP SWAP1 JUMP JUMPDEST SWAP1 PUSH1 0x0 SWAP2 DUP1 DUP4 MSTORE DUP3 PUSH1 0x20 MSTORE PUSH1 0x40 DUP4 KECCAK256 SWAP2 PUSH1 0x1 DUP1 PUSH1 0xA0 SHL SUB AND SWAP2 DUP3 DUP5 MSTORE PUSH1 0x20 MSTORE PUSH1 0xFF PUSH1 0x40 DUP5 KECCAK256 SLOAD AND PUSH1 0x0 EQ PUSH3 0xC97 JUMPI DUP1 DUP4 MSTORE DUP3 PUSH1 0x20 MSTORE PUSH1 0x40 DUP4 KECCAK256 DUP3 DUP5 MSTORE PUSH1 0x20 MSTORE PUSH1 0x40 DUP4 KECCAK256 PUSH1 0xFF NOT DUP2 SLOAD AND SWAP1 SSTORE PUSH32 0xF6391F5C32D9C69D2A47EA670B442974B53935D1EDC7FD64EB21E047A839171B CALLER SWAP4 DUP1 LOG4 PUSH1 0x1 SWAP1 JUMP JUMPDEST PUSH1 0x40 MLOAD SWAP1 PUSH1 0x60 DUP3 ADD DUP3 DUP2 LT PUSH8 0xFFFFFFFFFFFFFFFF DUP3 GT OR PUSH3 0x7FF JUMPI PUSH1 0x40 MSTORE JUMP JUMPDEST SWAP1 CALLDATALOAD SWAP1 PUSH1 0x1E NOT DUP2 CALLDATASIZE SUB ADD DUP3 SLT ISZERO PUSH3 0x12E JUMPI ADD DUP1 CALLDATALOAD SWAP1 PUSH8 0xFFFFFFFFFFFFFFFF DUP3 GT PUSH3 0x12E JUMPI PUSH1 0x20 ADD SWAP2 DUP2 PUSH1 0x5 SHL CALLDATASIZE SUB DUP4 SGT PUSH3 0x12E JUMPI JUMP JUMPDEST PUSH1 0x4 CALLDATALOAD PUSH1 0x1 PUSH1 0x1 PUSH1 0xA0 SHL SUB DUP2 AND DUP2 SUB PUSH3 0x12E JUMPI SWAP1 JUMP JUMPDEST PUSH2 0x104 CALLDATALOAD PUSH1 0x1 PUSH1 0x1 PUSH1 0xA0 SHL SUB DUP2 AND DUP2 SUB PUSH3 0x12E JUMPI SWAP1 JUMP JUMPDEST DUP2 DUP4 MSTORE SWAP1 SWAP2 PUSH1 0x1 PUSH1 0x1 PUSH1 0xFB SHL SUB DUP4 GT PUSH3 0x12E JUMPI PUSH1 0x20 SWAP3 PUSH1 0x5 SHL DUP1 SWAP3 DUP5 DUP4 ADD CALLDATACOPY ADD ADD SWAP1 JUMP INVALID CALLVALUE PUSH3 0x3ED JUMPI PUSH3 0x274F CODESIZE DUP2 SWAP1 SUB PUSH2 0x280 PUSH1 0x1F DUP3 ADD PUSH1 0x1F NOT AND DUP2 ADD SWAP1 PUSH1 0x1 PUSH1 0x1 PUSH1 0x40 SHL SUB DUP3 GT SWAP1 DUP3 LT OR PUSH3 0x3F2 JUMPI PUSH2 0x200 SWAP3 DUP3 SWAP2 PUSH1 0x40 MSTORE PUSH2 0x280 CODECOPY SLT PUSH3 0x3ED JUMPI PUSH3 0x4E PUSH2 0x280 PUSH3 0x408 JUMP JUMPDEST PUSH3 0x5B PUSH2 0x2A0 PUSH3 0x408 JUMP JUMPDEST PUSH2 0x2C0 MLOAD PUSH2 0x2E0 MLOAD PUSH2 0x300 MLOAD PUSH2 0x320 MLOAD PUSH2 0x340 MLOAD PUSH2 0x360 MLOAD PUSH2 0x380 MLOAD SWAP6 SWAP8 SWAP6 SWAP1 SWAP5 SWAP4 SWAP3 SWAP2 SWAP1 PUSH2 0xFFFF DUP2 AND DUP2 SUB PUSH3 0x3ED JUMPI PUSH3 0x175 SWAP6 PUSH3 0x9E PUSH2 0x3A0 PUSH3 0x408 JUMP JUMPDEST SWAP3 PUSH3 0xAC PUSH2 0x3C0 PUSH3 0x408 JUMP JUMPDEST SWAP5 PUSH3 0xBA PUSH2 0x3E0 PUSH3 0x408 JUMP JUMPDEST SWAP7 PUSH3 0xC8 PUSH2 0x400 PUSH3 0x408 JUMP JUMPDEST SWAP9 PUSH2 0x1A0 PUSH2 0x280 ADD MLOAD SWAP14 PUSH2 0x1C0 PUSH2 0x280 ADD MLOAD SWAP14 PUSH2 0x1E0 PUSH2 0x280 ADD MLOAD SWAP14 PUSH1 0x1 DUP1 SSTORE PUSH1 0x80 MSTORE PUSH1 0xA0 MSTORE PUSH1 0xC0 MSTORE PUSH1 0xE0 MSTORE PUSH2 0x100 MSTORE PUSH2 0x120 MSTORE PUSH2 0x140 MSTORE PUSH2 0x160 MSTORE PUSH2 0x180 MSTORE PUSH2 0x1A0 MSTORE PUSH2 0x1C0 MSTORE PUSH2 0x1E0 MSTORE PUSH2 0x220 SWAP5 DUP6 MSTORE PUSH2 0x240 SWAP4 DUP5 MSTORE PUSH2 0x260 SWAP3 DUP4 MSTORE PUSH1 0xFF PUSH1 0xA0 SHL NOT PUSH1 0x2 SLOAD AND PUSH1 0x2 SSTORE PUSH1 0x38 CHAINID EQ DUP1 ISZERO PUSH3 0x3E2 JUMPI JUMPDEST PUSH1 0x0 SWAP1 ISZERO PUSH3 0x34E JUMPI POP PUSH20 0x10ED43C718714EB63D5AA57B78B54704E256024E JUMPDEST PUSH2 0x200 MSTORE PUSH3 0x16E DUP2 PUSH3 0x41D JUMP JUMPDEST POP PUSH3 0x49D JUMP JUMPDEST POP PUSH1 0x40 MLOAD SWAP2 PUSH2 0x21EF SWAP4 DUP5 PUSH3 0x540 DUP6 CODECOPY PUSH1 0x80 MLOAD DUP5 DUP2 DUP2 PUSH2 0x9D1 ADD MSTORE DUP2 DUP2 PUSH2 0xABC ADD MSTORE DUP2 DUP2 PUSH2 0x1543 ADD MSTORE DUP2 DUP2 PUSH2 0x15CA ADD MSTORE DUP2 DUP2 PUSH2 0x1705 ADD MSTORE DUP2 DUP2 PUSH2 0x1992 ADD MSTORE DUP2 DUP2 PUSH2 0x1A0B ADD MSTORE DUP2 DUP2 PUSH2 0x1C40 ADD MSTORE PUSH2 0x1D59 ADD MSTORE PUSH1 0xA0 MLOAD DUP5 DUP2 DUP2 PUSH2 0x2FB ADD MSTORE DUP2 DUP2 PUSH2 0x669 ADD MSTORE DUP2 DUP2 PUSH2 0x8AC ADD MSTORE DUP2 DUP2 PUSH2 0xC56 ADD MSTORE DUP2 DUP2 PUSH2 0x1410 ADD MSTORE DUP2 DUP2 PUSH2 0x157B ADD MSTORE DUP2 DUP2 PUSH2 0x1872 ADD MSTORE DUP2 DUP2 PUSH2 0x194C ADD MSTORE DUP2 DUP2 PUSH2 0x1BE8 ADD MSTORE DUP2 DUP2 PUSH2 0x1C6E ADD MSTORE DUP2 DUP2 PUSH2 0x1D81 ADD MSTORE PUSH2 0x1EC7 ADD MSTORE PUSH1 0xC0 MLOAD DUP5 DUP2 DUP2 PUSH2 0x22A ADD MSTORE PUSH2 0x137C ADD MSTORE PUSH1 0xE0 MLOAD DUP5 DUP2 DUP2 PUSH2 0xA6C ADD MSTORE DUP2 DUP2 PUSH2 0xD56 ADD MSTORE DUP2 DUP2 PUSH2 0x13C3 ADD MSTORE DUP2 DUP2 PUSH2 0x14CB ADD MSTORE DUP2 DUP2 PUSH2 0x19D4 ADD MSTORE PUSH2 0x217F ADD MSTORE PUSH2 0x100 MLOAD DUP5 DUP2 DUP2 PUSH2 0x476 ADD MSTORE PUSH2 0x117E ADD MSTORE PUSH2 0x120 MLOAD DUP5 DUP2 DUP2 PUSH2 0x599 ADD MSTORE PUSH2 0x11C8 ADD MSTORE PUSH2 0x140 MLOAD DUP5 DUP2 DUP2 PUSH2 0x725 ADD MSTORE DUP2 DUP2 PUSH2 0x2087 ADD MSTORE PUSH2 0x2117 ADD MSTORE PUSH2 0x160 MLOAD DUP5 DUP2 DUP2 PUSH2 0xC1E ADD MSTORE DUP2 DUP2 PUSH2 0x205D ADD MSTORE PUSH2 0x20ED ADD MSTORE PUSH2 0x180 MLOAD DUP5 PUSH2 0xD94 ADD MSTORE PUSH2 0x1A0 MLOAD DUP5 DUP2 DUP2 PUSH2 0x81A ADD MSTORE DUP2 DUP2 PUSH2 0x143E ADD MSTORE PUSH2 0x1EA6 ADD MSTORE PUSH2 0x1C0 MLOAD DUP5 DUP2 DUP2 PUSH2 0x7D6 ADD MSTORE PUSH2 0x1836 ADD MSTORE PUSH2 0x1E0 MLOAD DUP5 DUP2 DUP2 PUSH2 0x4AE ADD MSTORE PUSH2 0x17FD ADD MSTORE PUSH2 0x200 MLOAD DUP5 DUP2 DUP2 PUSH2 0xDCD ADD MSTORE DUP2 DUP2 PUSH2 0x14FE ADD MSTORE DUP2 DUP2 PUSH2 0x161B ADD MSTORE DUP2 DUP2 PUSH2 0x165E ADD MSTORE DUP2 DUP2 PUSH2 0x16AD ADD MSTORE DUP2 DUP2 PUSH2 0x1BA7 ADD MSTORE DUP2 DUP2 PUSH2 0x1CC6 ADD MSTORE PUSH2 0x1D09 ADD MSTORE MLOAD DUP4 DUP2 DUP2 PUSH2 0x43B ADD MSTORE PUSH2 0x1499 ADD MSTORE MLOAD DUP3 DUP2 DUP2 PUSH2 0x5D4 ADD MSTORE PUSH2 0x179D ADD MSTORE MLOAD DUP2 PUSH2 0xCF1 ADD MSTORE RETURN JUMPDEST PUSH1 0x1 CHAINID EQ DUP1 ISZERO PUSH3 0x3D5 JUMPI JUMPDEST ISZERO PUSH3 0x37C JUMPI POP PUSH20 0x7A250D5630B4CF539739DF2C5DACB4C659F2488D PUSH3 0x15F JUMP JUMPDEST PUSH2 0x2105 CHAINID EQ SWAP1 DUP2 ISZERO PUSH3 0x3C7 JUMPI JUMPDEST POP ISZERO PUSH3 0x3AC JUMPI PUSH20 0x4752BA5DBC23F44D87826276BF6FD6B1C372AD24 PUSH3 0x15F JUMP JUMPDEST PUSH20 0x7A250D5630B4CF539739DF2C5DACB4C659F2488D PUSH3 0x15F JUMP JUMPDEST CHAINID PUSH3 0x14A34 EQ SWAP2 POP PUSH3 0x38A JUMP JUMPDEST POP PUSH3 0xAA36A7 CHAINID EQ PUSH3 0x35A JUMP JUMPDEST POP PUSH1 0x61 CHAINID EQ PUSH3 0x13F JUMP JUMPDEST PUSH1 0x0 DUP1 REVERT JUMPDEST PUSH4 0x4E487B71 PUSH1 0xE0 SHL PUSH1 0x0 MSTORE PUSH1 0x41 PUSH1 0x4 MSTORE PUSH1 0x24 PUSH1 0x0 REVERT JUMPDEST MLOAD SWAP1 PUSH1 0x1 PUSH1 0x1 PUSH1 0xA0 SHL SUB DUP3 AND DUP3 SUB PUSH3 0x3ED JUMPI JUMP JUMPDEST PUSH1 0x1 PUSH1 0x1 PUSH1 0xA0 SHL SUB AND PUSH1 0x0 DUP2 DUP2 MSTORE PUSH32 0xAD3228B676F7D3CD4284A5443F17F1962B36E491B30A40B2405849E597BA5FB5 PUSH1 0x20 MSTORE PUSH1 0x40 DUP2 KECCAK256 SLOAD SWAP1 SWAP2 SWAP1 PUSH1 0xFF AND PUSH3 0x499 JUMPI DUP2 DUP1 MSTORE DUP2 PUSH1 0x20 MSTORE PUSH1 0x40 DUP3 KECCAK256 DUP2 DUP4 MSTORE PUSH1 0x20 MSTORE PUSH1 0x40 DUP3 KECCAK256 PUSH1 0x1 PUSH1 0xFF NOT DUP3 SLOAD AND OR SWAP1 SSTORE CALLER SWAP2 PUSH1 0x0 DUP1 MLOAD PUSH1 0x20 PUSH3 0x272F DUP4 CODECOPY DUP2 MLOAD SWAP2 MSTORE DUP2 DUP1 LOG4 PUSH1 0x1 SWAP1 JUMP JUMPDEST POP SWAP1 JUMP JUMPDEST PUSH1 0x1 PUSH1 0x1 PUSH1 0xA0 SHL SUB AND PUSH1 0x0 DUP2 DUP2 MSTORE PUSH32 0x7D7FFB7A348E1C6A02869081A26547B49160DD3DF72D1D75A570EB9B698292EC PUSH1 0x20 MSTORE PUSH1 0x40 DUP2 KECCAK256 SLOAD SWAP1 SWAP2 SWAP1 PUSH32 0xA49807205CE4D355092EF5A8A18F56E8913CF4A201FBE287825B095693C21775 SWAP1 PUSH1 0xFF AND PUSH3 0x53A JUMPI DUP1 DUP4 MSTORE DUP3 PUSH1 0x20 MSTORE PUSH1 0x40 DUP4 KECCAK256 DUP3 DUP5 MSTORE PUSH1 0x20 MSTORE PUSH1 0x40 DUP4 KECCAK256 PUSH1 0x1 PUSH1 0xFF NOT DUP3 SLOAD AND OR SWAP1 SSTORE PUSH1 0x0 DUP1 MLOAD PUSH1 0x20 PUSH3 0x272F DUP4 CODECOPY DUP2 MLOAD SWAP2 MSTORE CALLER SWAP4 DUP1 LOG4 PUSH1 0x1 SWAP1 JUMP JUMPDEST POP POP SWAP1 JUMP INVALID PUSH1 0x80 PUSH1 0x40 DUP2 DUP2 MSTORE PUSH1 0x4 SWAP2 DUP3 CALLDATASIZE LT ISZERO PUSH2 0x16 JUMPI PUSH1 0x0 DUP1 REVERT JUMPDEST PUSH1 0x0 SWAP3 DUP4 CALLDATALOAD PUSH1 0xE0 SHR SWAP2 DUP3 PUSH4 0x1FFC9A7 EQ PUSH2 0xE25 JUMPI POP DUP2 PUSH4 0x3FC2013 EQ PUSH2 0xDFC JUMPI DUP2 PUSH4 0x758D924 EQ PUSH2 0xDB8 JUMPI DUP2 PUSH4 0xB7C1AE1 EQ PUSH2 0xD79 JUMPI DUP2 PUSH4 0x12AEF8C3 EQ PUSH2 0xD3E JUMPI DUP2 PUSH4 0x1CC64544 EQ PUSH2 0x4F8 JUMPI DUP2 PUSH4 0x200D2ED2 EQ PUSH2 0xD14 JUMPI DUP2 PUSH4 0x220C0956 EQ PUSH2 0xCD9 JUMPI DUP2 PUSH4 0x248A9CA3 EQ PUSH2 0xCAF JUMPI DUP2 PUSH4 0x2F2FF15D EQ PUSH2 0xC85 JUMPI DUP2 PUSH4 0x3013CE29 EQ PUSH2 0xC41 JUMPI DUP2 PUSH4 0x3197CBB6 EQ PUSH2 0xC06 JUMPI DUP2 PUSH4 0x362F04C0 EQ PUSH2 0xBE8 JUMPI DUP2 PUSH4 0x36568ABE EQ PUSH2 0xBA2 JUMPI DUP2 PUSH4 0x3F4BA83A EQ PUSH2 0xB57 JUMPI DUP2 PUSH4 0x42E94C90 EQ PUSH2 0x397 JUMPI DUP2 PUSH4 0x48C54B9D EQ PUSH2 0xA00 JUMPI DUP2 PUSH4 0x4B60CE77 EQ PUSH2 0x9BC JUMPI DUP2 PUSH4 0x4BB278F3 EQ PUSH2 0x99B JUMPI DUP2 PUSH4 0x4E69D560 EQ PUSH2 0x96E JUMPI DUP2 PUSH4 0x590E1AE3 EQ PUSH2 0x849 JUMPI DUP2 PUSH4 0x6052970C EQ PUSH2 0x805 JUMPI DUP2 PUSH4 0x619F3D6C EQ PUSH2 0x7C1 JUMPI DUP2 PUSH4 0x73B2E80E EQ PUSH2 0x783 JUMPI DUP2 PUSH4 0x75B238FC EQ PUSH2 0x748 JUMPI DUP2 PUSH4 0x78E97925 EQ PUSH2 0x70D JUMPI DUP2 PUSH4 0x8160059A EQ PUSH2 0x649 JUMPI DUP2 PUSH4 0x8456CB59 EQ PUSH2 0x5F7 JUMPI DUP2 PUSH4 0x8BCD8515 EQ PUSH2 0x5BC JUMPI DUP2 PUSH4 0x8D3D6576 EQ PUSH2 0x581 JUMPI DUP2 PUSH4 0x8D4E4083 EQ PUSH2 0x55D JUMPI DUP2 PUSH4 0x91D14854 EQ PUSH2 0x517 JUMPI DUP2 PUSH4 0x9CE05DF7 EQ PUSH2 0x4F8 JUMPI DUP2 PUSH4 0xA217FDDF EQ PUSH2 0x4DD JUMPI DUP2 PUSH4 0xA4475CE4 EQ PUSH2 0x499 JUMPI DUP2 PUSH4 0xAAFFADF3 EQ PUSH2 0x45E JUMPI DUP2 PUSH4 0xB0683755 EQ PUSH2 0x423 JUMPI DUP2 PUSH4 0xB187BD26 EQ PUSH2 0x3FC JUMPI DUP2 PUSH4 0xB920ADE2 EQ PUSH2 0x3CF JUMPI DUP2 PUSH4 0xBB8B2B47 EQ PUSH2 0x397 JUMPI DUP2 PUSH4 0xC5C4744C EQ PUSH2 0x378 JUMPI DUP2 PUSH4 0xD547741F EQ PUSH2 0x339 JUMPI DUP2 PUSH4 0xD7BB99BA EQ PUSH2 0x2E3 JUMPI DUP2 PUSH4 0xEA8A1AF0 EQ PUSH2 0x251 JUMPI POP PUSH4 0xF89BE593 EQ PUSH2 0x214 JUMPI PUSH1 0x0 DUP1 REVERT JUMPDEST CALLVALUE PUSH2 0x24D JUMPI DUP2 PUSH1 0x3 NOT CALLDATASIZE ADD SLT PUSH2 0x24D JUMPI PUSH1 0x20 SWAP1 MLOAD PUSH32 0x0 DUP2 MSTORE RETURN JUMPDEST POP DUP1 REVERT JUMPDEST SWAP1 POP CALLVALUE PUSH2 0x2DF JUMPI DUP3 PUSH1 0x3 NOT CALLDATASIZE ADD SLT PUSH2 0x2DF JUMPI PUSH2 0x26B PUSH2 0xED2 JUMP JUMPDEST PUSH1 0x2 SLOAD SWAP2 PUSH1 0xFF DUP4 PUSH1 0xA0 SHR AND PUSH1 0x6 DUP2 LT ISZERO PUSH2 0x2CC JUMPI PUSH1 0x3 EQ PUSH2 0x2BF JUMPI POP POP PUSH1 0xFF PUSH1 0xA0 SHL NOT AND PUSH1 0x5 PUSH1 0xA0 SHL OR PUSH1 0x2 SSTORE PUSH32 0x63B958841F79AB97CB5456DA181454B9932C0E15A3B17F1CBD27E2A8BC610437 DUP2 DUP1 LOG1 DUP1 RETURN JUMPDEST MLOAD PUSH4 0x7A92F19 PUSH1 0xE5 SHL DUP2 MSTORE REVERT JUMPDEST PUSH4 0x4E487B71 PUSH1 0xE0 SHL DUP6 MSTORE PUSH1 0x21 DUP4 MSTORE PUSH1 0x24 DUP6 REVERT JUMPDEST DUP3 DUP1 REVERT JUMPDEST SWAP2 SWAP1 POP DUP3 PUSH1 0x3 NOT CALLDATASIZE ADD SLT PUSH2 0x2DF JUMPI PUSH2 0x2F9 PUSH2 0x1065 JUMP JUMPDEST PUSH32 0x0 PUSH1 0x1 PUSH1 0x1 PUSH1 0xA0 SHL SUB AND PUSH2 0x2BF JUMPI DUP3 PUSH2 0x332 CALLVALUE CALLER PUSH2 0x114B JUMP JUMPDEST PUSH1 0x1 DUP1 SSTORE DUP1 RETURN JUMPDEST SWAP2 SWAP1 POP CALLVALUE PUSH2 0x2DF JUMPI DUP1 PUSH1 0x3 NOT CALLDATASIZE ADD SLT PUSH2 0x2DF JUMPI PUSH2 0x374 SWAP2 CALLDATALOAD PUSH2 0x36F PUSH1 0x1 PUSH2 0x35E PUSH2 0xEA1 JUMP JUMPDEST SWAP4 DUP4 DUP8 MSTORE DUP7 PUSH1 0x20 MSTORE DUP7 KECCAK256 ADD SLOAD PUSH2 0xF4C JUMP JUMPDEST PUSH2 0xFF0 JUMP JUMPDEST POP DUP1 RETURN JUMPDEST POP POP CALLVALUE PUSH2 0x24D JUMPI DUP2 PUSH1 0x3 NOT CALLDATASIZE ADD SLT PUSH2 0x24D JUMPI PUSH1 0x20 SWAP1 PUSH1 0x3 SLOAD SWAP1 MLOAD SWAP1 DUP2 MSTORE RETURN JUMPDEST POP POP CALLVALUE PUSH2 0x24D JUMPI PUSH1 0x20 CALLDATASIZE PUSH1 0x3 NOT ADD SLT PUSH2 0x24D JUMPI PUSH1 0x20 SWAP2 DUP2 SWAP1 PUSH1 0x1 PUSH1 0x1 PUSH1 0xA0 SHL SUB PUSH2 0x3BF PUSH2 0xEBC JUMP JUMPDEST AND DUP2 MSTORE PUSH1 0x7 DUP5 MSTORE KECCAK256 SLOAD SWAP1 MLOAD SWAP1 DUP2 MSTORE RETURN JUMPDEST POP POP CALLVALUE PUSH2 0x24D JUMPI PUSH1 0x20 CALLDATASIZE PUSH1 0x3 NOT ADD SLT PUSH2 0x24D JUMPI PUSH1 0x20 SWAP1 PUSH2 0x3F5 PUSH2 0x3F0 PUSH2 0xEBC JUMP JUMPDEST PUSH2 0x213E JUMP JUMPDEST SWAP1 MLOAD SWAP1 DUP2 MSTORE RETURN JUMPDEST POP POP CALLVALUE PUSH2 0x24D JUMPI DUP2 PUSH1 0x3 NOT CALLDATASIZE ADD SLT PUSH2 0x24D JUMPI PUSH1 0x20 SWAP1 PUSH1 0xFF PUSH1 0x6 SLOAD PUSH1 0x8 SHR AND SWAP1 MLOAD SWAP1 ISZERO ISZERO DUP2 MSTORE RETURN JUMPDEST POP POP CALLVALUE PUSH2 0x24D JUMPI DUP2 PUSH1 0x3 NOT CALLDATASIZE ADD SLT PUSH2 0x24D JUMPI PUSH1 0x20 SWAP1 MLOAD PUSH32 0x0 DUP2 MSTORE RETURN JUMPDEST POP POP CALLVALUE PUSH2 0x24D JUMPI DUP2 PUSH1 0x3 NOT CALLDATASIZE ADD SLT PUSH2 0x24D JUMPI PUSH1 0x20 SWAP1 MLOAD PUSH32 0x0 DUP2 MSTORE RETURN JUMPDEST POP POP CALLVALUE PUSH2 0x24D JUMPI DUP2 PUSH1 0x3 NOT CALLDATASIZE ADD SLT PUSH2 0x24D JUMPI MLOAD PUSH32 0x0 PUSH1 0x1 PUSH1 0x1 PUSH1 0xA0 SHL SUB AND DUP2 MSTORE PUSH1 0x20 SWAP1 RETURN JUMPDEST POP POP CALLVALUE PUSH2 0x24D JUMPI DUP2 PUSH1 0x3 NOT CALLDATASIZE ADD SLT PUSH2 0x24D JUMPI MLOAD SWAP1 DUP2 MSTORE PUSH1 0x20 SWAP1 RETURN JUMPDEST POP POP CALLVALUE PUSH2 0x24D JUMPI DUP2 PUSH1 0x3 NOT CALLDATASIZE ADD SLT PUSH2 0x24D JUMPI PUSH1 0x20 SWAP1 PUSH1 0x5 SLOAD SWAP1 MLOAD SWAP1 DUP2 MSTORE RETURN JUMPDEST SWAP1 POP CALLVALUE PUSH2 0x2DF JUMPI DUP2 PUSH1 0x3 NOT CALLDATASIZE ADD SLT PUSH2 0x2DF JUMPI DUP2 PUSH1 0x20 SWAP4 PUSH1 0xFF SWAP3 PUSH2 0x538 PUSH2 0xEA1 JUMP JUMPDEST SWAP1 CALLDATALOAD DUP3 MSTORE DUP2 DUP7 MSTORE DUP3 DUP3 KECCAK256 PUSH1 0x1 PUSH1 0x1 PUSH1 0xA0 SHL SUB SWAP1 SWAP2 AND DUP3 MSTORE DUP6 MSTORE KECCAK256 SLOAD SWAP2 MLOAD SWAP2 AND ISZERO ISZERO DUP2 MSTORE RETURN JUMPDEST POP POP CALLVALUE PUSH2 0x24D JUMPI DUP2 PUSH1 0x3 NOT CALLDATASIZE ADD SLT PUSH2 0x24D JUMPI PUSH1 0x20 SWAP1 PUSH1 0xFF PUSH1 0x6 SLOAD AND SWAP1 MLOAD SWAP1 ISZERO ISZERO DUP2 MSTORE RETURN JUMPDEST POP POP CALLVALUE PUSH2 0x24D JUMPI DUP2 PUSH1 0x3 NOT CALLDATASIZE ADD SLT PUSH2 0x24D JUMPI PUSH1 0x20 SWAP1 MLOAD PUSH32 0x0 DUP2 MSTORE RETURN JUMPDEST POP POP CALLVALUE PUSH2 0x24D JUMPI DUP2 PUSH1 0x3 NOT CALLDATASIZE ADD SLT PUSH2 0x24D JUMPI PUSH1 0x20 SWAP1 MLOAD PUSH32 0x0 DUP2 MSTORE RETURN JUMPDEST DUP4 CALLVALUE PUSH2 0x646 JUMPI DUP1 PUSH1 0x3 NOT CALLDATASIZE ADD SLT PUSH2 0x646 JUMPI PUSH2 0x610 PUSH2 0xED2 JUMP JUMPDEST PUSH2 0x100 PUSH2 0xFF00 NOT PUSH1 0x6 SLOAD AND OR PUSH1 0x6 SSTORE PUSH32 0x9E87FAC88FF661F02D44F95383C817FECE4BCE600A3DAB7A54406878B965E752 DUP2 DUP1 LOG1 DUP1 RETURN JUMPDEST DUP1 REVERT JUMPDEST DUP4 DUP4 CALLVALUE PUSH2 0x24D JUMPI PUSH1 0x20 CALLDATASIZE PUSH1 0x3 NOT ADD SLT PUSH2 0x24D JUMPI DUP3 CALLDATALOAD SWAP1 PUSH2 0x667 PUSH2 0x1065 JUMP JUMPDEST PUSH32 0x0 PUSH1 0x1 PUSH1 0x1 PUSH1 0xA0 SHL SUB AND DUP1 ISZERO PUSH2 0x6FD JUMPI DUP2 MLOAD PUSH4 0x23B872DD PUSH1 0xE0 SHL PUSH1 0x20 DUP3 ADD MSTORE CALLER PUSH1 0x24 DUP3 ADD MSTORE ADDRESS PUSH1 0x44 DUP3 ADD MSTORE PUSH1 0x64 DUP1 DUP3 ADD DUP6 SWAP1 MSTORE DUP2 MSTORE SWAP2 PUSH1 0xA0 DUP4 ADD SWAP1 PUSH8 0xFFFFFFFFFFFFFFFF DUP3 GT DUP5 DUP4 LT OR PUSH2 0x6EA JUMPI MSTORE PUSH2 0x332 SWAP3 SWAP2 PUSH2 0x6E4 SWAP2 PUSH2 0x10C0 JUMP JUMPDEST CALLER PUSH2 0x114B JUMP JUMPDEST PUSH4 0x4E487B71 PUSH1 0xE0 SHL DUP7 MSTORE PUSH1 0x41 DUP8 MSTORE PUSH1 0x24 DUP7 REVERT JUMPDEST DUP2 MLOAD PUSH4 0x7A92F19 PUSH1 0xE5 SHL DUP2 MSTORE DUP6 SWAP1 REVERT JUMPDEST POP POP CALLVALUE PUSH2 0x24D JUMPI DUP2 PUSH1 0x3 NOT CALLDATASIZE ADD SLT PUSH2 0x24D JUMPI PUSH1 0x20 SWAP1 MLOAD PUSH32 0x0 DUP2 MSTORE RETURN JUMPDEST POP POP CALLVALUE PUSH2 0x24D JUMPI DUP2 PUSH1 0x3 NOT CALLDATASIZE ADD SLT PUSH2 0x24D JUMPI PUSH1 0x20 SWAP1 MLOAD PUSH32 0xA49807205CE4D355092EF5A8A18F56E8913CF4A201FBE287825B095693C21775 DUP2 MSTORE RETURN JUMPDEST POP POP CALLVALUE PUSH2 0x24D JUMPI PUSH1 0x20 CALLDATASIZE PUSH1 0x3 NOT ADD SLT PUSH2 0x24D JUMPI PUSH1 0x20 SWAP2 PUSH1 0xFF SWAP1 DUP3 SWAP1 PUSH1 0x1 PUSH1 0x1 PUSH1 0xA0 SHL SUB PUSH2 0x7AE PUSH2 0xEBC JUMP JUMPDEST AND DUP2 MSTORE PUSH1 0x8 DUP6 MSTORE KECCAK256 SLOAD AND SWAP1 MLOAD SWAP1 ISZERO ISZERO DUP2 MSTORE RETURN JUMPDEST POP POP CALLVALUE PUSH2 0x24D JUMPI DUP2 PUSH1 0x3 NOT CALLDATASIZE ADD SLT PUSH2 0x24D JUMPI MLOAD PUSH32 0x0 PUSH1 0x1 PUSH1 0x1 PUSH1 0xA0 SHL SUB AND DUP2 MSTORE PUSH1 0x20 SWAP1 RETURN JUMPDEST POP POP CALLVALUE PUSH2 0x24D JUMPI DUP2 PUSH1 0x3 NOT CALLDATASIZE ADD SLT PUSH2 0x24D JUMPI MLOAD PUSH32 0x0 PUSH1 0x1 PUSH1 0x1 PUSH1 0xA0 SHL SUB AND DUP2 MSTORE PUSH1 0x20 SWAP1 RETURN JUMPDEST SWAP2 SWAP1 POP CALLVALUE PUSH2 0x2DF JUMPI DUP3 PUSH1 0x3 NOT CALLDATASIZE ADD SLT PUSH2 0x2DF JUMPI PUSH2 0x864 PUSH2 0x1065 JUMP JUMPDEST PUSH1 0xFF PUSH1 0x2 SLOAD PUSH1 0xA0 SHR AND PUSH1 0x6 DUP2 LT ISZERO PUSH2 0x95B JUMPI DUP3 DUP2 EQ ISZERO SWAP1 DUP2 PUSH2 0x94F JUMPI JUMPDEST POP PUSH2 0x2BF JUMPI CALLER DUP4 MSTORE PUSH1 0x7 PUSH1 0x20 MSTORE DUP1 DUP4 KECCAK256 SLOAD ISZERO PUSH2 0x942 JUMPI CALLER DUP4 MSTORE PUSH1 0x7 PUSH1 0x20 MSTORE DUP1 DUP4 KECCAK256 DUP1 SLOAD SWAP1 DUP5 SWAP1 SSTORE SWAP2 DUP3 PUSH32 0x0 PUSH1 0x1 PUSH1 0x1 PUSH1 0xA0 SHL SUB AND DUP1 PUSH2 0x931 JUMPI POP DUP5 DUP1 DUP1 DUP1 SWAP4 CALLER GAS CALL PUSH2 0x8EA PUSH2 0x12FD JUMP JUMPDEST POP ISZERO PUSH2 0x923 JUMPI POP JUMPDEST MLOAD SWAP1 DUP2 MSTORE PUSH32 0xD7DEE2702D63AD89917B6A4DA9981C90C4D24F8C2BDFD64C604ECAE57D8D0651 PUSH1 0x20 CALLER SWAP3 LOG2 PUSH1 0x1 DUP1 SSTORE DUP1 RETURN JUMPDEST SWAP1 MLOAD PUSH4 0x12171D83 PUSH1 0xE3 SHL DUP2 MSTORE REVERT JUMPDEST PUSH2 0x93D SWAP3 POP CALLER SWAP1 PUSH2 0x1F6C JUMP JUMPDEST PUSH2 0x8F2 JUMP JUMPDEST MLOAD PUSH4 0xF76AEF65 PUSH1 0xE0 SHL DUP2 MSTORE REVERT JUMPDEST PUSH1 0x5 SWAP2 POP EQ ISZERO CODESIZE PUSH2 0x881 JUMP JUMPDEST PUSH4 0x4E487B71 PUSH1 0xE0 SHL DUP5 MSTORE PUSH1 0x21 DUP4 MSTORE PUSH1 0x24 DUP5 REVERT JUMPDEST POP POP CALLVALUE PUSH2 0x24D JUMPI DUP2 PUSH1 0x3 NOT CALLDATASIZE ADD SLT PUSH2 0x24D JUMPI PUSH2 0x997 SWAP1 PUSH2 0x98C PUSH2 0x20AE JUMP JUMPDEST SWAP1 MLOAD SWAP2 DUP3 SWAP2 DUP3 PUSH2 0xE78 JUMP JUMPDEST SUB SWAP1 RETURN JUMPDEST DUP4 CALLVALUE PUSH2 0x646 JUMPI DUP1 PUSH1 0x3 NOT CALLDATASIZE ADD SLT PUSH2 0x646 JUMPI PUSH2 0x9B4 PUSH2 0x1065 JUMP JUMPDEST PUSH2 0x332 PUSH2 0x133D JUMP JUMPDEST POP POP CALLVALUE PUSH2 0x24D JUMPI DUP2 PUSH1 0x3 NOT CALLDATASIZE ADD SLT PUSH2 0x24D JUMPI MLOAD PUSH32 0x0 PUSH1 0x1 PUSH1 0x1 PUSH1 0xA0 SHL SUB AND DUP2 MSTORE PUSH1 0x20 SWAP1 RETURN JUMPDEST SWAP1 POP CALLVALUE PUSH2 0x2DF JUMPI DUP3 PUSH1 0x3 NOT CALLDATASIZE ADD SLT PUSH2 0x2DF JUMPI PUSH2 0xA1A PUSH2 0x1065 JUMP JUMPDEST PUSH1 0xFF PUSH1 0x2 SLOAD PUSH1 0xA0 SHR AND PUSH1 0x6 DUP2 LT ISZERO PUSH2 0xB44 JUMPI PUSH1 0x3 SUB PUSH2 0xB36 JUMPI CALLER DUP4 MSTORE PUSH1 0x7 PUSH1 0x20 MSTORE DUP2 DUP4 KECCAK256 SLOAD ISZERO PUSH2 0xB28 JUMPI CALLER DUP4 MSTORE PUSH1 0x8 PUSH1 0x20 MSTORE PUSH1 0xFF DUP3 DUP5 KECCAK256 SLOAD AND PUSH2 0xB1A JUMPI POP CALLER DUP3 MSTORE PUSH1 0x7 PUSH1 0x20 MSTORE PUSH2 0xA9A PUSH2 0xA91 DUP3 DUP5 KECCAK256 SLOAD PUSH32 0x0 SWAP1 PUSH2 0x12BD JUMP JUMPDEST PUSH1 0x3 SLOAD SWAP1 PUSH2 0x12D0 JUMP JUMPDEST CALLER DUP1 DUP5 MSTORE PUSH1 0x8 PUSH1 0x20 MSTORE DUP3 DUP5 KECCAK256 DUP1 SLOAD PUSH1 0xFF NOT AND PUSH1 0x1 OR SWAP1 SSTORE SWAP1 SWAP2 SWAP1 PUSH2 0xAE9 SWAP1 DUP4 SWAP1 PUSH32 0x0 PUSH1 0x1 PUSH1 0x1 PUSH1 0xA0 SHL SUB AND PUSH2 0x1F6C JUMP JUMPDEST MLOAD SWAP1 DUP2 MSTORE PUSH32 0x896E034966EAAF1ADC54ACC0F257056FEBBD300C9E47182CF761982CF1F5E430 PUSH1 0x20 CALLER SWAP3 LOG2 PUSH1 0x1 DUP1 SSTORE DUP1 RETURN JUMPDEST SWAP1 MLOAD PUSH4 0xC8D9EAB PUSH1 0xE3 SHL DUP2 MSTORE REVERT JUMPDEST SWAP1 MLOAD PUSH4 0x1971FBF3 PUSH1 0xE2 SHL DUP2 MSTORE REVERT JUMPDEST SWAP1 MLOAD PUSH4 0x7A92F19 PUSH1 0xE5 SHL DUP2 MSTORE REVERT JUMPDEST PUSH4 0x4E487B71 PUSH1 0xE0 SHL DUP5 MSTORE PUSH1 0x21 DUP3 MSTORE PUSH1 0x24 DUP5 REVERT JUMPDEST DUP4 CALLVALUE PUSH2 0x646 JUMPI DUP1 PUSH1 0x3 NOT CALLDATASIZE ADD SLT PUSH2 0x646 JUMPI PUSH2 0xB70 PUSH2 0xED2 JUMP JUMPDEST PUSH2 0xFF00 NOT PUSH1 0x6 SLOAD AND PUSH1 0x6 SSTORE PUSH32 0xA45F47FDEA8A1EFDD9029A5691C7F759C32B7C698632B563573E155625D16933 DUP2 DUP1 LOG1 DUP1 RETURN JUMPDEST DUP4 DUP4 CALLVALUE PUSH2 0x24D JUMPI DUP1 PUSH1 0x3 NOT CALLDATASIZE ADD SLT PUSH2 0x24D JUMPI PUSH2 0xBBC PUSH2 0xEA1 JUMP JUMPDEST SWAP1 CALLER PUSH1 0x1 PUSH1 0x1 PUSH1 0xA0 SHL SUB DUP4 AND SUB PUSH2 0xBD9 JUMPI POP PUSH2 0x374 SWAP2 SWAP3 CALLDATALOAD PUSH2 0xFF0 JUMP JUMPDEST MLOAD PUSH4 0x334BD919 PUSH1 0xE1 SHL DUP2 MSTORE DUP4 SWAP1 REVERT JUMPDEST SWAP1 POP CALLVALUE PUSH2 0x2DF JUMPI DUP3 PUSH1 0x3 NOT CALLDATASIZE ADD SLT PUSH2 0x2DF JUMPI PUSH1 0x20 SWAP3 POP SLOAD SWAP1 MLOAD SWAP1 DUP2 MSTORE RETURN JUMPDEST POP POP CALLVALUE PUSH2 0x24D JUMPI DUP2 PUSH1 0x3 NOT CALLDATASIZE ADD SLT PUSH2 0x24D JUMPI PUSH1 0x20 SWAP1 MLOAD PUSH32 0x0 DUP2 MSTORE RETURN JUMPDEST POP POP CALLVALUE PUSH2 0x24D JUMPI DUP2 PUSH1 0x3 NOT CALLDATASIZE ADD SLT PUSH2 0x24D JUMPI MLOAD PUSH32 0x0 PUSH1 0x1 PUSH1 0x1 PUSH1 0xA0 SHL SUB AND DUP2 MSTORE PUSH1 0x20 SWAP1 RETURN JUMPDEST SWAP2 SWAP1 POP CALLVALUE PUSH2 0x2DF JUMPI DUP1 PUSH1 0x3 NOT CALLDATASIZE ADD SLT PUSH2 0x2DF JUMPI PUSH2 0x374 SWAP2 CALLDATALOAD PUSH2 0xCAA PUSH1 0x1 PUSH2 0x35E PUSH2 0xEA1 JUMP JUMPDEST PUSH2 0xF72 JUMP JUMPDEST SWAP1 POP CALLVALUE PUSH2 0x2DF JUMPI PUSH1 0x20 CALLDATASIZE PUSH1 0x3 NOT ADD SLT PUSH2 0x2DF JUMPI DUP2 PUSH1 0x20 SWAP4 PUSH1 0x1 SWAP3 CALLDATALOAD DUP2 MSTORE DUP1 DUP6 MSTORE KECCAK256 ADD SLOAD SWAP1 MLOAD SWAP1 DUP2 MSTORE RETURN JUMPDEST POP POP CALLVALUE PUSH2 0x24D JUMPI DUP2 PUSH1 0x3 NOT CALLDATASIZE ADD SLT PUSH2 0x24D JUMPI PUSH1 0x20 SWAP1 MLOAD PUSH32 0x0 DUP2 MSTORE RETURN JUMPDEST POP POP CALLVALUE PUSH2 0x24D JUMPI DUP2 PUSH1 0x3 NOT CALLDATASIZE ADD SLT PUSH2 0x24D JUMPI PUSH2 0x997 SWAP1 PUSH1 0xFF PUSH1 0x2 SLOAD PUSH1 0xA0 SHR AND SWAP1 MLOAD SWAP2 DUP3 SWAP2 DUP3 PUSH2 0xE78 JUMP JUMPDEST POP POP CALLVALUE PUSH2 0x24D JUMPI DUP2 PUSH1 0x3 NOT CALLDATASIZE ADD SLT PUSH2 0x24D JUMPI PUSH1 0x20 SWAP1 MLOAD PUSH32 0x0 DUP2 MSTORE RETURN JUMPDEST POP POP CALLVALUE PUSH2 0x24D JUMPI DUP2 PUSH1 0x3 NOT CALLDATASIZE ADD SLT PUSH2 0x24D JUMPI PUSH1 0x20 SWAP1 MLOAD PUSH2 0xFFFF PUSH32 0x0 AND DUP2 MSTORE RETURN JUMPDEST POP POP CALLVALUE PUSH2 0x24D JUMPI DUP2 PUSH1 0x3 NOT CALLDATASIZE ADD SLT PUSH2 0x24D JUMPI MLOAD PUSH32 0x0 PUSH1 0x1 PUSH1 0x1 PUSH1 0xA0 SHL SUB AND DUP2 MSTORE PUSH1 0x20 SWAP1 RETURN JUMPDEST POP POP CALLVALUE PUSH2 0x24D JUMPI DUP2 PUSH1 0x3 NOT CALLDATASIZE ADD SLT PUSH2 0x24D JUMPI PUSH1 0x2 SLOAD SWAP1 MLOAD PUSH1 0x1 PUSH1 0x1 PUSH1 0xA0 SHL SUB SWAP1 SWAP2 AND DUP2 MSTORE PUSH1 0x20 SWAP1 RETURN JUMPDEST DUP5 SWAP2 CALLVALUE PUSH2 0x2DF JUMPI PUSH1 0x20 CALLDATASIZE PUSH1 0x3 NOT ADD SLT PUSH2 0x2DF JUMPI CALLDATALOAD PUSH4 0xFFFFFFFF PUSH1 0xE0 SHL DUP2 AND DUP1 SWAP2 SUB PUSH2 0x2DF JUMPI PUSH1 0x20 SWAP3 POP PUSH4 0x7965DB0B PUSH1 0xE0 SHL DUP2 EQ SWAP1 DUP2 ISZERO PUSH2 0xE67 JUMPI JUMPDEST POP ISZERO ISZERO DUP2 MSTORE RETURN JUMPDEST PUSH4 0x1FFC9A7 PUSH1 0xE0 SHL EQ SWAP1 POP DUP4 PUSH2 0xE60 JUMP JUMPDEST SWAP2 SWAP1 PUSH1 0x20 DUP4 ADD SWAP3 PUSH1 0x6 DUP3 LT ISZERO PUSH2 0xE8B JUMPI MSTORE JUMP JUMPDEST PUSH4 0x4E487B71 PUSH1 0xE0 SHL PUSH1 0x0 MSTORE PUSH1 0x21 PUSH1 0x4 MSTORE PUSH1 0x24 PUSH1 0x0 REVERT JUMPDEST PUSH1 0x24 CALLDATALOAD SWAP1 PUSH1 0x1 PUSH1 0x1 PUSH1 0xA0 SHL SUB DUP3 AND DUP3 SUB PUSH2 0xEB7 JUMPI JUMP JUMPDEST PUSH1 0x0 DUP1 REVERT JUMPDEST PUSH1 0x4 CALLDATALOAD SWAP1 PUSH1 0x1 PUSH1 0x1 PUSH1 0xA0 SHL SUB DUP3 AND DUP3 SUB PUSH2 0xEB7 JUMPI JUMP JUMPDEST CALLER PUSH1 0x0 SWAP1 DUP2 MSTORE PUSH32 0x7D7FFB7A348E1C6A02869081A26547B49160DD3DF72D1D75A570EB9B698292EC PUSH1 0x20 MSTORE PUSH1 0x40 SWAP1 KECCAK256 SLOAD PUSH32 0xA49807205CE4D355092EF5A8A18F56E8913CF4A201FBE287825B095693C21775 SWAP1 PUSH1 0xFF AND ISZERO PUSH2 0xF2E JUMPI POP JUMP JUMPDEST PUSH1 0x44 SWAP1 PUSH1 0x40 MLOAD SWAP1 PUSH4 0xE2517D3F PUSH1 0xE0 SHL DUP3 MSTORE CALLER PUSH1 0x4 DUP4 ADD MSTORE PUSH1 0x24 DUP3 ADD MSTORE REVERT JUMPDEST DUP1 PUSH1 0x0 MSTORE PUSH1 0x0 PUSH1 0x20 MSTORE PUSH1 0x40 PUSH1 0x0 KECCAK256 CALLER PUSH1 0x0 MSTORE PUSH1 0x20 MSTORE PUSH1 0xFF PUSH1 0x40 PUSH1 0x0 KECCAK256 SLOAD AND ISZERO PUSH2 0xF2E JUMPI POP JUMP JUMPDEST SWAP1 PUSH1 0x0 SWAP2 DUP1 DUP4 MSTORE DUP3 PUSH1 0x20 MSTORE PUSH1 0x40 DUP4 KECCAK256 SWAP2 PUSH1 0x1 DUP1 PUSH1 0xA0 SHL SUB AND SWAP2 DUP3 DUP5 MSTORE PUSH1 0x20 MSTORE PUSH1 0xFF PUSH1 0x40 DUP5 KECCAK256 SLOAD AND ISZERO PUSH1 0x0 EQ PUSH2 0xFEB JUMPI DUP1 DUP4 MSTORE DUP3 PUSH1 0x20 MSTORE PUSH1 0x40 DUP4 KECCAK256 DUP3 DUP5 MSTORE PUSH1 0x20 MSTORE PUSH1 0x40 DUP4 KECCAK256 PUSH1 0x1 PUSH1 0xFF NOT DUP3 SLOAD AND OR SWAP1 SSTORE PUSH32 0x2F8788117E7EFF1D82E926EC794901D17C78024A50270940304540A733656F0D CALLER SWAP4 DUP1 LOG4 PUSH1 0x1 SWAP1 JUMP JUMPDEST POP POP SWAP1 JUMP JUMPDEST SWAP1 PUSH1 0x0 SWAP2 DUP1 DUP4 MSTORE DUP3 PUSH1 0x20 MSTORE PUSH1 0x40 DUP4 KECCAK256 SWAP2 PUSH1 0x1 DUP1 PUSH1 0xA0 SHL SUB AND SWAP2 DUP3 DUP5 MSTORE PUSH1 0x20 MSTORE PUSH1 0xFF PUSH1 0x40 DUP5 KECCAK256 SLOAD AND PUSH1 0x0 EQ PUSH2 0xFEB JUMPI DUP1 DUP4 MSTORE DUP3 PUSH1 0x20 MSTORE PUSH1 0x40 DUP4 KECCAK256 DUP3 DUP5 MSTORE PUSH1 0x20 MSTORE PUSH1 0x40 DUP4 KECCAK256 PUSH1 0xFF NOT DUP2 SLOAD AND SWAP1 SSTORE PUSH32 0xF6391F5C32D9C69D2A47EA670B442974B53935D1EDC7FD64EB21E047A839171B CALLER SWAP4 DUP1 LOG4 PUSH1 0x1 SWAP1 JUMP JUMPDEST PUSH1 0x2 PUSH1 0x1 SLOAD EQ PUSH2 0x1076 JUMPI PUSH1 0x2 PUSH1 0x1 SSTORE JUMP JUMPDEST PUSH1 0x40 MLOAD PUSH4 0x3EE5AEB5 PUSH1 0xE0 SHL DUP2 MSTORE PUSH1 0x4 SWAP1 REVERT JUMPDEST SWAP1 PUSH1 0x1F DUP1 NOT SWAP2 ADD AND DUP2 ADD SWAP1 DUP2 LT PUSH8 0xFFFFFFFFFFFFFFFF DUP3 GT OR PUSH2 0x10AA JUMPI PUSH1 0x40 MSTORE JUMP JUMPDEST PUSH4 0x4E487B71 PUSH1 0xE0 SHL PUSH1 0x0 MSTORE PUSH1 0x41 PUSH1 0x4 MSTORE PUSH1 0x24 PUSH1 0x0 REVERT JUMPDEST SWAP1 PUSH1 0x0 PUSH1 0x20 SWAP2 DUP3 DUP2 MLOAD SWAP2 ADD DUP3 DUP6 GAS CALL ISZERO PUSH2 0x111C JUMPI PUSH1 0x0 MLOAD RETURNDATASIZE PUSH2 0x1113 JUMPI POP PUSH1 0x1 PUSH1 0x1 PUSH1 0xA0 SHL SUB DUP2 AND EXTCODESIZE ISZERO JUMPDEST PUSH2 0x10F1 JUMPI POP JUMP JUMPDEST PUSH1 0x40 MLOAD PUSH4 0x5274AFE7 PUSH1 0xE0 SHL DUP2 MSTORE PUSH1 0x1 PUSH1 0x1 PUSH1 0xA0 SHL SUB SWAP1 SWAP2 AND PUSH1 0x4 DUP3 ADD MSTORE PUSH1 0x24 SWAP1 REVERT JUMPDEST PUSH1 0x1 EQ ISZERO PUSH2 0x10EA JUMP JUMPDEST PUSH1 0x40 MLOAD RETURNDATASIZE PUSH1 0x0 DUP3 RETURNDATACOPY RETURNDATASIZE SWAP1 REVERT JUMPDEST SWAP2 SWAP1 DUP3 ADD DUP1 SWAP3 GT PUSH2 0x1135 JUMPI JUMP JUMPDEST PUSH4 0x4E487B71 PUSH1 0xE0 SHL PUSH1 0x0 MSTORE PUSH1 0x11 PUSH1 0x4 MSTORE PUSH1 0x24 PUSH1 0x0 REVERT JUMPDEST SWAP2 SWAP1 SWAP2 PUSH2 0x1156 PUSH2 0x2001 JUMP JUMPDEST PUSH1 0xFF PUSH1 0x2 SLOAD PUSH1 0xA0 SHR AND PUSH1 0x6 DUP2 LT ISZERO PUSH2 0xE8B JUMPI PUSH1 0x1 SUB PUSH2 0x12AB JUMPI PUSH1 0xFF PUSH1 0x6 SLOAD PUSH1 0x8 SHR AND PUSH2 0x1299 JUMPI PUSH32 0x0 DUP4 LT PUSH2 0x1287 JUMPI PUSH1 0x1 DUP1 PUSH1 0xA0 SHL SUB AND PUSH1 0x0 SWAP3 DUP2 DUP5 MSTORE PUSH1 0x7 PUSH1 0x20 MSTORE PUSH1 0x40 SWAP1 PUSH2 0x11C6 DUP2 DUP4 DUP8 KECCAK256 SLOAD PUSH2 0x1128 JUMP JUMPDEST PUSH32 0x0 DUP2 GT PUSH2 0x1276 JUMPI DUP4 DUP7 MSTORE PUSH1 0x7 PUSH1 0x20 MSTORE DUP3 DUP7 KECCAK256 SLOAD ISZERO PUSH2 0x124B JUMPI JUMPDEST DUP3 DUP7 DUP6 PUSH32 0xFA35A310D7113DDDCE1C275DA946348E9AAEBF9050B00B372033C4D84B0BD6EB SWAP7 SWAP8 SWAP9 MSTORE PUSH1 0x7 PUSH1 0x20 MSTORE KECCAK256 SSTORE PUSH2 0x123A DUP2 PUSH1 0x3 SLOAD PUSH2 0x1128 JUMP JUMPDEST DUP1 PUSH1 0x3 SSTORE DUP3 MLOAD SWAP2 DUP3 MSTORE PUSH1 0x20 DUP3 ADD MSTORE LOG2 JUMP JUMPDEST PUSH1 0x4 SLOAD PUSH1 0x0 NOT DUP2 EQ PUSH2 0x1262 JUMPI PUSH1 0x1 ADD PUSH1 0x4 SSTORE PUSH2 0x11FF JUMP JUMPDEST PUSH4 0x4E487B71 PUSH1 0xE0 SHL DUP8 MSTORE PUSH1 0x11 PUSH1 0x4 MSTORE PUSH1 0x24 DUP8 REVERT JUMPDEST DUP3 MLOAD PUSH4 0x5E508CD3 PUSH1 0xE1 SHL DUP2 MSTORE PUSH1 0x4 SWAP1 REVERT JUMPDEST PUSH1 0x40 MLOAD PUSH4 0x6C7591B5 PUSH1 0xE1 SHL DUP2 MSTORE PUSH1 0x4 SWAP1 REVERT JUMPDEST PUSH1 0x40 MLOAD PUSH4 0xAB35696F PUSH1 0xE0 SHL DUP2 MSTORE PUSH1 0x4 SWAP1 REVERT JUMPDEST PUSH1 0x40 MLOAD PUSH4 0x7A92F19 PUSH1 0xE5 SHL DUP2 MSTORE PUSH1 0x4 SWAP1 REVERT JUMPDEST DUP2 DUP2 MUL SWAP3 SWAP2 DUP2 ISZERO SWAP2 DUP5 DIV EQ OR ISZERO PUSH2 0x1135 JUMPI JUMP JUMPDEST DUP2 ISZERO PUSH2 0x12DA JUMPI DIV SWAP1 JUMP JUMPDEST PUSH4 0x4E487B71 PUSH1 0xE0 SHL PUSH1 0x0 MSTORE PUSH1 0x12 PUSH1 0x4 MSTORE PUSH1 0x24 PUSH1 0x0 REVERT JUMPDEST SWAP2 SWAP1 DUP3 SUB SWAP2 DUP3 GT PUSH2 0x1135 JUMPI JUMP JUMPDEST RETURNDATASIZE ISZERO PUSH2 0x1338 JUMPI RETURNDATASIZE SWAP1 PUSH8 0xFFFFFFFFFFFFFFFF DUP3 GT PUSH2 0x10AA JUMPI PUSH1 0x40 MLOAD SWAP2 PUSH2 0x132C PUSH1 0x1F DUP3 ADD PUSH1 0x1F NOT AND PUSH1 0x20 ADD DUP5 PUSH2 0x1088 JUMP JUMPDEST DUP3 MSTORE RETURNDATASIZE PUSH1 0x0 PUSH1 0x20 DUP5 ADD RETURNDATACOPY JUMP JUMPDEST PUSH1 0x60 SWAP1 JUMP JUMPDEST PUSH2 0x1345 PUSH2 0x2001 JUMP JUMPDEST PUSH1 0x2 SLOAD PUSH1 0x0 PUSH1 0xFF DUP3 PUSH1 0xA0 SHR AND PUSH1 0x6 DUP2 LT ISZERO PUSH2 0x1F58 JUMPI PUSH1 0x2 SUB PUSH2 0x12AB JUMPI PUSH1 0x6 SLOAD PUSH1 0xFF DUP2 AND PUSH2 0x12AB JUMPI PUSH1 0xFF NOT AND PUSH1 0x1 OR PUSH1 0x6 SSTORE PUSH1 0x3 SLOAD SWAP2 PUSH32 0x0 DUP4 LT PUSH2 0x1F21 JUMPI POP PUSH8 0xDE0B6B3A7640000 SWAP1 DUP2 DUP4 MUL DUP4 ISZERO SWAP3 DUP5 DUP3 DIV EQ DUP4 OR ISZERO PUSH2 0x1F0D JUMPI PUSH2 0x13E8 SWAP1 PUSH32 0x0 SWAP1 PUSH2 0x12D0 JUMP JUMPDEST PUSH1 0x5 SSTORE PUSH2 0x1F4 SWAP2 DUP3 DUP5 MUL SWAP3 DUP5 DUP5 DIV EQ OR ISZERO PUSH2 0x1EF9 JUMPI PUSH2 0x140D PUSH2 0x2710 DUP1 SWAP4 DIV DUP1 SWAP5 PUSH2 0x12F0 JUMP JUMPDEST SWAP3 PUSH32 0x0 PUSH1 0x1 PUSH1 0x1 PUSH1 0xA0 SHL SUB AND PUSH2 0x1EA0 JUMPI PUSH32 0x0 PUSH1 0x1 PUSH1 0x1 PUSH1 0xA0 SHL SUB AND DUP1 EXTCODESIZE ISZERO PUSH2 0x2DF JUMPI DUP3 SWAP1 PUSH1 0x24 PUSH1 0x40 MLOAD DUP1 SWAP5 DUP2 SWAP4 PUSH4 0x39650D1F PUSH1 0xE0 SHL DUP4 MSTORE ADDRESS PUSH1 0x4 DUP5 ADD MSTORE GAS CALL DUP1 ISZERO PUSH2 0x1B02 JUMPI PUSH2 0x1E74 JUMPI JUMPDEST POP JUMPDEST PUSH32 0x0 SWAP2 PUSH2 0x14EF DUP2 PUSH2 0x14C7 DUP6 DUP8 PUSH2 0x12BD JUMP JUMPDEST DIV SWAP4 PUSH32 0x0 PUSH2 0x12BD JUMP JUMPDEST PUSH1 0x40 MLOAD PUSH4 0x95EA7B3 PUSH1 0xE0 SHL DUP2 MSTORE PUSH32 0x0 PUSH1 0x1 PUSH1 0x1 PUSH1 0xA0 SHL SUB AND PUSH1 0x4 DUP3 ADD MSTORE SWAP2 SWAP1 DIV PUSH1 0x24 DUP3 ADD DUP2 SWAP1 MSTORE SWAP1 PUSH1 0x20 DUP2 DUP1 PUSH1 0x44 DUP2 ADD SUB DUP2 DUP7 PUSH32 0x0 PUSH1 0x1 PUSH1 0x1 PUSH1 0xA0 SHL SUB AND GAS CALL DUP1 ISZERO PUSH2 0x1B2C JUMPI PUSH2 0x1E55 JUMPI JUMPDEST POP PUSH32 0x0 PUSH1 0x1 PUSH1 0x1 PUSH1 0xA0 SHL SUB AND PUSH2 0x1B98 JUMPI PUSH2 0x12C TIMESTAMP ADD DUP1 TIMESTAMP GT PUSH2 0x1B84 JUMPI PUSH1 0x40 MLOAD SWAP2 PUSH4 0xF305D719 PUSH1 0xE0 SHL DUP4 MSTORE PUSH1 0x1 DUP1 PUSH1 0xA0 SHL SUB PUSH32 0x0 AND PUSH1 0x4 DUP5 ADD MSTORE PUSH1 0x24 DUP4 ADD MSTORE DUP3 PUSH1 0x44 DUP4 ADD MSTORE DUP3 PUSH1 0x64 DUP4 ADD MSTORE ADDRESS PUSH1 0x84 DUP4 ADD MSTORE PUSH1 0xA4 DUP3 ADD MSTORE PUSH1 0x60 DUP2 PUSH1 0xC4 DUP2 DUP7 PUSH1 0x1 DUP1 PUSH1 0xA0 SHL SUB PUSH32 0x0 AND GAS CALL DUP1 ISZERO PUSH2 0x1B02 JUMPI PUSH2 0x1B56 JUMPI JUMPDEST POP PUSH1 0x40 MLOAD PUSH4 0xC45A0155 PUSH1 0xE0 SHL DUP2 MSTORE PUSH1 0x20 DUP2 PUSH1 0x4 DUP2 PUSH32 0x0 PUSH1 0x1 PUSH1 0x1 PUSH1 0xA0 SHL SUB AND GAS STATICCALL SWAP1 DUP2 ISZERO PUSH2 0x1B02 JUMPI DUP3 SWAP2 PUSH2 0x1B37 JUMPI JUMPDEST POP PUSH1 0x40 MLOAD PUSH4 0x15AB88C9 PUSH1 0xE3 SHL DUP2 MSTORE SWAP1 PUSH1 0x20 DUP3 PUSH1 0x4 DUP2 PUSH32 0x0 PUSH1 0x1 PUSH1 0x1 PUSH1 0xA0 SHL SUB AND GAS STATICCALL SWAP2 DUP3 ISZERO PUSH2 0x1B2C JUMPI SWAP2 PUSH1 0x20 SWAP2 PUSH2 0x1743 SWAP4 DUP6 SWAP3 PUSH2 0x1B0D JUMPI JUMPDEST POP PUSH1 0x40 MLOAD PUSH4 0xE6A43905 PUSH1 0xE0 SHL DUP2 MSTORE PUSH1 0x1 PUSH1 0x1 PUSH1 0xA0 SHL SUB PUSH32 0x0 DUP2 AND PUSH1 0x4 DUP4 ADD MSTORE SWAP1 SWAP3 AND PUSH1 0x24 DUP4 ADD MSTORE SWAP1 SWAP3 DUP4 SWAP2 SWAP1 DUP3 SWAP1 DUP2 SWAP1 PUSH1 0x44 DUP3 ADD SWAP1 JUMP JUMPDEST SUB SWAP2 PUSH1 0x1 PUSH1 0x1 PUSH1 0xA0 SHL SUB AND GAS STATICCALL SWAP1 DUP2 ISZERO PUSH2 0x1B02 JUMPI DUP3 SWAP2 PUSH2 0x1AD3 JUMPI JUMPDEST POP JUMPDEST PUSH1 0x1 DUP1 PUSH1 0xA0 SHL SUB AND SWAP3 PUSH1 0x40 MLOAD SWAP3 PUSH4 0x70A08231 PUSH1 0xE0 SHL SWAP1 DUP2 DUP6 MSTORE ADDRESS PUSH1 0x4 DUP7 ADD MSTORE PUSH1 0x20 DUP6 PUSH1 0x24 DUP2 DUP10 GAS STATICCALL SWAP5 DUP6 ISZERO PUSH2 0x1AC8 JUMPI DUP5 SWAP6 PUSH2 0x1A94 JUMPI JUMPDEST POP PUSH3 0x278D00 PUSH32 0x0 DUP2 DUP2 MUL SWAP2 DUP2 ISZERO SWAP2 DUP4 DIV EQ OR ISZERO PUSH2 0x1A80 JUMPI PUSH2 0x17D6 SWAP1 TIMESTAMP PUSH2 0x1128 JUMP JUMPDEST SWAP3 DUP7 PUSH32 0xAC1D76749E5447B7B16F5AB61447E1BD502F3BB4807AF3B28E620D1700A6EE45 PUSH1 0x40 PUSH32 0x0 SWAP7 PUSH2 0x1828 DUP11 DUP10 DUP7 PUSH2 0x1F6C JUMP JUMPDEST DUP2 MLOAD SWAP1 DUP11 DUP3 MSTORE PUSH1 0x20 DUP3 ADD MSTORE LOG2 PUSH32 0x0 PUSH1 0x1 PUSH1 0x1 PUSH1 0xA0 SHL SUB DUP2 AND PUSH2 0x197E JUMPI JUMPDEST POP PUSH2 0x186F SWAP3 POP PUSH2 0x12F0 JUMP JUMPDEST SWAP1 PUSH32 0x0 PUSH1 0x1 PUSH1 0x1 PUSH1 0xA0 SHL SUB AND PUSH2 0x191D JUMPI DUP3 DUP1 SWAP3 DUP2 SWAP3 GAS CALL PUSH2 0x18AD PUSH2 0x12FD JUMP JUMPDEST POP ISZERO PUSH2 0x190B JUMPI PUSH32 0x6E4389167D2AFBD1CCB4797EA87E29958ADBF74CD16BA077A2EE5AB8460784E5 SWAP2 PUSH1 0x80 SWAP2 JUMPDEST PUSH1 0x3 PUSH1 0xA0 SHL PUSH1 0xFF PUSH1 0xA0 SHL NOT PUSH1 0x2 SLOAD AND OR PUSH1 0x2 SSTORE PUSH1 0x5 SLOAD SWAP2 PUSH1 0x3 SLOAD PUSH1 0x40 MLOAD SWAP4 DUP5 MSTORE PUSH1 0x20 DUP5 ADD MSTORE PUSH1 0x40 DUP4 ADD MSTORE PUSH1 0x60 DUP3 ADD MSTORE LOG1 JUMP JUMPDEST PUSH1 0x40 MLOAD PUSH4 0x12171D83 PUSH1 0xE3 SHL DUP2 MSTORE PUSH1 0x4 SWAP1 REVERT JUMPDEST PUSH32 0x6E4389167D2AFBD1CCB4797EA87E29958ADBF74CD16BA077A2EE5AB8460784E5 SWAP5 PUSH1 0x80 SWAP5 SWAP1 SWAP4 POP SWAP2 PUSH2 0x1979 SWAP2 PUSH32 0x0 PUSH1 0x1 PUSH1 0x1 PUSH1 0xA0 SHL SUB AND PUSH2 0x1F6C JUMP JUMPDEST PUSH2 0x18D9 JUMP JUMPDEST PUSH1 0x40 MLOAD SWAP4 DUP5 MSTORE ADDRESS PUSH1 0x4 DUP6 ADD MSTORE PUSH1 0x20 DUP5 PUSH1 0x24 DUP2 PUSH32 0x0 PUSH1 0x1 PUSH1 0x1 PUSH1 0xA0 SHL SUB AND GAS STATICCALL SWAP4 DUP5 ISZERO PUSH2 0x1A75 JUMPI DUP7 SWAP5 PUSH2 0x1A3F JUMPI JUMPDEST POP PUSH2 0x19F9 PUSH2 0x186F SWAP5 PUSH32 0x0 SWAP1 PUSH2 0x12F0 JUMP JUMPDEST DUP1 PUSH2 0x1A05 JUMPI JUMPDEST POP PUSH2 0x1864 JUMP JUMPDEST PUSH2 0x1A38 SWAP2 PUSH32 0x0 PUSH1 0x1 PUSH1 0x1 PUSH1 0xA0 SHL SUB AND PUSH2 0x1F6C JUMP JUMPDEST CODESIZE DUP1 PUSH2 0x19FF JUMP JUMPDEST SWAP4 POP PUSH1 0x20 DUP5 RETURNDATASIZE PUSH1 0x20 GT PUSH2 0x1A6D JUMPI JUMPDEST DUP2 PUSH2 0x1A5A PUSH1 0x20 SWAP4 DUP4 PUSH2 0x1088 JUMP JUMPDEST DUP2 ADD SUB SLT PUSH2 0xEB7 JUMPI SWAP3 MLOAD SWAP3 PUSH2 0x19F9 PUSH2 0x19CA JUMP JUMPDEST RETURNDATASIZE SWAP2 POP PUSH2 0x1A4D JUMP JUMPDEST PUSH1 0x40 MLOAD RETURNDATASIZE DUP9 DUP3 RETURNDATACOPY RETURNDATASIZE SWAP1 REVERT JUMPDEST PUSH4 0x4E487B71 PUSH1 0xE0 SHL DUP6 MSTORE PUSH1 0x11 PUSH1 0x4 MSTORE PUSH1 0x24 DUP6 REVERT JUMPDEST SWAP1 SWAP5 POP PUSH1 0x20 DUP2 RETURNDATASIZE PUSH1 0x20 GT PUSH2 0x1AC0 JUMPI JUMPDEST DUP2 PUSH2 0x1AB0 PUSH1 0x20 SWAP4 DUP4 PUSH2 0x1088 JUMP JUMPDEST DUP2 ADD SUB SLT PUSH2 0xEB7 JUMPI MLOAD SWAP4 CODESIZE PUSH2 0x1796 JUMP JUMPDEST RETURNDATASIZE SWAP2 POP PUSH2 0x1AA3 JUMP JUMPDEST PUSH1 0x40 MLOAD RETURNDATASIZE DUP7 DUP3 RETURNDATACOPY RETURNDATASIZE SWAP1 REVERT JUMPDEST PUSH2 0x1AF5 SWAP2 POP PUSH1 0x20 RETURNDATASIZE PUSH1 0x20 GT PUSH2 0x1AFB JUMPI JUMPDEST PUSH2 0x1AED DUP2 DUP4 PUSH2 0x1088 JUMP JUMPDEST DUP2 ADD SWAP1 PUSH2 0x1FE2 JUMP JUMPDEST CODESIZE PUSH2 0x175E JUMP JUMPDEST POP RETURNDATASIZE PUSH2 0x1AE3 JUMP JUMPDEST PUSH1 0x40 MLOAD RETURNDATASIZE DUP5 DUP3 RETURNDATACOPY RETURNDATASIZE SWAP1 REVERT JUMPDEST PUSH2 0x1B25 SWAP2 SWAP3 POP DUP4 RETURNDATASIZE DUP6 GT PUSH2 0x1AFB JUMPI PUSH2 0x1AED DUP2 DUP4 PUSH2 0x1088 JUMP JUMPDEST SWAP1 CODESIZE PUSH2 0x16ED JUMP JUMPDEST PUSH1 0x40 MLOAD RETURNDATASIZE DUP6 DUP3 RETURNDATACOPY RETURNDATASIZE SWAP1 REVERT JUMPDEST PUSH2 0x1B50 SWAP2 POP PUSH1 0x20 RETURNDATASIZE PUSH1 0x20 GT PUSH2 0x1AFB JUMPI PUSH2 0x1AED DUP2 DUP4 PUSH2 0x1088 JUMP JUMPDEST CODESIZE PUSH2 0x1696 JUMP JUMPDEST PUSH2 0x1B76 SWAP1 PUSH1 0x60 RETURNDATASIZE DUP2 GT PUSH2 0x1B7D JUMPI JUMPDEST PUSH2 0x1B6E DUP2 DUP4 PUSH2 0x1088 JUMP JUMPDEST DUP2 ADD SWAP1 PUSH2 0x1FC7 JUMP JUMPDEST POP POP PUSH2 0x1648 JUMP JUMPDEST POP RETURNDATASIZE PUSH2 0x1B64 JUMP JUMPDEST PUSH4 0x4E487B71 PUSH1 0xE0 SHL DUP4 MSTORE PUSH1 0x11 PUSH1 0x4 MSTORE PUSH1 0x24 DUP4 REVERT JUMPDEST PUSH1 0x40 MLOAD PUSH4 0x95EA7B3 PUSH1 0xE0 SHL DUP2 MSTORE PUSH32 0x0 PUSH1 0x1 PUSH1 0x1 PUSH1 0xA0 SHL SUB AND PUSH1 0x4 DUP3 ADD MSTORE PUSH1 0x24 DUP2 ADD DUP5 SWAP1 MSTORE PUSH1 0x20 DUP2 DUP1 PUSH1 0x44 DUP2 ADD SUB DUP2 DUP7 PUSH32 0x0 PUSH1 0x1 PUSH1 0x1 PUSH1 0xA0 SHL SUB AND GAS CALL DUP1 ISZERO PUSH2 0x1B2C JUMPI PUSH2 0x1E26 JUMPI JUMPDEST POP PUSH2 0x12C TIMESTAMP ADD DUP1 TIMESTAMP GT PUSH2 0x1B84 JUMPI PUSH1 0x40 MLOAD SWAP2 PUSH3 0xE8E337 PUSH1 0xE8 SHL DUP4 MSTORE PUSH1 0x1 DUP1 PUSH1 0xA0 SHL SUB PUSH32 0x0 AND PUSH1 0x4 DUP5 ADD MSTORE PUSH1 0x1 DUP1 PUSH1 0xA0 SHL SUB PUSH32 0x0 AND PUSH1 0x24 DUP5 ADD MSTORE PUSH1 0x44 DUP4 ADD MSTORE DUP4 PUSH1 0x64 DUP4 ADD MSTORE DUP3 PUSH1 0x84 DUP4 ADD MSTORE DUP3 PUSH1 0xA4 DUP4 ADD MSTORE ADDRESS PUSH1 0xC4 DUP4 ADD MSTORE PUSH1 0xE4 DUP3 ADD MSTORE PUSH1 0x60 DUP2 PUSH2 0x104 DUP2 DUP6 PUSH1 0x1 DUP1 PUSH1 0xA0 SHL SUB PUSH32 0x0 AND GAS CALL DUP1 ISZERO PUSH2 0x1B02 JUMPI PUSH2 0x1E08 JUMPI JUMPDEST POP PUSH1 0x40 MLOAD PUSH4 0xC45A0155 PUSH1 0xE0 SHL DUP2 MSTORE PUSH1 0x20 DUP2 PUSH1 0x4 DUP2 PUSH32 0x0 PUSH1 0x1 PUSH1 0x1 PUSH1 0xA0 SHL SUB AND GAS STATICCALL SWAP1 DUP2 ISZERO PUSH2 0x1B02 JUMPI DUP3 SWAP2 PUSH2 0x1DE9 JUMPI JUMPDEST POP PUSH1 0x40 MLOAD PUSH4 0xE6A43905 PUSH1 0xE0 SHL DUP2 MSTORE PUSH1 0x1 PUSH1 0x1 PUSH1 0xA0 SHL SUB PUSH32 0x0 DUP2 AND PUSH1 0x4 DUP4 ADD MSTORE PUSH32 0x0 DUP2 AND PUSH1 0x24 DUP4 ADD MSTORE SWAP1 SWAP2 PUSH1 0x20 SWAP2 DUP4 SWAP2 PUSH1 0x44 SWAP2 DUP4 SWAP2 AND GAS STATICCALL SWAP1 DUP2 ISZERO PUSH2 0x1B02 JUMPI DUP3 SWAP2 PUSH2 0x1DCA JUMPI JUMPDEST POP PUSH2 0x1760 JUMP JUMPDEST PUSH2 0x1DE3 SWAP2 POP PUSH1 0x20 RETURNDATASIZE PUSH1 0x20 GT PUSH2 0x1AFB JUMPI PUSH2 0x1AED DUP2 DUP4 PUSH2 0x1088 JUMP JUMPDEST CODESIZE PUSH2 0x1DC4 JUMP JUMPDEST PUSH2 0x1E02 SWAP2 POP PUSH1 0x20 RETURNDATASIZE PUSH1 0x20 GT PUSH2 0x1AFB JUMPI PUSH2 0x1AED DUP2 DUP4 PUSH2 0x1088 JUMP JUMPDEST CODESIZE PUSH2 0x1D41 JUMP JUMPDEST PUSH2 0x1E1F SWAP1 PUSH1 0x60 RETURNDATASIZE DUP2 GT PUSH2 0x1B7D JUMPI PUSH2 0x1B6E DUP2 DUP4 PUSH2 0x1088 JUMP JUMPDEST POP POP PUSH2 0x1CF3 JUMP JUMPDEST PUSH2 0x1E47 SWAP1 PUSH1 0x20 RETURNDATASIZE PUSH1 0x20 GT PUSH2 0x1E4E JUMPI JUMPDEST PUSH2 0x1E3F DUP2 DUP4 PUSH2 0x1088 JUMP JUMPDEST DUP2 ADD SWAP1 PUSH2 0x1FAF JUMP JUMPDEST POP CODESIZE PUSH2 0x1C1D JUMP JUMPDEST POP RETURNDATASIZE PUSH2 0x1E35 JUMP JUMPDEST PUSH2 0x1E6D SWAP1 PUSH1 0x20 RETURNDATASIZE PUSH1 0x20 GT PUSH2 0x1E4E JUMPI PUSH2 0x1E3F DUP2 DUP4 PUSH2 0x1088 JUMP JUMPDEST POP CODESIZE PUSH2 0x1578 JUMP JUMPDEST PUSH8 0xFFFFFFFFFFFFFFFF DUP2 GT PUSH2 0x1E8C JUMPI PUSH1 0x40 MSTORE CODESIZE PUSH2 0x1495 JUMP JUMPDEST PUSH4 0x4E487B71 PUSH1 0xE0 SHL DUP3 MSTORE PUSH1 0x41 PUSH1 0x4 MSTORE PUSH1 0x24 DUP3 REVERT JUMPDEST PUSH2 0x1EF4 SWAP1 PUSH32 0x0 PUSH32 0x0 PUSH1 0x1 PUSH1 0x1 PUSH1 0xA0 SHL SUB AND PUSH2 0x1F6C JUMP JUMPDEST PUSH2 0x1497 JUMP JUMPDEST PUSH4 0x4E487B71 PUSH1 0xE0 SHL DUP2 MSTORE PUSH1 0x11 PUSH1 0x4 MSTORE PUSH1 0x24 SWAP1 REVERT JUMPDEST PUSH4 0x4E487B71 PUSH1 0xE0 SHL DUP3 MSTORE PUSH1 0x11 PUSH1 0x4 MSTORE PUSH1 0x24 DUP3 REVERT JUMPDEST PUSH1 0xFF PUSH1 0xA0 SHL NOT AND PUSH1 0x1 PUSH1 0xA2 SHL OR PUSH1 0x2 SSTORE PUSH32 0xE48846A3DCA191C762AB6AAA1E929CCAF55E31A875FB78AD1B93E15EF4830ACA SWAP2 POP DUP1 LOG1 JUMP JUMPDEST PUSH4 0x4E487B71 PUSH1 0xE0 SHL DUP3 MSTORE PUSH1 0x21 PUSH1 0x4 MSTORE PUSH1 0x24 DUP3 REVERT JUMPDEST PUSH1 0x40 MLOAD PUSH4 0xA9059CBB PUSH1 0xE0 SHL PUSH1 0x20 DUP3 ADD MSTORE PUSH1 0x1 PUSH1 0x1 PUSH1 0xA0 SHL SUB SWAP3 SWAP1 SWAP3 AND PUSH1 0x24 DUP4 ADD MSTORE PUSH1 0x44 DUP1 DUP4 ADD SWAP4 SWAP1 SWAP4 MSTORE SWAP2 DUP2 MSTORE PUSH2 0x1FAD SWAP2 PUSH2 0x1FA8 PUSH1 0x64 DUP4 PUSH2 0x1088 JUMP JUMPDEST PUSH2 0x10C0 JUMP JUMPDEST JUMP JUMPDEST SWAP1 DUP2 PUSH1 0x20 SWAP2 SUB SLT PUSH2 0xEB7 JUMPI MLOAD DUP1 ISZERO ISZERO DUP2 SUB PUSH2 0xEB7 JUMPI SWAP1 JUMP JUMPDEST SWAP1 DUP2 PUSH1 0x60 SWAP2 SUB SLT PUSH2 0xEB7 JUMPI DUP1 MLOAD SWAP2 PUSH1 0x40 PUSH1 0x20 DUP4 ADD MLOAD SWAP3 ADD MLOAD SWAP1 JUMP JUMPDEST SWAP1 DUP2 PUSH1 0x20 SWAP2 SUB SLT PUSH2 0xEB7 JUMPI MLOAD PUSH1 0x1 PUSH1 0x1 PUSH1 0xA0 SHL SUB DUP2 AND DUP2 SUB PUSH2 0xEB7 JUMPI SWAP1 JUMP JUMPDEST PUSH1 0x2 SLOAD PUSH1 0xFF DUP2 PUSH1 0xA0 SHR AND PUSH1 0x6 DUP2 LT ISZERO PUSH2 0xE8B JUMPI DUP1 ISZERO DUP1 PUSH2 0x2084 JUMPI JUMPDEST ISZERO PUSH2 0x2038 JUMPI POP POP PUSH1 0x2 DUP1 SLOAD PUSH1 0xFF PUSH1 0xA0 SHL NOT AND PUSH1 0x1 PUSH1 0xA0 SHL OR SWAP1 SSTORE JUMP JUMPDEST PUSH1 0x1 EQ DUP1 PUSH2 0x205A JUMPI JUMPDEST PUSH2 0x2048 JUMPI POP JUMP JUMPDEST PUSH1 0xFF PUSH1 0xA0 SHL NOT AND PUSH1 0x1 PUSH1 0xA1 SHL OR PUSH1 0x2 SSTORE JUMP JUMPDEST POP PUSH32 0x0 TIMESTAMP LT ISZERO PUSH2 0x2041 JUMP JUMPDEST POP PUSH32 0x0 TIMESTAMP LT ISZERO PUSH2 0x201C JUMP JUMPDEST PUSH1 0xFF PUSH1 0x2 SLOAD PUSH1 0xA0 SHR AND PUSH1 0x6 DUP2 LT ISZERO PUSH2 0xE8B JUMPI DUP1 ISZERO DUP1 PUSH2 0x2114 JUMPI JUMPDEST ISZERO PUSH2 0x20D3 JUMPI POP PUSH1 0x1 SWAP1 JUMP JUMPDEST PUSH1 0x1 DUP2 EQ DUP1 PUSH2 0x20EA JUMPI JUMPDEST PUSH2 0x20E4 JUMPI SWAP1 JUMP JUMPDEST POP PUSH1 0x2 SWAP1 JUMP JUMPDEST POP PUSH32 0x0 TIMESTAMP LT ISZERO PUSH2 0x20DD JUMP JUMPDEST POP PUSH32 0x0 TIMESTAMP LT ISZERO PUSH2 0x20C8 JUMP JUMPDEST PUSH1 0xFF PUSH1 0x2 SLOAD PUSH1 0xA0 SHR AND PUSH1 0x6 DUP2 LT ISZERO PUSH2 0xE8B JUMPI PUSH1 0x3 SUB PUSH2 0x21B3 JUMPI PUSH1 0x3 SLOAD DUP1 ISZERO PUSH2 0x21AC JUMPI PUSH2 0x21A9 SWAP2 PUSH1 0x1 DUP1 PUSH1 0xA0 SHL SUB AND PUSH1 0x0 MSTORE PUSH1 0x7 PUSH1 0x20 MSTORE PUSH2 0x21A4 PUSH1 0x40 PUSH1 0x0 KECCAK256 SLOAD PUSH32 0x0 SWAP1 PUSH2 0x12BD JUMP JUMPDEST PUSH2 0x12D0 JUMP JUMPDEST SWAP1 JUMP JUMPDEST POP POP PUSH1 0x0 SWAP1 JUMP JUMPDEST POP PUSH1 0x0 SWAP1 JUMP INVALID LOG2 PUSH5 0x6970667358 0x22 SLT KECCAK256 LOG4 0xB8 0xC0 0xC9 BALANCE INVALID 0x4A SWAP3 COINBASE PUSH4 0x3E43750D 0x27 0xF9 0x1E CALLDATASIZE DUP10 SWAP6 SHR 0xEA LOG2 0xBC SWAP13 0xC9 0xCB 0x2A SELFBALANCE 0xA7 CALLVALUE REVERT PUSH5 0x736F6C6343 STOP ADDMOD EQ STOP CALLER 0x2F DUP8 DUP9 GT PUSH31 0x7EFF1D82E926EC794901D17C78024A50270940304540A733656F0D604060C0 DUP2 MSTORE CALLVALUE PUSH3 0x377 JUMPI PUSH3 0x1004 DUP1 CODESIZE SUB DUP1 PUSH3 0x1E DUP2 PUSH3 0x37C JUMP JUMPDEST SWAP3 DUP4 CODECOPY DUP2 ADD PUSH1 0xC0 DUP3 DUP3 SUB SLT PUSH3 0x377 JUMPI PUSH3 0x39 DUP3 PUSH3 0x3A2 JUMP JUMPDEST SWAP1 PUSH1 0x20 SWAP2 PUSH3 0x4A DUP4 DUP6 ADD PUSH3 0x3A2 JUMP JUMPDEST DUP6 DUP6 ADD MLOAD PUSH1 0x60 DUP1 DUP8 ADD MLOAD SWAP1 SWAP7 PUSH1 0x1 PUSH1 0x1 PUSH1 0x40 SHL SUB SWAP4 SWAP1 SWAP3 SWAP1 SWAP2 DUP5 DUP2 GT PUSH3 0x377 JUMPI DUP7 PUSH3 0x79 SWAP2 DUP6 ADD PUSH3 0x3B7 JUMP JUMPDEST SWAP6 PUSH1 0x80 DUP5 ADD MLOAD SWAP1 DUP6 DUP3 GT PUSH3 0x377 JUMPI PUSH3 0x9C PUSH1 0xA0 SWAP2 PUSH3 0xA4 SWAP4 DUP8 ADD PUSH3 0x3B7 JUMP JUMPDEST SWAP5 ADD PUSH3 0x3A2 JUMP JUMPDEST PUSH1 0x1 DUP1 DUP1 SSTORE SWAP6 SWAP1 SWAP2 SWAP1 PUSH1 0x1 PUSH1 0x1 PUSH1 0xA0 SHL SUB DUP1 DUP3 AND ISZERO PUSH3 0x343 JUMPI DUP5 AND ISZERO PUSH3 0x2FF JUMPI DUP8 MLOAD DUP6 MLOAD SUB PUSH3 0x2C9 JUMPI DUP8 MLOAD ISZERO PUSH3 0x294 JUMPI SWAP3 PUSH3 0xF7 DUP8 SWAP6 SWAP9 SWAP7 SWAP4 PUSH3 0xFE SWAP4 DUP14 SWAP12 SWAP10 SWAP7 PUSH1 0x80 MSTORE PUSH1 0xA0 MSTORE PUSH3 0x434 JUMP JUMPDEST POP PUSH3 0x4B4 JUMP JUMPDEST POP PUSH1 0x0 SWAP6 DUP7 SWAP3 JUMPDEST PUSH3 0x175 JUMPI JUMPDEST POP POP POP POP PUSH32 0x721DDAABE5CC50A5A5FDC5CE1E5636612DA513F19115ED78A77B4E60665F07B4 SWAP5 POP DUP3 PUSH1 0x3 SSTORE MLOAD SWAP1 DUP4 MLOAD SWAP3 DUP4 MSTORE DUP3 ADD MSTORE LOG1 MLOAD PUSH2 0xA8D SWAP1 DUP2 PUSH3 0x557 DUP3 CODECOPY PUSH1 0x80 MLOAD DUP2 DUP2 DUP2 PUSH1 0xE8 ADD MSTORE PUSH2 0x3E9 ADD MSTORE PUSH1 0xA0 MLOAD DUP2 DUP2 DUP2 PUSH2 0x17A ADD MSTORE DUP2 DUP2 PUSH2 0x31A ADD MSTORE PUSH2 0x62A ADD MSTORE RETURN JUMPDEST SWAP2 SWAP4 SWAP6 SWAP1 SWAP3 SWAP5 SWAP7 DUP7 MLOAD DUP6 LT ISZERO PUSH3 0x288 JUMPI POP PUSH3 0x193 DUP5 DUP8 PUSH3 0x41F JUMP JUMPDEST MLOAD PUSH3 0x1A0 DUP6 DUP5 PUSH3 0x41F JUMP JUMPDEST MLOAD DUP11 MLOAD SWAP2 DUP11 DUP4 ADD DUP4 DUP2 LT DUP8 DUP3 GT OR PUSH3 0x272 JUMPI DUP13 MSTORE DUP3 MSTORE DUP9 DUP3 ADD SWAP1 DUP2 MSTORE DUP11 DUP3 ADD SWAP2 PUSH1 0x0 DUP4 MSTORE PUSH1 0x2 SWAP2 DUP3 SLOAD PUSH9 0x10000000000000000 DUP2 LT ISZERO PUSH3 0x272 JUMPI DUP10 DUP2 ADD DUP1 DUP6 SSTORE DUP2 LT ISZERO PUSH3 0x25C JUMPI DUP4 PUSH1 0x0 MSTORE PUSH1 0x3 DUP13 PUSH1 0x0 KECCAK256 SWAP2 MUL ADD SWAP2 MLOAD DUP3 SSTORE MLOAD DUP9 DUP3 ADD SSTORE ADD SWAP1 MLOAD ISZERO ISZERO PUSH1 0xFF DUP1 NOT DUP4 SLOAD AND SWAP2 AND OR SWAP1 SSTORE PUSH3 0x21D DUP5 DUP4 PUSH3 0x41F JUMP JUMPDEST MLOAD DUP2 ADD DUP1 SWAP2 GT PUSH3 0x246 JUMPI SWAP7 PUSH1 0x0 NOT DUP5 EQ PUSH3 0x246 JUMPI DUP5 DUP1 SWAP5 ADD SWAP2 DUP10 SWAP8 SWAP6 SWAP4 SWAP2 SWAP9 SWAP7 SWAP5 PUSH3 0x105 JUMP JUMPDEST PUSH4 0x4E487B71 PUSH1 0xE0 SHL PUSH1 0x0 MSTORE PUSH1 0x11 PUSH1 0x4 MSTORE PUSH1 0x24 PUSH1 0x0 REVERT JUMPDEST PUSH4 0x4E487B71 PUSH1 0xE0 SHL PUSH1 0x0 MSTORE PUSH1 0x32 PUSH1 0x4 MSTORE PUSH1 0x24 PUSH1 0x0 REVERT JUMPDEST PUSH4 0x4E487B71 PUSH1 0xE0 SHL PUSH1 0x0 MSTORE PUSH1 0x41 PUSH1 0x4 MSTORE PUSH1 0x24 PUSH1 0x0 REVERT JUMPDEST SWAP7 SWAP5 DUP2 SWAP7 SWAP5 POP PUSH3 0x10B JUMP JUMPDEST DUP11 MLOAD PUSH3 0x461BCD PUSH1 0xE5 SHL DUP2 MSTORE PUSH1 0x4 DUP2 ADD DUP11 SWAP1 MSTORE PUSH1 0xE PUSH1 0x24 DUP3 ADD MSTORE PUSH14 0x456D707479207363686564756C65 PUSH1 0x90 SHL PUSH1 0x44 DUP3 ADD MSTORE PUSH1 0x64 SWAP1 REVERT JUMPDEST DUP11 MLOAD PUSH3 0x461BCD PUSH1 0xE5 SHL DUP2 MSTORE PUSH1 0x4 DUP2 ADD DUP11 SWAP1 MSTORE PUSH1 0xF PUSH1 0x24 DUP3 ADD MSTORE PUSH15 0x98CADCCEE8D040DAD2E6DAC2E8C6D PUSH1 0x8B SHL PUSH1 0x44 DUP3 ADD MSTORE PUSH1 0x64 SWAP1 REVERT JUMPDEST DUP11 MLOAD PUSH3 0x461BCD PUSH1 0xE5 SHL DUP2 MSTORE PUSH1 0x4 DUP2 ADD DUP11 SWAP1 MSTORE PUSH1 0x13 PUSH1 0x24 DUP3 ADD MSTORE PUSH32 0x496E76616C69642062656E656669636961727900000000000000000000000000 PUSH1 0x44 DUP3 ADD MSTORE PUSH1 0x64 SWAP1 REVERT JUMPDEST DUP12 MLOAD PUSH3 0x461BCD PUSH1 0xE5 SHL DUP2 MSTORE PUSH1 0x4 DUP2 ADD DUP12 SWAP1 MSTORE PUSH1 0xD PUSH1 0x24 DUP3 ADD MSTORE PUSH13 0x24B73B30B634B2103A37B5B2B7 PUSH1 0x99 SHL PUSH1 0x44 DUP3 ADD MSTORE PUSH1 0x64 SWAP1 REVERT JUMPDEST PUSH1 0x0 DUP1 REVERT JUMPDEST PUSH1 0x40 MLOAD SWAP2 SWAP1 PUSH1 0x1F ADD PUSH1 0x1F NOT AND DUP3 ADD PUSH1 0x1 PUSH1 0x1 PUSH1 0x40 SHL SUB DUP2 GT DUP4 DUP3 LT OR PUSH3 0x272 JUMPI PUSH1 0x40 MSTORE JUMP JUMPDEST MLOAD SWAP1 PUSH1 0x1 PUSH1 0x1 PUSH1 0xA0 SHL SUB DUP3 AND DUP3 SUB PUSH3 0x377 JUMPI JUMP JUMPDEST DUP2 PUSH1 0x1F DUP3 ADD SLT ISZERO PUSH3 0x377 JUMPI DUP1 MLOAD SWAP2 PUSH1 0x1 PUSH1 0x1 PUSH1 0x40 SHL SUB DUP4 GT PUSH3 0x272 JUMPI DUP3 PUSH1 0x5 SHL PUSH1 0x20 SWAP3 DUP4 DUP1 PUSH3 0x3EB DUP2 DUP6 ADD PUSH3 0x37C JUMP JUMPDEST DUP1 SWAP8 DUP2 MSTORE ADD SWAP3 DUP3 ADD ADD SWAP3 DUP4 GT PUSH3 0x377 JUMPI DUP4 ADD SWAP1 JUMPDEST DUP3 DUP3 LT PUSH3 0x40F JUMPI POP POP POP POP SWAP1 JUMP JUMPDEST DUP2 MLOAD DUP2 MSTORE SWAP1 DUP4 ADD SWAP1 DUP4 ADD PUSH3 0x400 JUMP JUMPDEST DUP1 MLOAD DUP3 LT ISZERO PUSH3 0x25C JUMPI PUSH1 0x20 SWAP2 PUSH1 0x5 SHL ADD ADD SWAP1 JUMP JUMPDEST PUSH1 0x1 PUSH1 0x1 PUSH1 0xA0 SHL SUB AND PUSH1 0x0 DUP2 DUP2 MSTORE PUSH32 0xAD3228B676F7D3CD4284A5443F17F1962B36E491B30A40B2405849E597BA5FB5 PUSH1 0x20 MSTORE PUSH1 0x40 DUP2 KECCAK256 SLOAD SWAP1 SWAP2 SWAP1 PUSH1 0xFF AND PUSH3 0x4B0 JUMPI DUP2 DUP1 MSTORE DUP2 PUSH1 0x20 MSTORE PUSH1 0x40 DUP3 KECCAK256 DUP2 DUP4 MSTORE PUSH1 0x20 MSTORE PUSH1 0x40 DUP3 KECCAK256 PUSH1 0x1 PUSH1 0xFF NOT DUP3 SLOAD AND OR SWAP1 SSTORE CALLER SWAP2 PUSH1 0x0 DUP1 MLOAD PUSH1 0x20 PUSH3 0xFE4 DUP4 CODECOPY DUP2 MLOAD SWAP2 MSTORE DUP2 DUP1 LOG4 PUSH1 0x1 SWAP1 JUMP JUMPDEST POP SWAP1 JUMP JUMPDEST PUSH1 0x1 PUSH1 0x1 PUSH1 0xA0 SHL SUB AND PUSH1 0x0 DUP2 DUP2 MSTORE PUSH32 0xB9B0AC02325EE7CF4551D296A88408527C705A37FEFD0E298966A9ADA940B4C4 PUSH1 0x20 MSTORE PUSH1 0x40 DUP2 KECCAK256 SLOAD SWAP1 SWAP2 SWAP1 PUSH32 0xC8A41221BCD7FCF2C225F5A9265E1D4D39949D89197159D59E5F4B87B62C419E SWAP1 PUSH1 0xFF AND PUSH3 0x551 JUMPI DUP1 DUP4 MSTORE DUP3 PUSH1 0x20 MSTORE PUSH1 0x40 DUP4 KECCAK256 DUP3 DUP5 MSTORE PUSH1 0x20 MSTORE PUSH1 0x40 DUP4 KECCAK256 PUSH1 0x1 PUSH1 0xFF NOT DUP3 SLOAD AND OR SWAP1 SSTORE PUSH1 0x0 DUP1 MLOAD PUSH1 0x20 PUSH3 0xFE4 DUP4 CODECOPY DUP2 MLOAD SWAP2 MSTORE CALLER SWAP4 DUP1 LOG4 PUSH1 0x1 SWAP1 JUMP JUMPDEST POP POP SWAP1 JUMP INVALID PUSH1 0x80 PUSH1 0x40 DUP2 DUP2 MSTORE PUSH1 0x4 SWAP2 DUP3 CALLDATASIZE LT ISZERO PUSH2 0x16 JUMPI PUSH1 0x0 DUP1 REVERT JUMPDEST PUSH1 0x0 SWAP3 DUP4 CALLDATALOAD PUSH1 0xE0 SHR SWAP2 DUP3 PUSH4 0x1FFC9A7 EQ PUSH2 0x755 JUMPI POP DUP2 PUSH4 0x248A9CA3 EQ PUSH2 0x72B JUMPI DUP2 PUSH4 0x26FADBE2 EQ PUSH2 0x5CC JUMPI DUP2 PUSH4 0x2DB94D19 EQ PUSH2 0x5AD JUMPI DUP2 PUSH4 0x2F2FF15D EQ PUSH2 0x58F JUMPI DUP2 PUSH4 0x36568ABE EQ PUSH2 0x554 JUMPI DUP2 PUSH4 0x4E71D92D EQ PUSH2 0x33D JUMPI DUP2 PUSH4 0x78E97925 EQ PUSH2 0x302 JUMPI DUP2 PUSH4 0x91D14854 EQ PUSH2 0x2C8 JUMPI DUP2 PUSH4 0xA217FDDF EQ PUSH2 0x2AD JUMPI DUP2 PUSH4 0xBDC6D9AB EQ PUSH2 0x25A JUMPI DUP2 PUSH4 0xCED3A403 EQ PUSH2 0x21F JUMPI DUP2 PUSH4 0xD547741F EQ PUSH2 0x1EA JUMPI DUP2 PUSH4 0xD54AD2A1 EQ PUSH2 0x1C8 JUMPI POP DUP1 PUSH4 0xEE28B744 EQ PUSH2 0x11B JUMPI PUSH4 0xFC0C546A EQ PUSH2 0xD5 JUMPI PUSH1 0x0 DUP1 REVERT JUMPDEST CALLVALUE PUSH2 0x117 JUMPI DUP2 PUSH1 0x3 NOT CALLDATASIZE ADD SLT PUSH2 0x117 JUMPI MLOAD PUSH32 0x0 PUSH1 0x1 PUSH1 0x1 PUSH1 0xA0 SHL SUB AND DUP2 MSTORE PUSH1 0x20 SWAP1 RETURN JUMPDEST POP DUP1 REVERT JUMPDEST POP CALLVALUE PUSH2 0x117 JUMPI DUP2 PUSH1 0x3 NOT CALLDATASIZE ADD SLT PUSH2 0x117 JUMPI DUP2 SWAP1 PUSH1 0x2 SWAP3 DUP4 SLOAD SWAP1 JUMPDEST DUP2 DUP2 LT PUSH2 0x146 JUMPI PUSH1 0x20 DUP5 DUP5 MLOAD SWAP1 DUP2 MSTORE RETURN JUMPDEST PUSH1 0xFF DUP6 PUSH2 0x152 DUP4 PUSH2 0x807 JUMP JUMPDEST POP ADD SLOAD AND ISZERO PUSH2 0x16A JUMPI JUMPDEST PUSH2 0x165 SWAP1 PUSH2 0x98F JUMP JUMPDEST PUSH2 0x135 JUMP JUMPDEST PUSH2 0x19E PUSH2 0x176 DUP3 PUSH2 0x807 JUMP JUMPDEST POP SLOAD PUSH32 0x0 PUSH2 0x9B4 JUMP JUMPDEST TIMESTAMP LT PUSH2 0x15C JUMPI SWAP3 PUSH2 0x1C0 PUSH2 0x165 SWAP2 PUSH1 0x1 PUSH2 0x1B7 DUP8 PUSH2 0x807 JUMP JUMPDEST POP ADD SLOAD SWAP1 PUSH2 0x9B4 JUMP JUMPDEST SWAP4 SWAP1 POP PUSH2 0x15C JUMP JUMPDEST SWAP1 POP CALLVALUE PUSH2 0x1E6 JUMPI DUP3 PUSH1 0x3 NOT CALLDATASIZE ADD SLT PUSH2 0x1E6 JUMPI PUSH1 0x20 SWAP3 POP SLOAD SWAP1 MLOAD SWAP1 DUP2 MSTORE RETURN JUMPDEST DUP3 DUP1 REVERT JUMPDEST POP POP CALLVALUE PUSH2 0x117 JUMPI PUSH1 0x1 PUSH2 0x21B SWAP2 PUSH2 0x216 PUSH2 0x203 CALLDATASIZE PUSH2 0x7DC JUMP JUMPDEST SWAP4 SWAP1 SWAP3 DUP4 DUP8 MSTORE DUP7 PUSH1 0x20 MSTORE DUP7 KECCAK256 ADD SLOAD PUSH2 0x858 JUMP JUMPDEST PUSH2 0x91A JUMP JUMPDEST POP DUP1 RETURN JUMPDEST POP POP CALLVALUE PUSH2 0x117 JUMPI DUP2 PUSH1 0x3 NOT CALLDATASIZE ADD SLT PUSH2 0x117 JUMPI PUSH1 0x20 SWAP1 MLOAD PUSH32 0xC8A41221BCD7FCF2C225F5A9265E1D4D39949D89197159D59E5F4B87B62C419E DUP2 MSTORE RETURN JUMPDEST SWAP1 POP CALLVALUE PUSH2 0x1E6 JUMPI PUSH1 0x20 CALLDATASIZE PUSH1 0x3 NOT ADD SLT PUSH2 0x1E6 JUMPI CALLDATALOAD SWAP2 PUSH1 0x2 SLOAD DUP4 LT ISZERO PUSH2 0x2AA JUMPI POP PUSH2 0x285 PUSH1 0x60 SWAP3 PUSH2 0x807 JUMP JUMPDEST POP SWAP1 DUP2 SLOAD SWAP2 PUSH1 0xFF PUSH1 0x2 PUSH1 0x1 DUP4 ADD SLOAD SWAP3 ADD SLOAD AND SWAP1 DUP3 MLOAD SWAP4 DUP5 MSTORE PUSH1 0x20 DUP5 ADD MSTORE ISZERO ISZERO SWAP1 DUP3 ADD MSTORE RETURN JUMPDEST DUP1 REVERT JUMPDEST POP POP CALLVALUE PUSH2 0x117 JUMPI DUP2 PUSH1 0x3 NOT CALLDATASIZE ADD SLT PUSH2 0x117 JUMPI MLOAD SWAP1 DUP2 MSTORE PUSH1 0x20 SWAP1 RETURN JUMPDEST POP POP CALLVALUE PUSH2 0x117 JUMPI PUSH1 0xFF DUP2 PUSH1 0x20 SWAP4 PUSH2 0x2DE CALLDATASIZE PUSH2 0x7DC JUMP JUMPDEST SWAP1 DUP3 MSTORE DUP2 DUP7 MSTORE DUP3 DUP3 KECCAK256 PUSH1 0x1 PUSH1 0x1 PUSH1 0xA0 SHL SUB SWAP1 SWAP2 AND DUP3 MSTORE DUP6 MSTORE KECCAK256 SLOAD SWAP2 MLOAD SWAP2 AND ISZERO ISZERO DUP2 MSTORE RETURN JUMPDEST POP POP CALLVALUE PUSH2 0x117 JUMPI DUP2 PUSH1 0x3 NOT CALLDATASIZE ADD SLT PUSH2 0x117 JUMPI PUSH1 0x20 SWAP1 MLOAD PUSH32 0x0 DUP2 MSTORE RETURN JUMPDEST SWAP2 SWAP1 POP CALLVALUE PUSH2 0x1E6 JUMPI DUP3 PUSH1 0x3 NOT CALLDATASIZE ADD SLT PUSH2 0x1E6 JUMPI PUSH1 0x2 SWAP1 PUSH1 0x1 SWAP3 DUP3 DUP5 SLOAD EQ PUSH2 0x546 JUMPI DUP3 DUP5 SSTORE PUSH32 0xC8A41221BCD7FCF2C225F5A9265E1D4D39949D89197159D59E5F4B87B62C419E DUP1 DUP7 MSTORE DUP6 PUSH1 0x20 MSTORE DUP3 DUP7 KECCAK256 CALLER DUP8 MSTORE PUSH1 0x20 MSTORE PUSH1 0xFF SWAP1 DUP2 DUP5 DUP9 KECCAK256 SLOAD AND ISZERO PUSH2 0x529 JUMPI POP DUP6 SWAP4 DUP1 SLOAD SWAP2 DUP8 JUMPDEST DUP4 DUP2 LT PUSH2 0x4C4 JUMPI POP POP POP POP DUP3 ISZERO PUSH2 0x4B7 JUMPI PUSH2 0x3C4 DUP4 DUP3 SLOAD PUSH2 0x9B4 JUMP JUMPDEST DUP2 SSTORE DUP2 MLOAD PUSH4 0xA9059CBB PUSH1 0xE0 SHL PUSH1 0x20 DUP3 ADD SWAP1 DUP2 MSTORE CALLER PUSH1 0x24 DUP4 ADD MSTORE PUSH1 0x44 DUP1 DUP4 ADD DUP7 SWAP1 MSTORE DUP3 MSTORE PUSH32 0x0 PUSH1 0x1 PUSH1 0x1 PUSH1 0xA0 SHL SUB AND SWAP2 PUSH1 0x80 DUP2 ADD PUSH8 0xFFFFFFFFFFFFFFFF DUP2 GT DUP3 DUP3 LT OR PUSH2 0x4A4 JUMPI DUP6 MSTORE MLOAD PUSH1 0x20 SWAP2 DUP9 SWAP2 SWAP1 DUP3 DUP6 GAS CALL ISZERO PUSH2 0x49A JUMPI DUP6 MLOAD DUP6 SWAP1 RETURNDATASIZE PUSH2 0x493 JUMPI POP POP DUP1 EXTCODESIZE ISZERO JUMPDEST PUSH2 0x47F JUMPI POP POP MLOAD SWAP1 DUP2 MSTORE PUSH32 0x896E034966EAAF1ADC54ACC0F257056FEBBD300C9E47182CF761982CF1F5E430 PUSH1 0x20 CALLER SWAP3 LOG2 DUP1 SSTORE DUP1 RETURN JUMPDEST PUSH1 0x24 SWAP3 MLOAD SWAP2 PUSH4 0x5274AFE7 PUSH1 0xE0 SHL DUP4 MSTORE DUP3 ADD MSTORE REVERT JUMPDEST EQ ISZERO PUSH2 0x44A JUMP JUMPDEST DUP3 MLOAD RETURNDATASIZE DUP8 DUP3 RETURNDATACOPY RETURNDATASIZE SWAP1 REVERT JUMPDEST PUSH4 0x4E487B71 PUSH1 0xE0 SHL DUP10 MSTORE PUSH1 0x41 DUP6 MSTORE PUSH1 0x24 DUP10 REVERT JUMPDEST SWAP1 MLOAD PUSH3 0xF3F861 PUSH1 0xE4 SHL DUP2 MSTORE REVERT JUMPDEST DUP2 DUP4 PUSH2 0x4CF DUP4 PUSH2 0x807 JUMP JUMPDEST POP ADD SLOAD AND ISZERO PUSH2 0x4E7 JUMPI JUMPDEST PUSH2 0x4E2 SWAP1 PUSH2 0x98F JUMP JUMPDEST PUSH2 0x3A8 JUMP JUMPDEST PUSH2 0x4F3 PUSH2 0x176 DUP3 PUSH2 0x807 JUMP JUMPDEST TIMESTAMP LT PUSH2 0x4D9 JUMPI SWAP6 PUSH2 0x521 PUSH2 0x4E2 SWAP2 DUP5 PUSH2 0x50B DUP11 PUSH2 0x807 JUMP JUMPDEST POP ADD DUP1 SLOAD PUSH1 0xFF NOT AND DUP12 OR SWAP1 SSTORE DUP10 PUSH2 0x1B7 DUP11 PUSH2 0x807 JUMP JUMPDEST SWAP7 SWAP1 POP PUSH2 0x4D9 JUMP JUMPDEST SWAP1 POP PUSH1 0x44 SWAP3 MLOAD SWAP2 PUSH4 0xE2517D3F PUSH1 0xE0 SHL DUP4 MSTORE CALLER SWAP1 DUP4 ADD MSTORE PUSH1 0x24 DUP3 ADD MSTORE REVERT JUMPDEST SWAP1 MLOAD PUSH4 0x3EE5AEB5 PUSH1 0xE0 SHL DUP2 MSTORE REVERT JUMPDEST DUP4 DUP4 CALLVALUE PUSH2 0x117 JUMPI PUSH2 0x564 CALLDATASIZE PUSH2 0x7DC JUMP JUMPDEST SWAP2 CALLER PUSH1 0x1 PUSH1 0x1 PUSH1 0xA0 SHL SUB DUP5 AND SUB PUSH2 0x580 JUMPI POP SWAP1 PUSH2 0x21B SWAP2 PUSH2 0x91A JUMP JUMPDEST MLOAD PUSH4 0x334BD919 PUSH1 0xE1 SHL DUP2 MSTORE DUP5 SWAP1 REVERT JUMPDEST POP POP CALLVALUE PUSH2 0x117 JUMPI PUSH1 0x1 PUSH2 0x21B SWAP2 PUSH2 0x5A8 PUSH2 0x203 CALLDATASIZE PUSH2 0x7DC JUMP JUMPDEST PUSH2 0x89C JUMP JUMPDEST POP POP CALLVALUE PUSH2 0x117 JUMPI DUP2 PUSH1 0x3 NOT CALLDATASIZE ADD SLT PUSH2 0x117 JUMPI PUSH1 0x20 SWAP1 PUSH1 0x3 SLOAD SWAP1 MLOAD SWAP1 DUP2 MSTORE RETURN JUMPDEST POP POP CALLVALUE PUSH2 0x117 JUMPI DUP2 PUSH1 0x3 NOT CALLDATASIZE ADD SLT PUSH2 0x117 JUMPI PUSH1 0x2 SWAP2 DUP3 SLOAD SWAP1 PUSH2 0x5ED DUP3 PUSH2 0xA11 JUMP JUMPDEST SWAP3 PUSH2 0x5F7 DUP4 PUSH2 0xA11 JUMP JUMPDEST PUSH2 0x600 DUP5 PUSH2 0x9F9 JUMP JUMPDEST SWAP1 PUSH2 0x60D DUP4 MLOAD SWAP3 DUP4 PUSH2 0x9C1 JUMP JUMPDEST DUP5 DUP3 MSTORE PUSH2 0x619 DUP6 PUSH2 0x9F9 JUMP JUMPDEST PUSH1 0x20 SWAP8 DUP4 DUP10 ADD SWAP7 SWAP2 PUSH1 0x1F NOT ADD CALLDATASIZE DUP9 CALLDATACOPY PUSH32 0x0 DUP7 JUMPDEST DUP4 DUP2 LT PUSH2 0x6B9 JUMPI POP POP POP POP SWAP6 DUP1 SWAP2 PUSH2 0x680 PUSH2 0x673 SWAP9 DUP6 MLOAD SWAP10 DUP11 SWAP10 PUSH1 0x60 DUP12 MSTORE PUSH1 0x60 DUP12 ADD SWAP1 PUSH2 0x7A8 JUMP JUMPDEST SWAP1 DUP10 DUP3 SUB DUP6 DUP12 ADD MSTORE PUSH2 0x7A8 JUMP JUMPDEST SWAP4 DUP8 DUP6 SUB SWAP1 DUP9 ADD MSTORE MLOAD SWAP3 DUP4 DUP2 MSTORE ADD SWAP4 SWAP3 JUMPDEST DUP3 DUP2 LT PUSH2 0x6A0 JUMPI POP POP POP POP SUB SWAP1 RETURN JUMPDEST DUP4 MLOAD ISZERO ISZERO DUP6 MSTORE DUP7 SWAP6 POP SWAP4 DUP2 ADD SWAP4 SWAP3 DUP2 ADD SWAP3 PUSH1 0x1 ADD PUSH2 0x691 JUMP JUMPDEST DUP1 DUP11 PUSH2 0x6E2 DUP3 PUSH2 0x6DC SWAP14 SWAP15 SWAP12 SWAP11 SWAP13 SWAP14 PUSH2 0x6D4 PUSH2 0x720 SWAP7 PUSH2 0x807 JUMP JUMPDEST POP SLOAD DUP8 PUSH2 0x9B4 JUMP JUMPDEST SWAP3 PUSH2 0xA43 JUMP JUMPDEST MSTORE PUSH1 0x1 PUSH2 0x6EE DUP3 PUSH2 0x807 JUMP JUMPDEST POP ADD SLOAD PUSH2 0x6FB DUP3 DUP9 PUSH2 0xA43 JUMP JUMPDEST MSTORE PUSH1 0xFF DUP5 PUSH2 0x708 DUP4 PUSH2 0x807 JUMP JUMPDEST POP ADD SLOAD AND PUSH2 0x716 DUP3 DUP10 PUSH2 0xA43 JUMP JUMPDEST SWAP1 ISZERO ISZERO SWAP1 MSTORE PUSH2 0x98F JUMP JUMPDEST SWAP10 SWAP9 SWAP8 SWAP6 SWAP7 SWAP10 PUSH2 0x64B JUMP JUMPDEST SWAP1 POP CALLVALUE PUSH2 0x1E6 JUMPI PUSH1 0x20 CALLDATASIZE PUSH1 0x3 NOT ADD SLT PUSH2 0x1E6 JUMPI DUP2 PUSH1 0x20 SWAP4 PUSH1 0x1 SWAP3 CALLDATALOAD DUP2 MSTORE DUP1 DUP6 MSTORE KECCAK256 ADD SLOAD SWAP1 MLOAD SWAP1 DUP2 MSTORE RETURN JUMPDEST DUP5 SWAP2 CALLVALUE PUSH2 0x1E6 JUMPI PUSH1 0x20 CALLDATASIZE PUSH1 0x3 NOT ADD SLT PUSH2 0x1E6 JUMPI CALLDATALOAD PUSH4 0xFFFFFFFF PUSH1 0xE0 SHL DUP2 AND DUP1 SWAP2 SUB PUSH2 0x1E6 JUMPI PUSH1 0x20 SWAP3 POP PUSH4 0x7965DB0B PUSH1 0xE0 SHL DUP2 EQ SWAP1 DUP2 ISZERO PUSH2 0x797 JUMPI JUMPDEST POP ISZERO ISZERO DUP2 MSTORE RETURN JUMPDEST PUSH4 0x1FFC9A7 PUSH1 0xE0 SHL EQ SWAP1 POP DUP4 PUSH2 0x790 JUMP JUMPDEST SWAP1 DUP2 MLOAD DUP1 DUP3 MSTORE PUSH1 0x20 DUP1 DUP1 SWAP4 ADD SWAP4 ADD SWAP2 PUSH1 0x0 JUMPDEST DUP3 DUP2 LT PUSH2 0x7C8 JUMPI POP POP POP POP SWAP1 JUMP JUMPDEST DUP4 MLOAD DUP6 MSTORE SWAP4 DUP2 ADD SWAP4 SWAP3 DUP2 ADD SWAP3 PUSH1 0x1 ADD PUSH2 0x7BA JUMP JUMPDEST PUSH1 0x40 SWAP1 PUSH1 0x3 NOT ADD SLT PUSH2 0x802 JUMPI PUSH1 0x4 CALLDATALOAD SWAP1 PUSH1 0x24 CALLDATALOAD PUSH1 0x1 PUSH1 0x1 PUSH1 0xA0 SHL SUB DUP2 AND DUP2 SUB PUSH2 0x802 JUMPI SWAP1 JUMP JUMPDEST PUSH1 0x0 DUP1 REVERT JUMPDEST PUSH1 0x2 SLOAD DUP2 LT ISZERO PUSH2 0x842 JUMPI PUSH1 0x3 SWAP1 PUSH1 0x2 PUSH1 0x0 MSTORE MUL PUSH32 0x405787FA12A823E0F2B7631CC41B3BA8828B3321CA811111FA75CD3AA3BB5ACE ADD SWAP1 PUSH1 0x0 SWAP1 JUMP JUMPDEST PUSH4 0x4E487B71 PUSH1 0xE0 SHL PUSH1 0x0 MSTORE PUSH1 0x32 PUSH1 0x4 MSTORE PUSH1 0x24 PUSH1 0x0 REVERT JUMPDEST DUP1 PUSH1 0x0 MSTORE PUSH1 0x0 PUSH1 0x20 MSTORE PUSH1 0x40 PUSH1 0x0 KECCAK256 CALLER PUSH1 0x0 MSTORE PUSH1 0x20 MSTORE PUSH1 0xFF PUSH1 0x40 PUSH1 0x0 KECCAK256 SLOAD AND ISZERO PUSH2 0x87E JUMPI POP JUMP JUMPDEST PUSH1 0x44 SWAP1 PUSH1 0x40 MLOAD SWAP1 PUSH4 0xE2517D3F PUSH1 0xE0 SHL DUP3 MSTORE CALLER PUSH1 0x4 DUP4 ADD MSTORE PUSH1 0x24 DUP3 ADD MSTORE REVERT JUMPDEST SWAP1 PUSH1 0x0 SWAP2 DUP1 DUP4 MSTORE DUP3 PUSH1 0x20 MSTORE PUSH1 0x40 DUP4 KECCAK256 SWAP2 PUSH1 0x1 DUP1 PUSH1 0xA0 SHL SUB AND SWAP2 DUP3 DUP5 MSTORE PUSH1 0x20 MSTORE PUSH1 0xFF PUSH1 0x40 DUP5 KECCAK256 SLOAD AND ISZERO PUSH1 0x0 EQ PUSH2 0x915 JUMPI DUP1 DUP4 MSTORE DUP3 PUSH1 0x20 MSTORE PUSH1 0x40 DUP4 KECCAK256 DUP3 DUP5 MSTORE PUSH1 0x20 MSTORE PUSH1 0x40 DUP4 KECCAK256 PUSH1 0x1 PUSH1 0xFF NOT DUP3 SLOAD AND OR SWAP1 SSTORE PUSH32 0x2F8788117E7EFF1D82E926EC794901D17C78024A50270940304540A733656F0D CALLER SWAP4 DUP1 LOG4 PUSH1 0x1 SWAP1 JUMP JUMPDEST POP POP SWAP1 JUMP JUMPDEST SWAP1 PUSH1 0x0 SWAP2 DUP1 DUP4 MSTORE DUP3 PUSH1 0x20 MSTORE PUSH1 0x40 DUP4 KECCAK256 SWAP2 PUSH1 0x1 DUP1 PUSH1 0xA0 SHL SUB AND SWAP2 DUP3 DUP5 MSTORE PUSH1 0x20 MSTORE PUSH1 0xFF PUSH1 0x40 DUP5 KECCAK256 SLOAD AND PUSH1 0x0 EQ PUSH2 0x915 JUMPI DUP1 DUP4 MSTORE DUP3 PUSH1 0x20 MSTORE PUSH1 0x40 DUP4 KECCAK256 DUP3 DUP5 MSTORE PUSH1 0x20 MSTORE PUSH1 0x40 DUP4 KECCAK256 PUSH1 0xFF NOT DUP2 SLOAD AND SWAP1 SSTORE PUSH32 0xF6391F5C32D9C69D2A47EA670B442974B53935D1EDC7FD64EB21E047A839171B CALLER SWAP4 DUP1 LOG4 PUSH1 0x1 SWAP1 JUMP JUMPDEST PUSH1 0x0 NOT DUP2 EQ PUSH2 0x99E JUMPI PUSH1 0x1 ADD SWAP1 JUMP JUMPDEST PUSH4 0x4E487B71 PUSH1 0xE0 SHL PUSH1 0x0 MSTORE PUSH1 0x11 PUSH1 0x4 MSTORE PUSH1 0x24 PUSH1 0x0 REVERT JUMPDEST SWAP2 SWAP1 DUP3 ADD DUP1 SWAP3 GT PUSH2 0x99E JUMPI JUMP JUMPDEST SWAP1 PUSH1 0x1F DUP1 NOT SWAP2 ADD AND DUP2 ADD SWAP1 DUP2 LT PUSH8 0xFFFFFFFFFFFFFFFF DUP3 GT OR PUSH2 0x9E3 JUMPI PUSH1 0x40 MSTORE JUMP JUMPDEST PUSH4 0x4E487B71 PUSH1 0xE0 SHL PUSH1 0x0 MSTORE PUSH1 0x41 PUSH1 0x4 MSTORE PUSH1 0x24 PUSH1 0x0 REVERT JUMPDEST PUSH8 0xFFFFFFFFFFFFFFFF DUP2 GT PUSH2 0x9E3 JUMPI PUSH1 0x5 SHL PUSH1 0x20 ADD SWAP1 JUMP JUMPDEST SWAP1 PUSH2 0xA1B DUP3 PUSH2 0x9F9 JUMP JUMPDEST PUSH2 0xA28 PUSH1 0x40 MLOAD SWAP2 DUP3 PUSH2 0x9C1 JUMP JUMPDEST DUP3 DUP2 MSTORE DUP1 SWAP3 PUSH2 0xA39 PUSH1 0x1F NOT SWAP2 PUSH2 0x9F9 JUMP JUMPDEST ADD SWAP1 PUSH1 0x20 CALLDATASIZE SWAP2 ADD CALLDATACOPY JUMP JUMPDEST DUP1 MLOAD DUP3 LT ISZERO PUSH2 0x842 JUMPI PUSH1 0x20 SWAP2 PUSH1 0x5 SHL ADD ADD SWAP1 JUMP INVALID LOG2 PUSH5 0x6970667358 0x22 SLT KECCAK256 0xAB 0xD 0xBA 0xD7 BALANCE 0x4E PUSH20 0xD77BF03DF8EDAC5C8D9B05024F87D1F2E40E2234 0xAA SWAP10 PUSH1 0x61 DIV PUSH5 0x736F6C6343 STOP ADDMOD EQ STOP CALLER 0x2F DUP8 DUP9 GT PUSH31 0x7EFF1D82E926EC794901D17C78024A50270940304540A733656F0DA2646970 PUSH7 0x7358221220BC0F PUSH32 0xDF8338735D8193BE2C361BF4DEBF57DABD78F66284E0BC728B00938A7F64736F PUSH13 0x634300081400332F8788117E7E SELFDESTRUCT SAR DUP3 0xE9 0x26 0xEC PUSH26 0x4901D17C78024A50270940304540A733656F0D00000000000000 "},"methodIdentifiers":{"DEFAULT_ADMIN_ROLE()":"a217fddf","DEPLOYMENT_FEE()":"a8f32251","FACTORY_ADMIN_ROLE()":"3360cf5e","adminExecutor()":"1d1b49d3","createFairlaunch((address,address,uint256,uint256,uint256,uint256,uint256,uint256,address,uint16),(address,uint256,uint256[],uint256[]),(uint256,uint256,bytes32))":"47fce119","fairlaunchCount()":"9e1f288e","fairlaunchToLPPlan(address)":"a186d14f","fairlaunchToVesting(address)":"e0fe61fe","fairlaunches(uint256)":"e249cbec","feeSplitter()":"6052970c","getFairlaunchDetails(uint256)":"5148695f","getRoleAdmin(bytes32)":"248a9ca3","grantRole(bytes32,address)":"2f2ff15d","hasRole(bytes32,address)":"91d14854","renounceRole(bytes32,address)":"36568abe","revokeRole(bytes32,address)":"d547741f","supportsInterface(bytes4)":"01ffc9a7","treasuryWallet()":"4626402b"}}}}}