{"contracts/fairlaunch/Fairlaunch.sol":{"Fairlaunch":{"abi":[{"inputs":[{"internalType":"address","name":"_projectToken","type":"address"},{"internalType":"address","name":"_paymentToken","type":"address"},{"internalType":"uint256","name":"_softcap","type":"uint256"},{"internalType":"uint256","name":"_tokensForSale","type":"uint256"},{"internalType":"uint256","name":"_minContribution","type":"uint256"},{"internalType":"uint256","name":"_maxContribution","type":"uint256"},{"internalType":"uint256","name":"_startTime","type":"uint256"},{"internalType":"uint256","name":"_endTime","type":"uint256"},{"internalType":"uint16","name":"_listingPremiumBps","type":"uint16"},{"internalType":"address","name":"_feeSplitter","type":"address"},{"internalType":"address","name":"_teamVesting","type":"address"},{"internalType":"address","name":"_projectOwner","type":"address"},{"internalType":"address","name":"_adminExecutor","type":"address"},{"internalType":"uint256","name":"_liquidityPercent","type":"uint256"},{"internalType":"uint256","name":"_lpLockMonths","type":"uint256"},{"internalType":"bytes32","name":"_dexId","type":"bytes32"}],"stateMutability":"nonpayable","type":"constructor"},{"inputs":[],"name":"AccessControlBadConfirmation","type":"error"},{"inputs":[{"internalType":"address","name":"account","type":"address"},{"internalType":"bytes32","name":"neededRole","type":"bytes32"}],"name":"AccessControlUnauthorizedAccount","type":"error"},{"inputs":[],"name":"AlreadyClaimed","type":"error"},{"inputs":[],"name":"ContractPaused","type":"error"},{"inputs":[],"name":"ContributionTooHigh","type":"error"},{"inputs":[],"name":"ContributionTooLow","type":"error"},{"inputs":[],"name":"InvalidStatus","type":"error"},{"inputs":[],"name":"NoContribution","type":"error"},{"inputs":[],"name":"NotAuthorized","type":"error"},{"inputs":[],"name":"NothingToRefund","type":"error"},{"inputs":[],"name":"ReentrancyGuardReentrantCall","type":"error"},{"inputs":[{"internalType":"address","name":"token","type":"address"}],"name":"SafeERC20FailedOperation","type":"error"},{"inputs":[],"name":"SoftcapNotMet","type":"error"},{"inputs":[],"name":"TransferFailed","type":"error"},{"anonymous":false,"inputs":[],"name":"Cancelled","type":"event"},{"anonymous":false,"inputs":[{"indexed":true,"internalType":"address","name":"user","type":"address"},{"indexed":false,"internalType":"uint256","name":"amount","type":"uint256"},{"indexed":false,"internalType":"uint256","name":"totalRaised","type":"uint256"}],"name":"Contributed","type":"event"},{"anonymous":false,"inputs":[],"name":"FinalizedFail","type":"event"},{"anonymous":false,"inputs":[{"indexed":false,"internalType":"uint256","name":"finalPrice","type":"uint256"},{"indexed":false,"internalType":"uint256","name":"totalRaised","type":"uint256"},{"indexed":false,"internalType":"address","name":"lpToken","type":"address"},{"indexed":false,"internalType":"uint256","name":"lpAmount","type":"uint256"}],"name":"FinalizedSuccess","type":"event"},{"anonymous":false,"inputs":[{"indexed":true,"internalType":"address","name":"lpToken","type":"address"},{"indexed":false,"internalType":"uint256","name":"lpAmount","type":"uint256"},{"indexed":false,"internalType":"uint256","name":"unlockTime","type":"uint256"}],"name":"LiquidityAdded","type":"event"},{"anonymous":false,"inputs":[],"name":"Paused","type":"event"},{"anonymous":false,"inputs":[{"indexed":true,"internalType":"address","name":"user","type":"address"},{"indexed":false,"internalType":"uint256","name":"amount","type":"uint256"}],"name":"Refunded","type":"event"},{"anonymous":false,"inputs":[{"indexed":true,"internalType":"bytes32","name":"role","type":"bytes32"},{"indexed":true,"internalType":"bytes32","name":"previousAdminRole","type":"bytes32"},{"indexed":true,"internalType":"bytes32","name":"newAdminRole","type":"bytes32"}],"name":"RoleAdminChanged","type":"event"},{"anonymous":false,"inputs":[{"indexed":true,"internalType":"bytes32","name":"role","type":"bytes32"},{"indexed":true,"internalType":"address","name":"account","type":"address"},{"indexed":true,"internalType":"address","name":"sender","type":"address"}],"name":"RoleGranted","type":"event"},{"anonymous":false,"inputs":[{"indexed":true,"internalType":"bytes32","name":"role","type":"bytes32"},{"indexed":true,"internalType":"address","name":"account","type":"address"},{"indexed":true,"internalType":"address","name":"sender","type":"address"}],"name":"RoleRevoked","type":"event"},{"anonymous":false,"inputs":[{"indexed":true,"internalType":"address","name":"user","type":"address"},{"indexed":false,"internalType":"uint256","name":"amount","type":"uint256"}],"name":"TokensClaimed","type":"event"},{"anonymous":false,"inputs":[],"name":"Unpaused","type":"event"},{"inputs":[],"name":"ADMIN_ROLE","outputs":[{"internalType":"bytes32","name":"","type":"bytes32"}],"stateMutability":"view","type":"function"},{"inputs":[],"name":"DEFAULT_ADMIN_ROLE","outputs":[{"internalType":"bytes32","name":"","type":"bytes32"}],"stateMutability":"view","type":"function"},{"inputs":[],"name":"cancel","outputs":[],"stateMutability":"nonpayable","type":"function"},{"inputs":[],"name":"claimTokens","outputs":[],"stateMutability":"nonpayable","type":"function"},{"inputs":[],"name":"contribute","outputs":[],"stateMutability":"payable","type":"function"},{"inputs":[{"internalType":"uint256","name":"amount","type":"uint256"}],"name":"contributeERC20","outputs":[],"stateMutability":"nonpayable","type":"function"},{"inputs":[{"internalType":"address","name":"","type":"address"}],"name":"contributions","outputs":[{"internalType":"uint256","name":"","type":"uint256"}],"stateMutability":"view","type":"function"},{"inputs":[],"name":"dexId","outputs":[{"internalType":"bytes32","name":"","type":"bytes32"}],"stateMutability":"view","type":"function"},{"inputs":[],"name":"dexRouter","outputs":[{"internalType":"contract IUniswapV2Router02","name":"","type":"address"}],"stateMutability":"view","type":"function"},{"inputs":[],"name":"endTime","outputs":[{"internalType":"uint256","name":"","type":"uint256"}],"stateMutability":"view","type":"function"},{"inputs":[],"name":"feeSplitter","outputs":[{"internalType":"address","name":"","type":"address"}],"stateMutability":"view","type":"function"},{"inputs":[],"name":"finalTokenPrice","outputs":[{"internalType":"uint256","name":"","type":"uint256"}],"stateMutability":"view","type":"function"},{"inputs":[],"name":"finalize","outputs":[],"stateMutability":"nonpayable","type":"function"},{"inputs":[],"name":"getFinalPrice","outputs":[{"internalType":"uint256","name":"","type":"uint256"}],"stateMutability":"view","type":"function"},{"inputs":[{"internalType":"bytes32","name":"role","type":"bytes32"}],"name":"getRoleAdmin","outputs":[{"internalType":"bytes32","name":"","type":"bytes32"}],"stateMutability":"view","type":"function"},{"inputs":[],"name":"getStatus","outputs":[{"internalType":"enum Fairlaunch.Status","name":"","type":"uint8"}],"stateMutability":"view","type":"function"},{"inputs":[{"internalType":"address","name":"user","type":"address"}],"name":"getUserAllocation","outputs":[{"internalType":"uint256","name":"","type":"uint256"}],"stateMutability":"view","type":"function"},{"inputs":[{"internalType":"address","name":"user","type":"address"}],"name":"getUserContribution","outputs":[{"internalType":"uint256","name":"","type":"uint256"}],"stateMutability":"view","type":"function"},{"inputs":[{"internalType":"bytes32","name":"role","type":"bytes32"},{"internalType":"address","name":"account","type":"address"}],"name":"grantRole","outputs":[],"stateMutability":"nonpayable","type":"function"},{"inputs":[{"internalType":"address","name":"","type":"address"}],"name":"hasClaimed","outputs":[{"internalType":"bool","name":"","type":"bool"}],"stateMutability":"view","type":"function"},{"inputs":[{"internalType":"bytes32","name":"role","type":"bytes32"},{"internalType":"address","name":"account","type":"address"}],"name":"hasRole","outputs":[{"internalType":"bool","name":"","type":"bool"}],"stateMutability":"view","type":"function"},{"inputs":[],"name":"isFinalized","outputs":[{"internalType":"bool","name":"","type":"bool"}],"stateMutability":"view","type":"function"},{"inputs":[],"name":"isPaused","outputs":[{"internalType":"bool","name":"","type":"bool"}],"stateMutability":"view","type":"function"},{"inputs":[],"name":"liquidityPercent","outputs":[{"internalType":"uint256","name":"","type":"uint256"}],"stateMutability":"view","type":"function"},{"inputs":[],"name":"listingPremiumBps","outputs":[{"internalType":"uint16","name":"","type":"uint16"}],"stateMutability":"view","type":"function"},{"inputs":[],"name":"lpLockMonths","outputs":[{"internalType":"uint256","name":"","type":"uint256"}],"stateMutability":"view","type":"function"},{"inputs":[],"name":"lpLocker","outputs":[{"internalType":"contract ILPLocker","name":"","type":"address"}],"stateMutability":"view","type":"function"},{"inputs":[],"name":"maxContribution","outputs":[{"internalType":"uint256","name":"","type":"uint256"}],"stateMutability":"view","type":"function"},{"inputs":[],"name":"minContribution","outputs":[{"internalType":"uint256","name":"","type":"uint256"}],"stateMutability":"view","type":"function"},{"inputs":[],"name":"participantCount","outputs":[{"internalType":"uint256","name":"","type":"uint256"}],"stateMutability":"view","type":"function"},{"inputs":[],"name":"pause","outputs":[],"stateMutability":"nonpayable","type":"function"},{"inputs":[],"name":"paymentToken","outputs":[{"internalType":"address","name":"","type":"address"}],"stateMutability":"view","type":"function"},{"inputs":[],"name":"projectOwner","outputs":[{"internalType":"address","name":"","type":"address"}],"stateMutability":"view","type":"function"},{"inputs":[],"name":"projectToken","outputs":[{"internalType":"address","name":"","type":"address"}],"stateMutability":"view","type":"function"},{"inputs":[],"name":"refund","outputs":[],"stateMutability":"nonpayable","type":"function"},{"inputs":[{"internalType":"bytes32","name":"role","type":"bytes32"},{"internalType":"address","name":"callerConfirmation","type":"address"}],"name":"renounceRole","outputs":[],"stateMutability":"nonpayable","type":"function"},{"inputs":[{"internalType":"bytes32","name":"role","type":"bytes32"},{"internalType":"address","name":"account","type":"address"}],"name":"revokeRole","outputs":[],"stateMutability":"nonpayable","type":"function"},{"inputs":[],"name":"softcap","outputs":[{"internalType":"uint256","name":"","type":"uint256"}],"stateMutability":"view","type":"function"},{"inputs":[],"name":"startTime","outputs":[{"internalType":"uint256","name":"","type":"uint256"}],"stateMutability":"view","type":"function"},{"inputs":[],"name":"status","outputs":[{"internalType":"enum Fairlaunch.Status","name":"","type":"uint8"}],"stateMutability":"view","type":"function"},{"inputs":[{"internalType":"bytes4","name":"interfaceId","type":"bytes4"}],"name":"supportsInterface","outputs":[{"internalType":"bool","name":"","type":"bool"}],"stateMutability":"view","type":"function"},{"inputs":[],"name":"teamVesting","outputs":[{"internalType":"address","name":"","type":"address"}],"stateMutability":"view","type":"function"},{"inputs":[],"name":"tokensForSale","outputs":[{"internalType":"uint256","name":"","type":"uint256"}],"stateMutability":"view","type":"function"},{"inputs":[],"name":"totalRaised","outputs":[{"internalType":"uint256","name":"","type":"uint256"}],"stateMutability":"view","type":"function"},{"inputs":[],"name":"unpause","outputs":[],"stateMutability":"nonpayable","type":"function"}],"evm":{"bytecode":{"linkReferences":{},"object":"34620003ed576200274f38819003610280601f8201601f19168101906001600160401b03821190821017620003f2576102009282916040526102803912620003ed576200004e61028062000408565b6200005b6102a062000408565b6102c0516102e051610300516103205161034051610360516103805195979590949392919061ffff81168103620003ed5762000175956200009e6103a062000408565b92620000ac6103c062000408565b94620000ba6103e062000408565b96620000c861040062000408565b986101a061028001519d6101c061028001519d6101e061028001519d6001805560805260a05260c05260e05261010052610120526101405261016052610180526101a0526101c0526101e05261022094855261024093845261026092835260ff60a01b1960025416600255603846148015620003e2575b600090156200034e57507310ed43c718714eb63d5aa57b78b54704e256024e5b610200526200016e816200041d565b506200049d565b50604051916121ef93846200054085396080518481816109d101528181610abc01528181611543015281816115ca015281816117050152818161199201528181611a0b01528181611c400152611d59015260a0518481816102fb01528181610669015281816108ac01528181610c56015281816114100152818161157b015281816118720152818161194c01528181611be801528181611c6e01528181611d810152611ec7015260c05184818161022a015261137c015260e051848181610a6c01528181610d56015281816113c3015281816114cb015281816119d4015261217f015261010051848181610476015261117e01526101205184818161059901526111c8015261014051848181610725015281816120870152612117015261016051848181610c1e0152818161205d01526120ed01526101805184610d9401526101a05184818161081a0152818161143e0152611ea601526101c0518481816107d6015261183601526101e0518481816104ae01526117fd015261020051848181610dcd015281816114fe0152818161161b0152818161165e015281816116ad01528181611ba701528181611cc60152611d0901525183818161043b01526114990152518281816105d4015261179d01525181610cf10152f35b600146148015620003d5575b156200037c5750737a250d5630b4cf539739df2c5dacb4c659f2488d6200015f565b6121054614908115620003c7575b5015620003ac57734752ba5dbc23f44d87826276bf6fd6b1c372ad246200015f565b737a250d5630b4cf539739df2c5dacb4c659f2488d6200015f565b4662014a341491506200038a565b5062aa36a746146200035a565b50606146146200013f565b600080fd5b634e487b7160e01b600052604160045260246000fd5b51906001600160a01b0382168203620003ed57565b6001600160a01b031660008181527fad3228b676f7d3cd4284a5443f17f1962b36e491b30a40b2405849e597ba5fb5602052604081205490919060ff166200049957818052816020526040822081835260205260408220600160ff1982541617905533916000805160206200272f8339815191528180a4600190565b5090565b6001600160a01b031660008181527f7d7ffb7a348e1c6a02869081a26547b49160dd3df72d1d75a570eb9b698292ec60205260408120549091907fa49807205ce4d355092ef5a8a18f56e8913cf4a201fbe287825b095693c217759060ff166200053a57808352826020526040832082845260205260408320600160ff198254161790556000805160206200272f833981519152339380a4600190565b50509056fe608060408181526004918236101561001657600080fd5b600092833560e01c91826301ffc9a714610e255750816303fc201314610dfc5781630758d92414610db85781630b7c1ae114610d7957816312aef8c314610d3e5781631cc64544146104f8578163200d2ed214610d14578163220c095614610cd9578163248a9ca314610caf5781632f2ff15d14610c855781633013ce2914610c415781633197cbb614610c06578163362f04c014610be857816336568abe14610ba25781633f4ba83a14610b5757816342e94c901461039757816348c54b9d14610a005781634b60ce77146109bc5781634bb278f31461099b5781634e69d5601461096e578163590e1ae3146108495781636052970c14610805578163619f3d6c146107c157816373b2e80e1461078357816375b238fc1461074857816378e979251461070d5781638160059a146106495781638456cb59146105f75781638bcd8515146105bc5781638d3d6576146105815781638d4e40831461055d57816391d14854146105175781639ce05df7146104f8578163a217fddf146104dd578163a4475ce414610499578163aaffadf31461045e578163b068375514610423578163b187bd26146103fc578163b920ade2146103cf578163bb8b2b4714610397578163c5c4744c14610378578163d547741f14610339578163d7bb99ba146102e3578163ea8a1af014610251575063f89be5931461021457600080fd5b3461024d578160031936011261024d57602090517f00000000000000000000000000000000000000000000000000000000000000008152f35b5080fd5b9050346102df57826003193601126102df5761026b610ed2565b6002549160ff8360a01c1660068110156102cc576003146102bf57505060ff60a01b1916600560a01b176002557f63b958841f79ab97cb5456da181454b9932c0e15a3b17f1cbd27e2a8bc6104378180a180f35b516307a92f1960e51b8152fd5b634e487b7160e01b855260218352602485fd5b8280fd5b919050826003193601126102df576102f9611065565b7f00000000000000000000000000000000000000000000000000000000000000006001600160a01b03166102bf5782610332343361114b565b6001805580f35b919050346102df57806003193601126102df57610374913561036f600161035e610ea1565b938387528660205286200154610f4c565b610ff0565b5080f35b50503461024d578160031936011261024d576020906003549051908152f35b50503461024d57602036600319011261024d5760209181906001600160a01b036103bf610ebc565b1681526007845220549051908152f35b50503461024d57602036600319011261024d576020906103f56103f0610ebc565b61213e565b9051908152f35b50503461024d578160031936011261024d5760209060ff60065460081c1690519015158152f35b50503461024d578160031936011261024d57602090517f00000000000000000000000000000000000000000000000000000000000000008152f35b50503461024d578160031936011261024d57602090517f00000000000000000000000000000000000000000000000000000000000000008152f35b50503461024d578160031936011261024d57517f00000000000000000000000000000000000000000000000000000000000000006001600160a01b03168152602090f35b50503461024d578160031936011261024d5751908152602090f35b50503461024d578160031936011261024d576020906005549051908152f35b9050346102df57816003193601126102df578160209360ff92610538610ea1565b903582528186528282206001600160a01b039091168252855220549151911615158152f35b50503461024d578160031936011261024d5760209060ff6006541690519015158152f35b50503461024d578160031936011261024d57602090517f00000000000000000000000000000000000000000000000000000000000000008152f35b50503461024d578160031936011261024d57602090517f00000000000000000000000000000000000000000000000000000000000000008152f35b8334610646578060031936011261064657610610610ed2565b61010061ff001960065416176006557f9e87fac88ff661f02d44f95383c817fece4bce600a3dab7a54406878b965e7528180a180f35b80fd5b83833461024d57602036600319011261024d57823590610667611065565b7f00000000000000000000000000000000000000000000000000000000000000006001600160a01b031680156106fd5781516323b872dd60e01b6020820152336024820152306044820152606480820185905281529160a083019067ffffffffffffffff8211848310176106ea575261033292916106e4916110c0565b3361114b565b634e487b7160e01b865260418752602486fd5b81516307a92f1960e51b81528590fd5b50503461024d578160031936011261024d57602090517f00000000000000000000000000000000000000000000000000000000000000008152f35b50503461024d578160031936011261024d57602090517fa49807205ce4d355092ef5a8a18f56e8913cf4a201fbe287825b095693c217758152f35b50503461024d57602036600319011261024d5760209160ff9082906001600160a01b036107ae610ebc565b1681526008855220541690519015158152f35b50503461024d578160031936011261024d57517f00000000000000000000000000000000000000000000000000000000000000006001600160a01b03168152602090f35b50503461024d578160031936011261024d57517f00000000000000000000000000000000000000000000000000000000000000006001600160a01b03168152602090f35b919050346102df57826003193601126102df57610864611065565b60ff60025460a01c16600681101561095b5782811415908161094f575b506102bf573383526007602052808320541561094257338352600760205280832080549084905591827f00000000000000000000000000000000000000000000000000000000000000006001600160a01b03168061093157508480808093335af16108ea6112fd565b501561092357505b519081527fd7dee2702d63ad89917b6a4da9981c90c4d24f8c2bdfd64c604ecae57d8d065160203392a26001805580f35b90516312171d8360e31b8152fd5b61093d92503390611f6c565b6108f2565b5163f76aef6560e01b8152fd5b60059150141538610881565b634e487b7160e01b845260218352602484fd5b50503461024d578160031936011261024d576109979061098c6120ae565b905191829182610e78565b0390f35b83346106465780600319360112610646576109b4611065565b61033261133d565b50503461024d578160031936011261024d57517f00000000000000000000000000000000000000000000000000000000000000006001600160a01b03168152602090f35b9050346102df57826003193601126102df57610a1a611065565b60ff60025460a01c166006811015610b4457600303610b365733835260076020528183205415610b2857338352600860205260ff8284205416610b1a57503382526007602052610a9a610a91828420547f0000000000000000000000000000000000000000000000000000000000000000906112bd565b600354906112d0565b338084526008602052828420805460ff19166001179055909190610ae99083907f00000000000000000000000000000000000000000000000000000000000000006001600160a01b0316611f6c565b519081527f896e034966eaaf1adc54acc0f257056febbd300c9e47182cf761982cf1f5e43060203392a26001805580f35b9051630c8d9eab60e31b8152fd5b9051631971fbf360e21b8152fd5b90516307a92f1960e51b8152fd5b634e487b7160e01b845260218252602484fd5b8334610646578060031936011261064657610b70610ed2565b61ff0019600654166006557fa45f47fdea8a1efdd9029a5691c7f759c32b7c698632b563573e155625d169338180a180f35b83833461024d578060031936011261024d57610bbc610ea1565b90336001600160a01b03831603610bd95750610374919235610ff0565b5163334bd91960e11b81528390fd5b9050346102df57826003193601126102df5760209250549051908152f35b50503461024d578160031936011261024d57602090517f00000000000000000000000000000000000000000000000000000000000000008152f35b50503461024d578160031936011261024d57517f00000000000000000000000000000000000000000000000000000000000000006001600160a01b03168152602090f35b919050346102df57806003193601126102df576103749135610caa600161035e610ea1565b610f72565b9050346102df5760203660031901126102df57816020936001923581528085522001549051908152f35b50503461024d578160031936011261024d57602090517f00000000000000000000000000000000000000000000000000000000000000008152f35b50503461024d578160031936011261024d576109979060ff60025460a01c16905191829182610e78565b50503461024d578160031936011261024d57602090517f00000000000000000000000000000000000000000000000000000000000000008152f35b50503461024d578160031936011261024d576020905161ffff7f0000000000000000000000000000000000000000000000000000000000000000168152f35b50503461024d578160031936011261024d57517f00000000000000000000000000000000000000000000000000000000000000006001600160a01b03168152602090f35b50503461024d578160031936011261024d5760025490516001600160a01b039091168152602090f35b8491346102df5760203660031901126102df573563ffffffff60e01b81168091036102df5760209250637965db0b60e01b8114908115610e67575b5015158152f35b6301ffc9a760e01b14905083610e60565b919060208301926006821015610e8b5752565b634e487b7160e01b600052602160045260246000fd5b602435906001600160a01b0382168203610eb757565b600080fd5b600435906001600160a01b0382168203610eb757565b3360009081527f7d7ffb7a348e1c6a02869081a26547b49160dd3df72d1d75a570eb9b698292ec60205260409020547fa49807205ce4d355092ef5a8a18f56e8913cf4a201fbe287825b095693c217759060ff1615610f2e5750565b6044906040519063e2517d3f60e01b82523360048301526024820152fd5b80600052600060205260406000203360005260205260ff6040600020541615610f2e5750565b9060009180835282602052604083209160018060a01b03169182845260205260ff60408420541615600014610feb57808352826020526040832082845260205260408320600160ff198254161790557f2f8788117e7eff1d82e926ec794901d17c78024a50270940304540a733656f0d339380a4600190565b505090565b9060009180835282602052604083209160018060a01b03169182845260205260ff604084205416600014610feb5780835282602052604083208284526020526040832060ff1981541690557ff6391f5c32d9c69d2a47ea670b442974b53935d1edc7fd64eb21e047a839171b339380a4600190565b600260015414611076576002600155565b604051633ee5aeb560e01b8152600490fd5b90601f8019910116810190811067ffffffffffffffff8211176110aa57604052565b634e487b7160e01b600052604160045260246000fd5b906000602091828151910182855af11561111c576000513d61111357506001600160a01b0381163b155b6110f15750565b604051635274afe760e01b81526001600160a01b039091166004820152602490fd5b600114156110ea565b6040513d6000823e3d90fd5b9190820180921161113557565b634e487b7160e01b600052601160045260246000fd5b919091611156612001565b60ff60025460a01c166006811015610e8b576001036112ab5760ff60065460081c16611299577f000000000000000000000000000000000000000000000000000000000000000083106112875760018060a01b031660009281845260076020526040906111c68183872054611128565b7f00000000000000000000000000000000000000000000000000000000000000008111611276578386526007602052828620541561124b575b8286857ffa35a310d7113dddce1c275da946348e9aaebf9050b00b372033c4d84b0bd6eb969798526007602052205561123a81600354611128565b8060035582519182526020820152a2565b6004546000198114611262576001016004556111ff565b634e487b7160e01b87526011600452602487fd5b8251635e508cd360e11b8152600490fd5b604051636c7591b560e11b8152600490fd5b60405163ab35696f60e01b8152600490fd5b6040516307a92f1960e51b8152600490fd5b8181029291811591840414171561113557565b81156112da570490565b634e487b7160e01b600052601260045260246000fd5b9190820391821161113557565b3d15611338573d9067ffffffffffffffff82116110aa576040519161132c601f8201601f191660200184611088565b82523d6000602084013e565b606090565b611345612001565b600254600060ff8260a01c166006811015611f58576002036112ab5760065460ff81166112ab5760ff1916600117600655600354917f00000000000000000000000000000000000000000000000000000000000000008310611f215750670de0b6b3a76400009081830283159284820414831715611f0d576113e8907f0000000000000000000000000000000000000000000000000000000000000000906112d0565b6005556101f49182840292848404141715611ef95761140d61271080930480946112f0565b927f00000000000000000000000000000000000000000000000000000000000000006001600160a01b0316611ea0577f00000000000000000000000000000000000000000000000000000000000000006001600160a01b0316803b156102df5782906024604051809481936339650d1f60e01b83523060048401525af18015611b0257611e74575b505b7f0000000000000000000000000000000000000000000000000000000000000000916114ef816114c785876112bd565b04937f00000000000000000000000000000000000000000000000000000000000000006112bd565b60405163095ea7b360e01b81527f00000000000000000000000000000000000000000000000000000000000000006001600160a01b03166004820152919004602482018190529060208180604481010381867f00000000000000000000000000000000000000000000000000000000000000006001600160a01b03165af18015611b2c57611e55575b507f00000000000000000000000000000000000000000000000000000000000000006001600160a01b0316611b985761012c4201804211611b84576040519163f305d71960e01b835260018060a01b037f0000000000000000000000000000000000000000000000000000000000000000166004840152602483015282604483015282606483015230608483015260a482015260608160c4818660018060a01b037f0000000000000000000000000000000000000000000000000000000000000000165af18015611b0257611b56575b5060405163c45a015560e01b81526020816004817f00000000000000000000000000000000000000000000000000000000000000006001600160a01b03165afa908115611b02578291611b37575b506040516315ab88c960e31b8152906020826004817f00000000000000000000000000000000000000000000000000000000000000006001600160a01b03165afa918215611b2c5791602091611743938592611b0d575b5060405163e6a4390560e01b81526001600160a01b037f00000000000000000000000000000000000000000000000000000000000000008116600483015290921660248301529092839190829081906044820190565b03916001600160a01b03165afa908115611b02578291611ad3575b505b60018060a01b031692604051926370a0823160e01b90818552306004860152602085602481895afa948515611ac8578495611a94575b5062278d007f0000000000000000000000000000000000000000000000000000000000000000818102918115918304141715611a80576117d69042611128565b92867fac1d76749e5447b7b16f5ab61447e1bd502f3bb4807af3b28e620d1700a6ee4560407f0000000000000000000000000000000000000000000000000000000000000000966118288a8986611f6c565b8151908a82526020820152a27f00000000000000000000000000000000000000000000000000000000000000006001600160a01b03811661197e575b5061186f92506112f0565b907f00000000000000000000000000000000000000000000000000000000000000006001600160a01b031661191d5782809281925af16118ad6112fd565b501561190b577f6e4389167d2afbd1ccb4797ea87e29958adbf74cd16ba077a2ee5ab8460784e5916080915b600360a01b60ff60a01b19600254161760025560055491600354604051938452602084015260408301526060820152a1565b6040516312171d8360e31b8152600490fd5b7f6e4389167d2afbd1ccb4797ea87e29958adbf74cd16ba077a2ee5ab8460784e59460809490935091611979917f00000000000000000000000000000000000000000000000000000000000000006001600160a01b0316611f6c565b6118d9565b6040519384523060048501526020846024817f00000000000000000000000000000000000000000000000000000000000000006001600160a01b03165afa938415611a75578694611a3f575b506119f961186f947f0000000000000000000000000000000000000000000000000000000000000000906112f0565b80611a05575b50611864565b611a38917f00000000000000000000000000000000000000000000000000000000000000006001600160a01b0316611f6c565b38806119ff565b93506020843d602011611a6d575b81611a5a60209383611088565b81010312610eb7579251926119f96119ca565b3d9150611a4d565b6040513d88823e3d90fd5b634e487b7160e01b85526011600452602485fd5b9094506020813d602011611ac0575b81611ab060209383611088565b81010312610eb757519338611796565b3d9150611aa3565b6040513d86823e3d90fd5b611af5915060203d602011611afb575b611aed8183611088565b810190611fe2565b3861175e565b503d611ae3565b6040513d84823e3d90fd5b611b25919250833d8511611afb57611aed8183611088565b90386116ed565b6040513d85823e3d90fd5b611b50915060203d602011611afb57611aed8183611088565b38611696565b611b769060603d8111611b7d575b611b6e8183611088565b810190611fc7565b5050611648565b503d611b64565b634e487b7160e01b83526011600452602483fd5b60405163095ea7b360e01b81527f00000000000000000000000000000000000000000000000000000000000000006001600160a01b031660048201526024810184905260208180604481010381867f00000000000000000000000000000000000000000000000000000000000000006001600160a01b03165af18015611b2c57611e26575b5061012c4201804211611b84576040519162e8e33760e81b835260018060a01b037f000000000000000000000000000000000000000000000000000000000000000016600484015260018060a01b037f000000000000000000000000000000000000000000000000000000000000000016602484015260448301528360648301528260848301528260a48301523060c483015260e4820152606081610104818560018060a01b037f0000000000000000000000000000000000000000000000000000000000000000165af18015611b0257611e08575b5060405163c45a015560e01b81526020816004817f00000000000000000000000000000000000000000000000000000000000000006001600160a01b03165afa908115611b02578291611de9575b5060405163e6a4390560e01b81526001600160a01b037f0000000000000000000000000000000000000000000000000000000000000000811660048301527f000000000000000000000000000000000000000000000000000000000000000081166024830152909160209183916044918391165afa908115611b02578291611dca575b50611760565b611de3915060203d602011611afb57611aed8183611088565b38611dc4565b611e02915060203d602011611afb57611aed8183611088565b38611d41565b611e1f9060603d8111611b7d57611b6e8183611088565b5050611cf3565b611e479060203d602011611e4e575b611e3f8183611088565b810190611faf565b5038611c1d565b503d611e35565b611e6d9060203d602011611e4e57611e3f8183611088565b5038611578565b67ffffffffffffffff8111611e8c5760405238611495565b634e487b7160e01b82526041600452602482fd5b611ef4907f00000000000000000000000000000000000000000000000000000000000000007f00000000000000000000000000000000000000000000000000000000000000006001600160a01b0316611f6c565b611497565b634e487b7160e01b81526011600452602490fd5b634e487b7160e01b82526011600452602482fd5b60ff60a01b1916600160a21b176002557fe48846a3dca191c762ab6aaa1e929ccaf55e31a875fb78ad1b93e15ef4830aca915080a1565b634e487b7160e01b82526021600452602482fd5b60405163a9059cbb60e01b60208201526001600160a01b03929092166024830152604480830193909352918152611fad91611fa8606483611088565b6110c0565b565b90816020910312610eb757518015158103610eb75790565b90816060910312610eb7578051916040602083015192015190565b90816020910312610eb757516001600160a01b0381168103610eb75790565b60025460ff8160a01c166006811015610e8b57801580612084575b156120385750506002805460ff60a01b1916600160a01b179055565b6001148061205a575b6120485750565b60ff60a01b1916600160a11b17600255565b507f0000000000000000000000000000000000000000000000000000000000000000421015612041565b507f000000000000000000000000000000000000000000000000000000000000000042101561201c565b60ff60025460a01c166006811015610e8b57801580612114575b156120d35750600190565b60018114806120ea575b6120e45790565b50600290565b507f00000000000000000000000000000000000000000000000000000000000000004210156120dd565b507f00000000000000000000000000000000000000000000000000000000000000004210156120c8565b60ff60025460a01c166006811015610e8b576003036121b35760035480156121ac576121a99160018060a01b031660005260076020526121a46040600020547f0000000000000000000000000000000000000000000000000000000000000000906112bd565b6112d0565b90565b5050600090565b5060009056fea2646970667358221220a4b8c0c931fe4a9241633e43750d27f91e3689951ceaa2bc9cc9cb2a47a734fd64736f6c634300081400332f8788117e7eff1d82e926ec794901d17c78024a50270940304540a733656f0d","opcodes":"CALLVALUE PUSH3 0x3ED JUMPI PUSH3 0x274F CODESIZE DUP2 SWAP1 SUB PUSH2 0x280 PUSH1 0x1F DUP3 ADD PUSH1 0x1F NOT AND DUP2 ADD SWAP1 PUSH1 0x1 PUSH1 0x1 PUSH1 0x40 SHL SUB DUP3 GT SWAP1 DUP3 LT OR PUSH3 0x3F2 JUMPI PUSH2 0x200 SWAP3 DUP3 SWAP2 PUSH1 0x40 MSTORE PUSH2 0x280 CODECOPY SLT PUSH3 0x3ED JUMPI PUSH3 0x4E PUSH2 0x280 PUSH3 0x408 JUMP JUMPDEST PUSH3 0x5B PUSH2 0x2A0 PUSH3 0x408 JUMP JUMPDEST PUSH2 0x2C0 MLOAD PUSH2 0x2E0 MLOAD PUSH2 0x300 MLOAD PUSH2 0x320 MLOAD PUSH2 0x340 MLOAD PUSH2 0x360 MLOAD PUSH2 0x380 MLOAD SWAP6 SWAP8 SWAP6 SWAP1 SWAP5 SWAP4 SWAP3 SWAP2 SWAP1 PUSH2 0xFFFF DUP2 AND DUP2 SUB PUSH3 0x3ED JUMPI PUSH3 0x175 SWAP6 PUSH3 0x9E PUSH2 0x3A0 PUSH3 0x408 JUMP JUMPDEST SWAP3 PUSH3 0xAC PUSH2 0x3C0 PUSH3 0x408 JUMP JUMPDEST SWAP5 PUSH3 0xBA PUSH2 0x3E0 PUSH3 0x408 JUMP JUMPDEST SWAP7 PUSH3 0xC8 PUSH2 0x400 PUSH3 0x408 JUMP JUMPDEST SWAP9 PUSH2 0x1A0 PUSH2 0x280 ADD MLOAD SWAP14 PUSH2 0x1C0 PUSH2 0x280 ADD MLOAD SWAP14 PUSH2 0x1E0 PUSH2 0x280 ADD MLOAD SWAP14 PUSH1 0x1 DUP1 SSTORE PUSH1 0x80 MSTORE PUSH1 0xA0 MSTORE PUSH1 0xC0 MSTORE PUSH1 0xE0 MSTORE PUSH2 0x100 MSTORE PUSH2 0x120 MSTORE PUSH2 0x140 MSTORE PUSH2 0x160 MSTORE PUSH2 0x180 MSTORE PUSH2 0x1A0 MSTORE PUSH2 0x1C0 MSTORE PUSH2 0x1E0 MSTORE PUSH2 0x220 SWAP5 DUP6 MSTORE PUSH2 0x240 SWAP4 DUP5 MSTORE PUSH2 0x260 SWAP3 DUP4 MSTORE PUSH1 0xFF PUSH1 0xA0 SHL NOT PUSH1 0x2 SLOAD AND PUSH1 0x2 SSTORE PUSH1 0x38 CHAINID EQ DUP1 ISZERO PUSH3 0x3E2 JUMPI JUMPDEST PUSH1 0x0 SWAP1 ISZERO PUSH3 0x34E JUMPI POP PUSH20 0x10ED43C718714EB63D5AA57B78B54704E256024E JUMPDEST PUSH2 0x200 MSTORE PUSH3 0x16E DUP2 PUSH3 0x41D JUMP JUMPDEST POP PUSH3 0x49D JUMP JUMPDEST POP PUSH1 0x40 MLOAD SWAP2 PUSH2 0x21EF SWAP4 DUP5 PUSH3 0x540 DUP6 CODECOPY PUSH1 0x80 MLOAD DUP5 DUP2 DUP2 PUSH2 0x9D1 ADD MSTORE DUP2 DUP2 PUSH2 0xABC ADD MSTORE DUP2 DUP2 PUSH2 0x1543 ADD MSTORE DUP2 DUP2 PUSH2 0x15CA ADD MSTORE DUP2 DUP2 PUSH2 0x1705 ADD MSTORE DUP2 DUP2 PUSH2 0x1992 ADD MSTORE DUP2 DUP2 PUSH2 0x1A0B ADD MSTORE DUP2 DUP2 PUSH2 0x1C40 ADD MSTORE PUSH2 0x1D59 ADD MSTORE PUSH1 0xA0 MLOAD DUP5 DUP2 DUP2 PUSH2 0x2FB ADD MSTORE DUP2 DUP2 PUSH2 0x669 ADD MSTORE DUP2 DUP2 PUSH2 0x8AC ADD MSTORE DUP2 DUP2 PUSH2 0xC56 ADD MSTORE DUP2 DUP2 PUSH2 0x1410 ADD MSTORE DUP2 DUP2 PUSH2 0x157B ADD MSTORE DUP2 DUP2 PUSH2 0x1872 ADD MSTORE DUP2 DUP2 PUSH2 0x194C ADD MSTORE DUP2 DUP2 PUSH2 0x1BE8 ADD MSTORE DUP2 DUP2 PUSH2 0x1C6E ADD MSTORE DUP2 DUP2 PUSH2 0x1D81 ADD MSTORE PUSH2 0x1EC7 ADD MSTORE PUSH1 0xC0 MLOAD DUP5 DUP2 DUP2 PUSH2 0x22A ADD MSTORE PUSH2 0x137C ADD MSTORE PUSH1 0xE0 MLOAD DUP5 DUP2 DUP2 PUSH2 0xA6C ADD MSTORE DUP2 DUP2 PUSH2 0xD56 ADD MSTORE DUP2 DUP2 PUSH2 0x13C3 ADD MSTORE DUP2 DUP2 PUSH2 0x14CB ADD MSTORE DUP2 DUP2 PUSH2 0x19D4 ADD MSTORE PUSH2 0x217F ADD MSTORE PUSH2 0x100 MLOAD DUP5 DUP2 DUP2 PUSH2 0x476 ADD MSTORE PUSH2 0x117E ADD MSTORE PUSH2 0x120 MLOAD DUP5 DUP2 DUP2 PUSH2 0x599 ADD MSTORE PUSH2 0x11C8 ADD MSTORE PUSH2 0x140 MLOAD DUP5 DUP2 DUP2 PUSH2 0x725 ADD MSTORE DUP2 DUP2 PUSH2 0x2087 ADD MSTORE PUSH2 0x2117 ADD MSTORE PUSH2 0x160 MLOAD DUP5 DUP2 DUP2 PUSH2 0xC1E ADD MSTORE DUP2 DUP2 PUSH2 0x205D ADD MSTORE PUSH2 0x20ED ADD MSTORE PUSH2 0x180 MLOAD DUP5 PUSH2 0xD94 ADD MSTORE PUSH2 0x1A0 MLOAD DUP5 DUP2 DUP2 PUSH2 0x81A ADD MSTORE DUP2 DUP2 PUSH2 0x143E ADD MSTORE PUSH2 0x1EA6 ADD MSTORE PUSH2 0x1C0 MLOAD DUP5 DUP2 DUP2 PUSH2 0x7D6 ADD MSTORE PUSH2 0x1836 ADD MSTORE PUSH2 0x1E0 MLOAD DUP5 DUP2 DUP2 PUSH2 0x4AE ADD MSTORE PUSH2 0x17FD ADD MSTORE PUSH2 0x200 MLOAD DUP5 DUP2 DUP2 PUSH2 0xDCD ADD MSTORE DUP2 DUP2 PUSH2 0x14FE ADD MSTORE DUP2 DUP2 PUSH2 0x161B ADD MSTORE DUP2 DUP2 PUSH2 0x165E ADD MSTORE DUP2 DUP2 PUSH2 0x16AD ADD MSTORE DUP2 DUP2 PUSH2 0x1BA7 ADD MSTORE DUP2 DUP2 PUSH2 0x1CC6 ADD MSTORE PUSH2 0x1D09 ADD MSTORE MLOAD DUP4 DUP2 DUP2 PUSH2 0x43B ADD MSTORE PUSH2 0x1499 ADD MSTORE MLOAD DUP3 DUP2 DUP2 PUSH2 0x5D4 ADD MSTORE PUSH2 0x179D ADD MSTORE MLOAD DUP2 PUSH2 0xCF1 ADD MSTORE RETURN JUMPDEST PUSH1 0x1 CHAINID EQ DUP1 ISZERO PUSH3 0x3D5 JUMPI JUMPDEST ISZERO PUSH3 0x37C JUMPI POP PUSH20 0x7A250D5630B4CF539739DF2C5DACB4C659F2488D PUSH3 0x15F JUMP JUMPDEST PUSH2 0x2105 CHAINID EQ SWAP1 DUP2 ISZERO PUSH3 0x3C7 JUMPI JUMPDEST POP ISZERO PUSH3 0x3AC JUMPI PUSH20 0x4752BA5DBC23F44D87826276BF6FD6B1C372AD24 PUSH3 0x15F JUMP JUMPDEST PUSH20 0x7A250D5630B4CF539739DF2C5DACB4C659F2488D PUSH3 0x15F JUMP JUMPDEST CHAINID PUSH3 0x14A34 EQ SWAP2 POP PUSH3 0x38A JUMP JUMPDEST POP PUSH3 0xAA36A7 CHAINID EQ PUSH3 0x35A JUMP JUMPDEST POP PUSH1 0x61 CHAINID EQ PUSH3 0x13F JUMP JUMPDEST PUSH1 0x0 DUP1 REVERT JUMPDEST PUSH4 0x4E487B71 PUSH1 0xE0 SHL PUSH1 0x0 MSTORE PUSH1 0x41 PUSH1 0x4 MSTORE PUSH1 0x24 PUSH1 0x0 REVERT JUMPDEST MLOAD SWAP1 PUSH1 0x1 PUSH1 0x1 PUSH1 0xA0 SHL SUB DUP3 AND DUP3 SUB PUSH3 0x3ED JUMPI JUMP JUMPDEST PUSH1 0x1 PUSH1 0x1 PUSH1 0xA0 SHL SUB AND PUSH1 0x0 DUP2 DUP2 MSTORE PUSH32 0xAD3228B676F7D3CD4284A5443F17F1962B36E491B30A40B2405849E597BA5FB5 PUSH1 0x20 MSTORE PUSH1 0x40 DUP2 KECCAK256 SLOAD SWAP1 SWAP2 SWAP1 PUSH1 0xFF AND PUSH3 0x499 JUMPI DUP2 DUP1 MSTORE DUP2 PUSH1 0x20 MSTORE PUSH1 0x40 DUP3 KECCAK256 DUP2 DUP4 MSTORE PUSH1 0x20 MSTORE PUSH1 0x40 DUP3 KECCAK256 PUSH1 0x1 PUSH1 0xFF NOT DUP3 SLOAD AND OR SWAP1 SSTORE CALLER SWAP2 PUSH1 0x0 DUP1 MLOAD PUSH1 0x20 PUSH3 0x272F DUP4 CODECOPY DUP2 MLOAD SWAP2 MSTORE DUP2 DUP1 LOG4 PUSH1 0x1 SWAP1 JUMP JUMPDEST POP SWAP1 JUMP JUMPDEST PUSH1 0x1 PUSH1 0x1 PUSH1 0xA0 SHL SUB AND PUSH1 0x0 DUP2 DUP2 MSTORE PUSH32 0x7D7FFB7A348E1C6A02869081A26547B49160DD3DF72D1D75A570EB9B698292EC PUSH1 0x20 MSTORE PUSH1 0x40 DUP2 KECCAK256 SLOAD SWAP1 SWAP2 SWAP1 PUSH32 0xA49807205CE4D355092EF5A8A18F56E8913CF4A201FBE287825B095693C21775 SWAP1 PUSH1 0xFF AND PUSH3 0x53A JUMPI DUP1 DUP4 MSTORE DUP3 PUSH1 0x20 MSTORE PUSH1 0x40 DUP4 KECCAK256 DUP3 DUP5 MSTORE PUSH1 0x20 MSTORE PUSH1 0x40 DUP4 KECCAK256 PUSH1 0x1 PUSH1 0xFF NOT DUP3 SLOAD AND OR SWAP1 SSTORE PUSH1 0x0 DUP1 MLOAD PUSH1 0x20 PUSH3 0x272F DUP4 CODECOPY DUP2 MLOAD SWAP2 MSTORE CALLER SWAP4 DUP1 LOG4 PUSH1 0x1 SWAP1 JUMP JUMPDEST POP POP SWAP1 JUMP INVALID PUSH1 0x80 PUSH1 0x40 DUP2 DUP2 MSTORE PUSH1 0x4 SWAP2 DUP3 CALLDATASIZE LT ISZERO PUSH2 0x16 JUMPI PUSH1 0x0 DUP1 REVERT JUMPDEST PUSH1 0x0 SWAP3 DUP4 CALLDATALOAD PUSH1 0xE0 SHR SWAP2 DUP3 PUSH4 0x1FFC9A7 EQ PUSH2 0xE25 JUMPI POP DUP2 PUSH4 0x3FC2013 EQ PUSH2 0xDFC JUMPI DUP2 PUSH4 0x758D924 EQ PUSH2 0xDB8 JUMPI DUP2 PUSH4 0xB7C1AE1 EQ PUSH2 0xD79 JUMPI DUP2 PUSH4 0x12AEF8C3 EQ PUSH2 0xD3E JUMPI DUP2 PUSH4 0x1CC64544 EQ PUSH2 0x4F8 JUMPI DUP2 PUSH4 0x200D2ED2 EQ PUSH2 0xD14 JUMPI DUP2 PUSH4 0x220C0956 EQ PUSH2 0xCD9 JUMPI DUP2 PUSH4 0x248A9CA3 EQ PUSH2 0xCAF JUMPI DUP2 PUSH4 0x2F2FF15D EQ PUSH2 0xC85 JUMPI DUP2 PUSH4 0x3013CE29 EQ PUSH2 0xC41 JUMPI DUP2 PUSH4 0x3197CBB6 EQ PUSH2 0xC06 JUMPI DUP2 PUSH4 0x362F04C0 EQ PUSH2 0xBE8 JUMPI DUP2 PUSH4 0x36568ABE EQ PUSH2 0xBA2 JUMPI DUP2 PUSH4 0x3F4BA83A EQ PUSH2 0xB57 JUMPI DUP2 PUSH4 0x42E94C90 EQ PUSH2 0x397 JUMPI DUP2 PUSH4 0x48C54B9D EQ PUSH2 0xA00 JUMPI DUP2 PUSH4 0x4B60CE77 EQ PUSH2 0x9BC JUMPI DUP2 PUSH4 0x4BB278F3 EQ PUSH2 0x99B JUMPI DUP2 PUSH4 0x4E69D560 EQ PUSH2 0x96E JUMPI DUP2 PUSH4 0x590E1AE3 EQ PUSH2 0x849 JUMPI DUP2 PUSH4 0x6052970C EQ PUSH2 0x805 JUMPI DUP2 PUSH4 0x619F3D6C EQ PUSH2 0x7C1 JUMPI DUP2 PUSH4 0x73B2E80E EQ PUSH2 0x783 JUMPI DUP2 PUSH4 0x75B238FC EQ PUSH2 0x748 JUMPI DUP2 PUSH4 0x78E97925 EQ PUSH2 0x70D JUMPI DUP2 PUSH4 0x8160059A EQ PUSH2 0x649 JUMPI DUP2 PUSH4 0x8456CB59 EQ PUSH2 0x5F7 JUMPI DUP2 PUSH4 0x8BCD8515 EQ PUSH2 0x5BC JUMPI DUP2 PUSH4 0x8D3D6576 EQ PUSH2 0x581 JUMPI DUP2 PUSH4 0x8D4E4083 EQ PUSH2 0x55D JUMPI DUP2 PUSH4 0x91D14854 EQ PUSH2 0x517 JUMPI DUP2 PUSH4 0x9CE05DF7 EQ PUSH2 0x4F8 JUMPI DUP2 PUSH4 0xA217FDDF EQ PUSH2 0x4DD JUMPI DUP2 PUSH4 0xA4475CE4 EQ PUSH2 0x499 JUMPI DUP2 PUSH4 0xAAFFADF3 EQ PUSH2 0x45E JUMPI DUP2 PUSH4 0xB0683755 EQ PUSH2 0x423 JUMPI DUP2 PUSH4 0xB187BD26 EQ PUSH2 0x3FC JUMPI DUP2 PUSH4 0xB920ADE2 EQ PUSH2 0x3CF JUMPI DUP2 PUSH4 0xBB8B2B47 EQ PUSH2 0x397 JUMPI DUP2 PUSH4 0xC5C4744C EQ PUSH2 0x378 JUMPI DUP2 PUSH4 0xD547741F EQ PUSH2 0x339 JUMPI DUP2 PUSH4 0xD7BB99BA EQ PUSH2 0x2E3 JUMPI DUP2 PUSH4 0xEA8A1AF0 EQ PUSH2 0x251 JUMPI POP PUSH4 0xF89BE593 EQ PUSH2 0x214 JUMPI PUSH1 0x0 DUP1 REVERT JUMPDEST CALLVALUE PUSH2 0x24D JUMPI DUP2 PUSH1 0x3 NOT CALLDATASIZE ADD SLT PUSH2 0x24D JUMPI PUSH1 0x20 SWAP1 MLOAD PUSH32 0x0 DUP2 MSTORE RETURN JUMPDEST POP DUP1 REVERT JUMPDEST SWAP1 POP CALLVALUE PUSH2 0x2DF JUMPI DUP3 PUSH1 0x3 NOT CALLDATASIZE ADD SLT PUSH2 0x2DF JUMPI PUSH2 0x26B PUSH2 0xED2 JUMP JUMPDEST PUSH1 0x2 SLOAD SWAP2 PUSH1 0xFF DUP4 PUSH1 0xA0 SHR AND PUSH1 0x6 DUP2 LT ISZERO PUSH2 0x2CC JUMPI PUSH1 0x3 EQ PUSH2 0x2BF JUMPI POP POP PUSH1 0xFF PUSH1 0xA0 SHL NOT AND PUSH1 0x5 PUSH1 0xA0 SHL OR PUSH1 0x2 SSTORE PUSH32 0x63B958841F79AB97CB5456DA181454B9932C0E15A3B17F1CBD27E2A8BC610437 DUP2 DUP1 LOG1 DUP1 RETURN JUMPDEST MLOAD PUSH4 0x7A92F19 PUSH1 0xE5 SHL DUP2 MSTORE REVERT JUMPDEST PUSH4 0x4E487B71 PUSH1 0xE0 SHL DUP6 MSTORE PUSH1 0x21 DUP4 MSTORE PUSH1 0x24 DUP6 REVERT JUMPDEST DUP3 DUP1 REVERT JUMPDEST SWAP2 SWAP1 POP DUP3 PUSH1 0x3 NOT CALLDATASIZE ADD SLT PUSH2 0x2DF JUMPI PUSH2 0x2F9 PUSH2 0x1065 JUMP JUMPDEST PUSH32 0x0 PUSH1 0x1 PUSH1 0x1 PUSH1 0xA0 SHL SUB AND PUSH2 0x2BF JUMPI DUP3 PUSH2 0x332 CALLVALUE CALLER PUSH2 0x114B JUMP JUMPDEST PUSH1 0x1 DUP1 SSTORE DUP1 RETURN JUMPDEST SWAP2 SWAP1 POP CALLVALUE PUSH2 0x2DF JUMPI DUP1 PUSH1 0x3 NOT CALLDATASIZE ADD SLT PUSH2 0x2DF JUMPI PUSH2 0x374 SWAP2 CALLDATALOAD PUSH2 0x36F PUSH1 0x1 PUSH2 0x35E PUSH2 0xEA1 JUMP JUMPDEST SWAP4 DUP4 DUP8 MSTORE DUP7 PUSH1 0x20 MSTORE DUP7 KECCAK256 ADD SLOAD PUSH2 0xF4C JUMP JUMPDEST PUSH2 0xFF0 JUMP JUMPDEST POP DUP1 RETURN JUMPDEST POP POP CALLVALUE PUSH2 0x24D JUMPI DUP2 PUSH1 0x3 NOT CALLDATASIZE ADD SLT PUSH2 0x24D JUMPI PUSH1 0x20 SWAP1 PUSH1 0x3 SLOAD SWAP1 MLOAD SWAP1 DUP2 MSTORE RETURN JUMPDEST POP POP CALLVALUE PUSH2 0x24D JUMPI PUSH1 0x20 CALLDATASIZE PUSH1 0x3 NOT ADD SLT PUSH2 0x24D JUMPI PUSH1 0x20 SWAP2 DUP2 SWAP1 PUSH1 0x1 PUSH1 0x1 PUSH1 0xA0 SHL SUB PUSH2 0x3BF PUSH2 0xEBC JUMP JUMPDEST AND DUP2 MSTORE PUSH1 0x7 DUP5 MSTORE KECCAK256 SLOAD SWAP1 MLOAD SWAP1 DUP2 MSTORE RETURN JUMPDEST POP POP CALLVALUE PUSH2 0x24D JUMPI PUSH1 0x20 CALLDATASIZE PUSH1 0x3 NOT ADD SLT PUSH2 0x24D JUMPI PUSH1 0x20 SWAP1 PUSH2 0x3F5 PUSH2 0x3F0 PUSH2 0xEBC JUMP JUMPDEST PUSH2 0x213E JUMP JUMPDEST SWAP1 MLOAD SWAP1 DUP2 MSTORE RETURN JUMPDEST POP POP CALLVALUE PUSH2 0x24D JUMPI DUP2 PUSH1 0x3 NOT CALLDATASIZE ADD SLT PUSH2 0x24D JUMPI PUSH1 0x20 SWAP1 PUSH1 0xFF PUSH1 0x6 SLOAD PUSH1 0x8 SHR AND SWAP1 MLOAD SWAP1 ISZERO ISZERO DUP2 MSTORE RETURN JUMPDEST POP POP CALLVALUE PUSH2 0x24D JUMPI DUP2 PUSH1 0x3 NOT CALLDATASIZE ADD SLT PUSH2 0x24D JUMPI PUSH1 0x20 SWAP1 MLOAD PUSH32 0x0 DUP2 MSTORE RETURN JUMPDEST POP POP CALLVALUE PUSH2 0x24D JUMPI DUP2 PUSH1 0x3 NOT CALLDATASIZE ADD SLT PUSH2 0x24D JUMPI PUSH1 0x20 SWAP1 MLOAD PUSH32 0x0 DUP2 MSTORE RETURN JUMPDEST POP POP CALLVALUE PUSH2 0x24D JUMPI DUP2 PUSH1 0x3 NOT CALLDATASIZE ADD SLT PUSH2 0x24D JUMPI MLOAD PUSH32 0x0 PUSH1 0x1 PUSH1 0x1 PUSH1 0xA0 SHL SUB AND DUP2 MSTORE PUSH1 0x20 SWAP1 RETURN JUMPDEST POP POP CALLVALUE PUSH2 0x24D JUMPI DUP2 PUSH1 0x3 NOT CALLDATASIZE ADD SLT PUSH2 0x24D JUMPI MLOAD SWAP1 DUP2 MSTORE PUSH1 0x20 SWAP1 RETURN JUMPDEST POP POP CALLVALUE PUSH2 0x24D JUMPI DUP2 PUSH1 0x3 NOT CALLDATASIZE ADD SLT PUSH2 0x24D JUMPI PUSH1 0x20 SWAP1 PUSH1 0x5 SLOAD SWAP1 MLOAD SWAP1 DUP2 MSTORE RETURN JUMPDEST SWAP1 POP CALLVALUE PUSH2 0x2DF JUMPI DUP2 PUSH1 0x3 NOT CALLDATASIZE ADD SLT PUSH2 0x2DF JUMPI DUP2 PUSH1 0x20 SWAP4 PUSH1 0xFF SWAP3 PUSH2 0x538 PUSH2 0xEA1 JUMP JUMPDEST SWAP1 CALLDATALOAD DUP3 MSTORE DUP2 DUP7 MSTORE DUP3 DUP3 KECCAK256 PUSH1 0x1 PUSH1 0x1 PUSH1 0xA0 SHL SUB SWAP1 SWAP2 AND DUP3 MSTORE DUP6 MSTORE KECCAK256 SLOAD SWAP2 MLOAD SWAP2 AND ISZERO ISZERO DUP2 MSTORE RETURN JUMPDEST POP POP CALLVALUE PUSH2 0x24D JUMPI DUP2 PUSH1 0x3 NOT CALLDATASIZE ADD SLT PUSH2 0x24D JUMPI PUSH1 0x20 SWAP1 PUSH1 0xFF PUSH1 0x6 SLOAD AND SWAP1 MLOAD SWAP1 ISZERO ISZERO DUP2 MSTORE RETURN JUMPDEST POP POP CALLVALUE PUSH2 0x24D JUMPI DUP2 PUSH1 0x3 NOT CALLDATASIZE ADD SLT PUSH2 0x24D JUMPI PUSH1 0x20 SWAP1 MLOAD PUSH32 0x0 DUP2 MSTORE RETURN JUMPDEST POP POP CALLVALUE PUSH2 0x24D JUMPI DUP2 PUSH1 0x3 NOT CALLDATASIZE ADD SLT PUSH2 0x24D JUMPI PUSH1 0x20 SWAP1 MLOAD PUSH32 0x0 DUP2 MSTORE RETURN JUMPDEST DUP4 CALLVALUE PUSH2 0x646 JUMPI DUP1 PUSH1 0x3 NOT CALLDATASIZE ADD SLT PUSH2 0x646 JUMPI PUSH2 0x610 PUSH2 0xED2 JUMP JUMPDEST PUSH2 0x100 PUSH2 0xFF00 NOT PUSH1 0x6 SLOAD AND OR PUSH1 0x6 SSTORE PUSH32 0x9E87FAC88FF661F02D44F95383C817FECE4BCE600A3DAB7A54406878B965E752 DUP2 DUP1 LOG1 DUP1 RETURN JUMPDEST DUP1 REVERT JUMPDEST DUP4 DUP4 CALLVALUE PUSH2 0x24D JUMPI PUSH1 0x20 CALLDATASIZE PUSH1 0x3 NOT ADD SLT PUSH2 0x24D JUMPI DUP3 CALLDATALOAD SWAP1 PUSH2 0x667 PUSH2 0x1065 JUMP JUMPDEST PUSH32 0x0 PUSH1 0x1 PUSH1 0x1 PUSH1 0xA0 SHL SUB AND DUP1 ISZERO PUSH2 0x6FD JUMPI DUP2 MLOAD PUSH4 0x23B872DD PUSH1 0xE0 SHL PUSH1 0x20 DUP3 ADD MSTORE CALLER PUSH1 0x24 DUP3 ADD MSTORE ADDRESS PUSH1 0x44 DUP3 ADD MSTORE PUSH1 0x64 DUP1 DUP3 ADD DUP6 SWAP1 MSTORE DUP2 MSTORE SWAP2 PUSH1 0xA0 DUP4 ADD SWAP1 PUSH8 0xFFFFFFFFFFFFFFFF DUP3 GT DUP5 DUP4 LT OR PUSH2 0x6EA JUMPI MSTORE PUSH2 0x332 SWAP3 SWAP2 PUSH2 0x6E4 SWAP2 PUSH2 0x10C0 JUMP JUMPDEST CALLER PUSH2 0x114B JUMP JUMPDEST PUSH4 0x4E487B71 PUSH1 0xE0 SHL DUP7 MSTORE PUSH1 0x41 DUP8 MSTORE PUSH1 0x24 DUP7 REVERT JUMPDEST DUP2 MLOAD PUSH4 0x7A92F19 PUSH1 0xE5 SHL DUP2 MSTORE DUP6 SWAP1 REVERT JUMPDEST POP POP CALLVALUE PUSH2 0x24D JUMPI DUP2 PUSH1 0x3 NOT CALLDATASIZE ADD SLT PUSH2 0x24D JUMPI PUSH1 0x20 SWAP1 MLOAD PUSH32 0x0 DUP2 MSTORE RETURN JUMPDEST POP POP CALLVALUE PUSH2 0x24D JUMPI DUP2 PUSH1 0x3 NOT CALLDATASIZE ADD SLT PUSH2 0x24D JUMPI PUSH1 0x20 SWAP1 MLOAD PUSH32 0xA49807205CE4D355092EF5A8A18F56E8913CF4A201FBE287825B095693C21775 DUP2 MSTORE RETURN JUMPDEST POP POP CALLVALUE PUSH2 0x24D JUMPI PUSH1 0x20 CALLDATASIZE PUSH1 0x3 NOT ADD SLT PUSH2 0x24D JUMPI PUSH1 0x20 SWAP2 PUSH1 0xFF SWAP1 DUP3 SWAP1 PUSH1 0x1 PUSH1 0x1 PUSH1 0xA0 SHL SUB PUSH2 0x7AE PUSH2 0xEBC JUMP JUMPDEST AND DUP2 MSTORE PUSH1 0x8 DUP6 MSTORE KECCAK256 SLOAD AND SWAP1 MLOAD SWAP1 ISZERO ISZERO DUP2 MSTORE RETURN JUMPDEST POP POP CALLVALUE PUSH2 0x24D JUMPI DUP2 PUSH1 0x3 NOT CALLDATASIZE ADD SLT PUSH2 0x24D JUMPI MLOAD PUSH32 0x0 PUSH1 0x1 PUSH1 0x1 PUSH1 0xA0 SHL SUB AND DUP2 MSTORE PUSH1 0x20 SWAP1 RETURN JUMPDEST POP POP CALLVALUE PUSH2 0x24D JUMPI DUP2 PUSH1 0x3 NOT CALLDATASIZE ADD SLT PUSH2 0x24D JUMPI MLOAD PUSH32 0x0 PUSH1 0x1 PUSH1 0x1 PUSH1 0xA0 SHL SUB AND DUP2 MSTORE PUSH1 0x20 SWAP1 RETURN JUMPDEST SWAP2 SWAP1 POP CALLVALUE PUSH2 0x2DF JUMPI DUP3 PUSH1 0x3 NOT CALLDATASIZE ADD SLT PUSH2 0x2DF JUMPI PUSH2 0x864 PUSH2 0x1065 JUMP JUMPDEST PUSH1 0xFF PUSH1 0x2 SLOAD PUSH1 0xA0 SHR AND PUSH1 0x6 DUP2 LT ISZERO PUSH2 0x95B JUMPI DUP3 DUP2 EQ ISZERO SWAP1 DUP2 PUSH2 0x94F JUMPI JUMPDEST POP PUSH2 0x2BF JUMPI CALLER DUP4 MSTORE PUSH1 0x7 PUSH1 0x20 MSTORE DUP1 DUP4 KECCAK256 SLOAD ISZERO PUSH2 0x942 JUMPI CALLER DUP4 MSTORE PUSH1 0x7 PUSH1 0x20 MSTORE DUP1 DUP4 KECCAK256 DUP1 SLOAD SWAP1 DUP5 SWAP1 SSTORE SWAP2 DUP3 PUSH32 0x0 PUSH1 0x1 PUSH1 0x1 PUSH1 0xA0 SHL SUB AND DUP1 PUSH2 0x931 JUMPI POP DUP5 DUP1 DUP1 DUP1 SWAP4 CALLER GAS CALL PUSH2 0x8EA PUSH2 0x12FD JUMP JUMPDEST POP ISZERO PUSH2 0x923 JUMPI POP JUMPDEST MLOAD SWAP1 DUP2 MSTORE PUSH32 0xD7DEE2702D63AD89917B6A4DA9981C90C4D24F8C2BDFD64C604ECAE57D8D0651 PUSH1 0x20 CALLER SWAP3 LOG2 PUSH1 0x1 DUP1 SSTORE DUP1 RETURN JUMPDEST SWAP1 MLOAD PUSH4 0x12171D83 PUSH1 0xE3 SHL DUP2 MSTORE REVERT JUMPDEST PUSH2 0x93D SWAP3 POP CALLER SWAP1 PUSH2 0x1F6C JUMP JUMPDEST PUSH2 0x8F2 JUMP JUMPDEST MLOAD PUSH4 0xF76AEF65 PUSH1 0xE0 SHL DUP2 MSTORE REVERT JUMPDEST PUSH1 0x5 SWAP2 POP EQ ISZERO CODESIZE PUSH2 0x881 JUMP JUMPDEST PUSH4 0x4E487B71 PUSH1 0xE0 SHL DUP5 MSTORE PUSH1 0x21 DUP4 MSTORE PUSH1 0x24 DUP5 REVERT JUMPDEST POP POP CALLVALUE PUSH2 0x24D JUMPI DUP2 PUSH1 0x3 NOT CALLDATASIZE ADD SLT PUSH2 0x24D JUMPI PUSH2 0x997 SWAP1 PUSH2 0x98C PUSH2 0x20AE JUMP JUMPDEST SWAP1 MLOAD SWAP2 DUP3 SWAP2 DUP3 PUSH2 0xE78 JUMP JUMPDEST SUB SWAP1 RETURN JUMPDEST DUP4 CALLVALUE PUSH2 0x646 JUMPI DUP1 PUSH1 0x3 NOT CALLDATASIZE ADD SLT PUSH2 0x646 JUMPI PUSH2 0x9B4 PUSH2 0x1065 JUMP JUMPDEST PUSH2 0x332 PUSH2 0x133D JUMP JUMPDEST POP POP CALLVALUE PUSH2 0x24D JUMPI DUP2 PUSH1 0x3 NOT CALLDATASIZE ADD SLT PUSH2 0x24D JUMPI MLOAD PUSH32 0x0 PUSH1 0x1 PUSH1 0x1 PUSH1 0xA0 SHL SUB AND DUP2 MSTORE PUSH1 0x20 SWAP1 RETURN JUMPDEST SWAP1 POP CALLVALUE PUSH2 0x2DF JUMPI DUP3 PUSH1 0x3 NOT CALLDATASIZE ADD SLT PUSH2 0x2DF JUMPI PUSH2 0xA1A PUSH2 0x1065 JUMP JUMPDEST PUSH1 0xFF PUSH1 0x2 SLOAD PUSH1 0xA0 SHR AND PUSH1 0x6 DUP2 LT ISZERO PUSH2 0xB44 JUMPI PUSH1 0x3 SUB PUSH2 0xB36 JUMPI CALLER DUP4 MSTORE PUSH1 0x7 PUSH1 0x20 MSTORE DUP2 DUP4 KECCAK256 SLOAD ISZERO PUSH2 0xB28 JUMPI CALLER DUP4 MSTORE PUSH1 0x8 PUSH1 0x20 MSTORE PUSH1 0xFF DUP3 DUP5 KECCAK256 SLOAD AND PUSH2 0xB1A JUMPI POP CALLER DUP3 MSTORE PUSH1 0x7 PUSH1 0x20 MSTORE PUSH2 0xA9A PUSH2 0xA91 DUP3 DUP5 KECCAK256 SLOAD PUSH32 0x0 SWAP1 PUSH2 0x12BD JUMP JUMPDEST PUSH1 0x3 SLOAD SWAP1 PUSH2 0x12D0 JUMP JUMPDEST CALLER DUP1 DUP5 MSTORE PUSH1 0x8 PUSH1 0x20 MSTORE DUP3 DUP5 KECCAK256 DUP1 SLOAD PUSH1 0xFF NOT AND PUSH1 0x1 OR SWAP1 SSTORE SWAP1 SWAP2 SWAP1 PUSH2 0xAE9 SWAP1 DUP4 SWAP1 PUSH32 0x0 PUSH1 0x1 PUSH1 0x1 PUSH1 0xA0 SHL SUB AND PUSH2 0x1F6C JUMP JUMPDEST MLOAD SWAP1 DUP2 MSTORE PUSH32 0x896E034966EAAF1ADC54ACC0F257056FEBBD300C9E47182CF761982CF1F5E430 PUSH1 0x20 CALLER SWAP3 LOG2 PUSH1 0x1 DUP1 SSTORE DUP1 RETURN JUMPDEST SWAP1 MLOAD PUSH4 0xC8D9EAB PUSH1 0xE3 SHL DUP2 MSTORE REVERT JUMPDEST SWAP1 MLOAD PUSH4 0x1971FBF3 PUSH1 0xE2 SHL DUP2 MSTORE REVERT JUMPDEST SWAP1 MLOAD PUSH4 0x7A92F19 PUSH1 0xE5 SHL DUP2 MSTORE REVERT JUMPDEST PUSH4 0x4E487B71 PUSH1 0xE0 SHL DUP5 MSTORE PUSH1 0x21 DUP3 MSTORE PUSH1 0x24 DUP5 REVERT JUMPDEST DUP4 CALLVALUE PUSH2 0x646 JUMPI DUP1 PUSH1 0x3 NOT CALLDATASIZE ADD SLT PUSH2 0x646 JUMPI PUSH2 0xB70 PUSH2 0xED2 JUMP JUMPDEST PUSH2 0xFF00 NOT PUSH1 0x6 SLOAD AND PUSH1 0x6 SSTORE PUSH32 0xA45F47FDEA8A1EFDD9029A5691C7F759C32B7C698632B563573E155625D16933 DUP2 DUP1 LOG1 DUP1 RETURN JUMPDEST DUP4 DUP4 CALLVALUE PUSH2 0x24D JUMPI DUP1 PUSH1 0x3 NOT CALLDATASIZE ADD SLT PUSH2 0x24D JUMPI PUSH2 0xBBC PUSH2 0xEA1 JUMP JUMPDEST SWAP1 CALLER PUSH1 0x1 PUSH1 0x1 PUSH1 0xA0 SHL SUB DUP4 AND SUB PUSH2 0xBD9 JUMPI POP PUSH2 0x374 SWAP2 SWAP3 CALLDATALOAD PUSH2 0xFF0 JUMP JUMPDEST MLOAD PUSH4 0x334BD919 PUSH1 0xE1 SHL DUP2 MSTORE DUP4 SWAP1 REVERT JUMPDEST SWAP1 POP CALLVALUE PUSH2 0x2DF JUMPI DUP3 PUSH1 0x3 NOT CALLDATASIZE ADD SLT PUSH2 0x2DF JUMPI PUSH1 0x20 SWAP3 POP SLOAD SWAP1 MLOAD SWAP1 DUP2 MSTORE RETURN JUMPDEST POP POP CALLVALUE PUSH2 0x24D JUMPI DUP2 PUSH1 0x3 NOT CALLDATASIZE ADD SLT PUSH2 0x24D JUMPI PUSH1 0x20 SWAP1 MLOAD PUSH32 0x0 DUP2 MSTORE RETURN JUMPDEST POP POP CALLVALUE PUSH2 0x24D JUMPI DUP2 PUSH1 0x3 NOT CALLDATASIZE ADD SLT PUSH2 0x24D JUMPI MLOAD PUSH32 0x0 PUSH1 0x1 PUSH1 0x1 PUSH1 0xA0 SHL SUB AND DUP2 MSTORE PUSH1 0x20 SWAP1 RETURN JUMPDEST SWAP2 SWAP1 POP CALLVALUE PUSH2 0x2DF JUMPI DUP1 PUSH1 0x3 NOT CALLDATASIZE ADD SLT PUSH2 0x2DF JUMPI PUSH2 0x374 SWAP2 CALLDATALOAD PUSH2 0xCAA PUSH1 0x1 PUSH2 0x35E PUSH2 0xEA1 JUMP JUMPDEST PUSH2 0xF72 JUMP JUMPDEST SWAP1 POP CALLVALUE PUSH2 0x2DF JUMPI PUSH1 0x20 CALLDATASIZE PUSH1 0x3 NOT ADD SLT PUSH2 0x2DF JUMPI DUP2 PUSH1 0x20 SWAP4 PUSH1 0x1 SWAP3 CALLDATALOAD DUP2 MSTORE DUP1 DUP6 MSTORE KECCAK256 ADD SLOAD SWAP1 MLOAD SWAP1 DUP2 MSTORE RETURN JUMPDEST POP POP CALLVALUE PUSH2 0x24D JUMPI DUP2 PUSH1 0x3 NOT CALLDATASIZE ADD SLT PUSH2 0x24D JUMPI PUSH1 0x20 SWAP1 MLOAD PUSH32 0x0 DUP2 MSTORE RETURN JUMPDEST POP POP CALLVALUE PUSH2 0x24D JUMPI DUP2 PUSH1 0x3 NOT CALLDATASIZE ADD SLT PUSH2 0x24D JUMPI PUSH2 0x997 SWAP1 PUSH1 0xFF PUSH1 0x2 SLOAD PUSH1 0xA0 SHR AND SWAP1 MLOAD SWAP2 DUP3 SWAP2 DUP3 PUSH2 0xE78 JUMP JUMPDEST POP POP CALLVALUE PUSH2 0x24D JUMPI DUP2 PUSH1 0x3 NOT CALLDATASIZE ADD SLT PUSH2 0x24D JUMPI PUSH1 0x20 SWAP1 MLOAD PUSH32 0x0 DUP2 MSTORE RETURN JUMPDEST POP POP CALLVALUE PUSH2 0x24D JUMPI DUP2 PUSH1 0x3 NOT CALLDATASIZE ADD SLT PUSH2 0x24D JUMPI PUSH1 0x20 SWAP1 MLOAD PUSH2 0xFFFF PUSH32 0x0 AND DUP2 MSTORE RETURN JUMPDEST POP POP CALLVALUE PUSH2 0x24D JUMPI DUP2 PUSH1 0x3 NOT CALLDATASIZE ADD SLT PUSH2 0x24D JUMPI MLOAD PUSH32 0x0 PUSH1 0x1 PUSH1 0x1 PUSH1 0xA0 SHL SUB AND DUP2 MSTORE PUSH1 0x20 SWAP1 RETURN JUMPDEST POP POP CALLVALUE PUSH2 0x24D JUMPI DUP2 PUSH1 0x3 NOT CALLDATASIZE ADD SLT PUSH2 0x24D JUMPI PUSH1 0x2 SLOAD SWAP1 MLOAD PUSH1 0x1 PUSH1 0x1 PUSH1 0xA0 SHL SUB SWAP1 SWAP2 AND DUP2 MSTORE PUSH1 0x20 SWAP1 RETURN JUMPDEST DUP5 SWAP2 CALLVALUE PUSH2 0x2DF JUMPI PUSH1 0x20 CALLDATASIZE PUSH1 0x3 NOT ADD SLT PUSH2 0x2DF JUMPI CALLDATALOAD PUSH4 0xFFFFFFFF PUSH1 0xE0 SHL DUP2 AND DUP1 SWAP2 SUB PUSH2 0x2DF JUMPI PUSH1 0x20 SWAP3 POP PUSH4 0x7965DB0B PUSH1 0xE0 SHL DUP2 EQ SWAP1 DUP2 ISZERO PUSH2 0xE67 JUMPI JUMPDEST POP ISZERO ISZERO DUP2 MSTORE RETURN JUMPDEST PUSH4 0x1FFC9A7 PUSH1 0xE0 SHL EQ SWAP1 POP DUP4 PUSH2 0xE60 JUMP JUMPDEST SWAP2 SWAP1 PUSH1 0x20 DUP4 ADD SWAP3 PUSH1 0x6 DUP3 LT ISZERO PUSH2 0xE8B JUMPI MSTORE JUMP JUMPDEST PUSH4 0x4E487B71 PUSH1 0xE0 SHL PUSH1 0x0 MSTORE PUSH1 0x21 PUSH1 0x4 MSTORE PUSH1 0x24 PUSH1 0x0 REVERT JUMPDEST PUSH1 0x24 CALLDATALOAD SWAP1 PUSH1 0x1 PUSH1 0x1 PUSH1 0xA0 SHL SUB DUP3 AND DUP3 SUB PUSH2 0xEB7 JUMPI JUMP JUMPDEST PUSH1 0x0 DUP1 REVERT JUMPDEST PUSH1 0x4 CALLDATALOAD SWAP1 PUSH1 0x1 PUSH1 0x1 PUSH1 0xA0 SHL SUB DUP3 AND DUP3 SUB PUSH2 0xEB7 JUMPI JUMP JUMPDEST CALLER PUSH1 0x0 SWAP1 DUP2 MSTORE PUSH32 0x7D7FFB7A348E1C6A02869081A26547B49160DD3DF72D1D75A570EB9B698292EC PUSH1 0x20 MSTORE PUSH1 0x40 SWAP1 KECCAK256 SLOAD PUSH32 0xA49807205CE4D355092EF5A8A18F56E8913CF4A201FBE287825B095693C21775 SWAP1 PUSH1 0xFF AND ISZERO PUSH2 0xF2E JUMPI POP JUMP JUMPDEST PUSH1 0x44 SWAP1 PUSH1 0x40 MLOAD SWAP1 PUSH4 0xE2517D3F PUSH1 0xE0 SHL DUP3 MSTORE CALLER PUSH1 0x4 DUP4 ADD MSTORE PUSH1 0x24 DUP3 ADD MSTORE REVERT JUMPDEST DUP1 PUSH1 0x0 MSTORE PUSH1 0x0 PUSH1 0x20 MSTORE PUSH1 0x40 PUSH1 0x0 KECCAK256 CALLER PUSH1 0x0 MSTORE PUSH1 0x20 MSTORE PUSH1 0xFF PUSH1 0x40 PUSH1 0x0 KECCAK256 SLOAD AND ISZERO PUSH2 0xF2E JUMPI POP JUMP JUMPDEST SWAP1 PUSH1 0x0 SWAP2 DUP1 DUP4 MSTORE DUP3 PUSH1 0x20 MSTORE PUSH1 0x40 DUP4 KECCAK256 SWAP2 PUSH1 0x1 DUP1 PUSH1 0xA0 SHL SUB AND SWAP2 DUP3 DUP5 MSTORE PUSH1 0x20 MSTORE PUSH1 0xFF PUSH1 0x40 DUP5 KECCAK256 SLOAD AND ISZERO PUSH1 0x0 EQ PUSH2 0xFEB JUMPI DUP1 DUP4 MSTORE DUP3 PUSH1 0x20 MSTORE PUSH1 0x40 DUP4 KECCAK256 DUP3 DUP5 MSTORE PUSH1 0x20 MSTORE PUSH1 0x40 DUP4 KECCAK256 PUSH1 0x1 PUSH1 0xFF NOT DUP3 SLOAD AND OR SWAP1 SSTORE PUSH32 0x2F8788117E7EFF1D82E926EC794901D17C78024A50270940304540A733656F0D CALLER SWAP4 DUP1 LOG4 PUSH1 0x1 SWAP1 JUMP JUMPDEST POP POP SWAP1 JUMP JUMPDEST SWAP1 PUSH1 0x0 SWAP2 DUP1 DUP4 MSTORE DUP3 PUSH1 0x20 MSTORE PUSH1 0x40 DUP4 KECCAK256 SWAP2 PUSH1 0x1 DUP1 PUSH1 0xA0 SHL SUB AND SWAP2 DUP3 DUP5 MSTORE PUSH1 0x20 MSTORE PUSH1 0xFF PUSH1 0x40 DUP5 KECCAK256 SLOAD AND PUSH1 0x0 EQ PUSH2 0xFEB JUMPI DUP1 DUP4 MSTORE DUP3 PUSH1 0x20 MSTORE PUSH1 0x40 DUP4 KECCAK256 DUP3 DUP5 MSTORE PUSH1 0x20 MSTORE PUSH1 0x40 DUP4 KECCAK256 PUSH1 0xFF NOT DUP2 SLOAD AND SWAP1 SSTORE PUSH32 0xF6391F5C32D9C69D2A47EA670B442974B53935D1EDC7FD64EB21E047A839171B CALLER SWAP4 DUP1 LOG4 PUSH1 0x1 SWAP1 JUMP JUMPDEST PUSH1 0x2 PUSH1 0x1 SLOAD EQ PUSH2 0x1076 JUMPI PUSH1 0x2 PUSH1 0x1 SSTORE JUMP JUMPDEST PUSH1 0x40 MLOAD PUSH4 0x3EE5AEB5 PUSH1 0xE0 SHL DUP2 MSTORE PUSH1 0x4 SWAP1 REVERT JUMPDEST SWAP1 PUSH1 0x1F DUP1 NOT SWAP2 ADD AND DUP2 ADD SWAP1 DUP2 LT PUSH8 0xFFFFFFFFFFFFFFFF DUP3 GT OR PUSH2 0x10AA JUMPI PUSH1 0x40 MSTORE JUMP JUMPDEST PUSH4 0x4E487B71 PUSH1 0xE0 SHL PUSH1 0x0 MSTORE PUSH1 0x41 PUSH1 0x4 MSTORE PUSH1 0x24 PUSH1 0x0 REVERT JUMPDEST SWAP1 PUSH1 0x0 PUSH1 0x20 SWAP2 DUP3 DUP2 MLOAD SWAP2 ADD DUP3 DUP6 GAS CALL ISZERO PUSH2 0x111C JUMPI PUSH1 0x0 MLOAD RETURNDATASIZE PUSH2 0x1113 JUMPI POP PUSH1 0x1 PUSH1 0x1 PUSH1 0xA0 SHL SUB DUP2 AND EXTCODESIZE ISZERO JUMPDEST PUSH2 0x10F1 JUMPI POP JUMP JUMPDEST PUSH1 0x40 MLOAD PUSH4 0x5274AFE7 PUSH1 0xE0 SHL DUP2 MSTORE PUSH1 0x1 PUSH1 0x1 PUSH1 0xA0 SHL SUB SWAP1 SWAP2 AND PUSH1 0x4 DUP3 ADD MSTORE PUSH1 0x24 SWAP1 REVERT JUMPDEST PUSH1 0x1 EQ ISZERO PUSH2 0x10EA JUMP JUMPDEST PUSH1 0x40 MLOAD RETURNDATASIZE PUSH1 0x0 DUP3 RETURNDATACOPY RETURNDATASIZE SWAP1 REVERT JUMPDEST SWAP2 SWAP1 DUP3 ADD DUP1 SWAP3 GT PUSH2 0x1135 JUMPI JUMP JUMPDEST PUSH4 0x4E487B71 PUSH1 0xE0 SHL PUSH1 0x0 MSTORE PUSH1 0x11 PUSH1 0x4 MSTORE PUSH1 0x24 PUSH1 0x0 REVERT JUMPDEST SWAP2 SWAP1 SWAP2 PUSH2 0x1156 PUSH2 0x2001 JUMP JUMPDEST PUSH1 0xFF PUSH1 0x2 SLOAD PUSH1 0xA0 SHR AND PUSH1 0x6 DUP2 LT ISZERO PUSH2 0xE8B JUMPI PUSH1 0x1 SUB PUSH2 0x12AB JUMPI PUSH1 0xFF PUSH1 0x6 SLOAD PUSH1 0x8 SHR AND PUSH2 0x1299 JUMPI PUSH32 0x0 DUP4 LT PUSH2 0x1287 JUMPI PUSH1 0x1 DUP1 PUSH1 0xA0 SHL SUB AND PUSH1 0x0 SWAP3 DUP2 DUP5 MSTORE PUSH1 0x7 PUSH1 0x20 MSTORE PUSH1 0x40 SWAP1 PUSH2 0x11C6 DUP2 DUP4 DUP8 KECCAK256 SLOAD PUSH2 0x1128 JUMP JUMPDEST PUSH32 0x0 DUP2 GT PUSH2 0x1276 JUMPI DUP4 DUP7 MSTORE PUSH1 0x7 PUSH1 0x20 MSTORE DUP3 DUP7 KECCAK256 SLOAD ISZERO PUSH2 0x124B JUMPI JUMPDEST DUP3 DUP7 DUP6 PUSH32 0xFA35A310D7113DDDCE1C275DA946348E9AAEBF9050B00B372033C4D84B0BD6EB SWAP7 SWAP8 SWAP9 MSTORE PUSH1 0x7 PUSH1 0x20 MSTORE KECCAK256 SSTORE PUSH2 0x123A DUP2 PUSH1 0x3 SLOAD PUSH2 0x1128 JUMP JUMPDEST DUP1 PUSH1 0x3 SSTORE DUP3 MLOAD SWAP2 DUP3 MSTORE PUSH1 0x20 DUP3 ADD MSTORE LOG2 JUMP JUMPDEST PUSH1 0x4 SLOAD PUSH1 0x0 NOT DUP2 EQ PUSH2 0x1262 JUMPI PUSH1 0x1 ADD PUSH1 0x4 SSTORE PUSH2 0x11FF JUMP JUMPDEST PUSH4 0x4E487B71 PUSH1 0xE0 SHL DUP8 MSTORE PUSH1 0x11 PUSH1 0x4 MSTORE PUSH1 0x24 DUP8 REVERT JUMPDEST DUP3 MLOAD PUSH4 0x5E508CD3 PUSH1 0xE1 SHL DUP2 MSTORE PUSH1 0x4 SWAP1 REVERT JUMPDEST PUSH1 0x40 MLOAD PUSH4 0x6C7591B5 PUSH1 0xE1 SHL DUP2 MSTORE PUSH1 0x4 SWAP1 REVERT JUMPDEST PUSH1 0x40 MLOAD PUSH4 0xAB35696F PUSH1 0xE0 SHL DUP2 MSTORE PUSH1 0x4 SWAP1 REVERT JUMPDEST PUSH1 0x40 MLOAD PUSH4 0x7A92F19 PUSH1 0xE5 SHL DUP2 MSTORE PUSH1 0x4 SWAP1 REVERT JUMPDEST DUP2 DUP2 MUL SWAP3 SWAP2 DUP2 ISZERO SWAP2 DUP5 DIV EQ OR ISZERO PUSH2 0x1135 JUMPI JUMP JUMPDEST DUP2 ISZERO PUSH2 0x12DA JUMPI DIV SWAP1 JUMP JUMPDEST PUSH4 0x4E487B71 PUSH1 0xE0 SHL PUSH1 0x0 MSTORE PUSH1 0x12 PUSH1 0x4 MSTORE PUSH1 0x24 PUSH1 0x0 REVERT JUMPDEST SWAP2 SWAP1 DUP3 SUB SWAP2 DUP3 GT PUSH2 0x1135 JUMPI JUMP JUMPDEST RETURNDATASIZE ISZERO PUSH2 0x1338 JUMPI RETURNDATASIZE SWAP1 PUSH8 0xFFFFFFFFFFFFFFFF DUP3 GT PUSH2 0x10AA JUMPI PUSH1 0x40 MLOAD SWAP2 PUSH2 0x132C PUSH1 0x1F DUP3 ADD PUSH1 0x1F NOT AND PUSH1 0x20 ADD DUP5 PUSH2 0x1088 JUMP JUMPDEST DUP3 MSTORE RETURNDATASIZE PUSH1 0x0 PUSH1 0x20 DUP5 ADD RETURNDATACOPY JUMP JUMPDEST PUSH1 0x60 SWAP1 JUMP JUMPDEST PUSH2 0x1345 PUSH2 0x2001 JUMP JUMPDEST PUSH1 0x2 SLOAD PUSH1 0x0 PUSH1 0xFF DUP3 PUSH1 0xA0 SHR AND PUSH1 0x6 DUP2 LT ISZERO PUSH2 0x1F58 JUMPI PUSH1 0x2 SUB PUSH2 0x12AB JUMPI PUSH1 0x6 SLOAD PUSH1 0xFF DUP2 AND PUSH2 0x12AB JUMPI PUSH1 0xFF NOT AND PUSH1 0x1 OR PUSH1 0x6 SSTORE PUSH1 0x3 SLOAD SWAP2 PUSH32 0x0 DUP4 LT PUSH2 0x1F21 JUMPI POP PUSH8 0xDE0B6B3A7640000 SWAP1 DUP2 DUP4 MUL DUP4 ISZERO SWAP3 DUP5 DUP3 DIV EQ DUP4 OR ISZERO PUSH2 0x1F0D JUMPI PUSH2 0x13E8 SWAP1 PUSH32 0x0 SWAP1 PUSH2 0x12D0 JUMP JUMPDEST PUSH1 0x5 SSTORE PUSH2 0x1F4 SWAP2 DUP3 DUP5 MUL SWAP3 DUP5 DUP5 DIV EQ OR ISZERO PUSH2 0x1EF9 JUMPI PUSH2 0x140D PUSH2 0x2710 DUP1 SWAP4 DIV DUP1 SWAP5 PUSH2 0x12F0 JUMP JUMPDEST SWAP3 PUSH32 0x0 PUSH1 0x1 PUSH1 0x1 PUSH1 0xA0 SHL SUB AND PUSH2 0x1EA0 JUMPI PUSH32 0x0 PUSH1 0x1 PUSH1 0x1 PUSH1 0xA0 SHL SUB AND DUP1 EXTCODESIZE ISZERO PUSH2 0x2DF JUMPI DUP3 SWAP1 PUSH1 0x24 PUSH1 0x40 MLOAD DUP1 SWAP5 DUP2 SWAP4 PUSH4 0x39650D1F PUSH1 0xE0 SHL DUP4 MSTORE ADDRESS PUSH1 0x4 DUP5 ADD MSTORE GAS CALL DUP1 ISZERO PUSH2 0x1B02 JUMPI PUSH2 0x1E74 JUMPI JUMPDEST POP JUMPDEST PUSH32 0x0 SWAP2 PUSH2 0x14EF DUP2 PUSH2 0x14C7 DUP6 DUP8 PUSH2 0x12BD JUMP JUMPDEST DIV SWAP4 PUSH32 0x0 PUSH2 0x12BD JUMP JUMPDEST PUSH1 0x40 MLOAD PUSH4 0x95EA7B3 PUSH1 0xE0 SHL DUP2 MSTORE PUSH32 0x0 PUSH1 0x1 PUSH1 0x1 PUSH1 0xA0 SHL SUB AND PUSH1 0x4 DUP3 ADD MSTORE SWAP2 SWAP1 DIV PUSH1 0x24 DUP3 ADD DUP2 SWAP1 MSTORE SWAP1 PUSH1 0x20 DUP2 DUP1 PUSH1 0x44 DUP2 ADD SUB DUP2 DUP7 PUSH32 0x0 PUSH1 0x1 PUSH1 0x1 PUSH1 0xA0 SHL SUB AND GAS CALL DUP1 ISZERO PUSH2 0x1B2C JUMPI PUSH2 0x1E55 JUMPI JUMPDEST POP PUSH32 0x0 PUSH1 0x1 PUSH1 0x1 PUSH1 0xA0 SHL SUB AND PUSH2 0x1B98 JUMPI PUSH2 0x12C TIMESTAMP ADD DUP1 TIMESTAMP GT PUSH2 0x1B84 JUMPI PUSH1 0x40 MLOAD SWAP2 PUSH4 0xF305D719 PUSH1 0xE0 SHL DUP4 MSTORE PUSH1 0x1 DUP1 PUSH1 0xA0 SHL SUB PUSH32 0x0 AND PUSH1 0x4 DUP5 ADD MSTORE PUSH1 0x24 DUP4 ADD MSTORE DUP3 PUSH1 0x44 DUP4 ADD MSTORE DUP3 PUSH1 0x64 DUP4 ADD MSTORE ADDRESS PUSH1 0x84 DUP4 ADD MSTORE PUSH1 0xA4 DUP3 ADD MSTORE PUSH1 0x60 DUP2 PUSH1 0xC4 DUP2 DUP7 PUSH1 0x1 DUP1 PUSH1 0xA0 SHL SUB PUSH32 0x0 AND GAS CALL DUP1 ISZERO PUSH2 0x1B02 JUMPI PUSH2 0x1B56 JUMPI JUMPDEST POP PUSH1 0x40 MLOAD PUSH4 0xC45A0155 PUSH1 0xE0 SHL DUP2 MSTORE PUSH1 0x20 DUP2 PUSH1 0x4 DUP2 PUSH32 0x0 PUSH1 0x1 PUSH1 0x1 PUSH1 0xA0 SHL SUB AND GAS STATICCALL SWAP1 DUP2 ISZERO PUSH2 0x1B02 JUMPI DUP3 SWAP2 PUSH2 0x1B37 JUMPI JUMPDEST POP PUSH1 0x40 MLOAD PUSH4 0x15AB88C9 PUSH1 0xE3 SHL DUP2 MSTORE SWAP1 PUSH1 0x20 DUP3 PUSH1 0x4 DUP2 PUSH32 0x0 PUSH1 0x1 PUSH1 0x1 PUSH1 0xA0 SHL SUB AND GAS STATICCALL SWAP2 DUP3 ISZERO PUSH2 0x1B2C JUMPI SWAP2 PUSH1 0x20 SWAP2 PUSH2 0x1743 SWAP4 DUP6 SWAP3 PUSH2 0x1B0D JUMPI JUMPDEST POP PUSH1 0x40 MLOAD PUSH4 0xE6A43905 PUSH1 0xE0 SHL DUP2 MSTORE PUSH1 0x1 PUSH1 0x1 PUSH1 0xA0 SHL SUB PUSH32 0x0 DUP2 AND PUSH1 0x4 DUP4 ADD MSTORE SWAP1 SWAP3 AND PUSH1 0x24 DUP4 ADD MSTORE SWAP1 SWAP3 DUP4 SWAP2 SWAP1 DUP3 SWAP1 DUP2 SWAP1 PUSH1 0x44 DUP3 ADD SWAP1 JUMP JUMPDEST SUB SWAP2 PUSH1 0x1 PUSH1 0x1 PUSH1 0xA0 SHL SUB AND GAS STATICCALL SWAP1 DUP2 ISZERO PUSH2 0x1B02 JUMPI DUP3 SWAP2 PUSH2 0x1AD3 JUMPI JUMPDEST POP JUMPDEST PUSH1 0x1 DUP1 PUSH1 0xA0 SHL SUB AND SWAP3 PUSH1 0x40 MLOAD SWAP3 PUSH4 0x70A08231 PUSH1 0xE0 SHL SWAP1 DUP2 DUP6 MSTORE ADDRESS PUSH1 0x4 DUP7 ADD MSTORE PUSH1 0x20 DUP6 PUSH1 0x24 DUP2 DUP10 GAS STATICCALL SWAP5 DUP6 ISZERO PUSH2 0x1AC8 JUMPI DUP5 SWAP6 PUSH2 0x1A94 JUMPI JUMPDEST POP PUSH3 0x278D00 PUSH32 0x0 DUP2 DUP2 MUL SWAP2 DUP2 ISZERO SWAP2 DUP4 DIV EQ OR ISZERO PUSH2 0x1A80 JUMPI PUSH2 0x17D6 SWAP1 TIMESTAMP PUSH2 0x1128 JUMP JUMPDEST SWAP3 DUP7 PUSH32 0xAC1D76749E5447B7B16F5AB61447E1BD502F3BB4807AF3B28E620D1700A6EE45 PUSH1 0x40 PUSH32 0x0 SWAP7 PUSH2 0x1828 DUP11 DUP10 DUP7 PUSH2 0x1F6C JUMP JUMPDEST DUP2 MLOAD SWAP1 DUP11 DUP3 MSTORE PUSH1 0x20 DUP3 ADD MSTORE LOG2 PUSH32 0x0 PUSH1 0x1 PUSH1 0x1 PUSH1 0xA0 SHL SUB DUP2 AND PUSH2 0x197E JUMPI JUMPDEST POP PUSH2 0x186F SWAP3 POP PUSH2 0x12F0 JUMP JUMPDEST SWAP1 PUSH32 0x0 PUSH1 0x1 PUSH1 0x1 PUSH1 0xA0 SHL SUB AND PUSH2 0x191D JUMPI DUP3 DUP1 SWAP3 DUP2 SWAP3 GAS CALL PUSH2 0x18AD PUSH2 0x12FD JUMP JUMPDEST POP ISZERO PUSH2 0x190B JUMPI PUSH32 0x6E4389167D2AFBD1CCB4797EA87E29958ADBF74CD16BA077A2EE5AB8460784E5 SWAP2 PUSH1 0x80 SWAP2 JUMPDEST PUSH1 0x3 PUSH1 0xA0 SHL PUSH1 0xFF PUSH1 0xA0 SHL NOT PUSH1 0x2 SLOAD AND OR PUSH1 0x2 SSTORE PUSH1 0x5 SLOAD SWAP2 PUSH1 0x3 SLOAD PUSH1 0x40 MLOAD SWAP4 DUP5 MSTORE PUSH1 0x20 DUP5 ADD MSTORE PUSH1 0x40 DUP4 ADD MSTORE PUSH1 0x60 DUP3 ADD MSTORE LOG1 JUMP JUMPDEST PUSH1 0x40 MLOAD PUSH4 0x12171D83 PUSH1 0xE3 SHL DUP2 MSTORE PUSH1 0x4 SWAP1 REVERT JUMPDEST PUSH32 0x6E4389167D2AFBD1CCB4797EA87E29958ADBF74CD16BA077A2EE5AB8460784E5 SWAP5 PUSH1 0x80 SWAP5 SWAP1 SWAP4 POP SWAP2 PUSH2 0x1979 SWAP2 PUSH32 0x0 PUSH1 0x1 PUSH1 0x1 PUSH1 0xA0 SHL SUB AND PUSH2 0x1F6C JUMP JUMPDEST PUSH2 0x18D9 JUMP JUMPDEST PUSH1 0x40 MLOAD SWAP4 DUP5 MSTORE ADDRESS PUSH1 0x4 DUP6 ADD MSTORE PUSH1 0x20 DUP5 PUSH1 0x24 DUP2 PUSH32 0x0 PUSH1 0x1 PUSH1 0x1 PUSH1 0xA0 SHL SUB AND GAS STATICCALL SWAP4 DUP5 ISZERO PUSH2 0x1A75 JUMPI DUP7 SWAP5 PUSH2 0x1A3F JUMPI JUMPDEST POP PUSH2 0x19F9 PUSH2 0x186F SWAP5 PUSH32 0x0 SWAP1 PUSH2 0x12F0 JUMP JUMPDEST DUP1 PUSH2 0x1A05 JUMPI JUMPDEST POP PUSH2 0x1864 JUMP JUMPDEST PUSH2 0x1A38 SWAP2 PUSH32 0x0 PUSH1 0x1 PUSH1 0x1 PUSH1 0xA0 SHL SUB AND PUSH2 0x1F6C JUMP JUMPDEST CODESIZE DUP1 PUSH2 0x19FF JUMP JUMPDEST SWAP4 POP PUSH1 0x20 DUP5 RETURNDATASIZE PUSH1 0x20 GT PUSH2 0x1A6D JUMPI JUMPDEST DUP2 PUSH2 0x1A5A PUSH1 0x20 SWAP4 DUP4 PUSH2 0x1088 JUMP JUMPDEST DUP2 ADD SUB SLT PUSH2 0xEB7 JUMPI SWAP3 MLOAD SWAP3 PUSH2 0x19F9 PUSH2 0x19CA JUMP JUMPDEST RETURNDATASIZE SWAP2 POP PUSH2 0x1A4D JUMP JUMPDEST PUSH1 0x40 MLOAD RETURNDATASIZE DUP9 DUP3 RETURNDATACOPY RETURNDATASIZE SWAP1 REVERT JUMPDEST PUSH4 0x4E487B71 PUSH1 0xE0 SHL DUP6 MSTORE PUSH1 0x11 PUSH1 0x4 MSTORE PUSH1 0x24 DUP6 REVERT JUMPDEST SWAP1 SWAP5 POP PUSH1 0x20 DUP2 RETURNDATASIZE PUSH1 0x20 GT PUSH2 0x1AC0 JUMPI JUMPDEST DUP2 PUSH2 0x1AB0 PUSH1 0x20 SWAP4 DUP4 PUSH2 0x1088 JUMP JUMPDEST DUP2 ADD SUB SLT PUSH2 0xEB7 JUMPI MLOAD SWAP4 CODESIZE PUSH2 0x1796 JUMP JUMPDEST RETURNDATASIZE SWAP2 POP PUSH2 0x1AA3 JUMP JUMPDEST PUSH1 0x40 MLOAD RETURNDATASIZE DUP7 DUP3 RETURNDATACOPY RETURNDATASIZE SWAP1 REVERT JUMPDEST PUSH2 0x1AF5 SWAP2 POP PUSH1 0x20 RETURNDATASIZE PUSH1 0x20 GT PUSH2 0x1AFB JUMPI JUMPDEST PUSH2 0x1AED DUP2 DUP4 PUSH2 0x1088 JUMP JUMPDEST DUP2 ADD SWAP1 PUSH2 0x1FE2 JUMP JUMPDEST CODESIZE PUSH2 0x175E JUMP JUMPDEST POP RETURNDATASIZE PUSH2 0x1AE3 JUMP JUMPDEST PUSH1 0x40 MLOAD RETURNDATASIZE DUP5 DUP3 RETURNDATACOPY RETURNDATASIZE SWAP1 REVERT JUMPDEST PUSH2 0x1B25 SWAP2 SWAP3 POP DUP4 RETURNDATASIZE DUP6 GT PUSH2 0x1AFB JUMPI PUSH2 0x1AED DUP2 DUP4 PUSH2 0x1088 JUMP JUMPDEST SWAP1 CODESIZE PUSH2 0x16ED JUMP JUMPDEST PUSH1 0x40 MLOAD RETURNDATASIZE DUP6 DUP3 RETURNDATACOPY RETURNDATASIZE SWAP1 REVERT JUMPDEST PUSH2 0x1B50 SWAP2 POP PUSH1 0x20 RETURNDATASIZE PUSH1 0x20 GT PUSH2 0x1AFB JUMPI PUSH2 0x1AED DUP2 DUP4 PUSH2 0x1088 JUMP JUMPDEST CODESIZE PUSH2 0x1696 JUMP JUMPDEST PUSH2 0x1B76 SWAP1 PUSH1 0x60 RETURNDATASIZE DUP2 GT PUSH2 0x1B7D JUMPI JUMPDEST PUSH2 0x1B6E DUP2 DUP4 PUSH2 0x1088 JUMP JUMPDEST DUP2 ADD SWAP1 PUSH2 0x1FC7 JUMP JUMPDEST POP POP PUSH2 0x1648 JUMP JUMPDEST POP RETURNDATASIZE PUSH2 0x1B64 JUMP JUMPDEST PUSH4 0x4E487B71 PUSH1 0xE0 SHL DUP4 MSTORE PUSH1 0x11 PUSH1 0x4 MSTORE PUSH1 0x24 DUP4 REVERT JUMPDEST PUSH1 0x40 MLOAD PUSH4 0x95EA7B3 PUSH1 0xE0 SHL DUP2 MSTORE PUSH32 0x0 PUSH1 0x1 PUSH1 0x1 PUSH1 0xA0 SHL SUB AND PUSH1 0x4 DUP3 ADD MSTORE PUSH1 0x24 DUP2 ADD DUP5 SWAP1 MSTORE PUSH1 0x20 DUP2 DUP1 PUSH1 0x44 DUP2 ADD SUB DUP2 DUP7 PUSH32 0x0 PUSH1 0x1 PUSH1 0x1 PUSH1 0xA0 SHL SUB AND GAS CALL DUP1 ISZERO PUSH2 0x1B2C JUMPI PUSH2 0x1E26 JUMPI JUMPDEST POP PUSH2 0x12C TIMESTAMP ADD DUP1 TIMESTAMP GT PUSH2 0x1B84 JUMPI PUSH1 0x40 MLOAD SWAP2 PUSH3 0xE8E337 PUSH1 0xE8 SHL DUP4 MSTORE PUSH1 0x1 DUP1 PUSH1 0xA0 SHL SUB PUSH32 0x0 AND PUSH1 0x4 DUP5 ADD MSTORE PUSH1 0x1 DUP1 PUSH1 0xA0 SHL SUB PUSH32 0x0 AND PUSH1 0x24 DUP5 ADD MSTORE PUSH1 0x44 DUP4 ADD MSTORE DUP4 PUSH1 0x64 DUP4 ADD MSTORE DUP3 PUSH1 0x84 DUP4 ADD MSTORE DUP3 PUSH1 0xA4 DUP4 ADD MSTORE ADDRESS PUSH1 0xC4 DUP4 ADD MSTORE PUSH1 0xE4 DUP3 ADD MSTORE PUSH1 0x60 DUP2 PUSH2 0x104 DUP2 DUP6 PUSH1 0x1 DUP1 PUSH1 0xA0 SHL SUB PUSH32 0x0 AND GAS CALL DUP1 ISZERO PUSH2 0x1B02 JUMPI PUSH2 0x1E08 JUMPI JUMPDEST POP PUSH1 0x40 MLOAD PUSH4 0xC45A0155 PUSH1 0xE0 SHL DUP2 MSTORE PUSH1 0x20 DUP2 PUSH1 0x4 DUP2 PUSH32 0x0 PUSH1 0x1 PUSH1 0x1 PUSH1 0xA0 SHL SUB AND GAS STATICCALL SWAP1 DUP2 ISZERO PUSH2 0x1B02 JUMPI DUP3 SWAP2 PUSH2 0x1DE9 JUMPI JUMPDEST POP PUSH1 0x40 MLOAD PUSH4 0xE6A43905 PUSH1 0xE0 SHL DUP2 MSTORE PUSH1 0x1 PUSH1 0x1 PUSH1 0xA0 SHL SUB PUSH32 0x0 DUP2 AND PUSH1 0x4 DUP4 ADD MSTORE PUSH32 0x0 DUP2 AND PUSH1 0x24 DUP4 ADD MSTORE SWAP1 SWAP2 PUSH1 0x20 SWAP2 DUP4 SWAP2 PUSH1 0x44 SWAP2 DUP4 SWAP2 AND GAS STATICCALL SWAP1 DUP2 ISZERO PUSH2 0x1B02 JUMPI DUP3 SWAP2 PUSH2 0x1DCA JUMPI JUMPDEST POP PUSH2 0x1760 JUMP JUMPDEST PUSH2 0x1DE3 SWAP2 POP PUSH1 0x20 RETURNDATASIZE PUSH1 0x20 GT PUSH2 0x1AFB JUMPI PUSH2 0x1AED DUP2 DUP4 PUSH2 0x1088 JUMP JUMPDEST CODESIZE PUSH2 0x1DC4 JUMP JUMPDEST PUSH2 0x1E02 SWAP2 POP PUSH1 0x20 RETURNDATASIZE PUSH1 0x20 GT PUSH2 0x1AFB JUMPI PUSH2 0x1AED DUP2 DUP4 PUSH2 0x1088 JUMP JUMPDEST CODESIZE PUSH2 0x1D41 JUMP JUMPDEST PUSH2 0x1E1F SWAP1 PUSH1 0x60 RETURNDATASIZE DUP2 GT PUSH2 0x1B7D JUMPI PUSH2 0x1B6E DUP2 DUP4 PUSH2 0x1088 JUMP JUMPDEST POP POP PUSH2 0x1CF3 JUMP JUMPDEST PUSH2 0x1E47 SWAP1 PUSH1 0x20 RETURNDATASIZE PUSH1 0x20 GT PUSH2 0x1E4E JUMPI JUMPDEST PUSH2 0x1E3F DUP2 DUP4 PUSH2 0x1088 JUMP JUMPDEST DUP2 ADD SWAP1 PUSH2 0x1FAF JUMP JUMPDEST POP CODESIZE PUSH2 0x1C1D JUMP JUMPDEST POP RETURNDATASIZE PUSH2 0x1E35 JUMP JUMPDEST PUSH2 0x1E6D SWAP1 PUSH1 0x20 RETURNDATASIZE PUSH1 0x20 GT PUSH2 0x1E4E JUMPI PUSH2 0x1E3F DUP2 DUP4 PUSH2 0x1088 JUMP JUMPDEST POP CODESIZE PUSH2 0x1578 JUMP JUMPDEST PUSH8 0xFFFFFFFFFFFFFFFF DUP2 GT PUSH2 0x1E8C JUMPI PUSH1 0x40 MSTORE CODESIZE PUSH2 0x1495 JUMP JUMPDEST PUSH4 0x4E487B71 PUSH1 0xE0 SHL DUP3 MSTORE PUSH1 0x41 PUSH1 0x4 MSTORE PUSH1 0x24 DUP3 REVERT JUMPDEST PUSH2 0x1EF4 SWAP1 PUSH32 0x0 PUSH32 0x0 PUSH1 0x1 PUSH1 0x1 PUSH1 0xA0 SHL SUB AND PUSH2 0x1F6C JUMP JUMPDEST PUSH2 0x1497 JUMP JUMPDEST PUSH4 0x4E487B71 PUSH1 0xE0 SHL DUP2 MSTORE PUSH1 0x11 PUSH1 0x4 MSTORE PUSH1 0x24 SWAP1 REVERT JUMPDEST PUSH4 0x4E487B71 PUSH1 0xE0 SHL DUP3 MSTORE PUSH1 0x11 PUSH1 0x4 MSTORE PUSH1 0x24 DUP3 REVERT JUMPDEST PUSH1 0xFF PUSH1 0xA0 SHL NOT AND PUSH1 0x1 PUSH1 0xA2 SHL OR PUSH1 0x2 SSTORE PUSH32 0xE48846A3DCA191C762AB6AAA1E929CCAF55E31A875FB78AD1B93E15EF4830ACA SWAP2 POP DUP1 LOG1 JUMP JUMPDEST PUSH4 0x4E487B71 PUSH1 0xE0 SHL DUP3 MSTORE PUSH1 0x21 PUSH1 0x4 MSTORE PUSH1 0x24 DUP3 REVERT JUMPDEST PUSH1 0x40 MLOAD PUSH4 0xA9059CBB PUSH1 0xE0 SHL PUSH1 0x20 DUP3 ADD MSTORE PUSH1 0x1 PUSH1 0x1 PUSH1 0xA0 SHL SUB SWAP3 SWAP1 SWAP3 AND PUSH1 0x24 DUP4 ADD MSTORE PUSH1 0x44 DUP1 DUP4 ADD SWAP4 SWAP1 SWAP4 MSTORE SWAP2 DUP2 MSTORE PUSH2 0x1FAD SWAP2 PUSH2 0x1FA8 PUSH1 0x64 DUP4 PUSH2 0x1088 JUMP JUMPDEST PUSH2 0x10C0 JUMP JUMPDEST JUMP JUMPDEST SWAP1 DUP2 PUSH1 0x20 SWAP2 SUB SLT PUSH2 0xEB7 JUMPI MLOAD DUP1 ISZERO ISZERO DUP2 SUB PUSH2 0xEB7 JUMPI SWAP1 JUMP JUMPDEST SWAP1 DUP2 PUSH1 0x60 SWAP2 SUB SLT PUSH2 0xEB7 JUMPI DUP1 MLOAD SWAP2 PUSH1 0x40 PUSH1 0x20 DUP4 ADD MLOAD SWAP3 ADD MLOAD SWAP1 JUMP JUMPDEST SWAP1 DUP2 PUSH1 0x20 SWAP2 SUB SLT PUSH2 0xEB7 JUMPI MLOAD PUSH1 0x1 PUSH1 0x1 PUSH1 0xA0 SHL SUB DUP2 AND DUP2 SUB PUSH2 0xEB7 JUMPI SWAP1 JUMP JUMPDEST PUSH1 0x2 SLOAD PUSH1 0xFF DUP2 PUSH1 0xA0 SHR AND PUSH1 0x6 DUP2 LT ISZERO PUSH2 0xE8B JUMPI DUP1 ISZERO DUP1 PUSH2 0x2084 JUMPI JUMPDEST ISZERO PUSH2 0x2038 JUMPI POP POP PUSH1 0x2 DUP1 SLOAD PUSH1 0xFF PUSH1 0xA0 SHL NOT AND PUSH1 0x1 PUSH1 0xA0 SHL OR SWAP1 SSTORE JUMP JUMPDEST PUSH1 0x1 EQ DUP1 PUSH2 0x205A JUMPI JUMPDEST PUSH2 0x2048 JUMPI POP JUMP JUMPDEST PUSH1 0xFF PUSH1 0xA0 SHL NOT AND PUSH1 0x1 PUSH1 0xA1 SHL OR PUSH1 0x2 SSTORE JUMP JUMPDEST POP PUSH32 0x0 TIMESTAMP LT ISZERO PUSH2 0x2041 JUMP JUMPDEST POP PUSH32 0x0 TIMESTAMP LT ISZERO PUSH2 0x201C JUMP JUMPDEST PUSH1 0xFF PUSH1 0x2 SLOAD PUSH1 0xA0 SHR AND PUSH1 0x6 DUP2 LT ISZERO PUSH2 0xE8B JUMPI DUP1 ISZERO DUP1 PUSH2 0x2114 JUMPI JUMPDEST ISZERO PUSH2 0x20D3 JUMPI POP PUSH1 0x1 SWAP1 JUMP JUMPDEST PUSH1 0x1 DUP2 EQ DUP1 PUSH2 0x20EA JUMPI JUMPDEST PUSH2 0x20E4 JUMPI SWAP1 JUMP JUMPDEST POP PUSH1 0x2 SWAP1 JUMP JUMPDEST POP PUSH32 0x0 TIMESTAMP LT ISZERO PUSH2 0x20DD JUMP JUMPDEST POP PUSH32 0x0 TIMESTAMP LT ISZERO PUSH2 0x20C8 JUMP JUMPDEST PUSH1 0xFF PUSH1 0x2 SLOAD PUSH1 0xA0 SHR AND PUSH1 0x6 DUP2 LT ISZERO PUSH2 0xE8B JUMPI PUSH1 0x3 SUB PUSH2 0x21B3 JUMPI PUSH1 0x3 SLOAD DUP1 ISZERO PUSH2 0x21AC JUMPI PUSH2 0x21A9 SWAP2 PUSH1 0x1 DUP1 PUSH1 0xA0 SHL SUB AND PUSH1 0x0 MSTORE PUSH1 0x7 PUSH1 0x20 MSTORE PUSH2 0x21A4 PUSH1 0x40 PUSH1 0x0 KECCAK256 SLOAD PUSH32 0x0 SWAP1 PUSH2 0x12BD JUMP JUMPDEST PUSH2 0x12D0 JUMP JUMPDEST SWAP1 JUMP JUMPDEST POP POP PUSH1 0x0 SWAP1 JUMP JUMPDEST POP PUSH1 0x0 SWAP1 JUMP INVALID LOG2 PUSH5 0x6970667358 0x22 SLT KECCAK256 LOG4 0xB8 0xC0 0xC9 BALANCE INVALID 0x4A SWAP3 COINBASE PUSH4 0x3E43750D 0x27 0xF9 0x1E CALLDATASIZE DUP10 SWAP6 SHR 0xEA LOG2 0xBC SWAP13 0xC9 0xCB 0x2A SELFBALANCE 0xA7 CALLVALUE REVERT PUSH5 0x736F6C6343 STOP ADDMOD EQ STOP CALLER 0x2F DUP8 DUP9 GT PUSH31 0x7EFF1D82E926EC794901D17C78024A50270940304540A733656F0D00000000 "},"deployedBytecode":{"immutableReferences":{"3756":[{"length":32,"start":2513},{"length":32,"start":2748},{"length":32,"start":5443},{"length":32,"start":5578},{"length":32,"start":5893},{"length":32,"start":6546},{"length":32,"start":6667},{"length":32,"start":7232},{"length":32,"start":7513}],"3758":[{"length":32,"start":763},{"length":32,"start":1641},{"length":32,"start":2220},{"length":32,"start":3158},{"length":32,"start":5136},{"length":32,"start":5499},{"length":32,"start":6258},{"length":32,"start":6476},{"length":32,"start":7144},{"length":32,"start":7278},{"length":32,"start":7553},{"length":32,"start":7879}],"3760":[{"length":32,"start":554},{"length":32,"start":4988}],"3762":[{"length":32,"start":2668},{"length":32,"start":3414},{"length":32,"start":5059},{"length":32,"start":5323},{"length":32,"start":6612},{"length":32,"start":8575}],"3764":[{"length":32,"start":1142},{"length":32,"start":4478}],"3766":[{"length":32,"start":1433},{"length":32,"start":4552}],"3768":[{"length":32,"start":1829},{"length":32,"start":8327},{"length":32,"start":8471}],"3770":[{"length":32,"start":3102},{"length":32,"start":8285},{"length":32,"start":8429}],"3772":[{"length":32,"start":3476}],"3774":[{"length":32,"start":2074},{"length":32,"start":5182},{"length":32,"start":7846}],"3776":[{"length":32,"start":2006},{"length":32,"start":6198}],"3778":[{"length":32,"start":1198},{"length":32,"start":6141}],"3781":[{"length":32,"start":3533},{"length":32,"start":5374},{"length":32,"start":5659},{"length":32,"start":5726},{"length":32,"start":5805},{"length":32,"start":7079},{"length":32,"start":7366},{"length":32,"start":7433}],"3786":[{"length":32,"start":1083},{"length":32,"start":5273}],"3788":[{"length":32,"start":1492},{"length":32,"start":6045}],"3790":[{"length":32,"start":3313}]},"linkReferences":{},"object":"608060408181526004918236101561001657600080fd5b600092833560e01c91826301ffc9a714610e255750816303fc201314610dfc5781630758d92414610db85781630b7c1ae114610d7957816312aef8c314610d3e5781631cc64544146104f8578163200d2ed214610d14578163220c095614610cd9578163248a9ca314610caf5781632f2ff15d14610c855781633013ce2914610c415781633197cbb614610c06578163362f04c014610be857816336568abe14610ba25781633f4ba83a14610b5757816342e94c901461039757816348c54b9d14610a005781634b60ce77146109bc5781634bb278f31461099b5781634e69d5601461096e578163590e1ae3146108495781636052970c14610805578163619f3d6c146107c157816373b2e80e1461078357816375b238fc1461074857816378e979251461070d5781638160059a146106495781638456cb59146105f75781638bcd8515146105bc5781638d3d6576146105815781638d4e40831461055d57816391d14854146105175781639ce05df7146104f8578163a217fddf146104dd578163a4475ce414610499578163aaffadf31461045e578163b068375514610423578163b187bd26146103fc578163b920ade2146103cf578163bb8b2b4714610397578163c5c4744c14610378578163d547741f14610339578163d7bb99ba146102e3578163ea8a1af014610251575063f89be5931461021457600080fd5b3461024d578160031936011261024d57602090517f00000000000000000000000000000000000000000000000000000000000000008152f35b5080fd5b9050346102df57826003193601126102df5761026b610ed2565b6002549160ff8360a01c1660068110156102cc576003146102bf57505060ff60a01b1916600560a01b176002557f63b958841f79ab97cb5456da181454b9932c0e15a3b17f1cbd27e2a8bc6104378180a180f35b516307a92f1960e51b8152fd5b634e487b7160e01b855260218352602485fd5b8280fd5b919050826003193601126102df576102f9611065565b7f00000000000000000000000000000000000000000000000000000000000000006001600160a01b03166102bf5782610332343361114b565b6001805580f35b919050346102df57806003193601126102df57610374913561036f600161035e610ea1565b938387528660205286200154610f4c565b610ff0565b5080f35b50503461024d578160031936011261024d576020906003549051908152f35b50503461024d57602036600319011261024d5760209181906001600160a01b036103bf610ebc565b1681526007845220549051908152f35b50503461024d57602036600319011261024d576020906103f56103f0610ebc565b61213e565b9051908152f35b50503461024d578160031936011261024d5760209060ff60065460081c1690519015158152f35b50503461024d578160031936011261024d57602090517f00000000000000000000000000000000000000000000000000000000000000008152f35b50503461024d578160031936011261024d57602090517f00000000000000000000000000000000000000000000000000000000000000008152f35b50503461024d578160031936011261024d57517f00000000000000000000000000000000000000000000000000000000000000006001600160a01b03168152602090f35b50503461024d578160031936011261024d5751908152602090f35b50503461024d578160031936011261024d576020906005549051908152f35b9050346102df57816003193601126102df578160209360ff92610538610ea1565b903582528186528282206001600160a01b039091168252855220549151911615158152f35b50503461024d578160031936011261024d5760209060ff6006541690519015158152f35b50503461024d578160031936011261024d57602090517f00000000000000000000000000000000000000000000000000000000000000008152f35b50503461024d578160031936011261024d57602090517f00000000000000000000000000000000000000000000000000000000000000008152f35b8334610646578060031936011261064657610610610ed2565b61010061ff001960065416176006557f9e87fac88ff661f02d44f95383c817fece4bce600a3dab7a54406878b965e7528180a180f35b80fd5b83833461024d57602036600319011261024d57823590610667611065565b7f00000000000000000000000000000000000000000000000000000000000000006001600160a01b031680156106fd5781516323b872dd60e01b6020820152336024820152306044820152606480820185905281529160a083019067ffffffffffffffff8211848310176106ea575261033292916106e4916110c0565b3361114b565b634e487b7160e01b865260418752602486fd5b81516307a92f1960e51b81528590fd5b50503461024d578160031936011261024d57602090517f00000000000000000000000000000000000000000000000000000000000000008152f35b50503461024d578160031936011261024d57602090517fa49807205ce4d355092ef5a8a18f56e8913cf4a201fbe287825b095693c217758152f35b50503461024d57602036600319011261024d5760209160ff9082906001600160a01b036107ae610ebc565b1681526008855220541690519015158152f35b50503461024d578160031936011261024d57517f00000000000000000000000000000000000000000000000000000000000000006001600160a01b03168152602090f35b50503461024d578160031936011261024d57517f00000000000000000000000000000000000000000000000000000000000000006001600160a01b03168152602090f35b919050346102df57826003193601126102df57610864611065565b60ff60025460a01c16600681101561095b5782811415908161094f575b506102bf573383526007602052808320541561094257338352600760205280832080549084905591827f00000000000000000000000000000000000000000000000000000000000000006001600160a01b03168061093157508480808093335af16108ea6112fd565b501561092357505b519081527fd7dee2702d63ad89917b6a4da9981c90c4d24f8c2bdfd64c604ecae57d8d065160203392a26001805580f35b90516312171d8360e31b8152fd5b61093d92503390611f6c565b6108f2565b5163f76aef6560e01b8152fd5b60059150141538610881565b634e487b7160e01b845260218352602484fd5b50503461024d578160031936011261024d576109979061098c6120ae565b905191829182610e78565b0390f35b83346106465780600319360112610646576109b4611065565b61033261133d565b50503461024d578160031936011261024d57517f00000000000000000000000000000000000000000000000000000000000000006001600160a01b03168152602090f35b9050346102df57826003193601126102df57610a1a611065565b60ff60025460a01c166006811015610b4457600303610b365733835260076020528183205415610b2857338352600860205260ff8284205416610b1a57503382526007602052610a9a610a91828420547f0000000000000000000000000000000000000000000000000000000000000000906112bd565b600354906112d0565b338084526008602052828420805460ff19166001179055909190610ae99083907f00000000000000000000000000000000000000000000000000000000000000006001600160a01b0316611f6c565b519081527f896e034966eaaf1adc54acc0f257056febbd300c9e47182cf761982cf1f5e43060203392a26001805580f35b9051630c8d9eab60e31b8152fd5b9051631971fbf360e21b8152fd5b90516307a92f1960e51b8152fd5b634e487b7160e01b845260218252602484fd5b8334610646578060031936011261064657610b70610ed2565b61ff0019600654166006557fa45f47fdea8a1efdd9029a5691c7f759c32b7c698632b563573e155625d169338180a180f35b83833461024d578060031936011261024d57610bbc610ea1565b90336001600160a01b03831603610bd95750610374919235610ff0565b5163334bd91960e11b81528390fd5b9050346102df57826003193601126102df5760209250549051908152f35b50503461024d578160031936011261024d57602090517f00000000000000000000000000000000000000000000000000000000000000008152f35b50503461024d578160031936011261024d57517f00000000000000000000000000000000000000000000000000000000000000006001600160a01b03168152602090f35b919050346102df57806003193601126102df576103749135610caa600161035e610ea1565b610f72565b9050346102df5760203660031901126102df57816020936001923581528085522001549051908152f35b50503461024d578160031936011261024d57602090517f00000000000000000000000000000000000000000000000000000000000000008152f35b50503461024d578160031936011261024d576109979060ff60025460a01c16905191829182610e78565b50503461024d578160031936011261024d57602090517f00000000000000000000000000000000000000000000000000000000000000008152f35b50503461024d578160031936011261024d576020905161ffff7f0000000000000000000000000000000000000000000000000000000000000000168152f35b50503461024d578160031936011261024d57517f00000000000000000000000000000000000000000000000000000000000000006001600160a01b03168152602090f35b50503461024d578160031936011261024d5760025490516001600160a01b039091168152602090f35b8491346102df5760203660031901126102df573563ffffffff60e01b81168091036102df5760209250637965db0b60e01b8114908115610e67575b5015158152f35b6301ffc9a760e01b14905083610e60565b919060208301926006821015610e8b5752565b634e487b7160e01b600052602160045260246000fd5b602435906001600160a01b0382168203610eb757565b600080fd5b600435906001600160a01b0382168203610eb757565b3360009081527f7d7ffb7a348e1c6a02869081a26547b49160dd3df72d1d75a570eb9b698292ec60205260409020547fa49807205ce4d355092ef5a8a18f56e8913cf4a201fbe287825b095693c217759060ff1615610f2e5750565b6044906040519063e2517d3f60e01b82523360048301526024820152fd5b80600052600060205260406000203360005260205260ff6040600020541615610f2e5750565b9060009180835282602052604083209160018060a01b03169182845260205260ff60408420541615600014610feb57808352826020526040832082845260205260408320600160ff198254161790557f2f8788117e7eff1d82e926ec794901d17c78024a50270940304540a733656f0d339380a4600190565b505090565b9060009180835282602052604083209160018060a01b03169182845260205260ff604084205416600014610feb5780835282602052604083208284526020526040832060ff1981541690557ff6391f5c32d9c69d2a47ea670b442974b53935d1edc7fd64eb21e047a839171b339380a4600190565b600260015414611076576002600155565b604051633ee5aeb560e01b8152600490fd5b90601f8019910116810190811067ffffffffffffffff8211176110aa57604052565b634e487b7160e01b600052604160045260246000fd5b906000602091828151910182855af11561111c576000513d61111357506001600160a01b0381163b155b6110f15750565b604051635274afe760e01b81526001600160a01b039091166004820152602490fd5b600114156110ea565b6040513d6000823e3d90fd5b9190820180921161113557565b634e487b7160e01b600052601160045260246000fd5b919091611156612001565b60ff60025460a01c166006811015610e8b576001036112ab5760ff60065460081c16611299577f000000000000000000000000000000000000000000000000000000000000000083106112875760018060a01b031660009281845260076020526040906111c68183872054611128565b7f00000000000000000000000000000000000000000000000000000000000000008111611276578386526007602052828620541561124b575b8286857ffa35a310d7113dddce1c275da946348e9aaebf9050b00b372033c4d84b0bd6eb969798526007602052205561123a81600354611128565b8060035582519182526020820152a2565b6004546000198114611262576001016004556111ff565b634e487b7160e01b87526011600452602487fd5b8251635e508cd360e11b8152600490fd5b604051636c7591b560e11b8152600490fd5b60405163ab35696f60e01b8152600490fd5b6040516307a92f1960e51b8152600490fd5b8181029291811591840414171561113557565b81156112da570490565b634e487b7160e01b600052601260045260246000fd5b9190820391821161113557565b3d15611338573d9067ffffffffffffffff82116110aa576040519161132c601f8201601f191660200184611088565b82523d6000602084013e565b606090565b611345612001565b600254600060ff8260a01c166006811015611f58576002036112ab5760065460ff81166112ab5760ff1916600117600655600354917f00000000000000000000000000000000000000000000000000000000000000008310611f215750670de0b6b3a76400009081830283159284820414831715611f0d576113e8907f0000000000000000000000000000000000000000000000000000000000000000906112d0565b6005556101f49182840292848404141715611ef95761140d61271080930480946112f0565b927f00000000000000000000000000000000000000000000000000000000000000006001600160a01b0316611ea0577f00000000000000000000000000000000000000000000000000000000000000006001600160a01b0316803b156102df5782906024604051809481936339650d1f60e01b83523060048401525af18015611b0257611e74575b505b7f0000000000000000000000000000000000000000000000000000000000000000916114ef816114c785876112bd565b04937f00000000000000000000000000000000000000000000000000000000000000006112bd565b60405163095ea7b360e01b81527f00000000000000000000000000000000000000000000000000000000000000006001600160a01b03166004820152919004602482018190529060208180604481010381867f00000000000000000000000000000000000000000000000000000000000000006001600160a01b03165af18015611b2c57611e55575b507f00000000000000000000000000000000000000000000000000000000000000006001600160a01b0316611b985761012c4201804211611b84576040519163f305d71960e01b835260018060a01b037f0000000000000000000000000000000000000000000000000000000000000000166004840152602483015282604483015282606483015230608483015260a482015260608160c4818660018060a01b037f0000000000000000000000000000000000000000000000000000000000000000165af18015611b0257611b56575b5060405163c45a015560e01b81526020816004817f00000000000000000000000000000000000000000000000000000000000000006001600160a01b03165afa908115611b02578291611b37575b506040516315ab88c960e31b8152906020826004817f00000000000000000000000000000000000000000000000000000000000000006001600160a01b03165afa918215611b2c5791602091611743938592611b0d575b5060405163e6a4390560e01b81526001600160a01b037f00000000000000000000000000000000000000000000000000000000000000008116600483015290921660248301529092839190829081906044820190565b03916001600160a01b03165afa908115611b02578291611ad3575b505b60018060a01b031692604051926370a0823160e01b90818552306004860152602085602481895afa948515611ac8578495611a94575b5062278d007f0000000000000000000000000000000000000000000000000000000000000000818102918115918304141715611a80576117d69042611128565b92867fac1d76749e5447b7b16f5ab61447e1bd502f3bb4807af3b28e620d1700a6ee4560407f0000000000000000000000000000000000000000000000000000000000000000966118288a8986611f6c565b8151908a82526020820152a27f00000000000000000000000000000000000000000000000000000000000000006001600160a01b03811661197e575b5061186f92506112f0565b907f00000000000000000000000000000000000000000000000000000000000000006001600160a01b031661191d5782809281925af16118ad6112fd565b501561190b577f6e4389167d2afbd1ccb4797ea87e29958adbf74cd16ba077a2ee5ab8460784e5916080915b600360a01b60ff60a01b19600254161760025560055491600354604051938452602084015260408301526060820152a1565b6040516312171d8360e31b8152600490fd5b7f6e4389167d2afbd1ccb4797ea87e29958adbf74cd16ba077a2ee5ab8460784e59460809490935091611979917f00000000000000000000000000000000000000000000000000000000000000006001600160a01b0316611f6c565b6118d9565b6040519384523060048501526020846024817f00000000000000000000000000000000000000000000000000000000000000006001600160a01b03165afa938415611a75578694611a3f575b506119f961186f947f0000000000000000000000000000000000000000000000000000000000000000906112f0565b80611a05575b50611864565b611a38917f00000000000000000000000000000000000000000000000000000000000000006001600160a01b0316611f6c565b38806119ff565b93506020843d602011611a6d575b81611a5a60209383611088565b81010312610eb7579251926119f96119ca565b3d9150611a4d565b6040513d88823e3d90fd5b634e487b7160e01b85526011600452602485fd5b9094506020813d602011611ac0575b81611ab060209383611088565b81010312610eb757519338611796565b3d9150611aa3565b6040513d86823e3d90fd5b611af5915060203d602011611afb575b611aed8183611088565b810190611fe2565b3861175e565b503d611ae3565b6040513d84823e3d90fd5b611b25919250833d8511611afb57611aed8183611088565b90386116ed565b6040513d85823e3d90fd5b611b50915060203d602011611afb57611aed8183611088565b38611696565b611b769060603d8111611b7d575b611b6e8183611088565b810190611fc7565b5050611648565b503d611b64565b634e487b7160e01b83526011600452602483fd5b60405163095ea7b360e01b81527f00000000000000000000000000000000000000000000000000000000000000006001600160a01b031660048201526024810184905260208180604481010381867f00000000000000000000000000000000000000000000000000000000000000006001600160a01b03165af18015611b2c57611e26575b5061012c4201804211611b84576040519162e8e33760e81b835260018060a01b037f000000000000000000000000000000000000000000000000000000000000000016600484015260018060a01b037f000000000000000000000000000000000000000000000000000000000000000016602484015260448301528360648301528260848301528260a48301523060c483015260e4820152606081610104818560018060a01b037f0000000000000000000000000000000000000000000000000000000000000000165af18015611b0257611e08575b5060405163c45a015560e01b81526020816004817f00000000000000000000000000000000000000000000000000000000000000006001600160a01b03165afa908115611b02578291611de9575b5060405163e6a4390560e01b81526001600160a01b037f0000000000000000000000000000000000000000000000000000000000000000811660048301527f000000000000000000000000000000000000000000000000000000000000000081166024830152909160209183916044918391165afa908115611b02578291611dca575b50611760565b611de3915060203d602011611afb57611aed8183611088565b38611dc4565b611e02915060203d602011611afb57611aed8183611088565b38611d41565b611e1f9060603d8111611b7d57611b6e8183611088565b5050611cf3565b611e479060203d602011611e4e575b611e3f8183611088565b810190611faf565b5038611c1d565b503d611e35565b611e6d9060203d602011611e4e57611e3f8183611088565b5038611578565b67ffffffffffffffff8111611e8c5760405238611495565b634e487b7160e01b82526041600452602482fd5b611ef4907f00000000000000000000000000000000000000000000000000000000000000007f00000000000000000000000000000000000000000000000000000000000000006001600160a01b0316611f6c565b611497565b634e487b7160e01b81526011600452602490fd5b634e487b7160e01b82526011600452602482fd5b60ff60a01b1916600160a21b176002557fe48846a3dca191c762ab6aaa1e929ccaf55e31a875fb78ad1b93e15ef4830aca915080a1565b634e487b7160e01b82526021600452602482fd5b60405163a9059cbb60e01b60208201526001600160a01b03929092166024830152604480830193909352918152611fad91611fa8606483611088565b6110c0565b565b90816020910312610eb757518015158103610eb75790565b90816060910312610eb7578051916040602083015192015190565b90816020910312610eb757516001600160a01b0381168103610eb75790565b60025460ff8160a01c166006811015610e8b57801580612084575b156120385750506002805460ff60a01b1916600160a01b179055565b6001148061205a575b6120485750565b60ff60a01b1916600160a11b17600255565b507f0000000000000000000000000000000000000000000000000000000000000000421015612041565b507f000000000000000000000000000000000000000000000000000000000000000042101561201c565b60ff60025460a01c166006811015610e8b57801580612114575b156120d35750600190565b60018114806120ea575b6120e45790565b50600290565b507f00000000000000000000000000000000000000000000000000000000000000004210156120dd565b507f00000000000000000000000000000000000000000000000000000000000000004210156120c8565b60ff60025460a01c166006811015610e8b576003036121b35760035480156121ac576121a99160018060a01b031660005260076020526121a46040600020547f0000000000000000000000000000000000000000000000000000000000000000906112bd565b6112d0565b90565b5050600090565b5060009056fea2646970667358221220a4b8c0c931fe4a9241633e43750d27f91e3689951ceaa2bc9cc9cb2a47a734fd64736f6c63430008140033","opcodes":"PUSH1 0x80 PUSH1 0x40 DUP2 DUP2 MSTORE PUSH1 0x4 SWAP2 DUP3 CALLDATASIZE LT ISZERO PUSH2 0x16 JUMPI PUSH1 0x0 DUP1 REVERT JUMPDEST PUSH1 0x0 SWAP3 DUP4 CALLDATALOAD PUSH1 0xE0 SHR SWAP2 DUP3 PUSH4 0x1FFC9A7 EQ PUSH2 0xE25 JUMPI POP DUP2 PUSH4 0x3FC2013 EQ PUSH2 0xDFC JUMPI DUP2 PUSH4 0x758D924 EQ PUSH2 0xDB8 JUMPI DUP2 PUSH4 0xB7C1AE1 EQ PUSH2 0xD79 JUMPI DUP2 PUSH4 0x12AEF8C3 EQ PUSH2 0xD3E JUMPI DUP2 PUSH4 0x1CC64544 EQ PUSH2 0x4F8 JUMPI DUP2 PUSH4 0x200D2ED2 EQ PUSH2 0xD14 JUMPI DUP2 PUSH4 0x220C0956 EQ PUSH2 0xCD9 JUMPI DUP2 PUSH4 0x248A9CA3 EQ PUSH2 0xCAF JUMPI DUP2 PUSH4 0x2F2FF15D EQ PUSH2 0xC85 JUMPI DUP2 PUSH4 0x3013CE29 EQ PUSH2 0xC41 JUMPI DUP2 PUSH4 0x3197CBB6 EQ PUSH2 0xC06 JUMPI DUP2 PUSH4 0x362F04C0 EQ PUSH2 0xBE8 JUMPI DUP2 PUSH4 0x36568ABE EQ PUSH2 0xBA2 JUMPI DUP2 PUSH4 0x3F4BA83A EQ PUSH2 0xB57 JUMPI DUP2 PUSH4 0x42E94C90 EQ PUSH2 0x397 JUMPI DUP2 PUSH4 0x48C54B9D EQ PUSH2 0xA00 JUMPI DUP2 PUSH4 0x4B60CE77 EQ PUSH2 0x9BC JUMPI DUP2 PUSH4 0x4BB278F3 EQ PUSH2 0x99B JUMPI DUP2 PUSH4 0x4E69D560 EQ PUSH2 0x96E JUMPI DUP2 PUSH4 0x590E1AE3 EQ PUSH2 0x849 JUMPI DUP2 PUSH4 0x6052970C EQ PUSH2 0x805 JUMPI DUP2 PUSH4 0x619F3D6C EQ PUSH2 0x7C1 JUMPI DUP2 PUSH4 0x73B2E80E EQ PUSH2 0x783 JUMPI DUP2 PUSH4 0x75B238FC EQ PUSH2 0x748 JUMPI DUP2 PUSH4 0x78E97925 EQ PUSH2 0x70D JUMPI DUP2 PUSH4 0x8160059A EQ PUSH2 0x649 JUMPI DUP2 PUSH4 0x8456CB59 EQ PUSH2 0x5F7 JUMPI DUP2 PUSH4 0x8BCD8515 EQ PUSH2 0x5BC JUMPI DUP2 PUSH4 0x8D3D6576 EQ PUSH2 0x581 JUMPI DUP2 PUSH4 0x8D4E4083 EQ PUSH2 0x55D JUMPI DUP2 PUSH4 0x91D14854 EQ PUSH2 0x517 JUMPI DUP2 PUSH4 0x9CE05DF7 EQ PUSH2 0x4F8 JUMPI DUP2 PUSH4 0xA217FDDF EQ PUSH2 0x4DD JUMPI DUP2 PUSH4 0xA4475CE4 EQ PUSH2 0x499 JUMPI DUP2 PUSH4 0xAAFFADF3 EQ PUSH2 0x45E JUMPI DUP2 PUSH4 0xB0683755 EQ PUSH2 0x423 JUMPI DUP2 PUSH4 0xB187BD26 EQ PUSH2 0x3FC JUMPI DUP2 PUSH4 0xB920ADE2 EQ PUSH2 0x3CF JUMPI DUP2 PUSH4 0xBB8B2B47 EQ PUSH2 0x397 JUMPI DUP2 PUSH4 0xC5C4744C EQ PUSH2 0x378 JUMPI DUP2 PUSH4 0xD547741F EQ PUSH2 0x339 JUMPI DUP2 PUSH4 0xD7BB99BA EQ PUSH2 0x2E3 JUMPI DUP2 PUSH4 0xEA8A1AF0 EQ PUSH2 0x251 JUMPI POP PUSH4 0xF89BE593 EQ PUSH2 0x214 JUMPI PUSH1 0x0 DUP1 REVERT JUMPDEST CALLVALUE PUSH2 0x24D JUMPI DUP2 PUSH1 0x3 NOT CALLDATASIZE ADD SLT PUSH2 0x24D JUMPI PUSH1 0x20 SWAP1 MLOAD PUSH32 0x0 DUP2 MSTORE RETURN JUMPDEST POP DUP1 REVERT JUMPDEST SWAP1 POP CALLVALUE PUSH2 0x2DF JUMPI DUP3 PUSH1 0x3 NOT CALLDATASIZE ADD SLT PUSH2 0x2DF JUMPI PUSH2 0x26B PUSH2 0xED2 JUMP JUMPDEST PUSH1 0x2 SLOAD SWAP2 PUSH1 0xFF DUP4 PUSH1 0xA0 SHR AND PUSH1 0x6 DUP2 LT ISZERO PUSH2 0x2CC JUMPI PUSH1 0x3 EQ PUSH2 0x2BF JUMPI POP POP PUSH1 0xFF PUSH1 0xA0 SHL NOT AND PUSH1 0x5 PUSH1 0xA0 SHL OR PUSH1 0x2 SSTORE PUSH32 0x63B958841F79AB97CB5456DA181454B9932C0E15A3B17F1CBD27E2A8BC610437 DUP2 DUP1 LOG1 DUP1 RETURN JUMPDEST MLOAD PUSH4 0x7A92F19 PUSH1 0xE5 SHL DUP2 MSTORE REVERT JUMPDEST PUSH4 0x4E487B71 PUSH1 0xE0 SHL DUP6 MSTORE PUSH1 0x21 DUP4 MSTORE PUSH1 0x24 DUP6 REVERT JUMPDEST DUP3 DUP1 REVERT JUMPDEST SWAP2 SWAP1 POP DUP3 PUSH1 0x3 NOT CALLDATASIZE ADD SLT PUSH2 0x2DF JUMPI PUSH2 0x2F9 PUSH2 0x1065 JUMP JUMPDEST PUSH32 0x0 PUSH1 0x1 PUSH1 0x1 PUSH1 0xA0 SHL SUB AND PUSH2 0x2BF JUMPI DUP3 PUSH2 0x332 CALLVALUE CALLER PUSH2 0x114B JUMP JUMPDEST PUSH1 0x1 DUP1 SSTORE DUP1 RETURN JUMPDEST SWAP2 SWAP1 POP CALLVALUE PUSH2 0x2DF JUMPI DUP1 PUSH1 0x3 NOT CALLDATASIZE ADD SLT PUSH2 0x2DF JUMPI PUSH2 0x374 SWAP2 CALLDATALOAD PUSH2 0x36F PUSH1 0x1 PUSH2 0x35E PUSH2 0xEA1 JUMP JUMPDEST SWAP4 DUP4 DUP8 MSTORE DUP7 PUSH1 0x20 MSTORE DUP7 KECCAK256 ADD SLOAD PUSH2 0xF4C JUMP JUMPDEST PUSH2 0xFF0 JUMP JUMPDEST POP DUP1 RETURN JUMPDEST POP POP CALLVALUE PUSH2 0x24D JUMPI DUP2 PUSH1 0x3 NOT CALLDATASIZE ADD SLT PUSH2 0x24D JUMPI PUSH1 0x20 SWAP1 PUSH1 0x3 SLOAD SWAP1 MLOAD SWAP1 DUP2 MSTORE RETURN JUMPDEST POP POP CALLVALUE PUSH2 0x24D JUMPI PUSH1 0x20 CALLDATASIZE PUSH1 0x3 NOT ADD SLT PUSH2 0x24D JUMPI PUSH1 0x20 SWAP2 DUP2 SWAP1 PUSH1 0x1 PUSH1 0x1 PUSH1 0xA0 SHL SUB PUSH2 0x3BF PUSH2 0xEBC JUMP JUMPDEST AND DUP2 MSTORE PUSH1 0x7 DUP5 MSTORE KECCAK256 SLOAD SWAP1 MLOAD SWAP1 DUP2 MSTORE RETURN JUMPDEST POP POP CALLVALUE PUSH2 0x24D JUMPI PUSH1 0x20 CALLDATASIZE PUSH1 0x3 NOT ADD SLT PUSH2 0x24D JUMPI PUSH1 0x20 SWAP1 PUSH2 0x3F5 PUSH2 0x3F0 PUSH2 0xEBC JUMP JUMPDEST PUSH2 0x213E JUMP JUMPDEST SWAP1 MLOAD SWAP1 DUP2 MSTORE RETURN JUMPDEST POP POP CALLVALUE PUSH2 0x24D JUMPI DUP2 PUSH1 0x3 NOT CALLDATASIZE ADD SLT PUSH2 0x24D JUMPI PUSH1 0x20 SWAP1 PUSH1 0xFF PUSH1 0x6 SLOAD PUSH1 0x8 SHR AND SWAP1 MLOAD SWAP1 ISZERO ISZERO DUP2 MSTORE RETURN JUMPDEST POP POP CALLVALUE PUSH2 0x24D JUMPI DUP2 PUSH1 0x3 NOT CALLDATASIZE ADD SLT PUSH2 0x24D JUMPI PUSH1 0x20 SWAP1 MLOAD PUSH32 0x0 DUP2 MSTORE RETURN JUMPDEST POP POP CALLVALUE PUSH2 0x24D JUMPI DUP2 PUSH1 0x3 NOT CALLDATASIZE ADD SLT PUSH2 0x24D JUMPI PUSH1 0x20 SWAP1 MLOAD PUSH32 0x0 DUP2 MSTORE RETURN JUMPDEST POP POP CALLVALUE PUSH2 0x24D JUMPI DUP2 PUSH1 0x3 NOT CALLDATASIZE ADD SLT PUSH2 0x24D JUMPI MLOAD PUSH32 0x0 PUSH1 0x1 PUSH1 0x1 PUSH1 0xA0 SHL SUB AND DUP2 MSTORE PUSH1 0x20 SWAP1 RETURN JUMPDEST POP POP CALLVALUE PUSH2 0x24D JUMPI DUP2 PUSH1 0x3 NOT CALLDATASIZE ADD SLT PUSH2 0x24D JUMPI MLOAD SWAP1 DUP2 MSTORE PUSH1 0x20 SWAP1 RETURN JUMPDEST POP POP CALLVALUE PUSH2 0x24D JUMPI DUP2 PUSH1 0x3 NOT CALLDATASIZE ADD SLT PUSH2 0x24D JUMPI PUSH1 0x20 SWAP1 PUSH1 0x5 SLOAD SWAP1 MLOAD SWAP1 DUP2 MSTORE RETURN JUMPDEST SWAP1 POP CALLVALUE PUSH2 0x2DF JUMPI DUP2 PUSH1 0x3 NOT CALLDATASIZE ADD SLT PUSH2 0x2DF JUMPI DUP2 PUSH1 0x20 SWAP4 PUSH1 0xFF SWAP3 PUSH2 0x538 PUSH2 0xEA1 JUMP JUMPDEST SWAP1 CALLDATALOAD DUP3 MSTORE DUP2 DUP7 MSTORE DUP3 DUP3 KECCAK256 PUSH1 0x1 PUSH1 0x1 PUSH1 0xA0 SHL SUB SWAP1 SWAP2 AND DUP3 MSTORE DUP6 MSTORE KECCAK256 SLOAD SWAP2 MLOAD SWAP2 AND ISZERO ISZERO DUP2 MSTORE RETURN JUMPDEST POP POP CALLVALUE PUSH2 0x24D JUMPI DUP2 PUSH1 0x3 NOT CALLDATASIZE ADD SLT PUSH2 0x24D JUMPI PUSH1 0x20 SWAP1 PUSH1 0xFF PUSH1 0x6 SLOAD AND SWAP1 MLOAD SWAP1 ISZERO ISZERO DUP2 MSTORE RETURN JUMPDEST POP POP CALLVALUE PUSH2 0x24D JUMPI DUP2 PUSH1 0x3 NOT CALLDATASIZE ADD SLT PUSH2 0x24D JUMPI PUSH1 0x20 SWAP1 MLOAD PUSH32 0x0 DUP2 MSTORE RETURN JUMPDEST POP POP CALLVALUE PUSH2 0x24D JUMPI DUP2 PUSH1 0x3 NOT CALLDATASIZE ADD SLT PUSH2 0x24D JUMPI PUSH1 0x20 SWAP1 MLOAD PUSH32 0x0 DUP2 MSTORE RETURN JUMPDEST DUP4 CALLVALUE PUSH2 0x646 JUMPI DUP1 PUSH1 0x3 NOT CALLDATASIZE ADD SLT PUSH2 0x646 JUMPI PUSH2 0x610 PUSH2 0xED2 JUMP JUMPDEST PUSH2 0x100 PUSH2 0xFF00 NOT PUSH1 0x6 SLOAD AND OR PUSH1 0x6 SSTORE PUSH32 0x9E87FAC88FF661F02D44F95383C817FECE4BCE600A3DAB7A54406878B965E752 DUP2 DUP1 LOG1 DUP1 RETURN JUMPDEST DUP1 REVERT JUMPDEST DUP4 DUP4 CALLVALUE PUSH2 0x24D JUMPI PUSH1 0x20 CALLDATASIZE PUSH1 0x3 NOT ADD SLT PUSH2 0x24D JUMPI DUP3 CALLDATALOAD SWAP1 PUSH2 0x667 PUSH2 0x1065 JUMP JUMPDEST PUSH32 0x0 PUSH1 0x1 PUSH1 0x1 PUSH1 0xA0 SHL SUB AND DUP1 ISZERO PUSH2 0x6FD JUMPI DUP2 MLOAD PUSH4 0x23B872DD PUSH1 0xE0 SHL PUSH1 0x20 DUP3 ADD MSTORE CALLER PUSH1 0x24 DUP3 ADD MSTORE ADDRESS PUSH1 0x44 DUP3 ADD MSTORE PUSH1 0x64 DUP1 DUP3 ADD DUP6 SWAP1 MSTORE DUP2 MSTORE SWAP2 PUSH1 0xA0 DUP4 ADD SWAP1 PUSH8 0xFFFFFFFFFFFFFFFF DUP3 GT DUP5 DUP4 LT OR PUSH2 0x6EA JUMPI MSTORE PUSH2 0x332 SWAP3 SWAP2 PUSH2 0x6E4 SWAP2 PUSH2 0x10C0 JUMP JUMPDEST CALLER PUSH2 0x114B JUMP JUMPDEST PUSH4 0x4E487B71 PUSH1 0xE0 SHL DUP7 MSTORE PUSH1 0x41 DUP8 MSTORE PUSH1 0x24 DUP7 REVERT JUMPDEST DUP2 MLOAD PUSH4 0x7A92F19 PUSH1 0xE5 SHL DUP2 MSTORE DUP6 SWAP1 REVERT JUMPDEST POP POP CALLVALUE PUSH2 0x24D JUMPI DUP2 PUSH1 0x3 NOT CALLDATASIZE ADD SLT PUSH2 0x24D JUMPI PUSH1 0x20 SWAP1 MLOAD PUSH32 0x0 DUP2 MSTORE RETURN JUMPDEST POP POP CALLVALUE PUSH2 0x24D JUMPI DUP2 PUSH1 0x3 NOT CALLDATASIZE ADD SLT PUSH2 0x24D JUMPI PUSH1 0x20 SWAP1 MLOAD PUSH32 0xA49807205CE4D355092EF5A8A18F56E8913CF4A201FBE287825B095693C21775 DUP2 MSTORE RETURN JUMPDEST POP POP CALLVALUE PUSH2 0x24D JUMPI PUSH1 0x20 CALLDATASIZE PUSH1 0x3 NOT ADD SLT PUSH2 0x24D JUMPI PUSH1 0x20 SWAP2 PUSH1 0xFF SWAP1 DUP3 SWAP1 PUSH1 0x1 PUSH1 0x1 PUSH1 0xA0 SHL SUB PUSH2 0x7AE PUSH2 0xEBC JUMP JUMPDEST AND DUP2 MSTORE PUSH1 0x8 DUP6 MSTORE KECCAK256 SLOAD AND SWAP1 MLOAD SWAP1 ISZERO ISZERO DUP2 MSTORE RETURN JUMPDEST POP POP CALLVALUE PUSH2 0x24D JUMPI DUP2 PUSH1 0x3 NOT CALLDATASIZE ADD SLT PUSH2 0x24D JUMPI MLOAD PUSH32 0x0 PUSH1 0x1 PUSH1 0x1 PUSH1 0xA0 SHL SUB AND DUP2 MSTORE PUSH1 0x20 SWAP1 RETURN JUMPDEST POP POP CALLVALUE PUSH2 0x24D JUMPI DUP2 PUSH1 0x3 NOT CALLDATASIZE ADD SLT PUSH2 0x24D JUMPI MLOAD PUSH32 0x0 PUSH1 0x1 PUSH1 0x1 PUSH1 0xA0 SHL SUB AND DUP2 MSTORE PUSH1 0x20 SWAP1 RETURN JUMPDEST SWAP2 SWAP1 POP CALLVALUE PUSH2 0x2DF JUMPI DUP3 PUSH1 0x3 NOT CALLDATASIZE ADD SLT PUSH2 0x2DF JUMPI PUSH2 0x864 PUSH2 0x1065 JUMP JUMPDEST PUSH1 0xFF PUSH1 0x2 SLOAD PUSH1 0xA0 SHR AND PUSH1 0x6 DUP2 LT ISZERO PUSH2 0x95B JUMPI DUP3 DUP2 EQ ISZERO SWAP1 DUP2 PUSH2 0x94F JUMPI JUMPDEST POP PUSH2 0x2BF JUMPI CALLER DUP4 MSTORE PUSH1 0x7 PUSH1 0x20 MSTORE DUP1 DUP4 KECCAK256 SLOAD ISZERO PUSH2 0x942 JUMPI CALLER DUP4 MSTORE PUSH1 0x7 PUSH1 0x20 MSTORE DUP1 DUP4 KECCAK256 DUP1 SLOAD SWAP1 DUP5 SWAP1 SSTORE SWAP2 DUP3 PUSH32 0x0 PUSH1 0x1 PUSH1 0x1 PUSH1 0xA0 SHL SUB AND DUP1 PUSH2 0x931 JUMPI POP DUP5 DUP1 DUP1 DUP1 SWAP4 CALLER GAS CALL PUSH2 0x8EA PUSH2 0x12FD JUMP JUMPDEST POP ISZERO PUSH2 0x923 JUMPI POP JUMPDEST MLOAD SWAP1 DUP2 MSTORE PUSH32 0xD7DEE2702D63AD89917B6A4DA9981C90C4D24F8C2BDFD64C604ECAE57D8D0651 PUSH1 0x20 CALLER SWAP3 LOG2 PUSH1 0x1 DUP1 SSTORE DUP1 RETURN JUMPDEST SWAP1 MLOAD PUSH4 0x12171D83 PUSH1 0xE3 SHL DUP2 MSTORE REVERT JUMPDEST PUSH2 0x93D SWAP3 POP CALLER SWAP1 PUSH2 0x1F6C JUMP JUMPDEST PUSH2 0x8F2 JUMP JUMPDEST MLOAD PUSH4 0xF76AEF65 PUSH1 0xE0 SHL DUP2 MSTORE REVERT JUMPDEST PUSH1 0x5 SWAP2 POP EQ ISZERO CODESIZE PUSH2 0x881 JUMP JUMPDEST PUSH4 0x4E487B71 PUSH1 0xE0 SHL DUP5 MSTORE PUSH1 0x21 DUP4 MSTORE PUSH1 0x24 DUP5 REVERT JUMPDEST POP POP CALLVALUE PUSH2 0x24D JUMPI DUP2 PUSH1 0x3 NOT CALLDATASIZE ADD SLT PUSH2 0x24D JUMPI PUSH2 0x997 SWAP1 PUSH2 0x98C PUSH2 0x20AE JUMP JUMPDEST SWAP1 MLOAD SWAP2 DUP3 SWAP2 DUP3 PUSH2 0xE78 JUMP JUMPDEST SUB SWAP1 RETURN JUMPDEST DUP4 CALLVALUE PUSH2 0x646 JUMPI DUP1 PUSH1 0x3 NOT CALLDATASIZE ADD SLT PUSH2 0x646 JUMPI PUSH2 0x9B4 PUSH2 0x1065 JUMP JUMPDEST PUSH2 0x332 PUSH2 0x133D JUMP JUMPDEST POP POP CALLVALUE PUSH2 0x24D JUMPI DUP2 PUSH1 0x3 NOT CALLDATASIZE ADD SLT PUSH2 0x24D JUMPI MLOAD PUSH32 0x0 PUSH1 0x1 PUSH1 0x1 PUSH1 0xA0 SHL SUB AND DUP2 MSTORE PUSH1 0x20 SWAP1 RETURN JUMPDEST SWAP1 POP CALLVALUE PUSH2 0x2DF JUMPI DUP3 PUSH1 0x3 NOT CALLDATASIZE ADD SLT PUSH2 0x2DF JUMPI PUSH2 0xA1A PUSH2 0x1065 JUMP JUMPDEST PUSH1 0xFF PUSH1 0x2 SLOAD PUSH1 0xA0 SHR AND PUSH1 0x6 DUP2 LT ISZERO PUSH2 0xB44 JUMPI PUSH1 0x3 SUB PUSH2 0xB36 JUMPI CALLER DUP4 MSTORE PUSH1 0x7 PUSH1 0x20 MSTORE DUP2 DUP4 KECCAK256 SLOAD ISZERO PUSH2 0xB28 JUMPI CALLER DUP4 MSTORE PUSH1 0x8 PUSH1 0x20 MSTORE PUSH1 0xFF DUP3 DUP5 KECCAK256 SLOAD AND PUSH2 0xB1A JUMPI POP CALLER DUP3 MSTORE PUSH1 0x7 PUSH1 0x20 MSTORE PUSH2 0xA9A PUSH2 0xA91 DUP3 DUP5 KECCAK256 SLOAD PUSH32 0x0 SWAP1 PUSH2 0x12BD JUMP JUMPDEST PUSH1 0x3 SLOAD SWAP1 PUSH2 0x12D0 JUMP JUMPDEST CALLER DUP1 DUP5 MSTORE PUSH1 0x8 PUSH1 0x20 MSTORE DUP3 DUP5 KECCAK256 DUP1 SLOAD PUSH1 0xFF NOT AND PUSH1 0x1 OR SWAP1 SSTORE SWAP1 SWAP2 SWAP1 PUSH2 0xAE9 SWAP1 DUP4 SWAP1 PUSH32 0x0 PUSH1 0x1 PUSH1 0x1 PUSH1 0xA0 SHL SUB AND PUSH2 0x1F6C JUMP JUMPDEST MLOAD SWAP1 DUP2 MSTORE PUSH32 0x896E034966EAAF1ADC54ACC0F257056FEBBD300C9E47182CF761982CF1F5E430 PUSH1 0x20 CALLER SWAP3 LOG2 PUSH1 0x1 DUP1 SSTORE DUP1 RETURN JUMPDEST SWAP1 MLOAD PUSH4 0xC8D9EAB PUSH1 0xE3 SHL DUP2 MSTORE REVERT JUMPDEST SWAP1 MLOAD PUSH4 0x1971FBF3 PUSH1 0xE2 SHL DUP2 MSTORE REVERT JUMPDEST SWAP1 MLOAD PUSH4 0x7A92F19 PUSH1 0xE5 SHL DUP2 MSTORE REVERT JUMPDEST PUSH4 0x4E487B71 PUSH1 0xE0 SHL DUP5 MSTORE PUSH1 0x21 DUP3 MSTORE PUSH1 0x24 DUP5 REVERT JUMPDEST DUP4 CALLVALUE PUSH2 0x646 JUMPI DUP1 PUSH1 0x3 NOT CALLDATASIZE ADD SLT PUSH2 0x646 JUMPI PUSH2 0xB70 PUSH2 0xED2 JUMP JUMPDEST PUSH2 0xFF00 NOT PUSH1 0x6 SLOAD AND PUSH1 0x6 SSTORE PUSH32 0xA45F47FDEA8A1EFDD9029A5691C7F759C32B7C698632B563573E155625D16933 DUP2 DUP1 LOG1 DUP1 RETURN JUMPDEST DUP4 DUP4 CALLVALUE PUSH2 0x24D JUMPI DUP1 PUSH1 0x3 NOT CALLDATASIZE ADD SLT PUSH2 0x24D JUMPI PUSH2 0xBBC PUSH2 0xEA1 JUMP JUMPDEST SWAP1 CALLER PUSH1 0x1 PUSH1 0x1 PUSH1 0xA0 SHL SUB DUP4 AND SUB PUSH2 0xBD9 JUMPI POP PUSH2 0x374 SWAP2 SWAP3 CALLDATALOAD PUSH2 0xFF0 JUMP JUMPDEST MLOAD PUSH4 0x334BD919 PUSH1 0xE1 SHL DUP2 MSTORE DUP4 SWAP1 REVERT JUMPDEST SWAP1 POP CALLVALUE PUSH2 0x2DF JUMPI DUP3 PUSH1 0x3 NOT CALLDATASIZE ADD SLT PUSH2 0x2DF JUMPI PUSH1 0x20 SWAP3 POP SLOAD SWAP1 MLOAD SWAP1 DUP2 MSTORE RETURN JUMPDEST POP POP CALLVALUE PUSH2 0x24D JUMPI DUP2 PUSH1 0x3 NOT CALLDATASIZE ADD SLT PUSH2 0x24D JUMPI PUSH1 0x20 SWAP1 MLOAD PUSH32 0x0 DUP2 MSTORE RETURN JUMPDEST POP POP CALLVALUE PUSH2 0x24D JUMPI DUP2 PUSH1 0x3 NOT CALLDATASIZE ADD SLT PUSH2 0x24D JUMPI MLOAD PUSH32 0x0 PUSH1 0x1 PUSH1 0x1 PUSH1 0xA0 SHL SUB AND DUP2 MSTORE PUSH1 0x20 SWAP1 RETURN JUMPDEST SWAP2 SWAP1 POP CALLVALUE PUSH2 0x2DF JUMPI DUP1 PUSH1 0x3 NOT CALLDATASIZE ADD SLT PUSH2 0x2DF JUMPI PUSH2 0x374 SWAP2 CALLDATALOAD PUSH2 0xCAA PUSH1 0x1 PUSH2 0x35E PUSH2 0xEA1 JUMP JUMPDEST PUSH2 0xF72 JUMP JUMPDEST SWAP1 POP CALLVALUE PUSH2 0x2DF JUMPI PUSH1 0x20 CALLDATASIZE PUSH1 0x3 NOT ADD SLT PUSH2 0x2DF JUMPI DUP2 PUSH1 0x20 SWAP4 PUSH1 0x1 SWAP3 CALLDATALOAD DUP2 MSTORE DUP1 DUP6 MSTORE KECCAK256 ADD SLOAD SWAP1 MLOAD SWAP1 DUP2 MSTORE RETURN JUMPDEST POP POP CALLVALUE PUSH2 0x24D JUMPI DUP2 PUSH1 0x3 NOT CALLDATASIZE ADD SLT PUSH2 0x24D JUMPI PUSH1 0x20 SWAP1 MLOAD PUSH32 0x0 DUP2 MSTORE RETURN JUMPDEST POP POP CALLVALUE PUSH2 0x24D JUMPI DUP2 PUSH1 0x3 NOT CALLDATASIZE ADD SLT PUSH2 0x24D JUMPI PUSH2 0x997 SWAP1 PUSH1 0xFF PUSH1 0x2 SLOAD PUSH1 0xA0 SHR AND SWAP1 MLOAD SWAP2 DUP3 SWAP2 DUP3 PUSH2 0xE78 JUMP JUMPDEST POP POP CALLVALUE PUSH2 0x24D JUMPI DUP2 PUSH1 0x3 NOT CALLDATASIZE ADD SLT PUSH2 0x24D JUMPI PUSH1 0x20 SWAP1 MLOAD PUSH32 0x0 DUP2 MSTORE RETURN JUMPDEST POP POP CALLVALUE PUSH2 0x24D JUMPI DUP2 PUSH1 0x3 NOT CALLDATASIZE ADD SLT PUSH2 0x24D JUMPI PUSH1 0x20 SWAP1 MLOAD PUSH2 0xFFFF PUSH32 0x0 AND DUP2 MSTORE RETURN JUMPDEST POP POP CALLVALUE PUSH2 0x24D JUMPI DUP2 PUSH1 0x3 NOT CALLDATASIZE ADD SLT PUSH2 0x24D JUMPI MLOAD PUSH32 0x0 PUSH1 0x1 PUSH1 0x1 PUSH1 0xA0 SHL SUB AND DUP2 MSTORE PUSH1 0x20 SWAP1 RETURN JUMPDEST POP POP CALLVALUE PUSH2 0x24D JUMPI DUP2 PUSH1 0x3 NOT CALLDATASIZE ADD SLT PUSH2 0x24D JUMPI PUSH1 0x2 SLOAD SWAP1 MLOAD PUSH1 0x1 PUSH1 0x1 PUSH1 0xA0 SHL SUB SWAP1 SWAP2 AND DUP2 MSTORE PUSH1 0x20 SWAP1 RETURN JUMPDEST DUP5 SWAP2 CALLVALUE PUSH2 0x2DF JUMPI PUSH1 0x20 CALLDATASIZE PUSH1 0x3 NOT ADD SLT PUSH2 0x2DF JUMPI CALLDATALOAD PUSH4 0xFFFFFFFF PUSH1 0xE0 SHL DUP2 AND DUP1 SWAP2 SUB PUSH2 0x2DF JUMPI PUSH1 0x20 SWAP3 POP PUSH4 0x7965DB0B PUSH1 0xE0 SHL DUP2 EQ SWAP1 DUP2 ISZERO PUSH2 0xE67 JUMPI JUMPDEST POP ISZERO ISZERO DUP2 MSTORE RETURN JUMPDEST PUSH4 0x1FFC9A7 PUSH1 0xE0 SHL EQ SWAP1 POP DUP4 PUSH2 0xE60 JUMP JUMPDEST SWAP2 SWAP1 PUSH1 0x20 DUP4 ADD SWAP3 PUSH1 0x6 DUP3 LT ISZERO PUSH2 0xE8B JUMPI MSTORE JUMP JUMPDEST PUSH4 0x4E487B71 PUSH1 0xE0 SHL PUSH1 0x0 MSTORE PUSH1 0x21 PUSH1 0x4 MSTORE PUSH1 0x24 PUSH1 0x0 REVERT JUMPDEST PUSH1 0x24 CALLDATALOAD SWAP1 PUSH1 0x1 PUSH1 0x1 PUSH1 0xA0 SHL SUB DUP3 AND DUP3 SUB PUSH2 0xEB7 JUMPI JUMP JUMPDEST PUSH1 0x0 DUP1 REVERT JUMPDEST PUSH1 0x4 CALLDATALOAD SWAP1 PUSH1 0x1 PUSH1 0x1 PUSH1 0xA0 SHL SUB DUP3 AND DUP3 SUB PUSH2 0xEB7 JUMPI JUMP JUMPDEST CALLER PUSH1 0x0 SWAP1 DUP2 MSTORE PUSH32 0x7D7FFB7A348E1C6A02869081A26547B49160DD3DF72D1D75A570EB9B698292EC PUSH1 0x20 MSTORE PUSH1 0x40 SWAP1 KECCAK256 SLOAD PUSH32 0xA49807205CE4D355092EF5A8A18F56E8913CF4A201FBE287825B095693C21775 SWAP1 PUSH1 0xFF AND ISZERO PUSH2 0xF2E JUMPI POP JUMP JUMPDEST PUSH1 0x44 SWAP1 PUSH1 0x40 MLOAD SWAP1 PUSH4 0xE2517D3F PUSH1 0xE0 SHL DUP3 MSTORE CALLER PUSH1 0x4 DUP4 ADD MSTORE PUSH1 0x24 DUP3 ADD MSTORE REVERT JUMPDEST DUP1 PUSH1 0x0 MSTORE PUSH1 0x0 PUSH1 0x20 MSTORE PUSH1 0x40 PUSH1 0x0 KECCAK256 CALLER PUSH1 0x0 MSTORE PUSH1 0x20 MSTORE PUSH1 0xFF PUSH1 0x40 PUSH1 0x0 KECCAK256 SLOAD AND ISZERO PUSH2 0xF2E JUMPI POP JUMP JUMPDEST SWAP1 PUSH1 0x0 SWAP2 DUP1 DUP4 MSTORE DUP3 PUSH1 0x20 MSTORE PUSH1 0x40 DUP4 KECCAK256 SWAP2 PUSH1 0x1 DUP1 PUSH1 0xA0 SHL SUB AND SWAP2 DUP3 DUP5 MSTORE PUSH1 0x20 MSTORE PUSH1 0xFF PUSH1 0x40 DUP5 KECCAK256 SLOAD AND ISZERO PUSH1 0x0 EQ PUSH2 0xFEB JUMPI DUP1 DUP4 MSTORE DUP3 PUSH1 0x20 MSTORE PUSH1 0x40 DUP4 KECCAK256 DUP3 DUP5 MSTORE PUSH1 0x20 MSTORE PUSH1 0x40 DUP4 KECCAK256 PUSH1 0x1 PUSH1 0xFF NOT DUP3 SLOAD AND OR SWAP1 SSTORE PUSH32 0x2F8788117E7EFF1D82E926EC794901D17C78024A50270940304540A733656F0D CALLER SWAP4 DUP1 LOG4 PUSH1 0x1 SWAP1 JUMP JUMPDEST POP POP SWAP1 JUMP JUMPDEST SWAP1 PUSH1 0x0 SWAP2 DUP1 DUP4 MSTORE DUP3 PUSH1 0x20 MSTORE PUSH1 0x40 DUP4 KECCAK256 SWAP2 PUSH1 0x1 DUP1 PUSH1 0xA0 SHL SUB AND SWAP2 DUP3 DUP5 MSTORE PUSH1 0x20 MSTORE PUSH1 0xFF PUSH1 0x40 DUP5 KECCAK256 SLOAD AND PUSH1 0x0 EQ PUSH2 0xFEB JUMPI DUP1 DUP4 MSTORE DUP3 PUSH1 0x20 MSTORE PUSH1 0x40 DUP4 KECCAK256 DUP3 DUP5 MSTORE PUSH1 0x20 MSTORE PUSH1 0x40 DUP4 KECCAK256 PUSH1 0xFF NOT DUP2 SLOAD AND SWAP1 SSTORE PUSH32 0xF6391F5C32D9C69D2A47EA670B442974B53935D1EDC7FD64EB21E047A839171B CALLER SWAP4 DUP1 LOG4 PUSH1 0x1 SWAP1 JUMP JUMPDEST PUSH1 0x2 PUSH1 0x1 SLOAD EQ PUSH2 0x1076 JUMPI PUSH1 0x2 PUSH1 0x1 SSTORE JUMP JUMPDEST PUSH1 0x40 MLOAD PUSH4 0x3EE5AEB5 PUSH1 0xE0 SHL DUP2 MSTORE PUSH1 0x4 SWAP1 REVERT JUMPDEST SWAP1 PUSH1 0x1F DUP1 NOT SWAP2 ADD AND DUP2 ADD SWAP1 DUP2 LT PUSH8 0xFFFFFFFFFFFFFFFF DUP3 GT OR PUSH2 0x10AA JUMPI PUSH1 0x40 MSTORE JUMP JUMPDEST PUSH4 0x4E487B71 PUSH1 0xE0 SHL PUSH1 0x0 MSTORE PUSH1 0x41 PUSH1 0x4 MSTORE PUSH1 0x24 PUSH1 0x0 REVERT JUMPDEST SWAP1 PUSH1 0x0 PUSH1 0x20 SWAP2 DUP3 DUP2 MLOAD SWAP2 ADD DUP3 DUP6 GAS CALL ISZERO PUSH2 0x111C JUMPI PUSH1 0x0 MLOAD RETURNDATASIZE PUSH2 0x1113 JUMPI POP PUSH1 0x1 PUSH1 0x1 PUSH1 0xA0 SHL SUB DUP2 AND EXTCODESIZE ISZERO JUMPDEST PUSH2 0x10F1 JUMPI POP JUMP JUMPDEST PUSH1 0x40 MLOAD PUSH4 0x5274AFE7 PUSH1 0xE0 SHL DUP2 MSTORE PUSH1 0x1 PUSH1 0x1 PUSH1 0xA0 SHL SUB SWAP1 SWAP2 AND PUSH1 0x4 DUP3 ADD MSTORE PUSH1 0x24 SWAP1 REVERT JUMPDEST PUSH1 0x1 EQ ISZERO PUSH2 0x10EA JUMP JUMPDEST PUSH1 0x40 MLOAD RETURNDATASIZE PUSH1 0x0 DUP3 RETURNDATACOPY RETURNDATASIZE SWAP1 REVERT JUMPDEST SWAP2 SWAP1 DUP3 ADD DUP1 SWAP3 GT PUSH2 0x1135 JUMPI JUMP JUMPDEST PUSH4 0x4E487B71 PUSH1 0xE0 SHL PUSH1 0x0 MSTORE PUSH1 0x11 PUSH1 0x4 MSTORE PUSH1 0x24 PUSH1 0x0 REVERT JUMPDEST SWAP2 SWAP1 SWAP2 PUSH2 0x1156 PUSH2 0x2001 JUMP JUMPDEST PUSH1 0xFF PUSH1 0x2 SLOAD PUSH1 0xA0 SHR AND PUSH1 0x6 DUP2 LT ISZERO PUSH2 0xE8B JUMPI PUSH1 0x1 SUB PUSH2 0x12AB JUMPI PUSH1 0xFF PUSH1 0x6 SLOAD PUSH1 0x8 SHR AND PUSH2 0x1299 JUMPI PUSH32 0x0 DUP4 LT PUSH2 0x1287 JUMPI PUSH1 0x1 DUP1 PUSH1 0xA0 SHL SUB AND PUSH1 0x0 SWAP3 DUP2 DUP5 MSTORE PUSH1 0x7 PUSH1 0x20 MSTORE PUSH1 0x40 SWAP1 PUSH2 0x11C6 DUP2 DUP4 DUP8 KECCAK256 SLOAD PUSH2 0x1128 JUMP JUMPDEST PUSH32 0x0 DUP2 GT PUSH2 0x1276 JUMPI DUP4 DUP7 MSTORE PUSH1 0x7 PUSH1 0x20 MSTORE DUP3 DUP7 KECCAK256 SLOAD ISZERO PUSH2 0x124B JUMPI JUMPDEST DUP3 DUP7 DUP6 PUSH32 0xFA35A310D7113DDDCE1C275DA946348E9AAEBF9050B00B372033C4D84B0BD6EB SWAP7 SWAP8 SWAP9 MSTORE PUSH1 0x7 PUSH1 0x20 MSTORE KECCAK256 SSTORE PUSH2 0x123A DUP2 PUSH1 0x3 SLOAD PUSH2 0x1128 JUMP JUMPDEST DUP1 PUSH1 0x3 SSTORE DUP3 MLOAD SWAP2 DUP3 MSTORE PUSH1 0x20 DUP3 ADD MSTORE LOG2 JUMP JUMPDEST PUSH1 0x4 SLOAD PUSH1 0x0 NOT DUP2 EQ PUSH2 0x1262 JUMPI PUSH1 0x1 ADD PUSH1 0x4 SSTORE PUSH2 0x11FF JUMP JUMPDEST PUSH4 0x4E487B71 PUSH1 0xE0 SHL DUP8 MSTORE PUSH1 0x11 PUSH1 0x4 MSTORE PUSH1 0x24 DUP8 REVERT JUMPDEST DUP3 MLOAD PUSH4 0x5E508CD3 PUSH1 0xE1 SHL DUP2 MSTORE PUSH1 0x4 SWAP1 REVERT JUMPDEST PUSH1 0x40 MLOAD PUSH4 0x6C7591B5 PUSH1 0xE1 SHL DUP2 MSTORE PUSH1 0x4 SWAP1 REVERT JUMPDEST PUSH1 0x40 MLOAD PUSH4 0xAB35696F PUSH1 0xE0 SHL DUP2 MSTORE PUSH1 0x4 SWAP1 REVERT JUMPDEST PUSH1 0x40 MLOAD PUSH4 0x7A92F19 PUSH1 0xE5 SHL DUP2 MSTORE PUSH1 0x4 SWAP1 REVERT JUMPDEST DUP2 DUP2 MUL SWAP3 SWAP2 DUP2 ISZERO SWAP2 DUP5 DIV EQ OR ISZERO PUSH2 0x1135 JUMPI JUMP JUMPDEST DUP2 ISZERO PUSH2 0x12DA JUMPI DIV SWAP1 JUMP JUMPDEST PUSH4 0x4E487B71 PUSH1 0xE0 SHL PUSH1 0x0 MSTORE PUSH1 0x12 PUSH1 0x4 MSTORE PUSH1 0x24 PUSH1 0x0 REVERT JUMPDEST SWAP2 SWAP1 DUP3 SUB SWAP2 DUP3 GT PUSH2 0x1135 JUMPI JUMP JUMPDEST RETURNDATASIZE ISZERO PUSH2 0x1338 JUMPI RETURNDATASIZE SWAP1 PUSH8 0xFFFFFFFFFFFFFFFF DUP3 GT PUSH2 0x10AA JUMPI PUSH1 0x40 MLOAD SWAP2 PUSH2 0x132C PUSH1 0x1F DUP3 ADD PUSH1 0x1F NOT AND PUSH1 0x20 ADD DUP5 PUSH2 0x1088 JUMP JUMPDEST DUP3 MSTORE RETURNDATASIZE PUSH1 0x0 PUSH1 0x20 DUP5 ADD RETURNDATACOPY JUMP JUMPDEST PUSH1 0x60 SWAP1 JUMP JUMPDEST PUSH2 0x1345 PUSH2 0x2001 JUMP JUMPDEST PUSH1 0x2 SLOAD PUSH1 0x0 PUSH1 0xFF DUP3 PUSH1 0xA0 SHR AND PUSH1 0x6 DUP2 LT ISZERO PUSH2 0x1F58 JUMPI PUSH1 0x2 SUB PUSH2 0x12AB JUMPI PUSH1 0x6 SLOAD PUSH1 0xFF DUP2 AND PUSH2 0x12AB JUMPI PUSH1 0xFF NOT AND PUSH1 0x1 OR PUSH1 0x6 SSTORE PUSH1 0x3 SLOAD SWAP2 PUSH32 0x0 DUP4 LT PUSH2 0x1F21 JUMPI POP PUSH8 0xDE0B6B3A7640000 SWAP1 DUP2 DUP4 MUL DUP4 ISZERO SWAP3 DUP5 DUP3 DIV EQ DUP4 OR ISZERO PUSH2 0x1F0D JUMPI PUSH2 0x13E8 SWAP1 PUSH32 0x0 SWAP1 PUSH2 0x12D0 JUMP JUMPDEST PUSH1 0x5 SSTORE PUSH2 0x1F4 SWAP2 DUP3 DUP5 MUL SWAP3 DUP5 DUP5 DIV EQ OR ISZERO PUSH2 0x1EF9 JUMPI PUSH2 0x140D PUSH2 0x2710 DUP1 SWAP4 DIV DUP1 SWAP5 PUSH2 0x12F0 JUMP JUMPDEST SWAP3 PUSH32 0x0 PUSH1 0x1 PUSH1 0x1 PUSH1 0xA0 SHL SUB AND PUSH2 0x1EA0 JUMPI PUSH32 0x0 PUSH1 0x1 PUSH1 0x1 PUSH1 0xA0 SHL SUB AND DUP1 EXTCODESIZE ISZERO PUSH2 0x2DF JUMPI DUP3 SWAP1 PUSH1 0x24 PUSH1 0x40 MLOAD DUP1 SWAP5 DUP2 SWAP4 PUSH4 0x39650D1F PUSH1 0xE0 SHL DUP4 MSTORE ADDRESS PUSH1 0x4 DUP5 ADD MSTORE GAS CALL DUP1 ISZERO PUSH2 0x1B02 JUMPI PUSH2 0x1E74 JUMPI JUMPDEST POP JUMPDEST PUSH32 0x0 SWAP2 PUSH2 0x14EF DUP2 PUSH2 0x14C7 DUP6 DUP8 PUSH2 0x12BD JUMP JUMPDEST DIV SWAP4 PUSH32 0x0 PUSH2 0x12BD JUMP JUMPDEST PUSH1 0x40 MLOAD PUSH4 0x95EA7B3 PUSH1 0xE0 SHL DUP2 MSTORE PUSH32 0x0 PUSH1 0x1 PUSH1 0x1 PUSH1 0xA0 SHL SUB AND PUSH1 0x4 DUP3 ADD MSTORE SWAP2 SWAP1 DIV PUSH1 0x24 DUP3 ADD DUP2 SWAP1 MSTORE SWAP1 PUSH1 0x20 DUP2 DUP1 PUSH1 0x44 DUP2 ADD SUB DUP2 DUP7 PUSH32 0x0 PUSH1 0x1 PUSH1 0x1 PUSH1 0xA0 SHL SUB AND GAS CALL DUP1 ISZERO PUSH2 0x1B2C JUMPI PUSH2 0x1E55 JUMPI JUMPDEST POP PUSH32 0x0 PUSH1 0x1 PUSH1 0x1 PUSH1 0xA0 SHL SUB AND PUSH2 0x1B98 JUMPI PUSH2 0x12C TIMESTAMP ADD DUP1 TIMESTAMP GT PUSH2 0x1B84 JUMPI PUSH1 0x40 MLOAD SWAP2 PUSH4 0xF305D719 PUSH1 0xE0 SHL DUP4 MSTORE PUSH1 0x1 DUP1 PUSH1 0xA0 SHL SUB PUSH32 0x0 AND PUSH1 0x4 DUP5 ADD MSTORE PUSH1 0x24 DUP4 ADD MSTORE DUP3 PUSH1 0x44 DUP4 ADD MSTORE DUP3 PUSH1 0x64 DUP4 ADD MSTORE ADDRESS PUSH1 0x84 DUP4 ADD MSTORE PUSH1 0xA4 DUP3 ADD MSTORE PUSH1 0x60 DUP2 PUSH1 0xC4 DUP2 DUP7 PUSH1 0x1 DUP1 PUSH1 0xA0 SHL SUB PUSH32 0x0 AND GAS CALL DUP1 ISZERO PUSH2 0x1B02 JUMPI PUSH2 0x1B56 JUMPI JUMPDEST POP PUSH1 0x40 MLOAD PUSH4 0xC45A0155 PUSH1 0xE0 SHL DUP2 MSTORE PUSH1 0x20 DUP2 PUSH1 0x4 DUP2 PUSH32 0x0 PUSH1 0x1 PUSH1 0x1 PUSH1 0xA0 SHL SUB AND GAS STATICCALL SWAP1 DUP2 ISZERO PUSH2 0x1B02 JUMPI DUP3 SWAP2 PUSH2 0x1B37 JUMPI JUMPDEST POP PUSH1 0x40 MLOAD PUSH4 0x15AB88C9 PUSH1 0xE3 SHL DUP2 MSTORE SWAP1 PUSH1 0x20 DUP3 PUSH1 0x4 DUP2 PUSH32 0x0 PUSH1 0x1 PUSH1 0x1 PUSH1 0xA0 SHL SUB AND GAS STATICCALL SWAP2 DUP3 ISZERO PUSH2 0x1B2C JUMPI SWAP2 PUSH1 0x20 SWAP2 PUSH2 0x1743 SWAP4 DUP6 SWAP3 PUSH2 0x1B0D JUMPI JUMPDEST POP PUSH1 0x40 MLOAD PUSH4 0xE6A43905 PUSH1 0xE0 SHL DUP2 MSTORE PUSH1 0x1 PUSH1 0x1 PUSH1 0xA0 SHL SUB PUSH32 0x0 DUP2 AND PUSH1 0x4 DUP4 ADD MSTORE SWAP1 SWAP3 AND PUSH1 0x24 DUP4 ADD MSTORE SWAP1 SWAP3 DUP4 SWAP2 SWAP1 DUP3 SWAP1 DUP2 SWAP1 PUSH1 0x44 DUP3 ADD SWAP1 JUMP JUMPDEST SUB SWAP2 PUSH1 0x1 PUSH1 0x1 PUSH1 0xA0 SHL SUB AND GAS STATICCALL SWAP1 DUP2 ISZERO PUSH2 0x1B02 JUMPI DUP3 SWAP2 PUSH2 0x1AD3 JUMPI JUMPDEST POP JUMPDEST PUSH1 0x1 DUP1 PUSH1 0xA0 SHL SUB AND SWAP3 PUSH1 0x40 MLOAD SWAP3 PUSH4 0x70A08231 PUSH1 0xE0 SHL SWAP1 DUP2 DUP6 MSTORE ADDRESS PUSH1 0x4 DUP7 ADD MSTORE PUSH1 0x20 DUP6 PUSH1 0x24 DUP2 DUP10 GAS STATICCALL SWAP5 DUP6 ISZERO PUSH2 0x1AC8 JUMPI DUP5 SWAP6 PUSH2 0x1A94 JUMPI JUMPDEST POP PUSH3 0x278D00 PUSH32 0x0 DUP2 DUP2 MUL SWAP2 DUP2 ISZERO SWAP2 DUP4 DIV EQ OR ISZERO PUSH2 0x1A80 JUMPI PUSH2 0x17D6 SWAP1 TIMESTAMP PUSH2 0x1128 JUMP JUMPDEST SWAP3 DUP7 PUSH32 0xAC1D76749E5447B7B16F5AB61447E1BD502F3BB4807AF3B28E620D1700A6EE45 PUSH1 0x40 PUSH32 0x0 SWAP7 PUSH2 0x1828 DUP11 DUP10 DUP7 PUSH2 0x1F6C JUMP JUMPDEST DUP2 MLOAD SWAP1 DUP11 DUP3 MSTORE PUSH1 0x20 DUP3 ADD MSTORE LOG2 PUSH32 0x0 PUSH1 0x1 PUSH1 0x1 PUSH1 0xA0 SHL SUB DUP2 AND PUSH2 0x197E JUMPI JUMPDEST POP PUSH2 0x186F SWAP3 POP PUSH2 0x12F0 JUMP JUMPDEST SWAP1 PUSH32 0x0 PUSH1 0x1 PUSH1 0x1 PUSH1 0xA0 SHL SUB AND PUSH2 0x191D JUMPI DUP3 DUP1 SWAP3 DUP2 SWAP3 GAS CALL PUSH2 0x18AD PUSH2 0x12FD JUMP JUMPDEST POP ISZERO PUSH2 0x190B JUMPI PUSH32 0x6E4389167D2AFBD1CCB4797EA87E29958ADBF74CD16BA077A2EE5AB8460784E5 SWAP2 PUSH1 0x80 SWAP2 JUMPDEST PUSH1 0x3 PUSH1 0xA0 SHL PUSH1 0xFF PUSH1 0xA0 SHL NOT PUSH1 0x2 SLOAD AND OR PUSH1 0x2 SSTORE PUSH1 0x5 SLOAD SWAP2 PUSH1 0x3 SLOAD PUSH1 0x40 MLOAD SWAP4 DUP5 MSTORE PUSH1 0x20 DUP5 ADD MSTORE PUSH1 0x40 DUP4 ADD MSTORE PUSH1 0x60 DUP3 ADD MSTORE LOG1 JUMP JUMPDEST PUSH1 0x40 MLOAD PUSH4 0x12171D83 PUSH1 0xE3 SHL DUP2 MSTORE PUSH1 0x4 SWAP1 REVERT JUMPDEST PUSH32 0x6E4389167D2AFBD1CCB4797EA87E29958ADBF74CD16BA077A2EE5AB8460784E5 SWAP5 PUSH1 0x80 SWAP5 SWAP1 SWAP4 POP SWAP2 PUSH2 0x1979 SWAP2 PUSH32 0x0 PUSH1 0x1 PUSH1 0x1 PUSH1 0xA0 SHL SUB AND PUSH2 0x1F6C JUMP JUMPDEST PUSH2 0x18D9 JUMP JUMPDEST PUSH1 0x40 MLOAD SWAP4 DUP5 MSTORE ADDRESS PUSH1 0x4 DUP6 ADD MSTORE PUSH1 0x20 DUP5 PUSH1 0x24 DUP2 PUSH32 0x0 PUSH1 0x1 PUSH1 0x1 PUSH1 0xA0 SHL SUB AND GAS STATICCALL SWAP4 DUP5 ISZERO PUSH2 0x1A75 JUMPI DUP7 SWAP5 PUSH2 0x1A3F JUMPI JUMPDEST POP PUSH2 0x19F9 PUSH2 0x186F SWAP5 PUSH32 0x0 SWAP1 PUSH2 0x12F0 JUMP JUMPDEST DUP1 PUSH2 0x1A05 JUMPI JUMPDEST POP PUSH2 0x1864 JUMP JUMPDEST PUSH2 0x1A38 SWAP2 PUSH32 0x0 PUSH1 0x1 PUSH1 0x1 PUSH1 0xA0 SHL SUB AND PUSH2 0x1F6C JUMP JUMPDEST CODESIZE DUP1 PUSH2 0x19FF JUMP JUMPDEST SWAP4 POP PUSH1 0x20 DUP5 RETURNDATASIZE PUSH1 0x20 GT PUSH2 0x1A6D JUMPI JUMPDEST DUP2 PUSH2 0x1A5A PUSH1 0x20 SWAP4 DUP4 PUSH2 0x1088 JUMP JUMPDEST DUP2 ADD SUB SLT PUSH2 0xEB7 JUMPI SWAP3 MLOAD SWAP3 PUSH2 0x19F9 PUSH2 0x19CA JUMP JUMPDEST RETURNDATASIZE SWAP2 POP PUSH2 0x1A4D JUMP JUMPDEST PUSH1 0x40 MLOAD RETURNDATASIZE DUP9 DUP3 RETURNDATACOPY RETURNDATASIZE SWAP1 REVERT JUMPDEST PUSH4 0x4E487B71 PUSH1 0xE0 SHL DUP6 MSTORE PUSH1 0x11 PUSH1 0x4 MSTORE PUSH1 0x24 DUP6 REVERT JUMPDEST SWAP1 SWAP5 POP PUSH1 0x20 DUP2 RETURNDATASIZE PUSH1 0x20 GT PUSH2 0x1AC0 JUMPI JUMPDEST DUP2 PUSH2 0x1AB0 PUSH1 0x20 SWAP4 DUP4 PUSH2 0x1088 JUMP JUMPDEST DUP2 ADD SUB SLT PUSH2 0xEB7 JUMPI MLOAD SWAP4 CODESIZE PUSH2 0x1796 JUMP JUMPDEST RETURNDATASIZE SWAP2 POP PUSH2 0x1AA3 JUMP JUMPDEST PUSH1 0x40 MLOAD RETURNDATASIZE DUP7 DUP3 RETURNDATACOPY RETURNDATASIZE SWAP1 REVERT JUMPDEST PUSH2 0x1AF5 SWAP2 POP PUSH1 0x20 RETURNDATASIZE PUSH1 0x20 GT PUSH2 0x1AFB JUMPI JUMPDEST PUSH2 0x1AED DUP2 DUP4 PUSH2 0x1088 JUMP JUMPDEST DUP2 ADD SWAP1 PUSH2 0x1FE2 JUMP JUMPDEST CODESIZE PUSH2 0x175E JUMP JUMPDEST POP RETURNDATASIZE PUSH2 0x1AE3 JUMP JUMPDEST PUSH1 0x40 MLOAD RETURNDATASIZE DUP5 DUP3 RETURNDATACOPY RETURNDATASIZE SWAP1 REVERT JUMPDEST PUSH2 0x1B25 SWAP2 SWAP3 POP DUP4 RETURNDATASIZE DUP6 GT PUSH2 0x1AFB JUMPI PUSH2 0x1AED DUP2 DUP4 PUSH2 0x1088 JUMP JUMPDEST SWAP1 CODESIZE PUSH2 0x16ED JUMP JUMPDEST PUSH1 0x40 MLOAD RETURNDATASIZE DUP6 DUP3 RETURNDATACOPY RETURNDATASIZE SWAP1 REVERT JUMPDEST PUSH2 0x1B50 SWAP2 POP PUSH1 0x20 RETURNDATASIZE PUSH1 0x20 GT PUSH2 0x1AFB JUMPI PUSH2 0x1AED DUP2 DUP4 PUSH2 0x1088 JUMP JUMPDEST CODESIZE PUSH2 0x1696 JUMP JUMPDEST PUSH2 0x1B76 SWAP1 PUSH1 0x60 RETURNDATASIZE DUP2 GT PUSH2 0x1B7D JUMPI JUMPDEST PUSH2 0x1B6E DUP2 DUP4 PUSH2 0x1088 JUMP JUMPDEST DUP2 ADD SWAP1 PUSH2 0x1FC7 JUMP JUMPDEST POP POP PUSH2 0x1648 JUMP JUMPDEST POP RETURNDATASIZE PUSH2 0x1B64 JUMP JUMPDEST PUSH4 0x4E487B71 PUSH1 0xE0 SHL DUP4 MSTORE PUSH1 0x11 PUSH1 0x4 MSTORE PUSH1 0x24 DUP4 REVERT JUMPDEST PUSH1 0x40 MLOAD PUSH4 0x95EA7B3 PUSH1 0xE0 SHL DUP2 MSTORE PUSH32 0x0 PUSH1 0x1 PUSH1 0x1 PUSH1 0xA0 SHL SUB AND PUSH1 0x4 DUP3 ADD MSTORE PUSH1 0x24 DUP2 ADD DUP5 SWAP1 MSTORE PUSH1 0x20 DUP2 DUP1 PUSH1 0x44 DUP2 ADD SUB DUP2 DUP7 PUSH32 0x0 PUSH1 0x1 PUSH1 0x1 PUSH1 0xA0 SHL SUB AND GAS CALL DUP1 ISZERO PUSH2 0x1B2C JUMPI PUSH2 0x1E26 JUMPI JUMPDEST POP PUSH2 0x12C TIMESTAMP ADD DUP1 TIMESTAMP GT PUSH2 0x1B84 JUMPI PUSH1 0x40 MLOAD SWAP2 PUSH3 0xE8E337 PUSH1 0xE8 SHL DUP4 MSTORE PUSH1 0x1 DUP1 PUSH1 0xA0 SHL SUB PUSH32 0x0 AND PUSH1 0x4 DUP5 ADD MSTORE PUSH1 0x1 DUP1 PUSH1 0xA0 SHL SUB PUSH32 0x0 AND PUSH1 0x24 DUP5 ADD MSTORE PUSH1 0x44 DUP4 ADD MSTORE DUP4 PUSH1 0x64 DUP4 ADD MSTORE DUP3 PUSH1 0x84 DUP4 ADD MSTORE DUP3 PUSH1 0xA4 DUP4 ADD MSTORE ADDRESS PUSH1 0xC4 DUP4 ADD MSTORE PUSH1 0xE4 DUP3 ADD MSTORE PUSH1 0x60 DUP2 PUSH2 0x104 DUP2 DUP6 PUSH1 0x1 DUP1 PUSH1 0xA0 SHL SUB PUSH32 0x0 AND GAS CALL DUP1 ISZERO PUSH2 0x1B02 JUMPI PUSH2 0x1E08 JUMPI JUMPDEST POP PUSH1 0x40 MLOAD PUSH4 0xC45A0155 PUSH1 0xE0 SHL DUP2 MSTORE PUSH1 0x20 DUP2 PUSH1 0x4 DUP2 PUSH32 0x0 PUSH1 0x1 PUSH1 0x1 PUSH1 0xA0 SHL SUB AND GAS STATICCALL SWAP1 DUP2 ISZERO PUSH2 0x1B02 JUMPI DUP3 SWAP2 PUSH2 0x1DE9 JUMPI JUMPDEST POP PUSH1 0x40 MLOAD PUSH4 0xE6A43905 PUSH1 0xE0 SHL DUP2 MSTORE PUSH1 0x1 PUSH1 0x1 PUSH1 0xA0 SHL SUB PUSH32 0x0 DUP2 AND PUSH1 0x4 DUP4 ADD MSTORE PUSH32 0x0 DUP2 AND PUSH1 0x24 DUP4 ADD MSTORE SWAP1 SWAP2 PUSH1 0x20 SWAP2 DUP4 SWAP2 PUSH1 0x44 SWAP2 DUP4 SWAP2 AND GAS STATICCALL SWAP1 DUP2 ISZERO PUSH2 0x1B02 JUMPI DUP3 SWAP2 PUSH2 0x1DCA JUMPI JUMPDEST POP PUSH2 0x1760 JUMP JUMPDEST PUSH2 0x1DE3 SWAP2 POP PUSH1 0x20 RETURNDATASIZE PUSH1 0x20 GT PUSH2 0x1AFB JUMPI PUSH2 0x1AED DUP2 DUP4 PUSH2 0x1088 JUMP JUMPDEST CODESIZE PUSH2 0x1DC4 JUMP JUMPDEST PUSH2 0x1E02 SWAP2 POP PUSH1 0x20 RETURNDATASIZE PUSH1 0x20 GT PUSH2 0x1AFB JUMPI PUSH2 0x1AED DUP2 DUP4 PUSH2 0x1088 JUMP JUMPDEST CODESIZE PUSH2 0x1D41 JUMP JUMPDEST PUSH2 0x1E1F SWAP1 PUSH1 0x60 RETURNDATASIZE DUP2 GT PUSH2 0x1B7D JUMPI PUSH2 0x1B6E DUP2 DUP4 PUSH2 0x1088 JUMP JUMPDEST POP POP PUSH2 0x1CF3 JUMP JUMPDEST PUSH2 0x1E47 SWAP1 PUSH1 0x20 RETURNDATASIZE PUSH1 0x20 GT PUSH2 0x1E4E JUMPI JUMPDEST PUSH2 0x1E3F DUP2 DUP4 PUSH2 0x1088 JUMP JUMPDEST DUP2 ADD SWAP1 PUSH2 0x1FAF JUMP JUMPDEST POP CODESIZE PUSH2 0x1C1D JUMP JUMPDEST POP RETURNDATASIZE PUSH2 0x1E35 JUMP JUMPDEST PUSH2 0x1E6D SWAP1 PUSH1 0x20 RETURNDATASIZE PUSH1 0x20 GT PUSH2 0x1E4E JUMPI PUSH2 0x1E3F DUP2 DUP4 PUSH2 0x1088 JUMP JUMPDEST POP CODESIZE PUSH2 0x1578 JUMP JUMPDEST PUSH8 0xFFFFFFFFFFFFFFFF DUP2 GT PUSH2 0x1E8C JUMPI PUSH1 0x40 MSTORE CODESIZE PUSH2 0x1495 JUMP JUMPDEST PUSH4 0x4E487B71 PUSH1 0xE0 SHL DUP3 MSTORE PUSH1 0x41 PUSH1 0x4 MSTORE PUSH1 0x24 DUP3 REVERT JUMPDEST PUSH2 0x1EF4 SWAP1 PUSH32 0x0 PUSH32 0x0 PUSH1 0x1 PUSH1 0x1 PUSH1 0xA0 SHL SUB AND PUSH2 0x1F6C JUMP JUMPDEST PUSH2 0x1497 JUMP JUMPDEST PUSH4 0x4E487B71 PUSH1 0xE0 SHL DUP2 MSTORE PUSH1 0x11 PUSH1 0x4 MSTORE PUSH1 0x24 SWAP1 REVERT JUMPDEST PUSH4 0x4E487B71 PUSH1 0xE0 SHL DUP3 MSTORE PUSH1 0x11 PUSH1 0x4 MSTORE PUSH1 0x24 DUP3 REVERT JUMPDEST PUSH1 0xFF PUSH1 0xA0 SHL NOT AND PUSH1 0x1 PUSH1 0xA2 SHL OR PUSH1 0x2 SSTORE PUSH32 0xE48846A3DCA191C762AB6AAA1E929CCAF55E31A875FB78AD1B93E15EF4830ACA SWAP2 POP DUP1 LOG1 JUMP JUMPDEST PUSH4 0x4E487B71 PUSH1 0xE0 SHL DUP3 MSTORE PUSH1 0x21 PUSH1 0x4 MSTORE PUSH1 0x24 DUP3 REVERT JUMPDEST PUSH1 0x40 MLOAD PUSH4 0xA9059CBB PUSH1 0xE0 SHL PUSH1 0x20 DUP3 ADD MSTORE PUSH1 0x1 PUSH1 0x1 PUSH1 0xA0 SHL SUB SWAP3 SWAP1 SWAP3 AND PUSH1 0x24 DUP4 ADD MSTORE PUSH1 0x44 DUP1 DUP4 ADD SWAP4 SWAP1 SWAP4 MSTORE SWAP2 DUP2 MSTORE PUSH2 0x1FAD SWAP2 PUSH2 0x1FA8 PUSH1 0x64 DUP4 PUSH2 0x1088 JUMP JUMPDEST PUSH2 0x10C0 JUMP JUMPDEST JUMP JUMPDEST SWAP1 DUP2 PUSH1 0x20 SWAP2 SUB SLT PUSH2 0xEB7 JUMPI MLOAD DUP1 ISZERO ISZERO DUP2 SUB PUSH2 0xEB7 JUMPI SWAP1 JUMP JUMPDEST SWAP1 DUP2 PUSH1 0x60 SWAP2 SUB SLT PUSH2 0xEB7 JUMPI DUP1 MLOAD SWAP2 PUSH1 0x40 PUSH1 0x20 DUP4 ADD MLOAD SWAP3 ADD MLOAD SWAP1 JUMP JUMPDEST SWAP1 DUP2 PUSH1 0x20 SWAP2 SUB SLT PUSH2 0xEB7 JUMPI MLOAD PUSH1 0x1 PUSH1 0x1 PUSH1 0xA0 SHL SUB DUP2 AND DUP2 SUB PUSH2 0xEB7 JUMPI SWAP1 JUMP JUMPDEST PUSH1 0x2 SLOAD PUSH1 0xFF DUP2 PUSH1 0xA0 SHR AND PUSH1 0x6 DUP2 LT ISZERO PUSH2 0xE8B JUMPI DUP1 ISZERO DUP1 PUSH2 0x2084 JUMPI JUMPDEST ISZERO PUSH2 0x2038 JUMPI POP POP PUSH1 0x2 DUP1 SLOAD PUSH1 0xFF PUSH1 0xA0 SHL NOT AND PUSH1 0x1 PUSH1 0xA0 SHL OR SWAP1 SSTORE JUMP JUMPDEST PUSH1 0x1 EQ DUP1 PUSH2 0x205A JUMPI JUMPDEST PUSH2 0x2048 JUMPI POP JUMP JUMPDEST PUSH1 0xFF PUSH1 0xA0 SHL NOT AND PUSH1 0x1 PUSH1 0xA1 SHL OR PUSH1 0x2 SSTORE JUMP JUMPDEST POP PUSH32 0x0 TIMESTAMP LT ISZERO PUSH2 0x2041 JUMP JUMPDEST POP PUSH32 0x0 TIMESTAMP LT ISZERO PUSH2 0x201C JUMP JUMPDEST PUSH1 0xFF PUSH1 0x2 SLOAD PUSH1 0xA0 SHR AND PUSH1 0x6 DUP2 LT ISZERO PUSH2 0xE8B JUMPI DUP1 ISZERO DUP1 PUSH2 0x2114 JUMPI JUMPDEST ISZERO PUSH2 0x20D3 JUMPI POP PUSH1 0x1 SWAP1 JUMP JUMPDEST PUSH1 0x1 DUP2 EQ DUP1 PUSH2 0x20EA JUMPI JUMPDEST PUSH2 0x20E4 JUMPI SWAP1 JUMP JUMPDEST POP PUSH1 0x2 SWAP1 JUMP JUMPDEST POP PUSH32 0x0 TIMESTAMP LT ISZERO PUSH2 0x20DD JUMP JUMPDEST POP PUSH32 0x0 TIMESTAMP LT ISZERO PUSH2 0x20C8 JUMP JUMPDEST PUSH1 0xFF PUSH1 0x2 SLOAD PUSH1 0xA0 SHR AND PUSH1 0x6 DUP2 LT ISZERO PUSH2 0xE8B JUMPI PUSH1 0x3 SUB PUSH2 0x21B3 JUMPI PUSH1 0x3 SLOAD DUP1 ISZERO PUSH2 0x21AC JUMPI PUSH2 0x21A9 SWAP2 PUSH1 0x1 DUP1 PUSH1 0xA0 SHL SUB AND PUSH1 0x0 MSTORE PUSH1 0x7 PUSH1 0x20 MSTORE PUSH2 0x21A4 PUSH1 0x40 PUSH1 0x0 KECCAK256 SLOAD PUSH32 0x0 SWAP1 PUSH2 0x12BD JUMP JUMPDEST PUSH2 0x12D0 JUMP JUMPDEST SWAP1 JUMP JUMPDEST POP POP PUSH1 0x0 SWAP1 JUMP JUMPDEST POP PUSH1 0x0 SWAP1 JUMP INVALID LOG2 PUSH5 0x6970667358 0x22 SLT KECCAK256 LOG4 0xB8 0xC0 0xC9 BALANCE INVALID 0x4A SWAP3 COINBASE PUSH4 0x3E43750D 0x27 0xF9 0x1E CALLDATASIZE DUP10 SWAP6 SHR 0xEA LOG2 0xBC SWAP13 0xC9 0xCB 0x2A SELFBALANCE 0xA7 CALLVALUE REVERT PUSH5 0x736F6C6343 STOP ADDMOD EQ STOP CALLER "},"methodIdentifiers":{"ADMIN_ROLE()":"75b238fc","DEFAULT_ADMIN_ROLE()":"a217fddf","cancel()":"ea8a1af0","claimTokens()":"48c54b9d","contribute()":"d7bb99ba","contributeERC20(uint256)":"8160059a","contributions(address)":"42e94c90","dexId()":"220c0956","dexRouter()":"0758d924","endTime()":"3197cbb6","feeSplitter()":"6052970c","finalTokenPrice()":"1cc64544","finalize()":"4bb278f3","getFinalPrice()":"9ce05df7","getRoleAdmin(bytes32)":"248a9ca3","getStatus()":"4e69d560","getUserAllocation(address)":"b920ade2","getUserContribution(address)":"bb8b2b47","grantRole(bytes32,address)":"2f2ff15d","hasClaimed(address)":"73b2e80e","hasRole(bytes32,address)":"91d14854","isFinalized()":"8d4e4083","isPaused()":"b187bd26","liquidityPercent()":"b0683755","listingPremiumBps()":"0b7c1ae1","lpLockMonths()":"8bcd8515","lpLocker()":"03fc2013","maxContribution()":"8d3d6576","minContribution()":"aaffadf3","participantCount()":"362f04c0","pause()":"8456cb59","paymentToken()":"3013ce29","projectOwner()":"a4475ce4","projectToken()":"4b60ce77","refund()":"590e1ae3","renounceRole(bytes32,address)":"36568abe","revokeRole(bytes32,address)":"d547741f","softcap()":"f89be593","startTime()":"78e97925","status()":"200d2ed2","supportsInterface(bytes4)":"01ffc9a7","teamVesting()":"619f3d6c","tokensForSale()":"12aef8c3","totalRaised()":"c5c4744c","unpause()":"3f4ba83a"}}}}}