{"contracts/ama/AMAPurchaseRegistry.sol":{"AMAPurchaseRegistry":{"abi":[{"inputs":[{"internalType":"address","name":"_treasury","type":"address"},{"internalType":"address","name":"_priceFeed","type":"address"},{"internalType":"uint256","name":"_manualPriceBNB","type":"uint256"}],"stateMutability":"nonpayable","type":"constructor"},{"inputs":[],"name":"AlreadyRefunded","type":"error"},{"inputs":[],"name":"EnforcedPause","type":"error"},{"inputs":[],"name":"ExpectedPause","type":"error"},{"inputs":[],"name":"InsufficientPayment","type":"error"},{"inputs":[],"name":"InvalidAddress","type":"error"},{"inputs":[{"internalType":"address","name":"owner","type":"address"}],"name":"OwnableInvalidOwner","type":"error"},{"inputs":[{"internalType":"address","name":"account","type":"address"}],"name":"OwnableUnauthorizedAccount","type":"error"},{"inputs":[],"name":"ReentrancyGuardReentrantCall","type":"error"},{"inputs":[],"name":"RequestAlreadyExists","type":"error"},{"inputs":[],"name":"RequestNotFound","type":"error"},{"inputs":[],"name":"StalePrice","type":"error"},{"inputs":[],"name":"TransferFailed","type":"error"},{"anonymous":false,"inputs":[{"indexed":true,"internalType":"bytes32","name":"requestId","type":"bytes32"},{"indexed":true,"internalType":"address","name":"developer","type":"address"},{"indexed":false,"internalType":"uint256","name":"amountRefunded","type":"uint256"}],"name":"AMARefunded","type":"event"},{"anonymous":false,"inputs":[{"indexed":true,"internalType":"bytes32","name":"requestId","type":"bytes32"},{"indexed":true,"internalType":"address","name":"developer","type":"address"},{"indexed":false,"internalType":"uint256","name":"amountPaid","type":"uint256"},{"indexed":false,"internalType":"uint256","name":"timestamp","type":"uint256"}],"name":"AMARequested","type":"event"},{"anonymous":false,"inputs":[{"indexed":false,"internalType":"uint256","name":"oldPrice","type":"uint256"},{"indexed":false,"internalType":"uint256","name":"newPrice","type":"uint256"}],"name":"ManualPriceUpdated","type":"event"},{"anonymous":false,"inputs":[{"indexed":false,"internalType":"bool","name":"useOracle","type":"bool"}],"name":"OracleToggled","type":"event"},{"anonymous":false,"inputs":[{"indexed":true,"internalType":"address","name":"previousOwner","type":"address"},{"indexed":true,"internalType":"address","name":"newOwner","type":"address"}],"name":"OwnershipTransferred","type":"event"},{"anonymous":false,"inputs":[{"indexed":false,"internalType":"address","name":"account","type":"address"}],"name":"Paused","type":"event"},{"anonymous":false,"inputs":[{"indexed":true,"internalType":"address","name":"oldFeed","type":"address"},{"indexed":true,"internalType":"address","name":"newFeed","type":"address"}],"name":"PriceFeedUpdated","type":"event"},{"anonymous":false,"inputs":[{"indexed":true,"internalType":"address","name":"oldTreasury","type":"address"},{"indexed":true,"internalType":"address","name":"newTreasury","type":"address"}],"name":"TreasuryUpdated","type":"event"},{"anonymous":false,"inputs":[{"indexed":false,"internalType":"address","name":"account","type":"address"}],"name":"Unpaused","type":"event"},{"inputs":[],"name":"AMA_FEE_USD","outputs":[{"internalType":"uint256","name":"","type":"uint256"}],"stateMutability":"view","type":"function"},{"inputs":[],"name":"emergencyWithdraw","outputs":[],"stateMutability":"nonpayable","type":"function"},{"inputs":[],"name":"getOraclePrice","outputs":[{"internalType":"int256","name":"","type":"int256"}],"stateMutability":"view","type":"function"},{"inputs":[{"internalType":"bytes32","name":"requestId","type":"bytes32"}],"name":"getRequest","outputs":[{"internalType":"address","name":"developer","type":"address"},{"internalType":"uint256","name":"amountPaid","type":"uint256"},{"internalType":"uint256","name":"timestamp","type":"uint256"},{"internalType":"bool","name":"refunded","type":"bool"}],"stateMutability":"view","type":"function"},{"inputs":[],"name":"getRequiredBNB","outputs":[{"internalType":"uint256","name":"","type":"uint256"}],"stateMutability":"view","type":"function"},{"inputs":[],"name":"manualPriceBNB","outputs":[{"internalType":"uint256","name":"","type":"uint256"}],"stateMutability":"view","type":"function"},{"inputs":[],"name":"owner","outputs":[{"internalType":"address","name":"","type":"address"}],"stateMutability":"view","type":"function"},{"inputs":[],"name":"pause","outputs":[],"stateMutability":"nonpayable","type":"function"},{"inputs":[],"name":"paused","outputs":[{"internalType":"bool","name":"","type":"bool"}],"stateMutability":"view","type":"function"},{"inputs":[],"name":"priceFeed","outputs":[{"internalType":"contract AggregatorV3Interface","name":"","type":"address"}],"stateMutability":"view","type":"function"},{"inputs":[{"internalType":"bytes32","name":"requestId","type":"bytes32"}],"name":"refundRequest","outputs":[],"stateMutability":"nonpayable","type":"function"},{"inputs":[],"name":"renounceOwnership","outputs":[],"stateMutability":"nonpayable","type":"function"},{"inputs":[{"internalType":"bytes32","name":"requestId","type":"bytes32"}],"name":"requestAMA","outputs":[],"stateMutability":"payable","type":"function"},{"inputs":[{"internalType":"bytes32","name":"requestId","type":"bytes32"}],"name":"requestExists","outputs":[{"internalType":"bool","name":"","type":"bool"}],"stateMutability":"view","type":"function"},{"inputs":[{"internalType":"bytes32","name":"","type":"bytes32"}],"name":"requests","outputs":[{"internalType":"address","name":"developer","type":"address"},{"internalType":"uint256","name":"amountPaid","type":"uint256"},{"internalType":"uint256","name":"timestamp","type":"uint256"},{"internalType":"bool","name":"refunded","type":"bool"}],"stateMutability":"view","type":"function"},{"inputs":[{"internalType":"bool","name":"_useOracle","type":"bool"}],"name":"setUseOracle","outputs":[],"stateMutability":"nonpayable","type":"function"},{"inputs":[],"name":"totalBNBCollected","outputs":[{"internalType":"uint256","name":"","type":"uint256"}],"stateMutability":"view","type":"function"},{"inputs":[],"name":"totalRequests","outputs":[{"internalType":"uint256","name":"","type":"uint256"}],"stateMutability":"view","type":"function"},{"inputs":[{"internalType":"address","name":"newOwner","type":"address"}],"name":"transferOwnership","outputs":[],"stateMutability":"nonpayable","type":"function"},{"inputs":[],"name":"treasury","outputs":[{"internalType":"address","name":"","type":"address"}],"stateMutability":"view","type":"function"},{"inputs":[],"name":"unpause","outputs":[],"stateMutability":"nonpayable","type":"function"},{"inputs":[{"internalType":"uint256","name":"_newPrice","type":"uint256"}],"name":"updateManualPrice","outputs":[],"stateMutability":"nonpayable","type":"function"},{"inputs":[{"internalType":"address","name":"_newFeed","type":"address"}],"name":"updatePriceFeed","outputs":[],"stateMutability":"nonpayable","type":"function"},{"inputs":[{"internalType":"address","name":"_newTreasury","type":"address"}],"name":"updateTreasury","outputs":[],"stateMutability":"nonpayable","type":"function"},{"inputs":[],"name":"useOracle","outputs":[{"internalType":"bool","name":"","type":"bool"}],"stateMutability":"view","type":"function"},{"stateMutability":"payable","type":"receive"}],"evm":{"bytecode":{"linkReferences":{},"object":"60803461013257601f610f7d38819003918201601f19168301916001600160401b0383118484101761013757808492606094604052833981010312610132576100478161014d565b60406100556020840161014d565b92015191331561011957600080546001600160a01b031980821633908117845560405191956001600160a01b03959490938616907f8be0079c531659141344cd1fd0a4f28419497f9722a3daafe3b4186f6b6457e09080a3600180558382161561010a575060028054610100600160a81b03191660089290921b610100600160a81b03169190911790556003805490931691161790556004556005805460ff19166001179055604051610e1b90816101628239f35b63e6c4247b60e01b8152600490fd5b604051631e4fbdf760e01b815260006004820152602490fd5b600080fd5b634e487b7160e01b600052604160045260246000fd5b51906001600160a01b03821682036101325756fe60806040818152600480361015610021575b505050361561001f57600080fd5b005b600092833560e01c908163171dca13146109f0575080631b74d046146109bc57806326fa0cad1461099f5780633f4ba83a1461093657806344878724146109125780634abdbd3214610751578063553c907e146106ff5780635c975abb146106db57806361d027b3146106ae5780636804f6131461064c578063715018a6146105ef578063741bef1a146105c6578063796da7af146105a25780637f51bb1f1461050a5780638456cb59146104af5780638aea61dc146104905780638da5cb5b14610468578063916a064c14610388578063924233831461036957806395877f78146102f85780639d8669851461029c578063af77e46914610274578063db2e21bc1461022a578063f2fde38b1461019c5763fb1e61ca03610011573461019857602036600319011261019857358252600660209081529181902080546001820154600283015460039093015493516001600160a01b03909216825293810193909352604083015260ff1615156060820152608090f35b8280fd5b509034610198576020366003190112610198576001600160a01b03823581811693919290849003610226576101cf610a0c565b831561021057505082546001600160a01b0319811683178455167f8be0079c531659141344cd1fd0a4f28419497f9722a3daafe3b4186f6b6457e08380a380f35b51631e4fbdf760e01b8152908101849052602490fd5b8480fd5b509034610198578260031936011261019857610244610a0c565b828080804760018060a01b038254165af161025d610a70565b5015610267578280f35b516312171d8360e31b8152fd5b5050346102985781600319360112610298576020905168056bc75e2d631000008152f35b5080fd5b503461019857602036600319011261019857358252600660209081529181902080546001820154600283015460039093015493516001600160a01b03909216825293810193909352604083015260ff1615156060820152608090f35b83823461029857602036600319011261029857356001600160a01b038181169182900361019857610327610a0c565b600354826bffffffffffffffffffffffff60a01b821617600355167fa8abe0398416476db5b05737cd4da3b3cbde5012d978a6a6c3fd49d3217535368380a380f35b5050346102985781600319360112610298576020906008549051908152f35b509034610198576020366003190112610198578135906103a6610a0c565b6103ae610af1565b818452600660205280842080546001600160a01b0390811694909190851561045a5760038201805460ff811661044a5760019060ff19161790558680808060018601998a54905af16103fe610a70565b501561043c5750916020917f6afdca17528f2d35f2289b76252a931986517a7fe91b8cd277b90ae552839b3993541694549051908152a36001805580f35b83516312171d8360e31b8152fd5b855163542f378d60e11b81528390fd5b8351632589d98f60e11b8152fd5b505034610298578160031936011261029857905490516001600160a01b039091168152602090f35b5050346102985781600319360112610298576020906007549051908152f35b50503461029857816003193601126102985760207f62e78cea01bee320cd4e420270b5ea74000d11b0c9f74754ebdbfc544b05a258916104ed610a0c565b6104f5610ad3565b600160ff19600254161760025551338152a180f35b50346101985760203660031901126101985780356001600160a01b038181169390929084830361059e5761053c610a0c565b841561059157505060028054610100600160a81b03198116600893841b610100600160a81b031617909155901c167f4ab5be82436d353e61ca18726e984e561f5c1cc7c6d38b29d2553c790434705a8380a380f35b5163e6c4247b60e01b8152fd5b8580fd5b5050346102985781600319360112610298576020906105bf610d77565b9051908152f35b50503461029857816003193601126102985760035490516001600160a01b039091168152602090f35b8334610649578060031936011261064957610608610a0c565b80546001600160a01b03198116825581906001600160a01b03167f8be0079c531659141344cd1fd0a4f28419497f9722a3daafe3b4186f6b6457e08280a380f35b80fd5b5034610198576020366003190112610198573590811515809203610198577fb192c0be01be51f7c38570e519ac5b0dbc88ef5dfb6cfb81fd1c8999f0b2ad8691602091610697610a0c565b60ff196005541660ff83161760055551908152a180f35b505034610298578160031936011261029857600254905160089190911c6001600160a01b03168152602090f35b50503461029857816003193601126102985760209060ff6002541690519015158152f35b50903461019857602036600319011261019857817f466b192740ad42c5dd7e4c768afb2d0de60dfb03f791a8a4ff715d0951bc0712923561073e610a0c565b808254925582519182526020820152a180f35b509190602036600319011261029857823561076a610af1565b610772610ad3565b8083526006602052818320546001600160a01b039290831661090357610796610b14565b928334106108f35781516080810181811067ffffffffffffffff8211176108e057868681948294839488523381526003602082019184835289810142815260608201938785528c88526006602052858c89209351166bffffffffffffffffffffffff60a01b845416178355516001830155516002820155019051151560ff8019835416911617905560025460081c165af161082f610a70565b50156108d157836108408434610ab0565b806108b5575b505060075460001981146108a2576001016007556008548381018091116108a257907f7a05f665a500ae78f1260b03cc36bf7cfafa7e2739b5ab4c826574c06a5dad989160085580519384524260208501523393a36001805580f35b634e487b7160e01b855260118652602485fd5b81808092335af16108c4610a70565b50156108d1578338610846565b516312171d8360e31b81528490fd5b634e487b7160e01b875260418852602487fd5b815163cd1c886760e01b81528690fd5b516317b5787760e11b81528490fd5b50503461029857816003193601126102985760209060ff6005541690519015158152f35b503461019857826003193601126101985761094f610a0c565b6002549060ff821615610991575060ff1916600255513381527f5db9ee0a495bf2e6ff9c91a7834c1ba4fdd244a5e8aa4e537bd38aeae4b073aa90602090a180f35b8251638dfc202b60e01b8152fd5b5050346102985781600319360112610298576020906105bf610b14565b50346101985760203660031901126101985735825260066020908152918190205490516001600160a01b0390911615158152f35b9250503461019857826003193601126101985760209250548152f35b6000546001600160a01b03163303610a2057565b60405163118cdaa760e01b8152336004820152602490fd5b90601f8019910116810190811067ffffffffffffffff821117610a5a57604052565b634e487b7160e01b600052604160045260246000fd5b3d15610aab573d9067ffffffffffffffff8211610a5a5760405191610a9f601f8201601f191660200184610a38565b82523d6000602084013e565b606090565b91908203918211610abd57565b634e487b7160e01b600052601160045260246000fd5b60ff60025416610adf57565b60405163d93c066560e01b8152600490fd5b600260015414610b02576002600155565b604051633ee5aeb560e01b8152600490fd5b60ff6005541680610ce4575b610b3257610b2f600454610d46565b90565b60035460408051633fabe5a360e21b815291600491906001600160a01b031660a0848481845afa938415610cd9576000948580928192610c9f575b506000871315610c8f578215610c8f5769ffffffffffffffffffff809116911610610c8057610b9f610e109142610ab0565b11610c72576020839183519283809263313ce56760e01b82525afa918215610c685750600091610c2c575b5060ff1660120360ff8111610c175760ff16604d8111610c1757600a0a91828102928184041490151715610c025750610b2f90610d46565b601190634e487b7160e01b6000525260246000fd5b601182634e487b7160e01b6000525260246000fd5b6020813d8211610c60575b81610c4460209383610a38565b8101031261029857519060ff82168203610649575060ff610bca565b3d9150610c37565b513d6000823e3d90fd5b5051630cd5fa0760e11b8152fd5b505051630cd5fa0760e11b8152fd5b8451630cd5fa0760e11b81528690fd5b92505050610cc591945060a03d8111610cd2575b610cbd8183610a38565b810190610d14565b9296939092915038610b6d565b503d610cb3565b82513d6000823e3d90fd5b506003546001600160a01b03161515610b20565b519069ffffffffffffffffffff82168203610d0f57565b600080fd5b908160a0910312610d0f57610d2881610cf8565b91602082015191604081015191610b2f608060608401519301610cf8565b8015610d61576f4b3b4ca85a86c47a098a2240000000000490565b634e487b7160e01b600052601260045260246000fd5b6003546001600160a01b03168015610ddf5760a060049160405192838092633fabe5a360e21b82525afa908115610dd357600091610db3575090565b610dcb915060a03d8111610cd257610cbd8183610a38565b505050905090565b6040513d6000823e3d90fd5b5060009056fea26469706673582212201184fcdcbe0381f14c7fd7bbca0c359fa3465aed2fdf0bef5429173a67d4409564736f6c63430008140033","opcodes":"PUSH1 0x80 CALLVALUE PUSH2 0x132 JUMPI PUSH1 0x1F PUSH2 0xF7D CODESIZE DUP2 SWAP1 SUB SWAP2 DUP3 ADD PUSH1 0x1F NOT AND DUP4 ADD SWAP2 PUSH1 0x1 PUSH1 0x1 PUSH1 0x40 SHL SUB DUP4 GT DUP5 DUP5 LT OR PUSH2 0x137 JUMPI DUP1 DUP5 SWAP3 PUSH1 0x60 SWAP5 PUSH1 0x40 MSTORE DUP4 CODECOPY DUP2 ADD SUB SLT PUSH2 0x132 JUMPI PUSH2 0x47 DUP2 PUSH2 0x14D JUMP JUMPDEST PUSH1 0x40 PUSH2 0x55 PUSH1 0x20 DUP5 ADD PUSH2 0x14D JUMP JUMPDEST SWAP3 ADD MLOAD SWAP2 CALLER ISZERO PUSH2 0x119 JUMPI PUSH1 0x0 DUP1 SLOAD PUSH1 0x1 PUSH1 0x1 PUSH1 0xA0 SHL SUB NOT DUP1 DUP3 AND CALLER SWAP1 DUP2 OR DUP5 SSTORE PUSH1 0x40 MLOAD SWAP2 SWAP6 PUSH1 0x1 PUSH1 0x1 PUSH1 0xA0 SHL SUB SWAP6 SWAP5 SWAP1 SWAP4 DUP7 AND SWAP1 PUSH32 0x8BE0079C531659141344CD1FD0A4F28419497F9722A3DAAFE3B4186F6B6457E0 SWAP1 DUP1 LOG3 PUSH1 0x1 DUP1 SSTORE DUP4 DUP3 AND ISZERO PUSH2 0x10A JUMPI POP PUSH1 0x2 DUP1 SLOAD PUSH2 0x100 PUSH1 0x1 PUSH1 0xA8 SHL SUB NOT AND PUSH1 0x8 SWAP3 SWAP1 SWAP3 SHL PUSH2 0x100 PUSH1 0x1 PUSH1 0xA8 SHL SUB AND SWAP2 SWAP1 SWAP2 OR SWAP1 SSTORE PUSH1 0x3 DUP1 SLOAD SWAP1 SWAP4 AND SWAP2 AND OR SWAP1 SSTORE PUSH1 0x4 SSTORE PUSH1 0x5 DUP1 SLOAD PUSH1 0xFF NOT AND PUSH1 0x1 OR SWAP1 SSTORE PUSH1 0x40 MLOAD PUSH2 0xE1B SWAP1 DUP2 PUSH2 0x162 DUP3 CODECOPY RETURN JUMPDEST PUSH4 0xE6C4247B PUSH1 0xE0 SHL DUP2 MSTORE PUSH1 0x4 SWAP1 REVERT JUMPDEST PUSH1 0x40 MLOAD PUSH4 0x1E4FBDF7 PUSH1 0xE0 SHL DUP2 MSTORE PUSH1 0x0 PUSH1 0x4 DUP3 ADD MSTORE PUSH1 0x24 SWAP1 REVERT JUMPDEST PUSH1 0x0 DUP1 REVERT JUMPDEST PUSH4 0x4E487B71 PUSH1 0xE0 SHL PUSH1 0x0 MSTORE PUSH1 0x41 PUSH1 0x4 MSTORE PUSH1 0x24 PUSH1 0x0 REVERT JUMPDEST MLOAD SWAP1 PUSH1 0x1 PUSH1 0x1 PUSH1 0xA0 SHL SUB DUP3 AND DUP3 SUB PUSH2 0x132 JUMPI JUMP INVALID PUSH1 0x80 PUSH1 0x40 DUP2 DUP2 MSTORE PUSH1 0x4 DUP1 CALLDATASIZE LT ISZERO PUSH2 0x21 JUMPI JUMPDEST POP POP POP CALLDATASIZE ISZERO PUSH2 0x1F JUMPI PUSH1 0x0 DUP1 REVERT JUMPDEST STOP JUMPDEST PUSH1 0x0 SWAP3 DUP4 CALLDATALOAD PUSH1 0xE0 SHR SWAP1 DUP2 PUSH4 0x171DCA13 EQ PUSH2 0x9F0 JUMPI POP DUP1 PUSH4 0x1B74D046 EQ PUSH2 0x9BC JUMPI DUP1 PUSH4 0x26FA0CAD EQ PUSH2 0x99F JUMPI DUP1 PUSH4 0x3F4BA83A EQ PUSH2 0x936 JUMPI DUP1 PUSH4 0x44878724 EQ PUSH2 0x912 JUMPI DUP1 PUSH4 0x4ABDBD32 EQ PUSH2 0x751 JUMPI DUP1 PUSH4 0x553C907E EQ PUSH2 0x6FF JUMPI DUP1 PUSH4 0x5C975ABB EQ PUSH2 0x6DB JUMPI DUP1 PUSH4 0x61D027B3 EQ PUSH2 0x6AE JUMPI DUP1 PUSH4 0x6804F613 EQ PUSH2 0x64C JUMPI DUP1 PUSH4 0x715018A6 EQ PUSH2 0x5EF JUMPI DUP1 PUSH4 0x741BEF1A EQ PUSH2 0x5C6 JUMPI DUP1 PUSH4 0x796DA7AF EQ PUSH2 0x5A2 JUMPI DUP1 PUSH4 0x7F51BB1F EQ PUSH2 0x50A JUMPI DUP1 PUSH4 0x8456CB59 EQ PUSH2 0x4AF JUMPI DUP1 PUSH4 0x8AEA61DC EQ PUSH2 0x490 JUMPI DUP1 PUSH4 0x8DA5CB5B EQ PUSH2 0x468 JUMPI DUP1 PUSH4 0x916A064C EQ PUSH2 0x388 JUMPI DUP1 PUSH4 0x92423383 EQ PUSH2 0x369 JUMPI DUP1 PUSH4 0x95877F78 EQ PUSH2 0x2F8 JUMPI DUP1 PUSH4 0x9D866985 EQ PUSH2 0x29C JUMPI DUP1 PUSH4 0xAF77E469 EQ PUSH2 0x274 JUMPI DUP1 PUSH4 0xDB2E21BC EQ PUSH2 0x22A JUMPI DUP1 PUSH4 0xF2FDE38B EQ PUSH2 0x19C JUMPI PUSH4 0xFB1E61CA SUB PUSH2 0x11 JUMPI CALLVALUE PUSH2 0x198 JUMPI PUSH1 0x20 CALLDATASIZE PUSH1 0x3 NOT ADD SLT PUSH2 0x198 JUMPI CALLDATALOAD DUP3 MSTORE PUSH1 0x6 PUSH1 0x20 SWAP1 DUP2 MSTORE SWAP2 DUP2 SWAP1 KECCAK256 DUP1 SLOAD PUSH1 0x1 DUP3 ADD SLOAD PUSH1 0x2 DUP4 ADD SLOAD PUSH1 0x3 SWAP1 SWAP4 ADD SLOAD SWAP4 MLOAD PUSH1 0x1 PUSH1 0x1 PUSH1 0xA0 SHL SUB SWAP1 SWAP3 AND DUP3 MSTORE SWAP4 DUP2 ADD SWAP4 SWAP1 SWAP4 MSTORE PUSH1 0x40 DUP4 ADD MSTORE PUSH1 0xFF AND ISZERO ISZERO PUSH1 0x60 DUP3 ADD MSTORE PUSH1 0x80 SWAP1 RETURN JUMPDEST DUP3 DUP1 REVERT JUMPDEST POP SWAP1 CALLVALUE PUSH2 0x198 JUMPI PUSH1 0x20 CALLDATASIZE PUSH1 0x3 NOT ADD SLT PUSH2 0x198 JUMPI PUSH1 0x1 PUSH1 0x1 PUSH1 0xA0 SHL SUB DUP3 CALLDATALOAD DUP2 DUP2 AND SWAP4 SWAP2 SWAP3 SWAP1 DUP5 SWAP1 SUB PUSH2 0x226 JUMPI PUSH2 0x1CF PUSH2 0xA0C JUMP JUMPDEST DUP4 ISZERO PUSH2 0x210 JUMPI POP POP DUP3 SLOAD PUSH1 0x1 PUSH1 0x1 PUSH1 0xA0 SHL SUB NOT DUP2 AND DUP4 OR DUP5 SSTORE AND PUSH32 0x8BE0079C531659141344CD1FD0A4F28419497F9722A3DAAFE3B4186F6B6457E0 DUP4 DUP1 LOG3 DUP1 RETURN JUMPDEST MLOAD PUSH4 0x1E4FBDF7 PUSH1 0xE0 SHL DUP2 MSTORE SWAP1 DUP2 ADD DUP5 SWAP1 MSTORE PUSH1 0x24 SWAP1 REVERT JUMPDEST DUP5 DUP1 REVERT JUMPDEST POP SWAP1 CALLVALUE PUSH2 0x198 JUMPI DUP3 PUSH1 0x3 NOT CALLDATASIZE ADD SLT PUSH2 0x198 JUMPI PUSH2 0x244 PUSH2 0xA0C JUMP JUMPDEST DUP3 DUP1 DUP1 DUP1 SELFBALANCE PUSH1 0x1 DUP1 PUSH1 0xA0 SHL SUB DUP3 SLOAD AND GAS CALL PUSH2 0x25D PUSH2 0xA70 JUMP JUMPDEST POP ISZERO PUSH2 0x267 JUMPI DUP3 DUP1 RETURN JUMPDEST MLOAD PUSH4 0x12171D83 PUSH1 0xE3 SHL DUP2 MSTORE REVERT JUMPDEST POP POP CALLVALUE PUSH2 0x298 JUMPI DUP2 PUSH1 0x3 NOT CALLDATASIZE ADD SLT PUSH2 0x298 JUMPI PUSH1 0x20 SWAP1 MLOAD PUSH9 0x56BC75E2D63100000 DUP2 MSTORE RETURN JUMPDEST POP DUP1 REVERT JUMPDEST POP CALLVALUE PUSH2 0x198 JUMPI PUSH1 0x20 CALLDATASIZE PUSH1 0x3 NOT ADD SLT PUSH2 0x198 JUMPI CALLDATALOAD DUP3 MSTORE PUSH1 0x6 PUSH1 0x20 SWAP1 DUP2 MSTORE SWAP2 DUP2 SWAP1 KECCAK256 DUP1 SLOAD PUSH1 0x1 DUP3 ADD SLOAD PUSH1 0x2 DUP4 ADD SLOAD PUSH1 0x3 SWAP1 SWAP4 ADD SLOAD SWAP4 MLOAD PUSH1 0x1 PUSH1 0x1 PUSH1 0xA0 SHL SUB SWAP1 SWAP3 AND DUP3 MSTORE SWAP4 DUP2 ADD SWAP4 SWAP1 SWAP4 MSTORE PUSH1 0x40 DUP4 ADD MSTORE PUSH1 0xFF AND ISZERO ISZERO PUSH1 0x60 DUP3 ADD MSTORE PUSH1 0x80 SWAP1 RETURN JUMPDEST DUP4 DUP3 CALLVALUE PUSH2 0x298 JUMPI PUSH1 0x20 CALLDATASIZE PUSH1 0x3 NOT ADD SLT PUSH2 0x298 JUMPI CALLDATALOAD PUSH1 0x1 PUSH1 0x1 PUSH1 0xA0 SHL SUB DUP2 DUP2 AND SWAP2 DUP3 SWAP1 SUB PUSH2 0x198 JUMPI PUSH2 0x327 PUSH2 0xA0C JUMP JUMPDEST PUSH1 0x3 SLOAD DUP3 PUSH12 0xFFFFFFFFFFFFFFFFFFFFFFFF PUSH1 0xA0 SHL DUP3 AND OR PUSH1 0x3 SSTORE AND PUSH32 0xA8ABE0398416476DB5B05737CD4DA3B3CBDE5012D978A6A6C3FD49D321753536 DUP4 DUP1 LOG3 DUP1 RETURN JUMPDEST POP POP CALLVALUE PUSH2 0x298 JUMPI DUP2 PUSH1 0x3 NOT CALLDATASIZE ADD SLT PUSH2 0x298 JUMPI PUSH1 0x20 SWAP1 PUSH1 0x8 SLOAD SWAP1 MLOAD SWAP1 DUP2 MSTORE RETURN JUMPDEST POP SWAP1 CALLVALUE PUSH2 0x198 JUMPI PUSH1 0x20 CALLDATASIZE PUSH1 0x3 NOT ADD SLT PUSH2 0x198 JUMPI DUP2 CALLDATALOAD SWAP1 PUSH2 0x3A6 PUSH2 0xA0C JUMP JUMPDEST PUSH2 0x3AE PUSH2 0xAF1 JUMP JUMPDEST DUP2 DUP5 MSTORE PUSH1 0x6 PUSH1 0x20 MSTORE DUP1 DUP5 KECCAK256 DUP1 SLOAD PUSH1 0x1 PUSH1 0x1 PUSH1 0xA0 SHL SUB SWAP1 DUP2 AND SWAP5 SWAP1 SWAP2 SWAP1 DUP6 ISZERO PUSH2 0x45A JUMPI PUSH1 0x3 DUP3 ADD DUP1 SLOAD PUSH1 0xFF DUP2 AND PUSH2 0x44A JUMPI PUSH1 0x1 SWAP1 PUSH1 0xFF NOT AND OR SWAP1 SSTORE DUP7 DUP1 DUP1 DUP1 PUSH1 0x1 DUP7 ADD SWAP10 DUP11 SLOAD SWAP1 GAS CALL PUSH2 0x3FE PUSH2 0xA70 JUMP JUMPDEST POP ISZERO PUSH2 0x43C JUMPI POP SWAP2 PUSH1 0x20 SWAP2 PUSH32 0x6AFDCA17528F2D35F2289B76252A931986517A7FE91B8CD277B90AE552839B39 SWAP4 SLOAD AND SWAP5 SLOAD SWAP1 MLOAD SWAP1 DUP2 MSTORE LOG3 PUSH1 0x1 DUP1 SSTORE DUP1 RETURN JUMPDEST DUP4 MLOAD PUSH4 0x12171D83 PUSH1 0xE3 SHL DUP2 MSTORE REVERT JUMPDEST DUP6 MLOAD PUSH4 0x542F378D PUSH1 0xE1 SHL DUP2 MSTORE DUP4 SWAP1 REVERT JUMPDEST DUP4 MLOAD PUSH4 0x2589D98F PUSH1 0xE1 SHL DUP2 MSTORE REVERT JUMPDEST POP POP CALLVALUE PUSH2 0x298 JUMPI DUP2 PUSH1 0x3 NOT CALLDATASIZE ADD SLT PUSH2 0x298 JUMPI SWAP1 SLOAD SWAP1 MLOAD PUSH1 0x1 PUSH1 0x1 PUSH1 0xA0 SHL SUB SWAP1 SWAP2 AND DUP2 MSTORE PUSH1 0x20 SWAP1 RETURN JUMPDEST POP POP CALLVALUE PUSH2 0x298 JUMPI DUP2 PUSH1 0x3 NOT CALLDATASIZE ADD SLT PUSH2 0x298 JUMPI PUSH1 0x20 SWAP1 PUSH1 0x7 SLOAD SWAP1 MLOAD SWAP1 DUP2 MSTORE RETURN JUMPDEST POP POP CALLVALUE PUSH2 0x298 JUMPI DUP2 PUSH1 0x3 NOT CALLDATASIZE ADD SLT PUSH2 0x298 JUMPI PUSH1 0x20 PUSH32 0x62E78CEA01BEE320CD4E420270B5EA74000D11B0C9F74754EBDBFC544B05A258 SWAP2 PUSH2 0x4ED PUSH2 0xA0C JUMP JUMPDEST PUSH2 0x4F5 PUSH2 0xAD3 JUMP JUMPDEST PUSH1 0x1 PUSH1 0xFF NOT PUSH1 0x2 SLOAD AND OR PUSH1 0x2 SSTORE MLOAD CALLER DUP2 MSTORE LOG1 DUP1 RETURN JUMPDEST POP CALLVALUE PUSH2 0x198 JUMPI PUSH1 0x20 CALLDATASIZE PUSH1 0x3 NOT ADD SLT PUSH2 0x198 JUMPI DUP1 CALLDATALOAD PUSH1 0x1 PUSH1 0x1 PUSH1 0xA0 SHL SUB DUP2 DUP2 AND SWAP4 SWAP1 SWAP3 SWAP1 DUP5 DUP4 SUB PUSH2 0x59E JUMPI PUSH2 0x53C PUSH2 0xA0C JUMP JUMPDEST DUP5 ISZERO PUSH2 0x591 JUMPI POP POP PUSH1 0x2 DUP1 SLOAD PUSH2 0x100 PUSH1 0x1 PUSH1 0xA8 SHL SUB NOT DUP2 AND PUSH1 0x8 SWAP4 DUP5 SHL PUSH2 0x100 PUSH1 0x1 PUSH1 0xA8 SHL SUB AND OR SWAP1 SWAP2 SSTORE SWAP1 SHR AND PUSH32 0x4AB5BE82436D353E61CA18726E984E561F5C1CC7C6D38B29D2553C790434705A DUP4 DUP1 LOG3 DUP1 RETURN JUMPDEST MLOAD PUSH4 0xE6C4247B PUSH1 0xE0 SHL DUP2 MSTORE REVERT JUMPDEST DUP6 DUP1 REVERT JUMPDEST POP POP CALLVALUE PUSH2 0x298 JUMPI DUP2 PUSH1 0x3 NOT CALLDATASIZE ADD SLT PUSH2 0x298 JUMPI PUSH1 0x20 SWAP1 PUSH2 0x5BF PUSH2 0xD77 JUMP JUMPDEST SWAP1 MLOAD SWAP1 DUP2 MSTORE RETURN JUMPDEST POP POP CALLVALUE PUSH2 0x298 JUMPI DUP2 PUSH1 0x3 NOT CALLDATASIZE ADD SLT PUSH2 0x298 JUMPI PUSH1 0x3 SLOAD SWAP1 MLOAD PUSH1 0x1 PUSH1 0x1 PUSH1 0xA0 SHL SUB SWAP1 SWAP2 AND DUP2 MSTORE PUSH1 0x20 SWAP1 RETURN JUMPDEST DUP4 CALLVALUE PUSH2 0x649 JUMPI DUP1 PUSH1 0x3 NOT CALLDATASIZE ADD SLT PUSH2 0x649 JUMPI PUSH2 0x608 PUSH2 0xA0C JUMP JUMPDEST DUP1 SLOAD PUSH1 0x1 PUSH1 0x1 PUSH1 0xA0 SHL SUB NOT DUP2 AND DUP3 SSTORE DUP2 SWAP1 PUSH1 0x1 PUSH1 0x1 PUSH1 0xA0 SHL SUB AND PUSH32 0x8BE0079C531659141344CD1FD0A4F28419497F9722A3DAAFE3B4186F6B6457E0 DUP3 DUP1 LOG3 DUP1 RETURN JUMPDEST DUP1 REVERT JUMPDEST POP CALLVALUE PUSH2 0x198 JUMPI PUSH1 0x20 CALLDATASIZE PUSH1 0x3 NOT ADD SLT PUSH2 0x198 JUMPI CALLDATALOAD SWAP1 DUP2 ISZERO ISZERO DUP1 SWAP3 SUB PUSH2 0x198 JUMPI PUSH32 0xB192C0BE01BE51F7C38570E519AC5B0DBC88EF5DFB6CFB81FD1C8999F0B2AD86 SWAP2 PUSH1 0x20 SWAP2 PUSH2 0x697 PUSH2 0xA0C JUMP JUMPDEST PUSH1 0xFF NOT PUSH1 0x5 SLOAD AND PUSH1 0xFF DUP4 AND OR PUSH1 0x5 SSTORE MLOAD SWAP1 DUP2 MSTORE LOG1 DUP1 RETURN JUMPDEST POP POP CALLVALUE PUSH2 0x298 JUMPI DUP2 PUSH1 0x3 NOT CALLDATASIZE ADD SLT PUSH2 0x298 JUMPI PUSH1 0x2 SLOAD SWAP1 MLOAD PUSH1 0x8 SWAP2 SWAP1 SWAP2 SHR PUSH1 0x1 PUSH1 0x1 PUSH1 0xA0 SHL SUB AND DUP2 MSTORE PUSH1 0x20 SWAP1 RETURN JUMPDEST POP POP CALLVALUE PUSH2 0x298 JUMPI DUP2 PUSH1 0x3 NOT CALLDATASIZE ADD SLT PUSH2 0x298 JUMPI PUSH1 0x20 SWAP1 PUSH1 0xFF PUSH1 0x2 SLOAD AND SWAP1 MLOAD SWAP1 ISZERO ISZERO DUP2 MSTORE RETURN JUMPDEST POP SWAP1 CALLVALUE PUSH2 0x198 JUMPI PUSH1 0x20 CALLDATASIZE PUSH1 0x3 NOT ADD SLT PUSH2 0x198 JUMPI DUP2 PUSH32 0x466B192740AD42C5DD7E4C768AFB2D0DE60DFB03F791A8A4FF715D0951BC0712 SWAP3 CALLDATALOAD PUSH2 0x73E PUSH2 0xA0C JUMP JUMPDEST DUP1 DUP3 SLOAD SWAP3 SSTORE DUP3 MLOAD SWAP2 DUP3 MSTORE PUSH1 0x20 DUP3 ADD MSTORE LOG1 DUP1 RETURN JUMPDEST POP SWAP2 SWAP1 PUSH1 0x20 CALLDATASIZE PUSH1 0x3 NOT ADD SLT PUSH2 0x298 JUMPI DUP3 CALLDATALOAD PUSH2 0x76A PUSH2 0xAF1 JUMP JUMPDEST PUSH2 0x772 PUSH2 0xAD3 JUMP JUMPDEST DUP1 DUP4 MSTORE PUSH1 0x6 PUSH1 0x20 MSTORE DUP2 DUP4 KECCAK256 SLOAD PUSH1 0x1 PUSH1 0x1 PUSH1 0xA0 SHL SUB SWAP3 SWAP1 DUP4 AND PUSH2 0x903 JUMPI PUSH2 0x796 PUSH2 0xB14 JUMP JUMPDEST SWAP3 DUP4 CALLVALUE LT PUSH2 0x8F3 JUMPI DUP2 MLOAD PUSH1 0x80 DUP2 ADD DUP2 DUP2 LT PUSH8 0xFFFFFFFFFFFFFFFF DUP3 GT OR PUSH2 0x8E0 JUMPI DUP7 DUP7 DUP2 SWAP5 DUP3 SWAP5 DUP4 SWAP5 DUP9 MSTORE CALLER DUP2 MSTORE PUSH1 0x3 PUSH1 0x20 DUP3 ADD SWAP2 DUP5 DUP4 MSTORE DUP10 DUP2 ADD TIMESTAMP DUP2 MSTORE PUSH1 0x60 DUP3 ADD SWAP4 DUP8 DUP6 MSTORE DUP13 DUP9 MSTORE PUSH1 0x6 PUSH1 0x20 MSTORE DUP6 DUP13 DUP10 KECCAK256 SWAP4 MLOAD AND PUSH12 0xFFFFFFFFFFFFFFFFFFFFFFFF PUSH1 0xA0 SHL DUP5 SLOAD AND OR DUP4 SSTORE MLOAD PUSH1 0x1 DUP4 ADD SSTORE MLOAD PUSH1 0x2 DUP3 ADD SSTORE ADD SWAP1 MLOAD ISZERO ISZERO PUSH1 0xFF DUP1 NOT DUP4 SLOAD AND SWAP2 AND OR SWAP1 SSTORE PUSH1 0x2 SLOAD PUSH1 0x8 SHR AND GAS CALL PUSH2 0x82F PUSH2 0xA70 JUMP JUMPDEST POP ISZERO PUSH2 0x8D1 JUMPI DUP4 PUSH2 0x840 DUP5 CALLVALUE PUSH2 0xAB0 JUMP JUMPDEST DUP1 PUSH2 0x8B5 JUMPI JUMPDEST POP POP PUSH1 0x7 SLOAD PUSH1 0x0 NOT DUP2 EQ PUSH2 0x8A2 JUMPI PUSH1 0x1 ADD PUSH1 0x7 SSTORE PUSH1 0x8 SLOAD DUP4 DUP2 ADD DUP1 SWAP2 GT PUSH2 0x8A2 JUMPI SWAP1 PUSH32 0x7A05F665A500AE78F1260B03CC36BF7CFAFA7E2739B5AB4C826574C06A5DAD98 SWAP2 PUSH1 0x8 SSTORE DUP1 MLOAD SWAP4 DUP5 MSTORE TIMESTAMP PUSH1 0x20 DUP6 ADD MSTORE CALLER SWAP4 LOG3 PUSH1 0x1 DUP1 SSTORE DUP1 RETURN JUMPDEST PUSH4 0x4E487B71 PUSH1 0xE0 SHL DUP6 MSTORE PUSH1 0x11 DUP7 MSTORE PUSH1 0x24 DUP6 REVERT JUMPDEST DUP2 DUP1 DUP1 SWAP3 CALLER GAS CALL PUSH2 0x8C4 PUSH2 0xA70 JUMP JUMPDEST POP ISZERO PUSH2 0x8D1 JUMPI DUP4 CODESIZE PUSH2 0x846 JUMP JUMPDEST MLOAD PUSH4 0x12171D83 PUSH1 0xE3 SHL DUP2 MSTORE DUP5 SWAP1 REVERT JUMPDEST PUSH4 0x4E487B71 PUSH1 0xE0 SHL DUP8 MSTORE PUSH1 0x41 DUP9 MSTORE PUSH1 0x24 DUP8 REVERT JUMPDEST DUP2 MLOAD PUSH4 0xCD1C8867 PUSH1 0xE0 SHL DUP2 MSTORE DUP7 SWAP1 REVERT JUMPDEST MLOAD PUSH4 0x17B57877 PUSH1 0xE1 SHL DUP2 MSTORE DUP5 SWAP1 REVERT JUMPDEST POP POP CALLVALUE PUSH2 0x298 JUMPI DUP2 PUSH1 0x3 NOT CALLDATASIZE ADD SLT PUSH2 0x298 JUMPI PUSH1 0x20 SWAP1 PUSH1 0xFF PUSH1 0x5 SLOAD AND SWAP1 MLOAD SWAP1 ISZERO ISZERO DUP2 MSTORE RETURN JUMPDEST POP CALLVALUE PUSH2 0x198 JUMPI DUP3 PUSH1 0x3 NOT CALLDATASIZE ADD SLT PUSH2 0x198 JUMPI PUSH2 0x94F PUSH2 0xA0C JUMP JUMPDEST PUSH1 0x2 SLOAD SWAP1 PUSH1 0xFF DUP3 AND ISZERO PUSH2 0x991 JUMPI POP PUSH1 0xFF NOT AND PUSH1 0x2 SSTORE MLOAD CALLER DUP2 MSTORE PUSH32 0x5DB9EE0A495BF2E6FF9C91A7834C1BA4FDD244A5E8AA4E537BD38AEAE4B073AA SWAP1 PUSH1 0x20 SWAP1 LOG1 DUP1 RETURN JUMPDEST DUP3 MLOAD PUSH4 0x8DFC202B PUSH1 0xE0 SHL DUP2 MSTORE REVERT JUMPDEST POP POP CALLVALUE PUSH2 0x298 JUMPI DUP2 PUSH1 0x3 NOT CALLDATASIZE ADD SLT PUSH2 0x298 JUMPI PUSH1 0x20 SWAP1 PUSH2 0x5BF PUSH2 0xB14 JUMP JUMPDEST POP CALLVALUE PUSH2 0x198 JUMPI PUSH1 0x20 CALLDATASIZE PUSH1 0x3 NOT ADD SLT PUSH2 0x198 JUMPI CALLDATALOAD DUP3 MSTORE PUSH1 0x6 PUSH1 0x20 SWAP1 DUP2 MSTORE SWAP2 DUP2 SWAP1 KECCAK256 SLOAD SWAP1 MLOAD PUSH1 0x1 PUSH1 0x1 PUSH1 0xA0 SHL SUB SWAP1 SWAP2 AND ISZERO ISZERO DUP2 MSTORE RETURN JUMPDEST SWAP3 POP POP CALLVALUE PUSH2 0x198 JUMPI DUP3 PUSH1 0x3 NOT CALLDATASIZE ADD SLT PUSH2 0x198 JUMPI PUSH1 0x20 SWAP3 POP SLOAD DUP2 MSTORE RETURN JUMPDEST PUSH1 0x0 SLOAD PUSH1 0x1 PUSH1 0x1 PUSH1 0xA0 SHL SUB AND CALLER SUB PUSH2 0xA20 JUMPI JUMP JUMPDEST PUSH1 0x40 MLOAD PUSH4 0x118CDAA7 PUSH1 0xE0 SHL DUP2 MSTORE CALLER PUSH1 0x4 DUP3 ADD MSTORE PUSH1 0x24 SWAP1 REVERT JUMPDEST SWAP1 PUSH1 0x1F DUP1 NOT SWAP2 ADD AND DUP2 ADD SWAP1 DUP2 LT PUSH8 0xFFFFFFFFFFFFFFFF DUP3 GT OR PUSH2 0xA5A JUMPI PUSH1 0x40 MSTORE JUMP JUMPDEST PUSH4 0x4E487B71 PUSH1 0xE0 SHL PUSH1 0x0 MSTORE PUSH1 0x41 PUSH1 0x4 MSTORE PUSH1 0x24 PUSH1 0x0 REVERT JUMPDEST RETURNDATASIZE ISZERO PUSH2 0xAAB JUMPI RETURNDATASIZE SWAP1 PUSH8 0xFFFFFFFFFFFFFFFF DUP3 GT PUSH2 0xA5A JUMPI PUSH1 0x40 MLOAD SWAP2 PUSH2 0xA9F PUSH1 0x1F DUP3 ADD PUSH1 0x1F NOT AND PUSH1 0x20 ADD DUP5 PUSH2 0xA38 JUMP JUMPDEST DUP3 MSTORE RETURNDATASIZE PUSH1 0x0 PUSH1 0x20 DUP5 ADD RETURNDATACOPY JUMP JUMPDEST PUSH1 0x60 SWAP1 JUMP JUMPDEST SWAP2 SWAP1 DUP3 SUB SWAP2 DUP3 GT PUSH2 0xABD JUMPI JUMP JUMPDEST PUSH4 0x4E487B71 PUSH1 0xE0 SHL PUSH1 0x0 MSTORE PUSH1 0x11 PUSH1 0x4 MSTORE PUSH1 0x24 PUSH1 0x0 REVERT JUMPDEST PUSH1 0xFF PUSH1 0x2 SLOAD AND PUSH2 0xADF JUMPI JUMP JUMPDEST PUSH1 0x40 MLOAD PUSH4 0xD93C0665 PUSH1 0xE0 SHL DUP2 MSTORE PUSH1 0x4 SWAP1 REVERT JUMPDEST PUSH1 0x2 PUSH1 0x1 SLOAD EQ PUSH2 0xB02 JUMPI PUSH1 0x2 PUSH1 0x1 SSTORE JUMP JUMPDEST PUSH1 0x40 MLOAD PUSH4 0x3EE5AEB5 PUSH1 0xE0 SHL DUP2 MSTORE PUSH1 0x4 SWAP1 REVERT JUMPDEST PUSH1 0xFF PUSH1 0x5 SLOAD AND DUP1 PUSH2 0xCE4 JUMPI JUMPDEST PUSH2 0xB32 JUMPI PUSH2 0xB2F PUSH1 0x4 SLOAD PUSH2 0xD46 JUMP JUMPDEST SWAP1 JUMP JUMPDEST PUSH1 0x3 SLOAD PUSH1 0x40 DUP1 MLOAD PUSH4 0x3FABE5A3 PUSH1 0xE2 SHL DUP2 MSTORE SWAP2 PUSH1 0x4 SWAP2 SWAP1 PUSH1 0x1 PUSH1 0x1 PUSH1 0xA0 SHL SUB AND PUSH1 0xA0 DUP5 DUP5 DUP2 DUP5 GAS STATICCALL SWAP4 DUP5 ISZERO PUSH2 0xCD9 JUMPI PUSH1 0x0 SWAP5 DUP6 DUP1 SWAP3 DUP2 SWAP3 PUSH2 0xC9F JUMPI JUMPDEST POP PUSH1 0x0 DUP8 SGT ISZERO PUSH2 0xC8F JUMPI DUP3 ISZERO PUSH2 0xC8F JUMPI PUSH10 0xFFFFFFFFFFFFFFFFFFFF DUP1 SWAP2 AND SWAP2 AND LT PUSH2 0xC80 JUMPI PUSH2 0xB9F PUSH2 0xE10 SWAP2 TIMESTAMP PUSH2 0xAB0 JUMP JUMPDEST GT PUSH2 0xC72 JUMPI PUSH1 0x20 DUP4 SWAP2 DUP4 MLOAD SWAP3 DUP4 DUP1 SWAP3 PUSH4 0x313CE567 PUSH1 0xE0 SHL DUP3 MSTORE GAS STATICCALL SWAP2 DUP3 ISZERO PUSH2 0xC68 JUMPI POP PUSH1 0x0 SWAP2 PUSH2 0xC2C JUMPI JUMPDEST POP PUSH1 0xFF AND PUSH1 0x12 SUB PUSH1 0xFF DUP2 GT PUSH2 0xC17 JUMPI PUSH1 0xFF AND PUSH1 0x4D DUP2 GT PUSH2 0xC17 JUMPI PUSH1 0xA EXP SWAP2 DUP3 DUP2 MUL SWAP3 DUP2 DUP5 DIV EQ SWAP1 ISZERO OR ISZERO PUSH2 0xC02 JUMPI POP PUSH2 0xB2F SWAP1 PUSH2 0xD46 JUMP JUMPDEST PUSH1 0x11 SWAP1 PUSH4 0x4E487B71 PUSH1 0xE0 SHL PUSH1 0x0 MSTORE MSTORE PUSH1 0x24 PUSH1 0x0 REVERT JUMPDEST PUSH1 0x11 DUP3 PUSH4 0x4E487B71 PUSH1 0xE0 SHL PUSH1 0x0 MSTORE MSTORE PUSH1 0x24 PUSH1 0x0 REVERT JUMPDEST PUSH1 0x20 DUP2 RETURNDATASIZE DUP3 GT PUSH2 0xC60 JUMPI JUMPDEST DUP2 PUSH2 0xC44 PUSH1 0x20 SWAP4 DUP4 PUSH2 0xA38 JUMP JUMPDEST DUP2 ADD SUB SLT PUSH2 0x298 JUMPI MLOAD SWAP1 PUSH1 0xFF DUP3 AND DUP3 SUB PUSH2 0x649 JUMPI POP PUSH1 0xFF PUSH2 0xBCA JUMP JUMPDEST RETURNDATASIZE SWAP2 POP PUSH2 0xC37 JUMP JUMPDEST MLOAD RETURNDATASIZE PUSH1 0x0 DUP3 RETURNDATACOPY RETURNDATASIZE SWAP1 REVERT JUMPDEST POP MLOAD PUSH4 0xCD5FA07 PUSH1 0xE1 SHL DUP2 MSTORE REVERT JUMPDEST POP POP MLOAD PUSH4 0xCD5FA07 PUSH1 0xE1 SHL DUP2 MSTORE REVERT JUMPDEST DUP5 MLOAD PUSH4 0xCD5FA07 PUSH1 0xE1 SHL DUP2 MSTORE DUP7 SWAP1 REVERT JUMPDEST SWAP3 POP POP POP PUSH2 0xCC5 SWAP2 SWAP5 POP PUSH1 0xA0 RETURNDATASIZE DUP2 GT PUSH2 0xCD2 JUMPI JUMPDEST PUSH2 0xCBD DUP2 DUP4 PUSH2 0xA38 JUMP JUMPDEST DUP2 ADD SWAP1 PUSH2 0xD14 JUMP JUMPDEST SWAP3 SWAP7 SWAP4 SWAP1 SWAP3 SWAP2 POP CODESIZE PUSH2 0xB6D JUMP JUMPDEST POP RETURNDATASIZE PUSH2 0xCB3 JUMP JUMPDEST DUP3 MLOAD RETURNDATASIZE PUSH1 0x0 DUP3 RETURNDATACOPY RETURNDATASIZE SWAP1 REVERT JUMPDEST POP PUSH1 0x3 SLOAD PUSH1 0x1 PUSH1 0x1 PUSH1 0xA0 SHL SUB AND ISZERO ISZERO PUSH2 0xB20 JUMP JUMPDEST MLOAD SWAP1 PUSH10 0xFFFFFFFFFFFFFFFFFFFF DUP3 AND DUP3 SUB PUSH2 0xD0F JUMPI JUMP JUMPDEST PUSH1 0x0 DUP1 REVERT JUMPDEST SWAP1 DUP2 PUSH1 0xA0 SWAP2 SUB SLT PUSH2 0xD0F JUMPI PUSH2 0xD28 DUP2 PUSH2 0xCF8 JUMP JUMPDEST SWAP2 PUSH1 0x20 DUP3 ADD MLOAD SWAP2 PUSH1 0x40 DUP2 ADD MLOAD SWAP2 PUSH2 0xB2F PUSH1 0x80 PUSH1 0x60 DUP5 ADD MLOAD SWAP4 ADD PUSH2 0xCF8 JUMP JUMPDEST DUP1 ISZERO PUSH2 0xD61 JUMPI PUSH16 0x4B3B4CA85A86C47A098A224000000000 DIV SWAP1 JUMP JUMPDEST PUSH4 0x4E487B71 PUSH1 0xE0 SHL PUSH1 0x0 MSTORE PUSH1 0x12 PUSH1 0x4 MSTORE PUSH1 0x24 PUSH1 0x0 REVERT JUMPDEST PUSH1 0x3 SLOAD PUSH1 0x1 PUSH1 0x1 PUSH1 0xA0 SHL SUB AND DUP1 ISZERO PUSH2 0xDDF JUMPI PUSH1 0xA0 PUSH1 0x4 SWAP2 PUSH1 0x40 MLOAD SWAP3 DUP4 DUP1 SWAP3 PUSH4 0x3FABE5A3 PUSH1 0xE2 SHL DUP3 MSTORE GAS STATICCALL SWAP1 DUP2 ISZERO PUSH2 0xDD3 JUMPI PUSH1 0x0 SWAP2 PUSH2 0xDB3 JUMPI POP SWAP1 JUMP JUMPDEST PUSH2 0xDCB SWAP2 POP PUSH1 0xA0 RETURNDATASIZE DUP2 GT PUSH2 0xCD2 JUMPI PUSH2 0xCBD DUP2 DUP4 PUSH2 0xA38 JUMP JUMPDEST POP POP POP SWAP1 POP SWAP1 JUMP JUMPDEST PUSH1 0x40 MLOAD RETURNDATASIZE PUSH1 0x0 DUP3 RETURNDATACOPY RETURNDATASIZE SWAP1 REVERT JUMPDEST POP PUSH1 0x0 SWAP1 JUMP INVALID LOG2 PUSH5 0x6970667358 0x22 SLT KECCAK256 GT DUP5 0xFC 0xDC 0xBE SUB DUP2 CALL 0x4C PUSH32 0xD7BBCA0C359FA3465AED2FDF0BEF5429173A67D4409564736F6C634300081400 CALLER "},"methodIdentifiers":{"AMA_FEE_USD()":"af77e469","emergencyWithdraw()":"db2e21bc","getOraclePrice()":"796da7af","getRequest(bytes32)":"fb1e61ca","getRequiredBNB()":"26fa0cad","manualPriceBNB()":"171dca13","owner()":"8da5cb5b","pause()":"8456cb59","paused()":"5c975abb","priceFeed()":"741bef1a","refundRequest(bytes32)":"916a064c","renounceOwnership()":"715018a6","requestAMA(bytes32)":"4abdbd32","requestExists(bytes32)":"1b74d046","requests(bytes32)":"9d866985","setUseOracle(bool)":"6804f613","totalBNBCollected()":"92423383","totalRequests()":"8aea61dc","transferOwnership(address)":"f2fde38b","treasury()":"61d027b3","unpause()":"3f4ba83a","updateManualPrice(uint256)":"553c907e","updatePriceFeed(address)":"95877f78","updateTreasury(address)":"7f51bb1f","useOracle()":"44878724"}}}}}