{"contracts/std-presale/PresaleRound.sol":{"PresaleRound":{"abi":[{"inputs":[{"internalType":"address","name":"_projectToken","type":"address"},{"internalType":"address","name":"_paymentToken","type":"address"},{"internalType":"uint256","name":"_softCap","type":"uint256"},{"internalType":"uint256","name":"_hardCap","type":"uint256"},{"internalType":"uint256","name":"_minContribution","type":"uint256"},{"internalType":"uint256","name":"_maxContribution","type":"uint256"},{"internalType":"uint256","name":"_startTime","type":"uint256"},{"internalType":"uint256","name":"_endTime","type":"uint256"},{"internalType":"address","name":"_feeSplitter","type":"address"},{"internalType":"address","name":"_vestingVault","type":"address"},{"internalType":"address","name":"_projectOwner","type":"address"},{"internalType":"address","name":"_admin","type":"address"}],"stateMutability":"nonpayable","type":"constructor"},{"inputs":[],"name":"AccessControlBadConfirmation","type":"error"},{"inputs":[{"internalType":"address","name":"account","type":"address"},{"internalType":"bytes32","name":"neededRole","type":"bytes32"}],"name":"AccessControlUnauthorizedAccount","type":"error"},{"inputs":[],"name":"BelowMinimum","type":"error"},{"inputs":[],"name":"ConfigLocked","type":"error"},{"inputs":[],"name":"ContributionLimitExceeded","type":"error"},{"inputs":[],"name":"EnforcedPause","type":"error"},{"inputs":[],"name":"ExpectedPause","type":"error"},{"inputs":[],"name":"HardCapExceeded","type":"error"},{"inputs":[],"name":"InvalidAddress","type":"error"},{"inputs":[],"name":"InvalidFeeConfig","type":"error"},{"inputs":[],"name":"InvalidStatus","type":"error"},{"inputs":[],"name":"NoContribution","type":"error"},{"inputs":[],"name":"ReentrancyGuardReentrantCall","type":"error"},{"inputs":[],"name":"RefundNotAvailable","type":"error"},{"inputs":[{"internalType":"address","name":"token","type":"address"}],"name":"SafeERC20FailedOperation","type":"error"},{"inputs":[],"name":"SoftCapNotMet","type":"error"},{"inputs":[],"name":"VestingFundingFailed","type":"error"},{"anonymous":false,"inputs":[{"indexed":false,"internalType":"string","name":"reason","type":"string"}],"name":"Cancelled","type":"event"},{"anonymous":false,"inputs":[{"indexed":true,"internalType":"address","name":"contributor","type":"address"},{"indexed":false,"internalType":"uint256","name":"amount","type":"uint256"},{"indexed":true,"internalType":"address","name":"referrer","type":"address"}],"name":"Contributed","type":"event"},{"anonymous":false,"inputs":[{"components":[{"internalType":"uint256","name":"totalBps","type":"uint256"},{"internalType":"uint256","name":"treasuryBps","type":"uint256"},{"internalType":"uint256","name":"referralPoolBps","type":"uint256"},{"internalType":"uint256","name":"sbtStakingBps","type":"uint256"}],"indexed":false,"internalType":"struct PresaleRound.FeeConfig","name":"newConfig","type":"tuple"}],"name":"FeeConfigUpdated","type":"event"},{"anonymous":false,"inputs":[{"indexed":false,"internalType":"string","name":"reason","type":"string"}],"name":"FinalizedFailed","type":"event"},{"anonymous":false,"inputs":[{"indexed":false,"internalType":"uint256","name":"totalRaised","type":"uint256"},{"indexed":false,"internalType":"uint256","name":"feeAmount","type":"uint256"},{"indexed":false,"internalType":"uint256","name":"tgeTimestamp","type":"uint256"}],"name":"FinalizedSuccess","type":"event"},{"anonymous":false,"inputs":[{"indexed":false,"internalType":"address","name":"account","type":"address"}],"name":"Paused","type":"event"},{"anonymous":false,"inputs":[{"indexed":true,"internalType":"address","name":"contributor","type":"address"},{"indexed":false,"internalType":"uint256","name":"amount","type":"uint256"}],"name":"Refunded","type":"event"},{"anonymous":false,"inputs":[{"indexed":true,"internalType":"bytes32","name":"role","type":"bytes32"},{"indexed":true,"internalType":"bytes32","name":"previousAdminRole","type":"bytes32"},{"indexed":true,"internalType":"bytes32","name":"newAdminRole","type":"bytes32"}],"name":"RoleAdminChanged","type":"event"},{"anonymous":false,"inputs":[{"indexed":true,"internalType":"bytes32","name":"role","type":"bytes32"},{"indexed":true,"internalType":"address","name":"account","type":"address"},{"indexed":true,"internalType":"address","name":"sender","type":"address"}],"name":"RoleGranted","type":"event"},{"anonymous":false,"inputs":[{"indexed":true,"internalType":"bytes32","name":"role","type":"bytes32"},{"indexed":true,"internalType":"address","name":"account","type":"address"},{"indexed":true,"internalType":"address","name":"sender","type":"address"}],"name":"RoleRevoked","type":"event"},{"anonymous":false,"inputs":[{"indexed":false,"internalType":"enum PresaleRound.Status","name":"oldStatus","type":"uint8"},{"indexed":false,"internalType":"enum PresaleRound.Status","name":"newStatus","type":"uint8"}],"name":"StatusSynced","type":"event"},{"anonymous":false,"inputs":[{"indexed":false,"internalType":"address","name":"account","type":"address"}],"name":"Unpaused","type":"event"},{"anonymous":false,"inputs":[{"indexed":false,"internalType":"uint256","name":"amount","type":"uint256"}],"name":"UnsoldTokensBurned","type":"event"},{"inputs":[],"name":"ADMIN_ROLE","outputs":[{"internalType":"bytes32","name":"","type":"bytes32"}],"stateMutability":"view","type":"function"},{"inputs":[],"name":"DEFAULT_ADMIN_ROLE","outputs":[{"internalType":"bytes32","name":"","type":"bytes32"}],"stateMutability":"view","type":"function"},{"inputs":[{"internalType":"string","name":"reason","type":"string"}],"name":"cancel","outputs":[],"stateMutability":"nonpayable","type":"function"},{"inputs":[],"name":"claimRefund","outputs":[],"stateMutability":"nonpayable","type":"function"},{"inputs":[{"internalType":"uint256","name":"amount","type":"uint256"},{"internalType":"address","name":"referrer","type":"address"}],"name":"contribute","outputs":[],"stateMutability":"payable","type":"function"},{"inputs":[{"internalType":"address","name":"","type":"address"}],"name":"contributions","outputs":[{"internalType":"uint256","name":"","type":"uint256"}],"stateMutability":"view","type":"function"},{"inputs":[],"name":"endTime","outputs":[{"internalType":"uint256","name":"","type":"uint256"}],"stateMutability":"view","type":"function"},{"inputs":[],"name":"feeConfig","outputs":[{"internalType":"uint256","name":"totalBps","type":"uint256"},{"internalType":"uint256","name":"treasuryBps","type":"uint256"},{"internalType":"uint256","name":"referralPoolBps","type":"uint256"},{"internalType":"uint256","name":"sbtStakingBps","type":"uint256"}],"stateMutability":"view","type":"function"},{"inputs":[],"name":"feeSplitter","outputs":[{"internalType":"address","name":"","type":"address"}],"stateMutability":"view","type":"function"},{"inputs":[{"internalType":"string","name":"reason","type":"string"}],"name":"finalizeFailed","outputs":[],"stateMutability":"nonpayable","type":"function"},{"inputs":[{"internalType":"bytes32","name":"merkleRoot","type":"bytes32"},{"internalType":"uint256","name":"totalVestingAllocation","type":"uint256"},{"internalType":"uint256","name":"totalTokensForSale","type":"uint256"}],"name":"finalizeSuccess","outputs":[],"stateMutability":"nonpayable","type":"function"},{"inputs":[{"internalType":"address","name":"contributor","type":"address"}],"name":"getContributionInfo","outputs":[{"internalType":"uint256","name":"contribution","type":"uint256"},{"internalType":"address","name":"referrer","type":"address"}],"stateMutability":"view","type":"function"},{"inputs":[],"name":"getPresaleInfo","outputs":[{"internalType":"enum PresaleRound.Status","name":"_status","type":"uint8"},{"internalType":"uint256","name":"_totalRaised","type":"uint256"},{"internalType":"uint256","name":"_softCap","type":"uint256"},{"internalType":"uint256","name":"_hardCap","type":"uint256"},{"internalType":"uint256","name":"_startTime","type":"uint256"},{"internalType":"uint256","name":"_endTime","type":"uint256"},{"internalType":"uint256","name":"_tgeTimestamp","type":"uint256"}],"stateMutability":"view","type":"function"},{"inputs":[{"internalType":"bytes32","name":"role","type":"bytes32"}],"name":"getRoleAdmin","outputs":[{"internalType":"bytes32","name":"","type":"bytes32"}],"stateMutability":"view","type":"function"},{"inputs":[{"internalType":"bytes32","name":"role","type":"bytes32"},{"internalType":"address","name":"account","type":"address"}],"name":"grantRole","outputs":[],"stateMutability":"nonpayable","type":"function"},{"inputs":[],"name":"hardCap","outputs":[{"internalType":"uint256","name":"","type":"uint256"}],"stateMutability":"view","type":"function"},{"inputs":[{"internalType":"bytes32","name":"role","type":"bytes32"},{"internalType":"address","name":"account","type":"address"}],"name":"hasRole","outputs":[{"internalType":"bool","name":"","type":"bool"}],"stateMutability":"view","type":"function"},{"inputs":[],"name":"maxContribution","outputs":[{"internalType":"uint256","name":"","type":"uint256"}],"stateMutability":"view","type":"function"},{"inputs":[],"name":"minContribution","outputs":[{"internalType":"uint256","name":"","type":"uint256"}],"stateMutability":"view","type":"function"},{"inputs":[],"name":"pause","outputs":[],"stateMutability":"nonpayable","type":"function"},{"inputs":[],"name":"paused","outputs":[{"internalType":"bool","name":"","type":"bool"}],"stateMutability":"view","type":"function"},{"inputs":[],"name":"paymentToken","outputs":[{"internalType":"address","name":"","type":"address"}],"stateMutability":"view","type":"function"},{"inputs":[],"name":"projectOwner","outputs":[{"internalType":"address","name":"","type":"address"}],"stateMutability":"view","type":"function"},{"inputs":[],"name":"projectToken","outputs":[{"internalType":"address","name":"","type":"address"}],"stateMutability":"view","type":"function"},{"inputs":[{"internalType":"address","name":"","type":"address"}],"name":"referrers","outputs":[{"internalType":"address","name":"","type":"address"}],"stateMutability":"view","type":"function"},{"inputs":[{"internalType":"bytes32","name":"role","type":"bytes32"},{"internalType":"address","name":"callerConfirmation","type":"address"}],"name":"renounceRole","outputs":[],"stateMutability":"nonpayable","type":"function"},{"inputs":[{"internalType":"bytes32","name":"role","type":"bytes32"},{"internalType":"address","name":"account","type":"address"}],"name":"revokeRole","outputs":[],"stateMutability":"nonpayable","type":"function"},{"inputs":[{"components":[{"internalType":"uint256","name":"totalBps","type":"uint256"},{"internalType":"uint256","name":"treasuryBps","type":"uint256"},{"internalType":"uint256","name":"referralPoolBps","type":"uint256"},{"internalType":"uint256","name":"sbtStakingBps","type":"uint256"}],"internalType":"struct PresaleRound.FeeConfig","name":"newConfig","type":"tuple"}],"name":"setFeeConfig","outputs":[],"stateMutability":"nonpayable","type":"function"},{"inputs":[],"name":"softCap","outputs":[{"internalType":"uint256","name":"","type":"uint256"}],"stateMutability":"view","type":"function"},{"inputs":[],"name":"startTime","outputs":[{"internalType":"uint256","name":"","type":"uint256"}],"stateMutability":"view","type":"function"},{"inputs":[],"name":"status","outputs":[{"internalType":"enum PresaleRound.Status","name":"","type":"uint8"}],"stateMutability":"view","type":"function"},{"inputs":[{"internalType":"bytes4","name":"interfaceId","type":"bytes4"}],"name":"supportsInterface","outputs":[{"internalType":"bool","name":"","type":"bool"}],"stateMutability":"view","type":"function"},{"inputs":[],"name":"tgeTimestamp","outputs":[{"internalType":"uint256","name":"","type":"uint256"}],"stateMutability":"view","type":"function"},{"inputs":[],"name":"totalRaised","outputs":[{"internalType":"uint256","name":"","type":"uint256"}],"stateMutability":"view","type":"function"},{"inputs":[],"name":"unpause","outputs":[],"stateMutability":"nonpayable","type":"function"},{"inputs":[],"name":"vestingVault","outputs":[{"internalType":"address","name":"","type":"address"}],"stateMutability":"view","type":"function"}],"evm":{"bytecode":{"linkReferences":{},"object":"6101e0346200033a57601f6200208b38819003918201601f19168301916001600160401b038311848410176200030057808492610180946040528339810103126200033a576200004f816200033f565b906200005e602082016200033f565b916040820151926060830151608084015160a085015160c08601519060e0870151926200008f61010089016200033f565b946200009f6101208a016200033f565b99620000be610160620000b66101408d016200033f565b9b016200033f565b97600160005581831062000328578587111562000328576001600160a01b0388161562000316576001600160a01b038c161562000316576001600160a01b038b16156200031657620001529960805260a05260c05260e05261010052610120526101405261016052610180526101a09384526101c092835260ff19600754166007556200014b8162000354565b50620003d5565b50604051608081016001600160401b038111828210176200030057604052603260606101f49283815260fa602082015260c86040820152015260035560fa60045560c8600555603260065560405190611bf29283620004798439608051838181610bb001528181610d92015261101f015260a0518381816102ef015281816109d501528181610e04015281816110a20152818161115a015281816111d7015281816112b2015281816112e1015281816113350152611442015260c05183818161040b015281816106ed015281816108140152610d08015260e0518381816101c40152818161083a015281816109a601528181610ece0152611ab10152610100518381816104af015261094d0152610120518381816107280152610974015261014051838181610508015281816107bd0152818161086001526119c0015261016051838181610886015281816114090152611a6d015261018051838181610b4801528181610e35015281816111100152818161119901526112570152518281816105db0152610d4b01525181818161062001528181610d7101528181610e9801528181610fdd01526110810152f35b634e487b7160e01b600052604160045260246000fd5b60405163e6c4247b60e01b8152600490fd5b6040516307a92f1960e51b8152600490fd5b600080fd5b51906001600160a01b03821682036200033a57565b6001600160a01b031660008181527fac33ff75c19e70fe83507db0d683fd3465c996598dc972688b7ace676c89077b602052604081205490919060ff16620003d15781805260026020526040822081835260205260408220600160ff1982541617905533916000805160206200206b8339815191528180a4600190565b5090565b6001600160a01b031660008181527fe5ebfa64fca8d502a8e50c1edffd2c31ef4dad5b396e65d9f397fb028f74abc560205260408120549091907fa49807205ce4d355092ef5a8a18f56e8913cf4a201fbe287825b095693c217759060ff16620004735780835260026020526040832082845260205260408320600160ff198254161790556000805160206200206b833981519152339380a4600190565b50509056fe608080604052600436101561001357600080fd5b600090813560e01c90816301ffc9a7146115c1575080630b4f3f3d1461153b5780631e5eb1d014611504578063200d2ed2146114dc578063248a9ca3146114af5780632f2ff15d146114715780633013ce291461142c5780633197cbb6146113f157806336568abe146113a9578063387cd2cb14610cbf5780633f4ba83a14610c5457806342e94c9014610c1b5780634a3b68cc14610bdf5780634b60ce7714610b9a5780635c975abb14610b775780636052970c14610b3257806360b0b0f0146108ec57806375b238fc146108b1578063767fa723146107e057806378e97925146107a55780638456cb591461074b5780638d3d657614610710578063906a26e0146106d557806391d1485414610689578063a217fddf1461066d578063a4317ef41461064f578063a4475ce41461060a578063a5917baf146105c5578063a9eddf99146104d2578063aaffadf314610497578063b30ca2da146103cf578063b5545a3c14610292578063c5c4744c14610274578063cd78d92c1461022c578063d547741f146101ea5763fb86a404146101ad57600080fd5b346101e757806003193601126101e75760206040517f00000000000000000000000000000000000000000000000000000000000000008152f35b80fd5b50346101e75760403660031901126101e75761022860043561020a61168c565b9080845260026020526102236001604086200154611732565b6117d8565b5080f35b50346101e75760203660031901126101e7576040906001600160a01b03806102526116a2565b168252600a602052828083205492600b60205220541682519182526020820152f35b50346101e757806003193601126101e7576020600854604051908152f35b50346101e757806003193601126101e7576102ab611993565b60ff6007541660068110156103bb57600481141590816103af575b5061039d57338152600a6020526040812054801561038b57338252600a602052604082208290557f00000000000000000000000000000000000000000000000000000000000000006001600160a01b0316818161037b5783808093508092335af161032f611b18565b5015610369575b6040519081527fd7dee2702d63ad89917b6a4da9981c90c4d24f8c2bdfd64c604ecae57d8d065160203392a26001815580f35b60405163b9da5d2b60e01b8152600490fd5b610386913390611b58565b610336565b604051631971fbf360e21b8152600490fd5b604051630b4d698160e01b8152600490fd5b600591501415386102c6565b634e487b7160e01b82526021600452602482fd5b50346101e7576103de3661161a565b6103e66116b8565b6103ee6119b6565b6007549160ff8316600681101561048357600203610471576008547f000000000000000000000000000000000000000000000000000000000000000011156104715760047f5b55eccea968a9bf1df9a6702e20475ac67bb0d7f402f51701eef38e619368fe9360ff19161760075561046b60405192839283611b94565b0390a180f35b6040516307a92f1960e51b8152600490fd5b634e487b7160e01b85526021600452602485fd5b50346101e757806003193601126101e75760206040517f00000000000000000000000000000000000000000000000000000000000000008152f35b50346101e75760803660031901126101e7576104ec6116b8565b60ff6007541660068110156103bb576105b4576008546105b4577f00000000000000000000000000000000000000000000000000000000000000004210156105b457604435602435600435610541838361184f565b61054e606435809261184f565b82036105a2577f0ad166d8be1925ee44c5a77600b8a5f7e58cbe711c0dbd99624014a81b8350ba9360809383600355806004558160055582600655604051938452602084015260408301526060820152a180f35b604051632b00a33d60e11b8152600490fd5b60405162b5d7e160e81b8152600490fd5b50346101e757806003193601126101e7576040517f00000000000000000000000000000000000000000000000000000000000000006001600160a01b03168152602090f35b50346101e757806003193601126101e7576040517f00000000000000000000000000000000000000000000000000000000000000006001600160a01b03168152602090f35b50346101e757806003193601126101e7576020600954604051908152f35b50346101e757806003193601126101e757602090604051908152f35b50346101e75760403660031901126101e75760406106a561168c565b9160043581526002602052209060018060a01b0316600052602052602060ff604060002054166040519015158152f35b50346101e757806003193601126101e75760206040517f00000000000000000000000000000000000000000000000000000000000000008152f35b50346101e757806003193601126101e75760206040517f00000000000000000000000000000000000000000000000000000000000000008152f35b50346101e757806003193601126101e7576107646116b8565b61076c611975565b600160ff19815416176001557f62e78cea01bee320cd4e420270b5ea74000d11b0c9f74754ebdbfc544b05a2586020604051338152a180f35b50346101e757806003193601126101e75760206040517f00000000000000000000000000000000000000000000000000000000000000008152f35b50346101e757806003193601126101e75760e060ff600754166008546009549061080d6040518094611669565b60208301527f000000000000000000000000000000000000000000000000000000000000000060408301527f000000000000000000000000000000000000000000000000000000000000000060608301527f000000000000000000000000000000000000000000000000000000000000000060808301527f000000000000000000000000000000000000000000000000000000000000000060a083015260c0820152f35b50346101e757806003193601126101e75760206040517fa49807205ce4d355092ef5a8a18f56e8913cf4a201fbe287825b095693c217758152f35b5060403660031901126101e75760043561090461168c565b9061090d611993565b610915611975565b61091d6119b6565b60ff600754166006811015610b1e5760010361047157338352602091600a835261094b82604086205461184f565b7f00000000000000000000000000000000000000000000000000000000000000008110610b0c577f000000000000000000000000000000000000000000000000000000000000000010610afa576109a48260085461184f565b7f000000000000000000000000000000000000000000000000000000000000000010610ae8576001600160a01b03827f0000000000000000000000000000000000000000000000000000000000000000821680610ab25750340361047157807fec470969f3350ca5a15f0d85053f8763ffd0ee39c7b74fcdc5af7862718e292a925b338752600a865260408720610a3c86825461184f565b9055610a4a8560085461184f565b6008551680151580610a9d575b610a7b575b50338552600b8452604085205416926040519283523392a36001815580f35b338652600b85526040862080546001600160a01b031916909117905538610a5c565b50338652600b85528160408720541615610a57565b92610ae383927fec470969f3350ca5a15f0d85053f8763ffd0ee39c7b74fcdc5af7862718e292a95309033906118c4565b610a26565b604051631c4af3c960e11b8152600490fd5b6040516374368fb960e11b8152600490fd5b60405163860b82a960e01b8152600490fd5b634e487b7160e01b84526021600452602484fd5b50346101e757806003193601126101e7576040517f00000000000000000000000000000000000000000000000000000000000000006001600160a01b03168152602090f35b50346101e757806003193601126101e757602060ff600154166040519015158152f35b50346101e757806003193601126101e7576040517f00000000000000000000000000000000000000000000000000000000000000006001600160a01b03168152602090f35b50346101e75760203660031901126101e7576020906001600160a01b039060409082610c096116a2565b168152600b8452205416604051908152f35b50346101e75760203660031901126101e7576020906040906001600160a01b03610c436116a2565b168152600a83522054604051908152f35b50346101e757806003193601126101e757610c6d6116b8565b60015460ff811615610cad5760ff19166001557f5db9ee0a495bf2e6ff9c91a7834c1ba4fdd244a5e8aa4e537bd38aeae4b073aa6020604051338152a180f35b604051638dfc202b60e01b8152600490fd5b50346101e75760603660031901126101e757602435610cdc6116b8565b610ce4611993565b610cec6119b6565b60ff6007541660068110156113955760020361047157600854907f000000000000000000000000000000000000000000000000000000000000000082106113835782610d48612710610d4060035486611af8565b048094611b0b565b917f0000000000000000000000000000000000000000000000000000000000000000610dbf82827f00000000000000000000000000000000000000000000000000000000000000007f00000000000000000000000000000000000000000000000000000000000000006001600160a01b03166118c4565b6001600160a01b0316803b156110e857604483926040519485938492637c382d0b60e01b8452600435600485015260248401525af180156110ec57611370575b5082907f00000000000000000000000000000000000000000000000000000000000000006001600160a01b03161580156110fb577f00000000000000000000000000000000000000000000000000000000000000006001600160a01b0316803b156110f75783859160046040518094819363990087b760e01b83525af19081156110ec5784916110d4575b50505b1561107a57818080927f00000000000000000000000000000000000000000000000000000000000000005af1610ec1611b18565b5015610369575b600854907f0000000000000000000000000000000000000000000000000000000000000000918281108061106f575b610f4f575b837ff3e2f1d90bd58f6807b6468783c27fdc68307b057882b3ca4eb0f3bb2116789960608442600955600360ff196007541617600755600854906040519182526020820152426040820152a16001815580f35b610f5c610f649184611b0b565b604435611af8565b908215611059577ff3e2f1d90bd58f6807b6468783c27fdc68307b057882b3ca4eb0f3bb21167899926060920480610f9e575b5090610efc565b60207f3316cd92e8029a9d825199ad5d83f540869e52a9d77cf97560178a0b5ebac6fb9161104c6040516323b872dd60e01b8482015260018060a01b037f000000000000000000000000000000000000000000000000000000000000000016602482015261dead60448201528260648201526064815261101d81611886565b7f00000000000000000000000000000000000000000000000000000000000000006001600160a01b031661190d565b604051908152a138610f97565b634e487b7160e01b600052601260045260246000fd5b506044351515610ef7565b6110cf91507f00000000000000000000000000000000000000000000000000000000000000007f00000000000000000000000000000000000000000000000000000000000000006001600160a01b0316611b58565b610ec8565b6110dd90611872565b6110e8578238610e8a565b8280fd5b6040513d86823e3d90fd5b8380fd5b60405163095ea7b360e01b60208083018281527f00000000000000000000000000000000000000000000000000000000000000006001600160a01b031660248501526044808501899052845286906111546064866118a2565b845190827f00000000000000000000000000000000000000000000000000000000000000006001600160a01b03165af185513d8261132b575b505015611242575b50507f00000000000000000000000000000000000000000000000000000000000000006001600160a01b0316803b156110f75760405163398da91160e01b81527f00000000000000000000000000000000000000000000000000000000000000006001600160a01b03166004820152602481018690529084908290604490829084905af19081156110ec57849161122e575b5050610e8d565b61123790611872565b6110e8578238611227565b90935060405190602082015260018060a01b037f00000000000000000000000000000000000000000000000000000000000000001660248201528560448201526044815280608081011067ffffffffffffffff6080830111176113155760808101604052859361130e916112df907f00000000000000000000000000000000000000000000000000000000000000006001600160a01b031661190d565b7f00000000000000000000000000000000000000000000000000000000000000006001600160a01b031661190d565b3880611195565b634e487b7160e01b600052604160045260246000fd5b90915061136857507f00000000000000000000000000000000000000000000000000000000000000006001600160a01b03163b15155b388061118d565b600114611361565b61137c90939193611872565b9138610dff565b6040516346c21a5560e01b8152600490fd5b634e487b7160e01b83526021600452602483fd5b50346101e75760403660031901126101e7576113c361168c565b336001600160a01b038216036113df57610228906004356117d8565b60405163334bd91960e11b8152600490fd5b50346101e757806003193601126101e75760206040517f00000000000000000000000000000000000000000000000000000000000000008152f35b50346101e757806003193601126101e7576040517f00000000000000000000000000000000000000000000000000000000000000006001600160a01b03168152602090f35b50346101e75760403660031901126101e75761022860043561149161168c565b9080845260026020526114aa6001604086200154611732565b611758565b50346101e75760203660031901126101e75760016040602092600435815260028452200154604051908152f35b50346101e757806003193601126101e757602060ff600754166115026040518092611669565bf35b50346101e757806003193601126101e757608060035460045460055460065491604051938452602084015260408301526060820152f35b50346101e75761154a3661161a565b6115526116b8565b61155a6119b6565b6007549160ff831660068110156104835780151590816115b5575b506104715760057f2ac842f90dab3279148f7e55ac91d911f75c1c300a202a5250e05400b15fa1569360ff19161760075561046b60405192839283611b94565b60019150141538611575565b9050346116165760203660031901126116165760043563ffffffff60e01b81168091036110e85760209250637965db0b60e01b8114908115611605575b5015158152f35b6301ffc9a760e01b149050386115fe565b5080fd5b9060206003198301126116645760043567ffffffffffffffff9283821161166457806023830112156116645781600401359384116116645760248483010111611664576024019190565b600080fd5b9060068210156116765752565b634e487b7160e01b600052602160045260246000fd5b602435906001600160a01b038216820361166457565b600435906001600160a01b038216820361166457565b3360009081527fe5ebfa64fca8d502a8e50c1edffd2c31ef4dad5b396e65d9f397fb028f74abc560205260409020547fa49807205ce4d355092ef5a8a18f56e8913cf4a201fbe287825b095693c217759060ff16156117145750565b6044906040519063e2517d3f60e01b82523360048301526024820152fd5b80600052600260205260406000203360005260205260ff60406000205416156117145750565b906000918083526002602052604083209160018060a01b03169182845260205260ff604084205416156000146117d35780835260026020526040832082845260205260408320600160ff198254161790557f2f8788117e7eff1d82e926ec794901d17c78024a50270940304540a733656f0d339380a4600190565b505090565b906000918083526002602052604083209160018060a01b03169182845260205260ff6040842054166000146117d3578083526002602052604083208284526020526040832060ff1981541690557ff6391f5c32d9c69d2a47ea670b442974b53935d1edc7fd64eb21e047a839171b339380a4600190565b9190820180921161185c57565b634e487b7160e01b600052601160045260246000fd5b67ffffffffffffffff811161131557604052565b60a0810190811067ffffffffffffffff82111761131557604052565b90601f8019910116810190811067ffffffffffffffff82111761131557604052565b6040516323b872dd60e01b60208201526001600160a01b03928316602482015292909116604483015260648083019390935291815261190b9161190682611886565b61190d565b565b906000602091828151910182855af115611969576000513d61196057506001600160a01b0381163b155b61193e5750565b604051635274afe760e01b81526001600160a01b039091166004820152602490fd5b60011415611937565b6040513d6000823e3d90fd5b60ff6001541661198157565b60405163d93c066560e01b8152600490fd5b6002600054146119a4576002600055565b604051633ee5aeb560e01b8152600490fd5b60075460ff8116907f000000000000000000000000000000000000000000000000000000000000000042101580611ae7575b611ad7575b5060075460ff8116600681101561167657600114611a6b575b5060ff60075416600681101561167657600682101561167657808203611a2a575050565b7f0d643a1384921de4b8ad16df0a695f1e75fcfe3bcac27f9c5c8cee464587238291611a68604092611a5e84518094611669565b6020830190611669565ba1565b7f00000000000000000000000000000000000000000000000000000000000000004210801590611aab575b15611a065760ff191660021760075538611a06565b506008547f00000000000000000000000000000000000000000000000000000000000000001115611a96565b60ff1916600117600755386119ed565b5060068210156116765781156119e8565b8181029291811591840414171561185c57565b9190820391821161185c57565b3d15611b53573d9067ffffffffffffffff82116113155760405191611b47601f8201601f1916602001846118a2565b82523d6000602084013e565b606090565b60405163a9059cbb60e01b60208201526001600160a01b0392909216602483015260448083019390935291815261190b916119066064836118a2565b90918060409360208452816020850152848401376000828201840152601f01601f191601019056fea2646970667358221220d2274bc329aa510b8b7291976ec0ac3931520377fd56989d62e7607d19d4c78d64736f6c634300081400332f8788117e7eff1d82e926ec794901d17c78024a50270940304540a733656f0d","opcodes":"PUSH2 0x1E0 CALLVALUE PUSH3 0x33A JUMPI PUSH1 0x1F PUSH3 0x208B CODESIZE DUP2 SWAP1 SUB SWAP2 DUP3 ADD PUSH1 0x1F NOT AND DUP4 ADD SWAP2 PUSH1 0x1 PUSH1 0x1 PUSH1 0x40 SHL SUB DUP4 GT DUP5 DUP5 LT OR PUSH3 0x300 JUMPI DUP1 DUP5 SWAP3 PUSH2 0x180 SWAP5 PUSH1 0x40 MSTORE DUP4 CODECOPY DUP2 ADD SUB SLT PUSH3 0x33A JUMPI PUSH3 0x4F DUP2 PUSH3 0x33F JUMP JUMPDEST SWAP1 PUSH3 0x5E PUSH1 0x20 DUP3 ADD PUSH3 0x33F JUMP JUMPDEST SWAP2 PUSH1 0x40 DUP3 ADD MLOAD SWAP3 PUSH1 0x60 DUP4 ADD MLOAD PUSH1 0x80 DUP5 ADD MLOAD PUSH1 0xA0 DUP6 ADD MLOAD PUSH1 0xC0 DUP7 ADD MLOAD SWAP1 PUSH1 0xE0 DUP8 ADD MLOAD SWAP3 PUSH3 0x8F PUSH2 0x100 DUP10 ADD PUSH3 0x33F JUMP JUMPDEST SWAP5 PUSH3 0x9F PUSH2 0x120 DUP11 ADD PUSH3 0x33F JUMP JUMPDEST SWAP10 PUSH3 0xBE PUSH2 0x160 PUSH3 0xB6 PUSH2 0x140 DUP14 ADD PUSH3 0x33F JUMP JUMPDEST SWAP12 ADD PUSH3 0x33F JUMP JUMPDEST SWAP8 PUSH1 0x1 PUSH1 0x0 SSTORE DUP2 DUP4 LT PUSH3 0x328 JUMPI DUP6 DUP8 GT ISZERO PUSH3 0x328 JUMPI PUSH1 0x1 PUSH1 0x1 PUSH1 0xA0 SHL SUB DUP9 AND ISZERO PUSH3 0x316 JUMPI PUSH1 0x1 PUSH1 0x1 PUSH1 0xA0 SHL SUB DUP13 AND ISZERO PUSH3 0x316 JUMPI PUSH1 0x1 PUSH1 0x1 PUSH1 0xA0 SHL SUB DUP12 AND ISZERO PUSH3 0x316 JUMPI PUSH3 0x152 SWAP10 PUSH1 0x80 MSTORE PUSH1 0xA0 MSTORE PUSH1 0xC0 MSTORE PUSH1 0xE0 MSTORE PUSH2 0x100 MSTORE PUSH2 0x120 MSTORE PUSH2 0x140 MSTORE PUSH2 0x160 MSTORE PUSH2 0x180 MSTORE PUSH2 0x1A0 SWAP4 DUP5 MSTORE PUSH2 0x1C0 SWAP3 DUP4 MSTORE PUSH1 0xFF NOT PUSH1 0x7 SLOAD AND PUSH1 0x7 SSTORE PUSH3 0x14B DUP2 PUSH3 0x354 JUMP JUMPDEST POP PUSH3 0x3D5 JUMP JUMPDEST POP PUSH1 0x40 MLOAD PUSH1 0x80 DUP2 ADD PUSH1 0x1 PUSH1 0x1 PUSH1 0x40 SHL SUB DUP2 GT DUP3 DUP3 LT OR PUSH3 0x300 JUMPI PUSH1 0x40 MSTORE PUSH1 0x32 PUSH1 0x60 PUSH2 0x1F4 SWAP3 DUP4 DUP2 MSTORE PUSH1 0xFA PUSH1 0x20 DUP3 ADD MSTORE PUSH1 0xC8 PUSH1 0x40 DUP3 ADD MSTORE ADD MSTORE PUSH1 0x3 SSTORE PUSH1 0xFA PUSH1 0x4 SSTORE PUSH1 0xC8 PUSH1 0x5 SSTORE PUSH1 0x32 PUSH1 0x6 SSTORE PUSH1 0x40 MLOAD SWAP1 PUSH2 0x1BF2 SWAP3 DUP4 PUSH3 0x479 DUP5 CODECOPY PUSH1 0x80 MLOAD DUP4 DUP2 DUP2 PUSH2 0xBB0 ADD MSTORE DUP2 DUP2 PUSH2 0xD92 ADD MSTORE PUSH2 0x101F ADD MSTORE PUSH1 0xA0 MLOAD DUP4 DUP2 DUP2 PUSH2 0x2EF ADD MSTORE DUP2 DUP2 PUSH2 0x9D5 ADD MSTORE DUP2 DUP2 PUSH2 0xE04 ADD MSTORE DUP2 DUP2 PUSH2 0x10A2 ADD MSTORE DUP2 DUP2 PUSH2 0x115A ADD MSTORE DUP2 DUP2 PUSH2 0x11D7 ADD MSTORE DUP2 DUP2 PUSH2 0x12B2 ADD MSTORE DUP2 DUP2 PUSH2 0x12E1 ADD MSTORE DUP2 DUP2 PUSH2 0x1335 ADD MSTORE PUSH2 0x1442 ADD MSTORE PUSH1 0xC0 MLOAD DUP4 DUP2 DUP2 PUSH2 0x40B ADD MSTORE DUP2 DUP2 PUSH2 0x6ED ADD MSTORE DUP2 DUP2 PUSH2 0x814 ADD MSTORE PUSH2 0xD08 ADD MSTORE PUSH1 0xE0 MLOAD DUP4 DUP2 DUP2 PUSH2 0x1C4 ADD MSTORE DUP2 DUP2 PUSH2 0x83A ADD MSTORE DUP2 DUP2 PUSH2 0x9A6 ADD MSTORE DUP2 DUP2 PUSH2 0xECE ADD MSTORE PUSH2 0x1AB1 ADD MSTORE PUSH2 0x100 MLOAD DUP4 DUP2 DUP2 PUSH2 0x4AF ADD MSTORE PUSH2 0x94D ADD MSTORE PUSH2 0x120 MLOAD DUP4 DUP2 DUP2 PUSH2 0x728 ADD MSTORE PUSH2 0x974 ADD MSTORE PUSH2 0x140 MLOAD DUP4 DUP2 DUP2 PUSH2 0x508 ADD MSTORE DUP2 DUP2 PUSH2 0x7BD ADD MSTORE DUP2 DUP2 PUSH2 0x860 ADD MSTORE PUSH2 0x19C0 ADD MSTORE PUSH2 0x160 MLOAD DUP4 DUP2 DUP2 PUSH2 0x886 ADD MSTORE DUP2 DUP2 PUSH2 0x1409 ADD MSTORE PUSH2 0x1A6D ADD MSTORE PUSH2 0x180 MLOAD DUP4 DUP2 DUP2 PUSH2 0xB48 ADD MSTORE DUP2 DUP2 PUSH2 0xE35 ADD MSTORE DUP2 DUP2 PUSH2 0x1110 ADD MSTORE DUP2 DUP2 PUSH2 0x1199 ADD MSTORE PUSH2 0x1257 ADD MSTORE MLOAD DUP3 DUP2 DUP2 PUSH2 0x5DB ADD MSTORE PUSH2 0xD4B ADD MSTORE MLOAD DUP2 DUP2 DUP2 PUSH2 0x620 ADD MSTORE DUP2 DUP2 PUSH2 0xD71 ADD MSTORE DUP2 DUP2 PUSH2 0xE98 ADD MSTORE DUP2 DUP2 PUSH2 0xFDD ADD MSTORE PUSH2 0x1081 ADD MSTORE RETURN JUMPDEST PUSH4 0x4E487B71 PUSH1 0xE0 SHL PUSH1 0x0 MSTORE PUSH1 0x41 PUSH1 0x4 MSTORE PUSH1 0x24 PUSH1 0x0 REVERT JUMPDEST PUSH1 0x40 MLOAD PUSH4 0xE6C4247B PUSH1 0xE0 SHL DUP2 MSTORE PUSH1 0x4 SWAP1 REVERT JUMPDEST PUSH1 0x40 MLOAD PUSH4 0x7A92F19 PUSH1 0xE5 SHL DUP2 MSTORE PUSH1 0x4 SWAP1 REVERT JUMPDEST PUSH1 0x0 DUP1 REVERT JUMPDEST MLOAD SWAP1 PUSH1 0x1 PUSH1 0x1 PUSH1 0xA0 SHL SUB DUP3 AND DUP3 SUB PUSH3 0x33A JUMPI JUMP JUMPDEST PUSH1 0x1 PUSH1 0x1 PUSH1 0xA0 SHL SUB AND PUSH1 0x0 DUP2 DUP2 MSTORE PUSH32 0xAC33FF75C19E70FE83507DB0D683FD3465C996598DC972688B7ACE676C89077B PUSH1 0x20 MSTORE PUSH1 0x40 DUP2 KECCAK256 SLOAD SWAP1 SWAP2 SWAP1 PUSH1 0xFF AND PUSH3 0x3D1 JUMPI DUP2 DUP1 MSTORE PUSH1 0x2 PUSH1 0x20 MSTORE PUSH1 0x40 DUP3 KECCAK256 DUP2 DUP4 MSTORE PUSH1 0x20 MSTORE PUSH1 0x40 DUP3 KECCAK256 PUSH1 0x1 PUSH1 0xFF NOT DUP3 SLOAD AND OR SWAP1 SSTORE CALLER SWAP2 PUSH1 0x0 DUP1 MLOAD PUSH1 0x20 PUSH3 0x206B DUP4 CODECOPY DUP2 MLOAD SWAP2 MSTORE DUP2 DUP1 LOG4 PUSH1 0x1 SWAP1 JUMP JUMPDEST POP SWAP1 JUMP JUMPDEST PUSH1 0x1 PUSH1 0x1 PUSH1 0xA0 SHL SUB AND PUSH1 0x0 DUP2 DUP2 MSTORE PUSH32 0xE5EBFA64FCA8D502A8E50C1EDFFD2C31EF4DAD5B396E65D9F397FB028F74ABC5 PUSH1 0x20 MSTORE PUSH1 0x40 DUP2 KECCAK256 SLOAD SWAP1 SWAP2 SWAP1 PUSH32 0xA49807205CE4D355092EF5A8A18F56E8913CF4A201FBE287825B095693C21775 SWAP1 PUSH1 0xFF AND PUSH3 0x473 JUMPI DUP1 DUP4 MSTORE PUSH1 0x2 PUSH1 0x20 MSTORE PUSH1 0x40 DUP4 KECCAK256 DUP3 DUP5 MSTORE PUSH1 0x20 MSTORE PUSH1 0x40 DUP4 KECCAK256 PUSH1 0x1 PUSH1 0xFF NOT DUP3 SLOAD AND OR SWAP1 SSTORE PUSH1 0x0 DUP1 MLOAD PUSH1 0x20 PUSH3 0x206B DUP4 CODECOPY DUP2 MLOAD SWAP2 MSTORE CALLER SWAP4 DUP1 LOG4 PUSH1 0x1 SWAP1 JUMP JUMPDEST POP POP SWAP1 JUMP INVALID PUSH1 0x80 DUP1 PUSH1 0x40 MSTORE PUSH1 0x4 CALLDATASIZE LT ISZERO PUSH2 0x13 JUMPI PUSH1 0x0 DUP1 REVERT JUMPDEST PUSH1 0x0 SWAP1 DUP2 CALLDATALOAD PUSH1 0xE0 SHR SWAP1 DUP2 PUSH4 0x1FFC9A7 EQ PUSH2 0x15C1 JUMPI POP DUP1 PUSH4 0xB4F3F3D EQ PUSH2 0x153B JUMPI DUP1 PUSH4 0x1E5EB1D0 EQ PUSH2 0x1504 JUMPI DUP1 PUSH4 0x200D2ED2 EQ PUSH2 0x14DC JUMPI DUP1 PUSH4 0x248A9CA3 EQ PUSH2 0x14AF JUMPI DUP1 PUSH4 0x2F2FF15D EQ PUSH2 0x1471 JUMPI DUP1 PUSH4 0x3013CE29 EQ PUSH2 0x142C JUMPI DUP1 PUSH4 0x3197CBB6 EQ PUSH2 0x13F1 JUMPI DUP1 PUSH4 0x36568ABE EQ PUSH2 0x13A9 JUMPI DUP1 PUSH4 0x387CD2CB EQ PUSH2 0xCBF JUMPI DUP1 PUSH4 0x3F4BA83A EQ PUSH2 0xC54 JUMPI DUP1 PUSH4 0x42E94C90 EQ PUSH2 0xC1B JUMPI DUP1 PUSH4 0x4A3B68CC EQ PUSH2 0xBDF JUMPI DUP1 PUSH4 0x4B60CE77 EQ PUSH2 0xB9A JUMPI DUP1 PUSH4 0x5C975ABB EQ PUSH2 0xB77 JUMPI DUP1 PUSH4 0x6052970C EQ PUSH2 0xB32 JUMPI DUP1 PUSH4 0x60B0B0F0 EQ PUSH2 0x8EC JUMPI DUP1 PUSH4 0x75B238FC EQ PUSH2 0x8B1 JUMPI DUP1 PUSH4 0x767FA723 EQ PUSH2 0x7E0 JUMPI DUP1 PUSH4 0x78E97925 EQ PUSH2 0x7A5 JUMPI DUP1 PUSH4 0x8456CB59 EQ PUSH2 0x74B JUMPI DUP1 PUSH4 0x8D3D6576 EQ PUSH2 0x710 JUMPI DUP1 PUSH4 0x906A26E0 EQ PUSH2 0x6D5 JUMPI DUP1 PUSH4 0x91D14854 EQ PUSH2 0x689 JUMPI DUP1 PUSH4 0xA217FDDF EQ PUSH2 0x66D JUMPI DUP1 PUSH4 0xA4317EF4 EQ PUSH2 0x64F JUMPI DUP1 PUSH4 0xA4475CE4 EQ PUSH2 0x60A JUMPI DUP1 PUSH4 0xA5917BAF EQ PUSH2 0x5C5 JUMPI DUP1 PUSH4 0xA9EDDF99 EQ PUSH2 0x4D2 JUMPI DUP1 PUSH4 0xAAFFADF3 EQ PUSH2 0x497 JUMPI DUP1 PUSH4 0xB30CA2DA EQ PUSH2 0x3CF JUMPI DUP1 PUSH4 0xB5545A3C EQ PUSH2 0x292 JUMPI DUP1 PUSH4 0xC5C4744C EQ PUSH2 0x274 JUMPI DUP1 PUSH4 0xCD78D92C EQ PUSH2 0x22C JUMPI DUP1 PUSH4 0xD547741F EQ PUSH2 0x1EA JUMPI PUSH4 0xFB86A404 EQ PUSH2 0x1AD JUMPI PUSH1 0x0 DUP1 REVERT JUMPDEST CALLVALUE PUSH2 0x1E7 JUMPI DUP1 PUSH1 0x3 NOT CALLDATASIZE ADD SLT PUSH2 0x1E7 JUMPI PUSH1 0x20 PUSH1 0x40 MLOAD PUSH32 0x0 DUP2 MSTORE RETURN JUMPDEST DUP1 REVERT JUMPDEST POP CALLVALUE PUSH2 0x1E7 JUMPI PUSH1 0x40 CALLDATASIZE PUSH1 0x3 NOT ADD SLT PUSH2 0x1E7 JUMPI PUSH2 0x228 PUSH1 0x4 CALLDATALOAD PUSH2 0x20A PUSH2 0x168C JUMP JUMPDEST SWAP1 DUP1 DUP5 MSTORE PUSH1 0x2 PUSH1 0x20 MSTORE PUSH2 0x223 PUSH1 0x1 PUSH1 0x40 DUP7 KECCAK256 ADD SLOAD PUSH2 0x1732 JUMP JUMPDEST PUSH2 0x17D8 JUMP JUMPDEST POP DUP1 RETURN JUMPDEST POP CALLVALUE PUSH2 0x1E7 JUMPI PUSH1 0x20 CALLDATASIZE PUSH1 0x3 NOT ADD SLT PUSH2 0x1E7 JUMPI PUSH1 0x40 SWAP1 PUSH1 0x1 PUSH1 0x1 PUSH1 0xA0 SHL SUB DUP1 PUSH2 0x252 PUSH2 0x16A2 JUMP JUMPDEST AND DUP3 MSTORE PUSH1 0xA PUSH1 0x20 MSTORE DUP3 DUP1 DUP4 KECCAK256 SLOAD SWAP3 PUSH1 0xB PUSH1 0x20 MSTORE KECCAK256 SLOAD AND DUP3 MLOAD SWAP2 DUP3 MSTORE PUSH1 0x20 DUP3 ADD MSTORE RETURN JUMPDEST POP CALLVALUE PUSH2 0x1E7 JUMPI DUP1 PUSH1 0x3 NOT CALLDATASIZE ADD SLT PUSH2 0x1E7 JUMPI PUSH1 0x20 PUSH1 0x8 SLOAD PUSH1 0x40 MLOAD SWAP1 DUP2 MSTORE RETURN JUMPDEST POP CALLVALUE PUSH2 0x1E7 JUMPI DUP1 PUSH1 0x3 NOT CALLDATASIZE ADD SLT PUSH2 0x1E7 JUMPI PUSH2 0x2AB PUSH2 0x1993 JUMP JUMPDEST PUSH1 0xFF PUSH1 0x7 SLOAD AND PUSH1 0x6 DUP2 LT ISZERO PUSH2 0x3BB JUMPI PUSH1 0x4 DUP2 EQ ISZERO SWAP1 DUP2 PUSH2 0x3AF JUMPI JUMPDEST POP PUSH2 0x39D JUMPI CALLER DUP2 MSTORE PUSH1 0xA PUSH1 0x20 MSTORE PUSH1 0x40 DUP2 KECCAK256 SLOAD DUP1 ISZERO PUSH2 0x38B JUMPI CALLER DUP3 MSTORE PUSH1 0xA PUSH1 0x20 MSTORE PUSH1 0x40 DUP3 KECCAK256 DUP3 SWAP1 SSTORE PUSH32 0x0 PUSH1 0x1 PUSH1 0x1 PUSH1 0xA0 SHL SUB AND DUP2 DUP2 PUSH2 0x37B JUMPI DUP4 DUP1 DUP1 SWAP4 POP DUP1 SWAP3 CALLER GAS CALL PUSH2 0x32F PUSH2 0x1B18 JUMP JUMPDEST POP ISZERO PUSH2 0x369 JUMPI JUMPDEST PUSH1 0x40 MLOAD SWAP1 DUP2 MSTORE PUSH32 0xD7DEE2702D63AD89917B6A4DA9981C90C4D24F8C2BDFD64C604ECAE57D8D0651 PUSH1 0x20 CALLER SWAP3 LOG2 PUSH1 0x1 DUP2 SSTORE DUP1 RETURN JUMPDEST PUSH1 0x40 MLOAD PUSH4 0xB9DA5D2B PUSH1 0xE0 SHL DUP2 MSTORE PUSH1 0x4 SWAP1 REVERT JUMPDEST PUSH2 0x386 SWAP2 CALLER SWAP1 PUSH2 0x1B58 JUMP JUMPDEST PUSH2 0x336 JUMP JUMPDEST PUSH1 0x40 MLOAD PUSH4 0x1971FBF3 PUSH1 0xE2 SHL DUP2 MSTORE PUSH1 0x4 SWAP1 REVERT JUMPDEST PUSH1 0x40 MLOAD PUSH4 0xB4D6981 PUSH1 0xE0 SHL DUP2 MSTORE PUSH1 0x4 SWAP1 REVERT JUMPDEST PUSH1 0x5 SWAP2 POP EQ ISZERO CODESIZE PUSH2 0x2C6 JUMP JUMPDEST PUSH4 0x4E487B71 PUSH1 0xE0 SHL DUP3 MSTORE PUSH1 0x21 PUSH1 0x4 MSTORE PUSH1 0x24 DUP3 REVERT JUMPDEST POP CALLVALUE PUSH2 0x1E7 JUMPI PUSH2 0x3DE CALLDATASIZE PUSH2 0x161A JUMP JUMPDEST PUSH2 0x3E6 PUSH2 0x16B8 JUMP JUMPDEST PUSH2 0x3EE PUSH2 0x19B6 JUMP JUMPDEST PUSH1 0x7 SLOAD SWAP2 PUSH1 0xFF DUP4 AND PUSH1 0x6 DUP2 LT ISZERO PUSH2 0x483 JUMPI PUSH1 0x2 SUB PUSH2 0x471 JUMPI PUSH1 0x8 SLOAD PUSH32 0x0 GT ISZERO PUSH2 0x471 JUMPI PUSH1 0x4 PUSH32 0x5B55ECCEA968A9BF1DF9A6702E20475AC67BB0D7F402F51701EEF38E619368FE SWAP4 PUSH1 0xFF NOT AND OR PUSH1 0x7 SSTORE PUSH2 0x46B PUSH1 0x40 MLOAD SWAP3 DUP4 SWAP3 DUP4 PUSH2 0x1B94 JUMP JUMPDEST SUB SWAP1 LOG1 DUP1 RETURN JUMPDEST PUSH1 0x40 MLOAD PUSH4 0x7A92F19 PUSH1 0xE5 SHL DUP2 MSTORE PUSH1 0x4 SWAP1 REVERT JUMPDEST PUSH4 0x4E487B71 PUSH1 0xE0 SHL DUP6 MSTORE PUSH1 0x21 PUSH1 0x4 MSTORE PUSH1 0x24 DUP6 REVERT JUMPDEST POP CALLVALUE PUSH2 0x1E7 JUMPI DUP1 PUSH1 0x3 NOT CALLDATASIZE ADD SLT PUSH2 0x1E7 JUMPI PUSH1 0x20 PUSH1 0x40 MLOAD PUSH32 0x0 DUP2 MSTORE RETURN JUMPDEST POP CALLVALUE PUSH2 0x1E7 JUMPI PUSH1 0x80 CALLDATASIZE PUSH1 0x3 NOT ADD SLT PUSH2 0x1E7 JUMPI PUSH2 0x4EC PUSH2 0x16B8 JUMP JUMPDEST PUSH1 0xFF PUSH1 0x7 SLOAD AND PUSH1 0x6 DUP2 LT ISZERO PUSH2 0x3BB JUMPI PUSH2 0x5B4 JUMPI PUSH1 0x8 SLOAD PUSH2 0x5B4 JUMPI PUSH32 0x0 TIMESTAMP LT ISZERO PUSH2 0x5B4 JUMPI PUSH1 0x44 CALLDATALOAD PUSH1 0x24 CALLDATALOAD PUSH1 0x4 CALLDATALOAD PUSH2 0x541 DUP4 DUP4 PUSH2 0x184F JUMP JUMPDEST PUSH2 0x54E PUSH1 0x64 CALLDATALOAD DUP1 SWAP3 PUSH2 0x184F JUMP JUMPDEST DUP3 SUB PUSH2 0x5A2 JUMPI PUSH32 0xAD166D8BE1925EE44C5A77600B8A5F7E58CBE711C0DBD99624014A81B8350BA SWAP4 PUSH1 0x80 SWAP4 DUP4 PUSH1 0x3 SSTORE DUP1 PUSH1 0x4 SSTORE DUP2 PUSH1 0x5 SSTORE DUP3 PUSH1 0x6 SSTORE PUSH1 0x40 MLOAD SWAP4 DUP5 MSTORE PUSH1 0x20 DUP5 ADD MSTORE PUSH1 0x40 DUP4 ADD MSTORE PUSH1 0x60 DUP3 ADD MSTORE LOG1 DUP1 RETURN JUMPDEST PUSH1 0x40 MLOAD PUSH4 0x2B00A33D PUSH1 0xE1 SHL DUP2 MSTORE PUSH1 0x4 SWAP1 REVERT JUMPDEST PUSH1 0x40 MLOAD PUSH3 0xB5D7E1 PUSH1 0xE8 SHL DUP2 MSTORE PUSH1 0x4 SWAP1 REVERT JUMPDEST POP CALLVALUE PUSH2 0x1E7 JUMPI DUP1 PUSH1 0x3 NOT CALLDATASIZE ADD SLT PUSH2 0x1E7 JUMPI PUSH1 0x40 MLOAD PUSH32 0x0 PUSH1 0x1 PUSH1 0x1 PUSH1 0xA0 SHL SUB AND DUP2 MSTORE PUSH1 0x20 SWAP1 RETURN JUMPDEST POP CALLVALUE PUSH2 0x1E7 JUMPI DUP1 PUSH1 0x3 NOT CALLDATASIZE ADD SLT PUSH2 0x1E7 JUMPI PUSH1 0x40 MLOAD PUSH32 0x0 PUSH1 0x1 PUSH1 0x1 PUSH1 0xA0 SHL SUB AND DUP2 MSTORE PUSH1 0x20 SWAP1 RETURN JUMPDEST POP CALLVALUE PUSH2 0x1E7 JUMPI DUP1 PUSH1 0x3 NOT CALLDATASIZE ADD SLT PUSH2 0x1E7 JUMPI PUSH1 0x20 PUSH1 0x9 SLOAD PUSH1 0x40 MLOAD SWAP1 DUP2 MSTORE RETURN JUMPDEST POP CALLVALUE PUSH2 0x1E7 JUMPI DUP1 PUSH1 0x3 NOT CALLDATASIZE ADD SLT PUSH2 0x1E7 JUMPI PUSH1 0x20 SWAP1 PUSH1 0x40 MLOAD SWAP1 DUP2 MSTORE RETURN JUMPDEST POP CALLVALUE PUSH2 0x1E7 JUMPI PUSH1 0x40 CALLDATASIZE PUSH1 0x3 NOT ADD SLT PUSH2 0x1E7 JUMPI PUSH1 0x40 PUSH2 0x6A5 PUSH2 0x168C JUMP JUMPDEST SWAP2 PUSH1 0x4 CALLDATALOAD DUP2 MSTORE PUSH1 0x2 PUSH1 0x20 MSTORE KECCAK256 SWAP1 PUSH1 0x1 DUP1 PUSH1 0xA0 SHL SUB AND PUSH1 0x0 MSTORE PUSH1 0x20 MSTORE PUSH1 0x20 PUSH1 0xFF PUSH1 0x40 PUSH1 0x0 KECCAK256 SLOAD AND PUSH1 0x40 MLOAD SWAP1 ISZERO ISZERO DUP2 MSTORE RETURN JUMPDEST POP CALLVALUE PUSH2 0x1E7 JUMPI DUP1 PUSH1 0x3 NOT CALLDATASIZE ADD SLT PUSH2 0x1E7 JUMPI PUSH1 0x20 PUSH1 0x40 MLOAD PUSH32 0x0 DUP2 MSTORE RETURN JUMPDEST POP CALLVALUE PUSH2 0x1E7 JUMPI DUP1 PUSH1 0x3 NOT CALLDATASIZE ADD SLT PUSH2 0x1E7 JUMPI PUSH1 0x20 PUSH1 0x40 MLOAD PUSH32 0x0 DUP2 MSTORE RETURN JUMPDEST POP CALLVALUE PUSH2 0x1E7 JUMPI DUP1 PUSH1 0x3 NOT CALLDATASIZE ADD SLT PUSH2 0x1E7 JUMPI PUSH2 0x764 PUSH2 0x16B8 JUMP JUMPDEST PUSH2 0x76C PUSH2 0x1975 JUMP JUMPDEST PUSH1 0x1 PUSH1 0xFF NOT DUP2 SLOAD AND OR PUSH1 0x1 SSTORE PUSH32 0x62E78CEA01BEE320CD4E420270B5EA74000D11B0C9F74754EBDBFC544B05A258 PUSH1 0x20 PUSH1 0x40 MLOAD CALLER DUP2 MSTORE LOG1 DUP1 RETURN JUMPDEST POP CALLVALUE PUSH2 0x1E7 JUMPI DUP1 PUSH1 0x3 NOT CALLDATASIZE ADD SLT PUSH2 0x1E7 JUMPI PUSH1 0x20 PUSH1 0x40 MLOAD PUSH32 0x0 DUP2 MSTORE RETURN JUMPDEST POP CALLVALUE PUSH2 0x1E7 JUMPI DUP1 PUSH1 0x3 NOT CALLDATASIZE ADD SLT PUSH2 0x1E7 JUMPI PUSH1 0xE0 PUSH1 0xFF PUSH1 0x7 SLOAD AND PUSH1 0x8 SLOAD PUSH1 0x9 SLOAD SWAP1 PUSH2 0x80D PUSH1 0x40 MLOAD DUP1 SWAP5 PUSH2 0x1669 JUMP JUMPDEST PUSH1 0x20 DUP4 ADD MSTORE PUSH32 0x0 PUSH1 0x40 DUP4 ADD MSTORE PUSH32 0x0 PUSH1 0x60 DUP4 ADD MSTORE PUSH32 0x0 PUSH1 0x80 DUP4 ADD MSTORE PUSH32 0x0 PUSH1 0xA0 DUP4 ADD MSTORE PUSH1 0xC0 DUP3 ADD MSTORE RETURN JUMPDEST POP CALLVALUE PUSH2 0x1E7 JUMPI DUP1 PUSH1 0x3 NOT CALLDATASIZE ADD SLT PUSH2 0x1E7 JUMPI PUSH1 0x20 PUSH1 0x40 MLOAD PUSH32 0xA49807205CE4D355092EF5A8A18F56E8913CF4A201FBE287825B095693C21775 DUP2 MSTORE RETURN JUMPDEST POP PUSH1 0x40 CALLDATASIZE PUSH1 0x3 NOT ADD SLT PUSH2 0x1E7 JUMPI PUSH1 0x4 CALLDATALOAD PUSH2 0x904 PUSH2 0x168C JUMP JUMPDEST SWAP1 PUSH2 0x90D PUSH2 0x1993 JUMP JUMPDEST PUSH2 0x915 PUSH2 0x1975 JUMP JUMPDEST PUSH2 0x91D PUSH2 0x19B6 JUMP JUMPDEST PUSH1 0xFF PUSH1 0x7 SLOAD AND PUSH1 0x6 DUP2 LT ISZERO PUSH2 0xB1E JUMPI PUSH1 0x1 SUB PUSH2 0x471 JUMPI CALLER DUP4 MSTORE PUSH1 0x20 SWAP2 PUSH1 0xA DUP4 MSTORE PUSH2 0x94B DUP3 PUSH1 0x40 DUP7 KECCAK256 SLOAD PUSH2 0x184F JUMP JUMPDEST PUSH32 0x0 DUP2 LT PUSH2 0xB0C JUMPI PUSH32 0x0 LT PUSH2 0xAFA JUMPI PUSH2 0x9A4 DUP3 PUSH1 0x8 SLOAD PUSH2 0x184F JUMP JUMPDEST PUSH32 0x0 LT PUSH2 0xAE8 JUMPI PUSH1 0x1 PUSH1 0x1 PUSH1 0xA0 SHL SUB DUP3 PUSH32 0x0 DUP3 AND DUP1 PUSH2 0xAB2 JUMPI POP CALLVALUE SUB PUSH2 0x471 JUMPI DUP1 PUSH32 0xEC470969F3350CA5A15F0D85053F8763FFD0EE39C7B74FCDC5AF7862718E292A SWAP3 JUMPDEST CALLER DUP8 MSTORE PUSH1 0xA DUP7 MSTORE PUSH1 0x40 DUP8 KECCAK256 PUSH2 0xA3C DUP7 DUP3 SLOAD PUSH2 0x184F JUMP JUMPDEST SWAP1 SSTORE PUSH2 0xA4A DUP6 PUSH1 0x8 SLOAD PUSH2 0x184F JUMP JUMPDEST PUSH1 0x8 SSTORE AND DUP1 ISZERO ISZERO DUP1 PUSH2 0xA9D JUMPI JUMPDEST PUSH2 0xA7B JUMPI JUMPDEST POP CALLER DUP6 MSTORE PUSH1 0xB DUP5 MSTORE PUSH1 0x40 DUP6 KECCAK256 SLOAD AND SWAP3 PUSH1 0x40 MLOAD SWAP3 DUP4 MSTORE CALLER SWAP3 LOG3 PUSH1 0x1 DUP2 SSTORE DUP1 RETURN JUMPDEST CALLER DUP7 MSTORE PUSH1 0xB DUP6 MSTORE PUSH1 0x40 DUP7 KECCAK256 DUP1 SLOAD PUSH1 0x1 PUSH1 0x1 PUSH1 0xA0 SHL SUB NOT AND SWAP1 SWAP2 OR SWAP1 SSTORE CODESIZE PUSH2 0xA5C JUMP JUMPDEST POP CALLER DUP7 MSTORE PUSH1 0xB DUP6 MSTORE DUP2 PUSH1 0x40 DUP8 KECCAK256 SLOAD AND ISZERO PUSH2 0xA57 JUMP JUMPDEST SWAP3 PUSH2 0xAE3 DUP4 SWAP3 PUSH32 0xEC470969F3350CA5A15F0D85053F8763FFD0EE39C7B74FCDC5AF7862718E292A SWAP6 ADDRESS SWAP1 CALLER SWAP1 PUSH2 0x18C4 JUMP JUMPDEST PUSH2 0xA26 JUMP JUMPDEST PUSH1 0x40 MLOAD PUSH4 0x1C4AF3C9 PUSH1 0xE1 SHL DUP2 MSTORE PUSH1 0x4 SWAP1 REVERT JUMPDEST PUSH1 0x40 MLOAD PUSH4 0x74368FB9 PUSH1 0xE1 SHL DUP2 MSTORE PUSH1 0x4 SWAP1 REVERT JUMPDEST PUSH1 0x40 MLOAD PUSH4 0x860B82A9 PUSH1 0xE0 SHL DUP2 MSTORE PUSH1 0x4 SWAP1 REVERT JUMPDEST PUSH4 0x4E487B71 PUSH1 0xE0 SHL DUP5 MSTORE PUSH1 0x21 PUSH1 0x4 MSTORE PUSH1 0x24 DUP5 REVERT JUMPDEST POP CALLVALUE PUSH2 0x1E7 JUMPI DUP1 PUSH1 0x3 NOT CALLDATASIZE ADD SLT PUSH2 0x1E7 JUMPI PUSH1 0x40 MLOAD PUSH32 0x0 PUSH1 0x1 PUSH1 0x1 PUSH1 0xA0 SHL SUB AND DUP2 MSTORE PUSH1 0x20 SWAP1 RETURN JUMPDEST POP CALLVALUE PUSH2 0x1E7 JUMPI DUP1 PUSH1 0x3 NOT CALLDATASIZE ADD SLT PUSH2 0x1E7 JUMPI PUSH1 0x20 PUSH1 0xFF PUSH1 0x1 SLOAD AND PUSH1 0x40 MLOAD SWAP1 ISZERO ISZERO DUP2 MSTORE RETURN JUMPDEST POP CALLVALUE PUSH2 0x1E7 JUMPI DUP1 PUSH1 0x3 NOT CALLDATASIZE ADD SLT PUSH2 0x1E7 JUMPI PUSH1 0x40 MLOAD PUSH32 0x0 PUSH1 0x1 PUSH1 0x1 PUSH1 0xA0 SHL SUB AND DUP2 MSTORE PUSH1 0x20 SWAP1 RETURN JUMPDEST POP CALLVALUE PUSH2 0x1E7 JUMPI PUSH1 0x20 CALLDATASIZE PUSH1 0x3 NOT ADD SLT PUSH2 0x1E7 JUMPI PUSH1 0x20 SWAP1 PUSH1 0x1 PUSH1 0x1 PUSH1 0xA0 SHL SUB SWAP1 PUSH1 0x40 SWAP1 DUP3 PUSH2 0xC09 PUSH2 0x16A2 JUMP JUMPDEST AND DUP2 MSTORE PUSH1 0xB DUP5 MSTORE KECCAK256 SLOAD AND PUSH1 0x40 MLOAD SWAP1 DUP2 MSTORE RETURN JUMPDEST POP CALLVALUE PUSH2 0x1E7 JUMPI PUSH1 0x20 CALLDATASIZE PUSH1 0x3 NOT ADD SLT PUSH2 0x1E7 JUMPI PUSH1 0x20 SWAP1 PUSH1 0x40 SWAP1 PUSH1 0x1 PUSH1 0x1 PUSH1 0xA0 SHL SUB PUSH2 0xC43 PUSH2 0x16A2 JUMP JUMPDEST AND DUP2 MSTORE PUSH1 0xA DUP4 MSTORE KECCAK256 SLOAD PUSH1 0x40 MLOAD SWAP1 DUP2 MSTORE RETURN JUMPDEST POP CALLVALUE PUSH2 0x1E7 JUMPI DUP1 PUSH1 0x3 NOT CALLDATASIZE ADD SLT PUSH2 0x1E7 JUMPI PUSH2 0xC6D PUSH2 0x16B8 JUMP JUMPDEST PUSH1 0x1 SLOAD PUSH1 0xFF DUP2 AND ISZERO PUSH2 0xCAD JUMPI PUSH1 0xFF NOT AND PUSH1 0x1 SSTORE PUSH32 0x5DB9EE0A495BF2E6FF9C91A7834C1BA4FDD244A5E8AA4E537BD38AEAE4B073AA PUSH1 0x20 PUSH1 0x40 MLOAD CALLER DUP2 MSTORE LOG1 DUP1 RETURN JUMPDEST PUSH1 0x40 MLOAD PUSH4 0x8DFC202B PUSH1 0xE0 SHL DUP2 MSTORE PUSH1 0x4 SWAP1 REVERT JUMPDEST POP CALLVALUE PUSH2 0x1E7 JUMPI PUSH1 0x60 CALLDATASIZE PUSH1 0x3 NOT ADD SLT PUSH2 0x1E7 JUMPI PUSH1 0x24 CALLDATALOAD PUSH2 0xCDC PUSH2 0x16B8 JUMP JUMPDEST PUSH2 0xCE4 PUSH2 0x1993 JUMP JUMPDEST PUSH2 0xCEC PUSH2 0x19B6 JUMP JUMPDEST PUSH1 0xFF PUSH1 0x7 SLOAD AND PUSH1 0x6 DUP2 LT ISZERO PUSH2 0x1395 JUMPI PUSH1 0x2 SUB PUSH2 0x471 JUMPI PUSH1 0x8 SLOAD SWAP1 PUSH32 0x0 DUP3 LT PUSH2 0x1383 JUMPI DUP3 PUSH2 0xD48 PUSH2 0x2710 PUSH2 0xD40 PUSH1 0x3 SLOAD DUP7 PUSH2 0x1AF8 JUMP JUMPDEST DIV DUP1 SWAP5 PUSH2 0x1B0B JUMP JUMPDEST SWAP2 PUSH32 0x0 PUSH2 0xDBF DUP3 DUP3 PUSH32 0x0 PUSH32 0x0 PUSH1 0x1 PUSH1 0x1 PUSH1 0xA0 SHL SUB AND PUSH2 0x18C4 JUMP JUMPDEST PUSH1 0x1 PUSH1 0x1 PUSH1 0xA0 SHL SUB AND DUP1 EXTCODESIZE ISZERO PUSH2 0x10E8 JUMPI PUSH1 0x44 DUP4 SWAP3 PUSH1 0x40 MLOAD SWAP5 DUP6 SWAP4 DUP5 SWAP3 PUSH4 0x7C382D0B PUSH1 0xE0 SHL DUP5 MSTORE PUSH1 0x4 CALLDATALOAD PUSH1 0x4 DUP6 ADD MSTORE PUSH1 0x24 DUP5 ADD MSTORE GAS CALL DUP1 ISZERO PUSH2 0x10EC JUMPI PUSH2 0x1370 JUMPI JUMPDEST POP DUP3 SWAP1 PUSH32 0x0 PUSH1 0x1 PUSH1 0x1 PUSH1 0xA0 SHL SUB AND ISZERO DUP1 ISZERO PUSH2 0x10FB JUMPI PUSH32 0x0 PUSH1 0x1 PUSH1 0x1 PUSH1 0xA0 SHL SUB AND DUP1 EXTCODESIZE ISZERO PUSH2 0x10F7 JUMPI DUP4 DUP6 SWAP2 PUSH1 0x4 PUSH1 0x40 MLOAD DUP1 SWAP5 DUP2 SWAP4 PUSH4 0x990087B7 PUSH1 0xE0 SHL DUP4 MSTORE GAS CALL SWAP1 DUP2 ISZERO PUSH2 0x10EC JUMPI DUP5 SWAP2 PUSH2 0x10D4 JUMPI JUMPDEST POP POP JUMPDEST ISZERO PUSH2 0x107A JUMPI DUP2 DUP1 DUP1 SWAP3 PUSH32 0x0 GAS CALL PUSH2 0xEC1 PUSH2 0x1B18 JUMP JUMPDEST POP ISZERO PUSH2 0x369 JUMPI JUMPDEST PUSH1 0x8 SLOAD SWAP1 PUSH32 0x0 SWAP2 DUP3 DUP2 LT DUP1 PUSH2 0x106F JUMPI JUMPDEST PUSH2 0xF4F JUMPI JUMPDEST DUP4 PUSH32 0xF3E2F1D90BD58F6807B6468783C27FDC68307B057882B3CA4EB0F3BB21167899 PUSH1 0x60 DUP5 TIMESTAMP PUSH1 0x9 SSTORE PUSH1 0x3 PUSH1 0xFF NOT PUSH1 0x7 SLOAD AND OR PUSH1 0x7 SSTORE PUSH1 0x8 SLOAD SWAP1 PUSH1 0x40 MLOAD SWAP2 DUP3 MSTORE PUSH1 0x20 DUP3 ADD MSTORE TIMESTAMP PUSH1 0x40 DUP3 ADD MSTORE LOG1 PUSH1 0x1 DUP2 SSTORE DUP1 RETURN JUMPDEST PUSH2 0xF5C PUSH2 0xF64 SWAP2 DUP5 PUSH2 0x1B0B JUMP JUMPDEST PUSH1 0x44 CALLDATALOAD PUSH2 0x1AF8 JUMP JUMPDEST SWAP1 DUP3 ISZERO PUSH2 0x1059 JUMPI PUSH32 0xF3E2F1D90BD58F6807B6468783C27FDC68307B057882B3CA4EB0F3BB21167899 SWAP3 PUSH1 0x60 SWAP3 DIV DUP1 PUSH2 0xF9E JUMPI JUMPDEST POP SWAP1 PUSH2 0xEFC JUMP JUMPDEST PUSH1 0x20 PUSH32 0x3316CD92E8029A9D825199AD5D83F540869E52A9D77CF97560178A0B5EBAC6FB SWAP2 PUSH2 0x104C PUSH1 0x40 MLOAD PUSH4 0x23B872DD PUSH1 0xE0 SHL DUP5 DUP3 ADD MSTORE PUSH1 0x1 DUP1 PUSH1 0xA0 SHL SUB PUSH32 0x0 AND PUSH1 0x24 DUP3 ADD MSTORE PUSH2 0xDEAD PUSH1 0x44 DUP3 ADD MSTORE DUP3 PUSH1 0x64 DUP3 ADD MSTORE PUSH1 0x64 DUP2 MSTORE PUSH2 0x101D DUP2 PUSH2 0x1886 JUMP JUMPDEST PUSH32 0x0 PUSH1 0x1 PUSH1 0x1 PUSH1 0xA0 SHL SUB AND PUSH2 0x190D JUMP JUMPDEST PUSH1 0x40 MLOAD SWAP1 DUP2 MSTORE LOG1 CODESIZE PUSH2 0xF97 JUMP JUMPDEST PUSH4 0x4E487B71 PUSH1 0xE0 SHL PUSH1 0x0 MSTORE PUSH1 0x12 PUSH1 0x4 MSTORE PUSH1 0x24 PUSH1 0x0 REVERT JUMPDEST POP PUSH1 0x44 CALLDATALOAD ISZERO ISZERO PUSH2 0xEF7 JUMP JUMPDEST PUSH2 0x10CF SWAP2 POP PUSH32 0x0 PUSH32 0x0 PUSH1 0x1 PUSH1 0x1 PUSH1 0xA0 SHL SUB AND PUSH2 0x1B58 JUMP JUMPDEST PUSH2 0xEC8 JUMP JUMPDEST PUSH2 0x10DD SWAP1 PUSH2 0x1872 JUMP JUMPDEST PUSH2 0x10E8 JUMPI DUP3 CODESIZE PUSH2 0xE8A JUMP JUMPDEST DUP3 DUP1 REVERT JUMPDEST PUSH1 0x40 MLOAD RETURNDATASIZE DUP7 DUP3 RETURNDATACOPY RETURNDATASIZE SWAP1 REVERT JUMPDEST DUP4 DUP1 REVERT JUMPDEST PUSH1 0x40 MLOAD PUSH4 0x95EA7B3 PUSH1 0xE0 SHL PUSH1 0x20 DUP1 DUP4 ADD DUP3 DUP2 MSTORE PUSH32 0x0 PUSH1 0x1 PUSH1 0x1 PUSH1 0xA0 SHL SUB AND PUSH1 0x24 DUP6 ADD MSTORE PUSH1 0x44 DUP1 DUP6 ADD DUP10 SWAP1 MSTORE DUP5 MSTORE DUP7 SWAP1 PUSH2 0x1154 PUSH1 0x64 DUP7 PUSH2 0x18A2 JUMP JUMPDEST DUP5 MLOAD SWAP1 DUP3 PUSH32 0x0 PUSH1 0x1 PUSH1 0x1 PUSH1 0xA0 SHL SUB AND GAS CALL DUP6 MLOAD RETURNDATASIZE DUP3 PUSH2 0x132B JUMPI JUMPDEST POP POP ISZERO PUSH2 0x1242 JUMPI JUMPDEST POP POP PUSH32 0x0 PUSH1 0x1 PUSH1 0x1 PUSH1 0xA0 SHL SUB AND DUP1 EXTCODESIZE ISZERO PUSH2 0x10F7 JUMPI PUSH1 0x40 MLOAD PUSH4 0x398DA911 PUSH1 0xE0 SHL DUP2 MSTORE PUSH32 0x0 PUSH1 0x1 PUSH1 0x1 PUSH1 0xA0 SHL SUB AND PUSH1 0x4 DUP3 ADD MSTORE PUSH1 0x24 DUP2 ADD DUP7 SWAP1 MSTORE SWAP1 DUP5 SWAP1 DUP3 SWAP1 PUSH1 0x44 SWAP1 DUP3 SWAP1 DUP5 SWAP1 GAS CALL SWAP1 DUP2 ISZERO PUSH2 0x10EC JUMPI DUP5 SWAP2 PUSH2 0x122E JUMPI JUMPDEST POP POP PUSH2 0xE8D JUMP JUMPDEST PUSH2 0x1237 SWAP1 PUSH2 0x1872 JUMP JUMPDEST PUSH2 0x10E8 JUMPI DUP3 CODESIZE PUSH2 0x1227 JUMP JUMPDEST SWAP1 SWAP4 POP PUSH1 0x40 MLOAD SWAP1 PUSH1 0x20 DUP3 ADD MSTORE PUSH1 0x1 DUP1 PUSH1 0xA0 SHL SUB PUSH32 0x0 AND PUSH1 0x24 DUP3 ADD MSTORE DUP6 PUSH1 0x44 DUP3 ADD MSTORE PUSH1 0x44 DUP2 MSTORE DUP1 PUSH1 0x80 DUP2 ADD LT PUSH8 0xFFFFFFFFFFFFFFFF PUSH1 0x80 DUP4 ADD GT OR PUSH2 0x1315 JUMPI PUSH1 0x80 DUP2 ADD PUSH1 0x40 MSTORE DUP6 SWAP4 PUSH2 0x130E SWAP2 PUSH2 0x12DF SWAP1 PUSH32 0x0 PUSH1 0x1 PUSH1 0x1 PUSH1 0xA0 SHL SUB AND PUSH2 0x190D JUMP JUMPDEST PUSH32 0x0 PUSH1 0x1 PUSH1 0x1 PUSH1 0xA0 SHL SUB AND PUSH2 0x190D JUMP JUMPDEST CODESIZE DUP1 PUSH2 0x1195 JUMP JUMPDEST PUSH4 0x4E487B71 PUSH1 0xE0 SHL PUSH1 0x0 MSTORE PUSH1 0x41 PUSH1 0x4 MSTORE PUSH1 0x24 PUSH1 0x0 REVERT JUMPDEST SWAP1 SWAP2 POP PUSH2 0x1368 JUMPI POP PUSH32 0x0 PUSH1 0x1 PUSH1 0x1 PUSH1 0xA0 SHL SUB AND EXTCODESIZE ISZERO ISZERO JUMPDEST CODESIZE DUP1 PUSH2 0x118D JUMP JUMPDEST PUSH1 0x1 EQ PUSH2 0x1361 JUMP JUMPDEST PUSH2 0x137C SWAP1 SWAP4 SWAP2 SWAP4 PUSH2 0x1872 JUMP JUMPDEST SWAP2 CODESIZE PUSH2 0xDFF JUMP JUMPDEST PUSH1 0x40 MLOAD PUSH4 0x46C21A55 PUSH1 0xE0 SHL DUP2 MSTORE PUSH1 0x4 SWAP1 REVERT JUMPDEST PUSH4 0x4E487B71 PUSH1 0xE0 SHL DUP4 MSTORE PUSH1 0x21 PUSH1 0x4 MSTORE PUSH1 0x24 DUP4 REVERT JUMPDEST POP CALLVALUE PUSH2 0x1E7 JUMPI PUSH1 0x40 CALLDATASIZE PUSH1 0x3 NOT ADD SLT PUSH2 0x1E7 JUMPI PUSH2 0x13C3 PUSH2 0x168C JUMP JUMPDEST CALLER PUSH1 0x1 PUSH1 0x1 PUSH1 0xA0 SHL SUB DUP3 AND SUB PUSH2 0x13DF JUMPI PUSH2 0x228 SWAP1 PUSH1 0x4 CALLDATALOAD PUSH2 0x17D8 JUMP JUMPDEST PUSH1 0x40 MLOAD PUSH4 0x334BD919 PUSH1 0xE1 SHL DUP2 MSTORE PUSH1 0x4 SWAP1 REVERT JUMPDEST POP CALLVALUE PUSH2 0x1E7 JUMPI DUP1 PUSH1 0x3 NOT CALLDATASIZE ADD SLT PUSH2 0x1E7 JUMPI PUSH1 0x20 PUSH1 0x40 MLOAD PUSH32 0x0 DUP2 MSTORE RETURN JUMPDEST POP CALLVALUE PUSH2 0x1E7 JUMPI DUP1 PUSH1 0x3 NOT CALLDATASIZE ADD SLT PUSH2 0x1E7 JUMPI PUSH1 0x40 MLOAD PUSH32 0x0 PUSH1 0x1 PUSH1 0x1 PUSH1 0xA0 SHL SUB AND DUP2 MSTORE PUSH1 0x20 SWAP1 RETURN JUMPDEST POP CALLVALUE PUSH2 0x1E7 JUMPI PUSH1 0x40 CALLDATASIZE PUSH1 0x3 NOT ADD SLT PUSH2 0x1E7 JUMPI PUSH2 0x228 PUSH1 0x4 CALLDATALOAD PUSH2 0x1491 PUSH2 0x168C JUMP JUMPDEST SWAP1 DUP1 DUP5 MSTORE PUSH1 0x2 PUSH1 0x20 MSTORE PUSH2 0x14AA PUSH1 0x1 PUSH1 0x40 DUP7 KECCAK256 ADD SLOAD PUSH2 0x1732 JUMP JUMPDEST PUSH2 0x1758 JUMP JUMPDEST POP CALLVALUE PUSH2 0x1E7 JUMPI PUSH1 0x20 CALLDATASIZE PUSH1 0x3 NOT ADD SLT PUSH2 0x1E7 JUMPI PUSH1 0x1 PUSH1 0x40 PUSH1 0x20 SWAP3 PUSH1 0x4 CALLDATALOAD DUP2 MSTORE PUSH1 0x2 DUP5 MSTORE KECCAK256 ADD SLOAD PUSH1 0x40 MLOAD SWAP1 DUP2 MSTORE RETURN JUMPDEST POP CALLVALUE PUSH2 0x1E7 JUMPI DUP1 PUSH1 0x3 NOT CALLDATASIZE ADD SLT PUSH2 0x1E7 JUMPI PUSH1 0x20 PUSH1 0xFF PUSH1 0x7 SLOAD AND PUSH2 0x1502 PUSH1 0x40 MLOAD DUP1 SWAP3 PUSH2 0x1669 JUMP JUMPDEST RETURN JUMPDEST POP CALLVALUE PUSH2 0x1E7 JUMPI DUP1 PUSH1 0x3 NOT CALLDATASIZE ADD SLT PUSH2 0x1E7 JUMPI PUSH1 0x80 PUSH1 0x3 SLOAD PUSH1 0x4 SLOAD PUSH1 0x5 SLOAD PUSH1 0x6 SLOAD SWAP2 PUSH1 0x40 MLOAD SWAP4 DUP5 MSTORE PUSH1 0x20 DUP5 ADD MSTORE PUSH1 0x40 DUP4 ADD MSTORE PUSH1 0x60 DUP3 ADD MSTORE RETURN JUMPDEST POP CALLVALUE PUSH2 0x1E7 JUMPI PUSH2 0x154A CALLDATASIZE PUSH2 0x161A JUMP JUMPDEST PUSH2 0x1552 PUSH2 0x16B8 JUMP JUMPDEST PUSH2 0x155A PUSH2 0x19B6 JUMP JUMPDEST PUSH1 0x7 SLOAD SWAP2 PUSH1 0xFF DUP4 AND PUSH1 0x6 DUP2 LT ISZERO PUSH2 0x483 JUMPI DUP1 ISZERO ISZERO SWAP1 DUP2 PUSH2 0x15B5 JUMPI JUMPDEST POP PUSH2 0x471 JUMPI PUSH1 0x5 PUSH32 0x2AC842F90DAB3279148F7E55AC91D911F75C1C300A202A5250E05400B15FA156 SWAP4 PUSH1 0xFF NOT AND OR PUSH1 0x7 SSTORE PUSH2 0x46B PUSH1 0x40 MLOAD SWAP3 DUP4 SWAP3 DUP4 PUSH2 0x1B94 JUMP JUMPDEST PUSH1 0x1 SWAP2 POP EQ ISZERO CODESIZE PUSH2 0x1575 JUMP JUMPDEST SWAP1 POP CALLVALUE PUSH2 0x1616 JUMPI PUSH1 0x20 CALLDATASIZE PUSH1 0x3 NOT ADD SLT PUSH2 0x1616 JUMPI PUSH1 0x4 CALLDATALOAD PUSH4 0xFFFFFFFF PUSH1 0xE0 SHL DUP2 AND DUP1 SWAP2 SUB PUSH2 0x10E8 JUMPI PUSH1 0x20 SWAP3 POP PUSH4 0x7965DB0B PUSH1 0xE0 SHL DUP2 EQ SWAP1 DUP2 ISZERO PUSH2 0x1605 JUMPI JUMPDEST POP ISZERO ISZERO DUP2 MSTORE RETURN JUMPDEST PUSH4 0x1FFC9A7 PUSH1 0xE0 SHL EQ SWAP1 POP CODESIZE PUSH2 0x15FE JUMP JUMPDEST POP DUP1 REVERT JUMPDEST SWAP1 PUSH1 0x20 PUSH1 0x3 NOT DUP4 ADD SLT PUSH2 0x1664 JUMPI PUSH1 0x4 CALLDATALOAD PUSH8 0xFFFFFFFFFFFFFFFF SWAP3 DUP4 DUP3 GT PUSH2 0x1664 JUMPI DUP1 PUSH1 0x23 DUP4 ADD SLT ISZERO PUSH2 0x1664 JUMPI DUP2 PUSH1 0x4 ADD CALLDATALOAD SWAP4 DUP5 GT PUSH2 0x1664 JUMPI PUSH1 0x24 DUP5 DUP4 ADD ADD GT PUSH2 0x1664 JUMPI PUSH1 0x24 ADD SWAP2 SWAP1 JUMP JUMPDEST PUSH1 0x0 DUP1 REVERT JUMPDEST SWAP1 PUSH1 0x6 DUP3 LT ISZERO PUSH2 0x1676 JUMPI MSTORE JUMP JUMPDEST PUSH4 0x4E487B71 PUSH1 0xE0 SHL PUSH1 0x0 MSTORE PUSH1 0x21 PUSH1 0x4 MSTORE PUSH1 0x24 PUSH1 0x0 REVERT JUMPDEST PUSH1 0x24 CALLDATALOAD SWAP1 PUSH1 0x1 PUSH1 0x1 PUSH1 0xA0 SHL SUB DUP3 AND DUP3 SUB PUSH2 0x1664 JUMPI JUMP JUMPDEST PUSH1 0x4 CALLDATALOAD SWAP1 PUSH1 0x1 PUSH1 0x1 PUSH1 0xA0 SHL SUB DUP3 AND DUP3 SUB PUSH2 0x1664 JUMPI JUMP JUMPDEST CALLER PUSH1 0x0 SWAP1 DUP2 MSTORE PUSH32 0xE5EBFA64FCA8D502A8E50C1EDFFD2C31EF4DAD5B396E65D9F397FB028F74ABC5 PUSH1 0x20 MSTORE PUSH1 0x40 SWAP1 KECCAK256 SLOAD PUSH32 0xA49807205CE4D355092EF5A8A18F56E8913CF4A201FBE287825B095693C21775 SWAP1 PUSH1 0xFF AND ISZERO PUSH2 0x1714 JUMPI POP JUMP JUMPDEST PUSH1 0x44 SWAP1 PUSH1 0x40 MLOAD SWAP1 PUSH4 0xE2517D3F PUSH1 0xE0 SHL DUP3 MSTORE CALLER PUSH1 0x4 DUP4 ADD MSTORE PUSH1 0x24 DUP3 ADD MSTORE REVERT JUMPDEST DUP1 PUSH1 0x0 MSTORE PUSH1 0x2 PUSH1 0x20 MSTORE PUSH1 0x40 PUSH1 0x0 KECCAK256 CALLER PUSH1 0x0 MSTORE PUSH1 0x20 MSTORE PUSH1 0xFF PUSH1 0x40 PUSH1 0x0 KECCAK256 SLOAD AND ISZERO PUSH2 0x1714 JUMPI POP JUMP JUMPDEST SWAP1 PUSH1 0x0 SWAP2 DUP1 DUP4 MSTORE PUSH1 0x2 PUSH1 0x20 MSTORE PUSH1 0x40 DUP4 KECCAK256 SWAP2 PUSH1 0x1 DUP1 PUSH1 0xA0 SHL SUB AND SWAP2 DUP3 DUP5 MSTORE PUSH1 0x20 MSTORE PUSH1 0xFF PUSH1 0x40 DUP5 KECCAK256 SLOAD AND ISZERO PUSH1 0x0 EQ PUSH2 0x17D3 JUMPI DUP1 DUP4 MSTORE PUSH1 0x2 PUSH1 0x20 MSTORE PUSH1 0x40 DUP4 KECCAK256 DUP3 DUP5 MSTORE PUSH1 0x20 MSTORE PUSH1 0x40 DUP4 KECCAK256 PUSH1 0x1 PUSH1 0xFF NOT DUP3 SLOAD AND OR SWAP1 SSTORE PUSH32 0x2F8788117E7EFF1D82E926EC794901D17C78024A50270940304540A733656F0D CALLER SWAP4 DUP1 LOG4 PUSH1 0x1 SWAP1 JUMP JUMPDEST POP POP SWAP1 JUMP JUMPDEST SWAP1 PUSH1 0x0 SWAP2 DUP1 DUP4 MSTORE PUSH1 0x2 PUSH1 0x20 MSTORE PUSH1 0x40 DUP4 KECCAK256 SWAP2 PUSH1 0x1 DUP1 PUSH1 0xA0 SHL SUB AND SWAP2 DUP3 DUP5 MSTORE PUSH1 0x20 MSTORE PUSH1 0xFF PUSH1 0x40 DUP5 KECCAK256 SLOAD AND PUSH1 0x0 EQ PUSH2 0x17D3 JUMPI DUP1 DUP4 MSTORE PUSH1 0x2 PUSH1 0x20 MSTORE PUSH1 0x40 DUP4 KECCAK256 DUP3 DUP5 MSTORE PUSH1 0x20 MSTORE PUSH1 0x40 DUP4 KECCAK256 PUSH1 0xFF NOT DUP2 SLOAD AND SWAP1 SSTORE PUSH32 0xF6391F5C32D9C69D2A47EA670B442974B53935D1EDC7FD64EB21E047A839171B CALLER SWAP4 DUP1 LOG4 PUSH1 0x1 SWAP1 JUMP JUMPDEST SWAP2 SWAP1 DUP3 ADD DUP1 SWAP3 GT PUSH2 0x185C JUMPI JUMP JUMPDEST PUSH4 0x4E487B71 PUSH1 0xE0 SHL PUSH1 0x0 MSTORE PUSH1 0x11 PUSH1 0x4 MSTORE PUSH1 0x24 PUSH1 0x0 REVERT JUMPDEST PUSH8 0xFFFFFFFFFFFFFFFF DUP2 GT PUSH2 0x1315 JUMPI PUSH1 0x40 MSTORE JUMP JUMPDEST PUSH1 0xA0 DUP2 ADD SWAP1 DUP2 LT PUSH8 0xFFFFFFFFFFFFFFFF DUP3 GT OR PUSH2 0x1315 JUMPI PUSH1 0x40 MSTORE JUMP JUMPDEST SWAP1 PUSH1 0x1F DUP1 NOT SWAP2 ADD AND DUP2 ADD SWAP1 DUP2 LT PUSH8 0xFFFFFFFFFFFFFFFF DUP3 GT OR PUSH2 0x1315 JUMPI PUSH1 0x40 MSTORE JUMP JUMPDEST PUSH1 0x40 MLOAD PUSH4 0x23B872DD PUSH1 0xE0 SHL PUSH1 0x20 DUP3 ADD MSTORE PUSH1 0x1 PUSH1 0x1 PUSH1 0xA0 SHL SUB SWAP3 DUP4 AND PUSH1 0x24 DUP3 ADD MSTORE SWAP3 SWAP1 SWAP2 AND PUSH1 0x44 DUP4 ADD MSTORE PUSH1 0x64 DUP1 DUP4 ADD SWAP4 SWAP1 SWAP4 MSTORE SWAP2 DUP2 MSTORE PUSH2 0x190B SWAP2 PUSH2 0x1906 DUP3 PUSH2 0x1886 JUMP JUMPDEST PUSH2 0x190D JUMP JUMPDEST JUMP JUMPDEST SWAP1 PUSH1 0x0 PUSH1 0x20 SWAP2 DUP3 DUP2 MLOAD SWAP2 ADD DUP3 DUP6 GAS CALL ISZERO PUSH2 0x1969 JUMPI PUSH1 0x0 MLOAD RETURNDATASIZE PUSH2 0x1960 JUMPI POP PUSH1 0x1 PUSH1 0x1 PUSH1 0xA0 SHL SUB DUP2 AND EXTCODESIZE ISZERO JUMPDEST PUSH2 0x193E JUMPI POP JUMP JUMPDEST PUSH1 0x40 MLOAD PUSH4 0x5274AFE7 PUSH1 0xE0 SHL DUP2 MSTORE PUSH1 0x1 PUSH1 0x1 PUSH1 0xA0 SHL SUB SWAP1 SWAP2 AND PUSH1 0x4 DUP3 ADD MSTORE PUSH1 0x24 SWAP1 REVERT JUMPDEST PUSH1 0x1 EQ ISZERO PUSH2 0x1937 JUMP JUMPDEST PUSH1 0x40 MLOAD RETURNDATASIZE PUSH1 0x0 DUP3 RETURNDATACOPY RETURNDATASIZE SWAP1 REVERT JUMPDEST PUSH1 0xFF PUSH1 0x1 SLOAD AND PUSH2 0x1981 JUMPI JUMP JUMPDEST PUSH1 0x40 MLOAD PUSH4 0xD93C0665 PUSH1 0xE0 SHL DUP2 MSTORE PUSH1 0x4 SWAP1 REVERT JUMPDEST PUSH1 0x2 PUSH1 0x0 SLOAD EQ PUSH2 0x19A4 JUMPI PUSH1 0x2 PUSH1 0x0 SSTORE JUMP JUMPDEST PUSH1 0x40 MLOAD PUSH4 0x3EE5AEB5 PUSH1 0xE0 SHL DUP2 MSTORE PUSH1 0x4 SWAP1 REVERT JUMPDEST PUSH1 0x7 SLOAD PUSH1 0xFF DUP2 AND SWAP1 PUSH32 0x0 TIMESTAMP LT ISZERO DUP1 PUSH2 0x1AE7 JUMPI JUMPDEST PUSH2 0x1AD7 JUMPI JUMPDEST POP PUSH1 0x7 SLOAD PUSH1 0xFF DUP2 AND PUSH1 0x6 DUP2 LT ISZERO PUSH2 0x1676 JUMPI PUSH1 0x1 EQ PUSH2 0x1A6B JUMPI JUMPDEST POP PUSH1 0xFF PUSH1 0x7 SLOAD AND PUSH1 0x6 DUP2 LT ISZERO PUSH2 0x1676 JUMPI PUSH1 0x6 DUP3 LT ISZERO PUSH2 0x1676 JUMPI DUP1 DUP3 SUB PUSH2 0x1A2A JUMPI POP POP JUMP JUMPDEST PUSH32 0xD643A1384921DE4B8AD16DF0A695F1E75FCFE3BCAC27F9C5C8CEE4645872382 SWAP2 PUSH2 0x1A68 PUSH1 0x40 SWAP3 PUSH2 0x1A5E DUP5 MLOAD DUP1 SWAP5 PUSH2 0x1669 JUMP JUMPDEST PUSH1 0x20 DUP4 ADD SWAP1 PUSH2 0x1669 JUMP JUMPDEST LOG1 JUMP JUMPDEST PUSH32 0x0 TIMESTAMP LT DUP1 ISZERO SWAP1 PUSH2 0x1AAB JUMPI JUMPDEST ISZERO PUSH2 0x1A06 JUMPI PUSH1 0xFF NOT AND PUSH1 0x2 OR PUSH1 0x7 SSTORE CODESIZE PUSH2 0x1A06 JUMP JUMPDEST POP PUSH1 0x8 SLOAD PUSH32 0x0 GT ISZERO PUSH2 0x1A96 JUMP JUMPDEST PUSH1 0xFF NOT AND PUSH1 0x1 OR PUSH1 0x7 SSTORE CODESIZE PUSH2 0x19ED JUMP JUMPDEST POP PUSH1 0x6 DUP3 LT ISZERO PUSH2 0x1676 JUMPI DUP2 ISZERO PUSH2 0x19E8 JUMP JUMPDEST DUP2 DUP2 MUL SWAP3 SWAP2 DUP2 ISZERO SWAP2 DUP5 DIV EQ OR ISZERO PUSH2 0x185C JUMPI JUMP JUMPDEST SWAP2 SWAP1 DUP3 SUB SWAP2 DUP3 GT PUSH2 0x185C JUMPI JUMP JUMPDEST RETURNDATASIZE ISZERO PUSH2 0x1B53 JUMPI RETURNDATASIZE SWAP1 PUSH8 0xFFFFFFFFFFFFFFFF DUP3 GT PUSH2 0x1315 JUMPI PUSH1 0x40 MLOAD SWAP2 PUSH2 0x1B47 PUSH1 0x1F DUP3 ADD PUSH1 0x1F NOT AND PUSH1 0x20 ADD DUP5 PUSH2 0x18A2 JUMP JUMPDEST DUP3 MSTORE RETURNDATASIZE PUSH1 0x0 PUSH1 0x20 DUP5 ADD RETURNDATACOPY JUMP JUMPDEST PUSH1 0x60 SWAP1 JUMP JUMPDEST PUSH1 0x40 MLOAD PUSH4 0xA9059CBB PUSH1 0xE0 SHL PUSH1 0x20 DUP3 ADD MSTORE PUSH1 0x1 PUSH1 0x1 PUSH1 0xA0 SHL SUB SWAP3 SWAP1 SWAP3 AND PUSH1 0x24 DUP4 ADD MSTORE PUSH1 0x44 DUP1 DUP4 ADD SWAP4 SWAP1 SWAP4 MSTORE SWAP2 DUP2 MSTORE PUSH2 0x190B SWAP2 PUSH2 0x1906 PUSH1 0x64 DUP4 PUSH2 0x18A2 JUMP JUMPDEST SWAP1 SWAP2 DUP1 PUSH1 0x40 SWAP4 PUSH1 0x20 DUP5 MSTORE DUP2 PUSH1 0x20 DUP6 ADD MSTORE DUP5 DUP5 ADD CALLDATACOPY PUSH1 0x0 DUP3 DUP3 ADD DUP5 ADD MSTORE PUSH1 0x1F ADD PUSH1 0x1F NOT AND ADD ADD SWAP1 JUMP INVALID LOG2 PUSH5 0x6970667358 0x22 SLT KECCAK256 0xD2 0x27 0x4B 0xC3 0x29 0xAA MLOAD SIGNEXTEND DUP12 PUSH19 0x91976EC0AC3931520377FD56989D62E7607D19 0xD4 0xC7 DUP14 PUSH5 0x736F6C6343 STOP ADDMOD EQ STOP CALLER 0x2F DUP8 DUP9 GT PUSH31 0x7EFF1D82E926EC794901D17C78024A50270940304540A733656F0D00000000 "},"methodIdentifiers":{"ADMIN_ROLE()":"75b238fc","DEFAULT_ADMIN_ROLE()":"a217fddf","cancel(string)":"0b4f3f3d","claimRefund()":"b5545a3c","contribute(uint256,address)":"60b0b0f0","contributions(address)":"42e94c90","endTime()":"3197cbb6","feeConfig()":"1e5eb1d0","feeSplitter()":"6052970c","finalizeFailed(string)":"b30ca2da","finalizeSuccess(bytes32,uint256,uint256)":"387cd2cb","getContributionInfo(address)":"cd78d92c","getPresaleInfo()":"767fa723","getRoleAdmin(bytes32)":"248a9ca3","grantRole(bytes32,address)":"2f2ff15d","hardCap()":"fb86a404","hasRole(bytes32,address)":"91d14854","maxContribution()":"8d3d6576","minContribution()":"aaffadf3","pause()":"8456cb59","paused()":"5c975abb","paymentToken()":"3013ce29","projectOwner()":"a4475ce4","projectToken()":"4b60ce77","referrers(address)":"4a3b68cc","renounceRole(bytes32,address)":"36568abe","revokeRole(bytes32,address)":"d547741f","setFeeConfig((uint256,uint256,uint256,uint256))":"a9eddf99","softCap()":"906a26e0","startTime()":"78e97925","status()":"200d2ed2","supportsInterface(bytes4)":"01ffc9a7","tgeTimestamp()":"a4317ef4","totalRaised()":"c5c4744c","unpause()":"3f4ba83a","vestingVault()":"a5917baf"}}}}}