{
  "_format": "hh-sol-artifact-1",
  "contractName": "PresaleFactory",
  "sourceName": "contracts/std-presale/PresaleFactory.sol",
  "abi": [
    {
      "inputs": [
        {
          "internalType": "address",
          "name": "_feeSplitter",
          "type": "address"
        },
        {
          "internalType": "address",
          "name": "_timelockExecutor",
          "type": "address"
        }
      ],
      "stateMutability": "nonpayable",
      "type": "constructor"
    },
    {
      "inputs": [],
      "name": "AccessControlBadConfirmation",
      "type": "error"
    },
    {
      "inputs": [
        {
          "internalType": "address",
          "name": "account",
          "type": "address"
        },
        {
          "internalType": "bytes32",
          "name": "neededRole",
          "type": "bytes32"
        }
      ],
      "name": "AccessControlUnauthorizedAccount",
      "type": "error"
    },
    {
      "inputs": [],
      "name": "InsufficientLPLockDuration",
      "type": "error"
    },
    {
      "inputs": [],
      "name": "InvalidCapRange",
      "type": "error"
    },
    {
      "inputs": [],
      "name": "InvalidContributionRange",
      "type": "error"
    },
    {
      "inputs": [],
      "name": "InvalidLiquidityPercent",
      "type": "error"
    },
    {
      "inputs": [],
      "name": "InvalidTimeRange",
      "type": "error"
    },
    {
      "inputs": [],
      "name": "ZeroAddress",
      "type": "error"
    },
    {
      "anonymous": false,
      "inputs": [
        {
          "indexed": true,
          "internalType": "address",
          "name": "round",
          "type": "address"
        },
        {
          "indexed": false,
          "internalType": "uint256",
          "name": "lockMonths",
          "type": "uint256"
        },
        {
          "indexed": false,
          "internalType": "bytes32",
          "name": "dexId",
          "type": "bytes32"
        },
        {
          "indexed": false,
          "internalType": "uint256",
          "name": "liquidityPercent",
          "type": "uint256"
        }
      ],
      "name": "LPPlanRecorded",
      "type": "event"
    },
    {
      "anonymous": false,
      "inputs": [
        {
          "indexed": true,
          "internalType": "uint256",
          "name": "presaleId",
          "type": "uint256"
        },
        {
          "indexed": true,
          "internalType": "address",
          "name": "round",
          "type": "address"
        },
        {
          "indexed": true,
          "internalType": "address",
          "name": "vesting",
          "type": "address"
        },
        {
          "indexed": false,
          "internalType": "bytes32",
          "name": "scheduleSalt",
          "type": "bytes32"
        },
        {
          "indexed": false,
          "internalType": "bytes32",
          "name": "complianceHash",
          "type": "bytes32"
        }
      ],
      "name": "PresaleCreated",
      "type": "event"
    },
    {
      "anonymous": false,
      "inputs": [
        {
          "indexed": true,
          "internalType": "bytes32",
          "name": "role",
          "type": "bytes32"
        },
        {
          "indexed": true,
          "internalType": "bytes32",
          "name": "previousAdminRole",
          "type": "bytes32"
        },
        {
          "indexed": true,
          "internalType": "bytes32",
          "name": "newAdminRole",
          "type": "bytes32"
        }
      ],
      "name": "RoleAdminChanged",
      "type": "event"
    },
    {
      "anonymous": false,
      "inputs": [
        {
          "indexed": true,
          "internalType": "bytes32",
          "name": "role",
          "type": "bytes32"
        },
        {
          "indexed": true,
          "internalType": "address",
          "name": "account",
          "type": "address"
        },
        {
          "indexed": true,
          "internalType": "address",
          "name": "sender",
          "type": "address"
        }
      ],
      "name": "RoleGranted",
      "type": "event"
    },
    {
      "anonymous": false,
      "inputs": [
        {
          "indexed": true,
          "internalType": "bytes32",
          "name": "role",
          "type": "bytes32"
        },
        {
          "indexed": true,
          "internalType": "address",
          "name": "account",
          "type": "address"
        },
        {
          "indexed": true,
          "internalType": "address",
          "name": "sender",
          "type": "address"
        }
      ],
      "name": "RoleRevoked",
      "type": "event"
    },
    {
      "anonymous": false,
      "inputs": [
        {
          "indexed": true,
          "internalType": "address",
          "name": "vesting",
          "type": "address"
        },
        {
          "indexed": true,
          "internalType": "address",
          "name": "rootSetter",
          "type": "address"
        }
      ],
      "name": "RolesGranted",
      "type": "event"
    },
    {
      "inputs": [],
      "name": "DEFAULT_ADMIN_ROLE",
      "outputs": [
        {
          "internalType": "bytes32",
          "name": "",
          "type": "bytes32"
        }
      ],
      "stateMutability": "view",
      "type": "function"
    },
    {
      "inputs": [],
      "name": "FACTORY_ADMIN_ROLE",
      "outputs": [
        {
          "internalType": "bytes32",
          "name": "",
          "type": "bytes32"
        }
      ],
      "stateMutability": "view",
      "type": "function"
    },
    {
      "inputs": [
        {
          "components": [
            {
              "internalType": "address",
              "name": "projectToken",
              "type": "address"
            },
            {
              "internalType": "address",
              "name": "paymentToken",
              "type": "address"
            },
            {
              "internalType": "uint256",
              "name": "softCap",
              "type": "uint256"
            },
            {
              "internalType": "uint256",
              "name": "hardCap",
              "type": "uint256"
            },
            {
              "internalType": "uint256",
              "name": "minContribution",
              "type": "uint256"
            },
            {
              "internalType": "uint256",
              "name": "maxContribution",
              "type": "uint256"
            },
            {
              "internalType": "uint256",
              "name": "startTime",
              "type": "uint256"
            },
            {
              "internalType": "uint256",
              "name": "endTime",
              "type": "uint256"
            },
            {
              "internalType": "address",
              "name": "projectOwner",
              "type": "address"
            }
          ],
          "internalType": "struct PresaleFactory.CreatePresaleParams",
          "name": "params",
          "type": "tuple"
        },
        {
          "components": [
            {
              "internalType": "uint256",
              "name": "tgeUnlockBps",
              "type": "uint256"
            },
            {
              "internalType": "uint256",
              "name": "cliffDuration",
              "type": "uint256"
            },
            {
              "internalType": "uint256",
              "name": "vestingDuration",
              "type": "uint256"
            }
          ],
          "internalType": "struct PresaleFactory.VestingParams",
          "name": "vestingParams",
          "type": "tuple"
        },
        {
          "components": [
            {
              "internalType": "uint256",
              "name": "lockMonths",
              "type": "uint256"
            },
            {
              "internalType": "bytes32",
              "name": "dexId",
              "type": "bytes32"
            },
            {
              "internalType": "uint256",
              "name": "liquidityPercent",
              "type": "uint256"
            }
          ],
          "internalType": "struct PresaleFactory.LPLockPlan",
          "name": "lpPlan",
          "type": "tuple"
        },
        {
          "internalType": "bytes32",
          "name": "complianceHash",
          "type": "bytes32"
        }
      ],
      "name": "createPresale",
      "outputs": [
        {
          "internalType": "address",
          "name": "round",
          "type": "address"
        },
        {
          "internalType": "address",
          "name": "vesting",
          "type": "address"
        }
      ],
      "stateMutability": "nonpayable",
      "type": "function"
    },
    {
      "inputs": [],
      "name": "feeSplitter",
      "outputs": [
        {
          "internalType": "address",
          "name": "",
          "type": "address"
        }
      ],
      "stateMutability": "view",
      "type": "function"
    },
    {
      "inputs": [
        {
          "internalType": "uint256",
          "name": "presaleId",
          "type": "uint256"
        }
      ],
      "name": "getPresaleDetails",
      "outputs": [
        {
          "internalType": "address",
          "name": "round",
          "type": "address"
        },
        {
          "internalType": "address",
          "name": "vesting",
          "type": "address"
        },
        {
          "internalType": "bytes32",
          "name": "scheduleSalt",
          "type": "bytes32"
        },
        {
          "internalType": "bytes32",
          "name": "complianceHash",
          "type": "bytes32"
        },
        {
          "components": [
            {
              "internalType": "uint256",
              "name": "lockMonths",
              "type": "uint256"
            },
            {
              "internalType": "bytes32",
              "name": "dexId",
              "type": "bytes32"
            },
            {
              "internalType": "uint256",
              "name": "liquidityPercent",
              "type": "uint256"
            }
          ],
          "internalType": "struct PresaleFactory.LPLockPlan",
          "name": "lpPlan",
          "type": "tuple"
        }
      ],
      "stateMutability": "view",
      "type": "function"
    },
    {
      "inputs": [
        {
          "internalType": "bytes32",
          "name": "role",
          "type": "bytes32"
        }
      ],
      "name": "getRoleAdmin",
      "outputs": [
        {
          "internalType": "bytes32",
          "name": "",
          "type": "bytes32"
        }
      ],
      "stateMutability": "view",
      "type": "function"
    },
    {
      "inputs": [
        {
          "internalType": "address",
          "name": "round",
          "type": "address"
        }
      ],
      "name": "getScheduleSalt",
      "outputs": [
        {
          "internalType": "bytes32",
          "name": "",
          "type": "bytes32"
        }
      ],
      "stateMutability": "view",
      "type": "function"
    },
    {
      "inputs": [
        {
          "internalType": "address",
          "name": "round",
          "type": "address"
        }
      ],
      "name": "getVestingForRound",
      "outputs": [
        {
          "internalType": "address",
          "name": "",
          "type": "address"
        }
      ],
      "stateMutability": "view",
      "type": "function"
    },
    {
      "inputs": [
        {
          "internalType": "bytes32",
          "name": "role",
          "type": "bytes32"
        },
        {
          "internalType": "address",
          "name": "account",
          "type": "address"
        }
      ],
      "name": "grantRole",
      "outputs": [],
      "stateMutability": "nonpayable",
      "type": "function"
    },
    {
      "inputs": [
        {
          "internalType": "bytes32",
          "name": "role",
          "type": "bytes32"
        },
        {
          "internalType": "address",
          "name": "account",
          "type": "address"
        }
      ],
      "name": "hasRole",
      "outputs": [
        {
          "internalType": "bool",
          "name": "",
          "type": "bool"
        }
      ],
      "stateMutability": "view",
      "type": "function"
    },
    {
      "inputs": [],
      "name": "presaleCount",
      "outputs": [
        {
          "internalType": "uint256",
          "name": "",
          "type": "uint256"
        }
      ],
      "stateMutability": "view",
      "type": "function"
    },
    {
      "inputs": [
        {
          "internalType": "bytes32",
          "name": "role",
          "type": "bytes32"
        },
        {
          "internalType": "address",
          "name": "callerConfirmation",
          "type": "address"
        }
      ],
      "name": "renounceRole",
      "outputs": [],
      "stateMutability": "nonpayable",
      "type": "function"
    },
    {
      "inputs": [
        {
          "internalType": "bytes32",
          "name": "role",
          "type": "bytes32"
        },
        {
          "internalType": "address",
          "name": "account",
          "type": "address"
        }
      ],
      "name": "revokeRole",
      "outputs": [],
      "stateMutability": "nonpayable",
      "type": "function"
    },
    {
      "inputs": [
        {
          "internalType": "address",
          "name": "",
          "type": "address"
        }
      ],
      "name": "roundToComplianceHash",
      "outputs": [
        {
          "internalType": "bytes32",
          "name": "",
          "type": "bytes32"
        }
      ],
      "stateMutability": "view",
      "type": "function"
    },
    {
      "inputs": [
        {
          "internalType": "address",
          "name": "",
          "type": "address"
        }
      ],
      "name": "roundToLPPlan",
      "outputs": [
        {
          "internalType": "uint256",
          "name": "lockMonths",
          "type": "uint256"
        },
        {
          "internalType": "bytes32",
          "name": "dexId",
          "type": "bytes32"
        },
        {
          "internalType": "uint256",
          "name": "liquidityPercent",
          "type": "uint256"
        }
      ],
      "stateMutability": "view",
      "type": "function"
    },
    {
      "inputs": [
        {
          "internalType": "address",
          "name": "",
          "type": "address"
        }
      ],
      "name": "roundToScheduleSalt",
      "outputs": [
        {
          "internalType": "bytes32",
          "name": "",
          "type": "bytes32"
        }
      ],
      "stateMutability": "view",
      "type": "function"
    },
    {
      "inputs": [
        {
          "internalType": "address",
          "name": "",
          "type": "address"
        }
      ],
      "name": "roundToVesting",
      "outputs": [
        {
          "internalType": "address",
          "name": "",
          "type": "address"
        }
      ],
      "stateMutability": "view",
      "type": "function"
    },
    {
      "inputs": [
        {
          "internalType": "uint256",
          "name": "",
          "type": "uint256"
        }
      ],
      "name": "rounds",
      "outputs": [
        {
          "internalType": "address",
          "name": "",
          "type": "address"
        }
      ],
      "stateMutability": "view",
      "type": "function"
    },
    {
      "inputs": [
        {
          "internalType": "bytes4",
          "name": "interfaceId",
          "type": "bytes4"
        }
      ],
      "name": "supportsInterface",
      "outputs": [
        {
          "internalType": "bool",
          "name": "",
          "type": "bool"
        }
      ],
      "stateMutability": "view",
      "type": "function"
    },
    {
      "inputs": [],
      "name": "timelockExecutor",
      "outputs": [
        {
          "internalType": "address",
          "name": "",
          "type": "address"
        }
      ],
      "stateMutability": "view",
      "type": "function"
    }
  ],
  "bytecode": "0x60c034620000e257601f6200496038819003918201601f19168301916001600160401b03831184841017620000e7578084926040948552833981010312620000e2576200005a60206200005283620000fd565b9201620000fd565b906001600160a01b0380821615620000d057821615620000d05760805260a052620000853362000112565b50620000913362000192565b5060405161470b90816200023582396080518181816104a00152610af3015260a051818181610129015281816103bb015281816104dc01526106b40152f35b60405163d92e233d60e01b8152600490fd5b600080fd5b634e487b7160e01b600052604160045260246000fd5b51906001600160a01b0382168203620000e257565b6001600160a01b031660008181527fad3228b676f7d3cd4284a5443f17f1962b36e491b30a40b2405849e597ba5fb5602052604081205490919060ff166200018e57818052816020526040822081835260205260408220600160ff198254161790553391600080516020620049408339815191528180a4600190565b5090565b6001600160a01b031660008181527f40d6054e7c1e32abf36e71c717b2201c6fb50ee4639813ce060d4f8ffbb78bdd60205260408120549091907fbd5d72ac35ae1e83aa0625c57eddda63fbb064a87fca99dfdd7ce027384ae2829060ff166200022f57808352826020526040832082845260205260408320600160ff1982541617905560008051602062004940833981519152339380a4600190565b50509056fe60808060405260043610156200001457600080fd5b600090813560e01c90816301ffc9a71462000cc457508063076e7fd31462000b22578063248a9ca31462000c965780632f2ff15d1462000c515780633360cf5e1462000c1457806336568abe1462000bc55780634732f00e1462000b625780635ccbf6711462000b225780636052970c1462000adb5780638c65c81f1462000aa657806391d148541462000a5a578063a217fddf1462000a3c578063b1012ec91462000939578063bda75e6d1462000976578063ca807e681462000939578063cde27a351462000919578063d547741f14620008d0578063e82f1c0a1462000893578063ea1b61ba146200015b5763f6a4ad65146200011257600080fd5b3462000158578060031936011262000158576040517f00000000000000000000000000000000000000000000000000000000000000006001600160a01b03168152602090f35b80fd5b50346200015857366003190161020081126200088f57610120136200015857606036610123190112620001585760603661018319011262000158577fbd5d72ac35ae1e83aa0625c57eddda63fbb064a87fca99dfdd7ce027384ae282808252816020526040822033835260205260ff6040832054161562000871575060643560443510156200085f57604435156200085f5760e43560c43510156200084d574260c43511156200084d5760a435608435116200083b57608435156200083b57600c610184351062000829576113886101c4351080156200081a575b62000808576001600160a01b036200024d62000e68565b1615620007f6576001600160a01b036200026662000e7f565b1615620007f657600154906200027b62000e7f565b6200028562000e68565b6040519360208501524260408501526bffffffffffffffffffffffff19809260601b16606085015260601b166074830152606882528160a081011067ffffffffffffffff60a084011117620007e25760a082016040528151602083012091620002ed62000e68565b60a0820160a0610fcf8401011067ffffffffffffffff60a0610fcf8501011117620007ce57610fcf62000ee060a08401396001600160a01b0316610fcf820160a0818101929092526101243560c0808301919091526101443560e0830152610164356101008301526101208201869052306101408301529083900301910182f08015620007c1576001600160a01b031690813b156200015857604051632f2ff15d60e01b81527fa49807205ce4d355092ef5a8a18f56e8913cf4a201fbe287825b095693c2177560048201527f00000000000000000000000000000000000000000000000000000000000000006001600160a01b03166024820152818160448183875af18015620007b657620007a4575b50906200040a62000e68565b602435906001600160a01b03821682036200079f576200042962000e7f565b91604051918261282781011067ffffffffffffffff612827850111176200078b5761282762001eaf84396001600160a01b039081166128278401908152918116602083015260443560408301526064356060830152608435608083015260a43560a083015260c43560c083015260e43560e08301527f00000000000000000000000000000000000000000000000000000000000000008116610100830181905261012083018690529381166101408301527f000000000000000000000000000000000000000000000000000000000000000016610160820152819003610180019084f0801562000780576001600160a01b031690823b156200075957604051632f2ff15d60e01b81527fa49807205ce4d355092ef5a8a18f56e8913cf4a201fbe287825b095693c21775600482015260248101839052848160448183885af1801562000775579085916200075d575b5050803b15620007595783809160246040518094819363105fad9b60e21b83528760048401525af180156200074e5790849162000732575b505060015483526002602052604083206bffffffffffffffffffffffff60a01b908282825416179055818452600360205282604085209182541617905560046020528360408420556005602052807fda79e99dc31a6b02a1a6d9e3758c6d0ef34606738cc48a1ff703d6566b040626620006ab6101e4358060408820556006602052858460408920926101843584556101a4359384600182015560026101c4359101557f42074357c57268478f25edbb5880a4b5604f55cf132f7c8e21ab8d46a128296960406001549c8d9382519182526020820152a46040805161018435815260208101929092526101c435908201529081906060820190565b0390a2604051927f00000000000000000000000000000000000000000000000000000000000000006001600160a01b0316837f68761163edc0e36a9b4d28b0260a8c3d198cf5f21f582d72561bdcb89b3f29078380a360001985146200071e575060016040940160015582526020820152f35b634e487b7160e01b81526011600452602490fd5b6200073d9062000eca565b6200074a578238620005b0565b8280fd5b6040513d86823e3d90fd5b8380fd5b620007689062000eca565b6200075957833862000578565b6040513d87823e3d90fd5b6040513d85823e3d90fd5b634e487b7160e01b86526041600452602486fd5b600080fd5b620007af9062000eca565b38620003fe565b6040513d84823e3d90fd5b50604051903d90823e3d90fd5b634e487b7160e01b83526041600452602483fd5b634e487b7160e01b81526041600452602490fd5b60405163d92e233d60e01b8152600490fd5b6040516351424f0b60e11b8152600490fd5b506123286101c4351162000236565b6040516376a12a0f60e11b8152600490fd5b60405163102df2a160e11b8152600490fd5b60405163536a71af60e01b8152600490fd5b60405163f5cae40b60e01b8152600490fd5b6044906040519063e2517d3f60e01b82523360048301526024820152fd5b5080fd5b50346200015857602036600319011262000158576020906040906001600160a01b03620008bf62000d1e565b168152600583522054604051908152f35b503462000158576040366003190112620001585762000915600435620008f562000d35565b90808452836020526200090f600160408620015462000d4c565b62000df2565b5080f35b503462000158578060031936011262000158576020600154604051908152f35b50346200015857602036600319011262000158576020906040906001600160a01b036200096562000d1e565b168152600483522054604051908152f35b503462000158576020806003193601126200088f579060e09181604080516200099f8162000e97565b8281528284820152015260043582526002815260018060a01b039182604082205416928382526003835260408220541660048352604082205491600584526040808220549160068652209260405192620009f98462000e97565b84548452600260018601549587860196875201549560408501968752604051978852870152604086015260608501525160808401525160a08301525160c0820152f35b50346200015857806003193601126200015857602090604051908152f35b503462000158576040366003190112620001585760ff604060209262000a7f62000d35565b60043582528185528282206001600160a01b03909116825284522054604051911615158152f35b5034620001585760203660031901126200015857602090600435815260028252604060018060a01b0391205416604051908152f35b503462000158578060031936011262000158576040517f00000000000000000000000000000000000000000000000000000000000000006001600160a01b03168152602090f35b50346200015857602036600319011262000158576020906001600160a01b03906040908262000b5062000d1e565b16815260038452205416604051908152f35b50346200015857602036600319011262000158576040906001600160a01b0362000b8b62000d1e565b168152600660205220805462000bc160026001840154930154604051938493846040919493926060820195825260208201520152565b0390f35b503462000158576040366003190112620001585762000be362000d35565b336001600160a01b0382160362000c0257620009159060043562000df2565b60405163334bd91960e11b8152600490fd5b5034620001585780600319360112620001585760206040517fbd5d72ac35ae1e83aa0625c57eddda63fbb064a87fca99dfdd7ce027384ae2828152f35b50346200015857604036600319011262000158576200091560043562000c7662000d35565b908084528360205262000c90600160408620015462000d4c565b62000d73565b5034620001585760203660031901126200015857600160406020926004358152808452200154604051908152f35b9050346200088f5760203660031901126200088f5760043563ffffffff60e01b81168091036200074a5760209250637965db0b60e01b811490811562000d0c575b5015158152f35b6301ffc9a760e01b1490503862000d05565b600435906001600160a01b03821682036200079f57565b602435906001600160a01b03821682036200079f57565b80600052600060205260406000203360005260205260ff6040600020541615620008715750565b9060009180835282602052604083209160018060a01b03169182845260205260ff6040842054161560001462000ded57808352826020526040832082845260205260408320600160ff198254161790557f2f8788117e7eff1d82e926ec794901d17c78024a50270940304540a733656f0d339380a4600190565b505090565b9060009180835282602052604083209160018060a01b03169182845260205260ff60408420541660001462000ded5780835282602052604083208284526020526040832060ff1981541690557ff6391f5c32d9c69d2a47ea670b442974b53935d1edc7fd64eb21e047a839171b339380a4600190565b6004356001600160a01b03811681036200079f5790565b610104356001600160a01b03811681036200079f5790565b6060810190811067ffffffffffffffff82111762000eb457604052565b634e487b7160e01b600052604160045260246000fd5b67ffffffffffffffff811162000eb45760405256fe6101203461010d57601f610fcf38819003918201601f19168301916001600160401b038311848410176101125780849260c09460405283398101031261010d5761009361004b82610128565b6020830151604084015160608501519161006c60a060808801519701610128565b93600160005560805260a05260c05260e05261010092835261008d8161013c565b506101bb565b50604051610d52918261025d833960805182818161011c0152818161040401526107ce015260a0518281816101aa015281816109dc0152610bf2015260c0518281816101cd0152818161023b0152610c20015260e0518281816101f3015281816109a10152610c4e01525181818161016801526106790152f35b600080fd5b634e487b7160e01b600052604160045260246000fd5b51906001600160a01b038216820361010d57565b6001600160a01b031660008181527fa6eef7e35abe7026729641147f7915573c7e97b47efa546f5f6e3230263bcb49602052604081205490919060ff166101b75781805260016020526040822081835260205260408220600160ff198254161790553391600080516020610faf8339815191528180a4600190565b5090565b6001600160a01b031660008181527f50efbde2d46c37e9785f1791697f77e94bb7b701e19f1930a668820722d3769460205260408120549091907fa49807205ce4d355092ef5a8a18f56e8913cf4a201fbe287825b095693c217759060ff166102575780835260016020526040832082845260205260408320600160ff19825416179055600080516020610faf833981519152339380a4600190565b50509056fe608080604052600436101561001357600080fd5b60003560e01c90816301ffc9a7146109ff5750806314f41d73146109c45780631514617e14610989578063248a9ca31461095a5780632eb4a7ab1461093c5780632f2ff15d146108fd5780632f52ebb7146105f357806336568abe146105ac57806345f7f2491461058e5780636f5244b11461055f57806375b238fc146105245780637c382d0b1461036057806391d1485414610313578063a217fddf146102f7578063a4317ef4146102d9578063c884ef831461029f578063d547741f1461025e578063d85349f714610223578063dc25a3001461018b578063e1f05ec4146101505763fc0c546a1461010657600080fd5b3461014b57600036600319011261014b576040517f00000000000000000000000000000000000000000000000000000000000000006001600160a01b03168152602090f35b600080fd5b3461014b57600036600319011261014b5760206040517f00000000000000000000000000000000000000000000000000000000000000008152f35b3461014b57600036600319011261014b5760a0600354600254604051917f000000000000000000000000000000000000000000000000000000000000000083527f000000000000000000000000000000000000000000000000000000000000000060208401527f0000000000000000000000000000000000000000000000000000000000000000604084015260608301526080820152f35b3461014b57600036600319011261014b5760206040517f00000000000000000000000000000000000000000000000000000000000000008152f35b3461014b57604036600319011261014b5761029d60043561027d610a52565b90806000526001602052610298600160406000200154610a7e565b610b24565b005b3461014b57602036600319011261014b576001600160a01b036102c0610a68565b1660005260056020526020604060002054604051908152f35b3461014b57600036600319011261014b576020600354604051908152f35b3461014b57600036600319011261014b57602060405160008152f35b3461014b57604036600319011261014b5761032c610a52565b600435600052600160205260406000209060018060a01b0316600052602052602060ff604060002054166040519015158152f35b3461014b57604036600319011261014b573360009081527f50efbde2d46c37e9785f1791697f77e94bb7b701e19f1930a668820722d3769460209081526040909120546004359190602435907fa49807205ce4d355092ef5a8a18f56e8913cf4a201fbe287825b095693c217759060ff161561050657506002546104f45782156104e25780156104d0576040516370a0823160e01b815230600482015282816024817f00000000000000000000000000000000000000000000000000000000000000006001600160a01b03165afa80156104c4578291600091610493575b5010610481577fc7ce8037cbac8a577b7d8edd9340b4dbb1e691f2eb699b97f5c7576b0e9ede0491604091846002554260035580600455825191428352820152a2005b6040516314ecd6c760e01b8152600490fd5b809250848092503d83116104bd575b6104ac8183610b9b565b8101031261014b578190518561043e565b503d6104a2565b6040513d6000823e3d90fd5b60405163ba0d87b560e01b8152600490fd5b6040516309bde33960e01b8152600490fd5b60405163b466ddbf60e01b8152600490fd5b6044906040519063e2517d3f60e01b82523360048301526024820152fd5b3461014b57600036600319011261014b5760206040517fa49807205ce4d355092ef5a8a18f56e8913cf4a201fbe287825b095693c217758152f35b3461014b57604036600319011261014b57602061058661057d610a68565b60243590610cd5565b604051908152f35b3461014b57600036600319011261014b576020600454604051908152f35b3461014b57604036600319011261014b576105c5610a52565b336001600160a01b038216036105e15761029d90600435610b24565b60405163334bd91960e11b8152600490fd5b3461014b57604036600319011261014b5767ffffffffffffffff6024351161014b5736602360243501121561014b5767ffffffffffffffff602435600401351161014b576005366024803560040135831b813501011161014b576002600054146108eb57600260005560025480156108d9576040513060601b60208201524660348201527f000000000000000000000000000000000000000000000000000000000000000060548201523360601b60748201526004356088820152608881528060c081011067ffffffffffffffff60c0830111176108a15760c08101604052805160208201206106f1602060243560040135861b0160c08401610b9b565b60248035600481013560c08501520160e083015b6024803560040135871b8135010182106108c9575050906000915b60c08201518310156107845782851b820160e0015190818110156107735760005260205260406000205b91600019811461075d5760010191610720565b634e487b7160e01b600052601160045260246000fd5b90600052602052604060002061074a565b915050036104e257610797600435610bea565b3360005281602052604060002054808211156108b7576107b79082610bbd565b913360005260205260406000205560018060a01b037f0000000000000000000000000000000000000000000000000000000000000000166040516020810163a9059cbb60e01b815233602483015283604483015260448252608082019082821067ffffffffffffffff8311176108a157602092600092604052519082855af1156104c4576000513d6108985750803b155b61088057506040519081527fd8138f8a3f377c5259ca548e70e4c2de94f129f5a11036a15b69513cba2b426a60203392a26001600055005b60249060405190635274afe760e01b82526004820152fd5b60011415610848565b634e487b7160e01b600052604160045260246000fd5b6040516312d37ee560e31b8152600490fd5b8135815260209182019101610705565b604051631c8b625960e01b8152600490fd5b604051633ee5aeb560e01b8152600490fd5b3461014b57604036600319011261014b5761029d60043561091c610a52565b90806000526001602052610937600160406000200154610a7e565b610aa4565b3461014b57600036600319011261014b576020600254604051908152f35b3461014b57602036600319011261014b5760043560005260016020526020600160406000200154604051908152f35b3461014b57600036600319011261014b5760206040517f00000000000000000000000000000000000000000000000000000000000000008152f35b3461014b57600036600319011261014b5760206040517f00000000000000000000000000000000000000000000000000000000000000008152f35b3461014b57602036600319011261014b576004359063ffffffff60e01b821680920361014b57602091637965db0b60e01b8114908115610a41575b5015158152f35b6301ffc9a760e01b14905083610a3a565b602435906001600160a01b038216820361014b57565b600435906001600160a01b038216820361014b57565b80600052600160205260406000203360005260205260ff60406000205416156105065750565b906000918083526001602052604083209160018060a01b03169182845260205260ff60408420541615600014610b1f5780835260016020526040832082845260205260408320600160ff198254161790557f2f8788117e7eff1d82e926ec794901d17c78024a50270940304540a733656f0d339380a4600190565b505090565b906000918083526001602052604083209160018060a01b03169182845260205260ff604084205416600014610b1f578083526001602052604083208284526020526040832060ff1981541690557ff6391f5c32d9c69d2a47ea670b442974b53935d1edc7fd64eb21e047a839171b339380a4600190565b90601f8019910116810190811067ffffffffffffffff8211176108a157604052565b9190820391821161075d57565b8181029291811591840414171561075d57565b9190820180921161075d57565b612710610c177f000000000000000000000000000000000000000000000000000000000000000083610bca565b04610c456003547f000000000000000000000000000000000000000000000000000000000000000090610bdd565b804210610ccf577f000000000000000000000000000000000000000000000000000000000000000092610c788483610bdd565b421015610cc85790610c97610c9084610c9d94610bbd565b9142610bbd565b90610bca565b918015610cb257610caf920490610bdd565b90565b634e487b7160e01b600052601260045260246000fd5b9250505090565b50905090565b9060025415610d1557610ce790610bea565b6001600160a01b03909116600090815260056020526040812054909181811115610b1f57610caf9250610bbd565b505060009056fea26469706673582212208a4b9c712498a497611d6b6e187d91a95c98a0148e64bd12045f9c86e25d5c9d64736f6c634300081400332f8788117e7eff1d82e926ec794901d17c78024a50270940304540a733656f0d6101e0346200039557601f6200282738819003918201601f19168301916001600160401b038311848410176200035b578084926101809460405283398101031262000395576200004f816200039a565b906200005e602082016200039a565b916040820151926060830151608084015160a085015160c08601519060e0870151926200008f61010089016200039a565b946200009f6101208a016200039a565b99620000be610160620000b66101408d016200039a565b9b016200039a565b97600160005581831062000383578587111562000383576001600160a01b0388161562000371576001600160a01b038c161562000371576001600160a01b038b16156200037157620001529960805260a05260c05260e05261010052610120526101405261016052610180526101a09384526101c092835260ff19600754166007556200014b81620003af565b5062000430565b50604051608081016001600160401b038111828210176200035b57604052603260606101f49283815260fa602082015260c86040820152015260035560fa60045560c86005556032600655604051906123339283620004d4843960805183818161079e01528181610a9601528181610b1901528181610c9a01528181610d0001528181611303015281816114e1015261176c015260a0518381816103150152818161110a01528181611551015281816117ed015281816118a10152818161191e015281816119f901528181611a2801528181611a7c0152611b6e015260c0518381816104310152818161072b01528181610e2201528181610f490152611457015260e0518381816101ea01528181610f6f015281816110db0152818161161b01526121f20152610100518381816104d50152611082015261012051838181610e5d01526110a901526101405183818161052e01528181610ef201528181610f950152612101015261016051838181610fbb01528181611b3501526121ae0152610180518381816109d90152818161127d0152818161158201528181611857015281816118e0015261199e01525182818161062401528181610766015281816107ef015281816108380152818161088701528181610cdf015261149a0152518181816106690152818161098d015281816114c0015281816115e50152818161172a01526117cc0152f35b634e487b7160e01b600052604160045260246000fd5b60405163e6c4247b60e01b8152600490fd5b6040516307a92f1960e51b8152600490fd5b600080fd5b51906001600160a01b03821682036200039557565b6001600160a01b031660008181527fac33ff75c19e70fe83507db0d683fd3465c996598dc972688b7ace676c89077b602052604081205490919060ff166200042c5781805260026020526040822081835260205260408220600160ff198254161790553391600080516020620028078339815191528180a4600190565b5090565b6001600160a01b031660008181527fe5ebfa64fca8d502a8e50c1edffd2c31ef4dad5b396e65d9f397fb028f74abc560205260408120549091907fa49807205ce4d355092ef5a8a18f56e8913cf4a201fbe287825b095693c217759060ff16620004ce5780835260026020526040832082845260205260408320600160ff1982541617905560008051602062002807833981519152339380a4600190565b50509056fe608080604052600436101561001d575b50361561001b57600080fd5b005b600090813560e01c90816301ffc9a714611ced575080630b4f3f3d14611c675780631e5eb1d014611c30578063200d2ed214611c08578063248a9ca314611bdb5780632f2ff15d14611b9d5780633013ce2914611b585780633197cbb614611b1d57806336568abe14611ad5578063387cd2cb146114125780633f4ba83a146113a757806342e94c901461136e5780634a3b68cc146113325780634b60ce77146112ed57806350e15fdd146112cf5780635c975abb146112ac5780636052970c1461126757806360b0b0f01461102157806375b238fc14610fe6578063767fa72314610f1557806378e9792514610eda5780638456cb5914610e805780638d3d657614610e45578063906a26e014610e0a57806391d1485414610dbe5780639e21bf18146106d2578063a217fddf146106b6578063a4317ef414610698578063a4475ce414610653578063a5917baf1461060e578063a5df9c62146105eb578063a9eddf99146104f8578063aaffadf3146104bd578063b30ca2da146103f5578063b5545a3c146102b8578063c5c4744c1461029a578063cd78d92c14610252578063d547741f146102105763fb86a4040361000f573461020d578060031936011261020d5760206040517f00000000000000000000000000000000000000000000000000000000000000008152f35b80fd5b503461020d57604036600319011261020d5761024e600435610230611db3565b9080845260026020526102496001604086200154611e73565b611f19565b5080f35b503461020d57602036600319011261020d576040906001600160a01b0380610278611dc9565b168252600c602052828083205492600d60205220541682519182526020820152f35b503461020d578060031936011261020d576020600854604051908152f35b503461020d578060031936011261020d576102d16120d4565b60ff6007541660068110156103e157600481141590816103d5575b506103c357338152600c602052604081205480156103b157338252600c602052604082208290557f00000000000000000000000000000000000000000000000000000000000000006001600160a01b031681816103a15783808093508092335af1610355612259565b501561038f575b6040519081527fd7dee2702d63ad89917b6a4da9981c90c4d24f8c2bdfd64c604ecae57d8d065160203392a26001815580f35b60405163b9da5d2b60e01b8152600490fd5b6103ac913390612299565b61035c565b604051631971fbf360e21b8152600490fd5b604051630b4d698160e01b8152600490fd5b600591501415386102ec565b634e487b7160e01b82526021600452602482fd5b503461020d5761040436611d46565b61040c611df9565b6104146120f7565b6007549160ff831660068110156104a957600203610497576008547f000000000000000000000000000000000000000000000000000000000000000011156104975760047f5b55eccea968a9bf1df9a6702e20475ac67bb0d7f402f51701eef38e619368fe9360ff191617600755610491604051928392836122d5565b0390a180f35b6040516307a92f1960e51b8152600490fd5b634e487b7160e01b85526021600452602485fd5b503461020d578060031936011261020d5760206040517f00000000000000000000000000000000000000000000000000000000000000008152f35b503461020d57608036600319011261020d57610512611df9565b60ff6007541660068110156103e1576105da576008546105da577f00000000000000000000000000000000000000000000000000000000000000004210156105da576044356024356004356105678383611f90565b6105746064358092611f90565b82036105c8577f0ad166d8be1925ee44c5a77600b8a5f7e58cbe711c0dbd99624014a81b8350ba9360809383600355806004558160055582600655604051938452602084015260408301526060820152a180f35b604051632b00a33d60e11b8152600490fd5b60405162b5d7e160e81b8152600490fd5b503461020d578060031936011261020d57602060ff600b54166040519015158152f35b503461020d578060031936011261020d576040517f00000000000000000000000000000000000000000000000000000000000000006001600160a01b03168152602090f35b503461020d578060031936011261020d576040517f00000000000000000000000000000000000000000000000000000000000000006001600160a01b03168152602090f35b503461020d578060031936011261020d576020600954604051908152f35b503461020d578060031936011261020d57602090604051908152f35b503461020d576106e136611ddf565b916106ea611df9565b6106f26120d4565b60ff6007541660068110156104a957600314610dac576107106120f7565b60ff6007541660068110156104a957600203610497576008547f000000000000000000000000000000000000000000000000000000000000000011610d9a576040516370a0823160e01b81526001600160a01b037f000000000000000000000000000000000000000000000000000000000000000081166004830152859360249290916020908290859082907f0000000000000000000000000000000000000000000000000000000000000000165afa908115610bdb578791610d68575b50818110610c71575b50604051632eb4a7ab60e01b815283906020816004817f00000000000000000000000000000000000000000000000000000000000000006001600160a01b03165afa908115610c66578891610c34575b5080610c2a57508015610c185786917f00000000000000000000000000000000000000000000000000000000000000006001600160a01b03163b15610c1457604051637c382d0b60e01b81526004810192909252838201528181604481837f00000000000000000000000000000000000000000000000000000000000000006001600160a01b03165af18015610c0957610bf1575b50505b849380151580610be6575b610a6a575b50504260095560ff19926003846007541617600755479285869585151580610a5d575b610948575b50907fc4cc84355ef3f7327b5aa6c366cafe189c44e1a7807ce501f6f3a503a66717e89560c095949392604051958652602086015260408501526060840152608083015260a0820152a16001815580f35b95505061271061095a60035486612239565b046001610967828761224c565b96600b541617600b55806109d7575b85610982575b386108f7565b9392919086808080897f00000000000000000000000000000000000000000000000000000000000000005af16109b6612259565b50156109c5579091929361097c565b604051633d2cec6f60e21b8152600490fd5b7f00000000000000000000000000000000000000000000000000000000000000006001600160a01b031687813b1561020d5780839260046040518095819363990087b760e01b83525af19182610a45575b5050610a40576040516354ce345960e01b8152600490fd5b610976565b610a4e90611fb3565b610a59578738610a28565b8780fd5b5060ff600b5416156108f2565b909350610a79600a548261224c565b6040516370a0823160e01b815230600482015290949060208183817f00000000000000000000000000000000000000000000000000000000000000006001600160a01b03165afa8015610bdb5786918891610ba1575b5010610b8f5760405163a9059cbb60e01b602082015261dead828201526044808201879052815290608082019067ffffffffffffffff821183831017610b7b5750604052610b46907f00000000000000000000000000000000000000000000000000000000000000006001600160a01b031661204e565b600a557f3316cd92e8029a9d825199ad5d83f540869e52a9d77cf97560178a0b5ebac6fb602084604051908152a138806108cf565b634e487b7160e01b60009081526041600452fd5b604051637222ae5760e11b8152600490fd5b9150506020813d602011610bd3575b81610bbd60209383611fe3565b81010312610bce5785905138610acf565b600080fd5b3d9150610bb0565b6040513d89823e3d90fd5b5080600a54106108ca565b610bfa90611fb3565b610c055784386108bc565b8480fd5b6040513d84823e3d90fd5b8280fd5b604051639dd854d360e01b8152600490fd5b93506108bf915050565b90506020813d602011610c5e575b81610c4f60209383611fe3565b81010312610a59575138610827565b3d9150610c42565b6040513d8a823e3d90fd5b81610c7d92955061224c565b6040516370a0823160e01b815230600482015290939060208184817f00000000000000000000000000000000000000000000000000000000000000006001600160a01b03165afa8015610bdb5785918891610d33575b5010610b8f57610d2d847f00000000000000000000000000000000000000000000000000000000000000007f00000000000000000000000000000000000000000000000000000000000000006001600160a01b0316612299565b386107d7565b9150506020813d602011610d60575b81610d4f60209383611fe3565b81010312610bce5784905138610cd3565b3d9150610d42565b90506020813d602011610d92575b81610d8360209383611fe3565b81010312610bce5751386107ce565b3d9150610d76565b6040516346c21a5560e01b8152600490fd5b60405163475a253560e01b8152600490fd5b503461020d57604036600319011261020d576040610dda611db3565b9160043581526002602052209060018060a01b0316600052602052602060ff604060002054166040519015158152f35b503461020d578060031936011261020d5760206040517f00000000000000000000000000000000000000000000000000000000000000008152f35b503461020d578060031936011261020d5760206040517f00000000000000000000000000000000000000000000000000000000000000008152f35b503461020d578060031936011261020d57610e99611df9565b610ea16120b6565b600160ff19815416176001557f62e78cea01bee320cd4e420270b5ea74000d11b0c9f74754ebdbfc544b05a2586020604051338152a180f35b503461020d578060031936011261020d5760206040517f00000000000000000000000000000000000000000000000000000000000000008152f35b503461020d578060031936011261020d5760e060ff6007541660085460095490610f426040518094611d90565b60208301527f000000000000000000000000000000000000000000000000000000000000000060408301527f000000000000000000000000000000000000000000000000000000000000000060608301527f000000000000000000000000000000000000000000000000000000000000000060808301527f000000000000000000000000000000000000000000000000000000000000000060a083015260c0820152f35b503461020d578060031936011261020d5760206040517fa49807205ce4d355092ef5a8a18f56e8913cf4a201fbe287825b095693c217758152f35b50604036600319011261020d57600435611039611db3565b906110426120d4565b61104a6120b6565b6110526120f7565b60ff6007541660068110156112535760010361049757338352602091600c8352611080826040862054611f90565b7f00000000000000000000000000000000000000000000000000000000000000008110611241577f00000000000000000000000000000000000000000000000000000000000000001061122f576110d982600854611f90565b7f00000000000000000000000000000000000000000000000000000000000000001061121d576001600160a01b03827f00000000000000000000000000000000000000000000000000000000000000008216806111e75750340361049757807fec470969f3350ca5a15f0d85053f8763ffd0ee39c7b74fcdc5af7862718e292a925b338752600c865260408720611171868254611f90565b905561117f85600854611f90565b60085516801515806111d2575b6111b0575b50338552600d8452604085205416926040519283523392a36001815580f35b338652600d85526040862080546001600160a01b031916909117905538611191565b50338652600d8552816040872054161561118c565b9261121883927fec470969f3350ca5a15f0d85053f8763ffd0ee39c7b74fcdc5af7862718e292a9530903390612005565b61115b565b604051631c4af3c960e11b8152600490fd5b6040516374368fb960e11b8152600490fd5b60405163860b82a960e01b8152600490fd5b634e487b7160e01b84526021600452602484fd5b503461020d578060031936011261020d576040517f00000000000000000000000000000000000000000000000000000000000000006001600160a01b03168152602090f35b503461020d578060031936011261020d57602060ff600154166040519015158152f35b503461020d578060031936011261020d576020600a54604051908152f35b503461020d578060031936011261020d576040517f00000000000000000000000000000000000000000000000000000000000000006001600160a01b03168152602090f35b503461020d57602036600319011261020d576020906001600160a01b03906040908261135c611dc9565b168152600d8452205416604051908152f35b503461020d57602036600319011261020d576020906040906001600160a01b03611396611dc9565b168152600c83522054604051908152f35b503461020d578060031936011261020d576113c0611df9565b60015460ff8116156114005760ff19166001557f5db9ee0a495bf2e6ff9c91a7834c1ba4fdd244a5e8aa4e537bd38aeae4b073aa6020604051338152a180f35b604051638dfc202b60e01b8152600490fd5b503461020d5761142136611ddf565b919061142b611df9565b6114336120d4565b61143b6120f7565b60ff6007541660068110156104a95760020361049757600854917f00000000000000000000000000000000000000000000000000000000000000008310610d9a578461149761271061148f60035487612239565b04809561224c565b927f000000000000000000000000000000000000000000000000000000000000000061150e82827f00000000000000000000000000000000000000000000000000000000000000007f00000000000000000000000000000000000000000000000000000000000000006001600160a01b0316612005565b6001600160a01b031692833b15610c1457604490836040519586948593637c382d0b60e01b8552600485015260248401525af18015611aca57611ab7575b5083907f00000000000000000000000000000000000000000000000000000000000000006001600160a01b0316158015611842577f00000000000000000000000000000000000000000000000000000000000000006001600160a01b0316803b1561183e5783859160046040518094819363990087b760e01b83525af190811561183357849161181f575b50505b156117c557818080927f00000000000000000000000000000000000000000000000000000000000000005af161160e612259565b501561038f575b600854917f000000000000000000000000000000000000000000000000000000000000000092838110806117bc575b61169c575b847ff3e2f1d90bd58f6807b6468783c27fdc68307b057882b3ca4eb0f3bb2116789960608542600955600360ff196007541617600755600854906040519182526020820152426040820152a16001815580f35b906116aa6116b0928561224c565b90612239565b9082156117a6577ff3e2f1d90bd58f6807b6468783c27fdc68307b057882b3ca4eb0f3bb211678999260609204806116eb575b819250611649565b60207f3316cd92e8029a9d825199ad5d83f540869e52a9d77cf97560178a0b5ebac6fb916117996040516323b872dd60e01b8482015260018060a01b037f000000000000000000000000000000000000000000000000000000000000000016602482015261dead60448201528260648201526064815261176a81611fc7565b7f00000000000000000000000000000000000000000000000000000000000000006001600160a01b031661204e565b604051908152a1386116e3565b634e487b7160e01b600052601260045260246000fd5b50811515611644565b61181a91507f00000000000000000000000000000000000000000000000000000000000000007f00000000000000000000000000000000000000000000000000000000000000006001600160a01b0316612299565b611615565b61182890611fb3565b610c145782386115d7565b6040513d86823e3d90fd5b8380fd5b60405163095ea7b360e01b60208083018281527f00000000000000000000000000000000000000000000000000000000000000006001600160a01b0316602485015260448085018990528452869061189b606486611fe3565b845190827f00000000000000000000000000000000000000000000000000000000000000006001600160a01b03165af185513d82611a72575b505015611989575b50507f00000000000000000000000000000000000000000000000000000000000000006001600160a01b0316803b1561183e5760405163398da91160e01b81527f00000000000000000000000000000000000000000000000000000000000000006001600160a01b03166004820152602481018690529084908290604490829084905af1908115611833578491611975575b50506115da565b61197e90611fb3565b610c1457823861196e565b90935060405190602082015260018060a01b037f00000000000000000000000000000000000000000000000000000000000000001660248201528660448201526044815280608081011067ffffffffffffffff608083011117611a5c57608081016040528693611a5591611a26907f00000000000000000000000000000000000000000000000000000000000000006001600160a01b031661204e565b7f00000000000000000000000000000000000000000000000000000000000000006001600160a01b031661204e565b38806118dc565b634e487b7160e01b600052604160045260246000fd5b909150611aaf57507f00000000000000000000000000000000000000000000000000000000000000006001600160a01b03163b15155b38806118d4565b600114611aa8565b611ac390949194611fb3565b923861154c565b6040513d87823e3d90fd5b503461020d57604036600319011261020d57611aef611db3565b336001600160a01b03821603611b0b5761024e90600435611f19565b60405163334bd91960e11b8152600490fd5b503461020d578060031936011261020d5760206040517f00000000000000000000000000000000000000000000000000000000000000008152f35b503461020d578060031936011261020d576040517f00000000000000000000000000000000000000000000000000000000000000006001600160a01b03168152602090f35b503461020d57604036600319011261020d5761024e600435611bbd611db3565b908084526002602052611bd66001604086200154611e73565b611e99565b503461020d57602036600319011261020d5760016040602092600435815260028452200154604051908152f35b503461020d578060031936011261020d57602060ff60075416611c2e6040518092611d90565bf35b503461020d578060031936011261020d57608060035460045460055460065491604051938452602084015260408301526060820152f35b503461020d57611c7636611d46565b611c7e611df9565b611c866120f7565b6007549160ff831660068110156104a9578015159081611ce1575b506104975760057f2ac842f90dab3279148f7e55ac91d911f75c1c300a202a5250e05400b15fa1569360ff191617600755610491604051928392836122d5565b60019150141538611ca1565b905034611d42576020366003190112611d425760043563ffffffff60e01b8116809103610c145760209250637965db0b60e01b8114908115611d31575b5015158152f35b6301ffc9a760e01b14905038611d2a565b5080fd5b906020600319830112610bce5760043567ffffffffffffffff92838211610bce5780602383011215610bce578160040135938411610bce5760248483010111610bce576024019190565b906006821015611d9d5752565b634e487b7160e01b600052602160045260246000fd5b602435906001600160a01b0382168203610bce57565b600435906001600160a01b0382168203610bce57565b6060906003190112610bce57600435906024359060443590565b3360009081527fe5ebfa64fca8d502a8e50c1edffd2c31ef4dad5b396e65d9f397fb028f74abc560205260409020547fa49807205ce4d355092ef5a8a18f56e8913cf4a201fbe287825b095693c217759060ff1615611e555750565b6044906040519063e2517d3f60e01b82523360048301526024820152fd5b80600052600260205260406000203360005260205260ff6040600020541615611e555750565b906000918083526002602052604083209160018060a01b03169182845260205260ff60408420541615600014611f145780835260026020526040832082845260205260408320600160ff198254161790557f2f8788117e7eff1d82e926ec794901d17c78024a50270940304540a733656f0d339380a4600190565b505090565b906000918083526002602052604083209160018060a01b03169182845260205260ff604084205416600014611f14578083526002602052604083208284526020526040832060ff1981541690557ff6391f5c32d9c69d2a47ea670b442974b53935d1edc7fd64eb21e047a839171b339380a4600190565b91908201809211611f9d57565b634e487b7160e01b600052601160045260246000fd5b67ffffffffffffffff8111611a5c57604052565b60a0810190811067ffffffffffffffff821117611a5c57604052565b90601f8019910116810190811067ffffffffffffffff821117611a5c57604052565b6040516323b872dd60e01b60208201526001600160a01b03928316602482015292909116604483015260648083019390935291815261204c9161204782611fc7565b61204e565b565b906000602091828151910182855af1156120aa576000513d6120a157506001600160a01b0381163b155b61207f5750565b604051635274afe760e01b81526001600160a01b039091166004820152602490fd5b60011415612078565b6040513d6000823e3d90fd5b60ff600154166120c257565b60405163d93c066560e01b8152600490fd5b6002600054146120e5576002600055565b604051633ee5aeb560e01b8152600490fd5b60075460ff8116907f000000000000000000000000000000000000000000000000000000000000000042101580612228575b612218575b5060075460ff81166006811015611d9d576001146121ac575b5060ff600754166006811015611d9d576006821015611d9d5780820361216b575050565b7f0d643a1384921de4b8ad16df0a695f1e75fcfe3bcac27f9c5c8cee4645872382916121a960409261219f84518094611d90565b6020830190611d90565ba1565b7f000000000000000000000000000000000000000000000000000000000000000042108015906121ec575b156121475760ff191660021760075538612147565b506008547f000000000000000000000000000000000000000000000000000000000000000011156121d7565b60ff19166001176007553861212e565b506006821015611d9d578115612129565b81810292918115918404141715611f9d57565b91908203918211611f9d57565b3d15612294573d9067ffffffffffffffff8211611a5c5760405191612288601f8201601f191660200184611fe3565b82523d6000602084013e565b606090565b60405163a9059cbb60e01b60208201526001600160a01b0392909216602483015260448083019390935291815261204c91612047606483611fe3565b90918060409360208452816020850152848401376000828201840152601f01601f191601019056fea2646970667358221220ec4b5f963f42bcc5b7fcc7b4b86e03de46e779f5c9c9a33bae23955ba3903a8764736f6c634300081400332f8788117e7eff1d82e926ec794901d17c78024a50270940304540a733656f0da2646970667358221220d67c2a4b0e39a92267bf467fe22e3fc3216811d8a86d28700b53858fc0b4d1d464736f6c634300081400332f8788117e7eff1d82e926ec794901d17c78024a50270940304540a733656f0d",
  "linkReferences": {},
  "deployedLinkReferences": {}
}