{
  "_format": "hh-sol-artifact-1",
  "contractName": "PresaleFactory",
  "sourceName": "contracts/std-presale/PresaleFactory.sol",
  "abi": [
    {
      "inputs": [
        {
          "internalType": "address",
          "name": "_feeSplitter",
          "type": "address"
        },
        {
          "internalType": "address",
          "name": "_timelockExecutor",
          "type": "address"
        },
        {
          "internalType": "address",
          "name": "_dexRouter",
          "type": "address"
        },
        {
          "internalType": "address",
          "name": "_lpLocker",
          "type": "address"
        }
      ],
      "stateMutability": "nonpayable",
      "type": "constructor"
    },
    {
      "inputs": [],
      "name": "AccessControlBadConfirmation",
      "type": "error"
    },
    {
      "inputs": [
        {
          "internalType": "address",
          "name": "account",
          "type": "address"
        },
        {
          "internalType": "bytes32",
          "name": "neededRole",
          "type": "bytes32"
        }
      ],
      "name": "AccessControlUnauthorizedAccount",
      "type": "error"
    },
    {
      "inputs": [],
      "name": "InsufficientLPLockDuration",
      "type": "error"
    },
    {
      "inputs": [],
      "name": "InvalidCapRange",
      "type": "error"
    },
    {
      "inputs": [],
      "name": "InvalidContributionRange",
      "type": "error"
    },
    {
      "inputs": [],
      "name": "InvalidLiquidityPercent",
      "type": "error"
    },
    {
      "inputs": [],
      "name": "InvalidTimeRange",
      "type": "error"
    },
    {
      "inputs": [],
      "name": "ZeroAddress",
      "type": "error"
    },
    {
      "anonymous": false,
      "inputs": [
        {
          "indexed": true,
          "internalType": "address",
          "name": "round",
          "type": "address"
        },
        {
          "indexed": false,
          "internalType": "uint256",
          "name": "lockMonths",
          "type": "uint256"
        },
        {
          "indexed": false,
          "internalType": "bytes32",
          "name": "dexId",
          "type": "bytes32"
        },
        {
          "indexed": false,
          "internalType": "uint256",
          "name": "liquidityPercent",
          "type": "uint256"
        }
      ],
      "name": "LPPlanRecorded",
      "type": "event"
    },
    {
      "anonymous": false,
      "inputs": [
        {
          "indexed": true,
          "internalType": "uint256",
          "name": "presaleId",
          "type": "uint256"
        },
        {
          "indexed": true,
          "internalType": "address",
          "name": "round",
          "type": "address"
        },
        {
          "indexed": true,
          "internalType": "address",
          "name": "vesting",
          "type": "address"
        },
        {
          "indexed": false,
          "internalType": "bytes32",
          "name": "scheduleSalt",
          "type": "bytes32"
        },
        {
          "indexed": false,
          "internalType": "bytes32",
          "name": "complianceHash",
          "type": "bytes32"
        }
      ],
      "name": "PresaleCreated",
      "type": "event"
    },
    {
      "anonymous": false,
      "inputs": [
        {
          "indexed": true,
          "internalType": "bytes32",
          "name": "role",
          "type": "bytes32"
        },
        {
          "indexed": true,
          "internalType": "bytes32",
          "name": "previousAdminRole",
          "type": "bytes32"
        },
        {
          "indexed": true,
          "internalType": "bytes32",
          "name": "newAdminRole",
          "type": "bytes32"
        }
      ],
      "name": "RoleAdminChanged",
      "type": "event"
    },
    {
      "anonymous": false,
      "inputs": [
        {
          "indexed": true,
          "internalType": "bytes32",
          "name": "role",
          "type": "bytes32"
        },
        {
          "indexed": true,
          "internalType": "address",
          "name": "account",
          "type": "address"
        },
        {
          "indexed": true,
          "internalType": "address",
          "name": "sender",
          "type": "address"
        }
      ],
      "name": "RoleGranted",
      "type": "event"
    },
    {
      "anonymous": false,
      "inputs": [
        {
          "indexed": true,
          "internalType": "bytes32",
          "name": "role",
          "type": "bytes32"
        },
        {
          "indexed": true,
          "internalType": "address",
          "name": "account",
          "type": "address"
        },
        {
          "indexed": true,
          "internalType": "address",
          "name": "sender",
          "type": "address"
        }
      ],
      "name": "RoleRevoked",
      "type": "event"
    },
    {
      "anonymous": false,
      "inputs": [
        {
          "indexed": true,
          "internalType": "address",
          "name": "vesting",
          "type": "address"
        },
        {
          "indexed": true,
          "internalType": "address",
          "name": "rootSetter",
          "type": "address"
        }
      ],
      "name": "RolesGranted",
      "type": "event"
    },
    {
      "inputs": [],
      "name": "DEFAULT_ADMIN_ROLE",
      "outputs": [
        {
          "internalType": "bytes32",
          "name": "",
          "type": "bytes32"
        }
      ],
      "stateMutability": "view",
      "type": "function"
    },
    {
      "inputs": [],
      "name": "FACTORY_ADMIN_ROLE",
      "outputs": [
        {
          "internalType": "bytes32",
          "name": "",
          "type": "bytes32"
        }
      ],
      "stateMutability": "view",
      "type": "function"
    },
    {
      "inputs": [
        {
          "components": [
            {
              "internalType": "address",
              "name": "projectToken",
              "type": "address"
            },
            {
              "internalType": "address",
              "name": "paymentToken",
              "type": "address"
            },
            {
              "internalType": "uint256",
              "name": "softCap",
              "type": "uint256"
            },
            {
              "internalType": "uint256",
              "name": "hardCap",
              "type": "uint256"
            },
            {
              "internalType": "uint256",
              "name": "minContribution",
              "type": "uint256"
            },
            {
              "internalType": "uint256",
              "name": "maxContribution",
              "type": "uint256"
            },
            {
              "internalType": "uint256",
              "name": "startTime",
              "type": "uint256"
            },
            {
              "internalType": "uint256",
              "name": "endTime",
              "type": "uint256"
            },
            {
              "internalType": "address",
              "name": "projectOwner",
              "type": "address"
            }
          ],
          "internalType": "struct PresaleFactory.CreatePresaleParams",
          "name": "params",
          "type": "tuple"
        },
        {
          "components": [
            {
              "internalType": "uint256",
              "name": "tgeUnlockBps",
              "type": "uint256"
            },
            {
              "internalType": "uint256",
              "name": "cliffDuration",
              "type": "uint256"
            },
            {
              "internalType": "uint256",
              "name": "vestingDuration",
              "type": "uint256"
            }
          ],
          "internalType": "struct PresaleFactory.VestingParams",
          "name": "vestingParams",
          "type": "tuple"
        },
        {
          "components": [
            {
              "internalType": "uint256",
              "name": "lockMonths",
              "type": "uint256"
            },
            {
              "internalType": "bytes32",
              "name": "dexId",
              "type": "bytes32"
            },
            {
              "internalType": "uint256",
              "name": "liquidityPercent",
              "type": "uint256"
            }
          ],
          "internalType": "struct PresaleFactory.LPLockPlan",
          "name": "lpPlan",
          "type": "tuple"
        },
        {
          "internalType": "bytes32",
          "name": "complianceHash",
          "type": "bytes32"
        }
      ],
      "name": "createPresale",
      "outputs": [
        {
          "internalType": "address",
          "name": "round",
          "type": "address"
        },
        {
          "internalType": "address",
          "name": "vesting",
          "type": "address"
        }
      ],
      "stateMutability": "nonpayable",
      "type": "function"
    },
    {
      "inputs": [],
      "name": "dexRouter",
      "outputs": [
        {
          "internalType": "address",
          "name": "",
          "type": "address"
        }
      ],
      "stateMutability": "view",
      "type": "function"
    },
    {
      "inputs": [],
      "name": "feeSplitter",
      "outputs": [
        {
          "internalType": "address",
          "name": "",
          "type": "address"
        }
      ],
      "stateMutability": "view",
      "type": "function"
    },
    {
      "inputs": [
        {
          "internalType": "uint256",
          "name": "presaleId",
          "type": "uint256"
        }
      ],
      "name": "getPresaleDetails",
      "outputs": [
        {
          "internalType": "address",
          "name": "round",
          "type": "address"
        },
        {
          "internalType": "address",
          "name": "vesting",
          "type": "address"
        },
        {
          "internalType": "bytes32",
          "name": "scheduleSalt",
          "type": "bytes32"
        },
        {
          "internalType": "bytes32",
          "name": "complianceHash",
          "type": "bytes32"
        },
        {
          "components": [
            {
              "internalType": "uint256",
              "name": "lockMonths",
              "type": "uint256"
            },
            {
              "internalType": "bytes32",
              "name": "dexId",
              "type": "bytes32"
            },
            {
              "internalType": "uint256",
              "name": "liquidityPercent",
              "type": "uint256"
            }
          ],
          "internalType": "struct PresaleFactory.LPLockPlan",
          "name": "lpPlan",
          "type": "tuple"
        }
      ],
      "stateMutability": "view",
      "type": "function"
    },
    {
      "inputs": [
        {
          "internalType": "bytes32",
          "name": "role",
          "type": "bytes32"
        }
      ],
      "name": "getRoleAdmin",
      "outputs": [
        {
          "internalType": "bytes32",
          "name": "",
          "type": "bytes32"
        }
      ],
      "stateMutability": "view",
      "type": "function"
    },
    {
      "inputs": [
        {
          "internalType": "address",
          "name": "round",
          "type": "address"
        }
      ],
      "name": "getScheduleSalt",
      "outputs": [
        {
          "internalType": "bytes32",
          "name": "",
          "type": "bytes32"
        }
      ],
      "stateMutability": "view",
      "type": "function"
    },
    {
      "inputs": [
        {
          "internalType": "address",
          "name": "round",
          "type": "address"
        }
      ],
      "name": "getVestingForRound",
      "outputs": [
        {
          "internalType": "address",
          "name": "",
          "type": "address"
        }
      ],
      "stateMutability": "view",
      "type": "function"
    },
    {
      "inputs": [
        {
          "internalType": "bytes32",
          "name": "role",
          "type": "bytes32"
        },
        {
          "internalType": "address",
          "name": "account",
          "type": "address"
        }
      ],
      "name": "grantRole",
      "outputs": [],
      "stateMutability": "nonpayable",
      "type": "function"
    },
    {
      "inputs": [
        {
          "internalType": "bytes32",
          "name": "role",
          "type": "bytes32"
        },
        {
          "internalType": "address",
          "name": "account",
          "type": "address"
        }
      ],
      "name": "hasRole",
      "outputs": [
        {
          "internalType": "bool",
          "name": "",
          "type": "bool"
        }
      ],
      "stateMutability": "view",
      "type": "function"
    },
    {
      "inputs": [],
      "name": "lpLocker",
      "outputs": [
        {
          "internalType": "address",
          "name": "",
          "type": "address"
        }
      ],
      "stateMutability": "view",
      "type": "function"
    },
    {
      "inputs": [],
      "name": "presaleCount",
      "outputs": [
        {
          "internalType": "uint256",
          "name": "",
          "type": "uint256"
        }
      ],
      "stateMutability": "view",
      "type": "function"
    },
    {
      "inputs": [
        {
          "internalType": "bytes32",
          "name": "role",
          "type": "bytes32"
        },
        {
          "internalType": "address",
          "name": "callerConfirmation",
          "type": "address"
        }
      ],
      "name": "renounceRole",
      "outputs": [],
      "stateMutability": "nonpayable",
      "type": "function"
    },
    {
      "inputs": [
        {
          "internalType": "bytes32",
          "name": "role",
          "type": "bytes32"
        },
        {
          "internalType": "address",
          "name": "account",
          "type": "address"
        }
      ],
      "name": "revokeRole",
      "outputs": [],
      "stateMutability": "nonpayable",
      "type": "function"
    },
    {
      "inputs": [
        {
          "internalType": "address",
          "name": "",
          "type": "address"
        }
      ],
      "name": "roundToComplianceHash",
      "outputs": [
        {
          "internalType": "bytes32",
          "name": "",
          "type": "bytes32"
        }
      ],
      "stateMutability": "view",
      "type": "function"
    },
    {
      "inputs": [
        {
          "internalType": "address",
          "name": "",
          "type": "address"
        }
      ],
      "name": "roundToLPPlan",
      "outputs": [
        {
          "internalType": "uint256",
          "name": "lockMonths",
          "type": "uint256"
        },
        {
          "internalType": "bytes32",
          "name": "dexId",
          "type": "bytes32"
        },
        {
          "internalType": "uint256",
          "name": "liquidityPercent",
          "type": "uint256"
        }
      ],
      "stateMutability": "view",
      "type": "function"
    },
    {
      "inputs": [
        {
          "internalType": "address",
          "name": "",
          "type": "address"
        }
      ],
      "name": "roundToScheduleSalt",
      "outputs": [
        {
          "internalType": "bytes32",
          "name": "",
          "type": "bytes32"
        }
      ],
      "stateMutability": "view",
      "type": "function"
    },
    {
      "inputs": [
        {
          "internalType": "address",
          "name": "",
          "type": "address"
        }
      ],
      "name": "roundToVesting",
      "outputs": [
        {
          "internalType": "address",
          "name": "",
          "type": "address"
        }
      ],
      "stateMutability": "view",
      "type": "function"
    },
    {
      "inputs": [
        {
          "internalType": "uint256",
          "name": "",
          "type": "uint256"
        }
      ],
      "name": "rounds",
      "outputs": [
        {
          "internalType": "address",
          "name": "",
          "type": "address"
        }
      ],
      "stateMutability": "view",
      "type": "function"
    },
    {
      "inputs": [
        {
          "internalType": "address",
          "name": "_r",
          "type": "address"
        }
      ],
      "name": "setDexRouter",
      "outputs": [],
      "stateMutability": "nonpayable",
      "type": "function"
    },
    {
      "inputs": [
        {
          "internalType": "address",
          "name": "_l",
          "type": "address"
        }
      ],
      "name": "setLPLocker",
      "outputs": [],
      "stateMutability": "nonpayable",
      "type": "function"
    },
    {
      "inputs": [
        {
          "internalType": "bytes4",
          "name": "interfaceId",
          "type": "bytes4"
        }
      ],
      "name": "supportsInterface",
      "outputs": [
        {
          "internalType": "bool",
          "name": "",
          "type": "bool"
        }
      ],
      "stateMutability": "view",
      "type": "function"
    },
    {
      "inputs": [],
      "name": "timelockExecutor",
      "outputs": [
        {
          "internalType": "address",
          "name": "",
          "type": "address"
        }
      ],
      "stateMutability": "view",
      "type": "function"
    }
  ],
  "bytecode": "0x60c0346200014e57601f620057b938819003918201601f191683019291906001600160401b03841183851017620001535781608092849260409687528339810103126200014e57620000518162000169565b90620000606020820162000169565b6200007b60606200007386850162000169565b930162000169565b916001600160a01b0390848216156200013d57818316156200013d5781169283156200013d57169283156200012c5760805260a05260018060a01b0319908160015416176001556002541617600255620000d5336200017e565b50620000e133620001fe565b50516154f89081620002a182396080518181816105570152818161065d015281816106a80152610c56015260a0518181816101bc015281816104460152818161059101526107e10152f35b845163d92e233d60e01b8152600490fd5b855163d92e233d60e01b8152600490fd5b600080fd5b634e487b7160e01b600052604160045260246000fd5b51906001600160a01b03821682036200014e57565b6001600160a01b031660008181527fad3228b676f7d3cd4284a5443f17f1962b36e491b30a40b2405849e597ba5fb5602052604081205490919060ff16620001fa57818052816020526040822081835260205260408220600160ff198254161790553391600080516020620057998339815191528180a4600190565b5090565b6001600160a01b031660008181527f40d6054e7c1e32abf36e71c717b2201c6fb50ee4639813ce060d4f8ffbb78bdd60205260408120549091907fbd5d72ac35ae1e83aa0625c57eddda63fbb064a87fca99dfdd7ce027384ae2829060ff166200029b57808352826020526040832082845260205260408320600160ff1982541617905560008051602062005799833981519152339380a4600190565b50509056fe60808060405260043610156200001457600080fd5b600090813560e01c90816301ffc9a71462000e7d5750806303fc20131462000e525780630758d9241462000e27578063076e7fd31462000c85578063248a9ca31462000df95780632f2ff15d1462000db45780633360cf5e1462000d7757806336568abe1462000d285780634732f00e1462000cc55780635ccbf6711462000c855780636052970c1462000c3e5780638c65c81f1462000c0957806391d148541462000bbd578063a217fddf1462000b9f578063b1012ec91462000a4e578063b524f87b1462000b51578063bda75e6d1462000a8b578063ca807e681462000a4e578063cde27a351462000a2e578063d547741f14620009e5578063e82f1c0a14620009a8578063ea1b61ba14620001eb578063f6a4ad6514620001a45763f72f863b146200014257600080fd5b34620001a1576020366003190112620001a1576200015f62000ed7565b6200016962000f05565b6001600160a01b031680156200018f576001600160601b0360a01b600154161760015580f35b60405163d92e233d60e01b8152600490fd5b80fd5b5034620001a15780600319360112620001a1576040517f00000000000000000000000000000000000000000000000000000000000000006001600160a01b03168152602090f35b5034620001a15736600319016102008112620009a45761012013620001a157606036610123190112620001a157606036610183190112620001a1577fbd5d72ac35ae1e83aa0625c57eddda63fbb064a87fca99dfdd7ce027384ae282808252816020526040822033835260205260ff604083205416156200098657506064356044351015620009745760443515620009745760e43560c435101562000962574260c4351115620009625760a435608435116200095057608435156200095057600c61018435106200093e576113886101c4351080156200092f575b6200091d576001600160a01b03620002dd6200105c565b16156200018f576001600160a01b03620002f662001073565b16156200018f57600354906200030b62001073565b620003156200105c565b6040519360208501524260408501526001600160601b0319809260601b16606085015260601b166074830152606882528160a081011067ffffffffffffffff60a084011117620009095760a082016040528151602083012091620003786200105c565b60a0820160a0610fcf8401011067ffffffffffffffff60a0610fcf8501011117620008f557610fcf620010d460a08401396001600160a01b0316610fcf820160a0818101929092526101243560c0808301919091526101443560e0830152610164356101008301526101208201869052306101408301529083900301910182f08015620008e8576001600160a01b031690813b15620001a157604051632f2ff15d60e01b81527fa49807205ce4d355092ef5a8a18f56e8913cf4a201fbe287825b095693c2177560048201527f00000000000000000000000000000000000000000000000000000000000000006001600160a01b03166024820152818160448183875af180156200089e57620008d6575b5090620004956200105c565b6024356001600160a01b0381168103620008d157620004b362001073565b6001546002546001600160a01b0390811693911691906101843562278d008082028290041490151715620008bd57604051948561342081011067ffffffffffffffff61342088011117620008a957613420620020a387396001600160a01b039081166134208701908152918116602083015260443560408301526064356060830152608435608083015260a43560a083015260c43560c083015260e43560e08301527f0000000000000000000000000000000000000000000000000000000000000000811661010083015261012082018790529182166101408201527f00000000000000000000000000000000000000000000000000000000000000009091166101608201526101808101919091526101a08101919091526101c4356101c08201526101843562278d00026101e0820152819003610200019083f080156200089e576001600160a01b0316813b156200087757604051632f2ff15d60e01b81527fa49807205ce4d355092ef5a8a18f56e8913cf4a201fbe287825b095693c21775600482015260248101829052838160448183875af180156200087b5790849162000886575b50507f00000000000000000000000000000000000000000000000000000000000000006001600160a01b03163b15620008775760405163105fad9b60e21b8152600481018290528381602481837f00000000000000000000000000000000000000000000000000000000000000006001600160a01b03165af180156200087b579084916200085f575b505060035483526004602052604083206001600160601b0360a01b908282825416179055818452600560205282604085209182541617905560066020528360408420556007602052807fda79e99dc31a6b02a1a6d9e3758c6d0ef34606738cc48a1ff703d6566b040626620007d86101e4358060408820556008602052858460408920926101843584556101a4359384600182015560026101c4359101557f42074357c57268478f25edbb5880a4b5604f55cf132f7c8e21ab8d46a128296960406003549c8d9382519182526020820152a46040805161018435815260208101929092526101c435908201529081906060820190565b0390a2604051927f00000000000000000000000000000000000000000000000000000000000000006001600160a01b0316837f68761163edc0e36a9b4d28b0260a8c3d198cf5f21f582d72561bdcb89b3f29078380a360001985146200084b575060016040940160035582526020820152f35b634e487b7160e01b81526011600452602490fd5b6200086a90620010be565b62000877578238620006e2565b8280fd5b6040513d86823e3d90fd5b6200089190620010be565b6200087757823862000659565b6040513d84823e3d90fd5b634e487b7160e01b88526041600452602488fd5b634e487b7160e01b87526011600452602487fd5b600080fd5b620008e190620010be565b3862000489565b50604051903d90823e3d90fd5b634e487b7160e01b83526041600452602483fd5b634e487b7160e01b81526041600452602490fd5b6040516351424f0b60e11b8152600490fd5b506123286101c43511620002c6565b6040516376a12a0f60e11b8152600490fd5b60405163102df2a160e11b8152600490fd5b60405163536a71af60e01b8152600490fd5b60405163f5cae40b60e01b8152600490fd5b6044906040519063e2517d3f60e01b82523360048301526024820152fd5b5080fd5b5034620001a1576020366003190112620001a1576020906040906001600160a01b03620009d462000ed7565b168152600783522054604051908152f35b5034620001a1576040366003190112620001a15762000a2a60043562000a0a62000eee565b908084528360205262000a24600160408620015462000f40565b62000fe6565b5080f35b5034620001a15780600319360112620001a1576020600354604051908152f35b5034620001a1576020366003190112620001a1576020906040906001600160a01b0362000a7a62000ed7565b168152600683522054604051908152f35b5034620001a157602080600319360112620009a4579060e091816040805162000ab4816200108b565b8281528284820152015260043582526004815260018060a01b03918260408220541692838252600583526040822054166006835260408220549160078452604080822054916008865220926040519262000b0e846200108b565b84548452600260018601549587860196875201549560408501968752604051978852870152604086015260608501525160808401525160a08301525160c0820152f35b5034620001a1576020366003190112620001a15762000b6f62000ed7565b62000b7962000f05565b6001600160a01b031680156200018f576001600160601b0360a01b600254161760025580f35b5034620001a15780600319360112620001a157602090604051908152f35b5034620001a1576040366003190112620001a15760ff604060209262000be262000eee565b60043582528185528282206001600160a01b03909116825284522054604051911615158152f35b5034620001a1576020366003190112620001a157602090600435815260048252604060018060a01b0391205416604051908152f35b5034620001a15780600319360112620001a1576040517f00000000000000000000000000000000000000000000000000000000000000006001600160a01b03168152602090f35b5034620001a1576020366003190112620001a1576020906001600160a01b03906040908262000cb362000ed7565b16815260058452205416604051908152f35b5034620001a1576020366003190112620001a1576040906001600160a01b0362000cee62000ed7565b168152600860205220805462000d2460026001840154930154604051938493846040919493926060820195825260208201520152565b0390f35b5034620001a1576040366003190112620001a15762000d4662000eee565b336001600160a01b0382160362000d655762000a2a9060043562000fe6565b60405163334bd91960e11b8152600490fd5b5034620001a15780600319360112620001a15760206040517fbd5d72ac35ae1e83aa0625c57eddda63fbb064a87fca99dfdd7ce027384ae2828152f35b5034620001a1576040366003190112620001a15762000a2a60043562000dd962000eee565b908084528360205262000df3600160408620015462000f40565b62000f67565b5034620001a1576020366003190112620001a157600160406020926004358152808452200154604051908152f35b5034620001a15780600319360112620001a1576001546040516001600160a01b039091168152602090f35b5034620001a15780600319360112620001a1576002546040516001600160a01b039091168152602090f35b905034620009a4576020366003190112620009a45760043563ffffffff60e01b8116809103620008775760209250637965db0b60e01b811490811562000ec5575b5015158152f35b6301ffc9a760e01b1490503862000ebe565b600435906001600160a01b0382168203620008d157565b602435906001600160a01b0382168203620008d157565b3360009081527fad3228b676f7d3cd4284a5443f17f1962b36e491b30a40b2405849e597ba5fb5602052604081205460ff1615620009865750565b80600052600060205260406000203360005260205260ff6040600020541615620009865750565b9060009180835282602052604083209160018060a01b03169182845260205260ff6040842054161560001462000fe157808352826020526040832082845260205260408320600160ff198254161790557f2f8788117e7eff1d82e926ec794901d17c78024a50270940304540a733656f0d339380a4600190565b505090565b9060009180835282602052604083209160018060a01b03169182845260205260ff60408420541660001462000fe15780835282602052604083208284526020526040832060ff1981541690557ff6391f5c32d9c69d2a47ea670b442974b53935d1edc7fd64eb21e047a839171b339380a4600190565b6004356001600160a01b0381168103620008d15790565b610104356001600160a01b0381168103620008d15790565b6060810190811067ffffffffffffffff821117620010a857604052565b634e487b7160e01b600052604160045260246000fd5b67ffffffffffffffff8111620010a85760405256fe6101203461010d57601f610fcf38819003918201601f19168301916001600160401b038311848410176101125780849260c09460405283398101031261010d5761009361004b82610128565b6020830151604084015160608501519161006c60a060808801519701610128565b93600160005560805260a05260c05260e05261010092835261008d8161013c565b506101bb565b50604051610d52918261025d833960805182818161011c0152818161040401526107ce015260a0518281816101aa015281816109dc0152610bf2015260c0518281816101cd0152818161023b0152610c20015260e0518281816101f3015281816109a10152610c4e01525181818161016801526106790152f35b600080fd5b634e487b7160e01b600052604160045260246000fd5b51906001600160a01b038216820361010d57565b6001600160a01b031660008181527fa6eef7e35abe7026729641147f7915573c7e97b47efa546f5f6e3230263bcb49602052604081205490919060ff166101b75781805260016020526040822081835260205260408220600160ff198254161790553391600080516020610faf8339815191528180a4600190565b5090565b6001600160a01b031660008181527f50efbde2d46c37e9785f1791697f77e94bb7b701e19f1930a668820722d3769460205260408120549091907fa49807205ce4d355092ef5a8a18f56e8913cf4a201fbe287825b095693c217759060ff166102575780835260016020526040832082845260205260408320600160ff19825416179055600080516020610faf833981519152339380a4600190565b50509056fe608080604052600436101561001357600080fd5b60003560e01c90816301ffc9a7146109ff5750806314f41d73146109c45780631514617e14610989578063248a9ca31461095a5780632eb4a7ab1461093c5780632f2ff15d146108fd5780632f52ebb7146105f357806336568abe146105ac57806345f7f2491461058e5780636f5244b11461055f57806375b238fc146105245780637c382d0b1461036057806391d1485414610313578063a217fddf146102f7578063a4317ef4146102d9578063c884ef831461029f578063d547741f1461025e578063d85349f714610223578063dc25a3001461018b578063e1f05ec4146101505763fc0c546a1461010657600080fd5b3461014b57600036600319011261014b576040517f00000000000000000000000000000000000000000000000000000000000000006001600160a01b03168152602090f35b600080fd5b3461014b57600036600319011261014b5760206040517f00000000000000000000000000000000000000000000000000000000000000008152f35b3461014b57600036600319011261014b5760a0600354600254604051917f000000000000000000000000000000000000000000000000000000000000000083527f000000000000000000000000000000000000000000000000000000000000000060208401527f0000000000000000000000000000000000000000000000000000000000000000604084015260608301526080820152f35b3461014b57600036600319011261014b5760206040517f00000000000000000000000000000000000000000000000000000000000000008152f35b3461014b57604036600319011261014b5761029d60043561027d610a52565b90806000526001602052610298600160406000200154610a7e565b610b24565b005b3461014b57602036600319011261014b576001600160a01b036102c0610a68565b1660005260056020526020604060002054604051908152f35b3461014b57600036600319011261014b576020600354604051908152f35b3461014b57600036600319011261014b57602060405160008152f35b3461014b57604036600319011261014b5761032c610a52565b600435600052600160205260406000209060018060a01b0316600052602052602060ff604060002054166040519015158152f35b3461014b57604036600319011261014b573360009081527f50efbde2d46c37e9785f1791697f77e94bb7b701e19f1930a668820722d3769460209081526040909120546004359190602435907fa49807205ce4d355092ef5a8a18f56e8913cf4a201fbe287825b095693c217759060ff161561050657506002546104f45782156104e25780156104d0576040516370a0823160e01b815230600482015282816024817f00000000000000000000000000000000000000000000000000000000000000006001600160a01b03165afa80156104c4578291600091610493575b5010610481577fc7ce8037cbac8a577b7d8edd9340b4dbb1e691f2eb699b97f5c7576b0e9ede0491604091846002554260035580600455825191428352820152a2005b6040516314ecd6c760e01b8152600490fd5b809250848092503d83116104bd575b6104ac8183610b9b565b8101031261014b578190518561043e565b503d6104a2565b6040513d6000823e3d90fd5b60405163ba0d87b560e01b8152600490fd5b6040516309bde33960e01b8152600490fd5b60405163b466ddbf60e01b8152600490fd5b6044906040519063e2517d3f60e01b82523360048301526024820152fd5b3461014b57600036600319011261014b5760206040517fa49807205ce4d355092ef5a8a18f56e8913cf4a201fbe287825b095693c217758152f35b3461014b57604036600319011261014b57602061058661057d610a68565b60243590610cd5565b604051908152f35b3461014b57600036600319011261014b576020600454604051908152f35b3461014b57604036600319011261014b576105c5610a52565b336001600160a01b038216036105e15761029d90600435610b24565b60405163334bd91960e11b8152600490fd5b3461014b57604036600319011261014b5767ffffffffffffffff6024351161014b5736602360243501121561014b5767ffffffffffffffff602435600401351161014b576005366024803560040135831b813501011161014b576002600054146108eb57600260005560025480156108d9576040513060601b60208201524660348201527f000000000000000000000000000000000000000000000000000000000000000060548201523360601b60748201526004356088820152608881528060c081011067ffffffffffffffff60c0830111176108a15760c08101604052805160208201206106f1602060243560040135861b0160c08401610b9b565b60248035600481013560c08501520160e083015b6024803560040135871b8135010182106108c9575050906000915b60c08201518310156107845782851b820160e0015190818110156107735760005260205260406000205b91600019811461075d5760010191610720565b634e487b7160e01b600052601160045260246000fd5b90600052602052604060002061074a565b915050036104e257610797600435610bea565b3360005281602052604060002054808211156108b7576107b79082610bbd565b913360005260205260406000205560018060a01b037f0000000000000000000000000000000000000000000000000000000000000000166040516020810163a9059cbb60e01b815233602483015283604483015260448252608082019082821067ffffffffffffffff8311176108a157602092600092604052519082855af1156104c4576000513d6108985750803b155b61088057506040519081527fd8138f8a3f377c5259ca548e70e4c2de94f129f5a11036a15b69513cba2b426a60203392a26001600055005b60249060405190635274afe760e01b82526004820152fd5b60011415610848565b634e487b7160e01b600052604160045260246000fd5b6040516312d37ee560e31b8152600490fd5b8135815260209182019101610705565b604051631c8b625960e01b8152600490fd5b604051633ee5aeb560e01b8152600490fd5b3461014b57604036600319011261014b5761029d60043561091c610a52565b90806000526001602052610937600160406000200154610a7e565b610aa4565b3461014b57600036600319011261014b576020600254604051908152f35b3461014b57602036600319011261014b5760043560005260016020526020600160406000200154604051908152f35b3461014b57600036600319011261014b5760206040517f00000000000000000000000000000000000000000000000000000000000000008152f35b3461014b57600036600319011261014b5760206040517f00000000000000000000000000000000000000000000000000000000000000008152f35b3461014b57602036600319011261014b576004359063ffffffff60e01b821680920361014b57602091637965db0b60e01b8114908115610a41575b5015158152f35b6301ffc9a760e01b14905083610a3a565b602435906001600160a01b038216820361014b57565b600435906001600160a01b038216820361014b57565b80600052600160205260406000203360005260205260ff60406000205416156105065750565b906000918083526001602052604083209160018060a01b03169182845260205260ff60408420541615600014610b1f5780835260016020526040832082845260205260408320600160ff198254161790557f2f8788117e7eff1d82e926ec794901d17c78024a50270940304540a733656f0d339380a4600190565b505090565b906000918083526001602052604083209160018060a01b03169182845260205260ff604084205416600014610b1f578083526001602052604083208284526020526040832060ff1981541690557ff6391f5c32d9c69d2a47ea670b442974b53935d1edc7fd64eb21e047a839171b339380a4600190565b90601f8019910116810190811067ffffffffffffffff8211176108a157604052565b9190820391821161075d57565b8181029291811591840414171561075d57565b9190820180921161075d57565b612710610c177f000000000000000000000000000000000000000000000000000000000000000083610bca565b04610c456003547f000000000000000000000000000000000000000000000000000000000000000090610bdd565b804210610ccf577f000000000000000000000000000000000000000000000000000000000000000092610c788483610bdd565b421015610cc85790610c97610c9084610c9d94610bbd565b9142610bbd565b90610bca565b918015610cb257610caf920490610bdd565b90565b634e487b7160e01b600052601260045260246000fd5b9250505090565b50905090565b9060025415610d1557610ce790610bea565b6001600160a01b03909116600090815260056020526040812054909181811115610b1f57610caf9250610bbd565b505060009056fea26469706673582212208a4b9c712498a497611d6b6e187d91a95c98a0148e64bd12045f9c86e25d5c9d64736f6c634300081400332f8788117e7eff1d82e926ec794901d17c78024a50270940304540a733656f0d3462000508576200342038819003610280601f8201601f19168101906001600160401b03821190821017620003d957610200928291604052610280391262000508576200004e6102806200050d565b6200005b6102a06200050d565b6102c0516102e051610300516103205161034051610360519396959493620000856103806200050d565b91620000936103a06200050d565b93620000a16103c06200050d565b95620000af6103e06200050d565b9a620000bd6104006200050d565b98620000cb6104206200050d565b61044051610260526104605160016000559c909b90828410620004f65786881115620004f6576001600160a01b0389811615620004e457808b1615620004e457808c1615620004e4576127106102605111620004ae57808d1615801590620004a2575b156200046f578d161580159062000463575b1562000430576301e133808e1080159062000424575b15620003ef5760805260a05260c05260e05261010052610120526101405261016052610180526101a0526101c0526101e05261020052620001bd610260519261022093845261024092835260ff1960075416600755620001b68162000522565b50620005a3565b50604051608081016001600160401b03811182821017620003d957604052603260606101f49283815260fa602082015260c86040820152015260035560fa60045560c8600555603260065560405190612db992836200064784396080518381816104d8015281816107a901528181610805015281816108d101528181610ac901528181610d5401528181610e80015281816110030152818161151101528181611db00152611f54015260a05183818161132f01528181611bcb015281816120030152612371015260c0518381816103130152818161144b015281816118e301528181611a0a0152611f0b015260e05183818161027901528181611a3001528181611b9c015281816120a60152612b2101526101005183818161160f0152611b4301526101205183818161191e0152611b6a015261014051838181611668015281816119b301528181611a560152612a36015261016051838181611a7c015281816123380152612ade015261018051838181610c9f01528181611d2a01528181612032015261223201526101a05183818161036401528181610e4f015281816117ab0152611f9b01526101c05183818161069d015281816109ad015281816117f00152611f7801526101e05183818161078101526125cf015261020051838181610920015261261401525182818161061f01528181610c7301528181610f49015261129101525181818161095a01528181610a7401526111ae0152f35b634e487b7160e01b600052604160045260246000fd5b60405162461bcd60e51b815260206004820152600d60248201526c4d494e5f31325f4d4f4e54485360981b6044820152606490fd5b50610260511562000156565b60405162461bcd60e51b815260206004820152600b60248201526a2722a2a22fa627a1a5a2a960a91b6044820152606490fd5b50610260511562000140565b60405162461bcd60e51b815260206004820152600b60248201526a2722a2a22fa927aaaa22a960a91b6044820152606490fd5b5061026051156200012e565b60405162461bcd60e51b815260206004820152600e60248201526d494e56414c49445f4c505f42505360901b6044820152606490fd5b60405163e6c4247b60e01b8152600490fd5b6040516307a92f1960e51b8152600490fd5b600080fd5b51906001600160a01b03821682036200050857565b6001600160a01b031660008181527fac33ff75c19e70fe83507db0d683fd3465c996598dc972688b7ace676c89077b602052604081205490919060ff166200059f5781805260026020526040822081835260205260408220600160ff198254161790553391600080516020620034008339815191528180a4600190565b5090565b6001600160a01b031660008181527fe5ebfa64fca8d502a8e50c1edffd2c31ef4dad5b396e65d9f397fb028f74abc560205260408120549091907fa49807205ce4d355092ef5a8a18f56e8913cf4a201fbe287825b095693c217759060ff16620006415780835260026020526040832082845260205260408320600160ff1982541617905560008051602062003400833981519152339380a4600190565b50509056fe608080604052600436101561001d575b50361561001b57600080fd5b005b600090813560e01c90816301ffc9a7146126435750806303fc2013146125fe5780630758d924146125b95780630b4f3f3d146125335780631e5eb1d0146124fc578063200d2ed2146124d4578063248a9ca3146124a7578063260813d5146124815780632c23ba53146123de5780632f2ff15d146123a05780633013ce291461235b5780633197cbb61461232057806336568abe146122d8578063387cd2cb14611ebf5780633f4ba83a14611e5457806342e94c9014611e1b5780634a3b68cc14611ddf5780634b60ce7714611d9a57806350e15fdd14611d7c5780635c975abb14611d595780636052970c14611d1457806360b0b0f014611ae257806375b238fc14611aa7578063767fa723146119d657806378e979251461199b5780638456cb59146119415780638d3d657614611906578063906a26e0146118cb57806391d148541461187f57806391ed3ab014611859578063a217fddf1461183d578063a4317ef41461181f578063a4475ce4146117da578063a5917baf14611795578063a77d38fa14611748578063a9725d5214611725578063a9eddf9914611632578063aaffadf3146115f7578063ac7c5780146115d1578063afb5f1a7146114c5578063b30ca2da1461140f578063b5545a3c146112d2578063c5c4744c146112b4578063c9f62af214611279578063ca8c3bea1461125b578063cd78d92c14611213578063d547741f146111d1578063de35eb2414611196578063f2c4b64714611171578063f41e0ba9146102bd578063f86aa92d1461029f5763fb86a4040361000f573461029c578060031936011261029c5760206040517f00000000000000000000000000000000000000000000000000000000000000008152f35b80fd5b503461029c578060031936011261029c576020601254604051908152f35b503461029c5760c036600319011261029c576004356044356102dd612731565b6102e5612a07565b60ff60075416600781101561113f576004811461115f5760028114159081611153575b506110f7575b6008547f000000000000000000000000000000000000000000000000000000000000000081106110e557600f5460ff811615610f29575b505060ff6011541615610e40575b604051632eb4a7ab60e01b815282907f00000000000000000000000000000000000000000000000000000000000000006001600160a01b031690602081600481855afa908115610e35578691610dff575b5080610df557508115610de3578491813b15610dd4578291604483926040519485938492637c382d0b60e01b8452600484015260243560248401525af18015610dd857610dc0575b50505b829080151580610db5575b610d3f575b5060ff60115460081c161580610d34575b610c99575b60115460ff8160101c161580610c70575b80610c65575b80610c5a575b610765575b5060115460ff8160181c161561060b575b5060ff60115460201c16156104c3575b60c0907fc4cc84355ef3f7327b5aa6c366cafe189c44e1a7807ce501f6f3a503a66717e89242600955600460ff196007541617600755600a5491600b54600e5490604051948552602085015260408401526024356060840152608083015260a0820152a16001815580f35b6040516370a0823160e01b81523060048201527f00000000000000000000000000000000000000000000000000000000000000006001600160a01b0316602082602481845afa9182156106005785926105a1575b5092817fc4cc84355ef3f7327b5aa6c366cafe189c44e1a7807ce501f6f3a503a66717e89460c09493610565575b505064010000000064ff0000000019601154161760115592509050610458565b816105937fddab54067aac83090451464d8672d15b704d96dbee6ff6a39bb4119faede5d3793602093612bc6565b604051908152a13880610545565b929150926020833d6020116105f8575b816105be6020938361291b565b810103126105f357915191929091907fc4cc84355ef3f7327b5aa6c366cafe189c44e1a7807ce501f6f3a503a66717e8610517565b600080fd5b3d91506105b1565b6040513d87823e3d90fd5b60ff8160081c16158061075a575b610748577f000000000000000000000000000000000000000000000000000000000000000015158061073d575b8061072f575b61071d5760ff849160101c1680610710575b6106f6575b61066f90600e546128c8565b8061068f575b50630100000063ff00000019601154161760115538610448565b8047106106e45783808080937f00000000000000000000000000000000000000000000000000000000000000005af16106c6612b86565b50156106d25738610675565b604051633d2cec6f60e21b8152600490fd5b604051639c88354560e01b8152600490fd5b5061066f610709600d5460135490612b79565b9050610663565b50600d546013541061065e565b604051635961cb6360e11b8152600490fd5b5060ff8160101c161561064c565b50600d541515610646565b604051632c17c9c760e21b8152600490fd5b50600b541515610619565b60081c60ff161580610c4f575b6107485747600d54116106e4577f00000000000000000000000000000000000000000000000000000000000000006107d6606435827f00000000000000000000000000000000000000000000000000000000000000006001600160a01b0316612c49565b600d5461012c4201804211610c3b576060869160c46040518096819363f305d71960e01b835260018060a01b037f00000000000000000000000000000000000000000000000000000000000000001660048401526064356024840152608435604484015260a435606484015230608484015260a483015260018060a01b031695865af1918215610c2e57819382908394610be6575b506040516315ab88c960e31b815291602083600481845afa908115610bb9576004938592610bc4575b506020906040519485809263c45a015560e01b82525afa928315610bb9578493610b97575b5060405163e6a4390560e01b81526001600160a01b037f00000000000000000000000000000000000000000000000000000000000000008116600483015291821660248201529260209184916044918391165afa918215610b8c578392610b5b575b5060207f000000000000000000000000000000000000000000000000000000000000000061095386826001600160a01b038716612c49565b608461097f7f0000000000000000000000000000000000000000000000000000000000000000426128c8565b604051630aa393f360e01b81526001600160a01b038781166004830152602482018a905260448201929092527f0000000000000000000000000000000000000000000000000000000000000000821660648201529687938492165af1928315610b50578893610afc575b50601283905560138190556011805462ff00001916620100001790556040805186815260208101929092528181018590527fce43c008407997433724b443add46562764945cebefa7fb64f11a3537db3a15b9290916001600160a01b038216907f64b83944e79c3ce8d4c297411de637c3e102d064677aac0c163976ebdcd6f50e90606090a2610a997f0000000000000000000000000000000000000000000000000000000000000000426128c8565b825195865260208601526001600160a01b031693a380606435111561043757610ac7610af691606435612b79565b7f00000000000000000000000000000000000000000000000000000000000000006001600160a01b0316612bc6565b38610437565b9092506020813d602011610b48575b81610b186020938361291b565b810103126105f35751917fce43c008407997433724b443add46562764945cebefa7fb64f11a3537db3a15b6109e9565b3d9150610b0b565b6040513d8a823e3d90fd5b610b7e91925060203d602011610b85575b610b76818361291b565b810190612d64565b903861091b565b503d610b6c565b6040513d85823e3d90fd5b6020919350610bb290823d8411610b8557610b76818361291b565b92906108b9565b6040513d86823e3d90fd5b6020919250610bdf90823d8411610b8557610b76818361291b565b9190610894565b9450509150506060823d8211610c26575b81610c046060938361291b565b81010312610c2257848251916040602085015194015192933861086b565b8480fd5b3d9150610bf7565b50604051903d90823e3d90fd5b634e487b7160e01b86526011600452602486fd5b50600b541515610772565b50600d541515610432565b50606435151561042c565b507f00000000000000000000000000000000000000000000000000000000000000001515610426565b600b54837f00000000000000000000000000000000000000000000000000000000000000006001600160a01b0316803b15610d3057819060046040518095819363990087b760e01b83525af19182610d18575b5050610d04576040516354ce345960e01b8152600490fd5b61010061ff00196011541617601155610415565b610d21906128eb565b610d2c578338610cec565b8380fd5b5080fd5b50600b541515610410565b9050610d4d60105482612b79565b90610d81827f00000000000000000000000000000000000000000000000000000000000000006001600160a01b0316612bc6565b6010557f3316cd92e8029a9d825199ad5d83f540869e52a9d77cf97560178a0b5ebac6fb602082604051908152a1386103ff565b5080601054106103fa565b610dc9906128eb565b610dd45782386103ec565b8280fd5b6040513d84823e3d90fd5b604051639dd854d360e01b8152600490fd5b93506103ef915050565b90506020813d602011610e2d575b81610e1a6020938361291b565b81010312610e295751386103a4565b8580fd5b3d9150610e0d565b6040513d88823e3d90fd5b6040516370a0823160e01b81527f00000000000000000000000000000000000000000000000000000000000000006001600160a01b0381811660048401527f00000000000000000000000000000000000000000000000000000000000000001690602083602481855afa928315610e35578693610ef6575b50602435808410610eda575b50505050600160ff196011541617601155610353565b610eed93610ee791612b79565b91612c0d565b38808080610ec4565b9092506020813d8211610f21575b81610f116020938361291b565b810103126105f357519138610eb8565b3d9150610f04565b6127109182610f3a60035483612b66565b0492610f468483612b79565b907f000000000000000000000000000000000000000000000000000000000000000080156110dd57610f789083612b66565b045b610f848183612b79565b9160405160c0810181811067ffffffffffffffff8211176110c75760019160a091604052868152886020820152836040820152846060820152856080820152015283600a5585600b55600c55600d55600e55600160ff1980931617600f5547106106e4576040516370a0823160e01b81523060048201526020816024817f00000000000000000000000000000000000000000000000000000000000000006001600160a01b03165afa908115610e35578691611096575b506110538461104e6064356024356128c8565b6128c8565b116110845760039115611070575b60075416176007553880610345565b61010061ff00196011541617601155611061565b6040516378a7ac6760e11b8152600490fd5b90506020813d82116110bf575b816110b06020938361291b565b810103126105f357513861103b565b3d91506110a3565b634e487b7160e01b600052604160045260246000fd5b505086610f7a565b6040516346c21a5560e01b8152600490fd5b6110ff612a2a565b60ff60075416600781101561113f5760028114159081611133575b501561030e575b6040516307a92f1960e51b8152600490fd5b6003915014153861111a565b634e487b7160e01b84526021600452602484fd5b60039150141538610308565b60405163475a253560e01b8152600490fd5b503461029c578060031936011261029c57602060115460ff60405191831c1615158152f35b503461029c578060031936011261029c5760206040517f00000000000000000000000000000000000000000000000000000000000000008152f35b503461029c57604036600319011261029c5761120f6004356111f161271b565b90808452600260205261120a60016040862001546127ab565b612851565b5080f35b503461029c57602036600319011261029c576040906001600160a01b0380611239612705565b1682526014602052828083205492601560205220541682519182526020820152f35b503461029c578060031936011261029c576020601354604051908152f35b503461029c578060031936011261029c5760206040517f00000000000000000000000000000000000000000000000000000000000000008152f35b503461029c578060031936011261029c576020600854604051908152f35b503461029c578060031936011261029c576112eb612a07565b60ff6007541660078110156113fb57600581141590816113ef575b506113dd573381526014602052604081205480156113cb573382526014602052604082208290557f00000000000000000000000000000000000000000000000000000000000000006001600160a01b031681816113bb5783808093508092335af161136f612b86565b50156113a9575b6040519081527fd7dee2702d63ad89917b6a4da9981c90c4d24f8c2bdfd64c604ecae57d8d065160203392a26001815580f35b60405163b9da5d2b60e01b8152600490fd5b6113c6913390612c0d565b611376565b604051631971fbf360e21b8152600490fd5b604051630b4d698160e01b8152600490fd5b60069150141538611306565b634e487b7160e01b82526021600452602482fd5b503461029c5761141e36612698565b611426612731565b61142e612a2a565b6007549160ff831660078110156114b157600203611121576008547f000000000000000000000000000000000000000000000000000000000000000011156111215760057f5b55eccea968a9bf1df9a6702e20475ac67bb0d7f402f51701eef38e619368fe9360ff1916176007556114ab60405192839283612d3c565b0390a180f35b634e487b7160e01b85526021600452602485fd5b503461029c578060031936011261029c576114de612731565b6114e6612a07565b60ff6007541660078110156113fb57600403611121576040516370a0823160e01b81523060048201527f00000000000000000000000000000000000000000000000000000000000000006001600160a01b0316602082602481845afa918215610b8c57839261159e575b508161155f575b826001815580f35b7fb3c71476dfd272eb50cc448234b60ee937ab332f54e7eaab71159ca6eb67744060208361159061dead9585612bc6565b604051908152a33880611557565b9091506020813d82116115c9575b816115b96020938361291b565b810103126105f357519038611550565b3d91506115ac565b503461029c578060031936011261029c57602060ff60115460081c166040519015158152f35b503461029c578060031936011261029c5760206040517f00000000000000000000000000000000000000000000000000000000000000008152f35b503461029c57608036600319011261029c5761164c612731565b60ff6007541660078110156113fb5761171457600854611714577f0000000000000000000000000000000000000000000000000000000000000000421015611714576044356024356004356116a183836128c8565b6116ae60643580926128c8565b8203611702577f0ad166d8be1925ee44c5a77600b8a5f7e58cbe711c0dbd99624014a81b8350ba9360809383600355806004558160055582600655604051938452602084015260408301526060820152a180f35b604051632b00a33d60e11b8152600490fd5b60405162b5d7e160e81b8152600490fd5b503461029c578060031936011261029c57602060ff601154166040519015158152f35b503461029c578060031936011261029c5760c0600a54600b54600c54600d54600e549160ff600f5416936040519586526020860152604085015260608401526080830152151560a0820152f35b503461029c578060031936011261029c576040517f00000000000000000000000000000000000000000000000000000000000000006001600160a01b03168152602090f35b503461029c578060031936011261029c576040517f00000000000000000000000000000000000000000000000000000000000000006001600160a01b03168152602090f35b503461029c578060031936011261029c576020600954604051908152f35b503461029c578060031936011261029c57602090604051908152f35b503461029c578060031936011261029c57602060ff60115460181c166040519015158152f35b503461029c57604036600319011261029c57604061189b61271b565b9160043581526002602052209060018060a01b0316600052602052602060ff604060002054166040519015158152f35b503461029c578060031936011261029c5760206040517f00000000000000000000000000000000000000000000000000000000000000008152f35b503461029c578060031936011261029c5760206040517f00000000000000000000000000000000000000000000000000000000000000008152f35b503461029c578060031936011261029c5761195a612731565b6119626129e9565b600160ff19815416176001557f62e78cea01bee320cd4e420270b5ea74000d11b0c9f74754ebdbfc544b05a2586020604051338152a180f35b503461029c578060031936011261029c5760206040517f00000000000000000000000000000000000000000000000000000000000000008152f35b503461029c578060031936011261029c5760e060ff6007541660085460095490611a0360405180946126e2565b60208301527f000000000000000000000000000000000000000000000000000000000000000060408301527f000000000000000000000000000000000000000000000000000000000000000060608301527f000000000000000000000000000000000000000000000000000000000000000060808301527f000000000000000000000000000000000000000000000000000000000000000060a083015260c0820152f35b503461029c578060031936011261029c5760206040517fa49807205ce4d355092ef5a8a18f56e8913cf4a201fbe287825b095693c217758152f35b50604036600319011261029c57600435611afa61271b565b90611b03612a07565b611b0b6129e9565b611b13612a2a565b60ff60075416600781101561113f576001036111215733835260209160148352611b418260408620546128c8565b7f00000000000000000000000000000000000000000000000000000000000000008110611d02577f000000000000000000000000000000000000000000000000000000000000000010611cf057611b9a826008546128c8565b7f000000000000000000000000000000000000000000000000000000000000000010611cde576001600160a01b03827f0000000000000000000000000000000000000000000000000000000000000000821680611ca85750340361112157807fec470969f3350ca5a15f0d85053f8763ffd0ee39c7b74fcdc5af7862718e292a925b3387526014865260408720611c328682546128c8565b9055611c40856008546128c8565b6008551680151580611c93575b611c71575b5033855260158452604085205416926040519283523392a36001815580f35b338652601585526040862080546001600160a01b031916909117905538611c52565b50338652601585528160408720541615611c4d565b92611cd983927fec470969f3350ca5a15f0d85053f8763ffd0ee39c7b74fcdc5af7862718e292a953090339061293d565b611c1c565b604051631c4af3c960e11b8152600490fd5b6040516374368fb960e11b8152600490fd5b60405163860b82a960e01b8152600490fd5b503461029c578060031936011261029c576040517f00000000000000000000000000000000000000000000000000000000000000006001600160a01b03168152602090f35b503461029c578060031936011261029c57602060ff600154166040519015158152f35b503461029c578060031936011261029c576020601054604051908152f35b503461029c578060031936011261029c576040517f00000000000000000000000000000000000000000000000000000000000000006001600160a01b03168152602090f35b503461029c57602036600319011261029c576020906001600160a01b039060409082611e09612705565b16815260158452205416604051908152f35b503461029c57602036600319011261029c576020906040906001600160a01b03611e43612705565b168152601483522054604051908152f35b503461029c578060031936011261029c57611e6d612731565b60015460ff811615611ead5760ff19166001557f5db9ee0a495bf2e6ff9c91a7834c1ba4fdd244a5e8aa4e537bd38aeae4b073aa6020604051338152a180f35b604051638dfc202b60e01b8152600490fd5b503461029c57606036600319011261029c57604435602435611edf612731565b611ee7612a07565b611eef612a2a565b60ff60075416600781101561113f5760020361112157600854907f000000000000000000000000000000000000000000000000000000000000000082106110e557611f4a612710611f4260035485612b66565b048093612b79565b60018060a01b03807f00000000000000000000000000000000000000000000000000000000000000001691867f000000000000000000000000000000000000000000000000000000000000000094837f0000000000000000000000000000000000000000000000000000000000000000611fc683828a8a61293d565b16803b15610dd457604483926040519485938492637c382d0b60e01b8452600435600485015260248401525af18015610b50576122c5575b5086907f0000000000000000000000000000000000000000000000000000000000000000838116801591821561222e5750847f00000000000000000000000000000000000000000000000000000000000000001691823b15610c225784899360046040518096819363990087b760e01b83525af180156106005788938691612215575b50505b15612206575082809281925af1612099612b86565b50156113a9575b600854947f000000000000000000000000000000000000000000000000000000000000000095868110806121fd575b61212d575b4260098190556007805460ff19166004179055600854604080519182526020820189905281019190915288907ff3e2f1d90bd58f6807b6468783c27fdc68307b057882b3ca4eb0f3bb2116789990606090a16001815580f35b9061213b6121419288612b79565b90612b66565b9480156121e7577ff3e2f1d90bd58f6807b6468783c27fdc68307b057882b3ca4eb0f3bb2116789995049081612178575b806120d4565b7f3316cd92e8029a9d825199ad5d83f540869e52a9d77cf97560178a0b5ebac6fb936020936121d792604051926323b872dd60e01b8785015216602483015261dead6044830152836064830152606482526121d2826128ff565b612981565b604051908152a138808080612172565b634e487b7160e01b600052601260045260246000fd5b508115156120cf565b6122109350612c0d565b6120a0565b612221919294506128eb565b610d2c5786918438612081565b91857f000000000000000000000000000000000000000000000000000000000000000061225c8b8286612c49565b16803b15610e295760405163398da91160e01b81526001600160a01b03949094166004850152602484018a905285908490604490829084905af1801561060057889386916122ac575b5050612084565b6122b8919294506128eb565b610d2c57869184386122a5565b6122d1909791976128eb565b9538611ffe565b503461029c57604036600319011261029c576122f261271b565b336001600160a01b0382160361230e5761120f90600435612851565b60405163334bd91960e11b8152600490fd5b503461029c578060031936011261029c5760206040517f00000000000000000000000000000000000000000000000000000000000000008152f35b503461029c578060031936011261029c576040517f00000000000000000000000000000000000000000000000000000000000000006001600160a01b03168152602090f35b503461029c57604036600319011261029c5761120f6004356123c061271b565b9080845260026020526123d960016040862001546127ab565b6127d1565b503461029c57602036600319011261029c576123f8612705565b612400612731565b612408612a07565b60ff60075416600781101561246d57600403611121576001600160a01b0381161561245b578190478061243d57826001815580f35b8280929181925af161244d612b86565b50156106d257803880611557565b60405163e6c4247b60e01b8152600490fd5b634e487b7160e01b83526021600452602483fd5b503461029c578060031936011261029c57602060ff60115460101c166040519015158152f35b503461029c57602036600319011261029c5760016040602092600435815260028452200154604051908152f35b503461029c578060031936011261029c57602060ff600754166124fa60405180926126e2565bf35b503461029c578060031936011261029c57608060035460045460055460065491604051938452602084015260408301526060820152f35b503461029c5761254236612698565b61254a612731565b612552612a2a565b6007549160ff831660078110156114b15780151590816125ad575b506111215760067f2ac842f90dab3279148f7e55ac91d911f75c1c300a202a5250e05400b15fa1569360ff1916176007556114ab60405192839283612d3c565b6001915014153861256d565b503461029c578060031936011261029c576040517f00000000000000000000000000000000000000000000000000000000000000006001600160a01b03168152602090f35b503461029c578060031936011261029c576040517f00000000000000000000000000000000000000000000000000000000000000006001600160a01b03168152602090f35b905034610d30576020366003190112610d305760043563ffffffff60e01b8116809103610dd45760209250637965db0b60e01b8114908115612687575b5015158152f35b6301ffc9a760e01b14905038612680565b9060206003198301126105f35760043567ffffffffffffffff928382116105f357806023830112156105f35781600401359384116105f357602484830101116105f3576024019190565b9060078210156126ef5752565b634e487b7160e01b600052602160045260246000fd5b600435906001600160a01b03821682036105f357565b602435906001600160a01b03821682036105f357565b3360009081527fe5ebfa64fca8d502a8e50c1edffd2c31ef4dad5b396e65d9f397fb028f74abc560205260409020547fa49807205ce4d355092ef5a8a18f56e8913cf4a201fbe287825b095693c217759060ff161561278d5750565b6044906040519063e2517d3f60e01b82523360048301526024820152fd5b80600052600260205260406000203360005260205260ff604060002054161561278d5750565b906000918083526002602052604083209160018060a01b03169182845260205260ff6040842054161560001461284c5780835260026020526040832082845260205260408320600160ff198254161790557f2f8788117e7eff1d82e926ec794901d17c78024a50270940304540a733656f0d339380a4600190565b505090565b906000918083526002602052604083209160018060a01b03169182845260205260ff60408420541660001461284c578083526002602052604083208284526020526040832060ff1981541690557ff6391f5c32d9c69d2a47ea670b442974b53935d1edc7fd64eb21e047a839171b339380a4600190565b919082018092116128d557565b634e487b7160e01b600052601160045260246000fd5b67ffffffffffffffff81116110c757604052565b60a0810190811067ffffffffffffffff8211176110c757604052565b90601f8019910116810190811067ffffffffffffffff8211176110c757604052565b6040516323b872dd60e01b60208201526001600160a01b03928316602482015292909116604483015260648083019390935291815261297f916121d2826128ff565b565b906000602091828151910182855af1156129dd576000513d6129d457506001600160a01b0381163b155b6129b25750565b604051635274afe760e01b81526001600160a01b039091166004820152602490fd5b600114156129ab565b6040513d6000823e3d90fd5b60ff600154166129f557565b60405163d93c066560e01b8152600490fd5b600260005414612a18576002600055565b604051633ee5aeb560e01b8152600490fd5b600780549060ff8216917f000000000000000000000000000000000000000000000000000000000000000042101580612b56575b612b47575b50805460ff8116828110156126ef57600114612adc575b5060ff81541690808210156126ef578210156126ef57808203612a9b575050565b7f0d643a1384921de4b8ad16df0a695f1e75fcfe3bcac27f9c5c8cee464587238291612ad9604092612acf845180946126e2565b60208301906126e2565ba1565b7f00000000000000000000000000000000000000000000000000000000000000004210801590612b1b575b15612a7a5760ff1916600217815538612a7a565b506008547f00000000000000000000000000000000000000000000000000000000000000001115612b07565b60ff1916600117815538612a63565b50818310156126ef578215612a5e565b818102929181159184041417156128d557565b919082039182116128d557565b3d15612bc1573d9067ffffffffffffffff82116110c75760405191612bb5601f8201601f19166020018461291b565b82523d6000602084013e565b606090565b906040519063a9059cbb60e01b602083015261dead6024830152604482015260448152608081019181831067ffffffffffffffff8411176110c75761297f92604052612981565b60405163a9059cbb60e01b60208201526001600160a01b0392909216602483015260448083019390935291815261297f916121d260648361291b565b60405163095ea7b360e01b602082018181526001600160a01b038516602484015260448084019690965294825294939092612c8560648561291b565b60206000809386519082875af182513d82612d17575b505015612cab575b505050509050565b60405160208101969096526001600160a01b0316602486015260448086018290528552608085019067ffffffffffffffff821186831017612d035750612cf993946121d29160405282612981565b8038808080612ca3565b634e487b7160e01b81526041600452602490fd5b909150612d3457506001600160a01b0383163b15155b3880612c9b565b600114612d2d565b90918060409360208452816020850152848401376000828201840152601f01601f1916010190565b908160209103126105f357516001600160a01b03811681036105f3579056fea26469706673582212206f6abc5e6753b2224060987d816b7593fc4bad8ec200daeec2e74b096bfc5dc764736f6c634300081400332f8788117e7eff1d82e926ec794901d17c78024a50270940304540a733656f0da2646970667358221220cb40d588d0051f3be170434d928d0692daed58161f02f6703ebb97af7891391064736f6c634300081400332f8788117e7eff1d82e926ec794901d17c78024a50270940304540a733656f0d",
  "linkReferences": {},
  "deployedLinkReferences": {}
}