{
  "_format": "hh-sol-artifact-1",
  "contractName": "MerkleVesting",
  "sourceName": "contracts/std-presale/MerkleVesting.sol",
  "abi": [
    {
      "inputs": [
        {
          "internalType": "address",
          "name": "_token",
          "type": "address"
        },
        {
          "internalType": "uint256",
          "name": "_tgeUnlockBps",
          "type": "uint256"
        },
        {
          "internalType": "uint256",
          "name": "_cliffDuration",
          "type": "uint256"
        },
        {
          "internalType": "uint256",
          "name": "_vestingDuration",
          "type": "uint256"
        },
        {
          "internalType": "bytes32",
          "name": "_scheduleSalt",
          "type": "bytes32"
        },
        {
          "internalType": "address",
          "name": "_admin",
          "type": "address"
        }
      ],
      "stateMutability": "nonpayable",
      "type": "constructor"
    },
    {
      "inputs": [],
      "name": "AccessControlBadConfirmation",
      "type": "error"
    },
    {
      "inputs": [
        {
          "internalType": "address",
          "name": "account",
          "type": "address"
        },
        {
          "internalType": "bytes32",
          "name": "neededRole",
          "type": "bytes32"
        }
      ],
      "name": "AccessControlUnauthorizedAccount",
      "type": "error"
    },
    {
      "inputs": [],
      "name": "InsufficientVaultBalance",
      "type": "error"
    },
    {
      "inputs": [],
      "name": "InvalidProof",
      "type": "error"
    },
    {
      "inputs": [],
      "name": "NothingToClaim",
      "type": "error"
    },
    {
      "inputs": [],
      "name": "ReentrancyGuardReentrantCall",
      "type": "error"
    },
    {
      "inputs": [],
      "name": "RootAlreadySet",
      "type": "error"
    },
    {
      "inputs": [],
      "name": "RootNotSet",
      "type": "error"
    },
    {
      "inputs": [
        {
          "internalType": "address",
          "name": "token",
          "type": "address"
        }
      ],
      "name": "SafeERC20FailedOperation",
      "type": "error"
    },
    {
      "inputs": [],
      "name": "ZeroAllocation",
      "type": "error"
    },
    {
      "anonymous": false,
      "inputs": [
        {
          "indexed": true,
          "internalType": "address",
          "name": "beneficiary",
          "type": "address"
        },
        {
          "indexed": false,
          "internalType": "uint256",
          "name": "amount",
          "type": "uint256"
        }
      ],
      "name": "Claimed",
      "type": "event"
    },
    {
      "anonymous": false,
      "inputs": [
        {
          "indexed": true,
          "internalType": "bytes32",
          "name": "merkleRoot",
          "type": "bytes32"
        },
        {
          "indexed": false,
          "internalType": "uint256",
          "name": "tgeTimestamp",
          "type": "uint256"
        },
        {
          "indexed": false,
          "internalType": "uint256",
          "name": "totalAllocated",
          "type": "uint256"
        }
      ],
      "name": "MerkleRootSet",
      "type": "event"
    },
    {
      "anonymous": false,
      "inputs": [
        {
          "indexed": true,
          "internalType": "bytes32",
          "name": "role",
          "type": "bytes32"
        },
        {
          "indexed": true,
          "internalType": "bytes32",
          "name": "previousAdminRole",
          "type": "bytes32"
        },
        {
          "indexed": true,
          "internalType": "bytes32",
          "name": "newAdminRole",
          "type": "bytes32"
        }
      ],
      "name": "RoleAdminChanged",
      "type": "event"
    },
    {
      "anonymous": false,
      "inputs": [
        {
          "indexed": true,
          "internalType": "bytes32",
          "name": "role",
          "type": "bytes32"
        },
        {
          "indexed": true,
          "internalType": "address",
          "name": "account",
          "type": "address"
        },
        {
          "indexed": true,
          "internalType": "address",
          "name": "sender",
          "type": "address"
        }
      ],
      "name": "RoleGranted",
      "type": "event"
    },
    {
      "anonymous": false,
      "inputs": [
        {
          "indexed": true,
          "internalType": "bytes32",
          "name": "role",
          "type": "bytes32"
        },
        {
          "indexed": true,
          "internalType": "address",
          "name": "account",
          "type": "address"
        },
        {
          "indexed": true,
          "internalType": "address",
          "name": "sender",
          "type": "address"
        }
      ],
      "name": "RoleRevoked",
      "type": "event"
    },
    {
      "inputs": [],
      "name": "ADMIN_ROLE",
      "outputs": [
        {
          "internalType": "bytes32",
          "name": "",
          "type": "bytes32"
        }
      ],
      "stateMutability": "view",
      "type": "function"
    },
    {
      "inputs": [],
      "name": "DEFAULT_ADMIN_ROLE",
      "outputs": [
        {
          "internalType": "bytes32",
          "name": "",
          "type": "bytes32"
        }
      ],
      "stateMutability": "view",
      "type": "function"
    },
    {
      "inputs": [
        {
          "internalType": "uint256",
          "name": "totalAllocation",
          "type": "uint256"
        },
        {
          "internalType": "bytes32[]",
          "name": "proof",
          "type": "bytes32[]"
        }
      ],
      "name": "claim",
      "outputs": [],
      "stateMutability": "nonpayable",
      "type": "function"
    },
    {
      "inputs": [
        {
          "internalType": "address",
          "name": "",
          "type": "address"
        }
      ],
      "name": "claimed",
      "outputs": [
        {
          "internalType": "uint256",
          "name": "",
          "type": "uint256"
        }
      ],
      "stateMutability": "view",
      "type": "function"
    },
    {
      "inputs": [],
      "name": "cliffDuration",
      "outputs": [
        {
          "internalType": "uint256",
          "name": "",
          "type": "uint256"
        }
      ],
      "stateMutability": "view",
      "type": "function"
    },
    {
      "inputs": [
        {
          "internalType": "address",
          "name": "beneficiary",
          "type": "address"
        },
        {
          "internalType": "uint256",
          "name": "totalAllocation",
          "type": "uint256"
        }
      ],
      "name": "getClaimable",
      "outputs": [
        {
          "internalType": "uint256",
          "name": "",
          "type": "uint256"
        }
      ],
      "stateMutability": "view",
      "type": "function"
    },
    {
      "inputs": [
        {
          "internalType": "bytes32",
          "name": "role",
          "type": "bytes32"
        }
      ],
      "name": "getRoleAdmin",
      "outputs": [
        {
          "internalType": "bytes32",
          "name": "",
          "type": "bytes32"
        }
      ],
      "stateMutability": "view",
      "type": "function"
    },
    {
      "inputs": [],
      "name": "getVestingInfo",
      "outputs": [
        {
          "internalType": "uint256",
          "name": "_tgeUnlockBps",
          "type": "uint256"
        },
        {
          "internalType": "uint256",
          "name": "_cliffDuration",
          "type": "uint256"
        },
        {
          "internalType": "uint256",
          "name": "_vestingDuration",
          "type": "uint256"
        },
        {
          "internalType": "uint256",
          "name": "_tgeTimestamp",
          "type": "uint256"
        },
        {
          "internalType": "bytes32",
          "name": "_merkleRoot",
          "type": "bytes32"
        }
      ],
      "stateMutability": "view",
      "type": "function"
    },
    {
      "inputs": [
        {
          "internalType": "bytes32",
          "name": "role",
          "type": "bytes32"
        },
        {
          "internalType": "address",
          "name": "account",
          "type": "address"
        }
      ],
      "name": "grantRole",
      "outputs": [],
      "stateMutability": "nonpayable",
      "type": "function"
    },
    {
      "inputs": [
        {
          "internalType": "bytes32",
          "name": "role",
          "type": "bytes32"
        },
        {
          "internalType": "address",
          "name": "account",
          "type": "address"
        }
      ],
      "name": "hasRole",
      "outputs": [
        {
          "internalType": "bool",
          "name": "",
          "type": "bool"
        }
      ],
      "stateMutability": "view",
      "type": "function"
    },
    {
      "inputs": [],
      "name": "merkleRoot",
      "outputs": [
        {
          "internalType": "bytes32",
          "name": "",
          "type": "bytes32"
        }
      ],
      "stateMutability": "view",
      "type": "function"
    },
    {
      "inputs": [
        {
          "internalType": "bytes32",
          "name": "role",
          "type": "bytes32"
        },
        {
          "internalType": "address",
          "name": "callerConfirmation",
          "type": "address"
        }
      ],
      "name": "renounceRole",
      "outputs": [],
      "stateMutability": "nonpayable",
      "type": "function"
    },
    {
      "inputs": [
        {
          "internalType": "bytes32",
          "name": "role",
          "type": "bytes32"
        },
        {
          "internalType": "address",
          "name": "account",
          "type": "address"
        }
      ],
      "name": "revokeRole",
      "outputs": [],
      "stateMutability": "nonpayable",
      "type": "function"
    },
    {
      "inputs": [],
      "name": "scheduleSalt",
      "outputs": [
        {
          "internalType": "bytes32",
          "name": "",
          "type": "bytes32"
        }
      ],
      "stateMutability": "view",
      "type": "function"
    },
    {
      "inputs": [
        {
          "internalType": "bytes32",
          "name": "_merkleRoot",
          "type": "bytes32"
        },
        {
          "internalType": "uint256",
          "name": "_totalAllocated",
          "type": "uint256"
        }
      ],
      "name": "setMerkleRoot",
      "outputs": [],
      "stateMutability": "nonpayable",
      "type": "function"
    },
    {
      "inputs": [
        {
          "internalType": "bytes4",
          "name": "interfaceId",
          "type": "bytes4"
        }
      ],
      "name": "supportsInterface",
      "outputs": [
        {
          "internalType": "bool",
          "name": "",
          "type": "bool"
        }
      ],
      "stateMutability": "view",
      "type": "function"
    },
    {
      "inputs": [],
      "name": "tgeTimestamp",
      "outputs": [
        {
          "internalType": "uint256",
          "name": "",
          "type": "uint256"
        }
      ],
      "stateMutability": "view",
      "type": "function"
    },
    {
      "inputs": [],
      "name": "tgeUnlockBps",
      "outputs": [
        {
          "internalType": "uint256",
          "name": "",
          "type": "uint256"
        }
      ],
      "stateMutability": "view",
      "type": "function"
    },
    {
      "inputs": [],
      "name": "token",
      "outputs": [
        {
          "internalType": "address",
          "name": "",
          "type": "address"
        }
      ],
      "stateMutability": "view",
      "type": "function"
    },
    {
      "inputs": [],
      "name": "totalAllocated",
      "outputs": [
        {
          "internalType": "uint256",
          "name": "",
          "type": "uint256"
        }
      ],
      "stateMutability": "view",
      "type": "function"
    },
    {
      "inputs": [],
      "name": "vestingDuration",
      "outputs": [
        {
          "internalType": "uint256",
          "name": "",
          "type": "uint256"
        }
      ],
      "stateMutability": "view",
      "type": "function"
    }
  ],
  "bytecode": "0x6101203461010d57601f610fcf38819003918201601f19168301916001600160401b038311848410176101125780849260c09460405283398101031261010d5761009361004b82610128565b6020830151604084015160608501519161006c60a060808801519701610128565b93600160005560805260a05260c05260e05261010092835261008d8161013c565b506101bb565b50604051610d52918261025d833960805182818161011c0152818161040401526107ce015260a0518281816101aa015281816109dc0152610bf2015260c0518281816101cd0152818161023b0152610c20015260e0518281816101f3015281816109a10152610c4e01525181818161016801526106790152f35b600080fd5b634e487b7160e01b600052604160045260246000fd5b51906001600160a01b038216820361010d57565b6001600160a01b031660008181527fa6eef7e35abe7026729641147f7915573c7e97b47efa546f5f6e3230263bcb49602052604081205490919060ff166101b75781805260016020526040822081835260205260408220600160ff198254161790553391600080516020610faf8339815191528180a4600190565b5090565b6001600160a01b031660008181527f50efbde2d46c37e9785f1791697f77e94bb7b701e19f1930a668820722d3769460205260408120549091907fa49807205ce4d355092ef5a8a18f56e8913cf4a201fbe287825b095693c217759060ff166102575780835260016020526040832082845260205260408320600160ff19825416179055600080516020610faf833981519152339380a4600190565b50509056fe608080604052600436101561001357600080fd5b60003560e01c90816301ffc9a7146109ff5750806314f41d73146109c45780631514617e14610989578063248a9ca31461095a5780632eb4a7ab1461093c5780632f2ff15d146108fd5780632f52ebb7146105f357806336568abe146105ac57806345f7f2491461058e5780636f5244b11461055f57806375b238fc146105245780637c382d0b1461036057806391d1485414610313578063a217fddf146102f7578063a4317ef4146102d9578063c884ef831461029f578063d547741f1461025e578063d85349f714610223578063dc25a3001461018b578063e1f05ec4146101505763fc0c546a1461010657600080fd5b3461014b57600036600319011261014b576040517f00000000000000000000000000000000000000000000000000000000000000006001600160a01b03168152602090f35b600080fd5b3461014b57600036600319011261014b5760206040517f00000000000000000000000000000000000000000000000000000000000000008152f35b3461014b57600036600319011261014b5760a0600354600254604051917f000000000000000000000000000000000000000000000000000000000000000083527f000000000000000000000000000000000000000000000000000000000000000060208401527f0000000000000000000000000000000000000000000000000000000000000000604084015260608301526080820152f35b3461014b57600036600319011261014b5760206040517f00000000000000000000000000000000000000000000000000000000000000008152f35b3461014b57604036600319011261014b5761029d60043561027d610a52565b90806000526001602052610298600160406000200154610a7e565b610b24565b005b3461014b57602036600319011261014b576001600160a01b036102c0610a68565b1660005260056020526020604060002054604051908152f35b3461014b57600036600319011261014b576020600354604051908152f35b3461014b57600036600319011261014b57602060405160008152f35b3461014b57604036600319011261014b5761032c610a52565b600435600052600160205260406000209060018060a01b0316600052602052602060ff604060002054166040519015158152f35b3461014b57604036600319011261014b573360009081527f50efbde2d46c37e9785f1791697f77e94bb7b701e19f1930a668820722d3769460209081526040909120546004359190602435907fa49807205ce4d355092ef5a8a18f56e8913cf4a201fbe287825b095693c217759060ff161561050657506002546104f45782156104e25780156104d0576040516370a0823160e01b815230600482015282816024817f00000000000000000000000000000000000000000000000000000000000000006001600160a01b03165afa80156104c4578291600091610493575b5010610481577fc7ce8037cbac8a577b7d8edd9340b4dbb1e691f2eb699b97f5c7576b0e9ede0491604091846002554260035580600455825191428352820152a2005b6040516314ecd6c760e01b8152600490fd5b809250848092503d83116104bd575b6104ac8183610b9b565b8101031261014b578190518561043e565b503d6104a2565b6040513d6000823e3d90fd5b60405163ba0d87b560e01b8152600490fd5b6040516309bde33960e01b8152600490fd5b60405163b466ddbf60e01b8152600490fd5b6044906040519063e2517d3f60e01b82523360048301526024820152fd5b3461014b57600036600319011261014b5760206040517fa49807205ce4d355092ef5a8a18f56e8913cf4a201fbe287825b095693c217758152f35b3461014b57604036600319011261014b57602061058661057d610a68565b60243590610cd5565b604051908152f35b3461014b57600036600319011261014b576020600454604051908152f35b3461014b57604036600319011261014b576105c5610a52565b336001600160a01b038216036105e15761029d90600435610b24565b60405163334bd91960e11b8152600490fd5b3461014b57604036600319011261014b5767ffffffffffffffff6024351161014b5736602360243501121561014b5767ffffffffffffffff602435600401351161014b576005366024803560040135831b813501011161014b576002600054146108eb57600260005560025480156108d9576040513060601b60208201524660348201527f000000000000000000000000000000000000000000000000000000000000000060548201523360601b60748201526004356088820152608881528060c081011067ffffffffffffffff60c0830111176108a15760c08101604052805160208201206106f1602060243560040135861b0160c08401610b9b565b60248035600481013560c08501520160e083015b6024803560040135871b8135010182106108c9575050906000915b60c08201518310156107845782851b820160e0015190818110156107735760005260205260406000205b91600019811461075d5760010191610720565b634e487b7160e01b600052601160045260246000fd5b90600052602052604060002061074a565b915050036104e257610797600435610bea565b3360005281602052604060002054808211156108b7576107b79082610bbd565b913360005260205260406000205560018060a01b037f0000000000000000000000000000000000000000000000000000000000000000166040516020810163a9059cbb60e01b815233602483015283604483015260448252608082019082821067ffffffffffffffff8311176108a157602092600092604052519082855af1156104c4576000513d6108985750803b155b61088057506040519081527fd8138f8a3f377c5259ca548e70e4c2de94f129f5a11036a15b69513cba2b426a60203392a26001600055005b60249060405190635274afe760e01b82526004820152fd5b60011415610848565b634e487b7160e01b600052604160045260246000fd5b6040516312d37ee560e31b8152600490fd5b8135815260209182019101610705565b604051631c8b625960e01b8152600490fd5b604051633ee5aeb560e01b8152600490fd5b3461014b57604036600319011261014b5761029d60043561091c610a52565b90806000526001602052610937600160406000200154610a7e565b610aa4565b3461014b57600036600319011261014b576020600254604051908152f35b3461014b57602036600319011261014b5760043560005260016020526020600160406000200154604051908152f35b3461014b57600036600319011261014b5760206040517f00000000000000000000000000000000000000000000000000000000000000008152f35b3461014b57600036600319011261014b5760206040517f00000000000000000000000000000000000000000000000000000000000000008152f35b3461014b57602036600319011261014b576004359063ffffffff60e01b821680920361014b57602091637965db0b60e01b8114908115610a41575b5015158152f35b6301ffc9a760e01b14905083610a3a565b602435906001600160a01b038216820361014b57565b600435906001600160a01b038216820361014b57565b80600052600160205260406000203360005260205260ff60406000205416156105065750565b906000918083526001602052604083209160018060a01b03169182845260205260ff60408420541615600014610b1f5780835260016020526040832082845260205260408320600160ff198254161790557f2f8788117e7eff1d82e926ec794901d17c78024a50270940304540a733656f0d339380a4600190565b505090565b906000918083526001602052604083209160018060a01b03169182845260205260ff604084205416600014610b1f578083526001602052604083208284526020526040832060ff1981541690557ff6391f5c32d9c69d2a47ea670b442974b53935d1edc7fd64eb21e047a839171b339380a4600190565b90601f8019910116810190811067ffffffffffffffff8211176108a157604052565b9190820391821161075d57565b8181029291811591840414171561075d57565b9190820180921161075d57565b612710610c177f000000000000000000000000000000000000000000000000000000000000000083610bca565b04610c456003547f000000000000000000000000000000000000000000000000000000000000000090610bdd565b804210610ccf577f000000000000000000000000000000000000000000000000000000000000000092610c788483610bdd565b421015610cc85790610c97610c9084610c9d94610bbd565b9142610bbd565b90610bca565b918015610cb257610caf920490610bdd565b90565b634e487b7160e01b600052601260045260246000fd5b9250505090565b50905090565b9060025415610d1557610ce790610bea565b6001600160a01b03909116600090815260056020526040812054909181811115610b1f57610caf9250610bbd565b505060009056fea26469706673582212208a4b9c712498a497611d6b6e187d91a95c98a0148e64bd12045f9c86e25d5c9d64736f6c634300081400332f8788117e7eff1d82e926ec794901d17c78024a50270940304540a733656f0d",
  "linkReferences": {},
  "deployedLinkReferences": {}
}