{
  "_format": "hh-sol-artifact-1",
  "contractName": "SimpleTokenFactory",
  "sourceName": "contracts/fairlaunch/SimpleTokenFactory.sol",
  "abi": [
    {
      "inputs": [
        {
          "internalType": "address",
          "name": "treasury_",
          "type": "address"
        },
        {
          "internalType": "uint256",
          "name": "creationFee_",
          "type": "uint256"
        }
      ],
      "stateMutability": "nonpayable",
      "type": "constructor"
    },
    {
      "anonymous": false,
      "inputs": [
        {
          "indexed": false,
          "internalType": "uint256",
          "name": "oldFee",
          "type": "uint256"
        },
        {
          "indexed": false,
          "internalType": "uint256",
          "name": "newFee",
          "type": "uint256"
        }
      ],
      "name": "CreationFeeUpdated",
      "type": "event"
    },
    {
      "anonymous": false,
      "inputs": [
        {
          "indexed": true,
          "internalType": "address",
          "name": "token",
          "type": "address"
        },
        {
          "indexed": true,
          "internalType": "address",
          "name": "creator",
          "type": "address"
        },
        {
          "indexed": false,
          "internalType": "string",
          "name": "name",
          "type": "string"
        },
        {
          "indexed": false,
          "internalType": "string",
          "name": "symbol",
          "type": "string"
        },
        {
          "indexed": false,
          "internalType": "uint256",
          "name": "totalSupply",
          "type": "uint256"
        },
        {
          "indexed": false,
          "internalType": "uint8",
          "name": "decimals",
          "type": "uint8"
        }
      ],
      "name": "TokenCreated",
      "type": "event"
    },
    {
      "inputs": [
        {
          "internalType": "uint256",
          "name": "",
          "type": "uint256"
        }
      ],
      "name": "allCreatedTokens",
      "outputs": [
        {
          "internalType": "address",
          "name": "",
          "type": "address"
        }
      ],
      "stateMutability": "view",
      "type": "function"
    },
    {
      "inputs": [
        {
          "internalType": "string",
          "name": "name",
          "type": "string"
        },
        {
          "internalType": "string",
          "name": "symbol",
          "type": "string"
        },
        {
          "internalType": "uint256",
          "name": "totalSupply",
          "type": "uint256"
        },
        {
          "internalType": "uint8",
          "name": "decimals",
          "type": "uint8"
        }
      ],
      "name": "createToken",
      "outputs": [
        {
          "internalType": "address",
          "name": "token",
          "type": "address"
        }
      ],
      "stateMutability": "payable",
      "type": "function"
    },
    {
      "inputs": [],
      "name": "creationFee",
      "outputs": [
        {
          "internalType": "uint256",
          "name": "",
          "type": "uint256"
        }
      ],
      "stateMutability": "view",
      "type": "function"
    },
    {
      "inputs": [
        {
          "internalType": "address",
          "name": "",
          "type": "address"
        }
      ],
      "name": "isCreatedByPlatform",
      "outputs": [
        {
          "internalType": "bool",
          "name": "",
          "type": "bool"
        }
      ],
      "stateMutability": "view",
      "type": "function"
    },
    {
      "inputs": [
        {
          "internalType": "address",
          "name": "token",
          "type": "address"
        }
      ],
      "name": "isPlatformToken",
      "outputs": [
        {
          "internalType": "bool",
          "name": "",
          "type": "bool"
        }
      ],
      "stateMutability": "view",
      "type": "function"
    },
    {
      "inputs": [],
      "name": "totalCreatedTokens",
      "outputs": [
        {
          "internalType": "uint256",
          "name": "",
          "type": "uint256"
        }
      ],
      "stateMutability": "view",
      "type": "function"
    },
    {
      "inputs": [],
      "name": "treasury",
      "outputs": [
        {
          "internalType": "address",
          "name": "",
          "type": "address"
        }
      ],
      "stateMutability": "view",
      "type": "function"
    }
  ],
  "bytecode": "0x60a0346100b857601f61145038819003918201601f19168301916001600160401b038311848410176100bd5780849260409485528339810103126100b85780516001600160a01b038116918282036100b8576020015191156100805760805260005560405161137c90816100d4823960805181818161030001526104e70152f35b60405162461bcd60e51b815260206004820152601060248201526f496e76616c696420747265617375727960801b6044820152606490fd5b600080fd5b634e487b7160e01b600052604160045260246000fdfe60806040818152600491823610156200001757600080fd5b600092833560e01c9182630e3d61e914620005165750816361d027b314620004d05781636a033fc114620000e8578163b64acddd146200012a578163b73f70ec14620000e8578163d6d56624146200009b575063dce0b4e4146200007a57600080fd5b346200009757816003193601126200009757602091549051908152f35b5080fd5b905034620000e4576020366003190112620000e4573591600254831015620000e15750620000cb602092620005d5565b905491519160018060a01b039160031b1c168152f35b80fd5b8280fd5b905034620000e4576020366003190112620000e457356001600160a01b03811690819003620000e457818360ff92602095526001855220541690519015158152f35b90506080366003190112620000e45767ffffffffffffffff918135838111620004cc576200015c90369084016200058e565b916024928335858111620004c8576200017990369084016200058e565b60449081359360649081359360ff8516809503620004c4578a5434106200048657855115620004585783511562000428578615620003f55760128511620003c3578751610ce18082019b8c11828d1017620003b15762000666823960a08b5280620001e860a08d018962000623565b9b620001ff60209d8e838203908401528862000623565b908a8c82015288606082015260803391015203908cf0988915620003a7576001600160a01b03998a16808d526001808d528a8e20805460ff191690911790556002549c909a680100000000000000008e101562000396576200026f8e8d9e9f6001909e9c9d9e01600255620005d5565b819291549060031b918c831b921b191617905534620002f0575b505050505090620002da7f6571bfb23a3d072cb2827a22a12d773a03972b073bf49095176a4cfef04de7e19392620002cc88519460808652608086019062000623565b908482038b86015262000623565b948683015260608201528033940390a351908152f35b808080809495969798999a9b50347f00000000000000000000000000000000000000000000000000000000000000005af1903d156200038f573d90620003406200033a8362000571565b62000534565b9182528d3d92013e5b156200035b57808a9796959462000289565b885162461bcd60e51b81529283018b905260139083015272119959481d1c985b9cd9995c8819985a5b1959606a1b90820152fd5b5062000349565b50634e487b7160e01b815260418452fd5b88513d8d823e3d90fd5b634e487b7160e01b8d52604184528a8dfd5b70088cac6d2dac2d8e640e8dede40d0d2ced607b1b9060118a60208b519562461bcd60e51b8752860152840152820152fd5b710537570706c79206d757374206265203e20360741b9060128a60208b519562461bcd60e51b8752860152840152820152fd5b6e14de5b589bdb081c995c5d5a5c9959608a1b90600f8a60208b519562461bcd60e51b8752860152840152820152fd5b6c13985b59481c995c5d5a5c9959609a1b90600d8a60208b519562461bcd60e51b8752860152840152820152fd5b7f496e73756666696369656e74206372656174696f6e20666565000000000000009060198a60208b519562461bcd60e51b8752860152840152820152fd5b8a80fd5b8680fd5b8480fd5b5050346200009757816003193601126200009757517f00000000000000000000000000000000000000000000000000000000000000006001600160a01b03168152602090f35b84903462000097578160031936011262000097576020906002548152f35b6040519190601f01601f1916820167ffffffffffffffff8111838210176200055b57604052565b634e487b7160e01b600052604160045260246000fd5b67ffffffffffffffff81116200055b57601f01601f191660200190565b81601f82011215620005d057803590620005ac6200033a8362000571565b9282845260208383010111620005d057816000926020809301838601378301015290565b600080fd5b6002548110156200060d5760026000527f405787fa12a823e0f2b7631cc41b3ba8828b3321ca811111fa75cd3aa3bb5ace0190600090565b634e487b7160e01b600052603260045260246000fd5b919082519283825260005b84811062000650575050826000602080949584010152601f8019910116010190565b6020818301810151848301820152016200062e56fe604060808152346200041d5762000ce1803803806200001e8162000422565b928339810160a0828203126200041d5781516001600160401b0392908381116200041d57826200005091830162000448565b9260209283830151908282116200041d576200006e91840162000448565b90858301519260608101519060ff821682036200041d57608001516001600160a01b0380821697909390918890036200041d5781518181116200031a576003908154906001948583811c9316801562000412575b8b841014620003fc5781908b601f94858111620003a3575b50508b908483116001146200033c5760009262000330575b505060001982851b1c191690851b1782555b86519283116200031a5760049687548581811c911680156200030f575b8b821014620002fa57828111620002af575b5089918411600114620002445793839491849260009562000238575b50501b92600019911b1c19161783555b851562000221578590816005549384167f8be0079c531659141344cd1fd0a4f28419497f9722a3daafe3b4186f6b6457e0600080a36001600160a81b03199092161760a09190911b60ff60a01b1617600555600254828101919082106200020c575060025560008381528083528481208054830190558451918252917fddf252ad1be2c89b69c2b068fc378daa952ba7f163c4a11628f55a4df523b3ef91a3516108269081620004bb8239f35b601190634e487b7160e01b6000525260246000fd5b8651631e4fbdf760e01b8152600081850152602490fd5b0151935038806200014f565b9190601f1984169288600052848b6000209460005b8d898383106200029757505050106200027c575b50505050811b0183556200015f565b01519060f884600019921b161c19169055388080806200026d565b86860151895590970196948501948893500162000259565b886000528a6000208380870160051c8201928d8810620002f0575b0160051c019086905b828110620002e357505062000133565b60008155018690620002d3565b92508192620002ca565b602289634e487b7160e01b6000525260246000fd5b90607f169062000121565b634e487b7160e01b600052604160045260246000fd5b015190503880620000f2565b60008681528d8120899550929190601f198516908f5b8282106200038b575050841162000372575b505050811b01825562000104565b015160001983871b60f8161c1916905538808062000364565b8385015186558b979095019493840193018f62000352565b909192508560005284826000209181860160051c8301938610620003f2575b918991869594930160051c01915b828110620003e257508d9150620000da565b60008155859450899101620003d0565b92508192620003c2565b634e487b7160e01b600052602260045260246000fd5b92607f1692620000c2565b600080fd5b6040519190601f01601f191682016001600160401b038111838210176200031a57604052565b919080601f840112156200041d5782516001600160401b0381116200031a576020906200047e601f8201601f1916830162000422565b928184528282870101116200041d5760005b818110620004a657508260009394955001015290565b85810183015184820184015282016200049056fe6080604081815260048036101561001557600080fd5b600092833560e01c90816306fdde031461057757508063095ea7b3146104ce57806318160ddd146104af57806323b872dd146103bc578063313ce5671461039757806370a0823114610360578063715018a6146103005780638da5cb5b146102d757806395d89b41146101b7578063a9059cbb14610186578063dd62ed3e146101395763f2fde38b146100a757600080fd5b34610135576020366003190112610135576100c06106b5565b906100c96106e6565b6001600160a01b0391821692831561011f575050600554826bffffffffffffffffffffffff60a01b821617600555167f8be0079c531659141344cd1fd0a4f28419497f9722a3daafe3b4186f6b6457e08380a380f35b51631e4fbdf760e01b8152908101849052602490fd5b8280fd5b505034610182578060031936011261018257806020926101576106b5565b61015f6106d0565b6001600160a01b0391821683526001865283832091168252845220549051908152f35b5080fd5b5050346101825780600319360112610182576020906101b06101a66106b5565b6024359033610712565b5160018152f35b50919034610182578160031936011261018257805190828454600181811c908083169283156102cd575b60209384841081146102ba5783885290811561029e5750600114610249575b505050829003601f01601f191682019267ffffffffffffffff841183851017610236575082918261023292528261066c565b0390f35b634e487b7160e01b815260418552602490fd5b8787529192508591837f8a35acfbc15ff81a39ae7d344fd709f28e8600b4aa8c65c6b64bfe7fe36bd19b5b83851061028a5750505050830101388080610200565b805488860183015293019284908201610274565b60ff1916878501525050151560051b8401019050388080610200565b634e487b7160e01b895260228a52602489fd5b91607f16916101e1565b50503461018257816003193601126101825760055490516001600160a01b039091168152602090f35b833461035d578060031936011261035d576103196106e6565b600580546001600160a01b0319811690915581906001600160a01b03167f8be0079c531659141344cd1fd0a4f28419497f9722a3daafe3b4186f6b6457e08280a380f35b80fd5b5050346101825760203660031901126101825760209181906001600160a01b036103886106b5565b16815280845220549051908152f35b50503461018257816003193601126101825760209060ff60055460a01c169051908152f35b50823461035d57606036600319011261035d576103d76106b5565b6103df6106d0565b916044359360018060a01b03831680835260016020528683203384526020528683205491600019831061041b575b6020886101b0898989610712565b86831061048357811561046c573315610455575082526001602090815286832033845281529186902090859003905582906101b08761040d565b8751634a1406b160e11b8152908101849052602490fd5b875163e602df0560e01b8152908101849052602490fd5b8751637dc7a0d960e11b8152339181019182526020820193909352604081018790528291506060010390fd5b5050346101825781600319360112610182576020906002549051908152f35b50346101355781600319360112610135576104e76106b5565b602435903315610560576001600160a01b031691821561054957508083602095338152600187528181208582528752205582519081527f8c5be1e5ebec7d5bd14f71427d1e84f3dd0314c0f7b2291e5b200ac8c7c3b925843392a35160018152f35b8351634a1406b160e11b8152908101859052602490fd5b835163e602df0560e01b8152808401869052602490fd5b849150833461013557826003193601126101355782600354600181811c90808316928315610662575b60209384841081146102ba5783885290811561064657506001146105f057505050829003601f01601f191682019267ffffffffffffffff841183851017610236575082918261023292528261066c565b600387529192508591837fc2575a0e9e593c00f959f8c92f12db2869c3395a3b0502d05e2516446f71f85b5b8385106106325750505050830101858080610200565b80548886018301529301928490820161061c565b60ff1916878501525050151560051b8401019050858080610200565b91607f16916105a0565b6020808252825181830181905290939260005b8281106106a157505060409293506000838284010152601f8019910116010190565b81810186015184820160400152850161067f565b600435906001600160a01b03821682036106cb57565b600080fd5b602435906001600160a01b03821682036106cb57565b6005546001600160a01b031633036106fa57565b60405163118cdaa760e01b8152336004820152602490fd5b916001600160a01b038084169283156107d757169283156107be576000908382528160205260408220549083821061078c575091604082827fddf252ad1be2c89b69c2b068fc378daa952ba7f163c4a11628f55a4df523b3ef958760209652828652038282205586815220818154019055604051908152a3565b60405163391434e360e21b81526001600160a01b03919091166004820152602481019190915260448101839052606490fd5b60405163ec442f0560e01b815260006004820152602490fd5b604051634b637e8f60e11b815260006004820152602490fdfea2646970667358221220822a965ba3e11431bddb490de776c0a41d2284163ab77d0886112c045ab41f2a64736f6c63430008140033a2646970667358221220bfe7033651158bcced8c4e6d458b044d783f6cf64dfe8eef8fc23965acadd6bf64736f6c63430008140033",
  "linkReferences": {},
  "deployedLinkReferences": {}
}