{
  "_format": "hh-sol-artifact-1",
  "contractName": "PresaleRound",
  "sourceName": "contracts/std-presale/PresaleRound.sol",
  "abi": [
    {
      "inputs": [
        {
          "internalType": "address",
          "name": "_projectToken",
          "type": "address"
        },
        {
          "internalType": "address",
          "name": "_paymentToken",
          "type": "address"
        },
        {
          "internalType": "uint256",
          "name": "_softCap",
          "type": "uint256"
        },
        {
          "internalType": "uint256",
          "name": "_hardCap",
          "type": "uint256"
        },
        {
          "internalType": "uint256",
          "name": "_minContribution",
          "type": "uint256"
        },
        {
          "internalType": "uint256",
          "name": "_maxContribution",
          "type": "uint256"
        },
        {
          "internalType": "uint256",
          "name": "_startTime",
          "type": "uint256"
        },
        {
          "internalType": "uint256",
          "name": "_endTime",
          "type": "uint256"
        },
        {
          "internalType": "address",
          "name": "_feeSplitter",
          "type": "address"
        },
        {
          "internalType": "address",
          "name": "_vestingVault",
          "type": "address"
        },
        {
          "internalType": "address",
          "name": "_projectOwner",
          "type": "address"
        },
        {
          "internalType": "address",
          "name": "_admin",
          "type": "address"
        }
      ],
      "stateMutability": "nonpayable",
      "type": "constructor"
    },
    {
      "inputs": [],
      "name": "AccessControlBadConfirmation",
      "type": "error"
    },
    {
      "inputs": [
        {
          "internalType": "address",
          "name": "account",
          "type": "address"
        },
        {
          "internalType": "bytes32",
          "name": "neededRole",
          "type": "bytes32"
        }
      ],
      "name": "AccessControlUnauthorizedAccount",
      "type": "error"
    },
    {
      "inputs": [],
      "name": "AlreadyFinalized",
      "type": "error"
    },
    {
      "inputs": [],
      "name": "BelowMinimum",
      "type": "error"
    },
    {
      "inputs": [],
      "name": "ConfigLocked",
      "type": "error"
    },
    {
      "inputs": [],
      "name": "ContributionLimitExceeded",
      "type": "error"
    },
    {
      "inputs": [],
      "name": "EnforcedPause",
      "type": "error"
    },
    {
      "inputs": [],
      "name": "ExpectedPause",
      "type": "error"
    },
    {
      "inputs": [],
      "name": "FeeDistributionFailed",
      "type": "error"
    },
    {
      "inputs": [],
      "name": "HardCapExceeded",
      "type": "error"
    },
    {
      "inputs": [],
      "name": "InsufficientTokenBalance",
      "type": "error"
    },
    {
      "inputs": [],
      "name": "InvalidAddress",
      "type": "error"
    },
    {
      "inputs": [],
      "name": "InvalidFeeConfig",
      "type": "error"
    },
    {
      "inputs": [],
      "name": "InvalidMerkleRoot",
      "type": "error"
    },
    {
      "inputs": [],
      "name": "InvalidStatus",
      "type": "error"
    },
    {
      "inputs": [],
      "name": "NativeTransferFailed",
      "type": "error"
    },
    {
      "inputs": [],
      "name": "NoContribution",
      "type": "error"
    },
    {
      "inputs": [],
      "name": "ReentrancyGuardReentrantCall",
      "type": "error"
    },
    {
      "inputs": [],
      "name": "RefundNotAvailable",
      "type": "error"
    },
    {
      "inputs": [
        {
          "internalType": "address",
          "name": "token",
          "type": "address"
        }
      ],
      "name": "SafeERC20FailedOperation",
      "type": "error"
    },
    {
      "inputs": [],
      "name": "SoftCapNotMet",
      "type": "error"
    },
    {
      "inputs": [],
      "name": "VestingFundingFailed",
      "type": "error"
    },
    {
      "anonymous": false,
      "inputs": [
        {
          "indexed": false,
          "internalType": "string",
          "name": "reason",
          "type": "string"
        }
      ],
      "name": "Cancelled",
      "type": "event"
    },
    {
      "anonymous": false,
      "inputs": [
        {
          "indexed": true,
          "internalType": "address",
          "name": "contributor",
          "type": "address"
        },
        {
          "indexed": false,
          "internalType": "uint256",
          "name": "amount",
          "type": "uint256"
        },
        {
          "indexed": true,
          "internalType": "address",
          "name": "referrer",
          "type": "address"
        }
      ],
      "name": "Contributed",
      "type": "event"
    },
    {
      "anonymous": false,
      "inputs": [
        {
          "components": [
            {
              "internalType": "uint256",
              "name": "totalBps",
              "type": "uint256"
            },
            {
              "internalType": "uint256",
              "name": "treasuryBps",
              "type": "uint256"
            },
            {
              "internalType": "uint256",
              "name": "referralPoolBps",
              "type": "uint256"
            },
            {
              "internalType": "uint256",
              "name": "sbtStakingBps",
              "type": "uint256"
            }
          ],
          "indexed": false,
          "internalType": "struct PresaleRound.FeeConfig",
          "name": "newConfig",
          "type": "tuple"
        }
      ],
      "name": "FeeConfigUpdated",
      "type": "event"
    },
    {
      "anonymous": false,
      "inputs": [
        {
          "indexed": false,
          "internalType": "string",
          "name": "reason",
          "type": "string"
        }
      ],
      "name": "FinalizedFailed",
      "type": "event"
    },
    {
      "anonymous": false,
      "inputs": [
        {
          "indexed": false,
          "internalType": "uint256",
          "name": "totalRaised",
          "type": "uint256"
        },
        {
          "indexed": false,
          "internalType": "uint256",
          "name": "feeAmount",
          "type": "uint256"
        },
        {
          "indexed": false,
          "internalType": "uint256",
          "name": "tgeTimestamp",
          "type": "uint256"
        }
      ],
      "name": "FinalizedSuccess",
      "type": "event"
    },
    {
      "anonymous": false,
      "inputs": [
        {
          "indexed": false,
          "internalType": "uint256",
          "name": "totalNative",
          "type": "uint256"
        },
        {
          "indexed": false,
          "internalType": "uint256",
          "name": "fee",
          "type": "uint256"
        },
        {
          "indexed": false,
          "internalType": "uint256",
          "name": "net",
          "type": "uint256"
        },
        {
          "indexed": false,
          "internalType": "uint256",
          "name": "vestingTopUp",
          "type": "uint256"
        },
        {
          "indexed": false,
          "internalType": "uint256",
          "name": "burned",
          "type": "uint256"
        },
        {
          "indexed": false,
          "internalType": "bytes32",
          "name": "merkleRoot",
          "type": "bytes32"
        }
      ],
      "name": "FinalizedSuccessEscrow",
      "type": "event"
    },
    {
      "anonymous": false,
      "inputs": [
        {
          "indexed": false,
          "internalType": "address",
          "name": "account",
          "type": "address"
        }
      ],
      "name": "Paused",
      "type": "event"
    },
    {
      "anonymous": false,
      "inputs": [
        {
          "indexed": true,
          "internalType": "address",
          "name": "contributor",
          "type": "address"
        },
        {
          "indexed": false,
          "internalType": "uint256",
          "name": "amount",
          "type": "uint256"
        }
      ],
      "name": "Refunded",
      "type": "event"
    },
    {
      "anonymous": false,
      "inputs": [
        {
          "indexed": true,
          "internalType": "bytes32",
          "name": "role",
          "type": "bytes32"
        },
        {
          "indexed": true,
          "internalType": "bytes32",
          "name": "previousAdminRole",
          "type": "bytes32"
        },
        {
          "indexed": true,
          "internalType": "bytes32",
          "name": "newAdminRole",
          "type": "bytes32"
        }
      ],
      "name": "RoleAdminChanged",
      "type": "event"
    },
    {
      "anonymous": false,
      "inputs": [
        {
          "indexed": true,
          "internalType": "bytes32",
          "name": "role",
          "type": "bytes32"
        },
        {
          "indexed": true,
          "internalType": "address",
          "name": "account",
          "type": "address"
        },
        {
          "indexed": true,
          "internalType": "address",
          "name": "sender",
          "type": "address"
        }
      ],
      "name": "RoleGranted",
      "type": "event"
    },
    {
      "anonymous": false,
      "inputs": [
        {
          "indexed": true,
          "internalType": "bytes32",
          "name": "role",
          "type": "bytes32"
        },
        {
          "indexed": true,
          "internalType": "address",
          "name": "account",
          "type": "address"
        },
        {
          "indexed": true,
          "internalType": "address",
          "name": "sender",
          "type": "address"
        }
      ],
      "name": "RoleRevoked",
      "type": "event"
    },
    {
      "anonymous": false,
      "inputs": [
        {
          "indexed": false,
          "internalType": "enum PresaleRound.Status",
          "name": "oldStatus",
          "type": "uint8"
        },
        {
          "indexed": false,
          "internalType": "enum PresaleRound.Status",
          "name": "newStatus",
          "type": "uint8"
        }
      ],
      "name": "StatusSynced",
      "type": "event"
    },
    {
      "anonymous": false,
      "inputs": [
        {
          "indexed": false,
          "internalType": "address",
          "name": "account",
          "type": "address"
        }
      ],
      "name": "Unpaused",
      "type": "event"
    },
    {
      "anonymous": false,
      "inputs": [
        {
          "indexed": false,
          "internalType": "uint256",
          "name": "amount",
          "type": "uint256"
        }
      ],
      "name": "UnsoldTokensBurned",
      "type": "event"
    },
    {
      "inputs": [],
      "name": "ADMIN_ROLE",
      "outputs": [
        {
          "internalType": "bytes32",
          "name": "",
          "type": "bytes32"
        }
      ],
      "stateMutability": "view",
      "type": "function"
    },
    {
      "inputs": [],
      "name": "DEFAULT_ADMIN_ROLE",
      "outputs": [
        {
          "internalType": "bytes32",
          "name": "",
          "type": "bytes32"
        }
      ],
      "stateMutability": "view",
      "type": "function"
    },
    {
      "inputs": [],
      "name": "bnbDistributed",
      "outputs": [
        {
          "internalType": "bool",
          "name": "",
          "type": "bool"
        }
      ],
      "stateMutability": "view",
      "type": "function"
    },
    {
      "inputs": [],
      "name": "burnedAmount",
      "outputs": [
        {
          "internalType": "uint256",
          "name": "",
          "type": "uint256"
        }
      ],
      "stateMutability": "view",
      "type": "function"
    },
    {
      "inputs": [
        {
          "internalType": "string",
          "name": "reason",
          "type": "string"
        }
      ],
      "name": "cancel",
      "outputs": [],
      "stateMutability": "nonpayable",
      "type": "function"
    },
    {
      "inputs": [],
      "name": "claimRefund",
      "outputs": [],
      "stateMutability": "nonpayable",
      "type": "function"
    },
    {
      "inputs": [
        {
          "internalType": "uint256",
          "name": "amount",
          "type": "uint256"
        },
        {
          "internalType": "address",
          "name": "referrer",
          "type": "address"
        }
      ],
      "name": "contribute",
      "outputs": [],
      "stateMutability": "payable",
      "type": "function"
    },
    {
      "inputs": [
        {
          "internalType": "address",
          "name": "",
          "type": "address"
        }
      ],
      "name": "contributions",
      "outputs": [
        {
          "internalType": "uint256",
          "name": "",
          "type": "uint256"
        }
      ],
      "stateMutability": "view",
      "type": "function"
    },
    {
      "inputs": [],
      "name": "endTime",
      "outputs": [
        {
          "internalType": "uint256",
          "name": "",
          "type": "uint256"
        }
      ],
      "stateMutability": "view",
      "type": "function"
    },
    {
      "inputs": [],
      "name": "feeConfig",
      "outputs": [
        {
          "internalType": "uint256",
          "name": "totalBps",
          "type": "uint256"
        },
        {
          "internalType": "uint256",
          "name": "treasuryBps",
          "type": "uint256"
        },
        {
          "internalType": "uint256",
          "name": "referralPoolBps",
          "type": "uint256"
        },
        {
          "internalType": "uint256",
          "name": "sbtStakingBps",
          "type": "uint256"
        }
      ],
      "stateMutability": "view",
      "type": "function"
    },
    {
      "inputs": [],
      "name": "feeSplitter",
      "outputs": [
        {
          "internalType": "address",
          "name": "",
          "type": "address"
        }
      ],
      "stateMutability": "view",
      "type": "function"
    },
    {
      "inputs": [
        {
          "internalType": "string",
          "name": "reason",
          "type": "string"
        }
      ],
      "name": "finalizeFailed",
      "outputs": [],
      "stateMutability": "nonpayable",
      "type": "function"
    },
    {
      "inputs": [
        {
          "internalType": "bytes32",
          "name": "merkleRoot",
          "type": "bytes32"
        },
        {
          "internalType": "uint256",
          "name": "totalVestingAllocation",
          "type": "uint256"
        },
        {
          "internalType": "uint256",
          "name": "totalTokensForSale",
          "type": "uint256"
        }
      ],
      "name": "finalizeSuccess",
      "outputs": [],
      "stateMutability": "nonpayable",
      "type": "function"
    },
    {
      "inputs": [
        {
          "internalType": "bytes32",
          "name": "_merkleRoot",
          "type": "bytes32"
        },
        {
          "internalType": "uint256",
          "name": "totalVestingAllocation",
          "type": "uint256"
        },
        {
          "internalType": "uint256",
          "name": "unsoldToBurn",
          "type": "uint256"
        }
      ],
      "name": "finalizeSuccessEscrow",
      "outputs": [],
      "stateMutability": "nonpayable",
      "type": "function"
    },
    {
      "inputs": [
        {
          "internalType": "address",
          "name": "contributor",
          "type": "address"
        }
      ],
      "name": "getContributionInfo",
      "outputs": [
        {
          "internalType": "uint256",
          "name": "contribution",
          "type": "uint256"
        },
        {
          "internalType": "address",
          "name": "referrer",
          "type": "address"
        }
      ],
      "stateMutability": "view",
      "type": "function"
    },
    {
      "inputs": [],
      "name": "getPresaleInfo",
      "outputs": [
        {
          "internalType": "enum PresaleRound.Status",
          "name": "_status",
          "type": "uint8"
        },
        {
          "internalType": "uint256",
          "name": "_totalRaised",
          "type": "uint256"
        },
        {
          "internalType": "uint256",
          "name": "_softCap",
          "type": "uint256"
        },
        {
          "internalType": "uint256",
          "name": "_hardCap",
          "type": "uint256"
        },
        {
          "internalType": "uint256",
          "name": "_startTime",
          "type": "uint256"
        },
        {
          "internalType": "uint256",
          "name": "_endTime",
          "type": "uint256"
        },
        {
          "internalType": "uint256",
          "name": "_tgeTimestamp",
          "type": "uint256"
        }
      ],
      "stateMutability": "view",
      "type": "function"
    },
    {
      "inputs": [
        {
          "internalType": "bytes32",
          "name": "role",
          "type": "bytes32"
        }
      ],
      "name": "getRoleAdmin",
      "outputs": [
        {
          "internalType": "bytes32",
          "name": "",
          "type": "bytes32"
        }
      ],
      "stateMutability": "view",
      "type": "function"
    },
    {
      "inputs": [
        {
          "internalType": "bytes32",
          "name": "role",
          "type": "bytes32"
        },
        {
          "internalType": "address",
          "name": "account",
          "type": "address"
        }
      ],
      "name": "grantRole",
      "outputs": [],
      "stateMutability": "nonpayable",
      "type": "function"
    },
    {
      "inputs": [],
      "name": "hardCap",
      "outputs": [
        {
          "internalType": "uint256",
          "name": "",
          "type": "uint256"
        }
      ],
      "stateMutability": "view",
      "type": "function"
    },
    {
      "inputs": [
        {
          "internalType": "bytes32",
          "name": "role",
          "type": "bytes32"
        },
        {
          "internalType": "address",
          "name": "account",
          "type": "address"
        }
      ],
      "name": "hasRole",
      "outputs": [
        {
          "internalType": "bool",
          "name": "",
          "type": "bool"
        }
      ],
      "stateMutability": "view",
      "type": "function"
    },
    {
      "inputs": [],
      "name": "maxContribution",
      "outputs": [
        {
          "internalType": "uint256",
          "name": "",
          "type": "uint256"
        }
      ],
      "stateMutability": "view",
      "type": "function"
    },
    {
      "inputs": [],
      "name": "minContribution",
      "outputs": [
        {
          "internalType": "uint256",
          "name": "",
          "type": "uint256"
        }
      ],
      "stateMutability": "view",
      "type": "function"
    },
    {
      "inputs": [],
      "name": "pause",
      "outputs": [],
      "stateMutability": "nonpayable",
      "type": "function"
    },
    {
      "inputs": [],
      "name": "paused",
      "outputs": [
        {
          "internalType": "bool",
          "name": "",
          "type": "bool"
        }
      ],
      "stateMutability": "view",
      "type": "function"
    },
    {
      "inputs": [],
      "name": "paymentToken",
      "outputs": [
        {
          "internalType": "address",
          "name": "",
          "type": "address"
        }
      ],
      "stateMutability": "view",
      "type": "function"
    },
    {
      "inputs": [],
      "name": "projectOwner",
      "outputs": [
        {
          "internalType": "address",
          "name": "",
          "type": "address"
        }
      ],
      "stateMutability": "view",
      "type": "function"
    },
    {
      "inputs": [],
      "name": "projectToken",
      "outputs": [
        {
          "internalType": "address",
          "name": "",
          "type": "address"
        }
      ],
      "stateMutability": "view",
      "type": "function"
    },
    {
      "inputs": [
        {
          "internalType": "address",
          "name": "",
          "type": "address"
        }
      ],
      "name": "referrers",
      "outputs": [
        {
          "internalType": "address",
          "name": "",
          "type": "address"
        }
      ],
      "stateMutability": "view",
      "type": "function"
    },
    {
      "inputs": [
        {
          "internalType": "bytes32",
          "name": "role",
          "type": "bytes32"
        },
        {
          "internalType": "address",
          "name": "callerConfirmation",
          "type": "address"
        }
      ],
      "name": "renounceRole",
      "outputs": [],
      "stateMutability": "nonpayable",
      "type": "function"
    },
    {
      "inputs": [
        {
          "internalType": "bytes32",
          "name": "role",
          "type": "bytes32"
        },
        {
          "internalType": "address",
          "name": "account",
          "type": "address"
        }
      ],
      "name": "revokeRole",
      "outputs": [],
      "stateMutability": "nonpayable",
      "type": "function"
    },
    {
      "inputs": [
        {
          "components": [
            {
              "internalType": "uint256",
              "name": "totalBps",
              "type": "uint256"
            },
            {
              "internalType": "uint256",
              "name": "treasuryBps",
              "type": "uint256"
            },
            {
              "internalType": "uint256",
              "name": "referralPoolBps",
              "type": "uint256"
            },
            {
              "internalType": "uint256",
              "name": "sbtStakingBps",
              "type": "uint256"
            }
          ],
          "internalType": "struct PresaleRound.FeeConfig",
          "name": "newConfig",
          "type": "tuple"
        }
      ],
      "name": "setFeeConfig",
      "outputs": [],
      "stateMutability": "nonpayable",
      "type": "function"
    },
    {
      "inputs": [],
      "name": "softCap",
      "outputs": [
        {
          "internalType": "uint256",
          "name": "",
          "type": "uint256"
        }
      ],
      "stateMutability": "view",
      "type": "function"
    },
    {
      "inputs": [],
      "name": "startTime",
      "outputs": [
        {
          "internalType": "uint256",
          "name": "",
          "type": "uint256"
        }
      ],
      "stateMutability": "view",
      "type": "function"
    },
    {
      "inputs": [],
      "name": "status",
      "outputs": [
        {
          "internalType": "enum PresaleRound.Status",
          "name": "",
          "type": "uint8"
        }
      ],
      "stateMutability": "view",
      "type": "function"
    },
    {
      "inputs": [
        {
          "internalType": "bytes4",
          "name": "interfaceId",
          "type": "bytes4"
        }
      ],
      "name": "supportsInterface",
      "outputs": [
        {
          "internalType": "bool",
          "name": "",
          "type": "bool"
        }
      ],
      "stateMutability": "view",
      "type": "function"
    },
    {
      "inputs": [],
      "name": "tgeTimestamp",
      "outputs": [
        {
          "internalType": "uint256",
          "name": "",
          "type": "uint256"
        }
      ],
      "stateMutability": "view",
      "type": "function"
    },
    {
      "inputs": [],
      "name": "totalRaised",
      "outputs": [
        {
          "internalType": "uint256",
          "name": "",
          "type": "uint256"
        }
      ],
      "stateMutability": "view",
      "type": "function"
    },
    {
      "inputs": [],
      "name": "unpause",
      "outputs": [],
      "stateMutability": "nonpayable",
      "type": "function"
    },
    {
      "inputs": [],
      "name": "vestingVault",
      "outputs": [
        {
          "internalType": "address",
          "name": "",
          "type": "address"
        }
      ],
      "stateMutability": "view",
      "type": "function"
    },
    {
      "stateMutability": "payable",
      "type": "receive"
    }
  ],
  "bytecode": "0x6101e0346200039557601f6200282738819003918201601f19168301916001600160401b038311848410176200035b578084926101809460405283398101031262000395576200004f816200039a565b906200005e602082016200039a565b916040820151926060830151608084015160a085015160c08601519060e0870151926200008f61010089016200039a565b946200009f6101208a016200039a565b99620000be610160620000b66101408d016200039a565b9b016200039a565b97600160005581831062000383578587111562000383576001600160a01b0388161562000371576001600160a01b038c161562000371576001600160a01b038b16156200037157620001529960805260a05260c05260e05261010052610120526101405261016052610180526101a09384526101c092835260ff19600754166007556200014b81620003af565b5062000430565b50604051608081016001600160401b038111828210176200035b57604052603260606101f49283815260fa602082015260c86040820152015260035560fa60045560c86005556032600655604051906123339283620004d4843960805183818161079e01528181610a9601528181610b1901528181610c9a01528181610d0001528181611303015281816114e1015261176c015260a0518381816103150152818161110a01528181611551015281816117ed015281816118a10152818161191e015281816119f901528181611a2801528181611a7c0152611b6e015260c0518381816104310152818161072b01528181610e2201528181610f490152611457015260e0518381816101ea01528181610f6f015281816110db0152818161161b01526121f20152610100518381816104d50152611082015261012051838181610e5d01526110a901526101405183818161052e01528181610ef201528181610f950152612101015261016051838181610fbb01528181611b3501526121ae0152610180518381816109d90152818161127d0152818161158201528181611857015281816118e0015261199e01525182818161062401528181610766015281816107ef015281816108380152818161088701528181610cdf015261149a0152518181816106690152818161098d015281816114c0015281816115e50152818161172a01526117cc0152f35b634e487b7160e01b600052604160045260246000fd5b60405163e6c4247b60e01b8152600490fd5b6040516307a92f1960e51b8152600490fd5b600080fd5b51906001600160a01b03821682036200039557565b6001600160a01b031660008181527fac33ff75c19e70fe83507db0d683fd3465c996598dc972688b7ace676c89077b602052604081205490919060ff166200042c5781805260026020526040822081835260205260408220600160ff198254161790553391600080516020620028078339815191528180a4600190565b5090565b6001600160a01b031660008181527fe5ebfa64fca8d502a8e50c1edffd2c31ef4dad5b396e65d9f397fb028f74abc560205260408120549091907fa49807205ce4d355092ef5a8a18f56e8913cf4a201fbe287825b095693c217759060ff16620004ce5780835260026020526040832082845260205260408320600160ff1982541617905560008051602062002807833981519152339380a4600190565b50509056fe608080604052600436101561001d575b50361561001b57600080fd5b005b600090813560e01c90816301ffc9a714611ced575080630b4f3f3d14611c675780631e5eb1d014611c30578063200d2ed214611c08578063248a9ca314611bdb5780632f2ff15d14611b9d5780633013ce2914611b585780633197cbb614611b1d57806336568abe14611ad5578063387cd2cb146114125780633f4ba83a146113a757806342e94c901461136e5780634a3b68cc146113325780634b60ce77146112ed57806350e15fdd146112cf5780635c975abb146112ac5780636052970c1461126757806360b0b0f01461102157806375b238fc14610fe6578063767fa72314610f1557806378e9792514610eda5780638456cb5914610e805780638d3d657614610e45578063906a26e014610e0a57806391d1485414610dbe5780639e21bf18146106d2578063a217fddf146106b6578063a4317ef414610698578063a4475ce414610653578063a5917baf1461060e578063a5df9c62146105eb578063a9eddf99146104f8578063aaffadf3146104bd578063b30ca2da146103f5578063b5545a3c146102b8578063c5c4744c1461029a578063cd78d92c14610252578063d547741f146102105763fb86a4040361000f573461020d578060031936011261020d5760206040517f00000000000000000000000000000000000000000000000000000000000000008152f35b80fd5b503461020d57604036600319011261020d5761024e600435610230611db3565b9080845260026020526102496001604086200154611e73565b611f19565b5080f35b503461020d57602036600319011261020d576040906001600160a01b0380610278611dc9565b168252600c602052828083205492600d60205220541682519182526020820152f35b503461020d578060031936011261020d576020600854604051908152f35b503461020d578060031936011261020d576102d16120d4565b60ff6007541660068110156103e157600481141590816103d5575b506103c357338152600c602052604081205480156103b157338252600c602052604082208290557f00000000000000000000000000000000000000000000000000000000000000006001600160a01b031681816103a15783808093508092335af1610355612259565b501561038f575b6040519081527fd7dee2702d63ad89917b6a4da9981c90c4d24f8c2bdfd64c604ecae57d8d065160203392a26001815580f35b60405163b9da5d2b60e01b8152600490fd5b6103ac913390612299565b61035c565b604051631971fbf360e21b8152600490fd5b604051630b4d698160e01b8152600490fd5b600591501415386102ec565b634e487b7160e01b82526021600452602482fd5b503461020d5761040436611d46565b61040c611df9565b6104146120f7565b6007549160ff831660068110156104a957600203610497576008547f000000000000000000000000000000000000000000000000000000000000000011156104975760047f5b55eccea968a9bf1df9a6702e20475ac67bb0d7f402f51701eef38e619368fe9360ff191617600755610491604051928392836122d5565b0390a180f35b6040516307a92f1960e51b8152600490fd5b634e487b7160e01b85526021600452602485fd5b503461020d578060031936011261020d5760206040517f00000000000000000000000000000000000000000000000000000000000000008152f35b503461020d57608036600319011261020d57610512611df9565b60ff6007541660068110156103e1576105da576008546105da577f00000000000000000000000000000000000000000000000000000000000000004210156105da576044356024356004356105678383611f90565b6105746064358092611f90565b82036105c8577f0ad166d8be1925ee44c5a77600b8a5f7e58cbe711c0dbd99624014a81b8350ba9360809383600355806004558160055582600655604051938452602084015260408301526060820152a180f35b604051632b00a33d60e11b8152600490fd5b60405162b5d7e160e81b8152600490fd5b503461020d578060031936011261020d57602060ff600b54166040519015158152f35b503461020d578060031936011261020d576040517f00000000000000000000000000000000000000000000000000000000000000006001600160a01b03168152602090f35b503461020d578060031936011261020d576040517f00000000000000000000000000000000000000000000000000000000000000006001600160a01b03168152602090f35b503461020d578060031936011261020d576020600954604051908152f35b503461020d578060031936011261020d57602090604051908152f35b503461020d576106e136611ddf565b916106ea611df9565b6106f26120d4565b60ff6007541660068110156104a957600314610dac576107106120f7565b60ff6007541660068110156104a957600203610497576008547f000000000000000000000000000000000000000000000000000000000000000011610d9a576040516370a0823160e01b81526001600160a01b037f000000000000000000000000000000000000000000000000000000000000000081166004830152859360249290916020908290859082907f0000000000000000000000000000000000000000000000000000000000000000165afa908115610bdb578791610d68575b50818110610c71575b50604051632eb4a7ab60e01b815283906020816004817f00000000000000000000000000000000000000000000000000000000000000006001600160a01b03165afa908115610c66578891610c34575b5080610c2a57508015610c185786917f00000000000000000000000000000000000000000000000000000000000000006001600160a01b03163b15610c1457604051637c382d0b60e01b81526004810192909252838201528181604481837f00000000000000000000000000000000000000000000000000000000000000006001600160a01b03165af18015610c0957610bf1575b50505b849380151580610be6575b610a6a575b50504260095560ff19926003846007541617600755479285869585151580610a5d575b610948575b50907fc4cc84355ef3f7327b5aa6c366cafe189c44e1a7807ce501f6f3a503a66717e89560c095949392604051958652602086015260408501526060840152608083015260a0820152a16001815580f35b95505061271061095a60035486612239565b046001610967828761224c565b96600b541617600b55806109d7575b85610982575b386108f7565b9392919086808080897f00000000000000000000000000000000000000000000000000000000000000005af16109b6612259565b50156109c5579091929361097c565b604051633d2cec6f60e21b8152600490fd5b7f00000000000000000000000000000000000000000000000000000000000000006001600160a01b031687813b1561020d5780839260046040518095819363990087b760e01b83525af19182610a45575b5050610a40576040516354ce345960e01b8152600490fd5b610976565b610a4e90611fb3565b610a59578738610a28565b8780fd5b5060ff600b5416156108f2565b909350610a79600a548261224c565b6040516370a0823160e01b815230600482015290949060208183817f00000000000000000000000000000000000000000000000000000000000000006001600160a01b03165afa8015610bdb5786918891610ba1575b5010610b8f5760405163a9059cbb60e01b602082015261dead828201526044808201879052815290608082019067ffffffffffffffff821183831017610b7b5750604052610b46907f00000000000000000000000000000000000000000000000000000000000000006001600160a01b031661204e565b600a557f3316cd92e8029a9d825199ad5d83f540869e52a9d77cf97560178a0b5ebac6fb602084604051908152a138806108cf565b634e487b7160e01b60009081526041600452fd5b604051637222ae5760e11b8152600490fd5b9150506020813d602011610bd3575b81610bbd60209383611fe3565b81010312610bce5785905138610acf565b600080fd5b3d9150610bb0565b6040513d89823e3d90fd5b5080600a54106108ca565b610bfa90611fb3565b610c055784386108bc565b8480fd5b6040513d84823e3d90fd5b8280fd5b604051639dd854d360e01b8152600490fd5b93506108bf915050565b90506020813d602011610c5e575b81610c4f60209383611fe3565b81010312610a59575138610827565b3d9150610c42565b6040513d8a823e3d90fd5b81610c7d92955061224c565b6040516370a0823160e01b815230600482015290939060208184817f00000000000000000000000000000000000000000000000000000000000000006001600160a01b03165afa8015610bdb5785918891610d33575b5010610b8f57610d2d847f00000000000000000000000000000000000000000000000000000000000000007f00000000000000000000000000000000000000000000000000000000000000006001600160a01b0316612299565b386107d7565b9150506020813d602011610d60575b81610d4f60209383611fe3565b81010312610bce5784905138610cd3565b3d9150610d42565b90506020813d602011610d92575b81610d8360209383611fe3565b81010312610bce5751386107ce565b3d9150610d76565b6040516346c21a5560e01b8152600490fd5b60405163475a253560e01b8152600490fd5b503461020d57604036600319011261020d576040610dda611db3565b9160043581526002602052209060018060a01b0316600052602052602060ff604060002054166040519015158152f35b503461020d578060031936011261020d5760206040517f00000000000000000000000000000000000000000000000000000000000000008152f35b503461020d578060031936011261020d5760206040517f00000000000000000000000000000000000000000000000000000000000000008152f35b503461020d578060031936011261020d57610e99611df9565b610ea16120b6565b600160ff19815416176001557f62e78cea01bee320cd4e420270b5ea74000d11b0c9f74754ebdbfc544b05a2586020604051338152a180f35b503461020d578060031936011261020d5760206040517f00000000000000000000000000000000000000000000000000000000000000008152f35b503461020d578060031936011261020d5760e060ff6007541660085460095490610f426040518094611d90565b60208301527f000000000000000000000000000000000000000000000000000000000000000060408301527f000000000000000000000000000000000000000000000000000000000000000060608301527f000000000000000000000000000000000000000000000000000000000000000060808301527f000000000000000000000000000000000000000000000000000000000000000060a083015260c0820152f35b503461020d578060031936011261020d5760206040517fa49807205ce4d355092ef5a8a18f56e8913cf4a201fbe287825b095693c217758152f35b50604036600319011261020d57600435611039611db3565b906110426120d4565b61104a6120b6565b6110526120f7565b60ff6007541660068110156112535760010361049757338352602091600c8352611080826040862054611f90565b7f00000000000000000000000000000000000000000000000000000000000000008110611241577f00000000000000000000000000000000000000000000000000000000000000001061122f576110d982600854611f90565b7f00000000000000000000000000000000000000000000000000000000000000001061121d576001600160a01b03827f00000000000000000000000000000000000000000000000000000000000000008216806111e75750340361049757807fec470969f3350ca5a15f0d85053f8763ffd0ee39c7b74fcdc5af7862718e292a925b338752600c865260408720611171868254611f90565b905561117f85600854611f90565b60085516801515806111d2575b6111b0575b50338552600d8452604085205416926040519283523392a36001815580f35b338652600d85526040862080546001600160a01b031916909117905538611191565b50338652600d8552816040872054161561118c565b9261121883927fec470969f3350ca5a15f0d85053f8763ffd0ee39c7b74fcdc5af7862718e292a9530903390612005565b61115b565b604051631c4af3c960e11b8152600490fd5b6040516374368fb960e11b8152600490fd5b60405163860b82a960e01b8152600490fd5b634e487b7160e01b84526021600452602484fd5b503461020d578060031936011261020d576040517f00000000000000000000000000000000000000000000000000000000000000006001600160a01b03168152602090f35b503461020d578060031936011261020d57602060ff600154166040519015158152f35b503461020d578060031936011261020d576020600a54604051908152f35b503461020d578060031936011261020d576040517f00000000000000000000000000000000000000000000000000000000000000006001600160a01b03168152602090f35b503461020d57602036600319011261020d576020906001600160a01b03906040908261135c611dc9565b168152600d8452205416604051908152f35b503461020d57602036600319011261020d576020906040906001600160a01b03611396611dc9565b168152600c83522054604051908152f35b503461020d578060031936011261020d576113c0611df9565b60015460ff8116156114005760ff19166001557f5db9ee0a495bf2e6ff9c91a7834c1ba4fdd244a5e8aa4e537bd38aeae4b073aa6020604051338152a180f35b604051638dfc202b60e01b8152600490fd5b503461020d5761142136611ddf565b919061142b611df9565b6114336120d4565b61143b6120f7565b60ff6007541660068110156104a95760020361049757600854917f00000000000000000000000000000000000000000000000000000000000000008310610d9a578461149761271061148f60035487612239565b04809561224c565b927f000000000000000000000000000000000000000000000000000000000000000061150e82827f00000000000000000000000000000000000000000000000000000000000000007f00000000000000000000000000000000000000000000000000000000000000006001600160a01b0316612005565b6001600160a01b031692833b15610c1457604490836040519586948593637c382d0b60e01b8552600485015260248401525af18015611aca57611ab7575b5083907f00000000000000000000000000000000000000000000000000000000000000006001600160a01b0316158015611842577f00000000000000000000000000000000000000000000000000000000000000006001600160a01b0316803b1561183e5783859160046040518094819363990087b760e01b83525af190811561183357849161181f575b50505b156117c557818080927f00000000000000000000000000000000000000000000000000000000000000005af161160e612259565b501561038f575b600854917f000000000000000000000000000000000000000000000000000000000000000092838110806117bc575b61169c575b847ff3e2f1d90bd58f6807b6468783c27fdc68307b057882b3ca4eb0f3bb2116789960608542600955600360ff196007541617600755600854906040519182526020820152426040820152a16001815580f35b906116aa6116b0928561224c565b90612239565b9082156117a6577ff3e2f1d90bd58f6807b6468783c27fdc68307b057882b3ca4eb0f3bb211678999260609204806116eb575b819250611649565b60207f3316cd92e8029a9d825199ad5d83f540869e52a9d77cf97560178a0b5ebac6fb916117996040516323b872dd60e01b8482015260018060a01b037f000000000000000000000000000000000000000000000000000000000000000016602482015261dead60448201528260648201526064815261176a81611fc7565b7f00000000000000000000000000000000000000000000000000000000000000006001600160a01b031661204e565b604051908152a1386116e3565b634e487b7160e01b600052601260045260246000fd5b50811515611644565b61181a91507f00000000000000000000000000000000000000000000000000000000000000007f00000000000000000000000000000000000000000000000000000000000000006001600160a01b0316612299565b611615565b61182890611fb3565b610c145782386115d7565b6040513d86823e3d90fd5b8380fd5b60405163095ea7b360e01b60208083018281527f00000000000000000000000000000000000000000000000000000000000000006001600160a01b0316602485015260448085018990528452869061189b606486611fe3565b845190827f00000000000000000000000000000000000000000000000000000000000000006001600160a01b03165af185513d82611a72575b505015611989575b50507f00000000000000000000000000000000000000000000000000000000000000006001600160a01b0316803b1561183e5760405163398da91160e01b81527f00000000000000000000000000000000000000000000000000000000000000006001600160a01b03166004820152602481018690529084908290604490829084905af1908115611833578491611975575b50506115da565b61197e90611fb3565b610c1457823861196e565b90935060405190602082015260018060a01b037f00000000000000000000000000000000000000000000000000000000000000001660248201528660448201526044815280608081011067ffffffffffffffff608083011117611a5c57608081016040528693611a5591611a26907f00000000000000000000000000000000000000000000000000000000000000006001600160a01b031661204e565b7f00000000000000000000000000000000000000000000000000000000000000006001600160a01b031661204e565b38806118dc565b634e487b7160e01b600052604160045260246000fd5b909150611aaf57507f00000000000000000000000000000000000000000000000000000000000000006001600160a01b03163b15155b38806118d4565b600114611aa8565b611ac390949194611fb3565b923861154c565b6040513d87823e3d90fd5b503461020d57604036600319011261020d57611aef611db3565b336001600160a01b03821603611b0b5761024e90600435611f19565b60405163334bd91960e11b8152600490fd5b503461020d578060031936011261020d5760206040517f00000000000000000000000000000000000000000000000000000000000000008152f35b503461020d578060031936011261020d576040517f00000000000000000000000000000000000000000000000000000000000000006001600160a01b03168152602090f35b503461020d57604036600319011261020d5761024e600435611bbd611db3565b908084526002602052611bd66001604086200154611e73565b611e99565b503461020d57602036600319011261020d5760016040602092600435815260028452200154604051908152f35b503461020d578060031936011261020d57602060ff60075416611c2e6040518092611d90565bf35b503461020d578060031936011261020d57608060035460045460055460065491604051938452602084015260408301526060820152f35b503461020d57611c7636611d46565b611c7e611df9565b611c866120f7565b6007549160ff831660068110156104a9578015159081611ce1575b506104975760057f2ac842f90dab3279148f7e55ac91d911f75c1c300a202a5250e05400b15fa1569360ff191617600755610491604051928392836122d5565b60019150141538611ca1565b905034611d42576020366003190112611d425760043563ffffffff60e01b8116809103610c145760209250637965db0b60e01b8114908115611d31575b5015158152f35b6301ffc9a760e01b14905038611d2a565b5080fd5b906020600319830112610bce5760043567ffffffffffffffff92838211610bce5780602383011215610bce578160040135938411610bce5760248483010111610bce576024019190565b906006821015611d9d5752565b634e487b7160e01b600052602160045260246000fd5b602435906001600160a01b0382168203610bce57565b600435906001600160a01b0382168203610bce57565b6060906003190112610bce57600435906024359060443590565b3360009081527fe5ebfa64fca8d502a8e50c1edffd2c31ef4dad5b396e65d9f397fb028f74abc560205260409020547fa49807205ce4d355092ef5a8a18f56e8913cf4a201fbe287825b095693c217759060ff1615611e555750565b6044906040519063e2517d3f60e01b82523360048301526024820152fd5b80600052600260205260406000203360005260205260ff6040600020541615611e555750565b906000918083526002602052604083209160018060a01b03169182845260205260ff60408420541615600014611f145780835260026020526040832082845260205260408320600160ff198254161790557f2f8788117e7eff1d82e926ec794901d17c78024a50270940304540a733656f0d339380a4600190565b505090565b906000918083526002602052604083209160018060a01b03169182845260205260ff604084205416600014611f14578083526002602052604083208284526020526040832060ff1981541690557ff6391f5c32d9c69d2a47ea670b442974b53935d1edc7fd64eb21e047a839171b339380a4600190565b91908201809211611f9d57565b634e487b7160e01b600052601160045260246000fd5b67ffffffffffffffff8111611a5c57604052565b60a0810190811067ffffffffffffffff821117611a5c57604052565b90601f8019910116810190811067ffffffffffffffff821117611a5c57604052565b6040516323b872dd60e01b60208201526001600160a01b03928316602482015292909116604483015260648083019390935291815261204c9161204782611fc7565b61204e565b565b906000602091828151910182855af1156120aa576000513d6120a157506001600160a01b0381163b155b61207f5750565b604051635274afe760e01b81526001600160a01b039091166004820152602490fd5b60011415612078565b6040513d6000823e3d90fd5b60ff600154166120c257565b60405163d93c066560e01b8152600490fd5b6002600054146120e5576002600055565b604051633ee5aeb560e01b8152600490fd5b60075460ff8116907f000000000000000000000000000000000000000000000000000000000000000042101580612228575b612218575b5060075460ff81166006811015611d9d576001146121ac575b5060ff600754166006811015611d9d576006821015611d9d5780820361216b575050565b7f0d643a1384921de4b8ad16df0a695f1e75fcfe3bcac27f9c5c8cee4645872382916121a960409261219f84518094611d90565b6020830190611d90565ba1565b7f000000000000000000000000000000000000000000000000000000000000000042108015906121ec575b156121475760ff191660021760075538612147565b506008547f000000000000000000000000000000000000000000000000000000000000000011156121d7565b60ff19166001176007553861212e565b506006821015611d9d578115612129565b81810292918115918404141715611f9d57565b91908203918211611f9d57565b3d15612294573d9067ffffffffffffffff8211611a5c5760405191612288601f8201601f191660200184611fe3565b82523d6000602084013e565b606090565b60405163a9059cbb60e01b60208201526001600160a01b0392909216602483015260448083019390935291815261204c91612047606483611fe3565b90918060409360208452816020850152848401376000828201840152601f01601f191601019056fea2646970667358221220ec4b5f963f42bcc5b7fcc7b4b86e03de46e779f5c9c9a33bae23955ba3903a8764736f6c634300081400332f8788117e7eff1d82e926ec794901d17c78024a50270940304540a733656f0d",
  "linkReferences": {},
  "deployedLinkReferences": {}
}