{
  "_format": "hh-sol-artifact-1",
  "contractName": "PresaleRound",
  "sourceName": "contracts/std-presale/PresaleRound.sol",
  "abi": [
    {
      "inputs": [
        {
          "internalType": "address",
          "name": "_projectToken",
          "type": "address"
        },
        {
          "internalType": "address",
          "name": "_paymentToken",
          "type": "address"
        },
        {
          "internalType": "uint256",
          "name": "_softCap",
          "type": "uint256"
        },
        {
          "internalType": "uint256",
          "name": "_hardCap",
          "type": "uint256"
        },
        {
          "internalType": "uint256",
          "name": "_minContribution",
          "type": "uint256"
        },
        {
          "internalType": "uint256",
          "name": "_maxContribution",
          "type": "uint256"
        },
        {
          "internalType": "uint256",
          "name": "_startTime",
          "type": "uint256"
        },
        {
          "internalType": "uint256",
          "name": "_endTime",
          "type": "uint256"
        },
        {
          "internalType": "address",
          "name": "_feeSplitter",
          "type": "address"
        },
        {
          "internalType": "address",
          "name": "_vestingVault",
          "type": "address"
        },
        {
          "internalType": "address",
          "name": "_projectOwner",
          "type": "address"
        },
        {
          "internalType": "address",
          "name": "_admin",
          "type": "address"
        }
      ],
      "stateMutability": "nonpayable",
      "type": "constructor"
    },
    {
      "inputs": [],
      "name": "AccessControlBadConfirmation",
      "type": "error"
    },
    {
      "inputs": [
        {
          "internalType": "address",
          "name": "account",
          "type": "address"
        },
        {
          "internalType": "bytes32",
          "name": "neededRole",
          "type": "bytes32"
        }
      ],
      "name": "AccessControlUnauthorizedAccount",
      "type": "error"
    },
    {
      "inputs": [],
      "name": "BelowMinimum",
      "type": "error"
    },
    {
      "inputs": [],
      "name": "ConfigLocked",
      "type": "error"
    },
    {
      "inputs": [],
      "name": "ContributionLimitExceeded",
      "type": "error"
    },
    {
      "inputs": [],
      "name": "EnforcedPause",
      "type": "error"
    },
    {
      "inputs": [],
      "name": "ExpectedPause",
      "type": "error"
    },
    {
      "inputs": [],
      "name": "HardCapExceeded",
      "type": "error"
    },
    {
      "inputs": [],
      "name": "InvalidAddress",
      "type": "error"
    },
    {
      "inputs": [],
      "name": "InvalidFeeConfig",
      "type": "error"
    },
    {
      "inputs": [],
      "name": "InvalidStatus",
      "type": "error"
    },
    {
      "inputs": [],
      "name": "NoContribution",
      "type": "error"
    },
    {
      "inputs": [],
      "name": "ReentrancyGuardReentrantCall",
      "type": "error"
    },
    {
      "inputs": [],
      "name": "RefundNotAvailable",
      "type": "error"
    },
    {
      "inputs": [
        {
          "internalType": "address",
          "name": "token",
          "type": "address"
        }
      ],
      "name": "SafeERC20FailedOperation",
      "type": "error"
    },
    {
      "inputs": [],
      "name": "SoftCapNotMet",
      "type": "error"
    },
    {
      "inputs": [],
      "name": "VestingFundingFailed",
      "type": "error"
    },
    {
      "anonymous": false,
      "inputs": [
        {
          "indexed": false,
          "internalType": "string",
          "name": "reason",
          "type": "string"
        }
      ],
      "name": "Cancelled",
      "type": "event"
    },
    {
      "anonymous": false,
      "inputs": [
        {
          "indexed": true,
          "internalType": "address",
          "name": "contributor",
          "type": "address"
        },
        {
          "indexed": false,
          "internalType": "uint256",
          "name": "amount",
          "type": "uint256"
        },
        {
          "indexed": true,
          "internalType": "address",
          "name": "referrer",
          "type": "address"
        }
      ],
      "name": "Contributed",
      "type": "event"
    },
    {
      "anonymous": false,
      "inputs": [
        {
          "components": [
            {
              "internalType": "uint256",
              "name": "totalBps",
              "type": "uint256"
            },
            {
              "internalType": "uint256",
              "name": "treasuryBps",
              "type": "uint256"
            },
            {
              "internalType": "uint256",
              "name": "referralPoolBps",
              "type": "uint256"
            },
            {
              "internalType": "uint256",
              "name": "sbtStakingBps",
              "type": "uint256"
            }
          ],
          "indexed": false,
          "internalType": "struct PresaleRound.FeeConfig",
          "name": "newConfig",
          "type": "tuple"
        }
      ],
      "name": "FeeConfigUpdated",
      "type": "event"
    },
    {
      "anonymous": false,
      "inputs": [
        {
          "indexed": false,
          "internalType": "string",
          "name": "reason",
          "type": "string"
        }
      ],
      "name": "FinalizedFailed",
      "type": "event"
    },
    {
      "anonymous": false,
      "inputs": [
        {
          "indexed": false,
          "internalType": "uint256",
          "name": "totalRaised",
          "type": "uint256"
        },
        {
          "indexed": false,
          "internalType": "uint256",
          "name": "feeAmount",
          "type": "uint256"
        },
        {
          "indexed": false,
          "internalType": "uint256",
          "name": "tgeTimestamp",
          "type": "uint256"
        }
      ],
      "name": "FinalizedSuccess",
      "type": "event"
    },
    {
      "anonymous": false,
      "inputs": [
        {
          "indexed": false,
          "internalType": "address",
          "name": "account",
          "type": "address"
        }
      ],
      "name": "Paused",
      "type": "event"
    },
    {
      "anonymous": false,
      "inputs": [
        {
          "indexed": true,
          "internalType": "address",
          "name": "contributor",
          "type": "address"
        },
        {
          "indexed": false,
          "internalType": "uint256",
          "name": "amount",
          "type": "uint256"
        }
      ],
      "name": "Refunded",
      "type": "event"
    },
    {
      "anonymous": false,
      "inputs": [
        {
          "indexed": true,
          "internalType": "bytes32",
          "name": "role",
          "type": "bytes32"
        },
        {
          "indexed": true,
          "internalType": "bytes32",
          "name": "previousAdminRole",
          "type": "bytes32"
        },
        {
          "indexed": true,
          "internalType": "bytes32",
          "name": "newAdminRole",
          "type": "bytes32"
        }
      ],
      "name": "RoleAdminChanged",
      "type": "event"
    },
    {
      "anonymous": false,
      "inputs": [
        {
          "indexed": true,
          "internalType": "bytes32",
          "name": "role",
          "type": "bytes32"
        },
        {
          "indexed": true,
          "internalType": "address",
          "name": "account",
          "type": "address"
        },
        {
          "indexed": true,
          "internalType": "address",
          "name": "sender",
          "type": "address"
        }
      ],
      "name": "RoleGranted",
      "type": "event"
    },
    {
      "anonymous": false,
      "inputs": [
        {
          "indexed": true,
          "internalType": "bytes32",
          "name": "role",
          "type": "bytes32"
        },
        {
          "indexed": true,
          "internalType": "address",
          "name": "account",
          "type": "address"
        },
        {
          "indexed": true,
          "internalType": "address",
          "name": "sender",
          "type": "address"
        }
      ],
      "name": "RoleRevoked",
      "type": "event"
    },
    {
      "anonymous": false,
      "inputs": [
        {
          "indexed": false,
          "internalType": "enum PresaleRound.Status",
          "name": "oldStatus",
          "type": "uint8"
        },
        {
          "indexed": false,
          "internalType": "enum PresaleRound.Status",
          "name": "newStatus",
          "type": "uint8"
        }
      ],
      "name": "StatusSynced",
      "type": "event"
    },
    {
      "anonymous": false,
      "inputs": [
        {
          "indexed": false,
          "internalType": "address",
          "name": "account",
          "type": "address"
        }
      ],
      "name": "Unpaused",
      "type": "event"
    },
    {
      "anonymous": false,
      "inputs": [
        {
          "indexed": false,
          "internalType": "uint256",
          "name": "amount",
          "type": "uint256"
        }
      ],
      "name": "UnsoldTokensBurned",
      "type": "event"
    },
    {
      "inputs": [],
      "name": "ADMIN_ROLE",
      "outputs": [
        {
          "internalType": "bytes32",
          "name": "",
          "type": "bytes32"
        }
      ],
      "stateMutability": "view",
      "type": "function"
    },
    {
      "inputs": [],
      "name": "DEFAULT_ADMIN_ROLE",
      "outputs": [
        {
          "internalType": "bytes32",
          "name": "",
          "type": "bytes32"
        }
      ],
      "stateMutability": "view",
      "type": "function"
    },
    {
      "inputs": [
        {
          "internalType": "string",
          "name": "reason",
          "type": "string"
        }
      ],
      "name": "cancel",
      "outputs": [],
      "stateMutability": "nonpayable",
      "type": "function"
    },
    {
      "inputs": [],
      "name": "claimRefund",
      "outputs": [],
      "stateMutability": "nonpayable",
      "type": "function"
    },
    {
      "inputs": [
        {
          "internalType": "uint256",
          "name": "amount",
          "type": "uint256"
        },
        {
          "internalType": "address",
          "name": "referrer",
          "type": "address"
        }
      ],
      "name": "contribute",
      "outputs": [],
      "stateMutability": "payable",
      "type": "function"
    },
    {
      "inputs": [
        {
          "internalType": "address",
          "name": "",
          "type": "address"
        }
      ],
      "name": "contributions",
      "outputs": [
        {
          "internalType": "uint256",
          "name": "",
          "type": "uint256"
        }
      ],
      "stateMutability": "view",
      "type": "function"
    },
    {
      "inputs": [],
      "name": "endTime",
      "outputs": [
        {
          "internalType": "uint256",
          "name": "",
          "type": "uint256"
        }
      ],
      "stateMutability": "view",
      "type": "function"
    },
    {
      "inputs": [],
      "name": "feeConfig",
      "outputs": [
        {
          "internalType": "uint256",
          "name": "totalBps",
          "type": "uint256"
        },
        {
          "internalType": "uint256",
          "name": "treasuryBps",
          "type": "uint256"
        },
        {
          "internalType": "uint256",
          "name": "referralPoolBps",
          "type": "uint256"
        },
        {
          "internalType": "uint256",
          "name": "sbtStakingBps",
          "type": "uint256"
        }
      ],
      "stateMutability": "view",
      "type": "function"
    },
    {
      "inputs": [],
      "name": "feeSplitter",
      "outputs": [
        {
          "internalType": "address",
          "name": "",
          "type": "address"
        }
      ],
      "stateMutability": "view",
      "type": "function"
    },
    {
      "inputs": [
        {
          "internalType": "string",
          "name": "reason",
          "type": "string"
        }
      ],
      "name": "finalizeFailed",
      "outputs": [],
      "stateMutability": "nonpayable",
      "type": "function"
    },
    {
      "inputs": [
        {
          "internalType": "bytes32",
          "name": "merkleRoot",
          "type": "bytes32"
        },
        {
          "internalType": "uint256",
          "name": "totalVestingAllocation",
          "type": "uint256"
        },
        {
          "internalType": "uint256",
          "name": "totalTokensForSale",
          "type": "uint256"
        }
      ],
      "name": "finalizeSuccess",
      "outputs": [],
      "stateMutability": "nonpayable",
      "type": "function"
    },
    {
      "inputs": [
        {
          "internalType": "address",
          "name": "contributor",
          "type": "address"
        }
      ],
      "name": "getContributionInfo",
      "outputs": [
        {
          "internalType": "uint256",
          "name": "contribution",
          "type": "uint256"
        },
        {
          "internalType": "address",
          "name": "referrer",
          "type": "address"
        }
      ],
      "stateMutability": "view",
      "type": "function"
    },
    {
      "inputs": [],
      "name": "getPresaleInfo",
      "outputs": [
        {
          "internalType": "enum PresaleRound.Status",
          "name": "_status",
          "type": "uint8"
        },
        {
          "internalType": "uint256",
          "name": "_totalRaised",
          "type": "uint256"
        },
        {
          "internalType": "uint256",
          "name": "_softCap",
          "type": "uint256"
        },
        {
          "internalType": "uint256",
          "name": "_hardCap",
          "type": "uint256"
        },
        {
          "internalType": "uint256",
          "name": "_startTime",
          "type": "uint256"
        },
        {
          "internalType": "uint256",
          "name": "_endTime",
          "type": "uint256"
        },
        {
          "internalType": "uint256",
          "name": "_tgeTimestamp",
          "type": "uint256"
        }
      ],
      "stateMutability": "view",
      "type": "function"
    },
    {
      "inputs": [
        {
          "internalType": "bytes32",
          "name": "role",
          "type": "bytes32"
        }
      ],
      "name": "getRoleAdmin",
      "outputs": [
        {
          "internalType": "bytes32",
          "name": "",
          "type": "bytes32"
        }
      ],
      "stateMutability": "view",
      "type": "function"
    },
    {
      "inputs": [
        {
          "internalType": "bytes32",
          "name": "role",
          "type": "bytes32"
        },
        {
          "internalType": "address",
          "name": "account",
          "type": "address"
        }
      ],
      "name": "grantRole",
      "outputs": [],
      "stateMutability": "nonpayable",
      "type": "function"
    },
    {
      "inputs": [],
      "name": "hardCap",
      "outputs": [
        {
          "internalType": "uint256",
          "name": "",
          "type": "uint256"
        }
      ],
      "stateMutability": "view",
      "type": "function"
    },
    {
      "inputs": [
        {
          "internalType": "bytes32",
          "name": "role",
          "type": "bytes32"
        },
        {
          "internalType": "address",
          "name": "account",
          "type": "address"
        }
      ],
      "name": "hasRole",
      "outputs": [
        {
          "internalType": "bool",
          "name": "",
          "type": "bool"
        }
      ],
      "stateMutability": "view",
      "type": "function"
    },
    {
      "inputs": [],
      "name": "maxContribution",
      "outputs": [
        {
          "internalType": "uint256",
          "name": "",
          "type": "uint256"
        }
      ],
      "stateMutability": "view",
      "type": "function"
    },
    {
      "inputs": [],
      "name": "minContribution",
      "outputs": [
        {
          "internalType": "uint256",
          "name": "",
          "type": "uint256"
        }
      ],
      "stateMutability": "view",
      "type": "function"
    },
    {
      "inputs": [],
      "name": "pause",
      "outputs": [],
      "stateMutability": "nonpayable",
      "type": "function"
    },
    {
      "inputs": [],
      "name": "paused",
      "outputs": [
        {
          "internalType": "bool",
          "name": "",
          "type": "bool"
        }
      ],
      "stateMutability": "view",
      "type": "function"
    },
    {
      "inputs": [],
      "name": "paymentToken",
      "outputs": [
        {
          "internalType": "address",
          "name": "",
          "type": "address"
        }
      ],
      "stateMutability": "view",
      "type": "function"
    },
    {
      "inputs": [],
      "name": "projectOwner",
      "outputs": [
        {
          "internalType": "address",
          "name": "",
          "type": "address"
        }
      ],
      "stateMutability": "view",
      "type": "function"
    },
    {
      "inputs": [],
      "name": "projectToken",
      "outputs": [
        {
          "internalType": "address",
          "name": "",
          "type": "address"
        }
      ],
      "stateMutability": "view",
      "type": "function"
    },
    {
      "inputs": [
        {
          "internalType": "address",
          "name": "",
          "type": "address"
        }
      ],
      "name": "referrers",
      "outputs": [
        {
          "internalType": "address",
          "name": "",
          "type": "address"
        }
      ],
      "stateMutability": "view",
      "type": "function"
    },
    {
      "inputs": [
        {
          "internalType": "bytes32",
          "name": "role",
          "type": "bytes32"
        },
        {
          "internalType": "address",
          "name": "callerConfirmation",
          "type": "address"
        }
      ],
      "name": "renounceRole",
      "outputs": [],
      "stateMutability": "nonpayable",
      "type": "function"
    },
    {
      "inputs": [
        {
          "internalType": "bytes32",
          "name": "role",
          "type": "bytes32"
        },
        {
          "internalType": "address",
          "name": "account",
          "type": "address"
        }
      ],
      "name": "revokeRole",
      "outputs": [],
      "stateMutability": "nonpayable",
      "type": "function"
    },
    {
      "inputs": [
        {
          "components": [
            {
              "internalType": "uint256",
              "name": "totalBps",
              "type": "uint256"
            },
            {
              "internalType": "uint256",
              "name": "treasuryBps",
              "type": "uint256"
            },
            {
              "internalType": "uint256",
              "name": "referralPoolBps",
              "type": "uint256"
            },
            {
              "internalType": "uint256",
              "name": "sbtStakingBps",
              "type": "uint256"
            }
          ],
          "internalType": "struct PresaleRound.FeeConfig",
          "name": "newConfig",
          "type": "tuple"
        }
      ],
      "name": "setFeeConfig",
      "outputs": [],
      "stateMutability": "nonpayable",
      "type": "function"
    },
    {
      "inputs": [],
      "name": "softCap",
      "outputs": [
        {
          "internalType": "uint256",
          "name": "",
          "type": "uint256"
        }
      ],
      "stateMutability": "view",
      "type": "function"
    },
    {
      "inputs": [],
      "name": "startTime",
      "outputs": [
        {
          "internalType": "uint256",
          "name": "",
          "type": "uint256"
        }
      ],
      "stateMutability": "view",
      "type": "function"
    },
    {
      "inputs": [],
      "name": "status",
      "outputs": [
        {
          "internalType": "enum PresaleRound.Status",
          "name": "",
          "type": "uint8"
        }
      ],
      "stateMutability": "view",
      "type": "function"
    },
    {
      "inputs": [
        {
          "internalType": "bytes4",
          "name": "interfaceId",
          "type": "bytes4"
        }
      ],
      "name": "supportsInterface",
      "outputs": [
        {
          "internalType": "bool",
          "name": "",
          "type": "bool"
        }
      ],
      "stateMutability": "view",
      "type": "function"
    },
    {
      "inputs": [],
      "name": "tgeTimestamp",
      "outputs": [
        {
          "internalType": "uint256",
          "name": "",
          "type": "uint256"
        }
      ],
      "stateMutability": "view",
      "type": "function"
    },
    {
      "inputs": [],
      "name": "totalRaised",
      "outputs": [
        {
          "internalType": "uint256",
          "name": "",
          "type": "uint256"
        }
      ],
      "stateMutability": "view",
      "type": "function"
    },
    {
      "inputs": [],
      "name": "unpause",
      "outputs": [],
      "stateMutability": "nonpayable",
      "type": "function"
    },
    {
      "inputs": [],
      "name": "vestingVault",
      "outputs": [
        {
          "internalType": "address",
          "name": "",
          "type": "address"
        }
      ],
      "stateMutability": "view",
      "type": "function"
    }
  ],
  "bytecode": "0x6101e0346200033a57601f6200208b38819003918201601f19168301916001600160401b038311848410176200030057808492610180946040528339810103126200033a576200004f816200033f565b906200005e602082016200033f565b916040820151926060830151608084015160a085015160c08601519060e0870151926200008f61010089016200033f565b946200009f6101208a016200033f565b99620000be610160620000b66101408d016200033f565b9b016200033f565b97600160005581831062000328578587111562000328576001600160a01b0388161562000316576001600160a01b038c161562000316576001600160a01b038b16156200031657620001529960805260a05260c05260e05261010052610120526101405261016052610180526101a09384526101c092835260ff19600754166007556200014b8162000354565b50620003d5565b50604051608081016001600160401b038111828210176200030057604052603260606101f49283815260fa602082015260c86040820152015260035560fa60045560c8600555603260065560405190611bf29283620004798439608051838181610bb001528181610d92015261101f015260a0518381816102ef015281816109d501528181610e04015281816110a20152818161115a015281816111d7015281816112b2015281816112e1015281816113350152611442015260c05183818161040b015281816106ed015281816108140152610d08015260e0518381816101c40152818161083a015281816109a601528181610ece0152611ab10152610100518381816104af015261094d0152610120518381816107280152610974015261014051838181610508015281816107bd0152818161086001526119c0015261016051838181610886015281816114090152611a6d015261018051838181610b4801528181610e35015281816111100152818161119901526112570152518281816105db0152610d4b01525181818161062001528181610d7101528181610e9801528181610fdd01526110810152f35b634e487b7160e01b600052604160045260246000fd5b60405163e6c4247b60e01b8152600490fd5b6040516307a92f1960e51b8152600490fd5b600080fd5b51906001600160a01b03821682036200033a57565b6001600160a01b031660008181527fac33ff75c19e70fe83507db0d683fd3465c996598dc972688b7ace676c89077b602052604081205490919060ff16620003d15781805260026020526040822081835260205260408220600160ff1982541617905533916000805160206200206b8339815191528180a4600190565b5090565b6001600160a01b031660008181527fe5ebfa64fca8d502a8e50c1edffd2c31ef4dad5b396e65d9f397fb028f74abc560205260408120549091907fa49807205ce4d355092ef5a8a18f56e8913cf4a201fbe287825b095693c217759060ff16620004735780835260026020526040832082845260205260408320600160ff198254161790556000805160206200206b833981519152339380a4600190565b50509056fe608080604052600436101561001357600080fd5b600090813560e01c90816301ffc9a7146115c1575080630b4f3f3d1461153b5780631e5eb1d014611504578063200d2ed2146114dc578063248a9ca3146114af5780632f2ff15d146114715780633013ce291461142c5780633197cbb6146113f157806336568abe146113a9578063387cd2cb14610cbf5780633f4ba83a14610c5457806342e94c9014610c1b5780634a3b68cc14610bdf5780634b60ce7714610b9a5780635c975abb14610b775780636052970c14610b3257806360b0b0f0146108ec57806375b238fc146108b1578063767fa723146107e057806378e97925146107a55780638456cb591461074b5780638d3d657614610710578063906a26e0146106d557806391d1485414610689578063a217fddf1461066d578063a4317ef41461064f578063a4475ce41461060a578063a5917baf146105c5578063a9eddf99146104d2578063aaffadf314610497578063b30ca2da146103cf578063b5545a3c14610292578063c5c4744c14610274578063cd78d92c1461022c578063d547741f146101ea5763fb86a404146101ad57600080fd5b346101e757806003193601126101e75760206040517f00000000000000000000000000000000000000000000000000000000000000008152f35b80fd5b50346101e75760403660031901126101e75761022860043561020a61168c565b9080845260026020526102236001604086200154611732565b6117d8565b5080f35b50346101e75760203660031901126101e7576040906001600160a01b03806102526116a2565b168252600a602052828083205492600b60205220541682519182526020820152f35b50346101e757806003193601126101e7576020600854604051908152f35b50346101e757806003193601126101e7576102ab611993565b60ff6007541660068110156103bb57600481141590816103af575b5061039d57338152600a6020526040812054801561038b57338252600a602052604082208290557f00000000000000000000000000000000000000000000000000000000000000006001600160a01b0316818161037b5783808093508092335af161032f611b18565b5015610369575b6040519081527fd7dee2702d63ad89917b6a4da9981c90c4d24f8c2bdfd64c604ecae57d8d065160203392a26001815580f35b60405163b9da5d2b60e01b8152600490fd5b610386913390611b58565b610336565b604051631971fbf360e21b8152600490fd5b604051630b4d698160e01b8152600490fd5b600591501415386102c6565b634e487b7160e01b82526021600452602482fd5b50346101e7576103de3661161a565b6103e66116b8565b6103ee6119b6565b6007549160ff8316600681101561048357600203610471576008547f000000000000000000000000000000000000000000000000000000000000000011156104715760047f5b55eccea968a9bf1df9a6702e20475ac67bb0d7f402f51701eef38e619368fe9360ff19161760075561046b60405192839283611b94565b0390a180f35b6040516307a92f1960e51b8152600490fd5b634e487b7160e01b85526021600452602485fd5b50346101e757806003193601126101e75760206040517f00000000000000000000000000000000000000000000000000000000000000008152f35b50346101e75760803660031901126101e7576104ec6116b8565b60ff6007541660068110156103bb576105b4576008546105b4577f00000000000000000000000000000000000000000000000000000000000000004210156105b457604435602435600435610541838361184f565b61054e606435809261184f565b82036105a2577f0ad166d8be1925ee44c5a77600b8a5f7e58cbe711c0dbd99624014a81b8350ba9360809383600355806004558160055582600655604051938452602084015260408301526060820152a180f35b604051632b00a33d60e11b8152600490fd5b60405162b5d7e160e81b8152600490fd5b50346101e757806003193601126101e7576040517f00000000000000000000000000000000000000000000000000000000000000006001600160a01b03168152602090f35b50346101e757806003193601126101e7576040517f00000000000000000000000000000000000000000000000000000000000000006001600160a01b03168152602090f35b50346101e757806003193601126101e7576020600954604051908152f35b50346101e757806003193601126101e757602090604051908152f35b50346101e75760403660031901126101e75760406106a561168c565b9160043581526002602052209060018060a01b0316600052602052602060ff604060002054166040519015158152f35b50346101e757806003193601126101e75760206040517f00000000000000000000000000000000000000000000000000000000000000008152f35b50346101e757806003193601126101e75760206040517f00000000000000000000000000000000000000000000000000000000000000008152f35b50346101e757806003193601126101e7576107646116b8565b61076c611975565b600160ff19815416176001557f62e78cea01bee320cd4e420270b5ea74000d11b0c9f74754ebdbfc544b05a2586020604051338152a180f35b50346101e757806003193601126101e75760206040517f00000000000000000000000000000000000000000000000000000000000000008152f35b50346101e757806003193601126101e75760e060ff600754166008546009549061080d6040518094611669565b60208301527f000000000000000000000000000000000000000000000000000000000000000060408301527f000000000000000000000000000000000000000000000000000000000000000060608301527f000000000000000000000000000000000000000000000000000000000000000060808301527f000000000000000000000000000000000000000000000000000000000000000060a083015260c0820152f35b50346101e757806003193601126101e75760206040517fa49807205ce4d355092ef5a8a18f56e8913cf4a201fbe287825b095693c217758152f35b5060403660031901126101e75760043561090461168c565b9061090d611993565b610915611975565b61091d6119b6565b60ff600754166006811015610b1e5760010361047157338352602091600a835261094b82604086205461184f565b7f00000000000000000000000000000000000000000000000000000000000000008110610b0c577f000000000000000000000000000000000000000000000000000000000000000010610afa576109a48260085461184f565b7f000000000000000000000000000000000000000000000000000000000000000010610ae8576001600160a01b03827f0000000000000000000000000000000000000000000000000000000000000000821680610ab25750340361047157807fec470969f3350ca5a15f0d85053f8763ffd0ee39c7b74fcdc5af7862718e292a925b338752600a865260408720610a3c86825461184f565b9055610a4a8560085461184f565b6008551680151580610a9d575b610a7b575b50338552600b8452604085205416926040519283523392a36001815580f35b338652600b85526040862080546001600160a01b031916909117905538610a5c565b50338652600b85528160408720541615610a57565b92610ae383927fec470969f3350ca5a15f0d85053f8763ffd0ee39c7b74fcdc5af7862718e292a95309033906118c4565b610a26565b604051631c4af3c960e11b8152600490fd5b6040516374368fb960e11b8152600490fd5b60405163860b82a960e01b8152600490fd5b634e487b7160e01b84526021600452602484fd5b50346101e757806003193601126101e7576040517f00000000000000000000000000000000000000000000000000000000000000006001600160a01b03168152602090f35b50346101e757806003193601126101e757602060ff600154166040519015158152f35b50346101e757806003193601126101e7576040517f00000000000000000000000000000000000000000000000000000000000000006001600160a01b03168152602090f35b50346101e75760203660031901126101e7576020906001600160a01b039060409082610c096116a2565b168152600b8452205416604051908152f35b50346101e75760203660031901126101e7576020906040906001600160a01b03610c436116a2565b168152600a83522054604051908152f35b50346101e757806003193601126101e757610c6d6116b8565b60015460ff811615610cad5760ff19166001557f5db9ee0a495bf2e6ff9c91a7834c1ba4fdd244a5e8aa4e537bd38aeae4b073aa6020604051338152a180f35b604051638dfc202b60e01b8152600490fd5b50346101e75760603660031901126101e757602435610cdc6116b8565b610ce4611993565b610cec6119b6565b60ff6007541660068110156113955760020361047157600854907f000000000000000000000000000000000000000000000000000000000000000082106113835782610d48612710610d4060035486611af8565b048094611b0b565b917f0000000000000000000000000000000000000000000000000000000000000000610dbf82827f00000000000000000000000000000000000000000000000000000000000000007f00000000000000000000000000000000000000000000000000000000000000006001600160a01b03166118c4565b6001600160a01b0316803b156110e857604483926040519485938492637c382d0b60e01b8452600435600485015260248401525af180156110ec57611370575b5082907f00000000000000000000000000000000000000000000000000000000000000006001600160a01b03161580156110fb577f00000000000000000000000000000000000000000000000000000000000000006001600160a01b0316803b156110f75783859160046040518094819363990087b760e01b83525af19081156110ec5784916110d4575b50505b1561107a57818080927f00000000000000000000000000000000000000000000000000000000000000005af1610ec1611b18565b5015610369575b600854907f0000000000000000000000000000000000000000000000000000000000000000918281108061106f575b610f4f575b837ff3e2f1d90bd58f6807b6468783c27fdc68307b057882b3ca4eb0f3bb2116789960608442600955600360ff196007541617600755600854906040519182526020820152426040820152a16001815580f35b610f5c610f649184611b0b565b604435611af8565b908215611059577ff3e2f1d90bd58f6807b6468783c27fdc68307b057882b3ca4eb0f3bb21167899926060920480610f9e575b5090610efc565b60207f3316cd92e8029a9d825199ad5d83f540869e52a9d77cf97560178a0b5ebac6fb9161104c6040516323b872dd60e01b8482015260018060a01b037f000000000000000000000000000000000000000000000000000000000000000016602482015261dead60448201528260648201526064815261101d81611886565b7f00000000000000000000000000000000000000000000000000000000000000006001600160a01b031661190d565b604051908152a138610f97565b634e487b7160e01b600052601260045260246000fd5b506044351515610ef7565b6110cf91507f00000000000000000000000000000000000000000000000000000000000000007f00000000000000000000000000000000000000000000000000000000000000006001600160a01b0316611b58565b610ec8565b6110dd90611872565b6110e8578238610e8a565b8280fd5b6040513d86823e3d90fd5b8380fd5b60405163095ea7b360e01b60208083018281527f00000000000000000000000000000000000000000000000000000000000000006001600160a01b031660248501526044808501899052845286906111546064866118a2565b845190827f00000000000000000000000000000000000000000000000000000000000000006001600160a01b03165af185513d8261132b575b505015611242575b50507f00000000000000000000000000000000000000000000000000000000000000006001600160a01b0316803b156110f75760405163398da91160e01b81527f00000000000000000000000000000000000000000000000000000000000000006001600160a01b03166004820152602481018690529084908290604490829084905af19081156110ec57849161122e575b5050610e8d565b61123790611872565b6110e8578238611227565b90935060405190602082015260018060a01b037f00000000000000000000000000000000000000000000000000000000000000001660248201528560448201526044815280608081011067ffffffffffffffff6080830111176113155760808101604052859361130e916112df907f00000000000000000000000000000000000000000000000000000000000000006001600160a01b031661190d565b7f00000000000000000000000000000000000000000000000000000000000000006001600160a01b031661190d565b3880611195565b634e487b7160e01b600052604160045260246000fd5b90915061136857507f00000000000000000000000000000000000000000000000000000000000000006001600160a01b03163b15155b388061118d565b600114611361565b61137c90939193611872565b9138610dff565b6040516346c21a5560e01b8152600490fd5b634e487b7160e01b83526021600452602483fd5b50346101e75760403660031901126101e7576113c361168c565b336001600160a01b038216036113df57610228906004356117d8565b60405163334bd91960e11b8152600490fd5b50346101e757806003193601126101e75760206040517f00000000000000000000000000000000000000000000000000000000000000008152f35b50346101e757806003193601126101e7576040517f00000000000000000000000000000000000000000000000000000000000000006001600160a01b03168152602090f35b50346101e75760403660031901126101e75761022860043561149161168c565b9080845260026020526114aa6001604086200154611732565b611758565b50346101e75760203660031901126101e75760016040602092600435815260028452200154604051908152f35b50346101e757806003193601126101e757602060ff600754166115026040518092611669565bf35b50346101e757806003193601126101e757608060035460045460055460065491604051938452602084015260408301526060820152f35b50346101e75761154a3661161a565b6115526116b8565b61155a6119b6565b6007549160ff831660068110156104835780151590816115b5575b506104715760057f2ac842f90dab3279148f7e55ac91d911f75c1c300a202a5250e05400b15fa1569360ff19161760075561046b60405192839283611b94565b60019150141538611575565b9050346116165760203660031901126116165760043563ffffffff60e01b81168091036110e85760209250637965db0b60e01b8114908115611605575b5015158152f35b6301ffc9a760e01b149050386115fe565b5080fd5b9060206003198301126116645760043567ffffffffffffffff9283821161166457806023830112156116645781600401359384116116645760248483010111611664576024019190565b600080fd5b9060068210156116765752565b634e487b7160e01b600052602160045260246000fd5b602435906001600160a01b038216820361166457565b600435906001600160a01b038216820361166457565b3360009081527fe5ebfa64fca8d502a8e50c1edffd2c31ef4dad5b396e65d9f397fb028f74abc560205260409020547fa49807205ce4d355092ef5a8a18f56e8913cf4a201fbe287825b095693c217759060ff16156117145750565b6044906040519063e2517d3f60e01b82523360048301526024820152fd5b80600052600260205260406000203360005260205260ff60406000205416156117145750565b906000918083526002602052604083209160018060a01b03169182845260205260ff604084205416156000146117d35780835260026020526040832082845260205260408320600160ff198254161790557f2f8788117e7eff1d82e926ec794901d17c78024a50270940304540a733656f0d339380a4600190565b505090565b906000918083526002602052604083209160018060a01b03169182845260205260ff6040842054166000146117d3578083526002602052604083208284526020526040832060ff1981541690557ff6391f5c32d9c69d2a47ea670b442974b53935d1edc7fd64eb21e047a839171b339380a4600190565b9190820180921161185c57565b634e487b7160e01b600052601160045260246000fd5b67ffffffffffffffff811161131557604052565b60a0810190811067ffffffffffffffff82111761131557604052565b90601f8019910116810190811067ffffffffffffffff82111761131557604052565b6040516323b872dd60e01b60208201526001600160a01b03928316602482015292909116604483015260648083019390935291815261190b9161190682611886565b61190d565b565b906000602091828151910182855af115611969576000513d61196057506001600160a01b0381163b155b61193e5750565b604051635274afe760e01b81526001600160a01b039091166004820152602490fd5b60011415611937565b6040513d6000823e3d90fd5b60ff6001541661198157565b60405163d93c066560e01b8152600490fd5b6002600054146119a4576002600055565b604051633ee5aeb560e01b8152600490fd5b60075460ff8116907f000000000000000000000000000000000000000000000000000000000000000042101580611ae7575b611ad7575b5060075460ff8116600681101561167657600114611a6b575b5060ff60075416600681101561167657600682101561167657808203611a2a575050565b7f0d643a1384921de4b8ad16df0a695f1e75fcfe3bcac27f9c5c8cee464587238291611a68604092611a5e84518094611669565b6020830190611669565ba1565b7f00000000000000000000000000000000000000000000000000000000000000004210801590611aab575b15611a065760ff191660021760075538611a06565b506008547f00000000000000000000000000000000000000000000000000000000000000001115611a96565b60ff1916600117600755386119ed565b5060068210156116765781156119e8565b8181029291811591840414171561185c57565b9190820391821161185c57565b3d15611b53573d9067ffffffffffffffff82116113155760405191611b47601f8201601f1916602001846118a2565b82523d6000602084013e565b606090565b60405163a9059cbb60e01b60208201526001600160a01b0392909216602483015260448083019390935291815261190b916119066064836118a2565b90918060409360208452816020850152848401376000828201840152601f01601f191601019056fea2646970667358221220d2274bc329aa510b8b7291976ec0ac3931520377fd56989d62e7607d19d4c78d64736f6c634300081400332f8788117e7eff1d82e926ec794901d17c78024a50270940304540a733656f0d",
  "linkReferences": {},
  "deployedLinkReferences": {}
}