{
  "_format": "hh-sol-artifact-1",
  "contractName": "PresaleRound",
  "sourceName": "contracts/PresaleRound.sol",
  "abi": [
    {
      "inputs": [
        {
          "internalType": "address",
          "name": "_projectToken",
          "type": "address"
        },
        {
          "internalType": "address",
          "name": "_paymentToken",
          "type": "address"
        },
        {
          "internalType": "uint256",
          "name": "_softCap",
          "type": "uint256"
        },
        {
          "internalType": "uint256",
          "name": "_hardCap",
          "type": "uint256"
        },
        {
          "internalType": "uint256",
          "name": "_minContribution",
          "type": "uint256"
        },
        {
          "internalType": "uint256",
          "name": "_maxContribution",
          "type": "uint256"
        },
        {
          "internalType": "uint256",
          "name": "_startTime",
          "type": "uint256"
        },
        {
          "internalType": "uint256",
          "name": "_endTime",
          "type": "uint256"
        },
        {
          "internalType": "address",
          "name": "_feeSplitter",
          "type": "address"
        },
        {
          "internalType": "address",
          "name": "_vestingVault",
          "type": "address"
        },
        {
          "internalType": "address",
          "name": "_projectOwner",
          "type": "address"
        },
        {
          "internalType": "address",
          "name": "_admin",
          "type": "address"
        }
      ],
      "stateMutability": "nonpayable",
      "type": "constructor"
    },
    {
      "inputs": [],
      "name": "AccessControlBadConfirmation",
      "type": "error"
    },
    {
      "inputs": [
        {
          "internalType": "address",
          "name": "account",
          "type": "address"
        },
        {
          "internalType": "bytes32",
          "name": "neededRole",
          "type": "bytes32"
        }
      ],
      "name": "AccessControlUnauthorizedAccount",
      "type": "error"
    },
    {
      "inputs": [],
      "name": "BelowMinimum",
      "type": "error"
    },
    {
      "inputs": [],
      "name": "ConfigLocked",
      "type": "error"
    },
    {
      "inputs": [],
      "name": "ContributionLimitExceeded",
      "type": "error"
    },
    {
      "inputs": [],
      "name": "EnforcedPause",
      "type": "error"
    },
    {
      "inputs": [],
      "name": "ExpectedPause",
      "type": "error"
    },
    {
      "inputs": [],
      "name": "HardCapExceeded",
      "type": "error"
    },
    {
      "inputs": [],
      "name": "InvalidAddress",
      "type": "error"
    },
    {
      "inputs": [],
      "name": "InvalidFeeConfig",
      "type": "error"
    },
    {
      "inputs": [],
      "name": "InvalidStatus",
      "type": "error"
    },
    {
      "inputs": [],
      "name": "NoContribution",
      "type": "error"
    },
    {
      "inputs": [],
      "name": "ReentrancyGuardReentrantCall",
      "type": "error"
    },
    {
      "inputs": [],
      "name": "RefundNotAvailable",
      "type": "error"
    },
    {
      "inputs": [
        {
          "internalType": "address",
          "name": "token",
          "type": "address"
        }
      ],
      "name": "SafeERC20FailedOperation",
      "type": "error"
    },
    {
      "inputs": [],
      "name": "SoftCapNotMet",
      "type": "error"
    },
    {
      "inputs": [],
      "name": "VestingFundingFailed",
      "type": "error"
    },
    {
      "anonymous": false,
      "inputs": [
        {
          "indexed": false,
          "internalType": "string",
          "name": "reason",
          "type": "string"
        }
      ],
      "name": "Cancelled",
      "type": "event"
    },
    {
      "anonymous": false,
      "inputs": [
        {
          "indexed": true,
          "internalType": "address",
          "name": "contributor",
          "type": "address"
        },
        {
          "indexed": false,
          "internalType": "uint256",
          "name": "amount",
          "type": "uint256"
        },
        {
          "indexed": true,
          "internalType": "address",
          "name": "referrer",
          "type": "address"
        }
      ],
      "name": "Contributed",
      "type": "event"
    },
    {
      "anonymous": false,
      "inputs": [
        {
          "components": [
            {
              "internalType": "uint256",
              "name": "totalBps",
              "type": "uint256"
            },
            {
              "internalType": "uint256",
              "name": "treasuryBps",
              "type": "uint256"
            },
            {
              "internalType": "uint256",
              "name": "referralPoolBps",
              "type": "uint256"
            },
            {
              "internalType": "uint256",
              "name": "sbtStakingBps",
              "type": "uint256"
            }
          ],
          "indexed": false,
          "internalType": "struct PresaleRound.FeeConfig",
          "name": "newConfig",
          "type": "tuple"
        }
      ],
      "name": "FeeConfigUpdated",
      "type": "event"
    },
    {
      "anonymous": false,
      "inputs": [
        {
          "indexed": false,
          "internalType": "string",
          "name": "reason",
          "type": "string"
        }
      ],
      "name": "FinalizedFailed",
      "type": "event"
    },
    {
      "anonymous": false,
      "inputs": [
        {
          "indexed": false,
          "internalType": "uint256",
          "name": "totalRaised",
          "type": "uint256"
        },
        {
          "indexed": false,
          "internalType": "uint256",
          "name": "feeAmount",
          "type": "uint256"
        },
        {
          "indexed": false,
          "internalType": "uint256",
          "name": "tgeTimestamp",
          "type": "uint256"
        }
      ],
      "name": "FinalizedSuccess",
      "type": "event"
    },
    {
      "anonymous": false,
      "inputs": [
        {
          "indexed": false,
          "internalType": "address",
          "name": "account",
          "type": "address"
        }
      ],
      "name": "Paused",
      "type": "event"
    },
    {
      "anonymous": false,
      "inputs": [
        {
          "indexed": true,
          "internalType": "address",
          "name": "contributor",
          "type": "address"
        },
        {
          "indexed": false,
          "internalType": "uint256",
          "name": "amount",
          "type": "uint256"
        }
      ],
      "name": "Refunded",
      "type": "event"
    },
    {
      "anonymous": false,
      "inputs": [
        {
          "indexed": true,
          "internalType": "bytes32",
          "name": "role",
          "type": "bytes32"
        },
        {
          "indexed": true,
          "internalType": "bytes32",
          "name": "previousAdminRole",
          "type": "bytes32"
        },
        {
          "indexed": true,
          "internalType": "bytes32",
          "name": "newAdminRole",
          "type": "bytes32"
        }
      ],
      "name": "RoleAdminChanged",
      "type": "event"
    },
    {
      "anonymous": false,
      "inputs": [
        {
          "indexed": true,
          "internalType": "bytes32",
          "name": "role",
          "type": "bytes32"
        },
        {
          "indexed": true,
          "internalType": "address",
          "name": "account",
          "type": "address"
        },
        {
          "indexed": true,
          "internalType": "address",
          "name": "sender",
          "type": "address"
        }
      ],
      "name": "RoleGranted",
      "type": "event"
    },
    {
      "anonymous": false,
      "inputs": [
        {
          "indexed": true,
          "internalType": "bytes32",
          "name": "role",
          "type": "bytes32"
        },
        {
          "indexed": true,
          "internalType": "address",
          "name": "account",
          "type": "address"
        },
        {
          "indexed": true,
          "internalType": "address",
          "name": "sender",
          "type": "address"
        }
      ],
      "name": "RoleRevoked",
      "type": "event"
    },
    {
      "anonymous": false,
      "inputs": [
        {
          "indexed": false,
          "internalType": "enum PresaleRound.Status",
          "name": "oldStatus",
          "type": "uint8"
        },
        {
          "indexed": false,
          "internalType": "enum PresaleRound.Status",
          "name": "newStatus",
          "type": "uint8"
        }
      ],
      "name": "StatusSynced",
      "type": "event"
    },
    {
      "anonymous": false,
      "inputs": [
        {
          "indexed": false,
          "internalType": "address",
          "name": "account",
          "type": "address"
        }
      ],
      "name": "Unpaused",
      "type": "event"
    },
    {
      "inputs": [],
      "name": "ADMIN_ROLE",
      "outputs": [
        {
          "internalType": "bytes32",
          "name": "",
          "type": "bytes32"
        }
      ],
      "stateMutability": "view",
      "type": "function"
    },
    {
      "inputs": [],
      "name": "DEFAULT_ADMIN_ROLE",
      "outputs": [
        {
          "internalType": "bytes32",
          "name": "",
          "type": "bytes32"
        }
      ],
      "stateMutability": "view",
      "type": "function"
    },
    {
      "inputs": [
        {
          "internalType": "string",
          "name": "reason",
          "type": "string"
        }
      ],
      "name": "cancel",
      "outputs": [],
      "stateMutability": "nonpayable",
      "type": "function"
    },
    {
      "inputs": [],
      "name": "claimRefund",
      "outputs": [],
      "stateMutability": "nonpayable",
      "type": "function"
    },
    {
      "inputs": [
        {
          "internalType": "uint256",
          "name": "amount",
          "type": "uint256"
        },
        {
          "internalType": "address",
          "name": "referrer",
          "type": "address"
        }
      ],
      "name": "contribute",
      "outputs": [],
      "stateMutability": "payable",
      "type": "function"
    },
    {
      "inputs": [
        {
          "internalType": "address",
          "name": "",
          "type": "address"
        }
      ],
      "name": "contributions",
      "outputs": [
        {
          "internalType": "uint256",
          "name": "",
          "type": "uint256"
        }
      ],
      "stateMutability": "view",
      "type": "function"
    },
    {
      "inputs": [],
      "name": "endTime",
      "outputs": [
        {
          "internalType": "uint256",
          "name": "",
          "type": "uint256"
        }
      ],
      "stateMutability": "view",
      "type": "function"
    },
    {
      "inputs": [],
      "name": "feeConfig",
      "outputs": [
        {
          "internalType": "uint256",
          "name": "totalBps",
          "type": "uint256"
        },
        {
          "internalType": "uint256",
          "name": "treasuryBps",
          "type": "uint256"
        },
        {
          "internalType": "uint256",
          "name": "referralPoolBps",
          "type": "uint256"
        },
        {
          "internalType": "uint256",
          "name": "sbtStakingBps",
          "type": "uint256"
        }
      ],
      "stateMutability": "view",
      "type": "function"
    },
    {
      "inputs": [],
      "name": "feeSplitter",
      "outputs": [
        {
          "internalType": "address",
          "name": "",
          "type": "address"
        }
      ],
      "stateMutability": "view",
      "type": "function"
    },
    {
      "inputs": [
        {
          "internalType": "string",
          "name": "reason",
          "type": "string"
        }
      ],
      "name": "finalizeFailed",
      "outputs": [],
      "stateMutability": "nonpayable",
      "type": "function"
    },
    {
      "inputs": [
        {
          "internalType": "bytes32",
          "name": "merkleRoot",
          "type": "bytes32"
        },
        {
          "internalType": "uint256",
          "name": "totalVestingAllocation",
          "type": "uint256"
        }
      ],
      "name": "finalizeSuccess",
      "outputs": [],
      "stateMutability": "nonpayable",
      "type": "function"
    },
    {
      "inputs": [
        {
          "internalType": "address",
          "name": "contributor",
          "type": "address"
        }
      ],
      "name": "getContributionInfo",
      "outputs": [
        {
          "internalType": "uint256",
          "name": "contribution",
          "type": "uint256"
        },
        {
          "internalType": "address",
          "name": "referrer",
          "type": "address"
        }
      ],
      "stateMutability": "view",
      "type": "function"
    },
    {
      "inputs": [],
      "name": "getPresaleInfo",
      "outputs": [
        {
          "internalType": "enum PresaleRound.Status",
          "name": "_status",
          "type": "uint8"
        },
        {
          "internalType": "uint256",
          "name": "_totalRaised",
          "type": "uint256"
        },
        {
          "internalType": "uint256",
          "name": "_softCap",
          "type": "uint256"
        },
        {
          "internalType": "uint256",
          "name": "_hardCap",
          "type": "uint256"
        },
        {
          "internalType": "uint256",
          "name": "_startTime",
          "type": "uint256"
        },
        {
          "internalType": "uint256",
          "name": "_endTime",
          "type": "uint256"
        },
        {
          "internalType": "uint256",
          "name": "_tgeTimestamp",
          "type": "uint256"
        }
      ],
      "stateMutability": "view",
      "type": "function"
    },
    {
      "inputs": [
        {
          "internalType": "bytes32",
          "name": "role",
          "type": "bytes32"
        }
      ],
      "name": "getRoleAdmin",
      "outputs": [
        {
          "internalType": "bytes32",
          "name": "",
          "type": "bytes32"
        }
      ],
      "stateMutability": "view",
      "type": "function"
    },
    {
      "inputs": [
        {
          "internalType": "bytes32",
          "name": "role",
          "type": "bytes32"
        },
        {
          "internalType": "address",
          "name": "account",
          "type": "address"
        }
      ],
      "name": "grantRole",
      "outputs": [],
      "stateMutability": "nonpayable",
      "type": "function"
    },
    {
      "inputs": [],
      "name": "hardCap",
      "outputs": [
        {
          "internalType": "uint256",
          "name": "",
          "type": "uint256"
        }
      ],
      "stateMutability": "view",
      "type": "function"
    },
    {
      "inputs": [
        {
          "internalType": "bytes32",
          "name": "role",
          "type": "bytes32"
        },
        {
          "internalType": "address",
          "name": "account",
          "type": "address"
        }
      ],
      "name": "hasRole",
      "outputs": [
        {
          "internalType": "bool",
          "name": "",
          "type": "bool"
        }
      ],
      "stateMutability": "view",
      "type": "function"
    },
    {
      "inputs": [],
      "name": "maxContribution",
      "outputs": [
        {
          "internalType": "uint256",
          "name": "",
          "type": "uint256"
        }
      ],
      "stateMutability": "view",
      "type": "function"
    },
    {
      "inputs": [],
      "name": "minContribution",
      "outputs": [
        {
          "internalType": "uint256",
          "name": "",
          "type": "uint256"
        }
      ],
      "stateMutability": "view",
      "type": "function"
    },
    {
      "inputs": [],
      "name": "pause",
      "outputs": [],
      "stateMutability": "nonpayable",
      "type": "function"
    },
    {
      "inputs": [],
      "name": "paused",
      "outputs": [
        {
          "internalType": "bool",
          "name": "",
          "type": "bool"
        }
      ],
      "stateMutability": "view",
      "type": "function"
    },
    {
      "inputs": [],
      "name": "paymentToken",
      "outputs": [
        {
          "internalType": "address",
          "name": "",
          "type": "address"
        }
      ],
      "stateMutability": "view",
      "type": "function"
    },
    {
      "inputs": [],
      "name": "projectOwner",
      "outputs": [
        {
          "internalType": "address",
          "name": "",
          "type": "address"
        }
      ],
      "stateMutability": "view",
      "type": "function"
    },
    {
      "inputs": [],
      "name": "projectToken",
      "outputs": [
        {
          "internalType": "address",
          "name": "",
          "type": "address"
        }
      ],
      "stateMutability": "view",
      "type": "function"
    },
    {
      "inputs": [
        {
          "internalType": "address",
          "name": "",
          "type": "address"
        }
      ],
      "name": "referrers",
      "outputs": [
        {
          "internalType": "address",
          "name": "",
          "type": "address"
        }
      ],
      "stateMutability": "view",
      "type": "function"
    },
    {
      "inputs": [
        {
          "internalType": "bytes32",
          "name": "role",
          "type": "bytes32"
        },
        {
          "internalType": "address",
          "name": "callerConfirmation",
          "type": "address"
        }
      ],
      "name": "renounceRole",
      "outputs": [],
      "stateMutability": "nonpayable",
      "type": "function"
    },
    {
      "inputs": [
        {
          "internalType": "bytes32",
          "name": "role",
          "type": "bytes32"
        },
        {
          "internalType": "address",
          "name": "account",
          "type": "address"
        }
      ],
      "name": "revokeRole",
      "outputs": [],
      "stateMutability": "nonpayable",
      "type": "function"
    },
    {
      "inputs": [
        {
          "components": [
            {
              "internalType": "uint256",
              "name": "totalBps",
              "type": "uint256"
            },
            {
              "internalType": "uint256",
              "name": "treasuryBps",
              "type": "uint256"
            },
            {
              "internalType": "uint256",
              "name": "referralPoolBps",
              "type": "uint256"
            },
            {
              "internalType": "uint256",
              "name": "sbtStakingBps",
              "type": "uint256"
            }
          ],
          "internalType": "struct PresaleRound.FeeConfig",
          "name": "newConfig",
          "type": "tuple"
        }
      ],
      "name": "setFeeConfig",
      "outputs": [],
      "stateMutability": "nonpayable",
      "type": "function"
    },
    {
      "inputs": [],
      "name": "softCap",
      "outputs": [
        {
          "internalType": "uint256",
          "name": "",
          "type": "uint256"
        }
      ],
      "stateMutability": "view",
      "type": "function"
    },
    {
      "inputs": [],
      "name": "startTime",
      "outputs": [
        {
          "internalType": "uint256",
          "name": "",
          "type": "uint256"
        }
      ],
      "stateMutability": "view",
      "type": "function"
    },
    {
      "inputs": [],
      "name": "status",
      "outputs": [
        {
          "internalType": "enum PresaleRound.Status",
          "name": "",
          "type": "uint8"
        }
      ],
      "stateMutability": "view",
      "type": "function"
    },
    {
      "inputs": [
        {
          "internalType": "bytes4",
          "name": "interfaceId",
          "type": "bytes4"
        }
      ],
      "name": "supportsInterface",
      "outputs": [
        {
          "internalType": "bool",
          "name": "",
          "type": "bool"
        }
      ],
      "stateMutability": "view",
      "type": "function"
    },
    {
      "inputs": [],
      "name": "tgeTimestamp",
      "outputs": [
        {
          "internalType": "uint256",
          "name": "",
          "type": "uint256"
        }
      ],
      "stateMutability": "view",
      "type": "function"
    },
    {
      "inputs": [],
      "name": "totalRaised",
      "outputs": [
        {
          "internalType": "uint256",
          "name": "",
          "type": "uint256"
        }
      ],
      "stateMutability": "view",
      "type": "function"
    },
    {
      "inputs": [],
      "name": "unpause",
      "outputs": [],
      "stateMutability": "nonpayable",
      "type": "function"
    },
    {
      "inputs": [],
      "name": "vestingVault",
      "outputs": [
        {
          "internalType": "address",
          "name": "",
          "type": "address"
        }
      ],
      "stateMutability": "view",
      "type": "function"
    }
  ],
  "bytecode": "0x6101e034620002df57601f62001db738819003918201601f19168301916001600160401b03831184841017620002a55780849261018094604052833981010312620002df576200004f81620002e4565b906200005e60208201620002e4565b916040820151926060830151608084015160a085015160c08601519060e0870151926200008f6101008901620002e4565b946200009f6101208a01620002e4565b99620000be610160620000b66101408d01620002e4565b9b01620002e4565b976001600055818310620002cd5785871115620002cd576001600160a01b03881615620002bb576001600160a01b038c1615620002bb576001600160a01b038b1615620002bb57620001529960805260a05260c05260e05261010052610120526101405261016052610180526101a09384526101c092835260ff19600754166007556200014b81620002f9565b506200037a565b50604051608081016001600160401b03811182821017620002a557604052603260606101f49283815260fa602082015260c86040820152015260035560fa60045560c860055560326006556040519061197992836200041e8439608051838181610bc00152610f34015260a0518381816102f8015281816109d201528181610d620152610f95015260c051838181610405015281816106e8015281816108120152610e95015260e0518381816101c701528181610837015281816109a201526118530152610100518381816104a5015261094901526101205183818161072301526109700152610140518381816104ff015281816107b80152818161085d015261176201526101605183818161088301528181610d2a015261180f015261018051838181610b5801528181610fc701526110ec0152518281816105dd0152610f0d0152518181816106210152610edf0152f35b634e487b7160e01b600052604160045260246000fd5b60405163e6c4247b60e01b8152600490fd5b6040516307a92f1960e51b8152600490fd5b600080fd5b51906001600160a01b0382168203620002df57565b6001600160a01b031660008181527fac33ff75c19e70fe83507db0d683fd3465c996598dc972688b7ace676c89077b602052604081205490919060ff16620003765781805260026020526040822081835260205260408220600160ff19825416179055339160008051602062001d978339815191528180a4600190565b5090565b6001600160a01b031660008181527fe5ebfa64fca8d502a8e50c1edffd2c31ef4dad5b396e65d9f397fb028f74abc560205260408120549091907fa49807205ce4d355092ef5a8a18f56e8913cf4a201fbe287825b095693c217759060ff16620004185780835260026020526040832082845260205260408320600160ff1982541617905560008051602062001d97833981519152339380a4600190565b50509056fe608060408181526004918236101561001657600080fd5b600092833560e01c91826301ffc9a71461135d575081630b4f3f3d146112d357816319cef5bc14610e485781631e5eb1d014610e0f578163200d2ed214610de6578163248a9ca314610dbb5781632f2ff15d14610d915781633013ce2914610d4d5781633197cbb614610d1257816336568abe14610ccc5781633f4ba83a14610c6257816342e94c9014610c2a5781634a3b68cc14610bef5781634b60ce7714610bab5781635c975abb14610b875781636052970c14610b4357816360b0b0f0146108e957816375b238fc146108ae578163767fa723146107db57816378e97925146107a05781638456cb59146107465781638d3d65761461070b578163906a26e0146106d057816391d148541461068a578163a217fddf1461066f578163a4317ef414610650578163a4475ce41461060c578163a5917baf146105c8578163a9eddf99146104c8578163aaffadf31461048d578163b30ca2da146103c8578163b5545a3c1461029a578163c5c4744c1461027b578163cd78d92c14610232578163d547741f146101ee575063fb86a404146101b157600080fd5b346101ea57816003193601126101ea57602090517f00000000000000000000000000000000000000000000000000000000000000008152f35b5080fd5b9190503461022e578060031936011261022e5761022a91356102256001610213611422565b938387526002602052862001546114c8565b61156e565b5080f35b8280fd5b828434610278576020366003190112610278576001600160a01b0380610256611438565b168252600a602052828083205492600b60205220541682519182526020820152f35b80fd5b5050346101ea57816003193601126101ea576020906008549051908152f35b9190503461022e578260031936011261022e576102b5611735565b60ff6007541660068110156103b5578281141590816103a9575b5061039c57338352600a6020528083205491821561038e57338452600a602052818420849055827f00000000000000000000000000000000000000000000000000000000000000006001600160a01b03168061037d57508480808093335af161033661189a565b501561036f57505b519081527fd7dee2702d63ad89917b6a4da9981c90c4d24f8c2bdfd64c604ecae57d8d065160203392a26001815580f35b905163b9da5d2b60e01b8152fd5b610389925033906118da565b61033e565b9051631971fbf360e21b8152fd5b51630b4d698160e01b8152fd5b600591501415386102cf565b634e487b7160e01b845260218352602484fd5b8383346101ea576103d8366113b0565b916103e161144e565b6103e9611758565b60075460ff8116600681101561047a5760020361046a576008547f0000000000000000000000000000000000000000000000000000000000000000111561046a57907f5b55eccea968a9bf1df9a6702e20475ac67bb0d7f402f51701eef38e619368fe94956104649260ff191617600755519283928361191b565b0390a180f35b81516307a92f1960e51b81528690fd5b634e487b7160e01b865260218752602486fd5b5050346101ea57816003193601126101ea57602090517f00000000000000000000000000000000000000000000000000000000000000008152f35b90503461022e57608036600319011261022e576104e361144e565b60ff6007541660068110156105b5576105a8576008546105a8577f00000000000000000000000000000000000000000000000000000000000000004210156105a8578035916044359060243561053983826115e5565b9361054760643580966115e5565b860361059a579181869492608096947f0ad166d8be1925ee44c5a77600b8a5f7e58cbe711c0dbd99624014a81b8350ba98600355558260055583600655815194855260208501528301526060820152a180f35b8251632b00a33d60e11b8152fd5b905162b5d7e160e81b8152fd5b634e487b7160e01b845260218252602484fd5b5050346101ea57816003193601126101ea57517f00000000000000000000000000000000000000000000000000000000000000006001600160a01b03168152602090f35b5050346101ea57816003193601126101ea57517f00000000000000000000000000000000000000000000000000000000000000006001600160a01b03168152602090f35b5050346101ea57816003193601126101ea576020906009549051908152f35b5050346101ea57816003193601126101ea5751908152602090f35b90503461022e578160031936011261022e57816020936106a8611422565b9235815260028552209060018060a01b0316600052825260ff81600020541690519015158152f35b5050346101ea57816003193601126101ea57602090517f00000000000000000000000000000000000000000000000000000000000000008152f35b5050346101ea57816003193601126101ea57602090517f00000000000000000000000000000000000000000000000000000000000000008152f35b5050346101ea57816003193601126101ea5760207f62e78cea01bee320cd4e420270b5ea74000d11b0c9f74754ebdbfc544b05a2589161078461144e565b61078c611717565b600160ff198154161760015551338152a180f35b5050346101ea57816003193601126101ea57602090517f00000000000000000000000000000000000000000000000000000000000000008152f35b5050346101ea57816003193601126101ea5760e09060ff6007541690600854906009549161080b825180956113ff565b60208401527f0000000000000000000000000000000000000000000000000000000000000000908301527f000000000000000000000000000000000000000000000000000000000000000060608301527f000000000000000000000000000000000000000000000000000000000000000060808301527f000000000000000000000000000000000000000000000000000000000000000060a083015260c0820152f35b5050346101ea57816003193601126101ea57602090517fa49807205ce4d355092ef5a8a18f56e8913cf4a201fbe287825b095693c217758152f35b90508160031936011261022e57803590610901611422565b9061090a611735565b610912611717565b61091a611758565b60ff600754166006811015610b3057600103610b2257338552602091600a835261094784868820546115e5565b7f00000000000000000000000000000000000000000000000000000000000000008110610b12577f000000000000000000000000000000000000000000000000000000000000000010610b03576109a0846008546115e5565b7f000000000000000000000000000000000000000000000000000000000000000010610af4576001600160a01b0391847f0000000000000000000000000000000000000000000000000000000000000000841680610aba57503403610aac575090807fec470969f3350ca5a15f0d85053f8763ffd0ee39c7b74fcdc5af7862718e292a93925b338852600a8452868820610a3b8782546115e5565b9055610a49866008546115e5565b6008551680151580610a98575b610a77575b50338652600b8252848620541693519283523392a36001815580f35b338752600b835285872080546001600160a01b031916909117905538610a5b565b50338752600b835281868820541615610a56565b85516307a92f1960e51b8152fd5b8493917fec470969f3350ca5a15f0d85053f8763ffd0ee39c7b74fcdc5af7862718e292a96959350610aef9130903390611654565b610a26565b508351631c4af3c960e11b8152fd5b5083516374368fb960e11b8152fd5b855163860b82a960e01b81528390fd5b83516307a92f1960e51b8152fd5b634e487b7160e01b865260218252602486fd5b5050346101ea57816003193601126101ea57517f00000000000000000000000000000000000000000000000000000000000000006001600160a01b03168152602090f35b5050346101ea57816003193601126101ea5760209060ff6001541690519015158152f35b5050346101ea57816003193601126101ea57517f00000000000000000000000000000000000000000000000000000000000000006001600160a01b03168152602090f35b5050346101ea5760203660031901126101ea576020916001600160a01b0390829082610c19611438565b168152600b85522054169051908152f35b5050346101ea5760203660031901126101ea5760209181906001600160a01b03610c52611438565b168152600a845220549051908152f35b90503461022e578260031936011261022e57610c7c61144e565b6001549060ff821615610cbe575060ff1916600155513381527f5db9ee0a495bf2e6ff9c91a7834c1ba4fdd244a5e8aa4e537bd38aeae4b073aa90602090a180f35b8251638dfc202b60e01b8152fd5b8383346101ea57806003193601126101ea57610ce6611422565b90336001600160a01b03831603610d03575061022a91923561156e565b5163334bd91960e11b81528390fd5b5050346101ea57816003193601126101ea57602090517f00000000000000000000000000000000000000000000000000000000000000008152f35b5050346101ea57816003193601126101ea57517f00000000000000000000000000000000000000000000000000000000000000006001600160a01b03168152602090f35b9190503461022e578060031936011261022e5761022a9135610db66001610213611422565b6114ee565b90503461022e57602036600319011261022e5781602093600192358152600285522001549051908152f35b5050346101ea57816003193601126101ea57602090610e0d60ff60075416915180926113ff565bf35b9190503461022e578260031936011261022e57608092506003549154906005549060065492815194855260208501528301526060820152f35b9190503461022e578060031936011261022e57602491823592610e6961144e565b610e71611735565b610e79611758565b60ff6007541660068110156112c1576002036112b257600854907f000000000000000000000000000000000000000000000000000000000000000082106112a25760035480830290838204148315171561129057612710900494858303928311611290577f0000000000000000000000000000000000000000000000000000000000000000916001600160a01b03918890837f0000000000000000000000000000000000000000000000000000000000000000610f5a8382897f00000000000000000000000000000000000000000000000000000000000000008616611654565b16803b1561022e57604483928a519485938492637c382d0b60e01b84528c358d850152888401525af180156112865761126d575b50879392917f000000000000000000000000000000000000000000000000000000000000000080821692831592919083156110e25750507f000000000000000000000000000000000000000000000000000000000000000016803b156110de57858991888a518094819363990087b760e01b83525af180156110d4579086916110bc575b50505b15611083575082809281925af161102a61189a565b501561036f57507ff3e2f1d90bd58f6807b6468783c27fdc68307b057882b3ca4eb0f3bb21167899916060915b42600955600360ff19600754161760075560085491815192835260208301524290820152a16001815580f35b7ff3e2f1d90bd58f6807b6468783c27fdc68307b057882b3ca4eb0f3bb211678999694506060959350906110b792916118da565b611057565b6110c590611608565b6110d0578438611012565b8480fd5b88513d88823e3d90fd5b8580fd5b8a9998979a9291927f00000000000000000000000000000000000000000000000000000000000000009160208b519e8f828101906111558161114763095ea7b360e01b988986528a89840160209093929193604081019460018060a01b031681520152565b03601f198101835282611632565b5190828b5af18d513d8f8361124f575b505050156111e2575b50508a9b50999697989916803b156111de57885163398da91160e01b81526001600160a01b03909216828901908152602081018b90528791839182908490829060400103925af180156110d4579086916111ca575b5050611015565b6111d390611608565b6110d05784386111c3565b8680fd5b8a51916020830152838316818301528c604483015260448252608082019082821067ffffffffffffffff83111761123c57509c61122a611230928e9f8d9e9f9c9d52886116af565b866116af565b38809b9a99989b61116e565b634e487b7160e01b600090815260418c52fd5b509091506112655750863b15155b38808f611165565b60011461125d565b61127c90989194939298611608565b9690919238610f8e565b87513d8b823e3d90fd5b50634e487b7160e01b86526011835285fd5b83516346c21a5560e01b81528390fd5b5090516307a92f1960e51b8152fd5b50634e487b7160e01b85526021825284fd5b839150346101ea576112e4366113b0565b916112ed61144e565b6112f5611758565b6007549060ff82166006811015610b30578015159081611351575b50610aac57507f2ac842f90dab3279148f7e55ac91d911f75c1c300a202a5250e05400b15fa156939460056104649260ff191617600755519283928361191b565b60019150141587611310565b84913461022e57602036600319011261022e573563ffffffff60e01b811680910361022e5760209250637965db0b60e01b811490811561139f575b5015158152f35b6301ffc9a760e01b14905083611398565b9060206003198301126113fa5760043567ffffffffffffffff928382116113fa57806023830112156113fa5781600401359384116113fa57602484830101116113fa576024019190565b600080fd5b90600682101561140c5752565b634e487b7160e01b600052602160045260246000fd5b602435906001600160a01b03821682036113fa57565b600435906001600160a01b03821682036113fa57565b3360009081527fe5ebfa64fca8d502a8e50c1edffd2c31ef4dad5b396e65d9f397fb028f74abc560205260409020547fa49807205ce4d355092ef5a8a18f56e8913cf4a201fbe287825b095693c217759060ff16156114aa5750565b6044906040519063e2517d3f60e01b82523360048301526024820152fd5b80600052600260205260406000203360005260205260ff60406000205416156114aa5750565b906000918083526002602052604083209160018060a01b03169182845260205260ff604084205416156000146115695780835260026020526040832082845260205260408320600160ff198254161790557f2f8788117e7eff1d82e926ec794901d17c78024a50270940304540a733656f0d339380a4600190565b505090565b906000918083526002602052604083209160018060a01b03169182845260205260ff604084205416600014611569578083526002602052604083208284526020526040832060ff1981541690557ff6391f5c32d9c69d2a47ea670b442974b53935d1edc7fd64eb21e047a839171b339380a4600190565b919082018092116115f257565b634e487b7160e01b600052601160045260246000fd5b67ffffffffffffffff811161161c57604052565b634e487b7160e01b600052604160045260246000fd5b90601f8019910116810190811067ffffffffffffffff82111761161c57604052565b6040516323b872dd60e01b60208201526001600160a01b03928316602482015292909116604483015260648083019390935291815260a081019181831067ffffffffffffffff84111761161c576116ad926040526116af565b565b906000602091828151910182855af11561170b576000513d61170257506001600160a01b0381163b155b6116e05750565b604051635274afe760e01b81526001600160a01b039091166004820152602490fd5b600114156116d9565b6040513d6000823e3d90fd5b60ff6001541661172357565b60405163d93c066560e01b8152600490fd5b600260005414611746576002600055565b604051633ee5aeb560e01b8152600490fd5b60075460ff8116907f000000000000000000000000000000000000000000000000000000000000000042101580611889575b611879575b5060075460ff8116600681101561140c5760011461180d575b5060ff60075416600681101561140c57600682101561140c578082036117cc575050565b7f0d643a1384921de4b8ad16df0a695f1e75fcfe3bcac27f9c5c8cee46458723829161180a604092611800845180946113ff565b60208301906113ff565ba1565b7f0000000000000000000000000000000000000000000000000000000000000000421080159061184d575b156117a85760ff1916600217600755386117a8565b506008547f00000000000000000000000000000000000000000000000000000000000000001115611838565b60ff19166001176007553861178f565b50600682101561140c57811561178a565b3d156118d5573d9067ffffffffffffffff821161161c57604051916118c9601f8201601f191660200184611632565b82523d6000602084013e565b606090565b60405163a9059cbb60e01b60208201526001600160a01b039290921660248301526044808301939093529181526116ad91611916606483611632565b6116af565b90918060409360208452816020850152848401376000828201840152601f01601f191601019056fea26469706673582212203aa58898588f84cfc41d7f5fa7f09efca595dc1ec89fa6fd7572c74f71ea5ec664736f6c634300081400332f8788117e7eff1d82e926ec794901d17c78024a50270940304540a733656f0d",
  "linkReferences": {},
  "deployedLinkReferences": {}
}