{"contracts/FeeSplitter.sol":{"FeeSplitter":{"abi":[{"inputs":[{"internalType":"address","name":"_treasury","type":"address"},{"internalType":"address","name":"_referralPool","type":"address"},{"internalType":"address","name":"_sbtStaking","type":"address"},{"internalType":"address","name":"_admin","type":"address"}],"stateMutability":"nonpayable","type":"constructor"},{"inputs":[],"name":"AccessControlBadConfirmation","type":"error"},{"inputs":[{"internalType":"address","name":"account","type":"address"},{"internalType":"bytes32","name":"neededRole","type":"bytes32"}],"name":"AccessControlUnauthorizedAccount","type":"error"},{"inputs":[],"name":"InvalidFeeConfig","type":"error"},{"inputs":[],"name":"InvalidVault","type":"error"},{"inputs":[],"name":"ReentrancyGuardReentrantCall","type":"error"},{"inputs":[{"internalType":"address","name":"token","type":"address"}],"name":"SafeERC20FailedOperation","type":"error"},{"inputs":[],"name":"TransferFailed","type":"error"},{"inputs":[],"name":"ZeroAmount","type":"error"},{"anonymous":false,"inputs":[{"indexed":true,"internalType":"address","name":"token","type":"address"},{"indexed":false,"internalType":"uint256","name":"totalAmount","type":"uint256"}],"name":"FeeCollected","type":"event"},{"anonymous":false,"inputs":[{"components":[{"internalType":"uint256","name":"totalBps","type":"uint256"},{"internalType":"uint256","name":"treasuryBps","type":"uint256"},{"internalType":"uint256","name":"referralPoolBps","type":"uint256"},{"internalType":"uint256","name":"sbtStakingBps","type":"uint256"}],"indexed":false,"internalType":"struct FeeSplitter.FeeConfig","name":"newConfig","type":"tuple"}],"name":"FeeConfigUpdated","type":"event"},{"anonymous":false,"inputs":[{"indexed":true,"internalType":"address","name":"vault","type":"address"},{"indexed":true,"internalType":"address","name":"token","type":"address"},{"indexed":false,"internalType":"uint256","name":"amount","type":"uint256"},{"indexed":false,"internalType":"uint256","name":"bps","type":"uint256"}],"name":"FeeSplit","type":"event"},{"anonymous":false,"inputs":[{"indexed":true,"internalType":"bytes32","name":"role","type":"bytes32"},{"indexed":true,"internalType":"bytes32","name":"previousAdminRole","type":"bytes32"},{"indexed":true,"internalType":"bytes32","name":"newAdminRole","type":"bytes32"}],"name":"RoleAdminChanged","type":"event"},{"anonymous":false,"inputs":[{"indexed":true,"internalType":"bytes32","name":"role","type":"bytes32"},{"indexed":true,"internalType":"address","name":"account","type":"address"},{"indexed":true,"internalType":"address","name":"sender","type":"address"}],"name":"RoleGranted","type":"event"},{"anonymous":false,"inputs":[{"indexed":true,"internalType":"bytes32","name":"role","type":"bytes32"},{"indexed":true,"internalType":"address","name":"account","type":"address"},{"indexed":true,"internalType":"address","name":"sender","type":"address"}],"name":"RoleRevoked","type":"event"},{"anonymous":false,"inputs":[{"indexed":false,"internalType":"string","name":"vaultType","type":"string"},{"indexed":false,"internalType":"address","name":"newVault","type":"address"}],"name":"VaultUpdated","type":"event"},{"inputs":[],"name":"DEFAULT_ADMIN_ROLE","outputs":[{"internalType":"bytes32","name":"","type":"bytes32"}],"stateMutability":"view","type":"function"},{"inputs":[],"name":"PRESALE_ROLE","outputs":[{"internalType":"bytes32","name":"","type":"bytes32"}],"stateMutability":"view","type":"function"},{"inputs":[{"internalType":"address","name":"token","type":"address"},{"internalType":"uint256","name":"totalAmount","type":"uint256"}],"name":"distributeFeeERC20","outputs":[],"stateMutability":"nonpayable","type":"function"},{"inputs":[],"name":"distributeFeeNative","outputs":[],"stateMutability":"payable","type":"function"},{"inputs":[],"name":"feeConfig","outputs":[{"internalType":"uint256","name":"totalBps","type":"uint256"},{"internalType":"uint256","name":"treasuryBps","type":"uint256"},{"internalType":"uint256","name":"referralPoolBps","type":"uint256"},{"internalType":"uint256","name":"sbtStakingBps","type":"uint256"}],"stateMutability":"view","type":"function"},{"inputs":[{"internalType":"bytes32","name":"role","type":"bytes32"}],"name":"getRoleAdmin","outputs":[{"internalType":"bytes32","name":"","type":"bytes32"}],"stateMutability":"view","type":"function"},{"inputs":[{"internalType":"address","name":"presale","type":"address"}],"name":"grantPresaleRole","outputs":[],"stateMutability":"nonpayable","type":"function"},{"inputs":[{"internalType":"bytes32","name":"role","type":"bytes32"},{"internalType":"address","name":"account","type":"address"}],"name":"grantRole","outputs":[],"stateMutability":"nonpayable","type":"function"},{"inputs":[{"internalType":"bytes32","name":"role","type":"bytes32"},{"internalType":"address","name":"account","type":"address"}],"name":"hasRole","outputs":[{"internalType":"bool","name":"","type":"bool"}],"stateMutability":"view","type":"function"},{"inputs":[],"name":"referralPoolVault","outputs":[{"internalType":"address","name":"","type":"address"}],"stateMutability":"view","type":"function"},{"inputs":[{"internalType":"bytes32","name":"role","type":"bytes32"},{"internalType":"address","name":"callerConfirmation","type":"address"}],"name":"renounceRole","outputs":[],"stateMutability":"nonpayable","type":"function"},{"inputs":[{"internalType":"bytes32","name":"role","type":"bytes32"},{"internalType":"address","name":"account","type":"address"}],"name":"revokeRole","outputs":[],"stateMutability":"nonpayable","type":"function"},{"inputs":[],"name":"sbtStakingVault","outputs":[{"internalType":"address","name":"","type":"address"}],"stateMutability":"view","type":"function"},{"inputs":[{"components":[{"internalType":"uint256","name":"totalBps","type":"uint256"},{"internalType":"uint256","name":"treasuryBps","type":"uint256"},{"internalType":"uint256","name":"referralPoolBps","type":"uint256"},{"internalType":"uint256","name":"sbtStakingBps","type":"uint256"}],"internalType":"struct FeeSplitter.FeeConfig","name":"newConfig","type":"tuple"}],"name":"setFeeConfig","outputs":[],"stateMutability":"nonpayable","type":"function"},{"inputs":[{"internalType":"address","name":"newVault","type":"address"}],"name":"setReferralPoolVault","outputs":[],"stateMutability":"nonpayable","type":"function"},{"inputs":[{"internalType":"address","name":"newVault","type":"address"}],"name":"setSbtStakingVault","outputs":[],"stateMutability":"nonpayable","type":"function"},{"inputs":[{"internalType":"address","name":"newVault","type":"address"}],"name":"setTreasuryVault","outputs":[],"stateMutability":"nonpayable","type":"function"},{"inputs":[{"internalType":"bytes4","name":"interfaceId","type":"bytes4"}],"name":"supportsInterface","outputs":[{"internalType":"bool","name":"","type":"bool"}],"stateMutability":"view","type":"function"},{"inputs":[],"name":"treasuryVault","outputs":[{"internalType":"address","name":"","type":"address"}],"stateMutability":"view","type":"function"},{"stateMutability":"payable","type":"receive"}],"evm":{"bytecode":{"linkReferences":{},"object":"6080346200016b57601f6200114438819003918201601f19168301926001600160401b0392909183851183861017620001335781608092849260409788528339810103126200016b57620000538162000170565b90620000626020820162000170565b6200007d60606200007587850162000170565b930162000170565b6001600055926001600160a01b039081169182156200015a5781169283156200015a5716918215620001495760018060a01b03199182600254161760025581600354161760035560045416176004558251608081019281841090841117620001335762000124928452603260606101f49283815260fa602082015260c887820152015260055560fa60065560c860075560326008556200011d8162000185565b5062000206565b5051610e7a9081620002aa8239f35b634e487b7160e01b600052604160045260246000fd5b8551630681d31960e51b8152600490fd5b8651630681d31960e51b8152600490fd5b600080fd5b51906001600160a01b03821682036200016b57565b6001600160a01b031660008181527fa6eef7e35abe7026729641147f7915573c7e97b47efa546f5f6e3230263bcb49602052604081205490919060ff16620002025781805260016020526040822081835260205260408220600160ff198254161790553391600080516020620011248339815191528180a4600190565b5090565b6001600160a01b031660008181527f8c1d1c4b0c8cac968d2d79c3e12add88af86ad783fbe5dff2bd63adbfcb82d9f60205260408120549091907f6a4b509b5f306a69ec99e97ff6b166daad9c0a3dfce739a6d67ad1c57143a6b29060ff16620002a45780835260016020526040832082845260205260408320600160ff1982541617905560008051602062001124833981519152339380a4600190565b50509056fe60806040818152600480361015610021575b505050361561001f57600080fd5b005b600092833560e01c90816301ffc9a714610962575080631e5eb1d014610929578063248a9ca3146109005780632f2ff15d146108d757806336568abe14610890578063398da9111461067c578063417eb66c1461064f57806342d8e8fd146105be578063460adaf01461052957806366afa8b71461050057806391d14854146104ba5780639326197a1461047f578063990087b714610305578063a217fddf146102ea578063a9eddf991461022f578063af8b1c6f14610202578063d547741f146101c4578063d5f80c34146101255763ef025e3a0361001157346101215782600319360112610121575490516001600160a01b03909116815260209150f35b8280fd5b50346101215760203660031901126101215761013f6109d1565b610147610a61565b6001600160a01b03169081156101b657507fea5ed109ce93951f1fe8dc561074110044205c00c5d8a784007f98a8a474a54491816080926001600160601b0360a01b6002541617600255600882519280845283015267747265617375727960c01b60608301526020820152a180f35b8251630681d31960e51b8152fd5b5090346101215780600319360112610121576101fe91356101f960016101e86109b6565b938387528160205286200154610a9b565b610bef565b5080f35b50503461022b578160031936011261022b5760025490516001600160a01b039091168152602090f35b5080fd5b503461012157608036600319011261012157610249610a61565b80359182156102dd57604435906024356102638382610d3a565b936102716064358096610d3a565b86036102cf576103e886116102cf5750916080939185937f0ad166d8be1925ee44c5a77600b8a5f7e58cbe711c0dbd99624014a81b8350ba96600555806006558260075583600855815194855260208501528301526060820152a180f35b8251632b00a33d60e11b8152fd5b51632b00a33d60e11b8152fd5b50503461022b578160031936011261022b5751908152602090f35b5091908160031936011261022b5761031b610c66565b6103236109e7565b34156104705761033560065434610cf1565b906103436005548093610d1a565b9161036961035c8261035760075434610cf1565b610d1a565b9161035760085434610cf1565b9261037d846103788484610d3a565b610d3a565b34039034821161045d5795856103968594938299610d3a565b6002546001600160a01b03949183916103b29082908816610daf565b6103c0838760035416610daf565b6103cd8987875416610daf565b817f06c5efeff5c320943d265dc4e5f1af95ad523555ce0c1957e367dda5514572df60208951348152a2856002541690600654885191825260208201527f2d248f4da84eac8067451c76799309f631de3ab3f02708cb6d20d034371d0a54988991a3858585600354169260075482519182526020820152a354169260085482519182526020820152a36001815580f35b634e487b7160e01b865260118752602486fd5b51631f2a200560e01b81529050fd5b50503461022b578160031936011261022b57602090517f6a4b509b5f306a69ec99e97ff6b166daad9c0a3dfce739a6d67ad1c57143a6b28152f35b50346101215781600319360112610121578160209360ff926104da6109b6565b90358252600186528282206001600160a01b039091168252855220549151911615158152f35b50503461022b578160031936011261022b5760035490516001600160a01b039091168152602090f35b5034610121576020366003190112610121576105436109d1565b61054b610a61565b6001600160a01b03169081156101b657507fea5ed109ce93951f1fe8dc561074110044205c00c5d8a784007f98a8a474a54491816080926001600160601b0360a01b6003541617600355600c8251928084528301526b1c9959995c9c985b141bdbdb60a21b60608301526020820152a180f35b5034610121576020366003190112610121576105d86109d1565b6105e0610a61565b6001600160a01b03169081156101b65791817fea5ed109ce93951f1fe8dc561074110044205c00c5d8a784007f98a8a474a544936080936001600160601b0360a01b825416179055600a825192808452830152697362745374616b696e6760b01b60608301526020820152a180f35b8334610679576020366003190112610679576101fe61066c6109d1565b610674610a61565b610ac1565b80fd5b5090346101215780600319360112610121576106966109d1565b90602435916106a3610c66565b6106ab6109e7565b82156108805781516323b872dd60e01b6020820152336024820152306044820152606480820185905281526001600160a01b03918216949060a0810167ffffffffffffffff81118282101761086d5784526107069086610c89565b61071260065485610cf1565b61071f6005548092610d1a565b946107406107338361035760075485610cf1565b9261035760085484610cf1565b9561074f876103788584610d3a565b82039082821161085a578892837f06c5efeff5c320943d265dc4e5f1af95ad523555ce0c1957e367dda5514572df602061078e8b9a9998968496610d3a565b9383610829576107a2858b60025416610daf565b6107b0878b60035416610daf565b6107bd8d8b8b5416610daf565b8a51908152a2856002541690600654885191825260208201527f2d248f4da84eac8067451c76799309f631de3ab3f02708cb6d20d034371d0a54988991a3858585600354169260075482519182526020820152a354169260085482519182526020820152a36001815580f35b610838858b6002541686610d47565b610847878b6003541686610d47565b6108558d8b8b541686610d47565b6107bd565b634e487b7160e01b8a526011855260248afd5b634e487b7160e01b885260418352602488fd5b8151631f2a200560e01b81528490fd5b5091903461022b578060031936011261022b576108ab6109b6565b90336001600160a01b038316036108c857506101fe919235610bef565b5163334bd91960e11b81528390fd5b5090346101215780600319360112610121576101fe91356108fb60016101e86109b6565b610b74565b503461012157602036600319011261012157816020936001923581528285522001549051908152f35b50503461022b578160031936011261022b5760809060055490600654906007549060085492815194855260208501528301526060820152f35b92505034610121576020366003190112610121573563ffffffff60e01b81168091036101215760209250637965db0b60e01b81149081156109a5575b5015158152f35b6301ffc9a760e01b1490503861099e565b602435906001600160a01b03821682036109cc57565b600080fd5b600435906001600160a01b03821682036109cc57565b3360009081527f8c1d1c4b0c8cac968d2d79c3e12add88af86ad783fbe5dff2bd63adbfcb82d9f60205260409020547f6a4b509b5f306a69ec99e97ff6b166daad9c0a3dfce739a6d67ad1c57143a6b29060ff1615610a435750565b6044906040519063e2517d3f60e01b82523360048301526024820152fd5b3360009081527fa6eef7e35abe7026729641147f7915573c7e97b47efa546f5f6e3230263bcb49602052604081205460ff1615610a435750565b80600052600160205260406000203360005260205260ff6040600020541615610a435750565b6001600160a01b031660008181527f8c1d1c4b0c8cac968d2d79c3e12add88af86ad783fbe5dff2bd63adbfcb82d9f60205260408120549091907f6a4b509b5f306a69ec99e97ff6b166daad9c0a3dfce739a6d67ad1c57143a6b29060ff16610b6f5780835260016020526040832082845260205260408320600160ff198254161790557f2f8788117e7eff1d82e926ec794901d17c78024a50270940304540a733656f0d339380a4600190565b505090565b906000918083526001602052604083209160018060a01b03169182845260205260ff60408420541615600014610b6f5780835260016020526040832082845260205260408320600160ff198254161790557f2f8788117e7eff1d82e926ec794901d17c78024a50270940304540a733656f0d339380a4600190565b906000918083526001602052604083209160018060a01b03169182845260205260ff604084205416600014610b6f578083526001602052604083208284526020526040832060ff1981541690557ff6391f5c32d9c69d2a47ea670b442974b53935d1edc7fd64eb21e047a839171b339380a4600190565b600260005414610c77576002600055565b604051633ee5aeb560e01b8152600490fd5b906000602091828151910182855af115610ce5576000513d610cdc57506001600160a01b0381163b155b610cba5750565b604051635274afe760e01b81526001600160a01b039091166004820152602490fd5b60011415610cb3565b6040513d6000823e3d90fd5b81810292918115918404141715610d0457565b634e487b7160e01b600052601160045260246000fd5b8115610d24570490565b634e487b7160e01b600052601260045260246000fd5b91908201809211610d0457565b60405163a9059cbb60e01b60208201526001600160a01b039092166024830152604480830193909352918152608081019167ffffffffffffffff831182841017610d9957610d9792604052610c89565b565b634e487b7160e01b600052604160045260246000fd5b60008080809481945af1903d15610e3e5767ffffffffffffffff903d828111610e2a5760405192601f8201601f19908116603f0116840190811184821017610e1657604052825260203d92013e5b15610e0457565b6040516312171d8360e31b8152600490fd5b634e487b7160e01b83526041600452602483fd5b634e487b7160e01b82526041600452602482fd5b50610dfd56fea2646970667358221220c2632eb46cb05771154b5326320de21a001ba22fa843b27e67a1da47fcf981f664736f6c634300081400332f8788117e7eff1d82e926ec794901d17c78024a50270940304540a733656f0d","opcodes":"PUSH1 0x80 CALLVALUE PUSH3 0x16B JUMPI PUSH1 0x1F PUSH3 0x1144 CODESIZE DUP2 SWAP1 SUB SWAP2 DUP3 ADD PUSH1 0x1F NOT AND DUP4 ADD SWAP3 PUSH1 0x1 PUSH1 0x1 PUSH1 0x40 SHL SUB SWAP3 SWAP1 SWAP2 DUP4 DUP6 GT DUP4 DUP7 LT OR PUSH3 0x133 JUMPI DUP2 PUSH1 0x80 SWAP3 DUP5 SWAP3 PUSH1 0x40 SWAP8 DUP9 MSTORE DUP4 CODECOPY DUP2 ADD SUB SLT PUSH3 0x16B JUMPI PUSH3 0x53 DUP2 PUSH3 0x170 JUMP JUMPDEST SWAP1 PUSH3 0x62 PUSH1 0x20 DUP3 ADD PUSH3 0x170 JUMP JUMPDEST PUSH3 0x7D PUSH1 0x60 PUSH3 0x75 DUP8 DUP6 ADD PUSH3 0x170 JUMP JUMPDEST SWAP4 ADD PUSH3 0x170 JUMP JUMPDEST PUSH1 0x1 PUSH1 0x0 SSTORE SWAP3 PUSH1 0x1 PUSH1 0x1 PUSH1 0xA0 SHL SUB SWAP1 DUP2 AND SWAP2 DUP3 ISZERO PUSH3 0x15A JUMPI DUP2 AND SWAP3 DUP4 ISZERO PUSH3 0x15A JUMPI AND SWAP2 DUP3 ISZERO PUSH3 0x149 JUMPI PUSH1 0x1 DUP1 PUSH1 0xA0 SHL SUB NOT SWAP2 DUP3 PUSH1 0x2 SLOAD AND OR PUSH1 0x2 SSTORE DUP2 PUSH1 0x3 SLOAD AND OR PUSH1 0x3 SSTORE PUSH1 0x4 SLOAD AND OR PUSH1 0x4 SSTORE DUP3 MLOAD PUSH1 0x80 DUP2 ADD SWAP3 DUP2 DUP5 LT SWAP1 DUP5 GT OR PUSH3 0x133 JUMPI PUSH3 0x124 SWAP3 DUP5 MSTORE PUSH1 0x32 PUSH1 0x60 PUSH2 0x1F4 SWAP3 DUP4 DUP2 MSTORE PUSH1 0xFA PUSH1 0x20 DUP3 ADD MSTORE PUSH1 0xC8 DUP8 DUP3 ADD MSTORE ADD MSTORE PUSH1 0x5 SSTORE PUSH1 0xFA PUSH1 0x6 SSTORE PUSH1 0xC8 PUSH1 0x7 SSTORE PUSH1 0x32 PUSH1 0x8 SSTORE PUSH3 0x11D DUP2 PUSH3 0x185 JUMP JUMPDEST POP PUSH3 0x206 JUMP JUMPDEST POP MLOAD PUSH2 0xE7A SWAP1 DUP2 PUSH3 0x2AA DUP3 CODECOPY RETURN JUMPDEST PUSH4 0x4E487B71 PUSH1 0xE0 SHL PUSH1 0x0 MSTORE PUSH1 0x41 PUSH1 0x4 MSTORE PUSH1 0x24 PUSH1 0x0 REVERT JUMPDEST DUP6 MLOAD PUSH4 0x681D319 PUSH1 0xE5 SHL DUP2 MSTORE PUSH1 0x4 SWAP1 REVERT JUMPDEST DUP7 MLOAD PUSH4 0x681D319 PUSH1 0xE5 SHL DUP2 MSTORE PUSH1 0x4 SWAP1 REVERT JUMPDEST PUSH1 0x0 DUP1 REVERT JUMPDEST MLOAD SWAP1 PUSH1 0x1 PUSH1 0x1 PUSH1 0xA0 SHL SUB DUP3 AND DUP3 SUB PUSH3 0x16B JUMPI JUMP JUMPDEST PUSH1 0x1 PUSH1 0x1 PUSH1 0xA0 SHL SUB AND PUSH1 0x0 DUP2 DUP2 MSTORE PUSH32 0xA6EEF7E35ABE7026729641147F7915573C7E97B47EFA546F5F6E3230263BCB49 PUSH1 0x20 MSTORE PUSH1 0x40 DUP2 KECCAK256 SLOAD SWAP1 SWAP2 SWAP1 PUSH1 0xFF AND PUSH3 0x202 JUMPI DUP2 DUP1 MSTORE PUSH1 0x1 PUSH1 0x20 MSTORE PUSH1 0x40 DUP3 KECCAK256 DUP2 DUP4 MSTORE PUSH1 0x20 MSTORE PUSH1 0x40 DUP3 KECCAK256 PUSH1 0x1 PUSH1 0xFF NOT DUP3 SLOAD AND OR SWAP1 SSTORE CALLER SWAP2 PUSH1 0x0 DUP1 MLOAD PUSH1 0x20 PUSH3 0x1124 DUP4 CODECOPY DUP2 MLOAD SWAP2 MSTORE DUP2 DUP1 LOG4 PUSH1 0x1 SWAP1 JUMP JUMPDEST POP SWAP1 JUMP JUMPDEST PUSH1 0x1 PUSH1 0x1 PUSH1 0xA0 SHL SUB AND PUSH1 0x0 DUP2 DUP2 MSTORE PUSH32 0x8C1D1C4B0C8CAC968D2D79C3E12ADD88AF86AD783FBE5DFF2BD63ADBFCB82D9F PUSH1 0x20 MSTORE PUSH1 0x40 DUP2 KECCAK256 SLOAD SWAP1 SWAP2 SWAP1 PUSH32 0x6A4B509B5F306A69EC99E97FF6B166DAAD9C0A3DFCE739A6D67AD1C57143A6B2 SWAP1 PUSH1 0xFF AND PUSH3 0x2A4 JUMPI DUP1 DUP4 MSTORE PUSH1 0x1 PUSH1 0x20 MSTORE PUSH1 0x40 DUP4 KECCAK256 DUP3 DUP5 MSTORE PUSH1 0x20 MSTORE PUSH1 0x40 DUP4 KECCAK256 PUSH1 0x1 PUSH1 0xFF NOT DUP3 SLOAD AND OR SWAP1 SSTORE PUSH1 0x0 DUP1 MLOAD PUSH1 0x20 PUSH3 0x1124 DUP4 CODECOPY DUP2 MLOAD SWAP2 MSTORE CALLER SWAP4 DUP1 LOG4 PUSH1 0x1 SWAP1 JUMP JUMPDEST POP POP SWAP1 JUMP INVALID PUSH1 0x80 PUSH1 0x40 DUP2 DUP2 MSTORE PUSH1 0x4 DUP1 CALLDATASIZE LT ISZERO PUSH2 0x21 JUMPI JUMPDEST POP POP POP CALLDATASIZE ISZERO PUSH2 0x1F JUMPI PUSH1 0x0 DUP1 REVERT JUMPDEST STOP JUMPDEST PUSH1 0x0 SWAP3 DUP4 CALLDATALOAD PUSH1 0xE0 SHR SWAP1 DUP2 PUSH4 0x1FFC9A7 EQ PUSH2 0x962 JUMPI POP DUP1 PUSH4 0x1E5EB1D0 EQ PUSH2 0x929 JUMPI DUP1 PUSH4 0x248A9CA3 EQ PUSH2 0x900 JUMPI DUP1 PUSH4 0x2F2FF15D EQ PUSH2 0x8D7 JUMPI DUP1 PUSH4 0x36568ABE EQ PUSH2 0x890 JUMPI DUP1 PUSH4 0x398DA911 EQ PUSH2 0x67C JUMPI DUP1 PUSH4 0x417EB66C EQ PUSH2 0x64F JUMPI DUP1 PUSH4 0x42D8E8FD EQ PUSH2 0x5BE JUMPI DUP1 PUSH4 0x460ADAF0 EQ PUSH2 0x529 JUMPI DUP1 PUSH4 0x66AFA8B7 EQ PUSH2 0x500 JUMPI DUP1 PUSH4 0x91D14854 EQ PUSH2 0x4BA JUMPI DUP1 PUSH4 0x9326197A EQ PUSH2 0x47F JUMPI DUP1 PUSH4 0x990087B7 EQ PUSH2 0x305 JUMPI DUP1 PUSH4 0xA217FDDF EQ PUSH2 0x2EA JUMPI DUP1 PUSH4 0xA9EDDF99 EQ PUSH2 0x22F JUMPI DUP1 PUSH4 0xAF8B1C6F EQ PUSH2 0x202 JUMPI DUP1 PUSH4 0xD547741F EQ PUSH2 0x1C4 JUMPI DUP1 PUSH4 0xD5F80C34 EQ PUSH2 0x125 JUMPI PUSH4 0xEF025E3A SUB PUSH2 0x11 JUMPI CALLVALUE PUSH2 0x121 JUMPI DUP3 PUSH1 0x3 NOT CALLDATASIZE ADD SLT PUSH2 0x121 JUMPI SLOAD SWAP1 MLOAD PUSH1 0x1 PUSH1 0x1 PUSH1 0xA0 SHL SUB SWAP1 SWAP2 AND DUP2 MSTORE PUSH1 0x20 SWAP2 POP RETURN JUMPDEST DUP3 DUP1 REVERT JUMPDEST POP CALLVALUE PUSH2 0x121 JUMPI PUSH1 0x20 CALLDATASIZE PUSH1 0x3 NOT ADD SLT PUSH2 0x121 JUMPI PUSH2 0x13F PUSH2 0x9D1 JUMP JUMPDEST PUSH2 0x147 PUSH2 0xA61 JUMP JUMPDEST PUSH1 0x1 PUSH1 0x1 PUSH1 0xA0 SHL SUB AND SWAP1 DUP2 ISZERO PUSH2 0x1B6 JUMPI POP PUSH32 0xEA5ED109CE93951F1FE8DC561074110044205C00C5D8A784007F98A8A474A544 SWAP2 DUP2 PUSH1 0x80 SWAP3 PUSH1 0x1 PUSH1 0x1 PUSH1 0x60 SHL SUB PUSH1 0xA0 SHL PUSH1 0x2 SLOAD AND OR PUSH1 0x2 SSTORE PUSH1 0x8 DUP3 MLOAD SWAP3 DUP1 DUP5 MSTORE DUP4 ADD MSTORE PUSH8 0x7472656173757279 PUSH1 0xC0 SHL PUSH1 0x60 DUP4 ADD MSTORE PUSH1 0x20 DUP3 ADD MSTORE LOG1 DUP1 RETURN JUMPDEST DUP3 MLOAD PUSH4 0x681D319 PUSH1 0xE5 SHL DUP2 MSTORE REVERT JUMPDEST POP SWAP1 CALLVALUE PUSH2 0x121 JUMPI DUP1 PUSH1 0x3 NOT CALLDATASIZE ADD SLT PUSH2 0x121 JUMPI PUSH2 0x1FE SWAP2 CALLDATALOAD PUSH2 0x1F9 PUSH1 0x1 PUSH2 0x1E8 PUSH2 0x9B6 JUMP JUMPDEST SWAP4 DUP4 DUP8 MSTORE DUP2 PUSH1 0x20 MSTORE DUP7 KECCAK256 ADD SLOAD PUSH2 0xA9B JUMP JUMPDEST PUSH2 0xBEF JUMP JUMPDEST POP DUP1 RETURN JUMPDEST POP POP CALLVALUE PUSH2 0x22B JUMPI DUP2 PUSH1 0x3 NOT CALLDATASIZE ADD SLT PUSH2 0x22B JUMPI PUSH1 0x2 SLOAD SWAP1 MLOAD PUSH1 0x1 PUSH1 0x1 PUSH1 0xA0 SHL SUB SWAP1 SWAP2 AND DUP2 MSTORE PUSH1 0x20 SWAP1 RETURN JUMPDEST POP DUP1 REVERT JUMPDEST POP CALLVALUE PUSH2 0x121 JUMPI PUSH1 0x80 CALLDATASIZE PUSH1 0x3 NOT ADD SLT PUSH2 0x121 JUMPI PUSH2 0x249 PUSH2 0xA61 JUMP JUMPDEST DUP1 CALLDATALOAD SWAP2 DUP3 ISZERO PUSH2 0x2DD JUMPI PUSH1 0x44 CALLDATALOAD SWAP1 PUSH1 0x24 CALLDATALOAD PUSH2 0x263 DUP4 DUP3 PUSH2 0xD3A JUMP JUMPDEST SWAP4 PUSH2 0x271 PUSH1 0x64 CALLDATALOAD DUP1 SWAP7 PUSH2 0xD3A JUMP JUMPDEST DUP7 SUB PUSH2 0x2CF JUMPI PUSH2 0x3E8 DUP7 GT PUSH2 0x2CF JUMPI POP SWAP2 PUSH1 0x80 SWAP4 SWAP2 DUP6 SWAP4 PUSH32 0xAD166D8BE1925EE44C5A77600B8A5F7E58CBE711C0DBD99624014A81B8350BA SWAP7 PUSH1 0x5 SSTORE DUP1 PUSH1 0x6 SSTORE DUP3 PUSH1 0x7 SSTORE DUP4 PUSH1 0x8 SSTORE DUP2 MLOAD SWAP5 DUP6 MSTORE PUSH1 0x20 DUP6 ADD MSTORE DUP4 ADD MSTORE PUSH1 0x60 DUP3 ADD MSTORE LOG1 DUP1 RETURN JUMPDEST DUP3 MLOAD PUSH4 0x2B00A33D PUSH1 0xE1 SHL DUP2 MSTORE REVERT JUMPDEST MLOAD PUSH4 0x2B00A33D PUSH1 0xE1 SHL DUP2 MSTORE REVERT JUMPDEST POP POP CALLVALUE PUSH2 0x22B JUMPI DUP2 PUSH1 0x3 NOT CALLDATASIZE ADD SLT PUSH2 0x22B JUMPI MLOAD SWAP1 DUP2 MSTORE PUSH1 0x20 SWAP1 RETURN JUMPDEST POP SWAP2 SWAP1 DUP2 PUSH1 0x3 NOT CALLDATASIZE ADD SLT PUSH2 0x22B JUMPI PUSH2 0x31B PUSH2 0xC66 JUMP JUMPDEST PUSH2 0x323 PUSH2 0x9E7 JUMP JUMPDEST CALLVALUE ISZERO PUSH2 0x470 JUMPI PUSH2 0x335 PUSH1 0x6 SLOAD CALLVALUE PUSH2 0xCF1 JUMP JUMPDEST SWAP1 PUSH2 0x343 PUSH1 0x5 SLOAD DUP1 SWAP4 PUSH2 0xD1A JUMP JUMPDEST SWAP2 PUSH2 0x369 PUSH2 0x35C DUP3 PUSH2 0x357 PUSH1 0x7 SLOAD CALLVALUE PUSH2 0xCF1 JUMP JUMPDEST PUSH2 0xD1A JUMP JUMPDEST SWAP2 PUSH2 0x357 PUSH1 0x8 SLOAD CALLVALUE PUSH2 0xCF1 JUMP JUMPDEST SWAP3 PUSH2 0x37D DUP5 PUSH2 0x378 DUP5 DUP5 PUSH2 0xD3A JUMP JUMPDEST PUSH2 0xD3A JUMP JUMPDEST CALLVALUE SUB SWAP1 CALLVALUE DUP3 GT PUSH2 0x45D JUMPI SWAP6 DUP6 PUSH2 0x396 DUP6 SWAP5 SWAP4 DUP3 SWAP10 PUSH2 0xD3A JUMP JUMPDEST PUSH1 0x2 SLOAD PUSH1 0x1 PUSH1 0x1 PUSH1 0xA0 SHL SUB SWAP5 SWAP2 DUP4 SWAP2 PUSH2 0x3B2 SWAP1 DUP3 SWAP1 DUP9 AND PUSH2 0xDAF JUMP JUMPDEST PUSH2 0x3C0 DUP4 DUP8 PUSH1 0x3 SLOAD AND PUSH2 0xDAF JUMP JUMPDEST PUSH2 0x3CD DUP10 DUP8 DUP8 SLOAD AND PUSH2 0xDAF JUMP JUMPDEST DUP2 PUSH32 0x6C5EFEFF5C320943D265DC4E5F1AF95AD523555CE0C1957E367DDA5514572DF PUSH1 0x20 DUP10 MLOAD CALLVALUE DUP2 MSTORE LOG2 DUP6 PUSH1 0x2 SLOAD AND SWAP1 PUSH1 0x6 SLOAD DUP9 MLOAD SWAP2 DUP3 MSTORE PUSH1 0x20 DUP3 ADD MSTORE PUSH32 0x2D248F4DA84EAC8067451C76799309F631DE3AB3F02708CB6D20D034371D0A54 SWAP9 DUP10 SWAP2 LOG3 DUP6 DUP6 DUP6 PUSH1 0x3 SLOAD AND SWAP3 PUSH1 0x7 SLOAD DUP3 MLOAD SWAP2 DUP3 MSTORE PUSH1 0x20 DUP3 ADD MSTORE LOG3 SLOAD AND SWAP3 PUSH1 0x8 SLOAD DUP3 MLOAD SWAP2 DUP3 MSTORE PUSH1 0x20 DUP3 ADD MSTORE LOG3 PUSH1 0x1 DUP2 SSTORE DUP1 RETURN JUMPDEST PUSH4 0x4E487B71 PUSH1 0xE0 SHL DUP7 MSTORE PUSH1 0x11 DUP8 MSTORE PUSH1 0x24 DUP7 REVERT JUMPDEST MLOAD PUSH4 0x1F2A2005 PUSH1 0xE0 SHL DUP2 MSTORE SWAP1 POP REVERT JUMPDEST POP POP CALLVALUE PUSH2 0x22B JUMPI DUP2 PUSH1 0x3 NOT CALLDATASIZE ADD SLT PUSH2 0x22B JUMPI PUSH1 0x20 SWAP1 MLOAD PUSH32 0x6A4B509B5F306A69EC99E97FF6B166DAAD9C0A3DFCE739A6D67AD1C57143A6B2 DUP2 MSTORE RETURN JUMPDEST POP CALLVALUE PUSH2 0x121 JUMPI DUP2 PUSH1 0x3 NOT CALLDATASIZE ADD SLT PUSH2 0x121 JUMPI DUP2 PUSH1 0x20 SWAP4 PUSH1 0xFF SWAP3 PUSH2 0x4DA PUSH2 0x9B6 JUMP JUMPDEST SWAP1 CALLDATALOAD DUP3 MSTORE PUSH1 0x1 DUP7 MSTORE DUP3 DUP3 KECCAK256 PUSH1 0x1 PUSH1 0x1 PUSH1 0xA0 SHL SUB SWAP1 SWAP2 AND DUP3 MSTORE DUP6 MSTORE KECCAK256 SLOAD SWAP2 MLOAD SWAP2 AND ISZERO ISZERO DUP2 MSTORE RETURN JUMPDEST POP POP CALLVALUE PUSH2 0x22B JUMPI DUP2 PUSH1 0x3 NOT CALLDATASIZE ADD SLT PUSH2 0x22B JUMPI PUSH1 0x3 SLOAD SWAP1 MLOAD PUSH1 0x1 PUSH1 0x1 PUSH1 0xA0 SHL SUB SWAP1 SWAP2 AND DUP2 MSTORE PUSH1 0x20 SWAP1 RETURN JUMPDEST POP CALLVALUE PUSH2 0x121 JUMPI PUSH1 0x20 CALLDATASIZE PUSH1 0x3 NOT ADD SLT PUSH2 0x121 JUMPI PUSH2 0x543 PUSH2 0x9D1 JUMP JUMPDEST PUSH2 0x54B PUSH2 0xA61 JUMP JUMPDEST PUSH1 0x1 PUSH1 0x1 PUSH1 0xA0 SHL SUB AND SWAP1 DUP2 ISZERO PUSH2 0x1B6 JUMPI POP PUSH32 0xEA5ED109CE93951F1FE8DC561074110044205C00C5D8A784007F98A8A474A544 SWAP2 DUP2 PUSH1 0x80 SWAP3 PUSH1 0x1 PUSH1 0x1 PUSH1 0x60 SHL SUB PUSH1 0xA0 SHL PUSH1 0x3 SLOAD AND OR PUSH1 0x3 SSTORE PUSH1 0xC DUP3 MLOAD SWAP3 DUP1 DUP5 MSTORE DUP4 ADD MSTORE PUSH12 0x1C9959995C9C985B141BDBDB PUSH1 0xA2 SHL PUSH1 0x60 DUP4 ADD MSTORE PUSH1 0x20 DUP3 ADD MSTORE LOG1 DUP1 RETURN JUMPDEST POP CALLVALUE PUSH2 0x121 JUMPI PUSH1 0x20 CALLDATASIZE PUSH1 0x3 NOT ADD SLT PUSH2 0x121 JUMPI PUSH2 0x5D8 PUSH2 0x9D1 JUMP JUMPDEST PUSH2 0x5E0 PUSH2 0xA61 JUMP JUMPDEST PUSH1 0x1 PUSH1 0x1 PUSH1 0xA0 SHL SUB AND SWAP1 DUP2 ISZERO PUSH2 0x1B6 JUMPI SWAP2 DUP2 PUSH32 0xEA5ED109CE93951F1FE8DC561074110044205C00C5D8A784007F98A8A474A544 SWAP4 PUSH1 0x80 SWAP4 PUSH1 0x1 PUSH1 0x1 PUSH1 0x60 SHL SUB PUSH1 0xA0 SHL DUP3 SLOAD AND OR SWAP1 SSTORE PUSH1 0xA DUP3 MLOAD SWAP3 DUP1 DUP5 MSTORE DUP4 ADD MSTORE PUSH10 0x7362745374616B696E67 PUSH1 0xB0 SHL PUSH1 0x60 DUP4 ADD MSTORE PUSH1 0x20 DUP3 ADD MSTORE LOG1 DUP1 RETURN JUMPDEST DUP4 CALLVALUE PUSH2 0x679 JUMPI PUSH1 0x20 CALLDATASIZE PUSH1 0x3 NOT ADD SLT PUSH2 0x679 JUMPI PUSH2 0x1FE PUSH2 0x66C PUSH2 0x9D1 JUMP JUMPDEST PUSH2 0x674 PUSH2 0xA61 JUMP JUMPDEST PUSH2 0xAC1 JUMP JUMPDEST DUP1 REVERT JUMPDEST POP SWAP1 CALLVALUE PUSH2 0x121 JUMPI DUP1 PUSH1 0x3 NOT CALLDATASIZE ADD SLT PUSH2 0x121 JUMPI PUSH2 0x696 PUSH2 0x9D1 JUMP JUMPDEST SWAP1 PUSH1 0x24 CALLDATALOAD SWAP2 PUSH2 0x6A3 PUSH2 0xC66 JUMP JUMPDEST PUSH2 0x6AB PUSH2 0x9E7 JUMP JUMPDEST DUP3 ISZERO PUSH2 0x880 JUMPI DUP2 MLOAD PUSH4 0x23B872DD PUSH1 0xE0 SHL PUSH1 0x20 DUP3 ADD MSTORE CALLER PUSH1 0x24 DUP3 ADD MSTORE ADDRESS PUSH1 0x44 DUP3 ADD MSTORE PUSH1 0x64 DUP1 DUP3 ADD DUP6 SWAP1 MSTORE DUP2 MSTORE PUSH1 0x1 PUSH1 0x1 PUSH1 0xA0 SHL SUB SWAP2 DUP3 AND SWAP5 SWAP1 PUSH1 0xA0 DUP2 ADD PUSH8 0xFFFFFFFFFFFFFFFF DUP2 GT DUP3 DUP3 LT OR PUSH2 0x86D JUMPI DUP5 MSTORE PUSH2 0x706 SWAP1 DUP7 PUSH2 0xC89 JUMP JUMPDEST PUSH2 0x712 PUSH1 0x6 SLOAD DUP6 PUSH2 0xCF1 JUMP JUMPDEST PUSH2 0x71F PUSH1 0x5 SLOAD DUP1 SWAP3 PUSH2 0xD1A JUMP JUMPDEST SWAP5 PUSH2 0x740 PUSH2 0x733 DUP4 PUSH2 0x357 PUSH1 0x7 SLOAD DUP6 PUSH2 0xCF1 JUMP JUMPDEST SWAP3 PUSH2 0x357 PUSH1 0x8 SLOAD DUP5 PUSH2 0xCF1 JUMP JUMPDEST SWAP6 PUSH2 0x74F DUP8 PUSH2 0x378 DUP6 DUP5 PUSH2 0xD3A JUMP JUMPDEST DUP3 SUB SWAP1 DUP3 DUP3 GT PUSH2 0x85A JUMPI DUP9 SWAP3 DUP4 PUSH32 0x6C5EFEFF5C320943D265DC4E5F1AF95AD523555CE0C1957E367DDA5514572DF PUSH1 0x20 PUSH2 0x78E DUP12 SWAP11 SWAP10 SWAP9 SWAP7 DUP5 SWAP7 PUSH2 0xD3A JUMP JUMPDEST SWAP4 DUP4 PUSH2 0x829 JUMPI PUSH2 0x7A2 DUP6 DUP12 PUSH1 0x2 SLOAD AND PUSH2 0xDAF JUMP JUMPDEST PUSH2 0x7B0 DUP8 DUP12 PUSH1 0x3 SLOAD AND PUSH2 0xDAF JUMP JUMPDEST PUSH2 0x7BD DUP14 DUP12 DUP12 SLOAD AND PUSH2 0xDAF JUMP JUMPDEST DUP11 MLOAD SWAP1 DUP2 MSTORE LOG2 DUP6 PUSH1 0x2 SLOAD AND SWAP1 PUSH1 0x6 SLOAD DUP9 MLOAD SWAP2 DUP3 MSTORE PUSH1 0x20 DUP3 ADD MSTORE PUSH32 0x2D248F4DA84EAC8067451C76799309F631DE3AB3F02708CB6D20D034371D0A54 SWAP9 DUP10 SWAP2 LOG3 DUP6 DUP6 DUP6 PUSH1 0x3 SLOAD AND SWAP3 PUSH1 0x7 SLOAD DUP3 MLOAD SWAP2 DUP3 MSTORE PUSH1 0x20 DUP3 ADD MSTORE LOG3 SLOAD AND SWAP3 PUSH1 0x8 SLOAD DUP3 MLOAD SWAP2 DUP3 MSTORE PUSH1 0x20 DUP3 ADD MSTORE LOG3 PUSH1 0x1 DUP2 SSTORE DUP1 RETURN JUMPDEST PUSH2 0x838 DUP6 DUP12 PUSH1 0x2 SLOAD AND DUP7 PUSH2 0xD47 JUMP JUMPDEST PUSH2 0x847 DUP8 DUP12 PUSH1 0x3 SLOAD AND DUP7 PUSH2 0xD47 JUMP JUMPDEST PUSH2 0x855 DUP14 DUP12 DUP12 SLOAD AND DUP7 PUSH2 0xD47 JUMP JUMPDEST PUSH2 0x7BD JUMP JUMPDEST PUSH4 0x4E487B71 PUSH1 0xE0 SHL DUP11 MSTORE PUSH1 0x11 DUP6 MSTORE PUSH1 0x24 DUP11 REVERT JUMPDEST PUSH4 0x4E487B71 PUSH1 0xE0 SHL DUP9 MSTORE PUSH1 0x41 DUP4 MSTORE PUSH1 0x24 DUP9 REVERT JUMPDEST DUP2 MLOAD PUSH4 0x1F2A2005 PUSH1 0xE0 SHL DUP2 MSTORE DUP5 SWAP1 REVERT JUMPDEST POP SWAP2 SWAP1 CALLVALUE PUSH2 0x22B JUMPI DUP1 PUSH1 0x3 NOT CALLDATASIZE ADD SLT PUSH2 0x22B JUMPI PUSH2 0x8AB PUSH2 0x9B6 JUMP JUMPDEST SWAP1 CALLER PUSH1 0x1 PUSH1 0x1 PUSH1 0xA0 SHL SUB DUP4 AND SUB PUSH2 0x8C8 JUMPI POP PUSH2 0x1FE SWAP2 SWAP3 CALLDATALOAD PUSH2 0xBEF JUMP JUMPDEST MLOAD PUSH4 0x334BD919 PUSH1 0xE1 SHL DUP2 MSTORE DUP4 SWAP1 REVERT JUMPDEST POP SWAP1 CALLVALUE PUSH2 0x121 JUMPI DUP1 PUSH1 0x3 NOT CALLDATASIZE ADD SLT PUSH2 0x121 JUMPI PUSH2 0x1FE SWAP2 CALLDATALOAD PUSH2 0x8FB PUSH1 0x1 PUSH2 0x1E8 PUSH2 0x9B6 JUMP JUMPDEST PUSH2 0xB74 JUMP JUMPDEST POP CALLVALUE PUSH2 0x121 JUMPI PUSH1 0x20 CALLDATASIZE PUSH1 0x3 NOT ADD SLT PUSH2 0x121 JUMPI DUP2 PUSH1 0x20 SWAP4 PUSH1 0x1 SWAP3 CALLDATALOAD DUP2 MSTORE DUP3 DUP6 MSTORE KECCAK256 ADD SLOAD SWAP1 MLOAD SWAP1 DUP2 MSTORE RETURN JUMPDEST POP POP CALLVALUE PUSH2 0x22B JUMPI DUP2 PUSH1 0x3 NOT CALLDATASIZE ADD SLT PUSH2 0x22B JUMPI PUSH1 0x80 SWAP1 PUSH1 0x5 SLOAD SWAP1 PUSH1 0x6 SLOAD SWAP1 PUSH1 0x7 SLOAD SWAP1 PUSH1 0x8 SLOAD SWAP3 DUP2 MLOAD SWAP5 DUP6 MSTORE PUSH1 0x20 DUP6 ADD MSTORE DUP4 ADD MSTORE PUSH1 0x60 DUP3 ADD MSTORE RETURN JUMPDEST SWAP3 POP POP CALLVALUE PUSH2 0x121 JUMPI PUSH1 0x20 CALLDATASIZE PUSH1 0x3 NOT ADD SLT PUSH2 0x121 JUMPI CALLDATALOAD PUSH4 0xFFFFFFFF PUSH1 0xE0 SHL DUP2 AND DUP1 SWAP2 SUB PUSH2 0x121 JUMPI PUSH1 0x20 SWAP3 POP PUSH4 0x7965DB0B PUSH1 0xE0 SHL DUP2 EQ SWAP1 DUP2 ISZERO PUSH2 0x9A5 JUMPI JUMPDEST POP ISZERO ISZERO DUP2 MSTORE RETURN JUMPDEST PUSH4 0x1FFC9A7 PUSH1 0xE0 SHL EQ SWAP1 POP CODESIZE PUSH2 0x99E JUMP JUMPDEST PUSH1 0x24 CALLDATALOAD SWAP1 PUSH1 0x1 PUSH1 0x1 PUSH1 0xA0 SHL SUB DUP3 AND DUP3 SUB PUSH2 0x9CC JUMPI JUMP JUMPDEST PUSH1 0x0 DUP1 REVERT JUMPDEST PUSH1 0x4 CALLDATALOAD SWAP1 PUSH1 0x1 PUSH1 0x1 PUSH1 0xA0 SHL SUB DUP3 AND DUP3 SUB PUSH2 0x9CC JUMPI JUMP JUMPDEST CALLER PUSH1 0x0 SWAP1 DUP2 MSTORE PUSH32 0x8C1D1C4B0C8CAC968D2D79C3E12ADD88AF86AD783FBE5DFF2BD63ADBFCB82D9F PUSH1 0x20 MSTORE PUSH1 0x40 SWAP1 KECCAK256 SLOAD PUSH32 0x6A4B509B5F306A69EC99E97FF6B166DAAD9C0A3DFCE739A6D67AD1C57143A6B2 SWAP1 PUSH1 0xFF AND ISZERO PUSH2 0xA43 JUMPI POP JUMP JUMPDEST PUSH1 0x44 SWAP1 PUSH1 0x40 MLOAD SWAP1 PUSH4 0xE2517D3F PUSH1 0xE0 SHL DUP3 MSTORE CALLER PUSH1 0x4 DUP4 ADD MSTORE PUSH1 0x24 DUP3 ADD MSTORE REVERT JUMPDEST CALLER PUSH1 0x0 SWAP1 DUP2 MSTORE PUSH32 0xA6EEF7E35ABE7026729641147F7915573C7E97B47EFA546F5F6E3230263BCB49 PUSH1 0x20 MSTORE PUSH1 0x40 DUP2 KECCAK256 SLOAD PUSH1 0xFF AND ISZERO PUSH2 0xA43 JUMPI POP JUMP JUMPDEST DUP1 PUSH1 0x0 MSTORE PUSH1 0x1 PUSH1 0x20 MSTORE PUSH1 0x40 PUSH1 0x0 KECCAK256 CALLER PUSH1 0x0 MSTORE PUSH1 0x20 MSTORE PUSH1 0xFF PUSH1 0x40 PUSH1 0x0 KECCAK256 SLOAD AND ISZERO PUSH2 0xA43 JUMPI POP JUMP JUMPDEST PUSH1 0x1 PUSH1 0x1 PUSH1 0xA0 SHL SUB AND PUSH1 0x0 DUP2 DUP2 MSTORE PUSH32 0x8C1D1C4B0C8CAC968D2D79C3E12ADD88AF86AD783FBE5DFF2BD63ADBFCB82D9F PUSH1 0x20 MSTORE PUSH1 0x40 DUP2 KECCAK256 SLOAD SWAP1 SWAP2 SWAP1 PUSH32 0x6A4B509B5F306A69EC99E97FF6B166DAAD9C0A3DFCE739A6D67AD1C57143A6B2 SWAP1 PUSH1 0xFF AND PUSH2 0xB6F JUMPI DUP1 DUP4 MSTORE PUSH1 0x1 PUSH1 0x20 MSTORE PUSH1 0x40 DUP4 KECCAK256 DUP3 DUP5 MSTORE PUSH1 0x20 MSTORE PUSH1 0x40 DUP4 KECCAK256 PUSH1 0x1 PUSH1 0xFF NOT DUP3 SLOAD AND OR SWAP1 SSTORE PUSH32 0x2F8788117E7EFF1D82E926EC794901D17C78024A50270940304540A733656F0D CALLER SWAP4 DUP1 LOG4 PUSH1 0x1 SWAP1 JUMP JUMPDEST POP POP SWAP1 JUMP JUMPDEST SWAP1 PUSH1 0x0 SWAP2 DUP1 DUP4 MSTORE PUSH1 0x1 PUSH1 0x20 MSTORE PUSH1 0x40 DUP4 KECCAK256 SWAP2 PUSH1 0x1 DUP1 PUSH1 0xA0 SHL SUB AND SWAP2 DUP3 DUP5 MSTORE PUSH1 0x20 MSTORE PUSH1 0xFF PUSH1 0x40 DUP5 KECCAK256 SLOAD AND ISZERO PUSH1 0x0 EQ PUSH2 0xB6F JUMPI DUP1 DUP4 MSTORE PUSH1 0x1 PUSH1 0x20 MSTORE PUSH1 0x40 DUP4 KECCAK256 DUP3 DUP5 MSTORE PUSH1 0x20 MSTORE PUSH1 0x40 DUP4 KECCAK256 PUSH1 0x1 PUSH1 0xFF NOT DUP3 SLOAD AND OR SWAP1 SSTORE PUSH32 0x2F8788117E7EFF1D82E926EC794901D17C78024A50270940304540A733656F0D CALLER SWAP4 DUP1 LOG4 PUSH1 0x1 SWAP1 JUMP JUMPDEST SWAP1 PUSH1 0x0 SWAP2 DUP1 DUP4 MSTORE PUSH1 0x1 PUSH1 0x20 MSTORE PUSH1 0x40 DUP4 KECCAK256 SWAP2 PUSH1 0x1 DUP1 PUSH1 0xA0 SHL SUB AND SWAP2 DUP3 DUP5 MSTORE PUSH1 0x20 MSTORE PUSH1 0xFF PUSH1 0x40 DUP5 KECCAK256 SLOAD AND PUSH1 0x0 EQ PUSH2 0xB6F JUMPI DUP1 DUP4 MSTORE PUSH1 0x1 PUSH1 0x20 MSTORE PUSH1 0x40 DUP4 KECCAK256 DUP3 DUP5 MSTORE PUSH1 0x20 MSTORE PUSH1 0x40 DUP4 KECCAK256 PUSH1 0xFF NOT DUP2 SLOAD AND SWAP1 SSTORE PUSH32 0xF6391F5C32D9C69D2A47EA670B442974B53935D1EDC7FD64EB21E047A839171B CALLER SWAP4 DUP1 LOG4 PUSH1 0x1 SWAP1 JUMP JUMPDEST PUSH1 0x2 PUSH1 0x0 SLOAD EQ PUSH2 0xC77 JUMPI PUSH1 0x2 PUSH1 0x0 SSTORE JUMP JUMPDEST PUSH1 0x40 MLOAD PUSH4 0x3EE5AEB5 PUSH1 0xE0 SHL DUP2 MSTORE PUSH1 0x4 SWAP1 REVERT JUMPDEST SWAP1 PUSH1 0x0 PUSH1 0x20 SWAP2 DUP3 DUP2 MLOAD SWAP2 ADD DUP3 DUP6 GAS CALL ISZERO PUSH2 0xCE5 JUMPI PUSH1 0x0 MLOAD RETURNDATASIZE PUSH2 0xCDC JUMPI POP PUSH1 0x1 PUSH1 0x1 PUSH1 0xA0 SHL SUB DUP2 AND EXTCODESIZE ISZERO JUMPDEST PUSH2 0xCBA JUMPI POP JUMP JUMPDEST PUSH1 0x40 MLOAD PUSH4 0x5274AFE7 PUSH1 0xE0 SHL DUP2 MSTORE PUSH1 0x1 PUSH1 0x1 PUSH1 0xA0 SHL SUB SWAP1 SWAP2 AND PUSH1 0x4 DUP3 ADD MSTORE PUSH1 0x24 SWAP1 REVERT JUMPDEST PUSH1 0x1 EQ ISZERO PUSH2 0xCB3 JUMP JUMPDEST PUSH1 0x40 MLOAD RETURNDATASIZE PUSH1 0x0 DUP3 RETURNDATACOPY RETURNDATASIZE SWAP1 REVERT JUMPDEST DUP2 DUP2 MUL SWAP3 SWAP2 DUP2 ISZERO SWAP2 DUP5 DIV EQ OR ISZERO PUSH2 0xD04 JUMPI JUMP JUMPDEST PUSH4 0x4E487B71 PUSH1 0xE0 SHL PUSH1 0x0 MSTORE PUSH1 0x11 PUSH1 0x4 MSTORE PUSH1 0x24 PUSH1 0x0 REVERT JUMPDEST DUP2 ISZERO PUSH2 0xD24 JUMPI DIV SWAP1 JUMP JUMPDEST PUSH4 0x4E487B71 PUSH1 0xE0 SHL PUSH1 0x0 MSTORE PUSH1 0x12 PUSH1 0x4 MSTORE PUSH1 0x24 PUSH1 0x0 REVERT JUMPDEST SWAP2 SWAP1 DUP3 ADD DUP1 SWAP3 GT PUSH2 0xD04 JUMPI JUMP JUMPDEST PUSH1 0x40 MLOAD PUSH4 0xA9059CBB PUSH1 0xE0 SHL PUSH1 0x20 DUP3 ADD MSTORE PUSH1 0x1 PUSH1 0x1 PUSH1 0xA0 SHL SUB SWAP1 SWAP3 AND PUSH1 0x24 DUP4 ADD MSTORE PUSH1 0x44 DUP1 DUP4 ADD SWAP4 SWAP1 SWAP4 MSTORE SWAP2 DUP2 MSTORE PUSH1 0x80 DUP2 ADD SWAP2 PUSH8 0xFFFFFFFFFFFFFFFF DUP4 GT DUP3 DUP5 LT OR PUSH2 0xD99 JUMPI PUSH2 0xD97 SWAP3 PUSH1 0x40 MSTORE PUSH2 0xC89 JUMP JUMPDEST JUMP JUMPDEST PUSH4 0x4E487B71 PUSH1 0xE0 SHL PUSH1 0x0 MSTORE PUSH1 0x41 PUSH1 0x4 MSTORE PUSH1 0x24 PUSH1 0x0 REVERT JUMPDEST PUSH1 0x0 DUP1 DUP1 DUP1 SWAP5 DUP2 SWAP5 GAS CALL SWAP1 RETURNDATASIZE ISZERO PUSH2 0xE3E JUMPI PUSH8 0xFFFFFFFFFFFFFFFF SWAP1 RETURNDATASIZE DUP3 DUP2 GT PUSH2 0xE2A JUMPI PUSH1 0x40 MLOAD SWAP3 PUSH1 0x1F DUP3 ADD PUSH1 0x1F NOT SWAP1 DUP2 AND PUSH1 0x3F ADD AND DUP5 ADD SWAP1 DUP2 GT DUP5 DUP3 LT OR PUSH2 0xE16 JUMPI PUSH1 0x40 MSTORE DUP3 MSTORE PUSH1 0x20 RETURNDATASIZE SWAP3 ADD RETURNDATACOPY JUMPDEST ISZERO PUSH2 0xE04 JUMPI JUMP JUMPDEST PUSH1 0x40 MLOAD PUSH4 0x12171D83 PUSH1 0xE3 SHL DUP2 MSTORE PUSH1 0x4 SWAP1 REVERT JUMPDEST PUSH4 0x4E487B71 PUSH1 0xE0 SHL DUP4 MSTORE PUSH1 0x41 PUSH1 0x4 MSTORE PUSH1 0x24 DUP4 REVERT JUMPDEST PUSH4 0x4E487B71 PUSH1 0xE0 SHL DUP3 MSTORE PUSH1 0x41 PUSH1 0x4 MSTORE PUSH1 0x24 DUP3 REVERT JUMPDEST POP PUSH2 0xDFD JUMP INVALID LOG2 PUSH5 0x6970667358 0x22 SLT KECCAK256 0xC2 PUSH4 0x2EB46CB0 JUMPI PUSH18 0x154B5326320DE21A001BA22FA843B27E67A1 0xDA SELFBALANCE 0xFC 0xF9 DUP2 0xF6 PUSH5 0x736F6C6343 STOP ADDMOD EQ STOP CALLER 0x2F DUP8 DUP9 GT PUSH31 0x7EFF1D82E926EC794901D17C78024A50270940304540A733656F0D00000000 "},"methodIdentifiers":{"DEFAULT_ADMIN_ROLE()":"a217fddf","PRESALE_ROLE()":"9326197a","distributeFeeERC20(address,uint256)":"398da911","distributeFeeNative()":"990087b7","feeConfig()":"1e5eb1d0","getRoleAdmin(bytes32)":"248a9ca3","grantPresaleRole(address)":"417eb66c","grantRole(bytes32,address)":"2f2ff15d","hasRole(bytes32,address)":"91d14854","referralPoolVault()":"66afa8b7","renounceRole(bytes32,address)":"36568abe","revokeRole(bytes32,address)":"d547741f","sbtStakingVault()":"ef025e3a","setFeeConfig((uint256,uint256,uint256,uint256))":"a9eddf99","setReferralPoolVault(address)":"460adaf0","setSbtStakingVault(address)":"42d8e8fd","setTreasuryVault(address)":"d5f80c34","supportsInterface(bytes4)":"01ffc9a7","treasuryVault()":"af8b1c6f"}}}}}