{"contracts/PresaleRound.sol":{"PresaleRound":{"abi":[{"inputs":[{"internalType":"address","name":"_projectToken","type":"address"},{"internalType":"address","name":"_paymentToken","type":"address"},{"internalType":"uint256","name":"_softCap","type":"uint256"},{"internalType":"uint256","name":"_hardCap","type":"uint256"},{"internalType":"uint256","name":"_minContribution","type":"uint256"},{"internalType":"uint256","name":"_maxContribution","type":"uint256"},{"internalType":"uint256","name":"_startTime","type":"uint256"},{"internalType":"uint256","name":"_endTime","type":"uint256"},{"internalType":"address","name":"_feeSplitter","type":"address"},{"internalType":"address","name":"_vestingVault","type":"address"},{"internalType":"address","name":"_projectOwner","type":"address"},{"internalType":"address","name":"_admin","type":"address"}],"stateMutability":"nonpayable","type":"constructor"},{"inputs":[],"name":"AccessControlBadConfirmation","type":"error"},{"inputs":[{"internalType":"address","name":"account","type":"address"},{"internalType":"bytes32","name":"neededRole","type":"bytes32"}],"name":"AccessControlUnauthorizedAccount","type":"error"},{"inputs":[],"name":"BelowMinimum","type":"error"},{"inputs":[],"name":"ConfigLocked","type":"error"},{"inputs":[],"name":"ContributionLimitExceeded","type":"error"},{"inputs":[],"name":"EnforcedPause","type":"error"},{"inputs":[],"name":"ExpectedPause","type":"error"},{"inputs":[],"name":"HardCapExceeded","type":"error"},{"inputs":[],"name":"InvalidAddress","type":"error"},{"inputs":[],"name":"InvalidFeeConfig","type":"error"},{"inputs":[],"name":"InvalidStatus","type":"error"},{"inputs":[],"name":"NoContribution","type":"error"},{"inputs":[],"name":"ReentrancyGuardReentrantCall","type":"error"},{"inputs":[],"name":"RefundNotAvailable","type":"error"},{"inputs":[{"internalType":"address","name":"token","type":"address"}],"name":"SafeERC20FailedOperation","type":"error"},{"inputs":[],"name":"SoftCapNotMet","type":"error"},{"inputs":[],"name":"VestingFundingFailed","type":"error"},{"anonymous":false,"inputs":[{"indexed":false,"internalType":"string","name":"reason","type":"string"}],"name":"Cancelled","type":"event"},{"anonymous":false,"inputs":[{"indexed":true,"internalType":"address","name":"contributor","type":"address"},{"indexed":false,"internalType":"uint256","name":"amount","type":"uint256"},{"indexed":true,"internalType":"address","name":"referrer","type":"address"}],"name":"Contributed","type":"event"},{"anonymous":false,"inputs":[{"components":[{"internalType":"uint256","name":"totalBps","type":"uint256"},{"internalType":"uint256","name":"treasuryBps","type":"uint256"},{"internalType":"uint256","name":"referralPoolBps","type":"uint256"},{"internalType":"uint256","name":"sbtStakingBps","type":"uint256"}],"indexed":false,"internalType":"struct PresaleRound.FeeConfig","name":"newConfig","type":"tuple"}],"name":"FeeConfigUpdated","type":"event"},{"anonymous":false,"inputs":[{"indexed":false,"internalType":"string","name":"reason","type":"string"}],"name":"FinalizedFailed","type":"event"},{"anonymous":false,"inputs":[{"indexed":false,"internalType":"uint256","name":"totalRaised","type":"uint256"},{"indexed":false,"internalType":"uint256","name":"feeAmount","type":"uint256"},{"indexed":false,"internalType":"uint256","name":"tgeTimestamp","type":"uint256"}],"name":"FinalizedSuccess","type":"event"},{"anonymous":false,"inputs":[{"indexed":false,"internalType":"address","name":"account","type":"address"}],"name":"Paused","type":"event"},{"anonymous":false,"inputs":[{"indexed":true,"internalType":"address","name":"contributor","type":"address"},{"indexed":false,"internalType":"uint256","name":"amount","type":"uint256"}],"name":"Refunded","type":"event"},{"anonymous":false,"inputs":[{"indexed":true,"internalType":"bytes32","name":"role","type":"bytes32"},{"indexed":true,"internalType":"bytes32","name":"previousAdminRole","type":"bytes32"},{"indexed":true,"internalType":"bytes32","name":"newAdminRole","type":"bytes32"}],"name":"RoleAdminChanged","type":"event"},{"anonymous":false,"inputs":[{"indexed":true,"internalType":"bytes32","name":"role","type":"bytes32"},{"indexed":true,"internalType":"address","name":"account","type":"address"},{"indexed":true,"internalType":"address","name":"sender","type":"address"}],"name":"RoleGranted","type":"event"},{"anonymous":false,"inputs":[{"indexed":true,"internalType":"bytes32","name":"role","type":"bytes32"},{"indexed":true,"internalType":"address","name":"account","type":"address"},{"indexed":true,"internalType":"address","name":"sender","type":"address"}],"name":"RoleRevoked","type":"event"},{"anonymous":false,"inputs":[{"indexed":false,"internalType":"enum PresaleRound.Status","name":"oldStatus","type":"uint8"},{"indexed":false,"internalType":"enum PresaleRound.Status","name":"newStatus","type":"uint8"}],"name":"StatusSynced","type":"event"},{"anonymous":false,"inputs":[{"indexed":false,"internalType":"address","name":"account","type":"address"}],"name":"Unpaused","type":"event"},{"inputs":[],"name":"ADMIN_ROLE","outputs":[{"internalType":"bytes32","name":"","type":"bytes32"}],"stateMutability":"view","type":"function"},{"inputs":[],"name":"DEFAULT_ADMIN_ROLE","outputs":[{"internalType":"bytes32","name":"","type":"bytes32"}],"stateMutability":"view","type":"function"},{"inputs":[{"internalType":"string","name":"reason","type":"string"}],"name":"cancel","outputs":[],"stateMutability":"nonpayable","type":"function"},{"inputs":[],"name":"claimRefund","outputs":[],"stateMutability":"nonpayable","type":"function"},{"inputs":[{"internalType":"uint256","name":"amount","type":"uint256"},{"internalType":"address","name":"referrer","type":"address"}],"name":"contribute","outputs":[],"stateMutability":"payable","type":"function"},{"inputs":[{"internalType":"address","name":"","type":"address"}],"name":"contributions","outputs":[{"internalType":"uint256","name":"","type":"uint256"}],"stateMutability":"view","type":"function"},{"inputs":[],"name":"endTime","outputs":[{"internalType":"uint256","name":"","type":"uint256"}],"stateMutability":"view","type":"function"},{"inputs":[],"name":"feeConfig","outputs":[{"internalType":"uint256","name":"totalBps","type":"uint256"},{"internalType":"uint256","name":"treasuryBps","type":"uint256"},{"internalType":"uint256","name":"referralPoolBps","type":"uint256"},{"internalType":"uint256","name":"sbtStakingBps","type":"uint256"}],"stateMutability":"view","type":"function"},{"inputs":[],"name":"feeSplitter","outputs":[{"internalType":"address","name":"","type":"address"}],"stateMutability":"view","type":"function"},{"inputs":[{"internalType":"string","name":"reason","type":"string"}],"name":"finalizeFailed","outputs":[],"stateMutability":"nonpayable","type":"function"},{"inputs":[{"internalType":"bytes32","name":"merkleRoot","type":"bytes32"},{"internalType":"uint256","name":"totalVestingAllocation","type":"uint256"}],"name":"finalizeSuccess","outputs":[],"stateMutability":"nonpayable","type":"function"},{"inputs":[{"internalType":"address","name":"contributor","type":"address"}],"name":"getContributionInfo","outputs":[{"internalType":"uint256","name":"contribution","type":"uint256"},{"internalType":"address","name":"referrer","type":"address"}],"stateMutability":"view","type":"function"},{"inputs":[],"name":"getPresaleInfo","outputs":[{"internalType":"enum PresaleRound.Status","name":"_status","type":"uint8"},{"internalType":"uint256","name":"_totalRaised","type":"uint256"},{"internalType":"uint256","name":"_softCap","type":"uint256"},{"internalType":"uint256","name":"_hardCap","type":"uint256"},{"internalType":"uint256","name":"_startTime","type":"uint256"},{"internalType":"uint256","name":"_endTime","type":"uint256"},{"internalType":"uint256","name":"_tgeTimestamp","type":"uint256"}],"stateMutability":"view","type":"function"},{"inputs":[{"internalType":"bytes32","name":"role","type":"bytes32"}],"name":"getRoleAdmin","outputs":[{"internalType":"bytes32","name":"","type":"bytes32"}],"stateMutability":"view","type":"function"},{"inputs":[{"internalType":"bytes32","name":"role","type":"bytes32"},{"internalType":"address","name":"account","type":"address"}],"name":"grantRole","outputs":[],"stateMutability":"nonpayable","type":"function"},{"inputs":[],"name":"hardCap","outputs":[{"internalType":"uint256","name":"","type":"uint256"}],"stateMutability":"view","type":"function"},{"inputs":[{"internalType":"bytes32","name":"role","type":"bytes32"},{"internalType":"address","name":"account","type":"address"}],"name":"hasRole","outputs":[{"internalType":"bool","name":"","type":"bool"}],"stateMutability":"view","type":"function"},{"inputs":[],"name":"maxContribution","outputs":[{"internalType":"uint256","name":"","type":"uint256"}],"stateMutability":"view","type":"function"},{"inputs":[],"name":"minContribution","outputs":[{"internalType":"uint256","name":"","type":"uint256"}],"stateMutability":"view","type":"function"},{"inputs":[],"name":"pause","outputs":[],"stateMutability":"nonpayable","type":"function"},{"inputs":[],"name":"paused","outputs":[{"internalType":"bool","name":"","type":"bool"}],"stateMutability":"view","type":"function"},{"inputs":[],"name":"paymentToken","outputs":[{"internalType":"address","name":"","type":"address"}],"stateMutability":"view","type":"function"},{"inputs":[],"name":"projectOwner","outputs":[{"internalType":"address","name":"","type":"address"}],"stateMutability":"view","type":"function"},{"inputs":[],"name":"projectToken","outputs":[{"internalType":"address","name":"","type":"address"}],"stateMutability":"view","type":"function"},{"inputs":[{"internalType":"address","name":"","type":"address"}],"name":"referrers","outputs":[{"internalType":"address","name":"","type":"address"}],"stateMutability":"view","type":"function"},{"inputs":[{"internalType":"bytes32","name":"role","type":"bytes32"},{"internalType":"address","name":"callerConfirmation","type":"address"}],"name":"renounceRole","outputs":[],"stateMutability":"nonpayable","type":"function"},{"inputs":[{"internalType":"bytes32","name":"role","type":"bytes32"},{"internalType":"address","name":"account","type":"address"}],"name":"revokeRole","outputs":[],"stateMutability":"nonpayable","type":"function"},{"inputs":[{"components":[{"internalType":"uint256","name":"totalBps","type":"uint256"},{"internalType":"uint256","name":"treasuryBps","type":"uint256"},{"internalType":"uint256","name":"referralPoolBps","type":"uint256"},{"internalType":"uint256","name":"sbtStakingBps","type":"uint256"}],"internalType":"struct PresaleRound.FeeConfig","name":"newConfig","type":"tuple"}],"name":"setFeeConfig","outputs":[],"stateMutability":"nonpayable","type":"function"},{"inputs":[],"name":"softCap","outputs":[{"internalType":"uint256","name":"","type":"uint256"}],"stateMutability":"view","type":"function"},{"inputs":[],"name":"startTime","outputs":[{"internalType":"uint256","name":"","type":"uint256"}],"stateMutability":"view","type":"function"},{"inputs":[],"name":"status","outputs":[{"internalType":"enum PresaleRound.Status","name":"","type":"uint8"}],"stateMutability":"view","type":"function"},{"inputs":[{"internalType":"bytes4","name":"interfaceId","type":"bytes4"}],"name":"supportsInterface","outputs":[{"internalType":"bool","name":"","type":"bool"}],"stateMutability":"view","type":"function"},{"inputs":[],"name":"tgeTimestamp","outputs":[{"internalType":"uint256","name":"","type":"uint256"}],"stateMutability":"view","type":"function"},{"inputs":[],"name":"totalRaised","outputs":[{"internalType":"uint256","name":"","type":"uint256"}],"stateMutability":"view","type":"function"},{"inputs":[],"name":"unpause","outputs":[],"stateMutability":"nonpayable","type":"function"},{"inputs":[],"name":"vestingVault","outputs":[{"internalType":"address","name":"","type":"address"}],"stateMutability":"view","type":"function"}],"evm":{"bytecode":{"linkReferences":{},"object":"6101e034620002df57601f62001db738819003918201601f19168301916001600160401b03831184841017620002a55780849261018094604052833981010312620002df576200004f81620002e4565b906200005e60208201620002e4565b916040820151926060830151608084015160a085015160c08601519060e0870151926200008f6101008901620002e4565b946200009f6101208a01620002e4565b99620000be610160620000b66101408d01620002e4565b9b01620002e4565b976001600055818310620002cd5785871115620002cd576001600160a01b03881615620002bb576001600160a01b038c1615620002bb576001600160a01b038b1615620002bb57620001529960805260a05260c05260e05261010052610120526101405261016052610180526101a09384526101c092835260ff19600754166007556200014b81620002f9565b506200037a565b50604051608081016001600160401b03811182821017620002a557604052603260606101f49283815260fa602082015260c86040820152015260035560fa60045560c860055560326006556040519061197992836200041e8439608051838181610bc00152610f34015260a0518381816102f8015281816109d201528181610d620152610f95015260c051838181610405015281816106e8015281816108120152610e95015260e0518381816101c701528181610837015281816109a201526118530152610100518381816104a5015261094901526101205183818161072301526109700152610140518381816104ff015281816107b80152818161085d015261176201526101605183818161088301528181610d2a015261180f015261018051838181610b5801528181610fc701526110ec0152518281816105dd0152610f0d0152518181816106210152610edf0152f35b634e487b7160e01b600052604160045260246000fd5b60405163e6c4247b60e01b8152600490fd5b6040516307a92f1960e51b8152600490fd5b600080fd5b51906001600160a01b0382168203620002df57565b6001600160a01b031660008181527fac33ff75c19e70fe83507db0d683fd3465c996598dc972688b7ace676c89077b602052604081205490919060ff16620003765781805260026020526040822081835260205260408220600160ff19825416179055339160008051602062001d978339815191528180a4600190565b5090565b6001600160a01b031660008181527fe5ebfa64fca8d502a8e50c1edffd2c31ef4dad5b396e65d9f397fb028f74abc560205260408120549091907fa49807205ce4d355092ef5a8a18f56e8913cf4a201fbe287825b095693c217759060ff16620004185780835260026020526040832082845260205260408320600160ff1982541617905560008051602062001d97833981519152339380a4600190565b50509056fe608060408181526004918236101561001657600080fd5b600092833560e01c91826301ffc9a71461135d575081630b4f3f3d146112d357816319cef5bc14610e485781631e5eb1d014610e0f578163200d2ed214610de6578163248a9ca314610dbb5781632f2ff15d14610d915781633013ce2914610d4d5781633197cbb614610d1257816336568abe14610ccc5781633f4ba83a14610c6257816342e94c9014610c2a5781634a3b68cc14610bef5781634b60ce7714610bab5781635c975abb14610b875781636052970c14610b4357816360b0b0f0146108e957816375b238fc146108ae578163767fa723146107db57816378e97925146107a05781638456cb59146107465781638d3d65761461070b578163906a26e0146106d057816391d148541461068a578163a217fddf1461066f578163a4317ef414610650578163a4475ce41461060c578163a5917baf146105c8578163a9eddf99146104c8578163aaffadf31461048d578163b30ca2da146103c8578163b5545a3c1461029a578163c5c4744c1461027b578163cd78d92c14610232578163d547741f146101ee575063fb86a404146101b157600080fd5b346101ea57816003193601126101ea57602090517f00000000000000000000000000000000000000000000000000000000000000008152f35b5080fd5b9190503461022e578060031936011261022e5761022a91356102256001610213611422565b938387526002602052862001546114c8565b61156e565b5080f35b8280fd5b828434610278576020366003190112610278576001600160a01b0380610256611438565b168252600a602052828083205492600b60205220541682519182526020820152f35b80fd5b5050346101ea57816003193601126101ea576020906008549051908152f35b9190503461022e578260031936011261022e576102b5611735565b60ff6007541660068110156103b5578281141590816103a9575b5061039c57338352600a6020528083205491821561038e57338452600a602052818420849055827f00000000000000000000000000000000000000000000000000000000000000006001600160a01b03168061037d57508480808093335af161033661189a565b501561036f57505b519081527fd7dee2702d63ad89917b6a4da9981c90c4d24f8c2bdfd64c604ecae57d8d065160203392a26001815580f35b905163b9da5d2b60e01b8152fd5b610389925033906118da565b61033e565b9051631971fbf360e21b8152fd5b51630b4d698160e01b8152fd5b600591501415386102cf565b634e487b7160e01b845260218352602484fd5b8383346101ea576103d8366113b0565b916103e161144e565b6103e9611758565b60075460ff8116600681101561047a5760020361046a576008547f0000000000000000000000000000000000000000000000000000000000000000111561046a57907f5b55eccea968a9bf1df9a6702e20475ac67bb0d7f402f51701eef38e619368fe94956104649260ff191617600755519283928361191b565b0390a180f35b81516307a92f1960e51b81528690fd5b634e487b7160e01b865260218752602486fd5b5050346101ea57816003193601126101ea57602090517f00000000000000000000000000000000000000000000000000000000000000008152f35b90503461022e57608036600319011261022e576104e361144e565b60ff6007541660068110156105b5576105a8576008546105a8577f00000000000000000000000000000000000000000000000000000000000000004210156105a8578035916044359060243561053983826115e5565b9361054760643580966115e5565b860361059a579181869492608096947f0ad166d8be1925ee44c5a77600b8a5f7e58cbe711c0dbd99624014a81b8350ba98600355558260055583600655815194855260208501528301526060820152a180f35b8251632b00a33d60e11b8152fd5b905162b5d7e160e81b8152fd5b634e487b7160e01b845260218252602484fd5b5050346101ea57816003193601126101ea57517f00000000000000000000000000000000000000000000000000000000000000006001600160a01b03168152602090f35b5050346101ea57816003193601126101ea57517f00000000000000000000000000000000000000000000000000000000000000006001600160a01b03168152602090f35b5050346101ea57816003193601126101ea576020906009549051908152f35b5050346101ea57816003193601126101ea5751908152602090f35b90503461022e578160031936011261022e57816020936106a8611422565b9235815260028552209060018060a01b0316600052825260ff81600020541690519015158152f35b5050346101ea57816003193601126101ea57602090517f00000000000000000000000000000000000000000000000000000000000000008152f35b5050346101ea57816003193601126101ea57602090517f00000000000000000000000000000000000000000000000000000000000000008152f35b5050346101ea57816003193601126101ea5760207f62e78cea01bee320cd4e420270b5ea74000d11b0c9f74754ebdbfc544b05a2589161078461144e565b61078c611717565b600160ff198154161760015551338152a180f35b5050346101ea57816003193601126101ea57602090517f00000000000000000000000000000000000000000000000000000000000000008152f35b5050346101ea57816003193601126101ea5760e09060ff6007541690600854906009549161080b825180956113ff565b60208401527f0000000000000000000000000000000000000000000000000000000000000000908301527f000000000000000000000000000000000000000000000000000000000000000060608301527f000000000000000000000000000000000000000000000000000000000000000060808301527f000000000000000000000000000000000000000000000000000000000000000060a083015260c0820152f35b5050346101ea57816003193601126101ea57602090517fa49807205ce4d355092ef5a8a18f56e8913cf4a201fbe287825b095693c217758152f35b90508160031936011261022e57803590610901611422565b9061090a611735565b610912611717565b61091a611758565b60ff600754166006811015610b3057600103610b2257338552602091600a835261094784868820546115e5565b7f00000000000000000000000000000000000000000000000000000000000000008110610b12577f000000000000000000000000000000000000000000000000000000000000000010610b03576109a0846008546115e5565b7f000000000000000000000000000000000000000000000000000000000000000010610af4576001600160a01b0391847f0000000000000000000000000000000000000000000000000000000000000000841680610aba57503403610aac575090807fec470969f3350ca5a15f0d85053f8763ffd0ee39c7b74fcdc5af7862718e292a93925b338852600a8452868820610a3b8782546115e5565b9055610a49866008546115e5565b6008551680151580610a98575b610a77575b50338652600b8252848620541693519283523392a36001815580f35b338752600b835285872080546001600160a01b031916909117905538610a5b565b50338752600b835281868820541615610a56565b85516307a92f1960e51b8152fd5b8493917fec470969f3350ca5a15f0d85053f8763ffd0ee39c7b74fcdc5af7862718e292a96959350610aef9130903390611654565b610a26565b508351631c4af3c960e11b8152fd5b5083516374368fb960e11b8152fd5b855163860b82a960e01b81528390fd5b83516307a92f1960e51b8152fd5b634e487b7160e01b865260218252602486fd5b5050346101ea57816003193601126101ea57517f00000000000000000000000000000000000000000000000000000000000000006001600160a01b03168152602090f35b5050346101ea57816003193601126101ea5760209060ff6001541690519015158152f35b5050346101ea57816003193601126101ea57517f00000000000000000000000000000000000000000000000000000000000000006001600160a01b03168152602090f35b5050346101ea5760203660031901126101ea576020916001600160a01b0390829082610c19611438565b168152600b85522054169051908152f35b5050346101ea5760203660031901126101ea5760209181906001600160a01b03610c52611438565b168152600a845220549051908152f35b90503461022e578260031936011261022e57610c7c61144e565b6001549060ff821615610cbe575060ff1916600155513381527f5db9ee0a495bf2e6ff9c91a7834c1ba4fdd244a5e8aa4e537bd38aeae4b073aa90602090a180f35b8251638dfc202b60e01b8152fd5b8383346101ea57806003193601126101ea57610ce6611422565b90336001600160a01b03831603610d03575061022a91923561156e565b5163334bd91960e11b81528390fd5b5050346101ea57816003193601126101ea57602090517f00000000000000000000000000000000000000000000000000000000000000008152f35b5050346101ea57816003193601126101ea57517f00000000000000000000000000000000000000000000000000000000000000006001600160a01b03168152602090f35b9190503461022e578060031936011261022e5761022a9135610db66001610213611422565b6114ee565b90503461022e57602036600319011261022e5781602093600192358152600285522001549051908152f35b5050346101ea57816003193601126101ea57602090610e0d60ff60075416915180926113ff565bf35b9190503461022e578260031936011261022e57608092506003549154906005549060065492815194855260208501528301526060820152f35b9190503461022e578060031936011261022e57602491823592610e6961144e565b610e71611735565b610e79611758565b60ff6007541660068110156112c1576002036112b257600854907f000000000000000000000000000000000000000000000000000000000000000082106112a25760035480830290838204148315171561129057612710900494858303928311611290577f0000000000000000000000000000000000000000000000000000000000000000916001600160a01b03918890837f0000000000000000000000000000000000000000000000000000000000000000610f5a8382897f00000000000000000000000000000000000000000000000000000000000000008616611654565b16803b1561022e57604483928a519485938492637c382d0b60e01b84528c358d850152888401525af180156112865761126d575b50879392917f000000000000000000000000000000000000000000000000000000000000000080821692831592919083156110e25750507f000000000000000000000000000000000000000000000000000000000000000016803b156110de57858991888a518094819363990087b760e01b83525af180156110d4579086916110bc575b50505b15611083575082809281925af161102a61189a565b501561036f57507ff3e2f1d90bd58f6807b6468783c27fdc68307b057882b3ca4eb0f3bb21167899916060915b42600955600360ff19600754161760075560085491815192835260208301524290820152a16001815580f35b7ff3e2f1d90bd58f6807b6468783c27fdc68307b057882b3ca4eb0f3bb211678999694506060959350906110b792916118da565b611057565b6110c590611608565b6110d0578438611012565b8480fd5b88513d88823e3d90fd5b8580fd5b8a9998979a9291927f00000000000000000000000000000000000000000000000000000000000000009160208b519e8f828101906111558161114763095ea7b360e01b988986528a89840160209093929193604081019460018060a01b031681520152565b03601f198101835282611632565b5190828b5af18d513d8f8361124f575b505050156111e2575b50508a9b50999697989916803b156111de57885163398da91160e01b81526001600160a01b03909216828901908152602081018b90528791839182908490829060400103925af180156110d4579086916111ca575b5050611015565b6111d390611608565b6110d05784386111c3565b8680fd5b8a51916020830152838316818301528c604483015260448252608082019082821067ffffffffffffffff83111761123c57509c61122a611230928e9f8d9e9f9c9d52886116af565b866116af565b38809b9a99989b61116e565b634e487b7160e01b600090815260418c52fd5b509091506112655750863b15155b38808f611165565b60011461125d565b61127c90989194939298611608565b9690919238610f8e565b87513d8b823e3d90fd5b50634e487b7160e01b86526011835285fd5b83516346c21a5560e01b81528390fd5b5090516307a92f1960e51b8152fd5b50634e487b7160e01b85526021825284fd5b839150346101ea576112e4366113b0565b916112ed61144e565b6112f5611758565b6007549060ff82166006811015610b30578015159081611351575b50610aac57507f2ac842f90dab3279148f7e55ac91d911f75c1c300a202a5250e05400b15fa156939460056104649260ff191617600755519283928361191b565b60019150141587611310565b84913461022e57602036600319011261022e573563ffffffff60e01b811680910361022e5760209250637965db0b60e01b811490811561139f575b5015158152f35b6301ffc9a760e01b14905083611398565b9060206003198301126113fa5760043567ffffffffffffffff928382116113fa57806023830112156113fa5781600401359384116113fa57602484830101116113fa576024019190565b600080fd5b90600682101561140c5752565b634e487b7160e01b600052602160045260246000fd5b602435906001600160a01b03821682036113fa57565b600435906001600160a01b03821682036113fa57565b3360009081527fe5ebfa64fca8d502a8e50c1edffd2c31ef4dad5b396e65d9f397fb028f74abc560205260409020547fa49807205ce4d355092ef5a8a18f56e8913cf4a201fbe287825b095693c217759060ff16156114aa5750565b6044906040519063e2517d3f60e01b82523360048301526024820152fd5b80600052600260205260406000203360005260205260ff60406000205416156114aa5750565b906000918083526002602052604083209160018060a01b03169182845260205260ff604084205416156000146115695780835260026020526040832082845260205260408320600160ff198254161790557f2f8788117e7eff1d82e926ec794901d17c78024a50270940304540a733656f0d339380a4600190565b505090565b906000918083526002602052604083209160018060a01b03169182845260205260ff604084205416600014611569578083526002602052604083208284526020526040832060ff1981541690557ff6391f5c32d9c69d2a47ea670b442974b53935d1edc7fd64eb21e047a839171b339380a4600190565b919082018092116115f257565b634e487b7160e01b600052601160045260246000fd5b67ffffffffffffffff811161161c57604052565b634e487b7160e01b600052604160045260246000fd5b90601f8019910116810190811067ffffffffffffffff82111761161c57604052565b6040516323b872dd60e01b60208201526001600160a01b03928316602482015292909116604483015260648083019390935291815260a081019181831067ffffffffffffffff84111761161c576116ad926040526116af565b565b906000602091828151910182855af11561170b576000513d61170257506001600160a01b0381163b155b6116e05750565b604051635274afe760e01b81526001600160a01b039091166004820152602490fd5b600114156116d9565b6040513d6000823e3d90fd5b60ff6001541661172357565b60405163d93c066560e01b8152600490fd5b600260005414611746576002600055565b604051633ee5aeb560e01b8152600490fd5b60075460ff8116907f000000000000000000000000000000000000000000000000000000000000000042101580611889575b611879575b5060075460ff8116600681101561140c5760011461180d575b5060ff60075416600681101561140c57600682101561140c578082036117cc575050565b7f0d643a1384921de4b8ad16df0a695f1e75fcfe3bcac27f9c5c8cee46458723829161180a604092611800845180946113ff565b60208301906113ff565ba1565b7f0000000000000000000000000000000000000000000000000000000000000000421080159061184d575b156117a85760ff1916600217600755386117a8565b506008547f00000000000000000000000000000000000000000000000000000000000000001115611838565b60ff19166001176007553861178f565b50600682101561140c57811561178a565b3d156118d5573d9067ffffffffffffffff821161161c57604051916118c9601f8201601f191660200184611632565b82523d6000602084013e565b606090565b60405163a9059cbb60e01b60208201526001600160a01b039290921660248301526044808301939093529181526116ad91611916606483611632565b6116af565b90918060409360208452816020850152848401376000828201840152601f01601f191601019056fea26469706673582212203aa58898588f84cfc41d7f5fa7f09efca595dc1ec89fa6fd7572c74f71ea5ec664736f6c634300081400332f8788117e7eff1d82e926ec794901d17c78024a50270940304540a733656f0d","opcodes":"PUSH2 0x1E0 CALLVALUE PUSH3 0x2DF JUMPI PUSH1 0x1F PUSH3 0x1DB7 CODESIZE DUP2 SWAP1 SUB SWAP2 DUP3 ADD PUSH1 0x1F NOT AND DUP4 ADD SWAP2 PUSH1 0x1 PUSH1 0x1 PUSH1 0x40 SHL SUB DUP4 GT DUP5 DUP5 LT OR PUSH3 0x2A5 JUMPI DUP1 DUP5 SWAP3 PUSH2 0x180 SWAP5 PUSH1 0x40 MSTORE DUP4 CODECOPY DUP2 ADD SUB SLT PUSH3 0x2DF JUMPI PUSH3 0x4F DUP2 PUSH3 0x2E4 JUMP JUMPDEST SWAP1 PUSH3 0x5E PUSH1 0x20 DUP3 ADD PUSH3 0x2E4 JUMP JUMPDEST SWAP2 PUSH1 0x40 DUP3 ADD MLOAD SWAP3 PUSH1 0x60 DUP4 ADD MLOAD PUSH1 0x80 DUP5 ADD MLOAD PUSH1 0xA0 DUP6 ADD MLOAD PUSH1 0xC0 DUP7 ADD MLOAD SWAP1 PUSH1 0xE0 DUP8 ADD MLOAD SWAP3 PUSH3 0x8F PUSH2 0x100 DUP10 ADD PUSH3 0x2E4 JUMP JUMPDEST SWAP5 PUSH3 0x9F PUSH2 0x120 DUP11 ADD PUSH3 0x2E4 JUMP JUMPDEST SWAP10 PUSH3 0xBE PUSH2 0x160 PUSH3 0xB6 PUSH2 0x140 DUP14 ADD PUSH3 0x2E4 JUMP JUMPDEST SWAP12 ADD PUSH3 0x2E4 JUMP JUMPDEST SWAP8 PUSH1 0x1 PUSH1 0x0 SSTORE DUP2 DUP4 LT PUSH3 0x2CD JUMPI DUP6 DUP8 GT ISZERO PUSH3 0x2CD JUMPI PUSH1 0x1 PUSH1 0x1 PUSH1 0xA0 SHL SUB DUP9 AND ISZERO PUSH3 0x2BB JUMPI PUSH1 0x1 PUSH1 0x1 PUSH1 0xA0 SHL SUB DUP13 AND ISZERO PUSH3 0x2BB JUMPI PUSH1 0x1 PUSH1 0x1 PUSH1 0xA0 SHL SUB DUP12 AND ISZERO PUSH3 0x2BB JUMPI PUSH3 0x152 SWAP10 PUSH1 0x80 MSTORE PUSH1 0xA0 MSTORE PUSH1 0xC0 MSTORE PUSH1 0xE0 MSTORE PUSH2 0x100 MSTORE PUSH2 0x120 MSTORE PUSH2 0x140 MSTORE PUSH2 0x160 MSTORE PUSH2 0x180 MSTORE PUSH2 0x1A0 SWAP4 DUP5 MSTORE PUSH2 0x1C0 SWAP3 DUP4 MSTORE PUSH1 0xFF NOT PUSH1 0x7 SLOAD AND PUSH1 0x7 SSTORE PUSH3 0x14B DUP2 PUSH3 0x2F9 JUMP JUMPDEST POP PUSH3 0x37A JUMP JUMPDEST POP PUSH1 0x40 MLOAD PUSH1 0x80 DUP2 ADD PUSH1 0x1 PUSH1 0x1 PUSH1 0x40 SHL SUB DUP2 GT DUP3 DUP3 LT OR PUSH3 0x2A5 JUMPI PUSH1 0x40 MSTORE PUSH1 0x32 PUSH1 0x60 PUSH2 0x1F4 SWAP3 DUP4 DUP2 MSTORE PUSH1 0xFA PUSH1 0x20 DUP3 ADD MSTORE PUSH1 0xC8 PUSH1 0x40 DUP3 ADD MSTORE ADD MSTORE PUSH1 0x3 SSTORE PUSH1 0xFA PUSH1 0x4 SSTORE PUSH1 0xC8 PUSH1 0x5 SSTORE PUSH1 0x32 PUSH1 0x6 SSTORE PUSH1 0x40 MLOAD SWAP1 PUSH2 0x1979 SWAP3 DUP4 PUSH3 0x41E DUP5 CODECOPY PUSH1 0x80 MLOAD DUP4 DUP2 DUP2 PUSH2 0xBC0 ADD MSTORE PUSH2 0xF34 ADD MSTORE PUSH1 0xA0 MLOAD DUP4 DUP2 DUP2 PUSH2 0x2F8 ADD MSTORE DUP2 DUP2 PUSH2 0x9D2 ADD MSTORE DUP2 DUP2 PUSH2 0xD62 ADD MSTORE PUSH2 0xF95 ADD MSTORE PUSH1 0xC0 MLOAD DUP4 DUP2 DUP2 PUSH2 0x405 ADD MSTORE DUP2 DUP2 PUSH2 0x6E8 ADD MSTORE DUP2 DUP2 PUSH2 0x812 ADD MSTORE PUSH2 0xE95 ADD MSTORE PUSH1 0xE0 MLOAD DUP4 DUP2 DUP2 PUSH2 0x1C7 ADD MSTORE DUP2 DUP2 PUSH2 0x837 ADD MSTORE DUP2 DUP2 PUSH2 0x9A2 ADD MSTORE PUSH2 0x1853 ADD MSTORE PUSH2 0x100 MLOAD DUP4 DUP2 DUP2 PUSH2 0x4A5 ADD MSTORE PUSH2 0x949 ADD MSTORE PUSH2 0x120 MLOAD DUP4 DUP2 DUP2 PUSH2 0x723 ADD MSTORE PUSH2 0x970 ADD MSTORE PUSH2 0x140 MLOAD DUP4 DUP2 DUP2 PUSH2 0x4FF ADD MSTORE DUP2 DUP2 PUSH2 0x7B8 ADD MSTORE DUP2 DUP2 PUSH2 0x85D ADD MSTORE PUSH2 0x1762 ADD MSTORE PUSH2 0x160 MLOAD DUP4 DUP2 DUP2 PUSH2 0x883 ADD MSTORE DUP2 DUP2 PUSH2 0xD2A ADD MSTORE PUSH2 0x180F ADD MSTORE PUSH2 0x180 MLOAD DUP4 DUP2 DUP2 PUSH2 0xB58 ADD MSTORE DUP2 DUP2 PUSH2 0xFC7 ADD MSTORE PUSH2 0x10EC ADD MSTORE MLOAD DUP3 DUP2 DUP2 PUSH2 0x5DD ADD MSTORE PUSH2 0xF0D ADD MSTORE MLOAD DUP2 DUP2 DUP2 PUSH2 0x621 ADD MSTORE PUSH2 0xEDF ADD MSTORE RETURN JUMPDEST PUSH4 0x4E487B71 PUSH1 0xE0 SHL PUSH1 0x0 MSTORE PUSH1 0x41 PUSH1 0x4 MSTORE PUSH1 0x24 PUSH1 0x0 REVERT JUMPDEST PUSH1 0x40 MLOAD PUSH4 0xE6C4247B PUSH1 0xE0 SHL DUP2 MSTORE PUSH1 0x4 SWAP1 REVERT JUMPDEST PUSH1 0x40 MLOAD PUSH4 0x7A92F19 PUSH1 0xE5 SHL DUP2 MSTORE PUSH1 0x4 SWAP1 REVERT JUMPDEST PUSH1 0x0 DUP1 REVERT JUMPDEST MLOAD SWAP1 PUSH1 0x1 PUSH1 0x1 PUSH1 0xA0 SHL SUB DUP3 AND DUP3 SUB PUSH3 0x2DF JUMPI JUMP JUMPDEST PUSH1 0x1 PUSH1 0x1 PUSH1 0xA0 SHL SUB AND PUSH1 0x0 DUP2 DUP2 MSTORE PUSH32 0xAC33FF75C19E70FE83507DB0D683FD3465C996598DC972688B7ACE676C89077B PUSH1 0x20 MSTORE PUSH1 0x40 DUP2 KECCAK256 SLOAD SWAP1 SWAP2 SWAP1 PUSH1 0xFF AND PUSH3 0x376 JUMPI DUP2 DUP1 MSTORE PUSH1 0x2 PUSH1 0x20 MSTORE PUSH1 0x40 DUP3 KECCAK256 DUP2 DUP4 MSTORE PUSH1 0x20 MSTORE PUSH1 0x40 DUP3 KECCAK256 PUSH1 0x1 PUSH1 0xFF NOT DUP3 SLOAD AND OR SWAP1 SSTORE CALLER SWAP2 PUSH1 0x0 DUP1 MLOAD PUSH1 0x20 PUSH3 0x1D97 DUP4 CODECOPY DUP2 MLOAD SWAP2 MSTORE DUP2 DUP1 LOG4 PUSH1 0x1 SWAP1 JUMP JUMPDEST POP SWAP1 JUMP JUMPDEST PUSH1 0x1 PUSH1 0x1 PUSH1 0xA0 SHL SUB AND PUSH1 0x0 DUP2 DUP2 MSTORE PUSH32 0xE5EBFA64FCA8D502A8E50C1EDFFD2C31EF4DAD5B396E65D9F397FB028F74ABC5 PUSH1 0x20 MSTORE PUSH1 0x40 DUP2 KECCAK256 SLOAD SWAP1 SWAP2 SWAP1 PUSH32 0xA49807205CE4D355092EF5A8A18F56E8913CF4A201FBE287825B095693C21775 SWAP1 PUSH1 0xFF AND PUSH3 0x418 JUMPI DUP1 DUP4 MSTORE PUSH1 0x2 PUSH1 0x20 MSTORE PUSH1 0x40 DUP4 KECCAK256 DUP3 DUP5 MSTORE PUSH1 0x20 MSTORE PUSH1 0x40 DUP4 KECCAK256 PUSH1 0x1 PUSH1 0xFF NOT DUP3 SLOAD AND OR SWAP1 SSTORE PUSH1 0x0 DUP1 MLOAD PUSH1 0x20 PUSH3 0x1D97 DUP4 CODECOPY DUP2 MLOAD SWAP2 MSTORE CALLER SWAP4 DUP1 LOG4 PUSH1 0x1 SWAP1 JUMP JUMPDEST POP POP SWAP1 JUMP INVALID PUSH1 0x80 PUSH1 0x40 DUP2 DUP2 MSTORE PUSH1 0x4 SWAP2 DUP3 CALLDATASIZE LT ISZERO PUSH2 0x16 JUMPI PUSH1 0x0 DUP1 REVERT JUMPDEST PUSH1 0x0 SWAP3 DUP4 CALLDATALOAD PUSH1 0xE0 SHR SWAP2 DUP3 PUSH4 0x1FFC9A7 EQ PUSH2 0x135D JUMPI POP DUP2 PUSH4 0xB4F3F3D EQ PUSH2 0x12D3 JUMPI DUP2 PUSH4 0x19CEF5BC EQ PUSH2 0xE48 JUMPI DUP2 PUSH4 0x1E5EB1D0 EQ PUSH2 0xE0F JUMPI DUP2 PUSH4 0x200D2ED2 EQ PUSH2 0xDE6 JUMPI DUP2 PUSH4 0x248A9CA3 EQ PUSH2 0xDBB JUMPI DUP2 PUSH4 0x2F2FF15D EQ PUSH2 0xD91 JUMPI DUP2 PUSH4 0x3013CE29 EQ PUSH2 0xD4D JUMPI DUP2 PUSH4 0x3197CBB6 EQ PUSH2 0xD12 JUMPI DUP2 PUSH4 0x36568ABE EQ PUSH2 0xCCC JUMPI DUP2 PUSH4 0x3F4BA83A EQ PUSH2 0xC62 JUMPI DUP2 PUSH4 0x42E94C90 EQ PUSH2 0xC2A JUMPI DUP2 PUSH4 0x4A3B68CC EQ PUSH2 0xBEF JUMPI DUP2 PUSH4 0x4B60CE77 EQ PUSH2 0xBAB JUMPI DUP2 PUSH4 0x5C975ABB EQ PUSH2 0xB87 JUMPI DUP2 PUSH4 0x6052970C EQ PUSH2 0xB43 JUMPI DUP2 PUSH4 0x60B0B0F0 EQ PUSH2 0x8E9 JUMPI DUP2 PUSH4 0x75B238FC EQ PUSH2 0x8AE JUMPI DUP2 PUSH4 0x767FA723 EQ PUSH2 0x7DB JUMPI DUP2 PUSH4 0x78E97925 EQ PUSH2 0x7A0 JUMPI DUP2 PUSH4 0x8456CB59 EQ PUSH2 0x746 JUMPI DUP2 PUSH4 0x8D3D6576 EQ PUSH2 0x70B JUMPI DUP2 PUSH4 0x906A26E0 EQ PUSH2 0x6D0 JUMPI DUP2 PUSH4 0x91D14854 EQ PUSH2 0x68A JUMPI DUP2 PUSH4 0xA217FDDF EQ PUSH2 0x66F JUMPI DUP2 PUSH4 0xA4317EF4 EQ PUSH2 0x650 JUMPI DUP2 PUSH4 0xA4475CE4 EQ PUSH2 0x60C JUMPI DUP2 PUSH4 0xA5917BAF EQ PUSH2 0x5C8 JUMPI DUP2 PUSH4 0xA9EDDF99 EQ PUSH2 0x4C8 JUMPI DUP2 PUSH4 0xAAFFADF3 EQ PUSH2 0x48D JUMPI DUP2 PUSH4 0xB30CA2DA EQ PUSH2 0x3C8 JUMPI DUP2 PUSH4 0xB5545A3C EQ PUSH2 0x29A JUMPI DUP2 PUSH4 0xC5C4744C EQ PUSH2 0x27B JUMPI DUP2 PUSH4 0xCD78D92C EQ PUSH2 0x232 JUMPI DUP2 PUSH4 0xD547741F EQ PUSH2 0x1EE JUMPI POP PUSH4 0xFB86A404 EQ PUSH2 0x1B1 JUMPI PUSH1 0x0 DUP1 REVERT JUMPDEST CALLVALUE PUSH2 0x1EA JUMPI DUP2 PUSH1 0x3 NOT CALLDATASIZE ADD SLT PUSH2 0x1EA JUMPI PUSH1 0x20 SWAP1 MLOAD PUSH32 0x0 DUP2 MSTORE RETURN JUMPDEST POP DUP1 REVERT JUMPDEST SWAP2 SWAP1 POP CALLVALUE PUSH2 0x22E JUMPI DUP1 PUSH1 0x3 NOT CALLDATASIZE ADD SLT PUSH2 0x22E JUMPI PUSH2 0x22A SWAP2 CALLDATALOAD PUSH2 0x225 PUSH1 0x1 PUSH2 0x213 PUSH2 0x1422 JUMP JUMPDEST SWAP4 DUP4 DUP8 MSTORE PUSH1 0x2 PUSH1 0x20 MSTORE DUP7 KECCAK256 ADD SLOAD PUSH2 0x14C8 JUMP JUMPDEST PUSH2 0x156E JUMP JUMPDEST POP DUP1 RETURN JUMPDEST DUP3 DUP1 REVERT JUMPDEST DUP3 DUP5 CALLVALUE PUSH2 0x278 JUMPI PUSH1 0x20 CALLDATASIZE PUSH1 0x3 NOT ADD SLT PUSH2 0x278 JUMPI PUSH1 0x1 PUSH1 0x1 PUSH1 0xA0 SHL SUB DUP1 PUSH2 0x256 PUSH2 0x1438 JUMP JUMPDEST AND DUP3 MSTORE PUSH1 0xA PUSH1 0x20 MSTORE DUP3 DUP1 DUP4 KECCAK256 SLOAD SWAP3 PUSH1 0xB PUSH1 0x20 MSTORE KECCAK256 SLOAD AND DUP3 MLOAD SWAP2 DUP3 MSTORE PUSH1 0x20 DUP3 ADD MSTORE RETURN JUMPDEST DUP1 REVERT JUMPDEST POP POP CALLVALUE PUSH2 0x1EA JUMPI DUP2 PUSH1 0x3 NOT CALLDATASIZE ADD SLT PUSH2 0x1EA JUMPI PUSH1 0x20 SWAP1 PUSH1 0x8 SLOAD SWAP1 MLOAD SWAP1 DUP2 MSTORE RETURN JUMPDEST SWAP2 SWAP1 POP CALLVALUE PUSH2 0x22E JUMPI DUP3 PUSH1 0x3 NOT CALLDATASIZE ADD SLT PUSH2 0x22E JUMPI PUSH2 0x2B5 PUSH2 0x1735 JUMP JUMPDEST PUSH1 0xFF PUSH1 0x7 SLOAD AND PUSH1 0x6 DUP2 LT ISZERO PUSH2 0x3B5 JUMPI DUP3 DUP2 EQ ISZERO SWAP1 DUP2 PUSH2 0x3A9 JUMPI JUMPDEST POP PUSH2 0x39C JUMPI CALLER DUP4 MSTORE PUSH1 0xA PUSH1 0x20 MSTORE DUP1 DUP4 KECCAK256 SLOAD SWAP2 DUP3 ISZERO PUSH2 0x38E JUMPI CALLER DUP5 MSTORE PUSH1 0xA PUSH1 0x20 MSTORE DUP2 DUP5 KECCAK256 DUP5 SWAP1 SSTORE DUP3 PUSH32 0x0 PUSH1 0x1 PUSH1 0x1 PUSH1 0xA0 SHL SUB AND DUP1 PUSH2 0x37D JUMPI POP DUP5 DUP1 DUP1 DUP1 SWAP4 CALLER GAS CALL PUSH2 0x336 PUSH2 0x189A JUMP JUMPDEST POP ISZERO PUSH2 0x36F JUMPI POP JUMPDEST MLOAD SWAP1 DUP2 MSTORE PUSH32 0xD7DEE2702D63AD89917B6A4DA9981C90C4D24F8C2BDFD64C604ECAE57D8D0651 PUSH1 0x20 CALLER SWAP3 LOG2 PUSH1 0x1 DUP2 SSTORE DUP1 RETURN JUMPDEST SWAP1 MLOAD PUSH4 0xB9DA5D2B PUSH1 0xE0 SHL DUP2 MSTORE REVERT JUMPDEST PUSH2 0x389 SWAP3 POP CALLER SWAP1 PUSH2 0x18DA JUMP JUMPDEST PUSH2 0x33E JUMP JUMPDEST SWAP1 MLOAD PUSH4 0x1971FBF3 PUSH1 0xE2 SHL DUP2 MSTORE REVERT JUMPDEST MLOAD PUSH4 0xB4D6981 PUSH1 0xE0 SHL DUP2 MSTORE REVERT JUMPDEST PUSH1 0x5 SWAP2 POP EQ ISZERO CODESIZE PUSH2 0x2CF JUMP JUMPDEST PUSH4 0x4E487B71 PUSH1 0xE0 SHL DUP5 MSTORE PUSH1 0x21 DUP4 MSTORE PUSH1 0x24 DUP5 REVERT JUMPDEST DUP4 DUP4 CALLVALUE PUSH2 0x1EA JUMPI PUSH2 0x3D8 CALLDATASIZE PUSH2 0x13B0 JUMP JUMPDEST SWAP2 PUSH2 0x3E1 PUSH2 0x144E JUMP JUMPDEST PUSH2 0x3E9 PUSH2 0x1758 JUMP JUMPDEST PUSH1 0x7 SLOAD PUSH1 0xFF DUP2 AND PUSH1 0x6 DUP2 LT ISZERO PUSH2 0x47A JUMPI PUSH1 0x2 SUB PUSH2 0x46A JUMPI PUSH1 0x8 SLOAD PUSH32 0x0 GT ISZERO PUSH2 0x46A JUMPI SWAP1 PUSH32 0x5B55ECCEA968A9BF1DF9A6702E20475AC67BB0D7F402F51701EEF38E619368FE SWAP5 SWAP6 PUSH2 0x464 SWAP3 PUSH1 0xFF NOT AND OR PUSH1 0x7 SSTORE MLOAD SWAP3 DUP4 SWAP3 DUP4 PUSH2 0x191B JUMP JUMPDEST SUB SWAP1 LOG1 DUP1 RETURN JUMPDEST DUP2 MLOAD PUSH4 0x7A92F19 PUSH1 0xE5 SHL DUP2 MSTORE DUP7 SWAP1 REVERT JUMPDEST PUSH4 0x4E487B71 PUSH1 0xE0 SHL DUP7 MSTORE PUSH1 0x21 DUP8 MSTORE PUSH1 0x24 DUP7 REVERT JUMPDEST POP POP CALLVALUE PUSH2 0x1EA JUMPI DUP2 PUSH1 0x3 NOT CALLDATASIZE ADD SLT PUSH2 0x1EA JUMPI PUSH1 0x20 SWAP1 MLOAD PUSH32 0x0 DUP2 MSTORE RETURN JUMPDEST SWAP1 POP CALLVALUE PUSH2 0x22E JUMPI PUSH1 0x80 CALLDATASIZE PUSH1 0x3 NOT ADD SLT PUSH2 0x22E JUMPI PUSH2 0x4E3 PUSH2 0x144E JUMP JUMPDEST PUSH1 0xFF PUSH1 0x7 SLOAD AND PUSH1 0x6 DUP2 LT ISZERO PUSH2 0x5B5 JUMPI PUSH2 0x5A8 JUMPI PUSH1 0x8 SLOAD PUSH2 0x5A8 JUMPI PUSH32 0x0 TIMESTAMP LT ISZERO PUSH2 0x5A8 JUMPI DUP1 CALLDATALOAD SWAP2 PUSH1 0x44 CALLDATALOAD SWAP1 PUSH1 0x24 CALLDATALOAD PUSH2 0x539 DUP4 DUP3 PUSH2 0x15E5 JUMP JUMPDEST SWAP4 PUSH2 0x547 PUSH1 0x64 CALLDATALOAD DUP1 SWAP7 PUSH2 0x15E5 JUMP JUMPDEST DUP7 SUB PUSH2 0x59A JUMPI SWAP2 DUP2 DUP7 SWAP5 SWAP3 PUSH1 0x80 SWAP7 SWAP5 PUSH32 0xAD166D8BE1925EE44C5A77600B8A5F7E58CBE711C0DBD99624014A81B8350BA SWAP9 PUSH1 0x3 SSTORE SSTORE DUP3 PUSH1 0x5 SSTORE DUP4 PUSH1 0x6 SSTORE DUP2 MLOAD SWAP5 DUP6 MSTORE PUSH1 0x20 DUP6 ADD MSTORE DUP4 ADD MSTORE PUSH1 0x60 DUP3 ADD MSTORE LOG1 DUP1 RETURN JUMPDEST DUP3 MLOAD PUSH4 0x2B00A33D PUSH1 0xE1 SHL DUP2 MSTORE REVERT JUMPDEST SWAP1 MLOAD PUSH3 0xB5D7E1 PUSH1 0xE8 SHL DUP2 MSTORE REVERT JUMPDEST PUSH4 0x4E487B71 PUSH1 0xE0 SHL DUP5 MSTORE PUSH1 0x21 DUP3 MSTORE PUSH1 0x24 DUP5 REVERT JUMPDEST POP POP CALLVALUE PUSH2 0x1EA JUMPI DUP2 PUSH1 0x3 NOT CALLDATASIZE ADD SLT PUSH2 0x1EA JUMPI MLOAD PUSH32 0x0 PUSH1 0x1 PUSH1 0x1 PUSH1 0xA0 SHL SUB AND DUP2 MSTORE PUSH1 0x20 SWAP1 RETURN JUMPDEST POP POP CALLVALUE PUSH2 0x1EA JUMPI DUP2 PUSH1 0x3 NOT CALLDATASIZE ADD SLT PUSH2 0x1EA JUMPI MLOAD PUSH32 0x0 PUSH1 0x1 PUSH1 0x1 PUSH1 0xA0 SHL SUB AND DUP2 MSTORE PUSH1 0x20 SWAP1 RETURN JUMPDEST POP POP CALLVALUE PUSH2 0x1EA JUMPI DUP2 PUSH1 0x3 NOT CALLDATASIZE ADD SLT PUSH2 0x1EA JUMPI PUSH1 0x20 SWAP1 PUSH1 0x9 SLOAD SWAP1 MLOAD SWAP1 DUP2 MSTORE RETURN JUMPDEST POP POP CALLVALUE PUSH2 0x1EA JUMPI DUP2 PUSH1 0x3 NOT CALLDATASIZE ADD SLT PUSH2 0x1EA JUMPI MLOAD SWAP1 DUP2 MSTORE PUSH1 0x20 SWAP1 RETURN JUMPDEST SWAP1 POP CALLVALUE PUSH2 0x22E JUMPI DUP2 PUSH1 0x3 NOT CALLDATASIZE ADD SLT PUSH2 0x22E JUMPI DUP2 PUSH1 0x20 SWAP4 PUSH2 0x6A8 PUSH2 0x1422 JUMP JUMPDEST SWAP3 CALLDATALOAD DUP2 MSTORE PUSH1 0x2 DUP6 MSTORE KECCAK256 SWAP1 PUSH1 0x1 DUP1 PUSH1 0xA0 SHL SUB AND PUSH1 0x0 MSTORE DUP3 MSTORE PUSH1 0xFF DUP2 PUSH1 0x0 KECCAK256 SLOAD AND SWAP1 MLOAD SWAP1 ISZERO ISZERO DUP2 MSTORE RETURN JUMPDEST POP POP CALLVALUE PUSH2 0x1EA JUMPI DUP2 PUSH1 0x3 NOT CALLDATASIZE ADD SLT PUSH2 0x1EA JUMPI PUSH1 0x20 SWAP1 MLOAD PUSH32 0x0 DUP2 MSTORE RETURN JUMPDEST POP POP CALLVALUE PUSH2 0x1EA JUMPI DUP2 PUSH1 0x3 NOT CALLDATASIZE ADD SLT PUSH2 0x1EA JUMPI PUSH1 0x20 SWAP1 MLOAD PUSH32 0x0 DUP2 MSTORE RETURN JUMPDEST POP POP CALLVALUE PUSH2 0x1EA JUMPI DUP2 PUSH1 0x3 NOT CALLDATASIZE ADD SLT PUSH2 0x1EA JUMPI PUSH1 0x20 PUSH32 0x62E78CEA01BEE320CD4E420270B5EA74000D11B0C9F74754EBDBFC544B05A258 SWAP2 PUSH2 0x784 PUSH2 0x144E JUMP JUMPDEST PUSH2 0x78C PUSH2 0x1717 JUMP JUMPDEST PUSH1 0x1 PUSH1 0xFF NOT DUP2 SLOAD AND OR PUSH1 0x1 SSTORE MLOAD CALLER DUP2 MSTORE LOG1 DUP1 RETURN JUMPDEST POP POP CALLVALUE PUSH2 0x1EA JUMPI DUP2 PUSH1 0x3 NOT CALLDATASIZE ADD SLT PUSH2 0x1EA JUMPI PUSH1 0x20 SWAP1 MLOAD PUSH32 0x0 DUP2 MSTORE RETURN JUMPDEST POP POP CALLVALUE PUSH2 0x1EA JUMPI DUP2 PUSH1 0x3 NOT CALLDATASIZE ADD SLT PUSH2 0x1EA JUMPI PUSH1 0xE0 SWAP1 PUSH1 0xFF PUSH1 0x7 SLOAD AND SWAP1 PUSH1 0x8 SLOAD SWAP1 PUSH1 0x9 SLOAD SWAP2 PUSH2 0x80B DUP3 MLOAD DUP1 SWAP6 PUSH2 0x13FF JUMP JUMPDEST PUSH1 0x20 DUP5 ADD MSTORE PUSH32 0x0 SWAP1 DUP4 ADD MSTORE PUSH32 0x0 PUSH1 0x60 DUP4 ADD MSTORE PUSH32 0x0 PUSH1 0x80 DUP4 ADD MSTORE PUSH32 0x0 PUSH1 0xA0 DUP4 ADD MSTORE PUSH1 0xC0 DUP3 ADD MSTORE RETURN JUMPDEST POP POP CALLVALUE PUSH2 0x1EA JUMPI DUP2 PUSH1 0x3 NOT CALLDATASIZE ADD SLT PUSH2 0x1EA JUMPI PUSH1 0x20 SWAP1 MLOAD PUSH32 0xA49807205CE4D355092EF5A8A18F56E8913CF4A201FBE287825B095693C21775 DUP2 MSTORE RETURN JUMPDEST SWAP1 POP DUP2 PUSH1 0x3 NOT CALLDATASIZE ADD SLT PUSH2 0x22E JUMPI DUP1 CALLDATALOAD SWAP1 PUSH2 0x901 PUSH2 0x1422 JUMP JUMPDEST SWAP1 PUSH2 0x90A PUSH2 0x1735 JUMP JUMPDEST PUSH2 0x912 PUSH2 0x1717 JUMP JUMPDEST PUSH2 0x91A PUSH2 0x1758 JUMP JUMPDEST PUSH1 0xFF PUSH1 0x7 SLOAD AND PUSH1 0x6 DUP2 LT ISZERO PUSH2 0xB30 JUMPI PUSH1 0x1 SUB PUSH2 0xB22 JUMPI CALLER DUP6 MSTORE PUSH1 0x20 SWAP2 PUSH1 0xA DUP4 MSTORE PUSH2 0x947 DUP5 DUP7 DUP9 KECCAK256 SLOAD PUSH2 0x15E5 JUMP JUMPDEST PUSH32 0x0 DUP2 LT PUSH2 0xB12 JUMPI PUSH32 0x0 LT PUSH2 0xB03 JUMPI PUSH2 0x9A0 DUP5 PUSH1 0x8 SLOAD PUSH2 0x15E5 JUMP JUMPDEST PUSH32 0x0 LT PUSH2 0xAF4 JUMPI PUSH1 0x1 PUSH1 0x1 PUSH1 0xA0 SHL SUB SWAP2 DUP5 PUSH32 0x0 DUP5 AND DUP1 PUSH2 0xABA JUMPI POP CALLVALUE SUB PUSH2 0xAAC JUMPI POP SWAP1 DUP1 PUSH32 0xEC470969F3350CA5A15F0D85053F8763FFD0EE39C7B74FCDC5AF7862718E292A SWAP4 SWAP3 JUMPDEST CALLER DUP9 MSTORE PUSH1 0xA DUP5 MSTORE DUP7 DUP9 KECCAK256 PUSH2 0xA3B DUP8 DUP3 SLOAD PUSH2 0x15E5 JUMP JUMPDEST SWAP1 SSTORE PUSH2 0xA49 DUP7 PUSH1 0x8 SLOAD PUSH2 0x15E5 JUMP JUMPDEST PUSH1 0x8 SSTORE AND DUP1 ISZERO ISZERO DUP1 PUSH2 0xA98 JUMPI JUMPDEST PUSH2 0xA77 JUMPI JUMPDEST POP CALLER DUP7 MSTORE PUSH1 0xB DUP3 MSTORE DUP5 DUP7 KECCAK256 SLOAD AND SWAP4 MLOAD SWAP3 DUP4 MSTORE CALLER SWAP3 LOG3 PUSH1 0x1 DUP2 SSTORE DUP1 RETURN JUMPDEST CALLER DUP8 MSTORE PUSH1 0xB DUP4 MSTORE DUP6 DUP8 KECCAK256 DUP1 SLOAD PUSH1 0x1 PUSH1 0x1 PUSH1 0xA0 SHL SUB NOT AND SWAP1 SWAP2 OR SWAP1 SSTORE CODESIZE PUSH2 0xA5B JUMP JUMPDEST POP CALLER DUP8 MSTORE PUSH1 0xB DUP4 MSTORE DUP2 DUP7 DUP9 KECCAK256 SLOAD AND ISZERO PUSH2 0xA56 JUMP JUMPDEST DUP6 MLOAD PUSH4 0x7A92F19 PUSH1 0xE5 SHL DUP2 MSTORE REVERT JUMPDEST DUP5 SWAP4 SWAP2 PUSH32 0xEC470969F3350CA5A15F0D85053F8763FFD0EE39C7B74FCDC5AF7862718E292A SWAP7 SWAP6 SWAP4 POP PUSH2 0xAEF SWAP2 ADDRESS SWAP1 CALLER SWAP1 PUSH2 0x1654 JUMP JUMPDEST PUSH2 0xA26 JUMP JUMPDEST POP DUP4 MLOAD PUSH4 0x1C4AF3C9 PUSH1 0xE1 SHL DUP2 MSTORE REVERT JUMPDEST POP DUP4 MLOAD PUSH4 0x74368FB9 PUSH1 0xE1 SHL DUP2 MSTORE REVERT JUMPDEST DUP6 MLOAD PUSH4 0x860B82A9 PUSH1 0xE0 SHL DUP2 MSTORE DUP4 SWAP1 REVERT JUMPDEST DUP4 MLOAD PUSH4 0x7A92F19 PUSH1 0xE5 SHL DUP2 MSTORE REVERT JUMPDEST PUSH4 0x4E487B71 PUSH1 0xE0 SHL DUP7 MSTORE PUSH1 0x21 DUP3 MSTORE PUSH1 0x24 DUP7 REVERT JUMPDEST POP POP CALLVALUE PUSH2 0x1EA JUMPI DUP2 PUSH1 0x3 NOT CALLDATASIZE ADD SLT PUSH2 0x1EA JUMPI MLOAD PUSH32 0x0 PUSH1 0x1 PUSH1 0x1 PUSH1 0xA0 SHL SUB AND DUP2 MSTORE PUSH1 0x20 SWAP1 RETURN JUMPDEST POP POP CALLVALUE PUSH2 0x1EA JUMPI DUP2 PUSH1 0x3 NOT CALLDATASIZE ADD SLT PUSH2 0x1EA JUMPI PUSH1 0x20 SWAP1 PUSH1 0xFF PUSH1 0x1 SLOAD AND SWAP1 MLOAD SWAP1 ISZERO ISZERO DUP2 MSTORE RETURN JUMPDEST POP POP CALLVALUE PUSH2 0x1EA JUMPI DUP2 PUSH1 0x3 NOT CALLDATASIZE ADD SLT PUSH2 0x1EA JUMPI MLOAD PUSH32 0x0 PUSH1 0x1 PUSH1 0x1 PUSH1 0xA0 SHL SUB AND DUP2 MSTORE PUSH1 0x20 SWAP1 RETURN JUMPDEST POP POP CALLVALUE PUSH2 0x1EA JUMPI PUSH1 0x20 CALLDATASIZE PUSH1 0x3 NOT ADD SLT PUSH2 0x1EA JUMPI PUSH1 0x20 SWAP2 PUSH1 0x1 PUSH1 0x1 PUSH1 0xA0 SHL SUB SWAP1 DUP3 SWAP1 DUP3 PUSH2 0xC19 PUSH2 0x1438 JUMP JUMPDEST AND DUP2 MSTORE PUSH1 0xB DUP6 MSTORE KECCAK256 SLOAD AND SWAP1 MLOAD SWAP1 DUP2 MSTORE RETURN JUMPDEST POP POP CALLVALUE PUSH2 0x1EA JUMPI PUSH1 0x20 CALLDATASIZE PUSH1 0x3 NOT ADD SLT PUSH2 0x1EA JUMPI PUSH1 0x20 SWAP2 DUP2 SWAP1 PUSH1 0x1 PUSH1 0x1 PUSH1 0xA0 SHL SUB PUSH2 0xC52 PUSH2 0x1438 JUMP JUMPDEST AND DUP2 MSTORE PUSH1 0xA DUP5 MSTORE KECCAK256 SLOAD SWAP1 MLOAD SWAP1 DUP2 MSTORE RETURN JUMPDEST SWAP1 POP CALLVALUE PUSH2 0x22E JUMPI DUP3 PUSH1 0x3 NOT CALLDATASIZE ADD SLT PUSH2 0x22E JUMPI PUSH2 0xC7C PUSH2 0x144E JUMP JUMPDEST PUSH1 0x1 SLOAD SWAP1 PUSH1 0xFF DUP3 AND ISZERO PUSH2 0xCBE JUMPI POP PUSH1 0xFF NOT AND PUSH1 0x1 SSTORE MLOAD CALLER DUP2 MSTORE PUSH32 0x5DB9EE0A495BF2E6FF9C91A7834C1BA4FDD244A5E8AA4E537BD38AEAE4B073AA SWAP1 PUSH1 0x20 SWAP1 LOG1 DUP1 RETURN JUMPDEST DUP3 MLOAD PUSH4 0x8DFC202B PUSH1 0xE0 SHL DUP2 MSTORE REVERT JUMPDEST DUP4 DUP4 CALLVALUE PUSH2 0x1EA JUMPI DUP1 PUSH1 0x3 NOT CALLDATASIZE ADD SLT PUSH2 0x1EA JUMPI PUSH2 0xCE6 PUSH2 0x1422 JUMP JUMPDEST SWAP1 CALLER PUSH1 0x1 PUSH1 0x1 PUSH1 0xA0 SHL SUB DUP4 AND SUB PUSH2 0xD03 JUMPI POP PUSH2 0x22A SWAP2 SWAP3 CALLDATALOAD PUSH2 0x156E JUMP JUMPDEST MLOAD PUSH4 0x334BD919 PUSH1 0xE1 SHL DUP2 MSTORE DUP4 SWAP1 REVERT JUMPDEST POP POP CALLVALUE PUSH2 0x1EA JUMPI DUP2 PUSH1 0x3 NOT CALLDATASIZE ADD SLT PUSH2 0x1EA JUMPI PUSH1 0x20 SWAP1 MLOAD PUSH32 0x0 DUP2 MSTORE RETURN JUMPDEST POP POP CALLVALUE PUSH2 0x1EA JUMPI DUP2 PUSH1 0x3 NOT CALLDATASIZE ADD SLT PUSH2 0x1EA JUMPI MLOAD PUSH32 0x0 PUSH1 0x1 PUSH1 0x1 PUSH1 0xA0 SHL SUB AND DUP2 MSTORE PUSH1 0x20 SWAP1 RETURN JUMPDEST SWAP2 SWAP1 POP CALLVALUE PUSH2 0x22E JUMPI DUP1 PUSH1 0x3 NOT CALLDATASIZE ADD SLT PUSH2 0x22E JUMPI PUSH2 0x22A SWAP2 CALLDATALOAD PUSH2 0xDB6 PUSH1 0x1 PUSH2 0x213 PUSH2 0x1422 JUMP JUMPDEST PUSH2 0x14EE JUMP JUMPDEST SWAP1 POP CALLVALUE PUSH2 0x22E JUMPI PUSH1 0x20 CALLDATASIZE PUSH1 0x3 NOT ADD SLT PUSH2 0x22E JUMPI DUP2 PUSH1 0x20 SWAP4 PUSH1 0x1 SWAP3 CALLDATALOAD DUP2 MSTORE PUSH1 0x2 DUP6 MSTORE KECCAK256 ADD SLOAD SWAP1 MLOAD SWAP1 DUP2 MSTORE RETURN JUMPDEST POP POP CALLVALUE PUSH2 0x1EA JUMPI DUP2 PUSH1 0x3 NOT CALLDATASIZE ADD SLT PUSH2 0x1EA JUMPI PUSH1 0x20 SWAP1 PUSH2 0xE0D PUSH1 0xFF PUSH1 0x7 SLOAD AND SWAP2 MLOAD DUP1 SWAP3 PUSH2 0x13FF JUMP JUMPDEST RETURN JUMPDEST SWAP2 SWAP1 POP CALLVALUE PUSH2 0x22E JUMPI DUP3 PUSH1 0x3 NOT CALLDATASIZE ADD SLT PUSH2 0x22E JUMPI PUSH1 0x80 SWAP3 POP PUSH1 0x3 SLOAD SWAP2 SLOAD SWAP1 PUSH1 0x5 SLOAD SWAP1 PUSH1 0x6 SLOAD SWAP3 DUP2 MLOAD SWAP5 DUP6 MSTORE PUSH1 0x20 DUP6 ADD MSTORE DUP4 ADD MSTORE PUSH1 0x60 DUP3 ADD MSTORE RETURN JUMPDEST SWAP2 SWAP1 POP CALLVALUE PUSH2 0x22E JUMPI DUP1 PUSH1 0x3 NOT CALLDATASIZE ADD SLT PUSH2 0x22E JUMPI PUSH1 0x24 SWAP2 DUP3 CALLDATALOAD SWAP3 PUSH2 0xE69 PUSH2 0x144E JUMP JUMPDEST PUSH2 0xE71 PUSH2 0x1735 JUMP JUMPDEST PUSH2 0xE79 PUSH2 0x1758 JUMP JUMPDEST PUSH1 0xFF PUSH1 0x7 SLOAD AND PUSH1 0x6 DUP2 LT ISZERO PUSH2 0x12C1 JUMPI PUSH1 0x2 SUB PUSH2 0x12B2 JUMPI PUSH1 0x8 SLOAD SWAP1 PUSH32 0x0 DUP3 LT PUSH2 0x12A2 JUMPI PUSH1 0x3 SLOAD DUP1 DUP4 MUL SWAP1 DUP4 DUP3 DIV EQ DUP4 ISZERO OR ISZERO PUSH2 0x1290 JUMPI PUSH2 0x2710 SWAP1 DIV SWAP5 DUP6 DUP4 SUB SWAP3 DUP4 GT PUSH2 0x1290 JUMPI PUSH32 0x0 SWAP2 PUSH1 0x1 PUSH1 0x1 PUSH1 0xA0 SHL SUB SWAP2 DUP9 SWAP1 DUP4 PUSH32 0x0 PUSH2 0xF5A DUP4 DUP3 DUP10 PUSH32 0x0 DUP7 AND PUSH2 0x1654 JUMP JUMPDEST AND DUP1 EXTCODESIZE ISZERO PUSH2 0x22E JUMPI PUSH1 0x44 DUP4 SWAP3 DUP11 MLOAD SWAP5 DUP6 SWAP4 DUP5 SWAP3 PUSH4 0x7C382D0B PUSH1 0xE0 SHL DUP5 MSTORE DUP13 CALLDATALOAD DUP14 DUP6 ADD MSTORE DUP9 DUP5 ADD MSTORE GAS CALL DUP1 ISZERO PUSH2 0x1286 JUMPI PUSH2 0x126D JUMPI JUMPDEST POP DUP8 SWAP4 SWAP3 SWAP2 PUSH32 0x0 DUP1 DUP3 AND SWAP3 DUP4 ISZERO SWAP3 SWAP2 SWAP1 DUP4 ISZERO PUSH2 0x10E2 JUMPI POP POP PUSH32 0x0 AND DUP1 EXTCODESIZE ISZERO PUSH2 0x10DE JUMPI DUP6 DUP10 SWAP2 DUP9 DUP11 MLOAD DUP1 SWAP5 DUP2 SWAP4 PUSH4 0x990087B7 PUSH1 0xE0 SHL DUP4 MSTORE GAS CALL DUP1 ISZERO PUSH2 0x10D4 JUMPI SWAP1 DUP7 SWAP2 PUSH2 0x10BC JUMPI JUMPDEST POP POP JUMPDEST ISZERO PUSH2 0x1083 JUMPI POP DUP3 DUP1 SWAP3 DUP2 SWAP3 GAS CALL PUSH2 0x102A PUSH2 0x189A JUMP JUMPDEST POP ISZERO PUSH2 0x36F JUMPI POP PUSH32 0xF3E2F1D90BD58F6807B6468783C27FDC68307B057882B3CA4EB0F3BB21167899 SWAP2 PUSH1 0x60 SWAP2 JUMPDEST TIMESTAMP PUSH1 0x9 SSTORE PUSH1 0x3 PUSH1 0xFF NOT PUSH1 0x7 SLOAD AND OR PUSH1 0x7 SSTORE PUSH1 0x8 SLOAD SWAP2 DUP2 MLOAD SWAP3 DUP4 MSTORE PUSH1 0x20 DUP4 ADD MSTORE TIMESTAMP SWAP1 DUP3 ADD MSTORE LOG1 PUSH1 0x1 DUP2 SSTORE DUP1 RETURN JUMPDEST PUSH32 0xF3E2F1D90BD58F6807B6468783C27FDC68307B057882B3CA4EB0F3BB21167899 SWAP7 SWAP5 POP PUSH1 0x60 SWAP6 SWAP4 POP SWAP1 PUSH2 0x10B7 SWAP3 SWAP2 PUSH2 0x18DA JUMP JUMPDEST PUSH2 0x1057 JUMP JUMPDEST PUSH2 0x10C5 SWAP1 PUSH2 0x1608 JUMP JUMPDEST PUSH2 0x10D0 JUMPI DUP5 CODESIZE PUSH2 0x1012 JUMP JUMPDEST DUP5 DUP1 REVERT JUMPDEST DUP9 MLOAD RETURNDATASIZE DUP9 DUP3 RETURNDATACOPY RETURNDATASIZE SWAP1 REVERT JUMPDEST DUP6 DUP1 REVERT JUMPDEST DUP11 SWAP10 SWAP9 SWAP8 SWAP11 SWAP3 SWAP2 SWAP3 PUSH32 0x0 SWAP2 PUSH1 0x20 DUP12 MLOAD SWAP15 DUP16 DUP3 DUP2 ADD SWAP1 PUSH2 0x1155 DUP2 PUSH2 0x1147 PUSH4 0x95EA7B3 PUSH1 0xE0 SHL SWAP9 DUP10 DUP7 MSTORE DUP11 DUP10 DUP5 ADD PUSH1 0x20 SWAP1 SWAP4 SWAP3 SWAP2 SWAP4 PUSH1 0x40 DUP2 ADD SWAP5 PUSH1 0x1 DUP1 PUSH1 0xA0 SHL SUB AND DUP2 MSTORE ADD MSTORE JUMP JUMPDEST SUB PUSH1 0x1F NOT DUP2 ADD DUP4 MSTORE DUP3 PUSH2 0x1632 JUMP JUMPDEST MLOAD SWAP1 DUP3 DUP12 GAS CALL DUP14 MLOAD RETURNDATASIZE DUP16 DUP4 PUSH2 0x124F JUMPI JUMPDEST POP POP POP ISZERO PUSH2 0x11E2 JUMPI JUMPDEST POP POP DUP11 SWAP12 POP SWAP10 SWAP7 SWAP8 SWAP9 SWAP10 AND DUP1 EXTCODESIZE ISZERO PUSH2 0x11DE JUMPI DUP9 MLOAD PUSH4 0x398DA911 PUSH1 0xE0 SHL DUP2 MSTORE PUSH1 0x1 PUSH1 0x1 PUSH1 0xA0 SHL SUB SWAP1 SWAP3 AND DUP3 DUP10 ADD SWAP1 DUP2 MSTORE PUSH1 0x20 DUP2 ADD DUP12 SWAP1 MSTORE DUP8 SWAP2 DUP4 SWAP2 DUP3 SWAP1 DUP5 SWAP1 DUP3 SWAP1 PUSH1 0x40 ADD SUB SWAP3 GAS CALL DUP1 ISZERO PUSH2 0x10D4 JUMPI SWAP1 DUP7 SWAP2 PUSH2 0x11CA JUMPI JUMPDEST POP POP PUSH2 0x1015 JUMP JUMPDEST PUSH2 0x11D3 SWAP1 PUSH2 0x1608 JUMP JUMPDEST PUSH2 0x10D0 JUMPI DUP5 CODESIZE PUSH2 0x11C3 JUMP JUMPDEST DUP7 DUP1 REVERT JUMPDEST DUP11 MLOAD SWAP2 PUSH1 0x20 DUP4 ADD MSTORE DUP4 DUP4 AND DUP2 DUP4 ADD MSTORE DUP13 PUSH1 0x44 DUP4 ADD MSTORE PUSH1 0x44 DUP3 MSTORE PUSH1 0x80 DUP3 ADD SWAP1 DUP3 DUP3 LT PUSH8 0xFFFFFFFFFFFFFFFF DUP4 GT OR PUSH2 0x123C JUMPI POP SWAP13 PUSH2 0x122A PUSH2 0x1230 SWAP3 DUP15 SWAP16 DUP14 SWAP15 SWAP16 SWAP13 SWAP14 MSTORE DUP9 PUSH2 0x16AF JUMP JUMPDEST DUP7 PUSH2 0x16AF JUMP JUMPDEST CODESIZE DUP1 SWAP12 SWAP11 SWAP10 SWAP9 SWAP12 PUSH2 0x116E JUMP JUMPDEST PUSH4 0x4E487B71 PUSH1 0xE0 SHL PUSH1 0x0 SWAP1 DUP2 MSTORE PUSH1 0x41 DUP13 MSTORE REVERT JUMPDEST POP SWAP1 SWAP2 POP PUSH2 0x1265 JUMPI POP DUP7 EXTCODESIZE ISZERO ISZERO JUMPDEST CODESIZE DUP1 DUP16 PUSH2 0x1165 JUMP JUMPDEST PUSH1 0x1 EQ PUSH2 0x125D JUMP JUMPDEST PUSH2 0x127C SWAP1 SWAP9 SWAP2 SWAP5 SWAP4 SWAP3 SWAP9 PUSH2 0x1608 JUMP JUMPDEST SWAP7 SWAP1 SWAP2 SWAP3 CODESIZE PUSH2 0xF8E JUMP JUMPDEST DUP8 MLOAD RETURNDATASIZE DUP12 DUP3 RETURNDATACOPY RETURNDATASIZE SWAP1 REVERT JUMPDEST POP PUSH4 0x4E487B71 PUSH1 0xE0 SHL DUP7 MSTORE PUSH1 0x11 DUP4 MSTORE DUP6 REVERT JUMPDEST DUP4 MLOAD PUSH4 0x46C21A55 PUSH1 0xE0 SHL DUP2 MSTORE DUP4 SWAP1 REVERT JUMPDEST POP SWAP1 MLOAD PUSH4 0x7A92F19 PUSH1 0xE5 SHL DUP2 MSTORE REVERT JUMPDEST POP PUSH4 0x4E487B71 PUSH1 0xE0 SHL DUP6 MSTORE PUSH1 0x21 DUP3 MSTORE DUP5 REVERT JUMPDEST DUP4 SWAP2 POP CALLVALUE PUSH2 0x1EA JUMPI PUSH2 0x12E4 CALLDATASIZE PUSH2 0x13B0 JUMP JUMPDEST SWAP2 PUSH2 0x12ED PUSH2 0x144E JUMP JUMPDEST PUSH2 0x12F5 PUSH2 0x1758 JUMP JUMPDEST PUSH1 0x7 SLOAD SWAP1 PUSH1 0xFF DUP3 AND PUSH1 0x6 DUP2 LT ISZERO PUSH2 0xB30 JUMPI DUP1 ISZERO ISZERO SWAP1 DUP2 PUSH2 0x1351 JUMPI JUMPDEST POP PUSH2 0xAAC JUMPI POP PUSH32 0x2AC842F90DAB3279148F7E55AC91D911F75C1C300A202A5250E05400B15FA156 SWAP4 SWAP5 PUSH1 0x5 PUSH2 0x464 SWAP3 PUSH1 0xFF NOT AND OR PUSH1 0x7 SSTORE MLOAD SWAP3 DUP4 SWAP3 DUP4 PUSH2 0x191B JUMP JUMPDEST PUSH1 0x1 SWAP2 POP EQ ISZERO DUP8 PUSH2 0x1310 JUMP JUMPDEST DUP5 SWAP2 CALLVALUE PUSH2 0x22E JUMPI PUSH1 0x20 CALLDATASIZE PUSH1 0x3 NOT ADD SLT PUSH2 0x22E JUMPI CALLDATALOAD PUSH4 0xFFFFFFFF PUSH1 0xE0 SHL DUP2 AND DUP1 SWAP2 SUB PUSH2 0x22E JUMPI PUSH1 0x20 SWAP3 POP PUSH4 0x7965DB0B PUSH1 0xE0 SHL DUP2 EQ SWAP1 DUP2 ISZERO PUSH2 0x139F JUMPI JUMPDEST POP ISZERO ISZERO DUP2 MSTORE RETURN JUMPDEST PUSH4 0x1FFC9A7 PUSH1 0xE0 SHL EQ SWAP1 POP DUP4 PUSH2 0x1398 JUMP JUMPDEST SWAP1 PUSH1 0x20 PUSH1 0x3 NOT DUP4 ADD SLT PUSH2 0x13FA JUMPI PUSH1 0x4 CALLDATALOAD PUSH8 0xFFFFFFFFFFFFFFFF SWAP3 DUP4 DUP3 GT PUSH2 0x13FA JUMPI DUP1 PUSH1 0x23 DUP4 ADD SLT ISZERO PUSH2 0x13FA JUMPI DUP2 PUSH1 0x4 ADD CALLDATALOAD SWAP4 DUP5 GT PUSH2 0x13FA JUMPI PUSH1 0x24 DUP5 DUP4 ADD ADD GT PUSH2 0x13FA JUMPI PUSH1 0x24 ADD SWAP2 SWAP1 JUMP JUMPDEST PUSH1 0x0 DUP1 REVERT JUMPDEST SWAP1 PUSH1 0x6 DUP3 LT ISZERO PUSH2 0x140C JUMPI MSTORE JUMP JUMPDEST PUSH4 0x4E487B71 PUSH1 0xE0 SHL PUSH1 0x0 MSTORE PUSH1 0x21 PUSH1 0x4 MSTORE PUSH1 0x24 PUSH1 0x0 REVERT JUMPDEST PUSH1 0x24 CALLDATALOAD SWAP1 PUSH1 0x1 PUSH1 0x1 PUSH1 0xA0 SHL SUB DUP3 AND DUP3 SUB PUSH2 0x13FA JUMPI JUMP JUMPDEST PUSH1 0x4 CALLDATALOAD SWAP1 PUSH1 0x1 PUSH1 0x1 PUSH1 0xA0 SHL SUB DUP3 AND DUP3 SUB PUSH2 0x13FA JUMPI JUMP JUMPDEST CALLER PUSH1 0x0 SWAP1 DUP2 MSTORE PUSH32 0xE5EBFA64FCA8D502A8E50C1EDFFD2C31EF4DAD5B396E65D9F397FB028F74ABC5 PUSH1 0x20 MSTORE PUSH1 0x40 SWAP1 KECCAK256 SLOAD PUSH32 0xA49807205CE4D355092EF5A8A18F56E8913CF4A201FBE287825B095693C21775 SWAP1 PUSH1 0xFF AND ISZERO PUSH2 0x14AA JUMPI POP JUMP JUMPDEST PUSH1 0x44 SWAP1 PUSH1 0x40 MLOAD SWAP1 PUSH4 0xE2517D3F PUSH1 0xE0 SHL DUP3 MSTORE CALLER PUSH1 0x4 DUP4 ADD MSTORE PUSH1 0x24 DUP3 ADD MSTORE REVERT JUMPDEST DUP1 PUSH1 0x0 MSTORE PUSH1 0x2 PUSH1 0x20 MSTORE PUSH1 0x40 PUSH1 0x0 KECCAK256 CALLER PUSH1 0x0 MSTORE PUSH1 0x20 MSTORE PUSH1 0xFF PUSH1 0x40 PUSH1 0x0 KECCAK256 SLOAD AND ISZERO PUSH2 0x14AA JUMPI POP JUMP JUMPDEST SWAP1 PUSH1 0x0 SWAP2 DUP1 DUP4 MSTORE PUSH1 0x2 PUSH1 0x20 MSTORE PUSH1 0x40 DUP4 KECCAK256 SWAP2 PUSH1 0x1 DUP1 PUSH1 0xA0 SHL SUB AND SWAP2 DUP3 DUP5 MSTORE PUSH1 0x20 MSTORE PUSH1 0xFF PUSH1 0x40 DUP5 KECCAK256 SLOAD AND ISZERO PUSH1 0x0 EQ PUSH2 0x1569 JUMPI DUP1 DUP4 MSTORE PUSH1 0x2 PUSH1 0x20 MSTORE PUSH1 0x40 DUP4 KECCAK256 DUP3 DUP5 MSTORE PUSH1 0x20 MSTORE PUSH1 0x40 DUP4 KECCAK256 PUSH1 0x1 PUSH1 0xFF NOT DUP3 SLOAD AND OR SWAP1 SSTORE PUSH32 0x2F8788117E7EFF1D82E926EC794901D17C78024A50270940304540A733656F0D CALLER SWAP4 DUP1 LOG4 PUSH1 0x1 SWAP1 JUMP JUMPDEST POP POP SWAP1 JUMP JUMPDEST SWAP1 PUSH1 0x0 SWAP2 DUP1 DUP4 MSTORE PUSH1 0x2 PUSH1 0x20 MSTORE PUSH1 0x40 DUP4 KECCAK256 SWAP2 PUSH1 0x1 DUP1 PUSH1 0xA0 SHL SUB AND SWAP2 DUP3 DUP5 MSTORE PUSH1 0x20 MSTORE PUSH1 0xFF PUSH1 0x40 DUP5 KECCAK256 SLOAD AND PUSH1 0x0 EQ PUSH2 0x1569 JUMPI DUP1 DUP4 MSTORE PUSH1 0x2 PUSH1 0x20 MSTORE PUSH1 0x40 DUP4 KECCAK256 DUP3 DUP5 MSTORE PUSH1 0x20 MSTORE PUSH1 0x40 DUP4 KECCAK256 PUSH1 0xFF NOT DUP2 SLOAD AND SWAP1 SSTORE PUSH32 0xF6391F5C32D9C69D2A47EA670B442974B53935D1EDC7FD64EB21E047A839171B CALLER SWAP4 DUP1 LOG4 PUSH1 0x1 SWAP1 JUMP JUMPDEST SWAP2 SWAP1 DUP3 ADD DUP1 SWAP3 GT PUSH2 0x15F2 JUMPI JUMP JUMPDEST PUSH4 0x4E487B71 PUSH1 0xE0 SHL PUSH1 0x0 MSTORE PUSH1 0x11 PUSH1 0x4 MSTORE PUSH1 0x24 PUSH1 0x0 REVERT JUMPDEST PUSH8 0xFFFFFFFFFFFFFFFF DUP2 GT PUSH2 0x161C JUMPI PUSH1 0x40 MSTORE JUMP JUMPDEST PUSH4 0x4E487B71 PUSH1 0xE0 SHL PUSH1 0x0 MSTORE PUSH1 0x41 PUSH1 0x4 MSTORE PUSH1 0x24 PUSH1 0x0 REVERT JUMPDEST SWAP1 PUSH1 0x1F DUP1 NOT SWAP2 ADD AND DUP2 ADD SWAP1 DUP2 LT PUSH8 0xFFFFFFFFFFFFFFFF DUP3 GT OR PUSH2 0x161C JUMPI PUSH1 0x40 MSTORE JUMP JUMPDEST PUSH1 0x40 MLOAD PUSH4 0x23B872DD PUSH1 0xE0 SHL PUSH1 0x20 DUP3 ADD MSTORE PUSH1 0x1 PUSH1 0x1 PUSH1 0xA0 SHL SUB SWAP3 DUP4 AND PUSH1 0x24 DUP3 ADD MSTORE SWAP3 SWAP1 SWAP2 AND PUSH1 0x44 DUP4 ADD MSTORE PUSH1 0x64 DUP1 DUP4 ADD SWAP4 SWAP1 SWAP4 MSTORE SWAP2 DUP2 MSTORE PUSH1 0xA0 DUP2 ADD SWAP2 DUP2 DUP4 LT PUSH8 0xFFFFFFFFFFFFFFFF DUP5 GT OR PUSH2 0x161C JUMPI PUSH2 0x16AD SWAP3 PUSH1 0x40 MSTORE PUSH2 0x16AF JUMP JUMPDEST JUMP JUMPDEST SWAP1 PUSH1 0x0 PUSH1 0x20 SWAP2 DUP3 DUP2 MLOAD SWAP2 ADD DUP3 DUP6 GAS CALL ISZERO PUSH2 0x170B JUMPI PUSH1 0x0 MLOAD RETURNDATASIZE PUSH2 0x1702 JUMPI POP PUSH1 0x1 PUSH1 0x1 PUSH1 0xA0 SHL SUB DUP2 AND EXTCODESIZE ISZERO JUMPDEST PUSH2 0x16E0 JUMPI POP JUMP JUMPDEST PUSH1 0x40 MLOAD PUSH4 0x5274AFE7 PUSH1 0xE0 SHL DUP2 MSTORE PUSH1 0x1 PUSH1 0x1 PUSH1 0xA0 SHL SUB SWAP1 SWAP2 AND PUSH1 0x4 DUP3 ADD MSTORE PUSH1 0x24 SWAP1 REVERT JUMPDEST PUSH1 0x1 EQ ISZERO PUSH2 0x16D9 JUMP JUMPDEST PUSH1 0x40 MLOAD RETURNDATASIZE PUSH1 0x0 DUP3 RETURNDATACOPY RETURNDATASIZE SWAP1 REVERT JUMPDEST PUSH1 0xFF PUSH1 0x1 SLOAD AND PUSH2 0x1723 JUMPI JUMP JUMPDEST PUSH1 0x40 MLOAD PUSH4 0xD93C0665 PUSH1 0xE0 SHL DUP2 MSTORE PUSH1 0x4 SWAP1 REVERT JUMPDEST PUSH1 0x2 PUSH1 0x0 SLOAD EQ PUSH2 0x1746 JUMPI PUSH1 0x2 PUSH1 0x0 SSTORE JUMP JUMPDEST PUSH1 0x40 MLOAD PUSH4 0x3EE5AEB5 PUSH1 0xE0 SHL DUP2 MSTORE PUSH1 0x4 SWAP1 REVERT JUMPDEST PUSH1 0x7 SLOAD PUSH1 0xFF DUP2 AND SWAP1 PUSH32 0x0 TIMESTAMP LT ISZERO DUP1 PUSH2 0x1889 JUMPI JUMPDEST PUSH2 0x1879 JUMPI JUMPDEST POP PUSH1 0x7 SLOAD PUSH1 0xFF DUP2 AND PUSH1 0x6 DUP2 LT ISZERO PUSH2 0x140C JUMPI PUSH1 0x1 EQ PUSH2 0x180D JUMPI JUMPDEST POP PUSH1 0xFF PUSH1 0x7 SLOAD AND PUSH1 0x6 DUP2 LT ISZERO PUSH2 0x140C JUMPI PUSH1 0x6 DUP3 LT ISZERO PUSH2 0x140C JUMPI DUP1 DUP3 SUB PUSH2 0x17CC JUMPI POP POP JUMP JUMPDEST PUSH32 0xD643A1384921DE4B8AD16DF0A695F1E75FCFE3BCAC27F9C5C8CEE4645872382 SWAP2 PUSH2 0x180A PUSH1 0x40 SWAP3 PUSH2 0x1800 DUP5 MLOAD DUP1 SWAP5 PUSH2 0x13FF JUMP JUMPDEST PUSH1 0x20 DUP4 ADD SWAP1 PUSH2 0x13FF JUMP JUMPDEST LOG1 JUMP JUMPDEST PUSH32 0x0 TIMESTAMP LT DUP1 ISZERO SWAP1 PUSH2 0x184D JUMPI JUMPDEST ISZERO PUSH2 0x17A8 JUMPI PUSH1 0xFF NOT AND PUSH1 0x2 OR PUSH1 0x7 SSTORE CODESIZE PUSH2 0x17A8 JUMP JUMPDEST POP PUSH1 0x8 SLOAD PUSH32 0x0 GT ISZERO PUSH2 0x1838 JUMP JUMPDEST PUSH1 0xFF NOT AND PUSH1 0x1 OR PUSH1 0x7 SSTORE CODESIZE PUSH2 0x178F JUMP JUMPDEST POP PUSH1 0x6 DUP3 LT ISZERO PUSH2 0x140C JUMPI DUP2 ISZERO PUSH2 0x178A JUMP JUMPDEST RETURNDATASIZE ISZERO PUSH2 0x18D5 JUMPI RETURNDATASIZE SWAP1 PUSH8 0xFFFFFFFFFFFFFFFF DUP3 GT PUSH2 0x161C JUMPI PUSH1 0x40 MLOAD SWAP2 PUSH2 0x18C9 PUSH1 0x1F DUP3 ADD PUSH1 0x1F NOT AND PUSH1 0x20 ADD DUP5 PUSH2 0x1632 JUMP JUMPDEST DUP3 MSTORE RETURNDATASIZE PUSH1 0x0 PUSH1 0x20 DUP5 ADD RETURNDATACOPY JUMP JUMPDEST PUSH1 0x60 SWAP1 JUMP JUMPDEST PUSH1 0x40 MLOAD PUSH4 0xA9059CBB PUSH1 0xE0 SHL PUSH1 0x20 DUP3 ADD MSTORE PUSH1 0x1 PUSH1 0x1 PUSH1 0xA0 SHL SUB SWAP3 SWAP1 SWAP3 AND PUSH1 0x24 DUP4 ADD MSTORE PUSH1 0x44 DUP1 DUP4 ADD SWAP4 SWAP1 SWAP4 MSTORE SWAP2 DUP2 MSTORE PUSH2 0x16AD SWAP2 PUSH2 0x1916 PUSH1 0x64 DUP4 PUSH2 0x1632 JUMP JUMPDEST PUSH2 0x16AF JUMP JUMPDEST SWAP1 SWAP2 DUP1 PUSH1 0x40 SWAP4 PUSH1 0x20 DUP5 MSTORE DUP2 PUSH1 0x20 DUP6 ADD MSTORE DUP5 DUP5 ADD CALLDATACOPY PUSH1 0x0 DUP3 DUP3 ADD DUP5 ADD MSTORE PUSH1 0x1F ADD PUSH1 0x1F NOT AND ADD ADD SWAP1 JUMP INVALID LOG2 PUSH5 0x6970667358 0x22 SLT KECCAK256 GASPRICE 0xA5 DUP9 SWAP9 PC DUP16 DUP5 0xCF 0xC4 SAR PUSH32 0x5FA7F09EFCA595DC1EC89FA6FD7572C74F71EA5EC664736F6C63430008140033 0x2F DUP8 DUP9 GT PUSH31 0x7EFF1D82E926EC794901D17C78024A50270940304540A733656F0D00000000 "},"methodIdentifiers":{"ADMIN_ROLE()":"75b238fc","DEFAULT_ADMIN_ROLE()":"a217fddf","cancel(string)":"0b4f3f3d","claimRefund()":"b5545a3c","contribute(uint256,address)":"60b0b0f0","contributions(address)":"42e94c90","endTime()":"3197cbb6","feeConfig()":"1e5eb1d0","feeSplitter()":"6052970c","finalizeFailed(string)":"b30ca2da","finalizeSuccess(bytes32,uint256)":"19cef5bc","getContributionInfo(address)":"cd78d92c","getPresaleInfo()":"767fa723","getRoleAdmin(bytes32)":"248a9ca3","grantRole(bytes32,address)":"2f2ff15d","hardCap()":"fb86a404","hasRole(bytes32,address)":"91d14854","maxContribution()":"8d3d6576","minContribution()":"aaffadf3","pause()":"8456cb59","paused()":"5c975abb","paymentToken()":"3013ce29","projectOwner()":"a4475ce4","projectToken()":"4b60ce77","referrers(address)":"4a3b68cc","renounceRole(bytes32,address)":"36568abe","revokeRole(bytes32,address)":"d547741f","setFeeConfig((uint256,uint256,uint256,uint256))":"a9eddf99","softCap()":"906a26e0","startTime()":"78e97925","status()":"200d2ed2","supportsInterface(bytes4)":"01ffc9a7","tgeTimestamp()":"a4317ef4","totalRaised()":"c5c4744c","unpause()":"3f4ba83a","vestingVault()":"a5917baf"}}}}}