{"contracts/PresaleFactory.sol":{"PresaleFactory":{"abi":[{"inputs":[{"internalType":"address","name":"_feeSplitter","type":"address"},{"internalType":"address","name":"_timelockExecutor","type":"address"}],"stateMutability":"nonpayable","type":"constructor"},{"inputs":[],"name":"AccessControlBadConfirmation","type":"error"},{"inputs":[{"internalType":"address","name":"account","type":"address"},{"internalType":"bytes32","name":"neededRole","type":"bytes32"}],"name":"AccessControlUnauthorizedAccount","type":"error"},{"inputs":[],"name":"InsufficientLPLockDuration","type":"error"},{"inputs":[],"name":"InvalidCapRange","type":"error"},{"inputs":[],"name":"InvalidContributionRange","type":"error"},{"inputs":[],"name":"InvalidLiquidityPercent","type":"error"},{"inputs":[],"name":"InvalidTimeRange","type":"error"},{"inputs":[],"name":"ZeroAddress","type":"error"},{"anonymous":false,"inputs":[{"indexed":true,"internalType":"address","name":"round","type":"address"},{"indexed":false,"internalType":"uint256","name":"lockMonths","type":"uint256"},{"indexed":false,"internalType":"bytes32","name":"dexId","type":"bytes32"},{"indexed":false,"internalType":"uint256","name":"liquidityPercent","type":"uint256"}],"name":"LPPlanRecorded","type":"event"},{"anonymous":false,"inputs":[{"indexed":true,"internalType":"uint256","name":"presaleId","type":"uint256"},{"indexed":true,"internalType":"address","name":"round","type":"address"},{"indexed":true,"internalType":"address","name":"vesting","type":"address"},{"indexed":false,"internalType":"bytes32","name":"scheduleSalt","type":"bytes32"},{"indexed":false,"internalType":"bytes32","name":"complianceHash","type":"bytes32"}],"name":"PresaleCreated","type":"event"},{"anonymous":false,"inputs":[{"indexed":true,"internalType":"bytes32","name":"role","type":"bytes32"},{"indexed":true,"internalType":"bytes32","name":"previousAdminRole","type":"bytes32"},{"indexed":true,"internalType":"bytes32","name":"newAdminRole","type":"bytes32"}],"name":"RoleAdminChanged","type":"event"},{"anonymous":false,"inputs":[{"indexed":true,"internalType":"bytes32","name":"role","type":"bytes32"},{"indexed":true,"internalType":"address","name":"account","type":"address"},{"indexed":true,"internalType":"address","name":"sender","type":"address"}],"name":"RoleGranted","type":"event"},{"anonymous":false,"inputs":[{"indexed":true,"internalType":"bytes32","name":"role","type":"bytes32"},{"indexed":true,"internalType":"address","name":"account","type":"address"},{"indexed":true,"internalType":"address","name":"sender","type":"address"}],"name":"RoleRevoked","type":"event"},{"anonymous":false,"inputs":[{"indexed":true,"internalType":"address","name":"vesting","type":"address"},{"indexed":true,"internalType":"address","name":"rootSetter","type":"address"}],"name":"RolesGranted","type":"event"},{"inputs":[],"name":"DEFAULT_ADMIN_ROLE","outputs":[{"internalType":"bytes32","name":"","type":"bytes32"}],"stateMutability":"view","type":"function"},{"inputs":[],"name":"FACTORY_ADMIN_ROLE","outputs":[{"internalType":"bytes32","name":"","type":"bytes32"}],"stateMutability":"view","type":"function"},{"inputs":[{"components":[{"internalType":"address","name":"projectToken","type":"address"},{"internalType":"address","name":"paymentToken","type":"address"},{"internalType":"uint256","name":"softCap","type":"uint256"},{"internalType":"uint256","name":"hardCap","type":"uint256"},{"internalType":"uint256","name":"minContribution","type":"uint256"},{"internalType":"uint256","name":"maxContribution","type":"uint256"},{"internalType":"uint256","name":"startTime","type":"uint256"},{"internalType":"uint256","name":"endTime","type":"uint256"},{"internalType":"address","name":"projectOwner","type":"address"}],"internalType":"struct PresaleFactory.CreatePresaleParams","name":"params","type":"tuple"},{"components":[{"internalType":"uint256","name":"tgeUnlockBps","type":"uint256"},{"internalType":"uint256","name":"cliffDuration","type":"uint256"},{"internalType":"uint256","name":"vestingDuration","type":"uint256"}],"internalType":"struct PresaleFactory.VestingParams","name":"vestingParams","type":"tuple"},{"components":[{"internalType":"uint256","name":"lockMonths","type":"uint256"},{"internalType":"bytes32","name":"dexId","type":"bytes32"},{"internalType":"uint256","name":"liquidityPercent","type":"uint256"}],"internalType":"struct PresaleFactory.LPLockPlan","name":"lpPlan","type":"tuple"},{"internalType":"bytes32","name":"complianceHash","type":"bytes32"}],"name":"createPresale","outputs":[{"internalType":"address","name":"round","type":"address"},{"internalType":"address","name":"vesting","type":"address"}],"stateMutability":"nonpayable","type":"function"},{"inputs":[],"name":"feeSplitter","outputs":[{"internalType":"address","name":"","type":"address"}],"stateMutability":"view","type":"function"},{"inputs":[{"internalType":"uint256","name":"presaleId","type":"uint256"}],"name":"getPresaleDetails","outputs":[{"internalType":"address","name":"round","type":"address"},{"internalType":"address","name":"vesting","type":"address"},{"internalType":"bytes32","name":"scheduleSalt","type":"bytes32"},{"internalType":"bytes32","name":"complianceHash","type":"bytes32"},{"components":[{"internalType":"uint256","name":"lockMonths","type":"uint256"},{"internalType":"bytes32","name":"dexId","type":"bytes32"},{"internalType":"uint256","name":"liquidityPercent","type":"uint256"}],"internalType":"struct PresaleFactory.LPLockPlan","name":"lpPlan","type":"tuple"}],"stateMutability":"view","type":"function"},{"inputs":[{"internalType":"bytes32","name":"role","type":"bytes32"}],"name":"getRoleAdmin","outputs":[{"internalType":"bytes32","name":"","type":"bytes32"}],"stateMutability":"view","type":"function"},{"inputs":[{"internalType":"address","name":"round","type":"address"}],"name":"getScheduleSalt","outputs":[{"internalType":"bytes32","name":"","type":"bytes32"}],"stateMutability":"view","type":"function"},{"inputs":[{"internalType":"address","name":"round","type":"address"}],"name":"getVestingForRound","outputs":[{"internalType":"address","name":"","type":"address"}],"stateMutability":"view","type":"function"},{"inputs":[{"internalType":"bytes32","name":"role","type":"bytes32"},{"internalType":"address","name":"account","type":"address"}],"name":"grantRole","outputs":[],"stateMutability":"nonpayable","type":"function"},{"inputs":[{"internalType":"bytes32","name":"role","type":"bytes32"},{"internalType":"address","name":"account","type":"address"}],"name":"hasRole","outputs":[{"internalType":"bool","name":"","type":"bool"}],"stateMutability":"view","type":"function"},{"inputs":[],"name":"presaleCount","outputs":[{"internalType":"uint256","name":"","type":"uint256"}],"stateMutability":"view","type":"function"},{"inputs":[{"internalType":"bytes32","name":"role","type":"bytes32"},{"internalType":"address","name":"callerConfirmation","type":"address"}],"name":"renounceRole","outputs":[],"stateMutability":"nonpayable","type":"function"},{"inputs":[{"internalType":"bytes32","name":"role","type":"bytes32"},{"internalType":"address","name":"account","type":"address"}],"name":"revokeRole","outputs":[],"stateMutability":"nonpayable","type":"function"},{"inputs":[{"internalType":"address","name":"","type":"address"}],"name":"roundToComplianceHash","outputs":[{"internalType":"bytes32","name":"","type":"bytes32"}],"stateMutability":"view","type":"function"},{"inputs":[{"internalType":"address","name":"","type":"address"}],"name":"roundToLPPlan","outputs":[{"internalType":"uint256","name":"lockMonths","type":"uint256"},{"internalType":"bytes32","name":"dexId","type":"bytes32"},{"internalType":"uint256","name":"liquidityPercent","type":"uint256"}],"stateMutability":"view","type":"function"},{"inputs":[{"internalType":"address","name":"","type":"address"}],"name":"roundToScheduleSalt","outputs":[{"internalType":"bytes32","name":"","type":"bytes32"}],"stateMutability":"view","type":"function"},{"inputs":[{"internalType":"address","name":"","type":"address"}],"name":"roundToVesting","outputs":[{"internalType":"address","name":"","type":"address"}],"stateMutability":"view","type":"function"},{"inputs":[{"internalType":"uint256","name":"","type":"uint256"}],"name":"rounds","outputs":[{"internalType":"address","name":"","type":"address"}],"stateMutability":"view","type":"function"},{"inputs":[{"internalType":"bytes4","name":"interfaceId","type":"bytes4"}],"name":"supportsInterface","outputs":[{"internalType":"bool","name":"","type":"bool"}],"stateMutability":"view","type":"function"},{"inputs":[],"name":"timelockExecutor","outputs":[{"internalType":"address","name":"","type":"address"}],"stateMutability":"view","type":"function"}],"evm":{"bytecode":{"linkReferences":{},"object":"60c034620000e257601f62003ef038819003918201601f19168301916001600160401b03831184841017620000e7578084926040948552833981010312620000e2576200005a60206200005283620000fd565b9201620000fd565b906001600160a01b0380821615620000d057821615620000d05760805260a052620000853362000112565b50620000913362000192565b50604051613c9b90816200023582396080518181816104a00152610af3015260a051818181610129015281816103bb015281816104dc01526106b40152f35b60405163d92e233d60e01b8152600490fd5b600080fd5b634e487b7160e01b600052604160045260246000fd5b51906001600160a01b0382168203620000e257565b6001600160a01b031660008181527fad3228b676f7d3cd4284a5443f17f1962b36e491b30a40b2405849e597ba5fb5602052604081205490919060ff166200018e57818052816020526040822081835260205260408220600160ff19825416179055339160008051602062003ed08339815191528180a4600190565b5090565b6001600160a01b031660008181527f40d6054e7c1e32abf36e71c717b2201c6fb50ee4639813ce060d4f8ffbb78bdd60205260408120549091907fbd5d72ac35ae1e83aa0625c57eddda63fbb064a87fca99dfdd7ce027384ae2829060ff166200022f57808352826020526040832082845260205260408320600160ff1982541617905560008051602062003ed0833981519152339380a4600190565b50509056fe60808060405260043610156200001457600080fd5b600090813560e01c90816301ffc9a71462000cc457508063076e7fd31462000b22578063248a9ca31462000c965780632f2ff15d1462000c515780633360cf5e1462000c1457806336568abe1462000bc55780634732f00e1462000b625780635ccbf6711462000b225780636052970c1462000adb5780638c65c81f1462000aa657806391d148541462000a5a578063a217fddf1462000a3c578063b1012ec91462000939578063bda75e6d1462000976578063ca807e681462000939578063cde27a351462000919578063d547741f14620008d0578063e82f1c0a1462000893578063ea1b61ba146200015b5763f6a4ad65146200011257600080fd5b3462000158578060031936011262000158576040517f00000000000000000000000000000000000000000000000000000000000000006001600160a01b03168152602090f35b80fd5b50346200015857366003190161020081126200088f57610120136200015857606036610123190112620001585760603661018319011262000158577fbd5d72ac35ae1e83aa0625c57eddda63fbb064a87fca99dfdd7ce027384ae282808252816020526040822033835260205260ff6040832054161562000871575060643560443510156200085f57604435156200085f5760e43560c43510156200084d574260c43511156200084d5760a435608435116200083b57608435156200083b57600c610184351062000829576113886101c4351080156200081a575b62000808576001600160a01b036200024d62000e68565b1615620007f6576001600160a01b036200026662000e7f565b1615620007f657600154906200027b62000e7f565b6200028562000e68565b6040519360208501524260408501526bffffffffffffffffffffffff19809260601b16606085015260601b166074830152606882528160a081011067ffffffffffffffff60a084011117620007e25760a082016040528151602083012091620002ed62000e68565b60a0820160a0610fcf8401011067ffffffffffffffff60a0610fcf8501011117620007ce57610fcf62000ee060a08401396001600160a01b0316610fcf820160a0818101929092526101243560c0808301919091526101443560e0830152610164356101008301526101208201869052306101408301529083900301910182f08015620007c1576001600160a01b031690813b156200015857604051632f2ff15d60e01b81527fa49807205ce4d355092ef5a8a18f56e8913cf4a201fbe287825b095693c2177560048201527f00000000000000000000000000000000000000000000000000000000000000006001600160a01b03166024820152818160448183875af18015620007b657620007a4575b50906200040a62000e68565b602435906001600160a01b03821682036200079f576200042962000e7f565b916040519182611db781011067ffffffffffffffff611db7850111176200078b57611db762001eaf84396001600160a01b03908116611db78401908152918116602083015260443560408301526064356060830152608435608083015260a43560a083015260c43560c083015260e43560e08301527f00000000000000000000000000000000000000000000000000000000000000008116610100830181905261012083018690529381166101408301527f000000000000000000000000000000000000000000000000000000000000000016610160820152819003610180019084f0801562000780576001600160a01b031690823b156200075957604051632f2ff15d60e01b81527fa49807205ce4d355092ef5a8a18f56e8913cf4a201fbe287825b095693c21775600482015260248101839052848160448183885af1801562000775579085916200075d575b5050803b15620007595783809160246040518094819363105fad9b60e21b83528760048401525af180156200074e5790849162000732575b505060015483526002602052604083206bffffffffffffffffffffffff60a01b908282825416179055818452600360205282604085209182541617905560046020528360408420556005602052807fda79e99dc31a6b02a1a6d9e3758c6d0ef34606738cc48a1ff703d6566b040626620006ab6101e4358060408820556006602052858460408920926101843584556101a4359384600182015560026101c4359101557f42074357c57268478f25edbb5880a4b5604f55cf132f7c8e21ab8d46a128296960406001549c8d9382519182526020820152a46040805161018435815260208101929092526101c435908201529081906060820190565b0390a2604051927f00000000000000000000000000000000000000000000000000000000000000006001600160a01b0316837f68761163edc0e36a9b4d28b0260a8c3d198cf5f21f582d72561bdcb89b3f29078380a360001985146200071e575060016040940160015582526020820152f35b634e487b7160e01b81526011600452602490fd5b6200073d9062000eca565b6200074a578238620005b0565b8280fd5b6040513d86823e3d90fd5b8380fd5b620007689062000eca565b6200075957833862000578565b6040513d87823e3d90fd5b6040513d85823e3d90fd5b634e487b7160e01b86526041600452602486fd5b600080fd5b620007af9062000eca565b38620003fe565b6040513d84823e3d90fd5b50604051903d90823e3d90fd5b634e487b7160e01b83526041600452602483fd5b634e487b7160e01b81526041600452602490fd5b60405163d92e233d60e01b8152600490fd5b6040516351424f0b60e11b8152600490fd5b506123286101c4351162000236565b6040516376a12a0f60e11b8152600490fd5b60405163102df2a160e11b8152600490fd5b60405163536a71af60e01b8152600490fd5b60405163f5cae40b60e01b8152600490fd5b6044906040519063e2517d3f60e01b82523360048301526024820152fd5b5080fd5b50346200015857602036600319011262000158576020906040906001600160a01b03620008bf62000d1e565b168152600583522054604051908152f35b503462000158576040366003190112620001585762000915600435620008f562000d35565b90808452836020526200090f600160408620015462000d4c565b62000df2565b5080f35b503462000158578060031936011262000158576020600154604051908152f35b50346200015857602036600319011262000158576020906040906001600160a01b036200096562000d1e565b168152600483522054604051908152f35b503462000158576020806003193601126200088f579060e09181604080516200099f8162000e97565b8281528284820152015260043582526002815260018060a01b039182604082205416928382526003835260408220541660048352604082205491600584526040808220549160068652209260405192620009f98462000e97565b84548452600260018601549587860196875201549560408501968752604051978852870152604086015260608501525160808401525160a08301525160c0820152f35b50346200015857806003193601126200015857602090604051908152f35b503462000158576040366003190112620001585760ff604060209262000a7f62000d35565b60043582528185528282206001600160a01b03909116825284522054604051911615158152f35b5034620001585760203660031901126200015857602090600435815260028252604060018060a01b0391205416604051908152f35b503462000158578060031936011262000158576040517f00000000000000000000000000000000000000000000000000000000000000006001600160a01b03168152602090f35b50346200015857602036600319011262000158576020906001600160a01b03906040908262000b5062000d1e565b16815260038452205416604051908152f35b50346200015857602036600319011262000158576040906001600160a01b0362000b8b62000d1e565b168152600660205220805462000bc160026001840154930154604051938493846040919493926060820195825260208201520152565b0390f35b503462000158576040366003190112620001585762000be362000d35565b336001600160a01b0382160362000c0257620009159060043562000df2565b60405163334bd91960e11b8152600490fd5b5034620001585780600319360112620001585760206040517fbd5d72ac35ae1e83aa0625c57eddda63fbb064a87fca99dfdd7ce027384ae2828152f35b50346200015857604036600319011262000158576200091560043562000c7662000d35565b908084528360205262000c90600160408620015462000d4c565b62000d73565b5034620001585760203660031901126200015857600160406020926004358152808452200154604051908152f35b9050346200088f5760203660031901126200088f5760043563ffffffff60e01b81168091036200074a5760209250637965db0b60e01b811490811562000d0c575b5015158152f35b6301ffc9a760e01b1490503862000d05565b600435906001600160a01b03821682036200079f57565b602435906001600160a01b03821682036200079f57565b80600052600060205260406000203360005260205260ff6040600020541615620008715750565b9060009180835282602052604083209160018060a01b03169182845260205260ff6040842054161560001462000ded57808352826020526040832082845260205260408320600160ff198254161790557f2f8788117e7eff1d82e926ec794901d17c78024a50270940304540a733656f0d339380a4600190565b505090565b9060009180835282602052604083209160018060a01b03169182845260205260ff60408420541660001462000ded5780835282602052604083208284526020526040832060ff1981541690557ff6391f5c32d9c69d2a47ea670b442974b53935d1edc7fd64eb21e047a839171b339380a4600190565b6004356001600160a01b03811681036200079f5790565b610104356001600160a01b03811681036200079f5790565b6060810190811067ffffffffffffffff82111762000eb457604052565b634e487b7160e01b600052604160045260246000fd5b67ffffffffffffffff811162000eb45760405256fe6101203461010d57601f610fcf38819003918201601f19168301916001600160401b038311848410176101125780849260c09460405283398101031261010d5761009361004b82610128565b6020830151604084015160608501519161006c60a060808801519701610128565b93600160005560805260a05260c05260e05261010092835261008d8161013c565b506101bb565b50604051610d52918261025d833960805182818161011c0152818161040401526107ce015260a0518281816101aa015281816109dc0152610bf2015260c0518281816101cd0152818161023b0152610c20015260e0518281816101f3015281816109a10152610c4e01525181818161016801526106790152f35b600080fd5b634e487b7160e01b600052604160045260246000fd5b51906001600160a01b038216820361010d57565b6001600160a01b031660008181527fa6eef7e35abe7026729641147f7915573c7e97b47efa546f5f6e3230263bcb49602052604081205490919060ff166101b75781805260016020526040822081835260205260408220600160ff198254161790553391600080516020610faf8339815191528180a4600190565b5090565b6001600160a01b031660008181527f50efbde2d46c37e9785f1791697f77e94bb7b701e19f1930a668820722d3769460205260408120549091907fa49807205ce4d355092ef5a8a18f56e8913cf4a201fbe287825b095693c217759060ff166102575780835260016020526040832082845260205260408320600160ff19825416179055600080516020610faf833981519152339380a4600190565b50509056fe608080604052600436101561001357600080fd5b60003560e01c90816301ffc9a7146109ff5750806314f41d73146109c45780631514617e14610989578063248a9ca31461095a5780632eb4a7ab1461093c5780632f2ff15d146108fd5780632f52ebb7146105f357806336568abe146105ac57806345f7f2491461058e5780636f5244b11461055f57806375b238fc146105245780637c382d0b1461036057806391d1485414610313578063a217fddf146102f7578063a4317ef4146102d9578063c884ef831461029f578063d547741f1461025e578063d85349f714610223578063dc25a3001461018b578063e1f05ec4146101505763fc0c546a1461010657600080fd5b3461014b57600036600319011261014b576040517f00000000000000000000000000000000000000000000000000000000000000006001600160a01b03168152602090f35b600080fd5b3461014b57600036600319011261014b5760206040517f00000000000000000000000000000000000000000000000000000000000000008152f35b3461014b57600036600319011261014b5760a0600354600254604051917f000000000000000000000000000000000000000000000000000000000000000083527f000000000000000000000000000000000000000000000000000000000000000060208401527f0000000000000000000000000000000000000000000000000000000000000000604084015260608301526080820152f35b3461014b57600036600319011261014b5760206040517f00000000000000000000000000000000000000000000000000000000000000008152f35b3461014b57604036600319011261014b5761029d60043561027d610a52565b90806000526001602052610298600160406000200154610a7e565b610b24565b005b3461014b57602036600319011261014b576001600160a01b036102c0610a68565b1660005260056020526020604060002054604051908152f35b3461014b57600036600319011261014b576020600354604051908152f35b3461014b57600036600319011261014b57602060405160008152f35b3461014b57604036600319011261014b5761032c610a52565b600435600052600160205260406000209060018060a01b0316600052602052602060ff604060002054166040519015158152f35b3461014b57604036600319011261014b573360009081527f50efbde2d46c37e9785f1791697f77e94bb7b701e19f1930a668820722d3769460209081526040909120546004359190602435907fa49807205ce4d355092ef5a8a18f56e8913cf4a201fbe287825b095693c217759060ff161561050657506002546104f45782156104e25780156104d0576040516370a0823160e01b815230600482015282816024817f00000000000000000000000000000000000000000000000000000000000000006001600160a01b03165afa80156104c4578291600091610493575b5010610481577fc7ce8037cbac8a577b7d8edd9340b4dbb1e691f2eb699b97f5c7576b0e9ede0491604091846002554260035580600455825191428352820152a2005b6040516314ecd6c760e01b8152600490fd5b809250848092503d83116104bd575b6104ac8183610b9b565b8101031261014b578190518561043e565b503d6104a2565b6040513d6000823e3d90fd5b60405163ba0d87b560e01b8152600490fd5b6040516309bde33960e01b8152600490fd5b60405163b466ddbf60e01b8152600490fd5b6044906040519063e2517d3f60e01b82523360048301526024820152fd5b3461014b57600036600319011261014b5760206040517fa49807205ce4d355092ef5a8a18f56e8913cf4a201fbe287825b095693c217758152f35b3461014b57604036600319011261014b57602061058661057d610a68565b60243590610cd5565b604051908152f35b3461014b57600036600319011261014b576020600454604051908152f35b3461014b57604036600319011261014b576105c5610a52565b336001600160a01b038216036105e15761029d90600435610b24565b60405163334bd91960e11b8152600490fd5b3461014b57604036600319011261014b5767ffffffffffffffff6024351161014b5736602360243501121561014b5767ffffffffffffffff602435600401351161014b576005366024803560040135831b813501011161014b576002600054146108eb57600260005560025480156108d9576040513060601b60208201524660348201527f000000000000000000000000000000000000000000000000000000000000000060548201523360601b60748201526004356088820152608881528060c081011067ffffffffffffffff60c0830111176108a15760c08101604052805160208201206106f1602060243560040135861b0160c08401610b9b565b60248035600481013560c08501520160e083015b6024803560040135871b8135010182106108c9575050906000915b60c08201518310156107845782851b820160e0015190818110156107735760005260205260406000205b91600019811461075d5760010191610720565b634e487b7160e01b600052601160045260246000fd5b90600052602052604060002061074a565b915050036104e257610797600435610bea565b3360005281602052604060002054808211156108b7576107b79082610bbd565b913360005260205260406000205560018060a01b037f0000000000000000000000000000000000000000000000000000000000000000166040516020810163a9059cbb60e01b815233602483015283604483015260448252608082019082821067ffffffffffffffff8311176108a157602092600092604052519082855af1156104c4576000513d6108985750803b155b61088057506040519081527fd8138f8a3f377c5259ca548e70e4c2de94f129f5a11036a15b69513cba2b426a60203392a26001600055005b60249060405190635274afe760e01b82526004820152fd5b60011415610848565b634e487b7160e01b600052604160045260246000fd5b6040516312d37ee560e31b8152600490fd5b8135815260209182019101610705565b604051631c8b625960e01b8152600490fd5b604051633ee5aeb560e01b8152600490fd5b3461014b57604036600319011261014b5761029d60043561091c610a52565b90806000526001602052610937600160406000200154610a7e565b610aa4565b3461014b57600036600319011261014b576020600254604051908152f35b3461014b57602036600319011261014b5760043560005260016020526020600160406000200154604051908152f35b3461014b57600036600319011261014b5760206040517f00000000000000000000000000000000000000000000000000000000000000008152f35b3461014b57600036600319011261014b5760206040517f00000000000000000000000000000000000000000000000000000000000000008152f35b3461014b57602036600319011261014b576004359063ffffffff60e01b821680920361014b57602091637965db0b60e01b8114908115610a41575b5015158152f35b6301ffc9a760e01b14905083610a3a565b602435906001600160a01b038216820361014b57565b600435906001600160a01b038216820361014b57565b80600052600160205260406000203360005260205260ff60406000205416156105065750565b906000918083526001602052604083209160018060a01b03169182845260205260ff60408420541615600014610b1f5780835260016020526040832082845260205260408320600160ff198254161790557f2f8788117e7eff1d82e926ec794901d17c78024a50270940304540a733656f0d339380a4600190565b505090565b906000918083526001602052604083209160018060a01b03169182845260205260ff604084205416600014610b1f578083526001602052604083208284526020526040832060ff1981541690557ff6391f5c32d9c69d2a47ea670b442974b53935d1edc7fd64eb21e047a839171b339380a4600190565b90601f8019910116810190811067ffffffffffffffff8211176108a157604052565b9190820391821161075d57565b8181029291811591840414171561075d57565b9190820180921161075d57565b612710610c177f000000000000000000000000000000000000000000000000000000000000000083610bca565b04610c456003547f000000000000000000000000000000000000000000000000000000000000000090610bdd565b804210610ccf577f000000000000000000000000000000000000000000000000000000000000000092610c788483610bdd565b421015610cc85790610c97610c9084610c9d94610bbd565b9142610bbd565b90610bca565b918015610cb257610caf920490610bdd565b90565b634e487b7160e01b600052601260045260246000fd5b9250505090565b50905090565b9060025415610d1557610ce790610bea565b6001600160a01b03909116600090815260056020526040812054909181811115610b1f57610caf9250610bbd565b505060009056fea26469706673582212202b7d62de087feda89734d2950df2a6200d1e4e785d8e21b55fd762b89169200b64736f6c634300081400332f8788117e7eff1d82e926ec794901d17c78024a50270940304540a733656f0d6101e034620002df57601f62001db738819003918201601f19168301916001600160401b03831184841017620002a55780849261018094604052833981010312620002df576200004f81620002e4565b906200005e60208201620002e4565b916040820151926060830151608084015160a085015160c08601519060e0870151926200008f6101008901620002e4565b946200009f6101208a01620002e4565b99620000be610160620000b66101408d01620002e4565b9b01620002e4565b976001600055818310620002cd5785871115620002cd576001600160a01b03881615620002bb576001600160a01b038c1615620002bb576001600160a01b038b1615620002bb57620001529960805260a05260c05260e05261010052610120526101405261016052610180526101a09384526101c092835260ff19600754166007556200014b81620002f9565b506200037a565b50604051608081016001600160401b03811182821017620002a557604052603260606101f49283815260fa602082015260c86040820152015260035560fa60045560c860055560326006556040519061197992836200041e8439608051838181610bc00152610f34015260a0518381816102f8015281816109d201528181610d620152610f95015260c051838181610405015281816106e8015281816108120152610e95015260e0518381816101c701528181610837015281816109a201526118530152610100518381816104a5015261094901526101205183818161072301526109700152610140518381816104ff015281816107b80152818161085d015261176201526101605183818161088301528181610d2a015261180f015261018051838181610b5801528181610fc701526110ec0152518281816105dd0152610f0d0152518181816106210152610edf0152f35b634e487b7160e01b600052604160045260246000fd5b60405163e6c4247b60e01b8152600490fd5b6040516307a92f1960e51b8152600490fd5b600080fd5b51906001600160a01b0382168203620002df57565b6001600160a01b031660008181527fac33ff75c19e70fe83507db0d683fd3465c996598dc972688b7ace676c89077b602052604081205490919060ff16620003765781805260026020526040822081835260205260408220600160ff19825416179055339160008051602062001d978339815191528180a4600190565b5090565b6001600160a01b031660008181527fe5ebfa64fca8d502a8e50c1edffd2c31ef4dad5b396e65d9f397fb028f74abc560205260408120549091907fa49807205ce4d355092ef5a8a18f56e8913cf4a201fbe287825b095693c217759060ff16620004185780835260026020526040832082845260205260408320600160ff1982541617905560008051602062001d97833981519152339380a4600190565b50509056fe608060408181526004918236101561001657600080fd5b600092833560e01c91826301ffc9a71461135d575081630b4f3f3d146112d357816319cef5bc14610e485781631e5eb1d014610e0f578163200d2ed214610de6578163248a9ca314610dbb5781632f2ff15d14610d915781633013ce2914610d4d5781633197cbb614610d1257816336568abe14610ccc5781633f4ba83a14610c6257816342e94c9014610c2a5781634a3b68cc14610bef5781634b60ce7714610bab5781635c975abb14610b875781636052970c14610b4357816360b0b0f0146108e957816375b238fc146108ae578163767fa723146107db57816378e97925146107a05781638456cb59146107465781638d3d65761461070b578163906a26e0146106d057816391d148541461068a578163a217fddf1461066f578163a4317ef414610650578163a4475ce41461060c578163a5917baf146105c8578163a9eddf99146104c8578163aaffadf31461048d578163b30ca2da146103c8578163b5545a3c1461029a578163c5c4744c1461027b578163cd78d92c14610232578163d547741f146101ee575063fb86a404146101b157600080fd5b346101ea57816003193601126101ea57602090517f00000000000000000000000000000000000000000000000000000000000000008152f35b5080fd5b9190503461022e578060031936011261022e5761022a91356102256001610213611422565b938387526002602052862001546114c8565b61156e565b5080f35b8280fd5b828434610278576020366003190112610278576001600160a01b0380610256611438565b168252600a602052828083205492600b60205220541682519182526020820152f35b80fd5b5050346101ea57816003193601126101ea576020906008549051908152f35b9190503461022e578260031936011261022e576102b5611735565b60ff6007541660068110156103b5578281141590816103a9575b5061039c57338352600a6020528083205491821561038e57338452600a602052818420849055827f00000000000000000000000000000000000000000000000000000000000000006001600160a01b03168061037d57508480808093335af161033661189a565b501561036f57505b519081527fd7dee2702d63ad89917b6a4da9981c90c4d24f8c2bdfd64c604ecae57d8d065160203392a26001815580f35b905163b9da5d2b60e01b8152fd5b610389925033906118da565b61033e565b9051631971fbf360e21b8152fd5b51630b4d698160e01b8152fd5b600591501415386102cf565b634e487b7160e01b845260218352602484fd5b8383346101ea576103d8366113b0565b916103e161144e565b6103e9611758565b60075460ff8116600681101561047a5760020361046a576008547f0000000000000000000000000000000000000000000000000000000000000000111561046a57907f5b55eccea968a9bf1df9a6702e20475ac67bb0d7f402f51701eef38e619368fe94956104649260ff191617600755519283928361191b565b0390a180f35b81516307a92f1960e51b81528690fd5b634e487b7160e01b865260218752602486fd5b5050346101ea57816003193601126101ea57602090517f00000000000000000000000000000000000000000000000000000000000000008152f35b90503461022e57608036600319011261022e576104e361144e565b60ff6007541660068110156105b5576105a8576008546105a8577f00000000000000000000000000000000000000000000000000000000000000004210156105a8578035916044359060243561053983826115e5565b9361054760643580966115e5565b860361059a579181869492608096947f0ad166d8be1925ee44c5a77600b8a5f7e58cbe711c0dbd99624014a81b8350ba98600355558260055583600655815194855260208501528301526060820152a180f35b8251632b00a33d60e11b8152fd5b905162b5d7e160e81b8152fd5b634e487b7160e01b845260218252602484fd5b5050346101ea57816003193601126101ea57517f00000000000000000000000000000000000000000000000000000000000000006001600160a01b03168152602090f35b5050346101ea57816003193601126101ea57517f00000000000000000000000000000000000000000000000000000000000000006001600160a01b03168152602090f35b5050346101ea57816003193601126101ea576020906009549051908152f35b5050346101ea57816003193601126101ea5751908152602090f35b90503461022e578160031936011261022e57816020936106a8611422565b9235815260028552209060018060a01b0316600052825260ff81600020541690519015158152f35b5050346101ea57816003193601126101ea57602090517f00000000000000000000000000000000000000000000000000000000000000008152f35b5050346101ea57816003193601126101ea57602090517f00000000000000000000000000000000000000000000000000000000000000008152f35b5050346101ea57816003193601126101ea5760207f62e78cea01bee320cd4e420270b5ea74000d11b0c9f74754ebdbfc544b05a2589161078461144e565b61078c611717565b600160ff198154161760015551338152a180f35b5050346101ea57816003193601126101ea57602090517f00000000000000000000000000000000000000000000000000000000000000008152f35b5050346101ea57816003193601126101ea5760e09060ff6007541690600854906009549161080b825180956113ff565b60208401527f0000000000000000000000000000000000000000000000000000000000000000908301527f000000000000000000000000000000000000000000000000000000000000000060608301527f000000000000000000000000000000000000000000000000000000000000000060808301527f000000000000000000000000000000000000000000000000000000000000000060a083015260c0820152f35b5050346101ea57816003193601126101ea57602090517fa49807205ce4d355092ef5a8a18f56e8913cf4a201fbe287825b095693c217758152f35b90508160031936011261022e57803590610901611422565b9061090a611735565b610912611717565b61091a611758565b60ff600754166006811015610b3057600103610b2257338552602091600a835261094784868820546115e5565b7f00000000000000000000000000000000000000000000000000000000000000008110610b12577f000000000000000000000000000000000000000000000000000000000000000010610b03576109a0846008546115e5565b7f000000000000000000000000000000000000000000000000000000000000000010610af4576001600160a01b0391847f0000000000000000000000000000000000000000000000000000000000000000841680610aba57503403610aac575090807fec470969f3350ca5a15f0d85053f8763ffd0ee39c7b74fcdc5af7862718e292a93925b338852600a8452868820610a3b8782546115e5565b9055610a49866008546115e5565b6008551680151580610a98575b610a77575b50338652600b8252848620541693519283523392a36001815580f35b338752600b835285872080546001600160a01b031916909117905538610a5b565b50338752600b835281868820541615610a56565b85516307a92f1960e51b8152fd5b8493917fec470969f3350ca5a15f0d85053f8763ffd0ee39c7b74fcdc5af7862718e292a96959350610aef9130903390611654565b610a26565b508351631c4af3c960e11b8152fd5b5083516374368fb960e11b8152fd5b855163860b82a960e01b81528390fd5b83516307a92f1960e51b8152fd5b634e487b7160e01b865260218252602486fd5b5050346101ea57816003193601126101ea57517f00000000000000000000000000000000000000000000000000000000000000006001600160a01b03168152602090f35b5050346101ea57816003193601126101ea5760209060ff6001541690519015158152f35b5050346101ea57816003193601126101ea57517f00000000000000000000000000000000000000000000000000000000000000006001600160a01b03168152602090f35b5050346101ea5760203660031901126101ea576020916001600160a01b0390829082610c19611438565b168152600b85522054169051908152f35b5050346101ea5760203660031901126101ea5760209181906001600160a01b03610c52611438565b168152600a845220549051908152f35b90503461022e578260031936011261022e57610c7c61144e565b6001549060ff821615610cbe575060ff1916600155513381527f5db9ee0a495bf2e6ff9c91a7834c1ba4fdd244a5e8aa4e537bd38aeae4b073aa90602090a180f35b8251638dfc202b60e01b8152fd5b8383346101ea57806003193601126101ea57610ce6611422565b90336001600160a01b03831603610d03575061022a91923561156e565b5163334bd91960e11b81528390fd5b5050346101ea57816003193601126101ea57602090517f00000000000000000000000000000000000000000000000000000000000000008152f35b5050346101ea57816003193601126101ea57517f00000000000000000000000000000000000000000000000000000000000000006001600160a01b03168152602090f35b9190503461022e578060031936011261022e5761022a9135610db66001610213611422565b6114ee565b90503461022e57602036600319011261022e5781602093600192358152600285522001549051908152f35b5050346101ea57816003193601126101ea57602090610e0d60ff60075416915180926113ff565bf35b9190503461022e578260031936011261022e57608092506003549154906005549060065492815194855260208501528301526060820152f35b9190503461022e578060031936011261022e57602491823592610e6961144e565b610e71611735565b610e79611758565b60ff6007541660068110156112c1576002036112b257600854907f000000000000000000000000000000000000000000000000000000000000000082106112a25760035480830290838204148315171561129057612710900494858303928311611290577f0000000000000000000000000000000000000000000000000000000000000000916001600160a01b03918890837f0000000000000000000000000000000000000000000000000000000000000000610f5a8382897f00000000000000000000000000000000000000000000000000000000000000008616611654565b16803b1561022e57604483928a519485938492637c382d0b60e01b84528c358d850152888401525af180156112865761126d575b50879392917f000000000000000000000000000000000000000000000000000000000000000080821692831592919083156110e25750507f000000000000000000000000000000000000000000000000000000000000000016803b156110de57858991888a518094819363990087b760e01b83525af180156110d4579086916110bc575b50505b15611083575082809281925af161102a61189a565b501561036f57507ff3e2f1d90bd58f6807b6468783c27fdc68307b057882b3ca4eb0f3bb21167899916060915b42600955600360ff19600754161760075560085491815192835260208301524290820152a16001815580f35b7ff3e2f1d90bd58f6807b6468783c27fdc68307b057882b3ca4eb0f3bb211678999694506060959350906110b792916118da565b611057565b6110c590611608565b6110d0578438611012565b8480fd5b88513d88823e3d90fd5b8580fd5b8a9998979a9291927f00000000000000000000000000000000000000000000000000000000000000009160208b519e8f828101906111558161114763095ea7b360e01b988986528a89840160209093929193604081019460018060a01b031681520152565b03601f198101835282611632565b5190828b5af18d513d8f8361124f575b505050156111e2575b50508a9b50999697989916803b156111de57885163398da91160e01b81526001600160a01b03909216828901908152602081018b90528791839182908490829060400103925af180156110d4579086916111ca575b5050611015565b6111d390611608565b6110d05784386111c3565b8680fd5b8a51916020830152838316818301528c604483015260448252608082019082821067ffffffffffffffff83111761123c57509c61122a611230928e9f8d9e9f9c9d52886116af565b866116af565b38809b9a99989b61116e565b634e487b7160e01b600090815260418c52fd5b509091506112655750863b15155b38808f611165565b60011461125d565b61127c90989194939298611608565b9690919238610f8e565b87513d8b823e3d90fd5b50634e487b7160e01b86526011835285fd5b83516346c21a5560e01b81528390fd5b5090516307a92f1960e51b8152fd5b50634e487b7160e01b85526021825284fd5b839150346101ea576112e4366113b0565b916112ed61144e565b6112f5611758565b6007549060ff82166006811015610b30578015159081611351575b50610aac57507f2ac842f90dab3279148f7e55ac91d911f75c1c300a202a5250e05400b15fa156939460056104649260ff191617600755519283928361191b565b60019150141587611310565b84913461022e57602036600319011261022e573563ffffffff60e01b811680910361022e5760209250637965db0b60e01b811490811561139f575b5015158152f35b6301ffc9a760e01b14905083611398565b9060206003198301126113fa5760043567ffffffffffffffff928382116113fa57806023830112156113fa5781600401359384116113fa57602484830101116113fa576024019190565b600080fd5b90600682101561140c5752565b634e487b7160e01b600052602160045260246000fd5b602435906001600160a01b03821682036113fa57565b600435906001600160a01b03821682036113fa57565b3360009081527fe5ebfa64fca8d502a8e50c1edffd2c31ef4dad5b396e65d9f397fb028f74abc560205260409020547fa49807205ce4d355092ef5a8a18f56e8913cf4a201fbe287825b095693c217759060ff16156114aa5750565b6044906040519063e2517d3f60e01b82523360048301526024820152fd5b80600052600260205260406000203360005260205260ff60406000205416156114aa5750565b906000918083526002602052604083209160018060a01b03169182845260205260ff604084205416156000146115695780835260026020526040832082845260205260408320600160ff198254161790557f2f8788117e7eff1d82e926ec794901d17c78024a50270940304540a733656f0d339380a4600190565b505090565b906000918083526002602052604083209160018060a01b03169182845260205260ff604084205416600014611569578083526002602052604083208284526020526040832060ff1981541690557ff6391f5c32d9c69d2a47ea670b442974b53935d1edc7fd64eb21e047a839171b339380a4600190565b919082018092116115f257565b634e487b7160e01b600052601160045260246000fd5b67ffffffffffffffff811161161c57604052565b634e487b7160e01b600052604160045260246000fd5b90601f8019910116810190811067ffffffffffffffff82111761161c57604052565b6040516323b872dd60e01b60208201526001600160a01b03928316602482015292909116604483015260648083019390935291815260a081019181831067ffffffffffffffff84111761161c576116ad926040526116af565b565b906000602091828151910182855af11561170b576000513d61170257506001600160a01b0381163b155b6116e05750565b604051635274afe760e01b81526001600160a01b039091166004820152602490fd5b600114156116d9565b6040513d6000823e3d90fd5b60ff6001541661172357565b60405163d93c066560e01b8152600490fd5b600260005414611746576002600055565b604051633ee5aeb560e01b8152600490fd5b60075460ff8116907f000000000000000000000000000000000000000000000000000000000000000042101580611889575b611879575b5060075460ff8116600681101561140c5760011461180d575b5060ff60075416600681101561140c57600682101561140c578082036117cc575050565b7f0d643a1384921de4b8ad16df0a695f1e75fcfe3bcac27f9c5c8cee46458723829161180a604092611800845180946113ff565b60208301906113ff565ba1565b7f0000000000000000000000000000000000000000000000000000000000000000421080159061184d575b156117a85760ff1916600217600755386117a8565b506008547f00000000000000000000000000000000000000000000000000000000000000001115611838565b60ff19166001176007553861178f565b50600682101561140c57811561178a565b3d156118d5573d9067ffffffffffffffff821161161c57604051916118c9601f8201601f191660200184611632565b82523d6000602084013e565b606090565b60405163a9059cbb60e01b60208201526001600160a01b039290921660248301526044808301939093529181526116ad91611916606483611632565b6116af565b90918060409360208452816020850152848401376000828201840152601f01601f191601019056fea26469706673582212203aa58898588f84cfc41d7f5fa7f09efca595dc1ec89fa6fd7572c74f71ea5ec664736f6c634300081400332f8788117e7eff1d82e926ec794901d17c78024a50270940304540a733656f0da26469706673582212201af082c7a790a82c0a9524d1c88db61a0a64f0447331076bd96ac9dbdd72e16564736f6c634300081400332f8788117e7eff1d82e926ec794901d17c78024a50270940304540a733656f0d","opcodes":"PUSH1 0xC0 CALLVALUE PUSH3 0xE2 JUMPI PUSH1 0x1F PUSH3 0x3EF0 CODESIZE DUP2 SWAP1 SUB SWAP2 DUP3 ADD PUSH1 0x1F NOT AND DUP4 ADD SWAP2 PUSH1 0x1 PUSH1 0x1 PUSH1 0x40 SHL SUB DUP4 GT DUP5 DUP5 LT OR PUSH3 0xE7 JUMPI DUP1 DUP5 SWAP3 PUSH1 0x40 SWAP5 DUP6 MSTORE DUP4 CODECOPY DUP2 ADD SUB SLT PUSH3 0xE2 JUMPI PUSH3 0x5A PUSH1 0x20 PUSH3 0x52 DUP4 PUSH3 0xFD JUMP JUMPDEST SWAP3 ADD PUSH3 0xFD JUMP JUMPDEST SWAP1 PUSH1 0x1 PUSH1 0x1 PUSH1 0xA0 SHL SUB DUP1 DUP3 AND ISZERO PUSH3 0xD0 JUMPI DUP3 AND ISZERO PUSH3 0xD0 JUMPI PUSH1 0x80 MSTORE PUSH1 0xA0 MSTORE PUSH3 0x85 CALLER PUSH3 0x112 JUMP JUMPDEST POP PUSH3 0x91 CALLER PUSH3 0x192 JUMP JUMPDEST POP PUSH1 0x40 MLOAD PUSH2 0x3C9B SWAP1 DUP2 PUSH3 0x235 DUP3 CODECOPY PUSH1 0x80 MLOAD DUP2 DUP2 DUP2 PUSH2 0x4A0 ADD MSTORE PUSH2 0xAF3 ADD MSTORE PUSH1 0xA0 MLOAD DUP2 DUP2 DUP2 PUSH2 0x129 ADD MSTORE DUP2 DUP2 PUSH2 0x3BB ADD MSTORE DUP2 DUP2 PUSH2 0x4DC ADD MSTORE PUSH2 0x6B4 ADD MSTORE RETURN JUMPDEST PUSH1 0x40 MLOAD PUSH4 0xD92E233D PUSH1 0xE0 SHL DUP2 MSTORE PUSH1 0x4 SWAP1 REVERT JUMPDEST PUSH1 0x0 DUP1 REVERT JUMPDEST PUSH4 0x4E487B71 PUSH1 0xE0 SHL PUSH1 0x0 MSTORE PUSH1 0x41 PUSH1 0x4 MSTORE PUSH1 0x24 PUSH1 0x0 REVERT JUMPDEST MLOAD SWAP1 PUSH1 0x1 PUSH1 0x1 PUSH1 0xA0 SHL SUB DUP3 AND DUP3 SUB PUSH3 0xE2 JUMPI JUMP JUMPDEST PUSH1 0x1 PUSH1 0x1 PUSH1 0xA0 SHL SUB AND PUSH1 0x0 DUP2 DUP2 MSTORE PUSH32 0xAD3228B676F7D3CD4284A5443F17F1962B36E491B30A40B2405849E597BA5FB5 PUSH1 0x20 MSTORE PUSH1 0x40 DUP2 KECCAK256 SLOAD SWAP1 SWAP2 SWAP1 PUSH1 0xFF AND PUSH3 0x18E JUMPI DUP2 DUP1 MSTORE DUP2 PUSH1 0x20 MSTORE PUSH1 0x40 DUP3 KECCAK256 DUP2 DUP4 MSTORE PUSH1 0x20 MSTORE PUSH1 0x40 DUP3 KECCAK256 PUSH1 0x1 PUSH1 0xFF NOT DUP3 SLOAD AND OR SWAP1 SSTORE CALLER SWAP2 PUSH1 0x0 DUP1 MLOAD PUSH1 0x20 PUSH3 0x3ED0 DUP4 CODECOPY DUP2 MLOAD SWAP2 MSTORE DUP2 DUP1 LOG4 PUSH1 0x1 SWAP1 JUMP JUMPDEST POP SWAP1 JUMP JUMPDEST PUSH1 0x1 PUSH1 0x1 PUSH1 0xA0 SHL SUB AND PUSH1 0x0 DUP2 DUP2 MSTORE PUSH32 0x40D6054E7C1E32ABF36E71C717B2201C6FB50EE4639813CE060D4F8FFBB78BDD PUSH1 0x20 MSTORE PUSH1 0x40 DUP2 KECCAK256 SLOAD SWAP1 SWAP2 SWAP1 PUSH32 0xBD5D72AC35AE1E83AA0625C57EDDDA63FBB064A87FCA99DFDD7CE027384AE282 SWAP1 PUSH1 0xFF AND PUSH3 0x22F JUMPI DUP1 DUP4 MSTORE DUP3 PUSH1 0x20 MSTORE PUSH1 0x40 DUP4 KECCAK256 DUP3 DUP5 MSTORE PUSH1 0x20 MSTORE PUSH1 0x40 DUP4 KECCAK256 PUSH1 0x1 PUSH1 0xFF NOT DUP3 SLOAD AND OR SWAP1 SSTORE PUSH1 0x0 DUP1 MLOAD PUSH1 0x20 PUSH3 0x3ED0 DUP4 CODECOPY DUP2 MLOAD SWAP2 MSTORE CALLER SWAP4 DUP1 LOG4 PUSH1 0x1 SWAP1 JUMP JUMPDEST POP POP SWAP1 JUMP INVALID PUSH1 0x80 DUP1 PUSH1 0x40 MSTORE PUSH1 0x4 CALLDATASIZE LT ISZERO PUSH3 0x14 JUMPI PUSH1 0x0 DUP1 REVERT JUMPDEST PUSH1 0x0 SWAP1 DUP2 CALLDATALOAD PUSH1 0xE0 SHR SWAP1 DUP2 PUSH4 0x1FFC9A7 EQ PUSH3 0xCC4 JUMPI POP DUP1 PUSH4 0x76E7FD3 EQ PUSH3 0xB22 JUMPI DUP1 PUSH4 0x248A9CA3 EQ PUSH3 0xC96 JUMPI DUP1 PUSH4 0x2F2FF15D EQ PUSH3 0xC51 JUMPI DUP1 PUSH4 0x3360CF5E EQ PUSH3 0xC14 JUMPI DUP1 PUSH4 0x36568ABE EQ PUSH3 0xBC5 JUMPI DUP1 PUSH4 0x4732F00E EQ PUSH3 0xB62 JUMPI DUP1 PUSH4 0x5CCBF671 EQ PUSH3 0xB22 JUMPI DUP1 PUSH4 0x6052970C EQ PUSH3 0xADB JUMPI DUP1 PUSH4 0x8C65C81F EQ PUSH3 0xAA6 JUMPI DUP1 PUSH4 0x91D14854 EQ PUSH3 0xA5A JUMPI DUP1 PUSH4 0xA217FDDF EQ PUSH3 0xA3C JUMPI DUP1 PUSH4 0xB1012EC9 EQ PUSH3 0x939 JUMPI DUP1 PUSH4 0xBDA75E6D EQ PUSH3 0x976 JUMPI DUP1 PUSH4 0xCA807E68 EQ PUSH3 0x939 JUMPI DUP1 PUSH4 0xCDE27A35 EQ PUSH3 0x919 JUMPI DUP1 PUSH4 0xD547741F EQ PUSH3 0x8D0 JUMPI DUP1 PUSH4 0xE82F1C0A EQ PUSH3 0x893 JUMPI DUP1 PUSH4 0xEA1B61BA EQ PUSH3 0x15B JUMPI PUSH4 0xF6A4AD65 EQ PUSH3 0x112 JUMPI PUSH1 0x0 DUP1 REVERT JUMPDEST CALLVALUE PUSH3 0x158 JUMPI DUP1 PUSH1 0x3 NOT CALLDATASIZE ADD SLT PUSH3 0x158 JUMPI PUSH1 0x40 MLOAD PUSH32 0x0 PUSH1 0x1 PUSH1 0x1 PUSH1 0xA0 SHL SUB AND DUP2 MSTORE PUSH1 0x20 SWAP1 RETURN JUMPDEST DUP1 REVERT JUMPDEST POP CALLVALUE PUSH3 0x158 JUMPI CALLDATASIZE PUSH1 0x3 NOT ADD PUSH2 0x200 DUP2 SLT PUSH3 0x88F JUMPI PUSH2 0x120 SGT PUSH3 0x158 JUMPI PUSH1 0x60 CALLDATASIZE PUSH2 0x123 NOT ADD SLT PUSH3 0x158 JUMPI PUSH1 0x60 CALLDATASIZE PUSH2 0x183 NOT ADD SLT PUSH3 0x158 JUMPI PUSH32 0xBD5D72AC35AE1E83AA0625C57EDDDA63FBB064A87FCA99DFDD7CE027384AE282 DUP1 DUP3 MSTORE DUP2 PUSH1 0x20 MSTORE PUSH1 0x40 DUP3 KECCAK256 CALLER DUP4 MSTORE PUSH1 0x20 MSTORE PUSH1 0xFF PUSH1 0x40 DUP4 KECCAK256 SLOAD AND ISZERO PUSH3 0x871 JUMPI POP PUSH1 0x64 CALLDATALOAD PUSH1 0x44 CALLDATALOAD LT ISZERO PUSH3 0x85F JUMPI PUSH1 0x44 CALLDATALOAD ISZERO PUSH3 0x85F JUMPI PUSH1 0xE4 CALLDATALOAD PUSH1 0xC4 CALLDATALOAD LT ISZERO PUSH3 0x84D JUMPI TIMESTAMP PUSH1 0xC4 CALLDATALOAD GT ISZERO PUSH3 0x84D JUMPI PUSH1 0xA4 CALLDATALOAD PUSH1 0x84 CALLDATALOAD GT PUSH3 0x83B JUMPI PUSH1 0x84 CALLDATALOAD ISZERO PUSH3 0x83B JUMPI PUSH1 0xC PUSH2 0x184 CALLDATALOAD LT PUSH3 0x829 JUMPI PUSH2 0x1388 PUSH2 0x1C4 CALLDATALOAD LT DUP1 ISZERO PUSH3 0x81A JUMPI JUMPDEST PUSH3 0x808 JUMPI PUSH1 0x1 PUSH1 0x1 PUSH1 0xA0 SHL SUB PUSH3 0x24D PUSH3 0xE68 JUMP JUMPDEST AND ISZERO PUSH3 0x7F6 JUMPI PUSH1 0x1 PUSH1 0x1 PUSH1 0xA0 SHL SUB PUSH3 0x266 PUSH3 0xE7F JUMP JUMPDEST AND ISZERO PUSH3 0x7F6 JUMPI PUSH1 0x1 SLOAD SWAP1 PUSH3 0x27B PUSH3 0xE7F JUMP JUMPDEST PUSH3 0x285 PUSH3 0xE68 JUMP JUMPDEST PUSH1 0x40 MLOAD SWAP4 PUSH1 0x20 DUP6 ADD MSTORE TIMESTAMP PUSH1 0x40 DUP6 ADD MSTORE PUSH12 0xFFFFFFFFFFFFFFFFFFFFFFFF NOT DUP1 SWAP3 PUSH1 0x60 SHL AND PUSH1 0x60 DUP6 ADD MSTORE PUSH1 0x60 SHL AND PUSH1 0x74 DUP4 ADD MSTORE PUSH1 0x68 DUP3 MSTORE DUP2 PUSH1 0xA0 DUP2 ADD LT PUSH8 0xFFFFFFFFFFFFFFFF PUSH1 0xA0 DUP5 ADD GT OR PUSH3 0x7E2 JUMPI PUSH1 0xA0 DUP3 ADD PUSH1 0x40 MSTORE DUP2 MLOAD PUSH1 0x20 DUP4 ADD KECCAK256 SWAP2 PUSH3 0x2ED PUSH3 0xE68 JUMP JUMPDEST PUSH1 0xA0 DUP3 ADD PUSH1 0xA0 PUSH2 0xFCF DUP5 ADD ADD LT PUSH8 0xFFFFFFFFFFFFFFFF PUSH1 0xA0 PUSH2 0xFCF DUP6 ADD ADD GT OR PUSH3 0x7CE JUMPI PUSH2 0xFCF PUSH3 0xEE0 PUSH1 0xA0 DUP5 ADD CODECOPY PUSH1 0x1 PUSH1 0x1 PUSH1 0xA0 SHL SUB AND PUSH2 0xFCF DUP3 ADD PUSH1 0xA0 DUP2 DUP2 ADD SWAP3 SWAP1 SWAP3 MSTORE PUSH2 0x124 CALLDATALOAD PUSH1 0xC0 DUP1 DUP4 ADD SWAP2 SWAP1 SWAP2 MSTORE PUSH2 0x144 CALLDATALOAD PUSH1 0xE0 DUP4 ADD MSTORE PUSH2 0x164 CALLDATALOAD PUSH2 0x100 DUP4 ADD MSTORE PUSH2 0x120 DUP3 ADD DUP7 SWAP1 MSTORE ADDRESS PUSH2 0x140 DUP4 ADD MSTORE SWAP1 DUP4 SWAP1 SUB ADD SWAP2 ADD DUP3 CREATE DUP1 ISZERO PUSH3 0x7C1 JUMPI PUSH1 0x1 PUSH1 0x1 PUSH1 0xA0 SHL SUB AND SWAP1 DUP2 EXTCODESIZE ISZERO PUSH3 0x158 JUMPI PUSH1 0x40 MLOAD PUSH4 0x2F2FF15D PUSH1 0xE0 SHL DUP2 MSTORE PUSH32 0xA49807205CE4D355092EF5A8A18F56E8913CF4A201FBE287825B095693C21775 PUSH1 0x4 DUP3 ADD MSTORE PUSH32 0x0 PUSH1 0x1 PUSH1 0x1 PUSH1 0xA0 SHL SUB AND PUSH1 0x24 DUP3 ADD MSTORE DUP2 DUP2 PUSH1 0x44 DUP2 DUP4 DUP8 GAS CALL DUP1 ISZERO PUSH3 0x7B6 JUMPI PUSH3 0x7A4 JUMPI JUMPDEST POP SWAP1 PUSH3 0x40A PUSH3 0xE68 JUMP JUMPDEST PUSH1 0x24 CALLDATALOAD SWAP1 PUSH1 0x1 PUSH1 0x1 PUSH1 0xA0 SHL SUB DUP3 AND DUP3 SUB PUSH3 0x79F JUMPI PUSH3 0x429 PUSH3 0xE7F JUMP JUMPDEST SWAP2 PUSH1 0x40 MLOAD SWAP2 DUP3 PUSH2 0x1DB7 DUP2 ADD LT PUSH8 0xFFFFFFFFFFFFFFFF PUSH2 0x1DB7 DUP6 ADD GT OR PUSH3 0x78B JUMPI PUSH2 0x1DB7 PUSH3 0x1EAF DUP5 CODECOPY PUSH1 0x1 PUSH1 0x1 PUSH1 0xA0 SHL SUB SWAP1 DUP2 AND PUSH2 0x1DB7 DUP5 ADD SWAP1 DUP2 MSTORE SWAP2 DUP2 AND PUSH1 0x20 DUP4 ADD MSTORE PUSH1 0x44 CALLDATALOAD PUSH1 0x40 DUP4 ADD MSTORE PUSH1 0x64 CALLDATALOAD PUSH1 0x60 DUP4 ADD MSTORE PUSH1 0x84 CALLDATALOAD PUSH1 0x80 DUP4 ADD MSTORE PUSH1 0xA4 CALLDATALOAD PUSH1 0xA0 DUP4 ADD MSTORE PUSH1 0xC4 CALLDATALOAD PUSH1 0xC0 DUP4 ADD MSTORE PUSH1 0xE4 CALLDATALOAD PUSH1 0xE0 DUP4 ADD MSTORE PUSH32 0x0 DUP2 AND PUSH2 0x100 DUP4 ADD DUP2 SWAP1 MSTORE PUSH2 0x120 DUP4 ADD DUP7 SWAP1 MSTORE SWAP4 DUP2 AND PUSH2 0x140 DUP4 ADD MSTORE PUSH32 0x0 AND PUSH2 0x160 DUP3 ADD MSTORE DUP2 SWAP1 SUB PUSH2 0x180 ADD SWAP1 DUP5 CREATE DUP1 ISZERO PUSH3 0x780 JUMPI PUSH1 0x1 PUSH1 0x1 PUSH1 0xA0 SHL SUB AND SWAP1 DUP3 EXTCODESIZE ISZERO PUSH3 0x759 JUMPI PUSH1 0x40 MLOAD PUSH4 0x2F2FF15D PUSH1 0xE0 SHL DUP2 MSTORE PUSH32 0xA49807205CE4D355092EF5A8A18F56E8913CF4A201FBE287825B095693C21775 PUSH1 0x4 DUP3 ADD MSTORE PUSH1 0x24 DUP2 ADD DUP4 SWAP1 MSTORE DUP5 DUP2 PUSH1 0x44 DUP2 DUP4 DUP9 GAS CALL DUP1 ISZERO PUSH3 0x775 JUMPI SWAP1 DUP6 SWAP2 PUSH3 0x75D JUMPI JUMPDEST POP POP DUP1 EXTCODESIZE ISZERO PUSH3 0x759 JUMPI DUP4 DUP1 SWAP2 PUSH1 0x24 PUSH1 0x40 MLOAD DUP1 SWAP5 DUP2 SWAP4 PUSH4 0x105FAD9B PUSH1 0xE2 SHL DUP4 MSTORE DUP8 PUSH1 0x4 DUP5 ADD MSTORE GAS CALL DUP1 ISZERO PUSH3 0x74E JUMPI SWAP1 DUP5 SWAP2 PUSH3 0x732 JUMPI JUMPDEST POP POP PUSH1 0x1 SLOAD DUP4 MSTORE PUSH1 0x2 PUSH1 0x20 MSTORE PUSH1 0x40 DUP4 KECCAK256 PUSH12 0xFFFFFFFFFFFFFFFFFFFFFFFF PUSH1 0xA0 SHL SWAP1 DUP3 DUP3 DUP3 SLOAD AND OR SWAP1 SSTORE DUP2 DUP5 MSTORE PUSH1 0x3 PUSH1 0x20 MSTORE DUP3 PUSH1 0x40 DUP6 KECCAK256 SWAP2 DUP3 SLOAD AND OR SWAP1 SSTORE PUSH1 0x4 PUSH1 0x20 MSTORE DUP4 PUSH1 0x40 DUP5 KECCAK256 SSTORE PUSH1 0x5 PUSH1 0x20 MSTORE DUP1 PUSH32 0xDA79E99DC31A6B02A1A6D9E3758C6D0EF34606738CC48A1FF703D6566B040626 PUSH3 0x6AB PUSH2 0x1E4 CALLDATALOAD DUP1 PUSH1 0x40 DUP9 KECCAK256 SSTORE PUSH1 0x6 PUSH1 0x20 MSTORE DUP6 DUP5 PUSH1 0x40 DUP10 KECCAK256 SWAP3 PUSH2 0x184 CALLDATALOAD DUP5 SSTORE PUSH2 0x1A4 CALLDATALOAD SWAP4 DUP5 PUSH1 0x1 DUP3 ADD SSTORE PUSH1 0x2 PUSH2 0x1C4 CALLDATALOAD SWAP2 ADD SSTORE PUSH32 0x42074357C57268478F25EDBB5880A4B5604F55CF132F7C8E21AB8D46A1282969 PUSH1 0x40 PUSH1 0x1 SLOAD SWAP13 DUP14 SWAP4 DUP3 MLOAD SWAP2 DUP3 MSTORE PUSH1 0x20 DUP3 ADD MSTORE LOG4 PUSH1 0x40 DUP1 MLOAD PUSH2 0x184 CALLDATALOAD DUP2 MSTORE PUSH1 0x20 DUP2 ADD SWAP3 SWAP1 SWAP3 MSTORE PUSH2 0x1C4 CALLDATALOAD SWAP1 DUP3 ADD MSTORE SWAP1 DUP2 SWAP1 PUSH1 0x60 DUP3 ADD SWAP1 JUMP JUMPDEST SUB SWAP1 LOG2 PUSH1 0x40 MLOAD SWAP3 PUSH32 0x0 PUSH1 0x1 PUSH1 0x1 PUSH1 0xA0 SHL SUB AND DUP4 PUSH32 0x68761163EDC0E36A9B4D28B0260A8C3D198CF5F21F582D72561BDCB89B3F2907 DUP4 DUP1 LOG3 PUSH1 0x0 NOT DUP6 EQ PUSH3 0x71E JUMPI POP PUSH1 0x1 PUSH1 0x40 SWAP5 ADD PUSH1 0x1 SSTORE DUP3 MSTORE PUSH1 0x20 DUP3 ADD MSTORE RETURN JUMPDEST PUSH4 0x4E487B71 PUSH1 0xE0 SHL DUP2 MSTORE PUSH1 0x11 PUSH1 0x4 MSTORE PUSH1 0x24 SWAP1 REVERT JUMPDEST PUSH3 0x73D SWAP1 PUSH3 0xECA JUMP JUMPDEST PUSH3 0x74A JUMPI DUP3 CODESIZE PUSH3 0x5B0 JUMP JUMPDEST DUP3 DUP1 REVERT JUMPDEST PUSH1 0x40 MLOAD RETURNDATASIZE DUP7 DUP3 RETURNDATACOPY RETURNDATASIZE SWAP1 REVERT JUMPDEST DUP4 DUP1 REVERT JUMPDEST PUSH3 0x768 SWAP1 PUSH3 0xECA JUMP JUMPDEST PUSH3 0x759 JUMPI DUP4 CODESIZE PUSH3 0x578 JUMP JUMPDEST PUSH1 0x40 MLOAD RETURNDATASIZE DUP8 DUP3 RETURNDATACOPY RETURNDATASIZE SWAP1 REVERT JUMPDEST PUSH1 0x40 MLOAD RETURNDATASIZE DUP6 DUP3 RETURNDATACOPY RETURNDATASIZE SWAP1 REVERT JUMPDEST PUSH4 0x4E487B71 PUSH1 0xE0 SHL DUP7 MSTORE PUSH1 0x41 PUSH1 0x4 MSTORE PUSH1 0x24 DUP7 REVERT JUMPDEST PUSH1 0x0 DUP1 REVERT JUMPDEST PUSH3 0x7AF SWAP1 PUSH3 0xECA JUMP JUMPDEST CODESIZE PUSH3 0x3FE JUMP JUMPDEST PUSH1 0x40 MLOAD RETURNDATASIZE DUP5 DUP3 RETURNDATACOPY RETURNDATASIZE SWAP1 REVERT JUMPDEST POP PUSH1 0x40 MLOAD SWAP1 RETURNDATASIZE SWAP1 DUP3 RETURNDATACOPY RETURNDATASIZE SWAP1 REVERT JUMPDEST PUSH4 0x4E487B71 PUSH1 0xE0 SHL DUP4 MSTORE PUSH1 0x41 PUSH1 0x4 MSTORE PUSH1 0x24 DUP4 REVERT JUMPDEST PUSH4 0x4E487B71 PUSH1 0xE0 SHL DUP2 MSTORE PUSH1 0x41 PUSH1 0x4 MSTORE PUSH1 0x24 SWAP1 REVERT JUMPDEST PUSH1 0x40 MLOAD PUSH4 0xD92E233D PUSH1 0xE0 SHL DUP2 MSTORE PUSH1 0x4 SWAP1 REVERT JUMPDEST PUSH1 0x40 MLOAD PUSH4 0x51424F0B PUSH1 0xE1 SHL DUP2 MSTORE PUSH1 0x4 SWAP1 REVERT JUMPDEST POP PUSH2 0x2328 PUSH2 0x1C4 CALLDATALOAD GT PUSH3 0x236 JUMP JUMPDEST PUSH1 0x40 MLOAD PUSH4 0x76A12A0F PUSH1 0xE1 SHL DUP2 MSTORE PUSH1 0x4 SWAP1 REVERT JUMPDEST PUSH1 0x40 MLOAD PUSH4 0x102DF2A1 PUSH1 0xE1 SHL DUP2 MSTORE PUSH1 0x4 SWAP1 REVERT JUMPDEST PUSH1 0x40 MLOAD PUSH4 0x536A71AF PUSH1 0xE0 SHL DUP2 MSTORE PUSH1 0x4 SWAP1 REVERT JUMPDEST PUSH1 0x40 MLOAD PUSH4 0xF5CAE40B PUSH1 0xE0 SHL DUP2 MSTORE PUSH1 0x4 SWAP1 REVERT JUMPDEST PUSH1 0x44 SWAP1 PUSH1 0x40 MLOAD SWAP1 PUSH4 0xE2517D3F PUSH1 0xE0 SHL DUP3 MSTORE CALLER PUSH1 0x4 DUP4 ADD MSTORE PUSH1 0x24 DUP3 ADD MSTORE REVERT JUMPDEST POP DUP1 REVERT JUMPDEST POP CALLVALUE PUSH3 0x158 JUMPI PUSH1 0x20 CALLDATASIZE PUSH1 0x3 NOT ADD SLT PUSH3 0x158 JUMPI PUSH1 0x20 SWAP1 PUSH1 0x40 SWAP1 PUSH1 0x1 PUSH1 0x1 PUSH1 0xA0 SHL SUB PUSH3 0x8BF PUSH3 0xD1E JUMP JUMPDEST AND DUP2 MSTORE PUSH1 0x5 DUP4 MSTORE KECCAK256 SLOAD PUSH1 0x40 MLOAD SWAP1 DUP2 MSTORE RETURN JUMPDEST POP CALLVALUE PUSH3 0x158 JUMPI PUSH1 0x40 CALLDATASIZE PUSH1 0x3 NOT ADD SLT PUSH3 0x158 JUMPI PUSH3 0x915 PUSH1 0x4 CALLDATALOAD PUSH3 0x8F5 PUSH3 0xD35 JUMP JUMPDEST SWAP1 DUP1 DUP5 MSTORE DUP4 PUSH1 0x20 MSTORE PUSH3 0x90F PUSH1 0x1 PUSH1 0x40 DUP7 KECCAK256 ADD SLOAD PUSH3 0xD4C JUMP JUMPDEST PUSH3 0xDF2 JUMP JUMPDEST POP DUP1 RETURN JUMPDEST POP CALLVALUE PUSH3 0x158 JUMPI DUP1 PUSH1 0x3 NOT CALLDATASIZE ADD SLT PUSH3 0x158 JUMPI PUSH1 0x20 PUSH1 0x1 SLOAD PUSH1 0x40 MLOAD SWAP1 DUP2 MSTORE RETURN JUMPDEST POP CALLVALUE PUSH3 0x158 JUMPI PUSH1 0x20 CALLDATASIZE PUSH1 0x3 NOT ADD SLT PUSH3 0x158 JUMPI PUSH1 0x20 SWAP1 PUSH1 0x40 SWAP1 PUSH1 0x1 PUSH1 0x1 PUSH1 0xA0 SHL SUB PUSH3 0x965 PUSH3 0xD1E JUMP JUMPDEST AND DUP2 MSTORE PUSH1 0x4 DUP4 MSTORE KECCAK256 SLOAD PUSH1 0x40 MLOAD SWAP1 DUP2 MSTORE RETURN JUMPDEST POP CALLVALUE PUSH3 0x158 JUMPI PUSH1 0x20 DUP1 PUSH1 0x3 NOT CALLDATASIZE ADD SLT PUSH3 0x88F JUMPI SWAP1 PUSH1 0xE0 SWAP2 DUP2 PUSH1 0x40 DUP1 MLOAD PUSH3 0x99F DUP2 PUSH3 0xE97 JUMP JUMPDEST DUP3 DUP2 MSTORE DUP3 DUP5 DUP3 ADD MSTORE ADD MSTORE PUSH1 0x4 CALLDATALOAD DUP3 MSTORE PUSH1 0x2 DUP2 MSTORE PUSH1 0x1 DUP1 PUSH1 0xA0 SHL SUB SWAP2 DUP3 PUSH1 0x40 DUP3 KECCAK256 SLOAD AND SWAP3 DUP4 DUP3 MSTORE PUSH1 0x3 DUP4 MSTORE PUSH1 0x40 DUP3 KECCAK256 SLOAD AND PUSH1 0x4 DUP4 MSTORE PUSH1 0x40 DUP3 KECCAK256 SLOAD SWAP2 PUSH1 0x5 DUP5 MSTORE PUSH1 0x40 DUP1 DUP3 KECCAK256 SLOAD SWAP2 PUSH1 0x6 DUP7 MSTORE KECCAK256 SWAP3 PUSH1 0x40 MLOAD SWAP3 PUSH3 0x9F9 DUP5 PUSH3 0xE97 JUMP JUMPDEST DUP5 SLOAD DUP5 MSTORE PUSH1 0x2 PUSH1 0x1 DUP7 ADD SLOAD SWAP6 DUP8 DUP7 ADD SWAP7 DUP8 MSTORE ADD SLOAD SWAP6 PUSH1 0x40 DUP6 ADD SWAP7 DUP8 MSTORE PUSH1 0x40 MLOAD SWAP8 DUP9 MSTORE DUP8 ADD MSTORE PUSH1 0x40 DUP7 ADD MSTORE PUSH1 0x60 DUP6 ADD MSTORE MLOAD PUSH1 0x80 DUP5 ADD MSTORE MLOAD PUSH1 0xA0 DUP4 ADD MSTORE MLOAD PUSH1 0xC0 DUP3 ADD MSTORE RETURN JUMPDEST POP CALLVALUE PUSH3 0x158 JUMPI DUP1 PUSH1 0x3 NOT CALLDATASIZE ADD SLT PUSH3 0x158 JUMPI PUSH1 0x20 SWAP1 PUSH1 0x40 MLOAD SWAP1 DUP2 MSTORE RETURN JUMPDEST POP CALLVALUE PUSH3 0x158 JUMPI PUSH1 0x40 CALLDATASIZE PUSH1 0x3 NOT ADD SLT PUSH3 0x158 JUMPI PUSH1 0xFF PUSH1 0x40 PUSH1 0x20 SWAP3 PUSH3 0xA7F PUSH3 0xD35 JUMP JUMPDEST PUSH1 0x4 CALLDATALOAD DUP3 MSTORE DUP2 DUP6 MSTORE DUP3 DUP3 KECCAK256 PUSH1 0x1 PUSH1 0x1 PUSH1 0xA0 SHL SUB SWAP1 SWAP2 AND DUP3 MSTORE DUP5 MSTORE KECCAK256 SLOAD PUSH1 0x40 MLOAD SWAP2 AND ISZERO ISZERO DUP2 MSTORE RETURN JUMPDEST POP CALLVALUE PUSH3 0x158 JUMPI PUSH1 0x20 CALLDATASIZE PUSH1 0x3 NOT ADD SLT PUSH3 0x158 JUMPI PUSH1 0x20 SWAP1 PUSH1 0x4 CALLDATALOAD DUP2 MSTORE PUSH1 0x2 DUP3 MSTORE PUSH1 0x40 PUSH1 0x1 DUP1 PUSH1 0xA0 SHL SUB SWAP2 KECCAK256 SLOAD AND PUSH1 0x40 MLOAD SWAP1 DUP2 MSTORE RETURN JUMPDEST POP CALLVALUE PUSH3 0x158 JUMPI DUP1 PUSH1 0x3 NOT CALLDATASIZE ADD SLT PUSH3 0x158 JUMPI PUSH1 0x40 MLOAD PUSH32 0x0 PUSH1 0x1 PUSH1 0x1 PUSH1 0xA0 SHL SUB AND DUP2 MSTORE PUSH1 0x20 SWAP1 RETURN JUMPDEST POP CALLVALUE PUSH3 0x158 JUMPI PUSH1 0x20 CALLDATASIZE PUSH1 0x3 NOT ADD SLT PUSH3 0x158 JUMPI PUSH1 0x20 SWAP1 PUSH1 0x1 PUSH1 0x1 PUSH1 0xA0 SHL SUB SWAP1 PUSH1 0x40 SWAP1 DUP3 PUSH3 0xB50 PUSH3 0xD1E JUMP JUMPDEST AND DUP2 MSTORE PUSH1 0x3 DUP5 MSTORE KECCAK256 SLOAD AND PUSH1 0x40 MLOAD SWAP1 DUP2 MSTORE RETURN JUMPDEST POP CALLVALUE PUSH3 0x158 JUMPI PUSH1 0x20 CALLDATASIZE PUSH1 0x3 NOT ADD SLT PUSH3 0x158 JUMPI PUSH1 0x40 SWAP1 PUSH1 0x1 PUSH1 0x1 PUSH1 0xA0 SHL SUB PUSH3 0xB8B PUSH3 0xD1E JUMP JUMPDEST AND DUP2 MSTORE PUSH1 0x6 PUSH1 0x20 MSTORE KECCAK256 DUP1 SLOAD PUSH3 0xBC1 PUSH1 0x2 PUSH1 0x1 DUP5 ADD SLOAD SWAP4 ADD SLOAD PUSH1 0x40 MLOAD SWAP4 DUP5 SWAP4 DUP5 PUSH1 0x40 SWAP2 SWAP5 SWAP4 SWAP3 PUSH1 0x60 DUP3 ADD SWAP6 DUP3 MSTORE PUSH1 0x20 DUP3 ADD MSTORE ADD MSTORE JUMP JUMPDEST SUB SWAP1 RETURN JUMPDEST POP CALLVALUE PUSH3 0x158 JUMPI PUSH1 0x40 CALLDATASIZE PUSH1 0x3 NOT ADD SLT PUSH3 0x158 JUMPI PUSH3 0xBE3 PUSH3 0xD35 JUMP JUMPDEST CALLER PUSH1 0x1 PUSH1 0x1 PUSH1 0xA0 SHL SUB DUP3 AND SUB PUSH3 0xC02 JUMPI PUSH3 0x915 SWAP1 PUSH1 0x4 CALLDATALOAD PUSH3 0xDF2 JUMP JUMPDEST PUSH1 0x40 MLOAD PUSH4 0x334BD919 PUSH1 0xE1 SHL DUP2 MSTORE PUSH1 0x4 SWAP1 REVERT JUMPDEST POP CALLVALUE PUSH3 0x158 JUMPI DUP1 PUSH1 0x3 NOT CALLDATASIZE ADD SLT PUSH3 0x158 JUMPI PUSH1 0x20 PUSH1 0x40 MLOAD PUSH32 0xBD5D72AC35AE1E83AA0625C57EDDDA63FBB064A87FCA99DFDD7CE027384AE282 DUP2 MSTORE RETURN JUMPDEST POP CALLVALUE PUSH3 0x158 JUMPI PUSH1 0x40 CALLDATASIZE PUSH1 0x3 NOT ADD SLT PUSH3 0x158 JUMPI PUSH3 0x915 PUSH1 0x4 CALLDATALOAD PUSH3 0xC76 PUSH3 0xD35 JUMP JUMPDEST SWAP1 DUP1 DUP5 MSTORE DUP4 PUSH1 0x20 MSTORE PUSH3 0xC90 PUSH1 0x1 PUSH1 0x40 DUP7 KECCAK256 ADD SLOAD PUSH3 0xD4C JUMP JUMPDEST PUSH3 0xD73 JUMP JUMPDEST POP CALLVALUE PUSH3 0x158 JUMPI PUSH1 0x20 CALLDATASIZE PUSH1 0x3 NOT ADD SLT PUSH3 0x158 JUMPI PUSH1 0x1 PUSH1 0x40 PUSH1 0x20 SWAP3 PUSH1 0x4 CALLDATALOAD DUP2 MSTORE DUP1 DUP5 MSTORE KECCAK256 ADD SLOAD PUSH1 0x40 MLOAD SWAP1 DUP2 MSTORE RETURN JUMPDEST SWAP1 POP CALLVALUE PUSH3 0x88F JUMPI PUSH1 0x20 CALLDATASIZE PUSH1 0x3 NOT ADD SLT PUSH3 0x88F JUMPI PUSH1 0x4 CALLDATALOAD PUSH4 0xFFFFFFFF PUSH1 0xE0 SHL DUP2 AND DUP1 SWAP2 SUB PUSH3 0x74A JUMPI PUSH1 0x20 SWAP3 POP PUSH4 0x7965DB0B PUSH1 0xE0 SHL DUP2 EQ SWAP1 DUP2 ISZERO PUSH3 0xD0C JUMPI JUMPDEST POP ISZERO ISZERO DUP2 MSTORE RETURN JUMPDEST PUSH4 0x1FFC9A7 PUSH1 0xE0 SHL EQ SWAP1 POP CODESIZE PUSH3 0xD05 JUMP JUMPDEST PUSH1 0x4 CALLDATALOAD SWAP1 PUSH1 0x1 PUSH1 0x1 PUSH1 0xA0 SHL SUB DUP3 AND DUP3 SUB PUSH3 0x79F JUMPI JUMP JUMPDEST PUSH1 0x24 CALLDATALOAD SWAP1 PUSH1 0x1 PUSH1 0x1 PUSH1 0xA0 SHL SUB DUP3 AND DUP3 SUB PUSH3 0x79F JUMPI JUMP JUMPDEST DUP1 PUSH1 0x0 MSTORE PUSH1 0x0 PUSH1 0x20 MSTORE PUSH1 0x40 PUSH1 0x0 KECCAK256 CALLER PUSH1 0x0 MSTORE PUSH1 0x20 MSTORE PUSH1 0xFF PUSH1 0x40 PUSH1 0x0 KECCAK256 SLOAD AND ISZERO PUSH3 0x871 JUMPI POP JUMP JUMPDEST SWAP1 PUSH1 0x0 SWAP2 DUP1 DUP4 MSTORE DUP3 PUSH1 0x20 MSTORE PUSH1 0x40 DUP4 KECCAK256 SWAP2 PUSH1 0x1 DUP1 PUSH1 0xA0 SHL SUB AND SWAP2 DUP3 DUP5 MSTORE PUSH1 0x20 MSTORE PUSH1 0xFF PUSH1 0x40 DUP5 KECCAK256 SLOAD AND ISZERO PUSH1 0x0 EQ PUSH3 0xDED JUMPI DUP1 DUP4 MSTORE DUP3 PUSH1 0x20 MSTORE PUSH1 0x40 DUP4 KECCAK256 DUP3 DUP5 MSTORE PUSH1 0x20 MSTORE PUSH1 0x40 DUP4 KECCAK256 PUSH1 0x1 PUSH1 0xFF NOT DUP3 SLOAD AND OR SWAP1 SSTORE PUSH32 0x2F8788117E7EFF1D82E926EC794901D17C78024A50270940304540A733656F0D CALLER SWAP4 DUP1 LOG4 PUSH1 0x1 SWAP1 JUMP JUMPDEST POP POP SWAP1 JUMP JUMPDEST SWAP1 PUSH1 0x0 SWAP2 DUP1 DUP4 MSTORE DUP3 PUSH1 0x20 MSTORE PUSH1 0x40 DUP4 KECCAK256 SWAP2 PUSH1 0x1 DUP1 PUSH1 0xA0 SHL SUB AND SWAP2 DUP3 DUP5 MSTORE PUSH1 0x20 MSTORE PUSH1 0xFF PUSH1 0x40 DUP5 KECCAK256 SLOAD AND PUSH1 0x0 EQ PUSH3 0xDED JUMPI DUP1 DUP4 MSTORE DUP3 PUSH1 0x20 MSTORE PUSH1 0x40 DUP4 KECCAK256 DUP3 DUP5 MSTORE PUSH1 0x20 MSTORE PUSH1 0x40 DUP4 KECCAK256 PUSH1 0xFF NOT DUP2 SLOAD AND SWAP1 SSTORE PUSH32 0xF6391F5C32D9C69D2A47EA670B442974B53935D1EDC7FD64EB21E047A839171B CALLER SWAP4 DUP1 LOG4 PUSH1 0x1 SWAP1 JUMP JUMPDEST PUSH1 0x4 CALLDATALOAD PUSH1 0x1 PUSH1 0x1 PUSH1 0xA0 SHL SUB DUP2 AND DUP2 SUB PUSH3 0x79F JUMPI SWAP1 JUMP JUMPDEST PUSH2 0x104 CALLDATALOAD PUSH1 0x1 PUSH1 0x1 PUSH1 0xA0 SHL SUB DUP2 AND DUP2 SUB PUSH3 0x79F JUMPI SWAP1 JUMP JUMPDEST PUSH1 0x60 DUP2 ADD SWAP1 DUP2 LT PUSH8 0xFFFFFFFFFFFFFFFF DUP3 GT OR PUSH3 0xEB4 JUMPI PUSH1 0x40 MSTORE JUMP JUMPDEST PUSH4 0x4E487B71 PUSH1 0xE0 SHL PUSH1 0x0 MSTORE PUSH1 0x41 PUSH1 0x4 MSTORE PUSH1 0x24 PUSH1 0x0 REVERT JUMPDEST PUSH8 0xFFFFFFFFFFFFFFFF DUP2 GT PUSH3 0xEB4 JUMPI PUSH1 0x40 MSTORE JUMP INVALID PUSH2 0x120 CALLVALUE PUSH2 0x10D JUMPI PUSH1 0x1F PUSH2 0xFCF CODESIZE DUP2 SWAP1 SUB SWAP2 DUP3 ADD PUSH1 0x1F NOT AND DUP4 ADD SWAP2 PUSH1 0x1 PUSH1 0x1 PUSH1 0x40 SHL SUB DUP4 GT DUP5 DUP5 LT OR PUSH2 0x112 JUMPI DUP1 DUP5 SWAP3 PUSH1 0xC0 SWAP5 PUSH1 0x40 MSTORE DUP4 CODECOPY DUP2 ADD SUB SLT PUSH2 0x10D JUMPI PUSH2 0x93 PUSH2 0x4B DUP3 PUSH2 0x128 JUMP JUMPDEST PUSH1 0x20 DUP4 ADD MLOAD PUSH1 0x40 DUP5 ADD MLOAD PUSH1 0x60 DUP6 ADD MLOAD SWAP2 PUSH2 0x6C PUSH1 0xA0 PUSH1 0x80 DUP9 ADD MLOAD SWAP8 ADD PUSH2 0x128 JUMP JUMPDEST SWAP4 PUSH1 0x1 PUSH1 0x0 SSTORE PUSH1 0x80 MSTORE PUSH1 0xA0 MSTORE PUSH1 0xC0 MSTORE PUSH1 0xE0 MSTORE PUSH2 0x100 SWAP3 DUP4 MSTORE PUSH2 0x8D DUP2 PUSH2 0x13C JUMP JUMPDEST POP PUSH2 0x1BB JUMP JUMPDEST POP PUSH1 0x40 MLOAD PUSH2 0xD52 SWAP2 DUP3 PUSH2 0x25D DUP4 CODECOPY PUSH1 0x80 MLOAD DUP3 DUP2 DUP2 PUSH2 0x11C ADD MSTORE DUP2 DUP2 PUSH2 0x404 ADD MSTORE PUSH2 0x7CE ADD MSTORE PUSH1 0xA0 MLOAD DUP3 DUP2 DUP2 PUSH2 0x1AA ADD MSTORE DUP2 DUP2 PUSH2 0x9DC ADD MSTORE PUSH2 0xBF2 ADD MSTORE PUSH1 0xC0 MLOAD DUP3 DUP2 DUP2 PUSH2 0x1CD ADD MSTORE DUP2 DUP2 PUSH2 0x23B ADD MSTORE PUSH2 0xC20 ADD MSTORE PUSH1 0xE0 MLOAD DUP3 DUP2 DUP2 PUSH2 0x1F3 ADD MSTORE DUP2 DUP2 PUSH2 0x9A1 ADD MSTORE PUSH2 0xC4E ADD MSTORE MLOAD DUP2 DUP2 DUP2 PUSH2 0x168 ADD MSTORE PUSH2 0x679 ADD MSTORE RETURN JUMPDEST PUSH1 0x0 DUP1 REVERT JUMPDEST PUSH4 0x4E487B71 PUSH1 0xE0 SHL PUSH1 0x0 MSTORE PUSH1 0x41 PUSH1 0x4 MSTORE PUSH1 0x24 PUSH1 0x0 REVERT JUMPDEST MLOAD SWAP1 PUSH1 0x1 PUSH1 0x1 PUSH1 0xA0 SHL SUB DUP3 AND DUP3 SUB PUSH2 0x10D JUMPI JUMP JUMPDEST PUSH1 0x1 PUSH1 0x1 PUSH1 0xA0 SHL SUB AND PUSH1 0x0 DUP2 DUP2 MSTORE PUSH32 0xA6EEF7E35ABE7026729641147F7915573C7E97B47EFA546F5F6E3230263BCB49 PUSH1 0x20 MSTORE PUSH1 0x40 DUP2 KECCAK256 SLOAD SWAP1 SWAP2 SWAP1 PUSH1 0xFF AND PUSH2 0x1B7 JUMPI DUP2 DUP1 MSTORE PUSH1 0x1 PUSH1 0x20 MSTORE PUSH1 0x40 DUP3 KECCAK256 DUP2 DUP4 MSTORE PUSH1 0x20 MSTORE PUSH1 0x40 DUP3 KECCAK256 PUSH1 0x1 PUSH1 0xFF NOT DUP3 SLOAD AND OR SWAP1 SSTORE CALLER SWAP2 PUSH1 0x0 DUP1 MLOAD PUSH1 0x20 PUSH2 0xFAF DUP4 CODECOPY DUP2 MLOAD SWAP2 MSTORE DUP2 DUP1 LOG4 PUSH1 0x1 SWAP1 JUMP JUMPDEST POP SWAP1 JUMP JUMPDEST PUSH1 0x1 PUSH1 0x1 PUSH1 0xA0 SHL SUB AND PUSH1 0x0 DUP2 DUP2 MSTORE PUSH32 0x50EFBDE2D46C37E9785F1791697F77E94BB7B701E19F1930A668820722D37694 PUSH1 0x20 MSTORE PUSH1 0x40 DUP2 KECCAK256 SLOAD SWAP1 SWAP2 SWAP1 PUSH32 0xA49807205CE4D355092EF5A8A18F56E8913CF4A201FBE287825B095693C21775 SWAP1 PUSH1 0xFF AND PUSH2 0x257 JUMPI DUP1 DUP4 MSTORE PUSH1 0x1 PUSH1 0x20 MSTORE PUSH1 0x40 DUP4 KECCAK256 DUP3 DUP5 MSTORE PUSH1 0x20 MSTORE PUSH1 0x40 DUP4 KECCAK256 PUSH1 0x1 PUSH1 0xFF NOT DUP3 SLOAD AND OR SWAP1 SSTORE PUSH1 0x0 DUP1 MLOAD PUSH1 0x20 PUSH2 0xFAF DUP4 CODECOPY DUP2 MLOAD SWAP2 MSTORE CALLER SWAP4 DUP1 LOG4 PUSH1 0x1 SWAP1 JUMP JUMPDEST POP POP SWAP1 JUMP INVALID PUSH1 0x80 DUP1 PUSH1 0x40 MSTORE PUSH1 0x4 CALLDATASIZE LT ISZERO PUSH2 0x13 JUMPI PUSH1 0x0 DUP1 REVERT JUMPDEST PUSH1 0x0 CALLDATALOAD PUSH1 0xE0 SHR SWAP1 DUP2 PUSH4 0x1FFC9A7 EQ PUSH2 0x9FF JUMPI POP DUP1 PUSH4 0x14F41D73 EQ PUSH2 0x9C4 JUMPI DUP1 PUSH4 0x1514617E EQ PUSH2 0x989 JUMPI DUP1 PUSH4 0x248A9CA3 EQ PUSH2 0x95A JUMPI DUP1 PUSH4 0x2EB4A7AB EQ PUSH2 0x93C JUMPI DUP1 PUSH4 0x2F2FF15D EQ PUSH2 0x8FD JUMPI DUP1 PUSH4 0x2F52EBB7 EQ PUSH2 0x5F3 JUMPI DUP1 PUSH4 0x36568ABE EQ PUSH2 0x5AC JUMPI DUP1 PUSH4 0x45F7F249 EQ PUSH2 0x58E JUMPI DUP1 PUSH4 0x6F5244B1 EQ PUSH2 0x55F JUMPI DUP1 PUSH4 0x75B238FC EQ PUSH2 0x524 JUMPI DUP1 PUSH4 0x7C382D0B EQ PUSH2 0x360 JUMPI DUP1 PUSH4 0x91D14854 EQ PUSH2 0x313 JUMPI DUP1 PUSH4 0xA217FDDF EQ PUSH2 0x2F7 JUMPI DUP1 PUSH4 0xA4317EF4 EQ PUSH2 0x2D9 JUMPI DUP1 PUSH4 0xC884EF83 EQ PUSH2 0x29F JUMPI DUP1 PUSH4 0xD547741F EQ PUSH2 0x25E JUMPI DUP1 PUSH4 0xD85349F7 EQ PUSH2 0x223 JUMPI DUP1 PUSH4 0xDC25A300 EQ PUSH2 0x18B JUMPI DUP1 PUSH4 0xE1F05EC4 EQ PUSH2 0x150 JUMPI PUSH4 0xFC0C546A EQ PUSH2 0x106 JUMPI PUSH1 0x0 DUP1 REVERT JUMPDEST CALLVALUE PUSH2 0x14B JUMPI PUSH1 0x0 CALLDATASIZE PUSH1 0x3 NOT ADD SLT PUSH2 0x14B JUMPI PUSH1 0x40 MLOAD PUSH32 0x0 PUSH1 0x1 PUSH1 0x1 PUSH1 0xA0 SHL SUB AND DUP2 MSTORE PUSH1 0x20 SWAP1 RETURN JUMPDEST PUSH1 0x0 DUP1 REVERT JUMPDEST CALLVALUE PUSH2 0x14B JUMPI PUSH1 0x0 CALLDATASIZE PUSH1 0x3 NOT ADD SLT PUSH2 0x14B JUMPI PUSH1 0x20 PUSH1 0x40 MLOAD PUSH32 0x0 DUP2 MSTORE RETURN JUMPDEST CALLVALUE PUSH2 0x14B JUMPI PUSH1 0x0 CALLDATASIZE PUSH1 0x3 NOT ADD SLT PUSH2 0x14B JUMPI PUSH1 0xA0 PUSH1 0x3 SLOAD PUSH1 0x2 SLOAD PUSH1 0x40 MLOAD SWAP2 PUSH32 0x0 DUP4 MSTORE PUSH32 0x0 PUSH1 0x20 DUP5 ADD MSTORE PUSH32 0x0 PUSH1 0x40 DUP5 ADD MSTORE PUSH1 0x60 DUP4 ADD MSTORE PUSH1 0x80 DUP3 ADD MSTORE RETURN JUMPDEST CALLVALUE PUSH2 0x14B JUMPI PUSH1 0x0 CALLDATASIZE PUSH1 0x3 NOT ADD SLT PUSH2 0x14B JUMPI PUSH1 0x20 PUSH1 0x40 MLOAD PUSH32 0x0 DUP2 MSTORE RETURN JUMPDEST CALLVALUE PUSH2 0x14B JUMPI PUSH1 0x40 CALLDATASIZE PUSH1 0x3 NOT ADD SLT PUSH2 0x14B JUMPI PUSH2 0x29D PUSH1 0x4 CALLDATALOAD PUSH2 0x27D PUSH2 0xA52 JUMP JUMPDEST SWAP1 DUP1 PUSH1 0x0 MSTORE PUSH1 0x1 PUSH1 0x20 MSTORE PUSH2 0x298 PUSH1 0x1 PUSH1 0x40 PUSH1 0x0 KECCAK256 ADD SLOAD PUSH2 0xA7E JUMP JUMPDEST PUSH2 0xB24 JUMP JUMPDEST STOP JUMPDEST CALLVALUE PUSH2 0x14B JUMPI PUSH1 0x20 CALLDATASIZE PUSH1 0x3 NOT ADD SLT PUSH2 0x14B JUMPI PUSH1 0x1 PUSH1 0x1 PUSH1 0xA0 SHL SUB PUSH2 0x2C0 PUSH2 0xA68 JUMP JUMPDEST AND PUSH1 0x0 MSTORE PUSH1 0x5 PUSH1 0x20 MSTORE PUSH1 0x20 PUSH1 0x40 PUSH1 0x0 KECCAK256 SLOAD PUSH1 0x40 MLOAD SWAP1 DUP2 MSTORE RETURN JUMPDEST CALLVALUE PUSH2 0x14B JUMPI PUSH1 0x0 CALLDATASIZE PUSH1 0x3 NOT ADD SLT PUSH2 0x14B JUMPI PUSH1 0x20 PUSH1 0x3 SLOAD PUSH1 0x40 MLOAD SWAP1 DUP2 MSTORE RETURN JUMPDEST CALLVALUE PUSH2 0x14B JUMPI PUSH1 0x0 CALLDATASIZE PUSH1 0x3 NOT ADD SLT PUSH2 0x14B JUMPI PUSH1 0x20 PUSH1 0x40 MLOAD PUSH1 0x0 DUP2 MSTORE RETURN JUMPDEST CALLVALUE PUSH2 0x14B JUMPI PUSH1 0x40 CALLDATASIZE PUSH1 0x3 NOT ADD SLT PUSH2 0x14B JUMPI PUSH2 0x32C PUSH2 0xA52 JUMP JUMPDEST PUSH1 0x4 CALLDATALOAD PUSH1 0x0 MSTORE PUSH1 0x1 PUSH1 0x20 MSTORE PUSH1 0x40 PUSH1 0x0 KECCAK256 SWAP1 PUSH1 0x1 DUP1 PUSH1 0xA0 SHL SUB AND PUSH1 0x0 MSTORE PUSH1 0x20 MSTORE PUSH1 0x20 PUSH1 0xFF PUSH1 0x40 PUSH1 0x0 KECCAK256 SLOAD AND PUSH1 0x40 MLOAD SWAP1 ISZERO ISZERO DUP2 MSTORE RETURN JUMPDEST CALLVALUE PUSH2 0x14B JUMPI PUSH1 0x40 CALLDATASIZE PUSH1 0x3 NOT ADD SLT PUSH2 0x14B JUMPI CALLER PUSH1 0x0 SWAP1 DUP2 MSTORE PUSH32 0x50EFBDE2D46C37E9785F1791697F77E94BB7B701E19F1930A668820722D37694 PUSH1 0x20 SWAP1 DUP2 MSTORE PUSH1 0x40 SWAP1 SWAP2 KECCAK256 SLOAD PUSH1 0x4 CALLDATALOAD SWAP2 SWAP1 PUSH1 0x24 CALLDATALOAD SWAP1 PUSH32 0xA49807205CE4D355092EF5A8A18F56E8913CF4A201FBE287825B095693C21775 SWAP1 PUSH1 0xFF AND ISZERO PUSH2 0x506 JUMPI POP PUSH1 0x2 SLOAD PUSH2 0x4F4 JUMPI DUP3 ISZERO PUSH2 0x4E2 JUMPI DUP1 ISZERO PUSH2 0x4D0 JUMPI PUSH1 0x40 MLOAD PUSH4 0x70A08231 PUSH1 0xE0 SHL DUP2 MSTORE ADDRESS PUSH1 0x4 DUP3 ADD MSTORE DUP3 DUP2 PUSH1 0x24 DUP2 PUSH32 0x0 PUSH1 0x1 PUSH1 0x1 PUSH1 0xA0 SHL SUB AND GAS STATICCALL DUP1 ISZERO PUSH2 0x4C4 JUMPI DUP3 SWAP2 PUSH1 0x0 SWAP2 PUSH2 0x493 JUMPI JUMPDEST POP LT PUSH2 0x481 JUMPI PUSH32 0xC7CE8037CBAC8A577B7D8EDD9340B4DBB1E691F2EB699B97F5C7576B0E9EDE04 SWAP2 PUSH1 0x40 SWAP2 DUP5 PUSH1 0x2 SSTORE TIMESTAMP PUSH1 0x3 SSTORE DUP1 PUSH1 0x4 SSTORE DUP3 MLOAD SWAP2 TIMESTAMP DUP4 MSTORE DUP3 ADD MSTORE LOG2 STOP JUMPDEST PUSH1 0x40 MLOAD PUSH4 0x14ECD6C7 PUSH1 0xE0 SHL DUP2 MSTORE PUSH1 0x4 SWAP1 REVERT JUMPDEST DUP1 SWAP3 POP DUP5 DUP1 SWAP3 POP RETURNDATASIZE DUP4 GT PUSH2 0x4BD JUMPI JUMPDEST PUSH2 0x4AC DUP2 DUP4 PUSH2 0xB9B JUMP JUMPDEST DUP2 ADD SUB SLT PUSH2 0x14B JUMPI DUP2 SWAP1 MLOAD DUP6 PUSH2 0x43E JUMP JUMPDEST POP RETURNDATASIZE PUSH2 0x4A2 JUMP JUMPDEST PUSH1 0x40 MLOAD RETURNDATASIZE PUSH1 0x0 DUP3 RETURNDATACOPY RETURNDATASIZE SWAP1 REVERT JUMPDEST PUSH1 0x40 MLOAD PUSH4 0xBA0D87B5 PUSH1 0xE0 SHL DUP2 MSTORE PUSH1 0x4 SWAP1 REVERT JUMPDEST PUSH1 0x40 MLOAD PUSH4 0x9BDE339 PUSH1 0xE0 SHL DUP2 MSTORE PUSH1 0x4 SWAP1 REVERT JUMPDEST PUSH1 0x40 MLOAD PUSH4 0xB466DDBF PUSH1 0xE0 SHL DUP2 MSTORE PUSH1 0x4 SWAP1 REVERT JUMPDEST PUSH1 0x44 SWAP1 PUSH1 0x40 MLOAD SWAP1 PUSH4 0xE2517D3F PUSH1 0xE0 SHL DUP3 MSTORE CALLER PUSH1 0x4 DUP4 ADD MSTORE PUSH1 0x24 DUP3 ADD MSTORE REVERT JUMPDEST CALLVALUE PUSH2 0x14B JUMPI PUSH1 0x0 CALLDATASIZE PUSH1 0x3 NOT ADD SLT PUSH2 0x14B JUMPI PUSH1 0x20 PUSH1 0x40 MLOAD PUSH32 0xA49807205CE4D355092EF5A8A18F56E8913CF4A201FBE287825B095693C21775 DUP2 MSTORE RETURN JUMPDEST CALLVALUE PUSH2 0x14B JUMPI PUSH1 0x40 CALLDATASIZE PUSH1 0x3 NOT ADD SLT PUSH2 0x14B JUMPI PUSH1 0x20 PUSH2 0x586 PUSH2 0x57D PUSH2 0xA68 JUMP JUMPDEST PUSH1 0x24 CALLDATALOAD SWAP1 PUSH2 0xCD5 JUMP JUMPDEST PUSH1 0x40 MLOAD SWAP1 DUP2 MSTORE RETURN JUMPDEST CALLVALUE PUSH2 0x14B JUMPI PUSH1 0x0 CALLDATASIZE PUSH1 0x3 NOT ADD SLT PUSH2 0x14B JUMPI PUSH1 0x20 PUSH1 0x4 SLOAD PUSH1 0x40 MLOAD SWAP1 DUP2 MSTORE RETURN JUMPDEST CALLVALUE PUSH2 0x14B JUMPI PUSH1 0x40 CALLDATASIZE PUSH1 0x3 NOT ADD SLT PUSH2 0x14B JUMPI PUSH2 0x5C5 PUSH2 0xA52 JUMP JUMPDEST CALLER PUSH1 0x1 PUSH1 0x1 PUSH1 0xA0 SHL SUB DUP3 AND SUB PUSH2 0x5E1 JUMPI PUSH2 0x29D SWAP1 PUSH1 0x4 CALLDATALOAD PUSH2 0xB24 JUMP JUMPDEST PUSH1 0x40 MLOAD PUSH4 0x334BD919 PUSH1 0xE1 SHL DUP2 MSTORE PUSH1 0x4 SWAP1 REVERT JUMPDEST CALLVALUE PUSH2 0x14B JUMPI PUSH1 0x40 CALLDATASIZE PUSH1 0x3 NOT ADD SLT PUSH2 0x14B JUMPI PUSH8 0xFFFFFFFFFFFFFFFF PUSH1 0x24 CALLDATALOAD GT PUSH2 0x14B JUMPI CALLDATASIZE PUSH1 0x23 PUSH1 0x24 CALLDATALOAD ADD SLT ISZERO PUSH2 0x14B JUMPI PUSH8 0xFFFFFFFFFFFFFFFF PUSH1 0x24 CALLDATALOAD PUSH1 0x4 ADD CALLDATALOAD GT PUSH2 0x14B JUMPI PUSH1 0x5 CALLDATASIZE PUSH1 0x24 DUP1 CALLDATALOAD PUSH1 0x4 ADD CALLDATALOAD DUP4 SHL DUP2 CALLDATALOAD ADD ADD GT PUSH2 0x14B JUMPI PUSH1 0x2 PUSH1 0x0 SLOAD EQ PUSH2 0x8EB JUMPI PUSH1 0x2 PUSH1 0x0 SSTORE PUSH1 0x2 SLOAD DUP1 ISZERO PUSH2 0x8D9 JUMPI PUSH1 0x40 MLOAD ADDRESS PUSH1 0x60 SHL PUSH1 0x20 DUP3 ADD MSTORE CHAINID PUSH1 0x34 DUP3 ADD MSTORE PUSH32 0x0 PUSH1 0x54 DUP3 ADD MSTORE CALLER PUSH1 0x60 SHL PUSH1 0x74 DUP3 ADD MSTORE PUSH1 0x4 CALLDATALOAD PUSH1 0x88 DUP3 ADD MSTORE PUSH1 0x88 DUP2 MSTORE DUP1 PUSH1 0xC0 DUP2 ADD LT PUSH8 0xFFFFFFFFFFFFFFFF PUSH1 0xC0 DUP4 ADD GT OR PUSH2 0x8A1 JUMPI PUSH1 0xC0 DUP2 ADD PUSH1 0x40 MSTORE DUP1 MLOAD PUSH1 0x20 DUP3 ADD KECCAK256 PUSH2 0x6F1 PUSH1 0x20 PUSH1 0x24 CALLDATALOAD PUSH1 0x4 ADD CALLDATALOAD DUP7 SHL ADD PUSH1 0xC0 DUP5 ADD PUSH2 0xB9B JUMP JUMPDEST PUSH1 0x24 DUP1 CALLDATALOAD PUSH1 0x4 DUP2 ADD CALLDATALOAD PUSH1 0xC0 DUP6 ADD MSTORE ADD PUSH1 0xE0 DUP4 ADD JUMPDEST PUSH1 0x24 DUP1 CALLDATALOAD PUSH1 0x4 ADD CALLDATALOAD DUP8 SHL DUP2 CALLDATALOAD ADD ADD DUP3 LT PUSH2 0x8C9 JUMPI POP POP SWAP1 PUSH1 0x0 SWAP2 JUMPDEST PUSH1 0xC0 DUP3 ADD MLOAD DUP4 LT ISZERO PUSH2 0x784 JUMPI DUP3 DUP6 SHL DUP3 ADD PUSH1 0xE0 ADD MLOAD SWAP1 DUP2 DUP2 LT ISZERO PUSH2 0x773 JUMPI PUSH1 0x0 MSTORE PUSH1 0x20 MSTORE PUSH1 0x40 PUSH1 0x0 KECCAK256 JUMPDEST SWAP2 PUSH1 0x0 NOT DUP2 EQ PUSH2 0x75D JUMPI PUSH1 0x1 ADD SWAP2 PUSH2 0x720 JUMP JUMPDEST PUSH4 0x4E487B71 PUSH1 0xE0 SHL PUSH1 0x0 MSTORE PUSH1 0x11 PUSH1 0x4 MSTORE PUSH1 0x24 PUSH1 0x0 REVERT JUMPDEST SWAP1 PUSH1 0x0 MSTORE PUSH1 0x20 MSTORE PUSH1 0x40 PUSH1 0x0 KECCAK256 PUSH2 0x74A JUMP JUMPDEST SWAP2 POP POP SUB PUSH2 0x4E2 JUMPI PUSH2 0x797 PUSH1 0x4 CALLDATALOAD PUSH2 0xBEA JUMP JUMPDEST CALLER PUSH1 0x0 MSTORE DUP2 PUSH1 0x20 MSTORE PUSH1 0x40 PUSH1 0x0 KECCAK256 SLOAD DUP1 DUP3 GT ISZERO PUSH2 0x8B7 JUMPI PUSH2 0x7B7 SWAP1 DUP3 PUSH2 0xBBD JUMP JUMPDEST SWAP2 CALLER PUSH1 0x0 MSTORE PUSH1 0x20 MSTORE PUSH1 0x40 PUSH1 0x0 KECCAK256 SSTORE PUSH1 0x1 DUP1 PUSH1 0xA0 SHL SUB PUSH32 0x0 AND PUSH1 0x40 MLOAD PUSH1 0x20 DUP2 ADD PUSH4 0xA9059CBB PUSH1 0xE0 SHL DUP2 MSTORE CALLER PUSH1 0x24 DUP4 ADD MSTORE DUP4 PUSH1 0x44 DUP4 ADD MSTORE PUSH1 0x44 DUP3 MSTORE PUSH1 0x80 DUP3 ADD SWAP1 DUP3 DUP3 LT PUSH8 0xFFFFFFFFFFFFFFFF DUP4 GT OR PUSH2 0x8A1 JUMPI PUSH1 0x20 SWAP3 PUSH1 0x0 SWAP3 PUSH1 0x40 MSTORE MLOAD SWAP1 DUP3 DUP6 GAS CALL ISZERO PUSH2 0x4C4 JUMPI PUSH1 0x0 MLOAD RETURNDATASIZE PUSH2 0x898 JUMPI POP DUP1 EXTCODESIZE ISZERO JUMPDEST PUSH2 0x880 JUMPI POP PUSH1 0x40 MLOAD SWAP1 DUP2 MSTORE PUSH32 0xD8138F8A3F377C5259CA548E70E4C2DE94F129F5A11036A15B69513CBA2B426A PUSH1 0x20 CALLER SWAP3 LOG2 PUSH1 0x1 PUSH1 0x0 SSTORE STOP JUMPDEST PUSH1 0x24 SWAP1 PUSH1 0x40 MLOAD SWAP1 PUSH4 0x5274AFE7 PUSH1 0xE0 SHL DUP3 MSTORE PUSH1 0x4 DUP3 ADD MSTORE REVERT JUMPDEST PUSH1 0x1 EQ ISZERO PUSH2 0x848 JUMP JUMPDEST PUSH4 0x4E487B71 PUSH1 0xE0 SHL PUSH1 0x0 MSTORE PUSH1 0x41 PUSH1 0x4 MSTORE PUSH1 0x24 PUSH1 0x0 REVERT JUMPDEST PUSH1 0x40 MLOAD PUSH4 0x12D37EE5 PUSH1 0xE3 SHL DUP2 MSTORE PUSH1 0x4 SWAP1 REVERT JUMPDEST DUP2 CALLDATALOAD DUP2 MSTORE PUSH1 0x20 SWAP2 DUP3 ADD SWAP2 ADD PUSH2 0x705 JUMP JUMPDEST PUSH1 0x40 MLOAD PUSH4 0x1C8B6259 PUSH1 0xE0 SHL DUP2 MSTORE PUSH1 0x4 SWAP1 REVERT JUMPDEST PUSH1 0x40 MLOAD PUSH4 0x3EE5AEB5 PUSH1 0xE0 SHL DUP2 MSTORE PUSH1 0x4 SWAP1 REVERT JUMPDEST CALLVALUE PUSH2 0x14B JUMPI PUSH1 0x40 CALLDATASIZE PUSH1 0x3 NOT ADD SLT PUSH2 0x14B JUMPI PUSH2 0x29D PUSH1 0x4 CALLDATALOAD PUSH2 0x91C PUSH2 0xA52 JUMP JUMPDEST SWAP1 DUP1 PUSH1 0x0 MSTORE PUSH1 0x1 PUSH1 0x20 MSTORE PUSH2 0x937 PUSH1 0x1 PUSH1 0x40 PUSH1 0x0 KECCAK256 ADD SLOAD PUSH2 0xA7E JUMP JUMPDEST PUSH2 0xAA4 JUMP JUMPDEST CALLVALUE PUSH2 0x14B JUMPI PUSH1 0x0 CALLDATASIZE PUSH1 0x3 NOT ADD SLT PUSH2 0x14B JUMPI PUSH1 0x20 PUSH1 0x2 SLOAD PUSH1 0x40 MLOAD SWAP1 DUP2 MSTORE RETURN JUMPDEST CALLVALUE PUSH2 0x14B JUMPI PUSH1 0x20 CALLDATASIZE PUSH1 0x3 NOT ADD SLT PUSH2 0x14B JUMPI PUSH1 0x4 CALLDATALOAD PUSH1 0x0 MSTORE PUSH1 0x1 PUSH1 0x20 MSTORE PUSH1 0x20 PUSH1 0x1 PUSH1 0x40 PUSH1 0x0 KECCAK256 ADD SLOAD PUSH1 0x40 MLOAD SWAP1 DUP2 MSTORE RETURN JUMPDEST CALLVALUE PUSH2 0x14B JUMPI PUSH1 0x0 CALLDATASIZE PUSH1 0x3 NOT ADD SLT PUSH2 0x14B JUMPI PUSH1 0x20 PUSH1 0x40 MLOAD PUSH32 0x0 DUP2 MSTORE RETURN JUMPDEST CALLVALUE PUSH2 0x14B JUMPI PUSH1 0x0 CALLDATASIZE PUSH1 0x3 NOT ADD SLT PUSH2 0x14B JUMPI PUSH1 0x20 PUSH1 0x40 MLOAD PUSH32 0x0 DUP2 MSTORE RETURN JUMPDEST CALLVALUE PUSH2 0x14B JUMPI PUSH1 0x20 CALLDATASIZE PUSH1 0x3 NOT ADD SLT PUSH2 0x14B JUMPI PUSH1 0x4 CALLDATALOAD SWAP1 PUSH4 0xFFFFFFFF PUSH1 0xE0 SHL DUP3 AND DUP1 SWAP3 SUB PUSH2 0x14B JUMPI PUSH1 0x20 SWAP2 PUSH4 0x7965DB0B PUSH1 0xE0 SHL DUP2 EQ SWAP1 DUP2 ISZERO PUSH2 0xA41 JUMPI JUMPDEST POP ISZERO ISZERO DUP2 MSTORE RETURN JUMPDEST PUSH4 0x1FFC9A7 PUSH1 0xE0 SHL EQ SWAP1 POP DUP4 PUSH2 0xA3A JUMP JUMPDEST PUSH1 0x24 CALLDATALOAD SWAP1 PUSH1 0x1 PUSH1 0x1 PUSH1 0xA0 SHL SUB DUP3 AND DUP3 SUB PUSH2 0x14B JUMPI JUMP JUMPDEST PUSH1 0x4 CALLDATALOAD SWAP1 PUSH1 0x1 PUSH1 0x1 PUSH1 0xA0 SHL SUB DUP3 AND DUP3 SUB PUSH2 0x14B JUMPI JUMP JUMPDEST DUP1 PUSH1 0x0 MSTORE PUSH1 0x1 PUSH1 0x20 MSTORE PUSH1 0x40 PUSH1 0x0 KECCAK256 CALLER PUSH1 0x0 MSTORE PUSH1 0x20 MSTORE PUSH1 0xFF PUSH1 0x40 PUSH1 0x0 KECCAK256 SLOAD AND ISZERO PUSH2 0x506 JUMPI POP JUMP JUMPDEST SWAP1 PUSH1 0x0 SWAP2 DUP1 DUP4 MSTORE PUSH1 0x1 PUSH1 0x20 MSTORE PUSH1 0x40 DUP4 KECCAK256 SWAP2 PUSH1 0x1 DUP1 PUSH1 0xA0 SHL SUB AND SWAP2 DUP3 DUP5 MSTORE PUSH1 0x20 MSTORE PUSH1 0xFF PUSH1 0x40 DUP5 KECCAK256 SLOAD AND ISZERO PUSH1 0x0 EQ PUSH2 0xB1F JUMPI DUP1 DUP4 MSTORE PUSH1 0x1 PUSH1 0x20 MSTORE PUSH1 0x40 DUP4 KECCAK256 DUP3 DUP5 MSTORE PUSH1 0x20 MSTORE PUSH1 0x40 DUP4 KECCAK256 PUSH1 0x1 PUSH1 0xFF NOT DUP3 SLOAD AND OR SWAP1 SSTORE PUSH32 0x2F8788117E7EFF1D82E926EC794901D17C78024A50270940304540A733656F0D CALLER SWAP4 DUP1 LOG4 PUSH1 0x1 SWAP1 JUMP JUMPDEST POP POP SWAP1 JUMP JUMPDEST SWAP1 PUSH1 0x0 SWAP2 DUP1 DUP4 MSTORE PUSH1 0x1 PUSH1 0x20 MSTORE PUSH1 0x40 DUP4 KECCAK256 SWAP2 PUSH1 0x1 DUP1 PUSH1 0xA0 SHL SUB AND SWAP2 DUP3 DUP5 MSTORE PUSH1 0x20 MSTORE PUSH1 0xFF PUSH1 0x40 DUP5 KECCAK256 SLOAD AND PUSH1 0x0 EQ PUSH2 0xB1F JUMPI DUP1 DUP4 MSTORE PUSH1 0x1 PUSH1 0x20 MSTORE PUSH1 0x40 DUP4 KECCAK256 DUP3 DUP5 MSTORE PUSH1 0x20 MSTORE PUSH1 0x40 DUP4 KECCAK256 PUSH1 0xFF NOT DUP2 SLOAD AND SWAP1 SSTORE PUSH32 0xF6391F5C32D9C69D2A47EA670B442974B53935D1EDC7FD64EB21E047A839171B CALLER SWAP4 DUP1 LOG4 PUSH1 0x1 SWAP1 JUMP JUMPDEST SWAP1 PUSH1 0x1F DUP1 NOT SWAP2 ADD AND DUP2 ADD SWAP1 DUP2 LT PUSH8 0xFFFFFFFFFFFFFFFF DUP3 GT OR PUSH2 0x8A1 JUMPI PUSH1 0x40 MSTORE JUMP JUMPDEST SWAP2 SWAP1 DUP3 SUB SWAP2 DUP3 GT PUSH2 0x75D JUMPI JUMP JUMPDEST DUP2 DUP2 MUL SWAP3 SWAP2 DUP2 ISZERO SWAP2 DUP5 DIV EQ OR ISZERO PUSH2 0x75D JUMPI JUMP JUMPDEST SWAP2 SWAP1 DUP3 ADD DUP1 SWAP3 GT PUSH2 0x75D JUMPI JUMP JUMPDEST PUSH2 0x2710 PUSH2 0xC17 PUSH32 0x0 DUP4 PUSH2 0xBCA JUMP JUMPDEST DIV PUSH2 0xC45 PUSH1 0x3 SLOAD PUSH32 0x0 SWAP1 PUSH2 0xBDD JUMP JUMPDEST DUP1 TIMESTAMP LT PUSH2 0xCCF JUMPI PUSH32 0x0 SWAP3 PUSH2 0xC78 DUP5 DUP4 PUSH2 0xBDD JUMP JUMPDEST TIMESTAMP LT ISZERO PUSH2 0xCC8 JUMPI SWAP1 PUSH2 0xC97 PUSH2 0xC90 DUP5 PUSH2 0xC9D SWAP5 PUSH2 0xBBD JUMP JUMPDEST SWAP2 TIMESTAMP PUSH2 0xBBD JUMP JUMPDEST SWAP1 PUSH2 0xBCA JUMP JUMPDEST SWAP2 DUP1 ISZERO PUSH2 0xCB2 JUMPI PUSH2 0xCAF SWAP3 DIV SWAP1 PUSH2 0xBDD JUMP JUMPDEST SWAP1 JUMP JUMPDEST PUSH4 0x4E487B71 PUSH1 0xE0 SHL PUSH1 0x0 MSTORE PUSH1 0x12 PUSH1 0x4 MSTORE PUSH1 0x24 PUSH1 0x0 REVERT JUMPDEST SWAP3 POP POP POP SWAP1 JUMP JUMPDEST POP SWAP1 POP SWAP1 JUMP JUMPDEST SWAP1 PUSH1 0x2 SLOAD ISZERO PUSH2 0xD15 JUMPI PUSH2 0xCE7 SWAP1 PUSH2 0xBEA JUMP JUMPDEST PUSH1 0x1 PUSH1 0x1 PUSH1 0xA0 SHL SUB SWAP1 SWAP2 AND PUSH1 0x0 SWAP1 DUP2 MSTORE PUSH1 0x5 PUSH1 0x20 MSTORE PUSH1 0x40 DUP2 KECCAK256 SLOAD SWAP1 SWAP2 DUP2 DUP2 GT ISZERO PUSH2 0xB1F JUMPI PUSH2 0xCAF SWAP3 POP PUSH2 0xBBD JUMP JUMPDEST POP POP PUSH1 0x0 SWAP1 JUMP INVALID LOG2 PUSH5 0x6970667358 0x22 SLT KECCAK256 0x2B PUSH30 0x62DE087FEDA89734D2950DF2A6200D1E4E785D8E21B55FD762B89169200B PUSH5 0x736F6C6343 STOP ADDMOD EQ STOP CALLER 0x2F DUP8 DUP9 GT PUSH31 0x7EFF1D82E926EC794901D17C78024A50270940304540A733656F0D6101E034 PUSH3 0x2DF JUMPI PUSH1 0x1F PUSH3 0x1DB7 CODESIZE DUP2 SWAP1 SUB SWAP2 DUP3 ADD PUSH1 0x1F NOT AND DUP4 ADD SWAP2 PUSH1 0x1 PUSH1 0x1 PUSH1 0x40 SHL SUB DUP4 GT DUP5 DUP5 LT OR PUSH3 0x2A5 JUMPI DUP1 DUP5 SWAP3 PUSH2 0x180 SWAP5 PUSH1 0x40 MSTORE DUP4 CODECOPY DUP2 ADD SUB SLT PUSH3 0x2DF JUMPI PUSH3 0x4F DUP2 PUSH3 0x2E4 JUMP JUMPDEST SWAP1 PUSH3 0x5E PUSH1 0x20 DUP3 ADD PUSH3 0x2E4 JUMP JUMPDEST SWAP2 PUSH1 0x40 DUP3 ADD MLOAD SWAP3 PUSH1 0x60 DUP4 ADD MLOAD PUSH1 0x80 DUP5 ADD MLOAD PUSH1 0xA0 DUP6 ADD MLOAD PUSH1 0xC0 DUP7 ADD MLOAD SWAP1 PUSH1 0xE0 DUP8 ADD MLOAD SWAP3 PUSH3 0x8F PUSH2 0x100 DUP10 ADD PUSH3 0x2E4 JUMP JUMPDEST SWAP5 PUSH3 0x9F PUSH2 0x120 DUP11 ADD PUSH3 0x2E4 JUMP JUMPDEST SWAP10 PUSH3 0xBE PUSH2 0x160 PUSH3 0xB6 PUSH2 0x140 DUP14 ADD PUSH3 0x2E4 JUMP JUMPDEST SWAP12 ADD PUSH3 0x2E4 JUMP JUMPDEST SWAP8 PUSH1 0x1 PUSH1 0x0 SSTORE DUP2 DUP4 LT PUSH3 0x2CD JUMPI DUP6 DUP8 GT ISZERO PUSH3 0x2CD JUMPI PUSH1 0x1 PUSH1 0x1 PUSH1 0xA0 SHL SUB DUP9 AND ISZERO PUSH3 0x2BB JUMPI PUSH1 0x1 PUSH1 0x1 PUSH1 0xA0 SHL SUB DUP13 AND ISZERO PUSH3 0x2BB JUMPI PUSH1 0x1 PUSH1 0x1 PUSH1 0xA0 SHL SUB DUP12 AND ISZERO PUSH3 0x2BB JUMPI PUSH3 0x152 SWAP10 PUSH1 0x80 MSTORE PUSH1 0xA0 MSTORE PUSH1 0xC0 MSTORE PUSH1 0xE0 MSTORE PUSH2 0x100 MSTORE PUSH2 0x120 MSTORE PUSH2 0x140 MSTORE PUSH2 0x160 MSTORE PUSH2 0x180 MSTORE PUSH2 0x1A0 SWAP4 DUP5 MSTORE PUSH2 0x1C0 SWAP3 DUP4 MSTORE PUSH1 0xFF NOT PUSH1 0x7 SLOAD AND PUSH1 0x7 SSTORE PUSH3 0x14B DUP2 PUSH3 0x2F9 JUMP JUMPDEST POP PUSH3 0x37A JUMP JUMPDEST POP PUSH1 0x40 MLOAD PUSH1 0x80 DUP2 ADD PUSH1 0x1 PUSH1 0x1 PUSH1 0x40 SHL SUB DUP2 GT DUP3 DUP3 LT OR PUSH3 0x2A5 JUMPI PUSH1 0x40 MSTORE PUSH1 0x32 PUSH1 0x60 PUSH2 0x1F4 SWAP3 DUP4 DUP2 MSTORE PUSH1 0xFA PUSH1 0x20 DUP3 ADD MSTORE PUSH1 0xC8 PUSH1 0x40 DUP3 ADD MSTORE ADD MSTORE PUSH1 0x3 SSTORE PUSH1 0xFA PUSH1 0x4 SSTORE PUSH1 0xC8 PUSH1 0x5 SSTORE PUSH1 0x32 PUSH1 0x6 SSTORE PUSH1 0x40 MLOAD SWAP1 PUSH2 0x1979 SWAP3 DUP4 PUSH3 0x41E DUP5 CODECOPY PUSH1 0x80 MLOAD DUP4 DUP2 DUP2 PUSH2 0xBC0 ADD MSTORE PUSH2 0xF34 ADD MSTORE PUSH1 0xA0 MLOAD DUP4 DUP2 DUP2 PUSH2 0x2F8 ADD MSTORE DUP2 DUP2 PUSH2 0x9D2 ADD MSTORE DUP2 DUP2 PUSH2 0xD62 ADD MSTORE PUSH2 0xF95 ADD MSTORE PUSH1 0xC0 MLOAD DUP4 DUP2 DUP2 PUSH2 0x405 ADD MSTORE DUP2 DUP2 PUSH2 0x6E8 ADD MSTORE DUP2 DUP2 PUSH2 0x812 ADD MSTORE PUSH2 0xE95 ADD MSTORE PUSH1 0xE0 MLOAD DUP4 DUP2 DUP2 PUSH2 0x1C7 ADD MSTORE DUP2 DUP2 PUSH2 0x837 ADD MSTORE DUP2 DUP2 PUSH2 0x9A2 ADD MSTORE PUSH2 0x1853 ADD MSTORE PUSH2 0x100 MLOAD DUP4 DUP2 DUP2 PUSH2 0x4A5 ADD MSTORE PUSH2 0x949 ADD MSTORE PUSH2 0x120 MLOAD DUP4 DUP2 DUP2 PUSH2 0x723 ADD MSTORE PUSH2 0x970 ADD MSTORE PUSH2 0x140 MLOAD DUP4 DUP2 DUP2 PUSH2 0x4FF ADD MSTORE DUP2 DUP2 PUSH2 0x7B8 ADD MSTORE DUP2 DUP2 PUSH2 0x85D ADD MSTORE PUSH2 0x1762 ADD MSTORE PUSH2 0x160 MLOAD DUP4 DUP2 DUP2 PUSH2 0x883 ADD MSTORE DUP2 DUP2 PUSH2 0xD2A ADD MSTORE PUSH2 0x180F ADD MSTORE PUSH2 0x180 MLOAD DUP4 DUP2 DUP2 PUSH2 0xB58 ADD MSTORE DUP2 DUP2 PUSH2 0xFC7 ADD MSTORE PUSH2 0x10EC ADD MSTORE MLOAD DUP3 DUP2 DUP2 PUSH2 0x5DD ADD MSTORE PUSH2 0xF0D ADD MSTORE MLOAD DUP2 DUP2 DUP2 PUSH2 0x621 ADD MSTORE PUSH2 0xEDF ADD MSTORE RETURN JUMPDEST PUSH4 0x4E487B71 PUSH1 0xE0 SHL PUSH1 0x0 MSTORE PUSH1 0x41 PUSH1 0x4 MSTORE PUSH1 0x24 PUSH1 0x0 REVERT JUMPDEST PUSH1 0x40 MLOAD PUSH4 0xE6C4247B PUSH1 0xE0 SHL DUP2 MSTORE PUSH1 0x4 SWAP1 REVERT JUMPDEST PUSH1 0x40 MLOAD PUSH4 0x7A92F19 PUSH1 0xE5 SHL DUP2 MSTORE PUSH1 0x4 SWAP1 REVERT JUMPDEST PUSH1 0x0 DUP1 REVERT JUMPDEST MLOAD SWAP1 PUSH1 0x1 PUSH1 0x1 PUSH1 0xA0 SHL SUB DUP3 AND DUP3 SUB PUSH3 0x2DF JUMPI JUMP JUMPDEST PUSH1 0x1 PUSH1 0x1 PUSH1 0xA0 SHL SUB AND PUSH1 0x0 DUP2 DUP2 MSTORE PUSH32 0xAC33FF75C19E70FE83507DB0D683FD3465C996598DC972688B7ACE676C89077B PUSH1 0x20 MSTORE PUSH1 0x40 DUP2 KECCAK256 SLOAD SWAP1 SWAP2 SWAP1 PUSH1 0xFF AND PUSH3 0x376 JUMPI DUP2 DUP1 MSTORE PUSH1 0x2 PUSH1 0x20 MSTORE PUSH1 0x40 DUP3 KECCAK256 DUP2 DUP4 MSTORE PUSH1 0x20 MSTORE PUSH1 0x40 DUP3 KECCAK256 PUSH1 0x1 PUSH1 0xFF NOT DUP3 SLOAD AND OR SWAP1 SSTORE CALLER SWAP2 PUSH1 0x0 DUP1 MLOAD PUSH1 0x20 PUSH3 0x1D97 DUP4 CODECOPY DUP2 MLOAD SWAP2 MSTORE DUP2 DUP1 LOG4 PUSH1 0x1 SWAP1 JUMP JUMPDEST POP SWAP1 JUMP JUMPDEST PUSH1 0x1 PUSH1 0x1 PUSH1 0xA0 SHL SUB AND PUSH1 0x0 DUP2 DUP2 MSTORE PUSH32 0xE5EBFA64FCA8D502A8E50C1EDFFD2C31EF4DAD5B396E65D9F397FB028F74ABC5 PUSH1 0x20 MSTORE PUSH1 0x40 DUP2 KECCAK256 SLOAD SWAP1 SWAP2 SWAP1 PUSH32 0xA49807205CE4D355092EF5A8A18F56E8913CF4A201FBE287825B095693C21775 SWAP1 PUSH1 0xFF AND PUSH3 0x418 JUMPI DUP1 DUP4 MSTORE PUSH1 0x2 PUSH1 0x20 MSTORE PUSH1 0x40 DUP4 KECCAK256 DUP3 DUP5 MSTORE PUSH1 0x20 MSTORE PUSH1 0x40 DUP4 KECCAK256 PUSH1 0x1 PUSH1 0xFF NOT DUP3 SLOAD AND OR SWAP1 SSTORE PUSH1 0x0 DUP1 MLOAD PUSH1 0x20 PUSH3 0x1D97 DUP4 CODECOPY DUP2 MLOAD SWAP2 MSTORE CALLER SWAP4 DUP1 LOG4 PUSH1 0x1 SWAP1 JUMP JUMPDEST POP POP SWAP1 JUMP INVALID PUSH1 0x80 PUSH1 0x40 DUP2 DUP2 MSTORE PUSH1 0x4 SWAP2 DUP3 CALLDATASIZE LT ISZERO PUSH2 0x16 JUMPI PUSH1 0x0 DUP1 REVERT JUMPDEST PUSH1 0x0 SWAP3 DUP4 CALLDATALOAD PUSH1 0xE0 SHR SWAP2 DUP3 PUSH4 0x1FFC9A7 EQ PUSH2 0x135D JUMPI POP DUP2 PUSH4 0xB4F3F3D EQ PUSH2 0x12D3 JUMPI DUP2 PUSH4 0x19CEF5BC EQ PUSH2 0xE48 JUMPI DUP2 PUSH4 0x1E5EB1D0 EQ PUSH2 0xE0F JUMPI DUP2 PUSH4 0x200D2ED2 EQ PUSH2 0xDE6 JUMPI DUP2 PUSH4 0x248A9CA3 EQ PUSH2 0xDBB JUMPI DUP2 PUSH4 0x2F2FF15D EQ PUSH2 0xD91 JUMPI DUP2 PUSH4 0x3013CE29 EQ PUSH2 0xD4D JUMPI DUP2 PUSH4 0x3197CBB6 EQ PUSH2 0xD12 JUMPI DUP2 PUSH4 0x36568ABE EQ PUSH2 0xCCC JUMPI DUP2 PUSH4 0x3F4BA83A EQ PUSH2 0xC62 JUMPI DUP2 PUSH4 0x42E94C90 EQ PUSH2 0xC2A JUMPI DUP2 PUSH4 0x4A3B68CC EQ PUSH2 0xBEF JUMPI DUP2 PUSH4 0x4B60CE77 EQ PUSH2 0xBAB JUMPI DUP2 PUSH4 0x5C975ABB EQ PUSH2 0xB87 JUMPI DUP2 PUSH4 0x6052970C EQ PUSH2 0xB43 JUMPI DUP2 PUSH4 0x60B0B0F0 EQ PUSH2 0x8E9 JUMPI DUP2 PUSH4 0x75B238FC EQ PUSH2 0x8AE JUMPI DUP2 PUSH4 0x767FA723 EQ PUSH2 0x7DB JUMPI DUP2 PUSH4 0x78E97925 EQ PUSH2 0x7A0 JUMPI DUP2 PUSH4 0x8456CB59 EQ PUSH2 0x746 JUMPI DUP2 PUSH4 0x8D3D6576 EQ PUSH2 0x70B JUMPI DUP2 PUSH4 0x906A26E0 EQ PUSH2 0x6D0 JUMPI DUP2 PUSH4 0x91D14854 EQ PUSH2 0x68A JUMPI DUP2 PUSH4 0xA217FDDF EQ PUSH2 0x66F JUMPI DUP2 PUSH4 0xA4317EF4 EQ PUSH2 0x650 JUMPI DUP2 PUSH4 0xA4475CE4 EQ PUSH2 0x60C JUMPI DUP2 PUSH4 0xA5917BAF EQ PUSH2 0x5C8 JUMPI DUP2 PUSH4 0xA9EDDF99 EQ PUSH2 0x4C8 JUMPI DUP2 PUSH4 0xAAFFADF3 EQ PUSH2 0x48D JUMPI DUP2 PUSH4 0xB30CA2DA EQ PUSH2 0x3C8 JUMPI DUP2 PUSH4 0xB5545A3C EQ PUSH2 0x29A JUMPI DUP2 PUSH4 0xC5C4744C EQ PUSH2 0x27B JUMPI DUP2 PUSH4 0xCD78D92C EQ PUSH2 0x232 JUMPI DUP2 PUSH4 0xD547741F EQ PUSH2 0x1EE JUMPI POP PUSH4 0xFB86A404 EQ PUSH2 0x1B1 JUMPI PUSH1 0x0 DUP1 REVERT JUMPDEST CALLVALUE PUSH2 0x1EA JUMPI DUP2 PUSH1 0x3 NOT CALLDATASIZE ADD SLT PUSH2 0x1EA JUMPI PUSH1 0x20 SWAP1 MLOAD PUSH32 0x0 DUP2 MSTORE RETURN JUMPDEST POP DUP1 REVERT JUMPDEST SWAP2 SWAP1 POP CALLVALUE PUSH2 0x22E JUMPI DUP1 PUSH1 0x3 NOT CALLDATASIZE ADD SLT PUSH2 0x22E JUMPI PUSH2 0x22A SWAP2 CALLDATALOAD PUSH2 0x225 PUSH1 0x1 PUSH2 0x213 PUSH2 0x1422 JUMP JUMPDEST SWAP4 DUP4 DUP8 MSTORE PUSH1 0x2 PUSH1 0x20 MSTORE DUP7 KECCAK256 ADD SLOAD PUSH2 0x14C8 JUMP JUMPDEST PUSH2 0x156E JUMP JUMPDEST POP DUP1 RETURN JUMPDEST DUP3 DUP1 REVERT JUMPDEST DUP3 DUP5 CALLVALUE PUSH2 0x278 JUMPI PUSH1 0x20 CALLDATASIZE PUSH1 0x3 NOT ADD SLT PUSH2 0x278 JUMPI PUSH1 0x1 PUSH1 0x1 PUSH1 0xA0 SHL SUB DUP1 PUSH2 0x256 PUSH2 0x1438 JUMP JUMPDEST AND DUP3 MSTORE PUSH1 0xA PUSH1 0x20 MSTORE DUP3 DUP1 DUP4 KECCAK256 SLOAD SWAP3 PUSH1 0xB PUSH1 0x20 MSTORE KECCAK256 SLOAD AND DUP3 MLOAD SWAP2 DUP3 MSTORE PUSH1 0x20 DUP3 ADD MSTORE RETURN JUMPDEST DUP1 REVERT JUMPDEST POP POP CALLVALUE PUSH2 0x1EA JUMPI DUP2 PUSH1 0x3 NOT CALLDATASIZE ADD SLT PUSH2 0x1EA JUMPI PUSH1 0x20 SWAP1 PUSH1 0x8 SLOAD SWAP1 MLOAD SWAP1 DUP2 MSTORE RETURN JUMPDEST SWAP2 SWAP1 POP CALLVALUE PUSH2 0x22E JUMPI DUP3 PUSH1 0x3 NOT CALLDATASIZE ADD SLT PUSH2 0x22E JUMPI PUSH2 0x2B5 PUSH2 0x1735 JUMP JUMPDEST PUSH1 0xFF PUSH1 0x7 SLOAD AND PUSH1 0x6 DUP2 LT ISZERO PUSH2 0x3B5 JUMPI DUP3 DUP2 EQ ISZERO SWAP1 DUP2 PUSH2 0x3A9 JUMPI JUMPDEST POP PUSH2 0x39C JUMPI CALLER DUP4 MSTORE PUSH1 0xA PUSH1 0x20 MSTORE DUP1 DUP4 KECCAK256 SLOAD SWAP2 DUP3 ISZERO PUSH2 0x38E JUMPI CALLER DUP5 MSTORE PUSH1 0xA PUSH1 0x20 MSTORE DUP2 DUP5 KECCAK256 DUP5 SWAP1 SSTORE DUP3 PUSH32 0x0 PUSH1 0x1 PUSH1 0x1 PUSH1 0xA0 SHL SUB AND DUP1 PUSH2 0x37D JUMPI POP DUP5 DUP1 DUP1 DUP1 SWAP4 CALLER GAS CALL PUSH2 0x336 PUSH2 0x189A JUMP JUMPDEST POP ISZERO PUSH2 0x36F JUMPI POP JUMPDEST MLOAD SWAP1 DUP2 MSTORE PUSH32 0xD7DEE2702D63AD89917B6A4DA9981C90C4D24F8C2BDFD64C604ECAE57D8D0651 PUSH1 0x20 CALLER SWAP3 LOG2 PUSH1 0x1 DUP2 SSTORE DUP1 RETURN JUMPDEST SWAP1 MLOAD PUSH4 0xB9DA5D2B PUSH1 0xE0 SHL DUP2 MSTORE REVERT JUMPDEST PUSH2 0x389 SWAP3 POP CALLER SWAP1 PUSH2 0x18DA JUMP JUMPDEST PUSH2 0x33E JUMP JUMPDEST SWAP1 MLOAD PUSH4 0x1971FBF3 PUSH1 0xE2 SHL DUP2 MSTORE REVERT JUMPDEST MLOAD PUSH4 0xB4D6981 PUSH1 0xE0 SHL DUP2 MSTORE REVERT JUMPDEST PUSH1 0x5 SWAP2 POP EQ ISZERO CODESIZE PUSH2 0x2CF JUMP JUMPDEST PUSH4 0x4E487B71 PUSH1 0xE0 SHL DUP5 MSTORE PUSH1 0x21 DUP4 MSTORE PUSH1 0x24 DUP5 REVERT JUMPDEST DUP4 DUP4 CALLVALUE PUSH2 0x1EA JUMPI PUSH2 0x3D8 CALLDATASIZE PUSH2 0x13B0 JUMP JUMPDEST SWAP2 PUSH2 0x3E1 PUSH2 0x144E JUMP JUMPDEST PUSH2 0x3E9 PUSH2 0x1758 JUMP JUMPDEST PUSH1 0x7 SLOAD PUSH1 0xFF DUP2 AND PUSH1 0x6 DUP2 LT ISZERO PUSH2 0x47A JUMPI PUSH1 0x2 SUB PUSH2 0x46A JUMPI PUSH1 0x8 SLOAD PUSH32 0x0 GT ISZERO PUSH2 0x46A JUMPI SWAP1 PUSH32 0x5B55ECCEA968A9BF1DF9A6702E20475AC67BB0D7F402F51701EEF38E619368FE SWAP5 SWAP6 PUSH2 0x464 SWAP3 PUSH1 0xFF NOT AND OR PUSH1 0x7 SSTORE MLOAD SWAP3 DUP4 SWAP3 DUP4 PUSH2 0x191B JUMP JUMPDEST SUB SWAP1 LOG1 DUP1 RETURN JUMPDEST DUP2 MLOAD PUSH4 0x7A92F19 PUSH1 0xE5 SHL DUP2 MSTORE DUP7 SWAP1 REVERT JUMPDEST PUSH4 0x4E487B71 PUSH1 0xE0 SHL DUP7 MSTORE PUSH1 0x21 DUP8 MSTORE PUSH1 0x24 DUP7 REVERT JUMPDEST POP POP CALLVALUE PUSH2 0x1EA JUMPI DUP2 PUSH1 0x3 NOT CALLDATASIZE ADD SLT PUSH2 0x1EA JUMPI PUSH1 0x20 SWAP1 MLOAD PUSH32 0x0 DUP2 MSTORE RETURN JUMPDEST SWAP1 POP CALLVALUE PUSH2 0x22E JUMPI PUSH1 0x80 CALLDATASIZE PUSH1 0x3 NOT ADD SLT PUSH2 0x22E JUMPI PUSH2 0x4E3 PUSH2 0x144E JUMP JUMPDEST PUSH1 0xFF PUSH1 0x7 SLOAD AND PUSH1 0x6 DUP2 LT ISZERO PUSH2 0x5B5 JUMPI PUSH2 0x5A8 JUMPI PUSH1 0x8 SLOAD PUSH2 0x5A8 JUMPI PUSH32 0x0 TIMESTAMP LT ISZERO PUSH2 0x5A8 JUMPI DUP1 CALLDATALOAD SWAP2 PUSH1 0x44 CALLDATALOAD SWAP1 PUSH1 0x24 CALLDATALOAD PUSH2 0x539 DUP4 DUP3 PUSH2 0x15E5 JUMP JUMPDEST SWAP4 PUSH2 0x547 PUSH1 0x64 CALLDATALOAD DUP1 SWAP7 PUSH2 0x15E5 JUMP JUMPDEST DUP7 SUB PUSH2 0x59A JUMPI SWAP2 DUP2 DUP7 SWAP5 SWAP3 PUSH1 0x80 SWAP7 SWAP5 PUSH32 0xAD166D8BE1925EE44C5A77600B8A5F7E58CBE711C0DBD99624014A81B8350BA SWAP9 PUSH1 0x3 SSTORE SSTORE DUP3 PUSH1 0x5 SSTORE DUP4 PUSH1 0x6 SSTORE DUP2 MLOAD SWAP5 DUP6 MSTORE PUSH1 0x20 DUP6 ADD MSTORE DUP4 ADD MSTORE PUSH1 0x60 DUP3 ADD MSTORE LOG1 DUP1 RETURN JUMPDEST DUP3 MLOAD PUSH4 0x2B00A33D PUSH1 0xE1 SHL DUP2 MSTORE REVERT JUMPDEST SWAP1 MLOAD PUSH3 0xB5D7E1 PUSH1 0xE8 SHL DUP2 MSTORE REVERT JUMPDEST PUSH4 0x4E487B71 PUSH1 0xE0 SHL DUP5 MSTORE PUSH1 0x21 DUP3 MSTORE PUSH1 0x24 DUP5 REVERT JUMPDEST POP POP CALLVALUE PUSH2 0x1EA JUMPI DUP2 PUSH1 0x3 NOT CALLDATASIZE ADD SLT PUSH2 0x1EA JUMPI MLOAD PUSH32 0x0 PUSH1 0x1 PUSH1 0x1 PUSH1 0xA0 SHL SUB AND DUP2 MSTORE PUSH1 0x20 SWAP1 RETURN JUMPDEST POP POP CALLVALUE PUSH2 0x1EA JUMPI DUP2 PUSH1 0x3 NOT CALLDATASIZE ADD SLT PUSH2 0x1EA JUMPI MLOAD PUSH32 0x0 PUSH1 0x1 PUSH1 0x1 PUSH1 0xA0 SHL SUB AND DUP2 MSTORE PUSH1 0x20 SWAP1 RETURN JUMPDEST POP POP CALLVALUE PUSH2 0x1EA JUMPI DUP2 PUSH1 0x3 NOT CALLDATASIZE ADD SLT PUSH2 0x1EA JUMPI PUSH1 0x20 SWAP1 PUSH1 0x9 SLOAD SWAP1 MLOAD SWAP1 DUP2 MSTORE RETURN JUMPDEST POP POP CALLVALUE PUSH2 0x1EA JUMPI DUP2 PUSH1 0x3 NOT CALLDATASIZE ADD SLT PUSH2 0x1EA JUMPI MLOAD SWAP1 DUP2 MSTORE PUSH1 0x20 SWAP1 RETURN JUMPDEST SWAP1 POP CALLVALUE PUSH2 0x22E JUMPI DUP2 PUSH1 0x3 NOT CALLDATASIZE ADD SLT PUSH2 0x22E JUMPI DUP2 PUSH1 0x20 SWAP4 PUSH2 0x6A8 PUSH2 0x1422 JUMP JUMPDEST SWAP3 CALLDATALOAD DUP2 MSTORE PUSH1 0x2 DUP6 MSTORE KECCAK256 SWAP1 PUSH1 0x1 DUP1 PUSH1 0xA0 SHL SUB AND PUSH1 0x0 MSTORE DUP3 MSTORE PUSH1 0xFF DUP2 PUSH1 0x0 KECCAK256 SLOAD AND SWAP1 MLOAD SWAP1 ISZERO ISZERO DUP2 MSTORE RETURN JUMPDEST POP POP CALLVALUE PUSH2 0x1EA JUMPI DUP2 PUSH1 0x3 NOT CALLDATASIZE ADD SLT PUSH2 0x1EA JUMPI PUSH1 0x20 SWAP1 MLOAD PUSH32 0x0 DUP2 MSTORE RETURN JUMPDEST POP POP CALLVALUE PUSH2 0x1EA JUMPI DUP2 PUSH1 0x3 NOT CALLDATASIZE ADD SLT PUSH2 0x1EA JUMPI PUSH1 0x20 SWAP1 MLOAD PUSH32 0x0 DUP2 MSTORE RETURN JUMPDEST POP POP CALLVALUE PUSH2 0x1EA JUMPI DUP2 PUSH1 0x3 NOT CALLDATASIZE ADD SLT PUSH2 0x1EA JUMPI PUSH1 0x20 PUSH32 0x62E78CEA01BEE320CD4E420270B5EA74000D11B0C9F74754EBDBFC544B05A258 SWAP2 PUSH2 0x784 PUSH2 0x144E JUMP JUMPDEST PUSH2 0x78C PUSH2 0x1717 JUMP JUMPDEST PUSH1 0x1 PUSH1 0xFF NOT DUP2 SLOAD AND OR PUSH1 0x1 SSTORE MLOAD CALLER DUP2 MSTORE LOG1 DUP1 RETURN JUMPDEST POP POP CALLVALUE PUSH2 0x1EA JUMPI DUP2 PUSH1 0x3 NOT CALLDATASIZE ADD SLT PUSH2 0x1EA JUMPI PUSH1 0x20 SWAP1 MLOAD PUSH32 0x0 DUP2 MSTORE RETURN JUMPDEST POP POP CALLVALUE PUSH2 0x1EA JUMPI DUP2 PUSH1 0x3 NOT CALLDATASIZE ADD SLT PUSH2 0x1EA JUMPI PUSH1 0xE0 SWAP1 PUSH1 0xFF PUSH1 0x7 SLOAD AND SWAP1 PUSH1 0x8 SLOAD SWAP1 PUSH1 0x9 SLOAD SWAP2 PUSH2 0x80B DUP3 MLOAD DUP1 SWAP6 PUSH2 0x13FF JUMP JUMPDEST PUSH1 0x20 DUP5 ADD MSTORE PUSH32 0x0 SWAP1 DUP4 ADD MSTORE PUSH32 0x0 PUSH1 0x60 DUP4 ADD MSTORE PUSH32 0x0 PUSH1 0x80 DUP4 ADD MSTORE PUSH32 0x0 PUSH1 0xA0 DUP4 ADD MSTORE PUSH1 0xC0 DUP3 ADD MSTORE RETURN JUMPDEST POP POP CALLVALUE PUSH2 0x1EA JUMPI DUP2 PUSH1 0x3 NOT CALLDATASIZE ADD SLT PUSH2 0x1EA JUMPI PUSH1 0x20 SWAP1 MLOAD PUSH32 0xA49807205CE4D355092EF5A8A18F56E8913CF4A201FBE287825B095693C21775 DUP2 MSTORE RETURN JUMPDEST SWAP1 POP DUP2 PUSH1 0x3 NOT CALLDATASIZE ADD SLT PUSH2 0x22E JUMPI DUP1 CALLDATALOAD SWAP1 PUSH2 0x901 PUSH2 0x1422 JUMP JUMPDEST SWAP1 PUSH2 0x90A PUSH2 0x1735 JUMP JUMPDEST PUSH2 0x912 PUSH2 0x1717 JUMP JUMPDEST PUSH2 0x91A PUSH2 0x1758 JUMP JUMPDEST PUSH1 0xFF PUSH1 0x7 SLOAD AND PUSH1 0x6 DUP2 LT ISZERO PUSH2 0xB30 JUMPI PUSH1 0x1 SUB PUSH2 0xB22 JUMPI CALLER DUP6 MSTORE PUSH1 0x20 SWAP2 PUSH1 0xA DUP4 MSTORE PUSH2 0x947 DUP5 DUP7 DUP9 KECCAK256 SLOAD PUSH2 0x15E5 JUMP JUMPDEST PUSH32 0x0 DUP2 LT PUSH2 0xB12 JUMPI PUSH32 0x0 LT PUSH2 0xB03 JUMPI PUSH2 0x9A0 DUP5 PUSH1 0x8 SLOAD PUSH2 0x15E5 JUMP JUMPDEST PUSH32 0x0 LT PUSH2 0xAF4 JUMPI PUSH1 0x1 PUSH1 0x1 PUSH1 0xA0 SHL SUB SWAP2 DUP5 PUSH32 0x0 DUP5 AND DUP1 PUSH2 0xABA JUMPI POP CALLVALUE SUB PUSH2 0xAAC JUMPI POP SWAP1 DUP1 PUSH32 0xEC470969F3350CA5A15F0D85053F8763FFD0EE39C7B74FCDC5AF7862718E292A SWAP4 SWAP3 JUMPDEST CALLER DUP9 MSTORE PUSH1 0xA DUP5 MSTORE DUP7 DUP9 KECCAK256 PUSH2 0xA3B DUP8 DUP3 SLOAD PUSH2 0x15E5 JUMP JUMPDEST SWAP1 SSTORE PUSH2 0xA49 DUP7 PUSH1 0x8 SLOAD PUSH2 0x15E5 JUMP JUMPDEST PUSH1 0x8 SSTORE AND DUP1 ISZERO ISZERO DUP1 PUSH2 0xA98 JUMPI JUMPDEST PUSH2 0xA77 JUMPI JUMPDEST POP CALLER DUP7 MSTORE PUSH1 0xB DUP3 MSTORE DUP5 DUP7 KECCAK256 SLOAD AND SWAP4 MLOAD SWAP3 DUP4 MSTORE CALLER SWAP3 LOG3 PUSH1 0x1 DUP2 SSTORE DUP1 RETURN JUMPDEST CALLER DUP8 MSTORE PUSH1 0xB DUP4 MSTORE DUP6 DUP8 KECCAK256 DUP1 SLOAD PUSH1 0x1 PUSH1 0x1 PUSH1 0xA0 SHL SUB NOT AND SWAP1 SWAP2 OR SWAP1 SSTORE CODESIZE PUSH2 0xA5B JUMP JUMPDEST POP CALLER DUP8 MSTORE PUSH1 0xB DUP4 MSTORE DUP2 DUP7 DUP9 KECCAK256 SLOAD AND ISZERO PUSH2 0xA56 JUMP JUMPDEST DUP6 MLOAD PUSH4 0x7A92F19 PUSH1 0xE5 SHL DUP2 MSTORE REVERT JUMPDEST DUP5 SWAP4 SWAP2 PUSH32 0xEC470969F3350CA5A15F0D85053F8763FFD0EE39C7B74FCDC5AF7862718E292A SWAP7 SWAP6 SWAP4 POP PUSH2 0xAEF SWAP2 ADDRESS SWAP1 CALLER SWAP1 PUSH2 0x1654 JUMP JUMPDEST PUSH2 0xA26 JUMP JUMPDEST POP DUP4 MLOAD PUSH4 0x1C4AF3C9 PUSH1 0xE1 SHL DUP2 MSTORE REVERT JUMPDEST POP DUP4 MLOAD PUSH4 0x74368FB9 PUSH1 0xE1 SHL DUP2 MSTORE REVERT JUMPDEST DUP6 MLOAD PUSH4 0x860B82A9 PUSH1 0xE0 SHL DUP2 MSTORE DUP4 SWAP1 REVERT JUMPDEST DUP4 MLOAD PUSH4 0x7A92F19 PUSH1 0xE5 SHL DUP2 MSTORE REVERT JUMPDEST PUSH4 0x4E487B71 PUSH1 0xE0 SHL DUP7 MSTORE PUSH1 0x21 DUP3 MSTORE PUSH1 0x24 DUP7 REVERT JUMPDEST POP POP CALLVALUE PUSH2 0x1EA JUMPI DUP2 PUSH1 0x3 NOT CALLDATASIZE ADD SLT PUSH2 0x1EA JUMPI MLOAD PUSH32 0x0 PUSH1 0x1 PUSH1 0x1 PUSH1 0xA0 SHL SUB AND DUP2 MSTORE PUSH1 0x20 SWAP1 RETURN JUMPDEST POP POP CALLVALUE PUSH2 0x1EA JUMPI DUP2 PUSH1 0x3 NOT CALLDATASIZE ADD SLT PUSH2 0x1EA JUMPI PUSH1 0x20 SWAP1 PUSH1 0xFF PUSH1 0x1 SLOAD AND SWAP1 MLOAD SWAP1 ISZERO ISZERO DUP2 MSTORE RETURN JUMPDEST POP POP CALLVALUE PUSH2 0x1EA JUMPI DUP2 PUSH1 0x3 NOT CALLDATASIZE ADD SLT PUSH2 0x1EA JUMPI MLOAD PUSH32 0x0 PUSH1 0x1 PUSH1 0x1 PUSH1 0xA0 SHL SUB AND DUP2 MSTORE PUSH1 0x20 SWAP1 RETURN JUMPDEST POP POP CALLVALUE PUSH2 0x1EA JUMPI PUSH1 0x20 CALLDATASIZE PUSH1 0x3 NOT ADD SLT PUSH2 0x1EA JUMPI PUSH1 0x20 SWAP2 PUSH1 0x1 PUSH1 0x1 PUSH1 0xA0 SHL SUB SWAP1 DUP3 SWAP1 DUP3 PUSH2 0xC19 PUSH2 0x1438 JUMP JUMPDEST AND DUP2 MSTORE PUSH1 0xB DUP6 MSTORE KECCAK256 SLOAD AND SWAP1 MLOAD SWAP1 DUP2 MSTORE RETURN JUMPDEST POP POP CALLVALUE PUSH2 0x1EA JUMPI PUSH1 0x20 CALLDATASIZE PUSH1 0x3 NOT ADD SLT PUSH2 0x1EA JUMPI PUSH1 0x20 SWAP2 DUP2 SWAP1 PUSH1 0x1 PUSH1 0x1 PUSH1 0xA0 SHL SUB PUSH2 0xC52 PUSH2 0x1438 JUMP JUMPDEST AND DUP2 MSTORE PUSH1 0xA DUP5 MSTORE KECCAK256 SLOAD SWAP1 MLOAD SWAP1 DUP2 MSTORE RETURN JUMPDEST SWAP1 POP CALLVALUE PUSH2 0x22E JUMPI DUP3 PUSH1 0x3 NOT CALLDATASIZE ADD SLT PUSH2 0x22E JUMPI PUSH2 0xC7C PUSH2 0x144E JUMP JUMPDEST PUSH1 0x1 SLOAD SWAP1 PUSH1 0xFF DUP3 AND ISZERO PUSH2 0xCBE JUMPI POP PUSH1 0xFF NOT AND PUSH1 0x1 SSTORE MLOAD CALLER DUP2 MSTORE PUSH32 0x5DB9EE0A495BF2E6FF9C91A7834C1BA4FDD244A5E8AA4E537BD38AEAE4B073AA SWAP1 PUSH1 0x20 SWAP1 LOG1 DUP1 RETURN JUMPDEST DUP3 MLOAD PUSH4 0x8DFC202B PUSH1 0xE0 SHL DUP2 MSTORE REVERT JUMPDEST DUP4 DUP4 CALLVALUE PUSH2 0x1EA JUMPI DUP1 PUSH1 0x3 NOT CALLDATASIZE ADD SLT PUSH2 0x1EA JUMPI PUSH2 0xCE6 PUSH2 0x1422 JUMP JUMPDEST SWAP1 CALLER PUSH1 0x1 PUSH1 0x1 PUSH1 0xA0 SHL SUB DUP4 AND SUB PUSH2 0xD03 JUMPI POP PUSH2 0x22A SWAP2 SWAP3 CALLDATALOAD PUSH2 0x156E JUMP JUMPDEST MLOAD PUSH4 0x334BD919 PUSH1 0xE1 SHL DUP2 MSTORE DUP4 SWAP1 REVERT JUMPDEST POP POP CALLVALUE PUSH2 0x1EA JUMPI DUP2 PUSH1 0x3 NOT CALLDATASIZE ADD SLT PUSH2 0x1EA JUMPI PUSH1 0x20 SWAP1 MLOAD PUSH32 0x0 DUP2 MSTORE RETURN JUMPDEST POP POP CALLVALUE PUSH2 0x1EA JUMPI DUP2 PUSH1 0x3 NOT CALLDATASIZE ADD SLT PUSH2 0x1EA JUMPI MLOAD PUSH32 0x0 PUSH1 0x1 PUSH1 0x1 PUSH1 0xA0 SHL SUB AND DUP2 MSTORE PUSH1 0x20 SWAP1 RETURN JUMPDEST SWAP2 SWAP1 POP CALLVALUE PUSH2 0x22E JUMPI DUP1 PUSH1 0x3 NOT CALLDATASIZE ADD SLT PUSH2 0x22E JUMPI PUSH2 0x22A SWAP2 CALLDATALOAD PUSH2 0xDB6 PUSH1 0x1 PUSH2 0x213 PUSH2 0x1422 JUMP JUMPDEST PUSH2 0x14EE JUMP JUMPDEST SWAP1 POP CALLVALUE PUSH2 0x22E JUMPI PUSH1 0x20 CALLDATASIZE PUSH1 0x3 NOT ADD SLT PUSH2 0x22E JUMPI DUP2 PUSH1 0x20 SWAP4 PUSH1 0x1 SWAP3 CALLDATALOAD DUP2 MSTORE PUSH1 0x2 DUP6 MSTORE KECCAK256 ADD SLOAD SWAP1 MLOAD SWAP1 DUP2 MSTORE RETURN JUMPDEST POP POP CALLVALUE PUSH2 0x1EA JUMPI DUP2 PUSH1 0x3 NOT CALLDATASIZE ADD SLT PUSH2 0x1EA JUMPI PUSH1 0x20 SWAP1 PUSH2 0xE0D PUSH1 0xFF PUSH1 0x7 SLOAD AND SWAP2 MLOAD DUP1 SWAP3 PUSH2 0x13FF JUMP JUMPDEST RETURN JUMPDEST SWAP2 SWAP1 POP CALLVALUE PUSH2 0x22E JUMPI DUP3 PUSH1 0x3 NOT CALLDATASIZE ADD SLT PUSH2 0x22E JUMPI PUSH1 0x80 SWAP3 POP PUSH1 0x3 SLOAD SWAP2 SLOAD SWAP1 PUSH1 0x5 SLOAD SWAP1 PUSH1 0x6 SLOAD SWAP3 DUP2 MLOAD SWAP5 DUP6 MSTORE PUSH1 0x20 DUP6 ADD MSTORE DUP4 ADD MSTORE PUSH1 0x60 DUP3 ADD MSTORE RETURN JUMPDEST SWAP2 SWAP1 POP CALLVALUE PUSH2 0x22E JUMPI DUP1 PUSH1 0x3 NOT CALLDATASIZE ADD SLT PUSH2 0x22E JUMPI PUSH1 0x24 SWAP2 DUP3 CALLDATALOAD SWAP3 PUSH2 0xE69 PUSH2 0x144E JUMP JUMPDEST PUSH2 0xE71 PUSH2 0x1735 JUMP JUMPDEST PUSH2 0xE79 PUSH2 0x1758 JUMP JUMPDEST PUSH1 0xFF PUSH1 0x7 SLOAD AND PUSH1 0x6 DUP2 LT ISZERO PUSH2 0x12C1 JUMPI PUSH1 0x2 SUB PUSH2 0x12B2 JUMPI PUSH1 0x8 SLOAD SWAP1 PUSH32 0x0 DUP3 LT PUSH2 0x12A2 JUMPI PUSH1 0x3 SLOAD DUP1 DUP4 MUL SWAP1 DUP4 DUP3 DIV EQ DUP4 ISZERO OR ISZERO PUSH2 0x1290 JUMPI PUSH2 0x2710 SWAP1 DIV SWAP5 DUP6 DUP4 SUB SWAP3 DUP4 GT PUSH2 0x1290 JUMPI PUSH32 0x0 SWAP2 PUSH1 0x1 PUSH1 0x1 PUSH1 0xA0 SHL SUB SWAP2 DUP9 SWAP1 DUP4 PUSH32 0x0 PUSH2 0xF5A DUP4 DUP3 DUP10 PUSH32 0x0 DUP7 AND PUSH2 0x1654 JUMP JUMPDEST AND DUP1 EXTCODESIZE ISZERO PUSH2 0x22E JUMPI PUSH1 0x44 DUP4 SWAP3 DUP11 MLOAD SWAP5 DUP6 SWAP4 DUP5 SWAP3 PUSH4 0x7C382D0B PUSH1 0xE0 SHL DUP5 MSTORE DUP13 CALLDATALOAD DUP14 DUP6 ADD MSTORE DUP9 DUP5 ADD MSTORE GAS CALL DUP1 ISZERO PUSH2 0x1286 JUMPI PUSH2 0x126D JUMPI JUMPDEST POP DUP8 SWAP4 SWAP3 SWAP2 PUSH32 0x0 DUP1 DUP3 AND SWAP3 DUP4 ISZERO SWAP3 SWAP2 SWAP1 DUP4 ISZERO PUSH2 0x10E2 JUMPI POP POP PUSH32 0x0 AND DUP1 EXTCODESIZE ISZERO PUSH2 0x10DE JUMPI DUP6 DUP10 SWAP2 DUP9 DUP11 MLOAD DUP1 SWAP5 DUP2 SWAP4 PUSH4 0x990087B7 PUSH1 0xE0 SHL DUP4 MSTORE GAS CALL DUP1 ISZERO PUSH2 0x10D4 JUMPI SWAP1 DUP7 SWAP2 PUSH2 0x10BC JUMPI JUMPDEST POP POP JUMPDEST ISZERO PUSH2 0x1083 JUMPI POP DUP3 DUP1 SWAP3 DUP2 SWAP3 GAS CALL PUSH2 0x102A PUSH2 0x189A JUMP JUMPDEST POP ISZERO PUSH2 0x36F JUMPI POP PUSH32 0xF3E2F1D90BD58F6807B6468783C27FDC68307B057882B3CA4EB0F3BB21167899 SWAP2 PUSH1 0x60 SWAP2 JUMPDEST TIMESTAMP PUSH1 0x9 SSTORE PUSH1 0x3 PUSH1 0xFF NOT PUSH1 0x7 SLOAD AND OR PUSH1 0x7 SSTORE PUSH1 0x8 SLOAD SWAP2 DUP2 MLOAD SWAP3 DUP4 MSTORE PUSH1 0x20 DUP4 ADD MSTORE TIMESTAMP SWAP1 DUP3 ADD MSTORE LOG1 PUSH1 0x1 DUP2 SSTORE DUP1 RETURN JUMPDEST PUSH32 0xF3E2F1D90BD58F6807B6468783C27FDC68307B057882B3CA4EB0F3BB21167899 SWAP7 SWAP5 POP PUSH1 0x60 SWAP6 SWAP4 POP SWAP1 PUSH2 0x10B7 SWAP3 SWAP2 PUSH2 0x18DA JUMP JUMPDEST PUSH2 0x1057 JUMP JUMPDEST PUSH2 0x10C5 SWAP1 PUSH2 0x1608 JUMP JUMPDEST PUSH2 0x10D0 JUMPI DUP5 CODESIZE PUSH2 0x1012 JUMP JUMPDEST DUP5 DUP1 REVERT JUMPDEST DUP9 MLOAD RETURNDATASIZE DUP9 DUP3 RETURNDATACOPY RETURNDATASIZE SWAP1 REVERT JUMPDEST DUP6 DUP1 REVERT JUMPDEST DUP11 SWAP10 SWAP9 SWAP8 SWAP11 SWAP3 SWAP2 SWAP3 PUSH32 0x0 SWAP2 PUSH1 0x20 DUP12 MLOAD SWAP15 DUP16 DUP3 DUP2 ADD SWAP1 PUSH2 0x1155 DUP2 PUSH2 0x1147 PUSH4 0x95EA7B3 PUSH1 0xE0 SHL SWAP9 DUP10 DUP7 MSTORE DUP11 DUP10 DUP5 ADD PUSH1 0x20 SWAP1 SWAP4 SWAP3 SWAP2 SWAP4 PUSH1 0x40 DUP2 ADD SWAP5 PUSH1 0x1 DUP1 PUSH1 0xA0 SHL SUB AND DUP2 MSTORE ADD MSTORE JUMP JUMPDEST SUB PUSH1 0x1F NOT DUP2 ADD DUP4 MSTORE DUP3 PUSH2 0x1632 JUMP JUMPDEST MLOAD SWAP1 DUP3 DUP12 GAS CALL DUP14 MLOAD RETURNDATASIZE DUP16 DUP4 PUSH2 0x124F JUMPI JUMPDEST POP POP POP ISZERO PUSH2 0x11E2 JUMPI JUMPDEST POP POP DUP11 SWAP12 POP SWAP10 SWAP7 SWAP8 SWAP9 SWAP10 AND DUP1 EXTCODESIZE ISZERO PUSH2 0x11DE JUMPI DUP9 MLOAD PUSH4 0x398DA911 PUSH1 0xE0 SHL DUP2 MSTORE PUSH1 0x1 PUSH1 0x1 PUSH1 0xA0 SHL SUB SWAP1 SWAP3 AND DUP3 DUP10 ADD SWAP1 DUP2 MSTORE PUSH1 0x20 DUP2 ADD DUP12 SWAP1 MSTORE DUP8 SWAP2 DUP4 SWAP2 DUP3 SWAP1 DUP5 SWAP1 DUP3 SWAP1 PUSH1 0x40 ADD SUB SWAP3 GAS CALL DUP1 ISZERO PUSH2 0x10D4 JUMPI SWAP1 DUP7 SWAP2 PUSH2 0x11CA JUMPI JUMPDEST POP POP PUSH2 0x1015 JUMP JUMPDEST PUSH2 0x11D3 SWAP1 PUSH2 0x1608 JUMP JUMPDEST PUSH2 0x10D0 JUMPI DUP5 CODESIZE PUSH2 0x11C3 JUMP JUMPDEST DUP7 DUP1 REVERT JUMPDEST DUP11 MLOAD SWAP2 PUSH1 0x20 DUP4 ADD MSTORE DUP4 DUP4 AND DUP2 DUP4 ADD MSTORE DUP13 PUSH1 0x44 DUP4 ADD MSTORE PUSH1 0x44 DUP3 MSTORE PUSH1 0x80 DUP3 ADD SWAP1 DUP3 DUP3 LT PUSH8 0xFFFFFFFFFFFFFFFF DUP4 GT OR PUSH2 0x123C JUMPI POP SWAP13 PUSH2 0x122A PUSH2 0x1230 SWAP3 DUP15 SWAP16 DUP14 SWAP15 SWAP16 SWAP13 SWAP14 MSTORE DUP9 PUSH2 0x16AF JUMP JUMPDEST DUP7 PUSH2 0x16AF JUMP JUMPDEST CODESIZE DUP1 SWAP12 SWAP11 SWAP10 SWAP9 SWAP12 PUSH2 0x116E JUMP JUMPDEST PUSH4 0x4E487B71 PUSH1 0xE0 SHL PUSH1 0x0 SWAP1 DUP2 MSTORE PUSH1 0x41 DUP13 MSTORE REVERT JUMPDEST POP SWAP1 SWAP2 POP PUSH2 0x1265 JUMPI POP DUP7 EXTCODESIZE ISZERO ISZERO JUMPDEST CODESIZE DUP1 DUP16 PUSH2 0x1165 JUMP JUMPDEST PUSH1 0x1 EQ PUSH2 0x125D JUMP JUMPDEST PUSH2 0x127C SWAP1 SWAP9 SWAP2 SWAP5 SWAP4 SWAP3 SWAP9 PUSH2 0x1608 JUMP JUMPDEST SWAP7 SWAP1 SWAP2 SWAP3 CODESIZE PUSH2 0xF8E JUMP JUMPDEST DUP8 MLOAD RETURNDATASIZE DUP12 DUP3 RETURNDATACOPY RETURNDATASIZE SWAP1 REVERT JUMPDEST POP PUSH4 0x4E487B71 PUSH1 0xE0 SHL DUP7 MSTORE PUSH1 0x11 DUP4 MSTORE DUP6 REVERT JUMPDEST DUP4 MLOAD PUSH4 0x46C21A55 PUSH1 0xE0 SHL DUP2 MSTORE DUP4 SWAP1 REVERT JUMPDEST POP SWAP1 MLOAD PUSH4 0x7A92F19 PUSH1 0xE5 SHL DUP2 MSTORE REVERT JUMPDEST POP PUSH4 0x4E487B71 PUSH1 0xE0 SHL DUP6 MSTORE PUSH1 0x21 DUP3 MSTORE DUP5 REVERT JUMPDEST DUP4 SWAP2 POP CALLVALUE PUSH2 0x1EA JUMPI PUSH2 0x12E4 CALLDATASIZE PUSH2 0x13B0 JUMP JUMPDEST SWAP2 PUSH2 0x12ED PUSH2 0x144E JUMP JUMPDEST PUSH2 0x12F5 PUSH2 0x1758 JUMP JUMPDEST PUSH1 0x7 SLOAD SWAP1 PUSH1 0xFF DUP3 AND PUSH1 0x6 DUP2 LT ISZERO PUSH2 0xB30 JUMPI DUP1 ISZERO ISZERO SWAP1 DUP2 PUSH2 0x1351 JUMPI JUMPDEST POP PUSH2 0xAAC JUMPI POP PUSH32 0x2AC842F90DAB3279148F7E55AC91D911F75C1C300A202A5250E05400B15FA156 SWAP4 SWAP5 PUSH1 0x5 PUSH2 0x464 SWAP3 PUSH1 0xFF NOT AND OR PUSH1 0x7 SSTORE MLOAD SWAP3 DUP4 SWAP3 DUP4 PUSH2 0x191B JUMP JUMPDEST PUSH1 0x1 SWAP2 POP EQ ISZERO DUP8 PUSH2 0x1310 JUMP JUMPDEST DUP5 SWAP2 CALLVALUE PUSH2 0x22E JUMPI PUSH1 0x20 CALLDATASIZE PUSH1 0x3 NOT ADD SLT PUSH2 0x22E JUMPI CALLDATALOAD PUSH4 0xFFFFFFFF PUSH1 0xE0 SHL DUP2 AND DUP1 SWAP2 SUB PUSH2 0x22E JUMPI PUSH1 0x20 SWAP3 POP PUSH4 0x7965DB0B PUSH1 0xE0 SHL DUP2 EQ SWAP1 DUP2 ISZERO PUSH2 0x139F JUMPI JUMPDEST POP ISZERO ISZERO DUP2 MSTORE RETURN JUMPDEST PUSH4 0x1FFC9A7 PUSH1 0xE0 SHL EQ SWAP1 POP DUP4 PUSH2 0x1398 JUMP JUMPDEST SWAP1 PUSH1 0x20 PUSH1 0x3 NOT DUP4 ADD SLT PUSH2 0x13FA JUMPI PUSH1 0x4 CALLDATALOAD PUSH8 0xFFFFFFFFFFFFFFFF SWAP3 DUP4 DUP3 GT PUSH2 0x13FA JUMPI DUP1 PUSH1 0x23 DUP4 ADD SLT ISZERO PUSH2 0x13FA JUMPI DUP2 PUSH1 0x4 ADD CALLDATALOAD SWAP4 DUP5 GT PUSH2 0x13FA JUMPI PUSH1 0x24 DUP5 DUP4 ADD ADD GT PUSH2 0x13FA JUMPI PUSH1 0x24 ADD SWAP2 SWAP1 JUMP JUMPDEST PUSH1 0x0 DUP1 REVERT JUMPDEST SWAP1 PUSH1 0x6 DUP3 LT ISZERO PUSH2 0x140C JUMPI MSTORE JUMP JUMPDEST PUSH4 0x4E487B71 PUSH1 0xE0 SHL PUSH1 0x0 MSTORE PUSH1 0x21 PUSH1 0x4 MSTORE PUSH1 0x24 PUSH1 0x0 REVERT JUMPDEST PUSH1 0x24 CALLDATALOAD SWAP1 PUSH1 0x1 PUSH1 0x1 PUSH1 0xA0 SHL SUB DUP3 AND DUP3 SUB PUSH2 0x13FA JUMPI JUMP JUMPDEST PUSH1 0x4 CALLDATALOAD SWAP1 PUSH1 0x1 PUSH1 0x1 PUSH1 0xA0 SHL SUB DUP3 AND DUP3 SUB PUSH2 0x13FA JUMPI JUMP JUMPDEST CALLER PUSH1 0x0 SWAP1 DUP2 MSTORE PUSH32 0xE5EBFA64FCA8D502A8E50C1EDFFD2C31EF4DAD5B396E65D9F397FB028F74ABC5 PUSH1 0x20 MSTORE PUSH1 0x40 SWAP1 KECCAK256 SLOAD PUSH32 0xA49807205CE4D355092EF5A8A18F56E8913CF4A201FBE287825B095693C21775 SWAP1 PUSH1 0xFF AND ISZERO PUSH2 0x14AA JUMPI POP JUMP JUMPDEST PUSH1 0x44 SWAP1 PUSH1 0x40 MLOAD SWAP1 PUSH4 0xE2517D3F PUSH1 0xE0 SHL DUP3 MSTORE CALLER PUSH1 0x4 DUP4 ADD MSTORE PUSH1 0x24 DUP3 ADD MSTORE REVERT JUMPDEST DUP1 PUSH1 0x0 MSTORE PUSH1 0x2 PUSH1 0x20 MSTORE PUSH1 0x40 PUSH1 0x0 KECCAK256 CALLER PUSH1 0x0 MSTORE PUSH1 0x20 MSTORE PUSH1 0xFF PUSH1 0x40 PUSH1 0x0 KECCAK256 SLOAD AND ISZERO PUSH2 0x14AA JUMPI POP JUMP JUMPDEST SWAP1 PUSH1 0x0 SWAP2 DUP1 DUP4 MSTORE PUSH1 0x2 PUSH1 0x20 MSTORE PUSH1 0x40 DUP4 KECCAK256 SWAP2 PUSH1 0x1 DUP1 PUSH1 0xA0 SHL SUB AND SWAP2 DUP3 DUP5 MSTORE PUSH1 0x20 MSTORE PUSH1 0xFF PUSH1 0x40 DUP5 KECCAK256 SLOAD AND ISZERO PUSH1 0x0 EQ PUSH2 0x1569 JUMPI DUP1 DUP4 MSTORE PUSH1 0x2 PUSH1 0x20 MSTORE PUSH1 0x40 DUP4 KECCAK256 DUP3 DUP5 MSTORE PUSH1 0x20 MSTORE PUSH1 0x40 DUP4 KECCAK256 PUSH1 0x1 PUSH1 0xFF NOT DUP3 SLOAD AND OR SWAP1 SSTORE PUSH32 0x2F8788117E7EFF1D82E926EC794901D17C78024A50270940304540A733656F0D CALLER SWAP4 DUP1 LOG4 PUSH1 0x1 SWAP1 JUMP JUMPDEST POP POP SWAP1 JUMP JUMPDEST SWAP1 PUSH1 0x0 SWAP2 DUP1 DUP4 MSTORE PUSH1 0x2 PUSH1 0x20 MSTORE PUSH1 0x40 DUP4 KECCAK256 SWAP2 PUSH1 0x1 DUP1 PUSH1 0xA0 SHL SUB AND SWAP2 DUP3 DUP5 MSTORE PUSH1 0x20 MSTORE PUSH1 0xFF PUSH1 0x40 DUP5 KECCAK256 SLOAD AND PUSH1 0x0 EQ PUSH2 0x1569 JUMPI DUP1 DUP4 MSTORE PUSH1 0x2 PUSH1 0x20 MSTORE PUSH1 0x40 DUP4 KECCAK256 DUP3 DUP5 MSTORE PUSH1 0x20 MSTORE PUSH1 0x40 DUP4 KECCAK256 PUSH1 0xFF NOT DUP2 SLOAD AND SWAP1 SSTORE PUSH32 0xF6391F5C32D9C69D2A47EA670B442974B53935D1EDC7FD64EB21E047A839171B CALLER SWAP4 DUP1 LOG4 PUSH1 0x1 SWAP1 JUMP JUMPDEST SWAP2 SWAP1 DUP3 ADD DUP1 SWAP3 GT PUSH2 0x15F2 JUMPI JUMP JUMPDEST PUSH4 0x4E487B71 PUSH1 0xE0 SHL PUSH1 0x0 MSTORE PUSH1 0x11 PUSH1 0x4 MSTORE PUSH1 0x24 PUSH1 0x0 REVERT JUMPDEST PUSH8 0xFFFFFFFFFFFFFFFF DUP2 GT PUSH2 0x161C JUMPI PUSH1 0x40 MSTORE JUMP JUMPDEST PUSH4 0x4E487B71 PUSH1 0xE0 SHL PUSH1 0x0 MSTORE PUSH1 0x41 PUSH1 0x4 MSTORE PUSH1 0x24 PUSH1 0x0 REVERT JUMPDEST SWAP1 PUSH1 0x1F DUP1 NOT SWAP2 ADD AND DUP2 ADD SWAP1 DUP2 LT PUSH8 0xFFFFFFFFFFFFFFFF DUP3 GT OR PUSH2 0x161C JUMPI PUSH1 0x40 MSTORE JUMP JUMPDEST PUSH1 0x40 MLOAD PUSH4 0x23B872DD PUSH1 0xE0 SHL PUSH1 0x20 DUP3 ADD MSTORE PUSH1 0x1 PUSH1 0x1 PUSH1 0xA0 SHL SUB SWAP3 DUP4 AND PUSH1 0x24 DUP3 ADD MSTORE SWAP3 SWAP1 SWAP2 AND PUSH1 0x44 DUP4 ADD MSTORE PUSH1 0x64 DUP1 DUP4 ADD SWAP4 SWAP1 SWAP4 MSTORE SWAP2 DUP2 MSTORE PUSH1 0xA0 DUP2 ADD SWAP2 DUP2 DUP4 LT PUSH8 0xFFFFFFFFFFFFFFFF DUP5 GT OR PUSH2 0x161C JUMPI PUSH2 0x16AD SWAP3 PUSH1 0x40 MSTORE PUSH2 0x16AF JUMP JUMPDEST JUMP JUMPDEST SWAP1 PUSH1 0x0 PUSH1 0x20 SWAP2 DUP3 DUP2 MLOAD SWAP2 ADD DUP3 DUP6 GAS CALL ISZERO PUSH2 0x170B JUMPI PUSH1 0x0 MLOAD RETURNDATASIZE PUSH2 0x1702 JUMPI POP PUSH1 0x1 PUSH1 0x1 PUSH1 0xA0 SHL SUB DUP2 AND EXTCODESIZE ISZERO JUMPDEST PUSH2 0x16E0 JUMPI POP JUMP JUMPDEST PUSH1 0x40 MLOAD PUSH4 0x5274AFE7 PUSH1 0xE0 SHL DUP2 MSTORE PUSH1 0x1 PUSH1 0x1 PUSH1 0xA0 SHL SUB SWAP1 SWAP2 AND PUSH1 0x4 DUP3 ADD MSTORE PUSH1 0x24 SWAP1 REVERT JUMPDEST PUSH1 0x1 EQ ISZERO PUSH2 0x16D9 JUMP JUMPDEST PUSH1 0x40 MLOAD RETURNDATASIZE PUSH1 0x0 DUP3 RETURNDATACOPY RETURNDATASIZE SWAP1 REVERT JUMPDEST PUSH1 0xFF PUSH1 0x1 SLOAD AND PUSH2 0x1723 JUMPI JUMP JUMPDEST PUSH1 0x40 MLOAD PUSH4 0xD93C0665 PUSH1 0xE0 SHL DUP2 MSTORE PUSH1 0x4 SWAP1 REVERT JUMPDEST PUSH1 0x2 PUSH1 0x0 SLOAD EQ PUSH2 0x1746 JUMPI PUSH1 0x2 PUSH1 0x0 SSTORE JUMP JUMPDEST PUSH1 0x40 MLOAD PUSH4 0x3EE5AEB5 PUSH1 0xE0 SHL DUP2 MSTORE PUSH1 0x4 SWAP1 REVERT JUMPDEST PUSH1 0x7 SLOAD PUSH1 0xFF DUP2 AND SWAP1 PUSH32 0x0 TIMESTAMP LT ISZERO DUP1 PUSH2 0x1889 JUMPI JUMPDEST PUSH2 0x1879 JUMPI JUMPDEST POP PUSH1 0x7 SLOAD PUSH1 0xFF DUP2 AND PUSH1 0x6 DUP2 LT ISZERO PUSH2 0x140C JUMPI PUSH1 0x1 EQ PUSH2 0x180D JUMPI JUMPDEST POP PUSH1 0xFF PUSH1 0x7 SLOAD AND PUSH1 0x6 DUP2 LT ISZERO PUSH2 0x140C JUMPI PUSH1 0x6 DUP3 LT ISZERO PUSH2 0x140C JUMPI DUP1 DUP3 SUB PUSH2 0x17CC JUMPI POP POP JUMP JUMPDEST PUSH32 0xD643A1384921DE4B8AD16DF0A695F1E75FCFE3BCAC27F9C5C8CEE4645872382 SWAP2 PUSH2 0x180A PUSH1 0x40 SWAP3 PUSH2 0x1800 DUP5 MLOAD DUP1 SWAP5 PUSH2 0x13FF JUMP JUMPDEST PUSH1 0x20 DUP4 ADD SWAP1 PUSH2 0x13FF JUMP JUMPDEST LOG1 JUMP JUMPDEST PUSH32 0x0 TIMESTAMP LT DUP1 ISZERO SWAP1 PUSH2 0x184D JUMPI JUMPDEST ISZERO PUSH2 0x17A8 JUMPI PUSH1 0xFF NOT AND PUSH1 0x2 OR PUSH1 0x7 SSTORE CODESIZE PUSH2 0x17A8 JUMP JUMPDEST POP PUSH1 0x8 SLOAD PUSH32 0x0 GT ISZERO PUSH2 0x1838 JUMP JUMPDEST PUSH1 0xFF NOT AND PUSH1 0x1 OR PUSH1 0x7 SSTORE CODESIZE PUSH2 0x178F JUMP JUMPDEST POP PUSH1 0x6 DUP3 LT ISZERO PUSH2 0x140C JUMPI DUP2 ISZERO PUSH2 0x178A JUMP JUMPDEST RETURNDATASIZE ISZERO PUSH2 0x18D5 JUMPI RETURNDATASIZE SWAP1 PUSH8 0xFFFFFFFFFFFFFFFF DUP3 GT PUSH2 0x161C JUMPI PUSH1 0x40 MLOAD SWAP2 PUSH2 0x18C9 PUSH1 0x1F DUP3 ADD PUSH1 0x1F NOT AND PUSH1 0x20 ADD DUP5 PUSH2 0x1632 JUMP JUMPDEST DUP3 MSTORE RETURNDATASIZE PUSH1 0x0 PUSH1 0x20 DUP5 ADD RETURNDATACOPY JUMP JUMPDEST PUSH1 0x60 SWAP1 JUMP JUMPDEST PUSH1 0x40 MLOAD PUSH4 0xA9059CBB PUSH1 0xE0 SHL PUSH1 0x20 DUP3 ADD MSTORE PUSH1 0x1 PUSH1 0x1 PUSH1 0xA0 SHL SUB SWAP3 SWAP1 SWAP3 AND PUSH1 0x24 DUP4 ADD MSTORE PUSH1 0x44 DUP1 DUP4 ADD SWAP4 SWAP1 SWAP4 MSTORE SWAP2 DUP2 MSTORE PUSH2 0x16AD SWAP2 PUSH2 0x1916 PUSH1 0x64 DUP4 PUSH2 0x1632 JUMP JUMPDEST PUSH2 0x16AF JUMP JUMPDEST SWAP1 SWAP2 DUP1 PUSH1 0x40 SWAP4 PUSH1 0x20 DUP5 MSTORE DUP2 PUSH1 0x20 DUP6 ADD MSTORE DUP5 DUP5 ADD CALLDATACOPY PUSH1 0x0 DUP3 DUP3 ADD DUP5 ADD MSTORE PUSH1 0x1F ADD PUSH1 0x1F NOT AND ADD ADD SWAP1 JUMP INVALID LOG2 PUSH5 0x6970667358 0x22 SLT KECCAK256 GASPRICE 0xA5 DUP9 SWAP9 PC DUP16 DUP5 0xCF 0xC4 SAR PUSH32 0x5FA7F09EFCA595DC1EC89FA6FD7572C74F71EA5EC664736F6C63430008140033 0x2F DUP8 DUP9 GT PUSH31 0x7EFF1D82E926EC794901D17C78024A50270940304540A733656F0DA2646970 PUSH7 0x73582212201AF0 DUP3 0xC7 0xA7 SWAP1 0xA8 0x2C EXP SWAP6 0x24 0xD1 0xC8 DUP14 0xB6 BYTE EXP PUSH5 0xF044733107 PUSH12 0xD96AC9DBDD72E16564736F6C PUSH4 0x43000814 STOP CALLER 0x2F DUP8 DUP9 GT PUSH31 0x7EFF1D82E926EC794901D17C78024A50270940304540A733656F0D00000000 "},"methodIdentifiers":{"DEFAULT_ADMIN_ROLE()":"a217fddf","FACTORY_ADMIN_ROLE()":"3360cf5e","createPresale((address,address,uint256,uint256,uint256,uint256,uint256,uint256,address),(uint256,uint256,uint256),(uint256,bytes32,uint256),bytes32)":"ea1b61ba","feeSplitter()":"6052970c","getPresaleDetails(uint256)":"bda75e6d","getRoleAdmin(bytes32)":"248a9ca3","getScheduleSalt(address)":"ca807e68","getVestingForRound(address)":"5ccbf671","grantRole(bytes32,address)":"2f2ff15d","hasRole(bytes32,address)":"91d14854","presaleCount()":"cde27a35","renounceRole(bytes32,address)":"36568abe","revokeRole(bytes32,address)":"d547741f","roundToComplianceHash(address)":"e82f1c0a","roundToLPPlan(address)":"4732f00e","roundToScheduleSalt(address)":"b1012ec9","roundToVesting(address)":"076e7fd3","rounds(uint256)":"8c65c81f","supportsInterface(bytes4)":"01ffc9a7","timelockExecutor()":"f6a4ad65"}}}}}